{
	"data": {
		"bytecode": {
			"linkReferences": {},
			"object": "610200604052348015610010575f80fd5b50604051611614380380611614833981810160405281019061003291906102b5565b886b033b2e3c9fd0803ce800000010156040518060400160405280600281526020017f3833000000000000000000000000000000000000000000000000000000000000815250906100b9576040517f08c379a00000000000000000000000000000000000000000000000000000000081526004016100b091906103fe565b60405180910390fd5b50806b033b2e3c9fd0803ce800000010156040518060400160405280600281526020017f383400000000000000000000000000000000000000000000000000000000000081525090610141576040517f08c379a000000000000000000000000000000000000000000000000000000000815260040161013891906103fe565b60405180910390fd5b508860808181525050886b033b2e3c9fd0803ce8000000610162919061044b565b60c081815250508060a08181525050806b033b2e3c9fd0803ce8000000610189919061044b565b60e081815250508973ffffffffffffffffffffffffffffffffffffffff166101008173ffffffffffffffffffffffffffffffffffffffff1681525050876101208181525050866101408181525050856101608181525050846101808181525050836101a08181525050826101c08181525050816101e081815250505050505050505050505061047e565b5f80fd5b5f73ffffffffffffffffffffffffffffffffffffffff82169050919050565b5f61024082610217565b9050919050565b5f61025182610236565b9050919050565b61026181610247565b811461026b575f80fd5b50565b5f8151905061027c81610258565b92915050565b5f819050919050565b61029481610282565b811461029e575f80fd5b50565b5f815190506102af8161028b565b92915050565b5f805f805f805f805f806101408b8d0312156102d4576102d3610213565b5b5f6102e18d828e0161026e565b9a505060206102f28d828e016102a1565b99505060406103038d828e016102a1565b98505060606103148d828e016102a1565b97505060806103258d828e016102a1565b96505060a06103368d828e016102a1565b95505060c06103478d828e016102a1565b94505060e06103588d828e016102a1565b93505061010061036a8d828e016102a1565b92505061012061037c8d828e016102a1565b9150509295989b9194979a5092959850565b5f81519050919050565b5f82825260208201905092915050565b8281835e5f83830152505050565b5f601f19601f8301169050919050565b5f6103d08261038e565b6103da8185610398565b93506103ea8185602086016103a8565b6103f3816103b6565b840191505092915050565b5f6020820190508181035f83015261041681846103c6565b905092915050565b7f4e487b71000000000000000000000000000000000000000000000000000000005f52601160045260245ffd5b5f61045582610282565b915061046083610282565b92508282039050818111156104785761047761041e565b5b92915050565b60805160a05160c05160e05161010051610120516101405161016051610180516101a0516101c0516101e05161108761058d5f395f81816108d80152610a1301525f6109c101525f81816102f2015261065201525f81816106810152818161076c0152610a3a01525f8181610388015281816106c80152610a6101525f81816102cb015281816103a9015281816106f7015281816107ed01526109e201525f8181610319015281816103ca015261043601525f6102a601525f81816108730152610a8701525f81816105ed015261099c01525f818161036301528181610843015261089401525f818161033f015281816105bd0152818161060e0152818161074301526107c401526110875ff3fe608060405234801561000f575f80fd5b50600436106100e8575f3560e01c8063a58987091161008a578063bc62690811610064578063bc6269081461022c578063d5cd73911461024a578063f420240914610268578063fe5fd69814610286576100e8565b8063a5898709146101be578063a9c622f8146101f0578063acd786861461020e576100e8565b806334762ca5116100c657806334762ca51461014657806354c365c6146101645780636fb925891461018257806380031e37146101a0576100e8565b80630542975c146100ec5780630b3429a21461010a57806314e32da414610128575b5f80fd5b6100f46102a4565b6040516101019190610cd1565b60405180910390f35b6101126102c8565b60405161011f9190610d02565b60405180910390f35b6101306102ef565b60405161013d9190610d02565b60405180910390f35b61014e610316565b60405161015b9190610d02565b60405180910390f35b61016c61033d565b6040516101799190610d02565b60405180910390f35b61018a610361565b6040516101979190610d02565b60405180910390f35b6101a8610385565b6040516101b59190610d02565b60405180910390f35b6101d860048036038101906101d39190610ef6565b610402565b6040516101e793929190610f22565b60405180910390f35b6101f861099a565b6040516102059190610d02565b60405180910390f35b6102166109be565b6040516102239190610d02565b60405180910390f35b610234610a10565b6040516102419190610d02565b60405180910390f35b610252610a37565b60405161025f9190610d02565b60405180910390f35b610270610a5e565b60405161027d9190610d02565b60405180910390f35b61028e610a85565b60405161029b9190610d02565b60405180910390f35b7f000000000000000000000000000000000000000000000000000000000000000081565b5f7f0000000000000000000000000000000000000000000000000000000000000000905090565b5f7f0000000000000000000000000000000000000000000000000000000000000000905090565b5f7f0000000000000000000000000000000000000000000000000000000000000000905090565b7f000000000000000000000000000000000000000000000000000000000000000081565b7f000000000000000000000000000000000000000000000000000000000000000081565b5f7f00000000000000000000000000000000000000000000000000000000000000007f00000000000000000000000000000000000000000000000000000000000000007f00000000000000000000000000000000000000000000000000000000000000006103f39190610f84565b6103fd9190610f84565b905090565b5f805f61040d610c14565b846080015185606001516104219190610f84565b8160200181815250505f8160800181815250507f00000000000000000000000000000000000000000000000000000000000000008160400181815250506104666109be565b8160600181815250505f8160200151146105bb5761049581602001518660600151610aa990919063ffffffff16565b8160e0018181525050846040015185602001518660e0015173ffffffffffffffffffffffffffffffffffffffff166370a082318861010001516040518263ffffffff1660e01b81526004016104ea9190610fc6565b602060405180830381865afa158015610505573d5f803e3d5ffd5b505050506040513d601f19601f820116820180604052508101906105299190610ff3565b6105339190610f84565b61053d919061101e565b815f0181815250508060200151815f01516105589190610f84565b8161010001818152505061057e8161010001518260200151610aa990919063ffffffff16565b8160a00181815250506105b1855f015182610100015161059e9190610f84565b8260200151610aa990919063ffffffff16565b8160c00181815250505b7f00000000000000000000000000000000000000000000000000000000000000008160a00151111561073e575f61064a7f00000000000000000000000000000000000000000000000000000000000000007f00000000000000000000000000000000000000000000000000000000000000008460a0015161063c919061101e565b610aa990919063ffffffff16565b905061067f817f0000000000000000000000000000000000000000000000000000000000000000610aed90919063ffffffff16565b7f00000000000000000000000000000000000000000000000000000000000000006106aa9190610f84565b826060018181516106bb9190610f84565b915081815250506106f5817f0000000000000000000000000000000000000000000000000000000000000000610aed90919063ffffffff16565b7f00000000000000000000000000000000000000000000000000000000000000006107209190610f84565b826040018181516107319190610f84565b9150818152505050610841565b6107a77f00000000000000000000000000000000000000000000000000000000000000006107998360a001517f0000000000000000000000000000000000000000000000000000000000000000610aed90919063ffffffff16565b610aa990919063ffffffff16565b816060018181516107b89190610f84565b915081815250506108287f000000000000000000000000000000000000000000000000000000000000000061081a8360a001517f0000000000000000000000000000000000000000000000000000000000000000610aed90919063ffffffff16565b610aa990919063ffffffff16565b816040018181516108399190610f84565b915081815250505b7f00000000000000000000000000000000000000000000000000000000000000008160e00151111561091f575f6108d07f00000000000000000000000000000000000000000000000000000000000000007f00000000000000000000000000000000000000000000000000000000000000008460e001516108c2919061101e565b610aa990919063ffffffff16565b9050610905817f0000000000000000000000000000000000000000000000000000000000000000610aed90919063ffffffff16565b826060018181516109169190610f84565b91508181525050505b6109748560c00151612710610934919061101e565b6109668360c0015161095889606001518a6080015187604001518c60a00151610b35565b610aed90919063ffffffff16565b610bca90919063ffffffff16565b816080018181525050806080015181606001518260400151935093509350509193909250565b7f000000000000000000000000000000000000000000000000000000000000000081565b5f7f00000000000000000000000000000000000000000000000000000000000000007f0000000000000000000000000000000000000000000000000000000000000000610a0b9190610f84565b905090565b5f7f0000000000000000000000000000000000000000000000000000000000000000905090565b5f7f0000000000000000000000000000000000000000000000000000000000000000905090565b5f7f0000000000000000000000000000000000000000000000000000000000000000905090565b7f000000000000000000000000000000000000000000000000000000000000000081565b5f6b033b2e3c9fd0803ce8000000600283045f1903048311151582151715610acf575f80fd5b81600283046b033b2e3c9fd0803ce800000085020104905092915050565b5f816b019d971e4fe8401e740000005f190304831115821517610b0e575f80fd5b6b033b2e3c9fd0803ce80000006b019d971e4fe8401e740000008385020104905092915050565b5f808486610b439190610f84565b90505f8103610b55575f915050610bc2565b5f610b7185610b6388610bf4565b610aed90919063ffffffff16565b90505f610b8f85610b818a610bf4565b610aed90919063ffffffff16565b90505f610bb8610b9e85610bf4565b8385610baa9190610f84565b610aa990919063ffffffff16565b9050809450505050505b949350505050565b5f816113885f190304831115821517610be1575f80fd5b6127106113888385020104905092915050565b5f633b9aca008202905081633b9aca00820414610c0f575f80fd5b919050565b6040518061012001604052805f81526020015f81526020015f81526020015f81526020015f81526020015f81526020015f81526020015f81526020015f81525090565b5f73ffffffffffffffffffffffffffffffffffffffff82169050919050565b5f819050919050565b5f610c99610c94610c8f84610c57565b610c76565b610c57565b9050919050565b5f610caa82610c7f565b9050919050565b5f610cbb82610ca0565b9050919050565b610ccb81610cb1565b82525050565b5f602082019050610ce45f830184610cc2565b92915050565b5f819050919050565b610cfc81610cea565b82525050565b5f602082019050610d155f830184610cf3565b92915050565b5f604051905090565b5f80fd5b5f80fd5b5f601f19601f8301169050919050565b7f4e487b71000000000000000000000000000000000000000000000000000000005f52604160045260245ffd5b610d7282610d2c565b810181811067ffffffffffffffff82111715610d9157610d90610d3c565b5b80604052505050565b5f610da3610d1b565b9050610daf8282610d69565b919050565b610dbd81610cea565b8114610dc7575f80fd5b50565b5f81359050610dd881610db4565b92915050565b5f610de882610c57565b9050919050565b610df881610dde565b8114610e02575f80fd5b50565b5f81359050610e1381610def565b92915050565b5f6101208284031215610e2f57610e2e610d28565b5b610e3a610120610d9a565b90505f610e4984828501610dca565b5f830152506020610e5c84828501610dca565b6020830152506040610e7084828501610dca565b6040830152506060610e8484828501610dca565b6060830152506080610e9884828501610dca565b60808301525060a0610eac84828501610dca565b60a08301525060c0610ec084828501610dca565b60c08301525060e0610ed484828501610e05565b60e083015250610100610ee984828501610e05565b6101008301525092915050565b5f6101208284031215610f0c57610f0b610d24565b5b5f610f1984828501610e19565b91505092915050565b5f606082019050610f355f830186610cf3565b610f426020830185610cf3565b610f4f6040830184610cf3565b949350505050565b7f4e487b71000000000000000000000000000000000000000000000000000000005f52601160045260245ffd5b5f610f8e82610cea565b9150610f9983610cea565b9250828201905080821115610fb157610fb0610f57565b5b92915050565b610fc081610dde565b82525050565b5f602082019050610fd95f830184610fb7565b92915050565b5f81519050610fed81610db4565b92915050565b5f6020828403121561100857611007610d24565b5b5f61101584828501610fdf565b91505092915050565b5f61102882610cea565b915061103383610cea565b925082820390508181111561104b5761104a610f57565b5b9291505056fea264697066735822122024ccfec125c89d6afa7b31a6276089690761b15474d5e94e36e35557281b195464736f6c634300081a0033",
			"opcodes": "PUSH2 0x200 PUSH1 0x40 MSTORE CALLVALUE DUP1 ISZERO PUSH2 0x10 JUMPI PUSH0 DUP1 REVERT JUMPDEST POP PUSH1 0x40 MLOAD PUSH2 0x1614 CODESIZE SUB DUP1 PUSH2 0x1614 DUP4 CODECOPY DUP2 DUP2 ADD PUSH1 0x40 MSTORE DUP2 ADD SWAP1 PUSH2 0x32 SWAP2 SWAP1 PUSH2 0x2B5 JUMP JUMPDEST DUP9 PUSH12 0x33B2E3C9FD0803CE8000000 LT ISZERO PUSH1 0x40 MLOAD DUP1 PUSH1 0x40 ADD PUSH1 0x40 MSTORE DUP1 PUSH1 0x2 DUP2 MSTORE PUSH1 0x20 ADD PUSH32 0x3833000000000000000000000000000000000000000000000000000000000000 DUP2 MSTORE POP SWAP1 PUSH2 0xB9 JUMPI PUSH1 0x40 MLOAD PUSH32 0x8C379A000000000000000000000000000000000000000000000000000000000 DUP2 MSTORE PUSH1 0x4 ADD PUSH2 0xB0 SWAP2 SWAP1 PUSH2 0x3FE JUMP JUMPDEST PUSH1 0x40 MLOAD DUP1 SWAP2 SUB SWAP1 REVERT JUMPDEST POP DUP1 PUSH12 0x33B2E3C9FD0803CE8000000 LT ISZERO PUSH1 0x40 MLOAD DUP1 PUSH1 0x40 ADD PUSH1 0x40 MSTORE DUP1 PUSH1 0x2 DUP2 MSTORE PUSH1 0x20 ADD PUSH32 0x3834000000000000000000000000000000000000000000000000000000000000 DUP2 MSTORE POP SWAP1 PUSH2 0x141 JUMPI PUSH1 0x40 MLOAD PUSH32 0x8C379A000000000000000000000000000000000000000000000000000000000 DUP2 MSTORE PUSH1 0x4 ADD PUSH2 0x138 SWAP2 SWAP1 PUSH2 0x3FE JUMP JUMPDEST PUSH1 0x40 MLOAD DUP1 SWAP2 SUB SWAP1 REVERT JUMPDEST POP DUP9 PUSH1 0x80 DUP2 DUP2 MSTORE POP POP DUP9 PUSH12 0x33B2E3C9FD0803CE8000000 PUSH2 0x162 SWAP2 SWAP1 PUSH2 0x44B JUMP JUMPDEST PUSH1 0xC0 DUP2 DUP2 MSTORE POP POP DUP1 PUSH1 0xA0 DUP2 DUP2 MSTORE POP POP DUP1 PUSH12 0x33B2E3C9FD0803CE8000000 PUSH2 0x189 SWAP2 SWAP1 PUSH2 0x44B JUMP JUMPDEST PUSH1 0xE0 DUP2 DUP2 MSTORE POP POP DUP10 PUSH20 0xFFFFFFFFFFFFFFFFFFFFFFFFFFFFFFFFFFFFFFFF AND PUSH2 0x100 DUP2 PUSH20 0xFFFFFFFFFFFFFFFFFFFFFFFFFFFFFFFFFFFFFFFF AND DUP2 MSTORE POP POP DUP8 PUSH2 0x120 DUP2 DUP2 MSTORE POP POP DUP7 PUSH2 0x140 DUP2 DUP2 MSTORE POP POP DUP6 PUSH2 0x160 DUP2 DUP2 MSTORE POP POP DUP5 PUSH2 0x180 DUP2 DUP2 MSTORE POP POP DUP4 PUSH2 0x1A0 DUP2 DUP2 MSTORE POP POP DUP3 PUSH2 0x1C0 DUP2 DUP2 MSTORE POP POP DUP2 PUSH2 0x1E0 DUP2 DUP2 MSTORE POP POP POP POP POP POP POP POP POP POP POP POP PUSH2 0x47E JUMP JUMPDEST PUSH0 DUP1 REVERT JUMPDEST PUSH0 PUSH20 0xFFFFFFFFFFFFFFFFFFFFFFFFFFFFFFFFFFFFFFFF DUP3 AND SWAP1 POP SWAP2 SWAP1 POP JUMP JUMPDEST PUSH0 PUSH2 0x240 DUP3 PUSH2 0x217 JUMP JUMPDEST SWAP1 POP SWAP2 SWAP1 POP JUMP JUMPDEST PUSH0 PUSH2 0x251 DUP3 PUSH2 0x236 JUMP JUMPDEST SWAP1 POP SWAP2 SWAP1 POP JUMP JUMPDEST PUSH2 0x261 DUP2 PUSH2 0x247 JUMP JUMPDEST DUP2 EQ PUSH2 0x26B JUMPI PUSH0 DUP1 REVERT JUMPDEST POP JUMP JUMPDEST PUSH0 DUP2 MLOAD SWAP1 POP PUSH2 0x27C DUP2 PUSH2 0x258 JUMP JUMPDEST SWAP3 SWAP2 POP POP JUMP JUMPDEST PUSH0 DUP2 SWAP1 POP SWAP2 SWAP1 POP JUMP JUMPDEST PUSH2 0x294 DUP2 PUSH2 0x282 JUMP JUMPDEST DUP2 EQ PUSH2 0x29E JUMPI PUSH0 DUP1 REVERT JUMPDEST POP JUMP JUMPDEST PUSH0 DUP2 MLOAD SWAP1 POP PUSH2 0x2AF DUP2 PUSH2 0x28B JUMP JUMPDEST SWAP3 SWAP2 POP POP JUMP JUMPDEST PUSH0 DUP1 PUSH0 DUP1 PUSH0 DUP1 PUSH0 DUP1 PUSH0 DUP1 PUSH2 0x140 DUP12 DUP14 SUB SLT ISZERO PUSH2 0x2D4 JUMPI PUSH2 0x2D3 PUSH2 0x213 JUMP JUMPDEST JUMPDEST PUSH0 PUSH2 0x2E1 DUP14 DUP3 DUP15 ADD PUSH2 0x26E JUMP JUMPDEST SWAP11 POP POP PUSH1 0x20 PUSH2 0x2F2 DUP14 DUP3 DUP15 ADD PUSH2 0x2A1 JUMP JUMPDEST SWAP10 POP POP PUSH1 0x40 PUSH2 0x303 DUP14 DUP3 DUP15 ADD PUSH2 0x2A1 JUMP JUMPDEST SWAP9 POP POP PUSH1 0x60 PUSH2 0x314 DUP14 DUP3 DUP15 ADD PUSH2 0x2A1 JUMP JUMPDEST SWAP8 POP POP PUSH1 0x80 PUSH2 0x325 DUP14 DUP3 DUP15 ADD PUSH2 0x2A1 JUMP JUMPDEST SWAP7 POP POP PUSH1 0xA0 PUSH2 0x336 DUP14 DUP3 DUP15 ADD PUSH2 0x2A1 JUMP JUMPDEST SWAP6 POP POP PUSH1 0xC0 PUSH2 0x347 DUP14 DUP3 DUP15 ADD PUSH2 0x2A1 JUMP JUMPDEST SWAP5 POP POP PUSH1 0xE0 PUSH2 0x358 DUP14 DUP3 DUP15 ADD PUSH2 0x2A1 JUMP JUMPDEST SWAP4 POP POP PUSH2 0x100 PUSH2 0x36A DUP14 DUP3 DUP15 ADD PUSH2 0x2A1 JUMP JUMPDEST SWAP3 POP POP PUSH2 0x120 PUSH2 0x37C DUP14 DUP3 DUP15 ADD PUSH2 0x2A1 JUMP JUMPDEST SWAP2 POP POP SWAP3 SWAP6 SWAP9 SWAP12 SWAP2 SWAP5 SWAP8 SWAP11 POP SWAP3 SWAP6 SWAP9 POP JUMP JUMPDEST PUSH0 DUP2 MLOAD SWAP1 POP SWAP2 SWAP1 POP JUMP JUMPDEST PUSH0 DUP3 DUP3 MSTORE PUSH1 0x20 DUP3 ADD SWAP1 POP SWAP3 SWAP2 POP POP JUMP JUMPDEST DUP3 DUP2 DUP4 MCOPY PUSH0 DUP4 DUP4 ADD MSTORE POP POP POP JUMP JUMPDEST PUSH0 PUSH1 0x1F NOT PUSH1 0x1F DUP4 ADD AND SWAP1 POP SWAP2 SWAP1 POP JUMP JUMPDEST PUSH0 PUSH2 0x3D0 DUP3 PUSH2 0x38E JUMP JUMPDEST PUSH2 0x3DA DUP2 DUP6 PUSH2 0x398 JUMP JUMPDEST SWAP4 POP PUSH2 0x3EA DUP2 DUP6 PUSH1 0x20 DUP7 ADD PUSH2 0x3A8 JUMP JUMPDEST PUSH2 0x3F3 DUP2 PUSH2 0x3B6 JUMP JUMPDEST DUP5 ADD SWAP2 POP POP SWAP3 SWAP2 POP POP JUMP JUMPDEST PUSH0 PUSH1 0x20 DUP3 ADD SWAP1 POP DUP2 DUP2 SUB PUSH0 DUP4 ADD MSTORE PUSH2 0x416 DUP2 DUP5 PUSH2 0x3C6 JUMP JUMPDEST SWAP1 POP SWAP3 SWAP2 POP POP JUMP JUMPDEST PUSH32 0x4E487B7100000000000000000000000000000000000000000000000000000000 PUSH0 MSTORE PUSH1 0x11 PUSH1 0x4 MSTORE PUSH1 0x24 PUSH0 REVERT JUMPDEST PUSH0 PUSH2 0x455 DUP3 PUSH2 0x282 JUMP JUMPDEST SWAP2 POP PUSH2 0x460 DUP4 PUSH2 0x282 JUMP JUMPDEST SWAP3 POP DUP3 DUP3 SUB SWAP1 POP DUP2 DUP2 GT ISZERO PUSH2 0x478 JUMPI PUSH2 0x477 PUSH2 0x41E JUMP JUMPDEST JUMPDEST SWAP3 SWAP2 POP POP JUMP JUMPDEST PUSH1 0x80 MLOAD PUSH1 0xA0 MLOAD PUSH1 0xC0 MLOAD PUSH1 0xE0 MLOAD PUSH2 0x100 MLOAD PUSH2 0x120 MLOAD PUSH2 0x140 MLOAD PUSH2 0x160 MLOAD PUSH2 0x180 MLOAD PUSH2 0x1A0 MLOAD PUSH2 0x1C0 MLOAD PUSH2 0x1E0 MLOAD PUSH2 0x1087 PUSH2 0x58D PUSH0 CODECOPY PUSH0 DUP2 DUP2 PUSH2 0x8D8 ADD MSTORE PUSH2 0xA13 ADD MSTORE PUSH0 PUSH2 0x9C1 ADD MSTORE PUSH0 DUP2 DUP2 PUSH2 0x2F2 ADD MSTORE PUSH2 0x652 ADD MSTORE PUSH0 DUP2 DUP2 PUSH2 0x681 ADD MSTORE DUP2 DUP2 PUSH2 0x76C ADD MSTORE PUSH2 0xA3A ADD MSTORE PUSH0 DUP2 DUP2 PUSH2 0x388 ADD MSTORE DUP2 DUP2 PUSH2 0x6C8 ADD MSTORE PUSH2 0xA61 ADD MSTORE PUSH0 DUP2 DUP2 PUSH2 0x2CB ADD MSTORE DUP2 DUP2 PUSH2 0x3A9 ADD MSTORE DUP2 DUP2 PUSH2 0x6F7 ADD MSTORE DUP2 DUP2 PUSH2 0x7ED ADD MSTORE PUSH2 0x9E2 ADD MSTORE PUSH0 DUP2 DUP2 PUSH2 0x319 ADD MSTORE DUP2 DUP2 PUSH2 0x3CA ADD MSTORE PUSH2 0x436 ADD MSTORE PUSH0 PUSH2 0x2A6 ADD MSTORE PUSH0 DUP2 DUP2 PUSH2 0x873 ADD MSTORE PUSH2 0xA87 ADD MSTORE PUSH0 DUP2 DUP2 PUSH2 0x5ED ADD MSTORE PUSH2 0x99C ADD MSTORE PUSH0 DUP2 DUP2 PUSH2 0x363 ADD MSTORE DUP2 DUP2 PUSH2 0x843 ADD MSTORE PUSH2 0x894 ADD MSTORE PUSH0 DUP2 DUP2 PUSH2 0x33F ADD MSTORE DUP2 DUP2 PUSH2 0x5BD ADD MSTORE DUP2 DUP2 PUSH2 0x60E ADD MSTORE DUP2 DUP2 PUSH2 0x743 ADD MSTORE PUSH2 0x7C4 ADD MSTORE PUSH2 0x1087 PUSH0 RETURN INVALID PUSH1 0x80 PUSH1 0x40 MSTORE CALLVALUE DUP1 ISZERO PUSH2 0xF JUMPI PUSH0 DUP1 REVERT JUMPDEST POP PUSH1 0x4 CALLDATASIZE LT PUSH2 0xE8 JUMPI PUSH0 CALLDATALOAD PUSH1 0xE0 SHR DUP1 PUSH4 0xA5898709 GT PUSH2 0x8A JUMPI DUP1 PUSH4 0xBC626908 GT PUSH2 0x64 JUMPI DUP1 PUSH4 0xBC626908 EQ PUSH2 0x22C JUMPI DUP1 PUSH4 0xD5CD7391 EQ PUSH2 0x24A JUMPI DUP1 PUSH4 0xF4202409 EQ PUSH2 0x268 JUMPI DUP1 PUSH4 0xFE5FD698 EQ PUSH2 0x286 JUMPI PUSH2 0xE8 JUMP JUMPDEST DUP1 PUSH4 0xA5898709 EQ PUSH2 0x1BE JUMPI DUP1 PUSH4 0xA9C622F8 EQ PUSH2 0x1F0 JUMPI DUP1 PUSH4 0xACD78686 EQ PUSH2 0x20E JUMPI PUSH2 0xE8 JUMP JUMPDEST DUP1 PUSH4 0x34762CA5 GT PUSH2 0xC6 JUMPI DUP1 PUSH4 0x34762CA5 EQ PUSH2 0x146 JUMPI DUP1 PUSH4 0x54C365C6 EQ PUSH2 0x164 JUMPI DUP1 PUSH4 0x6FB92589 EQ PUSH2 0x182 JUMPI DUP1 PUSH4 0x80031E37 EQ PUSH2 0x1A0 JUMPI PUSH2 0xE8 JUMP JUMPDEST DUP1 PUSH4 0x542975C EQ PUSH2 0xEC JUMPI DUP1 PUSH4 0xB3429A2 EQ PUSH2 0x10A JUMPI DUP1 PUSH4 0x14E32DA4 EQ PUSH2 0x128 JUMPI JUMPDEST PUSH0 DUP1 REVERT JUMPDEST PUSH2 0xF4 PUSH2 0x2A4 JUMP JUMPDEST PUSH1 0x40 MLOAD PUSH2 0x101 SWAP2 SWAP1 PUSH2 0xCD1 JUMP JUMPDEST PUSH1 0x40 MLOAD DUP1 SWAP2 SUB SWAP1 RETURN JUMPDEST PUSH2 0x112 PUSH2 0x2C8 JUMP JUMPDEST PUSH1 0x40 MLOAD PUSH2 0x11F SWAP2 SWAP1 PUSH2 0xD02 JUMP JUMPDEST PUSH1 0x40 MLOAD DUP1 SWAP2 SUB SWAP1 RETURN JUMPDEST PUSH2 0x130 PUSH2 0x2EF JUMP JUMPDEST PUSH1 0x40 MLOAD PUSH2 0x13D SWAP2 SWAP1 PUSH2 0xD02 JUMP JUMPDEST PUSH1 0x40 MLOAD DUP1 SWAP2 SUB SWAP1 RETURN JUMPDEST PUSH2 0x14E PUSH2 0x316 JUMP JUMPDEST PUSH1 0x40 MLOAD PUSH2 0x15B SWAP2 SWAP1 PUSH2 0xD02 JUMP JUMPDEST PUSH1 0x40 MLOAD DUP1 SWAP2 SUB SWAP1 RETURN JUMPDEST PUSH2 0x16C PUSH2 0x33D JUMP JUMPDEST PUSH1 0x40 MLOAD PUSH2 0x179 SWAP2 SWAP1 PUSH2 0xD02 JUMP JUMPDEST PUSH1 0x40 MLOAD DUP1 SWAP2 SUB SWAP1 RETURN JUMPDEST PUSH2 0x18A PUSH2 0x361 JUMP JUMPDEST PUSH1 0x40 MLOAD PUSH2 0x197 SWAP2 SWAP1 PUSH2 0xD02 JUMP JUMPDEST PUSH1 0x40 MLOAD DUP1 SWAP2 SUB SWAP1 RETURN JUMPDEST PUSH2 0x1A8 PUSH2 0x385 JUMP JUMPDEST PUSH1 0x40 MLOAD PUSH2 0x1B5 SWAP2 SWAP1 PUSH2 0xD02 JUMP JUMPDEST PUSH1 0x40 MLOAD DUP1 SWAP2 SUB SWAP1 RETURN JUMPDEST PUSH2 0x1D8 PUSH1 0x4 DUP1 CALLDATASIZE SUB DUP2 ADD SWAP1 PUSH2 0x1D3 SWAP2 SWAP1 PUSH2 0xEF6 JUMP JUMPDEST PUSH2 0x402 JUMP JUMPDEST PUSH1 0x40 MLOAD PUSH2 0x1E7 SWAP4 SWAP3 SWAP2 SWAP1 PUSH2 0xF22 JUMP JUMPDEST PUSH1 0x40 MLOAD DUP1 SWAP2 SUB SWAP1 RETURN JUMPDEST PUSH2 0x1F8 PUSH2 0x99A JUMP JUMPDEST PUSH1 0x40 MLOAD PUSH2 0x205 SWAP2 SWAP1 PUSH2 0xD02 JUMP JUMPDEST PUSH1 0x40 MLOAD DUP1 SWAP2 SUB SWAP1 RETURN JUMPDEST PUSH2 0x216 PUSH2 0x9BE JUMP JUMPDEST PUSH1 0x40 MLOAD PUSH2 0x223 SWAP2 SWAP1 PUSH2 0xD02 JUMP JUMPDEST PUSH1 0x40 MLOAD DUP1 SWAP2 SUB SWAP1 RETURN JUMPDEST PUSH2 0x234 PUSH2 0xA10 JUMP JUMPDEST PUSH1 0x40 MLOAD PUSH2 0x241 SWAP2 SWAP1 PUSH2 0xD02 JUMP JUMPDEST PUSH1 0x40 MLOAD DUP1 SWAP2 SUB SWAP1 RETURN JUMPDEST PUSH2 0x252 PUSH2 0xA37 JUMP JUMPDEST PUSH1 0x40 MLOAD PUSH2 0x25F SWAP2 SWAP1 PUSH2 0xD02 JUMP JUMPDEST PUSH1 0x40 MLOAD DUP1 SWAP2 SUB SWAP1 RETURN JUMPDEST PUSH2 0x270 PUSH2 0xA5E JUMP JUMPDEST PUSH1 0x40 MLOAD PUSH2 0x27D SWAP2 SWAP1 PUSH2 0xD02 JUMP JUMPDEST PUSH1 0x40 MLOAD DUP1 SWAP2 SUB SWAP1 RETURN JUMPDEST PUSH2 0x28E PUSH2 0xA85 JUMP JUMPDEST PUSH1 0x40 MLOAD PUSH2 0x29B SWAP2 SWAP1 PUSH2 0xD02 JUMP JUMPDEST PUSH1 0x40 MLOAD DUP1 SWAP2 SUB SWAP1 RETURN JUMPDEST PUSH32 0x0 DUP2 JUMP JUMPDEST PUSH0 PUSH32 0x0 SWAP1 POP SWAP1 JUMP JUMPDEST PUSH0 PUSH32 0x0 SWAP1 POP SWAP1 JUMP JUMPDEST PUSH0 PUSH32 0x0 SWAP1 POP SWAP1 JUMP JUMPDEST PUSH32 0x0 DUP2 JUMP JUMPDEST PUSH32 0x0 DUP2 JUMP JUMPDEST PUSH0 PUSH32 0x0 PUSH32 0x0 PUSH32 0x0 PUSH2 0x3F3 SWAP2 SWAP1 PUSH2 0xF84 JUMP JUMPDEST PUSH2 0x3FD SWAP2 SWAP1 PUSH2 0xF84 JUMP JUMPDEST SWAP1 POP SWAP1 JUMP JUMPDEST PUSH0 DUP1 PUSH0 PUSH2 0x40D PUSH2 0xC14 JUMP JUMPDEST DUP5 PUSH1 0x80 ADD MLOAD DUP6 PUSH1 0x60 ADD MLOAD PUSH2 0x421 SWAP2 SWAP1 PUSH2 0xF84 JUMP JUMPDEST DUP2 PUSH1 0x20 ADD DUP2 DUP2 MSTORE POP POP PUSH0 DUP2 PUSH1 0x80 ADD DUP2 DUP2 MSTORE POP POP PUSH32 0x0 DUP2 PUSH1 0x40 ADD DUP2 DUP2 MSTORE POP POP PUSH2 0x466 PUSH2 0x9BE JUMP JUMPDEST DUP2 PUSH1 0x60 ADD DUP2 DUP2 MSTORE POP POP PUSH0 DUP2 PUSH1 0x20 ADD MLOAD EQ PUSH2 0x5BB JUMPI PUSH2 0x495 DUP2 PUSH1 0x20 ADD MLOAD DUP7 PUSH1 0x60 ADD MLOAD PUSH2 0xAA9 SWAP1 SWAP2 SWAP1 PUSH4 0xFFFFFFFF AND JUMP JUMPDEST DUP2 PUSH1 0xE0 ADD DUP2 DUP2 MSTORE POP POP DUP5 PUSH1 0x40 ADD MLOAD DUP6 PUSH1 0x20 ADD MLOAD DUP7 PUSH1 0xE0 ADD MLOAD PUSH20 0xFFFFFFFFFFFFFFFFFFFFFFFFFFFFFFFFFFFFFFFF AND PUSH4 0x70A08231 DUP9 PUSH2 0x100 ADD MLOAD PUSH1 0x40 MLOAD DUP3 PUSH4 0xFFFFFFFF AND PUSH1 0xE0 SHL DUP2 MSTORE PUSH1 0x4 ADD PUSH2 0x4EA SWAP2 SWAP1 PUSH2 0xFC6 JUMP JUMPDEST PUSH1 0x20 PUSH1 0x40 MLOAD DUP1 DUP4 SUB DUP2 DUP7 GAS STATICCALL ISZERO DUP1 ISZERO PUSH2 0x505 JUMPI RETURNDATASIZE PUSH0 DUP1 RETURNDATACOPY RETURNDATASIZE PUSH0 REVERT JUMPDEST POP POP POP POP PUSH1 0x40 MLOAD RETURNDATASIZE PUSH1 0x1F NOT PUSH1 0x1F DUP3 ADD AND DUP3 ADD DUP1 PUSH1 0x40 MSTORE POP DUP2 ADD SWAP1 PUSH2 0x529 SWAP2 SWAP1 PUSH2 0xFF3 JUMP JUMPDEST PUSH2 0x533 SWAP2 SWAP1 PUSH2 0xF84 JUMP JUMPDEST PUSH2 0x53D SWAP2 SWAP1 PUSH2 0x101E JUMP JUMPDEST DUP2 PUSH0 ADD DUP2 DUP2 MSTORE POP POP DUP1 PUSH1 0x20 ADD MLOAD DUP2 PUSH0 ADD MLOAD PUSH2 0x558 SWAP2 SWAP1 PUSH2 0xF84 JUMP JUMPDEST DUP2 PUSH2 0x100 ADD DUP2 DUP2 MSTORE POP POP PUSH2 0x57E DUP2 PUSH2 0x100 ADD MLOAD DUP3 PUSH1 0x20 ADD MLOAD PUSH2 0xAA9 SWAP1 SWAP2 SWAP1 PUSH4 0xFFFFFFFF AND JUMP JUMPDEST DUP2 PUSH1 0xA0 ADD DUP2 DUP2 MSTORE POP POP PUSH2 0x5B1 DUP6 PUSH0 ADD MLOAD DUP3 PUSH2 0x100 ADD MLOAD PUSH2 0x59E SWAP2 SWAP1 PUSH2 0xF84 JUMP JUMPDEST DUP3 PUSH1 0x20 ADD MLOAD PUSH2 0xAA9 SWAP1 SWAP2 SWAP1 PUSH4 0xFFFFFFFF AND JUMP JUMPDEST DUP2 PUSH1 0xC0 ADD DUP2 DUP2 MSTORE POP POP JUMPDEST PUSH32 0x0 DUP2 PUSH1 0xA0 ADD MLOAD GT ISZERO PUSH2 0x73E JUMPI PUSH0 PUSH2 0x64A PUSH32 0x0 PUSH32 0x0 DUP5 PUSH1 0xA0 ADD MLOAD PUSH2 0x63C SWAP2 SWAP1 PUSH2 0x101E JUMP JUMPDEST PUSH2 0xAA9 SWAP1 SWAP2 SWAP1 PUSH4 0xFFFFFFFF AND JUMP JUMPDEST SWAP1 POP PUSH2 0x67F DUP2 PUSH32 0x0 PUSH2 0xAED SWAP1 SWAP2 SWAP1 PUSH4 0xFFFFFFFF AND JUMP JUMPDEST PUSH32 0x0 PUSH2 0x6AA SWAP2 SWAP1 PUSH2 0xF84 JUMP JUMPDEST DUP3 PUSH1 0x60 ADD DUP2 DUP2 MLOAD PUSH2 0x6BB SWAP2 SWAP1 PUSH2 0xF84 JUMP JUMPDEST SWAP2 POP DUP2 DUP2 MSTORE POP POP PUSH2 0x6F5 DUP2 PUSH32 0x0 PUSH2 0xAED SWAP1 SWAP2 SWAP1 PUSH4 0xFFFFFFFF AND JUMP JUMPDEST PUSH32 0x0 PUSH2 0x720 SWAP2 SWAP1 PUSH2 0xF84 JUMP JUMPDEST DUP3 PUSH1 0x40 ADD DUP2 DUP2 MLOAD PUSH2 0x731 SWAP2 SWAP1 PUSH2 0xF84 JUMP JUMPDEST SWAP2 POP DUP2 DUP2 MSTORE POP POP POP PUSH2 0x841 JUMP JUMPDEST PUSH2 0x7A7 PUSH32 0x0 PUSH2 0x799 DUP4 PUSH1 0xA0 ADD MLOAD PUSH32 0x0 PUSH2 0xAED SWAP1 SWAP2 SWAP1 PUSH4 0xFFFFFFFF AND JUMP JUMPDEST PUSH2 0xAA9 SWAP1 SWAP2 SWAP1 PUSH4 0xFFFFFFFF AND JUMP JUMPDEST DUP2 PUSH1 0x60 ADD DUP2 DUP2 MLOAD PUSH2 0x7B8 SWAP2 SWAP1 PUSH2 0xF84 JUMP JUMPDEST SWAP2 POP DUP2 DUP2 MSTORE POP POP PUSH2 0x828 PUSH32 0x0 PUSH2 0x81A DUP4 PUSH1 0xA0 ADD MLOAD PUSH32 0x0 PUSH2 0xAED SWAP1 SWAP2 SWAP1 PUSH4 0xFFFFFFFF AND JUMP JUMPDEST PUSH2 0xAA9 SWAP1 SWAP2 SWAP1 PUSH4 0xFFFFFFFF AND JUMP JUMPDEST DUP2 PUSH1 0x40 ADD DUP2 DUP2 MLOAD PUSH2 0x839 SWAP2 SWAP1 PUSH2 0xF84 JUMP JUMPDEST SWAP2 POP DUP2 DUP2 MSTORE POP POP JUMPDEST PUSH32 0x0 DUP2 PUSH1 0xE0 ADD MLOAD GT ISZERO PUSH2 0x91F JUMPI PUSH0 PUSH2 0x8D0 PUSH32 0x0 PUSH32 0x0 DUP5 PUSH1 0xE0 ADD MLOAD PUSH2 0x8C2 SWAP2 SWAP1 PUSH2 0x101E JUMP JUMPDEST PUSH2 0xAA9 SWAP1 SWAP2 SWAP1 PUSH4 0xFFFFFFFF AND JUMP JUMPDEST SWAP1 POP PUSH2 0x905 DUP2 PUSH32 0x0 PUSH2 0xAED SWAP1 SWAP2 SWAP1 PUSH4 0xFFFFFFFF AND JUMP JUMPDEST DUP3 PUSH1 0x60 ADD DUP2 DUP2 MLOAD PUSH2 0x916 SWAP2 SWAP1 PUSH2 0xF84 JUMP JUMPDEST SWAP2 POP DUP2 DUP2 MSTORE POP POP POP JUMPDEST PUSH2 0x974 DUP6 PUSH1 0xC0 ADD MLOAD PUSH2 0x2710 PUSH2 0x934 SWAP2 SWAP1 PUSH2 0x101E JUMP JUMPDEST PUSH2 0x966 DUP4 PUSH1 0xC0 ADD MLOAD PUSH2 0x958 DUP10 PUSH1 0x60 ADD MLOAD DUP11 PUSH1 0x80 ADD MLOAD DUP8 PUSH1 0x40 ADD MLOAD DUP13 PUSH1 0xA0 ADD MLOAD PUSH2 0xB35 JUMP JUMPDEST PUSH2 0xAED SWAP1 SWAP2 SWAP1 PUSH4 0xFFFFFFFF AND JUMP JUMPDEST PUSH2 0xBCA SWAP1 SWAP2 SWAP1 PUSH4 0xFFFFFFFF AND JUMP JUMPDEST DUP2 PUSH1 0x80 ADD DUP2 DUP2 MSTORE POP POP DUP1 PUSH1 0x80 ADD MLOAD DUP2 PUSH1 0x60 ADD MLOAD DUP3 PUSH1 0x40 ADD MLOAD SWAP4 POP SWAP4 POP SWAP4 POP POP SWAP2 SWAP4 SWAP1 SWAP3 POP JUMP JUMPDEST PUSH32 0x0 DUP2 JUMP JUMPDEST PUSH0 PUSH32 0x0 PUSH32 0x0 PUSH2 0xA0B SWAP2 SWAP1 PUSH2 0xF84 JUMP JUMPDEST SWAP1 POP SWAP1 JUMP JUMPDEST PUSH0 PUSH32 0x0 SWAP1 POP SWAP1 JUMP JUMPDEST PUSH0 PUSH32 0x0 SWAP1 POP SWAP1 JUMP JUMPDEST PUSH0 PUSH32 0x0 SWAP1 POP SWAP1 JUMP JUMPDEST PUSH32 0x0 DUP2 JUMP JUMPDEST PUSH0 PUSH12 0x33B2E3C9FD0803CE8000000 PUSH1 0x2 DUP4 DIV PUSH0 NOT SUB DIV DUP4 GT ISZERO ISZERO DUP3 ISZERO OR ISZERO PUSH2 0xACF JUMPI PUSH0 DUP1 REVERT JUMPDEST DUP2 PUSH1 0x2 DUP4 DIV PUSH12 0x33B2E3C9FD0803CE8000000 DUP6 MUL ADD DIV SWAP1 POP SWAP3 SWAP2 POP POP JUMP JUMPDEST PUSH0 DUP2 PUSH12 0x19D971E4FE8401E74000000 PUSH0 NOT SUB DIV DUP4 GT ISZERO DUP3 ISZERO OR PUSH2 0xB0E JUMPI PUSH0 DUP1 REVERT JUMPDEST PUSH12 0x33B2E3C9FD0803CE8000000 PUSH12 0x19D971E4FE8401E74000000 DUP4 DUP6 MUL ADD DIV SWAP1 POP SWAP3 SWAP2 POP POP JUMP JUMPDEST PUSH0 DUP1 DUP5 DUP7 PUSH2 0xB43 SWAP2 SWAP1 PUSH2 0xF84 JUMP JUMPDEST SWAP1 POP PUSH0 DUP2 SUB PUSH2 0xB55 JUMPI PUSH0 SWAP2 POP POP PUSH2 0xBC2 JUMP JUMPDEST PUSH0 PUSH2 0xB71 DUP6 PUSH2 0xB63 DUP9 PUSH2 0xBF4 JUMP JUMPDEST PUSH2 0xAED SWAP1 SWAP2 SWAP1 PUSH4 0xFFFFFFFF AND JUMP JUMPDEST SWAP1 POP PUSH0 PUSH2 0xB8F DUP6 PUSH2 0xB81 DUP11 PUSH2 0xBF4 JUMP JUMPDEST PUSH2 0xAED SWAP1 SWAP2 SWAP1 PUSH4 0xFFFFFFFF AND JUMP JUMPDEST SWAP1 POP PUSH0 PUSH2 0xBB8 PUSH2 0xB9E DUP6 PUSH2 0xBF4 JUMP JUMPDEST DUP4 DUP6 PUSH2 0xBAA SWAP2 SWAP1 PUSH2 0xF84 JUMP JUMPDEST PUSH2 0xAA9 SWAP1 SWAP2 SWAP1 PUSH4 0xFFFFFFFF AND JUMP JUMPDEST SWAP1 POP DUP1 SWAP5 POP POP POP POP POP JUMPDEST SWAP5 SWAP4 POP POP POP POP JUMP JUMPDEST PUSH0 DUP2 PUSH2 0x1388 PUSH0 NOT SUB DIV DUP4 GT ISZERO DUP3 ISZERO OR PUSH2 0xBE1 JUMPI PUSH0 DUP1 REVERT JUMPDEST PUSH2 0x2710 PUSH2 0x1388 DUP4 DUP6 MUL ADD DIV SWAP1 POP SWAP3 SWAP2 POP POP JUMP JUMPDEST PUSH0 PUSH4 0x3B9ACA00 DUP3 MUL SWAP1 POP DUP2 PUSH4 0x3B9ACA00 DUP3 DIV EQ PUSH2 0xC0F JUMPI PUSH0 DUP1 REVERT JUMPDEST SWAP2 SWAP1 POP JUMP JUMPDEST PUSH1 0x40 MLOAD DUP1 PUSH2 0x120 ADD PUSH1 0x40 MSTORE DUP1 PUSH0 DUP2 MSTORE PUSH1 0x20 ADD PUSH0 DUP2 MSTORE PUSH1 0x20 ADD PUSH0 DUP2 MSTORE PUSH1 0x20 ADD PUSH0 DUP2 MSTORE PUSH1 0x20 ADD PUSH0 DUP2 MSTORE PUSH1 0x20 ADD PUSH0 DUP2 MSTORE PUSH1 0x20 ADD PUSH0 DUP2 MSTORE PUSH1 0x20 ADD PUSH0 DUP2 MSTORE PUSH1 0x20 ADD PUSH0 DUP2 MSTORE POP SWAP1 JUMP JUMPDEST PUSH0 PUSH20 0xFFFFFFFFFFFFFFFFFFFFFFFFFFFFFFFFFFFFFFFF DUP3 AND SWAP1 POP SWAP2 SWAP1 POP JUMP JUMPDEST PUSH0 DUP2 SWAP1 POP SWAP2 SWAP1 POP JUMP JUMPDEST PUSH0 PUSH2 0xC99 PUSH2 0xC94 PUSH2 0xC8F DUP5 PUSH2 0xC57 JUMP JUMPDEST PUSH2 0xC76 JUMP JUMPDEST PUSH2 0xC57 JUMP JUMPDEST SWAP1 POP SWAP2 SWAP1 POP JUMP JUMPDEST PUSH0 PUSH2 0xCAA DUP3 PUSH2 0xC7F JUMP JUMPDEST SWAP1 POP SWAP2 SWAP1 POP JUMP JUMPDEST PUSH0 PUSH2 0xCBB DUP3 PUSH2 0xCA0 JUMP JUMPDEST SWAP1 POP SWAP2 SWAP1 POP JUMP JUMPDEST PUSH2 0xCCB DUP2 PUSH2 0xCB1 JUMP JUMPDEST DUP3 MSTORE POP POP JUMP JUMPDEST PUSH0 PUSH1 0x20 DUP3 ADD SWAP1 POP PUSH2 0xCE4 PUSH0 DUP4 ADD DUP5 PUSH2 0xCC2 JUMP JUMPDEST SWAP3 SWAP2 POP POP JUMP JUMPDEST PUSH0 DUP2 SWAP1 POP SWAP2 SWAP1 POP JUMP JUMPDEST PUSH2 0xCFC DUP2 PUSH2 0xCEA JUMP JUMPDEST DUP3 MSTORE POP POP JUMP JUMPDEST PUSH0 PUSH1 0x20 DUP3 ADD SWAP1 POP PUSH2 0xD15 PUSH0 DUP4 ADD DUP5 PUSH2 0xCF3 JUMP JUMPDEST SWAP3 SWAP2 POP POP JUMP JUMPDEST PUSH0 PUSH1 0x40 MLOAD SWAP1 POP SWAP1 JUMP JUMPDEST PUSH0 DUP1 REVERT JUMPDEST PUSH0 DUP1 REVERT JUMPDEST PUSH0 PUSH1 0x1F NOT PUSH1 0x1F DUP4 ADD AND SWAP1 POP SWAP2 SWAP1 POP JUMP JUMPDEST PUSH32 0x4E487B7100000000000000000000000000000000000000000000000000000000 PUSH0 MSTORE PUSH1 0x41 PUSH1 0x4 MSTORE PUSH1 0x24 PUSH0 REVERT JUMPDEST PUSH2 0xD72 DUP3 PUSH2 0xD2C JUMP JUMPDEST DUP2 ADD DUP2 DUP2 LT PUSH8 0xFFFFFFFFFFFFFFFF DUP3 GT OR ISZERO PUSH2 0xD91 JUMPI PUSH2 0xD90 PUSH2 0xD3C JUMP JUMPDEST JUMPDEST DUP1 PUSH1 0x40 MSTORE POP POP POP JUMP JUMPDEST PUSH0 PUSH2 0xDA3 PUSH2 0xD1B JUMP JUMPDEST SWAP1 POP PUSH2 0xDAF DUP3 DUP3 PUSH2 0xD69 JUMP JUMPDEST SWAP2 SWAP1 POP JUMP JUMPDEST PUSH2 0xDBD DUP2 PUSH2 0xCEA JUMP JUMPDEST DUP2 EQ PUSH2 0xDC7 JUMPI PUSH0 DUP1 REVERT JUMPDEST POP JUMP JUMPDEST PUSH0 DUP2 CALLDATALOAD SWAP1 POP PUSH2 0xDD8 DUP2 PUSH2 0xDB4 JUMP JUMPDEST SWAP3 SWAP2 POP POP JUMP JUMPDEST PUSH0 PUSH2 0xDE8 DUP3 PUSH2 0xC57 JUMP JUMPDEST SWAP1 POP SWAP2 SWAP1 POP JUMP JUMPDEST PUSH2 0xDF8 DUP2 PUSH2 0xDDE JUMP JUMPDEST DUP2 EQ PUSH2 0xE02 JUMPI PUSH0 DUP1 REVERT JUMPDEST POP JUMP JUMPDEST PUSH0 DUP2 CALLDATALOAD SWAP1 POP PUSH2 0xE13 DUP2 PUSH2 0xDEF JUMP JUMPDEST SWAP3 SWAP2 POP POP JUMP JUMPDEST PUSH0 PUSH2 0x120 DUP3 DUP5 SUB SLT ISZERO PUSH2 0xE2F JUMPI PUSH2 0xE2E PUSH2 0xD28 JUMP JUMPDEST JUMPDEST PUSH2 0xE3A PUSH2 0x120 PUSH2 0xD9A JUMP JUMPDEST SWAP1 POP PUSH0 PUSH2 0xE49 DUP5 DUP3 DUP6 ADD PUSH2 0xDCA JUMP JUMPDEST PUSH0 DUP4 ADD MSTORE POP PUSH1 0x20 PUSH2 0xE5C DUP5 DUP3 DUP6 ADD PUSH2 0xDCA JUMP JUMPDEST PUSH1 0x20 DUP4 ADD MSTORE POP PUSH1 0x40 PUSH2 0xE70 DUP5 DUP3 DUP6 ADD PUSH2 0xDCA JUMP JUMPDEST PUSH1 0x40 DUP4 ADD MSTORE POP PUSH1 0x60 PUSH2 0xE84 DUP5 DUP3 DUP6 ADD PUSH2 0xDCA JUMP JUMPDEST PUSH1 0x60 DUP4 ADD MSTORE POP PUSH1 0x80 PUSH2 0xE98 DUP5 DUP3 DUP6 ADD PUSH2 0xDCA JUMP JUMPDEST PUSH1 0x80 DUP4 ADD MSTORE POP PUSH1 0xA0 PUSH2 0xEAC DUP5 DUP3 DUP6 ADD PUSH2 0xDCA JUMP JUMPDEST PUSH1 0xA0 DUP4 ADD MSTORE POP PUSH1 0xC0 PUSH2 0xEC0 DUP5 DUP3 DUP6 ADD PUSH2 0xDCA JUMP JUMPDEST PUSH1 0xC0 DUP4 ADD MSTORE POP PUSH1 0xE0 PUSH2 0xED4 DUP5 DUP3 DUP6 ADD PUSH2 0xE05 JUMP JUMPDEST PUSH1 0xE0 DUP4 ADD MSTORE POP PUSH2 0x100 PUSH2 0xEE9 DUP5 DUP3 DUP6 ADD PUSH2 0xE05 JUMP JUMPDEST PUSH2 0x100 DUP4 ADD MSTORE POP SWAP3 SWAP2 POP POP JUMP JUMPDEST PUSH0 PUSH2 0x120 DUP3 DUP5 SUB SLT ISZERO PUSH2 0xF0C JUMPI PUSH2 0xF0B PUSH2 0xD24 JUMP JUMPDEST JUMPDEST PUSH0 PUSH2 0xF19 DUP5 DUP3 DUP6 ADD PUSH2 0xE19 JUMP JUMPDEST SWAP2 POP POP SWAP3 SWAP2 POP POP JUMP JUMPDEST PUSH0 PUSH1 0x60 DUP3 ADD SWAP1 POP PUSH2 0xF35 PUSH0 DUP4 ADD DUP7 PUSH2 0xCF3 JUMP JUMPDEST PUSH2 0xF42 PUSH1 0x20 DUP4 ADD DUP6 PUSH2 0xCF3 JUMP JUMPDEST PUSH2 0xF4F PUSH1 0x40 DUP4 ADD DUP5 PUSH2 0xCF3 JUMP JUMPDEST SWAP5 SWAP4 POP POP POP POP JUMP JUMPDEST PUSH32 0x4E487B7100000000000000000000000000000000000000000000000000000000 PUSH0 MSTORE PUSH1 0x11 PUSH1 0x4 MSTORE PUSH1 0x24 PUSH0 REVERT JUMPDEST PUSH0 PUSH2 0xF8E DUP3 PUSH2 0xCEA JUMP JUMPDEST SWAP2 POP PUSH2 0xF99 DUP4 PUSH2 0xCEA JUMP JUMPDEST SWAP3 POP DUP3 DUP3 ADD SWAP1 POP DUP1 DUP3 GT ISZERO PUSH2 0xFB1 JUMPI PUSH2 0xFB0 PUSH2 0xF57 JUMP JUMPDEST JUMPDEST SWAP3 SWAP2 POP POP JUMP JUMPDEST PUSH2 0xFC0 DUP2 PUSH2 0xDDE JUMP JUMPDEST DUP3 MSTORE POP POP JUMP JUMPDEST PUSH0 PUSH1 0x20 DUP3 ADD SWAP1 POP PUSH2 0xFD9 PUSH0 DUP4 ADD DUP5 PUSH2 0xFB7 JUMP JUMPDEST SWAP3 SWAP2 POP POP JUMP JUMPDEST PUSH0 DUP2 MLOAD SWAP1 POP PUSH2 0xFED DUP2 PUSH2 0xDB4 JUMP JUMPDEST SWAP3 SWAP2 POP POP JUMP JUMPDEST PUSH0 PUSH1 0x20 DUP3 DUP5 SUB SLT ISZERO PUSH2 0x1008 JUMPI PUSH2 0x1007 PUSH2 0xD24 JUMP JUMPDEST JUMPDEST PUSH0 PUSH2 0x1015 DUP5 DUP3 DUP6 ADD PUSH2 0xFDF JUMP JUMPDEST SWAP2 POP POP SWAP3 SWAP2 POP POP JUMP JUMPDEST PUSH0 PUSH2 0x1028 DUP3 PUSH2 0xCEA JUMP JUMPDEST SWAP2 POP PUSH2 0x1033 DUP4 PUSH2 0xCEA JUMP JUMPDEST SWAP3 POP DUP3 DUP3 SUB SWAP1 POP DUP2 DUP2 GT ISZERO PUSH2 0x104B JUMPI PUSH2 0x104A PUSH2 0xF57 JUMP JUMPDEST JUMPDEST SWAP3 SWAP2 POP POP JUMP INVALID LOG2 PUSH5 0x6970667358 0x22 SLT KECCAK256 0x24 0xCC INVALID 0xC1 0x25 0xC8 SWAP14 PUSH11 0xFA7B31A6276089690761B1 SLOAD PUSH21 0xD5E94E36E35557281B195464736F6C634300081A00 CALLER "
		},
		"gasEstimates": {
			"creation": {
				"codeDepositCost": "846200",
				"executionCost": "infinite",
				"totalCost": "infinite"
			},
			"external": {
				"ADDRESSES_PROVIDER()": "infinite",
				"MAX_EXCESS_STABLE_TO_TOTAL_DEBT_RATIO()": "infinite",
				"MAX_EXCESS_USAGE_RATIO()": "infinite",
				"OPTIMAL_STABLE_TO_TOTAL_DEBT_RATIO()": "infinite",
				"OPTIMAL_USAGE_RATIO()": "infinite",
				"calculateInterestRates((uint256,uint256,uint256,uint256,uint256,uint256,uint256,address,address))": "infinite",
				"getBaseStableBorrowRate()": "infinite",
				"getBaseVariableBorrowRate()": "infinite",
				"getMaxVariableBorrowRate()": "infinite",
				"getStableRateExcessOffset()": "infinite",
				"getStableRateSlope1()": "infinite",
				"getStableRateSlope2()": "infinite",
				"getVariableRateSlope1()": "infinite",
				"getVariableRateSlope2()": "infinite"
			},
			"internal": {
				"_getOverallBorrowRate(uint256,uint256,uint256,uint256)": "infinite"
			}
		},
		"methodIdentifiers": {
			"ADDRESSES_PROVIDER()": "0542975c",
			"MAX_EXCESS_STABLE_TO_TOTAL_DEBT_RATIO()": "fe5fd698",
			"MAX_EXCESS_USAGE_RATIO()": "a9c622f8",
			"OPTIMAL_STABLE_TO_TOTAL_DEBT_RATIO()": "6fb92589",
			"OPTIMAL_USAGE_RATIO()": "54c365c6",
			"calculateInterestRates((uint256,uint256,uint256,uint256,uint256,uint256,uint256,address,address))": "a5898709",
			"getBaseStableBorrowRate()": "acd78686",
			"getBaseVariableBorrowRate()": "34762ca5",
			"getMaxVariableBorrowRate()": "80031e37",
			"getStableRateExcessOffset()": "bc626908",
			"getStableRateSlope1()": "d5cd7391",
			"getStableRateSlope2()": "14e32da4",
			"getVariableRateSlope1()": "0b3429a2",
			"getVariableRateSlope2()": "f4202409"
		}
	},
	"abi": [
		{
			"inputs": [
				{
					"internalType": "contract IPoolAddressesProvider",
					"name": "provider",
					"type": "address"
				},
				{
					"internalType": "uint256",
					"name": "optimalUsageRatio",
					"type": "uint256"
				},
				{
					"internalType": "uint256",
					"name": "baseVariableBorrowRate",
					"type": "uint256"
				},
				{
					"internalType": "uint256",
					"name": "variableRateSlope1",
					"type": "uint256"
				},
				{
					"internalType": "uint256",
					"name": "variableRateSlope2",
					"type": "uint256"
				},
				{
					"internalType": "uint256",
					"name": "stableRateSlope1",
					"type": "uint256"
				},
				{
					"internalType": "uint256",
					"name": "stableRateSlope2",
					"type": "uint256"
				},
				{
					"internalType": "uint256",
					"name": "baseStableRateOffset",
					"type": "uint256"
				},
				{
					"internalType": "uint256",
					"name": "stableRateExcessOffset",
					"type": "uint256"
				},
				{
					"internalType": "uint256",
					"name": "optimalStableToTotalDebtRatio",
					"type": "uint256"
				}
			],
			"stateMutability": "nonpayable",
			"type": "constructor"
		},
		{
			"inputs": [],
			"name": "ADDRESSES_PROVIDER",
			"outputs": [
				{
					"internalType": "contract IPoolAddressesProvider",
					"name": "",
					"type": "address"
				}
			],
			"stateMutability": "view",
			"type": "function"
		},
		{
			"inputs": [],
			"name": "MAX_EXCESS_STABLE_TO_TOTAL_DEBT_RATIO",
			"outputs": [
				{
					"internalType": "uint256",
					"name": "",
					"type": "uint256"
				}
			],
			"stateMutability": "view",
			"type": "function"
		},
		{
			"inputs": [],
			"name": "MAX_EXCESS_USAGE_RATIO",
			"outputs": [
				{
					"internalType": "uint256",
					"name": "",
					"type": "uint256"
				}
			],
			"stateMutability": "view",
			"type": "function"
		},
		{
			"inputs": [],
			"name": "OPTIMAL_STABLE_TO_TOTAL_DEBT_RATIO",
			"outputs": [
				{
					"internalType": "uint256",
					"name": "",
					"type": "uint256"
				}
			],
			"stateMutability": "view",
			"type": "function"
		},
		{
			"inputs": [],
			"name": "OPTIMAL_USAGE_RATIO",
			"outputs": [
				{
					"internalType": "uint256",
					"name": "",
					"type": "uint256"
				}
			],
			"stateMutability": "view",
			"type": "function"
		},
		{
			"inputs": [
				{
					"components": [
						{
							"internalType": "uint256",
							"name": "unbacked",
							"type": "uint256"
						},
						{
							"internalType": "uint256",
							"name": "liquidityAdded",
							"type": "uint256"
						},
						{
							"internalType": "uint256",
							"name": "liquidityTaken",
							"type": "uint256"
						},
						{
							"internalType": "uint256",
							"name": "totalStableDebt",
							"type": "uint256"
						},
						{
							"internalType": "uint256",
							"name": "totalVariableDebt",
							"type": "uint256"
						},
						{
							"internalType": "uint256",
							"name": "averageStableBorrowRate",
							"type": "uint256"
						},
						{
							"internalType": "uint256",
							"name": "reserveFactor",
							"type": "uint256"
						},
						{
							"internalType": "address",
							"name": "reserve",
							"type": "address"
						},
						{
							"internalType": "address",
							"name": "aToken",
							"type": "address"
						}
					],
					"internalType": "struct DataTypes.CalculateInterestRatesParams",
					"name": "params",
					"type": "tuple"
				}
			],
			"name": "calculateInterestRates",
			"outputs": [
				{
					"internalType": "uint256",
					"name": "",
					"type": "uint256"
				},
				{
					"internalType": "uint256",
					"name": "",
					"type": "uint256"
				},
				{
					"internalType": "uint256",
					"name": "",
					"type": "uint256"
				}
			],
			"stateMutability": "view",
			"type": "function"
		},
		{
			"inputs": [],
			"name": "getBaseStableBorrowRate",
			"outputs": [
				{
					"internalType": "uint256",
					"name": "",
					"type": "uint256"
				}
			],
			"stateMutability": "view",
			"type": "function"
		},
		{
			"inputs": [],
			"name": "getBaseVariableBorrowRate",
			"outputs": [
				{
					"internalType": "uint256",
					"name": "",
					"type": "uint256"
				}
			],
			"stateMutability": "view",
			"type": "function"
		},
		{
			"inputs": [],
			"name": "getMaxVariableBorrowRate",
			"outputs": [
				{
					"internalType": "uint256",
					"name": "",
					"type": "uint256"
				}
			],
			"stateMutability": "view",
			"type": "function"
		},
		{
			"inputs": [],
			"name": "getStableRateExcessOffset",
			"outputs": [
				{
					"internalType": "uint256",
					"name": "",
					"type": "uint256"
				}
			],
			"stateMutability": "view",
			"type": "function"
		},
		{
			"inputs": [],
			"name": "getStableRateSlope1",
			"outputs": [
				{
					"internalType": "uint256",
					"name": "",
					"type": "uint256"
				}
			],
			"stateMutability": "view",
			"type": "function"
		},
		{
			"inputs": [],
			"name": "getStableRateSlope2",
			"outputs": [
				{
					"internalType": "uint256",
					"name": "",
					"type": "uint256"
				}
			],
			"stateMutability": "view",
			"type": "function"
		},
		{
			"inputs": [],
			"name": "getVariableRateSlope1",
			"outputs": [
				{
					"internalType": "uint256",
					"name": "",
					"type": "uint256"
				}
			],
			"stateMutability": "view",
			"type": "function"
		},
		{
			"inputs": [],
			"name": "getVariableRateSlope2",
			"outputs": [
				{
					"internalType": "uint256",
					"name": "",
					"type": "uint256"
				}
			],
			"stateMutability": "view",
			"type": "function"
		}
	]
}