{
	"data": {
		"bytecode": {
			"linkReferences": {
				"contracts/protocol/libraries/logic/BorrowLogic.sol": {
					"BorrowLogic": [
						{
							"length": 20,
							"start": 5434
						},
						{
							"length": 20,
							"start": 7660
						},
						{
							"length": 20,
							"start": 10437
						},
						{
							"length": 20,
							"start": 10792
						},
						{
							"length": 20,
							"start": 13960
						},
						{
							"length": 20,
							"start": 16862
						}
					]
				},
				"contracts/protocol/libraries/logic/BridgeLogic.sol": {
					"BridgeLogic": [
						{
							"length": 20,
							"start": 9361
						},
						{
							"length": 20,
							"start": 15895
						}
					]
				},
				"contracts/protocol/libraries/logic/EModeLogic.sol": {
					"EModeLogic": [
						{
							"length": 20,
							"start": 5046
						}
					]
				},
				"contracts/protocol/libraries/logic/FlashLoanLogic.sol": {
					"FlashLoanLogic": [
						{
							"length": 20,
							"start": 7257
						},
						{
							"length": 20,
							"start": 12551
						}
					]
				},
				"contracts/protocol/libraries/logic/LiquidationLogic.sol": {
					"LiquidationLogic": [
						{
							"length": 20,
							"start": 3274
						}
					]
				},
				"contracts/protocol/libraries/logic/PoolLogic.sol": {
					"PoolLogic": [
						{
							"length": 20,
							"start": 8648
						},
						{
							"length": 20,
							"start": 9955
						},
						{
							"length": 20,
							"start": 10684
						},
						{
							"length": 20,
							"start": 12866
						},
						{
							"length": 20,
							"start": 14135
						},
						{
							"length": 20,
							"start": 16142
						}
					]
				},
				"contracts/protocol/libraries/logic/SupplyLogic.sol": {
					"SupplyLogic": [
						{
							"length": 20,
							"start": 4062
						},
						{
							"length": 20,
							"start": 7976
						},
						{
							"length": 20,
							"start": 8387
						},
						{
							"length": 20,
							"start": 8809
						},
						{
							"length": 20,
							"start": 15337
						},
						{
							"length": 20,
							"start": 16285
						}
					]
				}
			},
			"object": "60a06040525f8055348015610012575f80fd5b5060405161810c38038061810c833981810160405281019061003491906100df565b808073ffffffffffffffffffffffffffffffffffffffff1660808173ffffffffffffffffffffffffffffffffffffffff1681525050505061010a565b5f80fd5b5f73ffffffffffffffffffffffffffffffffffffffff82169050919050565b5f61009d82610074565b9050919050565b5f6100ae82610093565b9050919050565b6100be816100a4565b81146100c8575f80fd5b50565b5f815190506100d9816100b5565b92915050565b5f602082840312156100f4576100f3610070565b5b5f610101848285016100cb565b91505092915050565b608051617f8161018b5f395f8181610be901528181610ce301528181610f54015281816112af01528181611e0d0152818161219e015281816129dc01528181612ad601528181612de301528181612e710152818161316e015281816133e701528181613b0c015281816143c9015281816147e40152614a680152617f815ff3fe608060405234801561000f575f80fd5b5060043610610380575f3560e01c80637a708e92116101dc578063d1946dbc1161010d578063e82fec2f116100ab578063f51e435b1161007a578063f51e435b14610acb578063f7a7384014610ae7578063f8119d5114610b03578063fd21ecff14610b2157610380565b8063e82fec2f14610a31578063e8eda9df14610a4f578063eddf1b7914610a6b578063ee3e210b14610a9b57610380565b8063d5eed868116100e7578063d5eed86814610999578063d65dc7a1146109b5578063dc7c0bff146109e5578063e43e88a114610a1557610380565b8063d1946dbc14610943578063d579ea7d14610961578063d5ed39331461097d57610380565b8063bcb6e5221161017a578063c4d66de811610154578063c4d66de8146108bf578063cd112382146108db578063cea9d26f146108f7578063d15e00531461091357610380565b8063bcb6e5221461083e578063bf92857c1461085a578063c44b11f71461088f57610380565b806394ba89a2116101b657806394ba89a2146107ce5780639cd19996146107ea578063a415bcad14610806578063ab9c4b5d1461082257610380565b80637a708e92146107525780638e19899e1461076e57806394b576de1461079e57610380565b806342b0b77c116102b6578063617ba0371161025457806369328dec1161022e57806369328dec146106b857806369a933a5146106e85780636a99c036146107045780636c6f6ae11461072257610380565b8063617ba0371461066457806363c9b86014610680578063680dd47c1461069c57610380565b8063527517971161029057806352751797146105b8578063563dd613146105e8578063573ade81146106185780635a3b74b91461064857610380565b806342b0b77c146105505780634417a5831461056c5780634d013f031461059c57610380565b8063272d9072116103235780633036b439116102fd5780633036b439146104b857806335ea6a75146104d4578063386497fd14610504578063427da1771461053457610380565b8063272d90721461044e57806328530a471461046c5780632dad97d41461048857610380565b80630542975c1161035f5780630542975c146103da578063074b2e43146103f85780631d2118f9146104165780631fe3c6f31461043257610380565b8062a718a9146103845780630148170e146103a057806302c205f0146103be575b5f80fd5b61039e600480360381019061039991906153a1565b610b3d565b005b6103a8610dda565b6040516103b59190615427565b60405180910390f35b6103d860048036038101906103d391906154e0565b610ddf565b005b6103e2610f52565b6040516103ef91906155ec565b60405180910390f35b610400610f76565b60405161040d919061562f565b60405180910390f35b610430600480360381019061042b9190615648565b610f9a565b005b61044c60048036038101906104479190615686565b611200565b005b610456611220565b6040516104639190615427565b60405180910390f35b610486600480360381019061048191906156b1565b611229565b005b6104a2600480360381019061049d91906156dc565b6113ac565b6040516104af9190615427565b60405180910390f35b6104d260048036038101906104cd919061572c565b6114e9565b005b6104ee60048036038101906104e99190615757565b6114fb565b6040516104fb919061592a565b60405180910390f35b61051e60048036038101906105199190615757565b611957565b60405161052b9190615427565b60405180910390f35b61054e60048036038101906105499190615686565b6119a4565b005b61056a600480360381019061056591906159a5565b6119c4565b005b61058660048036038101906105819190615757565b611b76565b6040516105939190615a55565b60405180910390f35b6105b660048036038101906105b19190615686565b611bd6565b005b6105d260048036038101906105cd9190615a6e565b611bf6565b6040516105df9190615aa8565b60405180910390f35b61060260048036038101906105fd9190615686565b611c33565b60405161060f9190615427565b60405180910390f35b610632600480360381019061062d9190615ac1565b611c5e565b60405161063f9190615427565b60405180910390f35b610662600480360381019061065d9190615b25565b611d9b565b005b61067e60048036038101906106799190615b63565b611f36565b005b61069a60048036038101906106959190615757565b612033565b005b6106b660048036038101906106b19190615bc7565b6120a7565b005b6106d260048036038101906106cd9190615c17565b6120db565b6040516106df9190615427565b60405180910390f35b61070260048036038101906106fd9190615b63565b6122fc565b005b61070c6123b7565b604051610719919061562f565b60405180910390f35b61073c600480360381019061073791906156b1565b6123dc565b6040516107499190615d4a565b60405180910390f35b61076c60048036038101906107679190615d6a565b61254e565b005b61078860048036038101906107839190615686565b6126d9565b6040516107959190615427565b60405180910390f35b6107b860048036038101906107b39190615bc7565b6126ff565b6040516107c59190615427565b60405180910390f35b6107e860048036038101906107e39190615de1565b612738565b005b61080460048036038101906107ff9190615e74565b61282f565b005b610820600480360381019061081b9190615ebf565b61289b565b005b61083c60048036038101906108379190615f8b565b612bcd565b005b610858600480360381019061085391906160d2565b613032565b005b610874600480360381019061086f9190615757565b6130af565b60405161088696959493929190616110565b60405180910390f35b6108a960048036038101906108a49190615757565b6132d7565b6040516108b69190616189565b60405180910390f35b6108d960048036038101906108d491906161dd565b613339565b005b6108f560048036038101906108f09190615648565b6134fb565b005b610911600480360381019061090c9190616208565b6135a2565b005b61092d60048036038101906109289190615757565b613616565b60405161093a9190615427565b60405180910390f35b61094b613663565b6040516109589190616300565b60405180910390f35b61097b600480360381019061097691906164f5565b6137f0565b005b6109976004803603810190610992919061654f565b613956565b005b6109b360048036038101906109ae9190615686565b613c56565b005b6109cf60048036038101906109ca91906156dc565b613c81565b6040516109dc9190615427565b60405180910390f35b6109ff60048036038101906109fa9190615686565b613d4f565b604051610a0c9190615427565b60405180910390f35b610a2f6004803603810190610a2a9190615757565b613d79565b005b610a39613dea565b604051610a469190615427565b60405180910390f35b610a696004803603810190610a649190615b63565b613e10565b005b610a856004803603810190610a809190615757565b613f0d565b604051610a929190615427565b60405180910390f35b610ab56004803603810190610ab091906165d8565b613f62565b604051610ac29190615427565b60405180910390f35b610ae56004803603810190610ae091906166ab565b61411a565b005b610b016004803603810190610afc9190615686565b614351565b005b610b0b614377565b604051610b1891906166f8565b60405180910390f35b610b3b6004803603810190610b369190616711565b61437f565b005b73__$f598c634f2d943205ac23f707b80075cbb$__6383c1087d6034603660356037604051806101200160405280603b60089054906101000a900461ffff1661ffff1681526020018981526020018c73ffffffffffffffffffffffffffffffffffffffff1681526020018b73ffffffffffffffffffffffffffffffffffffffff1681526020018a73ffffffffffffffffffffffffffffffffffffffff16815260200188151581526020017f000000000000000000000000000000000000000000000000000000000000000073ffffffffffffffffffffffffffffffffffffffff1663fca513a86040518163ffffffff1660e01b8152600401602060405180830381865afa158015610c50573d5f803e3d5ffd5b505050506040513d601f19601f82011682018060405250810190610c749190616763565b73ffffffffffffffffffffffffffffffffffffffff16815260200160385f8c73ffffffffffffffffffffffffffffffffffffffff1673ffffffffffffffffffffffffffffffffffffffff1681526020019081526020015f205f9054906101000a900460ff1660ff1681526020017f000000000000000000000000000000000000000000000000000000000000000073ffffffffffffffffffffffffffffffffffffffff16635eb88d3d6040518163ffffffff1660e01b8152600401602060405180830381865afa158015610d4a573d5f803e3d5ffd5b505050506040513d601f19601f82011682018060405250810190610d6e9190616763565b73ffffffffffffffffffffffffffffffffffffffff168152506040518663ffffffff1660e01b8152600401610da795949392919061689b565b5f6040518083038186803b158015610dbd575f80fd5b505af4158015610dcf573d5f803e3d5ffd5b505050505050505050565b600181565b8773ffffffffffffffffffffffffffffffffffffffff1663d505accf33308a888888886040518863ffffffff1660e01b8152600401610e24979695949392919061690b565b5f604051808303815f87803b158015610e3b575f80fd5b505af1158015610e4d573d5f803e3d5ffd5b5050505073__$db79717e66442ee197e8271d032a066e34$__631913f1616034603660355f8b73ffffffffffffffffffffffffffffffffffffffff1673ffffffffffffffffffffffffffffffffffffffff1681526020019081526020015f2060405180608001604052808e73ffffffffffffffffffffffffffffffffffffffff1681526020018d81526020018c73ffffffffffffffffffffffffffffffffffffffff1681526020018b61ffff168152506040518563ffffffff1660e01b8152600401610f1c94939291906169e1565b5f6040518083038186803b158015610f32575f80fd5b505af4158015610f44573d5f803e3d5ffd5b505050505050505050505050565b7f000000000000000000000000000000000000000000000000000000000000000081565b5f603a5f9054906101000a90046fffffffffffffffffffffffffffffffff16905090565b610fa26143b0565b5f73ffffffffffffffffffffffffffffffffffffffff168273ffffffffffffffffffffffffffffffffffffffff1614156040518060400160405280600281526020017f373700000000000000000000000000000000000000000000000000000000000081525090611049576040517f08c379a00000000000000000000000000000000000000000000000000000000081526004016110409190616a6c565b60405180910390fd5b505f60345f8473ffffffffffffffffffffffffffffffffffffffff1673ffffffffffffffffffffffffffffffffffffffff1681526020019081526020015f2060030160159054906101000a900461ffff1661ffff1614158061110657508173ffffffffffffffffffffffffffffffffffffffff1660365f8081526020019081526020015f205f9054906101000a900473ffffffffffffffffffffffffffffffffffffffff1673ffffffffffffffffffffffffffffffffffffffff16145b6040518060400160405280600281526020017f38320000000000000000000000000000000000000000000000000000000000008152509061117d576040517f08c379a00000000000000000000000000000000000000000000000000000000081526004016111749190616a6c565b60405180910390fd5b508060345f8473ffffffffffffffffffffffffffffffffffffffff1673ffffffffffffffffffffffffffffffffffffffff1681526020019081526020015f206007015f6101000a81548173ffffffffffffffffffffffffffffffffffffffff021916908373ffffffffffffffffffffffffffffffffffffffff1602179055505050565b5f8061120d6036846144e5565b9150915061121b8282612738565b505050565b5f603954905090565b73__$e4b9550ff526a295e1233dea02821b9004$__635d5dc313603460366037603860355f3373ffffffffffffffffffffffffffffffffffffffff1673ffffffffffffffffffffffffffffffffffffffff1681526020019081526020015f206040518060600160405280603b60089054906101000a900461ffff1661ffff1681526020017f000000000000000000000000000000000000000000000000000000000000000073ffffffffffffffffffffffffffffffffffffffff1663fca513a86040518163ffffffff1660e01b8152600401602060405180830381865afa158015611316573d5f803e3d5ffd5b505050506040513d601f19601f8201168201806040525081019061133a9190616763565b73ffffffffffffffffffffffffffffffffffffffff1681526020018960ff168152506040518763ffffffff1660e01b815260040161137d96959493929190616ad3565b5f6040518083038186803b158015611393575f80fd5b505af41580156113a5573d5f803e3d5ffd5b5050505050565b5f73__$c3724b8d563dc83a94e797176cddecb3b9$__6340e95de66034603660355f3373ffffffffffffffffffffffffffffffffffffffff1673ffffffffffffffffffffffffffffffffffffffff1681526020019081526020015f206040518060a001604052808a73ffffffffffffffffffffffffffffffffffffffff16815260200189815260200188600281111561144857611447616b33565b5b600281111561145a57611459616b33565b5b81526020013373ffffffffffffffffffffffffffffffffffffffff168152602001600115158152506040518563ffffffff1660e01b81526004016114a19493929190616c0c565b602060405180830381865af41580156114bc573d5f803e3d5ffd5b505050506040513d601f19601f820116820180604052508101906114e09190616c64565b90509392505050565b6114f16143b0565b8060398190555050565b6115036150fc565b60345f8373ffffffffffffffffffffffffffffffffffffffff1673ffffffffffffffffffffffffffffffffffffffff1681526020019081526020015f20604051806101e00160405290815f82016040518060200160405290815f820154815250508152602001600182015f9054906101000a90046fffffffffffffffffffffffffffffffff166fffffffffffffffffffffffffffffffff166fffffffffffffffffffffffffffffffff1681526020016001820160109054906101000a90046fffffffffffffffffffffffffffffffff166fffffffffffffffffffffffffffffffff166fffffffffffffffffffffffffffffffff168152602001600282015f9054906101000a90046fffffffffffffffffffffffffffffffff166fffffffffffffffffffffffffffffffff166fffffffffffffffffffffffffffffffff1681526020016002820160109054906101000a90046fffffffffffffffffffffffffffffffff166fffffffffffffffffffffffffffffffff166fffffffffffffffffffffffffffffffff168152602001600382015f9054906101000a90046fffffffffffffffffffffffffffffffff166fffffffffffffffffffffffffffffffff166fffffffffffffffffffffffffffffffff1681526020016003820160109054906101000a900464ffffffffff1664ffffffffff1664ffffffffff1681526020016003820160159054906101000a900461ffff1661ffff1661ffff168152602001600482015f9054906101000a900473ffffffffffffffffffffffffffffffffffffffff1673ffffffffffffffffffffffffffffffffffffffff1673ffffffffffffffffffffffffffffffffffffffff168152602001600582015f9054906101000a900473ffffffffffffffffffffffffffffffffffffffff1673ffffffffffffffffffffffffffffffffffffffff1673ffffffffffffffffffffffffffffffffffffffff168152602001600682015f9054906101000a900473ffffffffffffffffffffffffffffffffffffffff1673ffffffffffffffffffffffffffffffffffffffff1673ffffffffffffffffffffffffffffffffffffffff168152602001600782015f9054906101000a900473ffffffffffffffffffffffffffffffffffffffff1673ffffffffffffffffffffffffffffffffffffffff1673ffffffffffffffffffffffffffffffffffffffff168152602001600882015f9054906101000a90046fffffffffffffffffffffffffffffffff166fffffffffffffffffffffffffffffffff166fffffffffffffffffffffffffffffffff1681526020016008820160109054906101000a90046fffffffffffffffffffffffffffffffff166fffffffffffffffffffffffffffffffff166fffffffffffffffffffffffffffffffff168152602001600982015f9054906101000a90046fffffffffffffffffffffffffffffffff166fffffffffffffffffffffffffffffffff166fffffffffffffffffffffffffffffffff16815250509050919050565b5f61199d60345f8473ffffffffffffffffffffffffffffffffffffffff1673ffffffffffffffffffffffffffffffffffffffff1681526020019081526020015f2061453b565b9050919050565b5f806119b1603684614625565b915091506119bf82826134fb565b505050565b5f6040518060e001604052808873ffffffffffffffffffffffffffffffffffffffff1681526020018773ffffffffffffffffffffffffffffffffffffffff16815260200186815260200185858080601f0160208091040260200160405190810160405280939291908181526020018383808284375f81840152601f19601f8201169050808301925050505050505081526020018361ffff168152602001603a60109054906101000a90046fffffffffffffffffffffffffffffffff166fffffffffffffffffffffffffffffffff168152602001603a5f9054906101000a90046fffffffffffffffffffffffffffffffff166fffffffffffffffffffffffffffffffff16815250905073__$d5ddd09ae98762b8929dd85e54b218e259$__63a1fe0e8d60345f8973ffffffffffffffffffffffffffffffffffffffff1673ffffffffffffffffffffffffffffffffffffffff1681526020019081526020015f20836040518363ffffffff1660e01b8152600401611b41929190616d81565b5f6040518083038186803b158015611b57575f80fd5b505af4158015611b69573d5f803e3d5ffd5b5050505050505050505050565b611b7e61525d565b60355f8373ffffffffffffffffffffffffffffffffffffffff1673ffffffffffffffffffffffffffffffffffffffff1681526020019081526020015f206040518060200160405290815f820154815250509050919050565b5f80611be360368461468e565b91509150611bf18282611d9b565b505050565b5f60365f8361ffff1681526020019081526020015f205f9054906101000a900473ffffffffffffffffffffffffffffffffffffffff169050919050565b5f805f80611c426036866146e4565b925092509250611c5483838333611c5e565b9350505050919050565b5f73__$c3724b8d563dc83a94e797176cddecb3b9$__6340e95de66034603660355f8773ffffffffffffffffffffffffffffffffffffffff1673ffffffffffffffffffffffffffffffffffffffff1681526020019081526020015f206040518060a001604052808b73ffffffffffffffffffffffffffffffffffffffff1681526020018a8152602001896002811115611cfa57611cf9616b33565b5b6002811115611d0c57611d0b616b33565b5b81526020018873ffffffffffffffffffffffffffffffffffffffff1681526020015f15158152506040518563ffffffff1660e01b8152600401611d529493929190616c0c565b602060405180830381865af4158015611d6d573d5f803e3d5ffd5b505050506040513d601f19601f82011682018060405250810190611d919190616c64565b9050949350505050565b73__$db79717e66442ee197e8271d032a066e34$__63bf697a2660346036603760355f3373ffffffffffffffffffffffffffffffffffffffff1673ffffffffffffffffffffffffffffffffffffffff1681526020019081526020015f208787603b60089054906101000a900461ffff167f000000000000000000000000000000000000000000000000000000000000000073ffffffffffffffffffffffffffffffffffffffff1663fca513a86040518163ffffffff1660e01b8152600401602060405180830381865afa158015611e74573d5f803e3d5ffd5b505050506040513d601f19601f82011682018060405250810190611e989190616763565b60385f3373ffffffffffffffffffffffffffffffffffffffff1673ffffffffffffffffffffffffffffffffffffffff1681526020019081526020015f205f9054906101000a900460ff166040518a63ffffffff1660e01b8152600401611f0699989796959493929190616e0c565b5f6040518083038186803b158015611f1c575f80fd5b505af4158015611f2e573d5f803e3d5ffd5b505050505050565b73__$db79717e66442ee197e8271d032a066e34$__631913f1616034603660355f8773ffffffffffffffffffffffffffffffffffffffff1673ffffffffffffffffffffffffffffffffffffffff1681526020019081526020015f2060405180608001604052808a73ffffffffffffffffffffffffffffffffffffffff1681526020018981526020018873ffffffffffffffffffffffffffffffffffffffff1681526020018761ffff168152506040518563ffffffff1660e01b815260040161200194939291906169e1565b5f6040518083038186803b158015612017575f80fd5b505af4158015612029573d5f803e3d5ffd5b5050505050505050565b61203b6143b0565b73__$563c746fa3df0f1858d85f6ef4258864be$__639cf5702360346036846040518463ffffffff1660e01b815260040161207893929190616e97565b5f6040518083038186803b15801561208e575f80fd5b505af41580156120a0573d5f803e3d5ffd5b5050505050565b5f805f805f6120b7603689614795565b945094509450945094506120d18585338686868d8d610ddf565b5050505050505050565b5f73__$db79717e66442ee197e8271d032a066e34$__63186dea4460346036603760355f3373ffffffffffffffffffffffffffffffffffffffff1673ffffffffffffffffffffffffffffffffffffffff1681526020019081526020015f206040518060c001604052808b73ffffffffffffffffffffffffffffffffffffffff1681526020018a81526020018973ffffffffffffffffffffffffffffffffffffffff168152602001603b60089054906101000a900461ffff1661ffff1681526020017f000000000000000000000000000000000000000000000000000000000000000073ffffffffffffffffffffffffffffffffffffffff1663fca513a86040518163ffffffff1660e01b8152600401602060405180830381865afa158015612205573d5f803e3d5ffd5b505050506040513d601f19601f820116820180604052508101906122299190616763565b73ffffffffffffffffffffffffffffffffffffffff16815260200160385f3373ffffffffffffffffffffffffffffffffffffffff1673ffffffffffffffffffffffffffffffffffffffff1681526020019081526020015f205f9054906101000a900460ff1660ff168152506040518663ffffffff1660e01b81526004016122b4959493929190616f45565b602060405180830381865af41580156122cf573d5f803e3d5ffd5b505050506040513d601f19601f820116820180604052508101906122f39190616c64565b90509392505050565b6123046147e2565b73__$b06080f092f400a43662c3f835a4d9baa8$__630413c86f6034603660355f8773ffffffffffffffffffffffffffffffffffffffff1673ffffffffffffffffffffffffffffffffffffffff1681526020019081526020015f20888888886040518863ffffffff1660e01b81526004016123859796959493929190616fb5565b5f6040518083038186803b15801561239b575f80fd5b505af41580156123ad573d5f803e3d5ffd5b5050505050505050565b5f603a60109054906101000a90046fffffffffffffffffffffffffffffffff16905090565b6123e461526f565b60375f8360ff1660ff1681526020019081526020015f206040518060a00160405290815f82015f9054906101000a900461ffff1661ffff1661ffff1681526020015f820160029054906101000a900461ffff1661ffff1661ffff1681526020015f820160049054906101000a900461ffff1661ffff1661ffff1681526020015f820160069054906101000a900473ffffffffffffffffffffffffffffffffffffffff1673ffffffffffffffffffffffffffffffffffffffff1673ffffffffffffffffffffffffffffffffffffffff1681526020016001820180546124c79061704f565b80601f01602080910402602001604051908101604052809291908181526020018280546124f39061704f565b801561253e5780601f106125155761010080835404028352916020019161253e565b820191905f5260205f20905b81548152906001019060200180831161252157829003601f168201915b5050505050815250509050919050565b6125566143b0565b73__$563c746fa3df0f1858d85f6ef4258864be$__6369fc1bdf603460366040518060e001604052808a73ffffffffffffffffffffffffffffffffffffffff1681526020018973ffffffffffffffffffffffffffffffffffffffff1681526020018873ffffffffffffffffffffffffffffffffffffffff1681526020018773ffffffffffffffffffffffffffffffffffffffff1681526020018673ffffffffffffffffffffffffffffffffffffffff168152602001603b60089054906101000a900461ffff1661ffff16815260200161262d614377565b61ffff168152506040518463ffffffff1660e01b81526004016126529392919061710b565b602060405180830381865af415801561266d573d5f803e3d5ffd5b505050506040513d601f19601f820116820180604052508101906126919190617155565b156126d257603b600881819054906101000a900461ffff16809291906126b6906171ad565b91906101000a81548161ffff021916908361ffff160217905550505b5050505050565b5f805f6126e7603685614960565b915091506126f68282336120db565b92505050919050565b5f805f805f8061271060368a614a02565b9450945094509450945061272a8585853386868e8e613f62565b955050505050509392505050565b73__$c3724b8d563dc83a94e797176cddecb3b9$__63eac4d70360345f8573ffffffffffffffffffffffffffffffffffffffff1673ffffffffffffffffffffffffffffffffffffffff1681526020019081526020015f2060355f3373ffffffffffffffffffffffffffffffffffffffff1673ffffffffffffffffffffffffffffffffffffffff1681526020019081526020015f20858560028111156127e0576127df616b33565b5b6040518563ffffffff1660e01b81526004016127ff94939291906171e5565b5f6040518083038186803b158015612815575f80fd5b505af4158015612827573d5f803e3d5ffd5b505050505050565b73__$563c746fa3df0f1858d85f6ef4258864be$__6348c2ca8c603484846040518463ffffffff1660e01b815260040161286b939291906172d5565b5f6040518083038186803b158015612881575f80fd5b505af4158015612893573d5f803e3d5ffd5b505050505050565b73__$c3724b8d563dc83a94e797176cddecb3b9$__631e6473f960346036603760355f8773ffffffffffffffffffffffffffffffffffffffff1673ffffffffffffffffffffffffffffffffffffffff1681526020019081526020015f206040518061018001604052808c73ffffffffffffffffffffffffffffffffffffffff1681526020013373ffffffffffffffffffffffffffffffffffffffff1681526020018873ffffffffffffffffffffffffffffffffffffffff1681526020018b81526020018a600281111561297157612970616b33565b5b600281111561298357612982616b33565b5b81526020018961ffff168152602001600115158152602001603b5f9054906101000a900467ffffffffffffffff1667ffffffffffffffff168152602001603b60089054906101000a900461ffff1661ffff1681526020017f000000000000000000000000000000000000000000000000000000000000000073ffffffffffffffffffffffffffffffffffffffff1663fca513a86040518163ffffffff1660e01b8152600401602060405180830381865afa158015612a43573d5f803e3d5ffd5b505050506040513d601f19601f82011682018060405250810190612a679190616763565b73ffffffffffffffffffffffffffffffffffffffff16815260200160385f8a73ffffffffffffffffffffffffffffffffffffffff1673ffffffffffffffffffffffffffffffffffffffff1681526020019081526020015f205f9054906101000a900460ff1660ff1681526020017f000000000000000000000000000000000000000000000000000000000000000073ffffffffffffffffffffffffffffffffffffffff16635eb88d3d6040518163ffffffff1660e01b8152600401602060405180830381865afa158015612b3d573d5f803e3d5ffd5b505050506040513d601f19601f82011682018060405250810190612b619190616763565b73ffffffffffffffffffffffffffffffffffffffff168152506040518663ffffffff1660e01b8152600401612b9a9594939291906173f9565b5f6040518083038186803b158015612bb0575f80fd5b505af4158015612bc2573d5f803e3d5ffd5b505050505050505050565b5f604051806101c001604052808d73ffffffffffffffffffffffffffffffffffffffff1681526020018c8c808060200260200160405190810160405280939291908181526020018383602002808284375f81840152601f19601f8201169050808301925050505050505081526020018a8a808060200260200160405190810160405280939291908181526020018383602002808284375f81840152601f19601f8201169050808301925050505050505081526020018888808060200260200160405190810160405280939291908181526020018383602002808284375f81840152601f19601f8201169050808301925050505050505081526020018673ffffffffffffffffffffffffffffffffffffffff16815260200185858080601f0160208091040260200160405190810160405280939291908181526020018383808284375f81840152601f19601f8201169050808301925050505050505081526020018361ffff168152602001603a60109054906101000a90046fffffffffffffffffffffffffffffffff166fffffffffffffffffffffffffffffffff168152602001603a5f9054906101000a90046fffffffffffffffffffffffffffffffff166fffffffffffffffffffffffffffffffff168152602001603b5f9054906101000a900467ffffffffffffffff1667ffffffffffffffff168152602001603b60089054906101000a900461ffff1661ffff1681526020017f000000000000000000000000000000000000000000000000000000000000000073ffffffffffffffffffffffffffffffffffffffff16815260200160385f8873ffffffffffffffffffffffffffffffffffffffff1673ffffffffffffffffffffffffffffffffffffffff1681526020019081526020015f205f9054906101000a900460ff1660ff1681526020017f000000000000000000000000000000000000000000000000000000000000000073ffffffffffffffffffffffffffffffffffffffff1663707cd7166040518163ffffffff1660e01b8152600401602060405180830381865afa158015612ed8573d5f803e3d5ffd5b505050506040513d601f19601f82011682018060405250810190612efc9190616763565b73ffffffffffffffffffffffffffffffffffffffff1663fa50f297336040518263ffffffff1660e01b8152600401612f349190615aa8565b602060405180830381865afa158015612f4f573d5f803e3d5ffd5b505050506040513d601f19601f82011682018060405250810190612f739190617155565b1515815250905073__$d5ddd09ae98762b8929dd85e54b218e259$__632e7263ea60346036603760355f8b73ffffffffffffffffffffffffffffffffffffffff1673ffffffffffffffffffffffffffffffffffffffff1681526020019081526020015f20866040518663ffffffff1660e01b8152600401612ff895949392919061769f565b5f6040518083038186803b15801561300e575f80fd5b505af4158015613020573d5f803e3d5ffd5b50505050505050505050505050505050565b61303a6143b0565b81603a5f6101000a8154816fffffffffffffffffffffffffffffffff02191690836fffffffffffffffffffffffffffffffff16021790555080603a60106101000a8154816fffffffffffffffffffffffffffffffff02191690836fffffffffffffffffffffffffffffffff1602179055505050565b5f805f805f8073__$563c746fa3df0f1858d85f6ef4258864be$__6326ec273f6034603660376040518060a0016040528060355f8f73ffffffffffffffffffffffffffffffffffffffff1673ffffffffffffffffffffffffffffffffffffffff1681526020019081526020015f206040518060200160405290815f820154815250508152602001603b60089054906101000a900461ffff1661ffff1681526020018d73ffffffffffffffffffffffffffffffffffffffff1681526020017f000000000000000000000000000000000000000000000000000000000000000073ffffffffffffffffffffffffffffffffffffffff1663fca513a86040518163ffffffff1660e01b8152600401602060405180830381865afa1580156131d5573d5f803e3d5ffd5b505050506040513d601f19601f820116820180604052508101906131f99190616763565b73ffffffffffffffffffffffffffffffffffffffff16815260200160385f8f73ffffffffffffffffffffffffffffffffffffffff1673ffffffffffffffffffffffffffffffffffffffff1681526020019081526020015f205f9054906101000a900460ff1660ff168152506040518563ffffffff1660e01b81526004016132839493929190617777565b60c060405180830381865af415801561329e573d5f803e3d5ffd5b505050506040513d601f19601f820116820180604052508101906132c291906177bb565b95509550955095509550955091939550919395565b6132df6152bc565b60345f8373ffffffffffffffffffffffffffffffffffffffff1673ffffffffffffffffffffffffffffffffffffffff1681526020019081526020015f205f016040518060200160405290815f820154815250509050919050565b5f613342614a4f565b905060015f9054906101000a900460ff16806133625750613361614a57565b5b8061336d57505f5481115b6133ac576040517f08c379a00000000000000000000000000000000000000000000000000000000081526004016133a3906178b4565b60405180910390fd5b5f60015f9054906101000a900460ff1615905080156133e5576001805f6101000a81548160ff021916908315150217905550815f819055505b7f000000000000000000000000000000000000000000000000000000000000000073ffffffffffffffffffffffffffffffffffffffff168373ffffffffffffffffffffffffffffffffffffffff16146040518060400160405280600281526020017f3132000000000000000000000000000000000000000000000000000000000000815250906134ab576040517f08c379a00000000000000000000000000000000000000000000000000000000081526004016134a29190616a6c565b60405180910390fd5b506109c4603b5f6101000a81548167ffffffffffffffff021916908367ffffffffffffffff16021790555080156134f6575f60015f6101000a81548160ff0219169083151502179055505b505050565b73__$c3724b8d563dc83a94e797176cddecb3b9$__636973f74460345f8573ffffffffffffffffffffffffffffffffffffffff1673ffffffffffffffffffffffffffffffffffffffff1681526020019081526020015f2084846040518463ffffffff1660e01b8152600401613572939291906178d2565b5f6040518083038186803b158015613588575f80fd5b505af415801561359a573d5f803e3d5ffd5b505050505050565b6135aa614a66565b73__$563c746fa3df0f1858d85f6ef4258864be$__6387b322b28484846040518463ffffffff1660e01b81526004016135e593929190617907565b5f6040518083038186803b1580156135fb575f80fd5b505af415801561360d573d5f803e3d5ffd5b50505050505050565b5f61365c60345f8473ffffffffffffffffffffffffffffffffffffffff1673ffffffffffffffffffffffffffffffffffffffff1681526020019081526020015f20614be4565b9050919050565b60605f603b60089054906101000a900461ffff1661ffff1690505f808267ffffffffffffffff81111561369957613698616324565b5b6040519080825280602002602001820160405280156136c75781602001602082028036833780820191505090505b5090505f5b838110156137e1575f73ffffffffffffffffffffffffffffffffffffffff1660365f8381526020019081526020015f205f9054906101000a900473ffffffffffffffffffffffffffffffffffffffff1673ffffffffffffffffffffffffffffffffffffffff16146137c55760365f8281526020019081526020015f205f9054906101000a900473ffffffffffffffffffffffffffffffffffffffff16828483613775919061793c565b815181106137865761378561796f565b5b602002602001019073ffffffffffffffffffffffffffffffffffffffff16908173ffffffffffffffffffffffffffffffffffffffff16815250506137d4565b82806137d09061799c565b9350505b80806001019150506136cc565b50818303815280935050505090565b6137f86143b0565b5f8260ff1614156040518060400160405280600281526020017f313600000000000000000000000000000000000000000000000000000000000081525090613876576040517f08c379a000000000000000000000000000000000000000000000000000000000815260040161386d9190616a6c565b60405180910390fd5b508060375f8460ff1660ff1681526020019081526020015f205f820151815f015f6101000a81548161ffff021916908361ffff1602179055506020820151815f0160026101000a81548161ffff021916908361ffff1602179055506040820151815f0160046101000a81548161ffff021916908361ffff1602179055506060820151815f0160066101000a81548173ffffffffffffffffffffffffffffffffffffffff021916908373ffffffffffffffffffffffffffffffffffffffff160217905550608082015181600101908161394e9190617b77565b509050505050565b60345f8773ffffffffffffffffffffffffffffffffffffffff1673ffffffffffffffffffffffffffffffffffffffff1681526020019081526020015f206004015f9054906101000a900473ffffffffffffffffffffffffffffffffffffffff1673ffffffffffffffffffffffffffffffffffffffff163373ffffffffffffffffffffffffffffffffffffffff16146040518060400160405280600281526020017f313100000000000000000000000000000000000000000000000000000000000081525090613a5b576040517f08c379a0000000000000000000000000000000000000000000000000000000008152600401613a529190616a6c565b60405180910390fd5b5073__$db79717e66442ee197e8271d032a066e34$__638a5dadd160346036603760356040518061012001604052808d73ffffffffffffffffffffffffffffffffffffffff1681526020018c73ffffffffffffffffffffffffffffffffffffffff1681526020018b73ffffffffffffffffffffffffffffffffffffffff1681526020018a8152602001898152602001888152602001603b60089054906101000a900461ffff1661ffff1681526020017f000000000000000000000000000000000000000000000000000000000000000073ffffffffffffffffffffffffffffffffffffffff1663fca513a86040518163ffffffff1660e01b8152600401602060405180830381865afa158015613b73573d5f803e3d5ffd5b505050506040513d601f19601f82011682018060405250810190613b979190616763565b73ffffffffffffffffffffffffffffffffffffffff16815260200160385f8e73ffffffffffffffffffffffffffffffffffffffff1673ffffffffffffffffffffffffffffffffffffffff1681526020019081526020015f205f9054906101000a900460ff1660ff168152506040518663ffffffff1660e01b8152600401613c22959493929190617cfb565b5f6040518083038186803b158015613c38575f80fd5b505af4158015613c4a573d5f803e3d5ffd5b50505050505050505050565b5f805f80613c65603686614cce565b9350935093509350613c7a848484843361289b565b5050505050565b5f613c8a6147e2565b73__$b06080f092f400a43662c3f835a4d9baa8$__638e74324860345f8773ffffffffffffffffffffffffffffffffffffffff1673ffffffffffffffffffffffffffffffffffffffff1681526020019081526020015f208686866039546040518663ffffffff1660e01b8152600401613d07959493929190617d4d565b602060405180830381865af4158015613d22573d5f803e3d5ffd5b505050506040513d601f19601f82011682018060405250810190613d469190616c64565b90509392505050565b5f805f80613d5e6036866146e4565b925092509250613d6f8383836113ac565b9350505050919050565b613d816143b0565b73__$563c746fa3df0f1858d85f6ef4258864be$__631e3b41456034836040518363ffffffff1660e01b8152600401613dbb929190617d9e565b5f6040518083038186803b158015613dd1575f80fd5b505af4158015613de3573d5f803e3d5ffd5b5050505050565b5f603b5f9054906101000a900467ffffffffffffffff1667ffffffffffffffff16905090565b73__$db79717e66442ee197e8271d032a066e34$__631913f1616034603660355f8773ffffffffffffffffffffffffffffffffffffffff1673ffffffffffffffffffffffffffffffffffffffff1681526020019081526020015f2060405180608001604052808a73ffffffffffffffffffffffffffffffffffffffff1681526020018981526020018873ffffffffffffffffffffffffffffffffffffffff1681526020018761ffff168152506040518563ffffffff1660e01b8152600401613edb94939291906169e1565b5f6040518083038186803b158015613ef1575f80fd5b505af4158015613f03573d5f803e3d5ffd5b5050505050505050565b5f60385f8373ffffffffffffffffffffffffffffffffffffffff1673ffffffffffffffffffffffffffffffffffffffff1681526020019081526020015f205f9054906101000a900460ff1660ff169050919050565b5f8873ffffffffffffffffffffffffffffffffffffffff1663d505accf33308b898989896040518863ffffffff1660e01b8152600401613fa8979695949392919061690b565b5f604051808303815f87803b158015613fbf575f80fd5b505af1158015613fd1573d5f803e3d5ffd5b505050505f6040518060a001604052808b73ffffffffffffffffffffffffffffffffffffffff1681526020018a815260200189600281111561401657614015616b33565b5b600281111561402857614027616b33565b5b81526020018873ffffffffffffffffffffffffffffffffffffffff1681526020015f1515815250905073__$c3724b8d563dc83a94e797176cddecb3b9$__6340e95de66034603660355f8c73ffffffffffffffffffffffffffffffffffffffff1673ffffffffffffffffffffffffffffffffffffffff1681526020019081526020015f20856040518563ffffffff1660e01b81526004016140cc9493929190616c0c565b602060405180830381865af41580156140e7573d5f803e3d5ffd5b505050506040513d601f19601f8201168201806040525081019061410b9190616c64565b91505098975050505050505050565b6141226143b0565b5f73ffffffffffffffffffffffffffffffffffffffff168273ffffffffffffffffffffffffffffffffffffffff1614156040518060400160405280600281526020017f3737000000000000000000000000000000000000000000000000000000000000815250906141c9576040517f08c379a00000000000000000000000000000000000000000000000000000000081526004016141c09190616a6c565b60405180910390fd5b505f60345f8473ffffffffffffffffffffffffffffffffffffffff1673ffffffffffffffffffffffffffffffffffffffff1681526020019081526020015f2060030160159054906101000a900461ffff1661ffff1614158061428657508173ffffffffffffffffffffffffffffffffffffffff1660365f8081526020019081526020015f205f9054906101000a900473ffffffffffffffffffffffffffffffffffffffff1673ffffffffffffffffffffffffffffffffffffffff16145b6040518060400160405280600281526020017f3832000000000000000000000000000000000000000000000000000000000000815250906142fd576040517f08c379a00000000000000000000000000000000000000000000000000000000081526004016142f49190616a6c565b60405180910390fd5b508060345f8473ffffffffffffffffffffffffffffffffffffffff1673ffffffffffffffffffffffffffffffffffffffff1681526020019081526020015f205f01818161434a9190617e6c565b9050505050565b5f805f61435f603685614d54565b92509250925061437183833384611f36565b50505050565b5f6080905090565b5f805f805f61439060368888614dc9565b945094509450945094506143a78585858585610b3d565b50505050505050565b3373ffffffffffffffffffffffffffffffffffffffff167f000000000000000000000000000000000000000000000000000000000000000073ffffffffffffffffffffffffffffffffffffffff1663631adfca6040518163ffffffff1660e01b8152600401602060405180830381865afa158015614430573d5f803e3d5ffd5b505050506040513d601f19601f820116820180604052508101906144549190616763565b73ffffffffffffffffffffffffffffffffffffffff16146040518060400160405280600281526020017f3130000000000000000000000000000000000000000000000000000000000000815250906144e2576040517f08c379a00000000000000000000000000000000000000000000000000000000081526004016144d99190616a6c565b60405180910390fd5b50565b5f805f8061ffff8516915060ff8560101c169050855f8361ffff1681526020019081526020015f205f9054906101000a900473ffffffffffffffffffffffffffffffffffffffff16819350935050509250929050565b5f808260030160109054906101000a900464ffffffffff169050428164ffffffffff160361459d57826002015f9054906101000a90046fffffffffffffffffffffffffffffffff166fffffffffffffffffffffffffffffffff16915050614620565b61461c836002015f9054906101000a90046fffffffffffffffffffffffffffffffff166fffffffffffffffffffffffffffffffff1661460e8560020160109054906101000a90046fffffffffffffffffffffffffffffffff166fffffffffffffffffffffffffffffffff1684614ee0565b614ef490919063ffffffff16565b9150505b919050565b5f805f8061ffff8516915073ffffffffffffffffffffffffffffffffffffffff8560101c169050855f8361ffff1681526020019081526020015f205f9054906101000a900473ffffffffffffffffffffffffffffffffffffffff16819350935050509250929050565b5f805f8061ffff8516915060018560101c169050855f8361ffff1681526020019081526020015f205f9054906101000a900473ffffffffffffffffffffffffffffffffffffffff16819350935050509250929050565b5f805f805f8061ffff871692506fffffffffffffffffffffffffffffffff8760101c16915060ff8760901c1690506fffffffffffffffffffffffffffffffff8016820361474f577fffffffffffffffffffffffffffffffffffffffffffffffffffffffffffffffff91505b875f8461ffff1681526020019081526020015f205f9054906101000a900473ffffffffffffffffffffffffffffffffffffffff1682829550955095505050509250925092565b5f805f805f805f63ffffffff8860a01c16915060ff8860c01c1690505f805f6147be8c8c614d54565b92509250925082828287879950995099509950995050505050509295509295909350565b7f000000000000000000000000000000000000000000000000000000000000000073ffffffffffffffffffffffffffffffffffffffff1663707cd7166040518163ffffffff1660e01b8152600401602060405180830381865afa15801561484b573d5f803e3d5ffd5b505050506040513d601f19601f8201168201806040525081019061486f9190616763565b73ffffffffffffffffffffffffffffffffffffffff1663726600ce336040518263ffffffff1660e01b81526004016148a79190615aa8565b602060405180830381865afa1580156148c2573d5f803e3d5ffd5b505050506040513d601f19601f820116820180604052508101906148e69190617155565b6040518060400160405280600181526020017f36000000000000000000000000000000000000000000000000000000000000008152509061495d576040517f08c379a00000000000000000000000000000000000000000000000000000000081526004016149549190616a6c565b60405180910390fd5b50565b5f805f8061ffff851691506fffffffffffffffffffffffffffffffff8560101c1690506fffffffffffffffffffffffffffffffff801681036149c0577fffffffffffffffffffffffffffffffffffffffffffffffffffffffffffffffff90505b855f8361ffff1681526020019081526020015f205f9054906101000a900473ffffffffffffffffffffffffffffffffffffffff16819350935050509250929050565b5f805f805f805f805f80614a168c8c6146e4565b92509250925063ffffffff8b60981c16945060ff8b60b81c16935082828287879950995099509950995050505050509295509295909350565b5f6001905090565b5f80303b90505f811491505090565b7f000000000000000000000000000000000000000000000000000000000000000073ffffffffffffffffffffffffffffffffffffffff1663707cd7166040518163ffffffff1660e01b8152600401602060405180830381865afa158015614acf573d5f803e3d5ffd5b505050506040513d601f19601f82011682018060405250810190614af39190616763565b73ffffffffffffffffffffffffffffffffffffffff16637be53ca1336040518263ffffffff1660e01b8152600401614b2b9190615aa8565b602060405180830381865afa158015614b46573d5f803e3d5ffd5b505050506040513d601f19601f82011682018060405250810190614b6a9190617155565b6040518060400160405280600181526020017f310000000000000000000000000000000000000000000000000000000000000081525090614be1576040517f08c379a0000000000000000000000000000000000000000000000000000000008152600401614bd89190616a6c565b60405180910390fd5b50565b5f808260030160109054906101000a900464ffffffffff169050428164ffffffffff1603614c4657826001015f9054906101000a90046fffffffffffffffffffffffffffffffff166fffffffffffffffffffffffffffffffff16915050614cc9565b614cc5836001015f9054906101000a90046fffffffffffffffffffffffffffffffff166fffffffffffffffffffffffffffffffff16614cb78560010160109054906101000a90046fffffffffffffffffffffffffffffffff166fffffffffffffffffffffffffffffffff1684614f3c565b614ef490919063ffffffff16565b9150505b919050565b5f805f805f805f8061ffff891693506fffffffffffffffffffffffffffffffff8960101c16925060ff8960901c16915061ffff8960981c169050895f8561ffff1681526020019081526020015f205f9054906101000a900473ffffffffffffffffffffffffffffffffffffffff1683838397509750975097505050505092959194509250565b5f805f805f8061ffff871692506fffffffffffffffffffffffffffffffff8760101c16915061ffff8760901c169050875f8461ffff1681526020019081526020015f205f9054906101000a900473ffffffffffffffffffffffffffffffffffffffff1682829550955095505050509250925092565b5f805f805f805f805f8061ffff8c16945061ffff8c60101c16935073ffffffffffffffffffffffffffffffffffffffff8c60201c1692506fffffffffffffffffffffffffffffffff8b16915060018b60801c1690506fffffffffffffffffffffffffffffffff80168203614e5b577fffffffffffffffffffffffffffffffffffffffffffffffffffffffffffffffff91505b8c5f8661ffff1681526020019081526020015f205f9054906101000a900473ffffffffffffffffffffffffffffffffffffffff168d5f8661ffff1681526020019081526020015f205f9054906101000a900473ffffffffffffffffffffffffffffffffffffffff16848484995099509950995099505050505050939792965093509350565b5f614eec838342614f96565b905092915050565b5f816b019d971e4fe8401e740000005f190304831115821517614f15575f80fd5b6b033b2e3c9fd0803ce80000006b019d971e4fe8401e740000008385020104905092915050565b5f808264ffffffffff1642614f51919061793c565b84614f5c9190617e7a565b90506301e133808181614f7257614f71617ebb565b5b049050806b033b2e3c9fd0803ce8000000614f8d9190617ee8565b91505092915050565b5f808364ffffffffff1683614fab919061793c565b90505f8103614fc9576b033b2e3c9fd0803ce80000009150506150f5565b5f805f8060018503935060028511614fe1575f614fe6565b600285035b92506301e1338080026150028a8b614ef490919063ffffffff16565b816150105761500f617ebb565b5b0491506301e1338061502b8a84614ef490919063ffffffff16565b8161503957615038617ebb565b5b0490505f82858761504a9190617e7a565b6150549190617e7a565b90506002818161506757615066617ebb565b5b0490505f828587896150799190617e7a565b6150839190617e7a565b61508d9190617e7a565b9050600681816150a05761509f617ebb565b5b04905080826301e13380898e6150b69190617e7a565b6150c09190617f1b565b6b033b2e3c9fd0803ce80000006150d79190617ee8565b6150e19190617ee8565b6150eb9190617ee8565b9750505050505050505b9392505050565b604051806101e001604052806151106152bc565b81526020015f6fffffffffffffffffffffffffffffffff1681526020015f6fffffffffffffffffffffffffffffffff1681526020015f6fffffffffffffffffffffffffffffffff1681526020015f6fffffffffffffffffffffffffffffffff1681526020015f6fffffffffffffffffffffffffffffffff1681526020015f64ffffffffff1681526020015f61ffff1681526020015f73ffffffffffffffffffffffffffffffffffffffff1681526020015f73ffffffffffffffffffffffffffffffffffffffff1681526020015f73ffffffffffffffffffffffffffffffffffffffff1681526020015f73ffffffffffffffffffffffffffffffffffffffff1681526020015f6fffffffffffffffffffffffffffffffff1681526020015f6fffffffffffffffffffffffffffffffff1681526020015f6fffffffffffffffffffffffffffffffff1681525090565b60405180602001604052805f81525090565b6040518060a001604052805f61ffff1681526020015f61ffff1681526020015f61ffff1681526020015f73ffffffffffffffffffffffffffffffffffffffff168152602001606081525090565b60405180602001604052805f81525090565b5f604051905090565b5f80fd5b5f80fd5b5f73ffffffffffffffffffffffffffffffffffffffff82169050919050565b5f615308826152df565b9050919050565b615318816152fe565b8114615322575f80fd5b50565b5f813590506153338161530f565b92915050565b5f819050919050565b61534b81615339565b8114615355575f80fd5b50565b5f8135905061536681615342565b92915050565b5f8115159050919050565b6153808161536c565b811461538a575f80fd5b50565b5f8135905061539b81615377565b92915050565b5f805f805f60a086880312156153ba576153b96152d7565b5b5f6153c788828901615325565b95505060206153d888828901615325565b94505060406153e988828901615325565b93505060606153fa88828901615358565b925050608061540b8882890161538d565b9150509295509295909350565b61542181615339565b82525050565b5f60208201905061543a5f830184615418565b92915050565b5f61ffff82169050919050565b61545681615440565b8114615460575f80fd5b50565b5f813590506154718161544d565b92915050565b5f60ff82169050919050565b61548c81615477565b8114615496575f80fd5b50565b5f813590506154a781615483565b92915050565b5f819050919050565b6154bf816154ad565b81146154c9575f80fd5b50565b5f813590506154da816154b6565b92915050565b5f805f805f805f80610100898b0312156154fd576154fc6152d7565b5b5f61550a8b828c01615325565b985050602061551b8b828c01615358565b975050604061552c8b828c01615325565b965050606061553d8b828c01615463565b955050608061554e8b828c01615358565b94505060a061555f8b828c01615499565b93505060c06155708b828c016154cc565b92505060e06155818b828c016154cc565b9150509295985092959890939650565b5f819050919050565b5f6155b46155af6155aa846152df565b615591565b6152df565b9050919050565b5f6155c58261559a565b9050919050565b5f6155d6826155bb565b9050919050565b6155e6816155cc565b82525050565b5f6020820190506155ff5f8301846155dd565b92915050565b5f6fffffffffffffffffffffffffffffffff82169050919050565b61562981615605565b82525050565b5f6020820190506156425f830184615620565b92915050565b5f806040838503121561565e5761565d6152d7565b5b5f61566b85828601615325565b925050602061567c85828601615325565b9150509250929050565b5f6020828403121561569b5761569a6152d7565b5b5f6156a8848285016154cc565b91505092915050565b5f602082840312156156c6576156c56152d7565b5b5f6156d384828501615499565b91505092915050565b5f805f606084860312156156f3576156f26152d7565b5b5f61570086828701615325565b935050602061571186828701615358565b925050604061572286828701615358565b9150509250925092565b5f60208284031215615741576157406152d7565b5b5f61574e84828501615358565b91505092915050565b5f6020828403121561576c5761576b6152d7565b5b5f61577984828501615325565b91505092915050565b61578b81615339565b82525050565b602082015f8201516157a55f850182615782565b50505050565b6157b481615605565b82525050565b5f64ffffffffff82169050919050565b6157d3816157ba565b82525050565b6157e281615440565b82525050565b6157f1816152fe565b82525050565b6101e082015f82015161580c5f850182615791565b50602082015161581f60208501826157ab565b50604082015161583260408501826157ab565b50606082015161584560608501826157ab565b50608082015161585860808501826157ab565b5060a082015161586b60a08501826157ab565b5060c082015161587e60c08501826157ca565b5060e082015161589160e08501826157d9565b506101008201516158a66101008501826157e8565b506101208201516158bb6101208501826157e8565b506101408201516158d06101408501826157e8565b506101608201516158e56101608501826157e8565b506101808201516158fa6101808501826157ab565b506101a082015161590f6101a08501826157ab565b506101c08201516159246101c08501826157ab565b50505050565b5f6101e08201905061593e5f8301846157f7565b92915050565b5f80fd5b5f80fd5b5f80fd5b5f8083601f84011261596557615964615944565b5b8235905067ffffffffffffffff81111561598257615981615948565b5b60208301915083600182028301111561599e5761599d61594c565b5b9250929050565b5f805f805f8060a087890312156159bf576159be6152d7565b5b5f6159cc89828a01615325565b96505060206159dd89828a01615325565b95505060406159ee89828a01615358565b945050606087013567ffffffffffffffff811115615a0f57615a0e6152db565b5b615a1b89828a01615950565b93509350506080615a2e89828a01615463565b9150509295509295509295565b602082015f820151615a4f5f850182615782565b50505050565b5f602082019050615a685f830184615a3b565b92915050565b5f60208284031215615a8357615a826152d7565b5b5f615a9084828501615463565b91505092915050565b615aa2816152fe565b82525050565b5f602082019050615abb5f830184615a99565b92915050565b5f805f8060808587031215615ad957615ad86152d7565b5b5f615ae687828801615325565b9450506020615af787828801615358565b9350506040615b0887828801615358565b9250506060615b1987828801615325565b91505092959194509250565b5f8060408385031215615b3b57615b3a6152d7565b5b5f615b4885828601615325565b9250506020615b598582860161538d565b9150509250929050565b5f805f8060808587031215615b7b57615b7a6152d7565b5b5f615b8887828801615325565b9450506020615b9987828801615358565b9350506040615baa87828801615325565b9250506060615bbb87828801615463565b91505092959194509250565b5f805f60608486031215615bde57615bdd6152d7565b5b5f615beb868287016154cc565b9350506020615bfc868287016154cc565b9250506040615c0d868287016154cc565b9150509250925092565b5f805f60608486031215615c2e57615c2d6152d7565b5b5f615c3b86828701615325565b9350506020615c4c86828701615358565b9250506040615c5d86828701615325565b9150509250925092565b5f81519050919050565b5f82825260208201905092915050565b8281835e5f83830152505050565b5f601f19601f8301169050919050565b5f615ca982615c67565b615cb38185615c71565b9350615cc3818560208601615c81565b615ccc81615c8f565b840191505092915050565b5f60a083015f830151615cec5f8601826157d9565b506020830151615cff60208601826157d9565b506040830151615d1260408601826157d9565b506060830151615d2560608601826157e8565b5060808301518482036080860152615d3d8282615c9f565b9150508091505092915050565b5f6020820190508181035f830152615d628184615cd7565b905092915050565b5f805f805f60a08688031215615d8357615d826152d7565b5b5f615d9088828901615325565b9550506020615da188828901615325565b9450506040615db288828901615325565b9350506060615dc388828901615325565b9250506080615dd488828901615325565b9150509295509295909350565b5f8060408385031215615df757615df66152d7565b5b5f615e0485828601615325565b9250506020615e1585828601615358565b9150509250929050565b5f8083601f840112615e3457615e33615944565b5b8235905067ffffffffffffffff811115615e5157615e50615948565b5b602083019150836020820283011115615e6d57615e6c61594c565b5b9250929050565b5f8060208385031215615e8a57615e896152d7565b5b5f83013567ffffffffffffffff811115615ea757615ea66152db565b5b615eb385828601615e1f565b92509250509250929050565b5f805f805f60a08688031215615ed857615ed76152d7565b5b5f615ee588828901615325565b9550506020615ef688828901615358565b9450506040615f0788828901615358565b9350506060615f1888828901615463565b9250506080615f2988828901615325565b9150509295509295909350565b5f8083601f840112615f4b57615f4a615944565b5b8235905067ffffffffffffffff811115615f6857615f67615948565b5b602083019150836020820283011115615f8457615f8361594c565b5b9250929050565b5f805f805f805f805f805f60e08c8e031215615faa57615fa96152d7565b5b5f615fb78e828f01615325565b9b505060208c013567ffffffffffffffff811115615fd857615fd76152db565b5b615fe48e828f01615e1f565b9a509a505060408c013567ffffffffffffffff811115616007576160066152db565b5b6160138e828f01615f36565b985098505060608c013567ffffffffffffffff811115616036576160356152db565b5b6160428e828f01615f36565b965096505060806160558e828f01615325565b94505060a08c013567ffffffffffffffff811115616076576160756152db565b5b6160828e828f01615950565b935093505060c06160958e828f01615463565b9150509295989b509295989b9093969950565b6160b181615605565b81146160bb575f80fd5b50565b5f813590506160cc816160a8565b92915050565b5f80604083850312156160e8576160e76152d7565b5b5f6160f5858286016160be565b9250506020616106858286016160be565b9150509250929050565b5f60c0820190506161235f830189615418565b6161306020830188615418565b61613d6040830187615418565b61614a6060830186615418565b6161576080830185615418565b61616460a0830184615418565b979650505050505050565b602082015f8201516161835f850182615782565b50505050565b5f60208201905061619c5f83018461616f565b92915050565b5f6161ac826152fe565b9050919050565b6161bc816161a2565b81146161c6575f80fd5b50565b5f813590506161d7816161b3565b92915050565b5f602082840312156161f2576161f16152d7565b5b5f6161ff848285016161c9565b91505092915050565b5f805f6060848603121561621f5761621e6152d7565b5b5f61622c86828701615325565b935050602061623d86828701615325565b925050604061624e86828701615358565b9150509250925092565b5f81519050919050565b5f82825260208201905092915050565b5f819050602082019050919050565b5f61628c83836157e8565b60208301905092915050565b5f602082019050919050565b5f6162ae82616258565b6162b88185616262565b93506162c383616272565b805f5b838110156162f35781516162da8882616281565b97506162e583616298565b9250506001810190506162c6565b5085935050505092915050565b5f6020820190508181035f83015261631881846162a4565b905092915050565b5f80fd5b7f4e487b71000000000000000000000000000000000000000000000000000000005f52604160045260245ffd5b61635a82615c8f565b810181811067ffffffffffffffff8211171561637957616378616324565b5b80604052505050565b5f61638b6152ce565b90506163978282616351565b919050565b5f80fd5b5f80fd5b5f67ffffffffffffffff8211156163be576163bd616324565b5b6163c782615c8f565b9050602081019050919050565b828183375f83830152505050565b5f6163f46163ef846163a4565b616382565b9050828152602081018484840111156164105761640f6163a0565b5b61641b8482856163d4565b509392505050565b5f82601f83011261643757616436615944565b5b81356164478482602086016163e2565b91505092915050565b5f60a0828403121561646557616464616320565b5b61646f60a0616382565b90505f61647e84828501615463565b5f83015250602061649184828501615463565b60208301525060406164a584828501615463565b60408301525060606164b984828501615325565b606083015250608082013567ffffffffffffffff8111156164dd576164dc61639c565b5b6164e984828501616423565b60808301525092915050565b5f806040838503121561650b5761650a6152d7565b5b5f61651885828601615499565b925050602083013567ffffffffffffffff811115616539576165386152db565b5b61654585828601616450565b9150509250929050565b5f805f805f8060c08789031215616569576165686152d7565b5b5f61657689828a01615325565b965050602061658789828a01615325565b955050604061659889828a01615325565b94505060606165a989828a01615358565b93505060806165ba89828a01615358565b92505060a06165cb89828a01615358565b9150509295509295509295565b5f805f805f805f80610100898b0312156165f5576165f46152d7565b5b5f6166028b828c01615325565b98505060206166138b828c01615358565b97505060406166248b828c01615358565b96505060606166358b828c01615325565b95505060806166468b828c01615358565b94505060a06166578b828c01615499565b93505060c06166688b828c016154cc565b92505060e06166798b828c016154cc565b9150509295985092959890939650565b5f80fd5b5f602082840312156166a2576166a1616689565b5b81905092915050565b5f80604083850312156166c1576166c06152d7565b5b5f6166ce85828601615325565b92505060206166df8582860161668d565b9150509250929050565b6166f281615440565b82525050565b5f60208201905061670b5f8301846166e9565b92915050565b5f8060408385031215616727576167266152d7565b5b5f616734858286016154cc565b9250506020616745858286016154cc565b9150509250929050565b5f8151905061675d8161530f565b92915050565b5f60208284031215616778576167776152d7565b5b5f6167858482850161674f565b91505092915050565b8082525050565b8082525050565b8082525050565b8082525050565b6167b381615339565b82525050565b6167c2816152fe565b82525050565b6167d18161536c565b82525050565b6167e081615477565b82525050565b61012082015f8201516167fb5f8501826167aa565b50602082015161680e60208501826167aa565b50604082015161682160408501826167b9565b50606082015161683460608501826167b9565b50608082015161684760808501826167b9565b5060a082015161685a60a08501826167c8565b5060c082015161686d60c08501826167b9565b5060e082015161688060e08501826167d7565b506101008201516168956101008501826167b9565b50505050565b5f6101a0820190506168af5f83018861678e565b6168bc6020830187616795565b6168c9604083018661679c565b6168d660608301856167a3565b6168e360808301846167e6565b9695505050505050565b6168f681615477565b82525050565b616905816154ad565b82525050565b5f60e08201905061691e5f83018a615a99565b61692b6020830189615a99565b6169386040830188615418565b6169456060830187615418565b61695260808301866168ed565b61695f60a08301856168fc565b61696c60c08301846168fc565b98975050505050505050565b8082525050565b61698881615440565b82525050565b608082015f8201516169a25f8501826167b9565b5060208201516169b560208501826167aa565b5060408201516169c860408501826167b9565b5060608201516169db606085018261697f565b50505050565b5f60e0820190506169f45f83018761678e565b616a016020830186616795565b616a0e6040830185616978565b616a1b606083018461698e565b95945050505050565b5f82825260208201905092915050565b5f616a3e82615c67565b616a488185616a24565b9350616a58818560208601615c81565b616a6181615c8f565b840191505092915050565b5f6020820190508181035f830152616a848184616a34565b905092915050565b8082525050565b606082015f820151616aa75f8501826167aa565b506020820151616aba60208501826167b9565b506040820151616acd60408501826167d7565b50505050565b5f61010082019050616ae75f83018961678e565b616af46020830188616795565b616b0160408301876167a3565b616b0e6060830186616a8c565b616b1b6080830185616978565b616b2860a0830184616a93565b979650505050505050565b7f4e487b71000000000000000000000000000000000000000000000000000000005f52602160045260245ffd5b60038110616b7157616b70616b33565b5b50565b5f819050616b8182616b60565b919050565b5f616b9082616b74565b9050919050565b616ba081616b86565b82525050565b60a082015f820151616bba5f8501826167b9565b506020820151616bcd60208501826167aa565b506040820151616be06040850182616b97565b506060820151616bf360608501826167b9565b506080820151616c0660808501826167c8565b50505050565b5f61010082019050616c205f83018761678e565b616c2d6020830186616795565b616c3a6040830185616978565b616c476060830184616ba6565b95945050505050565b5f81519050616c5e81615342565b92915050565b5f60208284031215616c7957616c786152d7565b5b5f616c8684828501616c50565b91505092915050565b8082525050565b5f81519050919050565b5f82825260208201905092915050565b5f616cba82616c96565b616cc48185616ca0565b9350616cd4818560208601615c81565b616cdd81615c8f565b840191505092915050565b5f60e083015f830151616cfd5f8601826167b9565b506020830151616d1060208601826167b9565b506040830151616d2360408601826167aa565b5060608301518482036060860152616d3b8282616cb0565b9150506080830151616d50608086018261697f565b5060a0830151616d6360a08601826167aa565b5060c0830151616d7660c08601826167aa565b508091505092915050565b5f604082019050616d945f830185616c8f565b8181036020830152616da68184616ce8565b90509392505050565b616db8816152fe565b82525050565b616dc78161536c565b82525050565b5f616de7616de2616ddd84615440565b615591565b615339565b9050919050565b616df781616dcd565b82525050565b616e0681615477565b82525050565b5f61012082019050616e205f83018c61678e565b616e2d602083018b616795565b616e3a604083018a6167a3565b616e476060830189616978565b616e546080830188616daf565b616e6160a0830187616dbe565b616e6e60c0830186616dee565b616e7b60e0830185616daf565b616e89610100830184616dfd565b9a9950505050505050505050565b5f606082019050616eaa5f83018661678e565b616eb76020830185616795565b616ec46040830184616daf565b949350505050565b60c082015f820151616ee05f8501826167b9565b506020820151616ef360208501826167aa565b506040820151616f0660408501826167b9565b506060820151616f1960608501826167aa565b506080820151616f2c60808501826167b9565b5060a0820151616f3f60a08501826167d7565b50505050565b5f61014082019050616f595f83018861678e565b616f666020830187616795565b616f7360408301866167a3565b616f806060830185616978565b616f8d6080830184616ecc565b9695505050505050565b616fa081615339565b82525050565b616faf81615440565b82525050565b5f60e082019050616fc85f83018a61678e565b616fd56020830189616795565b616fe26040830188616978565b616fef6060830187616daf565b616ffc6080830186616f97565b61700960a0830185616daf565b61701660c0830184616fa6565b98975050505050505050565b7f4e487b71000000000000000000000000000000000000000000000000000000005f52602260045260245ffd5b5f600282049050600182168061706657607f821691505b60208210810361707957617078617022565b5b50919050565b60e082015f8201516170935f8501826167b9565b5060208201516170a660208501826167b9565b5060408201516170b960408501826167b9565b5060608201516170cc60608501826167b9565b5060808201516170df60808501826167b9565b5060a08201516170f260a085018261697f565b5060c082015161710560c085018261697f565b50505050565b5f6101208201905061711f5f83018661678e565b61712c6020830185616795565b617139604083018461707f565b949350505050565b5f8151905061714f81615377565b92915050565b5f6020828403121561716a576171696152d7565b5b5f61717784828501617141565b91505092915050565b7f4e487b71000000000000000000000000000000000000000000000000000000005f52601160045260245ffd5b5f6171b782615440565b915061ffff82036171cb576171ca617180565b5b600182019050919050565b6171df81616b86565b82525050565b5f6080820190506171f85f830187616c8f565b6172056020830186616978565b6172126040830185616daf565b61721f60608301846171d6565b95945050505050565b5f82825260208201905092915050565b5f819050919050565b5f61724c83836167b9565b60208301905092915050565b5f6172666020840184615325565b905092915050565b5f602082019050919050565b5f6172858385617228565b935061729082617238565b805f5b858110156172c8576172a58284617258565b6172af8882617241565b97506172ba8361726e565b925050600181019050617293565b5085925050509392505050565b5f6040820190506172e85f83018661678e565b81810360208301526172fb81848661727a565b9050949350505050565b61018082015f82015161731a5f8501826167b9565b50602082015161732d60208501826167b9565b50604082015161734060408501826167b9565b50606082015161735360608501826167aa565b5060808201516173666080850182616b97565b5060a082015161737960a085018261697f565b5060c082015161738c60c08501826167c8565b5060e082015161739f60e08501826167aa565b506101008201516173b46101008501826167aa565b506101208201516173c96101208501826167b9565b506101408201516173de6101408501826167d7565b506101608201516173f36101608501826167b9565b50505050565b5f6102008201905061740d5f83018861678e565b61741a6020830187616795565b61742760408301866167a3565b6174346060830185616978565b6174416080830184617305565b9695505050505050565b5f82825260208201905092915050565b5f61746582616258565b61746f818561744b565b935061747a83616272565b805f5b838110156174aa5781516174918882617241565b975061749c83616298565b92505060018101905061747d565b5085935050505092915050565b5f81519050919050565b5f82825260208201905092915050565b5f819050602082019050919050565b5f6174eb83836167aa565b60208301905092915050565b5f602082019050919050565b5f61750d826174b7565b61751781856174c1565b9350617522836174d1565b805f5b8381101561755257815161753988826174e0565b9750617544836174f7565b925050600181019050617525565b5085935050505092915050565b5f6101c083015f8301516175755f8601826167b9565b506020830151848203602086015261758d828261745b565b915050604083015184820360408601526175a78282617503565b915050606083015184820360608601526175c18282617503565b91505060808301516175d660808601826167b9565b5060a083015184820360a08601526175ee8282616cb0565b91505060c083015161760360c086018261697f565b5060e083015161761660e08601826167aa565b5061010083015161762b6101008601826167aa565b506101208301516176406101208601826167aa565b506101408301516176556101408601826167aa565b5061016083015161766a6101608601826167b9565b5061018083015161767f6101808601826167d7565b506101a08301516176946101a08601826167c8565b508091505092915050565b5f60a0820190506176b25f83018861678e565b6176bf6020830187616795565b6176cc60408301866167a3565b6176d96060830185616978565b81810360808301526176eb818461755f565b90509695505050505050565b602082015f82015161770b5f8501826167aa565b50505050565b60a082015f8201516177255f8501826176f7565b50602082015161773860208501826167aa565b50604082015161774b60408501826167b9565b50606082015161775e60608501826167b9565b50608082015161777160808501826167d7565b50505050565b5f6101008201905061778b5f83018761678e565b6177986020830186616795565b6177a560408301856167a3565b6177b26060830184617711565b95945050505050565b5f805f805f8060c087890312156177d5576177d46152d7565b5b5f6177e289828a01616c50565b96505060206177f389828a01616c50565b955050604061780489828a01616c50565b945050606061781589828a01616c50565b935050608061782689828a01616c50565b92505060a061783789828a01616c50565b9150509295509295509295565b7f436f6e747261637420696e7374616e63652068617320616c72656164792062655f8201527f656e20696e697469616c697a6564000000000000000000000000000000000000602082015250565b5f61789e602e83616a24565b91506178a982617844565b604082019050919050565b5f6020820190508181035f8301526178cb81617892565b9050919050565b5f6060820190506178e55f830186616c8f565b6178f26020830185616daf565b6178ff6040830184616daf565b949350505050565b5f60608201905061791a5f830186616daf565b6179276020830185616daf565b6179346040830184616f97565b949350505050565b5f61794682615339565b915061795183615339565b925082820390508181111561796957617968617180565b5b92915050565b7f4e487b71000000000000000000000000000000000000000000000000000000005f52603260045260245ffd5b5f6179a682615339565b91507fffffffffffffffffffffffffffffffffffffffffffffffffffffffffffffffff82036179d8576179d7617180565b5b600182019050919050565b5f819050815f5260205f209050919050565b5f6020601f8301049050919050565b5f82821b905092915050565b5f60088302617a3f7fffffffffffffffffffffffffffffffffffffffffffffffffffffffffffffffff82617a04565b617a498683617a04565b95508019841693508086168417925050509392505050565b5f617a7b617a76617a7184615339565b615591565b615339565b9050919050565b5f819050919050565b617a9483617a61565b617aa8617aa082617a82565b848454617a10565b825550505050565b5f90565b617abc617ab0565b617ac7818484617a8b565b505050565b5b81811015617aea57617adf5f82617ab4565b600181019050617acd565b5050565b601f821115617b2f57617b00816179e3565b617b09846179f5565b81016020851015617b18578190505b617b2c617b24856179f5565b830182617acc565b50505b505050565b5f82821c905092915050565b5f617b4f5f1984600802617b34565b1980831691505092915050565b5f617b678383617b40565b9150826002028217905092915050565b617b8082615c67565b67ffffffffffffffff811115617b9957617b98616324565b5b617ba3825461704f565b617bae828285617aee565b5f60209050601f831160018114617bdf575f8415617bcd578287015190505b617bd78582617b5c565b865550617c3e565b601f198416617bed866179e3565b5f5b82811015617c1457848901518255600182019150602085019450602081019050617bef565b86831015617c315784890151617c2d601f891682617b40565b8355505b6001600288020188555050505b505050505050565b61012082015f820151617c5b5f8501826167b9565b506020820151617c6e60208501826167b9565b506040820151617c8160408501826167b9565b506060820151617c9460608501826167aa565b506080820151617ca760808501826167aa565b5060a0820151617cba60a08501826167aa565b5060c0820151617ccd60c08501826167aa565b5060e0820151617ce060e08501826167b9565b50610100820151617cf56101008501826167d7565b50505050565b5f6101a082019050617d0f5f83018861678e565b617d1c6020830187616795565b617d2960408301866167a3565b617d36606083018561679c565b617d436080830184617c46565b9695505050505050565b5f60a082019050617d605f830188616c8f565b617d6d6020830187616daf565b617d7a6040830186616f97565b617d876060830185616f97565b617d946080830184616f97565b9695505050505050565b5f604082019050617db15f83018561678e565b617dbe6020830184616daf565b9392505050565b5f8135617dd181615342565b80915050919050565b5f815f1b9050919050565b5f7fffffffffffffffffffffffffffffffffffffffffffffffffffffffffffffffff617e1084617dda565b9350801983169250808416831791505092915050565b617e2f82617a61565b617e42617e3b82617a82565b8354617de5565b8255505050565b5f81015f830180617e5981617dc5565b9050617e658184617e26565b5050505050565b617e768282617e49565b5050565b5f617e8482615339565b9150617e8f83615339565b9250828202617e9d81615339565b91508282048414831517617eb457617eb3617180565b5b5092915050565b7f4e487b71000000000000000000000000000000000000000000000000000000005f52601260045260245ffd5b5f617ef282615339565b9150617efd83615339565b9250828201905080821115617f1557617f14617180565b5b92915050565b5f617f2582615339565b9150617f3083615339565b925082617f4057617f3f617ebb565b5b82820490509291505056fea2646970667358221220cf5838e6ff25419da7d7750b1fc1a02893de876ea9e76ea40d1e2319e180522264736f6c634300081a0033",
			"opcodes": "PUSH1 0xA0 PUSH1 0x40 MSTORE PUSH0 DUP1 SSTORE CALLVALUE DUP1 ISZERO PUSH2 0x12 JUMPI PUSH0 DUP1 REVERT JUMPDEST POP PUSH1 0x40 MLOAD PUSH2 0x810C CODESIZE SUB DUP1 PUSH2 0x810C DUP4 CODECOPY DUP2 DUP2 ADD PUSH1 0x40 MSTORE DUP2 ADD SWAP1 PUSH2 0x34 SWAP2 SWAP1 PUSH2 0xDF JUMP JUMPDEST DUP1 DUP1 PUSH20 0xFFFFFFFFFFFFFFFFFFFFFFFFFFFFFFFFFFFFFFFF AND PUSH1 0x80 DUP2 PUSH20 0xFFFFFFFFFFFFFFFFFFFFFFFFFFFFFFFFFFFFFFFF AND DUP2 MSTORE POP POP POP POP PUSH2 0x10A JUMP JUMPDEST PUSH0 DUP1 REVERT JUMPDEST PUSH0 PUSH20 0xFFFFFFFFFFFFFFFFFFFFFFFFFFFFFFFFFFFFFFFF DUP3 AND SWAP1 POP SWAP2 SWAP1 POP JUMP JUMPDEST PUSH0 PUSH2 0x9D DUP3 PUSH2 0x74 JUMP JUMPDEST SWAP1 POP SWAP2 SWAP1 POP JUMP JUMPDEST PUSH0 PUSH2 0xAE DUP3 PUSH2 0x93 JUMP JUMPDEST SWAP1 POP SWAP2 SWAP1 POP JUMP JUMPDEST PUSH2 0xBE DUP2 PUSH2 0xA4 JUMP JUMPDEST DUP2 EQ PUSH2 0xC8 JUMPI PUSH0 DUP1 REVERT JUMPDEST POP JUMP JUMPDEST PUSH0 DUP2 MLOAD SWAP1 POP PUSH2 0xD9 DUP2 PUSH2 0xB5 JUMP JUMPDEST SWAP3 SWAP2 POP POP JUMP JUMPDEST PUSH0 PUSH1 0x20 DUP3 DUP5 SUB SLT ISZERO PUSH2 0xF4 JUMPI PUSH2 0xF3 PUSH2 0x70 JUMP JUMPDEST JUMPDEST PUSH0 PUSH2 0x101 DUP5 DUP3 DUP6 ADD PUSH2 0xCB JUMP JUMPDEST SWAP2 POP POP SWAP3 SWAP2 POP POP JUMP JUMPDEST PUSH1 0x80 MLOAD PUSH2 0x7F81 PUSH2 0x18B PUSH0 CODECOPY PUSH0 DUP2 DUP2 PUSH2 0xBE9 ADD MSTORE DUP2 DUP2 PUSH2 0xCE3 ADD MSTORE DUP2 DUP2 PUSH2 0xF54 ADD MSTORE DUP2 DUP2 PUSH2 0x12AF ADD MSTORE DUP2 DUP2 PUSH2 0x1E0D ADD MSTORE DUP2 DUP2 PUSH2 0x219E ADD MSTORE DUP2 DUP2 PUSH2 0x29DC ADD MSTORE DUP2 DUP2 PUSH2 0x2AD6 ADD MSTORE DUP2 DUP2 PUSH2 0x2DE3 ADD MSTORE DUP2 DUP2 PUSH2 0x2E71 ADD MSTORE DUP2 DUP2 PUSH2 0x316E ADD MSTORE DUP2 DUP2 PUSH2 0x33E7 ADD MSTORE DUP2 DUP2 PUSH2 0x3B0C ADD MSTORE DUP2 DUP2 PUSH2 0x43C9 ADD MSTORE DUP2 DUP2 PUSH2 0x47E4 ADD MSTORE PUSH2 0x4A68 ADD MSTORE PUSH2 0x7F81 PUSH0 RETURN INVALID PUSH1 0x80 PUSH1 0x40 MSTORE CALLVALUE DUP1 ISZERO PUSH2 0xF JUMPI PUSH0 DUP1 REVERT JUMPDEST POP PUSH1 0x4 CALLDATASIZE LT PUSH2 0x380 JUMPI PUSH0 CALLDATALOAD PUSH1 0xE0 SHR DUP1 PUSH4 0x7A708E92 GT PUSH2 0x1DC JUMPI DUP1 PUSH4 0xD1946DBC GT PUSH2 0x10D JUMPI DUP1 PUSH4 0xE82FEC2F GT PUSH2 0xAB JUMPI DUP1 PUSH4 0xF51E435B GT PUSH2 0x7A JUMPI DUP1 PUSH4 0xF51E435B EQ PUSH2 0xACB JUMPI DUP1 PUSH4 0xF7A73840 EQ PUSH2 0xAE7 JUMPI DUP1 PUSH4 0xF8119D51 EQ PUSH2 0xB03 JUMPI DUP1 PUSH4 0xFD21ECFF EQ PUSH2 0xB21 JUMPI PUSH2 0x380 JUMP JUMPDEST DUP1 PUSH4 0xE82FEC2F EQ PUSH2 0xA31 JUMPI DUP1 PUSH4 0xE8EDA9DF EQ PUSH2 0xA4F JUMPI DUP1 PUSH4 0xEDDF1B79 EQ PUSH2 0xA6B JUMPI DUP1 PUSH4 0xEE3E210B EQ PUSH2 0xA9B JUMPI PUSH2 0x380 JUMP JUMPDEST DUP1 PUSH4 0xD5EED868 GT PUSH2 0xE7 JUMPI DUP1 PUSH4 0xD5EED868 EQ PUSH2 0x999 JUMPI DUP1 PUSH4 0xD65DC7A1 EQ PUSH2 0x9B5 JUMPI DUP1 PUSH4 0xDC7C0BFF EQ PUSH2 0x9E5 JUMPI DUP1 PUSH4 0xE43E88A1 EQ PUSH2 0xA15 JUMPI PUSH2 0x380 JUMP JUMPDEST DUP1 PUSH4 0xD1946DBC EQ PUSH2 0x943 JUMPI DUP1 PUSH4 0xD579EA7D EQ PUSH2 0x961 JUMPI DUP1 PUSH4 0xD5ED3933 EQ PUSH2 0x97D JUMPI PUSH2 0x380 JUMP JUMPDEST DUP1 PUSH4 0xBCB6E522 GT PUSH2 0x17A JUMPI DUP1 PUSH4 0xC4D66DE8 GT PUSH2 0x154 JUMPI DUP1 PUSH4 0xC4D66DE8 EQ PUSH2 0x8BF JUMPI DUP1 PUSH4 0xCD112382 EQ PUSH2 0x8DB JUMPI DUP1 PUSH4 0xCEA9D26F EQ PUSH2 0x8F7 JUMPI DUP1 PUSH4 0xD15E0053 EQ PUSH2 0x913 JUMPI PUSH2 0x380 JUMP JUMPDEST DUP1 PUSH4 0xBCB6E522 EQ PUSH2 0x83E JUMPI DUP1 PUSH4 0xBF92857C EQ PUSH2 0x85A JUMPI DUP1 PUSH4 0xC44B11F7 EQ PUSH2 0x88F JUMPI PUSH2 0x380 JUMP JUMPDEST DUP1 PUSH4 0x94BA89A2 GT PUSH2 0x1B6 JUMPI DUP1 PUSH4 0x94BA89A2 EQ PUSH2 0x7CE JUMPI DUP1 PUSH4 0x9CD19996 EQ PUSH2 0x7EA JUMPI DUP1 PUSH4 0xA415BCAD EQ PUSH2 0x806 JUMPI DUP1 PUSH4 0xAB9C4B5D EQ PUSH2 0x822 JUMPI PUSH2 0x380 JUMP JUMPDEST DUP1 PUSH4 0x7A708E92 EQ PUSH2 0x752 JUMPI DUP1 PUSH4 0x8E19899E EQ PUSH2 0x76E JUMPI DUP1 PUSH4 0x94B576DE EQ PUSH2 0x79E JUMPI PUSH2 0x380 JUMP JUMPDEST DUP1 PUSH4 0x42B0B77C GT PUSH2 0x2B6 JUMPI DUP1 PUSH4 0x617BA037 GT PUSH2 0x254 JUMPI DUP1 PUSH4 0x69328DEC GT PUSH2 0x22E JUMPI DUP1 PUSH4 0x69328DEC EQ PUSH2 0x6B8 JUMPI DUP1 PUSH4 0x69A933A5 EQ PUSH2 0x6E8 JUMPI DUP1 PUSH4 0x6A99C036 EQ PUSH2 0x704 JUMPI DUP1 PUSH4 0x6C6F6AE1 EQ PUSH2 0x722 JUMPI PUSH2 0x380 JUMP JUMPDEST DUP1 PUSH4 0x617BA037 EQ PUSH2 0x664 JUMPI DUP1 PUSH4 0x63C9B860 EQ PUSH2 0x680 JUMPI DUP1 PUSH4 0x680DD47C EQ PUSH2 0x69C JUMPI PUSH2 0x380 JUMP JUMPDEST DUP1 PUSH4 0x52751797 GT PUSH2 0x290 JUMPI DUP1 PUSH4 0x52751797 EQ PUSH2 0x5B8 JUMPI DUP1 PUSH4 0x563DD613 EQ PUSH2 0x5E8 JUMPI DUP1 PUSH4 0x573ADE81 EQ PUSH2 0x618 JUMPI DUP1 PUSH4 0x5A3B74B9 EQ PUSH2 0x648 JUMPI PUSH2 0x380 JUMP JUMPDEST DUP1 PUSH4 0x42B0B77C EQ PUSH2 0x550 JUMPI DUP1 PUSH4 0x4417A583 EQ PUSH2 0x56C JUMPI DUP1 PUSH4 0x4D013F03 EQ PUSH2 0x59C JUMPI PUSH2 0x380 JUMP JUMPDEST DUP1 PUSH4 0x272D9072 GT PUSH2 0x323 JUMPI DUP1 PUSH4 0x3036B439 GT PUSH2 0x2FD JUMPI DUP1 PUSH4 0x3036B439 EQ PUSH2 0x4B8 JUMPI DUP1 PUSH4 0x35EA6A75 EQ PUSH2 0x4D4 JUMPI DUP1 PUSH4 0x386497FD EQ PUSH2 0x504 JUMPI DUP1 PUSH4 0x427DA177 EQ PUSH2 0x534 JUMPI PUSH2 0x380 JUMP JUMPDEST DUP1 PUSH4 0x272D9072 EQ PUSH2 0x44E JUMPI DUP1 PUSH4 0x28530A47 EQ PUSH2 0x46C JUMPI DUP1 PUSH4 0x2DAD97D4 EQ PUSH2 0x488 JUMPI PUSH2 0x380 JUMP JUMPDEST DUP1 PUSH4 0x542975C GT PUSH2 0x35F JUMPI DUP1 PUSH4 0x542975C EQ PUSH2 0x3DA JUMPI DUP1 PUSH4 0x74B2E43 EQ PUSH2 0x3F8 JUMPI DUP1 PUSH4 0x1D2118F9 EQ PUSH2 0x416 JUMPI DUP1 PUSH4 0x1FE3C6F3 EQ PUSH2 0x432 JUMPI PUSH2 0x380 JUMP JUMPDEST DUP1 PUSH3 0xA718A9 EQ PUSH2 0x384 JUMPI DUP1 PUSH4 0x148170E EQ PUSH2 0x3A0 JUMPI DUP1 PUSH4 0x2C205F0 EQ PUSH2 0x3BE JUMPI JUMPDEST PUSH0 DUP1 REVERT JUMPDEST PUSH2 0x39E PUSH1 0x4 DUP1 CALLDATASIZE SUB DUP2 ADD SWAP1 PUSH2 0x399 SWAP2 SWAP1 PUSH2 0x53A1 JUMP JUMPDEST PUSH2 0xB3D JUMP JUMPDEST STOP JUMPDEST PUSH2 0x3A8 PUSH2 0xDDA JUMP JUMPDEST PUSH1 0x40 MLOAD PUSH2 0x3B5 SWAP2 SWAP1 PUSH2 0x5427 JUMP JUMPDEST PUSH1 0x40 MLOAD DUP1 SWAP2 SUB SWAP1 RETURN JUMPDEST PUSH2 0x3D8 PUSH1 0x4 DUP1 CALLDATASIZE SUB DUP2 ADD SWAP1 PUSH2 0x3D3 SWAP2 SWAP1 PUSH2 0x54E0 JUMP JUMPDEST PUSH2 0xDDF JUMP JUMPDEST STOP JUMPDEST PUSH2 0x3E2 PUSH2 0xF52 JUMP JUMPDEST PUSH1 0x40 MLOAD PUSH2 0x3EF SWAP2 SWAP1 PUSH2 0x55EC JUMP JUMPDEST PUSH1 0x40 MLOAD DUP1 SWAP2 SUB SWAP1 RETURN JUMPDEST PUSH2 0x400 PUSH2 0xF76 JUMP JUMPDEST PUSH1 0x40 MLOAD PUSH2 0x40D SWAP2 SWAP1 PUSH2 0x562F JUMP JUMPDEST PUSH1 0x40 MLOAD DUP1 SWAP2 SUB SWAP1 RETURN JUMPDEST PUSH2 0x430 PUSH1 0x4 DUP1 CALLDATASIZE SUB DUP2 ADD SWAP1 PUSH2 0x42B SWAP2 SWAP1 PUSH2 0x5648 JUMP JUMPDEST PUSH2 0xF9A JUMP JUMPDEST STOP JUMPDEST PUSH2 0x44C PUSH1 0x4 DUP1 CALLDATASIZE SUB DUP2 ADD SWAP1 PUSH2 0x447 SWAP2 SWAP1 PUSH2 0x5686 JUMP JUMPDEST PUSH2 0x1200 JUMP JUMPDEST STOP JUMPDEST PUSH2 0x456 PUSH2 0x1220 JUMP JUMPDEST PUSH1 0x40 MLOAD PUSH2 0x463 SWAP2 SWAP1 PUSH2 0x5427 JUMP JUMPDEST PUSH1 0x40 MLOAD DUP1 SWAP2 SUB SWAP1 RETURN JUMPDEST PUSH2 0x486 PUSH1 0x4 DUP1 CALLDATASIZE SUB DUP2 ADD SWAP1 PUSH2 0x481 SWAP2 SWAP1 PUSH2 0x56B1 JUMP JUMPDEST PUSH2 0x1229 JUMP JUMPDEST STOP JUMPDEST PUSH2 0x4A2 PUSH1 0x4 DUP1 CALLDATASIZE SUB DUP2 ADD SWAP1 PUSH2 0x49D SWAP2 SWAP1 PUSH2 0x56DC JUMP JUMPDEST PUSH2 0x13AC JUMP JUMPDEST PUSH1 0x40 MLOAD PUSH2 0x4AF SWAP2 SWAP1 PUSH2 0x5427 JUMP JUMPDEST PUSH1 0x40 MLOAD DUP1 SWAP2 SUB SWAP1 RETURN JUMPDEST PUSH2 0x4D2 PUSH1 0x4 DUP1 CALLDATASIZE SUB DUP2 ADD SWAP1 PUSH2 0x4CD SWAP2 SWAP1 PUSH2 0x572C JUMP JUMPDEST PUSH2 0x14E9 JUMP JUMPDEST STOP JUMPDEST PUSH2 0x4EE PUSH1 0x4 DUP1 CALLDATASIZE SUB DUP2 ADD SWAP1 PUSH2 0x4E9 SWAP2 SWAP1 PUSH2 0x5757 JUMP JUMPDEST PUSH2 0x14FB JUMP JUMPDEST PUSH1 0x40 MLOAD PUSH2 0x4FB SWAP2 SWAP1 PUSH2 0x592A JUMP JUMPDEST PUSH1 0x40 MLOAD DUP1 SWAP2 SUB SWAP1 RETURN JUMPDEST PUSH2 0x51E PUSH1 0x4 DUP1 CALLDATASIZE SUB DUP2 ADD SWAP1 PUSH2 0x519 SWAP2 SWAP1 PUSH2 0x5757 JUMP JUMPDEST PUSH2 0x1957 JUMP JUMPDEST PUSH1 0x40 MLOAD PUSH2 0x52B SWAP2 SWAP1 PUSH2 0x5427 JUMP JUMPDEST PUSH1 0x40 MLOAD DUP1 SWAP2 SUB SWAP1 RETURN JUMPDEST PUSH2 0x54E PUSH1 0x4 DUP1 CALLDATASIZE SUB DUP2 ADD SWAP1 PUSH2 0x549 SWAP2 SWAP1 PUSH2 0x5686 JUMP JUMPDEST PUSH2 0x19A4 JUMP JUMPDEST STOP JUMPDEST PUSH2 0x56A PUSH1 0x4 DUP1 CALLDATASIZE SUB DUP2 ADD SWAP1 PUSH2 0x565 SWAP2 SWAP1 PUSH2 0x59A5 JUMP JUMPDEST PUSH2 0x19C4 JUMP JUMPDEST STOP JUMPDEST PUSH2 0x586 PUSH1 0x4 DUP1 CALLDATASIZE SUB DUP2 ADD SWAP1 PUSH2 0x581 SWAP2 SWAP1 PUSH2 0x5757 JUMP JUMPDEST PUSH2 0x1B76 JUMP JUMPDEST PUSH1 0x40 MLOAD PUSH2 0x593 SWAP2 SWAP1 PUSH2 0x5A55 JUMP JUMPDEST PUSH1 0x40 MLOAD DUP1 SWAP2 SUB SWAP1 RETURN JUMPDEST PUSH2 0x5B6 PUSH1 0x4 DUP1 CALLDATASIZE SUB DUP2 ADD SWAP1 PUSH2 0x5B1 SWAP2 SWAP1 PUSH2 0x5686 JUMP JUMPDEST PUSH2 0x1BD6 JUMP JUMPDEST STOP JUMPDEST PUSH2 0x5D2 PUSH1 0x4 DUP1 CALLDATASIZE SUB DUP2 ADD SWAP1 PUSH2 0x5CD SWAP2 SWAP1 PUSH2 0x5A6E JUMP JUMPDEST PUSH2 0x1BF6 JUMP JUMPDEST PUSH1 0x40 MLOAD PUSH2 0x5DF SWAP2 SWAP1 PUSH2 0x5AA8 JUMP JUMPDEST PUSH1 0x40 MLOAD DUP1 SWAP2 SUB SWAP1 RETURN JUMPDEST PUSH2 0x602 PUSH1 0x4 DUP1 CALLDATASIZE SUB DUP2 ADD SWAP1 PUSH2 0x5FD SWAP2 SWAP1 PUSH2 0x5686 JUMP JUMPDEST PUSH2 0x1C33 JUMP JUMPDEST PUSH1 0x40 MLOAD PUSH2 0x60F SWAP2 SWAP1 PUSH2 0x5427 JUMP JUMPDEST PUSH1 0x40 MLOAD DUP1 SWAP2 SUB SWAP1 RETURN JUMPDEST PUSH2 0x632 PUSH1 0x4 DUP1 CALLDATASIZE SUB DUP2 ADD SWAP1 PUSH2 0x62D SWAP2 SWAP1 PUSH2 0x5AC1 JUMP JUMPDEST PUSH2 0x1C5E JUMP JUMPDEST PUSH1 0x40 MLOAD PUSH2 0x63F SWAP2 SWAP1 PUSH2 0x5427 JUMP JUMPDEST PUSH1 0x40 MLOAD DUP1 SWAP2 SUB SWAP1 RETURN JUMPDEST PUSH2 0x662 PUSH1 0x4 DUP1 CALLDATASIZE SUB DUP2 ADD SWAP1 PUSH2 0x65D SWAP2 SWAP1 PUSH2 0x5B25 JUMP JUMPDEST PUSH2 0x1D9B JUMP JUMPDEST STOP JUMPDEST PUSH2 0x67E PUSH1 0x4 DUP1 CALLDATASIZE SUB DUP2 ADD SWAP1 PUSH2 0x679 SWAP2 SWAP1 PUSH2 0x5B63 JUMP JUMPDEST PUSH2 0x1F36 JUMP JUMPDEST STOP JUMPDEST PUSH2 0x69A PUSH1 0x4 DUP1 CALLDATASIZE SUB DUP2 ADD SWAP1 PUSH2 0x695 SWAP2 SWAP1 PUSH2 0x5757 JUMP JUMPDEST PUSH2 0x2033 JUMP JUMPDEST STOP JUMPDEST PUSH2 0x6B6 PUSH1 0x4 DUP1 CALLDATASIZE SUB DUP2 ADD SWAP1 PUSH2 0x6B1 SWAP2 SWAP1 PUSH2 0x5BC7 JUMP JUMPDEST PUSH2 0x20A7 JUMP JUMPDEST STOP JUMPDEST PUSH2 0x6D2 PUSH1 0x4 DUP1 CALLDATASIZE SUB DUP2 ADD SWAP1 PUSH2 0x6CD SWAP2 SWAP1 PUSH2 0x5C17 JUMP JUMPDEST PUSH2 0x20DB JUMP JUMPDEST PUSH1 0x40 MLOAD PUSH2 0x6DF SWAP2 SWAP1 PUSH2 0x5427 JUMP JUMPDEST PUSH1 0x40 MLOAD DUP1 SWAP2 SUB SWAP1 RETURN JUMPDEST PUSH2 0x702 PUSH1 0x4 DUP1 CALLDATASIZE SUB DUP2 ADD SWAP1 PUSH2 0x6FD SWAP2 SWAP1 PUSH2 0x5B63 JUMP JUMPDEST PUSH2 0x22FC JUMP JUMPDEST STOP JUMPDEST PUSH2 0x70C PUSH2 0x23B7 JUMP JUMPDEST PUSH1 0x40 MLOAD PUSH2 0x719 SWAP2 SWAP1 PUSH2 0x562F JUMP JUMPDEST PUSH1 0x40 MLOAD DUP1 SWAP2 SUB SWAP1 RETURN JUMPDEST PUSH2 0x73C PUSH1 0x4 DUP1 CALLDATASIZE SUB DUP2 ADD SWAP1 PUSH2 0x737 SWAP2 SWAP1 PUSH2 0x56B1 JUMP JUMPDEST PUSH2 0x23DC JUMP JUMPDEST PUSH1 0x40 MLOAD PUSH2 0x749 SWAP2 SWAP1 PUSH2 0x5D4A JUMP JUMPDEST PUSH1 0x40 MLOAD DUP1 SWAP2 SUB SWAP1 RETURN JUMPDEST PUSH2 0x76C PUSH1 0x4 DUP1 CALLDATASIZE SUB DUP2 ADD SWAP1 PUSH2 0x767 SWAP2 SWAP1 PUSH2 0x5D6A JUMP JUMPDEST PUSH2 0x254E JUMP JUMPDEST STOP JUMPDEST PUSH2 0x788 PUSH1 0x4 DUP1 CALLDATASIZE SUB DUP2 ADD SWAP1 PUSH2 0x783 SWAP2 SWAP1 PUSH2 0x5686 JUMP JUMPDEST PUSH2 0x26D9 JUMP JUMPDEST PUSH1 0x40 MLOAD PUSH2 0x795 SWAP2 SWAP1 PUSH2 0x5427 JUMP JUMPDEST PUSH1 0x40 MLOAD DUP1 SWAP2 SUB SWAP1 RETURN JUMPDEST PUSH2 0x7B8 PUSH1 0x4 DUP1 CALLDATASIZE SUB DUP2 ADD SWAP1 PUSH2 0x7B3 SWAP2 SWAP1 PUSH2 0x5BC7 JUMP JUMPDEST PUSH2 0x26FF JUMP JUMPDEST PUSH1 0x40 MLOAD PUSH2 0x7C5 SWAP2 SWAP1 PUSH2 0x5427 JUMP JUMPDEST PUSH1 0x40 MLOAD DUP1 SWAP2 SUB SWAP1 RETURN JUMPDEST PUSH2 0x7E8 PUSH1 0x4 DUP1 CALLDATASIZE SUB DUP2 ADD SWAP1 PUSH2 0x7E3 SWAP2 SWAP1 PUSH2 0x5DE1 JUMP JUMPDEST PUSH2 0x2738 JUMP JUMPDEST STOP JUMPDEST PUSH2 0x804 PUSH1 0x4 DUP1 CALLDATASIZE SUB DUP2 ADD SWAP1 PUSH2 0x7FF SWAP2 SWAP1 PUSH2 0x5E74 JUMP JUMPDEST PUSH2 0x282F JUMP JUMPDEST STOP JUMPDEST PUSH2 0x820 PUSH1 0x4 DUP1 CALLDATASIZE SUB DUP2 ADD SWAP1 PUSH2 0x81B SWAP2 SWAP1 PUSH2 0x5EBF JUMP JUMPDEST PUSH2 0x289B JUMP JUMPDEST STOP JUMPDEST PUSH2 0x83C PUSH1 0x4 DUP1 CALLDATASIZE SUB DUP2 ADD SWAP1 PUSH2 0x837 SWAP2 SWAP1 PUSH2 0x5F8B JUMP JUMPDEST PUSH2 0x2BCD JUMP JUMPDEST STOP JUMPDEST PUSH2 0x858 PUSH1 0x4 DUP1 CALLDATASIZE SUB DUP2 ADD SWAP1 PUSH2 0x853 SWAP2 SWAP1 PUSH2 0x60D2 JUMP JUMPDEST PUSH2 0x3032 JUMP JUMPDEST STOP JUMPDEST PUSH2 0x874 PUSH1 0x4 DUP1 CALLDATASIZE SUB DUP2 ADD SWAP1 PUSH2 0x86F SWAP2 SWAP1 PUSH2 0x5757 JUMP JUMPDEST PUSH2 0x30AF JUMP JUMPDEST PUSH1 0x40 MLOAD PUSH2 0x886 SWAP7 SWAP6 SWAP5 SWAP4 SWAP3 SWAP2 SWAP1 PUSH2 0x6110 JUMP JUMPDEST PUSH1 0x40 MLOAD DUP1 SWAP2 SUB SWAP1 RETURN JUMPDEST PUSH2 0x8A9 PUSH1 0x4 DUP1 CALLDATASIZE SUB DUP2 ADD SWAP1 PUSH2 0x8A4 SWAP2 SWAP1 PUSH2 0x5757 JUMP JUMPDEST PUSH2 0x32D7 JUMP JUMPDEST PUSH1 0x40 MLOAD PUSH2 0x8B6 SWAP2 SWAP1 PUSH2 0x6189 JUMP JUMPDEST PUSH1 0x40 MLOAD DUP1 SWAP2 SUB SWAP1 RETURN JUMPDEST PUSH2 0x8D9 PUSH1 0x4 DUP1 CALLDATASIZE SUB DUP2 ADD SWAP1 PUSH2 0x8D4 SWAP2 SWAP1 PUSH2 0x61DD JUMP JUMPDEST PUSH2 0x3339 JUMP JUMPDEST STOP JUMPDEST PUSH2 0x8F5 PUSH1 0x4 DUP1 CALLDATASIZE SUB DUP2 ADD SWAP1 PUSH2 0x8F0 SWAP2 SWAP1 PUSH2 0x5648 JUMP JUMPDEST PUSH2 0x34FB JUMP JUMPDEST STOP JUMPDEST PUSH2 0x911 PUSH1 0x4 DUP1 CALLDATASIZE SUB DUP2 ADD SWAP1 PUSH2 0x90C SWAP2 SWAP1 PUSH2 0x6208 JUMP JUMPDEST PUSH2 0x35A2 JUMP JUMPDEST STOP JUMPDEST PUSH2 0x92D PUSH1 0x4 DUP1 CALLDATASIZE SUB DUP2 ADD SWAP1 PUSH2 0x928 SWAP2 SWAP1 PUSH2 0x5757 JUMP JUMPDEST PUSH2 0x3616 JUMP JUMPDEST PUSH1 0x40 MLOAD PUSH2 0x93A SWAP2 SWAP1 PUSH2 0x5427 JUMP JUMPDEST PUSH1 0x40 MLOAD DUP1 SWAP2 SUB SWAP1 RETURN JUMPDEST PUSH2 0x94B PUSH2 0x3663 JUMP JUMPDEST PUSH1 0x40 MLOAD PUSH2 0x958 SWAP2 SWAP1 PUSH2 0x6300 JUMP JUMPDEST PUSH1 0x40 MLOAD DUP1 SWAP2 SUB SWAP1 RETURN JUMPDEST PUSH2 0x97B PUSH1 0x4 DUP1 CALLDATASIZE SUB DUP2 ADD SWAP1 PUSH2 0x976 SWAP2 SWAP1 PUSH2 0x64F5 JUMP JUMPDEST PUSH2 0x37F0 JUMP JUMPDEST STOP JUMPDEST PUSH2 0x997 PUSH1 0x4 DUP1 CALLDATASIZE SUB DUP2 ADD SWAP1 PUSH2 0x992 SWAP2 SWAP1 PUSH2 0x654F JUMP JUMPDEST PUSH2 0x3956 JUMP JUMPDEST STOP JUMPDEST PUSH2 0x9B3 PUSH1 0x4 DUP1 CALLDATASIZE SUB DUP2 ADD SWAP1 PUSH2 0x9AE SWAP2 SWAP1 PUSH2 0x5686 JUMP JUMPDEST PUSH2 0x3C56 JUMP JUMPDEST STOP JUMPDEST PUSH2 0x9CF PUSH1 0x4 DUP1 CALLDATASIZE SUB DUP2 ADD SWAP1 PUSH2 0x9CA SWAP2 SWAP1 PUSH2 0x56DC JUMP JUMPDEST PUSH2 0x3C81 JUMP JUMPDEST PUSH1 0x40 MLOAD PUSH2 0x9DC SWAP2 SWAP1 PUSH2 0x5427 JUMP JUMPDEST PUSH1 0x40 MLOAD DUP1 SWAP2 SUB SWAP1 RETURN JUMPDEST PUSH2 0x9FF PUSH1 0x4 DUP1 CALLDATASIZE SUB DUP2 ADD SWAP1 PUSH2 0x9FA SWAP2 SWAP1 PUSH2 0x5686 JUMP JUMPDEST PUSH2 0x3D4F JUMP JUMPDEST PUSH1 0x40 MLOAD PUSH2 0xA0C SWAP2 SWAP1 PUSH2 0x5427 JUMP JUMPDEST PUSH1 0x40 MLOAD DUP1 SWAP2 SUB SWAP1 RETURN JUMPDEST PUSH2 0xA2F PUSH1 0x4 DUP1 CALLDATASIZE SUB DUP2 ADD SWAP1 PUSH2 0xA2A SWAP2 SWAP1 PUSH2 0x5757 JUMP JUMPDEST PUSH2 0x3D79 JUMP JUMPDEST STOP JUMPDEST PUSH2 0xA39 PUSH2 0x3DEA JUMP JUMPDEST PUSH1 0x40 MLOAD PUSH2 0xA46 SWAP2 SWAP1 PUSH2 0x5427 JUMP JUMPDEST PUSH1 0x40 MLOAD DUP1 SWAP2 SUB SWAP1 RETURN JUMPDEST PUSH2 0xA69 PUSH1 0x4 DUP1 CALLDATASIZE SUB DUP2 ADD SWAP1 PUSH2 0xA64 SWAP2 SWAP1 PUSH2 0x5B63 JUMP JUMPDEST PUSH2 0x3E10 JUMP JUMPDEST STOP JUMPDEST PUSH2 0xA85 PUSH1 0x4 DUP1 CALLDATASIZE SUB DUP2 ADD SWAP1 PUSH2 0xA80 SWAP2 SWAP1 PUSH2 0x5757 JUMP JUMPDEST PUSH2 0x3F0D JUMP JUMPDEST PUSH1 0x40 MLOAD PUSH2 0xA92 SWAP2 SWAP1 PUSH2 0x5427 JUMP JUMPDEST PUSH1 0x40 MLOAD DUP1 SWAP2 SUB SWAP1 RETURN JUMPDEST PUSH2 0xAB5 PUSH1 0x4 DUP1 CALLDATASIZE SUB DUP2 ADD SWAP1 PUSH2 0xAB0 SWAP2 SWAP1 PUSH2 0x65D8 JUMP JUMPDEST PUSH2 0x3F62 JUMP JUMPDEST PUSH1 0x40 MLOAD PUSH2 0xAC2 SWAP2 SWAP1 PUSH2 0x5427 JUMP JUMPDEST PUSH1 0x40 MLOAD DUP1 SWAP2 SUB SWAP1 RETURN JUMPDEST PUSH2 0xAE5 PUSH1 0x4 DUP1 CALLDATASIZE SUB DUP2 ADD SWAP1 PUSH2 0xAE0 SWAP2 SWAP1 PUSH2 0x66AB JUMP JUMPDEST PUSH2 0x411A JUMP JUMPDEST STOP JUMPDEST PUSH2 0xB01 PUSH1 0x4 DUP1 CALLDATASIZE SUB DUP2 ADD SWAP1 PUSH2 0xAFC SWAP2 SWAP1 PUSH2 0x5686 JUMP JUMPDEST PUSH2 0x4351 JUMP JUMPDEST STOP JUMPDEST PUSH2 0xB0B PUSH2 0x4377 JUMP JUMPDEST PUSH1 0x40 MLOAD PUSH2 0xB18 SWAP2 SWAP1 PUSH2 0x66F8 JUMP JUMPDEST PUSH1 0x40 MLOAD DUP1 SWAP2 SUB SWAP1 RETURN JUMPDEST PUSH2 0xB3B PUSH1 0x4 DUP1 CALLDATASIZE SUB DUP2 ADD SWAP1 PUSH2 0xB36 SWAP2 SWAP1 PUSH2 0x6711 JUMP JUMPDEST PUSH2 0x437F JUMP JUMPDEST STOP JUMPDEST PUSH20 0x0 PUSH4 0x83C1087D PUSH1 0x34 PUSH1 0x36 PUSH1 0x35 PUSH1 0x37 PUSH1 0x40 MLOAD DUP1 PUSH2 0x120 ADD PUSH1 0x40 MSTORE DUP1 PUSH1 0x3B PUSH1 0x8 SWAP1 SLOAD SWAP1 PUSH2 0x100 EXP SWAP1 DIV PUSH2 0xFFFF AND PUSH2 0xFFFF AND DUP2 MSTORE PUSH1 0x20 ADD DUP10 DUP2 MSTORE PUSH1 0x20 ADD DUP13 PUSH20 0xFFFFFFFFFFFFFFFFFFFFFFFFFFFFFFFFFFFFFFFF AND DUP2 MSTORE PUSH1 0x20 ADD DUP12 PUSH20 0xFFFFFFFFFFFFFFFFFFFFFFFFFFFFFFFFFFFFFFFF AND DUP2 MSTORE PUSH1 0x20 ADD DUP11 PUSH20 0xFFFFFFFFFFFFFFFFFFFFFFFFFFFFFFFFFFFFFFFF AND DUP2 MSTORE PUSH1 0x20 ADD DUP9 ISZERO ISZERO DUP2 MSTORE PUSH1 0x20 ADD PUSH32 0x0 PUSH20 0xFFFFFFFFFFFFFFFFFFFFFFFFFFFFFFFFFFFFFFFF AND PUSH4 0xFCA513A8 PUSH1 0x40 MLOAD DUP2 PUSH4 0xFFFFFFFF AND PUSH1 0xE0 SHL DUP2 MSTORE PUSH1 0x4 ADD PUSH1 0x20 PUSH1 0x40 MLOAD DUP1 DUP4 SUB DUP2 DUP7 GAS STATICCALL ISZERO DUP1 ISZERO PUSH2 0xC50 JUMPI RETURNDATASIZE PUSH0 DUP1 RETURNDATACOPY RETURNDATASIZE PUSH0 REVERT JUMPDEST POP POP POP POP PUSH1 0x40 MLOAD RETURNDATASIZE PUSH1 0x1F NOT PUSH1 0x1F DUP3 ADD AND DUP3 ADD DUP1 PUSH1 0x40 MSTORE POP DUP2 ADD SWAP1 PUSH2 0xC74 SWAP2 SWAP1 PUSH2 0x6763 JUMP JUMPDEST PUSH20 0xFFFFFFFFFFFFFFFFFFFFFFFFFFFFFFFFFFFFFFFF AND DUP2 MSTORE PUSH1 0x20 ADD PUSH1 0x38 PUSH0 DUP13 PUSH20 0xFFFFFFFFFFFFFFFFFFFFFFFFFFFFFFFFFFFFFFFF AND PUSH20 0xFFFFFFFFFFFFFFFFFFFFFFFFFFFFFFFFFFFFFFFF AND DUP2 MSTORE PUSH1 0x20 ADD SWAP1 DUP2 MSTORE PUSH1 0x20 ADD PUSH0 KECCAK256 PUSH0 SWAP1 SLOAD SWAP1 PUSH2 0x100 EXP SWAP1 DIV PUSH1 0xFF AND PUSH1 0xFF AND DUP2 MSTORE PUSH1 0x20 ADD PUSH32 0x0 PUSH20 0xFFFFFFFFFFFFFFFFFFFFFFFFFFFFFFFFFFFFFFFF AND PUSH4 0x5EB88D3D PUSH1 0x40 MLOAD DUP2 PUSH4 0xFFFFFFFF AND PUSH1 0xE0 SHL DUP2 MSTORE PUSH1 0x4 ADD PUSH1 0x20 PUSH1 0x40 MLOAD DUP1 DUP4 SUB DUP2 DUP7 GAS STATICCALL ISZERO DUP1 ISZERO PUSH2 0xD4A JUMPI RETURNDATASIZE PUSH0 DUP1 RETURNDATACOPY RETURNDATASIZE PUSH0 REVERT JUMPDEST POP POP POP POP PUSH1 0x40 MLOAD RETURNDATASIZE PUSH1 0x1F NOT PUSH1 0x1F DUP3 ADD AND DUP3 ADD DUP1 PUSH1 0x40 MSTORE POP DUP2 ADD SWAP1 PUSH2 0xD6E SWAP2 SWAP1 PUSH2 0x6763 JUMP JUMPDEST PUSH20 0xFFFFFFFFFFFFFFFFFFFFFFFFFFFFFFFFFFFFFFFF AND DUP2 MSTORE POP PUSH1 0x40 MLOAD DUP7 PUSH4 0xFFFFFFFF AND PUSH1 0xE0 SHL DUP2 MSTORE PUSH1 0x4 ADD PUSH2 0xDA7 SWAP6 SWAP5 SWAP4 SWAP3 SWAP2 SWAP1 PUSH2 0x689B JUMP JUMPDEST PUSH0 PUSH1 0x40 MLOAD DUP1 DUP4 SUB DUP2 DUP7 DUP1 EXTCODESIZE ISZERO DUP1 ISZERO PUSH2 0xDBD JUMPI PUSH0 DUP1 REVERT JUMPDEST POP GAS DELEGATECALL ISZERO DUP1 ISZERO PUSH2 0xDCF JUMPI RETURNDATASIZE PUSH0 DUP1 RETURNDATACOPY RETURNDATASIZE PUSH0 REVERT JUMPDEST POP POP POP POP POP POP POP POP POP JUMP JUMPDEST PUSH1 0x1 DUP2 JUMP JUMPDEST DUP8 PUSH20 0xFFFFFFFFFFFFFFFFFFFFFFFFFFFFFFFFFFFFFFFF AND PUSH4 0xD505ACCF CALLER ADDRESS DUP11 DUP9 DUP9 DUP9 DUP9 PUSH1 0x40 MLOAD DUP9 PUSH4 0xFFFFFFFF AND PUSH1 0xE0 SHL DUP2 MSTORE PUSH1 0x4 ADD PUSH2 0xE24 SWAP8 SWAP7 SWAP6 SWAP5 SWAP4 SWAP3 SWAP2 SWAP1 PUSH2 0x690B JUMP JUMPDEST PUSH0 PUSH1 0x40 MLOAD DUP1 DUP4 SUB DUP2 PUSH0 DUP8 DUP1 EXTCODESIZE ISZERO DUP1 ISZERO PUSH2 0xE3B JUMPI PUSH0 DUP1 REVERT JUMPDEST POP GAS CALL ISZERO DUP1 ISZERO PUSH2 0xE4D JUMPI RETURNDATASIZE PUSH0 DUP1 RETURNDATACOPY RETURNDATASIZE PUSH0 REVERT JUMPDEST POP POP POP POP PUSH20 0x0 PUSH4 0x1913F161 PUSH1 0x34 PUSH1 0x36 PUSH1 0x35 PUSH0 DUP12 PUSH20 0xFFFFFFFFFFFFFFFFFFFFFFFFFFFFFFFFFFFFFFFF AND PUSH20 0xFFFFFFFFFFFFFFFFFFFFFFFFFFFFFFFFFFFFFFFF AND DUP2 MSTORE PUSH1 0x20 ADD SWAP1 DUP2 MSTORE PUSH1 0x20 ADD PUSH0 KECCAK256 PUSH1 0x40 MLOAD DUP1 PUSH1 0x80 ADD PUSH1 0x40 MSTORE DUP1 DUP15 PUSH20 0xFFFFFFFFFFFFFFFFFFFFFFFFFFFFFFFFFFFFFFFF AND DUP2 MSTORE PUSH1 0x20 ADD DUP14 DUP2 MSTORE PUSH1 0x20 ADD DUP13 PUSH20 0xFFFFFFFFFFFFFFFFFFFFFFFFFFFFFFFFFFFFFFFF AND DUP2 MSTORE PUSH1 0x20 ADD DUP12 PUSH2 0xFFFF AND DUP2 MSTORE POP PUSH1 0x40 MLOAD DUP6 PUSH4 0xFFFFFFFF AND PUSH1 0xE0 SHL DUP2 MSTORE PUSH1 0x4 ADD PUSH2 0xF1C SWAP5 SWAP4 SWAP3 SWAP2 SWAP1 PUSH2 0x69E1 JUMP JUMPDEST PUSH0 PUSH1 0x40 MLOAD DUP1 DUP4 SUB DUP2 DUP7 DUP1 EXTCODESIZE ISZERO DUP1 ISZERO PUSH2 0xF32 JUMPI PUSH0 DUP1 REVERT JUMPDEST POP GAS DELEGATECALL ISZERO DUP1 ISZERO PUSH2 0xF44 JUMPI RETURNDATASIZE PUSH0 DUP1 RETURNDATACOPY RETURNDATASIZE PUSH0 REVERT JUMPDEST POP POP POP POP POP POP POP POP POP POP POP POP JUMP JUMPDEST PUSH32 0x0 DUP2 JUMP JUMPDEST PUSH0 PUSH1 0x3A PUSH0 SWAP1 SLOAD SWAP1 PUSH2 0x100 EXP SWAP1 DIV PUSH16 0xFFFFFFFFFFFFFFFFFFFFFFFFFFFFFFFF AND SWAP1 POP SWAP1 JUMP JUMPDEST PUSH2 0xFA2 PUSH2 0x43B0 JUMP JUMPDEST PUSH0 PUSH20 0xFFFFFFFFFFFFFFFFFFFFFFFFFFFFFFFFFFFFFFFF AND DUP3 PUSH20 0xFFFFFFFFFFFFFFFFFFFFFFFFFFFFFFFFFFFFFFFF AND EQ ISZERO PUSH1 0x40 MLOAD DUP1 PUSH1 0x40 ADD PUSH1 0x40 MSTORE DUP1 PUSH1 0x2 DUP2 MSTORE PUSH1 0x20 ADD PUSH32 0x3737000000000000000000000000000000000000000000000000000000000000 DUP2 MSTORE POP SWAP1 PUSH2 0x1049 JUMPI PUSH1 0x40 MLOAD PUSH32 0x8C379A000000000000000000000000000000000000000000000000000000000 DUP2 MSTORE PUSH1 0x4 ADD PUSH2 0x1040 SWAP2 SWAP1 PUSH2 0x6A6C JUMP JUMPDEST PUSH1 0x40 MLOAD DUP1 SWAP2 SUB SWAP1 REVERT JUMPDEST POP PUSH0 PUSH1 0x34 PUSH0 DUP5 PUSH20 0xFFFFFFFFFFFFFFFFFFFFFFFFFFFFFFFFFFFFFFFF AND PUSH20 0xFFFFFFFFFFFFFFFFFFFFFFFFFFFFFFFFFFFFFFFF AND DUP2 MSTORE PUSH1 0x20 ADD SWAP1 DUP2 MSTORE PUSH1 0x20 ADD PUSH0 KECCAK256 PUSH1 0x3 ADD PUSH1 0x15 SWAP1 SLOAD SWAP1 PUSH2 0x100 EXP SWAP1 DIV PUSH2 0xFFFF AND PUSH2 0xFFFF AND EQ ISZERO DUP1 PUSH2 0x1106 JUMPI POP DUP2 PUSH20 0xFFFFFFFFFFFFFFFFFFFFFFFFFFFFFFFFFFFFFFFF AND PUSH1 0x36 PUSH0 DUP1 DUP2 MSTORE PUSH1 0x20 ADD SWAP1 DUP2 MSTORE PUSH1 0x20 ADD PUSH0 KECCAK256 PUSH0 SWAP1 SLOAD SWAP1 PUSH2 0x100 EXP SWAP1 DIV PUSH20 0xFFFFFFFFFFFFFFFFFFFFFFFFFFFFFFFFFFFFFFFF AND PUSH20 0xFFFFFFFFFFFFFFFFFFFFFFFFFFFFFFFFFFFFFFFF AND EQ JUMPDEST PUSH1 0x40 MLOAD DUP1 PUSH1 0x40 ADD PUSH1 0x40 MSTORE DUP1 PUSH1 0x2 DUP2 MSTORE PUSH1 0x20 ADD PUSH32 0x3832000000000000000000000000000000000000000000000000000000000000 DUP2 MSTORE POP SWAP1 PUSH2 0x117D JUMPI PUSH1 0x40 MLOAD PUSH32 0x8C379A000000000000000000000000000000000000000000000000000000000 DUP2 MSTORE PUSH1 0x4 ADD PUSH2 0x1174 SWAP2 SWAP1 PUSH2 0x6A6C JUMP JUMPDEST PUSH1 0x40 MLOAD DUP1 SWAP2 SUB SWAP1 REVERT JUMPDEST POP DUP1 PUSH1 0x34 PUSH0 DUP5 PUSH20 0xFFFFFFFFFFFFFFFFFFFFFFFFFFFFFFFFFFFFFFFF AND PUSH20 0xFFFFFFFFFFFFFFFFFFFFFFFFFFFFFFFFFFFFFFFF AND DUP2 MSTORE PUSH1 0x20 ADD SWAP1 DUP2 MSTORE PUSH1 0x20 ADD PUSH0 KECCAK256 PUSH1 0x7 ADD PUSH0 PUSH2 0x100 EXP DUP2 SLOAD DUP2 PUSH20 0xFFFFFFFFFFFFFFFFFFFFFFFFFFFFFFFFFFFFFFFF MUL NOT AND SWAP1 DUP4 PUSH20 0xFFFFFFFFFFFFFFFFFFFFFFFFFFFFFFFFFFFFFFFF AND MUL OR SWAP1 SSTORE POP POP POP JUMP JUMPDEST PUSH0 DUP1 PUSH2 0x120D PUSH1 0x36 DUP5 PUSH2 0x44E5 JUMP JUMPDEST SWAP2 POP SWAP2 POP PUSH2 0x121B DUP3 DUP3 PUSH2 0x2738 JUMP JUMPDEST POP POP POP JUMP JUMPDEST PUSH0 PUSH1 0x39 SLOAD SWAP1 POP SWAP1 JUMP JUMPDEST PUSH20 0x0 PUSH4 0x5D5DC313 PUSH1 0x34 PUSH1 0x36 PUSH1 0x37 PUSH1 0x38 PUSH1 0x35 PUSH0 CALLER PUSH20 0xFFFFFFFFFFFFFFFFFFFFFFFFFFFFFFFFFFFFFFFF AND PUSH20 0xFFFFFFFFFFFFFFFFFFFFFFFFFFFFFFFFFFFFFFFF AND DUP2 MSTORE PUSH1 0x20 ADD SWAP1 DUP2 MSTORE PUSH1 0x20 ADD PUSH0 KECCAK256 PUSH1 0x40 MLOAD DUP1 PUSH1 0x60 ADD PUSH1 0x40 MSTORE DUP1 PUSH1 0x3B PUSH1 0x8 SWAP1 SLOAD SWAP1 PUSH2 0x100 EXP SWAP1 DIV PUSH2 0xFFFF AND PUSH2 0xFFFF AND DUP2 MSTORE PUSH1 0x20 ADD PUSH32 0x0 PUSH20 0xFFFFFFFFFFFFFFFFFFFFFFFFFFFFFFFFFFFFFFFF AND PUSH4 0xFCA513A8 PUSH1 0x40 MLOAD DUP2 PUSH4 0xFFFFFFFF AND PUSH1 0xE0 SHL DUP2 MSTORE PUSH1 0x4 ADD PUSH1 0x20 PUSH1 0x40 MLOAD DUP1 DUP4 SUB DUP2 DUP7 GAS STATICCALL ISZERO DUP1 ISZERO PUSH2 0x1316 JUMPI RETURNDATASIZE PUSH0 DUP1 RETURNDATACOPY RETURNDATASIZE PUSH0 REVERT JUMPDEST POP POP POP POP PUSH1 0x40 MLOAD RETURNDATASIZE PUSH1 0x1F NOT PUSH1 0x1F DUP3 ADD AND DUP3 ADD DUP1 PUSH1 0x40 MSTORE POP DUP2 ADD SWAP1 PUSH2 0x133A SWAP2 SWAP1 PUSH2 0x6763 JUMP JUMPDEST PUSH20 0xFFFFFFFFFFFFFFFFFFFFFFFFFFFFFFFFFFFFFFFF AND DUP2 MSTORE PUSH1 0x20 ADD DUP10 PUSH1 0xFF AND DUP2 MSTORE POP PUSH1 0x40 MLOAD DUP8 PUSH4 0xFFFFFFFF AND PUSH1 0xE0 SHL DUP2 MSTORE PUSH1 0x4 ADD PUSH2 0x137D SWAP7 SWAP6 SWAP5 SWAP4 SWAP3 SWAP2 SWAP1 PUSH2 0x6AD3 JUMP JUMPDEST PUSH0 PUSH1 0x40 MLOAD DUP1 DUP4 SUB DUP2 DUP7 DUP1 EXTCODESIZE ISZERO DUP1 ISZERO PUSH2 0x1393 JUMPI PUSH0 DUP1 REVERT JUMPDEST POP GAS DELEGATECALL ISZERO DUP1 ISZERO PUSH2 0x13A5 JUMPI RETURNDATASIZE PUSH0 DUP1 RETURNDATACOPY RETURNDATASIZE PUSH0 REVERT JUMPDEST POP POP POP POP POP JUMP JUMPDEST PUSH0 PUSH20 0x0 PUSH4 0x40E95DE6 PUSH1 0x34 PUSH1 0x36 PUSH1 0x35 PUSH0 CALLER PUSH20 0xFFFFFFFFFFFFFFFFFFFFFFFFFFFFFFFFFFFFFFFF AND PUSH20 0xFFFFFFFFFFFFFFFFFFFFFFFFFFFFFFFFFFFFFFFF AND DUP2 MSTORE PUSH1 0x20 ADD SWAP1 DUP2 MSTORE PUSH1 0x20 ADD PUSH0 KECCAK256 PUSH1 0x40 MLOAD DUP1 PUSH1 0xA0 ADD PUSH1 0x40 MSTORE DUP1 DUP11 PUSH20 0xFFFFFFFFFFFFFFFFFFFFFFFFFFFFFFFFFFFFFFFF AND DUP2 MSTORE PUSH1 0x20 ADD DUP10 DUP2 MSTORE PUSH1 0x20 ADD DUP9 PUSH1 0x2 DUP2 GT ISZERO PUSH2 0x1448 JUMPI PUSH2 0x1447 PUSH2 0x6B33 JUMP JUMPDEST JUMPDEST PUSH1 0x2 DUP2 GT ISZERO PUSH2 0x145A JUMPI PUSH2 0x1459 PUSH2 0x6B33 JUMP JUMPDEST JUMPDEST DUP2 MSTORE PUSH1 0x20 ADD CALLER PUSH20 0xFFFFFFFFFFFFFFFFFFFFFFFFFFFFFFFFFFFFFFFF AND DUP2 MSTORE PUSH1 0x20 ADD PUSH1 0x1 ISZERO ISZERO DUP2 MSTORE POP PUSH1 0x40 MLOAD DUP6 PUSH4 0xFFFFFFFF AND PUSH1 0xE0 SHL DUP2 MSTORE PUSH1 0x4 ADD PUSH2 0x14A1 SWAP5 SWAP4 SWAP3 SWAP2 SWAP1 PUSH2 0x6C0C JUMP JUMPDEST PUSH1 0x20 PUSH1 0x40 MLOAD DUP1 DUP4 SUB DUP2 DUP7 GAS DELEGATECALL ISZERO DUP1 ISZERO PUSH2 0x14BC JUMPI RETURNDATASIZE PUSH0 DUP1 RETURNDATACOPY RETURNDATASIZE PUSH0 REVERT JUMPDEST POP POP POP POP PUSH1 0x40 MLOAD RETURNDATASIZE PUSH1 0x1F NOT PUSH1 0x1F DUP3 ADD AND DUP3 ADD DUP1 PUSH1 0x40 MSTORE POP DUP2 ADD SWAP1 PUSH2 0x14E0 SWAP2 SWAP1 PUSH2 0x6C64 JUMP JUMPDEST SWAP1 POP SWAP4 SWAP3 POP POP POP JUMP JUMPDEST PUSH2 0x14F1 PUSH2 0x43B0 JUMP JUMPDEST DUP1 PUSH1 0x39 DUP2 SWAP1 SSTORE POP POP JUMP JUMPDEST PUSH2 0x1503 PUSH2 0x50FC JUMP JUMPDEST PUSH1 0x34 PUSH0 DUP4 PUSH20 0xFFFFFFFFFFFFFFFFFFFFFFFFFFFFFFFFFFFFFFFF AND PUSH20 0xFFFFFFFFFFFFFFFFFFFFFFFFFFFFFFFFFFFFFFFF AND DUP2 MSTORE PUSH1 0x20 ADD SWAP1 DUP2 MSTORE PUSH1 0x20 ADD PUSH0 KECCAK256 PUSH1 0x40 MLOAD DUP1 PUSH2 0x1E0 ADD PUSH1 0x40 MSTORE SWAP1 DUP2 PUSH0 DUP3 ADD PUSH1 0x40 MLOAD DUP1 PUSH1 0x20 ADD PUSH1 0x40 MSTORE SWAP1 DUP2 PUSH0 DUP3 ADD SLOAD DUP2 MSTORE POP POP DUP2 MSTORE PUSH1 0x20 ADD PUSH1 0x1 DUP3 ADD PUSH0 SWAP1 SLOAD SWAP1 PUSH2 0x100 EXP SWAP1 DIV PUSH16 0xFFFFFFFFFFFFFFFFFFFFFFFFFFFFFFFF AND PUSH16 0xFFFFFFFFFFFFFFFFFFFFFFFFFFFFFFFF AND PUSH16 0xFFFFFFFFFFFFFFFFFFFFFFFFFFFFFFFF AND DUP2 MSTORE PUSH1 0x20 ADD PUSH1 0x1 DUP3 ADD PUSH1 0x10 SWAP1 SLOAD SWAP1 PUSH2 0x100 EXP SWAP1 DIV PUSH16 0xFFFFFFFFFFFFFFFFFFFFFFFFFFFFFFFF AND PUSH16 0xFFFFFFFFFFFFFFFFFFFFFFFFFFFFFFFF AND PUSH16 0xFFFFFFFFFFFFFFFFFFFFFFFFFFFFFFFF AND DUP2 MSTORE PUSH1 0x20 ADD PUSH1 0x2 DUP3 ADD PUSH0 SWAP1 SLOAD SWAP1 PUSH2 0x100 EXP SWAP1 DIV PUSH16 0xFFFFFFFFFFFFFFFFFFFFFFFFFFFFFFFF AND PUSH16 0xFFFFFFFFFFFFFFFFFFFFFFFFFFFFFFFF AND PUSH16 0xFFFFFFFFFFFFFFFFFFFFFFFFFFFFFFFF AND DUP2 MSTORE PUSH1 0x20 ADD PUSH1 0x2 DUP3 ADD PUSH1 0x10 SWAP1 SLOAD SWAP1 PUSH2 0x100 EXP SWAP1 DIV PUSH16 0xFFFFFFFFFFFFFFFFFFFFFFFFFFFFFFFF AND PUSH16 0xFFFFFFFFFFFFFFFFFFFFFFFFFFFFFFFF AND PUSH16 0xFFFFFFFFFFFFFFFFFFFFFFFFFFFFFFFF AND DUP2 MSTORE PUSH1 0x20 ADD PUSH1 0x3 DUP3 ADD PUSH0 SWAP1 SLOAD SWAP1 PUSH2 0x100 EXP SWAP1 DIV PUSH16 0xFFFFFFFFFFFFFFFFFFFFFFFFFFFFFFFF AND PUSH16 0xFFFFFFFFFFFFFFFFFFFFFFFFFFFFFFFF AND PUSH16 0xFFFFFFFFFFFFFFFFFFFFFFFFFFFFFFFF AND DUP2 MSTORE PUSH1 0x20 ADD PUSH1 0x3 DUP3 ADD PUSH1 0x10 SWAP1 SLOAD SWAP1 PUSH2 0x100 EXP SWAP1 DIV PUSH5 0xFFFFFFFFFF AND PUSH5 0xFFFFFFFFFF AND PUSH5 0xFFFFFFFFFF AND DUP2 MSTORE PUSH1 0x20 ADD PUSH1 0x3 DUP3 ADD PUSH1 0x15 SWAP1 SLOAD SWAP1 PUSH2 0x100 EXP SWAP1 DIV PUSH2 0xFFFF AND PUSH2 0xFFFF AND PUSH2 0xFFFF AND DUP2 MSTORE PUSH1 0x20 ADD PUSH1 0x4 DUP3 ADD PUSH0 SWAP1 SLOAD SWAP1 PUSH2 0x100 EXP SWAP1 DIV PUSH20 0xFFFFFFFFFFFFFFFFFFFFFFFFFFFFFFFFFFFFFFFF AND PUSH20 0xFFFFFFFFFFFFFFFFFFFFFFFFFFFFFFFFFFFFFFFF AND PUSH20 0xFFFFFFFFFFFFFFFFFFFFFFFFFFFFFFFFFFFFFFFF AND DUP2 MSTORE PUSH1 0x20 ADD PUSH1 0x5 DUP3 ADD PUSH0 SWAP1 SLOAD SWAP1 PUSH2 0x100 EXP SWAP1 DIV PUSH20 0xFFFFFFFFFFFFFFFFFFFFFFFFFFFFFFFFFFFFFFFF AND PUSH20 0xFFFFFFFFFFFFFFFFFFFFFFFFFFFFFFFFFFFFFFFF AND PUSH20 0xFFFFFFFFFFFFFFFFFFFFFFFFFFFFFFFFFFFFFFFF AND DUP2 MSTORE PUSH1 0x20 ADD PUSH1 0x6 DUP3 ADD PUSH0 SWAP1 SLOAD SWAP1 PUSH2 0x100 EXP SWAP1 DIV PUSH20 0xFFFFFFFFFFFFFFFFFFFFFFFFFFFFFFFFFFFFFFFF AND PUSH20 0xFFFFFFFFFFFFFFFFFFFFFFFFFFFFFFFFFFFFFFFF AND PUSH20 0xFFFFFFFFFFFFFFFFFFFFFFFFFFFFFFFFFFFFFFFF AND DUP2 MSTORE PUSH1 0x20 ADD PUSH1 0x7 DUP3 ADD PUSH0 SWAP1 SLOAD SWAP1 PUSH2 0x100 EXP SWAP1 DIV PUSH20 0xFFFFFFFFFFFFFFFFFFFFFFFFFFFFFFFFFFFFFFFF AND PUSH20 0xFFFFFFFFFFFFFFFFFFFFFFFFFFFFFFFFFFFFFFFF AND PUSH20 0xFFFFFFFFFFFFFFFFFFFFFFFFFFFFFFFFFFFFFFFF AND DUP2 MSTORE PUSH1 0x20 ADD PUSH1 0x8 DUP3 ADD PUSH0 SWAP1 SLOAD SWAP1 PUSH2 0x100 EXP SWAP1 DIV PUSH16 0xFFFFFFFFFFFFFFFFFFFFFFFFFFFFFFFF AND PUSH16 0xFFFFFFFFFFFFFFFFFFFFFFFFFFFFFFFF AND PUSH16 0xFFFFFFFFFFFFFFFFFFFFFFFFFFFFFFFF AND DUP2 MSTORE PUSH1 0x20 ADD PUSH1 0x8 DUP3 ADD PUSH1 0x10 SWAP1 SLOAD SWAP1 PUSH2 0x100 EXP SWAP1 DIV PUSH16 0xFFFFFFFFFFFFFFFFFFFFFFFFFFFFFFFF AND PUSH16 0xFFFFFFFFFFFFFFFFFFFFFFFFFFFFFFFF AND PUSH16 0xFFFFFFFFFFFFFFFFFFFFFFFFFFFFFFFF AND DUP2 MSTORE PUSH1 0x20 ADD PUSH1 0x9 DUP3 ADD PUSH0 SWAP1 SLOAD SWAP1 PUSH2 0x100 EXP SWAP1 DIV PUSH16 0xFFFFFFFFFFFFFFFFFFFFFFFFFFFFFFFF AND PUSH16 0xFFFFFFFFFFFFFFFFFFFFFFFFFFFFFFFF AND PUSH16 0xFFFFFFFFFFFFFFFFFFFFFFFFFFFFFFFF AND DUP2 MSTORE POP POP SWAP1 POP SWAP2 SWAP1 POP JUMP JUMPDEST PUSH0 PUSH2 0x199D PUSH1 0x34 PUSH0 DUP5 PUSH20 0xFFFFFFFFFFFFFFFFFFFFFFFFFFFFFFFFFFFFFFFF AND PUSH20 0xFFFFFFFFFFFFFFFFFFFFFFFFFFFFFFFFFFFFFFFF AND DUP2 MSTORE PUSH1 0x20 ADD SWAP1 DUP2 MSTORE PUSH1 0x20 ADD PUSH0 KECCAK256 PUSH2 0x453B JUMP JUMPDEST SWAP1 POP SWAP2 SWAP1 POP JUMP JUMPDEST PUSH0 DUP1 PUSH2 0x19B1 PUSH1 0x36 DUP5 PUSH2 0x4625 JUMP JUMPDEST SWAP2 POP SWAP2 POP PUSH2 0x19BF DUP3 DUP3 PUSH2 0x34FB JUMP JUMPDEST POP POP POP JUMP JUMPDEST PUSH0 PUSH1 0x40 MLOAD DUP1 PUSH1 0xE0 ADD PUSH1 0x40 MSTORE DUP1 DUP9 PUSH20 0xFFFFFFFFFFFFFFFFFFFFFFFFFFFFFFFFFFFFFFFF AND DUP2 MSTORE PUSH1 0x20 ADD DUP8 PUSH20 0xFFFFFFFFFFFFFFFFFFFFFFFFFFFFFFFFFFFFFFFF AND DUP2 MSTORE PUSH1 0x20 ADD DUP7 DUP2 MSTORE PUSH1 0x20 ADD DUP6 DUP6 DUP1 DUP1 PUSH1 0x1F ADD PUSH1 0x20 DUP1 SWAP2 DIV MUL PUSH1 0x20 ADD PUSH1 0x40 MLOAD SWAP1 DUP2 ADD PUSH1 0x40 MSTORE DUP1 SWAP4 SWAP3 SWAP2 SWAP1 DUP2 DUP2 MSTORE PUSH1 0x20 ADD DUP4 DUP4 DUP1 DUP3 DUP5 CALLDATACOPY PUSH0 DUP2 DUP5 ADD MSTORE PUSH1 0x1F NOT PUSH1 0x1F DUP3 ADD AND SWAP1 POP DUP1 DUP4 ADD SWAP3 POP POP POP POP POP POP POP DUP2 MSTORE PUSH1 0x20 ADD DUP4 PUSH2 0xFFFF AND DUP2 MSTORE PUSH1 0x20 ADD PUSH1 0x3A PUSH1 0x10 SWAP1 SLOAD SWAP1 PUSH2 0x100 EXP SWAP1 DIV PUSH16 0xFFFFFFFFFFFFFFFFFFFFFFFFFFFFFFFF AND PUSH16 0xFFFFFFFFFFFFFFFFFFFFFFFFFFFFFFFF AND DUP2 MSTORE PUSH1 0x20 ADD PUSH1 0x3A PUSH0 SWAP1 SLOAD SWAP1 PUSH2 0x100 EXP SWAP1 DIV PUSH16 0xFFFFFFFFFFFFFFFFFFFFFFFFFFFFFFFF AND PUSH16 0xFFFFFFFFFFFFFFFFFFFFFFFFFFFFFFFF AND DUP2 MSTORE POP SWAP1 POP PUSH20 0x0 PUSH4 0xA1FE0E8D PUSH1 0x34 PUSH0 DUP10 PUSH20 0xFFFFFFFFFFFFFFFFFFFFFFFFFFFFFFFFFFFFFFFF AND PUSH20 0xFFFFFFFFFFFFFFFFFFFFFFFFFFFFFFFFFFFFFFFF AND DUP2 MSTORE PUSH1 0x20 ADD SWAP1 DUP2 MSTORE PUSH1 0x20 ADD PUSH0 KECCAK256 DUP4 PUSH1 0x40 MLOAD DUP4 PUSH4 0xFFFFFFFF AND PUSH1 0xE0 SHL DUP2 MSTORE PUSH1 0x4 ADD PUSH2 0x1B41 SWAP3 SWAP2 SWAP1 PUSH2 0x6D81 JUMP JUMPDEST PUSH0 PUSH1 0x40 MLOAD DUP1 DUP4 SUB DUP2 DUP7 DUP1 EXTCODESIZE ISZERO DUP1 ISZERO PUSH2 0x1B57 JUMPI PUSH0 DUP1 REVERT JUMPDEST POP GAS DELEGATECALL ISZERO DUP1 ISZERO PUSH2 0x1B69 JUMPI RETURNDATASIZE PUSH0 DUP1 RETURNDATACOPY RETURNDATASIZE PUSH0 REVERT JUMPDEST POP POP POP POP POP POP POP POP POP POP POP JUMP JUMPDEST PUSH2 0x1B7E PUSH2 0x525D JUMP JUMPDEST PUSH1 0x35 PUSH0 DUP4 PUSH20 0xFFFFFFFFFFFFFFFFFFFFFFFFFFFFFFFFFFFFFFFF AND PUSH20 0xFFFFFFFFFFFFFFFFFFFFFFFFFFFFFFFFFFFFFFFF AND DUP2 MSTORE PUSH1 0x20 ADD SWAP1 DUP2 MSTORE PUSH1 0x20 ADD PUSH0 KECCAK256 PUSH1 0x40 MLOAD DUP1 PUSH1 0x20 ADD PUSH1 0x40 MSTORE SWAP1 DUP2 PUSH0 DUP3 ADD SLOAD DUP2 MSTORE POP POP SWAP1 POP SWAP2 SWAP1 POP JUMP JUMPDEST PUSH0 DUP1 PUSH2 0x1BE3 PUSH1 0x36 DUP5 PUSH2 0x468E JUMP JUMPDEST SWAP2 POP SWAP2 POP PUSH2 0x1BF1 DUP3 DUP3 PUSH2 0x1D9B JUMP JUMPDEST POP POP POP JUMP JUMPDEST PUSH0 PUSH1 0x36 PUSH0 DUP4 PUSH2 0xFFFF AND DUP2 MSTORE PUSH1 0x20 ADD SWAP1 DUP2 MSTORE PUSH1 0x20 ADD PUSH0 KECCAK256 PUSH0 SWAP1 SLOAD SWAP1 PUSH2 0x100 EXP SWAP1 DIV PUSH20 0xFFFFFFFFFFFFFFFFFFFFFFFFFFFFFFFFFFFFFFFF AND SWAP1 POP SWAP2 SWAP1 POP JUMP JUMPDEST PUSH0 DUP1 PUSH0 DUP1 PUSH2 0x1C42 PUSH1 0x36 DUP7 PUSH2 0x46E4 JUMP JUMPDEST SWAP3 POP SWAP3 POP SWAP3 POP PUSH2 0x1C54 DUP4 DUP4 DUP4 CALLER PUSH2 0x1C5E JUMP JUMPDEST SWAP4 POP POP POP POP SWAP2 SWAP1 POP JUMP JUMPDEST PUSH0 PUSH20 0x0 PUSH4 0x40E95DE6 PUSH1 0x34 PUSH1 0x36 PUSH1 0x35 PUSH0 DUP8 PUSH20 0xFFFFFFFFFFFFFFFFFFFFFFFFFFFFFFFFFFFFFFFF AND PUSH20 0xFFFFFFFFFFFFFFFFFFFFFFFFFFFFFFFFFFFFFFFF AND DUP2 MSTORE PUSH1 0x20 ADD SWAP1 DUP2 MSTORE PUSH1 0x20 ADD PUSH0 KECCAK256 PUSH1 0x40 MLOAD DUP1 PUSH1 0xA0 ADD PUSH1 0x40 MSTORE DUP1 DUP12 PUSH20 0xFFFFFFFFFFFFFFFFFFFFFFFFFFFFFFFFFFFFFFFF AND DUP2 MSTORE PUSH1 0x20 ADD DUP11 DUP2 MSTORE PUSH1 0x20 ADD DUP10 PUSH1 0x2 DUP2 GT ISZERO PUSH2 0x1CFA JUMPI PUSH2 0x1CF9 PUSH2 0x6B33 JUMP JUMPDEST JUMPDEST PUSH1 0x2 DUP2 GT ISZERO PUSH2 0x1D0C JUMPI PUSH2 0x1D0B PUSH2 0x6B33 JUMP JUMPDEST JUMPDEST DUP2 MSTORE PUSH1 0x20 ADD DUP9 PUSH20 0xFFFFFFFFFFFFFFFFFFFFFFFFFFFFFFFFFFFFFFFF AND DUP2 MSTORE PUSH1 0x20 ADD PUSH0 ISZERO ISZERO DUP2 MSTORE POP PUSH1 0x40 MLOAD DUP6 PUSH4 0xFFFFFFFF AND PUSH1 0xE0 SHL DUP2 MSTORE PUSH1 0x4 ADD PUSH2 0x1D52 SWAP5 SWAP4 SWAP3 SWAP2 SWAP1 PUSH2 0x6C0C JUMP JUMPDEST PUSH1 0x20 PUSH1 0x40 MLOAD DUP1 DUP4 SUB DUP2 DUP7 GAS DELEGATECALL ISZERO DUP1 ISZERO PUSH2 0x1D6D JUMPI RETURNDATASIZE PUSH0 DUP1 RETURNDATACOPY RETURNDATASIZE PUSH0 REVERT JUMPDEST POP POP POP POP PUSH1 0x40 MLOAD RETURNDATASIZE PUSH1 0x1F NOT PUSH1 0x1F DUP3 ADD AND DUP3 ADD DUP1 PUSH1 0x40 MSTORE POP DUP2 ADD SWAP1 PUSH2 0x1D91 SWAP2 SWAP1 PUSH2 0x6C64 JUMP JUMPDEST SWAP1 POP SWAP5 SWAP4 POP POP POP POP JUMP JUMPDEST PUSH20 0x0 PUSH4 0xBF697A26 PUSH1 0x34 PUSH1 0x36 PUSH1 0x37 PUSH1 0x35 PUSH0 CALLER PUSH20 0xFFFFFFFFFFFFFFFFFFFFFFFFFFFFFFFFFFFFFFFF AND PUSH20 0xFFFFFFFFFFFFFFFFFFFFFFFFFFFFFFFFFFFFFFFF AND DUP2 MSTORE PUSH1 0x20 ADD SWAP1 DUP2 MSTORE PUSH1 0x20 ADD PUSH0 KECCAK256 DUP8 DUP8 PUSH1 0x3B PUSH1 0x8 SWAP1 SLOAD SWAP1 PUSH2 0x100 EXP SWAP1 DIV PUSH2 0xFFFF AND PUSH32 0x0 PUSH20 0xFFFFFFFFFFFFFFFFFFFFFFFFFFFFFFFFFFFFFFFF AND PUSH4 0xFCA513A8 PUSH1 0x40 MLOAD DUP2 PUSH4 0xFFFFFFFF AND PUSH1 0xE0 SHL DUP2 MSTORE PUSH1 0x4 ADD PUSH1 0x20 PUSH1 0x40 MLOAD DUP1 DUP4 SUB DUP2 DUP7 GAS STATICCALL ISZERO DUP1 ISZERO PUSH2 0x1E74 JUMPI RETURNDATASIZE PUSH0 DUP1 RETURNDATACOPY RETURNDATASIZE PUSH0 REVERT JUMPDEST POP POP POP POP PUSH1 0x40 MLOAD RETURNDATASIZE PUSH1 0x1F NOT PUSH1 0x1F DUP3 ADD AND DUP3 ADD DUP1 PUSH1 0x40 MSTORE POP DUP2 ADD SWAP1 PUSH2 0x1E98 SWAP2 SWAP1 PUSH2 0x6763 JUMP JUMPDEST PUSH1 0x38 PUSH0 CALLER PUSH20 0xFFFFFFFFFFFFFFFFFFFFFFFFFFFFFFFFFFFFFFFF AND PUSH20 0xFFFFFFFFFFFFFFFFFFFFFFFFFFFFFFFFFFFFFFFF AND DUP2 MSTORE PUSH1 0x20 ADD SWAP1 DUP2 MSTORE PUSH1 0x20 ADD PUSH0 KECCAK256 PUSH0 SWAP1 SLOAD SWAP1 PUSH2 0x100 EXP SWAP1 DIV PUSH1 0xFF AND PUSH1 0x40 MLOAD DUP11 PUSH4 0xFFFFFFFF AND PUSH1 0xE0 SHL DUP2 MSTORE PUSH1 0x4 ADD PUSH2 0x1F06 SWAP10 SWAP9 SWAP8 SWAP7 SWAP6 SWAP5 SWAP4 SWAP3 SWAP2 SWAP1 PUSH2 0x6E0C JUMP JUMPDEST PUSH0 PUSH1 0x40 MLOAD DUP1 DUP4 SUB DUP2 DUP7 DUP1 EXTCODESIZE ISZERO DUP1 ISZERO PUSH2 0x1F1C JUMPI PUSH0 DUP1 REVERT JUMPDEST POP GAS DELEGATECALL ISZERO DUP1 ISZERO PUSH2 0x1F2E JUMPI RETURNDATASIZE PUSH0 DUP1 RETURNDATACOPY RETURNDATASIZE PUSH0 REVERT JUMPDEST POP POP POP POP POP POP JUMP JUMPDEST PUSH20 0x0 PUSH4 0x1913F161 PUSH1 0x34 PUSH1 0x36 PUSH1 0x35 PUSH0 DUP8 PUSH20 0xFFFFFFFFFFFFFFFFFFFFFFFFFFFFFFFFFFFFFFFF AND PUSH20 0xFFFFFFFFFFFFFFFFFFFFFFFFFFFFFFFFFFFFFFFF AND DUP2 MSTORE PUSH1 0x20 ADD SWAP1 DUP2 MSTORE PUSH1 0x20 ADD PUSH0 KECCAK256 PUSH1 0x40 MLOAD DUP1 PUSH1 0x80 ADD PUSH1 0x40 MSTORE DUP1 DUP11 PUSH20 0xFFFFFFFFFFFFFFFFFFFFFFFFFFFFFFFFFFFFFFFF AND DUP2 MSTORE PUSH1 0x20 ADD DUP10 DUP2 MSTORE PUSH1 0x20 ADD DUP9 PUSH20 0xFFFFFFFFFFFFFFFFFFFFFFFFFFFFFFFFFFFFFFFF AND DUP2 MSTORE PUSH1 0x20 ADD DUP8 PUSH2 0xFFFF AND DUP2 MSTORE POP PUSH1 0x40 MLOAD DUP6 PUSH4 0xFFFFFFFF AND PUSH1 0xE0 SHL DUP2 MSTORE PUSH1 0x4 ADD PUSH2 0x2001 SWAP5 SWAP4 SWAP3 SWAP2 SWAP1 PUSH2 0x69E1 JUMP JUMPDEST PUSH0 PUSH1 0x40 MLOAD DUP1 DUP4 SUB DUP2 DUP7 DUP1 EXTCODESIZE ISZERO DUP1 ISZERO PUSH2 0x2017 JUMPI PUSH0 DUP1 REVERT JUMPDEST POP GAS DELEGATECALL ISZERO DUP1 ISZERO PUSH2 0x2029 JUMPI RETURNDATASIZE PUSH0 DUP1 RETURNDATACOPY RETURNDATASIZE PUSH0 REVERT JUMPDEST POP POP POP POP POP POP POP POP JUMP JUMPDEST PUSH2 0x203B PUSH2 0x43B0 JUMP JUMPDEST PUSH20 0x0 PUSH4 0x9CF57023 PUSH1 0x34 PUSH1 0x36 DUP5 PUSH1 0x40 MLOAD DUP5 PUSH4 0xFFFFFFFF AND PUSH1 0xE0 SHL DUP2 MSTORE PUSH1 0x4 ADD PUSH2 0x2078 SWAP4 SWAP3 SWAP2 SWAP1 PUSH2 0x6E97 JUMP JUMPDEST PUSH0 PUSH1 0x40 MLOAD DUP1 DUP4 SUB DUP2 DUP7 DUP1 EXTCODESIZE ISZERO DUP1 ISZERO PUSH2 0x208E JUMPI PUSH0 DUP1 REVERT JUMPDEST POP GAS DELEGATECALL ISZERO DUP1 ISZERO PUSH2 0x20A0 JUMPI RETURNDATASIZE PUSH0 DUP1 RETURNDATACOPY RETURNDATASIZE PUSH0 REVERT JUMPDEST POP POP POP POP POP JUMP JUMPDEST PUSH0 DUP1 PUSH0 DUP1 PUSH0 PUSH2 0x20B7 PUSH1 0x36 DUP10 PUSH2 0x4795 JUMP JUMPDEST SWAP5 POP SWAP5 POP SWAP5 POP SWAP5 POP SWAP5 POP PUSH2 0x20D1 DUP6 DUP6 CALLER DUP7 DUP7 DUP7 DUP14 DUP14 PUSH2 0xDDF JUMP JUMPDEST POP POP POP POP POP POP POP POP JUMP JUMPDEST PUSH0 PUSH20 0x0 PUSH4 0x186DEA44 PUSH1 0x34 PUSH1 0x36 PUSH1 0x37 PUSH1 0x35 PUSH0 CALLER PUSH20 0xFFFFFFFFFFFFFFFFFFFFFFFFFFFFFFFFFFFFFFFF AND PUSH20 0xFFFFFFFFFFFFFFFFFFFFFFFFFFFFFFFFFFFFFFFF AND DUP2 MSTORE PUSH1 0x20 ADD SWAP1 DUP2 MSTORE PUSH1 0x20 ADD PUSH0 KECCAK256 PUSH1 0x40 MLOAD DUP1 PUSH1 0xC0 ADD PUSH1 0x40 MSTORE DUP1 DUP12 PUSH20 0xFFFFFFFFFFFFFFFFFFFFFFFFFFFFFFFFFFFFFFFF AND DUP2 MSTORE PUSH1 0x20 ADD DUP11 DUP2 MSTORE PUSH1 0x20 ADD DUP10 PUSH20 0xFFFFFFFFFFFFFFFFFFFFFFFFFFFFFFFFFFFFFFFF AND DUP2 MSTORE PUSH1 0x20 ADD PUSH1 0x3B PUSH1 0x8 SWAP1 SLOAD SWAP1 PUSH2 0x100 EXP SWAP1 DIV PUSH2 0xFFFF AND PUSH2 0xFFFF AND DUP2 MSTORE PUSH1 0x20 ADD PUSH32 0x0 PUSH20 0xFFFFFFFFFFFFFFFFFFFFFFFFFFFFFFFFFFFFFFFF AND PUSH4 0xFCA513A8 PUSH1 0x40 MLOAD DUP2 PUSH4 0xFFFFFFFF AND PUSH1 0xE0 SHL DUP2 MSTORE PUSH1 0x4 ADD PUSH1 0x20 PUSH1 0x40 MLOAD DUP1 DUP4 SUB DUP2 DUP7 GAS STATICCALL ISZERO DUP1 ISZERO PUSH2 0x2205 JUMPI RETURNDATASIZE PUSH0 DUP1 RETURNDATACOPY RETURNDATASIZE PUSH0 REVERT JUMPDEST POP POP POP POP PUSH1 0x40 MLOAD RETURNDATASIZE PUSH1 0x1F NOT PUSH1 0x1F DUP3 ADD AND DUP3 ADD DUP1 PUSH1 0x40 MSTORE POP DUP2 ADD SWAP1 PUSH2 0x2229 SWAP2 SWAP1 PUSH2 0x6763 JUMP JUMPDEST PUSH20 0xFFFFFFFFFFFFFFFFFFFFFFFFFFFFFFFFFFFFFFFF AND DUP2 MSTORE PUSH1 0x20 ADD PUSH1 0x38 PUSH0 CALLER PUSH20 0xFFFFFFFFFFFFFFFFFFFFFFFFFFFFFFFFFFFFFFFF AND PUSH20 0xFFFFFFFFFFFFFFFFFFFFFFFFFFFFFFFFFFFFFFFF AND DUP2 MSTORE PUSH1 0x20 ADD SWAP1 DUP2 MSTORE PUSH1 0x20 ADD PUSH0 KECCAK256 PUSH0 SWAP1 SLOAD SWAP1 PUSH2 0x100 EXP SWAP1 DIV PUSH1 0xFF AND PUSH1 0xFF AND DUP2 MSTORE POP PUSH1 0x40 MLOAD DUP7 PUSH4 0xFFFFFFFF AND PUSH1 0xE0 SHL DUP2 MSTORE PUSH1 0x4 ADD PUSH2 0x22B4 SWAP6 SWAP5 SWAP4 SWAP3 SWAP2 SWAP1 PUSH2 0x6F45 JUMP JUMPDEST PUSH1 0x20 PUSH1 0x40 MLOAD DUP1 DUP4 SUB DUP2 DUP7 GAS DELEGATECALL ISZERO DUP1 ISZERO PUSH2 0x22CF JUMPI RETURNDATASIZE PUSH0 DUP1 RETURNDATACOPY RETURNDATASIZE PUSH0 REVERT JUMPDEST POP POP POP POP PUSH1 0x40 MLOAD RETURNDATASIZE PUSH1 0x1F NOT PUSH1 0x1F DUP3 ADD AND DUP3 ADD DUP1 PUSH1 0x40 MSTORE POP DUP2 ADD SWAP1 PUSH2 0x22F3 SWAP2 SWAP1 PUSH2 0x6C64 JUMP JUMPDEST SWAP1 POP SWAP4 SWAP3 POP POP POP JUMP JUMPDEST PUSH2 0x2304 PUSH2 0x47E2 JUMP JUMPDEST PUSH20 0x0 PUSH4 0x413C86F PUSH1 0x34 PUSH1 0x36 PUSH1 0x35 PUSH0 DUP8 PUSH20 0xFFFFFFFFFFFFFFFFFFFFFFFFFFFFFFFFFFFFFFFF AND PUSH20 0xFFFFFFFFFFFFFFFFFFFFFFFFFFFFFFFFFFFFFFFF AND DUP2 MSTORE PUSH1 0x20 ADD SWAP1 DUP2 MSTORE PUSH1 0x20 ADD PUSH0 KECCAK256 DUP9 DUP9 DUP9 DUP9 PUSH1 0x40 MLOAD DUP9 PUSH4 0xFFFFFFFF AND PUSH1 0xE0 SHL DUP2 MSTORE PUSH1 0x4 ADD PUSH2 0x2385 SWAP8 SWAP7 SWAP6 SWAP5 SWAP4 SWAP3 SWAP2 SWAP1 PUSH2 0x6FB5 JUMP JUMPDEST PUSH0 PUSH1 0x40 MLOAD DUP1 DUP4 SUB DUP2 DUP7 DUP1 EXTCODESIZE ISZERO DUP1 ISZERO PUSH2 0x239B JUMPI PUSH0 DUP1 REVERT JUMPDEST POP GAS DELEGATECALL ISZERO DUP1 ISZERO PUSH2 0x23AD JUMPI RETURNDATASIZE PUSH0 DUP1 RETURNDATACOPY RETURNDATASIZE PUSH0 REVERT JUMPDEST POP POP POP POP POP POP POP POP JUMP JUMPDEST PUSH0 PUSH1 0x3A PUSH1 0x10 SWAP1 SLOAD SWAP1 PUSH2 0x100 EXP SWAP1 DIV PUSH16 0xFFFFFFFFFFFFFFFFFFFFFFFFFFFFFFFF AND SWAP1 POP SWAP1 JUMP JUMPDEST PUSH2 0x23E4 PUSH2 0x526F JUMP JUMPDEST PUSH1 0x37 PUSH0 DUP4 PUSH1 0xFF AND PUSH1 0xFF AND DUP2 MSTORE PUSH1 0x20 ADD SWAP1 DUP2 MSTORE PUSH1 0x20 ADD PUSH0 KECCAK256 PUSH1 0x40 MLOAD DUP1 PUSH1 0xA0 ADD PUSH1 0x40 MSTORE SWAP1 DUP2 PUSH0 DUP3 ADD PUSH0 SWAP1 SLOAD SWAP1 PUSH2 0x100 EXP SWAP1 DIV PUSH2 0xFFFF AND PUSH2 0xFFFF AND PUSH2 0xFFFF AND DUP2 MSTORE PUSH1 0x20 ADD PUSH0 DUP3 ADD PUSH1 0x2 SWAP1 SLOAD SWAP1 PUSH2 0x100 EXP SWAP1 DIV PUSH2 0xFFFF AND PUSH2 0xFFFF AND PUSH2 0xFFFF AND DUP2 MSTORE PUSH1 0x20 ADD PUSH0 DUP3 ADD PUSH1 0x4 SWAP1 SLOAD SWAP1 PUSH2 0x100 EXP SWAP1 DIV PUSH2 0xFFFF AND PUSH2 0xFFFF AND PUSH2 0xFFFF AND DUP2 MSTORE PUSH1 0x20 ADD PUSH0 DUP3 ADD PUSH1 0x6 SWAP1 SLOAD SWAP1 PUSH2 0x100 EXP SWAP1 DIV PUSH20 0xFFFFFFFFFFFFFFFFFFFFFFFFFFFFFFFFFFFFFFFF AND PUSH20 0xFFFFFFFFFFFFFFFFFFFFFFFFFFFFFFFFFFFFFFFF AND PUSH20 0xFFFFFFFFFFFFFFFFFFFFFFFFFFFFFFFFFFFFFFFF AND DUP2 MSTORE PUSH1 0x20 ADD PUSH1 0x1 DUP3 ADD DUP1 SLOAD PUSH2 0x24C7 SWAP1 PUSH2 0x704F JUMP JUMPDEST DUP1 PUSH1 0x1F ADD PUSH1 0x20 DUP1 SWAP2 DIV MUL PUSH1 0x20 ADD PUSH1 0x40 MLOAD SWAP1 DUP2 ADD PUSH1 0x40 MSTORE DUP1 SWAP3 SWAP2 SWAP1 DUP2 DUP2 MSTORE PUSH1 0x20 ADD DUP3 DUP1 SLOAD PUSH2 0x24F3 SWAP1 PUSH2 0x704F JUMP JUMPDEST DUP1 ISZERO PUSH2 0x253E JUMPI DUP1 PUSH1 0x1F LT PUSH2 0x2515 JUMPI PUSH2 0x100 DUP1 DUP4 SLOAD DIV MUL DUP4 MSTORE SWAP2 PUSH1 0x20 ADD SWAP2 PUSH2 0x253E JUMP JUMPDEST DUP3 ADD SWAP2 SWAP1 PUSH0 MSTORE PUSH1 0x20 PUSH0 KECCAK256 SWAP1 JUMPDEST DUP2 SLOAD DUP2 MSTORE SWAP1 PUSH1 0x1 ADD SWAP1 PUSH1 0x20 ADD DUP1 DUP4 GT PUSH2 0x2521 JUMPI DUP3 SWAP1 SUB PUSH1 0x1F AND DUP3 ADD SWAP2 JUMPDEST POP POP POP POP POP DUP2 MSTORE POP POP SWAP1 POP SWAP2 SWAP1 POP JUMP JUMPDEST PUSH2 0x2556 PUSH2 0x43B0 JUMP JUMPDEST PUSH20 0x0 PUSH4 0x69FC1BDF PUSH1 0x34 PUSH1 0x36 PUSH1 0x40 MLOAD DUP1 PUSH1 0xE0 ADD PUSH1 0x40 MSTORE DUP1 DUP11 PUSH20 0xFFFFFFFFFFFFFFFFFFFFFFFFFFFFFFFFFFFFFFFF AND DUP2 MSTORE PUSH1 0x20 ADD DUP10 PUSH20 0xFFFFFFFFFFFFFFFFFFFFFFFFFFFFFFFFFFFFFFFF AND DUP2 MSTORE PUSH1 0x20 ADD DUP9 PUSH20 0xFFFFFFFFFFFFFFFFFFFFFFFFFFFFFFFFFFFFFFFF AND DUP2 MSTORE PUSH1 0x20 ADD DUP8 PUSH20 0xFFFFFFFFFFFFFFFFFFFFFFFFFFFFFFFFFFFFFFFF AND DUP2 MSTORE PUSH1 0x20 ADD DUP7 PUSH20 0xFFFFFFFFFFFFFFFFFFFFFFFFFFFFFFFFFFFFFFFF AND DUP2 MSTORE PUSH1 0x20 ADD PUSH1 0x3B PUSH1 0x8 SWAP1 SLOAD SWAP1 PUSH2 0x100 EXP SWAP1 DIV PUSH2 0xFFFF AND PUSH2 0xFFFF AND DUP2 MSTORE PUSH1 0x20 ADD PUSH2 0x262D PUSH2 0x4377 JUMP JUMPDEST PUSH2 0xFFFF AND DUP2 MSTORE POP PUSH1 0x40 MLOAD DUP5 PUSH4 0xFFFFFFFF AND PUSH1 0xE0 SHL DUP2 MSTORE PUSH1 0x4 ADD PUSH2 0x2652 SWAP4 SWAP3 SWAP2 SWAP1 PUSH2 0x710B JUMP JUMPDEST PUSH1 0x20 PUSH1 0x40 MLOAD DUP1 DUP4 SUB DUP2 DUP7 GAS DELEGATECALL ISZERO DUP1 ISZERO PUSH2 0x266D JUMPI RETURNDATASIZE PUSH0 DUP1 RETURNDATACOPY RETURNDATASIZE PUSH0 REVERT JUMPDEST POP POP POP POP PUSH1 0x40 MLOAD RETURNDATASIZE PUSH1 0x1F NOT PUSH1 0x1F DUP3 ADD AND DUP3 ADD DUP1 PUSH1 0x40 MSTORE POP DUP2 ADD SWAP1 PUSH2 0x2691 SWAP2 SWAP1 PUSH2 0x7155 JUMP JUMPDEST ISZERO PUSH2 0x26D2 JUMPI PUSH1 0x3B PUSH1 0x8 DUP2 DUP2 SWAP1 SLOAD SWAP1 PUSH2 0x100 EXP SWAP1 DIV PUSH2 0xFFFF AND DUP1 SWAP3 SWAP2 SWAP1 PUSH2 0x26B6 SWAP1 PUSH2 0x71AD JUMP JUMPDEST SWAP2 SWAP1 PUSH2 0x100 EXP DUP2 SLOAD DUP2 PUSH2 0xFFFF MUL NOT AND SWAP1 DUP4 PUSH2 0xFFFF AND MUL OR SWAP1 SSTORE POP POP JUMPDEST POP POP POP POP POP JUMP JUMPDEST PUSH0 DUP1 PUSH0 PUSH2 0x26E7 PUSH1 0x36 DUP6 PUSH2 0x4960 JUMP JUMPDEST SWAP2 POP SWAP2 POP PUSH2 0x26F6 DUP3 DUP3 CALLER PUSH2 0x20DB JUMP JUMPDEST SWAP3 POP POP POP SWAP2 SWAP1 POP JUMP JUMPDEST PUSH0 DUP1 PUSH0 DUP1 PUSH0 DUP1 PUSH2 0x2710 PUSH1 0x36 DUP11 PUSH2 0x4A02 JUMP JUMPDEST SWAP5 POP SWAP5 POP SWAP5 POP SWAP5 POP SWAP5 POP PUSH2 0x272A DUP6 DUP6 DUP6 CALLER DUP7 DUP7 DUP15 DUP15 PUSH2 0x3F62 JUMP JUMPDEST SWAP6 POP POP POP POP POP POP SWAP4 SWAP3 POP POP POP JUMP JUMPDEST PUSH20 0x0 PUSH4 0xEAC4D703 PUSH1 0x34 PUSH0 DUP6 PUSH20 0xFFFFFFFFFFFFFFFFFFFFFFFFFFFFFFFFFFFFFFFF AND PUSH20 0xFFFFFFFFFFFFFFFFFFFFFFFFFFFFFFFFFFFFFFFF AND DUP2 MSTORE PUSH1 0x20 ADD SWAP1 DUP2 MSTORE PUSH1 0x20 ADD PUSH0 KECCAK256 PUSH1 0x35 PUSH0 CALLER PUSH20 0xFFFFFFFFFFFFFFFFFFFFFFFFFFFFFFFFFFFFFFFF AND PUSH20 0xFFFFFFFFFFFFFFFFFFFFFFFFFFFFFFFFFFFFFFFF AND DUP2 MSTORE PUSH1 0x20 ADD SWAP1 DUP2 MSTORE PUSH1 0x20 ADD PUSH0 KECCAK256 DUP6 DUP6 PUSH1 0x2 DUP2 GT ISZERO PUSH2 0x27E0 JUMPI PUSH2 0x27DF PUSH2 0x6B33 JUMP JUMPDEST JUMPDEST PUSH1 0x40 MLOAD DUP6 PUSH4 0xFFFFFFFF AND PUSH1 0xE0 SHL DUP2 MSTORE PUSH1 0x4 ADD PUSH2 0x27FF SWAP5 SWAP4 SWAP3 SWAP2 SWAP1 PUSH2 0x71E5 JUMP JUMPDEST PUSH0 PUSH1 0x40 MLOAD DUP1 DUP4 SUB DUP2 DUP7 DUP1 EXTCODESIZE ISZERO DUP1 ISZERO PUSH2 0x2815 JUMPI PUSH0 DUP1 REVERT JUMPDEST POP GAS DELEGATECALL ISZERO DUP1 ISZERO PUSH2 0x2827 JUMPI RETURNDATASIZE PUSH0 DUP1 RETURNDATACOPY RETURNDATASIZE PUSH0 REVERT JUMPDEST POP POP POP POP POP POP JUMP JUMPDEST PUSH20 0x0 PUSH4 0x48C2CA8C PUSH1 0x34 DUP5 DUP5 PUSH1 0x40 MLOAD DUP5 PUSH4 0xFFFFFFFF AND PUSH1 0xE0 SHL DUP2 MSTORE PUSH1 0x4 ADD PUSH2 0x286B SWAP4 SWAP3 SWAP2 SWAP1 PUSH2 0x72D5 JUMP JUMPDEST PUSH0 PUSH1 0x40 MLOAD DUP1 DUP4 SUB DUP2 DUP7 DUP1 EXTCODESIZE ISZERO DUP1 ISZERO PUSH2 0x2881 JUMPI PUSH0 DUP1 REVERT JUMPDEST POP GAS DELEGATECALL ISZERO DUP1 ISZERO PUSH2 0x2893 JUMPI RETURNDATASIZE PUSH0 DUP1 RETURNDATACOPY RETURNDATASIZE PUSH0 REVERT JUMPDEST POP POP POP POP POP POP JUMP JUMPDEST PUSH20 0x0 PUSH4 0x1E6473F9 PUSH1 0x34 PUSH1 0x36 PUSH1 0x37 PUSH1 0x35 PUSH0 DUP8 PUSH20 0xFFFFFFFFFFFFFFFFFFFFFFFFFFFFFFFFFFFFFFFF AND PUSH20 0xFFFFFFFFFFFFFFFFFFFFFFFFFFFFFFFFFFFFFFFF AND DUP2 MSTORE PUSH1 0x20 ADD SWAP1 DUP2 MSTORE PUSH1 0x20 ADD PUSH0 KECCAK256 PUSH1 0x40 MLOAD DUP1 PUSH2 0x180 ADD PUSH1 0x40 MSTORE DUP1 DUP13 PUSH20 0xFFFFFFFFFFFFFFFFFFFFFFFFFFFFFFFFFFFFFFFF AND DUP2 MSTORE PUSH1 0x20 ADD CALLER PUSH20 0xFFFFFFFFFFFFFFFFFFFFFFFFFFFFFFFFFFFFFFFF AND DUP2 MSTORE PUSH1 0x20 ADD DUP9 PUSH20 0xFFFFFFFFFFFFFFFFFFFFFFFFFFFFFFFFFFFFFFFF AND DUP2 MSTORE PUSH1 0x20 ADD DUP12 DUP2 MSTORE PUSH1 0x20 ADD DUP11 PUSH1 0x2 DUP2 GT ISZERO PUSH2 0x2971 JUMPI PUSH2 0x2970 PUSH2 0x6B33 JUMP JUMPDEST JUMPDEST PUSH1 0x2 DUP2 GT ISZERO PUSH2 0x2983 JUMPI PUSH2 0x2982 PUSH2 0x6B33 JUMP JUMPDEST JUMPDEST DUP2 MSTORE PUSH1 0x20 ADD DUP10 PUSH2 0xFFFF AND DUP2 MSTORE PUSH1 0x20 ADD PUSH1 0x1 ISZERO ISZERO DUP2 MSTORE PUSH1 0x20 ADD PUSH1 0x3B PUSH0 SWAP1 SLOAD SWAP1 PUSH2 0x100 EXP SWAP1 DIV PUSH8 0xFFFFFFFFFFFFFFFF AND PUSH8 0xFFFFFFFFFFFFFFFF AND DUP2 MSTORE PUSH1 0x20 ADD PUSH1 0x3B PUSH1 0x8 SWAP1 SLOAD SWAP1 PUSH2 0x100 EXP SWAP1 DIV PUSH2 0xFFFF AND PUSH2 0xFFFF AND DUP2 MSTORE PUSH1 0x20 ADD PUSH32 0x0 PUSH20 0xFFFFFFFFFFFFFFFFFFFFFFFFFFFFFFFFFFFFFFFF AND PUSH4 0xFCA513A8 PUSH1 0x40 MLOAD DUP2 PUSH4 0xFFFFFFFF AND PUSH1 0xE0 SHL DUP2 MSTORE PUSH1 0x4 ADD PUSH1 0x20 PUSH1 0x40 MLOAD DUP1 DUP4 SUB DUP2 DUP7 GAS STATICCALL ISZERO DUP1 ISZERO PUSH2 0x2A43 JUMPI RETURNDATASIZE PUSH0 DUP1 RETURNDATACOPY RETURNDATASIZE PUSH0 REVERT JUMPDEST POP POP POP POP PUSH1 0x40 MLOAD RETURNDATASIZE PUSH1 0x1F NOT PUSH1 0x1F DUP3 ADD AND DUP3 ADD DUP1 PUSH1 0x40 MSTORE POP DUP2 ADD SWAP1 PUSH2 0x2A67 SWAP2 SWAP1 PUSH2 0x6763 JUMP JUMPDEST PUSH20 0xFFFFFFFFFFFFFFFFFFFFFFFFFFFFFFFFFFFFFFFF AND DUP2 MSTORE PUSH1 0x20 ADD PUSH1 0x38 PUSH0 DUP11 PUSH20 0xFFFFFFFFFFFFFFFFFFFFFFFFFFFFFFFFFFFFFFFF AND PUSH20 0xFFFFFFFFFFFFFFFFFFFFFFFFFFFFFFFFFFFFFFFF AND DUP2 MSTORE PUSH1 0x20 ADD SWAP1 DUP2 MSTORE PUSH1 0x20 ADD PUSH0 KECCAK256 PUSH0 SWAP1 SLOAD SWAP1 PUSH2 0x100 EXP SWAP1 DIV PUSH1 0xFF AND PUSH1 0xFF AND DUP2 MSTORE PUSH1 0x20 ADD PUSH32 0x0 PUSH20 0xFFFFFFFFFFFFFFFFFFFFFFFFFFFFFFFFFFFFFFFF AND PUSH4 0x5EB88D3D PUSH1 0x40 MLOAD DUP2 PUSH4 0xFFFFFFFF AND PUSH1 0xE0 SHL DUP2 MSTORE PUSH1 0x4 ADD PUSH1 0x20 PUSH1 0x40 MLOAD DUP1 DUP4 SUB DUP2 DUP7 GAS STATICCALL ISZERO DUP1 ISZERO PUSH2 0x2B3D JUMPI RETURNDATASIZE PUSH0 DUP1 RETURNDATACOPY RETURNDATASIZE PUSH0 REVERT JUMPDEST POP POP POP POP PUSH1 0x40 MLOAD RETURNDATASIZE PUSH1 0x1F NOT PUSH1 0x1F DUP3 ADD AND DUP3 ADD DUP1 PUSH1 0x40 MSTORE POP DUP2 ADD SWAP1 PUSH2 0x2B61 SWAP2 SWAP1 PUSH2 0x6763 JUMP JUMPDEST PUSH20 0xFFFFFFFFFFFFFFFFFFFFFFFFFFFFFFFFFFFFFFFF AND DUP2 MSTORE POP PUSH1 0x40 MLOAD DUP7 PUSH4 0xFFFFFFFF AND PUSH1 0xE0 SHL DUP2 MSTORE PUSH1 0x4 ADD PUSH2 0x2B9A SWAP6 SWAP5 SWAP4 SWAP3 SWAP2 SWAP1 PUSH2 0x73F9 JUMP JUMPDEST PUSH0 PUSH1 0x40 MLOAD DUP1 DUP4 SUB DUP2 DUP7 DUP1 EXTCODESIZE ISZERO DUP1 ISZERO PUSH2 0x2BB0 JUMPI PUSH0 DUP1 REVERT JUMPDEST POP GAS DELEGATECALL ISZERO DUP1 ISZERO PUSH2 0x2BC2 JUMPI RETURNDATASIZE PUSH0 DUP1 RETURNDATACOPY RETURNDATASIZE PUSH0 REVERT JUMPDEST POP POP POP POP POP POP POP POP POP JUMP JUMPDEST PUSH0 PUSH1 0x40 MLOAD DUP1 PUSH2 0x1C0 ADD PUSH1 0x40 MSTORE DUP1 DUP14 PUSH20 0xFFFFFFFFFFFFFFFFFFFFFFFFFFFFFFFFFFFFFFFF AND DUP2 MSTORE PUSH1 0x20 ADD DUP13 DUP13 DUP1 DUP1 PUSH1 0x20 MUL PUSH1 0x20 ADD PUSH1 0x40 MLOAD SWAP1 DUP2 ADD PUSH1 0x40 MSTORE DUP1 SWAP4 SWAP3 SWAP2 SWAP1 DUP2 DUP2 MSTORE PUSH1 0x20 ADD DUP4 DUP4 PUSH1 0x20 MUL DUP1 DUP3 DUP5 CALLDATACOPY PUSH0 DUP2 DUP5 ADD MSTORE PUSH1 0x1F NOT PUSH1 0x1F DUP3 ADD AND SWAP1 POP DUP1 DUP4 ADD SWAP3 POP POP POP POP POP POP POP DUP2 MSTORE PUSH1 0x20 ADD DUP11 DUP11 DUP1 DUP1 PUSH1 0x20 MUL PUSH1 0x20 ADD PUSH1 0x40 MLOAD SWAP1 DUP2 ADD PUSH1 0x40 MSTORE DUP1 SWAP4 SWAP3 SWAP2 SWAP1 DUP2 DUP2 MSTORE PUSH1 0x20 ADD DUP4 DUP4 PUSH1 0x20 MUL DUP1 DUP3 DUP5 CALLDATACOPY PUSH0 DUP2 DUP5 ADD MSTORE PUSH1 0x1F NOT PUSH1 0x1F DUP3 ADD AND SWAP1 POP DUP1 DUP4 ADD SWAP3 POP POP POP POP POP POP POP DUP2 MSTORE PUSH1 0x20 ADD DUP9 DUP9 DUP1 DUP1 PUSH1 0x20 MUL PUSH1 0x20 ADD PUSH1 0x40 MLOAD SWAP1 DUP2 ADD PUSH1 0x40 MSTORE DUP1 SWAP4 SWAP3 SWAP2 SWAP1 DUP2 DUP2 MSTORE PUSH1 0x20 ADD DUP4 DUP4 PUSH1 0x20 MUL DUP1 DUP3 DUP5 CALLDATACOPY PUSH0 DUP2 DUP5 ADD MSTORE PUSH1 0x1F NOT PUSH1 0x1F DUP3 ADD AND SWAP1 POP DUP1 DUP4 ADD SWAP3 POP POP POP POP POP POP POP DUP2 MSTORE PUSH1 0x20 ADD DUP7 PUSH20 0xFFFFFFFFFFFFFFFFFFFFFFFFFFFFFFFFFFFFFFFF AND DUP2 MSTORE PUSH1 0x20 ADD DUP6 DUP6 DUP1 DUP1 PUSH1 0x1F ADD PUSH1 0x20 DUP1 SWAP2 DIV MUL PUSH1 0x20 ADD PUSH1 0x40 MLOAD SWAP1 DUP2 ADD PUSH1 0x40 MSTORE DUP1 SWAP4 SWAP3 SWAP2 SWAP1 DUP2 DUP2 MSTORE PUSH1 0x20 ADD DUP4 DUP4 DUP1 DUP3 DUP5 CALLDATACOPY PUSH0 DUP2 DUP5 ADD MSTORE PUSH1 0x1F NOT PUSH1 0x1F DUP3 ADD AND SWAP1 POP DUP1 DUP4 ADD SWAP3 POP POP POP POP POP POP POP DUP2 MSTORE PUSH1 0x20 ADD DUP4 PUSH2 0xFFFF AND DUP2 MSTORE PUSH1 0x20 ADD PUSH1 0x3A PUSH1 0x10 SWAP1 SLOAD SWAP1 PUSH2 0x100 EXP SWAP1 DIV PUSH16 0xFFFFFFFFFFFFFFFFFFFFFFFFFFFFFFFF AND PUSH16 0xFFFFFFFFFFFFFFFFFFFFFFFFFFFFFFFF AND DUP2 MSTORE PUSH1 0x20 ADD PUSH1 0x3A PUSH0 SWAP1 SLOAD SWAP1 PUSH2 0x100 EXP SWAP1 DIV PUSH16 0xFFFFFFFFFFFFFFFFFFFFFFFFFFFFFFFF AND PUSH16 0xFFFFFFFFFFFFFFFFFFFFFFFFFFFFFFFF AND DUP2 MSTORE PUSH1 0x20 ADD PUSH1 0x3B PUSH0 SWAP1 SLOAD SWAP1 PUSH2 0x100 EXP SWAP1 DIV PUSH8 0xFFFFFFFFFFFFFFFF AND PUSH8 0xFFFFFFFFFFFFFFFF AND DUP2 MSTORE PUSH1 0x20 ADD PUSH1 0x3B PUSH1 0x8 SWAP1 SLOAD SWAP1 PUSH2 0x100 EXP SWAP1 DIV PUSH2 0xFFFF AND PUSH2 0xFFFF AND DUP2 MSTORE PUSH1 0x20 ADD PUSH32 0x0 PUSH20 0xFFFFFFFFFFFFFFFFFFFFFFFFFFFFFFFFFFFFFFFF AND DUP2 MSTORE PUSH1 0x20 ADD PUSH1 0x38 PUSH0 DUP9 PUSH20 0xFFFFFFFFFFFFFFFFFFFFFFFFFFFFFFFFFFFFFFFF AND PUSH20 0xFFFFFFFFFFFFFFFFFFFFFFFFFFFFFFFFFFFFFFFF AND DUP2 MSTORE PUSH1 0x20 ADD SWAP1 DUP2 MSTORE PUSH1 0x20 ADD PUSH0 KECCAK256 PUSH0 SWAP1 SLOAD SWAP1 PUSH2 0x100 EXP SWAP1 DIV PUSH1 0xFF AND PUSH1 0xFF AND DUP2 MSTORE PUSH1 0x20 ADD PUSH32 0x0 PUSH20 0xFFFFFFFFFFFFFFFFFFFFFFFFFFFFFFFFFFFFFFFF AND PUSH4 0x707CD716 PUSH1 0x40 MLOAD DUP2 PUSH4 0xFFFFFFFF AND PUSH1 0xE0 SHL DUP2 MSTORE PUSH1 0x4 ADD PUSH1 0x20 PUSH1 0x40 MLOAD DUP1 DUP4 SUB DUP2 DUP7 GAS STATICCALL ISZERO DUP1 ISZERO PUSH2 0x2ED8 JUMPI RETURNDATASIZE PUSH0 DUP1 RETURNDATACOPY RETURNDATASIZE PUSH0 REVERT JUMPDEST POP POP POP POP PUSH1 0x40 MLOAD RETURNDATASIZE PUSH1 0x1F NOT PUSH1 0x1F DUP3 ADD AND DUP3 ADD DUP1 PUSH1 0x40 MSTORE POP DUP2 ADD SWAP1 PUSH2 0x2EFC SWAP2 SWAP1 PUSH2 0x6763 JUMP JUMPDEST PUSH20 0xFFFFFFFFFFFFFFFFFFFFFFFFFFFFFFFFFFFFFFFF AND PUSH4 0xFA50F297 CALLER PUSH1 0x40 MLOAD DUP3 PUSH4 0xFFFFFFFF AND PUSH1 0xE0 SHL DUP2 MSTORE PUSH1 0x4 ADD PUSH2 0x2F34 SWAP2 SWAP1 PUSH2 0x5AA8 JUMP JUMPDEST PUSH1 0x20 PUSH1 0x40 MLOAD DUP1 DUP4 SUB DUP2 DUP7 GAS STATICCALL ISZERO DUP1 ISZERO PUSH2 0x2F4F JUMPI RETURNDATASIZE PUSH0 DUP1 RETURNDATACOPY RETURNDATASIZE PUSH0 REVERT JUMPDEST POP POP POP POP PUSH1 0x40 MLOAD RETURNDATASIZE PUSH1 0x1F NOT PUSH1 0x1F DUP3 ADD AND DUP3 ADD DUP1 PUSH1 0x40 MSTORE POP DUP2 ADD SWAP1 PUSH2 0x2F73 SWAP2 SWAP1 PUSH2 0x7155 JUMP JUMPDEST ISZERO ISZERO DUP2 MSTORE POP SWAP1 POP PUSH20 0x0 PUSH4 0x2E7263EA PUSH1 0x34 PUSH1 0x36 PUSH1 0x37 PUSH1 0x35 PUSH0 DUP12 PUSH20 0xFFFFFFFFFFFFFFFFFFFFFFFFFFFFFFFFFFFFFFFF AND PUSH20 0xFFFFFFFFFFFFFFFFFFFFFFFFFFFFFFFFFFFFFFFF AND DUP2 MSTORE PUSH1 0x20 ADD SWAP1 DUP2 MSTORE PUSH1 0x20 ADD PUSH0 KECCAK256 DUP7 PUSH1 0x40 MLOAD DUP7 PUSH4 0xFFFFFFFF AND PUSH1 0xE0 SHL DUP2 MSTORE PUSH1 0x4 ADD PUSH2 0x2FF8 SWAP6 SWAP5 SWAP4 SWAP3 SWAP2 SWAP1 PUSH2 0x769F JUMP JUMPDEST PUSH0 PUSH1 0x40 MLOAD DUP1 DUP4 SUB DUP2 DUP7 DUP1 EXTCODESIZE ISZERO DUP1 ISZERO PUSH2 0x300E JUMPI PUSH0 DUP1 REVERT JUMPDEST POP GAS DELEGATECALL ISZERO DUP1 ISZERO PUSH2 0x3020 JUMPI RETURNDATASIZE PUSH0 DUP1 RETURNDATACOPY RETURNDATASIZE PUSH0 REVERT JUMPDEST POP POP POP POP POP POP POP POP POP POP POP POP POP POP POP POP JUMP JUMPDEST PUSH2 0x303A PUSH2 0x43B0 JUMP JUMPDEST DUP2 PUSH1 0x3A PUSH0 PUSH2 0x100 EXP DUP2 SLOAD DUP2 PUSH16 0xFFFFFFFFFFFFFFFFFFFFFFFFFFFFFFFF MUL NOT AND SWAP1 DUP4 PUSH16 0xFFFFFFFFFFFFFFFFFFFFFFFFFFFFFFFF AND MUL OR SWAP1 SSTORE POP DUP1 PUSH1 0x3A PUSH1 0x10 PUSH2 0x100 EXP DUP2 SLOAD DUP2 PUSH16 0xFFFFFFFFFFFFFFFFFFFFFFFFFFFFFFFF MUL NOT AND SWAP1 DUP4 PUSH16 0xFFFFFFFFFFFFFFFFFFFFFFFFFFFFFFFF AND MUL OR SWAP1 SSTORE POP POP POP JUMP JUMPDEST PUSH0 DUP1 PUSH0 DUP1 PUSH0 DUP1 PUSH20 0x0 PUSH4 0x26EC273F PUSH1 0x34 PUSH1 0x36 PUSH1 0x37 PUSH1 0x40 MLOAD DUP1 PUSH1 0xA0 ADD PUSH1 0x40 MSTORE DUP1 PUSH1 0x35 PUSH0 DUP16 PUSH20 0xFFFFFFFFFFFFFFFFFFFFFFFFFFFFFFFFFFFFFFFF AND PUSH20 0xFFFFFFFFFFFFFFFFFFFFFFFFFFFFFFFFFFFFFFFF AND DUP2 MSTORE PUSH1 0x20 ADD SWAP1 DUP2 MSTORE PUSH1 0x20 ADD PUSH0 KECCAK256 PUSH1 0x40 MLOAD DUP1 PUSH1 0x20 ADD PUSH1 0x40 MSTORE SWAP1 DUP2 PUSH0 DUP3 ADD SLOAD DUP2 MSTORE POP POP DUP2 MSTORE PUSH1 0x20 ADD PUSH1 0x3B PUSH1 0x8 SWAP1 SLOAD SWAP1 PUSH2 0x100 EXP SWAP1 DIV PUSH2 0xFFFF AND PUSH2 0xFFFF AND DUP2 MSTORE PUSH1 0x20 ADD DUP14 PUSH20 0xFFFFFFFFFFFFFFFFFFFFFFFFFFFFFFFFFFFFFFFF AND DUP2 MSTORE PUSH1 0x20 ADD PUSH32 0x0 PUSH20 0xFFFFFFFFFFFFFFFFFFFFFFFFFFFFFFFFFFFFFFFF AND PUSH4 0xFCA513A8 PUSH1 0x40 MLOAD DUP2 PUSH4 0xFFFFFFFF AND PUSH1 0xE0 SHL DUP2 MSTORE PUSH1 0x4 ADD PUSH1 0x20 PUSH1 0x40 MLOAD DUP1 DUP4 SUB DUP2 DUP7 GAS STATICCALL ISZERO DUP1 ISZERO PUSH2 0x31D5 JUMPI RETURNDATASIZE PUSH0 DUP1 RETURNDATACOPY RETURNDATASIZE PUSH0 REVERT JUMPDEST POP POP POP POP PUSH1 0x40 MLOAD RETURNDATASIZE PUSH1 0x1F NOT PUSH1 0x1F DUP3 ADD AND DUP3 ADD DUP1 PUSH1 0x40 MSTORE POP DUP2 ADD SWAP1 PUSH2 0x31F9 SWAP2 SWAP1 PUSH2 0x6763 JUMP JUMPDEST PUSH20 0xFFFFFFFFFFFFFFFFFFFFFFFFFFFFFFFFFFFFFFFF AND DUP2 MSTORE PUSH1 0x20 ADD PUSH1 0x38 PUSH0 DUP16 PUSH20 0xFFFFFFFFFFFFFFFFFFFFFFFFFFFFFFFFFFFFFFFF AND PUSH20 0xFFFFFFFFFFFFFFFFFFFFFFFFFFFFFFFFFFFFFFFF AND DUP2 MSTORE PUSH1 0x20 ADD SWAP1 DUP2 MSTORE PUSH1 0x20 ADD PUSH0 KECCAK256 PUSH0 SWAP1 SLOAD SWAP1 PUSH2 0x100 EXP SWAP1 DIV PUSH1 0xFF AND PUSH1 0xFF AND DUP2 MSTORE POP PUSH1 0x40 MLOAD DUP6 PUSH4 0xFFFFFFFF AND PUSH1 0xE0 SHL DUP2 MSTORE PUSH1 0x4 ADD PUSH2 0x3283 SWAP5 SWAP4 SWAP3 SWAP2 SWAP1 PUSH2 0x7777 JUMP JUMPDEST PUSH1 0xC0 PUSH1 0x40 MLOAD DUP1 DUP4 SUB DUP2 DUP7 GAS DELEGATECALL ISZERO DUP1 ISZERO PUSH2 0x329E JUMPI RETURNDATASIZE PUSH0 DUP1 RETURNDATACOPY RETURNDATASIZE PUSH0 REVERT JUMPDEST POP POP POP POP PUSH1 0x40 MLOAD RETURNDATASIZE PUSH1 0x1F NOT PUSH1 0x1F DUP3 ADD AND DUP3 ADD DUP1 PUSH1 0x40 MSTORE POP DUP2 ADD SWAP1 PUSH2 0x32C2 SWAP2 SWAP1 PUSH2 0x77BB JUMP JUMPDEST SWAP6 POP SWAP6 POP SWAP6 POP SWAP6 POP SWAP6 POP SWAP6 POP SWAP2 SWAP4 SWAP6 POP SWAP2 SWAP4 SWAP6 JUMP JUMPDEST PUSH2 0x32DF PUSH2 0x52BC JUMP JUMPDEST PUSH1 0x34 PUSH0 DUP4 PUSH20 0xFFFFFFFFFFFFFFFFFFFFFFFFFFFFFFFFFFFFFFFF AND PUSH20 0xFFFFFFFFFFFFFFFFFFFFFFFFFFFFFFFFFFFFFFFF AND DUP2 MSTORE PUSH1 0x20 ADD SWAP1 DUP2 MSTORE PUSH1 0x20 ADD PUSH0 KECCAK256 PUSH0 ADD PUSH1 0x40 MLOAD DUP1 PUSH1 0x20 ADD PUSH1 0x40 MSTORE SWAP1 DUP2 PUSH0 DUP3 ADD SLOAD DUP2 MSTORE POP POP SWAP1 POP SWAP2 SWAP1 POP JUMP JUMPDEST PUSH0 PUSH2 0x3342 PUSH2 0x4A4F JUMP JUMPDEST SWAP1 POP PUSH1 0x1 PUSH0 SWAP1 SLOAD SWAP1 PUSH2 0x100 EXP SWAP1 DIV PUSH1 0xFF AND DUP1 PUSH2 0x3362 JUMPI POP PUSH2 0x3361 PUSH2 0x4A57 JUMP JUMPDEST JUMPDEST DUP1 PUSH2 0x336D JUMPI POP PUSH0 SLOAD DUP2 GT JUMPDEST PUSH2 0x33AC JUMPI PUSH1 0x40 MLOAD PUSH32 0x8C379A000000000000000000000000000000000000000000000000000000000 DUP2 MSTORE PUSH1 0x4 ADD PUSH2 0x33A3 SWAP1 PUSH2 0x78B4 JUMP JUMPDEST PUSH1 0x40 MLOAD DUP1 SWAP2 SUB SWAP1 REVERT JUMPDEST PUSH0 PUSH1 0x1 PUSH0 SWAP1 SLOAD SWAP1 PUSH2 0x100 EXP SWAP1 DIV PUSH1 0xFF AND ISZERO SWAP1 POP DUP1 ISZERO PUSH2 0x33E5 JUMPI PUSH1 0x1 DUP1 PUSH0 PUSH2 0x100 EXP DUP2 SLOAD DUP2 PUSH1 0xFF MUL NOT AND SWAP1 DUP4 ISZERO ISZERO MUL OR SWAP1 SSTORE POP DUP2 PUSH0 DUP2 SWAP1 SSTORE POP JUMPDEST PUSH32 0x0 PUSH20 0xFFFFFFFFFFFFFFFFFFFFFFFFFFFFFFFFFFFFFFFF AND DUP4 PUSH20 0xFFFFFFFFFFFFFFFFFFFFFFFFFFFFFFFFFFFFFFFF AND EQ PUSH1 0x40 MLOAD DUP1 PUSH1 0x40 ADD PUSH1 0x40 MSTORE DUP1 PUSH1 0x2 DUP2 MSTORE PUSH1 0x20 ADD PUSH32 0x3132000000000000000000000000000000000000000000000000000000000000 DUP2 MSTORE POP SWAP1 PUSH2 0x34AB JUMPI PUSH1 0x40 MLOAD PUSH32 0x8C379A000000000000000000000000000000000000000000000000000000000 DUP2 MSTORE PUSH1 0x4 ADD PUSH2 0x34A2 SWAP2 SWAP1 PUSH2 0x6A6C JUMP JUMPDEST PUSH1 0x40 MLOAD DUP1 SWAP2 SUB SWAP1 REVERT JUMPDEST POP PUSH2 0x9C4 PUSH1 0x3B PUSH0 PUSH2 0x100 EXP DUP2 SLOAD DUP2 PUSH8 0xFFFFFFFFFFFFFFFF MUL NOT AND SWAP1 DUP4 PUSH8 0xFFFFFFFFFFFFFFFF AND MUL OR SWAP1 SSTORE POP DUP1 ISZERO PUSH2 0x34F6 JUMPI PUSH0 PUSH1 0x1 PUSH0 PUSH2 0x100 EXP DUP2 SLOAD DUP2 PUSH1 0xFF MUL NOT AND SWAP1 DUP4 ISZERO ISZERO MUL OR SWAP1 SSTORE POP JUMPDEST POP POP POP JUMP JUMPDEST PUSH20 0x0 PUSH4 0x6973F744 PUSH1 0x34 PUSH0 DUP6 PUSH20 0xFFFFFFFFFFFFFFFFFFFFFFFFFFFFFFFFFFFFFFFF AND PUSH20 0xFFFFFFFFFFFFFFFFFFFFFFFFFFFFFFFFFFFFFFFF AND DUP2 MSTORE PUSH1 0x20 ADD SWAP1 DUP2 MSTORE PUSH1 0x20 ADD PUSH0 KECCAK256 DUP5 DUP5 PUSH1 0x40 MLOAD DUP5 PUSH4 0xFFFFFFFF AND PUSH1 0xE0 SHL DUP2 MSTORE PUSH1 0x4 ADD PUSH2 0x3572 SWAP4 SWAP3 SWAP2 SWAP1 PUSH2 0x78D2 JUMP JUMPDEST PUSH0 PUSH1 0x40 MLOAD DUP1 DUP4 SUB DUP2 DUP7 DUP1 EXTCODESIZE ISZERO DUP1 ISZERO PUSH2 0x3588 JUMPI PUSH0 DUP1 REVERT JUMPDEST POP GAS DELEGATECALL ISZERO DUP1 ISZERO PUSH2 0x359A JUMPI RETURNDATASIZE PUSH0 DUP1 RETURNDATACOPY RETURNDATASIZE PUSH0 REVERT JUMPDEST POP POP POP POP POP POP JUMP JUMPDEST PUSH2 0x35AA PUSH2 0x4A66 JUMP JUMPDEST PUSH20 0x0 PUSH4 0x87B322B2 DUP5 DUP5 DUP5 PUSH1 0x40 MLOAD DUP5 PUSH4 0xFFFFFFFF AND PUSH1 0xE0 SHL DUP2 MSTORE PUSH1 0x4 ADD PUSH2 0x35E5 SWAP4 SWAP3 SWAP2 SWAP1 PUSH2 0x7907 JUMP JUMPDEST PUSH0 PUSH1 0x40 MLOAD DUP1 DUP4 SUB DUP2 DUP7 DUP1 EXTCODESIZE ISZERO DUP1 ISZERO PUSH2 0x35FB JUMPI PUSH0 DUP1 REVERT JUMPDEST POP GAS DELEGATECALL ISZERO DUP1 ISZERO PUSH2 0x360D JUMPI RETURNDATASIZE PUSH0 DUP1 RETURNDATACOPY RETURNDATASIZE PUSH0 REVERT JUMPDEST POP POP POP POP POP POP POP JUMP JUMPDEST PUSH0 PUSH2 0x365C PUSH1 0x34 PUSH0 DUP5 PUSH20 0xFFFFFFFFFFFFFFFFFFFFFFFFFFFFFFFFFFFFFFFF AND PUSH20 0xFFFFFFFFFFFFFFFFFFFFFFFFFFFFFFFFFFFFFFFF AND DUP2 MSTORE PUSH1 0x20 ADD SWAP1 DUP2 MSTORE PUSH1 0x20 ADD PUSH0 KECCAK256 PUSH2 0x4BE4 JUMP JUMPDEST SWAP1 POP SWAP2 SWAP1 POP JUMP JUMPDEST PUSH1 0x60 PUSH0 PUSH1 0x3B PUSH1 0x8 SWAP1 SLOAD SWAP1 PUSH2 0x100 EXP SWAP1 DIV PUSH2 0xFFFF AND PUSH2 0xFFFF AND SWAP1 POP PUSH0 DUP1 DUP3 PUSH8 0xFFFFFFFFFFFFFFFF DUP2 GT ISZERO PUSH2 0x3699 JUMPI PUSH2 0x3698 PUSH2 0x6324 JUMP JUMPDEST JUMPDEST PUSH1 0x40 MLOAD SWAP1 DUP1 DUP3 MSTORE DUP1 PUSH1 0x20 MUL PUSH1 0x20 ADD DUP3 ADD PUSH1 0x40 MSTORE DUP1 ISZERO PUSH2 0x36C7 JUMPI DUP2 PUSH1 0x20 ADD PUSH1 0x20 DUP3 MUL DUP1 CALLDATASIZE DUP4 CALLDATACOPY DUP1 DUP3 ADD SWAP2 POP POP SWAP1 POP JUMPDEST POP SWAP1 POP PUSH0 JUMPDEST DUP4 DUP2 LT ISZERO PUSH2 0x37E1 JUMPI PUSH0 PUSH20 0xFFFFFFFFFFFFFFFFFFFFFFFFFFFFFFFFFFFFFFFF AND PUSH1 0x36 PUSH0 DUP4 DUP2 MSTORE PUSH1 0x20 ADD SWAP1 DUP2 MSTORE PUSH1 0x20 ADD PUSH0 KECCAK256 PUSH0 SWAP1 SLOAD SWAP1 PUSH2 0x100 EXP SWAP1 DIV PUSH20 0xFFFFFFFFFFFFFFFFFFFFFFFFFFFFFFFFFFFFFFFF AND PUSH20 0xFFFFFFFFFFFFFFFFFFFFFFFFFFFFFFFFFFFFFFFF AND EQ PUSH2 0x37C5 JUMPI PUSH1 0x36 PUSH0 DUP3 DUP2 MSTORE PUSH1 0x20 ADD SWAP1 DUP2 MSTORE PUSH1 0x20 ADD PUSH0 KECCAK256 PUSH0 SWAP1 SLOAD SWAP1 PUSH2 0x100 EXP SWAP1 DIV PUSH20 0xFFFFFFFFFFFFFFFFFFFFFFFFFFFFFFFFFFFFFFFF AND DUP3 DUP5 DUP4 PUSH2 0x3775 SWAP2 SWAP1 PUSH2 0x793C JUMP JUMPDEST DUP2 MLOAD DUP2 LT PUSH2 0x3786 JUMPI PUSH2 0x3785 PUSH2 0x796F JUMP JUMPDEST JUMPDEST PUSH1 0x20 MUL PUSH1 0x20 ADD ADD SWAP1 PUSH20 0xFFFFFFFFFFFFFFFFFFFFFFFFFFFFFFFFFFFFFFFF AND SWAP1 DUP2 PUSH20 0xFFFFFFFFFFFFFFFFFFFFFFFFFFFFFFFFFFFFFFFF AND DUP2 MSTORE POP POP PUSH2 0x37D4 JUMP JUMPDEST DUP3 DUP1 PUSH2 0x37D0 SWAP1 PUSH2 0x799C JUMP JUMPDEST SWAP4 POP POP JUMPDEST DUP1 DUP1 PUSH1 0x1 ADD SWAP2 POP POP PUSH2 0x36CC JUMP JUMPDEST POP DUP2 DUP4 SUB DUP2 MSTORE DUP1 SWAP4 POP POP POP POP SWAP1 JUMP JUMPDEST PUSH2 0x37F8 PUSH2 0x43B0 JUMP JUMPDEST PUSH0 DUP3 PUSH1 0xFF AND EQ ISZERO PUSH1 0x40 MLOAD DUP1 PUSH1 0x40 ADD PUSH1 0x40 MSTORE DUP1 PUSH1 0x2 DUP2 MSTORE PUSH1 0x20 ADD PUSH32 0x3136000000000000000000000000000000000000000000000000000000000000 DUP2 MSTORE POP SWAP1 PUSH2 0x3876 JUMPI PUSH1 0x40 MLOAD PUSH32 0x8C379A000000000000000000000000000000000000000000000000000000000 DUP2 MSTORE PUSH1 0x4 ADD PUSH2 0x386D SWAP2 SWAP1 PUSH2 0x6A6C JUMP JUMPDEST PUSH1 0x40 MLOAD DUP1 SWAP2 SUB SWAP1 REVERT JUMPDEST POP DUP1 PUSH1 0x37 PUSH0 DUP5 PUSH1 0xFF AND PUSH1 0xFF AND DUP2 MSTORE PUSH1 0x20 ADD SWAP1 DUP2 MSTORE PUSH1 0x20 ADD PUSH0 KECCAK256 PUSH0 DUP3 ADD MLOAD DUP2 PUSH0 ADD PUSH0 PUSH2 0x100 EXP DUP2 SLOAD DUP2 PUSH2 0xFFFF MUL NOT AND SWAP1 DUP4 PUSH2 0xFFFF AND MUL OR SWAP1 SSTORE POP PUSH1 0x20 DUP3 ADD MLOAD DUP2 PUSH0 ADD PUSH1 0x2 PUSH2 0x100 EXP DUP2 SLOAD DUP2 PUSH2 0xFFFF MUL NOT AND SWAP1 DUP4 PUSH2 0xFFFF AND MUL OR SWAP1 SSTORE POP PUSH1 0x40 DUP3 ADD MLOAD DUP2 PUSH0 ADD PUSH1 0x4 PUSH2 0x100 EXP DUP2 SLOAD DUP2 PUSH2 0xFFFF MUL NOT AND SWAP1 DUP4 PUSH2 0xFFFF AND MUL OR SWAP1 SSTORE POP PUSH1 0x60 DUP3 ADD MLOAD DUP2 PUSH0 ADD PUSH1 0x6 PUSH2 0x100 EXP DUP2 SLOAD DUP2 PUSH20 0xFFFFFFFFFFFFFFFFFFFFFFFFFFFFFFFFFFFFFFFF MUL NOT AND SWAP1 DUP4 PUSH20 0xFFFFFFFFFFFFFFFFFFFFFFFFFFFFFFFFFFFFFFFF AND MUL OR SWAP1 SSTORE POP PUSH1 0x80 DUP3 ADD MLOAD DUP2 PUSH1 0x1 ADD SWAP1 DUP2 PUSH2 0x394E SWAP2 SWAP1 PUSH2 0x7B77 JUMP JUMPDEST POP SWAP1 POP POP POP POP JUMP JUMPDEST PUSH1 0x34 PUSH0 DUP8 PUSH20 0xFFFFFFFFFFFFFFFFFFFFFFFFFFFFFFFFFFFFFFFF AND PUSH20 0xFFFFFFFFFFFFFFFFFFFFFFFFFFFFFFFFFFFFFFFF AND DUP2 MSTORE PUSH1 0x20 ADD SWAP1 DUP2 MSTORE PUSH1 0x20 ADD PUSH0 KECCAK256 PUSH1 0x4 ADD PUSH0 SWAP1 SLOAD SWAP1 PUSH2 0x100 EXP SWAP1 DIV PUSH20 0xFFFFFFFFFFFFFFFFFFFFFFFFFFFFFFFFFFFFFFFF AND PUSH20 0xFFFFFFFFFFFFFFFFFFFFFFFFFFFFFFFFFFFFFFFF AND CALLER PUSH20 0xFFFFFFFFFFFFFFFFFFFFFFFFFFFFFFFFFFFFFFFF AND EQ PUSH1 0x40 MLOAD DUP1 PUSH1 0x40 ADD PUSH1 0x40 MSTORE DUP1 PUSH1 0x2 DUP2 MSTORE PUSH1 0x20 ADD PUSH32 0x3131000000000000000000000000000000000000000000000000000000000000 DUP2 MSTORE POP SWAP1 PUSH2 0x3A5B JUMPI PUSH1 0x40 MLOAD PUSH32 0x8C379A000000000000000000000000000000000000000000000000000000000 DUP2 MSTORE PUSH1 0x4 ADD PUSH2 0x3A52 SWAP2 SWAP1 PUSH2 0x6A6C JUMP JUMPDEST PUSH1 0x40 MLOAD DUP1 SWAP2 SUB SWAP1 REVERT JUMPDEST POP PUSH20 0x0 PUSH4 0x8A5DADD1 PUSH1 0x34 PUSH1 0x36 PUSH1 0x37 PUSH1 0x35 PUSH1 0x40 MLOAD DUP1 PUSH2 0x120 ADD PUSH1 0x40 MSTORE DUP1 DUP14 PUSH20 0xFFFFFFFFFFFFFFFFFFFFFFFFFFFFFFFFFFFFFFFF AND DUP2 MSTORE PUSH1 0x20 ADD DUP13 PUSH20 0xFFFFFFFFFFFFFFFFFFFFFFFFFFFFFFFFFFFFFFFF AND DUP2 MSTORE PUSH1 0x20 ADD DUP12 PUSH20 0xFFFFFFFFFFFFFFFFFFFFFFFFFFFFFFFFFFFFFFFF AND DUP2 MSTORE PUSH1 0x20 ADD DUP11 DUP2 MSTORE PUSH1 0x20 ADD DUP10 DUP2 MSTORE PUSH1 0x20 ADD DUP9 DUP2 MSTORE PUSH1 0x20 ADD PUSH1 0x3B PUSH1 0x8 SWAP1 SLOAD SWAP1 PUSH2 0x100 EXP SWAP1 DIV PUSH2 0xFFFF AND PUSH2 0xFFFF AND DUP2 MSTORE PUSH1 0x20 ADD PUSH32 0x0 PUSH20 0xFFFFFFFFFFFFFFFFFFFFFFFFFFFFFFFFFFFFFFFF AND PUSH4 0xFCA513A8 PUSH1 0x40 MLOAD DUP2 PUSH4 0xFFFFFFFF AND PUSH1 0xE0 SHL DUP2 MSTORE PUSH1 0x4 ADD PUSH1 0x20 PUSH1 0x40 MLOAD DUP1 DUP4 SUB DUP2 DUP7 GAS STATICCALL ISZERO DUP1 ISZERO PUSH2 0x3B73 JUMPI RETURNDATASIZE PUSH0 DUP1 RETURNDATACOPY RETURNDATASIZE PUSH0 REVERT JUMPDEST POP POP POP POP PUSH1 0x40 MLOAD RETURNDATASIZE PUSH1 0x1F NOT PUSH1 0x1F DUP3 ADD AND DUP3 ADD DUP1 PUSH1 0x40 MSTORE POP DUP2 ADD SWAP1 PUSH2 0x3B97 SWAP2 SWAP1 PUSH2 0x6763 JUMP JUMPDEST PUSH20 0xFFFFFFFFFFFFFFFFFFFFFFFFFFFFFFFFFFFFFFFF AND DUP2 MSTORE PUSH1 0x20 ADD PUSH1 0x38 PUSH0 DUP15 PUSH20 0xFFFFFFFFFFFFFFFFFFFFFFFFFFFFFFFFFFFFFFFF AND PUSH20 0xFFFFFFFFFFFFFFFFFFFFFFFFFFFFFFFFFFFFFFFF AND DUP2 MSTORE PUSH1 0x20 ADD SWAP1 DUP2 MSTORE PUSH1 0x20 ADD PUSH0 KECCAK256 PUSH0 SWAP1 SLOAD SWAP1 PUSH2 0x100 EXP SWAP1 DIV PUSH1 0xFF AND PUSH1 0xFF AND DUP2 MSTORE POP PUSH1 0x40 MLOAD DUP7 PUSH4 0xFFFFFFFF AND PUSH1 0xE0 SHL DUP2 MSTORE PUSH1 0x4 ADD PUSH2 0x3C22 SWAP6 SWAP5 SWAP4 SWAP3 SWAP2 SWAP1 PUSH2 0x7CFB JUMP JUMPDEST PUSH0 PUSH1 0x40 MLOAD DUP1 DUP4 SUB DUP2 DUP7 DUP1 EXTCODESIZE ISZERO DUP1 ISZERO PUSH2 0x3C38 JUMPI PUSH0 DUP1 REVERT JUMPDEST POP GAS DELEGATECALL ISZERO DUP1 ISZERO PUSH2 0x3C4A JUMPI RETURNDATASIZE PUSH0 DUP1 RETURNDATACOPY RETURNDATASIZE PUSH0 REVERT JUMPDEST POP POP POP POP POP POP POP POP POP POP JUMP JUMPDEST PUSH0 DUP1 PUSH0 DUP1 PUSH2 0x3C65 PUSH1 0x36 DUP7 PUSH2 0x4CCE JUMP JUMPDEST SWAP4 POP SWAP4 POP SWAP4 POP SWAP4 POP PUSH2 0x3C7A DUP5 DUP5 DUP5 DUP5 CALLER PUSH2 0x289B JUMP JUMPDEST POP POP POP POP POP JUMP JUMPDEST PUSH0 PUSH2 0x3C8A PUSH2 0x47E2 JUMP JUMPDEST PUSH20 0x0 PUSH4 0x8E743248 PUSH1 0x34 PUSH0 DUP8 PUSH20 0xFFFFFFFFFFFFFFFFFFFFFFFFFFFFFFFFFFFFFFFF AND PUSH20 0xFFFFFFFFFFFFFFFFFFFFFFFFFFFFFFFFFFFFFFFF AND DUP2 MSTORE PUSH1 0x20 ADD SWAP1 DUP2 MSTORE PUSH1 0x20 ADD PUSH0 KECCAK256 DUP7 DUP7 DUP7 PUSH1 0x39 SLOAD PUSH1 0x40 MLOAD DUP7 PUSH4 0xFFFFFFFF AND PUSH1 0xE0 SHL DUP2 MSTORE PUSH1 0x4 ADD PUSH2 0x3D07 SWAP6 SWAP5 SWAP4 SWAP3 SWAP2 SWAP1 PUSH2 0x7D4D JUMP JUMPDEST PUSH1 0x20 PUSH1 0x40 MLOAD DUP1 DUP4 SUB DUP2 DUP7 GAS DELEGATECALL ISZERO DUP1 ISZERO PUSH2 0x3D22 JUMPI RETURNDATASIZE PUSH0 DUP1 RETURNDATACOPY RETURNDATASIZE PUSH0 REVERT JUMPDEST POP POP POP POP PUSH1 0x40 MLOAD RETURNDATASIZE PUSH1 0x1F NOT PUSH1 0x1F DUP3 ADD AND DUP3 ADD DUP1 PUSH1 0x40 MSTORE POP DUP2 ADD SWAP1 PUSH2 0x3D46 SWAP2 SWAP1 PUSH2 0x6C64 JUMP JUMPDEST SWAP1 POP SWAP4 SWAP3 POP POP POP JUMP JUMPDEST PUSH0 DUP1 PUSH0 DUP1 PUSH2 0x3D5E PUSH1 0x36 DUP7 PUSH2 0x46E4 JUMP JUMPDEST SWAP3 POP SWAP3 POP SWAP3 POP PUSH2 0x3D6F DUP4 DUP4 DUP4 PUSH2 0x13AC JUMP JUMPDEST SWAP4 POP POP POP POP SWAP2 SWAP1 POP JUMP JUMPDEST PUSH2 0x3D81 PUSH2 0x43B0 JUMP JUMPDEST PUSH20 0x0 PUSH4 0x1E3B4145 PUSH1 0x34 DUP4 PUSH1 0x40 MLOAD DUP4 PUSH4 0xFFFFFFFF AND PUSH1 0xE0 SHL DUP2 MSTORE PUSH1 0x4 ADD PUSH2 0x3DBB SWAP3 SWAP2 SWAP1 PUSH2 0x7D9E JUMP JUMPDEST PUSH0 PUSH1 0x40 MLOAD DUP1 DUP4 SUB DUP2 DUP7 DUP1 EXTCODESIZE ISZERO DUP1 ISZERO PUSH2 0x3DD1 JUMPI PUSH0 DUP1 REVERT JUMPDEST POP GAS DELEGATECALL ISZERO DUP1 ISZERO PUSH2 0x3DE3 JUMPI RETURNDATASIZE PUSH0 DUP1 RETURNDATACOPY RETURNDATASIZE PUSH0 REVERT JUMPDEST POP POP POP POP POP JUMP JUMPDEST PUSH0 PUSH1 0x3B PUSH0 SWAP1 SLOAD SWAP1 PUSH2 0x100 EXP SWAP1 DIV PUSH8 0xFFFFFFFFFFFFFFFF AND PUSH8 0xFFFFFFFFFFFFFFFF AND SWAP1 POP SWAP1 JUMP JUMPDEST PUSH20 0x0 PUSH4 0x1913F161 PUSH1 0x34 PUSH1 0x36 PUSH1 0x35 PUSH0 DUP8 PUSH20 0xFFFFFFFFFFFFFFFFFFFFFFFFFFFFFFFFFFFFFFFF AND PUSH20 0xFFFFFFFFFFFFFFFFFFFFFFFFFFFFFFFFFFFFFFFF AND DUP2 MSTORE PUSH1 0x20 ADD SWAP1 DUP2 MSTORE PUSH1 0x20 ADD PUSH0 KECCAK256 PUSH1 0x40 MLOAD DUP1 PUSH1 0x80 ADD PUSH1 0x40 MSTORE DUP1 DUP11 PUSH20 0xFFFFFFFFFFFFFFFFFFFFFFFFFFFFFFFFFFFFFFFF AND DUP2 MSTORE PUSH1 0x20 ADD DUP10 DUP2 MSTORE PUSH1 0x20 ADD DUP9 PUSH20 0xFFFFFFFFFFFFFFFFFFFFFFFFFFFFFFFFFFFFFFFF AND DUP2 MSTORE PUSH1 0x20 ADD DUP8 PUSH2 0xFFFF AND DUP2 MSTORE POP PUSH1 0x40 MLOAD DUP6 PUSH4 0xFFFFFFFF AND PUSH1 0xE0 SHL DUP2 MSTORE PUSH1 0x4 ADD PUSH2 0x3EDB SWAP5 SWAP4 SWAP3 SWAP2 SWAP1 PUSH2 0x69E1 JUMP JUMPDEST PUSH0 PUSH1 0x40 MLOAD DUP1 DUP4 SUB DUP2 DUP7 DUP1 EXTCODESIZE ISZERO DUP1 ISZERO PUSH2 0x3EF1 JUMPI PUSH0 DUP1 REVERT JUMPDEST POP GAS DELEGATECALL ISZERO DUP1 ISZERO PUSH2 0x3F03 JUMPI RETURNDATASIZE PUSH0 DUP1 RETURNDATACOPY RETURNDATASIZE PUSH0 REVERT JUMPDEST POP POP POP POP POP POP POP POP JUMP JUMPDEST PUSH0 PUSH1 0x38 PUSH0 DUP4 PUSH20 0xFFFFFFFFFFFFFFFFFFFFFFFFFFFFFFFFFFFFFFFF AND PUSH20 0xFFFFFFFFFFFFFFFFFFFFFFFFFFFFFFFFFFFFFFFF AND DUP2 MSTORE PUSH1 0x20 ADD SWAP1 DUP2 MSTORE PUSH1 0x20 ADD PUSH0 KECCAK256 PUSH0 SWAP1 SLOAD SWAP1 PUSH2 0x100 EXP SWAP1 DIV PUSH1 0xFF AND PUSH1 0xFF AND SWAP1 POP SWAP2 SWAP1 POP JUMP JUMPDEST PUSH0 DUP9 PUSH20 0xFFFFFFFFFFFFFFFFFFFFFFFFFFFFFFFFFFFFFFFF AND PUSH4 0xD505ACCF CALLER ADDRESS DUP12 DUP10 DUP10 DUP10 DUP10 PUSH1 0x40 MLOAD DUP9 PUSH4 0xFFFFFFFF AND PUSH1 0xE0 SHL DUP2 MSTORE PUSH1 0x4 ADD PUSH2 0x3FA8 SWAP8 SWAP7 SWAP6 SWAP5 SWAP4 SWAP3 SWAP2 SWAP1 PUSH2 0x690B JUMP JUMPDEST PUSH0 PUSH1 0x40 MLOAD DUP1 DUP4 SUB DUP2 PUSH0 DUP8 DUP1 EXTCODESIZE ISZERO DUP1 ISZERO PUSH2 0x3FBF JUMPI PUSH0 DUP1 REVERT JUMPDEST POP GAS CALL ISZERO DUP1 ISZERO PUSH2 0x3FD1 JUMPI RETURNDATASIZE PUSH0 DUP1 RETURNDATACOPY RETURNDATASIZE PUSH0 REVERT JUMPDEST POP POP POP POP PUSH0 PUSH1 0x40 MLOAD DUP1 PUSH1 0xA0 ADD PUSH1 0x40 MSTORE DUP1 DUP12 PUSH20 0xFFFFFFFFFFFFFFFFFFFFFFFFFFFFFFFFFFFFFFFF AND DUP2 MSTORE PUSH1 0x20 ADD DUP11 DUP2 MSTORE PUSH1 0x20 ADD DUP10 PUSH1 0x2 DUP2 GT ISZERO PUSH2 0x4016 JUMPI PUSH2 0x4015 PUSH2 0x6B33 JUMP JUMPDEST JUMPDEST PUSH1 0x2 DUP2 GT ISZERO PUSH2 0x4028 JUMPI PUSH2 0x4027 PUSH2 0x6B33 JUMP JUMPDEST JUMPDEST DUP2 MSTORE PUSH1 0x20 ADD DUP9 PUSH20 0xFFFFFFFFFFFFFFFFFFFFFFFFFFFFFFFFFFFFFFFF AND DUP2 MSTORE PUSH1 0x20 ADD PUSH0 ISZERO ISZERO DUP2 MSTORE POP SWAP1 POP PUSH20 0x0 PUSH4 0x40E95DE6 PUSH1 0x34 PUSH1 0x36 PUSH1 0x35 PUSH0 DUP13 PUSH20 0xFFFFFFFFFFFFFFFFFFFFFFFFFFFFFFFFFFFFFFFF AND PUSH20 0xFFFFFFFFFFFFFFFFFFFFFFFFFFFFFFFFFFFFFFFF AND DUP2 MSTORE PUSH1 0x20 ADD SWAP1 DUP2 MSTORE PUSH1 0x20 ADD PUSH0 KECCAK256 DUP6 PUSH1 0x40 MLOAD DUP6 PUSH4 0xFFFFFFFF AND PUSH1 0xE0 SHL DUP2 MSTORE PUSH1 0x4 ADD PUSH2 0x40CC SWAP5 SWAP4 SWAP3 SWAP2 SWAP1 PUSH2 0x6C0C JUMP JUMPDEST PUSH1 0x20 PUSH1 0x40 MLOAD DUP1 DUP4 SUB DUP2 DUP7 GAS DELEGATECALL ISZERO DUP1 ISZERO PUSH2 0x40E7 JUMPI RETURNDATASIZE PUSH0 DUP1 RETURNDATACOPY RETURNDATASIZE PUSH0 REVERT JUMPDEST POP POP POP POP PUSH1 0x40 MLOAD RETURNDATASIZE PUSH1 0x1F NOT PUSH1 0x1F DUP3 ADD AND DUP3 ADD DUP1 PUSH1 0x40 MSTORE POP DUP2 ADD SWAP1 PUSH2 0x410B SWAP2 SWAP1 PUSH2 0x6C64 JUMP JUMPDEST SWAP2 POP POP SWAP9 SWAP8 POP POP POP POP POP POP POP POP JUMP JUMPDEST PUSH2 0x4122 PUSH2 0x43B0 JUMP JUMPDEST PUSH0 PUSH20 0xFFFFFFFFFFFFFFFFFFFFFFFFFFFFFFFFFFFFFFFF AND DUP3 PUSH20 0xFFFFFFFFFFFFFFFFFFFFFFFFFFFFFFFFFFFFFFFF AND EQ ISZERO PUSH1 0x40 MLOAD DUP1 PUSH1 0x40 ADD PUSH1 0x40 MSTORE DUP1 PUSH1 0x2 DUP2 MSTORE PUSH1 0x20 ADD PUSH32 0x3737000000000000000000000000000000000000000000000000000000000000 DUP2 MSTORE POP SWAP1 PUSH2 0x41C9 JUMPI PUSH1 0x40 MLOAD PUSH32 0x8C379A000000000000000000000000000000000000000000000000000000000 DUP2 MSTORE PUSH1 0x4 ADD PUSH2 0x41C0 SWAP2 SWAP1 PUSH2 0x6A6C JUMP JUMPDEST PUSH1 0x40 MLOAD DUP1 SWAP2 SUB SWAP1 REVERT JUMPDEST POP PUSH0 PUSH1 0x34 PUSH0 DUP5 PUSH20 0xFFFFFFFFFFFFFFFFFFFFFFFFFFFFFFFFFFFFFFFF AND PUSH20 0xFFFFFFFFFFFFFFFFFFFFFFFFFFFFFFFFFFFFFFFF AND DUP2 MSTORE PUSH1 0x20 ADD SWAP1 DUP2 MSTORE PUSH1 0x20 ADD PUSH0 KECCAK256 PUSH1 0x3 ADD PUSH1 0x15 SWAP1 SLOAD SWAP1 PUSH2 0x100 EXP SWAP1 DIV PUSH2 0xFFFF AND PUSH2 0xFFFF AND EQ ISZERO DUP1 PUSH2 0x4286 JUMPI POP DUP2 PUSH20 0xFFFFFFFFFFFFFFFFFFFFFFFFFFFFFFFFFFFFFFFF AND PUSH1 0x36 PUSH0 DUP1 DUP2 MSTORE PUSH1 0x20 ADD SWAP1 DUP2 MSTORE PUSH1 0x20 ADD PUSH0 KECCAK256 PUSH0 SWAP1 SLOAD SWAP1 PUSH2 0x100 EXP SWAP1 DIV PUSH20 0xFFFFFFFFFFFFFFFFFFFFFFFFFFFFFFFFFFFFFFFF AND PUSH20 0xFFFFFFFFFFFFFFFFFFFFFFFFFFFFFFFFFFFFFFFF AND EQ JUMPDEST PUSH1 0x40 MLOAD DUP1 PUSH1 0x40 ADD PUSH1 0x40 MSTORE DUP1 PUSH1 0x2 DUP2 MSTORE PUSH1 0x20 ADD PUSH32 0x3832000000000000000000000000000000000000000000000000000000000000 DUP2 MSTORE POP SWAP1 PUSH2 0x42FD JUMPI PUSH1 0x40 MLOAD PUSH32 0x8C379A000000000000000000000000000000000000000000000000000000000 DUP2 MSTORE PUSH1 0x4 ADD PUSH2 0x42F4 SWAP2 SWAP1 PUSH2 0x6A6C JUMP JUMPDEST PUSH1 0x40 MLOAD DUP1 SWAP2 SUB SWAP1 REVERT JUMPDEST POP DUP1 PUSH1 0x34 PUSH0 DUP5 PUSH20 0xFFFFFFFFFFFFFFFFFFFFFFFFFFFFFFFFFFFFFFFF AND PUSH20 0xFFFFFFFFFFFFFFFFFFFFFFFFFFFFFFFFFFFFFFFF AND DUP2 MSTORE PUSH1 0x20 ADD SWAP1 DUP2 MSTORE PUSH1 0x20 ADD PUSH0 KECCAK256 PUSH0 ADD DUP2 DUP2 PUSH2 0x434A SWAP2 SWAP1 PUSH2 0x7E6C JUMP JUMPDEST SWAP1 POP POP POP POP JUMP JUMPDEST PUSH0 DUP1 PUSH0 PUSH2 0x435F PUSH1 0x36 DUP6 PUSH2 0x4D54 JUMP JUMPDEST SWAP3 POP SWAP3 POP SWAP3 POP PUSH2 0x4371 DUP4 DUP4 CALLER DUP5 PUSH2 0x1F36 JUMP JUMPDEST POP POP POP POP JUMP JUMPDEST PUSH0 PUSH1 0x80 SWAP1 POP SWAP1 JUMP JUMPDEST PUSH0 DUP1 PUSH0 DUP1 PUSH0 PUSH2 0x4390 PUSH1 0x36 DUP9 DUP9 PUSH2 0x4DC9 JUMP JUMPDEST SWAP5 POP SWAP5 POP SWAP5 POP SWAP5 POP SWAP5 POP PUSH2 0x43A7 DUP6 DUP6 DUP6 DUP6 DUP6 PUSH2 0xB3D JUMP JUMPDEST POP POP POP POP POP POP POP JUMP JUMPDEST CALLER PUSH20 0xFFFFFFFFFFFFFFFFFFFFFFFFFFFFFFFFFFFFFFFF AND PUSH32 0x0 PUSH20 0xFFFFFFFFFFFFFFFFFFFFFFFFFFFFFFFFFFFFFFFF AND PUSH4 0x631ADFCA PUSH1 0x40 MLOAD DUP2 PUSH4 0xFFFFFFFF AND PUSH1 0xE0 SHL DUP2 MSTORE PUSH1 0x4 ADD PUSH1 0x20 PUSH1 0x40 MLOAD DUP1 DUP4 SUB DUP2 DUP7 GAS STATICCALL ISZERO DUP1 ISZERO PUSH2 0x4430 JUMPI RETURNDATASIZE PUSH0 DUP1 RETURNDATACOPY RETURNDATASIZE PUSH0 REVERT JUMPDEST POP POP POP POP PUSH1 0x40 MLOAD RETURNDATASIZE PUSH1 0x1F NOT PUSH1 0x1F DUP3 ADD AND DUP3 ADD DUP1 PUSH1 0x40 MSTORE POP DUP2 ADD SWAP1 PUSH2 0x4454 SWAP2 SWAP1 PUSH2 0x6763 JUMP JUMPDEST PUSH20 0xFFFFFFFFFFFFFFFFFFFFFFFFFFFFFFFFFFFFFFFF AND EQ PUSH1 0x40 MLOAD DUP1 PUSH1 0x40 ADD PUSH1 0x40 MSTORE DUP1 PUSH1 0x2 DUP2 MSTORE PUSH1 0x20 ADD PUSH32 0x3130000000000000000000000000000000000000000000000000000000000000 DUP2 MSTORE POP SWAP1 PUSH2 0x44E2 JUMPI PUSH1 0x40 MLOAD PUSH32 0x8C379A000000000000000000000000000000000000000000000000000000000 DUP2 MSTORE PUSH1 0x4 ADD PUSH2 0x44D9 SWAP2 SWAP1 PUSH2 0x6A6C JUMP JUMPDEST PUSH1 0x40 MLOAD DUP1 SWAP2 SUB SWAP1 REVERT JUMPDEST POP JUMP JUMPDEST PUSH0 DUP1 PUSH0 DUP1 PUSH2 0xFFFF DUP6 AND SWAP2 POP PUSH1 0xFF DUP6 PUSH1 0x10 SHR AND SWAP1 POP DUP6 PUSH0 DUP4 PUSH2 0xFFFF AND DUP2 MSTORE PUSH1 0x20 ADD SWAP1 DUP2 MSTORE PUSH1 0x20 ADD PUSH0 KECCAK256 PUSH0 SWAP1 SLOAD SWAP1 PUSH2 0x100 EXP SWAP1 DIV PUSH20 0xFFFFFFFFFFFFFFFFFFFFFFFFFFFFFFFFFFFFFFFF AND DUP2 SWAP4 POP SWAP4 POP POP POP SWAP3 POP SWAP3 SWAP1 POP JUMP JUMPDEST PUSH0 DUP1 DUP3 PUSH1 0x3 ADD PUSH1 0x10 SWAP1 SLOAD SWAP1 PUSH2 0x100 EXP SWAP1 DIV PUSH5 0xFFFFFFFFFF AND SWAP1 POP TIMESTAMP DUP2 PUSH5 0xFFFFFFFFFF AND SUB PUSH2 0x459D JUMPI DUP3 PUSH1 0x2 ADD PUSH0 SWAP1 SLOAD SWAP1 PUSH2 0x100 EXP SWAP1 DIV PUSH16 0xFFFFFFFFFFFFFFFFFFFFFFFFFFFFFFFF AND PUSH16 0xFFFFFFFFFFFFFFFFFFFFFFFFFFFFFFFF AND SWAP2 POP POP PUSH2 0x4620 JUMP JUMPDEST PUSH2 0x461C DUP4 PUSH1 0x2 ADD PUSH0 SWAP1 SLOAD SWAP1 PUSH2 0x100 EXP SWAP1 DIV PUSH16 0xFFFFFFFFFFFFFFFFFFFFFFFFFFFFFFFF AND PUSH16 0xFFFFFFFFFFFFFFFFFFFFFFFFFFFFFFFF AND PUSH2 0x460E DUP6 PUSH1 0x2 ADD PUSH1 0x10 SWAP1 SLOAD SWAP1 PUSH2 0x100 EXP SWAP1 DIV PUSH16 0xFFFFFFFFFFFFFFFFFFFFFFFFFFFFFFFF AND PUSH16 0xFFFFFFFFFFFFFFFFFFFFFFFFFFFFFFFF AND DUP5 PUSH2 0x4EE0 JUMP JUMPDEST PUSH2 0x4EF4 SWAP1 SWAP2 SWAP1 PUSH4 0xFFFFFFFF AND JUMP JUMPDEST SWAP2 POP POP JUMPDEST SWAP2 SWAP1 POP JUMP JUMPDEST PUSH0 DUP1 PUSH0 DUP1 PUSH2 0xFFFF DUP6 AND SWAP2 POP PUSH20 0xFFFFFFFFFFFFFFFFFFFFFFFFFFFFFFFFFFFFFFFF DUP6 PUSH1 0x10 SHR AND SWAP1 POP DUP6 PUSH0 DUP4 PUSH2 0xFFFF AND DUP2 MSTORE PUSH1 0x20 ADD SWAP1 DUP2 MSTORE PUSH1 0x20 ADD PUSH0 KECCAK256 PUSH0 SWAP1 SLOAD SWAP1 PUSH2 0x100 EXP SWAP1 DIV PUSH20 0xFFFFFFFFFFFFFFFFFFFFFFFFFFFFFFFFFFFFFFFF AND DUP2 SWAP4 POP SWAP4 POP POP POP SWAP3 POP SWAP3 SWAP1 POP JUMP JUMPDEST PUSH0 DUP1 PUSH0 DUP1 PUSH2 0xFFFF DUP6 AND SWAP2 POP PUSH1 0x1 DUP6 PUSH1 0x10 SHR AND SWAP1 POP DUP6 PUSH0 DUP4 PUSH2 0xFFFF AND DUP2 MSTORE PUSH1 0x20 ADD SWAP1 DUP2 MSTORE PUSH1 0x20 ADD PUSH0 KECCAK256 PUSH0 SWAP1 SLOAD SWAP1 PUSH2 0x100 EXP SWAP1 DIV PUSH20 0xFFFFFFFFFFFFFFFFFFFFFFFFFFFFFFFFFFFFFFFF AND DUP2 SWAP4 POP SWAP4 POP POP POP SWAP3 POP SWAP3 SWAP1 POP JUMP JUMPDEST PUSH0 DUP1 PUSH0 DUP1 PUSH0 DUP1 PUSH2 0xFFFF DUP8 AND SWAP3 POP PUSH16 0xFFFFFFFFFFFFFFFFFFFFFFFFFFFFFFFF DUP8 PUSH1 0x10 SHR AND SWAP2 POP PUSH1 0xFF DUP8 PUSH1 0x90 SHR AND SWAP1 POP PUSH16 0xFFFFFFFFFFFFFFFFFFFFFFFFFFFFFFFF DUP1 AND DUP3 SUB PUSH2 0x474F JUMPI PUSH32 0xFFFFFFFFFFFFFFFFFFFFFFFFFFFFFFFFFFFFFFFFFFFFFFFFFFFFFFFFFFFFFFFF SWAP2 POP JUMPDEST DUP8 PUSH0 DUP5 PUSH2 0xFFFF AND DUP2 MSTORE PUSH1 0x20 ADD SWAP1 DUP2 MSTORE PUSH1 0x20 ADD PUSH0 KECCAK256 PUSH0 SWAP1 SLOAD SWAP1 PUSH2 0x100 EXP SWAP1 DIV PUSH20 0xFFFFFFFFFFFFFFFFFFFFFFFFFFFFFFFFFFFFFFFF AND DUP3 DUP3 SWAP6 POP SWAP6 POP SWAP6 POP POP POP POP SWAP3 POP SWAP3 POP SWAP3 JUMP JUMPDEST PUSH0 DUP1 PUSH0 DUP1 PUSH0 DUP1 PUSH0 PUSH4 0xFFFFFFFF DUP9 PUSH1 0xA0 SHR AND SWAP2 POP PUSH1 0xFF DUP9 PUSH1 0xC0 SHR AND SWAP1 POP PUSH0 DUP1 PUSH0 PUSH2 0x47BE DUP13 DUP13 PUSH2 0x4D54 JUMP JUMPDEST SWAP3 POP SWAP3 POP SWAP3 POP DUP3 DUP3 DUP3 DUP8 DUP8 SWAP10 POP SWAP10 POP SWAP10 POP SWAP10 POP SWAP10 POP POP POP POP POP POP SWAP3 SWAP6 POP SWAP3 SWAP6 SWAP1 SWAP4 POP JUMP JUMPDEST PUSH32 0x0 PUSH20 0xFFFFFFFFFFFFFFFFFFFFFFFFFFFFFFFFFFFFFFFF AND PUSH4 0x707CD716 PUSH1 0x40 MLOAD DUP2 PUSH4 0xFFFFFFFF AND PUSH1 0xE0 SHL DUP2 MSTORE PUSH1 0x4 ADD PUSH1 0x20 PUSH1 0x40 MLOAD DUP1 DUP4 SUB DUP2 DUP7 GAS STATICCALL ISZERO DUP1 ISZERO PUSH2 0x484B JUMPI RETURNDATASIZE PUSH0 DUP1 RETURNDATACOPY RETURNDATASIZE PUSH0 REVERT JUMPDEST POP POP POP POP PUSH1 0x40 MLOAD RETURNDATASIZE PUSH1 0x1F NOT PUSH1 0x1F DUP3 ADD AND DUP3 ADD DUP1 PUSH1 0x40 MSTORE POP DUP2 ADD SWAP1 PUSH2 0x486F SWAP2 SWAP1 PUSH2 0x6763 JUMP JUMPDEST PUSH20 0xFFFFFFFFFFFFFFFFFFFFFFFFFFFFFFFFFFFFFFFF AND PUSH4 0x726600CE CALLER PUSH1 0x40 MLOAD DUP3 PUSH4 0xFFFFFFFF AND PUSH1 0xE0 SHL DUP2 MSTORE PUSH1 0x4 ADD PUSH2 0x48A7 SWAP2 SWAP1 PUSH2 0x5AA8 JUMP JUMPDEST PUSH1 0x20 PUSH1 0x40 MLOAD DUP1 DUP4 SUB DUP2 DUP7 GAS STATICCALL ISZERO DUP1 ISZERO PUSH2 0x48C2 JUMPI RETURNDATASIZE PUSH0 DUP1 RETURNDATACOPY RETURNDATASIZE PUSH0 REVERT JUMPDEST POP POP POP POP PUSH1 0x40 MLOAD RETURNDATASIZE PUSH1 0x1F NOT PUSH1 0x1F DUP3 ADD AND DUP3 ADD DUP1 PUSH1 0x40 MSTORE POP DUP2 ADD SWAP1 PUSH2 0x48E6 SWAP2 SWAP1 PUSH2 0x7155 JUMP JUMPDEST PUSH1 0x40 MLOAD DUP1 PUSH1 0x40 ADD PUSH1 0x40 MSTORE DUP1 PUSH1 0x1 DUP2 MSTORE PUSH1 0x20 ADD PUSH32 0x3600000000000000000000000000000000000000000000000000000000000000 DUP2 MSTORE POP SWAP1 PUSH2 0x495D JUMPI PUSH1 0x40 MLOAD PUSH32 0x8C379A000000000000000000000000000000000000000000000000000000000 DUP2 MSTORE PUSH1 0x4 ADD PUSH2 0x4954 SWAP2 SWAP1 PUSH2 0x6A6C JUMP JUMPDEST PUSH1 0x40 MLOAD DUP1 SWAP2 SUB SWAP1 REVERT JUMPDEST POP JUMP JUMPDEST PUSH0 DUP1 PUSH0 DUP1 PUSH2 0xFFFF DUP6 AND SWAP2 POP PUSH16 0xFFFFFFFFFFFFFFFFFFFFFFFFFFFFFFFF DUP6 PUSH1 0x10 SHR AND SWAP1 POP PUSH16 0xFFFFFFFFFFFFFFFFFFFFFFFFFFFFFFFF DUP1 AND DUP2 SUB PUSH2 0x49C0 JUMPI PUSH32 0xFFFFFFFFFFFFFFFFFFFFFFFFFFFFFFFFFFFFFFFFFFFFFFFFFFFFFFFFFFFFFFFF SWAP1 POP JUMPDEST DUP6 PUSH0 DUP4 PUSH2 0xFFFF AND DUP2 MSTORE PUSH1 0x20 ADD SWAP1 DUP2 MSTORE PUSH1 0x20 ADD PUSH0 KECCAK256 PUSH0 SWAP1 SLOAD SWAP1 PUSH2 0x100 EXP SWAP1 DIV PUSH20 0xFFFFFFFFFFFFFFFFFFFFFFFFFFFFFFFFFFFFFFFF AND DUP2 SWAP4 POP SWAP4 POP POP POP SWAP3 POP SWAP3 SWAP1 POP JUMP JUMPDEST PUSH0 DUP1 PUSH0 DUP1 PUSH0 DUP1 PUSH0 DUP1 PUSH0 DUP1 PUSH2 0x4A16 DUP13 DUP13 PUSH2 0x46E4 JUMP JUMPDEST SWAP3 POP SWAP3 POP SWAP3 POP PUSH4 0xFFFFFFFF DUP12 PUSH1 0x98 SHR AND SWAP5 POP PUSH1 0xFF DUP12 PUSH1 0xB8 SHR AND SWAP4 POP DUP3 DUP3 DUP3 DUP8 DUP8 SWAP10 POP SWAP10 POP SWAP10 POP SWAP10 POP SWAP10 POP POP POP POP POP POP SWAP3 SWAP6 POP SWAP3 SWAP6 SWAP1 SWAP4 POP JUMP JUMPDEST PUSH0 PUSH1 0x1 SWAP1 POP SWAP1 JUMP JUMPDEST PUSH0 DUP1 ADDRESS EXTCODESIZE SWAP1 POP PUSH0 DUP2 EQ SWAP2 POP POP SWAP1 JUMP JUMPDEST PUSH32 0x0 PUSH20 0xFFFFFFFFFFFFFFFFFFFFFFFFFFFFFFFFFFFFFFFF AND PUSH4 0x707CD716 PUSH1 0x40 MLOAD DUP2 PUSH4 0xFFFFFFFF AND PUSH1 0xE0 SHL DUP2 MSTORE PUSH1 0x4 ADD PUSH1 0x20 PUSH1 0x40 MLOAD DUP1 DUP4 SUB DUP2 DUP7 GAS STATICCALL ISZERO DUP1 ISZERO PUSH2 0x4ACF JUMPI RETURNDATASIZE PUSH0 DUP1 RETURNDATACOPY RETURNDATASIZE PUSH0 REVERT JUMPDEST POP POP POP POP PUSH1 0x40 MLOAD RETURNDATASIZE PUSH1 0x1F NOT PUSH1 0x1F DUP3 ADD AND DUP3 ADD DUP1 PUSH1 0x40 MSTORE POP DUP2 ADD SWAP1 PUSH2 0x4AF3 SWAP2 SWAP1 PUSH2 0x6763 JUMP JUMPDEST PUSH20 0xFFFFFFFFFFFFFFFFFFFFFFFFFFFFFFFFFFFFFFFF AND PUSH4 0x7BE53CA1 CALLER PUSH1 0x40 MLOAD DUP3 PUSH4 0xFFFFFFFF AND PUSH1 0xE0 SHL DUP2 MSTORE PUSH1 0x4 ADD PUSH2 0x4B2B SWAP2 SWAP1 PUSH2 0x5AA8 JUMP JUMPDEST PUSH1 0x20 PUSH1 0x40 MLOAD DUP1 DUP4 SUB DUP2 DUP7 GAS STATICCALL ISZERO DUP1 ISZERO PUSH2 0x4B46 JUMPI RETURNDATASIZE PUSH0 DUP1 RETURNDATACOPY RETURNDATASIZE PUSH0 REVERT JUMPDEST POP POP POP POP PUSH1 0x40 MLOAD RETURNDATASIZE PUSH1 0x1F NOT PUSH1 0x1F DUP3 ADD AND DUP3 ADD DUP1 PUSH1 0x40 MSTORE POP DUP2 ADD SWAP1 PUSH2 0x4B6A SWAP2 SWAP1 PUSH2 0x7155 JUMP JUMPDEST PUSH1 0x40 MLOAD DUP1 PUSH1 0x40 ADD PUSH1 0x40 MSTORE DUP1 PUSH1 0x1 DUP2 MSTORE PUSH1 0x20 ADD PUSH32 0x3100000000000000000000000000000000000000000000000000000000000000 DUP2 MSTORE POP SWAP1 PUSH2 0x4BE1 JUMPI PUSH1 0x40 MLOAD PUSH32 0x8C379A000000000000000000000000000000000000000000000000000000000 DUP2 MSTORE PUSH1 0x4 ADD PUSH2 0x4BD8 SWAP2 SWAP1 PUSH2 0x6A6C JUMP JUMPDEST PUSH1 0x40 MLOAD DUP1 SWAP2 SUB SWAP1 REVERT JUMPDEST POP JUMP JUMPDEST PUSH0 DUP1 DUP3 PUSH1 0x3 ADD PUSH1 0x10 SWAP1 SLOAD SWAP1 PUSH2 0x100 EXP SWAP1 DIV PUSH5 0xFFFFFFFFFF AND SWAP1 POP TIMESTAMP DUP2 PUSH5 0xFFFFFFFFFF AND SUB PUSH2 0x4C46 JUMPI DUP3 PUSH1 0x1 ADD PUSH0 SWAP1 SLOAD SWAP1 PUSH2 0x100 EXP SWAP1 DIV PUSH16 0xFFFFFFFFFFFFFFFFFFFFFFFFFFFFFFFF AND PUSH16 0xFFFFFFFFFFFFFFFFFFFFFFFFFFFFFFFF AND SWAP2 POP POP PUSH2 0x4CC9 JUMP JUMPDEST PUSH2 0x4CC5 DUP4 PUSH1 0x1 ADD PUSH0 SWAP1 SLOAD SWAP1 PUSH2 0x100 EXP SWAP1 DIV PUSH16 0xFFFFFFFFFFFFFFFFFFFFFFFFFFFFFFFF AND PUSH16 0xFFFFFFFFFFFFFFFFFFFFFFFFFFFFFFFF AND PUSH2 0x4CB7 DUP6 PUSH1 0x1 ADD PUSH1 0x10 SWAP1 SLOAD SWAP1 PUSH2 0x100 EXP SWAP1 DIV PUSH16 0xFFFFFFFFFFFFFFFFFFFFFFFFFFFFFFFF AND PUSH16 0xFFFFFFFFFFFFFFFFFFFFFFFFFFFFFFFF AND DUP5 PUSH2 0x4F3C JUMP JUMPDEST PUSH2 0x4EF4 SWAP1 SWAP2 SWAP1 PUSH4 0xFFFFFFFF AND JUMP JUMPDEST SWAP2 POP POP JUMPDEST SWAP2 SWAP1 POP JUMP JUMPDEST PUSH0 DUP1 PUSH0 DUP1 PUSH0 DUP1 PUSH0 DUP1 PUSH2 0xFFFF DUP10 AND SWAP4 POP PUSH16 0xFFFFFFFFFFFFFFFFFFFFFFFFFFFFFFFF DUP10 PUSH1 0x10 SHR AND SWAP3 POP PUSH1 0xFF DUP10 PUSH1 0x90 SHR AND SWAP2 POP PUSH2 0xFFFF DUP10 PUSH1 0x98 SHR AND SWAP1 POP DUP10 PUSH0 DUP6 PUSH2 0xFFFF AND DUP2 MSTORE PUSH1 0x20 ADD SWAP1 DUP2 MSTORE PUSH1 0x20 ADD PUSH0 KECCAK256 PUSH0 SWAP1 SLOAD SWAP1 PUSH2 0x100 EXP SWAP1 DIV PUSH20 0xFFFFFFFFFFFFFFFFFFFFFFFFFFFFFFFFFFFFFFFF AND DUP4 DUP4 DUP4 SWAP8 POP SWAP8 POP SWAP8 POP SWAP8 POP POP POP POP POP SWAP3 SWAP6 SWAP2 SWAP5 POP SWAP3 POP JUMP JUMPDEST PUSH0 DUP1 PUSH0 DUP1 PUSH0 DUP1 PUSH2 0xFFFF DUP8 AND SWAP3 POP PUSH16 0xFFFFFFFFFFFFFFFFFFFFFFFFFFFFFFFF DUP8 PUSH1 0x10 SHR AND SWAP2 POP PUSH2 0xFFFF DUP8 PUSH1 0x90 SHR AND SWAP1 POP DUP8 PUSH0 DUP5 PUSH2 0xFFFF AND DUP2 MSTORE PUSH1 0x20 ADD SWAP1 DUP2 MSTORE PUSH1 0x20 ADD PUSH0 KECCAK256 PUSH0 SWAP1 SLOAD SWAP1 PUSH2 0x100 EXP SWAP1 DIV PUSH20 0xFFFFFFFFFFFFFFFFFFFFFFFFFFFFFFFFFFFFFFFF AND DUP3 DUP3 SWAP6 POP SWAP6 POP SWAP6 POP POP POP POP SWAP3 POP SWAP3 POP SWAP3 JUMP JUMPDEST PUSH0 DUP1 PUSH0 DUP1 PUSH0 DUP1 PUSH0 DUP1 PUSH0 DUP1 PUSH2 0xFFFF DUP13 AND SWAP5 POP PUSH2 0xFFFF DUP13 PUSH1 0x10 SHR AND SWAP4 POP PUSH20 0xFFFFFFFFFFFFFFFFFFFFFFFFFFFFFFFFFFFFFFFF DUP13 PUSH1 0x20 SHR AND SWAP3 POP PUSH16 0xFFFFFFFFFFFFFFFFFFFFFFFFFFFFFFFF DUP12 AND SWAP2 POP PUSH1 0x1 DUP12 PUSH1 0x80 SHR AND SWAP1 POP PUSH16 0xFFFFFFFFFFFFFFFFFFFFFFFFFFFFFFFF DUP1 AND DUP3 SUB PUSH2 0x4E5B JUMPI PUSH32 0xFFFFFFFFFFFFFFFFFFFFFFFFFFFFFFFFFFFFFFFFFFFFFFFFFFFFFFFFFFFFFFFF SWAP2 POP JUMPDEST DUP13 PUSH0 DUP7 PUSH2 0xFFFF AND DUP2 MSTORE PUSH1 0x20 ADD SWAP1 DUP2 MSTORE PUSH1 0x20 ADD PUSH0 KECCAK256 PUSH0 SWAP1 SLOAD SWAP1 PUSH2 0x100 EXP SWAP1 DIV PUSH20 0xFFFFFFFFFFFFFFFFFFFFFFFFFFFFFFFFFFFFFFFF AND DUP14 PUSH0 DUP7 PUSH2 0xFFFF AND DUP2 MSTORE PUSH1 0x20 ADD SWAP1 DUP2 MSTORE PUSH1 0x20 ADD PUSH0 KECCAK256 PUSH0 SWAP1 SLOAD SWAP1 PUSH2 0x100 EXP SWAP1 DIV PUSH20 0xFFFFFFFFFFFFFFFFFFFFFFFFFFFFFFFFFFFFFFFF AND DUP5 DUP5 DUP5 SWAP10 POP SWAP10 POP SWAP10 POP SWAP10 POP SWAP10 POP POP POP POP POP POP SWAP4 SWAP8 SWAP3 SWAP7 POP SWAP4 POP SWAP4 POP JUMP JUMPDEST PUSH0 PUSH2 0x4EEC DUP4 DUP4 TIMESTAMP PUSH2 0x4F96 JUMP JUMPDEST SWAP1 POP SWAP3 SWAP2 POP POP JUMP JUMPDEST PUSH0 DUP2 PUSH12 0x19D971E4FE8401E74000000 PUSH0 NOT SUB DIV DUP4 GT ISZERO DUP3 ISZERO OR PUSH2 0x4F15 JUMPI PUSH0 DUP1 REVERT JUMPDEST PUSH12 0x33B2E3C9FD0803CE8000000 PUSH12 0x19D971E4FE8401E74000000 DUP4 DUP6 MUL ADD DIV SWAP1 POP SWAP3 SWAP2 POP POP JUMP JUMPDEST PUSH0 DUP1 DUP3 PUSH5 0xFFFFFFFFFF AND TIMESTAMP PUSH2 0x4F51 SWAP2 SWAP1 PUSH2 0x793C JUMP JUMPDEST DUP5 PUSH2 0x4F5C SWAP2 SWAP1 PUSH2 0x7E7A JUMP JUMPDEST SWAP1 POP PUSH4 0x1E13380 DUP2 DUP2 PUSH2 0x4F72 JUMPI PUSH2 0x4F71 PUSH2 0x7EBB JUMP JUMPDEST JUMPDEST DIV SWAP1 POP DUP1 PUSH12 0x33B2E3C9FD0803CE8000000 PUSH2 0x4F8D SWAP2 SWAP1 PUSH2 0x7EE8 JUMP JUMPDEST SWAP2 POP POP SWAP3 SWAP2 POP POP JUMP JUMPDEST PUSH0 DUP1 DUP4 PUSH5 0xFFFFFFFFFF AND DUP4 PUSH2 0x4FAB SWAP2 SWAP1 PUSH2 0x793C JUMP JUMPDEST SWAP1 POP PUSH0 DUP2 SUB PUSH2 0x4FC9 JUMPI PUSH12 0x33B2E3C9FD0803CE8000000 SWAP2 POP POP PUSH2 0x50F5 JUMP JUMPDEST PUSH0 DUP1 PUSH0 DUP1 PUSH1 0x1 DUP6 SUB SWAP4 POP PUSH1 0x2 DUP6 GT PUSH2 0x4FE1 JUMPI PUSH0 PUSH2 0x4FE6 JUMP JUMPDEST PUSH1 0x2 DUP6 SUB JUMPDEST SWAP3 POP PUSH4 0x1E13380 DUP1 MUL PUSH2 0x5002 DUP11 DUP12 PUSH2 0x4EF4 SWAP1 SWAP2 SWAP1 PUSH4 0xFFFFFFFF AND JUMP JUMPDEST DUP2 PUSH2 0x5010 JUMPI PUSH2 0x500F PUSH2 0x7EBB JUMP JUMPDEST JUMPDEST DIV SWAP2 POP PUSH4 0x1E13380 PUSH2 0x502B DUP11 DUP5 PUSH2 0x4EF4 SWAP1 SWAP2 SWAP1 PUSH4 0xFFFFFFFF AND JUMP JUMPDEST DUP2 PUSH2 0x5039 JUMPI PUSH2 0x5038 PUSH2 0x7EBB JUMP JUMPDEST JUMPDEST DIV SWAP1 POP PUSH0 DUP3 DUP6 DUP8 PUSH2 0x504A SWAP2 SWAP1 PUSH2 0x7E7A JUMP JUMPDEST PUSH2 0x5054 SWAP2 SWAP1 PUSH2 0x7E7A JUMP JUMPDEST SWAP1 POP PUSH1 0x2 DUP2 DUP2 PUSH2 0x5067 JUMPI PUSH2 0x5066 PUSH2 0x7EBB JUMP JUMPDEST JUMPDEST DIV SWAP1 POP PUSH0 DUP3 DUP6 DUP8 DUP10 PUSH2 0x5079 SWAP2 SWAP1 PUSH2 0x7E7A JUMP JUMPDEST PUSH2 0x5083 SWAP2 SWAP1 PUSH2 0x7E7A JUMP JUMPDEST PUSH2 0x508D SWAP2 SWAP1 PUSH2 0x7E7A JUMP JUMPDEST SWAP1 POP PUSH1 0x6 DUP2 DUP2 PUSH2 0x50A0 JUMPI PUSH2 0x509F PUSH2 0x7EBB JUMP JUMPDEST JUMPDEST DIV SWAP1 POP DUP1 DUP3 PUSH4 0x1E13380 DUP10 DUP15 PUSH2 0x50B6 SWAP2 SWAP1 PUSH2 0x7E7A JUMP JUMPDEST PUSH2 0x50C0 SWAP2 SWAP1 PUSH2 0x7F1B JUMP JUMPDEST PUSH12 0x33B2E3C9FD0803CE8000000 PUSH2 0x50D7 SWAP2 SWAP1 PUSH2 0x7EE8 JUMP JUMPDEST PUSH2 0x50E1 SWAP2 SWAP1 PUSH2 0x7EE8 JUMP JUMPDEST PUSH2 0x50EB SWAP2 SWAP1 PUSH2 0x7EE8 JUMP JUMPDEST SWAP8 POP POP POP POP POP POP POP POP JUMPDEST SWAP4 SWAP3 POP POP POP JUMP JUMPDEST PUSH1 0x40 MLOAD DUP1 PUSH2 0x1E0 ADD PUSH1 0x40 MSTORE DUP1 PUSH2 0x5110 PUSH2 0x52BC JUMP JUMPDEST DUP2 MSTORE PUSH1 0x20 ADD PUSH0 PUSH16 0xFFFFFFFFFFFFFFFFFFFFFFFFFFFFFFFF AND DUP2 MSTORE PUSH1 0x20 ADD PUSH0 PUSH16 0xFFFFFFFFFFFFFFFFFFFFFFFFFFFFFFFF AND DUP2 MSTORE PUSH1 0x20 ADD PUSH0 PUSH16 0xFFFFFFFFFFFFFFFFFFFFFFFFFFFFFFFF AND DUP2 MSTORE PUSH1 0x20 ADD PUSH0 PUSH16 0xFFFFFFFFFFFFFFFFFFFFFFFFFFFFFFFF AND DUP2 MSTORE PUSH1 0x20 ADD PUSH0 PUSH16 0xFFFFFFFFFFFFFFFFFFFFFFFFFFFFFFFF AND DUP2 MSTORE PUSH1 0x20 ADD PUSH0 PUSH5 0xFFFFFFFFFF AND DUP2 MSTORE PUSH1 0x20 ADD PUSH0 PUSH2 0xFFFF AND DUP2 MSTORE PUSH1 0x20 ADD PUSH0 PUSH20 0xFFFFFFFFFFFFFFFFFFFFFFFFFFFFFFFFFFFFFFFF AND DUP2 MSTORE PUSH1 0x20 ADD PUSH0 PUSH20 0xFFFFFFFFFFFFFFFFFFFFFFFFFFFFFFFFFFFFFFFF AND DUP2 MSTORE PUSH1 0x20 ADD PUSH0 PUSH20 0xFFFFFFFFFFFFFFFFFFFFFFFFFFFFFFFFFFFFFFFF AND DUP2 MSTORE PUSH1 0x20 ADD PUSH0 PUSH20 0xFFFFFFFFFFFFFFFFFFFFFFFFFFFFFFFFFFFFFFFF AND DUP2 MSTORE PUSH1 0x20 ADD PUSH0 PUSH16 0xFFFFFFFFFFFFFFFFFFFFFFFFFFFFFFFF AND DUP2 MSTORE PUSH1 0x20 ADD PUSH0 PUSH16 0xFFFFFFFFFFFFFFFFFFFFFFFFFFFFFFFF AND DUP2 MSTORE PUSH1 0x20 ADD PUSH0 PUSH16 0xFFFFFFFFFFFFFFFFFFFFFFFFFFFFFFFF AND DUP2 MSTORE POP SWAP1 JUMP JUMPDEST PUSH1 0x40 MLOAD DUP1 PUSH1 0x20 ADD PUSH1 0x40 MSTORE DUP1 PUSH0 DUP2 MSTORE POP SWAP1 JUMP JUMPDEST PUSH1 0x40 MLOAD DUP1 PUSH1 0xA0 ADD PUSH1 0x40 MSTORE DUP1 PUSH0 PUSH2 0xFFFF AND DUP2 MSTORE PUSH1 0x20 ADD PUSH0 PUSH2 0xFFFF AND DUP2 MSTORE PUSH1 0x20 ADD PUSH0 PUSH2 0xFFFF AND DUP2 MSTORE PUSH1 0x20 ADD PUSH0 PUSH20 0xFFFFFFFFFFFFFFFFFFFFFFFFFFFFFFFFFFFFFFFF AND DUP2 MSTORE PUSH1 0x20 ADD PUSH1 0x60 DUP2 MSTORE POP SWAP1 JUMP JUMPDEST PUSH1 0x40 MLOAD DUP1 PUSH1 0x20 ADD PUSH1 0x40 MSTORE DUP1 PUSH0 DUP2 MSTORE POP SWAP1 JUMP JUMPDEST PUSH0 PUSH1 0x40 MLOAD SWAP1 POP SWAP1 JUMP JUMPDEST PUSH0 DUP1 REVERT JUMPDEST PUSH0 DUP1 REVERT JUMPDEST PUSH0 PUSH20 0xFFFFFFFFFFFFFFFFFFFFFFFFFFFFFFFFFFFFFFFF DUP3 AND SWAP1 POP SWAP2 SWAP1 POP JUMP JUMPDEST PUSH0 PUSH2 0x5308 DUP3 PUSH2 0x52DF JUMP JUMPDEST SWAP1 POP SWAP2 SWAP1 POP JUMP JUMPDEST PUSH2 0x5318 DUP2 PUSH2 0x52FE JUMP JUMPDEST DUP2 EQ PUSH2 0x5322 JUMPI PUSH0 DUP1 REVERT JUMPDEST POP JUMP JUMPDEST PUSH0 DUP2 CALLDATALOAD SWAP1 POP PUSH2 0x5333 DUP2 PUSH2 0x530F JUMP JUMPDEST SWAP3 SWAP2 POP POP JUMP JUMPDEST PUSH0 DUP2 SWAP1 POP SWAP2 SWAP1 POP JUMP JUMPDEST PUSH2 0x534B DUP2 PUSH2 0x5339 JUMP JUMPDEST DUP2 EQ PUSH2 0x5355 JUMPI PUSH0 DUP1 REVERT JUMPDEST POP JUMP JUMPDEST PUSH0 DUP2 CALLDATALOAD SWAP1 POP PUSH2 0x5366 DUP2 PUSH2 0x5342 JUMP JUMPDEST SWAP3 SWAP2 POP POP JUMP JUMPDEST PUSH0 DUP2 ISZERO ISZERO SWAP1 POP SWAP2 SWAP1 POP JUMP JUMPDEST PUSH2 0x5380 DUP2 PUSH2 0x536C JUMP JUMPDEST DUP2 EQ PUSH2 0x538A JUMPI PUSH0 DUP1 REVERT JUMPDEST POP JUMP JUMPDEST PUSH0 DUP2 CALLDATALOAD SWAP1 POP PUSH2 0x539B DUP2 PUSH2 0x5377 JUMP JUMPDEST SWAP3 SWAP2 POP POP JUMP JUMPDEST PUSH0 DUP1 PUSH0 DUP1 PUSH0 PUSH1 0xA0 DUP7 DUP9 SUB SLT ISZERO PUSH2 0x53BA JUMPI PUSH2 0x53B9 PUSH2 0x52D7 JUMP JUMPDEST JUMPDEST PUSH0 PUSH2 0x53C7 DUP9 DUP3 DUP10 ADD PUSH2 0x5325 JUMP JUMPDEST SWAP6 POP POP PUSH1 0x20 PUSH2 0x53D8 DUP9 DUP3 DUP10 ADD PUSH2 0x5325 JUMP JUMPDEST SWAP5 POP POP PUSH1 0x40 PUSH2 0x53E9 DUP9 DUP3 DUP10 ADD PUSH2 0x5325 JUMP JUMPDEST SWAP4 POP POP PUSH1 0x60 PUSH2 0x53FA DUP9 DUP3 DUP10 ADD PUSH2 0x5358 JUMP JUMPDEST SWAP3 POP POP PUSH1 0x80 PUSH2 0x540B DUP9 DUP3 DUP10 ADD PUSH2 0x538D JUMP JUMPDEST SWAP2 POP POP SWAP3 SWAP6 POP SWAP3 SWAP6 SWAP1 SWAP4 POP JUMP JUMPDEST PUSH2 0x5421 DUP2 PUSH2 0x5339 JUMP JUMPDEST DUP3 MSTORE POP POP JUMP JUMPDEST PUSH0 PUSH1 0x20 DUP3 ADD SWAP1 POP PUSH2 0x543A PUSH0 DUP4 ADD DUP5 PUSH2 0x5418 JUMP JUMPDEST SWAP3 SWAP2 POP POP JUMP JUMPDEST PUSH0 PUSH2 0xFFFF DUP3 AND SWAP1 POP SWAP2 SWAP1 POP JUMP JUMPDEST PUSH2 0x5456 DUP2 PUSH2 0x5440 JUMP JUMPDEST DUP2 EQ PUSH2 0x5460 JUMPI PUSH0 DUP1 REVERT JUMPDEST POP JUMP JUMPDEST PUSH0 DUP2 CALLDATALOAD SWAP1 POP PUSH2 0x5471 DUP2 PUSH2 0x544D JUMP JUMPDEST SWAP3 SWAP2 POP POP JUMP JUMPDEST PUSH0 PUSH1 0xFF DUP3 AND SWAP1 POP SWAP2 SWAP1 POP JUMP JUMPDEST PUSH2 0x548C DUP2 PUSH2 0x5477 JUMP JUMPDEST DUP2 EQ PUSH2 0x5496 JUMPI PUSH0 DUP1 REVERT JUMPDEST POP JUMP JUMPDEST PUSH0 DUP2 CALLDATALOAD SWAP1 POP PUSH2 0x54A7 DUP2 PUSH2 0x5483 JUMP JUMPDEST SWAP3 SWAP2 POP POP JUMP JUMPDEST PUSH0 DUP2 SWAP1 POP SWAP2 SWAP1 POP JUMP JUMPDEST PUSH2 0x54BF DUP2 PUSH2 0x54AD JUMP JUMPDEST DUP2 EQ PUSH2 0x54C9 JUMPI PUSH0 DUP1 REVERT JUMPDEST POP JUMP JUMPDEST PUSH0 DUP2 CALLDATALOAD SWAP1 POP PUSH2 0x54DA DUP2 PUSH2 0x54B6 JUMP JUMPDEST SWAP3 SWAP2 POP POP JUMP JUMPDEST PUSH0 DUP1 PUSH0 DUP1 PUSH0 DUP1 PUSH0 DUP1 PUSH2 0x100 DUP10 DUP12 SUB SLT ISZERO PUSH2 0x54FD JUMPI PUSH2 0x54FC PUSH2 0x52D7 JUMP JUMPDEST JUMPDEST PUSH0 PUSH2 0x550A DUP12 DUP3 DUP13 ADD PUSH2 0x5325 JUMP JUMPDEST SWAP9 POP POP PUSH1 0x20 PUSH2 0x551B DUP12 DUP3 DUP13 ADD PUSH2 0x5358 JUMP JUMPDEST SWAP8 POP POP PUSH1 0x40 PUSH2 0x552C DUP12 DUP3 DUP13 ADD PUSH2 0x5325 JUMP JUMPDEST SWAP7 POP POP PUSH1 0x60 PUSH2 0x553D DUP12 DUP3 DUP13 ADD PUSH2 0x5463 JUMP JUMPDEST SWAP6 POP POP PUSH1 0x80 PUSH2 0x554E DUP12 DUP3 DUP13 ADD PUSH2 0x5358 JUMP JUMPDEST SWAP5 POP POP PUSH1 0xA0 PUSH2 0x555F DUP12 DUP3 DUP13 ADD PUSH2 0x5499 JUMP JUMPDEST SWAP4 POP POP PUSH1 0xC0 PUSH2 0x5570 DUP12 DUP3 DUP13 ADD PUSH2 0x54CC JUMP JUMPDEST SWAP3 POP POP PUSH1 0xE0 PUSH2 0x5581 DUP12 DUP3 DUP13 ADD PUSH2 0x54CC JUMP JUMPDEST SWAP2 POP POP SWAP3 SWAP6 SWAP9 POP SWAP3 SWAP6 SWAP9 SWAP1 SWAP4 SWAP7 POP JUMP JUMPDEST PUSH0 DUP2 SWAP1 POP SWAP2 SWAP1 POP JUMP JUMPDEST PUSH0 PUSH2 0x55B4 PUSH2 0x55AF PUSH2 0x55AA DUP5 PUSH2 0x52DF JUMP JUMPDEST PUSH2 0x5591 JUMP JUMPDEST PUSH2 0x52DF JUMP JUMPDEST SWAP1 POP SWAP2 SWAP1 POP JUMP JUMPDEST PUSH0 PUSH2 0x55C5 DUP3 PUSH2 0x559A JUMP JUMPDEST SWAP1 POP SWAP2 SWAP1 POP JUMP JUMPDEST PUSH0 PUSH2 0x55D6 DUP3 PUSH2 0x55BB JUMP JUMPDEST SWAP1 POP SWAP2 SWAP1 POP JUMP JUMPDEST PUSH2 0x55E6 DUP2 PUSH2 0x55CC JUMP JUMPDEST DUP3 MSTORE POP POP JUMP JUMPDEST PUSH0 PUSH1 0x20 DUP3 ADD SWAP1 POP PUSH2 0x55FF PUSH0 DUP4 ADD DUP5 PUSH2 0x55DD JUMP JUMPDEST SWAP3 SWAP2 POP POP JUMP JUMPDEST PUSH0 PUSH16 0xFFFFFFFFFFFFFFFFFFFFFFFFFFFFFFFF DUP3 AND SWAP1 POP SWAP2 SWAP1 POP JUMP JUMPDEST PUSH2 0x5629 DUP2 PUSH2 0x5605 JUMP JUMPDEST DUP3 MSTORE POP POP JUMP JUMPDEST PUSH0 PUSH1 0x20 DUP3 ADD SWAP1 POP PUSH2 0x5642 PUSH0 DUP4 ADD DUP5 PUSH2 0x5620 JUMP JUMPDEST SWAP3 SWAP2 POP POP JUMP JUMPDEST PUSH0 DUP1 PUSH1 0x40 DUP4 DUP6 SUB SLT ISZERO PUSH2 0x565E JUMPI PUSH2 0x565D PUSH2 0x52D7 JUMP JUMPDEST JUMPDEST PUSH0 PUSH2 0x566B DUP6 DUP3 DUP7 ADD PUSH2 0x5325 JUMP JUMPDEST SWAP3 POP POP PUSH1 0x20 PUSH2 0x567C DUP6 DUP3 DUP7 ADD PUSH2 0x5325 JUMP JUMPDEST SWAP2 POP POP SWAP3 POP SWAP3 SWAP1 POP JUMP JUMPDEST PUSH0 PUSH1 0x20 DUP3 DUP5 SUB SLT ISZERO PUSH2 0x569B JUMPI PUSH2 0x569A PUSH2 0x52D7 JUMP JUMPDEST JUMPDEST PUSH0 PUSH2 0x56A8 DUP5 DUP3 DUP6 ADD PUSH2 0x54CC JUMP JUMPDEST SWAP2 POP POP SWAP3 SWAP2 POP POP JUMP JUMPDEST PUSH0 PUSH1 0x20 DUP3 DUP5 SUB SLT ISZERO PUSH2 0x56C6 JUMPI PUSH2 0x56C5 PUSH2 0x52D7 JUMP JUMPDEST JUMPDEST PUSH0 PUSH2 0x56D3 DUP5 DUP3 DUP6 ADD PUSH2 0x5499 JUMP JUMPDEST SWAP2 POP POP SWAP3 SWAP2 POP POP JUMP JUMPDEST PUSH0 DUP1 PUSH0 PUSH1 0x60 DUP5 DUP7 SUB SLT ISZERO PUSH2 0x56F3 JUMPI PUSH2 0x56F2 PUSH2 0x52D7 JUMP JUMPDEST JUMPDEST PUSH0 PUSH2 0x5700 DUP7 DUP3 DUP8 ADD PUSH2 0x5325 JUMP JUMPDEST SWAP4 POP POP PUSH1 0x20 PUSH2 0x5711 DUP7 DUP3 DUP8 ADD PUSH2 0x5358 JUMP JUMPDEST SWAP3 POP POP PUSH1 0x40 PUSH2 0x5722 DUP7 DUP3 DUP8 ADD PUSH2 0x5358 JUMP JUMPDEST SWAP2 POP POP SWAP3 POP SWAP3 POP SWAP3 JUMP JUMPDEST PUSH0 PUSH1 0x20 DUP3 DUP5 SUB SLT ISZERO PUSH2 0x5741 JUMPI PUSH2 0x5740 PUSH2 0x52D7 JUMP JUMPDEST JUMPDEST PUSH0 PUSH2 0x574E DUP5 DUP3 DUP6 ADD PUSH2 0x5358 JUMP JUMPDEST SWAP2 POP POP SWAP3 SWAP2 POP POP JUMP JUMPDEST PUSH0 PUSH1 0x20 DUP3 DUP5 SUB SLT ISZERO PUSH2 0x576C JUMPI PUSH2 0x576B PUSH2 0x52D7 JUMP JUMPDEST JUMPDEST PUSH0 PUSH2 0x5779 DUP5 DUP3 DUP6 ADD PUSH2 0x5325 JUMP JUMPDEST SWAP2 POP POP SWAP3 SWAP2 POP POP JUMP JUMPDEST PUSH2 0x578B DUP2 PUSH2 0x5339 JUMP JUMPDEST DUP3 MSTORE POP POP JUMP JUMPDEST PUSH1 0x20 DUP3 ADD PUSH0 DUP3 ADD MLOAD PUSH2 0x57A5 PUSH0 DUP6 ADD DUP3 PUSH2 0x5782 JUMP JUMPDEST POP POP POP POP JUMP JUMPDEST PUSH2 0x57B4 DUP2 PUSH2 0x5605 JUMP JUMPDEST DUP3 MSTORE POP POP JUMP JUMPDEST PUSH0 PUSH5 0xFFFFFFFFFF DUP3 AND SWAP1 POP SWAP2 SWAP1 POP JUMP JUMPDEST PUSH2 0x57D3 DUP2 PUSH2 0x57BA JUMP JUMPDEST DUP3 MSTORE POP POP JUMP JUMPDEST PUSH2 0x57E2 DUP2 PUSH2 0x5440 JUMP JUMPDEST DUP3 MSTORE POP POP JUMP JUMPDEST PUSH2 0x57F1 DUP2 PUSH2 0x52FE JUMP JUMPDEST DUP3 MSTORE POP POP JUMP JUMPDEST PUSH2 0x1E0 DUP3 ADD PUSH0 DUP3 ADD MLOAD PUSH2 0x580C PUSH0 DUP6 ADD DUP3 PUSH2 0x5791 JUMP JUMPDEST POP PUSH1 0x20 DUP3 ADD MLOAD PUSH2 0x581F PUSH1 0x20 DUP6 ADD DUP3 PUSH2 0x57AB JUMP JUMPDEST POP PUSH1 0x40 DUP3 ADD MLOAD PUSH2 0x5832 PUSH1 0x40 DUP6 ADD DUP3 PUSH2 0x57AB JUMP JUMPDEST POP PUSH1 0x60 DUP3 ADD MLOAD PUSH2 0x5845 PUSH1 0x60 DUP6 ADD DUP3 PUSH2 0x57AB JUMP JUMPDEST POP PUSH1 0x80 DUP3 ADD MLOAD PUSH2 0x5858 PUSH1 0x80 DUP6 ADD DUP3 PUSH2 0x57AB JUMP JUMPDEST POP PUSH1 0xA0 DUP3 ADD MLOAD PUSH2 0x586B PUSH1 0xA0 DUP6 ADD DUP3 PUSH2 0x57AB JUMP JUMPDEST POP PUSH1 0xC0 DUP3 ADD MLOAD PUSH2 0x587E PUSH1 0xC0 DUP6 ADD DUP3 PUSH2 0x57CA JUMP JUMPDEST POP PUSH1 0xE0 DUP3 ADD MLOAD PUSH2 0x5891 PUSH1 0xE0 DUP6 ADD DUP3 PUSH2 0x57D9 JUMP JUMPDEST POP PUSH2 0x100 DUP3 ADD MLOAD PUSH2 0x58A6 PUSH2 0x100 DUP6 ADD DUP3 PUSH2 0x57E8 JUMP JUMPDEST POP PUSH2 0x120 DUP3 ADD MLOAD PUSH2 0x58BB PUSH2 0x120 DUP6 ADD DUP3 PUSH2 0x57E8 JUMP JUMPDEST POP PUSH2 0x140 DUP3 ADD MLOAD PUSH2 0x58D0 PUSH2 0x140 DUP6 ADD DUP3 PUSH2 0x57E8 JUMP JUMPDEST POP PUSH2 0x160 DUP3 ADD MLOAD PUSH2 0x58E5 PUSH2 0x160 DUP6 ADD DUP3 PUSH2 0x57E8 JUMP JUMPDEST POP PUSH2 0x180 DUP3 ADD MLOAD PUSH2 0x58FA PUSH2 0x180 DUP6 ADD DUP3 PUSH2 0x57AB JUMP JUMPDEST POP PUSH2 0x1A0 DUP3 ADD MLOAD PUSH2 0x590F PUSH2 0x1A0 DUP6 ADD DUP3 PUSH2 0x57AB JUMP JUMPDEST POP PUSH2 0x1C0 DUP3 ADD MLOAD PUSH2 0x5924 PUSH2 0x1C0 DUP6 ADD DUP3 PUSH2 0x57AB JUMP JUMPDEST POP POP POP POP JUMP JUMPDEST PUSH0 PUSH2 0x1E0 DUP3 ADD SWAP1 POP PUSH2 0x593E PUSH0 DUP4 ADD DUP5 PUSH2 0x57F7 JUMP JUMPDEST SWAP3 SWAP2 POP POP JUMP JUMPDEST PUSH0 DUP1 REVERT JUMPDEST PUSH0 DUP1 REVERT JUMPDEST PUSH0 DUP1 REVERT JUMPDEST PUSH0 DUP1 DUP4 PUSH1 0x1F DUP5 ADD SLT PUSH2 0x5965 JUMPI PUSH2 0x5964 PUSH2 0x5944 JUMP JUMPDEST JUMPDEST DUP3 CALLDATALOAD SWAP1 POP PUSH8 0xFFFFFFFFFFFFFFFF DUP2 GT ISZERO PUSH2 0x5982 JUMPI PUSH2 0x5981 PUSH2 0x5948 JUMP JUMPDEST JUMPDEST PUSH1 0x20 DUP4 ADD SWAP2 POP DUP4 PUSH1 0x1 DUP3 MUL DUP4 ADD GT ISZERO PUSH2 0x599E JUMPI PUSH2 0x599D PUSH2 0x594C JUMP JUMPDEST JUMPDEST SWAP3 POP SWAP3 SWAP1 POP JUMP JUMPDEST PUSH0 DUP1 PUSH0 DUP1 PUSH0 DUP1 PUSH1 0xA0 DUP8 DUP10 SUB SLT ISZERO PUSH2 0x59BF JUMPI PUSH2 0x59BE PUSH2 0x52D7 JUMP JUMPDEST JUMPDEST PUSH0 PUSH2 0x59CC DUP10 DUP3 DUP11 ADD PUSH2 0x5325 JUMP JUMPDEST SWAP7 POP POP PUSH1 0x20 PUSH2 0x59DD DUP10 DUP3 DUP11 ADD PUSH2 0x5325 JUMP JUMPDEST SWAP6 POP POP PUSH1 0x40 PUSH2 0x59EE DUP10 DUP3 DUP11 ADD PUSH2 0x5358 JUMP JUMPDEST SWAP5 POP POP PUSH1 0x60 DUP8 ADD CALLDATALOAD PUSH8 0xFFFFFFFFFFFFFFFF DUP2 GT ISZERO PUSH2 0x5A0F JUMPI PUSH2 0x5A0E PUSH2 0x52DB JUMP JUMPDEST JUMPDEST PUSH2 0x5A1B DUP10 DUP3 DUP11 ADD PUSH2 0x5950 JUMP JUMPDEST SWAP4 POP SWAP4 POP POP PUSH1 0x80 PUSH2 0x5A2E DUP10 DUP3 DUP11 ADD PUSH2 0x5463 JUMP JUMPDEST SWAP2 POP POP SWAP3 SWAP6 POP SWAP3 SWAP6 POP SWAP3 SWAP6 JUMP JUMPDEST PUSH1 0x20 DUP3 ADD PUSH0 DUP3 ADD MLOAD PUSH2 0x5A4F PUSH0 DUP6 ADD DUP3 PUSH2 0x5782 JUMP JUMPDEST POP POP POP POP JUMP JUMPDEST PUSH0 PUSH1 0x20 DUP3 ADD SWAP1 POP PUSH2 0x5A68 PUSH0 DUP4 ADD DUP5 PUSH2 0x5A3B JUMP JUMPDEST SWAP3 SWAP2 POP POP JUMP JUMPDEST PUSH0 PUSH1 0x20 DUP3 DUP5 SUB SLT ISZERO PUSH2 0x5A83 JUMPI PUSH2 0x5A82 PUSH2 0x52D7 JUMP JUMPDEST JUMPDEST PUSH0 PUSH2 0x5A90 DUP5 DUP3 DUP6 ADD PUSH2 0x5463 JUMP JUMPDEST SWAP2 POP POP SWAP3 SWAP2 POP POP JUMP JUMPDEST PUSH2 0x5AA2 DUP2 PUSH2 0x52FE JUMP JUMPDEST DUP3 MSTORE POP POP JUMP JUMPDEST PUSH0 PUSH1 0x20 DUP3 ADD SWAP1 POP PUSH2 0x5ABB PUSH0 DUP4 ADD DUP5 PUSH2 0x5A99 JUMP JUMPDEST SWAP3 SWAP2 POP POP JUMP JUMPDEST PUSH0 DUP1 PUSH0 DUP1 PUSH1 0x80 DUP6 DUP8 SUB SLT ISZERO PUSH2 0x5AD9 JUMPI PUSH2 0x5AD8 PUSH2 0x52D7 JUMP JUMPDEST JUMPDEST PUSH0 PUSH2 0x5AE6 DUP8 DUP3 DUP9 ADD PUSH2 0x5325 JUMP JUMPDEST SWAP5 POP POP PUSH1 0x20 PUSH2 0x5AF7 DUP8 DUP3 DUP9 ADD PUSH2 0x5358 JUMP JUMPDEST SWAP4 POP POP PUSH1 0x40 PUSH2 0x5B08 DUP8 DUP3 DUP9 ADD PUSH2 0x5358 JUMP JUMPDEST SWAP3 POP POP PUSH1 0x60 PUSH2 0x5B19 DUP8 DUP3 DUP9 ADD PUSH2 0x5325 JUMP JUMPDEST SWAP2 POP POP SWAP3 SWAP6 SWAP2 SWAP5 POP SWAP3 POP JUMP JUMPDEST PUSH0 DUP1 PUSH1 0x40 DUP4 DUP6 SUB SLT ISZERO PUSH2 0x5B3B JUMPI PUSH2 0x5B3A PUSH2 0x52D7 JUMP JUMPDEST JUMPDEST PUSH0 PUSH2 0x5B48 DUP6 DUP3 DUP7 ADD PUSH2 0x5325 JUMP JUMPDEST SWAP3 POP POP PUSH1 0x20 PUSH2 0x5B59 DUP6 DUP3 DUP7 ADD PUSH2 0x538D JUMP JUMPDEST SWAP2 POP POP SWAP3 POP SWAP3 SWAP1 POP JUMP JUMPDEST PUSH0 DUP1 PUSH0 DUP1 PUSH1 0x80 DUP6 DUP8 SUB SLT ISZERO PUSH2 0x5B7B JUMPI PUSH2 0x5B7A PUSH2 0x52D7 JUMP JUMPDEST JUMPDEST PUSH0 PUSH2 0x5B88 DUP8 DUP3 DUP9 ADD PUSH2 0x5325 JUMP JUMPDEST SWAP5 POP POP PUSH1 0x20 PUSH2 0x5B99 DUP8 DUP3 DUP9 ADD PUSH2 0x5358 JUMP JUMPDEST SWAP4 POP POP PUSH1 0x40 PUSH2 0x5BAA DUP8 DUP3 DUP9 ADD PUSH2 0x5325 JUMP JUMPDEST SWAP3 POP POP PUSH1 0x60 PUSH2 0x5BBB DUP8 DUP3 DUP9 ADD PUSH2 0x5463 JUMP JUMPDEST SWAP2 POP POP SWAP3 SWAP6 SWAP2 SWAP5 POP SWAP3 POP JUMP JUMPDEST PUSH0 DUP1 PUSH0 PUSH1 0x60 DUP5 DUP7 SUB SLT ISZERO PUSH2 0x5BDE JUMPI PUSH2 0x5BDD PUSH2 0x52D7 JUMP JUMPDEST JUMPDEST PUSH0 PUSH2 0x5BEB DUP7 DUP3 DUP8 ADD PUSH2 0x54CC JUMP JUMPDEST SWAP4 POP POP PUSH1 0x20 PUSH2 0x5BFC DUP7 DUP3 DUP8 ADD PUSH2 0x54CC JUMP JUMPDEST SWAP3 POP POP PUSH1 0x40 PUSH2 0x5C0D DUP7 DUP3 DUP8 ADD PUSH2 0x54CC JUMP JUMPDEST SWAP2 POP POP SWAP3 POP SWAP3 POP SWAP3 JUMP JUMPDEST PUSH0 DUP1 PUSH0 PUSH1 0x60 DUP5 DUP7 SUB SLT ISZERO PUSH2 0x5C2E JUMPI PUSH2 0x5C2D PUSH2 0x52D7 JUMP JUMPDEST JUMPDEST PUSH0 PUSH2 0x5C3B DUP7 DUP3 DUP8 ADD PUSH2 0x5325 JUMP JUMPDEST SWAP4 POP POP PUSH1 0x20 PUSH2 0x5C4C DUP7 DUP3 DUP8 ADD PUSH2 0x5358 JUMP JUMPDEST SWAP3 POP POP PUSH1 0x40 PUSH2 0x5C5D DUP7 DUP3 DUP8 ADD PUSH2 0x5325 JUMP JUMPDEST SWAP2 POP POP SWAP3 POP SWAP3 POP SWAP3 JUMP JUMPDEST PUSH0 DUP2 MLOAD SWAP1 POP SWAP2 SWAP1 POP JUMP JUMPDEST PUSH0 DUP3 DUP3 MSTORE PUSH1 0x20 DUP3 ADD SWAP1 POP SWAP3 SWAP2 POP POP JUMP JUMPDEST DUP3 DUP2 DUP4 MCOPY PUSH0 DUP4 DUP4 ADD MSTORE POP POP POP JUMP JUMPDEST PUSH0 PUSH1 0x1F NOT PUSH1 0x1F DUP4 ADD AND SWAP1 POP SWAP2 SWAP1 POP JUMP JUMPDEST PUSH0 PUSH2 0x5CA9 DUP3 PUSH2 0x5C67 JUMP JUMPDEST PUSH2 0x5CB3 DUP2 DUP6 PUSH2 0x5C71 JUMP JUMPDEST SWAP4 POP PUSH2 0x5CC3 DUP2 DUP6 PUSH1 0x20 DUP7 ADD PUSH2 0x5C81 JUMP JUMPDEST PUSH2 0x5CCC DUP2 PUSH2 0x5C8F JUMP JUMPDEST DUP5 ADD SWAP2 POP POP SWAP3 SWAP2 POP POP JUMP JUMPDEST PUSH0 PUSH1 0xA0 DUP4 ADD PUSH0 DUP4 ADD MLOAD PUSH2 0x5CEC PUSH0 DUP7 ADD DUP3 PUSH2 0x57D9 JUMP JUMPDEST POP PUSH1 0x20 DUP4 ADD MLOAD PUSH2 0x5CFF PUSH1 0x20 DUP7 ADD DUP3 PUSH2 0x57D9 JUMP JUMPDEST POP PUSH1 0x40 DUP4 ADD MLOAD PUSH2 0x5D12 PUSH1 0x40 DUP7 ADD DUP3 PUSH2 0x57D9 JUMP JUMPDEST POP PUSH1 0x60 DUP4 ADD MLOAD PUSH2 0x5D25 PUSH1 0x60 DUP7 ADD DUP3 PUSH2 0x57E8 JUMP JUMPDEST POP PUSH1 0x80 DUP4 ADD MLOAD DUP5 DUP3 SUB PUSH1 0x80 DUP7 ADD MSTORE PUSH2 0x5D3D DUP3 DUP3 PUSH2 0x5C9F JUMP JUMPDEST SWAP2 POP POP DUP1 SWAP2 POP POP SWAP3 SWAP2 POP POP JUMP JUMPDEST PUSH0 PUSH1 0x20 DUP3 ADD SWAP1 POP DUP2 DUP2 SUB PUSH0 DUP4 ADD MSTORE PUSH2 0x5D62 DUP2 DUP5 PUSH2 0x5CD7 JUMP JUMPDEST SWAP1 POP SWAP3 SWAP2 POP POP JUMP JUMPDEST PUSH0 DUP1 PUSH0 DUP1 PUSH0 PUSH1 0xA0 DUP7 DUP9 SUB SLT ISZERO PUSH2 0x5D83 JUMPI PUSH2 0x5D82 PUSH2 0x52D7 JUMP JUMPDEST JUMPDEST PUSH0 PUSH2 0x5D90 DUP9 DUP3 DUP10 ADD PUSH2 0x5325 JUMP JUMPDEST SWAP6 POP POP PUSH1 0x20 PUSH2 0x5DA1 DUP9 DUP3 DUP10 ADD PUSH2 0x5325 JUMP JUMPDEST SWAP5 POP POP PUSH1 0x40 PUSH2 0x5DB2 DUP9 DUP3 DUP10 ADD PUSH2 0x5325 JUMP JUMPDEST SWAP4 POP POP PUSH1 0x60 PUSH2 0x5DC3 DUP9 DUP3 DUP10 ADD PUSH2 0x5325 JUMP JUMPDEST SWAP3 POP POP PUSH1 0x80 PUSH2 0x5DD4 DUP9 DUP3 DUP10 ADD PUSH2 0x5325 JUMP JUMPDEST SWAP2 POP POP SWAP3 SWAP6 POP SWAP3 SWAP6 SWAP1 SWAP4 POP JUMP JUMPDEST PUSH0 DUP1 PUSH1 0x40 DUP4 DUP6 SUB SLT ISZERO PUSH2 0x5DF7 JUMPI PUSH2 0x5DF6 PUSH2 0x52D7 JUMP JUMPDEST JUMPDEST PUSH0 PUSH2 0x5E04 DUP6 DUP3 DUP7 ADD PUSH2 0x5325 JUMP JUMPDEST SWAP3 POP POP PUSH1 0x20 PUSH2 0x5E15 DUP6 DUP3 DUP7 ADD PUSH2 0x5358 JUMP JUMPDEST SWAP2 POP POP SWAP3 POP SWAP3 SWAP1 POP JUMP JUMPDEST PUSH0 DUP1 DUP4 PUSH1 0x1F DUP5 ADD SLT PUSH2 0x5E34 JUMPI PUSH2 0x5E33 PUSH2 0x5944 JUMP JUMPDEST JUMPDEST DUP3 CALLDATALOAD SWAP1 POP PUSH8 0xFFFFFFFFFFFFFFFF DUP2 GT ISZERO PUSH2 0x5E51 JUMPI PUSH2 0x5E50 PUSH2 0x5948 JUMP JUMPDEST JUMPDEST PUSH1 0x20 DUP4 ADD SWAP2 POP DUP4 PUSH1 0x20 DUP3 MUL DUP4 ADD GT ISZERO PUSH2 0x5E6D JUMPI PUSH2 0x5E6C PUSH2 0x594C JUMP JUMPDEST JUMPDEST SWAP3 POP SWAP3 SWAP1 POP JUMP JUMPDEST PUSH0 DUP1 PUSH1 0x20 DUP4 DUP6 SUB SLT ISZERO PUSH2 0x5E8A JUMPI PUSH2 0x5E89 PUSH2 0x52D7 JUMP JUMPDEST JUMPDEST PUSH0 DUP4 ADD CALLDATALOAD PUSH8 0xFFFFFFFFFFFFFFFF DUP2 GT ISZERO PUSH2 0x5EA7 JUMPI PUSH2 0x5EA6 PUSH2 0x52DB JUMP JUMPDEST JUMPDEST PUSH2 0x5EB3 DUP6 DUP3 DUP7 ADD PUSH2 0x5E1F JUMP JUMPDEST SWAP3 POP SWAP3 POP POP SWAP3 POP SWAP3 SWAP1 POP JUMP JUMPDEST PUSH0 DUP1 PUSH0 DUP1 PUSH0 PUSH1 0xA0 DUP7 DUP9 SUB SLT ISZERO PUSH2 0x5ED8 JUMPI PUSH2 0x5ED7 PUSH2 0x52D7 JUMP JUMPDEST JUMPDEST PUSH0 PUSH2 0x5EE5 DUP9 DUP3 DUP10 ADD PUSH2 0x5325 JUMP JUMPDEST SWAP6 POP POP PUSH1 0x20 PUSH2 0x5EF6 DUP9 DUP3 DUP10 ADD PUSH2 0x5358 JUMP JUMPDEST SWAP5 POP POP PUSH1 0x40 PUSH2 0x5F07 DUP9 DUP3 DUP10 ADD PUSH2 0x5358 JUMP JUMPDEST SWAP4 POP POP PUSH1 0x60 PUSH2 0x5F18 DUP9 DUP3 DUP10 ADD PUSH2 0x5463 JUMP JUMPDEST SWAP3 POP POP PUSH1 0x80 PUSH2 0x5F29 DUP9 DUP3 DUP10 ADD PUSH2 0x5325 JUMP JUMPDEST SWAP2 POP POP SWAP3 SWAP6 POP SWAP3 SWAP6 SWAP1 SWAP4 POP JUMP JUMPDEST PUSH0 DUP1 DUP4 PUSH1 0x1F DUP5 ADD SLT PUSH2 0x5F4B JUMPI PUSH2 0x5F4A PUSH2 0x5944 JUMP JUMPDEST JUMPDEST DUP3 CALLDATALOAD SWAP1 POP PUSH8 0xFFFFFFFFFFFFFFFF DUP2 GT ISZERO PUSH2 0x5F68 JUMPI PUSH2 0x5F67 PUSH2 0x5948 JUMP JUMPDEST JUMPDEST PUSH1 0x20 DUP4 ADD SWAP2 POP DUP4 PUSH1 0x20 DUP3 MUL DUP4 ADD GT ISZERO PUSH2 0x5F84 JUMPI PUSH2 0x5F83 PUSH2 0x594C JUMP JUMPDEST JUMPDEST SWAP3 POP SWAP3 SWAP1 POP JUMP JUMPDEST PUSH0 DUP1 PUSH0 DUP1 PUSH0 DUP1 PUSH0 DUP1 PUSH0 DUP1 PUSH0 PUSH1 0xE0 DUP13 DUP15 SUB SLT ISZERO PUSH2 0x5FAA JUMPI PUSH2 0x5FA9 PUSH2 0x52D7 JUMP JUMPDEST JUMPDEST PUSH0 PUSH2 0x5FB7 DUP15 DUP3 DUP16 ADD PUSH2 0x5325 JUMP JUMPDEST SWAP12 POP POP PUSH1 0x20 DUP13 ADD CALLDATALOAD PUSH8 0xFFFFFFFFFFFFFFFF DUP2 GT ISZERO PUSH2 0x5FD8 JUMPI PUSH2 0x5FD7 PUSH2 0x52DB JUMP JUMPDEST JUMPDEST PUSH2 0x5FE4 DUP15 DUP3 DUP16 ADD PUSH2 0x5E1F JUMP JUMPDEST SWAP11 POP SWAP11 POP POP PUSH1 0x40 DUP13 ADD CALLDATALOAD PUSH8 0xFFFFFFFFFFFFFFFF DUP2 GT ISZERO PUSH2 0x6007 JUMPI PUSH2 0x6006 PUSH2 0x52DB JUMP JUMPDEST JUMPDEST PUSH2 0x6013 DUP15 DUP3 DUP16 ADD PUSH2 0x5F36 JUMP JUMPDEST SWAP9 POP SWAP9 POP POP PUSH1 0x60 DUP13 ADD CALLDATALOAD PUSH8 0xFFFFFFFFFFFFFFFF DUP2 GT ISZERO PUSH2 0x6036 JUMPI PUSH2 0x6035 PUSH2 0x52DB JUMP JUMPDEST JUMPDEST PUSH2 0x6042 DUP15 DUP3 DUP16 ADD PUSH2 0x5F36 JUMP JUMPDEST SWAP7 POP SWAP7 POP POP PUSH1 0x80 PUSH2 0x6055 DUP15 DUP3 DUP16 ADD PUSH2 0x5325 JUMP JUMPDEST SWAP5 POP POP PUSH1 0xA0 DUP13 ADD CALLDATALOAD PUSH8 0xFFFFFFFFFFFFFFFF DUP2 GT ISZERO PUSH2 0x6076 JUMPI PUSH2 0x6075 PUSH2 0x52DB JUMP JUMPDEST JUMPDEST PUSH2 0x6082 DUP15 DUP3 DUP16 ADD PUSH2 0x5950 JUMP JUMPDEST SWAP4 POP SWAP4 POP POP PUSH1 0xC0 PUSH2 0x6095 DUP15 DUP3 DUP16 ADD PUSH2 0x5463 JUMP JUMPDEST SWAP2 POP POP SWAP3 SWAP6 SWAP9 SWAP12 POP SWAP3 SWAP6 SWAP9 SWAP12 SWAP1 SWAP4 SWAP7 SWAP10 POP JUMP JUMPDEST PUSH2 0x60B1 DUP2 PUSH2 0x5605 JUMP JUMPDEST DUP2 EQ PUSH2 0x60BB JUMPI PUSH0 DUP1 REVERT JUMPDEST POP JUMP JUMPDEST PUSH0 DUP2 CALLDATALOAD SWAP1 POP PUSH2 0x60CC DUP2 PUSH2 0x60A8 JUMP JUMPDEST SWAP3 SWAP2 POP POP JUMP JUMPDEST PUSH0 DUP1 PUSH1 0x40 DUP4 DUP6 SUB SLT ISZERO PUSH2 0x60E8 JUMPI PUSH2 0x60E7 PUSH2 0x52D7 JUMP JUMPDEST JUMPDEST PUSH0 PUSH2 0x60F5 DUP6 DUP3 DUP7 ADD PUSH2 0x60BE JUMP JUMPDEST SWAP3 POP POP PUSH1 0x20 PUSH2 0x6106 DUP6 DUP3 DUP7 ADD PUSH2 0x60BE JUMP JUMPDEST SWAP2 POP POP SWAP3 POP SWAP3 SWAP1 POP JUMP JUMPDEST PUSH0 PUSH1 0xC0 DUP3 ADD SWAP1 POP PUSH2 0x6123 PUSH0 DUP4 ADD DUP10 PUSH2 0x5418 JUMP JUMPDEST PUSH2 0x6130 PUSH1 0x20 DUP4 ADD DUP9 PUSH2 0x5418 JUMP JUMPDEST PUSH2 0x613D PUSH1 0x40 DUP4 ADD DUP8 PUSH2 0x5418 JUMP JUMPDEST PUSH2 0x614A PUSH1 0x60 DUP4 ADD DUP7 PUSH2 0x5418 JUMP JUMPDEST PUSH2 0x6157 PUSH1 0x80 DUP4 ADD DUP6 PUSH2 0x5418 JUMP JUMPDEST PUSH2 0x6164 PUSH1 0xA0 DUP4 ADD DUP5 PUSH2 0x5418 JUMP JUMPDEST SWAP8 SWAP7 POP POP POP POP POP POP POP JUMP JUMPDEST PUSH1 0x20 DUP3 ADD PUSH0 DUP3 ADD MLOAD PUSH2 0x6183 PUSH0 DUP6 ADD DUP3 PUSH2 0x5782 JUMP JUMPDEST POP POP POP POP JUMP JUMPDEST PUSH0 PUSH1 0x20 DUP3 ADD SWAP1 POP PUSH2 0x619C PUSH0 DUP4 ADD DUP5 PUSH2 0x616F JUMP JUMPDEST SWAP3 SWAP2 POP POP JUMP JUMPDEST PUSH0 PUSH2 0x61AC DUP3 PUSH2 0x52FE JUMP JUMPDEST SWAP1 POP SWAP2 SWAP1 POP JUMP JUMPDEST PUSH2 0x61BC DUP2 PUSH2 0x61A2 JUMP JUMPDEST DUP2 EQ PUSH2 0x61C6 JUMPI PUSH0 DUP1 REVERT JUMPDEST POP JUMP JUMPDEST PUSH0 DUP2 CALLDATALOAD SWAP1 POP PUSH2 0x61D7 DUP2 PUSH2 0x61B3 JUMP JUMPDEST SWAP3 SWAP2 POP POP JUMP JUMPDEST PUSH0 PUSH1 0x20 DUP3 DUP5 SUB SLT ISZERO PUSH2 0x61F2 JUMPI PUSH2 0x61F1 PUSH2 0x52D7 JUMP JUMPDEST JUMPDEST PUSH0 PUSH2 0x61FF DUP5 DUP3 DUP6 ADD PUSH2 0x61C9 JUMP JUMPDEST SWAP2 POP POP SWAP3 SWAP2 POP POP JUMP JUMPDEST PUSH0 DUP1 PUSH0 PUSH1 0x60 DUP5 DUP7 SUB SLT ISZERO PUSH2 0x621F JUMPI PUSH2 0x621E PUSH2 0x52D7 JUMP JUMPDEST JUMPDEST PUSH0 PUSH2 0x622C DUP7 DUP3 DUP8 ADD PUSH2 0x5325 JUMP JUMPDEST SWAP4 POP POP PUSH1 0x20 PUSH2 0x623D DUP7 DUP3 DUP8 ADD PUSH2 0x5325 JUMP JUMPDEST SWAP3 POP POP PUSH1 0x40 PUSH2 0x624E DUP7 DUP3 DUP8 ADD PUSH2 0x5358 JUMP JUMPDEST SWAP2 POP POP SWAP3 POP SWAP3 POP SWAP3 JUMP JUMPDEST PUSH0 DUP2 MLOAD SWAP1 POP SWAP2 SWAP1 POP JUMP JUMPDEST PUSH0 DUP3 DUP3 MSTORE PUSH1 0x20 DUP3 ADD SWAP1 POP SWAP3 SWAP2 POP POP JUMP JUMPDEST PUSH0 DUP2 SWAP1 POP PUSH1 0x20 DUP3 ADD SWAP1 POP SWAP2 SWAP1 POP JUMP JUMPDEST PUSH0 PUSH2 0x628C DUP4 DUP4 PUSH2 0x57E8 JUMP JUMPDEST PUSH1 0x20 DUP4 ADD SWAP1 POP SWAP3 SWAP2 POP POP JUMP JUMPDEST PUSH0 PUSH1 0x20 DUP3 ADD SWAP1 POP SWAP2 SWAP1 POP JUMP JUMPDEST PUSH0 PUSH2 0x62AE DUP3 PUSH2 0x6258 JUMP JUMPDEST PUSH2 0x62B8 DUP2 DUP6 PUSH2 0x6262 JUMP JUMPDEST SWAP4 POP PUSH2 0x62C3 DUP4 PUSH2 0x6272 JUMP JUMPDEST DUP1 PUSH0 JUMPDEST DUP4 DUP2 LT ISZERO PUSH2 0x62F3 JUMPI DUP2 MLOAD PUSH2 0x62DA DUP9 DUP3 PUSH2 0x6281 JUMP JUMPDEST SWAP8 POP PUSH2 0x62E5 DUP4 PUSH2 0x6298 JUMP JUMPDEST SWAP3 POP POP PUSH1 0x1 DUP2 ADD SWAP1 POP PUSH2 0x62C6 JUMP JUMPDEST POP DUP6 SWAP4 POP POP POP POP SWAP3 SWAP2 POP POP JUMP JUMPDEST PUSH0 PUSH1 0x20 DUP3 ADD SWAP1 POP DUP2 DUP2 SUB PUSH0 DUP4 ADD MSTORE PUSH2 0x6318 DUP2 DUP5 PUSH2 0x62A4 JUMP JUMPDEST SWAP1 POP SWAP3 SWAP2 POP POP JUMP JUMPDEST PUSH0 DUP1 REVERT JUMPDEST PUSH32 0x4E487B7100000000000000000000000000000000000000000000000000000000 PUSH0 MSTORE PUSH1 0x41 PUSH1 0x4 MSTORE PUSH1 0x24 PUSH0 REVERT JUMPDEST PUSH2 0x635A DUP3 PUSH2 0x5C8F JUMP JUMPDEST DUP2 ADD DUP2 DUP2 LT PUSH8 0xFFFFFFFFFFFFFFFF DUP3 GT OR ISZERO PUSH2 0x6379 JUMPI PUSH2 0x6378 PUSH2 0x6324 JUMP JUMPDEST JUMPDEST DUP1 PUSH1 0x40 MSTORE POP POP POP JUMP JUMPDEST PUSH0 PUSH2 0x638B PUSH2 0x52CE JUMP JUMPDEST SWAP1 POP PUSH2 0x6397 DUP3 DUP3 PUSH2 0x6351 JUMP JUMPDEST SWAP2 SWAP1 POP JUMP JUMPDEST PUSH0 DUP1 REVERT JUMPDEST PUSH0 DUP1 REVERT JUMPDEST PUSH0 PUSH8 0xFFFFFFFFFFFFFFFF DUP3 GT ISZERO PUSH2 0x63BE JUMPI PUSH2 0x63BD PUSH2 0x6324 JUMP JUMPDEST JUMPDEST PUSH2 0x63C7 DUP3 PUSH2 0x5C8F JUMP JUMPDEST SWAP1 POP PUSH1 0x20 DUP2 ADD SWAP1 POP SWAP2 SWAP1 POP JUMP JUMPDEST DUP3 DUP2 DUP4 CALLDATACOPY PUSH0 DUP4 DUP4 ADD MSTORE POP POP POP JUMP JUMPDEST PUSH0 PUSH2 0x63F4 PUSH2 0x63EF DUP5 PUSH2 0x63A4 JUMP JUMPDEST PUSH2 0x6382 JUMP JUMPDEST SWAP1 POP DUP3 DUP2 MSTORE PUSH1 0x20 DUP2 ADD DUP5 DUP5 DUP5 ADD GT ISZERO PUSH2 0x6410 JUMPI PUSH2 0x640F PUSH2 0x63A0 JUMP JUMPDEST JUMPDEST PUSH2 0x641B DUP5 DUP3 DUP6 PUSH2 0x63D4 JUMP JUMPDEST POP SWAP4 SWAP3 POP POP POP JUMP JUMPDEST PUSH0 DUP3 PUSH1 0x1F DUP4 ADD SLT PUSH2 0x6437 JUMPI PUSH2 0x6436 PUSH2 0x5944 JUMP JUMPDEST JUMPDEST DUP2 CALLDATALOAD PUSH2 0x6447 DUP5 DUP3 PUSH1 0x20 DUP7 ADD PUSH2 0x63E2 JUMP JUMPDEST SWAP2 POP POP SWAP3 SWAP2 POP POP JUMP JUMPDEST PUSH0 PUSH1 0xA0 DUP3 DUP5 SUB SLT ISZERO PUSH2 0x6465 JUMPI PUSH2 0x6464 PUSH2 0x6320 JUMP JUMPDEST JUMPDEST PUSH2 0x646F PUSH1 0xA0 PUSH2 0x6382 JUMP JUMPDEST SWAP1 POP PUSH0 PUSH2 0x647E DUP5 DUP3 DUP6 ADD PUSH2 0x5463 JUMP JUMPDEST PUSH0 DUP4 ADD MSTORE POP PUSH1 0x20 PUSH2 0x6491 DUP5 DUP3 DUP6 ADD PUSH2 0x5463 JUMP JUMPDEST PUSH1 0x20 DUP4 ADD MSTORE POP PUSH1 0x40 PUSH2 0x64A5 DUP5 DUP3 DUP6 ADD PUSH2 0x5463 JUMP JUMPDEST PUSH1 0x40 DUP4 ADD MSTORE POP PUSH1 0x60 PUSH2 0x64B9 DUP5 DUP3 DUP6 ADD PUSH2 0x5325 JUMP JUMPDEST PUSH1 0x60 DUP4 ADD MSTORE POP PUSH1 0x80 DUP3 ADD CALLDATALOAD PUSH8 0xFFFFFFFFFFFFFFFF DUP2 GT ISZERO PUSH2 0x64DD JUMPI PUSH2 0x64DC PUSH2 0x639C JUMP JUMPDEST JUMPDEST PUSH2 0x64E9 DUP5 DUP3 DUP6 ADD PUSH2 0x6423 JUMP JUMPDEST PUSH1 0x80 DUP4 ADD MSTORE POP SWAP3 SWAP2 POP POP JUMP JUMPDEST PUSH0 DUP1 PUSH1 0x40 DUP4 DUP6 SUB SLT ISZERO PUSH2 0x650B JUMPI PUSH2 0x650A PUSH2 0x52D7 JUMP JUMPDEST JUMPDEST PUSH0 PUSH2 0x6518 DUP6 DUP3 DUP7 ADD PUSH2 0x5499 JUMP JUMPDEST SWAP3 POP POP PUSH1 0x20 DUP4 ADD CALLDATALOAD PUSH8 0xFFFFFFFFFFFFFFFF DUP2 GT ISZERO PUSH2 0x6539 JUMPI PUSH2 0x6538 PUSH2 0x52DB JUMP JUMPDEST JUMPDEST PUSH2 0x6545 DUP6 DUP3 DUP7 ADD PUSH2 0x6450 JUMP JUMPDEST SWAP2 POP POP SWAP3 POP SWAP3 SWAP1 POP JUMP JUMPDEST PUSH0 DUP1 PUSH0 DUP1 PUSH0 DUP1 PUSH1 0xC0 DUP8 DUP10 SUB SLT ISZERO PUSH2 0x6569 JUMPI PUSH2 0x6568 PUSH2 0x52D7 JUMP JUMPDEST JUMPDEST PUSH0 PUSH2 0x6576 DUP10 DUP3 DUP11 ADD PUSH2 0x5325 JUMP JUMPDEST SWAP7 POP POP PUSH1 0x20 PUSH2 0x6587 DUP10 DUP3 DUP11 ADD PUSH2 0x5325 JUMP JUMPDEST SWAP6 POP POP PUSH1 0x40 PUSH2 0x6598 DUP10 DUP3 DUP11 ADD PUSH2 0x5325 JUMP JUMPDEST SWAP5 POP POP PUSH1 0x60 PUSH2 0x65A9 DUP10 DUP3 DUP11 ADD PUSH2 0x5358 JUMP JUMPDEST SWAP4 POP POP PUSH1 0x80 PUSH2 0x65BA DUP10 DUP3 DUP11 ADD PUSH2 0x5358 JUMP JUMPDEST SWAP3 POP POP PUSH1 0xA0 PUSH2 0x65CB DUP10 DUP3 DUP11 ADD PUSH2 0x5358 JUMP JUMPDEST SWAP2 POP POP SWAP3 SWAP6 POP SWAP3 SWAP6 POP SWAP3 SWAP6 JUMP JUMPDEST PUSH0 DUP1 PUSH0 DUP1 PUSH0 DUP1 PUSH0 DUP1 PUSH2 0x100 DUP10 DUP12 SUB SLT ISZERO PUSH2 0x65F5 JUMPI PUSH2 0x65F4 PUSH2 0x52D7 JUMP JUMPDEST JUMPDEST PUSH0 PUSH2 0x6602 DUP12 DUP3 DUP13 ADD PUSH2 0x5325 JUMP JUMPDEST SWAP9 POP POP PUSH1 0x20 PUSH2 0x6613 DUP12 DUP3 DUP13 ADD PUSH2 0x5358 JUMP JUMPDEST SWAP8 POP POP PUSH1 0x40 PUSH2 0x6624 DUP12 DUP3 DUP13 ADD PUSH2 0x5358 JUMP JUMPDEST SWAP7 POP POP PUSH1 0x60 PUSH2 0x6635 DUP12 DUP3 DUP13 ADD PUSH2 0x5325 JUMP JUMPDEST SWAP6 POP POP PUSH1 0x80 PUSH2 0x6646 DUP12 DUP3 DUP13 ADD PUSH2 0x5358 JUMP JUMPDEST SWAP5 POP POP PUSH1 0xA0 PUSH2 0x6657 DUP12 DUP3 DUP13 ADD PUSH2 0x5499 JUMP JUMPDEST SWAP4 POP POP PUSH1 0xC0 PUSH2 0x6668 DUP12 DUP3 DUP13 ADD PUSH2 0x54CC JUMP JUMPDEST SWAP3 POP POP PUSH1 0xE0 PUSH2 0x6679 DUP12 DUP3 DUP13 ADD PUSH2 0x54CC JUMP JUMPDEST SWAP2 POP POP SWAP3 SWAP6 SWAP9 POP SWAP3 SWAP6 SWAP9 SWAP1 SWAP4 SWAP7 POP JUMP JUMPDEST PUSH0 DUP1 REVERT JUMPDEST PUSH0 PUSH1 0x20 DUP3 DUP5 SUB SLT ISZERO PUSH2 0x66A2 JUMPI PUSH2 0x66A1 PUSH2 0x6689 JUMP JUMPDEST JUMPDEST DUP2 SWAP1 POP SWAP3 SWAP2 POP POP JUMP JUMPDEST PUSH0 DUP1 PUSH1 0x40 DUP4 DUP6 SUB SLT ISZERO PUSH2 0x66C1 JUMPI PUSH2 0x66C0 PUSH2 0x52D7 JUMP JUMPDEST JUMPDEST PUSH0 PUSH2 0x66CE DUP6 DUP3 DUP7 ADD PUSH2 0x5325 JUMP JUMPDEST SWAP3 POP POP PUSH1 0x20 PUSH2 0x66DF DUP6 DUP3 DUP7 ADD PUSH2 0x668D JUMP JUMPDEST SWAP2 POP POP SWAP3 POP SWAP3 SWAP1 POP JUMP JUMPDEST PUSH2 0x66F2 DUP2 PUSH2 0x5440 JUMP JUMPDEST DUP3 MSTORE POP POP JUMP JUMPDEST PUSH0 PUSH1 0x20 DUP3 ADD SWAP1 POP PUSH2 0x670B PUSH0 DUP4 ADD DUP5 PUSH2 0x66E9 JUMP JUMPDEST SWAP3 SWAP2 POP POP JUMP JUMPDEST PUSH0 DUP1 PUSH1 0x40 DUP4 DUP6 SUB SLT ISZERO PUSH2 0x6727 JUMPI PUSH2 0x6726 PUSH2 0x52D7 JUMP JUMPDEST JUMPDEST PUSH0 PUSH2 0x6734 DUP6 DUP3 DUP7 ADD PUSH2 0x54CC JUMP JUMPDEST SWAP3 POP POP PUSH1 0x20 PUSH2 0x6745 DUP6 DUP3 DUP7 ADD PUSH2 0x54CC JUMP JUMPDEST SWAP2 POP POP SWAP3 POP SWAP3 SWAP1 POP JUMP JUMPDEST PUSH0 DUP2 MLOAD SWAP1 POP PUSH2 0x675D DUP2 PUSH2 0x530F JUMP JUMPDEST SWAP3 SWAP2 POP POP JUMP JUMPDEST PUSH0 PUSH1 0x20 DUP3 DUP5 SUB SLT ISZERO PUSH2 0x6778 JUMPI PUSH2 0x6777 PUSH2 0x52D7 JUMP JUMPDEST JUMPDEST PUSH0 PUSH2 0x6785 DUP5 DUP3 DUP6 ADD PUSH2 0x674F JUMP JUMPDEST SWAP2 POP POP SWAP3 SWAP2 POP POP JUMP JUMPDEST DUP1 DUP3 MSTORE POP POP JUMP JUMPDEST DUP1 DUP3 MSTORE POP POP JUMP JUMPDEST DUP1 DUP3 MSTORE POP POP JUMP JUMPDEST DUP1 DUP3 MSTORE POP POP JUMP JUMPDEST PUSH2 0x67B3 DUP2 PUSH2 0x5339 JUMP JUMPDEST DUP3 MSTORE POP POP JUMP JUMPDEST PUSH2 0x67C2 DUP2 PUSH2 0x52FE JUMP JUMPDEST DUP3 MSTORE POP POP JUMP JUMPDEST PUSH2 0x67D1 DUP2 PUSH2 0x536C JUMP JUMPDEST DUP3 MSTORE POP POP JUMP JUMPDEST PUSH2 0x67E0 DUP2 PUSH2 0x5477 JUMP JUMPDEST DUP3 MSTORE POP POP JUMP JUMPDEST PUSH2 0x120 DUP3 ADD PUSH0 DUP3 ADD MLOAD PUSH2 0x67FB PUSH0 DUP6 ADD DUP3 PUSH2 0x67AA JUMP JUMPDEST POP PUSH1 0x20 DUP3 ADD MLOAD PUSH2 0x680E PUSH1 0x20 DUP6 ADD DUP3 PUSH2 0x67AA JUMP JUMPDEST POP PUSH1 0x40 DUP3 ADD MLOAD PUSH2 0x6821 PUSH1 0x40 DUP6 ADD DUP3 PUSH2 0x67B9 JUMP JUMPDEST POP PUSH1 0x60 DUP3 ADD MLOAD PUSH2 0x6834 PUSH1 0x60 DUP6 ADD DUP3 PUSH2 0x67B9 JUMP JUMPDEST POP PUSH1 0x80 DUP3 ADD MLOAD PUSH2 0x6847 PUSH1 0x80 DUP6 ADD DUP3 PUSH2 0x67B9 JUMP JUMPDEST POP PUSH1 0xA0 DUP3 ADD MLOAD PUSH2 0x685A PUSH1 0xA0 DUP6 ADD DUP3 PUSH2 0x67C8 JUMP JUMPDEST POP PUSH1 0xC0 DUP3 ADD MLOAD PUSH2 0x686D PUSH1 0xC0 DUP6 ADD DUP3 PUSH2 0x67B9 JUMP JUMPDEST POP PUSH1 0xE0 DUP3 ADD MLOAD PUSH2 0x6880 PUSH1 0xE0 DUP6 ADD DUP3 PUSH2 0x67D7 JUMP JUMPDEST POP PUSH2 0x100 DUP3 ADD MLOAD PUSH2 0x6895 PUSH2 0x100 DUP6 ADD DUP3 PUSH2 0x67B9 JUMP JUMPDEST POP POP POP POP JUMP JUMPDEST PUSH0 PUSH2 0x1A0 DUP3 ADD SWAP1 POP PUSH2 0x68AF PUSH0 DUP4 ADD DUP9 PUSH2 0x678E JUMP JUMPDEST PUSH2 0x68BC PUSH1 0x20 DUP4 ADD DUP8 PUSH2 0x6795 JUMP JUMPDEST PUSH2 0x68C9 PUSH1 0x40 DUP4 ADD DUP7 PUSH2 0x679C JUMP JUMPDEST PUSH2 0x68D6 PUSH1 0x60 DUP4 ADD DUP6 PUSH2 0x67A3 JUMP JUMPDEST PUSH2 0x68E3 PUSH1 0x80 DUP4 ADD DUP5 PUSH2 0x67E6 JUMP JUMPDEST SWAP7 SWAP6 POP POP POP POP POP POP JUMP JUMPDEST PUSH2 0x68F6 DUP2 PUSH2 0x5477 JUMP JUMPDEST DUP3 MSTORE POP POP JUMP JUMPDEST PUSH2 0x6905 DUP2 PUSH2 0x54AD JUMP JUMPDEST DUP3 MSTORE POP POP JUMP JUMPDEST PUSH0 PUSH1 0xE0 DUP3 ADD SWAP1 POP PUSH2 0x691E PUSH0 DUP4 ADD DUP11 PUSH2 0x5A99 JUMP JUMPDEST PUSH2 0x692B PUSH1 0x20 DUP4 ADD DUP10 PUSH2 0x5A99 JUMP JUMPDEST PUSH2 0x6938 PUSH1 0x40 DUP4 ADD DUP9 PUSH2 0x5418 JUMP JUMPDEST PUSH2 0x6945 PUSH1 0x60 DUP4 ADD DUP8 PUSH2 0x5418 JUMP JUMPDEST PUSH2 0x6952 PUSH1 0x80 DUP4 ADD DUP7 PUSH2 0x68ED JUMP JUMPDEST PUSH2 0x695F PUSH1 0xA0 DUP4 ADD DUP6 PUSH2 0x68FC JUMP JUMPDEST PUSH2 0x696C PUSH1 0xC0 DUP4 ADD DUP5 PUSH2 0x68FC JUMP JUMPDEST SWAP9 SWAP8 POP POP POP POP POP POP POP POP JUMP JUMPDEST DUP1 DUP3 MSTORE POP POP JUMP JUMPDEST PUSH2 0x6988 DUP2 PUSH2 0x5440 JUMP JUMPDEST DUP3 MSTORE POP POP JUMP JUMPDEST PUSH1 0x80 DUP3 ADD PUSH0 DUP3 ADD MLOAD PUSH2 0x69A2 PUSH0 DUP6 ADD DUP3 PUSH2 0x67B9 JUMP JUMPDEST POP PUSH1 0x20 DUP3 ADD MLOAD PUSH2 0x69B5 PUSH1 0x20 DUP6 ADD DUP3 PUSH2 0x67AA JUMP JUMPDEST POP PUSH1 0x40 DUP3 ADD MLOAD PUSH2 0x69C8 PUSH1 0x40 DUP6 ADD DUP3 PUSH2 0x67B9 JUMP JUMPDEST POP PUSH1 0x60 DUP3 ADD MLOAD PUSH2 0x69DB PUSH1 0x60 DUP6 ADD DUP3 PUSH2 0x697F JUMP JUMPDEST POP POP POP POP JUMP JUMPDEST PUSH0 PUSH1 0xE0 DUP3 ADD SWAP1 POP PUSH2 0x69F4 PUSH0 DUP4 ADD DUP8 PUSH2 0x678E JUMP JUMPDEST PUSH2 0x6A01 PUSH1 0x20 DUP4 ADD DUP7 PUSH2 0x6795 JUMP JUMPDEST PUSH2 0x6A0E PUSH1 0x40 DUP4 ADD DUP6 PUSH2 0x6978 JUMP JUMPDEST PUSH2 0x6A1B PUSH1 0x60 DUP4 ADD DUP5 PUSH2 0x698E JUMP JUMPDEST SWAP6 SWAP5 POP POP POP POP POP JUMP JUMPDEST PUSH0 DUP3 DUP3 MSTORE PUSH1 0x20 DUP3 ADD SWAP1 POP SWAP3 SWAP2 POP POP JUMP JUMPDEST PUSH0 PUSH2 0x6A3E DUP3 PUSH2 0x5C67 JUMP JUMPDEST PUSH2 0x6A48 DUP2 DUP6 PUSH2 0x6A24 JUMP JUMPDEST SWAP4 POP PUSH2 0x6A58 DUP2 DUP6 PUSH1 0x20 DUP7 ADD PUSH2 0x5C81 JUMP JUMPDEST PUSH2 0x6A61 DUP2 PUSH2 0x5C8F JUMP JUMPDEST DUP5 ADD SWAP2 POP POP SWAP3 SWAP2 POP POP JUMP JUMPDEST PUSH0 PUSH1 0x20 DUP3 ADD SWAP1 POP DUP2 DUP2 SUB PUSH0 DUP4 ADD MSTORE PUSH2 0x6A84 DUP2 DUP5 PUSH2 0x6A34 JUMP JUMPDEST SWAP1 POP SWAP3 SWAP2 POP POP JUMP JUMPDEST DUP1 DUP3 MSTORE POP POP JUMP JUMPDEST PUSH1 0x60 DUP3 ADD PUSH0 DUP3 ADD MLOAD PUSH2 0x6AA7 PUSH0 DUP6 ADD DUP3 PUSH2 0x67AA JUMP JUMPDEST POP PUSH1 0x20 DUP3 ADD MLOAD PUSH2 0x6ABA PUSH1 0x20 DUP6 ADD DUP3 PUSH2 0x67B9 JUMP JUMPDEST POP PUSH1 0x40 DUP3 ADD MLOAD PUSH2 0x6ACD PUSH1 0x40 DUP6 ADD DUP3 PUSH2 0x67D7 JUMP JUMPDEST POP POP POP POP JUMP JUMPDEST PUSH0 PUSH2 0x100 DUP3 ADD SWAP1 POP PUSH2 0x6AE7 PUSH0 DUP4 ADD DUP10 PUSH2 0x678E JUMP JUMPDEST PUSH2 0x6AF4 PUSH1 0x20 DUP4 ADD DUP9 PUSH2 0x6795 JUMP JUMPDEST PUSH2 0x6B01 PUSH1 0x40 DUP4 ADD DUP8 PUSH2 0x67A3 JUMP JUMPDEST PUSH2 0x6B0E PUSH1 0x60 DUP4 ADD DUP7 PUSH2 0x6A8C JUMP JUMPDEST PUSH2 0x6B1B PUSH1 0x80 DUP4 ADD DUP6 PUSH2 0x6978 JUMP JUMPDEST PUSH2 0x6B28 PUSH1 0xA0 DUP4 ADD DUP5 PUSH2 0x6A93 JUMP JUMPDEST SWAP8 SWAP7 POP POP POP POP POP POP POP JUMP JUMPDEST PUSH32 0x4E487B7100000000000000000000000000000000000000000000000000000000 PUSH0 MSTORE PUSH1 0x21 PUSH1 0x4 MSTORE PUSH1 0x24 PUSH0 REVERT JUMPDEST PUSH1 0x3 DUP2 LT PUSH2 0x6B71 JUMPI PUSH2 0x6B70 PUSH2 0x6B33 JUMP JUMPDEST JUMPDEST POP JUMP JUMPDEST PUSH0 DUP2 SWAP1 POP PUSH2 0x6B81 DUP3 PUSH2 0x6B60 JUMP JUMPDEST SWAP2 SWAP1 POP JUMP JUMPDEST PUSH0 PUSH2 0x6B90 DUP3 PUSH2 0x6B74 JUMP JUMPDEST SWAP1 POP SWAP2 SWAP1 POP JUMP JUMPDEST PUSH2 0x6BA0 DUP2 PUSH2 0x6B86 JUMP JUMPDEST DUP3 MSTORE POP POP JUMP JUMPDEST PUSH1 0xA0 DUP3 ADD PUSH0 DUP3 ADD MLOAD PUSH2 0x6BBA PUSH0 DUP6 ADD DUP3 PUSH2 0x67B9 JUMP JUMPDEST POP PUSH1 0x20 DUP3 ADD MLOAD PUSH2 0x6BCD PUSH1 0x20 DUP6 ADD DUP3 PUSH2 0x67AA JUMP JUMPDEST POP PUSH1 0x40 DUP3 ADD MLOAD PUSH2 0x6BE0 PUSH1 0x40 DUP6 ADD DUP3 PUSH2 0x6B97 JUMP JUMPDEST POP PUSH1 0x60 DUP3 ADD MLOAD PUSH2 0x6BF3 PUSH1 0x60 DUP6 ADD DUP3 PUSH2 0x67B9 JUMP JUMPDEST POP PUSH1 0x80 DUP3 ADD MLOAD PUSH2 0x6C06 PUSH1 0x80 DUP6 ADD DUP3 PUSH2 0x67C8 JUMP JUMPDEST POP POP POP POP JUMP JUMPDEST PUSH0 PUSH2 0x100 DUP3 ADD SWAP1 POP PUSH2 0x6C20 PUSH0 DUP4 ADD DUP8 PUSH2 0x678E JUMP JUMPDEST PUSH2 0x6C2D PUSH1 0x20 DUP4 ADD DUP7 PUSH2 0x6795 JUMP JUMPDEST PUSH2 0x6C3A PUSH1 0x40 DUP4 ADD DUP6 PUSH2 0x6978 JUMP JUMPDEST PUSH2 0x6C47 PUSH1 0x60 DUP4 ADD DUP5 PUSH2 0x6BA6 JUMP JUMPDEST SWAP6 SWAP5 POP POP POP POP POP JUMP JUMPDEST PUSH0 DUP2 MLOAD SWAP1 POP PUSH2 0x6C5E DUP2 PUSH2 0x5342 JUMP JUMPDEST SWAP3 SWAP2 POP POP JUMP JUMPDEST PUSH0 PUSH1 0x20 DUP3 DUP5 SUB SLT ISZERO PUSH2 0x6C79 JUMPI PUSH2 0x6C78 PUSH2 0x52D7 JUMP JUMPDEST JUMPDEST PUSH0 PUSH2 0x6C86 DUP5 DUP3 DUP6 ADD PUSH2 0x6C50 JUMP JUMPDEST SWAP2 POP POP SWAP3 SWAP2 POP POP JUMP JUMPDEST DUP1 DUP3 MSTORE POP POP JUMP JUMPDEST PUSH0 DUP2 MLOAD SWAP1 POP SWAP2 SWAP1 POP JUMP JUMPDEST PUSH0 DUP3 DUP3 MSTORE PUSH1 0x20 DUP3 ADD SWAP1 POP SWAP3 SWAP2 POP POP JUMP JUMPDEST PUSH0 PUSH2 0x6CBA DUP3 PUSH2 0x6C96 JUMP JUMPDEST PUSH2 0x6CC4 DUP2 DUP6 PUSH2 0x6CA0 JUMP JUMPDEST SWAP4 POP PUSH2 0x6CD4 DUP2 DUP6 PUSH1 0x20 DUP7 ADD PUSH2 0x5C81 JUMP JUMPDEST PUSH2 0x6CDD DUP2 PUSH2 0x5C8F JUMP JUMPDEST DUP5 ADD SWAP2 POP POP SWAP3 SWAP2 POP POP JUMP JUMPDEST PUSH0 PUSH1 0xE0 DUP4 ADD PUSH0 DUP4 ADD MLOAD PUSH2 0x6CFD PUSH0 DUP7 ADD DUP3 PUSH2 0x67B9 JUMP JUMPDEST POP PUSH1 0x20 DUP4 ADD MLOAD PUSH2 0x6D10 PUSH1 0x20 DUP7 ADD DUP3 PUSH2 0x67B9 JUMP JUMPDEST POP PUSH1 0x40 DUP4 ADD MLOAD PUSH2 0x6D23 PUSH1 0x40 DUP7 ADD DUP3 PUSH2 0x67AA JUMP JUMPDEST POP PUSH1 0x60 DUP4 ADD MLOAD DUP5 DUP3 SUB PUSH1 0x60 DUP7 ADD MSTORE PUSH2 0x6D3B DUP3 DUP3 PUSH2 0x6CB0 JUMP JUMPDEST SWAP2 POP POP PUSH1 0x80 DUP4 ADD MLOAD PUSH2 0x6D50 PUSH1 0x80 DUP7 ADD DUP3 PUSH2 0x697F JUMP JUMPDEST POP PUSH1 0xA0 DUP4 ADD MLOAD PUSH2 0x6D63 PUSH1 0xA0 DUP7 ADD DUP3 PUSH2 0x67AA JUMP JUMPDEST POP PUSH1 0xC0 DUP4 ADD MLOAD PUSH2 0x6D76 PUSH1 0xC0 DUP7 ADD DUP3 PUSH2 0x67AA JUMP JUMPDEST POP DUP1 SWAP2 POP POP SWAP3 SWAP2 POP POP JUMP JUMPDEST PUSH0 PUSH1 0x40 DUP3 ADD SWAP1 POP PUSH2 0x6D94 PUSH0 DUP4 ADD DUP6 PUSH2 0x6C8F JUMP JUMPDEST DUP2 DUP2 SUB PUSH1 0x20 DUP4 ADD MSTORE PUSH2 0x6DA6 DUP2 DUP5 PUSH2 0x6CE8 JUMP JUMPDEST SWAP1 POP SWAP4 SWAP3 POP POP POP JUMP JUMPDEST PUSH2 0x6DB8 DUP2 PUSH2 0x52FE JUMP JUMPDEST DUP3 MSTORE POP POP JUMP JUMPDEST PUSH2 0x6DC7 DUP2 PUSH2 0x536C JUMP JUMPDEST DUP3 MSTORE POP POP JUMP JUMPDEST PUSH0 PUSH2 0x6DE7 PUSH2 0x6DE2 PUSH2 0x6DDD DUP5 PUSH2 0x5440 JUMP JUMPDEST PUSH2 0x5591 JUMP JUMPDEST PUSH2 0x5339 JUMP JUMPDEST SWAP1 POP SWAP2 SWAP1 POP JUMP JUMPDEST PUSH2 0x6DF7 DUP2 PUSH2 0x6DCD JUMP JUMPDEST DUP3 MSTORE POP POP JUMP JUMPDEST PUSH2 0x6E06 DUP2 PUSH2 0x5477 JUMP JUMPDEST DUP3 MSTORE POP POP JUMP JUMPDEST PUSH0 PUSH2 0x120 DUP3 ADD SWAP1 POP PUSH2 0x6E20 PUSH0 DUP4 ADD DUP13 PUSH2 0x678E JUMP JUMPDEST PUSH2 0x6E2D PUSH1 0x20 DUP4 ADD DUP12 PUSH2 0x6795 JUMP JUMPDEST PUSH2 0x6E3A PUSH1 0x40 DUP4 ADD DUP11 PUSH2 0x67A3 JUMP JUMPDEST PUSH2 0x6E47 PUSH1 0x60 DUP4 ADD DUP10 PUSH2 0x6978 JUMP JUMPDEST PUSH2 0x6E54 PUSH1 0x80 DUP4 ADD DUP9 PUSH2 0x6DAF JUMP JUMPDEST PUSH2 0x6E61 PUSH1 0xA0 DUP4 ADD DUP8 PUSH2 0x6DBE JUMP JUMPDEST PUSH2 0x6E6E PUSH1 0xC0 DUP4 ADD DUP7 PUSH2 0x6DEE JUMP JUMPDEST PUSH2 0x6E7B PUSH1 0xE0 DUP4 ADD DUP6 PUSH2 0x6DAF JUMP JUMPDEST PUSH2 0x6E89 PUSH2 0x100 DUP4 ADD DUP5 PUSH2 0x6DFD JUMP JUMPDEST SWAP11 SWAP10 POP POP POP POP POP POP POP POP POP POP JUMP JUMPDEST PUSH0 PUSH1 0x60 DUP3 ADD SWAP1 POP PUSH2 0x6EAA PUSH0 DUP4 ADD DUP7 PUSH2 0x678E JUMP JUMPDEST PUSH2 0x6EB7 PUSH1 0x20 DUP4 ADD DUP6 PUSH2 0x6795 JUMP JUMPDEST PUSH2 0x6EC4 PUSH1 0x40 DUP4 ADD DUP5 PUSH2 0x6DAF JUMP JUMPDEST SWAP5 SWAP4 POP POP POP POP JUMP JUMPDEST PUSH1 0xC0 DUP3 ADD PUSH0 DUP3 ADD MLOAD PUSH2 0x6EE0 PUSH0 DUP6 ADD DUP3 PUSH2 0x67B9 JUMP JUMPDEST POP PUSH1 0x20 DUP3 ADD MLOAD PUSH2 0x6EF3 PUSH1 0x20 DUP6 ADD DUP3 PUSH2 0x67AA JUMP JUMPDEST POP PUSH1 0x40 DUP3 ADD MLOAD PUSH2 0x6F06 PUSH1 0x40 DUP6 ADD DUP3 PUSH2 0x67B9 JUMP JUMPDEST POP PUSH1 0x60 DUP3 ADD MLOAD PUSH2 0x6F19 PUSH1 0x60 DUP6 ADD DUP3 PUSH2 0x67AA JUMP JUMPDEST POP PUSH1 0x80 DUP3 ADD MLOAD PUSH2 0x6F2C PUSH1 0x80 DUP6 ADD DUP3 PUSH2 0x67B9 JUMP JUMPDEST POP PUSH1 0xA0 DUP3 ADD MLOAD PUSH2 0x6F3F PUSH1 0xA0 DUP6 ADD DUP3 PUSH2 0x67D7 JUMP JUMPDEST POP POP POP POP JUMP JUMPDEST PUSH0 PUSH2 0x140 DUP3 ADD SWAP1 POP PUSH2 0x6F59 PUSH0 DUP4 ADD DUP9 PUSH2 0x678E JUMP JUMPDEST PUSH2 0x6F66 PUSH1 0x20 DUP4 ADD DUP8 PUSH2 0x6795 JUMP JUMPDEST PUSH2 0x6F73 PUSH1 0x40 DUP4 ADD DUP7 PUSH2 0x67A3 JUMP JUMPDEST PUSH2 0x6F80 PUSH1 0x60 DUP4 ADD DUP6 PUSH2 0x6978 JUMP JUMPDEST PUSH2 0x6F8D PUSH1 0x80 DUP4 ADD DUP5 PUSH2 0x6ECC JUMP JUMPDEST SWAP7 SWAP6 POP POP POP POP POP POP JUMP JUMPDEST PUSH2 0x6FA0 DUP2 PUSH2 0x5339 JUMP JUMPDEST DUP3 MSTORE POP POP JUMP JUMPDEST PUSH2 0x6FAF DUP2 PUSH2 0x5440 JUMP JUMPDEST DUP3 MSTORE POP POP JUMP JUMPDEST PUSH0 PUSH1 0xE0 DUP3 ADD SWAP1 POP PUSH2 0x6FC8 PUSH0 DUP4 ADD DUP11 PUSH2 0x678E JUMP JUMPDEST PUSH2 0x6FD5 PUSH1 0x20 DUP4 ADD DUP10 PUSH2 0x6795 JUMP JUMPDEST PUSH2 0x6FE2 PUSH1 0x40 DUP4 ADD DUP9 PUSH2 0x6978 JUMP JUMPDEST PUSH2 0x6FEF PUSH1 0x60 DUP4 ADD DUP8 PUSH2 0x6DAF JUMP JUMPDEST PUSH2 0x6FFC PUSH1 0x80 DUP4 ADD DUP7 PUSH2 0x6F97 JUMP JUMPDEST PUSH2 0x7009 PUSH1 0xA0 DUP4 ADD DUP6 PUSH2 0x6DAF JUMP JUMPDEST PUSH2 0x7016 PUSH1 0xC0 DUP4 ADD DUP5 PUSH2 0x6FA6 JUMP JUMPDEST SWAP9 SWAP8 POP POP POP POP POP POP POP POP JUMP JUMPDEST PUSH32 0x4E487B7100000000000000000000000000000000000000000000000000000000 PUSH0 MSTORE PUSH1 0x22 PUSH1 0x4 MSTORE PUSH1 0x24 PUSH0 REVERT JUMPDEST PUSH0 PUSH1 0x2 DUP3 DIV SWAP1 POP PUSH1 0x1 DUP3 AND DUP1 PUSH2 0x7066 JUMPI PUSH1 0x7F DUP3 AND SWAP2 POP JUMPDEST PUSH1 0x20 DUP3 LT DUP2 SUB PUSH2 0x7079 JUMPI PUSH2 0x7078 PUSH2 0x7022 JUMP JUMPDEST JUMPDEST POP SWAP2 SWAP1 POP JUMP JUMPDEST PUSH1 0xE0 DUP3 ADD PUSH0 DUP3 ADD MLOAD PUSH2 0x7093 PUSH0 DUP6 ADD DUP3 PUSH2 0x67B9 JUMP JUMPDEST POP PUSH1 0x20 DUP3 ADD MLOAD PUSH2 0x70A6 PUSH1 0x20 DUP6 ADD DUP3 PUSH2 0x67B9 JUMP JUMPDEST POP PUSH1 0x40 DUP3 ADD MLOAD PUSH2 0x70B9 PUSH1 0x40 DUP6 ADD DUP3 PUSH2 0x67B9 JUMP JUMPDEST POP PUSH1 0x60 DUP3 ADD MLOAD PUSH2 0x70CC PUSH1 0x60 DUP6 ADD DUP3 PUSH2 0x67B9 JUMP JUMPDEST POP PUSH1 0x80 DUP3 ADD MLOAD PUSH2 0x70DF PUSH1 0x80 DUP6 ADD DUP3 PUSH2 0x67B9 JUMP JUMPDEST POP PUSH1 0xA0 DUP3 ADD MLOAD PUSH2 0x70F2 PUSH1 0xA0 DUP6 ADD DUP3 PUSH2 0x697F JUMP JUMPDEST POP PUSH1 0xC0 DUP3 ADD MLOAD PUSH2 0x7105 PUSH1 0xC0 DUP6 ADD DUP3 PUSH2 0x697F JUMP JUMPDEST POP POP POP POP JUMP JUMPDEST PUSH0 PUSH2 0x120 DUP3 ADD SWAP1 POP PUSH2 0x711F PUSH0 DUP4 ADD DUP7 PUSH2 0x678E JUMP JUMPDEST PUSH2 0x712C PUSH1 0x20 DUP4 ADD DUP6 PUSH2 0x6795 JUMP JUMPDEST PUSH2 0x7139 PUSH1 0x40 DUP4 ADD DUP5 PUSH2 0x707F JUMP JUMPDEST SWAP5 SWAP4 POP POP POP POP JUMP JUMPDEST PUSH0 DUP2 MLOAD SWAP1 POP PUSH2 0x714F DUP2 PUSH2 0x5377 JUMP JUMPDEST SWAP3 SWAP2 POP POP JUMP JUMPDEST PUSH0 PUSH1 0x20 DUP3 DUP5 SUB SLT ISZERO PUSH2 0x716A JUMPI PUSH2 0x7169 PUSH2 0x52D7 JUMP JUMPDEST JUMPDEST PUSH0 PUSH2 0x7177 DUP5 DUP3 DUP6 ADD PUSH2 0x7141 JUMP JUMPDEST SWAP2 POP POP SWAP3 SWAP2 POP POP JUMP JUMPDEST PUSH32 0x4E487B7100000000000000000000000000000000000000000000000000000000 PUSH0 MSTORE PUSH1 0x11 PUSH1 0x4 MSTORE PUSH1 0x24 PUSH0 REVERT JUMPDEST PUSH0 PUSH2 0x71B7 DUP3 PUSH2 0x5440 JUMP JUMPDEST SWAP2 POP PUSH2 0xFFFF DUP3 SUB PUSH2 0x71CB JUMPI PUSH2 0x71CA PUSH2 0x7180 JUMP JUMPDEST JUMPDEST PUSH1 0x1 DUP3 ADD SWAP1 POP SWAP2 SWAP1 POP JUMP JUMPDEST PUSH2 0x71DF DUP2 PUSH2 0x6B86 JUMP JUMPDEST DUP3 MSTORE POP POP JUMP JUMPDEST PUSH0 PUSH1 0x80 DUP3 ADD SWAP1 POP PUSH2 0x71F8 PUSH0 DUP4 ADD DUP8 PUSH2 0x6C8F JUMP JUMPDEST PUSH2 0x7205 PUSH1 0x20 DUP4 ADD DUP7 PUSH2 0x6978 JUMP JUMPDEST PUSH2 0x7212 PUSH1 0x40 DUP4 ADD DUP6 PUSH2 0x6DAF JUMP JUMPDEST PUSH2 0x721F PUSH1 0x60 DUP4 ADD DUP5 PUSH2 0x71D6 JUMP JUMPDEST SWAP6 SWAP5 POP POP POP POP POP JUMP JUMPDEST PUSH0 DUP3 DUP3 MSTORE PUSH1 0x20 DUP3 ADD SWAP1 POP SWAP3 SWAP2 POP POP JUMP JUMPDEST PUSH0 DUP2 SWAP1 POP SWAP2 SWAP1 POP JUMP JUMPDEST PUSH0 PUSH2 0x724C DUP4 DUP4 PUSH2 0x67B9 JUMP JUMPDEST PUSH1 0x20 DUP4 ADD SWAP1 POP SWAP3 SWAP2 POP POP JUMP JUMPDEST PUSH0 PUSH2 0x7266 PUSH1 0x20 DUP5 ADD DUP5 PUSH2 0x5325 JUMP JUMPDEST SWAP1 POP SWAP3 SWAP2 POP POP JUMP JUMPDEST PUSH0 PUSH1 0x20 DUP3 ADD SWAP1 POP SWAP2 SWAP1 POP JUMP JUMPDEST PUSH0 PUSH2 0x7285 DUP4 DUP6 PUSH2 0x7228 JUMP JUMPDEST SWAP4 POP PUSH2 0x7290 DUP3 PUSH2 0x7238 JUMP JUMPDEST DUP1 PUSH0 JUMPDEST DUP6 DUP2 LT ISZERO PUSH2 0x72C8 JUMPI PUSH2 0x72A5 DUP3 DUP5 PUSH2 0x7258 JUMP JUMPDEST PUSH2 0x72AF DUP9 DUP3 PUSH2 0x7241 JUMP JUMPDEST SWAP8 POP PUSH2 0x72BA DUP4 PUSH2 0x726E JUMP JUMPDEST SWAP3 POP POP PUSH1 0x1 DUP2 ADD SWAP1 POP PUSH2 0x7293 JUMP JUMPDEST POP DUP6 SWAP3 POP POP POP SWAP4 SWAP3 POP POP POP JUMP JUMPDEST PUSH0 PUSH1 0x40 DUP3 ADD SWAP1 POP PUSH2 0x72E8 PUSH0 DUP4 ADD DUP7 PUSH2 0x678E JUMP JUMPDEST DUP2 DUP2 SUB PUSH1 0x20 DUP4 ADD MSTORE PUSH2 0x72FB DUP2 DUP5 DUP7 PUSH2 0x727A JUMP JUMPDEST SWAP1 POP SWAP5 SWAP4 POP POP POP POP JUMP JUMPDEST PUSH2 0x180 DUP3 ADD PUSH0 DUP3 ADD MLOAD PUSH2 0x731A PUSH0 DUP6 ADD DUP3 PUSH2 0x67B9 JUMP JUMPDEST POP PUSH1 0x20 DUP3 ADD MLOAD PUSH2 0x732D PUSH1 0x20 DUP6 ADD DUP3 PUSH2 0x67B9 JUMP JUMPDEST POP PUSH1 0x40 DUP3 ADD MLOAD PUSH2 0x7340 PUSH1 0x40 DUP6 ADD DUP3 PUSH2 0x67B9 JUMP JUMPDEST POP PUSH1 0x60 DUP3 ADD MLOAD PUSH2 0x7353 PUSH1 0x60 DUP6 ADD DUP3 PUSH2 0x67AA JUMP JUMPDEST POP PUSH1 0x80 DUP3 ADD MLOAD PUSH2 0x7366 PUSH1 0x80 DUP6 ADD DUP3 PUSH2 0x6B97 JUMP JUMPDEST POP PUSH1 0xA0 DUP3 ADD MLOAD PUSH2 0x7379 PUSH1 0xA0 DUP6 ADD DUP3 PUSH2 0x697F JUMP JUMPDEST POP PUSH1 0xC0 DUP3 ADD MLOAD PUSH2 0x738C PUSH1 0xC0 DUP6 ADD DUP3 PUSH2 0x67C8 JUMP JUMPDEST POP PUSH1 0xE0 DUP3 ADD MLOAD PUSH2 0x739F PUSH1 0xE0 DUP6 ADD DUP3 PUSH2 0x67AA JUMP JUMPDEST POP PUSH2 0x100 DUP3 ADD MLOAD PUSH2 0x73B4 PUSH2 0x100 DUP6 ADD DUP3 PUSH2 0x67AA JUMP JUMPDEST POP PUSH2 0x120 DUP3 ADD MLOAD PUSH2 0x73C9 PUSH2 0x120 DUP6 ADD DUP3 PUSH2 0x67B9 JUMP JUMPDEST POP PUSH2 0x140 DUP3 ADD MLOAD PUSH2 0x73DE PUSH2 0x140 DUP6 ADD DUP3 PUSH2 0x67D7 JUMP JUMPDEST POP PUSH2 0x160 DUP3 ADD MLOAD PUSH2 0x73F3 PUSH2 0x160 DUP6 ADD DUP3 PUSH2 0x67B9 JUMP JUMPDEST POP POP POP POP JUMP JUMPDEST PUSH0 PUSH2 0x200 DUP3 ADD SWAP1 POP PUSH2 0x740D PUSH0 DUP4 ADD DUP9 PUSH2 0x678E JUMP JUMPDEST PUSH2 0x741A PUSH1 0x20 DUP4 ADD DUP8 PUSH2 0x6795 JUMP JUMPDEST PUSH2 0x7427 PUSH1 0x40 DUP4 ADD DUP7 PUSH2 0x67A3 JUMP JUMPDEST PUSH2 0x7434 PUSH1 0x60 DUP4 ADD DUP6 PUSH2 0x6978 JUMP JUMPDEST PUSH2 0x7441 PUSH1 0x80 DUP4 ADD DUP5 PUSH2 0x7305 JUMP JUMPDEST SWAP7 SWAP6 POP POP POP POP POP POP JUMP JUMPDEST PUSH0 DUP3 DUP3 MSTORE PUSH1 0x20 DUP3 ADD SWAP1 POP SWAP3 SWAP2 POP POP JUMP JUMPDEST PUSH0 PUSH2 0x7465 DUP3 PUSH2 0x6258 JUMP JUMPDEST PUSH2 0x746F DUP2 DUP6 PUSH2 0x744B JUMP JUMPDEST SWAP4 POP PUSH2 0x747A DUP4 PUSH2 0x6272 JUMP JUMPDEST DUP1 PUSH0 JUMPDEST DUP4 DUP2 LT ISZERO PUSH2 0x74AA JUMPI DUP2 MLOAD PUSH2 0x7491 DUP9 DUP3 PUSH2 0x7241 JUMP JUMPDEST SWAP8 POP PUSH2 0x749C DUP4 PUSH2 0x6298 JUMP JUMPDEST SWAP3 POP POP PUSH1 0x1 DUP2 ADD SWAP1 POP PUSH2 0x747D JUMP JUMPDEST POP DUP6 SWAP4 POP POP POP POP SWAP3 SWAP2 POP POP JUMP JUMPDEST PUSH0 DUP2 MLOAD SWAP1 POP SWAP2 SWAP1 POP JUMP JUMPDEST PUSH0 DUP3 DUP3 MSTORE PUSH1 0x20 DUP3 ADD SWAP1 POP SWAP3 SWAP2 POP POP JUMP JUMPDEST PUSH0 DUP2 SWAP1 POP PUSH1 0x20 DUP3 ADD SWAP1 POP SWAP2 SWAP1 POP JUMP JUMPDEST PUSH0 PUSH2 0x74EB DUP4 DUP4 PUSH2 0x67AA JUMP JUMPDEST PUSH1 0x20 DUP4 ADD SWAP1 POP SWAP3 SWAP2 POP POP JUMP JUMPDEST PUSH0 PUSH1 0x20 DUP3 ADD SWAP1 POP SWAP2 SWAP1 POP JUMP JUMPDEST PUSH0 PUSH2 0x750D DUP3 PUSH2 0x74B7 JUMP JUMPDEST PUSH2 0x7517 DUP2 DUP6 PUSH2 0x74C1 JUMP JUMPDEST SWAP4 POP PUSH2 0x7522 DUP4 PUSH2 0x74D1 JUMP JUMPDEST DUP1 PUSH0 JUMPDEST DUP4 DUP2 LT ISZERO PUSH2 0x7552 JUMPI DUP2 MLOAD PUSH2 0x7539 DUP9 DUP3 PUSH2 0x74E0 JUMP JUMPDEST SWAP8 POP PUSH2 0x7544 DUP4 PUSH2 0x74F7 JUMP JUMPDEST SWAP3 POP POP PUSH1 0x1 DUP2 ADD SWAP1 POP PUSH2 0x7525 JUMP JUMPDEST POP DUP6 SWAP4 POP POP POP POP SWAP3 SWAP2 POP POP JUMP JUMPDEST PUSH0 PUSH2 0x1C0 DUP4 ADD PUSH0 DUP4 ADD MLOAD PUSH2 0x7575 PUSH0 DUP7 ADD DUP3 PUSH2 0x67B9 JUMP JUMPDEST POP PUSH1 0x20 DUP4 ADD MLOAD DUP5 DUP3 SUB PUSH1 0x20 DUP7 ADD MSTORE PUSH2 0x758D DUP3 DUP3 PUSH2 0x745B JUMP JUMPDEST SWAP2 POP POP PUSH1 0x40 DUP4 ADD MLOAD DUP5 DUP3 SUB PUSH1 0x40 DUP7 ADD MSTORE PUSH2 0x75A7 DUP3 DUP3 PUSH2 0x7503 JUMP JUMPDEST SWAP2 POP POP PUSH1 0x60 DUP4 ADD MLOAD DUP5 DUP3 SUB PUSH1 0x60 DUP7 ADD MSTORE PUSH2 0x75C1 DUP3 DUP3 PUSH2 0x7503 JUMP JUMPDEST SWAP2 POP POP PUSH1 0x80 DUP4 ADD MLOAD PUSH2 0x75D6 PUSH1 0x80 DUP7 ADD DUP3 PUSH2 0x67B9 JUMP JUMPDEST POP PUSH1 0xA0 DUP4 ADD MLOAD DUP5 DUP3 SUB PUSH1 0xA0 DUP7 ADD MSTORE PUSH2 0x75EE DUP3 DUP3 PUSH2 0x6CB0 JUMP JUMPDEST SWAP2 POP POP PUSH1 0xC0 DUP4 ADD MLOAD PUSH2 0x7603 PUSH1 0xC0 DUP7 ADD DUP3 PUSH2 0x697F JUMP JUMPDEST POP PUSH1 0xE0 DUP4 ADD MLOAD PUSH2 0x7616 PUSH1 0xE0 DUP7 ADD DUP3 PUSH2 0x67AA JUMP JUMPDEST POP PUSH2 0x100 DUP4 ADD MLOAD PUSH2 0x762B PUSH2 0x100 DUP7 ADD DUP3 PUSH2 0x67AA JUMP JUMPDEST POP PUSH2 0x120 DUP4 ADD MLOAD PUSH2 0x7640 PUSH2 0x120 DUP7 ADD DUP3 PUSH2 0x67AA JUMP JUMPDEST POP PUSH2 0x140 DUP4 ADD MLOAD PUSH2 0x7655 PUSH2 0x140 DUP7 ADD DUP3 PUSH2 0x67AA JUMP JUMPDEST POP PUSH2 0x160 DUP4 ADD MLOAD PUSH2 0x766A PUSH2 0x160 DUP7 ADD DUP3 PUSH2 0x67B9 JUMP JUMPDEST POP PUSH2 0x180 DUP4 ADD MLOAD PUSH2 0x767F PUSH2 0x180 DUP7 ADD DUP3 PUSH2 0x67D7 JUMP JUMPDEST POP PUSH2 0x1A0 DUP4 ADD MLOAD PUSH2 0x7694 PUSH2 0x1A0 DUP7 ADD DUP3 PUSH2 0x67C8 JUMP JUMPDEST POP DUP1 SWAP2 POP POP SWAP3 SWAP2 POP POP JUMP JUMPDEST PUSH0 PUSH1 0xA0 DUP3 ADD SWAP1 POP PUSH2 0x76B2 PUSH0 DUP4 ADD DUP9 PUSH2 0x678E JUMP JUMPDEST PUSH2 0x76BF PUSH1 0x20 DUP4 ADD DUP8 PUSH2 0x6795 JUMP JUMPDEST PUSH2 0x76CC PUSH1 0x40 DUP4 ADD DUP7 PUSH2 0x67A3 JUMP JUMPDEST PUSH2 0x76D9 PUSH1 0x60 DUP4 ADD DUP6 PUSH2 0x6978 JUMP JUMPDEST DUP2 DUP2 SUB PUSH1 0x80 DUP4 ADD MSTORE PUSH2 0x76EB DUP2 DUP5 PUSH2 0x755F JUMP JUMPDEST SWAP1 POP SWAP7 SWAP6 POP POP POP POP POP POP JUMP JUMPDEST PUSH1 0x20 DUP3 ADD PUSH0 DUP3 ADD MLOAD PUSH2 0x770B PUSH0 DUP6 ADD DUP3 PUSH2 0x67AA JUMP JUMPDEST POP POP POP POP JUMP JUMPDEST PUSH1 0xA0 DUP3 ADD PUSH0 DUP3 ADD MLOAD PUSH2 0x7725 PUSH0 DUP6 ADD DUP3 PUSH2 0x76F7 JUMP JUMPDEST POP PUSH1 0x20 DUP3 ADD MLOAD PUSH2 0x7738 PUSH1 0x20 DUP6 ADD DUP3 PUSH2 0x67AA JUMP JUMPDEST POP PUSH1 0x40 DUP3 ADD MLOAD PUSH2 0x774B PUSH1 0x40 DUP6 ADD DUP3 PUSH2 0x67B9 JUMP JUMPDEST POP PUSH1 0x60 DUP3 ADD MLOAD PUSH2 0x775E PUSH1 0x60 DUP6 ADD DUP3 PUSH2 0x67B9 JUMP JUMPDEST POP PUSH1 0x80 DUP3 ADD MLOAD PUSH2 0x7771 PUSH1 0x80 DUP6 ADD DUP3 PUSH2 0x67D7 JUMP JUMPDEST POP POP POP POP JUMP JUMPDEST PUSH0 PUSH2 0x100 DUP3 ADD SWAP1 POP PUSH2 0x778B PUSH0 DUP4 ADD DUP8 PUSH2 0x678E JUMP JUMPDEST PUSH2 0x7798 PUSH1 0x20 DUP4 ADD DUP7 PUSH2 0x6795 JUMP JUMPDEST PUSH2 0x77A5 PUSH1 0x40 DUP4 ADD DUP6 PUSH2 0x67A3 JUMP JUMPDEST PUSH2 0x77B2 PUSH1 0x60 DUP4 ADD DUP5 PUSH2 0x7711 JUMP JUMPDEST SWAP6 SWAP5 POP POP POP POP POP JUMP JUMPDEST PUSH0 DUP1 PUSH0 DUP1 PUSH0 DUP1 PUSH1 0xC0 DUP8 DUP10 SUB SLT ISZERO PUSH2 0x77D5 JUMPI PUSH2 0x77D4 PUSH2 0x52D7 JUMP JUMPDEST JUMPDEST PUSH0 PUSH2 0x77E2 DUP10 DUP3 DUP11 ADD PUSH2 0x6C50 JUMP JUMPDEST SWAP7 POP POP PUSH1 0x20 PUSH2 0x77F3 DUP10 DUP3 DUP11 ADD PUSH2 0x6C50 JUMP JUMPDEST SWAP6 POP POP PUSH1 0x40 PUSH2 0x7804 DUP10 DUP3 DUP11 ADD PUSH2 0x6C50 JUMP JUMPDEST SWAP5 POP POP PUSH1 0x60 PUSH2 0x7815 DUP10 DUP3 DUP11 ADD PUSH2 0x6C50 JUMP JUMPDEST SWAP4 POP POP PUSH1 0x80 PUSH2 0x7826 DUP10 DUP3 DUP11 ADD PUSH2 0x6C50 JUMP JUMPDEST SWAP3 POP POP PUSH1 0xA0 PUSH2 0x7837 DUP10 DUP3 DUP11 ADD PUSH2 0x6C50 JUMP JUMPDEST SWAP2 POP POP SWAP3 SWAP6 POP SWAP3 SWAP6 POP SWAP3 SWAP6 JUMP JUMPDEST PUSH32 0x436F6E747261637420696E7374616E63652068617320616C7265616479206265 PUSH0 DUP3 ADD MSTORE PUSH32 0x656E20696E697469616C697A6564000000000000000000000000000000000000 PUSH1 0x20 DUP3 ADD MSTORE POP JUMP JUMPDEST PUSH0 PUSH2 0x789E PUSH1 0x2E DUP4 PUSH2 0x6A24 JUMP JUMPDEST SWAP2 POP PUSH2 0x78A9 DUP3 PUSH2 0x7844 JUMP JUMPDEST PUSH1 0x40 DUP3 ADD SWAP1 POP SWAP2 SWAP1 POP JUMP JUMPDEST PUSH0 PUSH1 0x20 DUP3 ADD SWAP1 POP DUP2 DUP2 SUB PUSH0 DUP4 ADD MSTORE PUSH2 0x78CB DUP2 PUSH2 0x7892 JUMP JUMPDEST SWAP1 POP SWAP2 SWAP1 POP JUMP JUMPDEST PUSH0 PUSH1 0x60 DUP3 ADD SWAP1 POP PUSH2 0x78E5 PUSH0 DUP4 ADD DUP7 PUSH2 0x6C8F JUMP JUMPDEST PUSH2 0x78F2 PUSH1 0x20 DUP4 ADD DUP6 PUSH2 0x6DAF JUMP JUMPDEST PUSH2 0x78FF PUSH1 0x40 DUP4 ADD DUP5 PUSH2 0x6DAF JUMP JUMPDEST SWAP5 SWAP4 POP POP POP POP JUMP JUMPDEST PUSH0 PUSH1 0x60 DUP3 ADD SWAP1 POP PUSH2 0x791A PUSH0 DUP4 ADD DUP7 PUSH2 0x6DAF JUMP JUMPDEST PUSH2 0x7927 PUSH1 0x20 DUP4 ADD DUP6 PUSH2 0x6DAF JUMP JUMPDEST PUSH2 0x7934 PUSH1 0x40 DUP4 ADD DUP5 PUSH2 0x6F97 JUMP JUMPDEST SWAP5 SWAP4 POP POP POP POP JUMP JUMPDEST PUSH0 PUSH2 0x7946 DUP3 PUSH2 0x5339 JUMP JUMPDEST SWAP2 POP PUSH2 0x7951 DUP4 PUSH2 0x5339 JUMP JUMPDEST SWAP3 POP DUP3 DUP3 SUB SWAP1 POP DUP2 DUP2 GT ISZERO PUSH2 0x7969 JUMPI PUSH2 0x7968 PUSH2 0x7180 JUMP JUMPDEST JUMPDEST SWAP3 SWAP2 POP POP JUMP JUMPDEST PUSH32 0x4E487B7100000000000000000000000000000000000000000000000000000000 PUSH0 MSTORE PUSH1 0x32 PUSH1 0x4 MSTORE PUSH1 0x24 PUSH0 REVERT JUMPDEST PUSH0 PUSH2 0x79A6 DUP3 PUSH2 0x5339 JUMP JUMPDEST SWAP2 POP PUSH32 0xFFFFFFFFFFFFFFFFFFFFFFFFFFFFFFFFFFFFFFFFFFFFFFFFFFFFFFFFFFFFFFFF DUP3 SUB PUSH2 0x79D8 JUMPI PUSH2 0x79D7 PUSH2 0x7180 JUMP JUMPDEST JUMPDEST PUSH1 0x1 DUP3 ADD SWAP1 POP SWAP2 SWAP1 POP JUMP JUMPDEST PUSH0 DUP2 SWAP1 POP DUP2 PUSH0 MSTORE PUSH1 0x20 PUSH0 KECCAK256 SWAP1 POP SWAP2 SWAP1 POP JUMP JUMPDEST PUSH0 PUSH1 0x20 PUSH1 0x1F DUP4 ADD DIV SWAP1 POP SWAP2 SWAP1 POP JUMP JUMPDEST PUSH0 DUP3 DUP3 SHL SWAP1 POP SWAP3 SWAP2 POP POP JUMP JUMPDEST PUSH0 PUSH1 0x8 DUP4 MUL PUSH2 0x7A3F PUSH32 0xFFFFFFFFFFFFFFFFFFFFFFFFFFFFFFFFFFFFFFFFFFFFFFFFFFFFFFFFFFFFFFFF DUP3 PUSH2 0x7A04 JUMP JUMPDEST PUSH2 0x7A49 DUP7 DUP4 PUSH2 0x7A04 JUMP JUMPDEST SWAP6 POP DUP1 NOT DUP5 AND SWAP4 POP DUP1 DUP7 AND DUP5 OR SWAP3 POP POP POP SWAP4 SWAP3 POP POP POP JUMP JUMPDEST PUSH0 PUSH2 0x7A7B PUSH2 0x7A76 PUSH2 0x7A71 DUP5 PUSH2 0x5339 JUMP JUMPDEST PUSH2 0x5591 JUMP JUMPDEST PUSH2 0x5339 JUMP JUMPDEST SWAP1 POP SWAP2 SWAP1 POP JUMP JUMPDEST PUSH0 DUP2 SWAP1 POP SWAP2 SWAP1 POP JUMP JUMPDEST PUSH2 0x7A94 DUP4 PUSH2 0x7A61 JUMP JUMPDEST PUSH2 0x7AA8 PUSH2 0x7AA0 DUP3 PUSH2 0x7A82 JUMP JUMPDEST DUP5 DUP5 SLOAD PUSH2 0x7A10 JUMP JUMPDEST DUP3 SSTORE POP POP POP POP JUMP JUMPDEST PUSH0 SWAP1 JUMP JUMPDEST PUSH2 0x7ABC PUSH2 0x7AB0 JUMP JUMPDEST PUSH2 0x7AC7 DUP2 DUP5 DUP5 PUSH2 0x7A8B JUMP JUMPDEST POP POP POP JUMP JUMPDEST JUMPDEST DUP2 DUP2 LT ISZERO PUSH2 0x7AEA JUMPI PUSH2 0x7ADF PUSH0 DUP3 PUSH2 0x7AB4 JUMP JUMPDEST PUSH1 0x1 DUP2 ADD SWAP1 POP PUSH2 0x7ACD JUMP JUMPDEST POP POP JUMP JUMPDEST PUSH1 0x1F DUP3 GT ISZERO PUSH2 0x7B2F JUMPI PUSH2 0x7B00 DUP2 PUSH2 0x79E3 JUMP JUMPDEST PUSH2 0x7B09 DUP5 PUSH2 0x79F5 JUMP JUMPDEST DUP2 ADD PUSH1 0x20 DUP6 LT ISZERO PUSH2 0x7B18 JUMPI DUP2 SWAP1 POP JUMPDEST PUSH2 0x7B2C PUSH2 0x7B24 DUP6 PUSH2 0x79F5 JUMP JUMPDEST DUP4 ADD DUP3 PUSH2 0x7ACC JUMP JUMPDEST POP POP JUMPDEST POP POP POP JUMP JUMPDEST PUSH0 DUP3 DUP3 SHR SWAP1 POP SWAP3 SWAP2 POP POP JUMP JUMPDEST PUSH0 PUSH2 0x7B4F PUSH0 NOT DUP5 PUSH1 0x8 MUL PUSH2 0x7B34 JUMP JUMPDEST NOT DUP1 DUP4 AND SWAP2 POP POP SWAP3 SWAP2 POP POP JUMP JUMPDEST PUSH0 PUSH2 0x7B67 DUP4 DUP4 PUSH2 0x7B40 JUMP JUMPDEST SWAP2 POP DUP3 PUSH1 0x2 MUL DUP3 OR SWAP1 POP SWAP3 SWAP2 POP POP JUMP JUMPDEST PUSH2 0x7B80 DUP3 PUSH2 0x5C67 JUMP JUMPDEST PUSH8 0xFFFFFFFFFFFFFFFF DUP2 GT ISZERO PUSH2 0x7B99 JUMPI PUSH2 0x7B98 PUSH2 0x6324 JUMP JUMPDEST JUMPDEST PUSH2 0x7BA3 DUP3 SLOAD PUSH2 0x704F JUMP JUMPDEST PUSH2 0x7BAE DUP3 DUP3 DUP6 PUSH2 0x7AEE JUMP JUMPDEST PUSH0 PUSH1 0x20 SWAP1 POP PUSH1 0x1F DUP4 GT PUSH1 0x1 DUP2 EQ PUSH2 0x7BDF JUMPI PUSH0 DUP5 ISZERO PUSH2 0x7BCD JUMPI DUP3 DUP8 ADD MLOAD SWAP1 POP JUMPDEST PUSH2 0x7BD7 DUP6 DUP3 PUSH2 0x7B5C JUMP JUMPDEST DUP7 SSTORE POP PUSH2 0x7C3E JUMP JUMPDEST PUSH1 0x1F NOT DUP5 AND PUSH2 0x7BED DUP7 PUSH2 0x79E3 JUMP JUMPDEST PUSH0 JUMPDEST DUP3 DUP2 LT ISZERO PUSH2 0x7C14 JUMPI DUP5 DUP10 ADD MLOAD DUP3 SSTORE PUSH1 0x1 DUP3 ADD SWAP2 POP PUSH1 0x20 DUP6 ADD SWAP5 POP PUSH1 0x20 DUP2 ADD SWAP1 POP PUSH2 0x7BEF JUMP JUMPDEST DUP7 DUP4 LT ISZERO PUSH2 0x7C31 JUMPI DUP5 DUP10 ADD MLOAD PUSH2 0x7C2D PUSH1 0x1F DUP10 AND DUP3 PUSH2 0x7B40 JUMP JUMPDEST DUP4 SSTORE POP JUMPDEST PUSH1 0x1 PUSH1 0x2 DUP9 MUL ADD DUP9 SSTORE POP POP POP JUMPDEST POP POP POP POP POP POP JUMP JUMPDEST PUSH2 0x120 DUP3 ADD PUSH0 DUP3 ADD MLOAD PUSH2 0x7C5B PUSH0 DUP6 ADD DUP3 PUSH2 0x67B9 JUMP JUMPDEST POP PUSH1 0x20 DUP3 ADD MLOAD PUSH2 0x7C6E PUSH1 0x20 DUP6 ADD DUP3 PUSH2 0x67B9 JUMP JUMPDEST POP PUSH1 0x40 DUP3 ADD MLOAD PUSH2 0x7C81 PUSH1 0x40 DUP6 ADD DUP3 PUSH2 0x67B9 JUMP JUMPDEST POP PUSH1 0x60 DUP3 ADD MLOAD PUSH2 0x7C94 PUSH1 0x60 DUP6 ADD DUP3 PUSH2 0x67AA JUMP JUMPDEST POP PUSH1 0x80 DUP3 ADD MLOAD PUSH2 0x7CA7 PUSH1 0x80 DUP6 ADD DUP3 PUSH2 0x67AA JUMP JUMPDEST POP PUSH1 0xA0 DUP3 ADD MLOAD PUSH2 0x7CBA PUSH1 0xA0 DUP6 ADD DUP3 PUSH2 0x67AA JUMP JUMPDEST POP PUSH1 0xC0 DUP3 ADD MLOAD PUSH2 0x7CCD PUSH1 0xC0 DUP6 ADD DUP3 PUSH2 0x67AA JUMP JUMPDEST POP PUSH1 0xE0 DUP3 ADD MLOAD PUSH2 0x7CE0 PUSH1 0xE0 DUP6 ADD DUP3 PUSH2 0x67B9 JUMP JUMPDEST POP PUSH2 0x100 DUP3 ADD MLOAD PUSH2 0x7CF5 PUSH2 0x100 DUP6 ADD DUP3 PUSH2 0x67D7 JUMP JUMPDEST POP POP POP POP JUMP JUMPDEST PUSH0 PUSH2 0x1A0 DUP3 ADD SWAP1 POP PUSH2 0x7D0F PUSH0 DUP4 ADD DUP9 PUSH2 0x678E JUMP JUMPDEST PUSH2 0x7D1C PUSH1 0x20 DUP4 ADD DUP8 PUSH2 0x6795 JUMP JUMPDEST PUSH2 0x7D29 PUSH1 0x40 DUP4 ADD DUP7 PUSH2 0x67A3 JUMP JUMPDEST PUSH2 0x7D36 PUSH1 0x60 DUP4 ADD DUP6 PUSH2 0x679C JUMP JUMPDEST PUSH2 0x7D43 PUSH1 0x80 DUP4 ADD DUP5 PUSH2 0x7C46 JUMP JUMPDEST SWAP7 SWAP6 POP POP POP POP POP POP JUMP JUMPDEST PUSH0 PUSH1 0xA0 DUP3 ADD SWAP1 POP PUSH2 0x7D60 PUSH0 DUP4 ADD DUP9 PUSH2 0x6C8F JUMP JUMPDEST PUSH2 0x7D6D PUSH1 0x20 DUP4 ADD DUP8 PUSH2 0x6DAF JUMP JUMPDEST PUSH2 0x7D7A PUSH1 0x40 DUP4 ADD DUP7 PUSH2 0x6F97 JUMP JUMPDEST PUSH2 0x7D87 PUSH1 0x60 DUP4 ADD DUP6 PUSH2 0x6F97 JUMP JUMPDEST PUSH2 0x7D94 PUSH1 0x80 DUP4 ADD DUP5 PUSH2 0x6F97 JUMP JUMPDEST SWAP7 SWAP6 POP POP POP POP POP POP JUMP JUMPDEST PUSH0 PUSH1 0x40 DUP3 ADD SWAP1 POP PUSH2 0x7DB1 PUSH0 DUP4 ADD DUP6 PUSH2 0x678E JUMP JUMPDEST PUSH2 0x7DBE PUSH1 0x20 DUP4 ADD DUP5 PUSH2 0x6DAF JUMP JUMPDEST SWAP4 SWAP3 POP POP POP JUMP JUMPDEST PUSH0 DUP2 CALLDATALOAD PUSH2 0x7DD1 DUP2 PUSH2 0x5342 JUMP JUMPDEST DUP1 SWAP2 POP POP SWAP2 SWAP1 POP JUMP JUMPDEST PUSH0 DUP2 PUSH0 SHL SWAP1 POP SWAP2 SWAP1 POP JUMP JUMPDEST PUSH0 PUSH32 0xFFFFFFFFFFFFFFFFFFFFFFFFFFFFFFFFFFFFFFFFFFFFFFFFFFFFFFFFFFFFFFFF PUSH2 0x7E10 DUP5 PUSH2 0x7DDA JUMP JUMPDEST SWAP4 POP DUP1 NOT DUP4 AND SWAP3 POP DUP1 DUP5 AND DUP4 OR SWAP2 POP POP SWAP3 SWAP2 POP POP JUMP JUMPDEST PUSH2 0x7E2F DUP3 PUSH2 0x7A61 JUMP JUMPDEST PUSH2 0x7E42 PUSH2 0x7E3B DUP3 PUSH2 0x7A82 JUMP JUMPDEST DUP4 SLOAD PUSH2 0x7DE5 JUMP JUMPDEST DUP3 SSTORE POP POP POP JUMP JUMPDEST PUSH0 DUP2 ADD PUSH0 DUP4 ADD DUP1 PUSH2 0x7E59 DUP2 PUSH2 0x7DC5 JUMP JUMPDEST SWAP1 POP PUSH2 0x7E65 DUP2 DUP5 PUSH2 0x7E26 JUMP JUMPDEST POP POP POP POP POP JUMP JUMPDEST PUSH2 0x7E76 DUP3 DUP3 PUSH2 0x7E49 JUMP JUMPDEST POP POP JUMP JUMPDEST PUSH0 PUSH2 0x7E84 DUP3 PUSH2 0x5339 JUMP JUMPDEST SWAP2 POP PUSH2 0x7E8F DUP4 PUSH2 0x5339 JUMP JUMPDEST SWAP3 POP DUP3 DUP3 MUL PUSH2 0x7E9D DUP2 PUSH2 0x5339 JUMP JUMPDEST SWAP2 POP DUP3 DUP3 DIV DUP5 EQ DUP4 ISZERO OR PUSH2 0x7EB4 JUMPI PUSH2 0x7EB3 PUSH2 0x7180 JUMP JUMPDEST JUMPDEST POP SWAP3 SWAP2 POP POP JUMP JUMPDEST PUSH32 0x4E487B7100000000000000000000000000000000000000000000000000000000 PUSH0 MSTORE PUSH1 0x12 PUSH1 0x4 MSTORE PUSH1 0x24 PUSH0 REVERT JUMPDEST PUSH0 PUSH2 0x7EF2 DUP3 PUSH2 0x5339 JUMP JUMPDEST SWAP2 POP PUSH2 0x7EFD DUP4 PUSH2 0x5339 JUMP JUMPDEST SWAP3 POP DUP3 DUP3 ADD SWAP1 POP DUP1 DUP3 GT ISZERO PUSH2 0x7F15 JUMPI PUSH2 0x7F14 PUSH2 0x7180 JUMP JUMPDEST JUMPDEST SWAP3 SWAP2 POP POP JUMP JUMPDEST PUSH0 PUSH2 0x7F25 DUP3 PUSH2 0x5339 JUMP JUMPDEST SWAP2 POP PUSH2 0x7F30 DUP4 PUSH2 0x5339 JUMP JUMPDEST SWAP3 POP DUP3 PUSH2 0x7F40 JUMPI PUSH2 0x7F3F PUSH2 0x7EBB JUMP JUMPDEST JUMPDEST DUP3 DUP3 DIV SWAP1 POP SWAP3 SWAP2 POP POP JUMP INVALID LOG2 PUSH5 0x6970667358 0x22 SLT KECCAK256 0xCF PC CODESIZE 0xE6 SELFDESTRUCT 0x25 COINBASE SWAP14 0xA7 0xD7 PUSH22 0xB1FC1A02893DE876EA9E76EA40D1E2319E180522264 PUSH20 0x6F6C634300081A00330000000000000000000000 "
		},
		"gasEstimates": {
			"creation": {
				"codeDepositCost": "6528200",
				"executionCost": "infinite",
				"totalCost": "infinite"
			},
			"external": {
				"ADDRESSES_PROVIDER()": "infinite",
				"BRIDGE_PROTOCOL_FEE()": "2501",
				"FLASHLOAN_PREMIUM_TOTAL()": "2564",
				"FLASHLOAN_PREMIUM_TO_PROTOCOL()": "2635",
				"MAX_NUMBER_RESERVES()": "448",
				"MAX_STABLE_RATE_BORROW_SIZE_PERCENT()": "2540",
				"POOL_REVISION()": "417",
				"backUnbacked(address,uint256,uint256)": "infinite",
				"borrow(address,uint256,uint256,uint16,address)": "infinite",
				"borrow(bytes32)": "infinite",
				"configureEModeCategory(uint8,(uint16,uint16,uint16,address,string))": "infinite",
				"deposit(address,uint256,address,uint16)": "infinite",
				"dropReserve(address)": "infinite",
				"finalizeTransfer(address,address,address,uint256,uint256,uint256)": "infinite",
				"flashLoan(address,address[],uint256[],uint256[],address,bytes,uint16)": "infinite",
				"flashLoanSimple(address,address,uint256,bytes,uint16)": "infinite",
				"getConfiguration(address)": "3119",
				"getEModeCategoryData(uint8)": "infinite",
				"getReserveAddressById(uint16)": "2932",
				"getReserveData(address)": "infinite",
				"getReserveNormalizedIncome(address)": "infinite",
				"getReserveNormalizedVariableDebt(address)": "infinite",
				"getReservesList()": "infinite",
				"getUserAccountData(address)": "infinite",
				"getUserConfiguration(address)": "3093",
				"getUserEMode(address)": "2981",
				"initReserve(address,address,address,address,address)": "infinite",
				"initialize(address)": "infinite",
				"liquidationCall(address,address,address,uint256,bool)": "infinite",
				"liquidationCall(bytes32,bytes32)": "infinite",
				"mintToTreasury(address[])": "infinite",
				"mintUnbacked(address,uint256,address,uint16)": "infinite",
				"rebalanceStableBorrowRate(address,address)": "infinite",
				"rebalanceStableBorrowRate(bytes32)": "infinite",
				"repay(address,uint256,uint256,address)": "infinite",
				"repay(bytes32)": "infinite",
				"repayWithATokens(address,uint256,uint256)": "infinite",
				"repayWithATokens(bytes32)": "infinite",
				"repayWithPermit(address,uint256,uint256,address,uint256,uint8,bytes32,bytes32)": "infinite",
				"repayWithPermit(bytes32,bytes32,bytes32)": "infinite",
				"rescueTokens(address,address,uint256)": "infinite",
				"resetIsolationModeTotalDebt(address)": "infinite",
				"setConfiguration(address,(uint256))": "infinite",
				"setReserveInterestRateStrategyAddress(address,address)": "infinite",
				"setUserEMode(uint8)": "infinite",
				"setUserUseReserveAsCollateral(address,bool)": "infinite",
				"setUserUseReserveAsCollateral(bytes32)": "infinite",
				"supply(address,uint256,address,uint16)": "infinite",
				"supply(bytes32)": "infinite",
				"supplyWithPermit(address,uint256,address,uint16,uint256,uint8,bytes32,bytes32)": "infinite",
				"supplyWithPermit(bytes32,bytes32,bytes32)": "infinite",
				"swapBorrowRateMode(address,uint256)": "infinite",
				"swapBorrowRateMode(bytes32)": "infinite",
				"updateBridgeProtocolFee(uint256)": "infinite",
				"updateFlashloanPremiums(uint128,uint128)": "infinite",
				"withdraw(address,uint256,address)": "infinite",
				"withdraw(bytes32)": "infinite"
			}
		},
		"methodIdentifiers": {
			"ADDRESSES_PROVIDER()": "0542975c",
			"BRIDGE_PROTOCOL_FEE()": "272d9072",
			"FLASHLOAN_PREMIUM_TOTAL()": "074b2e43",
			"FLASHLOAN_PREMIUM_TO_PROTOCOL()": "6a99c036",
			"MAX_NUMBER_RESERVES()": "f8119d51",
			"MAX_STABLE_RATE_BORROW_SIZE_PERCENT()": "e82fec2f",
			"POOL_REVISION()": "0148170e",
			"backUnbacked(address,uint256,uint256)": "d65dc7a1",
			"borrow(address,uint256,uint256,uint16,address)": "a415bcad",
			"borrow(bytes32)": "d5eed868",
			"configureEModeCategory(uint8,(uint16,uint16,uint16,address,string))": "d579ea7d",
			"deposit(address,uint256,address,uint16)": "e8eda9df",
			"dropReserve(address)": "63c9b860",
			"finalizeTransfer(address,address,address,uint256,uint256,uint256)": "d5ed3933",
			"flashLoan(address,address[],uint256[],uint256[],address,bytes,uint16)": "ab9c4b5d",
			"flashLoanSimple(address,address,uint256,bytes,uint16)": "42b0b77c",
			"getConfiguration(address)": "c44b11f7",
			"getEModeCategoryData(uint8)": "6c6f6ae1",
			"getReserveAddressById(uint16)": "52751797",
			"getReserveData(address)": "35ea6a75",
			"getReserveNormalizedIncome(address)": "d15e0053",
			"getReserveNormalizedVariableDebt(address)": "386497fd",
			"getReservesList()": "d1946dbc",
			"getUserAccountData(address)": "bf92857c",
			"getUserConfiguration(address)": "4417a583",
			"getUserEMode(address)": "eddf1b79",
			"initReserve(address,address,address,address,address)": "7a708e92",
			"initialize(address)": "c4d66de8",
			"liquidationCall(address,address,address,uint256,bool)": "00a718a9",
			"liquidationCall(bytes32,bytes32)": "fd21ecff",
			"mintToTreasury(address[])": "9cd19996",
			"mintUnbacked(address,uint256,address,uint16)": "69a933a5",
			"rebalanceStableBorrowRate(address,address)": "cd112382",
			"rebalanceStableBorrowRate(bytes32)": "427da177",
			"repay(address,uint256,uint256,address)": "573ade81",
			"repay(bytes32)": "563dd613",
			"repayWithATokens(address,uint256,uint256)": "2dad97d4",
			"repayWithATokens(bytes32)": "dc7c0bff",
			"repayWithPermit(address,uint256,uint256,address,uint256,uint8,bytes32,bytes32)": "ee3e210b",
			"repayWithPermit(bytes32,bytes32,bytes32)": "94b576de",
			"rescueTokens(address,address,uint256)": "cea9d26f",
			"resetIsolationModeTotalDebt(address)": "e43e88a1",
			"setConfiguration(address,(uint256))": "f51e435b",
			"setReserveInterestRateStrategyAddress(address,address)": "1d2118f9",
			"setUserEMode(uint8)": "28530a47",
			"setUserUseReserveAsCollateral(address,bool)": "5a3b74b9",
			"setUserUseReserveAsCollateral(bytes32)": "4d013f03",
			"supply(address,uint256,address,uint16)": "617ba037",
			"supply(bytes32)": "f7a73840",
			"supplyWithPermit(address,uint256,address,uint16,uint256,uint8,bytes32,bytes32)": "02c205f0",
			"supplyWithPermit(bytes32,bytes32,bytes32)": "680dd47c",
			"swapBorrowRateMode(address,uint256)": "94ba89a2",
			"swapBorrowRateMode(bytes32)": "1fe3c6f3",
			"updateBridgeProtocolFee(uint256)": "3036b439",
			"updateFlashloanPremiums(uint128,uint128)": "bcb6e522",
			"withdraw(address,uint256,address)": "69328dec",
			"withdraw(bytes32)": "8e19899e"
		}
	},
	"abi": [
		{
			"inputs": [
				{
					"internalType": "contract IPoolAddressesProvider",
					"name": "provider",
					"type": "address"
				}
			],
			"stateMutability": "nonpayable",
			"type": "constructor"
		},
		{
			"anonymous": false,
			"inputs": [
				{
					"indexed": true,
					"internalType": "address",
					"name": "reserve",
					"type": "address"
				},
				{
					"indexed": true,
					"internalType": "address",
					"name": "backer",
					"type": "address"
				},
				{
					"indexed": false,
					"internalType": "uint256",
					"name": "amount",
					"type": "uint256"
				},
				{
					"indexed": false,
					"internalType": "uint256",
					"name": "fee",
					"type": "uint256"
				}
			],
			"name": "BackUnbacked",
			"type": "event"
		},
		{
			"anonymous": false,
			"inputs": [
				{
					"indexed": true,
					"internalType": "address",
					"name": "reserve",
					"type": "address"
				},
				{
					"indexed": false,
					"internalType": "address",
					"name": "user",
					"type": "address"
				},
				{
					"indexed": true,
					"internalType": "address",
					"name": "onBehalfOf",
					"type": "address"
				},
				{
					"indexed": false,
					"internalType": "uint256",
					"name": "amount",
					"type": "uint256"
				},
				{
					"indexed": false,
					"internalType": "enum DataTypes.InterestRateMode",
					"name": "interestRateMode",
					"type": "uint8"
				},
				{
					"indexed": false,
					"internalType": "uint256",
					"name": "borrowRate",
					"type": "uint256"
				},
				{
					"indexed": true,
					"internalType": "uint16",
					"name": "referralCode",
					"type": "uint16"
				}
			],
			"name": "Borrow",
			"type": "event"
		},
		{
			"anonymous": false,
			"inputs": [
				{
					"indexed": true,
					"internalType": "address",
					"name": "target",
					"type": "address"
				},
				{
					"indexed": false,
					"internalType": "address",
					"name": "initiator",
					"type": "address"
				},
				{
					"indexed": true,
					"internalType": "address",
					"name": "asset",
					"type": "address"
				},
				{
					"indexed": false,
					"internalType": "uint256",
					"name": "amount",
					"type": "uint256"
				},
				{
					"indexed": false,
					"internalType": "enum DataTypes.InterestRateMode",
					"name": "interestRateMode",
					"type": "uint8"
				},
				{
					"indexed": false,
					"internalType": "uint256",
					"name": "premium",
					"type": "uint256"
				},
				{
					"indexed": true,
					"internalType": "uint16",
					"name": "referralCode",
					"type": "uint16"
				}
			],
			"name": "FlashLoan",
			"type": "event"
		},
		{
			"anonymous": false,
			"inputs": [
				{
					"indexed": true,
					"internalType": "address",
					"name": "asset",
					"type": "address"
				},
				{
					"indexed": false,
					"internalType": "uint256",
					"name": "totalDebt",
					"type": "uint256"
				}
			],
			"name": "IsolationModeTotalDebtUpdated",
			"type": "event"
		},
		{
			"anonymous": false,
			"inputs": [
				{
					"indexed": true,
					"internalType": "address",
					"name": "collateralAsset",
					"type": "address"
				},
				{
					"indexed": true,
					"internalType": "address",
					"name": "debtAsset",
					"type": "address"
				},
				{
					"indexed": true,
					"internalType": "address",
					"name": "user",
					"type": "address"
				},
				{
					"indexed": false,
					"internalType": "uint256",
					"name": "debtToCover",
					"type": "uint256"
				},
				{
					"indexed": false,
					"internalType": "uint256",
					"name": "liquidatedCollateralAmount",
					"type": "uint256"
				},
				{
					"indexed": false,
					"internalType": "address",
					"name": "liquidator",
					"type": "address"
				},
				{
					"indexed": false,
					"internalType": "bool",
					"name": "receiveAToken",
					"type": "bool"
				}
			],
			"name": "LiquidationCall",
			"type": "event"
		},
		{
			"anonymous": false,
			"inputs": [
				{
					"indexed": true,
					"internalType": "address",
					"name": "reserve",
					"type": "address"
				},
				{
					"indexed": false,
					"internalType": "address",
					"name": "user",
					"type": "address"
				},
				{
					"indexed": true,
					"internalType": "address",
					"name": "onBehalfOf",
					"type": "address"
				},
				{
					"indexed": false,
					"internalType": "uint256",
					"name": "amount",
					"type": "uint256"
				},
				{
					"indexed": true,
					"internalType": "uint16",
					"name": "referralCode",
					"type": "uint16"
				}
			],
			"name": "MintUnbacked",
			"type": "event"
		},
		{
			"anonymous": false,
			"inputs": [
				{
					"indexed": true,
					"internalType": "address",
					"name": "reserve",
					"type": "address"
				},
				{
					"indexed": false,
					"internalType": "uint256",
					"name": "amountMinted",
					"type": "uint256"
				}
			],
			"name": "MintedToTreasury",
			"type": "event"
		},
		{
			"anonymous": false,
			"inputs": [
				{
					"indexed": true,
					"internalType": "address",
					"name": "reserve",
					"type": "address"
				},
				{
					"indexed": true,
					"internalType": "address",
					"name": "user",
					"type": "address"
				}
			],
			"name": "RebalanceStableBorrowRate",
			"type": "event"
		},
		{
			"anonymous": false,
			"inputs": [
				{
					"indexed": true,
					"internalType": "address",
					"name": "reserve",
					"type": "address"
				},
				{
					"indexed": true,
					"internalType": "address",
					"name": "user",
					"type": "address"
				},
				{
					"indexed": true,
					"internalType": "address",
					"name": "repayer",
					"type": "address"
				},
				{
					"indexed": false,
					"internalType": "uint256",
					"name": "amount",
					"type": "uint256"
				},
				{
					"indexed": false,
					"internalType": "bool",
					"name": "useATokens",
					"type": "bool"
				}
			],
			"name": "Repay",
			"type": "event"
		},
		{
			"anonymous": false,
			"inputs": [
				{
					"indexed": true,
					"internalType": "address",
					"name": "reserve",
					"type": "address"
				},
				{
					"indexed": false,
					"internalType": "uint256",
					"name": "liquidityRate",
					"type": "uint256"
				},
				{
					"indexed": false,
					"internalType": "uint256",
					"name": "stableBorrowRate",
					"type": "uint256"
				},
				{
					"indexed": false,
					"internalType": "uint256",
					"name": "variableBorrowRate",
					"type": "uint256"
				},
				{
					"indexed": false,
					"internalType": "uint256",
					"name": "liquidityIndex",
					"type": "uint256"
				},
				{
					"indexed": false,
					"internalType": "uint256",
					"name": "variableBorrowIndex",
					"type": "uint256"
				}
			],
			"name": "ReserveDataUpdated",
			"type": "event"
		},
		{
			"anonymous": false,
			"inputs": [
				{
					"indexed": true,
					"internalType": "address",
					"name": "reserve",
					"type": "address"
				},
				{
					"indexed": true,
					"internalType": "address",
					"name": "user",
					"type": "address"
				}
			],
			"name": "ReserveUsedAsCollateralDisabled",
			"type": "event"
		},
		{
			"anonymous": false,
			"inputs": [
				{
					"indexed": true,
					"internalType": "address",
					"name": "reserve",
					"type": "address"
				},
				{
					"indexed": true,
					"internalType": "address",
					"name": "user",
					"type": "address"
				}
			],
			"name": "ReserveUsedAsCollateralEnabled",
			"type": "event"
		},
		{
			"anonymous": false,
			"inputs": [
				{
					"indexed": true,
					"internalType": "address",
					"name": "reserve",
					"type": "address"
				},
				{
					"indexed": false,
					"internalType": "address",
					"name": "user",
					"type": "address"
				},
				{
					"indexed": true,
					"internalType": "address",
					"name": "onBehalfOf",
					"type": "address"
				},
				{
					"indexed": false,
					"internalType": "uint256",
					"name": "amount",
					"type": "uint256"
				},
				{
					"indexed": true,
					"internalType": "uint16",
					"name": "referralCode",
					"type": "uint16"
				}
			],
			"name": "Supply",
			"type": "event"
		},
		{
			"anonymous": false,
			"inputs": [
				{
					"indexed": true,
					"internalType": "address",
					"name": "reserve",
					"type": "address"
				},
				{
					"indexed": true,
					"internalType": "address",
					"name": "user",
					"type": "address"
				},
				{
					"indexed": false,
					"internalType": "enum DataTypes.InterestRateMode",
					"name": "interestRateMode",
					"type": "uint8"
				}
			],
			"name": "SwapBorrowRateMode",
			"type": "event"
		},
		{
			"anonymous": false,
			"inputs": [
				{
					"indexed": true,
					"internalType": "address",
					"name": "user",
					"type": "address"
				},
				{
					"indexed": false,
					"internalType": "uint8",
					"name": "categoryId",
					"type": "uint8"
				}
			],
			"name": "UserEModeSet",
			"type": "event"
		},
		{
			"anonymous": false,
			"inputs": [
				{
					"indexed": true,
					"internalType": "address",
					"name": "reserve",
					"type": "address"
				},
				{
					"indexed": true,
					"internalType": "address",
					"name": "user",
					"type": "address"
				},
				{
					"indexed": true,
					"internalType": "address",
					"name": "to",
					"type": "address"
				},
				{
					"indexed": false,
					"internalType": "uint256",
					"name": "amount",
					"type": "uint256"
				}
			],
			"name": "Withdraw",
			"type": "event"
		},
		{
			"inputs": [],
			"name": "ADDRESSES_PROVIDER",
			"outputs": [
				{
					"internalType": "contract IPoolAddressesProvider",
					"name": "",
					"type": "address"
				}
			],
			"stateMutability": "view",
			"type": "function"
		},
		{
			"inputs": [],
			"name": "BRIDGE_PROTOCOL_FEE",
			"outputs": [
				{
					"internalType": "uint256",
					"name": "",
					"type": "uint256"
				}
			],
			"stateMutability": "view",
			"type": "function"
		},
		{
			"inputs": [],
			"name": "FLASHLOAN_PREMIUM_TOTAL",
			"outputs": [
				{
					"internalType": "uint128",
					"name": "",
					"type": "uint128"
				}
			],
			"stateMutability": "view",
			"type": "function"
		},
		{
			"inputs": [],
			"name": "FLASHLOAN_PREMIUM_TO_PROTOCOL",
			"outputs": [
				{
					"internalType": "uint128",
					"name": "",
					"type": "uint128"
				}
			],
			"stateMutability": "view",
			"type": "function"
		},
		{
			"inputs": [],
			"name": "MAX_NUMBER_RESERVES",
			"outputs": [
				{
					"internalType": "uint16",
					"name": "",
					"type": "uint16"
				}
			],
			"stateMutability": "view",
			"type": "function"
		},
		{
			"inputs": [],
			"name": "MAX_STABLE_RATE_BORROW_SIZE_PERCENT",
			"outputs": [
				{
					"internalType": "uint256",
					"name": "",
					"type": "uint256"
				}
			],
			"stateMutability": "view",
			"type": "function"
		},
		{
			"inputs": [],
			"name": "POOL_REVISION",
			"outputs": [
				{
					"internalType": "uint256",
					"name": "",
					"type": "uint256"
				}
			],
			"stateMutability": "view",
			"type": "function"
		},
		{
			"inputs": [
				{
					"internalType": "address",
					"name": "asset",
					"type": "address"
				},
				{
					"internalType": "uint256",
					"name": "amount",
					"type": "uint256"
				},
				{
					"internalType": "uint256",
					"name": "fee",
					"type": "uint256"
				}
			],
			"name": "backUnbacked",
			"outputs": [
				{
					"internalType": "uint256",
					"name": "",
					"type": "uint256"
				}
			],
			"stateMutability": "nonpayable",
			"type": "function"
		},
		{
			"inputs": [
				{
					"internalType": "address",
					"name": "asset",
					"type": "address"
				},
				{
					"internalType": "uint256",
					"name": "amount",
					"type": "uint256"
				},
				{
					"internalType": "uint256",
					"name": "interestRateMode",
					"type": "uint256"
				},
				{
					"internalType": "uint16",
					"name": "referralCode",
					"type": "uint16"
				},
				{
					"internalType": "address",
					"name": "onBehalfOf",
					"type": "address"
				}
			],
			"name": "borrow",
			"outputs": [],
			"stateMutability": "nonpayable",
			"type": "function"
		},
		{
			"inputs": [
				{
					"internalType": "bytes32",
					"name": "args",
					"type": "bytes32"
				}
			],
			"name": "borrow",
			"outputs": [],
			"stateMutability": "nonpayable",
			"type": "function"
		},
		{
			"inputs": [
				{
					"internalType": "uint8",
					"name": "id",
					"type": "uint8"
				},
				{
					"components": [
						{
							"internalType": "uint16",
							"name": "ltv",
							"type": "uint16"
						},
						{
							"internalType": "uint16",
							"name": "liquidationThreshold",
							"type": "uint16"
						},
						{
							"internalType": "uint16",
							"name": "liquidationBonus",
							"type": "uint16"
						},
						{
							"internalType": "address",
							"name": "priceSource",
							"type": "address"
						},
						{
							"internalType": "string",
							"name": "label",
							"type": "string"
						}
					],
					"internalType": "struct DataTypes.EModeCategory",
					"name": "category",
					"type": "tuple"
				}
			],
			"name": "configureEModeCategory",
			"outputs": [],
			"stateMutability": "nonpayable",
			"type": "function"
		},
		{
			"inputs": [
				{
					"internalType": "address",
					"name": "asset",
					"type": "address"
				},
				{
					"internalType": "uint256",
					"name": "amount",
					"type": "uint256"
				},
				{
					"internalType": "address",
					"name": "onBehalfOf",
					"type": "address"
				},
				{
					"internalType": "uint16",
					"name": "referralCode",
					"type": "uint16"
				}
			],
			"name": "deposit",
			"outputs": [],
			"stateMutability": "nonpayable",
			"type": "function"
		},
		{
			"inputs": [
				{
					"internalType": "address",
					"name": "asset",
					"type": "address"
				}
			],
			"name": "dropReserve",
			"outputs": [],
			"stateMutability": "nonpayable",
			"type": "function"
		},
		{
			"inputs": [
				{
					"internalType": "address",
					"name": "asset",
					"type": "address"
				},
				{
					"internalType": "address",
					"name": "from",
					"type": "address"
				},
				{
					"internalType": "address",
					"name": "to",
					"type": "address"
				},
				{
					"internalType": "uint256",
					"name": "amount",
					"type": "uint256"
				},
				{
					"internalType": "uint256",
					"name": "balanceFromBefore",
					"type": "uint256"
				},
				{
					"internalType": "uint256",
					"name": "balanceToBefore",
					"type": "uint256"
				}
			],
			"name": "finalizeTransfer",
			"outputs": [],
			"stateMutability": "nonpayable",
			"type": "function"
		},
		{
			"inputs": [
				{
					"internalType": "address",
					"name": "receiverAddress",
					"type": "address"
				},
				{
					"internalType": "address[]",
					"name": "assets",
					"type": "address[]"
				},
				{
					"internalType": "uint256[]",
					"name": "amounts",
					"type": "uint256[]"
				},
				{
					"internalType": "uint256[]",
					"name": "interestRateModes",
					"type": "uint256[]"
				},
				{
					"internalType": "address",
					"name": "onBehalfOf",
					"type": "address"
				},
				{
					"internalType": "bytes",
					"name": "params",
					"type": "bytes"
				},
				{
					"internalType": "uint16",
					"name": "referralCode",
					"type": "uint16"
				}
			],
			"name": "flashLoan",
			"outputs": [],
			"stateMutability": "nonpayable",
			"type": "function"
		},
		{
			"inputs": [
				{
					"internalType": "address",
					"name": "receiverAddress",
					"type": "address"
				},
				{
					"internalType": "address",
					"name": "asset",
					"type": "address"
				},
				{
					"internalType": "uint256",
					"name": "amount",
					"type": "uint256"
				},
				{
					"internalType": "bytes",
					"name": "params",
					"type": "bytes"
				},
				{
					"internalType": "uint16",
					"name": "referralCode",
					"type": "uint16"
				}
			],
			"name": "flashLoanSimple",
			"outputs": [],
			"stateMutability": "nonpayable",
			"type": "function"
		},
		{
			"inputs": [
				{
					"internalType": "address",
					"name": "asset",
					"type": "address"
				}
			],
			"name": "getConfiguration",
			"outputs": [
				{
					"components": [
						{
							"internalType": "uint256",
							"name": "data",
							"type": "uint256"
						}
					],
					"internalType": "struct DataTypes.ReserveConfigurationMap",
					"name": "",
					"type": "tuple"
				}
			],
			"stateMutability": "view",
			"type": "function"
		},
		{
			"inputs": [
				{
					"internalType": "uint8",
					"name": "id",
					"type": "uint8"
				}
			],
			"name": "getEModeCategoryData",
			"outputs": [
				{
					"components": [
						{
							"internalType": "uint16",
							"name": "ltv",
							"type": "uint16"
						},
						{
							"internalType": "uint16",
							"name": "liquidationThreshold",
							"type": "uint16"
						},
						{
							"internalType": "uint16",
							"name": "liquidationBonus",
							"type": "uint16"
						},
						{
							"internalType": "address",
							"name": "priceSource",
							"type": "address"
						},
						{
							"internalType": "string",
							"name": "label",
							"type": "string"
						}
					],
					"internalType": "struct DataTypes.EModeCategory",
					"name": "",
					"type": "tuple"
				}
			],
			"stateMutability": "view",
			"type": "function"
		},
		{
			"inputs": [
				{
					"internalType": "uint16",
					"name": "id",
					"type": "uint16"
				}
			],
			"name": "getReserveAddressById",
			"outputs": [
				{
					"internalType": "address",
					"name": "",
					"type": "address"
				}
			],
			"stateMutability": "view",
			"type": "function"
		},
		{
			"inputs": [
				{
					"internalType": "address",
					"name": "asset",
					"type": "address"
				}
			],
			"name": "getReserveData",
			"outputs": [
				{
					"components": [
						{
							"components": [
								{
									"internalType": "uint256",
									"name": "data",
									"type": "uint256"
								}
							],
							"internalType": "struct DataTypes.ReserveConfigurationMap",
							"name": "configuration",
							"type": "tuple"
						},
						{
							"internalType": "uint128",
							"name": "liquidityIndex",
							"type": "uint128"
						},
						{
							"internalType": "uint128",
							"name": "currentLiquidityRate",
							"type": "uint128"
						},
						{
							"internalType": "uint128",
							"name": "variableBorrowIndex",
							"type": "uint128"
						},
						{
							"internalType": "uint128",
							"name": "currentVariableBorrowRate",
							"type": "uint128"
						},
						{
							"internalType": "uint128",
							"name": "currentStableBorrowRate",
							"type": "uint128"
						},
						{
							"internalType": "uint40",
							"name": "lastUpdateTimestamp",
							"type": "uint40"
						},
						{
							"internalType": "uint16",
							"name": "id",
							"type": "uint16"
						},
						{
							"internalType": "address",
							"name": "aTokenAddress",
							"type": "address"
						},
						{
							"internalType": "address",
							"name": "stableDebtTokenAddress",
							"type": "address"
						},
						{
							"internalType": "address",
							"name": "variableDebtTokenAddress",
							"type": "address"
						},
						{
							"internalType": "address",
							"name": "interestRateStrategyAddress",
							"type": "address"
						},
						{
							"internalType": "uint128",
							"name": "accruedToTreasury",
							"type": "uint128"
						},
						{
							"internalType": "uint128",
							"name": "unbacked",
							"type": "uint128"
						},
						{
							"internalType": "uint128",
							"name": "isolationModeTotalDebt",
							"type": "uint128"
						}
					],
					"internalType": "struct DataTypes.ReserveData",
					"name": "",
					"type": "tuple"
				}
			],
			"stateMutability": "view",
			"type": "function"
		},
		{
			"inputs": [
				{
					"internalType": "address",
					"name": "asset",
					"type": "address"
				}
			],
			"name": "getReserveNormalizedIncome",
			"outputs": [
				{
					"internalType": "uint256",
					"name": "",
					"type": "uint256"
				}
			],
			"stateMutability": "view",
			"type": "function"
		},
		{
			"inputs": [
				{
					"internalType": "address",
					"name": "asset",
					"type": "address"
				}
			],
			"name": "getReserveNormalizedVariableDebt",
			"outputs": [
				{
					"internalType": "uint256",
					"name": "",
					"type": "uint256"
				}
			],
			"stateMutability": "view",
			"type": "function"
		},
		{
			"inputs": [],
			"name": "getReservesList",
			"outputs": [
				{
					"internalType": "address[]",
					"name": "",
					"type": "address[]"
				}
			],
			"stateMutability": "view",
			"type": "function"
		},
		{
			"inputs": [
				{
					"internalType": "address",
					"name": "user",
					"type": "address"
				}
			],
			"name": "getUserAccountData",
			"outputs": [
				{
					"internalType": "uint256",
					"name": "totalCollateralBase",
					"type": "uint256"
				},
				{
					"internalType": "uint256",
					"name": "totalDebtBase",
					"type": "uint256"
				},
				{
					"internalType": "uint256",
					"name": "availableBorrowsBase",
					"type": "uint256"
				},
				{
					"internalType": "uint256",
					"name": "currentLiquidationThreshold",
					"type": "uint256"
				},
				{
					"internalType": "uint256",
					"name": "ltv",
					"type": "uint256"
				},
				{
					"internalType": "uint256",
					"name": "healthFactor",
					"type": "uint256"
				}
			],
			"stateMutability": "view",
			"type": "function"
		},
		{
			"inputs": [
				{
					"internalType": "address",
					"name": "user",
					"type": "address"
				}
			],
			"name": "getUserConfiguration",
			"outputs": [
				{
					"components": [
						{
							"internalType": "uint256",
							"name": "data",
							"type": "uint256"
						}
					],
					"internalType": "struct DataTypes.UserConfigurationMap",
					"name": "",
					"type": "tuple"
				}
			],
			"stateMutability": "view",
			"type": "function"
		},
		{
			"inputs": [
				{
					"internalType": "address",
					"name": "user",
					"type": "address"
				}
			],
			"name": "getUserEMode",
			"outputs": [
				{
					"internalType": "uint256",
					"name": "",
					"type": "uint256"
				}
			],
			"stateMutability": "view",
			"type": "function"
		},
		{
			"inputs": [
				{
					"internalType": "address",
					"name": "asset",
					"type": "address"
				},
				{
					"internalType": "address",
					"name": "aTokenAddress",
					"type": "address"
				},
				{
					"internalType": "address",
					"name": "stableDebtAddress",
					"type": "address"
				},
				{
					"internalType": "address",
					"name": "variableDebtAddress",
					"type": "address"
				},
				{
					"internalType": "address",
					"name": "interestRateStrategyAddress",
					"type": "address"
				}
			],
			"name": "initReserve",
			"outputs": [],
			"stateMutability": "nonpayable",
			"type": "function"
		},
		{
			"inputs": [
				{
					"internalType": "contract IPoolAddressesProvider",
					"name": "provider",
					"type": "address"
				}
			],
			"name": "initialize",
			"outputs": [],
			"stateMutability": "nonpayable",
			"type": "function"
		},
		{
			"inputs": [
				{
					"internalType": "address",
					"name": "collateralAsset",
					"type": "address"
				},
				{
					"internalType": "address",
					"name": "debtAsset",
					"type": "address"
				},
				{
					"internalType": "address",
					"name": "user",
					"type": "address"
				},
				{
					"internalType": "uint256",
					"name": "debtToCover",
					"type": "uint256"
				},
				{
					"internalType": "bool",
					"name": "receiveAToken",
					"type": "bool"
				}
			],
			"name": "liquidationCall",
			"outputs": [],
			"stateMutability": "nonpayable",
			"type": "function"
		},
		{
			"inputs": [
				{
					"internalType": "bytes32",
					"name": "args1",
					"type": "bytes32"
				},
				{
					"internalType": "bytes32",
					"name": "args2",
					"type": "bytes32"
				}
			],
			"name": "liquidationCall",
			"outputs": [],
			"stateMutability": "nonpayable",
			"type": "function"
		},
		{
			"inputs": [
				{
					"internalType": "address[]",
					"name": "assets",
					"type": "address[]"
				}
			],
			"name": "mintToTreasury",
			"outputs": [],
			"stateMutability": "nonpayable",
			"type": "function"
		},
		{
			"inputs": [
				{
					"internalType": "address",
					"name": "asset",
					"type": "address"
				},
				{
					"internalType": "uint256",
					"name": "amount",
					"type": "uint256"
				},
				{
					"internalType": "address",
					"name": "onBehalfOf",
					"type": "address"
				},
				{
					"internalType": "uint16",
					"name": "referralCode",
					"type": "uint16"
				}
			],
			"name": "mintUnbacked",
			"outputs": [],
			"stateMutability": "nonpayable",
			"type": "function"
		},
		{
			"inputs": [
				{
					"internalType": "bytes32",
					"name": "args",
					"type": "bytes32"
				}
			],
			"name": "rebalanceStableBorrowRate",
			"outputs": [],
			"stateMutability": "nonpayable",
			"type": "function"
		},
		{
			"inputs": [
				{
					"internalType": "address",
					"name": "asset",
					"type": "address"
				},
				{
					"internalType": "address",
					"name": "user",
					"type": "address"
				}
			],
			"name": "rebalanceStableBorrowRate",
			"outputs": [],
			"stateMutability": "nonpayable",
			"type": "function"
		},
		{
			"inputs": [
				{
					"internalType": "bytes32",
					"name": "args",
					"type": "bytes32"
				}
			],
			"name": "repay",
			"outputs": [
				{
					"internalType": "uint256",
					"name": "",
					"type": "uint256"
				}
			],
			"stateMutability": "nonpayable",
			"type": "function"
		},
		{
			"inputs": [
				{
					"internalType": "address",
					"name": "asset",
					"type": "address"
				},
				{
					"internalType": "uint256",
					"name": "amount",
					"type": "uint256"
				},
				{
					"internalType": "uint256",
					"name": "interestRateMode",
					"type": "uint256"
				},
				{
					"internalType": "address",
					"name": "onBehalfOf",
					"type": "address"
				}
			],
			"name": "repay",
			"outputs": [
				{
					"internalType": "uint256",
					"name": "",
					"type": "uint256"
				}
			],
			"stateMutability": "nonpayable",
			"type": "function"
		},
		{
			"inputs": [
				{
					"internalType": "address",
					"name": "asset",
					"type": "address"
				},
				{
					"internalType": "uint256",
					"name": "amount",
					"type": "uint256"
				},
				{
					"internalType": "uint256",
					"name": "interestRateMode",
					"type": "uint256"
				}
			],
			"name": "repayWithATokens",
			"outputs": [
				{
					"internalType": "uint256",
					"name": "",
					"type": "uint256"
				}
			],
			"stateMutability": "nonpayable",
			"type": "function"
		},
		{
			"inputs": [
				{
					"internalType": "bytes32",
					"name": "args",
					"type": "bytes32"
				}
			],
			"name": "repayWithATokens",
			"outputs": [
				{
					"internalType": "uint256",
					"name": "",
					"type": "uint256"
				}
			],
			"stateMutability": "nonpayable",
			"type": "function"
		},
		{
			"inputs": [
				{
					"internalType": "bytes32",
					"name": "args",
					"type": "bytes32"
				},
				{
					"internalType": "bytes32",
					"name": "r",
					"type": "bytes32"
				},
				{
					"internalType": "bytes32",
					"name": "s",
					"type": "bytes32"
				}
			],
			"name": "repayWithPermit",
			"outputs": [
				{
					"internalType": "uint256",
					"name": "",
					"type": "uint256"
				}
			],
			"stateMutability": "nonpayable",
			"type": "function"
		},
		{
			"inputs": [
				{
					"internalType": "address",
					"name": "asset",
					"type": "address"
				},
				{
					"internalType": "uint256",
					"name": "amount",
					"type": "uint256"
				},
				{
					"internalType": "uint256",
					"name": "interestRateMode",
					"type": "uint256"
				},
				{
					"internalType": "address",
					"name": "onBehalfOf",
					"type": "address"
				},
				{
					"internalType": "uint256",
					"name": "deadline",
					"type": "uint256"
				},
				{
					"internalType": "uint8",
					"name": "permitV",
					"type": "uint8"
				},
				{
					"internalType": "bytes32",
					"name": "permitR",
					"type": "bytes32"
				},
				{
					"internalType": "bytes32",
					"name": "permitS",
					"type": "bytes32"
				}
			],
			"name": "repayWithPermit",
			"outputs": [
				{
					"internalType": "uint256",
					"name": "",
					"type": "uint256"
				}
			],
			"stateMutability": "nonpayable",
			"type": "function"
		},
		{
			"inputs": [
				{
					"internalType": "address",
					"name": "token",
					"type": "address"
				},
				{
					"internalType": "address",
					"name": "to",
					"type": "address"
				},
				{
					"internalType": "uint256",
					"name": "amount",
					"type": "uint256"
				}
			],
			"name": "rescueTokens",
			"outputs": [],
			"stateMutability": "nonpayable",
			"type": "function"
		},
		{
			"inputs": [
				{
					"internalType": "address",
					"name": "asset",
					"type": "address"
				}
			],
			"name": "resetIsolationModeTotalDebt",
			"outputs": [],
			"stateMutability": "nonpayable",
			"type": "function"
		},
		{
			"inputs": [
				{
					"internalType": "address",
					"name": "asset",
					"type": "address"
				},
				{
					"components": [
						{
							"internalType": "uint256",
							"name": "data",
							"type": "uint256"
						}
					],
					"internalType": "struct DataTypes.ReserveConfigurationMap",
					"name": "configuration",
					"type": "tuple"
				}
			],
			"name": "setConfiguration",
			"outputs": [],
			"stateMutability": "nonpayable",
			"type": "function"
		},
		{
			"inputs": [
				{
					"internalType": "address",
					"name": "asset",
					"type": "address"
				},
				{
					"internalType": "address",
					"name": "rateStrategyAddress",
					"type": "address"
				}
			],
			"name": "setReserveInterestRateStrategyAddress",
			"outputs": [],
			"stateMutability": "nonpayable",
			"type": "function"
		},
		{
			"inputs": [
				{
					"internalType": "uint8",
					"name": "categoryId",
					"type": "uint8"
				}
			],
			"name": "setUserEMode",
			"outputs": [],
			"stateMutability": "nonpayable",
			"type": "function"
		},
		{
			"inputs": [
				{
					"internalType": "bytes32",
					"name": "args",
					"type": "bytes32"
				}
			],
			"name": "setUserUseReserveAsCollateral",
			"outputs": [],
			"stateMutability": "nonpayable",
			"type": "function"
		},
		{
			"inputs": [
				{
					"internalType": "address",
					"name": "asset",
					"type": "address"
				},
				{
					"internalType": "bool",
					"name": "useAsCollateral",
					"type": "bool"
				}
			],
			"name": "setUserUseReserveAsCollateral",
			"outputs": [],
			"stateMutability": "nonpayable",
			"type": "function"
		},
		{
			"inputs": [
				{
					"internalType": "address",
					"name": "asset",
					"type": "address"
				},
				{
					"internalType": "uint256",
					"name": "amount",
					"type": "uint256"
				},
				{
					"internalType": "address",
					"name": "onBehalfOf",
					"type": "address"
				},
				{
					"internalType": "uint16",
					"name": "referralCode",
					"type": "uint16"
				}
			],
			"name": "supply",
			"outputs": [],
			"stateMutability": "nonpayable",
			"type": "function"
		},
		{
			"inputs": [
				{
					"internalType": "bytes32",
					"name": "args",
					"type": "bytes32"
				}
			],
			"name": "supply",
			"outputs": [],
			"stateMutability": "nonpayable",
			"type": "function"
		},
		{
			"inputs": [
				{
					"internalType": "address",
					"name": "asset",
					"type": "address"
				},
				{
					"internalType": "uint256",
					"name": "amount",
					"type": "uint256"
				},
				{
					"internalType": "address",
					"name": "onBehalfOf",
					"type": "address"
				},
				{
					"internalType": "uint16",
					"name": "referralCode",
					"type": "uint16"
				},
				{
					"internalType": "uint256",
					"name": "deadline",
					"type": "uint256"
				},
				{
					"internalType": "uint8",
					"name": "permitV",
					"type": "uint8"
				},
				{
					"internalType": "bytes32",
					"name": "permitR",
					"type": "bytes32"
				},
				{
					"internalType": "bytes32",
					"name": "permitS",
					"type": "bytes32"
				}
			],
			"name": "supplyWithPermit",
			"outputs": [],
			"stateMutability": "nonpayable",
			"type": "function"
		},
		{
			"inputs": [
				{
					"internalType": "bytes32",
					"name": "args",
					"type": "bytes32"
				},
				{
					"internalType": "bytes32",
					"name": "r",
					"type": "bytes32"
				},
				{
					"internalType": "bytes32",
					"name": "s",
					"type": "bytes32"
				}
			],
			"name": "supplyWithPermit",
			"outputs": [],
			"stateMutability": "nonpayable",
			"type": "function"
		},
		{
			"inputs": [
				{
					"internalType": "bytes32",
					"name": "args",
					"type": "bytes32"
				}
			],
			"name": "swapBorrowRateMode",
			"outputs": [],
			"stateMutability": "nonpayable",
			"type": "function"
		},
		{
			"inputs": [
				{
					"internalType": "address",
					"name": "asset",
					"type": "address"
				},
				{
					"internalType": "uint256",
					"name": "interestRateMode",
					"type": "uint256"
				}
			],
			"name": "swapBorrowRateMode",
			"outputs": [],
			"stateMutability": "nonpayable",
			"type": "function"
		},
		{
			"inputs": [
				{
					"internalType": "uint256",
					"name": "protocolFee",
					"type": "uint256"
				}
			],
			"name": "updateBridgeProtocolFee",
			"outputs": [],
			"stateMutability": "nonpayable",
			"type": "function"
		},
		{
			"inputs": [
				{
					"internalType": "uint128",
					"name": "flashLoanPremiumTotal",
					"type": "uint128"
				},
				{
					"internalType": "uint128",
					"name": "flashLoanPremiumToProtocol",
					"type": "uint128"
				}
			],
			"name": "updateFlashloanPremiums",
			"outputs": [],
			"stateMutability": "nonpayable",
			"type": "function"
		},
		{
			"inputs": [
				{
					"internalType": "address",
					"name": "asset",
					"type": "address"
				},
				{
					"internalType": "uint256",
					"name": "amount",
					"type": "uint256"
				},
				{
					"internalType": "address",
					"name": "to",
					"type": "address"
				}
			],
			"name": "withdraw",
			"outputs": [
				{
					"internalType": "uint256",
					"name": "",
					"type": "uint256"
				}
			],
			"stateMutability": "nonpayable",
			"type": "function"
		},
		{
			"inputs": [
				{
					"internalType": "bytes32",
					"name": "args",
					"type": "bytes32"
				}
			],
			"name": "withdraw",
			"outputs": [
				{
					"internalType": "uint256",
					"name": "",
					"type": "uint256"
				}
			],
			"stateMutability": "nonpayable",
			"type": "function"
		}
	]
}