{
	"data": {
		"bytecode": {
			"linkReferences": {
				"contracts/protocol/libraries/logic/BorrowLogic.sol": {
					"BorrowLogic": [
						{
							"length": 20,
							"start": 4763
						},
						{
							"length": 20,
							"start": 6882
						},
						{
							"length": 20,
							"start": 9512
						},
						{
							"length": 20,
							"start": 9867
						},
						{
							"length": 20,
							"start": 13035
						},
						{
							"length": 20,
							"start": 15852
						}
					]
				},
				"contracts/protocol/libraries/logic/BridgeLogic.sol": {
					"BridgeLogic": [
						{
							"length": 20,
							"start": 8531
						},
						{
							"length": 20,
							"start": 14927
						}
					]
				},
				"contracts/protocol/libraries/logic/EModeLogic.sol": {
					"EModeLogic": [
						{
							"length": 20,
							"start": 4375
						}
					]
				},
				"contracts/protocol/libraries/logic/FlashLoanLogic.sol": {
					"FlashLoanLogic": [
						{
							"length": 20,
							"start": 6554
						},
						{
							"length": 20,
							"start": 11626
						}
					]
				},
				"contracts/protocol/libraries/logic/LiquidationLogic.sol": {
					"LiquidationLogic": [
						{
							"length": 20,
							"start": 2635
						}
					]
				},
				"contracts/protocol/libraries/logic/PoolLogic.sol": {
					"PoolLogic": [
						{
							"length": 20,
							"start": 7870
						},
						{
							"length": 20,
							"start": 9125
						},
						{
							"length": 20,
							"start": 9759
						},
						{
							"length": 20,
							"start": 11941
						},
						{
							"length": 20,
							"start": 13210
						},
						{
							"length": 20,
							"start": 15132
						}
					]
				},
				"contracts/protocol/libraries/logic/SupplyLogic.sol": {
					"SupplyLogic": [
						{
							"length": 20,
							"start": 3423
						},
						{
							"length": 20,
							"start": 7198
						},
						{
							"length": 20,
							"start": 7609
						},
						{
							"length": 20,
							"start": 7979
						},
						{
							"length": 20,
							"start": 14412
						},
						{
							"length": 20,
							"start": 15275
						}
					]
				}
			},
			"object": "60a06040525f8055348015610012575f80fd5b506040516176f63803806176f6833981810160405281019061003491906100dd565b8073ffffffffffffffffffffffffffffffffffffffff1660808173ffffffffffffffffffffffffffffffffffffffff168152505050610108565b5f80fd5b5f73ffffffffffffffffffffffffffffffffffffffff82169050919050565b5f61009b82610072565b9050919050565b5f6100ac82610091565b9050919050565b6100bc816100a2565b81146100c6575f80fd5b50565b5f815190506100d7816100b3565b92915050565b5f602082840312156100f2576100f161006e565b5b5f6100ff848285016100c9565b91505092915050565b60805161756d6101895f395f818161096c01528181610a6601528181610cd70152818161101201528181611b0501528181611e62015281816126410152818161273b01528181612a4801528181612ad601528181612dd30152818161304c0152818161377101528181613f820152818161418a015261431f015261756d5ff3fe608060405234801561000f575f80fd5b5060043610610287575f3560e01c80637a708e921161015a578063d15e0053116100cc578063e82fec2f11610085578063e82fec2f146107ec578063e8eda9df1461080a578063eddf1b7914610826578063ee3e210b14610856578063f51e435b14610886578063f8119d51146108a257610287565b8063d15e00531461071a578063d1946dbc1461074a578063d579ea7d14610768578063d5ed393314610784578063d65dc7a1146107a0578063e43e88a1146107d057610287565b8063bcb6e5221161011e578063bcb6e52214610645578063bf92857c14610661578063c44b11f714610696578063c4d66de8146106c6578063cd112382146106e2578063cea9d26f146106fe57610287565b80637a708e92146105b957806394ba89a2146105d55780639cd19996146105f1578063a415bcad1461060d578063ab9c4b5d1461062957610287565b8063386497fd116101fe578063617ba037116101b7578063617ba037146104e757806363c9b8601461050357806369328dec1461051f57806369a933a51461054f5780636a99c0361461056b5780636c6f6ae11461058957610287565b8063386497fd146103ef57806342b0b77c1461041f5780634417a5831461043b578063527517971461046b578063573ade811461049b5780635a3b74b9146104cb57610287565b80631d2118f9116102505780631d2118f91461031d578063272d90721461033957806328530a47146103575780632dad97d4146103735780633036b439146103a357806335ea6a75146103bf57610287565b8062a718a91461028b5780630148170e146102a757806302c205f0146102c55780630542975c146102e1578063074b2e43146102ff575b5f80fd5b6102a560048036038101906102a09190614a46565b6108c0565b005b6102af610b5d565b6040516102bc9190614acc565b60405180910390f35b6102df60048036038101906102da9190614b85565b610b62565b005b6102e9610cd5565b6040516102f69190614c91565b60405180910390f35b610307610cf9565b6040516103149190614cd4565b60405180910390f35b61033760048036038101906103329190614ced565b610d1d565b005b610341610f83565b60405161034e9190614acc565b60405180910390f35b610371600480360381019061036c9190614d2b565b610f8c565b005b61038d60048036038101906103889190614d56565b61110f565b60405161039a9190614acc565b60405180910390f35b6103bd60048036038101906103b89190614da6565b61124c565b005b6103d960048036038101906103d49190614dd1565b61125e565b6040516103e69190614fa4565b60405180910390f35b61040960048036038101906104049190614dd1565b6116ba565b6040516104169190614acc565b60405180910390f35b6104396004803603810190610434919061501f565b611707565b005b61045560048036038101906104509190614dd1565b6118b9565b60405161046291906150cf565b60405180910390f35b610485600480360381019061048091906150e8565b611919565b6040516104929190615122565b60405180910390f35b6104b560048036038101906104b0919061513b565b611956565b6040516104c29190614acc565b60405180910390f35b6104e560048036038101906104e0919061519f565b611a93565b005b61050160048036038101906104fc91906151dd565b611c2e565b005b61051d60048036038101906105189190614dd1565b611d2b565b005b61053960048036038101906105349190615241565b611d9f565b6040516105469190614acc565b60405180910390f35b610569600480360381019061056491906151dd565b611fc0565b005b61057361207b565b6040516105809190614cd4565b60405180910390f35b6105a3600480360381019061059e9190614d2b565b6120a0565b6040516105b09190615374565b60405180910390f35b6105d360048036038101906105ce9190615394565b612212565b005b6105ef60048036038101906105ea919061540b565b61239d565b005b61060b6004803603810190610606919061549e565b612494565b005b610627600480360381019061062291906154e9565b612500565b005b610643600480360381019061063e91906155b5565b612832565b005b61065f600480360381019061065a91906156fc565b612c97565b005b61067b60048036038101906106769190614dd1565b612d14565b60405161068d9695949392919061573a565b60405180910390f35b6106b060048036038101906106ab9190614dd1565b612f3c565b6040516106bd91906157b3565b60405180910390f35b6106e060048036038101906106db9190615807565b612f9e565b005b6106fc60048036038101906106f79190614ced565b613160565b005b61071860048036038101906107139190615832565b613207565b005b610734600480360381019061072f9190614dd1565b61327b565b6040516107419190614acc565b60405180910390f35b6107526132c8565b60405161075f919061592a565b60405180910390f35b610782600480360381019061077d9190615b1f565b613455565b005b61079e60048036038101906107999190615b79565b6135bb565b005b6107ba60048036038101906107b59190614d56565b6138bb565b6040516107c79190614acc565b60405180910390f35b6107ea60048036038101906107e59190614dd1565b613989565b005b6107f46139fa565b6040516108019190614acc565b60405180910390f35b610824600480360381019061081f91906151dd565b613a20565b005b610840600480360381019061083b9190614dd1565b613b1d565b60405161084d9190614acc565b60405180910390f35b610870600480360381019061086b9190615c02565b613b72565b60405161087d9190614acc565b60405180910390f35b6108a0600480360381019061089b9190615cd5565b613d2a565b005b6108aa613f61565b6040516108b79190615d22565b60405180910390f35b73__$f598c634f2d943205ac23f707b80075cbb$__6383c1087d6034603660356037604051806101200160405280603b60089054906101000a900461ffff1661ffff1681526020018981526020018c73ffffffffffffffffffffffffffffffffffffffff1681526020018b73ffffffffffffffffffffffffffffffffffffffff1681526020018a73ffffffffffffffffffffffffffffffffffffffff16815260200188151581526020017f000000000000000000000000000000000000000000000000000000000000000073ffffffffffffffffffffffffffffffffffffffff1663fca513a86040518163ffffffff1660e01b8152600401602060405180830381865afa1580156109d3573d5f803e3d5ffd5b505050506040513d601f19601f820116820180604052508101906109f79190615d4f565b73ffffffffffffffffffffffffffffffffffffffff16815260200160385f8c73ffffffffffffffffffffffffffffffffffffffff1673ffffffffffffffffffffffffffffffffffffffff1681526020019081526020015f205f9054906101000a900460ff1660ff1681526020017f000000000000000000000000000000000000000000000000000000000000000073ffffffffffffffffffffffffffffffffffffffff16635eb88d3d6040518163ffffffff1660e01b8152600401602060405180830381865afa158015610acd573d5f803e3d5ffd5b505050506040513d601f19601f82011682018060405250810190610af19190615d4f565b73ffffffffffffffffffffffffffffffffffffffff168152506040518663ffffffff1660e01b8152600401610b2a959493929190615e87565b5f6040518083038186803b158015610b40575f80fd5b505af4158015610b52573d5f803e3d5ffd5b505050505050505050565b600181565b8773ffffffffffffffffffffffffffffffffffffffff1663d505accf33308a888888886040518863ffffffff1660e01b8152600401610ba79796959493929190615ef7565b5f604051808303815f87803b158015610bbe575f80fd5b505af1158015610bd0573d5f803e3d5ffd5b5050505073__$db79717e66442ee197e8271d032a066e34$__631913f1616034603660355f8b73ffffffffffffffffffffffffffffffffffffffff1673ffffffffffffffffffffffffffffffffffffffff1681526020019081526020015f2060405180608001604052808e73ffffffffffffffffffffffffffffffffffffffff1681526020018d81526020018c73ffffffffffffffffffffffffffffffffffffffff1681526020018b61ffff168152506040518563ffffffff1660e01b8152600401610c9f9493929190615fcd565b5f6040518083038186803b158015610cb5575f80fd5b505af4158015610cc7573d5f803e3d5ffd5b505050505050505050505050565b7f000000000000000000000000000000000000000000000000000000000000000081565b5f603a5f9054906101000a90046fffffffffffffffffffffffffffffffff16905090565b610d25613f69565b5f73ffffffffffffffffffffffffffffffffffffffff168273ffffffffffffffffffffffffffffffffffffffff1614156040518060400160405280600281526020017f373700000000000000000000000000000000000000000000000000000000000081525090610dcc576040517f08c379a0000000000000000000000000000000000000000000000000000000008152600401610dc39190616058565b60405180910390fd5b505f60345f8473ffffffffffffffffffffffffffffffffffffffff1673ffffffffffffffffffffffffffffffffffffffff1681526020019081526020015f2060030160159054906101000a900461ffff1661ffff16141580610e8957508173ffffffffffffffffffffffffffffffffffffffff1660365f8081526020019081526020015f205f9054906101000a900473ffffffffffffffffffffffffffffffffffffffff1673ffffffffffffffffffffffffffffffffffffffff16145b6040518060400160405280600281526020017f383200000000000000000000000000000000000000000000000000000000000081525090610f00576040517f08c379a0000000000000000000000000000000000000000000000000000000008152600401610ef79190616058565b60405180910390fd5b508060345f8473ffffffffffffffffffffffffffffffffffffffff1673ffffffffffffffffffffffffffffffffffffffff1681526020019081526020015f206007015f6101000a81548173ffffffffffffffffffffffffffffffffffffffff021916908373ffffffffffffffffffffffffffffffffffffffff1602179055505050565b5f603954905090565b73__$e4b9550ff526a295e1233dea02821b9004$__635d5dc313603460366037603860355f3373ffffffffffffffffffffffffffffffffffffffff1673ffffffffffffffffffffffffffffffffffffffff1681526020019081526020015f206040518060600160405280603b60089054906101000a900461ffff1661ffff1681526020017f000000000000000000000000000000000000000000000000000000000000000073ffffffffffffffffffffffffffffffffffffffff1663fca513a86040518163ffffffff1660e01b8152600401602060405180830381865afa158015611079573d5f803e3d5ffd5b505050506040513d601f19601f8201168201806040525081019061109d9190615d4f565b73ffffffffffffffffffffffffffffffffffffffff1681526020018960ff168152506040518763ffffffff1660e01b81526004016110e0969594939291906160bf565b5f6040518083038186803b1580156110f6575f80fd5b505af4158015611108573d5f803e3d5ffd5b5050505050565b5f73__$c3724b8d563dc83a94e797176cddecb3b9$__6340e95de66034603660355f3373ffffffffffffffffffffffffffffffffffffffff1673ffffffffffffffffffffffffffffffffffffffff1681526020019081526020015f206040518060a001604052808a73ffffffffffffffffffffffffffffffffffffffff1681526020018981526020018860028111156111ab576111aa61611f565b5b60028111156111bd576111bc61611f565b5b81526020013373ffffffffffffffffffffffffffffffffffffffff168152602001600115158152506040518563ffffffff1660e01b815260040161120494939291906161f8565b602060405180830381865af415801561121f573d5f803e3d5ffd5b505050506040513d601f19601f820116820180604052508101906112439190616250565b90509392505050565b611254613f69565b8060398190555050565b6112666147a1565b60345f8373ffffffffffffffffffffffffffffffffffffffff1673ffffffffffffffffffffffffffffffffffffffff1681526020019081526020015f20604051806101e00160405290815f82016040518060200160405290815f820154815250508152602001600182015f9054906101000a90046fffffffffffffffffffffffffffffffff166fffffffffffffffffffffffffffffffff166fffffffffffffffffffffffffffffffff1681526020016001820160109054906101000a90046fffffffffffffffffffffffffffffffff166fffffffffffffffffffffffffffffffff166fffffffffffffffffffffffffffffffff168152602001600282015f9054906101000a90046fffffffffffffffffffffffffffffffff166fffffffffffffffffffffffffffffffff166fffffffffffffffffffffffffffffffff1681526020016002820160109054906101000a90046fffffffffffffffffffffffffffffffff166fffffffffffffffffffffffffffffffff166fffffffffffffffffffffffffffffffff168152602001600382015f9054906101000a90046fffffffffffffffffffffffffffffffff166fffffffffffffffffffffffffffffffff166fffffffffffffffffffffffffffffffff1681526020016003820160109054906101000a900464ffffffffff1664ffffffffff1664ffffffffff1681526020016003820160159054906101000a900461ffff1661ffff1661ffff168152602001600482015f9054906101000a900473ffffffffffffffffffffffffffffffffffffffff1673ffffffffffffffffffffffffffffffffffffffff1673ffffffffffffffffffffffffffffffffffffffff168152602001600582015f9054906101000a900473ffffffffffffffffffffffffffffffffffffffff1673ffffffffffffffffffffffffffffffffffffffff1673ffffffffffffffffffffffffffffffffffffffff168152602001600682015f9054906101000a900473ffffffffffffffffffffffffffffffffffffffff1673ffffffffffffffffffffffffffffffffffffffff1673ffffffffffffffffffffffffffffffffffffffff168152602001600782015f9054906101000a900473ffffffffffffffffffffffffffffffffffffffff1673ffffffffffffffffffffffffffffffffffffffff1673ffffffffffffffffffffffffffffffffffffffff168152602001600882015f9054906101000a90046fffffffffffffffffffffffffffffffff166fffffffffffffffffffffffffffffffff166fffffffffffffffffffffffffffffffff1681526020016008820160109054906101000a90046fffffffffffffffffffffffffffffffff166fffffffffffffffffffffffffffffffff166fffffffffffffffffffffffffffffffff168152602001600982015f9054906101000a90046fffffffffffffffffffffffffffffffff166fffffffffffffffffffffffffffffffff166fffffffffffffffffffffffffffffffff16815250509050919050565b5f61170060345f8473ffffffffffffffffffffffffffffffffffffffff1673ffffffffffffffffffffffffffffffffffffffff1681526020019081526020015f2061409e565b9050919050565b5f6040518060e001604052808873ffffffffffffffffffffffffffffffffffffffff1681526020018773ffffffffffffffffffffffffffffffffffffffff16815260200186815260200185858080601f0160208091040260200160405190810160405280939291908181526020018383808284375f81840152601f19601f8201169050808301925050505050505081526020018361ffff168152602001603a60109054906101000a90046fffffffffffffffffffffffffffffffff166fffffffffffffffffffffffffffffffff168152602001603a5f9054906101000a90046fffffffffffffffffffffffffffffffff166fffffffffffffffffffffffffffffffff16815250905073__$d5ddd09ae98762b8929dd85e54b218e259$__63a1fe0e8d60345f8973ffffffffffffffffffffffffffffffffffffffff1673ffffffffffffffffffffffffffffffffffffffff1681526020019081526020015f20836040518363ffffffff1660e01b815260040161188492919061636d565b5f6040518083038186803b15801561189a575f80fd5b505af41580156118ac573d5f803e3d5ffd5b5050505050505050505050565b6118c1614902565b60355f8373ffffffffffffffffffffffffffffffffffffffff1673ffffffffffffffffffffffffffffffffffffffff1681526020019081526020015f206040518060200160405290815f820154815250509050919050565b5f60365f8361ffff1681526020019081526020015f205f9054906101000a900473ffffffffffffffffffffffffffffffffffffffff169050919050565b5f73__$c3724b8d563dc83a94e797176cddecb3b9$__6340e95de66034603660355f8773ffffffffffffffffffffffffffffffffffffffff1673ffffffffffffffffffffffffffffffffffffffff1681526020019081526020015f206040518060a001604052808b73ffffffffffffffffffffffffffffffffffffffff1681526020018a81526020018960028111156119f2576119f161611f565b5b6002811115611a0457611a0361611f565b5b81526020018873ffffffffffffffffffffffffffffffffffffffff1681526020015f15158152506040518563ffffffff1660e01b8152600401611a4a94939291906161f8565b602060405180830381865af4158015611a65573d5f803e3d5ffd5b505050506040513d601f19601f82011682018060405250810190611a899190616250565b9050949350505050565b73__$db79717e66442ee197e8271d032a066e34$__63bf697a2660346036603760355f3373ffffffffffffffffffffffffffffffffffffffff1673ffffffffffffffffffffffffffffffffffffffff1681526020019081526020015f208787603b60089054906101000a900461ffff167f000000000000000000000000000000000000000000000000000000000000000073ffffffffffffffffffffffffffffffffffffffff1663fca513a86040518163ffffffff1660e01b8152600401602060405180830381865afa158015611b6c573d5f803e3d5ffd5b505050506040513d601f19601f82011682018060405250810190611b909190615d4f565b60385f3373ffffffffffffffffffffffffffffffffffffffff1673ffffffffffffffffffffffffffffffffffffffff1681526020019081526020015f205f9054906101000a900460ff166040518a63ffffffff1660e01b8152600401611bfe999897969594939291906163f8565b5f6040518083038186803b158015611c14575f80fd5b505af4158015611c26573d5f803e3d5ffd5b505050505050565b73__$db79717e66442ee197e8271d032a066e34$__631913f1616034603660355f8773ffffffffffffffffffffffffffffffffffffffff1673ffffffffffffffffffffffffffffffffffffffff1681526020019081526020015f2060405180608001604052808a73ffffffffffffffffffffffffffffffffffffffff1681526020018981526020018873ffffffffffffffffffffffffffffffffffffffff1681526020018761ffff168152506040518563ffffffff1660e01b8152600401611cf99493929190615fcd565b5f6040518083038186803b158015611d0f575f80fd5b505af4158015611d21573d5f803e3d5ffd5b5050505050505050565b611d33613f69565b73__$563c746fa3df0f1858d85f6ef4258864be$__639cf5702360346036846040518463ffffffff1660e01b8152600401611d7093929190616483565b5f6040518083038186803b158015611d86575f80fd5b505af4158015611d98573d5f803e3d5ffd5b5050505050565b5f73__$db79717e66442ee197e8271d032a066e34$__63186dea4460346036603760355f3373ffffffffffffffffffffffffffffffffffffffff1673ffffffffffffffffffffffffffffffffffffffff1681526020019081526020015f206040518060c001604052808b73ffffffffffffffffffffffffffffffffffffffff1681526020018a81526020018973ffffffffffffffffffffffffffffffffffffffff168152602001603b60089054906101000a900461ffff1661ffff1681526020017f000000000000000000000000000000000000000000000000000000000000000073ffffffffffffffffffffffffffffffffffffffff1663fca513a86040518163ffffffff1660e01b8152600401602060405180830381865afa158015611ec9573d5f803e3d5ffd5b505050506040513d601f19601f82011682018060405250810190611eed9190615d4f565b73ffffffffffffffffffffffffffffffffffffffff16815260200160385f3373ffffffffffffffffffffffffffffffffffffffff1673ffffffffffffffffffffffffffffffffffffffff1681526020019081526020015f205f9054906101000a900460ff1660ff168152506040518663ffffffff1660e01b8152600401611f78959493929190616531565b602060405180830381865af4158015611f93573d5f803e3d5ffd5b505050506040513d601f19601f82011682018060405250810190611fb79190616250565b90509392505050565b611fc8614188565b73__$b06080f092f400a43662c3f835a4d9baa8$__630413c86f6034603660355f8773ffffffffffffffffffffffffffffffffffffffff1673ffffffffffffffffffffffffffffffffffffffff1681526020019081526020015f20888888886040518863ffffffff1660e01b815260040161204997969594939291906165a1565b5f6040518083038186803b15801561205f575f80fd5b505af4158015612071573d5f803e3d5ffd5b5050505050505050565b5f603a60109054906101000a90046fffffffffffffffffffffffffffffffff16905090565b6120a8614914565b60375f8360ff1660ff1681526020019081526020015f206040518060a00160405290815f82015f9054906101000a900461ffff1661ffff1661ffff1681526020015f820160029054906101000a900461ffff1661ffff1661ffff1681526020015f820160049054906101000a900461ffff1661ffff1661ffff1681526020015f820160069054906101000a900473ffffffffffffffffffffffffffffffffffffffff1673ffffffffffffffffffffffffffffffffffffffff1673ffffffffffffffffffffffffffffffffffffffff16815260200160018201805461218b9061663b565b80601f01602080910402602001604051908101604052809291908181526020018280546121b79061663b565b80156122025780601f106121d957610100808354040283529160200191612202565b820191905f5260205f20905b8154815290600101906020018083116121e557829003601f168201915b5050505050815250509050919050565b61221a613f69565b73__$563c746fa3df0f1858d85f6ef4258864be$__6369fc1bdf603460366040518060e001604052808a73ffffffffffffffffffffffffffffffffffffffff1681526020018973ffffffffffffffffffffffffffffffffffffffff1681526020018873ffffffffffffffffffffffffffffffffffffffff1681526020018773ffffffffffffffffffffffffffffffffffffffff1681526020018673ffffffffffffffffffffffffffffffffffffffff168152602001603b60089054906101000a900461ffff1661ffff1681526020016122f1613f61565b61ffff168152506040518463ffffffff1660e01b8152600401612316939291906166f7565b602060405180830381865af4158015612331573d5f803e3d5ffd5b505050506040513d601f19601f820116820180604052508101906123559190616741565b1561239657603b600881819054906101000a900461ffff168092919061237a90616799565b91906101000a81548161ffff021916908361ffff160217905550505b5050505050565b73__$c3724b8d563dc83a94e797176cddecb3b9$__63eac4d70360345f8573ffffffffffffffffffffffffffffffffffffffff1673ffffffffffffffffffffffffffffffffffffffff1681526020019081526020015f2060355f3373ffffffffffffffffffffffffffffffffffffffff1673ffffffffffffffffffffffffffffffffffffffff1681526020019081526020015f20858560028111156124455761244461611f565b5b6040518563ffffffff1660e01b815260040161246494939291906167d1565b5f6040518083038186803b15801561247a575f80fd5b505af415801561248c573d5f803e3d5ffd5b505050505050565b73__$563c746fa3df0f1858d85f6ef4258864be$__6348c2ca8c603484846040518463ffffffff1660e01b81526004016124d0939291906168c1565b5f6040518083038186803b1580156124e6575f80fd5b505af41580156124f8573d5f803e3d5ffd5b505050505050565b73__$c3724b8d563dc83a94e797176cddecb3b9$__631e6473f960346036603760355f8773ffffffffffffffffffffffffffffffffffffffff1673ffffffffffffffffffffffffffffffffffffffff1681526020019081526020015f206040518061018001604052808c73ffffffffffffffffffffffffffffffffffffffff1681526020013373ffffffffffffffffffffffffffffffffffffffff1681526020018873ffffffffffffffffffffffffffffffffffffffff1681526020018b81526020018a60028111156125d6576125d561611f565b5b60028111156125e8576125e761611f565b5b81526020018961ffff168152602001600115158152602001603b5f9054906101000a900467ffffffffffffffff1667ffffffffffffffff168152602001603b60089054906101000a900461ffff1661ffff1681526020017f000000000000000000000000000000000000000000000000000000000000000073ffffffffffffffffffffffffffffffffffffffff1663fca513a86040518163ffffffff1660e01b8152600401602060405180830381865afa1580156126a8573d5f803e3d5ffd5b505050506040513d601f19601f820116820180604052508101906126cc9190615d4f565b73ffffffffffffffffffffffffffffffffffffffff16815260200160385f8a73ffffffffffffffffffffffffffffffffffffffff1673ffffffffffffffffffffffffffffffffffffffff1681526020019081526020015f205f9054906101000a900460ff1660ff1681526020017f000000000000000000000000000000000000000000000000000000000000000073ffffffffffffffffffffffffffffffffffffffff16635eb88d3d6040518163ffffffff1660e01b8152600401602060405180830381865afa1580156127a2573d5f803e3d5ffd5b505050506040513d601f19601f820116820180604052508101906127c69190615d4f565b73ffffffffffffffffffffffffffffffffffffffff168152506040518663ffffffff1660e01b81526004016127ff9594939291906169e5565b5f6040518083038186803b158015612815575f80fd5b505af4158015612827573d5f803e3d5ffd5b505050505050505050565b5f604051806101c001604052808d73ffffffffffffffffffffffffffffffffffffffff1681526020018c8c808060200260200160405190810160405280939291908181526020018383602002808284375f81840152601f19601f8201169050808301925050505050505081526020018a8a808060200260200160405190810160405280939291908181526020018383602002808284375f81840152601f19601f8201169050808301925050505050505081526020018888808060200260200160405190810160405280939291908181526020018383602002808284375f81840152601f19601f8201169050808301925050505050505081526020018673ffffffffffffffffffffffffffffffffffffffff16815260200185858080601f0160208091040260200160405190810160405280939291908181526020018383808284375f81840152601f19601f8201169050808301925050505050505081526020018361ffff168152602001603a60109054906101000a90046fffffffffffffffffffffffffffffffff166fffffffffffffffffffffffffffffffff168152602001603a5f9054906101000a90046fffffffffffffffffffffffffffffffff166fffffffffffffffffffffffffffffffff168152602001603b5f9054906101000a900467ffffffffffffffff1667ffffffffffffffff168152602001603b60089054906101000a900461ffff1661ffff1681526020017f000000000000000000000000000000000000000000000000000000000000000073ffffffffffffffffffffffffffffffffffffffff16815260200160385f8873ffffffffffffffffffffffffffffffffffffffff1673ffffffffffffffffffffffffffffffffffffffff1681526020019081526020015f205f9054906101000a900460ff1660ff1681526020017f000000000000000000000000000000000000000000000000000000000000000073ffffffffffffffffffffffffffffffffffffffff1663707cd7166040518163ffffffff1660e01b8152600401602060405180830381865afa158015612b3d573d5f803e3d5ffd5b505050506040513d601f19601f82011682018060405250810190612b619190615d4f565b73ffffffffffffffffffffffffffffffffffffffff1663fa50f297336040518263ffffffff1660e01b8152600401612b999190615122565b602060405180830381865afa158015612bb4573d5f803e3d5ffd5b505050506040513d601f19601f82011682018060405250810190612bd89190616741565b1515815250905073__$d5ddd09ae98762b8929dd85e54b218e259$__632e7263ea60346036603760355f8b73ffffffffffffffffffffffffffffffffffffffff1673ffffffffffffffffffffffffffffffffffffffff1681526020019081526020015f20866040518663ffffffff1660e01b8152600401612c5d959493929190616c8b565b5f6040518083038186803b158015612c73575f80fd5b505af4158015612c85573d5f803e3d5ffd5b50505050505050505050505050505050565b612c9f613f69565b81603a5f6101000a8154816fffffffffffffffffffffffffffffffff02191690836fffffffffffffffffffffffffffffffff16021790555080603a60106101000a8154816fffffffffffffffffffffffffffffffff02191690836fffffffffffffffffffffffffffffffff1602179055505050565b5f805f805f8073__$563c746fa3df0f1858d85f6ef4258864be$__6326ec273f6034603660376040518060a0016040528060355f8f73ffffffffffffffffffffffffffffffffffffffff1673ffffffffffffffffffffffffffffffffffffffff1681526020019081526020015f206040518060200160405290815f820154815250508152602001603b60089054906101000a900461ffff1661ffff1681526020018d73ffffffffffffffffffffffffffffffffffffffff1681526020017f000000000000000000000000000000000000000000000000000000000000000073ffffffffffffffffffffffffffffffffffffffff1663fca513a86040518163ffffffff1660e01b8152600401602060405180830381865afa158015612e3a573d5f803e3d5ffd5b505050506040513d601f19601f82011682018060405250810190612e5e9190615d4f565b73ffffffffffffffffffffffffffffffffffffffff16815260200160385f8f73ffffffffffffffffffffffffffffffffffffffff1673ffffffffffffffffffffffffffffffffffffffff1681526020019081526020015f205f9054906101000a900460ff1660ff168152506040518563ffffffff1660e01b8152600401612ee89493929190616d63565b60c060405180830381865af4158015612f03573d5f803e3d5ffd5b505050506040513d601f19601f82011682018060405250810190612f279190616da7565b95509550955095509550955091939550919395565b612f44614961565b60345f8373ffffffffffffffffffffffffffffffffffffffff1673ffffffffffffffffffffffffffffffffffffffff1681526020019081526020015f205f016040518060200160405290815f820154815250509050919050565b5f612fa7614306565b905060015f9054906101000a900460ff1680612fc75750612fc661430e565b5b80612fd257505f5481115b613011576040517f08c379a000000000000000000000000000000000000000000000000000000000815260040161300890616ea0565b60405180910390fd5b5f60015f9054906101000a900460ff16159050801561304a576001805f6101000a81548160ff021916908315150217905550815f819055505b7f000000000000000000000000000000000000000000000000000000000000000073ffffffffffffffffffffffffffffffffffffffff168373ffffffffffffffffffffffffffffffffffffffff16146040518060400160405280600281526020017f313200000000000000000000000000000000000000000000000000000000000081525090613110576040517f08c379a00000000000000000000000000000000000000000000000000000000081526004016131079190616058565b60405180910390fd5b506109c4603b5f6101000a81548167ffffffffffffffff021916908367ffffffffffffffff160217905550801561315b575f60015f6101000a81548160ff0219169083151502179055505b505050565b73__$c3724b8d563dc83a94e797176cddecb3b9$__636973f74460345f8573ffffffffffffffffffffffffffffffffffffffff1673ffffffffffffffffffffffffffffffffffffffff1681526020019081526020015f2084846040518463ffffffff1660e01b81526004016131d793929190616ebe565b5f6040518083038186803b1580156131ed575f80fd5b505af41580156131ff573d5f803e3d5ffd5b505050505050565b61320f61431d565b73__$563c746fa3df0f1858d85f6ef4258864be$__6387b322b28484846040518463ffffffff1660e01b815260040161324a93929190616ef3565b5f6040518083038186803b158015613260575f80fd5b505af4158015613272573d5f803e3d5ffd5b50505050505050565b5f6132c160345f8473ffffffffffffffffffffffffffffffffffffffff1673ffffffffffffffffffffffffffffffffffffffff1681526020019081526020015f2061449b565b9050919050565b60605f603b60089054906101000a900461ffff1661ffff1690505f808267ffffffffffffffff8111156132fe576132fd61594e565b5b60405190808252806020026020018201604052801561332c5781602001602082028036833780820191505090505b5090505f5b83811015613446575f73ffffffffffffffffffffffffffffffffffffffff1660365f8381526020019081526020015f205f9054906101000a900473ffffffffffffffffffffffffffffffffffffffff1673ffffffffffffffffffffffffffffffffffffffff161461342a5760365f8281526020019081526020015f205f9054906101000a900473ffffffffffffffffffffffffffffffffffffffff168284836133da9190616f28565b815181106133eb576133ea616f5b565b5b602002602001019073ffffffffffffffffffffffffffffffffffffffff16908173ffffffffffffffffffffffffffffffffffffffff1681525050613439565b828061343590616f88565b9350505b8080600101915050613331565b50818303815280935050505090565b61345d613f69565b5f8260ff1614156040518060400160405280600281526020017f3136000000000000000000000000000000000000000000000000000000000000815250906134db576040517f08c379a00000000000000000000000000000000000000000000000000000000081526004016134d29190616058565b60405180910390fd5b508060375f8460ff1660ff1681526020019081526020015f205f820151815f015f6101000a81548161ffff021916908361ffff1602179055506020820151815f0160026101000a81548161ffff021916908361ffff1602179055506040820151815f0160046101000a81548161ffff021916908361ffff1602179055506060820151815f0160066101000a81548173ffffffffffffffffffffffffffffffffffffffff021916908373ffffffffffffffffffffffffffffffffffffffff16021790555060808201518160010190816135b39190617163565b509050505050565b60345f8773ffffffffffffffffffffffffffffffffffffffff1673ffffffffffffffffffffffffffffffffffffffff1681526020019081526020015f206004015f9054906101000a900473ffffffffffffffffffffffffffffffffffffffff1673ffffffffffffffffffffffffffffffffffffffff163373ffffffffffffffffffffffffffffffffffffffff16146040518060400160405280600281526020017f3131000000000000000000000000000000000000000000000000000000000000815250906136c0576040517f08c379a00000000000000000000000000000000000000000000000000000000081526004016136b79190616058565b60405180910390fd5b5073__$db79717e66442ee197e8271d032a066e34$__638a5dadd160346036603760356040518061012001604052808d73ffffffffffffffffffffffffffffffffffffffff1681526020018c73ffffffffffffffffffffffffffffffffffffffff1681526020018b73ffffffffffffffffffffffffffffffffffffffff1681526020018a8152602001898152602001888152602001603b60089054906101000a900461ffff1661ffff1681526020017f000000000000000000000000000000000000000000000000000000000000000073ffffffffffffffffffffffffffffffffffffffff1663fca513a86040518163ffffffff1660e01b8152600401602060405180830381865afa1580156137d8573d5f803e3d5ffd5b505050506040513d601f19601f820116820180604052508101906137fc9190615d4f565b73ffffffffffffffffffffffffffffffffffffffff16815260200160385f8e73ffffffffffffffffffffffffffffffffffffffff1673ffffffffffffffffffffffffffffffffffffffff1681526020019081526020015f205f9054906101000a900460ff1660ff168152506040518663ffffffff1660e01b81526004016138879594939291906172e7565b5f6040518083038186803b15801561389d575f80fd5b505af41580156138af573d5f803e3d5ffd5b50505050505050505050565b5f6138c4614188565b73__$b06080f092f400a43662c3f835a4d9baa8$__638e74324860345f8773ffffffffffffffffffffffffffffffffffffffff1673ffffffffffffffffffffffffffffffffffffffff1681526020019081526020015f208686866039546040518663ffffffff1660e01b8152600401613941959493929190617339565b602060405180830381865af415801561395c573d5f803e3d5ffd5b505050506040513d601f19601f820116820180604052508101906139809190616250565b90509392505050565b613991613f69565b73__$563c746fa3df0f1858d85f6ef4258864be$__631e3b41456034836040518363ffffffff1660e01b81526004016139cb92919061738a565b5f6040518083038186803b1580156139e1575f80fd5b505af41580156139f3573d5f803e3d5ffd5b5050505050565b5f603b5f9054906101000a900467ffffffffffffffff1667ffffffffffffffff16905090565b73__$db79717e66442ee197e8271d032a066e34$__631913f1616034603660355f8773ffffffffffffffffffffffffffffffffffffffff1673ffffffffffffffffffffffffffffffffffffffff1681526020019081526020015f2060405180608001604052808a73ffffffffffffffffffffffffffffffffffffffff1681526020018981526020018873ffffffffffffffffffffffffffffffffffffffff1681526020018761ffff168152506040518563ffffffff1660e01b8152600401613aeb9493929190615fcd565b5f6040518083038186803b158015613b01575f80fd5b505af4158015613b13573d5f803e3d5ffd5b5050505050505050565b5f60385f8373ffffffffffffffffffffffffffffffffffffffff1673ffffffffffffffffffffffffffffffffffffffff1681526020019081526020015f205f9054906101000a900460ff1660ff169050919050565b5f8873ffffffffffffffffffffffffffffffffffffffff1663d505accf33308b898989896040518863ffffffff1660e01b8152600401613bb89796959493929190615ef7565b5f604051808303815f87803b158015613bcf575f80fd5b505af1158015613be1573d5f803e3d5ffd5b505050505f6040518060a001604052808b73ffffffffffffffffffffffffffffffffffffffff1681526020018a8152602001896002811115613c2657613c2561611f565b5b6002811115613c3857613c3761611f565b5b81526020018873ffffffffffffffffffffffffffffffffffffffff1681526020015f1515815250905073__$c3724b8d563dc83a94e797176cddecb3b9$__6340e95de66034603660355f8c73ffffffffffffffffffffffffffffffffffffffff1673ffffffffffffffffffffffffffffffffffffffff1681526020019081526020015f20856040518563ffffffff1660e01b8152600401613cdc94939291906161f8565b602060405180830381865af4158015613cf7573d5f803e3d5ffd5b505050506040513d601f19601f82011682018060405250810190613d1b9190616250565b91505098975050505050505050565b613d32613f69565b5f73ffffffffffffffffffffffffffffffffffffffff168273ffffffffffffffffffffffffffffffffffffffff1614156040518060400160405280600281526020017f373700000000000000000000000000000000000000000000000000000000000081525090613dd9576040517f08c379a0000000000000000000000000000000000000000000000000000000008152600401613dd09190616058565b60405180910390fd5b505f60345f8473ffffffffffffffffffffffffffffffffffffffff1673ffffffffffffffffffffffffffffffffffffffff1681526020019081526020015f2060030160159054906101000a900461ffff1661ffff16141580613e9657508173ffffffffffffffffffffffffffffffffffffffff1660365f8081526020019081526020015f205f9054906101000a900473ffffffffffffffffffffffffffffffffffffffff1673ffffffffffffffffffffffffffffffffffffffff16145b6040518060400160405280600281526020017f383200000000000000000000000000000000000000000000000000000000000081525090613f0d576040517f08c379a0000000000000000000000000000000000000000000000000000000008152600401613f049190616058565b60405180910390fd5b508060345f8473ffffffffffffffffffffffffffffffffffffffff1673ffffffffffffffffffffffffffffffffffffffff1681526020019081526020015f205f018181613f5a9190617458565b9050505050565b5f6080905090565b3373ffffffffffffffffffffffffffffffffffffffff167f000000000000000000000000000000000000000000000000000000000000000073ffffffffffffffffffffffffffffffffffffffff1663631adfca6040518163ffffffff1660e01b8152600401602060405180830381865afa158015613fe9573d5f803e3d5ffd5b505050506040513d601f19601f8201168201806040525081019061400d9190615d4f565b73ffffffffffffffffffffffffffffffffffffffff16146040518060400160405280600281526020017f31300000000000000000000000000000000000000000000000000000000000008152509061409b576040517f08c379a00000000000000000000000000000000000000000000000000000000081526004016140929190616058565b60405180910390fd5b50565b5f808260030160109054906101000a900464ffffffffff169050428164ffffffffff160361410057826002015f9054906101000a90046fffffffffffffffffffffffffffffffff166fffffffffffffffffffffffffffffffff16915050614183565b61417f836002015f9054906101000a90046fffffffffffffffffffffffffffffffff166fffffffffffffffffffffffffffffffff166141718560020160109054906101000a90046fffffffffffffffffffffffffffffffff166fffffffffffffffffffffffffffffffff1684614585565b61459990919063ffffffff16565b9150505b919050565b7f000000000000000000000000000000000000000000000000000000000000000073ffffffffffffffffffffffffffffffffffffffff1663707cd7166040518163ffffffff1660e01b8152600401602060405180830381865afa1580156141f1573d5f803e3d5ffd5b505050506040513d601f19601f820116820180604052508101906142159190615d4f565b73ffffffffffffffffffffffffffffffffffffffff1663726600ce336040518263ffffffff1660e01b815260040161424d9190615122565b602060405180830381865afa158015614268573d5f803e3d5ffd5b505050506040513d601f19601f8201168201806040525081019061428c9190616741565b6040518060400160405280600181526020017f360000000000000000000000000000000000000000000000000000000000000081525090614303576040517f08c379a00000000000000000000000000000000000000000000000000000000081526004016142fa9190616058565b60405180910390fd5b50565b5f6001905090565b5f80303b90505f811491505090565b7f000000000000000000000000000000000000000000000000000000000000000073ffffffffffffffffffffffffffffffffffffffff1663707cd7166040518163ffffffff1660e01b8152600401602060405180830381865afa158015614386573d5f803e3d5ffd5b505050506040513d601f19601f820116820180604052508101906143aa9190615d4f565b73ffffffffffffffffffffffffffffffffffffffff16637be53ca1336040518263ffffffff1660e01b81526004016143e29190615122565b602060405180830381865afa1580156143fd573d5f803e3d5ffd5b505050506040513d601f19601f820116820180604052508101906144219190616741565b6040518060400160405280600181526020017f310000000000000000000000000000000000000000000000000000000000000081525090614498576040517f08c379a000000000000000000000000000000000000000000000000000000000815260040161448f9190616058565b60405180910390fd5b50565b5f808260030160109054906101000a900464ffffffffff169050428164ffffffffff16036144fd57826001015f9054906101000a90046fffffffffffffffffffffffffffffffff166fffffffffffffffffffffffffffffffff16915050614580565b61457c836001015f9054906101000a90046fffffffffffffffffffffffffffffffff166fffffffffffffffffffffffffffffffff1661456e8560010160109054906101000a90046fffffffffffffffffffffffffffffffff166fffffffffffffffffffffffffffffffff16846145e1565b61459990919063ffffffff16565b9150505b919050565b5f61459183834261463b565b905092915050565b5f816b019d971e4fe8401e740000005f1903048311158215176145ba575f80fd5b6b033b2e3c9fd0803ce80000006b019d971e4fe8401e740000008385020104905092915050565b5f808264ffffffffff16426145f69190616f28565b846146019190617466565b90506301e133808181614617576146166174a7565b5b049050806b033b2e3c9fd0803ce800000061463291906174d4565b91505092915050565b5f808364ffffffffff16836146509190616f28565b90505f810361466e576b033b2e3c9fd0803ce800000091505061479a565b5f805f8060018503935060028511614686575f61468b565b600285035b92506301e1338080026146a78a8b61459990919063ffffffff16565b816146b5576146b46174a7565b5b0491506301e133806146d08a8461459990919063ffffffff16565b816146de576146dd6174a7565b5b0490505f8285876146ef9190617466565b6146f99190617466565b90506002818161470c5761470b6174a7565b5b0490505f8285878961471e9190617466565b6147289190617466565b6147329190617466565b905060068181614745576147446174a7565b5b04905080826301e13380898e61475b9190617466565b6147659190617507565b6b033b2e3c9fd0803ce800000061477c91906174d4565b61478691906174d4565b61479091906174d4565b9750505050505050505b9392505050565b604051806101e001604052806147b5614961565b81526020015f6fffffffffffffffffffffffffffffffff1681526020015f6fffffffffffffffffffffffffffffffff1681526020015f6fffffffffffffffffffffffffffffffff1681526020015f6fffffffffffffffffffffffffffffffff1681526020015f6fffffffffffffffffffffffffffffffff1681526020015f64ffffffffff1681526020015f61ffff1681526020015f73ffffffffffffffffffffffffffffffffffffffff1681526020015f73ffffffffffffffffffffffffffffffffffffffff1681526020015f73ffffffffffffffffffffffffffffffffffffffff1681526020015f73ffffffffffffffffffffffffffffffffffffffff1681526020015f6fffffffffffffffffffffffffffffffff1681526020015f6fffffffffffffffffffffffffffffffff1681526020015f6fffffffffffffffffffffffffffffffff1681525090565b60405180602001604052805f81525090565b6040518060a001604052805f61ffff1681526020015f61ffff1681526020015f61ffff1681526020015f73ffffffffffffffffffffffffffffffffffffffff168152602001606081525090565b60405180602001604052805f81525090565b5f604051905090565b5f80fd5b5f80fd5b5f73ffffffffffffffffffffffffffffffffffffffff82169050919050565b5f6149ad82614984565b9050919050565b6149bd816149a3565b81146149c7575f80fd5b50565b5f813590506149d8816149b4565b92915050565b5f819050919050565b6149f0816149de565b81146149fa575f80fd5b50565b5f81359050614a0b816149e7565b92915050565b5f8115159050919050565b614a2581614a11565b8114614a2f575f80fd5b50565b5f81359050614a4081614a1c565b92915050565b5f805f805f60a08688031215614a5f57614a5e61497c565b5b5f614a6c888289016149ca565b9550506020614a7d888289016149ca565b9450506040614a8e888289016149ca565b9350506060614a9f888289016149fd565b9250506080614ab088828901614a32565b9150509295509295909350565b614ac6816149de565b82525050565b5f602082019050614adf5f830184614abd565b92915050565b5f61ffff82169050919050565b614afb81614ae5565b8114614b05575f80fd5b50565b5f81359050614b1681614af2565b92915050565b5f60ff82169050919050565b614b3181614b1c565b8114614b3b575f80fd5b50565b5f81359050614b4c81614b28565b92915050565b5f819050919050565b614b6481614b52565b8114614b6e575f80fd5b50565b5f81359050614b7f81614b5b565b92915050565b5f805f805f805f80610100898b031215614ba257614ba161497c565b5b5f614baf8b828c016149ca565b9850506020614bc08b828c016149fd565b9750506040614bd18b828c016149ca565b9650506060614be28b828c01614b08565b9550506080614bf38b828c016149fd565b94505060a0614c048b828c01614b3e565b93505060c0614c158b828c01614b71565b92505060e0614c268b828c01614b71565b9150509295985092959890939650565b5f819050919050565b5f614c59614c54614c4f84614984565b614c36565b614984565b9050919050565b5f614c6a82614c3f565b9050919050565b5f614c7b82614c60565b9050919050565b614c8b81614c71565b82525050565b5f602082019050614ca45f830184614c82565b92915050565b5f6fffffffffffffffffffffffffffffffff82169050919050565b614cce81614caa565b82525050565b5f602082019050614ce75f830184614cc5565b92915050565b5f8060408385031215614d0357614d0261497c565b5b5f614d10858286016149ca565b9250506020614d21858286016149ca565b9150509250929050565b5f60208284031215614d4057614d3f61497c565b5b5f614d4d84828501614b3e565b91505092915050565b5f805f60608486031215614d6d57614d6c61497c565b5b5f614d7a868287016149ca565b9350506020614d8b868287016149fd565b9250506040614d9c868287016149fd565b9150509250925092565b5f60208284031215614dbb57614dba61497c565b5b5f614dc8848285016149fd565b91505092915050565b5f60208284031215614de657614de561497c565b5b5f614df3848285016149ca565b91505092915050565b614e05816149de565b82525050565b602082015f820151614e1f5f850182614dfc565b50505050565b614e2e81614caa565b82525050565b5f64ffffffffff82169050919050565b614e4d81614e34565b82525050565b614e5c81614ae5565b82525050565b614e6b816149a3565b82525050565b6101e082015f820151614e865f850182614e0b565b506020820151614e996020850182614e25565b506040820151614eac6040850182614e25565b506060820151614ebf6060850182614e25565b506080820151614ed26080850182614e25565b5060a0820151614ee560a0850182614e25565b5060c0820151614ef860c0850182614e44565b5060e0820151614f0b60e0850182614e53565b50610100820151614f20610100850182614e62565b50610120820151614f35610120850182614e62565b50610140820151614f4a610140850182614e62565b50610160820151614f5f610160850182614e62565b50610180820151614f74610180850182614e25565b506101a0820151614f896101a0850182614e25565b506101c0820151614f9e6101c0850182614e25565b50505050565b5f6101e082019050614fb85f830184614e71565b92915050565b5f80fd5b5f80fd5b5f80fd5b5f8083601f840112614fdf57614fde614fbe565b5b8235905067ffffffffffffffff811115614ffc57614ffb614fc2565b5b60208301915083600182028301111561501857615017614fc6565b5b9250929050565b5f805f805f8060a087890312156150395761503861497c565b5b5f61504689828a016149ca565b965050602061505789828a016149ca565b955050604061506889828a016149fd565b945050606087013567ffffffffffffffff81111561508957615088614980565b5b61509589828a01614fca565b935093505060806150a889828a01614b08565b9150509295509295509295565b602082015f8201516150c95f850182614dfc565b50505050565b5f6020820190506150e25f8301846150b5565b92915050565b5f602082840312156150fd576150fc61497c565b5b5f61510a84828501614b08565b91505092915050565b61511c816149a3565b82525050565b5f6020820190506151355f830184615113565b92915050565b5f805f80608085870312156151535761515261497c565b5b5f615160878288016149ca565b9450506020615171878288016149fd565b9350506040615182878288016149fd565b9250506060615193878288016149ca565b91505092959194509250565b5f80604083850312156151b5576151b461497c565b5b5f6151c2858286016149ca565b92505060206151d385828601614a32565b9150509250929050565b5f805f80608085870312156151f5576151f461497c565b5b5f615202878288016149ca565b9450506020615213878288016149fd565b9350506040615224878288016149ca565b925050606061523587828801614b08565b91505092959194509250565b5f805f606084860312156152585761525761497c565b5b5f615265868287016149ca565b9350506020615276868287016149fd565b9250506040615287868287016149ca565b9150509250925092565b5f81519050919050565b5f82825260208201905092915050565b8281835e5f83830152505050565b5f601f19601f8301169050919050565b5f6152d382615291565b6152dd818561529b565b93506152ed8185602086016152ab565b6152f6816152b9565b840191505092915050565b5f60a083015f8301516153165f860182614e53565b5060208301516153296020860182614e53565b50604083015161533c6040860182614e53565b50606083015161534f6060860182614e62565b506080830151848203608086015261536782826152c9565b9150508091505092915050565b5f6020820190508181035f83015261538c8184615301565b905092915050565b5f805f805f60a086880312156153ad576153ac61497c565b5b5f6153ba888289016149ca565b95505060206153cb888289016149ca565b94505060406153dc888289016149ca565b93505060606153ed888289016149ca565b92505060806153fe888289016149ca565b9150509295509295909350565b5f80604083850312156154215761542061497c565b5b5f61542e858286016149ca565b925050602061543f858286016149fd565b9150509250929050565b5f8083601f84011261545e5761545d614fbe565b5b8235905067ffffffffffffffff81111561547b5761547a614fc2565b5b60208301915083602082028301111561549757615496614fc6565b5b9250929050565b5f80602083850312156154b4576154b361497c565b5b5f83013567ffffffffffffffff8111156154d1576154d0614980565b5b6154dd85828601615449565b92509250509250929050565b5f805f805f60a086880312156155025761550161497c565b5b5f61550f888289016149ca565b9550506020615520888289016149fd565b9450506040615531888289016149fd565b935050606061554288828901614b08565b9250506080615553888289016149ca565b9150509295509295909350565b5f8083601f84011261557557615574614fbe565b5b8235905067ffffffffffffffff81111561559257615591614fc2565b5b6020830191508360208202830111156155ae576155ad614fc6565b5b9250929050565b5f805f805f805f805f805f60e08c8e0312156155d4576155d361497c565b5b5f6155e18e828f016149ca565b9b505060208c013567ffffffffffffffff81111561560257615601614980565b5b61560e8e828f01615449565b9a509a505060408c013567ffffffffffffffff81111561563157615630614980565b5b61563d8e828f01615560565b985098505060608c013567ffffffffffffffff8111156156605761565f614980565b5b61566c8e828f01615560565b9650965050608061567f8e828f016149ca565b94505060a08c013567ffffffffffffffff8111156156a05761569f614980565b5b6156ac8e828f01614fca565b935093505060c06156bf8e828f01614b08565b9150509295989b509295989b9093969950565b6156db81614caa565b81146156e5575f80fd5b50565b5f813590506156f6816156d2565b92915050565b5f80604083850312156157125761571161497c565b5b5f61571f858286016156e8565b9250506020615730858286016156e8565b9150509250929050565b5f60c08201905061574d5f830189614abd565b61575a6020830188614abd565b6157676040830187614abd565b6157746060830186614abd565b6157816080830185614abd565b61578e60a0830184614abd565b979650505050505050565b602082015f8201516157ad5f850182614dfc565b50505050565b5f6020820190506157c65f830184615799565b92915050565b5f6157d6826149a3565b9050919050565b6157e6816157cc565b81146157f0575f80fd5b50565b5f81359050615801816157dd565b92915050565b5f6020828403121561581c5761581b61497c565b5b5f615829848285016157f3565b91505092915050565b5f805f606084860312156158495761584861497c565b5b5f615856868287016149ca565b9350506020615867868287016149ca565b9250506040615878868287016149fd565b9150509250925092565b5f81519050919050565b5f82825260208201905092915050565b5f819050602082019050919050565b5f6158b68383614e62565b60208301905092915050565b5f602082019050919050565b5f6158d882615882565b6158e2818561588c565b93506158ed8361589c565b805f5b8381101561591d57815161590488826158ab565b975061590f836158c2565b9250506001810190506158f0565b5085935050505092915050565b5f6020820190508181035f83015261594281846158ce565b905092915050565b5f80fd5b7f4e487b71000000000000000000000000000000000000000000000000000000005f52604160045260245ffd5b615984826152b9565b810181811067ffffffffffffffff821117156159a3576159a261594e565b5b80604052505050565b5f6159b5614973565b90506159c1828261597b565b919050565b5f80fd5b5f80fd5b5f67ffffffffffffffff8211156159e8576159e761594e565b5b6159f1826152b9565b9050602081019050919050565b828183375f83830152505050565b5f615a1e615a19846159ce565b6159ac565b905082815260208101848484011115615a3a57615a396159ca565b5b615a458482856159fe565b509392505050565b5f82601f830112615a6157615a60614fbe565b5b8135615a71848260208601615a0c565b91505092915050565b5f60a08284031215615a8f57615a8e61594a565b5b615a9960a06159ac565b90505f615aa884828501614b08565b5f830152506020615abb84828501614b08565b6020830152506040615acf84828501614b08565b6040830152506060615ae3848285016149ca565b606083015250608082013567ffffffffffffffff811115615b0757615b066159c6565b5b615b1384828501615a4d565b60808301525092915050565b5f8060408385031215615b3557615b3461497c565b5b5f615b4285828601614b3e565b925050602083013567ffffffffffffffff811115615b6357615b62614980565b5b615b6f85828601615a7a565b9150509250929050565b5f805f805f8060c08789031215615b9357615b9261497c565b5b5f615ba089828a016149ca565b9650506020615bb189828a016149ca565b9550506040615bc289828a016149ca565b9450506060615bd389828a016149fd565b9350506080615be489828a016149fd565b92505060a0615bf589828a016149fd565b9150509295509295509295565b5f805f805f805f80610100898b031215615c1f57615c1e61497c565b5b5f615c2c8b828c016149ca565b9850506020615c3d8b828c016149fd565b9750506040615c4e8b828c016149fd565b9650506060615c5f8b828c016149ca565b9550506080615c708b828c016149fd565b94505060a0615c818b828c01614b3e565b93505060c0615c928b828c01614b71565b92505060e0615ca38b828c01614b71565b9150509295985092959890939650565b5f80fd5b5f60208284031215615ccc57615ccb615cb3565b5b81905092915050565b5f8060408385031215615ceb57615cea61497c565b5b5f615cf8858286016149ca565b9250506020615d0985828601615cb7565b9150509250929050565b615d1c81614ae5565b82525050565b5f602082019050615d355f830184615d13565b92915050565b5f81519050615d49816149b4565b92915050565b5f60208284031215615d6457615d6361497c565b5b5f615d7184828501615d3b565b91505092915050565b8082525050565b8082525050565b8082525050565b8082525050565b615d9f816149de565b82525050565b615dae816149a3565b82525050565b615dbd81614a11565b82525050565b615dcc81614b1c565b82525050565b61012082015f820151615de75f850182615d96565b506020820151615dfa6020850182615d96565b506040820151615e0d6040850182615da5565b506060820151615e206060850182615da5565b506080820151615e336080850182615da5565b5060a0820151615e4660a0850182615db4565b5060c0820151615e5960c0850182615da5565b5060e0820151615e6c60e0850182615dc3565b50610100820151615e81610100850182615da5565b50505050565b5f6101a082019050615e9b5f830188615d7a565b615ea86020830187615d81565b615eb56040830186615d88565b615ec26060830185615d8f565b615ecf6080830184615dd2565b9695505050505050565b615ee281614b1c565b82525050565b615ef181614b52565b82525050565b5f60e082019050615f0a5f83018a615113565b615f176020830189615113565b615f246040830188614abd565b615f316060830187614abd565b615f3e6080830186615ed9565b615f4b60a0830185615ee8565b615f5860c0830184615ee8565b98975050505050505050565b8082525050565b615f7481614ae5565b82525050565b608082015f820151615f8e5f850182615da5565b506020820151615fa16020850182615d96565b506040820151615fb46040850182615da5565b506060820151615fc76060850182615f6b565b50505050565b5f60e082019050615fe05f830187615d7a565b615fed6020830186615d81565b615ffa6040830185615f64565b6160076060830184615f7a565b95945050505050565b5f82825260208201905092915050565b5f61602a82615291565b6160348185616010565b93506160448185602086016152ab565b61604d816152b9565b840191505092915050565b5f6020820190508181035f8301526160708184616020565b905092915050565b8082525050565b606082015f8201516160935f850182615d96565b5060208201516160a66020850182615da5565b5060408201516160b96040850182615dc3565b50505050565b5f610100820190506160d35f830189615d7a565b6160e06020830188615d81565b6160ed6040830187615d8f565b6160fa6060830186616078565b6161076080830185615f64565b61611460a083018461607f565b979650505050505050565b7f4e487b71000000000000000000000000000000000000000000000000000000005f52602160045260245ffd5b6003811061615d5761615c61611f565b5b50565b5f81905061616d8261614c565b919050565b5f61617c82616160565b9050919050565b61618c81616172565b82525050565b60a082015f8201516161a65f850182615da5565b5060208201516161b96020850182615d96565b5060408201516161cc6040850182616183565b5060608201516161df6060850182615da5565b5060808201516161f26080850182615db4565b50505050565b5f6101008201905061620c5f830187615d7a565b6162196020830186615d81565b6162266040830185615f64565b6162336060830184616192565b95945050505050565b5f8151905061624a816149e7565b92915050565b5f602082840312156162655761626461497c565b5b5f6162728482850161623c565b91505092915050565b8082525050565b5f81519050919050565b5f82825260208201905092915050565b5f6162a682616282565b6162b0818561628c565b93506162c08185602086016152ab565b6162c9816152b9565b840191505092915050565b5f60e083015f8301516162e95f860182615da5565b5060208301516162fc6020860182615da5565b50604083015161630f6040860182615d96565b5060608301518482036060860152616327828261629c565b915050608083015161633c6080860182615f6b565b5060a083015161634f60a0860182615d96565b5060c083015161636260c0860182615d96565b508091505092915050565b5f6040820190506163805f83018561627b565b818103602083015261639281846162d4565b90509392505050565b6163a4816149a3565b82525050565b6163b381614a11565b82525050565b5f6163d36163ce6163c984614ae5565b614c36565b6149de565b9050919050565b6163e3816163b9565b82525050565b6163f281614b1c565b82525050565b5f6101208201905061640c5f83018c615d7a565b616419602083018b615d81565b616426604083018a615d8f565b6164336060830189615f64565b616440608083018861639b565b61644d60a08301876163aa565b61645a60c08301866163da565b61646760e083018561639b565b6164756101008301846163e9565b9a9950505050505050505050565b5f6060820190506164965f830186615d7a565b6164a36020830185615d81565b6164b0604083018461639b565b949350505050565b60c082015f8201516164cc5f850182615da5565b5060208201516164df6020850182615d96565b5060408201516164f26040850182615da5565b5060608201516165056060850182615d96565b5060808201516165186080850182615da5565b5060a082015161652b60a0850182615dc3565b50505050565b5f610140820190506165455f830188615d7a565b6165526020830187615d81565b61655f6040830186615d8f565b61656c6060830185615f64565b61657960808301846164b8565b9695505050505050565b61658c816149de565b82525050565b61659b81614ae5565b82525050565b5f60e0820190506165b45f83018a615d7a565b6165c16020830189615d81565b6165ce6040830188615f64565b6165db606083018761639b565b6165e86080830186616583565b6165f560a083018561639b565b61660260c0830184616592565b98975050505050505050565b7f4e487b71000000000000000000000000000000000000000000000000000000005f52602260045260245ffd5b5f600282049050600182168061665257607f821691505b6020821081036166655761666461660e565b5b50919050565b60e082015f82015161667f5f850182615da5565b5060208201516166926020850182615da5565b5060408201516166a56040850182615da5565b5060608201516166b86060850182615da5565b5060808201516166cb6080850182615da5565b5060a08201516166de60a0850182615f6b565b5060c08201516166f160c0850182615f6b565b50505050565b5f6101208201905061670b5f830186615d7a565b6167186020830185615d81565b616725604083018461666b565b949350505050565b5f8151905061673b81614a1c565b92915050565b5f602082840312156167565761675561497c565b5b5f6167638482850161672d565b91505092915050565b7f4e487b71000000000000000000000000000000000000000000000000000000005f52601160045260245ffd5b5f6167a382614ae5565b915061ffff82036167b7576167b661676c565b5b600182019050919050565b6167cb81616172565b82525050565b5f6080820190506167e45f83018761627b565b6167f16020830186615f64565b6167fe604083018561639b565b61680b60608301846167c2565b95945050505050565b5f82825260208201905092915050565b5f819050919050565b5f6168388383615da5565b60208301905092915050565b5f61685260208401846149ca565b905092915050565b5f602082019050919050565b5f6168718385616814565b935061687c82616824565b805f5b858110156168b4576168918284616844565b61689b888261682d565b97506168a68361685a565b92505060018101905061687f565b5085925050509392505050565b5f6040820190506168d45f830186615d7a565b81810360208301526168e7818486616866565b9050949350505050565b61018082015f8201516169065f850182615da5565b5060208201516169196020850182615da5565b50604082015161692c6040850182615da5565b50606082015161693f6060850182615d96565b5060808201516169526080850182616183565b5060a082015161696560a0850182615f6b565b5060c082015161697860c0850182615db4565b5060e082015161698b60e0850182615d96565b506101008201516169a0610100850182615d96565b506101208201516169b5610120850182615da5565b506101408201516169ca610140850182615dc3565b506101608201516169df610160850182615da5565b50505050565b5f610200820190506169f95f830188615d7a565b616a066020830187615d81565b616a136040830186615d8f565b616a206060830185615f64565b616a2d60808301846168f1565b9695505050505050565b5f82825260208201905092915050565b5f616a5182615882565b616a5b8185616a37565b9350616a668361589c565b805f5b83811015616a96578151616a7d888261682d565b9750616a88836158c2565b925050600181019050616a69565b5085935050505092915050565b5f81519050919050565b5f82825260208201905092915050565b5f819050602082019050919050565b5f616ad78383615d96565b60208301905092915050565b5f602082019050919050565b5f616af982616aa3565b616b038185616aad565b9350616b0e83616abd565b805f5b83811015616b3e578151616b258882616acc565b9750616b3083616ae3565b925050600181019050616b11565b5085935050505092915050565b5f6101c083015f830151616b615f860182615da5565b5060208301518482036020860152616b798282616a47565b91505060408301518482036040860152616b938282616aef565b91505060608301518482036060860152616bad8282616aef565b9150506080830151616bc26080860182615da5565b5060a083015184820360a0860152616bda828261629c565b91505060c0830151616bef60c0860182615f6b565b5060e0830151616c0260e0860182615d96565b50610100830151616c17610100860182615d96565b50610120830151616c2c610120860182615d96565b50610140830151616c41610140860182615d96565b50610160830151616c56610160860182615da5565b50610180830151616c6b610180860182615dc3565b506101a0830151616c806101a0860182615db4565b508091505092915050565b5f60a082019050616c9e5f830188615d7a565b616cab6020830187615d81565b616cb86040830186615d8f565b616cc56060830185615f64565b8181036080830152616cd78184616b4b565b90509695505050505050565b602082015f820151616cf75f850182615d96565b50505050565b60a082015f820151616d115f850182616ce3565b506020820151616d246020850182615d96565b506040820151616d376040850182615da5565b506060820151616d4a6060850182615da5565b506080820151616d5d6080850182615dc3565b50505050565b5f61010082019050616d775f830187615d7a565b616d846020830186615d81565b616d916040830185615d8f565b616d9e6060830184616cfd565b95945050505050565b5f805f805f8060c08789031215616dc157616dc061497c565b5b5f616dce89828a0161623c565b9650506020616ddf89828a0161623c565b9550506040616df089828a0161623c565b9450506060616e0189828a0161623c565b9350506080616e1289828a0161623c565b92505060a0616e2389828a0161623c565b9150509295509295509295565b7f436f6e747261637420696e7374616e63652068617320616c72656164792062655f8201527f656e20696e697469616c697a6564000000000000000000000000000000000000602082015250565b5f616e8a602e83616010565b9150616e9582616e30565b604082019050919050565b5f6020820190508181035f830152616eb781616e7e565b9050919050565b5f606082019050616ed15f83018661627b565b616ede602083018561639b565b616eeb604083018461639b565b949350505050565b5f606082019050616f065f83018661639b565b616f13602083018561639b565b616f206040830184616583565b949350505050565b5f616f32826149de565b9150616f3d836149de565b9250828203905081811115616f5557616f5461676c565b5b92915050565b7f4e487b71000000000000000000000000000000000000000000000000000000005f52603260045260245ffd5b5f616f92826149de565b91507fffffffffffffffffffffffffffffffffffffffffffffffffffffffffffffffff8203616fc457616fc361676c565b5b600182019050919050565b5f819050815f5260205f209050919050565b5f6020601f8301049050919050565b5f82821b905092915050565b5f6008830261702b7fffffffffffffffffffffffffffffffffffffffffffffffffffffffffffffffff82616ff0565b6170358683616ff0565b95508019841693508086168417925050509392505050565b5f61706761706261705d846149de565b614c36565b6149de565b9050919050565b5f819050919050565b6170808361704d565b61709461708c8261706e565b848454616ffc565b825550505050565b5f90565b6170a861709c565b6170b3818484617077565b505050565b5b818110156170d6576170cb5f826170a0565b6001810190506170b9565b5050565b601f82111561711b576170ec81616fcf565b6170f584616fe1565b81016020851015617104578190505b61711861711085616fe1565b8301826170b8565b50505b505050565b5f82821c905092915050565b5f61713b5f1984600802617120565b1980831691505092915050565b5f617153838361712c565b9150826002028217905092915050565b61716c82615291565b67ffffffffffffffff8111156171855761718461594e565b5b61718f825461663b565b61719a8282856170da565b5f60209050601f8311600181146171cb575f84156171b9578287015190505b6171c38582617148565b86555061722a565b601f1984166171d986616fcf565b5f5b82811015617200578489015182556001820191506020850194506020810190506171db565b8683101561721d5784890151617219601f89168261712c565b8355505b6001600288020188555050505b505050505050565b61012082015f8201516172475f850182615da5565b50602082015161725a6020850182615da5565b50604082015161726d6040850182615da5565b5060608201516172806060850182615d96565b5060808201516172936080850182615d96565b5060a08201516172a660a0850182615d96565b5060c08201516172b960c0850182615d96565b5060e08201516172cc60e0850182615da5565b506101008201516172e1610100850182615dc3565b50505050565b5f6101a0820190506172fb5f830188615d7a565b6173086020830187615d81565b6173156040830186615d8f565b6173226060830185615d88565b61732f6080830184617232565b9695505050505050565b5f60a08201905061734c5f83018861627b565b617359602083018761639b565b6173666040830186616583565b6173736060830185616583565b6173806080830184616583565b9695505050505050565b5f60408201905061739d5f830185615d7a565b6173aa602083018461639b565b9392505050565b5f81356173bd816149e7565b80915050919050565b5f815f1b9050919050565b5f7fffffffffffffffffffffffffffffffffffffffffffffffffffffffffffffffff6173fc846173c6565b9350801983169250808416831791505092915050565b61741b8261704d565b61742e6174278261706e565b83546173d1565b8255505050565b5f81015f830180617445816173b1565b90506174518184617412565b5050505050565b6174628282617435565b5050565b5f617470826149de565b915061747b836149de565b9250828202617489816149de565b915082820484148315176174a05761749f61676c565b5b5092915050565b7f4e487b71000000000000000000000000000000000000000000000000000000005f52601260045260245ffd5b5f6174de826149de565b91506174e9836149de565b92508282019050808211156175015761750061676c565b5b92915050565b5f617511826149de565b915061751c836149de565b92508261752c5761752b6174a7565b5b82820490509291505056fea26469706673582212209a3e86ca48dc66c1265c314e81b70ec6ac022292b04a7af4ab866250422a8da864736f6c634300081a0033",
			"opcodes": "PUSH1 0xA0 PUSH1 0x40 MSTORE PUSH0 DUP1 SSTORE CALLVALUE DUP1 ISZERO PUSH2 0x12 JUMPI PUSH0 DUP1 REVERT JUMPDEST POP PUSH1 0x40 MLOAD PUSH2 0x76F6 CODESIZE SUB DUP1 PUSH2 0x76F6 DUP4 CODECOPY DUP2 DUP2 ADD PUSH1 0x40 MSTORE DUP2 ADD SWAP1 PUSH2 0x34 SWAP2 SWAP1 PUSH2 0xDD JUMP JUMPDEST DUP1 PUSH20 0xFFFFFFFFFFFFFFFFFFFFFFFFFFFFFFFFFFFFFFFF AND PUSH1 0x80 DUP2 PUSH20 0xFFFFFFFFFFFFFFFFFFFFFFFFFFFFFFFFFFFFFFFF AND DUP2 MSTORE POP POP POP PUSH2 0x108 JUMP JUMPDEST PUSH0 DUP1 REVERT JUMPDEST PUSH0 PUSH20 0xFFFFFFFFFFFFFFFFFFFFFFFFFFFFFFFFFFFFFFFF DUP3 AND SWAP1 POP SWAP2 SWAP1 POP JUMP JUMPDEST PUSH0 PUSH2 0x9B DUP3 PUSH2 0x72 JUMP JUMPDEST SWAP1 POP SWAP2 SWAP1 POP JUMP JUMPDEST PUSH0 PUSH2 0xAC DUP3 PUSH2 0x91 JUMP JUMPDEST SWAP1 POP SWAP2 SWAP1 POP JUMP JUMPDEST PUSH2 0xBC DUP2 PUSH2 0xA2 JUMP JUMPDEST DUP2 EQ PUSH2 0xC6 JUMPI PUSH0 DUP1 REVERT JUMPDEST POP JUMP JUMPDEST PUSH0 DUP2 MLOAD SWAP1 POP PUSH2 0xD7 DUP2 PUSH2 0xB3 JUMP JUMPDEST SWAP3 SWAP2 POP POP JUMP JUMPDEST PUSH0 PUSH1 0x20 DUP3 DUP5 SUB SLT ISZERO PUSH2 0xF2 JUMPI PUSH2 0xF1 PUSH2 0x6E JUMP JUMPDEST JUMPDEST PUSH0 PUSH2 0xFF DUP5 DUP3 DUP6 ADD PUSH2 0xC9 JUMP JUMPDEST SWAP2 POP POP SWAP3 SWAP2 POP POP JUMP JUMPDEST PUSH1 0x80 MLOAD PUSH2 0x756D PUSH2 0x189 PUSH0 CODECOPY PUSH0 DUP2 DUP2 PUSH2 0x96C ADD MSTORE DUP2 DUP2 PUSH2 0xA66 ADD MSTORE DUP2 DUP2 PUSH2 0xCD7 ADD MSTORE DUP2 DUP2 PUSH2 0x1012 ADD MSTORE DUP2 DUP2 PUSH2 0x1B05 ADD MSTORE DUP2 DUP2 PUSH2 0x1E62 ADD MSTORE DUP2 DUP2 PUSH2 0x2641 ADD MSTORE DUP2 DUP2 PUSH2 0x273B ADD MSTORE DUP2 DUP2 PUSH2 0x2A48 ADD MSTORE DUP2 DUP2 PUSH2 0x2AD6 ADD MSTORE DUP2 DUP2 PUSH2 0x2DD3 ADD MSTORE DUP2 DUP2 PUSH2 0x304C ADD MSTORE DUP2 DUP2 PUSH2 0x3771 ADD MSTORE DUP2 DUP2 PUSH2 0x3F82 ADD MSTORE DUP2 DUP2 PUSH2 0x418A ADD MSTORE PUSH2 0x431F ADD MSTORE PUSH2 0x756D PUSH0 RETURN INVALID PUSH1 0x80 PUSH1 0x40 MSTORE CALLVALUE DUP1 ISZERO PUSH2 0xF JUMPI PUSH0 DUP1 REVERT JUMPDEST POP PUSH1 0x4 CALLDATASIZE LT PUSH2 0x287 JUMPI PUSH0 CALLDATALOAD PUSH1 0xE0 SHR DUP1 PUSH4 0x7A708E92 GT PUSH2 0x15A JUMPI DUP1 PUSH4 0xD15E0053 GT PUSH2 0xCC JUMPI DUP1 PUSH4 0xE82FEC2F GT PUSH2 0x85 JUMPI DUP1 PUSH4 0xE82FEC2F EQ PUSH2 0x7EC JUMPI DUP1 PUSH4 0xE8EDA9DF EQ PUSH2 0x80A JUMPI DUP1 PUSH4 0xEDDF1B79 EQ PUSH2 0x826 JUMPI DUP1 PUSH4 0xEE3E210B EQ PUSH2 0x856 JUMPI DUP1 PUSH4 0xF51E435B EQ PUSH2 0x886 JUMPI DUP1 PUSH4 0xF8119D51 EQ PUSH2 0x8A2 JUMPI PUSH2 0x287 JUMP JUMPDEST DUP1 PUSH4 0xD15E0053 EQ PUSH2 0x71A JUMPI DUP1 PUSH4 0xD1946DBC EQ PUSH2 0x74A JUMPI DUP1 PUSH4 0xD579EA7D EQ PUSH2 0x768 JUMPI DUP1 PUSH4 0xD5ED3933 EQ PUSH2 0x784 JUMPI DUP1 PUSH4 0xD65DC7A1 EQ PUSH2 0x7A0 JUMPI DUP1 PUSH4 0xE43E88A1 EQ PUSH2 0x7D0 JUMPI PUSH2 0x287 JUMP JUMPDEST DUP1 PUSH4 0xBCB6E522 GT PUSH2 0x11E JUMPI DUP1 PUSH4 0xBCB6E522 EQ PUSH2 0x645 JUMPI DUP1 PUSH4 0xBF92857C EQ PUSH2 0x661 JUMPI DUP1 PUSH4 0xC44B11F7 EQ PUSH2 0x696 JUMPI DUP1 PUSH4 0xC4D66DE8 EQ PUSH2 0x6C6 JUMPI DUP1 PUSH4 0xCD112382 EQ PUSH2 0x6E2 JUMPI DUP1 PUSH4 0xCEA9D26F EQ PUSH2 0x6FE JUMPI PUSH2 0x287 JUMP JUMPDEST DUP1 PUSH4 0x7A708E92 EQ PUSH2 0x5B9 JUMPI DUP1 PUSH4 0x94BA89A2 EQ PUSH2 0x5D5 JUMPI DUP1 PUSH4 0x9CD19996 EQ PUSH2 0x5F1 JUMPI DUP1 PUSH4 0xA415BCAD EQ PUSH2 0x60D JUMPI DUP1 PUSH4 0xAB9C4B5D EQ PUSH2 0x629 JUMPI PUSH2 0x287 JUMP JUMPDEST DUP1 PUSH4 0x386497FD GT PUSH2 0x1FE JUMPI DUP1 PUSH4 0x617BA037 GT PUSH2 0x1B7 JUMPI DUP1 PUSH4 0x617BA037 EQ PUSH2 0x4E7 JUMPI DUP1 PUSH4 0x63C9B860 EQ PUSH2 0x503 JUMPI DUP1 PUSH4 0x69328DEC EQ PUSH2 0x51F JUMPI DUP1 PUSH4 0x69A933A5 EQ PUSH2 0x54F JUMPI DUP1 PUSH4 0x6A99C036 EQ PUSH2 0x56B JUMPI DUP1 PUSH4 0x6C6F6AE1 EQ PUSH2 0x589 JUMPI PUSH2 0x287 JUMP JUMPDEST DUP1 PUSH4 0x386497FD EQ PUSH2 0x3EF JUMPI DUP1 PUSH4 0x42B0B77C EQ PUSH2 0x41F JUMPI DUP1 PUSH4 0x4417A583 EQ PUSH2 0x43B JUMPI DUP1 PUSH4 0x52751797 EQ PUSH2 0x46B JUMPI DUP1 PUSH4 0x573ADE81 EQ PUSH2 0x49B JUMPI DUP1 PUSH4 0x5A3B74B9 EQ PUSH2 0x4CB JUMPI PUSH2 0x287 JUMP JUMPDEST DUP1 PUSH4 0x1D2118F9 GT PUSH2 0x250 JUMPI DUP1 PUSH4 0x1D2118F9 EQ PUSH2 0x31D JUMPI DUP1 PUSH4 0x272D9072 EQ PUSH2 0x339 JUMPI DUP1 PUSH4 0x28530A47 EQ PUSH2 0x357 JUMPI DUP1 PUSH4 0x2DAD97D4 EQ PUSH2 0x373 JUMPI DUP1 PUSH4 0x3036B439 EQ PUSH2 0x3A3 JUMPI DUP1 PUSH4 0x35EA6A75 EQ PUSH2 0x3BF JUMPI PUSH2 0x287 JUMP JUMPDEST DUP1 PUSH3 0xA718A9 EQ PUSH2 0x28B JUMPI DUP1 PUSH4 0x148170E EQ PUSH2 0x2A7 JUMPI DUP1 PUSH4 0x2C205F0 EQ PUSH2 0x2C5 JUMPI DUP1 PUSH4 0x542975C EQ PUSH2 0x2E1 JUMPI DUP1 PUSH4 0x74B2E43 EQ PUSH2 0x2FF JUMPI JUMPDEST PUSH0 DUP1 REVERT JUMPDEST PUSH2 0x2A5 PUSH1 0x4 DUP1 CALLDATASIZE SUB DUP2 ADD SWAP1 PUSH2 0x2A0 SWAP2 SWAP1 PUSH2 0x4A46 JUMP JUMPDEST PUSH2 0x8C0 JUMP JUMPDEST STOP JUMPDEST PUSH2 0x2AF PUSH2 0xB5D JUMP JUMPDEST PUSH1 0x40 MLOAD PUSH2 0x2BC SWAP2 SWAP1 PUSH2 0x4ACC JUMP JUMPDEST PUSH1 0x40 MLOAD DUP1 SWAP2 SUB SWAP1 RETURN JUMPDEST PUSH2 0x2DF PUSH1 0x4 DUP1 CALLDATASIZE SUB DUP2 ADD SWAP1 PUSH2 0x2DA SWAP2 SWAP1 PUSH2 0x4B85 JUMP JUMPDEST PUSH2 0xB62 JUMP JUMPDEST STOP JUMPDEST PUSH2 0x2E9 PUSH2 0xCD5 JUMP JUMPDEST PUSH1 0x40 MLOAD PUSH2 0x2F6 SWAP2 SWAP1 PUSH2 0x4C91 JUMP JUMPDEST PUSH1 0x40 MLOAD DUP1 SWAP2 SUB SWAP1 RETURN JUMPDEST PUSH2 0x307 PUSH2 0xCF9 JUMP JUMPDEST PUSH1 0x40 MLOAD PUSH2 0x314 SWAP2 SWAP1 PUSH2 0x4CD4 JUMP JUMPDEST PUSH1 0x40 MLOAD DUP1 SWAP2 SUB SWAP1 RETURN JUMPDEST PUSH2 0x337 PUSH1 0x4 DUP1 CALLDATASIZE SUB DUP2 ADD SWAP1 PUSH2 0x332 SWAP2 SWAP1 PUSH2 0x4CED JUMP JUMPDEST PUSH2 0xD1D JUMP JUMPDEST STOP JUMPDEST PUSH2 0x341 PUSH2 0xF83 JUMP JUMPDEST PUSH1 0x40 MLOAD PUSH2 0x34E SWAP2 SWAP1 PUSH2 0x4ACC JUMP JUMPDEST PUSH1 0x40 MLOAD DUP1 SWAP2 SUB SWAP1 RETURN JUMPDEST PUSH2 0x371 PUSH1 0x4 DUP1 CALLDATASIZE SUB DUP2 ADD SWAP1 PUSH2 0x36C SWAP2 SWAP1 PUSH2 0x4D2B JUMP JUMPDEST PUSH2 0xF8C JUMP JUMPDEST STOP JUMPDEST PUSH2 0x38D PUSH1 0x4 DUP1 CALLDATASIZE SUB DUP2 ADD SWAP1 PUSH2 0x388 SWAP2 SWAP1 PUSH2 0x4D56 JUMP JUMPDEST PUSH2 0x110F JUMP JUMPDEST PUSH1 0x40 MLOAD PUSH2 0x39A SWAP2 SWAP1 PUSH2 0x4ACC JUMP JUMPDEST PUSH1 0x40 MLOAD DUP1 SWAP2 SUB SWAP1 RETURN JUMPDEST PUSH2 0x3BD PUSH1 0x4 DUP1 CALLDATASIZE SUB DUP2 ADD SWAP1 PUSH2 0x3B8 SWAP2 SWAP1 PUSH2 0x4DA6 JUMP JUMPDEST PUSH2 0x124C JUMP JUMPDEST STOP JUMPDEST PUSH2 0x3D9 PUSH1 0x4 DUP1 CALLDATASIZE SUB DUP2 ADD SWAP1 PUSH2 0x3D4 SWAP2 SWAP1 PUSH2 0x4DD1 JUMP JUMPDEST PUSH2 0x125E JUMP JUMPDEST PUSH1 0x40 MLOAD PUSH2 0x3E6 SWAP2 SWAP1 PUSH2 0x4FA4 JUMP JUMPDEST PUSH1 0x40 MLOAD DUP1 SWAP2 SUB SWAP1 RETURN JUMPDEST PUSH2 0x409 PUSH1 0x4 DUP1 CALLDATASIZE SUB DUP2 ADD SWAP1 PUSH2 0x404 SWAP2 SWAP1 PUSH2 0x4DD1 JUMP JUMPDEST PUSH2 0x16BA JUMP JUMPDEST PUSH1 0x40 MLOAD PUSH2 0x416 SWAP2 SWAP1 PUSH2 0x4ACC JUMP JUMPDEST PUSH1 0x40 MLOAD DUP1 SWAP2 SUB SWAP1 RETURN JUMPDEST PUSH2 0x439 PUSH1 0x4 DUP1 CALLDATASIZE SUB DUP2 ADD SWAP1 PUSH2 0x434 SWAP2 SWAP1 PUSH2 0x501F JUMP JUMPDEST PUSH2 0x1707 JUMP JUMPDEST STOP JUMPDEST PUSH2 0x455 PUSH1 0x4 DUP1 CALLDATASIZE SUB DUP2 ADD SWAP1 PUSH2 0x450 SWAP2 SWAP1 PUSH2 0x4DD1 JUMP JUMPDEST PUSH2 0x18B9 JUMP JUMPDEST PUSH1 0x40 MLOAD PUSH2 0x462 SWAP2 SWAP1 PUSH2 0x50CF JUMP JUMPDEST PUSH1 0x40 MLOAD DUP1 SWAP2 SUB SWAP1 RETURN JUMPDEST PUSH2 0x485 PUSH1 0x4 DUP1 CALLDATASIZE SUB DUP2 ADD SWAP1 PUSH2 0x480 SWAP2 SWAP1 PUSH2 0x50E8 JUMP JUMPDEST PUSH2 0x1919 JUMP JUMPDEST PUSH1 0x40 MLOAD PUSH2 0x492 SWAP2 SWAP1 PUSH2 0x5122 JUMP JUMPDEST PUSH1 0x40 MLOAD DUP1 SWAP2 SUB SWAP1 RETURN JUMPDEST PUSH2 0x4B5 PUSH1 0x4 DUP1 CALLDATASIZE SUB DUP2 ADD SWAP1 PUSH2 0x4B0 SWAP2 SWAP1 PUSH2 0x513B JUMP JUMPDEST PUSH2 0x1956 JUMP JUMPDEST PUSH1 0x40 MLOAD PUSH2 0x4C2 SWAP2 SWAP1 PUSH2 0x4ACC JUMP JUMPDEST PUSH1 0x40 MLOAD DUP1 SWAP2 SUB SWAP1 RETURN JUMPDEST PUSH2 0x4E5 PUSH1 0x4 DUP1 CALLDATASIZE SUB DUP2 ADD SWAP1 PUSH2 0x4E0 SWAP2 SWAP1 PUSH2 0x519F JUMP JUMPDEST PUSH2 0x1A93 JUMP JUMPDEST STOP JUMPDEST PUSH2 0x501 PUSH1 0x4 DUP1 CALLDATASIZE SUB DUP2 ADD SWAP1 PUSH2 0x4FC SWAP2 SWAP1 PUSH2 0x51DD JUMP JUMPDEST PUSH2 0x1C2E JUMP JUMPDEST STOP JUMPDEST PUSH2 0x51D PUSH1 0x4 DUP1 CALLDATASIZE SUB DUP2 ADD SWAP1 PUSH2 0x518 SWAP2 SWAP1 PUSH2 0x4DD1 JUMP JUMPDEST PUSH2 0x1D2B JUMP JUMPDEST STOP JUMPDEST PUSH2 0x539 PUSH1 0x4 DUP1 CALLDATASIZE SUB DUP2 ADD SWAP1 PUSH2 0x534 SWAP2 SWAP1 PUSH2 0x5241 JUMP JUMPDEST PUSH2 0x1D9F JUMP JUMPDEST PUSH1 0x40 MLOAD PUSH2 0x546 SWAP2 SWAP1 PUSH2 0x4ACC JUMP JUMPDEST PUSH1 0x40 MLOAD DUP1 SWAP2 SUB SWAP1 RETURN JUMPDEST PUSH2 0x569 PUSH1 0x4 DUP1 CALLDATASIZE SUB DUP2 ADD SWAP1 PUSH2 0x564 SWAP2 SWAP1 PUSH2 0x51DD JUMP JUMPDEST PUSH2 0x1FC0 JUMP JUMPDEST STOP JUMPDEST PUSH2 0x573 PUSH2 0x207B JUMP JUMPDEST PUSH1 0x40 MLOAD PUSH2 0x580 SWAP2 SWAP1 PUSH2 0x4CD4 JUMP JUMPDEST PUSH1 0x40 MLOAD DUP1 SWAP2 SUB SWAP1 RETURN JUMPDEST PUSH2 0x5A3 PUSH1 0x4 DUP1 CALLDATASIZE SUB DUP2 ADD SWAP1 PUSH2 0x59E SWAP2 SWAP1 PUSH2 0x4D2B JUMP JUMPDEST PUSH2 0x20A0 JUMP JUMPDEST PUSH1 0x40 MLOAD PUSH2 0x5B0 SWAP2 SWAP1 PUSH2 0x5374 JUMP JUMPDEST PUSH1 0x40 MLOAD DUP1 SWAP2 SUB SWAP1 RETURN JUMPDEST PUSH2 0x5D3 PUSH1 0x4 DUP1 CALLDATASIZE SUB DUP2 ADD SWAP1 PUSH2 0x5CE SWAP2 SWAP1 PUSH2 0x5394 JUMP JUMPDEST PUSH2 0x2212 JUMP JUMPDEST STOP JUMPDEST PUSH2 0x5EF PUSH1 0x4 DUP1 CALLDATASIZE SUB DUP2 ADD SWAP1 PUSH2 0x5EA SWAP2 SWAP1 PUSH2 0x540B JUMP JUMPDEST PUSH2 0x239D JUMP JUMPDEST STOP JUMPDEST PUSH2 0x60B PUSH1 0x4 DUP1 CALLDATASIZE SUB DUP2 ADD SWAP1 PUSH2 0x606 SWAP2 SWAP1 PUSH2 0x549E JUMP JUMPDEST PUSH2 0x2494 JUMP JUMPDEST STOP JUMPDEST PUSH2 0x627 PUSH1 0x4 DUP1 CALLDATASIZE SUB DUP2 ADD SWAP1 PUSH2 0x622 SWAP2 SWAP1 PUSH2 0x54E9 JUMP JUMPDEST PUSH2 0x2500 JUMP JUMPDEST STOP JUMPDEST PUSH2 0x643 PUSH1 0x4 DUP1 CALLDATASIZE SUB DUP2 ADD SWAP1 PUSH2 0x63E SWAP2 SWAP1 PUSH2 0x55B5 JUMP JUMPDEST PUSH2 0x2832 JUMP JUMPDEST STOP JUMPDEST PUSH2 0x65F PUSH1 0x4 DUP1 CALLDATASIZE SUB DUP2 ADD SWAP1 PUSH2 0x65A SWAP2 SWAP1 PUSH2 0x56FC JUMP JUMPDEST PUSH2 0x2C97 JUMP JUMPDEST STOP JUMPDEST PUSH2 0x67B PUSH1 0x4 DUP1 CALLDATASIZE SUB DUP2 ADD SWAP1 PUSH2 0x676 SWAP2 SWAP1 PUSH2 0x4DD1 JUMP JUMPDEST PUSH2 0x2D14 JUMP JUMPDEST PUSH1 0x40 MLOAD PUSH2 0x68D SWAP7 SWAP6 SWAP5 SWAP4 SWAP3 SWAP2 SWAP1 PUSH2 0x573A JUMP JUMPDEST PUSH1 0x40 MLOAD DUP1 SWAP2 SUB SWAP1 RETURN JUMPDEST PUSH2 0x6B0 PUSH1 0x4 DUP1 CALLDATASIZE SUB DUP2 ADD SWAP1 PUSH2 0x6AB SWAP2 SWAP1 PUSH2 0x4DD1 JUMP JUMPDEST PUSH2 0x2F3C JUMP JUMPDEST PUSH1 0x40 MLOAD PUSH2 0x6BD SWAP2 SWAP1 PUSH2 0x57B3 JUMP JUMPDEST PUSH1 0x40 MLOAD DUP1 SWAP2 SUB SWAP1 RETURN JUMPDEST PUSH2 0x6E0 PUSH1 0x4 DUP1 CALLDATASIZE SUB DUP2 ADD SWAP1 PUSH2 0x6DB SWAP2 SWAP1 PUSH2 0x5807 JUMP JUMPDEST PUSH2 0x2F9E JUMP JUMPDEST STOP JUMPDEST PUSH2 0x6FC PUSH1 0x4 DUP1 CALLDATASIZE SUB DUP2 ADD SWAP1 PUSH2 0x6F7 SWAP2 SWAP1 PUSH2 0x4CED JUMP JUMPDEST PUSH2 0x3160 JUMP JUMPDEST STOP JUMPDEST PUSH2 0x718 PUSH1 0x4 DUP1 CALLDATASIZE SUB DUP2 ADD SWAP1 PUSH2 0x713 SWAP2 SWAP1 PUSH2 0x5832 JUMP JUMPDEST PUSH2 0x3207 JUMP JUMPDEST STOP JUMPDEST PUSH2 0x734 PUSH1 0x4 DUP1 CALLDATASIZE SUB DUP2 ADD SWAP1 PUSH2 0x72F SWAP2 SWAP1 PUSH2 0x4DD1 JUMP JUMPDEST PUSH2 0x327B JUMP JUMPDEST PUSH1 0x40 MLOAD PUSH2 0x741 SWAP2 SWAP1 PUSH2 0x4ACC JUMP JUMPDEST PUSH1 0x40 MLOAD DUP1 SWAP2 SUB SWAP1 RETURN JUMPDEST PUSH2 0x752 PUSH2 0x32C8 JUMP JUMPDEST PUSH1 0x40 MLOAD PUSH2 0x75F SWAP2 SWAP1 PUSH2 0x592A JUMP JUMPDEST PUSH1 0x40 MLOAD DUP1 SWAP2 SUB SWAP1 RETURN JUMPDEST PUSH2 0x782 PUSH1 0x4 DUP1 CALLDATASIZE SUB DUP2 ADD SWAP1 PUSH2 0x77D SWAP2 SWAP1 PUSH2 0x5B1F JUMP JUMPDEST PUSH2 0x3455 JUMP JUMPDEST STOP JUMPDEST PUSH2 0x79E PUSH1 0x4 DUP1 CALLDATASIZE SUB DUP2 ADD SWAP1 PUSH2 0x799 SWAP2 SWAP1 PUSH2 0x5B79 JUMP JUMPDEST PUSH2 0x35BB JUMP JUMPDEST STOP JUMPDEST PUSH2 0x7BA PUSH1 0x4 DUP1 CALLDATASIZE SUB DUP2 ADD SWAP1 PUSH2 0x7B5 SWAP2 SWAP1 PUSH2 0x4D56 JUMP JUMPDEST PUSH2 0x38BB JUMP JUMPDEST PUSH1 0x40 MLOAD PUSH2 0x7C7 SWAP2 SWAP1 PUSH2 0x4ACC JUMP JUMPDEST PUSH1 0x40 MLOAD DUP1 SWAP2 SUB SWAP1 RETURN JUMPDEST PUSH2 0x7EA PUSH1 0x4 DUP1 CALLDATASIZE SUB DUP2 ADD SWAP1 PUSH2 0x7E5 SWAP2 SWAP1 PUSH2 0x4DD1 JUMP JUMPDEST PUSH2 0x3989 JUMP JUMPDEST STOP JUMPDEST PUSH2 0x7F4 PUSH2 0x39FA JUMP JUMPDEST PUSH1 0x40 MLOAD PUSH2 0x801 SWAP2 SWAP1 PUSH2 0x4ACC JUMP JUMPDEST PUSH1 0x40 MLOAD DUP1 SWAP2 SUB SWAP1 RETURN JUMPDEST PUSH2 0x824 PUSH1 0x4 DUP1 CALLDATASIZE SUB DUP2 ADD SWAP1 PUSH2 0x81F SWAP2 SWAP1 PUSH2 0x51DD JUMP JUMPDEST PUSH2 0x3A20 JUMP JUMPDEST STOP JUMPDEST PUSH2 0x840 PUSH1 0x4 DUP1 CALLDATASIZE SUB DUP2 ADD SWAP1 PUSH2 0x83B SWAP2 SWAP1 PUSH2 0x4DD1 JUMP JUMPDEST PUSH2 0x3B1D JUMP JUMPDEST PUSH1 0x40 MLOAD PUSH2 0x84D SWAP2 SWAP1 PUSH2 0x4ACC JUMP JUMPDEST PUSH1 0x40 MLOAD DUP1 SWAP2 SUB SWAP1 RETURN JUMPDEST PUSH2 0x870 PUSH1 0x4 DUP1 CALLDATASIZE SUB DUP2 ADD SWAP1 PUSH2 0x86B SWAP2 SWAP1 PUSH2 0x5C02 JUMP JUMPDEST PUSH2 0x3B72 JUMP JUMPDEST PUSH1 0x40 MLOAD PUSH2 0x87D SWAP2 SWAP1 PUSH2 0x4ACC JUMP JUMPDEST PUSH1 0x40 MLOAD DUP1 SWAP2 SUB SWAP1 RETURN JUMPDEST PUSH2 0x8A0 PUSH1 0x4 DUP1 CALLDATASIZE SUB DUP2 ADD SWAP1 PUSH2 0x89B SWAP2 SWAP1 PUSH2 0x5CD5 JUMP JUMPDEST PUSH2 0x3D2A JUMP JUMPDEST STOP JUMPDEST PUSH2 0x8AA PUSH2 0x3F61 JUMP JUMPDEST PUSH1 0x40 MLOAD PUSH2 0x8B7 SWAP2 SWAP1 PUSH2 0x5D22 JUMP JUMPDEST PUSH1 0x40 MLOAD DUP1 SWAP2 SUB SWAP1 RETURN JUMPDEST PUSH20 0x0 PUSH4 0x83C1087D PUSH1 0x34 PUSH1 0x36 PUSH1 0x35 PUSH1 0x37 PUSH1 0x40 MLOAD DUP1 PUSH2 0x120 ADD PUSH1 0x40 MSTORE DUP1 PUSH1 0x3B PUSH1 0x8 SWAP1 SLOAD SWAP1 PUSH2 0x100 EXP SWAP1 DIV PUSH2 0xFFFF AND PUSH2 0xFFFF AND DUP2 MSTORE PUSH1 0x20 ADD DUP10 DUP2 MSTORE PUSH1 0x20 ADD DUP13 PUSH20 0xFFFFFFFFFFFFFFFFFFFFFFFFFFFFFFFFFFFFFFFF AND DUP2 MSTORE PUSH1 0x20 ADD DUP12 PUSH20 0xFFFFFFFFFFFFFFFFFFFFFFFFFFFFFFFFFFFFFFFF AND DUP2 MSTORE PUSH1 0x20 ADD DUP11 PUSH20 0xFFFFFFFFFFFFFFFFFFFFFFFFFFFFFFFFFFFFFFFF AND DUP2 MSTORE PUSH1 0x20 ADD DUP9 ISZERO ISZERO DUP2 MSTORE PUSH1 0x20 ADD PUSH32 0x0 PUSH20 0xFFFFFFFFFFFFFFFFFFFFFFFFFFFFFFFFFFFFFFFF AND PUSH4 0xFCA513A8 PUSH1 0x40 MLOAD DUP2 PUSH4 0xFFFFFFFF AND PUSH1 0xE0 SHL DUP2 MSTORE PUSH1 0x4 ADD PUSH1 0x20 PUSH1 0x40 MLOAD DUP1 DUP4 SUB DUP2 DUP7 GAS STATICCALL ISZERO DUP1 ISZERO PUSH2 0x9D3 JUMPI RETURNDATASIZE PUSH0 DUP1 RETURNDATACOPY RETURNDATASIZE PUSH0 REVERT JUMPDEST POP POP POP POP PUSH1 0x40 MLOAD RETURNDATASIZE PUSH1 0x1F NOT PUSH1 0x1F DUP3 ADD AND DUP3 ADD DUP1 PUSH1 0x40 MSTORE POP DUP2 ADD SWAP1 PUSH2 0x9F7 SWAP2 SWAP1 PUSH2 0x5D4F JUMP JUMPDEST PUSH20 0xFFFFFFFFFFFFFFFFFFFFFFFFFFFFFFFFFFFFFFFF AND DUP2 MSTORE PUSH1 0x20 ADD PUSH1 0x38 PUSH0 DUP13 PUSH20 0xFFFFFFFFFFFFFFFFFFFFFFFFFFFFFFFFFFFFFFFF AND PUSH20 0xFFFFFFFFFFFFFFFFFFFFFFFFFFFFFFFFFFFFFFFF AND DUP2 MSTORE PUSH1 0x20 ADD SWAP1 DUP2 MSTORE PUSH1 0x20 ADD PUSH0 KECCAK256 PUSH0 SWAP1 SLOAD SWAP1 PUSH2 0x100 EXP SWAP1 DIV PUSH1 0xFF AND PUSH1 0xFF AND DUP2 MSTORE PUSH1 0x20 ADD PUSH32 0x0 PUSH20 0xFFFFFFFFFFFFFFFFFFFFFFFFFFFFFFFFFFFFFFFF AND PUSH4 0x5EB88D3D PUSH1 0x40 MLOAD DUP2 PUSH4 0xFFFFFFFF AND PUSH1 0xE0 SHL DUP2 MSTORE PUSH1 0x4 ADD PUSH1 0x20 PUSH1 0x40 MLOAD DUP1 DUP4 SUB DUP2 DUP7 GAS STATICCALL ISZERO DUP1 ISZERO PUSH2 0xACD JUMPI RETURNDATASIZE PUSH0 DUP1 RETURNDATACOPY RETURNDATASIZE PUSH0 REVERT JUMPDEST POP POP POP POP PUSH1 0x40 MLOAD RETURNDATASIZE PUSH1 0x1F NOT PUSH1 0x1F DUP3 ADD AND DUP3 ADD DUP1 PUSH1 0x40 MSTORE POP DUP2 ADD SWAP1 PUSH2 0xAF1 SWAP2 SWAP1 PUSH2 0x5D4F JUMP JUMPDEST PUSH20 0xFFFFFFFFFFFFFFFFFFFFFFFFFFFFFFFFFFFFFFFF AND DUP2 MSTORE POP PUSH1 0x40 MLOAD DUP7 PUSH4 0xFFFFFFFF AND PUSH1 0xE0 SHL DUP2 MSTORE PUSH1 0x4 ADD PUSH2 0xB2A SWAP6 SWAP5 SWAP4 SWAP3 SWAP2 SWAP1 PUSH2 0x5E87 JUMP JUMPDEST PUSH0 PUSH1 0x40 MLOAD DUP1 DUP4 SUB DUP2 DUP7 DUP1 EXTCODESIZE ISZERO DUP1 ISZERO PUSH2 0xB40 JUMPI PUSH0 DUP1 REVERT JUMPDEST POP GAS DELEGATECALL ISZERO DUP1 ISZERO PUSH2 0xB52 JUMPI RETURNDATASIZE PUSH0 DUP1 RETURNDATACOPY RETURNDATASIZE PUSH0 REVERT JUMPDEST POP POP POP POP POP POP POP POP POP JUMP JUMPDEST PUSH1 0x1 DUP2 JUMP JUMPDEST DUP8 PUSH20 0xFFFFFFFFFFFFFFFFFFFFFFFFFFFFFFFFFFFFFFFF AND PUSH4 0xD505ACCF CALLER ADDRESS DUP11 DUP9 DUP9 DUP9 DUP9 PUSH1 0x40 MLOAD DUP9 PUSH4 0xFFFFFFFF AND PUSH1 0xE0 SHL DUP2 MSTORE PUSH1 0x4 ADD PUSH2 0xBA7 SWAP8 SWAP7 SWAP6 SWAP5 SWAP4 SWAP3 SWAP2 SWAP1 PUSH2 0x5EF7 JUMP JUMPDEST PUSH0 PUSH1 0x40 MLOAD DUP1 DUP4 SUB DUP2 PUSH0 DUP8 DUP1 EXTCODESIZE ISZERO DUP1 ISZERO PUSH2 0xBBE JUMPI PUSH0 DUP1 REVERT JUMPDEST POP GAS CALL ISZERO DUP1 ISZERO PUSH2 0xBD0 JUMPI RETURNDATASIZE PUSH0 DUP1 RETURNDATACOPY RETURNDATASIZE PUSH0 REVERT JUMPDEST POP POP POP POP PUSH20 0x0 PUSH4 0x1913F161 PUSH1 0x34 PUSH1 0x36 PUSH1 0x35 PUSH0 DUP12 PUSH20 0xFFFFFFFFFFFFFFFFFFFFFFFFFFFFFFFFFFFFFFFF AND PUSH20 0xFFFFFFFFFFFFFFFFFFFFFFFFFFFFFFFFFFFFFFFF AND DUP2 MSTORE PUSH1 0x20 ADD SWAP1 DUP2 MSTORE PUSH1 0x20 ADD PUSH0 KECCAK256 PUSH1 0x40 MLOAD DUP1 PUSH1 0x80 ADD PUSH1 0x40 MSTORE DUP1 DUP15 PUSH20 0xFFFFFFFFFFFFFFFFFFFFFFFFFFFFFFFFFFFFFFFF AND DUP2 MSTORE PUSH1 0x20 ADD DUP14 DUP2 MSTORE PUSH1 0x20 ADD DUP13 PUSH20 0xFFFFFFFFFFFFFFFFFFFFFFFFFFFFFFFFFFFFFFFF AND DUP2 MSTORE PUSH1 0x20 ADD DUP12 PUSH2 0xFFFF AND DUP2 MSTORE POP PUSH1 0x40 MLOAD DUP6 PUSH4 0xFFFFFFFF AND PUSH1 0xE0 SHL DUP2 MSTORE PUSH1 0x4 ADD PUSH2 0xC9F SWAP5 SWAP4 SWAP3 SWAP2 SWAP1 PUSH2 0x5FCD JUMP JUMPDEST PUSH0 PUSH1 0x40 MLOAD DUP1 DUP4 SUB DUP2 DUP7 DUP1 EXTCODESIZE ISZERO DUP1 ISZERO PUSH2 0xCB5 JUMPI PUSH0 DUP1 REVERT JUMPDEST POP GAS DELEGATECALL ISZERO DUP1 ISZERO PUSH2 0xCC7 JUMPI RETURNDATASIZE PUSH0 DUP1 RETURNDATACOPY RETURNDATASIZE PUSH0 REVERT JUMPDEST POP POP POP POP POP POP POP POP POP POP POP POP JUMP JUMPDEST PUSH32 0x0 DUP2 JUMP JUMPDEST PUSH0 PUSH1 0x3A PUSH0 SWAP1 SLOAD SWAP1 PUSH2 0x100 EXP SWAP1 DIV PUSH16 0xFFFFFFFFFFFFFFFFFFFFFFFFFFFFFFFF AND SWAP1 POP SWAP1 JUMP JUMPDEST PUSH2 0xD25 PUSH2 0x3F69 JUMP JUMPDEST PUSH0 PUSH20 0xFFFFFFFFFFFFFFFFFFFFFFFFFFFFFFFFFFFFFFFF AND DUP3 PUSH20 0xFFFFFFFFFFFFFFFFFFFFFFFFFFFFFFFFFFFFFFFF AND EQ ISZERO PUSH1 0x40 MLOAD DUP1 PUSH1 0x40 ADD PUSH1 0x40 MSTORE DUP1 PUSH1 0x2 DUP2 MSTORE PUSH1 0x20 ADD PUSH32 0x3737000000000000000000000000000000000000000000000000000000000000 DUP2 MSTORE POP SWAP1 PUSH2 0xDCC JUMPI PUSH1 0x40 MLOAD PUSH32 0x8C379A000000000000000000000000000000000000000000000000000000000 DUP2 MSTORE PUSH1 0x4 ADD PUSH2 0xDC3 SWAP2 SWAP1 PUSH2 0x6058 JUMP JUMPDEST PUSH1 0x40 MLOAD DUP1 SWAP2 SUB SWAP1 REVERT JUMPDEST POP PUSH0 PUSH1 0x34 PUSH0 DUP5 PUSH20 0xFFFFFFFFFFFFFFFFFFFFFFFFFFFFFFFFFFFFFFFF AND PUSH20 0xFFFFFFFFFFFFFFFFFFFFFFFFFFFFFFFFFFFFFFFF AND DUP2 MSTORE PUSH1 0x20 ADD SWAP1 DUP2 MSTORE PUSH1 0x20 ADD PUSH0 KECCAK256 PUSH1 0x3 ADD PUSH1 0x15 SWAP1 SLOAD SWAP1 PUSH2 0x100 EXP SWAP1 DIV PUSH2 0xFFFF AND PUSH2 0xFFFF AND EQ ISZERO DUP1 PUSH2 0xE89 JUMPI POP DUP2 PUSH20 0xFFFFFFFFFFFFFFFFFFFFFFFFFFFFFFFFFFFFFFFF AND PUSH1 0x36 PUSH0 DUP1 DUP2 MSTORE PUSH1 0x20 ADD SWAP1 DUP2 MSTORE PUSH1 0x20 ADD PUSH0 KECCAK256 PUSH0 SWAP1 SLOAD SWAP1 PUSH2 0x100 EXP SWAP1 DIV PUSH20 0xFFFFFFFFFFFFFFFFFFFFFFFFFFFFFFFFFFFFFFFF AND PUSH20 0xFFFFFFFFFFFFFFFFFFFFFFFFFFFFFFFFFFFFFFFF AND EQ JUMPDEST PUSH1 0x40 MLOAD DUP1 PUSH1 0x40 ADD PUSH1 0x40 MSTORE DUP1 PUSH1 0x2 DUP2 MSTORE PUSH1 0x20 ADD PUSH32 0x3832000000000000000000000000000000000000000000000000000000000000 DUP2 MSTORE POP SWAP1 PUSH2 0xF00 JUMPI PUSH1 0x40 MLOAD PUSH32 0x8C379A000000000000000000000000000000000000000000000000000000000 DUP2 MSTORE PUSH1 0x4 ADD PUSH2 0xEF7 SWAP2 SWAP1 PUSH2 0x6058 JUMP JUMPDEST PUSH1 0x40 MLOAD DUP1 SWAP2 SUB SWAP1 REVERT JUMPDEST POP DUP1 PUSH1 0x34 PUSH0 DUP5 PUSH20 0xFFFFFFFFFFFFFFFFFFFFFFFFFFFFFFFFFFFFFFFF AND PUSH20 0xFFFFFFFFFFFFFFFFFFFFFFFFFFFFFFFFFFFFFFFF AND DUP2 MSTORE PUSH1 0x20 ADD SWAP1 DUP2 MSTORE PUSH1 0x20 ADD PUSH0 KECCAK256 PUSH1 0x7 ADD PUSH0 PUSH2 0x100 EXP DUP2 SLOAD DUP2 PUSH20 0xFFFFFFFFFFFFFFFFFFFFFFFFFFFFFFFFFFFFFFFF MUL NOT AND SWAP1 DUP4 PUSH20 0xFFFFFFFFFFFFFFFFFFFFFFFFFFFFFFFFFFFFFFFF AND MUL OR SWAP1 SSTORE POP POP POP JUMP JUMPDEST PUSH0 PUSH1 0x39 SLOAD SWAP1 POP SWAP1 JUMP JUMPDEST PUSH20 0x0 PUSH4 0x5D5DC313 PUSH1 0x34 PUSH1 0x36 PUSH1 0x37 PUSH1 0x38 PUSH1 0x35 PUSH0 CALLER PUSH20 0xFFFFFFFFFFFFFFFFFFFFFFFFFFFFFFFFFFFFFFFF AND PUSH20 0xFFFFFFFFFFFFFFFFFFFFFFFFFFFFFFFFFFFFFFFF AND DUP2 MSTORE PUSH1 0x20 ADD SWAP1 DUP2 MSTORE PUSH1 0x20 ADD PUSH0 KECCAK256 PUSH1 0x40 MLOAD DUP1 PUSH1 0x60 ADD PUSH1 0x40 MSTORE DUP1 PUSH1 0x3B PUSH1 0x8 SWAP1 SLOAD SWAP1 PUSH2 0x100 EXP SWAP1 DIV PUSH2 0xFFFF AND PUSH2 0xFFFF AND DUP2 MSTORE PUSH1 0x20 ADD PUSH32 0x0 PUSH20 0xFFFFFFFFFFFFFFFFFFFFFFFFFFFFFFFFFFFFFFFF AND PUSH4 0xFCA513A8 PUSH1 0x40 MLOAD DUP2 PUSH4 0xFFFFFFFF AND PUSH1 0xE0 SHL DUP2 MSTORE PUSH1 0x4 ADD PUSH1 0x20 PUSH1 0x40 MLOAD DUP1 DUP4 SUB DUP2 DUP7 GAS STATICCALL ISZERO DUP1 ISZERO PUSH2 0x1079 JUMPI RETURNDATASIZE PUSH0 DUP1 RETURNDATACOPY RETURNDATASIZE PUSH0 REVERT JUMPDEST POP POP POP POP PUSH1 0x40 MLOAD RETURNDATASIZE PUSH1 0x1F NOT PUSH1 0x1F DUP3 ADD AND DUP3 ADD DUP1 PUSH1 0x40 MSTORE POP DUP2 ADD SWAP1 PUSH2 0x109D SWAP2 SWAP1 PUSH2 0x5D4F JUMP JUMPDEST PUSH20 0xFFFFFFFFFFFFFFFFFFFFFFFFFFFFFFFFFFFFFFFF AND DUP2 MSTORE PUSH1 0x20 ADD DUP10 PUSH1 0xFF AND DUP2 MSTORE POP PUSH1 0x40 MLOAD DUP8 PUSH4 0xFFFFFFFF AND PUSH1 0xE0 SHL DUP2 MSTORE PUSH1 0x4 ADD PUSH2 0x10E0 SWAP7 SWAP6 SWAP5 SWAP4 SWAP3 SWAP2 SWAP1 PUSH2 0x60BF JUMP JUMPDEST PUSH0 PUSH1 0x40 MLOAD DUP1 DUP4 SUB DUP2 DUP7 DUP1 EXTCODESIZE ISZERO DUP1 ISZERO PUSH2 0x10F6 JUMPI PUSH0 DUP1 REVERT JUMPDEST POP GAS DELEGATECALL ISZERO DUP1 ISZERO PUSH2 0x1108 JUMPI RETURNDATASIZE PUSH0 DUP1 RETURNDATACOPY RETURNDATASIZE PUSH0 REVERT JUMPDEST POP POP POP POP POP JUMP JUMPDEST PUSH0 PUSH20 0x0 PUSH4 0x40E95DE6 PUSH1 0x34 PUSH1 0x36 PUSH1 0x35 PUSH0 CALLER PUSH20 0xFFFFFFFFFFFFFFFFFFFFFFFFFFFFFFFFFFFFFFFF AND PUSH20 0xFFFFFFFFFFFFFFFFFFFFFFFFFFFFFFFFFFFFFFFF AND DUP2 MSTORE PUSH1 0x20 ADD SWAP1 DUP2 MSTORE PUSH1 0x20 ADD PUSH0 KECCAK256 PUSH1 0x40 MLOAD DUP1 PUSH1 0xA0 ADD PUSH1 0x40 MSTORE DUP1 DUP11 PUSH20 0xFFFFFFFFFFFFFFFFFFFFFFFFFFFFFFFFFFFFFFFF AND DUP2 MSTORE PUSH1 0x20 ADD DUP10 DUP2 MSTORE PUSH1 0x20 ADD DUP9 PUSH1 0x2 DUP2 GT ISZERO PUSH2 0x11AB JUMPI PUSH2 0x11AA PUSH2 0x611F JUMP JUMPDEST JUMPDEST PUSH1 0x2 DUP2 GT ISZERO PUSH2 0x11BD JUMPI PUSH2 0x11BC PUSH2 0x611F JUMP JUMPDEST JUMPDEST DUP2 MSTORE PUSH1 0x20 ADD CALLER PUSH20 0xFFFFFFFFFFFFFFFFFFFFFFFFFFFFFFFFFFFFFFFF AND DUP2 MSTORE PUSH1 0x20 ADD PUSH1 0x1 ISZERO ISZERO DUP2 MSTORE POP PUSH1 0x40 MLOAD DUP6 PUSH4 0xFFFFFFFF AND PUSH1 0xE0 SHL DUP2 MSTORE PUSH1 0x4 ADD PUSH2 0x1204 SWAP5 SWAP4 SWAP3 SWAP2 SWAP1 PUSH2 0x61F8 JUMP JUMPDEST PUSH1 0x20 PUSH1 0x40 MLOAD DUP1 DUP4 SUB DUP2 DUP7 GAS DELEGATECALL ISZERO DUP1 ISZERO PUSH2 0x121F JUMPI RETURNDATASIZE PUSH0 DUP1 RETURNDATACOPY RETURNDATASIZE PUSH0 REVERT JUMPDEST POP POP POP POP PUSH1 0x40 MLOAD RETURNDATASIZE PUSH1 0x1F NOT PUSH1 0x1F DUP3 ADD AND DUP3 ADD DUP1 PUSH1 0x40 MSTORE POP DUP2 ADD SWAP1 PUSH2 0x1243 SWAP2 SWAP1 PUSH2 0x6250 JUMP JUMPDEST SWAP1 POP SWAP4 SWAP3 POP POP POP JUMP JUMPDEST PUSH2 0x1254 PUSH2 0x3F69 JUMP JUMPDEST DUP1 PUSH1 0x39 DUP2 SWAP1 SSTORE POP POP JUMP JUMPDEST PUSH2 0x1266 PUSH2 0x47A1 JUMP JUMPDEST PUSH1 0x34 PUSH0 DUP4 PUSH20 0xFFFFFFFFFFFFFFFFFFFFFFFFFFFFFFFFFFFFFFFF AND PUSH20 0xFFFFFFFFFFFFFFFFFFFFFFFFFFFFFFFFFFFFFFFF AND DUP2 MSTORE PUSH1 0x20 ADD SWAP1 DUP2 MSTORE PUSH1 0x20 ADD PUSH0 KECCAK256 PUSH1 0x40 MLOAD DUP1 PUSH2 0x1E0 ADD PUSH1 0x40 MSTORE SWAP1 DUP2 PUSH0 DUP3 ADD PUSH1 0x40 MLOAD DUP1 PUSH1 0x20 ADD PUSH1 0x40 MSTORE SWAP1 DUP2 PUSH0 DUP3 ADD SLOAD DUP2 MSTORE POP POP DUP2 MSTORE PUSH1 0x20 ADD PUSH1 0x1 DUP3 ADD PUSH0 SWAP1 SLOAD SWAP1 PUSH2 0x100 EXP SWAP1 DIV PUSH16 0xFFFFFFFFFFFFFFFFFFFFFFFFFFFFFFFF AND PUSH16 0xFFFFFFFFFFFFFFFFFFFFFFFFFFFFFFFF AND PUSH16 0xFFFFFFFFFFFFFFFFFFFFFFFFFFFFFFFF AND DUP2 MSTORE PUSH1 0x20 ADD PUSH1 0x1 DUP3 ADD PUSH1 0x10 SWAP1 SLOAD SWAP1 PUSH2 0x100 EXP SWAP1 DIV PUSH16 0xFFFFFFFFFFFFFFFFFFFFFFFFFFFFFFFF AND PUSH16 0xFFFFFFFFFFFFFFFFFFFFFFFFFFFFFFFF AND PUSH16 0xFFFFFFFFFFFFFFFFFFFFFFFFFFFFFFFF AND DUP2 MSTORE PUSH1 0x20 ADD PUSH1 0x2 DUP3 ADD PUSH0 SWAP1 SLOAD SWAP1 PUSH2 0x100 EXP SWAP1 DIV PUSH16 0xFFFFFFFFFFFFFFFFFFFFFFFFFFFFFFFF AND PUSH16 0xFFFFFFFFFFFFFFFFFFFFFFFFFFFFFFFF AND PUSH16 0xFFFFFFFFFFFFFFFFFFFFFFFFFFFFFFFF AND DUP2 MSTORE PUSH1 0x20 ADD PUSH1 0x2 DUP3 ADD PUSH1 0x10 SWAP1 SLOAD SWAP1 PUSH2 0x100 EXP SWAP1 DIV PUSH16 0xFFFFFFFFFFFFFFFFFFFFFFFFFFFFFFFF AND PUSH16 0xFFFFFFFFFFFFFFFFFFFFFFFFFFFFFFFF AND PUSH16 0xFFFFFFFFFFFFFFFFFFFFFFFFFFFFFFFF AND DUP2 MSTORE PUSH1 0x20 ADD PUSH1 0x3 DUP3 ADD PUSH0 SWAP1 SLOAD SWAP1 PUSH2 0x100 EXP SWAP1 DIV PUSH16 0xFFFFFFFFFFFFFFFFFFFFFFFFFFFFFFFF AND PUSH16 0xFFFFFFFFFFFFFFFFFFFFFFFFFFFFFFFF AND PUSH16 0xFFFFFFFFFFFFFFFFFFFFFFFFFFFFFFFF AND DUP2 MSTORE PUSH1 0x20 ADD PUSH1 0x3 DUP3 ADD PUSH1 0x10 SWAP1 SLOAD SWAP1 PUSH2 0x100 EXP SWAP1 DIV PUSH5 0xFFFFFFFFFF AND PUSH5 0xFFFFFFFFFF AND PUSH5 0xFFFFFFFFFF AND DUP2 MSTORE PUSH1 0x20 ADD PUSH1 0x3 DUP3 ADD PUSH1 0x15 SWAP1 SLOAD SWAP1 PUSH2 0x100 EXP SWAP1 DIV PUSH2 0xFFFF AND PUSH2 0xFFFF AND PUSH2 0xFFFF AND DUP2 MSTORE PUSH1 0x20 ADD PUSH1 0x4 DUP3 ADD PUSH0 SWAP1 SLOAD SWAP1 PUSH2 0x100 EXP SWAP1 DIV PUSH20 0xFFFFFFFFFFFFFFFFFFFFFFFFFFFFFFFFFFFFFFFF AND PUSH20 0xFFFFFFFFFFFFFFFFFFFFFFFFFFFFFFFFFFFFFFFF AND PUSH20 0xFFFFFFFFFFFFFFFFFFFFFFFFFFFFFFFFFFFFFFFF AND DUP2 MSTORE PUSH1 0x20 ADD PUSH1 0x5 DUP3 ADD PUSH0 SWAP1 SLOAD SWAP1 PUSH2 0x100 EXP SWAP1 DIV PUSH20 0xFFFFFFFFFFFFFFFFFFFFFFFFFFFFFFFFFFFFFFFF AND PUSH20 0xFFFFFFFFFFFFFFFFFFFFFFFFFFFFFFFFFFFFFFFF AND PUSH20 0xFFFFFFFFFFFFFFFFFFFFFFFFFFFFFFFFFFFFFFFF AND DUP2 MSTORE PUSH1 0x20 ADD PUSH1 0x6 DUP3 ADD PUSH0 SWAP1 SLOAD SWAP1 PUSH2 0x100 EXP SWAP1 DIV PUSH20 0xFFFFFFFFFFFFFFFFFFFFFFFFFFFFFFFFFFFFFFFF AND PUSH20 0xFFFFFFFFFFFFFFFFFFFFFFFFFFFFFFFFFFFFFFFF AND PUSH20 0xFFFFFFFFFFFFFFFFFFFFFFFFFFFFFFFFFFFFFFFF AND DUP2 MSTORE PUSH1 0x20 ADD PUSH1 0x7 DUP3 ADD PUSH0 SWAP1 SLOAD SWAP1 PUSH2 0x100 EXP SWAP1 DIV PUSH20 0xFFFFFFFFFFFFFFFFFFFFFFFFFFFFFFFFFFFFFFFF AND PUSH20 0xFFFFFFFFFFFFFFFFFFFFFFFFFFFFFFFFFFFFFFFF AND PUSH20 0xFFFFFFFFFFFFFFFFFFFFFFFFFFFFFFFFFFFFFFFF AND DUP2 MSTORE PUSH1 0x20 ADD PUSH1 0x8 DUP3 ADD PUSH0 SWAP1 SLOAD SWAP1 PUSH2 0x100 EXP SWAP1 DIV PUSH16 0xFFFFFFFFFFFFFFFFFFFFFFFFFFFFFFFF AND PUSH16 0xFFFFFFFFFFFFFFFFFFFFFFFFFFFFFFFF AND PUSH16 0xFFFFFFFFFFFFFFFFFFFFFFFFFFFFFFFF AND DUP2 MSTORE PUSH1 0x20 ADD PUSH1 0x8 DUP3 ADD PUSH1 0x10 SWAP1 SLOAD SWAP1 PUSH2 0x100 EXP SWAP1 DIV PUSH16 0xFFFFFFFFFFFFFFFFFFFFFFFFFFFFFFFF AND PUSH16 0xFFFFFFFFFFFFFFFFFFFFFFFFFFFFFFFF AND PUSH16 0xFFFFFFFFFFFFFFFFFFFFFFFFFFFFFFFF AND DUP2 MSTORE PUSH1 0x20 ADD PUSH1 0x9 DUP3 ADD PUSH0 SWAP1 SLOAD SWAP1 PUSH2 0x100 EXP SWAP1 DIV PUSH16 0xFFFFFFFFFFFFFFFFFFFFFFFFFFFFFFFF AND PUSH16 0xFFFFFFFFFFFFFFFFFFFFFFFFFFFFFFFF AND PUSH16 0xFFFFFFFFFFFFFFFFFFFFFFFFFFFFFFFF AND DUP2 MSTORE POP POP SWAP1 POP SWAP2 SWAP1 POP JUMP JUMPDEST PUSH0 PUSH2 0x1700 PUSH1 0x34 PUSH0 DUP5 PUSH20 0xFFFFFFFFFFFFFFFFFFFFFFFFFFFFFFFFFFFFFFFF AND PUSH20 0xFFFFFFFFFFFFFFFFFFFFFFFFFFFFFFFFFFFFFFFF AND DUP2 MSTORE PUSH1 0x20 ADD SWAP1 DUP2 MSTORE PUSH1 0x20 ADD PUSH0 KECCAK256 PUSH2 0x409E JUMP JUMPDEST SWAP1 POP SWAP2 SWAP1 POP JUMP JUMPDEST PUSH0 PUSH1 0x40 MLOAD DUP1 PUSH1 0xE0 ADD PUSH1 0x40 MSTORE DUP1 DUP9 PUSH20 0xFFFFFFFFFFFFFFFFFFFFFFFFFFFFFFFFFFFFFFFF AND DUP2 MSTORE PUSH1 0x20 ADD DUP8 PUSH20 0xFFFFFFFFFFFFFFFFFFFFFFFFFFFFFFFFFFFFFFFF AND DUP2 MSTORE PUSH1 0x20 ADD DUP7 DUP2 MSTORE PUSH1 0x20 ADD DUP6 DUP6 DUP1 DUP1 PUSH1 0x1F ADD PUSH1 0x20 DUP1 SWAP2 DIV MUL PUSH1 0x20 ADD PUSH1 0x40 MLOAD SWAP1 DUP2 ADD PUSH1 0x40 MSTORE DUP1 SWAP4 SWAP3 SWAP2 SWAP1 DUP2 DUP2 MSTORE PUSH1 0x20 ADD DUP4 DUP4 DUP1 DUP3 DUP5 CALLDATACOPY PUSH0 DUP2 DUP5 ADD MSTORE PUSH1 0x1F NOT PUSH1 0x1F DUP3 ADD AND SWAP1 POP DUP1 DUP4 ADD SWAP3 POP POP POP POP POP POP POP DUP2 MSTORE PUSH1 0x20 ADD DUP4 PUSH2 0xFFFF AND DUP2 MSTORE PUSH1 0x20 ADD PUSH1 0x3A PUSH1 0x10 SWAP1 SLOAD SWAP1 PUSH2 0x100 EXP SWAP1 DIV PUSH16 0xFFFFFFFFFFFFFFFFFFFFFFFFFFFFFFFF AND PUSH16 0xFFFFFFFFFFFFFFFFFFFFFFFFFFFFFFFF AND DUP2 MSTORE PUSH1 0x20 ADD PUSH1 0x3A PUSH0 SWAP1 SLOAD SWAP1 PUSH2 0x100 EXP SWAP1 DIV PUSH16 0xFFFFFFFFFFFFFFFFFFFFFFFFFFFFFFFF AND PUSH16 0xFFFFFFFFFFFFFFFFFFFFFFFFFFFFFFFF AND DUP2 MSTORE POP SWAP1 POP PUSH20 0x0 PUSH4 0xA1FE0E8D PUSH1 0x34 PUSH0 DUP10 PUSH20 0xFFFFFFFFFFFFFFFFFFFFFFFFFFFFFFFFFFFFFFFF AND PUSH20 0xFFFFFFFFFFFFFFFFFFFFFFFFFFFFFFFFFFFFFFFF AND DUP2 MSTORE PUSH1 0x20 ADD SWAP1 DUP2 MSTORE PUSH1 0x20 ADD PUSH0 KECCAK256 DUP4 PUSH1 0x40 MLOAD DUP4 PUSH4 0xFFFFFFFF AND PUSH1 0xE0 SHL DUP2 MSTORE PUSH1 0x4 ADD PUSH2 0x1884 SWAP3 SWAP2 SWAP1 PUSH2 0x636D JUMP JUMPDEST PUSH0 PUSH1 0x40 MLOAD DUP1 DUP4 SUB DUP2 DUP7 DUP1 EXTCODESIZE ISZERO DUP1 ISZERO PUSH2 0x189A JUMPI PUSH0 DUP1 REVERT JUMPDEST POP GAS DELEGATECALL ISZERO DUP1 ISZERO PUSH2 0x18AC JUMPI RETURNDATASIZE PUSH0 DUP1 RETURNDATACOPY RETURNDATASIZE PUSH0 REVERT JUMPDEST POP POP POP POP POP POP POP POP POP POP POP JUMP JUMPDEST PUSH2 0x18C1 PUSH2 0x4902 JUMP JUMPDEST PUSH1 0x35 PUSH0 DUP4 PUSH20 0xFFFFFFFFFFFFFFFFFFFFFFFFFFFFFFFFFFFFFFFF AND PUSH20 0xFFFFFFFFFFFFFFFFFFFFFFFFFFFFFFFFFFFFFFFF AND DUP2 MSTORE PUSH1 0x20 ADD SWAP1 DUP2 MSTORE PUSH1 0x20 ADD PUSH0 KECCAK256 PUSH1 0x40 MLOAD DUP1 PUSH1 0x20 ADD PUSH1 0x40 MSTORE SWAP1 DUP2 PUSH0 DUP3 ADD SLOAD DUP2 MSTORE POP POP SWAP1 POP SWAP2 SWAP1 POP JUMP JUMPDEST PUSH0 PUSH1 0x36 PUSH0 DUP4 PUSH2 0xFFFF AND DUP2 MSTORE PUSH1 0x20 ADD SWAP1 DUP2 MSTORE PUSH1 0x20 ADD PUSH0 KECCAK256 PUSH0 SWAP1 SLOAD SWAP1 PUSH2 0x100 EXP SWAP1 DIV PUSH20 0xFFFFFFFFFFFFFFFFFFFFFFFFFFFFFFFFFFFFFFFF AND SWAP1 POP SWAP2 SWAP1 POP JUMP JUMPDEST PUSH0 PUSH20 0x0 PUSH4 0x40E95DE6 PUSH1 0x34 PUSH1 0x36 PUSH1 0x35 PUSH0 DUP8 PUSH20 0xFFFFFFFFFFFFFFFFFFFFFFFFFFFFFFFFFFFFFFFF AND PUSH20 0xFFFFFFFFFFFFFFFFFFFFFFFFFFFFFFFFFFFFFFFF AND DUP2 MSTORE PUSH1 0x20 ADD SWAP1 DUP2 MSTORE PUSH1 0x20 ADD PUSH0 KECCAK256 PUSH1 0x40 MLOAD DUP1 PUSH1 0xA0 ADD PUSH1 0x40 MSTORE DUP1 DUP12 PUSH20 0xFFFFFFFFFFFFFFFFFFFFFFFFFFFFFFFFFFFFFFFF AND DUP2 MSTORE PUSH1 0x20 ADD DUP11 DUP2 MSTORE PUSH1 0x20 ADD DUP10 PUSH1 0x2 DUP2 GT ISZERO PUSH2 0x19F2 JUMPI PUSH2 0x19F1 PUSH2 0x611F JUMP JUMPDEST JUMPDEST PUSH1 0x2 DUP2 GT ISZERO PUSH2 0x1A04 JUMPI PUSH2 0x1A03 PUSH2 0x611F JUMP JUMPDEST JUMPDEST DUP2 MSTORE PUSH1 0x20 ADD DUP9 PUSH20 0xFFFFFFFFFFFFFFFFFFFFFFFFFFFFFFFFFFFFFFFF AND DUP2 MSTORE PUSH1 0x20 ADD PUSH0 ISZERO ISZERO DUP2 MSTORE POP PUSH1 0x40 MLOAD DUP6 PUSH4 0xFFFFFFFF AND PUSH1 0xE0 SHL DUP2 MSTORE PUSH1 0x4 ADD PUSH2 0x1A4A SWAP5 SWAP4 SWAP3 SWAP2 SWAP1 PUSH2 0x61F8 JUMP JUMPDEST PUSH1 0x20 PUSH1 0x40 MLOAD DUP1 DUP4 SUB DUP2 DUP7 GAS DELEGATECALL ISZERO DUP1 ISZERO PUSH2 0x1A65 JUMPI RETURNDATASIZE PUSH0 DUP1 RETURNDATACOPY RETURNDATASIZE PUSH0 REVERT JUMPDEST POP POP POP POP PUSH1 0x40 MLOAD RETURNDATASIZE PUSH1 0x1F NOT PUSH1 0x1F DUP3 ADD AND DUP3 ADD DUP1 PUSH1 0x40 MSTORE POP DUP2 ADD SWAP1 PUSH2 0x1A89 SWAP2 SWAP1 PUSH2 0x6250 JUMP JUMPDEST SWAP1 POP SWAP5 SWAP4 POP POP POP POP JUMP JUMPDEST PUSH20 0x0 PUSH4 0xBF697A26 PUSH1 0x34 PUSH1 0x36 PUSH1 0x37 PUSH1 0x35 PUSH0 CALLER PUSH20 0xFFFFFFFFFFFFFFFFFFFFFFFFFFFFFFFFFFFFFFFF AND PUSH20 0xFFFFFFFFFFFFFFFFFFFFFFFFFFFFFFFFFFFFFFFF AND DUP2 MSTORE PUSH1 0x20 ADD SWAP1 DUP2 MSTORE PUSH1 0x20 ADD PUSH0 KECCAK256 DUP8 DUP8 PUSH1 0x3B PUSH1 0x8 SWAP1 SLOAD SWAP1 PUSH2 0x100 EXP SWAP1 DIV PUSH2 0xFFFF AND PUSH32 0x0 PUSH20 0xFFFFFFFFFFFFFFFFFFFFFFFFFFFFFFFFFFFFFFFF AND PUSH4 0xFCA513A8 PUSH1 0x40 MLOAD DUP2 PUSH4 0xFFFFFFFF AND PUSH1 0xE0 SHL DUP2 MSTORE PUSH1 0x4 ADD PUSH1 0x20 PUSH1 0x40 MLOAD DUP1 DUP4 SUB DUP2 DUP7 GAS STATICCALL ISZERO DUP1 ISZERO PUSH2 0x1B6C JUMPI RETURNDATASIZE PUSH0 DUP1 RETURNDATACOPY RETURNDATASIZE PUSH0 REVERT JUMPDEST POP POP POP POP PUSH1 0x40 MLOAD RETURNDATASIZE PUSH1 0x1F NOT PUSH1 0x1F DUP3 ADD AND DUP3 ADD DUP1 PUSH1 0x40 MSTORE POP DUP2 ADD SWAP1 PUSH2 0x1B90 SWAP2 SWAP1 PUSH2 0x5D4F JUMP JUMPDEST PUSH1 0x38 PUSH0 CALLER PUSH20 0xFFFFFFFFFFFFFFFFFFFFFFFFFFFFFFFFFFFFFFFF AND PUSH20 0xFFFFFFFFFFFFFFFFFFFFFFFFFFFFFFFFFFFFFFFF AND DUP2 MSTORE PUSH1 0x20 ADD SWAP1 DUP2 MSTORE PUSH1 0x20 ADD PUSH0 KECCAK256 PUSH0 SWAP1 SLOAD SWAP1 PUSH2 0x100 EXP SWAP1 DIV PUSH1 0xFF AND PUSH1 0x40 MLOAD DUP11 PUSH4 0xFFFFFFFF AND PUSH1 0xE0 SHL DUP2 MSTORE PUSH1 0x4 ADD PUSH2 0x1BFE SWAP10 SWAP9 SWAP8 SWAP7 SWAP6 SWAP5 SWAP4 SWAP3 SWAP2 SWAP1 PUSH2 0x63F8 JUMP JUMPDEST PUSH0 PUSH1 0x40 MLOAD DUP1 DUP4 SUB DUP2 DUP7 DUP1 EXTCODESIZE ISZERO DUP1 ISZERO PUSH2 0x1C14 JUMPI PUSH0 DUP1 REVERT JUMPDEST POP GAS DELEGATECALL ISZERO DUP1 ISZERO PUSH2 0x1C26 JUMPI RETURNDATASIZE PUSH0 DUP1 RETURNDATACOPY RETURNDATASIZE PUSH0 REVERT JUMPDEST POP POP POP POP POP POP JUMP JUMPDEST PUSH20 0x0 PUSH4 0x1913F161 PUSH1 0x34 PUSH1 0x36 PUSH1 0x35 PUSH0 DUP8 PUSH20 0xFFFFFFFFFFFFFFFFFFFFFFFFFFFFFFFFFFFFFFFF AND PUSH20 0xFFFFFFFFFFFFFFFFFFFFFFFFFFFFFFFFFFFFFFFF AND DUP2 MSTORE PUSH1 0x20 ADD SWAP1 DUP2 MSTORE PUSH1 0x20 ADD PUSH0 KECCAK256 PUSH1 0x40 MLOAD DUP1 PUSH1 0x80 ADD PUSH1 0x40 MSTORE DUP1 DUP11 PUSH20 0xFFFFFFFFFFFFFFFFFFFFFFFFFFFFFFFFFFFFFFFF AND DUP2 MSTORE PUSH1 0x20 ADD DUP10 DUP2 MSTORE PUSH1 0x20 ADD DUP9 PUSH20 0xFFFFFFFFFFFFFFFFFFFFFFFFFFFFFFFFFFFFFFFF AND DUP2 MSTORE PUSH1 0x20 ADD DUP8 PUSH2 0xFFFF AND DUP2 MSTORE POP PUSH1 0x40 MLOAD DUP6 PUSH4 0xFFFFFFFF AND PUSH1 0xE0 SHL DUP2 MSTORE PUSH1 0x4 ADD PUSH2 0x1CF9 SWAP5 SWAP4 SWAP3 SWAP2 SWAP1 PUSH2 0x5FCD JUMP JUMPDEST PUSH0 PUSH1 0x40 MLOAD DUP1 DUP4 SUB DUP2 DUP7 DUP1 EXTCODESIZE ISZERO DUP1 ISZERO PUSH2 0x1D0F JUMPI PUSH0 DUP1 REVERT JUMPDEST POP GAS DELEGATECALL ISZERO DUP1 ISZERO PUSH2 0x1D21 JUMPI RETURNDATASIZE PUSH0 DUP1 RETURNDATACOPY RETURNDATASIZE PUSH0 REVERT JUMPDEST POP POP POP POP POP POP POP POP JUMP JUMPDEST PUSH2 0x1D33 PUSH2 0x3F69 JUMP JUMPDEST PUSH20 0x0 PUSH4 0x9CF57023 PUSH1 0x34 PUSH1 0x36 DUP5 PUSH1 0x40 MLOAD DUP5 PUSH4 0xFFFFFFFF AND PUSH1 0xE0 SHL DUP2 MSTORE PUSH1 0x4 ADD PUSH2 0x1D70 SWAP4 SWAP3 SWAP2 SWAP1 PUSH2 0x6483 JUMP JUMPDEST PUSH0 PUSH1 0x40 MLOAD DUP1 DUP4 SUB DUP2 DUP7 DUP1 EXTCODESIZE ISZERO DUP1 ISZERO PUSH2 0x1D86 JUMPI PUSH0 DUP1 REVERT JUMPDEST POP GAS DELEGATECALL ISZERO DUP1 ISZERO PUSH2 0x1D98 JUMPI RETURNDATASIZE PUSH0 DUP1 RETURNDATACOPY RETURNDATASIZE PUSH0 REVERT JUMPDEST POP POP POP POP POP JUMP JUMPDEST PUSH0 PUSH20 0x0 PUSH4 0x186DEA44 PUSH1 0x34 PUSH1 0x36 PUSH1 0x37 PUSH1 0x35 PUSH0 CALLER PUSH20 0xFFFFFFFFFFFFFFFFFFFFFFFFFFFFFFFFFFFFFFFF AND PUSH20 0xFFFFFFFFFFFFFFFFFFFFFFFFFFFFFFFFFFFFFFFF AND DUP2 MSTORE PUSH1 0x20 ADD SWAP1 DUP2 MSTORE PUSH1 0x20 ADD PUSH0 KECCAK256 PUSH1 0x40 MLOAD DUP1 PUSH1 0xC0 ADD PUSH1 0x40 MSTORE DUP1 DUP12 PUSH20 0xFFFFFFFFFFFFFFFFFFFFFFFFFFFFFFFFFFFFFFFF AND DUP2 MSTORE PUSH1 0x20 ADD DUP11 DUP2 MSTORE PUSH1 0x20 ADD DUP10 PUSH20 0xFFFFFFFFFFFFFFFFFFFFFFFFFFFFFFFFFFFFFFFF AND DUP2 MSTORE PUSH1 0x20 ADD PUSH1 0x3B PUSH1 0x8 SWAP1 SLOAD SWAP1 PUSH2 0x100 EXP SWAP1 DIV PUSH2 0xFFFF AND PUSH2 0xFFFF AND DUP2 MSTORE PUSH1 0x20 ADD PUSH32 0x0 PUSH20 0xFFFFFFFFFFFFFFFFFFFFFFFFFFFFFFFFFFFFFFFF AND PUSH4 0xFCA513A8 PUSH1 0x40 MLOAD DUP2 PUSH4 0xFFFFFFFF AND PUSH1 0xE0 SHL DUP2 MSTORE PUSH1 0x4 ADD PUSH1 0x20 PUSH1 0x40 MLOAD DUP1 DUP4 SUB DUP2 DUP7 GAS STATICCALL ISZERO DUP1 ISZERO PUSH2 0x1EC9 JUMPI RETURNDATASIZE PUSH0 DUP1 RETURNDATACOPY RETURNDATASIZE PUSH0 REVERT JUMPDEST POP POP POP POP PUSH1 0x40 MLOAD RETURNDATASIZE PUSH1 0x1F NOT PUSH1 0x1F DUP3 ADD AND DUP3 ADD DUP1 PUSH1 0x40 MSTORE POP DUP2 ADD SWAP1 PUSH2 0x1EED SWAP2 SWAP1 PUSH2 0x5D4F JUMP JUMPDEST PUSH20 0xFFFFFFFFFFFFFFFFFFFFFFFFFFFFFFFFFFFFFFFF AND DUP2 MSTORE PUSH1 0x20 ADD PUSH1 0x38 PUSH0 CALLER PUSH20 0xFFFFFFFFFFFFFFFFFFFFFFFFFFFFFFFFFFFFFFFF AND PUSH20 0xFFFFFFFFFFFFFFFFFFFFFFFFFFFFFFFFFFFFFFFF AND DUP2 MSTORE PUSH1 0x20 ADD SWAP1 DUP2 MSTORE PUSH1 0x20 ADD PUSH0 KECCAK256 PUSH0 SWAP1 SLOAD SWAP1 PUSH2 0x100 EXP SWAP1 DIV PUSH1 0xFF AND PUSH1 0xFF AND DUP2 MSTORE POP PUSH1 0x40 MLOAD DUP7 PUSH4 0xFFFFFFFF AND PUSH1 0xE0 SHL DUP2 MSTORE PUSH1 0x4 ADD PUSH2 0x1F78 SWAP6 SWAP5 SWAP4 SWAP3 SWAP2 SWAP1 PUSH2 0x6531 JUMP JUMPDEST PUSH1 0x20 PUSH1 0x40 MLOAD DUP1 DUP4 SUB DUP2 DUP7 GAS DELEGATECALL ISZERO DUP1 ISZERO PUSH2 0x1F93 JUMPI RETURNDATASIZE PUSH0 DUP1 RETURNDATACOPY RETURNDATASIZE PUSH0 REVERT JUMPDEST POP POP POP POP PUSH1 0x40 MLOAD RETURNDATASIZE PUSH1 0x1F NOT PUSH1 0x1F DUP3 ADD AND DUP3 ADD DUP1 PUSH1 0x40 MSTORE POP DUP2 ADD SWAP1 PUSH2 0x1FB7 SWAP2 SWAP1 PUSH2 0x6250 JUMP JUMPDEST SWAP1 POP SWAP4 SWAP3 POP POP POP JUMP JUMPDEST PUSH2 0x1FC8 PUSH2 0x4188 JUMP JUMPDEST PUSH20 0x0 PUSH4 0x413C86F PUSH1 0x34 PUSH1 0x36 PUSH1 0x35 PUSH0 DUP8 PUSH20 0xFFFFFFFFFFFFFFFFFFFFFFFFFFFFFFFFFFFFFFFF AND PUSH20 0xFFFFFFFFFFFFFFFFFFFFFFFFFFFFFFFFFFFFFFFF AND DUP2 MSTORE PUSH1 0x20 ADD SWAP1 DUP2 MSTORE PUSH1 0x20 ADD PUSH0 KECCAK256 DUP9 DUP9 DUP9 DUP9 PUSH1 0x40 MLOAD DUP9 PUSH4 0xFFFFFFFF AND PUSH1 0xE0 SHL DUP2 MSTORE PUSH1 0x4 ADD PUSH2 0x2049 SWAP8 SWAP7 SWAP6 SWAP5 SWAP4 SWAP3 SWAP2 SWAP1 PUSH2 0x65A1 JUMP JUMPDEST PUSH0 PUSH1 0x40 MLOAD DUP1 DUP4 SUB DUP2 DUP7 DUP1 EXTCODESIZE ISZERO DUP1 ISZERO PUSH2 0x205F JUMPI PUSH0 DUP1 REVERT JUMPDEST POP GAS DELEGATECALL ISZERO DUP1 ISZERO PUSH2 0x2071 JUMPI RETURNDATASIZE PUSH0 DUP1 RETURNDATACOPY RETURNDATASIZE PUSH0 REVERT JUMPDEST POP POP POP POP POP POP POP POP JUMP JUMPDEST PUSH0 PUSH1 0x3A PUSH1 0x10 SWAP1 SLOAD SWAP1 PUSH2 0x100 EXP SWAP1 DIV PUSH16 0xFFFFFFFFFFFFFFFFFFFFFFFFFFFFFFFF AND SWAP1 POP SWAP1 JUMP JUMPDEST PUSH2 0x20A8 PUSH2 0x4914 JUMP JUMPDEST PUSH1 0x37 PUSH0 DUP4 PUSH1 0xFF AND PUSH1 0xFF AND DUP2 MSTORE PUSH1 0x20 ADD SWAP1 DUP2 MSTORE PUSH1 0x20 ADD PUSH0 KECCAK256 PUSH1 0x40 MLOAD DUP1 PUSH1 0xA0 ADD PUSH1 0x40 MSTORE SWAP1 DUP2 PUSH0 DUP3 ADD PUSH0 SWAP1 SLOAD SWAP1 PUSH2 0x100 EXP SWAP1 DIV PUSH2 0xFFFF AND PUSH2 0xFFFF AND PUSH2 0xFFFF AND DUP2 MSTORE PUSH1 0x20 ADD PUSH0 DUP3 ADD PUSH1 0x2 SWAP1 SLOAD SWAP1 PUSH2 0x100 EXP SWAP1 DIV PUSH2 0xFFFF AND PUSH2 0xFFFF AND PUSH2 0xFFFF AND DUP2 MSTORE PUSH1 0x20 ADD PUSH0 DUP3 ADD PUSH1 0x4 SWAP1 SLOAD SWAP1 PUSH2 0x100 EXP SWAP1 DIV PUSH2 0xFFFF AND PUSH2 0xFFFF AND PUSH2 0xFFFF AND DUP2 MSTORE PUSH1 0x20 ADD PUSH0 DUP3 ADD PUSH1 0x6 SWAP1 SLOAD SWAP1 PUSH2 0x100 EXP SWAP1 DIV PUSH20 0xFFFFFFFFFFFFFFFFFFFFFFFFFFFFFFFFFFFFFFFF AND PUSH20 0xFFFFFFFFFFFFFFFFFFFFFFFFFFFFFFFFFFFFFFFF AND PUSH20 0xFFFFFFFFFFFFFFFFFFFFFFFFFFFFFFFFFFFFFFFF AND DUP2 MSTORE PUSH1 0x20 ADD PUSH1 0x1 DUP3 ADD DUP1 SLOAD PUSH2 0x218B SWAP1 PUSH2 0x663B JUMP JUMPDEST DUP1 PUSH1 0x1F ADD PUSH1 0x20 DUP1 SWAP2 DIV MUL PUSH1 0x20 ADD PUSH1 0x40 MLOAD SWAP1 DUP2 ADD PUSH1 0x40 MSTORE DUP1 SWAP3 SWAP2 SWAP1 DUP2 DUP2 MSTORE PUSH1 0x20 ADD DUP3 DUP1 SLOAD PUSH2 0x21B7 SWAP1 PUSH2 0x663B JUMP JUMPDEST DUP1 ISZERO PUSH2 0x2202 JUMPI DUP1 PUSH1 0x1F LT PUSH2 0x21D9 JUMPI PUSH2 0x100 DUP1 DUP4 SLOAD DIV MUL DUP4 MSTORE SWAP2 PUSH1 0x20 ADD SWAP2 PUSH2 0x2202 JUMP JUMPDEST DUP3 ADD SWAP2 SWAP1 PUSH0 MSTORE PUSH1 0x20 PUSH0 KECCAK256 SWAP1 JUMPDEST DUP2 SLOAD DUP2 MSTORE SWAP1 PUSH1 0x1 ADD SWAP1 PUSH1 0x20 ADD DUP1 DUP4 GT PUSH2 0x21E5 JUMPI DUP3 SWAP1 SUB PUSH1 0x1F AND DUP3 ADD SWAP2 JUMPDEST POP POP POP POP POP DUP2 MSTORE POP POP SWAP1 POP SWAP2 SWAP1 POP JUMP JUMPDEST PUSH2 0x221A PUSH2 0x3F69 JUMP JUMPDEST PUSH20 0x0 PUSH4 0x69FC1BDF PUSH1 0x34 PUSH1 0x36 PUSH1 0x40 MLOAD DUP1 PUSH1 0xE0 ADD PUSH1 0x40 MSTORE DUP1 DUP11 PUSH20 0xFFFFFFFFFFFFFFFFFFFFFFFFFFFFFFFFFFFFFFFF AND DUP2 MSTORE PUSH1 0x20 ADD DUP10 PUSH20 0xFFFFFFFFFFFFFFFFFFFFFFFFFFFFFFFFFFFFFFFF AND DUP2 MSTORE PUSH1 0x20 ADD DUP9 PUSH20 0xFFFFFFFFFFFFFFFFFFFFFFFFFFFFFFFFFFFFFFFF AND DUP2 MSTORE PUSH1 0x20 ADD DUP8 PUSH20 0xFFFFFFFFFFFFFFFFFFFFFFFFFFFFFFFFFFFFFFFF AND DUP2 MSTORE PUSH1 0x20 ADD DUP7 PUSH20 0xFFFFFFFFFFFFFFFFFFFFFFFFFFFFFFFFFFFFFFFF AND DUP2 MSTORE PUSH1 0x20 ADD PUSH1 0x3B PUSH1 0x8 SWAP1 SLOAD SWAP1 PUSH2 0x100 EXP SWAP1 DIV PUSH2 0xFFFF AND PUSH2 0xFFFF AND DUP2 MSTORE PUSH1 0x20 ADD PUSH2 0x22F1 PUSH2 0x3F61 JUMP JUMPDEST PUSH2 0xFFFF AND DUP2 MSTORE POP PUSH1 0x40 MLOAD DUP5 PUSH4 0xFFFFFFFF AND PUSH1 0xE0 SHL DUP2 MSTORE PUSH1 0x4 ADD PUSH2 0x2316 SWAP4 SWAP3 SWAP2 SWAP1 PUSH2 0x66F7 JUMP JUMPDEST PUSH1 0x20 PUSH1 0x40 MLOAD DUP1 DUP4 SUB DUP2 DUP7 GAS DELEGATECALL ISZERO DUP1 ISZERO PUSH2 0x2331 JUMPI RETURNDATASIZE PUSH0 DUP1 RETURNDATACOPY RETURNDATASIZE PUSH0 REVERT JUMPDEST POP POP POP POP PUSH1 0x40 MLOAD RETURNDATASIZE PUSH1 0x1F NOT PUSH1 0x1F DUP3 ADD AND DUP3 ADD DUP1 PUSH1 0x40 MSTORE POP DUP2 ADD SWAP1 PUSH2 0x2355 SWAP2 SWAP1 PUSH2 0x6741 JUMP JUMPDEST ISZERO PUSH2 0x2396 JUMPI PUSH1 0x3B PUSH1 0x8 DUP2 DUP2 SWAP1 SLOAD SWAP1 PUSH2 0x100 EXP SWAP1 DIV PUSH2 0xFFFF AND DUP1 SWAP3 SWAP2 SWAP1 PUSH2 0x237A SWAP1 PUSH2 0x6799 JUMP JUMPDEST SWAP2 SWAP1 PUSH2 0x100 EXP DUP2 SLOAD DUP2 PUSH2 0xFFFF MUL NOT AND SWAP1 DUP4 PUSH2 0xFFFF AND MUL OR SWAP1 SSTORE POP POP JUMPDEST POP POP POP POP POP JUMP JUMPDEST PUSH20 0x0 PUSH4 0xEAC4D703 PUSH1 0x34 PUSH0 DUP6 PUSH20 0xFFFFFFFFFFFFFFFFFFFFFFFFFFFFFFFFFFFFFFFF AND PUSH20 0xFFFFFFFFFFFFFFFFFFFFFFFFFFFFFFFFFFFFFFFF AND DUP2 MSTORE PUSH1 0x20 ADD SWAP1 DUP2 MSTORE PUSH1 0x20 ADD PUSH0 KECCAK256 PUSH1 0x35 PUSH0 CALLER PUSH20 0xFFFFFFFFFFFFFFFFFFFFFFFFFFFFFFFFFFFFFFFF AND PUSH20 0xFFFFFFFFFFFFFFFFFFFFFFFFFFFFFFFFFFFFFFFF AND DUP2 MSTORE PUSH1 0x20 ADD SWAP1 DUP2 MSTORE PUSH1 0x20 ADD PUSH0 KECCAK256 DUP6 DUP6 PUSH1 0x2 DUP2 GT ISZERO PUSH2 0x2445 JUMPI PUSH2 0x2444 PUSH2 0x611F JUMP JUMPDEST JUMPDEST PUSH1 0x40 MLOAD DUP6 PUSH4 0xFFFFFFFF AND PUSH1 0xE0 SHL DUP2 MSTORE PUSH1 0x4 ADD PUSH2 0x2464 SWAP5 SWAP4 SWAP3 SWAP2 SWAP1 PUSH2 0x67D1 JUMP JUMPDEST PUSH0 PUSH1 0x40 MLOAD DUP1 DUP4 SUB DUP2 DUP7 DUP1 EXTCODESIZE ISZERO DUP1 ISZERO PUSH2 0x247A JUMPI PUSH0 DUP1 REVERT JUMPDEST POP GAS DELEGATECALL ISZERO DUP1 ISZERO PUSH2 0x248C JUMPI RETURNDATASIZE PUSH0 DUP1 RETURNDATACOPY RETURNDATASIZE PUSH0 REVERT JUMPDEST POP POP POP POP POP POP JUMP JUMPDEST PUSH20 0x0 PUSH4 0x48C2CA8C PUSH1 0x34 DUP5 DUP5 PUSH1 0x40 MLOAD DUP5 PUSH4 0xFFFFFFFF AND PUSH1 0xE0 SHL DUP2 MSTORE PUSH1 0x4 ADD PUSH2 0x24D0 SWAP4 SWAP3 SWAP2 SWAP1 PUSH2 0x68C1 JUMP JUMPDEST PUSH0 PUSH1 0x40 MLOAD DUP1 DUP4 SUB DUP2 DUP7 DUP1 EXTCODESIZE ISZERO DUP1 ISZERO PUSH2 0x24E6 JUMPI PUSH0 DUP1 REVERT JUMPDEST POP GAS DELEGATECALL ISZERO DUP1 ISZERO PUSH2 0x24F8 JUMPI RETURNDATASIZE PUSH0 DUP1 RETURNDATACOPY RETURNDATASIZE PUSH0 REVERT JUMPDEST POP POP POP POP POP POP JUMP JUMPDEST PUSH20 0x0 PUSH4 0x1E6473F9 PUSH1 0x34 PUSH1 0x36 PUSH1 0x37 PUSH1 0x35 PUSH0 DUP8 PUSH20 0xFFFFFFFFFFFFFFFFFFFFFFFFFFFFFFFFFFFFFFFF AND PUSH20 0xFFFFFFFFFFFFFFFFFFFFFFFFFFFFFFFFFFFFFFFF AND DUP2 MSTORE PUSH1 0x20 ADD SWAP1 DUP2 MSTORE PUSH1 0x20 ADD PUSH0 KECCAK256 PUSH1 0x40 MLOAD DUP1 PUSH2 0x180 ADD PUSH1 0x40 MSTORE DUP1 DUP13 PUSH20 0xFFFFFFFFFFFFFFFFFFFFFFFFFFFFFFFFFFFFFFFF AND DUP2 MSTORE PUSH1 0x20 ADD CALLER PUSH20 0xFFFFFFFFFFFFFFFFFFFFFFFFFFFFFFFFFFFFFFFF AND DUP2 MSTORE PUSH1 0x20 ADD DUP9 PUSH20 0xFFFFFFFFFFFFFFFFFFFFFFFFFFFFFFFFFFFFFFFF AND DUP2 MSTORE PUSH1 0x20 ADD DUP12 DUP2 MSTORE PUSH1 0x20 ADD DUP11 PUSH1 0x2 DUP2 GT ISZERO PUSH2 0x25D6 JUMPI PUSH2 0x25D5 PUSH2 0x611F JUMP JUMPDEST JUMPDEST PUSH1 0x2 DUP2 GT ISZERO PUSH2 0x25E8 JUMPI PUSH2 0x25E7 PUSH2 0x611F JUMP JUMPDEST JUMPDEST DUP2 MSTORE PUSH1 0x20 ADD DUP10 PUSH2 0xFFFF AND DUP2 MSTORE PUSH1 0x20 ADD PUSH1 0x1 ISZERO ISZERO DUP2 MSTORE PUSH1 0x20 ADD PUSH1 0x3B PUSH0 SWAP1 SLOAD SWAP1 PUSH2 0x100 EXP SWAP1 DIV PUSH8 0xFFFFFFFFFFFFFFFF AND PUSH8 0xFFFFFFFFFFFFFFFF AND DUP2 MSTORE PUSH1 0x20 ADD PUSH1 0x3B PUSH1 0x8 SWAP1 SLOAD SWAP1 PUSH2 0x100 EXP SWAP1 DIV PUSH2 0xFFFF AND PUSH2 0xFFFF AND DUP2 MSTORE PUSH1 0x20 ADD PUSH32 0x0 PUSH20 0xFFFFFFFFFFFFFFFFFFFFFFFFFFFFFFFFFFFFFFFF AND PUSH4 0xFCA513A8 PUSH1 0x40 MLOAD DUP2 PUSH4 0xFFFFFFFF AND PUSH1 0xE0 SHL DUP2 MSTORE PUSH1 0x4 ADD PUSH1 0x20 PUSH1 0x40 MLOAD DUP1 DUP4 SUB DUP2 DUP7 GAS STATICCALL ISZERO DUP1 ISZERO PUSH2 0x26A8 JUMPI RETURNDATASIZE PUSH0 DUP1 RETURNDATACOPY RETURNDATASIZE PUSH0 REVERT JUMPDEST POP POP POP POP PUSH1 0x40 MLOAD RETURNDATASIZE PUSH1 0x1F NOT PUSH1 0x1F DUP3 ADD AND DUP3 ADD DUP1 PUSH1 0x40 MSTORE POP DUP2 ADD SWAP1 PUSH2 0x26CC SWAP2 SWAP1 PUSH2 0x5D4F JUMP JUMPDEST PUSH20 0xFFFFFFFFFFFFFFFFFFFFFFFFFFFFFFFFFFFFFFFF AND DUP2 MSTORE PUSH1 0x20 ADD PUSH1 0x38 PUSH0 DUP11 PUSH20 0xFFFFFFFFFFFFFFFFFFFFFFFFFFFFFFFFFFFFFFFF AND PUSH20 0xFFFFFFFFFFFFFFFFFFFFFFFFFFFFFFFFFFFFFFFF AND DUP2 MSTORE PUSH1 0x20 ADD SWAP1 DUP2 MSTORE PUSH1 0x20 ADD PUSH0 KECCAK256 PUSH0 SWAP1 SLOAD SWAP1 PUSH2 0x100 EXP SWAP1 DIV PUSH1 0xFF AND PUSH1 0xFF AND DUP2 MSTORE PUSH1 0x20 ADD PUSH32 0x0 PUSH20 0xFFFFFFFFFFFFFFFFFFFFFFFFFFFFFFFFFFFFFFFF AND PUSH4 0x5EB88D3D PUSH1 0x40 MLOAD DUP2 PUSH4 0xFFFFFFFF AND PUSH1 0xE0 SHL DUP2 MSTORE PUSH1 0x4 ADD PUSH1 0x20 PUSH1 0x40 MLOAD DUP1 DUP4 SUB DUP2 DUP7 GAS STATICCALL ISZERO DUP1 ISZERO PUSH2 0x27A2 JUMPI RETURNDATASIZE PUSH0 DUP1 RETURNDATACOPY RETURNDATASIZE PUSH0 REVERT JUMPDEST POP POP POP POP PUSH1 0x40 MLOAD RETURNDATASIZE PUSH1 0x1F NOT PUSH1 0x1F DUP3 ADD AND DUP3 ADD DUP1 PUSH1 0x40 MSTORE POP DUP2 ADD SWAP1 PUSH2 0x27C6 SWAP2 SWAP1 PUSH2 0x5D4F JUMP JUMPDEST PUSH20 0xFFFFFFFFFFFFFFFFFFFFFFFFFFFFFFFFFFFFFFFF AND DUP2 MSTORE POP PUSH1 0x40 MLOAD DUP7 PUSH4 0xFFFFFFFF AND PUSH1 0xE0 SHL DUP2 MSTORE PUSH1 0x4 ADD PUSH2 0x27FF SWAP6 SWAP5 SWAP4 SWAP3 SWAP2 SWAP1 PUSH2 0x69E5 JUMP JUMPDEST PUSH0 PUSH1 0x40 MLOAD DUP1 DUP4 SUB DUP2 DUP7 DUP1 EXTCODESIZE ISZERO DUP1 ISZERO PUSH2 0x2815 JUMPI PUSH0 DUP1 REVERT JUMPDEST POP GAS DELEGATECALL ISZERO DUP1 ISZERO PUSH2 0x2827 JUMPI RETURNDATASIZE PUSH0 DUP1 RETURNDATACOPY RETURNDATASIZE PUSH0 REVERT JUMPDEST POP POP POP POP POP POP POP POP POP JUMP JUMPDEST PUSH0 PUSH1 0x40 MLOAD DUP1 PUSH2 0x1C0 ADD PUSH1 0x40 MSTORE DUP1 DUP14 PUSH20 0xFFFFFFFFFFFFFFFFFFFFFFFFFFFFFFFFFFFFFFFF AND DUP2 MSTORE PUSH1 0x20 ADD DUP13 DUP13 DUP1 DUP1 PUSH1 0x20 MUL PUSH1 0x20 ADD PUSH1 0x40 MLOAD SWAP1 DUP2 ADD PUSH1 0x40 MSTORE DUP1 SWAP4 SWAP3 SWAP2 SWAP1 DUP2 DUP2 MSTORE PUSH1 0x20 ADD DUP4 DUP4 PUSH1 0x20 MUL DUP1 DUP3 DUP5 CALLDATACOPY PUSH0 DUP2 DUP5 ADD MSTORE PUSH1 0x1F NOT PUSH1 0x1F DUP3 ADD AND SWAP1 POP DUP1 DUP4 ADD SWAP3 POP POP POP POP POP POP POP DUP2 MSTORE PUSH1 0x20 ADD DUP11 DUP11 DUP1 DUP1 PUSH1 0x20 MUL PUSH1 0x20 ADD PUSH1 0x40 MLOAD SWAP1 DUP2 ADD PUSH1 0x40 MSTORE DUP1 SWAP4 SWAP3 SWAP2 SWAP1 DUP2 DUP2 MSTORE PUSH1 0x20 ADD DUP4 DUP4 PUSH1 0x20 MUL DUP1 DUP3 DUP5 CALLDATACOPY PUSH0 DUP2 DUP5 ADD MSTORE PUSH1 0x1F NOT PUSH1 0x1F DUP3 ADD AND SWAP1 POP DUP1 DUP4 ADD SWAP3 POP POP POP POP POP POP POP DUP2 MSTORE PUSH1 0x20 ADD DUP9 DUP9 DUP1 DUP1 PUSH1 0x20 MUL PUSH1 0x20 ADD PUSH1 0x40 MLOAD SWAP1 DUP2 ADD PUSH1 0x40 MSTORE DUP1 SWAP4 SWAP3 SWAP2 SWAP1 DUP2 DUP2 MSTORE PUSH1 0x20 ADD DUP4 DUP4 PUSH1 0x20 MUL DUP1 DUP3 DUP5 CALLDATACOPY PUSH0 DUP2 DUP5 ADD MSTORE PUSH1 0x1F NOT PUSH1 0x1F DUP3 ADD AND SWAP1 POP DUP1 DUP4 ADD SWAP3 POP POP POP POP POP POP POP DUP2 MSTORE PUSH1 0x20 ADD DUP7 PUSH20 0xFFFFFFFFFFFFFFFFFFFFFFFFFFFFFFFFFFFFFFFF AND DUP2 MSTORE PUSH1 0x20 ADD DUP6 DUP6 DUP1 DUP1 PUSH1 0x1F ADD PUSH1 0x20 DUP1 SWAP2 DIV MUL PUSH1 0x20 ADD PUSH1 0x40 MLOAD SWAP1 DUP2 ADD PUSH1 0x40 MSTORE DUP1 SWAP4 SWAP3 SWAP2 SWAP1 DUP2 DUP2 MSTORE PUSH1 0x20 ADD DUP4 DUP4 DUP1 DUP3 DUP5 CALLDATACOPY PUSH0 DUP2 DUP5 ADD MSTORE PUSH1 0x1F NOT PUSH1 0x1F DUP3 ADD AND SWAP1 POP DUP1 DUP4 ADD SWAP3 POP POP POP POP POP POP POP DUP2 MSTORE PUSH1 0x20 ADD DUP4 PUSH2 0xFFFF AND DUP2 MSTORE PUSH1 0x20 ADD PUSH1 0x3A PUSH1 0x10 SWAP1 SLOAD SWAP1 PUSH2 0x100 EXP SWAP1 DIV PUSH16 0xFFFFFFFFFFFFFFFFFFFFFFFFFFFFFFFF AND PUSH16 0xFFFFFFFFFFFFFFFFFFFFFFFFFFFFFFFF AND DUP2 MSTORE PUSH1 0x20 ADD PUSH1 0x3A PUSH0 SWAP1 SLOAD SWAP1 PUSH2 0x100 EXP SWAP1 DIV PUSH16 0xFFFFFFFFFFFFFFFFFFFFFFFFFFFFFFFF AND PUSH16 0xFFFFFFFFFFFFFFFFFFFFFFFFFFFFFFFF AND DUP2 MSTORE PUSH1 0x20 ADD PUSH1 0x3B PUSH0 SWAP1 SLOAD SWAP1 PUSH2 0x100 EXP SWAP1 DIV PUSH8 0xFFFFFFFFFFFFFFFF AND PUSH8 0xFFFFFFFFFFFFFFFF AND DUP2 MSTORE PUSH1 0x20 ADD PUSH1 0x3B PUSH1 0x8 SWAP1 SLOAD SWAP1 PUSH2 0x100 EXP SWAP1 DIV PUSH2 0xFFFF AND PUSH2 0xFFFF AND DUP2 MSTORE PUSH1 0x20 ADD PUSH32 0x0 PUSH20 0xFFFFFFFFFFFFFFFFFFFFFFFFFFFFFFFFFFFFFFFF AND DUP2 MSTORE PUSH1 0x20 ADD PUSH1 0x38 PUSH0 DUP9 PUSH20 0xFFFFFFFFFFFFFFFFFFFFFFFFFFFFFFFFFFFFFFFF AND PUSH20 0xFFFFFFFFFFFFFFFFFFFFFFFFFFFFFFFFFFFFFFFF AND DUP2 MSTORE PUSH1 0x20 ADD SWAP1 DUP2 MSTORE PUSH1 0x20 ADD PUSH0 KECCAK256 PUSH0 SWAP1 SLOAD SWAP1 PUSH2 0x100 EXP SWAP1 DIV PUSH1 0xFF AND PUSH1 0xFF AND DUP2 MSTORE PUSH1 0x20 ADD PUSH32 0x0 PUSH20 0xFFFFFFFFFFFFFFFFFFFFFFFFFFFFFFFFFFFFFFFF AND PUSH4 0x707CD716 PUSH1 0x40 MLOAD DUP2 PUSH4 0xFFFFFFFF AND PUSH1 0xE0 SHL DUP2 MSTORE PUSH1 0x4 ADD PUSH1 0x20 PUSH1 0x40 MLOAD DUP1 DUP4 SUB DUP2 DUP7 GAS STATICCALL ISZERO DUP1 ISZERO PUSH2 0x2B3D JUMPI RETURNDATASIZE PUSH0 DUP1 RETURNDATACOPY RETURNDATASIZE PUSH0 REVERT JUMPDEST POP POP POP POP PUSH1 0x40 MLOAD RETURNDATASIZE PUSH1 0x1F NOT PUSH1 0x1F DUP3 ADD AND DUP3 ADD DUP1 PUSH1 0x40 MSTORE POP DUP2 ADD SWAP1 PUSH2 0x2B61 SWAP2 SWAP1 PUSH2 0x5D4F JUMP JUMPDEST PUSH20 0xFFFFFFFFFFFFFFFFFFFFFFFFFFFFFFFFFFFFFFFF AND PUSH4 0xFA50F297 CALLER PUSH1 0x40 MLOAD DUP3 PUSH4 0xFFFFFFFF AND PUSH1 0xE0 SHL DUP2 MSTORE PUSH1 0x4 ADD PUSH2 0x2B99 SWAP2 SWAP1 PUSH2 0x5122 JUMP JUMPDEST PUSH1 0x20 PUSH1 0x40 MLOAD DUP1 DUP4 SUB DUP2 DUP7 GAS STATICCALL ISZERO DUP1 ISZERO PUSH2 0x2BB4 JUMPI RETURNDATASIZE PUSH0 DUP1 RETURNDATACOPY RETURNDATASIZE PUSH0 REVERT JUMPDEST POP POP POP POP PUSH1 0x40 MLOAD RETURNDATASIZE PUSH1 0x1F NOT PUSH1 0x1F DUP3 ADD AND DUP3 ADD DUP1 PUSH1 0x40 MSTORE POP DUP2 ADD SWAP1 PUSH2 0x2BD8 SWAP2 SWAP1 PUSH2 0x6741 JUMP JUMPDEST ISZERO ISZERO DUP2 MSTORE POP SWAP1 POP PUSH20 0x0 PUSH4 0x2E7263EA PUSH1 0x34 PUSH1 0x36 PUSH1 0x37 PUSH1 0x35 PUSH0 DUP12 PUSH20 0xFFFFFFFFFFFFFFFFFFFFFFFFFFFFFFFFFFFFFFFF AND PUSH20 0xFFFFFFFFFFFFFFFFFFFFFFFFFFFFFFFFFFFFFFFF AND DUP2 MSTORE PUSH1 0x20 ADD SWAP1 DUP2 MSTORE PUSH1 0x20 ADD PUSH0 KECCAK256 DUP7 PUSH1 0x40 MLOAD DUP7 PUSH4 0xFFFFFFFF AND PUSH1 0xE0 SHL DUP2 MSTORE PUSH1 0x4 ADD PUSH2 0x2C5D SWAP6 SWAP5 SWAP4 SWAP3 SWAP2 SWAP1 PUSH2 0x6C8B JUMP JUMPDEST PUSH0 PUSH1 0x40 MLOAD DUP1 DUP4 SUB DUP2 DUP7 DUP1 EXTCODESIZE ISZERO DUP1 ISZERO PUSH2 0x2C73 JUMPI PUSH0 DUP1 REVERT JUMPDEST POP GAS DELEGATECALL ISZERO DUP1 ISZERO PUSH2 0x2C85 JUMPI RETURNDATASIZE PUSH0 DUP1 RETURNDATACOPY RETURNDATASIZE PUSH0 REVERT JUMPDEST POP POP POP POP POP POP POP POP POP POP POP POP POP POP POP POP JUMP JUMPDEST PUSH2 0x2C9F PUSH2 0x3F69 JUMP JUMPDEST DUP2 PUSH1 0x3A PUSH0 PUSH2 0x100 EXP DUP2 SLOAD DUP2 PUSH16 0xFFFFFFFFFFFFFFFFFFFFFFFFFFFFFFFF MUL NOT AND SWAP1 DUP4 PUSH16 0xFFFFFFFFFFFFFFFFFFFFFFFFFFFFFFFF AND MUL OR SWAP1 SSTORE POP DUP1 PUSH1 0x3A PUSH1 0x10 PUSH2 0x100 EXP DUP2 SLOAD DUP2 PUSH16 0xFFFFFFFFFFFFFFFFFFFFFFFFFFFFFFFF MUL NOT AND SWAP1 DUP4 PUSH16 0xFFFFFFFFFFFFFFFFFFFFFFFFFFFFFFFF AND MUL OR SWAP1 SSTORE POP POP POP JUMP JUMPDEST PUSH0 DUP1 PUSH0 DUP1 PUSH0 DUP1 PUSH20 0x0 PUSH4 0x26EC273F PUSH1 0x34 PUSH1 0x36 PUSH1 0x37 PUSH1 0x40 MLOAD DUP1 PUSH1 0xA0 ADD PUSH1 0x40 MSTORE DUP1 PUSH1 0x35 PUSH0 DUP16 PUSH20 0xFFFFFFFFFFFFFFFFFFFFFFFFFFFFFFFFFFFFFFFF AND PUSH20 0xFFFFFFFFFFFFFFFFFFFFFFFFFFFFFFFFFFFFFFFF AND DUP2 MSTORE PUSH1 0x20 ADD SWAP1 DUP2 MSTORE PUSH1 0x20 ADD PUSH0 KECCAK256 PUSH1 0x40 MLOAD DUP1 PUSH1 0x20 ADD PUSH1 0x40 MSTORE SWAP1 DUP2 PUSH0 DUP3 ADD SLOAD DUP2 MSTORE POP POP DUP2 MSTORE PUSH1 0x20 ADD PUSH1 0x3B PUSH1 0x8 SWAP1 SLOAD SWAP1 PUSH2 0x100 EXP SWAP1 DIV PUSH2 0xFFFF AND PUSH2 0xFFFF AND DUP2 MSTORE PUSH1 0x20 ADD DUP14 PUSH20 0xFFFFFFFFFFFFFFFFFFFFFFFFFFFFFFFFFFFFFFFF AND DUP2 MSTORE PUSH1 0x20 ADD PUSH32 0x0 PUSH20 0xFFFFFFFFFFFFFFFFFFFFFFFFFFFFFFFFFFFFFFFF AND PUSH4 0xFCA513A8 PUSH1 0x40 MLOAD DUP2 PUSH4 0xFFFFFFFF AND PUSH1 0xE0 SHL DUP2 MSTORE PUSH1 0x4 ADD PUSH1 0x20 PUSH1 0x40 MLOAD DUP1 DUP4 SUB DUP2 DUP7 GAS STATICCALL ISZERO DUP1 ISZERO PUSH2 0x2E3A JUMPI RETURNDATASIZE PUSH0 DUP1 RETURNDATACOPY RETURNDATASIZE PUSH0 REVERT JUMPDEST POP POP POP POP PUSH1 0x40 MLOAD RETURNDATASIZE PUSH1 0x1F NOT PUSH1 0x1F DUP3 ADD AND DUP3 ADD DUP1 PUSH1 0x40 MSTORE POP DUP2 ADD SWAP1 PUSH2 0x2E5E SWAP2 SWAP1 PUSH2 0x5D4F JUMP JUMPDEST PUSH20 0xFFFFFFFFFFFFFFFFFFFFFFFFFFFFFFFFFFFFFFFF AND DUP2 MSTORE PUSH1 0x20 ADD PUSH1 0x38 PUSH0 DUP16 PUSH20 0xFFFFFFFFFFFFFFFFFFFFFFFFFFFFFFFFFFFFFFFF AND PUSH20 0xFFFFFFFFFFFFFFFFFFFFFFFFFFFFFFFFFFFFFFFF AND DUP2 MSTORE PUSH1 0x20 ADD SWAP1 DUP2 MSTORE PUSH1 0x20 ADD PUSH0 KECCAK256 PUSH0 SWAP1 SLOAD SWAP1 PUSH2 0x100 EXP SWAP1 DIV PUSH1 0xFF AND PUSH1 0xFF AND DUP2 MSTORE POP PUSH1 0x40 MLOAD DUP6 PUSH4 0xFFFFFFFF AND PUSH1 0xE0 SHL DUP2 MSTORE PUSH1 0x4 ADD PUSH2 0x2EE8 SWAP5 SWAP4 SWAP3 SWAP2 SWAP1 PUSH2 0x6D63 JUMP JUMPDEST PUSH1 0xC0 PUSH1 0x40 MLOAD DUP1 DUP4 SUB DUP2 DUP7 GAS DELEGATECALL ISZERO DUP1 ISZERO PUSH2 0x2F03 JUMPI RETURNDATASIZE PUSH0 DUP1 RETURNDATACOPY RETURNDATASIZE PUSH0 REVERT JUMPDEST POP POP POP POP PUSH1 0x40 MLOAD RETURNDATASIZE PUSH1 0x1F NOT PUSH1 0x1F DUP3 ADD AND DUP3 ADD DUP1 PUSH1 0x40 MSTORE POP DUP2 ADD SWAP1 PUSH2 0x2F27 SWAP2 SWAP1 PUSH2 0x6DA7 JUMP JUMPDEST SWAP6 POP SWAP6 POP SWAP6 POP SWAP6 POP SWAP6 POP SWAP6 POP SWAP2 SWAP4 SWAP6 POP SWAP2 SWAP4 SWAP6 JUMP JUMPDEST PUSH2 0x2F44 PUSH2 0x4961 JUMP JUMPDEST PUSH1 0x34 PUSH0 DUP4 PUSH20 0xFFFFFFFFFFFFFFFFFFFFFFFFFFFFFFFFFFFFFFFF AND PUSH20 0xFFFFFFFFFFFFFFFFFFFFFFFFFFFFFFFFFFFFFFFF AND DUP2 MSTORE PUSH1 0x20 ADD SWAP1 DUP2 MSTORE PUSH1 0x20 ADD PUSH0 KECCAK256 PUSH0 ADD PUSH1 0x40 MLOAD DUP1 PUSH1 0x20 ADD PUSH1 0x40 MSTORE SWAP1 DUP2 PUSH0 DUP3 ADD SLOAD DUP2 MSTORE POP POP SWAP1 POP SWAP2 SWAP1 POP JUMP JUMPDEST PUSH0 PUSH2 0x2FA7 PUSH2 0x4306 JUMP JUMPDEST SWAP1 POP PUSH1 0x1 PUSH0 SWAP1 SLOAD SWAP1 PUSH2 0x100 EXP SWAP1 DIV PUSH1 0xFF AND DUP1 PUSH2 0x2FC7 JUMPI POP PUSH2 0x2FC6 PUSH2 0x430E JUMP JUMPDEST JUMPDEST DUP1 PUSH2 0x2FD2 JUMPI POP PUSH0 SLOAD DUP2 GT JUMPDEST PUSH2 0x3011 JUMPI PUSH1 0x40 MLOAD PUSH32 0x8C379A000000000000000000000000000000000000000000000000000000000 DUP2 MSTORE PUSH1 0x4 ADD PUSH2 0x3008 SWAP1 PUSH2 0x6EA0 JUMP JUMPDEST PUSH1 0x40 MLOAD DUP1 SWAP2 SUB SWAP1 REVERT JUMPDEST PUSH0 PUSH1 0x1 PUSH0 SWAP1 SLOAD SWAP1 PUSH2 0x100 EXP SWAP1 DIV PUSH1 0xFF AND ISZERO SWAP1 POP DUP1 ISZERO PUSH2 0x304A JUMPI PUSH1 0x1 DUP1 PUSH0 PUSH2 0x100 EXP DUP2 SLOAD DUP2 PUSH1 0xFF MUL NOT AND SWAP1 DUP4 ISZERO ISZERO MUL OR SWAP1 SSTORE POP DUP2 PUSH0 DUP2 SWAP1 SSTORE POP JUMPDEST PUSH32 0x0 PUSH20 0xFFFFFFFFFFFFFFFFFFFFFFFFFFFFFFFFFFFFFFFF AND DUP4 PUSH20 0xFFFFFFFFFFFFFFFFFFFFFFFFFFFFFFFFFFFFFFFF AND EQ PUSH1 0x40 MLOAD DUP1 PUSH1 0x40 ADD PUSH1 0x40 MSTORE DUP1 PUSH1 0x2 DUP2 MSTORE PUSH1 0x20 ADD PUSH32 0x3132000000000000000000000000000000000000000000000000000000000000 DUP2 MSTORE POP SWAP1 PUSH2 0x3110 JUMPI PUSH1 0x40 MLOAD PUSH32 0x8C379A000000000000000000000000000000000000000000000000000000000 DUP2 MSTORE PUSH1 0x4 ADD PUSH2 0x3107 SWAP2 SWAP1 PUSH2 0x6058 JUMP JUMPDEST PUSH1 0x40 MLOAD DUP1 SWAP2 SUB SWAP1 REVERT JUMPDEST POP PUSH2 0x9C4 PUSH1 0x3B PUSH0 PUSH2 0x100 EXP DUP2 SLOAD DUP2 PUSH8 0xFFFFFFFFFFFFFFFF MUL NOT AND SWAP1 DUP4 PUSH8 0xFFFFFFFFFFFFFFFF AND MUL OR SWAP1 SSTORE POP DUP1 ISZERO PUSH2 0x315B JUMPI PUSH0 PUSH1 0x1 PUSH0 PUSH2 0x100 EXP DUP2 SLOAD DUP2 PUSH1 0xFF MUL NOT AND SWAP1 DUP4 ISZERO ISZERO MUL OR SWAP1 SSTORE POP JUMPDEST POP POP POP JUMP JUMPDEST PUSH20 0x0 PUSH4 0x6973F744 PUSH1 0x34 PUSH0 DUP6 PUSH20 0xFFFFFFFFFFFFFFFFFFFFFFFFFFFFFFFFFFFFFFFF AND PUSH20 0xFFFFFFFFFFFFFFFFFFFFFFFFFFFFFFFFFFFFFFFF AND DUP2 MSTORE PUSH1 0x20 ADD SWAP1 DUP2 MSTORE PUSH1 0x20 ADD PUSH0 KECCAK256 DUP5 DUP5 PUSH1 0x40 MLOAD DUP5 PUSH4 0xFFFFFFFF AND PUSH1 0xE0 SHL DUP2 MSTORE PUSH1 0x4 ADD PUSH2 0x31D7 SWAP4 SWAP3 SWAP2 SWAP1 PUSH2 0x6EBE JUMP JUMPDEST PUSH0 PUSH1 0x40 MLOAD DUP1 DUP4 SUB DUP2 DUP7 DUP1 EXTCODESIZE ISZERO DUP1 ISZERO PUSH2 0x31ED JUMPI PUSH0 DUP1 REVERT JUMPDEST POP GAS DELEGATECALL ISZERO DUP1 ISZERO PUSH2 0x31FF JUMPI RETURNDATASIZE PUSH0 DUP1 RETURNDATACOPY RETURNDATASIZE PUSH0 REVERT JUMPDEST POP POP POP POP POP POP JUMP JUMPDEST PUSH2 0x320F PUSH2 0x431D JUMP JUMPDEST PUSH20 0x0 PUSH4 0x87B322B2 DUP5 DUP5 DUP5 PUSH1 0x40 MLOAD DUP5 PUSH4 0xFFFFFFFF AND PUSH1 0xE0 SHL DUP2 MSTORE PUSH1 0x4 ADD PUSH2 0x324A SWAP4 SWAP3 SWAP2 SWAP1 PUSH2 0x6EF3 JUMP JUMPDEST PUSH0 PUSH1 0x40 MLOAD DUP1 DUP4 SUB DUP2 DUP7 DUP1 EXTCODESIZE ISZERO DUP1 ISZERO PUSH2 0x3260 JUMPI PUSH0 DUP1 REVERT JUMPDEST POP GAS DELEGATECALL ISZERO DUP1 ISZERO PUSH2 0x3272 JUMPI RETURNDATASIZE PUSH0 DUP1 RETURNDATACOPY RETURNDATASIZE PUSH0 REVERT JUMPDEST POP POP POP POP POP POP POP JUMP JUMPDEST PUSH0 PUSH2 0x32C1 PUSH1 0x34 PUSH0 DUP5 PUSH20 0xFFFFFFFFFFFFFFFFFFFFFFFFFFFFFFFFFFFFFFFF AND PUSH20 0xFFFFFFFFFFFFFFFFFFFFFFFFFFFFFFFFFFFFFFFF AND DUP2 MSTORE PUSH1 0x20 ADD SWAP1 DUP2 MSTORE PUSH1 0x20 ADD PUSH0 KECCAK256 PUSH2 0x449B JUMP JUMPDEST SWAP1 POP SWAP2 SWAP1 POP JUMP JUMPDEST PUSH1 0x60 PUSH0 PUSH1 0x3B PUSH1 0x8 SWAP1 SLOAD SWAP1 PUSH2 0x100 EXP SWAP1 DIV PUSH2 0xFFFF AND PUSH2 0xFFFF AND SWAP1 POP PUSH0 DUP1 DUP3 PUSH8 0xFFFFFFFFFFFFFFFF DUP2 GT ISZERO PUSH2 0x32FE JUMPI PUSH2 0x32FD PUSH2 0x594E JUMP JUMPDEST JUMPDEST PUSH1 0x40 MLOAD SWAP1 DUP1 DUP3 MSTORE DUP1 PUSH1 0x20 MUL PUSH1 0x20 ADD DUP3 ADD PUSH1 0x40 MSTORE DUP1 ISZERO PUSH2 0x332C JUMPI DUP2 PUSH1 0x20 ADD PUSH1 0x20 DUP3 MUL DUP1 CALLDATASIZE DUP4 CALLDATACOPY DUP1 DUP3 ADD SWAP2 POP POP SWAP1 POP JUMPDEST POP SWAP1 POP PUSH0 JUMPDEST DUP4 DUP2 LT ISZERO PUSH2 0x3446 JUMPI PUSH0 PUSH20 0xFFFFFFFFFFFFFFFFFFFFFFFFFFFFFFFFFFFFFFFF AND PUSH1 0x36 PUSH0 DUP4 DUP2 MSTORE PUSH1 0x20 ADD SWAP1 DUP2 MSTORE PUSH1 0x20 ADD PUSH0 KECCAK256 PUSH0 SWAP1 SLOAD SWAP1 PUSH2 0x100 EXP SWAP1 DIV PUSH20 0xFFFFFFFFFFFFFFFFFFFFFFFFFFFFFFFFFFFFFFFF AND PUSH20 0xFFFFFFFFFFFFFFFFFFFFFFFFFFFFFFFFFFFFFFFF AND EQ PUSH2 0x342A JUMPI PUSH1 0x36 PUSH0 DUP3 DUP2 MSTORE PUSH1 0x20 ADD SWAP1 DUP2 MSTORE PUSH1 0x20 ADD PUSH0 KECCAK256 PUSH0 SWAP1 SLOAD SWAP1 PUSH2 0x100 EXP SWAP1 DIV PUSH20 0xFFFFFFFFFFFFFFFFFFFFFFFFFFFFFFFFFFFFFFFF AND DUP3 DUP5 DUP4 PUSH2 0x33DA SWAP2 SWAP1 PUSH2 0x6F28 JUMP JUMPDEST DUP2 MLOAD DUP2 LT PUSH2 0x33EB JUMPI PUSH2 0x33EA PUSH2 0x6F5B JUMP JUMPDEST JUMPDEST PUSH1 0x20 MUL PUSH1 0x20 ADD ADD SWAP1 PUSH20 0xFFFFFFFFFFFFFFFFFFFFFFFFFFFFFFFFFFFFFFFF AND SWAP1 DUP2 PUSH20 0xFFFFFFFFFFFFFFFFFFFFFFFFFFFFFFFFFFFFFFFF AND DUP2 MSTORE POP POP PUSH2 0x3439 JUMP JUMPDEST DUP3 DUP1 PUSH2 0x3435 SWAP1 PUSH2 0x6F88 JUMP JUMPDEST SWAP4 POP POP JUMPDEST DUP1 DUP1 PUSH1 0x1 ADD SWAP2 POP POP PUSH2 0x3331 JUMP JUMPDEST POP DUP2 DUP4 SUB DUP2 MSTORE DUP1 SWAP4 POP POP POP POP SWAP1 JUMP JUMPDEST PUSH2 0x345D PUSH2 0x3F69 JUMP JUMPDEST PUSH0 DUP3 PUSH1 0xFF AND EQ ISZERO PUSH1 0x40 MLOAD DUP1 PUSH1 0x40 ADD PUSH1 0x40 MSTORE DUP1 PUSH1 0x2 DUP2 MSTORE PUSH1 0x20 ADD PUSH32 0x3136000000000000000000000000000000000000000000000000000000000000 DUP2 MSTORE POP SWAP1 PUSH2 0x34DB JUMPI PUSH1 0x40 MLOAD PUSH32 0x8C379A000000000000000000000000000000000000000000000000000000000 DUP2 MSTORE PUSH1 0x4 ADD PUSH2 0x34D2 SWAP2 SWAP1 PUSH2 0x6058 JUMP JUMPDEST PUSH1 0x40 MLOAD DUP1 SWAP2 SUB SWAP1 REVERT JUMPDEST POP DUP1 PUSH1 0x37 PUSH0 DUP5 PUSH1 0xFF AND PUSH1 0xFF AND DUP2 MSTORE PUSH1 0x20 ADD SWAP1 DUP2 MSTORE PUSH1 0x20 ADD PUSH0 KECCAK256 PUSH0 DUP3 ADD MLOAD DUP2 PUSH0 ADD PUSH0 PUSH2 0x100 EXP DUP2 SLOAD DUP2 PUSH2 0xFFFF MUL NOT AND SWAP1 DUP4 PUSH2 0xFFFF AND MUL OR SWAP1 SSTORE POP PUSH1 0x20 DUP3 ADD MLOAD DUP2 PUSH0 ADD PUSH1 0x2 PUSH2 0x100 EXP DUP2 SLOAD DUP2 PUSH2 0xFFFF MUL NOT AND SWAP1 DUP4 PUSH2 0xFFFF AND MUL OR SWAP1 SSTORE POP PUSH1 0x40 DUP3 ADD MLOAD DUP2 PUSH0 ADD PUSH1 0x4 PUSH2 0x100 EXP DUP2 SLOAD DUP2 PUSH2 0xFFFF MUL NOT AND SWAP1 DUP4 PUSH2 0xFFFF AND MUL OR SWAP1 SSTORE POP PUSH1 0x60 DUP3 ADD MLOAD DUP2 PUSH0 ADD PUSH1 0x6 PUSH2 0x100 EXP DUP2 SLOAD DUP2 PUSH20 0xFFFFFFFFFFFFFFFFFFFFFFFFFFFFFFFFFFFFFFFF MUL NOT AND SWAP1 DUP4 PUSH20 0xFFFFFFFFFFFFFFFFFFFFFFFFFFFFFFFFFFFFFFFF AND MUL OR SWAP1 SSTORE POP PUSH1 0x80 DUP3 ADD MLOAD DUP2 PUSH1 0x1 ADD SWAP1 DUP2 PUSH2 0x35B3 SWAP2 SWAP1 PUSH2 0x7163 JUMP JUMPDEST POP SWAP1 POP POP POP POP JUMP JUMPDEST PUSH1 0x34 PUSH0 DUP8 PUSH20 0xFFFFFFFFFFFFFFFFFFFFFFFFFFFFFFFFFFFFFFFF AND PUSH20 0xFFFFFFFFFFFFFFFFFFFFFFFFFFFFFFFFFFFFFFFF AND DUP2 MSTORE PUSH1 0x20 ADD SWAP1 DUP2 MSTORE PUSH1 0x20 ADD PUSH0 KECCAK256 PUSH1 0x4 ADD PUSH0 SWAP1 SLOAD SWAP1 PUSH2 0x100 EXP SWAP1 DIV PUSH20 0xFFFFFFFFFFFFFFFFFFFFFFFFFFFFFFFFFFFFFFFF AND PUSH20 0xFFFFFFFFFFFFFFFFFFFFFFFFFFFFFFFFFFFFFFFF AND CALLER PUSH20 0xFFFFFFFFFFFFFFFFFFFFFFFFFFFFFFFFFFFFFFFF AND EQ PUSH1 0x40 MLOAD DUP1 PUSH1 0x40 ADD PUSH1 0x40 MSTORE DUP1 PUSH1 0x2 DUP2 MSTORE PUSH1 0x20 ADD PUSH32 0x3131000000000000000000000000000000000000000000000000000000000000 DUP2 MSTORE POP SWAP1 PUSH2 0x36C0 JUMPI PUSH1 0x40 MLOAD PUSH32 0x8C379A000000000000000000000000000000000000000000000000000000000 DUP2 MSTORE PUSH1 0x4 ADD PUSH2 0x36B7 SWAP2 SWAP1 PUSH2 0x6058 JUMP JUMPDEST PUSH1 0x40 MLOAD DUP1 SWAP2 SUB SWAP1 REVERT JUMPDEST POP PUSH20 0x0 PUSH4 0x8A5DADD1 PUSH1 0x34 PUSH1 0x36 PUSH1 0x37 PUSH1 0x35 PUSH1 0x40 MLOAD DUP1 PUSH2 0x120 ADD PUSH1 0x40 MSTORE DUP1 DUP14 PUSH20 0xFFFFFFFFFFFFFFFFFFFFFFFFFFFFFFFFFFFFFFFF AND DUP2 MSTORE PUSH1 0x20 ADD DUP13 PUSH20 0xFFFFFFFFFFFFFFFFFFFFFFFFFFFFFFFFFFFFFFFF AND DUP2 MSTORE PUSH1 0x20 ADD DUP12 PUSH20 0xFFFFFFFFFFFFFFFFFFFFFFFFFFFFFFFFFFFFFFFF AND DUP2 MSTORE PUSH1 0x20 ADD DUP11 DUP2 MSTORE PUSH1 0x20 ADD DUP10 DUP2 MSTORE PUSH1 0x20 ADD DUP9 DUP2 MSTORE PUSH1 0x20 ADD PUSH1 0x3B PUSH1 0x8 SWAP1 SLOAD SWAP1 PUSH2 0x100 EXP SWAP1 DIV PUSH2 0xFFFF AND PUSH2 0xFFFF AND DUP2 MSTORE PUSH1 0x20 ADD PUSH32 0x0 PUSH20 0xFFFFFFFFFFFFFFFFFFFFFFFFFFFFFFFFFFFFFFFF AND PUSH4 0xFCA513A8 PUSH1 0x40 MLOAD DUP2 PUSH4 0xFFFFFFFF AND PUSH1 0xE0 SHL DUP2 MSTORE PUSH1 0x4 ADD PUSH1 0x20 PUSH1 0x40 MLOAD DUP1 DUP4 SUB DUP2 DUP7 GAS STATICCALL ISZERO DUP1 ISZERO PUSH2 0x37D8 JUMPI RETURNDATASIZE PUSH0 DUP1 RETURNDATACOPY RETURNDATASIZE PUSH0 REVERT JUMPDEST POP POP POP POP PUSH1 0x40 MLOAD RETURNDATASIZE PUSH1 0x1F NOT PUSH1 0x1F DUP3 ADD AND DUP3 ADD DUP1 PUSH1 0x40 MSTORE POP DUP2 ADD SWAP1 PUSH2 0x37FC SWAP2 SWAP1 PUSH2 0x5D4F JUMP JUMPDEST PUSH20 0xFFFFFFFFFFFFFFFFFFFFFFFFFFFFFFFFFFFFFFFF AND DUP2 MSTORE PUSH1 0x20 ADD PUSH1 0x38 PUSH0 DUP15 PUSH20 0xFFFFFFFFFFFFFFFFFFFFFFFFFFFFFFFFFFFFFFFF AND PUSH20 0xFFFFFFFFFFFFFFFFFFFFFFFFFFFFFFFFFFFFFFFF AND DUP2 MSTORE PUSH1 0x20 ADD SWAP1 DUP2 MSTORE PUSH1 0x20 ADD PUSH0 KECCAK256 PUSH0 SWAP1 SLOAD SWAP1 PUSH2 0x100 EXP SWAP1 DIV PUSH1 0xFF AND PUSH1 0xFF AND DUP2 MSTORE POP PUSH1 0x40 MLOAD DUP7 PUSH4 0xFFFFFFFF AND PUSH1 0xE0 SHL DUP2 MSTORE PUSH1 0x4 ADD PUSH2 0x3887 SWAP6 SWAP5 SWAP4 SWAP3 SWAP2 SWAP1 PUSH2 0x72E7 JUMP JUMPDEST PUSH0 PUSH1 0x40 MLOAD DUP1 DUP4 SUB DUP2 DUP7 DUP1 EXTCODESIZE ISZERO DUP1 ISZERO PUSH2 0x389D JUMPI PUSH0 DUP1 REVERT JUMPDEST POP GAS DELEGATECALL ISZERO DUP1 ISZERO PUSH2 0x38AF JUMPI RETURNDATASIZE PUSH0 DUP1 RETURNDATACOPY RETURNDATASIZE PUSH0 REVERT JUMPDEST POP POP POP POP POP POP POP POP POP POP JUMP JUMPDEST PUSH0 PUSH2 0x38C4 PUSH2 0x4188 JUMP JUMPDEST PUSH20 0x0 PUSH4 0x8E743248 PUSH1 0x34 PUSH0 DUP8 PUSH20 0xFFFFFFFFFFFFFFFFFFFFFFFFFFFFFFFFFFFFFFFF AND PUSH20 0xFFFFFFFFFFFFFFFFFFFFFFFFFFFFFFFFFFFFFFFF AND DUP2 MSTORE PUSH1 0x20 ADD SWAP1 DUP2 MSTORE PUSH1 0x20 ADD PUSH0 KECCAK256 DUP7 DUP7 DUP7 PUSH1 0x39 SLOAD PUSH1 0x40 MLOAD DUP7 PUSH4 0xFFFFFFFF AND PUSH1 0xE0 SHL DUP2 MSTORE PUSH1 0x4 ADD PUSH2 0x3941 SWAP6 SWAP5 SWAP4 SWAP3 SWAP2 SWAP1 PUSH2 0x7339 JUMP JUMPDEST PUSH1 0x20 PUSH1 0x40 MLOAD DUP1 DUP4 SUB DUP2 DUP7 GAS DELEGATECALL ISZERO DUP1 ISZERO PUSH2 0x395C JUMPI RETURNDATASIZE PUSH0 DUP1 RETURNDATACOPY RETURNDATASIZE PUSH0 REVERT JUMPDEST POP POP POP POP PUSH1 0x40 MLOAD RETURNDATASIZE PUSH1 0x1F NOT PUSH1 0x1F DUP3 ADD AND DUP3 ADD DUP1 PUSH1 0x40 MSTORE POP DUP2 ADD SWAP1 PUSH2 0x3980 SWAP2 SWAP1 PUSH2 0x6250 JUMP JUMPDEST SWAP1 POP SWAP4 SWAP3 POP POP POP JUMP JUMPDEST PUSH2 0x3991 PUSH2 0x3F69 JUMP JUMPDEST PUSH20 0x0 PUSH4 0x1E3B4145 PUSH1 0x34 DUP4 PUSH1 0x40 MLOAD DUP4 PUSH4 0xFFFFFFFF AND PUSH1 0xE0 SHL DUP2 MSTORE PUSH1 0x4 ADD PUSH2 0x39CB SWAP3 SWAP2 SWAP1 PUSH2 0x738A JUMP JUMPDEST PUSH0 PUSH1 0x40 MLOAD DUP1 DUP4 SUB DUP2 DUP7 DUP1 EXTCODESIZE ISZERO DUP1 ISZERO PUSH2 0x39E1 JUMPI PUSH0 DUP1 REVERT JUMPDEST POP GAS DELEGATECALL ISZERO DUP1 ISZERO PUSH2 0x39F3 JUMPI RETURNDATASIZE PUSH0 DUP1 RETURNDATACOPY RETURNDATASIZE PUSH0 REVERT JUMPDEST POP POP POP POP POP JUMP JUMPDEST PUSH0 PUSH1 0x3B PUSH0 SWAP1 SLOAD SWAP1 PUSH2 0x100 EXP SWAP1 DIV PUSH8 0xFFFFFFFFFFFFFFFF AND PUSH8 0xFFFFFFFFFFFFFFFF AND SWAP1 POP SWAP1 JUMP JUMPDEST PUSH20 0x0 PUSH4 0x1913F161 PUSH1 0x34 PUSH1 0x36 PUSH1 0x35 PUSH0 DUP8 PUSH20 0xFFFFFFFFFFFFFFFFFFFFFFFFFFFFFFFFFFFFFFFF AND PUSH20 0xFFFFFFFFFFFFFFFFFFFFFFFFFFFFFFFFFFFFFFFF AND DUP2 MSTORE PUSH1 0x20 ADD SWAP1 DUP2 MSTORE PUSH1 0x20 ADD PUSH0 KECCAK256 PUSH1 0x40 MLOAD DUP1 PUSH1 0x80 ADD PUSH1 0x40 MSTORE DUP1 DUP11 PUSH20 0xFFFFFFFFFFFFFFFFFFFFFFFFFFFFFFFFFFFFFFFF AND DUP2 MSTORE PUSH1 0x20 ADD DUP10 DUP2 MSTORE PUSH1 0x20 ADD DUP9 PUSH20 0xFFFFFFFFFFFFFFFFFFFFFFFFFFFFFFFFFFFFFFFF AND DUP2 MSTORE PUSH1 0x20 ADD DUP8 PUSH2 0xFFFF AND DUP2 MSTORE POP PUSH1 0x40 MLOAD DUP6 PUSH4 0xFFFFFFFF AND PUSH1 0xE0 SHL DUP2 MSTORE PUSH1 0x4 ADD PUSH2 0x3AEB SWAP5 SWAP4 SWAP3 SWAP2 SWAP1 PUSH2 0x5FCD JUMP JUMPDEST PUSH0 PUSH1 0x40 MLOAD DUP1 DUP4 SUB DUP2 DUP7 DUP1 EXTCODESIZE ISZERO DUP1 ISZERO PUSH2 0x3B01 JUMPI PUSH0 DUP1 REVERT JUMPDEST POP GAS DELEGATECALL ISZERO DUP1 ISZERO PUSH2 0x3B13 JUMPI RETURNDATASIZE PUSH0 DUP1 RETURNDATACOPY RETURNDATASIZE PUSH0 REVERT JUMPDEST POP POP POP POP POP POP POP POP JUMP JUMPDEST PUSH0 PUSH1 0x38 PUSH0 DUP4 PUSH20 0xFFFFFFFFFFFFFFFFFFFFFFFFFFFFFFFFFFFFFFFF AND PUSH20 0xFFFFFFFFFFFFFFFFFFFFFFFFFFFFFFFFFFFFFFFF AND DUP2 MSTORE PUSH1 0x20 ADD SWAP1 DUP2 MSTORE PUSH1 0x20 ADD PUSH0 KECCAK256 PUSH0 SWAP1 SLOAD SWAP1 PUSH2 0x100 EXP SWAP1 DIV PUSH1 0xFF AND PUSH1 0xFF AND SWAP1 POP SWAP2 SWAP1 POP JUMP JUMPDEST PUSH0 DUP9 PUSH20 0xFFFFFFFFFFFFFFFFFFFFFFFFFFFFFFFFFFFFFFFF AND PUSH4 0xD505ACCF CALLER ADDRESS DUP12 DUP10 DUP10 DUP10 DUP10 PUSH1 0x40 MLOAD DUP9 PUSH4 0xFFFFFFFF AND PUSH1 0xE0 SHL DUP2 MSTORE PUSH1 0x4 ADD PUSH2 0x3BB8 SWAP8 SWAP7 SWAP6 SWAP5 SWAP4 SWAP3 SWAP2 SWAP1 PUSH2 0x5EF7 JUMP JUMPDEST PUSH0 PUSH1 0x40 MLOAD DUP1 DUP4 SUB DUP2 PUSH0 DUP8 DUP1 EXTCODESIZE ISZERO DUP1 ISZERO PUSH2 0x3BCF JUMPI PUSH0 DUP1 REVERT JUMPDEST POP GAS CALL ISZERO DUP1 ISZERO PUSH2 0x3BE1 JUMPI RETURNDATASIZE PUSH0 DUP1 RETURNDATACOPY RETURNDATASIZE PUSH0 REVERT JUMPDEST POP POP POP POP PUSH0 PUSH1 0x40 MLOAD DUP1 PUSH1 0xA0 ADD PUSH1 0x40 MSTORE DUP1 DUP12 PUSH20 0xFFFFFFFFFFFFFFFFFFFFFFFFFFFFFFFFFFFFFFFF AND DUP2 MSTORE PUSH1 0x20 ADD DUP11 DUP2 MSTORE PUSH1 0x20 ADD DUP10 PUSH1 0x2 DUP2 GT ISZERO PUSH2 0x3C26 JUMPI PUSH2 0x3C25 PUSH2 0x611F JUMP JUMPDEST JUMPDEST PUSH1 0x2 DUP2 GT ISZERO PUSH2 0x3C38 JUMPI PUSH2 0x3C37 PUSH2 0x611F JUMP JUMPDEST JUMPDEST DUP2 MSTORE PUSH1 0x20 ADD DUP9 PUSH20 0xFFFFFFFFFFFFFFFFFFFFFFFFFFFFFFFFFFFFFFFF AND DUP2 MSTORE PUSH1 0x20 ADD PUSH0 ISZERO ISZERO DUP2 MSTORE POP SWAP1 POP PUSH20 0x0 PUSH4 0x40E95DE6 PUSH1 0x34 PUSH1 0x36 PUSH1 0x35 PUSH0 DUP13 PUSH20 0xFFFFFFFFFFFFFFFFFFFFFFFFFFFFFFFFFFFFFFFF AND PUSH20 0xFFFFFFFFFFFFFFFFFFFFFFFFFFFFFFFFFFFFFFFF AND DUP2 MSTORE PUSH1 0x20 ADD SWAP1 DUP2 MSTORE PUSH1 0x20 ADD PUSH0 KECCAK256 DUP6 PUSH1 0x40 MLOAD DUP6 PUSH4 0xFFFFFFFF AND PUSH1 0xE0 SHL DUP2 MSTORE PUSH1 0x4 ADD PUSH2 0x3CDC SWAP5 SWAP4 SWAP3 SWAP2 SWAP1 PUSH2 0x61F8 JUMP JUMPDEST PUSH1 0x20 PUSH1 0x40 MLOAD DUP1 DUP4 SUB DUP2 DUP7 GAS DELEGATECALL ISZERO DUP1 ISZERO PUSH2 0x3CF7 JUMPI RETURNDATASIZE PUSH0 DUP1 RETURNDATACOPY RETURNDATASIZE PUSH0 REVERT JUMPDEST POP POP POP POP PUSH1 0x40 MLOAD RETURNDATASIZE PUSH1 0x1F NOT PUSH1 0x1F DUP3 ADD AND DUP3 ADD DUP1 PUSH1 0x40 MSTORE POP DUP2 ADD SWAP1 PUSH2 0x3D1B SWAP2 SWAP1 PUSH2 0x6250 JUMP JUMPDEST SWAP2 POP POP SWAP9 SWAP8 POP POP POP POP POP POP POP POP JUMP JUMPDEST PUSH2 0x3D32 PUSH2 0x3F69 JUMP JUMPDEST PUSH0 PUSH20 0xFFFFFFFFFFFFFFFFFFFFFFFFFFFFFFFFFFFFFFFF AND DUP3 PUSH20 0xFFFFFFFFFFFFFFFFFFFFFFFFFFFFFFFFFFFFFFFF AND EQ ISZERO PUSH1 0x40 MLOAD DUP1 PUSH1 0x40 ADD PUSH1 0x40 MSTORE DUP1 PUSH1 0x2 DUP2 MSTORE PUSH1 0x20 ADD PUSH32 0x3737000000000000000000000000000000000000000000000000000000000000 DUP2 MSTORE POP SWAP1 PUSH2 0x3DD9 JUMPI PUSH1 0x40 MLOAD PUSH32 0x8C379A000000000000000000000000000000000000000000000000000000000 DUP2 MSTORE PUSH1 0x4 ADD PUSH2 0x3DD0 SWAP2 SWAP1 PUSH2 0x6058 JUMP JUMPDEST PUSH1 0x40 MLOAD DUP1 SWAP2 SUB SWAP1 REVERT JUMPDEST POP PUSH0 PUSH1 0x34 PUSH0 DUP5 PUSH20 0xFFFFFFFFFFFFFFFFFFFFFFFFFFFFFFFFFFFFFFFF AND PUSH20 0xFFFFFFFFFFFFFFFFFFFFFFFFFFFFFFFFFFFFFFFF AND DUP2 MSTORE PUSH1 0x20 ADD SWAP1 DUP2 MSTORE PUSH1 0x20 ADD PUSH0 KECCAK256 PUSH1 0x3 ADD PUSH1 0x15 SWAP1 SLOAD SWAP1 PUSH2 0x100 EXP SWAP1 DIV PUSH2 0xFFFF AND PUSH2 0xFFFF AND EQ ISZERO DUP1 PUSH2 0x3E96 JUMPI POP DUP2 PUSH20 0xFFFFFFFFFFFFFFFFFFFFFFFFFFFFFFFFFFFFFFFF AND PUSH1 0x36 PUSH0 DUP1 DUP2 MSTORE PUSH1 0x20 ADD SWAP1 DUP2 MSTORE PUSH1 0x20 ADD PUSH0 KECCAK256 PUSH0 SWAP1 SLOAD SWAP1 PUSH2 0x100 EXP SWAP1 DIV PUSH20 0xFFFFFFFFFFFFFFFFFFFFFFFFFFFFFFFFFFFFFFFF AND PUSH20 0xFFFFFFFFFFFFFFFFFFFFFFFFFFFFFFFFFFFFFFFF AND EQ JUMPDEST PUSH1 0x40 MLOAD DUP1 PUSH1 0x40 ADD PUSH1 0x40 MSTORE DUP1 PUSH1 0x2 DUP2 MSTORE PUSH1 0x20 ADD PUSH32 0x3832000000000000000000000000000000000000000000000000000000000000 DUP2 MSTORE POP SWAP1 PUSH2 0x3F0D JUMPI PUSH1 0x40 MLOAD PUSH32 0x8C379A000000000000000000000000000000000000000000000000000000000 DUP2 MSTORE PUSH1 0x4 ADD PUSH2 0x3F04 SWAP2 SWAP1 PUSH2 0x6058 JUMP JUMPDEST PUSH1 0x40 MLOAD DUP1 SWAP2 SUB SWAP1 REVERT JUMPDEST POP DUP1 PUSH1 0x34 PUSH0 DUP5 PUSH20 0xFFFFFFFFFFFFFFFFFFFFFFFFFFFFFFFFFFFFFFFF AND PUSH20 0xFFFFFFFFFFFFFFFFFFFFFFFFFFFFFFFFFFFFFFFF AND DUP2 MSTORE PUSH1 0x20 ADD SWAP1 DUP2 MSTORE PUSH1 0x20 ADD PUSH0 KECCAK256 PUSH0 ADD DUP2 DUP2 PUSH2 0x3F5A SWAP2 SWAP1 PUSH2 0x7458 JUMP JUMPDEST SWAP1 POP POP POP POP JUMP JUMPDEST PUSH0 PUSH1 0x80 SWAP1 POP SWAP1 JUMP JUMPDEST CALLER PUSH20 0xFFFFFFFFFFFFFFFFFFFFFFFFFFFFFFFFFFFFFFFF AND PUSH32 0x0 PUSH20 0xFFFFFFFFFFFFFFFFFFFFFFFFFFFFFFFFFFFFFFFF AND PUSH4 0x631ADFCA PUSH1 0x40 MLOAD DUP2 PUSH4 0xFFFFFFFF AND PUSH1 0xE0 SHL DUP2 MSTORE PUSH1 0x4 ADD PUSH1 0x20 PUSH1 0x40 MLOAD DUP1 DUP4 SUB DUP2 DUP7 GAS STATICCALL ISZERO DUP1 ISZERO PUSH2 0x3FE9 JUMPI RETURNDATASIZE PUSH0 DUP1 RETURNDATACOPY RETURNDATASIZE PUSH0 REVERT JUMPDEST POP POP POP POP PUSH1 0x40 MLOAD RETURNDATASIZE PUSH1 0x1F NOT PUSH1 0x1F DUP3 ADD AND DUP3 ADD DUP1 PUSH1 0x40 MSTORE POP DUP2 ADD SWAP1 PUSH2 0x400D SWAP2 SWAP1 PUSH2 0x5D4F JUMP JUMPDEST PUSH20 0xFFFFFFFFFFFFFFFFFFFFFFFFFFFFFFFFFFFFFFFF AND EQ PUSH1 0x40 MLOAD DUP1 PUSH1 0x40 ADD PUSH1 0x40 MSTORE DUP1 PUSH1 0x2 DUP2 MSTORE PUSH1 0x20 ADD PUSH32 0x3130000000000000000000000000000000000000000000000000000000000000 DUP2 MSTORE POP SWAP1 PUSH2 0x409B JUMPI PUSH1 0x40 MLOAD PUSH32 0x8C379A000000000000000000000000000000000000000000000000000000000 DUP2 MSTORE PUSH1 0x4 ADD PUSH2 0x4092 SWAP2 SWAP1 PUSH2 0x6058 JUMP JUMPDEST PUSH1 0x40 MLOAD DUP1 SWAP2 SUB SWAP1 REVERT JUMPDEST POP JUMP JUMPDEST PUSH0 DUP1 DUP3 PUSH1 0x3 ADD PUSH1 0x10 SWAP1 SLOAD SWAP1 PUSH2 0x100 EXP SWAP1 DIV PUSH5 0xFFFFFFFFFF AND SWAP1 POP TIMESTAMP DUP2 PUSH5 0xFFFFFFFFFF AND SUB PUSH2 0x4100 JUMPI DUP3 PUSH1 0x2 ADD PUSH0 SWAP1 SLOAD SWAP1 PUSH2 0x100 EXP SWAP1 DIV PUSH16 0xFFFFFFFFFFFFFFFFFFFFFFFFFFFFFFFF AND PUSH16 0xFFFFFFFFFFFFFFFFFFFFFFFFFFFFFFFF AND SWAP2 POP POP PUSH2 0x4183 JUMP JUMPDEST PUSH2 0x417F DUP4 PUSH1 0x2 ADD PUSH0 SWAP1 SLOAD SWAP1 PUSH2 0x100 EXP SWAP1 DIV PUSH16 0xFFFFFFFFFFFFFFFFFFFFFFFFFFFFFFFF AND PUSH16 0xFFFFFFFFFFFFFFFFFFFFFFFFFFFFFFFF AND PUSH2 0x4171 DUP6 PUSH1 0x2 ADD PUSH1 0x10 SWAP1 SLOAD SWAP1 PUSH2 0x100 EXP SWAP1 DIV PUSH16 0xFFFFFFFFFFFFFFFFFFFFFFFFFFFFFFFF AND PUSH16 0xFFFFFFFFFFFFFFFFFFFFFFFFFFFFFFFF AND DUP5 PUSH2 0x4585 JUMP JUMPDEST PUSH2 0x4599 SWAP1 SWAP2 SWAP1 PUSH4 0xFFFFFFFF AND JUMP JUMPDEST SWAP2 POP POP JUMPDEST SWAP2 SWAP1 POP JUMP JUMPDEST PUSH32 0x0 PUSH20 0xFFFFFFFFFFFFFFFFFFFFFFFFFFFFFFFFFFFFFFFF AND PUSH4 0x707CD716 PUSH1 0x40 MLOAD DUP2 PUSH4 0xFFFFFFFF AND PUSH1 0xE0 SHL DUP2 MSTORE PUSH1 0x4 ADD PUSH1 0x20 PUSH1 0x40 MLOAD DUP1 DUP4 SUB DUP2 DUP7 GAS STATICCALL ISZERO DUP1 ISZERO PUSH2 0x41F1 JUMPI RETURNDATASIZE PUSH0 DUP1 RETURNDATACOPY RETURNDATASIZE PUSH0 REVERT JUMPDEST POP POP POP POP PUSH1 0x40 MLOAD RETURNDATASIZE PUSH1 0x1F NOT PUSH1 0x1F DUP3 ADD AND DUP3 ADD DUP1 PUSH1 0x40 MSTORE POP DUP2 ADD SWAP1 PUSH2 0x4215 SWAP2 SWAP1 PUSH2 0x5D4F JUMP JUMPDEST PUSH20 0xFFFFFFFFFFFFFFFFFFFFFFFFFFFFFFFFFFFFFFFF AND PUSH4 0x726600CE CALLER PUSH1 0x40 MLOAD DUP3 PUSH4 0xFFFFFFFF AND PUSH1 0xE0 SHL DUP2 MSTORE PUSH1 0x4 ADD PUSH2 0x424D SWAP2 SWAP1 PUSH2 0x5122 JUMP JUMPDEST PUSH1 0x20 PUSH1 0x40 MLOAD DUP1 DUP4 SUB DUP2 DUP7 GAS STATICCALL ISZERO DUP1 ISZERO PUSH2 0x4268 JUMPI RETURNDATASIZE PUSH0 DUP1 RETURNDATACOPY RETURNDATASIZE PUSH0 REVERT JUMPDEST POP POP POP POP PUSH1 0x40 MLOAD RETURNDATASIZE PUSH1 0x1F NOT PUSH1 0x1F DUP3 ADD AND DUP3 ADD DUP1 PUSH1 0x40 MSTORE POP DUP2 ADD SWAP1 PUSH2 0x428C SWAP2 SWAP1 PUSH2 0x6741 JUMP JUMPDEST PUSH1 0x40 MLOAD DUP1 PUSH1 0x40 ADD PUSH1 0x40 MSTORE DUP1 PUSH1 0x1 DUP2 MSTORE PUSH1 0x20 ADD PUSH32 0x3600000000000000000000000000000000000000000000000000000000000000 DUP2 MSTORE POP SWAP1 PUSH2 0x4303 JUMPI PUSH1 0x40 MLOAD PUSH32 0x8C379A000000000000000000000000000000000000000000000000000000000 DUP2 MSTORE PUSH1 0x4 ADD PUSH2 0x42FA SWAP2 SWAP1 PUSH2 0x6058 JUMP JUMPDEST PUSH1 0x40 MLOAD DUP1 SWAP2 SUB SWAP1 REVERT JUMPDEST POP JUMP JUMPDEST PUSH0 PUSH1 0x1 SWAP1 POP SWAP1 JUMP JUMPDEST PUSH0 DUP1 ADDRESS EXTCODESIZE SWAP1 POP PUSH0 DUP2 EQ SWAP2 POP POP SWAP1 JUMP JUMPDEST PUSH32 0x0 PUSH20 0xFFFFFFFFFFFFFFFFFFFFFFFFFFFFFFFFFFFFFFFF AND PUSH4 0x707CD716 PUSH1 0x40 MLOAD DUP2 PUSH4 0xFFFFFFFF AND PUSH1 0xE0 SHL DUP2 MSTORE PUSH1 0x4 ADD PUSH1 0x20 PUSH1 0x40 MLOAD DUP1 DUP4 SUB DUP2 DUP7 GAS STATICCALL ISZERO DUP1 ISZERO PUSH2 0x4386 JUMPI RETURNDATASIZE PUSH0 DUP1 RETURNDATACOPY RETURNDATASIZE PUSH0 REVERT JUMPDEST POP POP POP POP PUSH1 0x40 MLOAD RETURNDATASIZE PUSH1 0x1F NOT PUSH1 0x1F DUP3 ADD AND DUP3 ADD DUP1 PUSH1 0x40 MSTORE POP DUP2 ADD SWAP1 PUSH2 0x43AA SWAP2 SWAP1 PUSH2 0x5D4F JUMP JUMPDEST PUSH20 0xFFFFFFFFFFFFFFFFFFFFFFFFFFFFFFFFFFFFFFFF AND PUSH4 0x7BE53CA1 CALLER PUSH1 0x40 MLOAD DUP3 PUSH4 0xFFFFFFFF AND PUSH1 0xE0 SHL DUP2 MSTORE PUSH1 0x4 ADD PUSH2 0x43E2 SWAP2 SWAP1 PUSH2 0x5122 JUMP JUMPDEST PUSH1 0x20 PUSH1 0x40 MLOAD DUP1 DUP4 SUB DUP2 DUP7 GAS STATICCALL ISZERO DUP1 ISZERO PUSH2 0x43FD JUMPI RETURNDATASIZE PUSH0 DUP1 RETURNDATACOPY RETURNDATASIZE PUSH0 REVERT JUMPDEST POP POP POP POP PUSH1 0x40 MLOAD RETURNDATASIZE PUSH1 0x1F NOT PUSH1 0x1F DUP3 ADD AND DUP3 ADD DUP1 PUSH1 0x40 MSTORE POP DUP2 ADD SWAP1 PUSH2 0x4421 SWAP2 SWAP1 PUSH2 0x6741 JUMP JUMPDEST PUSH1 0x40 MLOAD DUP1 PUSH1 0x40 ADD PUSH1 0x40 MSTORE DUP1 PUSH1 0x1 DUP2 MSTORE PUSH1 0x20 ADD PUSH32 0x3100000000000000000000000000000000000000000000000000000000000000 DUP2 MSTORE POP SWAP1 PUSH2 0x4498 JUMPI PUSH1 0x40 MLOAD PUSH32 0x8C379A000000000000000000000000000000000000000000000000000000000 DUP2 MSTORE PUSH1 0x4 ADD PUSH2 0x448F SWAP2 SWAP1 PUSH2 0x6058 JUMP JUMPDEST PUSH1 0x40 MLOAD DUP1 SWAP2 SUB SWAP1 REVERT JUMPDEST POP JUMP JUMPDEST PUSH0 DUP1 DUP3 PUSH1 0x3 ADD PUSH1 0x10 SWAP1 SLOAD SWAP1 PUSH2 0x100 EXP SWAP1 DIV PUSH5 0xFFFFFFFFFF AND SWAP1 POP TIMESTAMP DUP2 PUSH5 0xFFFFFFFFFF AND SUB PUSH2 0x44FD JUMPI DUP3 PUSH1 0x1 ADD PUSH0 SWAP1 SLOAD SWAP1 PUSH2 0x100 EXP SWAP1 DIV PUSH16 0xFFFFFFFFFFFFFFFFFFFFFFFFFFFFFFFF AND PUSH16 0xFFFFFFFFFFFFFFFFFFFFFFFFFFFFFFFF AND SWAP2 POP POP PUSH2 0x4580 JUMP JUMPDEST PUSH2 0x457C DUP4 PUSH1 0x1 ADD PUSH0 SWAP1 SLOAD SWAP1 PUSH2 0x100 EXP SWAP1 DIV PUSH16 0xFFFFFFFFFFFFFFFFFFFFFFFFFFFFFFFF AND PUSH16 0xFFFFFFFFFFFFFFFFFFFFFFFFFFFFFFFF AND PUSH2 0x456E DUP6 PUSH1 0x1 ADD PUSH1 0x10 SWAP1 SLOAD SWAP1 PUSH2 0x100 EXP SWAP1 DIV PUSH16 0xFFFFFFFFFFFFFFFFFFFFFFFFFFFFFFFF AND PUSH16 0xFFFFFFFFFFFFFFFFFFFFFFFFFFFFFFFF AND DUP5 PUSH2 0x45E1 JUMP JUMPDEST PUSH2 0x4599 SWAP1 SWAP2 SWAP1 PUSH4 0xFFFFFFFF AND JUMP JUMPDEST SWAP2 POP POP JUMPDEST SWAP2 SWAP1 POP JUMP JUMPDEST PUSH0 PUSH2 0x4591 DUP4 DUP4 TIMESTAMP PUSH2 0x463B JUMP JUMPDEST SWAP1 POP SWAP3 SWAP2 POP POP JUMP JUMPDEST PUSH0 DUP2 PUSH12 0x19D971E4FE8401E74000000 PUSH0 NOT SUB DIV DUP4 GT ISZERO DUP3 ISZERO OR PUSH2 0x45BA JUMPI PUSH0 DUP1 REVERT JUMPDEST PUSH12 0x33B2E3C9FD0803CE8000000 PUSH12 0x19D971E4FE8401E74000000 DUP4 DUP6 MUL ADD DIV SWAP1 POP SWAP3 SWAP2 POP POP JUMP JUMPDEST PUSH0 DUP1 DUP3 PUSH5 0xFFFFFFFFFF AND TIMESTAMP PUSH2 0x45F6 SWAP2 SWAP1 PUSH2 0x6F28 JUMP JUMPDEST DUP5 PUSH2 0x4601 SWAP2 SWAP1 PUSH2 0x7466 JUMP JUMPDEST SWAP1 POP PUSH4 0x1E13380 DUP2 DUP2 PUSH2 0x4617 JUMPI PUSH2 0x4616 PUSH2 0x74A7 JUMP JUMPDEST JUMPDEST DIV SWAP1 POP DUP1 PUSH12 0x33B2E3C9FD0803CE8000000 PUSH2 0x4632 SWAP2 SWAP1 PUSH2 0x74D4 JUMP JUMPDEST SWAP2 POP POP SWAP3 SWAP2 POP POP JUMP JUMPDEST PUSH0 DUP1 DUP4 PUSH5 0xFFFFFFFFFF AND DUP4 PUSH2 0x4650 SWAP2 SWAP1 PUSH2 0x6F28 JUMP JUMPDEST SWAP1 POP PUSH0 DUP2 SUB PUSH2 0x466E JUMPI PUSH12 0x33B2E3C9FD0803CE8000000 SWAP2 POP POP PUSH2 0x479A JUMP JUMPDEST PUSH0 DUP1 PUSH0 DUP1 PUSH1 0x1 DUP6 SUB SWAP4 POP PUSH1 0x2 DUP6 GT PUSH2 0x4686 JUMPI PUSH0 PUSH2 0x468B JUMP JUMPDEST PUSH1 0x2 DUP6 SUB JUMPDEST SWAP3 POP PUSH4 0x1E13380 DUP1 MUL PUSH2 0x46A7 DUP11 DUP12 PUSH2 0x4599 SWAP1 SWAP2 SWAP1 PUSH4 0xFFFFFFFF AND JUMP JUMPDEST DUP2 PUSH2 0x46B5 JUMPI PUSH2 0x46B4 PUSH2 0x74A7 JUMP JUMPDEST JUMPDEST DIV SWAP2 POP PUSH4 0x1E13380 PUSH2 0x46D0 DUP11 DUP5 PUSH2 0x4599 SWAP1 SWAP2 SWAP1 PUSH4 0xFFFFFFFF AND JUMP JUMPDEST DUP2 PUSH2 0x46DE JUMPI PUSH2 0x46DD PUSH2 0x74A7 JUMP JUMPDEST JUMPDEST DIV SWAP1 POP PUSH0 DUP3 DUP6 DUP8 PUSH2 0x46EF SWAP2 SWAP1 PUSH2 0x7466 JUMP JUMPDEST PUSH2 0x46F9 SWAP2 SWAP1 PUSH2 0x7466 JUMP JUMPDEST SWAP1 POP PUSH1 0x2 DUP2 DUP2 PUSH2 0x470C JUMPI PUSH2 0x470B PUSH2 0x74A7 JUMP JUMPDEST JUMPDEST DIV SWAP1 POP PUSH0 DUP3 DUP6 DUP8 DUP10 PUSH2 0x471E SWAP2 SWAP1 PUSH2 0x7466 JUMP JUMPDEST PUSH2 0x4728 SWAP2 SWAP1 PUSH2 0x7466 JUMP JUMPDEST PUSH2 0x4732 SWAP2 SWAP1 PUSH2 0x7466 JUMP JUMPDEST SWAP1 POP PUSH1 0x6 DUP2 DUP2 PUSH2 0x4745 JUMPI PUSH2 0x4744 PUSH2 0x74A7 JUMP JUMPDEST JUMPDEST DIV SWAP1 POP DUP1 DUP3 PUSH4 0x1E13380 DUP10 DUP15 PUSH2 0x475B SWAP2 SWAP1 PUSH2 0x7466 JUMP JUMPDEST PUSH2 0x4765 SWAP2 SWAP1 PUSH2 0x7507 JUMP JUMPDEST PUSH12 0x33B2E3C9FD0803CE8000000 PUSH2 0x477C SWAP2 SWAP1 PUSH2 0x74D4 JUMP JUMPDEST PUSH2 0x4786 SWAP2 SWAP1 PUSH2 0x74D4 JUMP JUMPDEST PUSH2 0x4790 SWAP2 SWAP1 PUSH2 0x74D4 JUMP JUMPDEST SWAP8 POP POP POP POP POP POP POP POP JUMPDEST SWAP4 SWAP3 POP POP POP JUMP JUMPDEST PUSH1 0x40 MLOAD DUP1 PUSH2 0x1E0 ADD PUSH1 0x40 MSTORE DUP1 PUSH2 0x47B5 PUSH2 0x4961 JUMP JUMPDEST DUP2 MSTORE PUSH1 0x20 ADD PUSH0 PUSH16 0xFFFFFFFFFFFFFFFFFFFFFFFFFFFFFFFF AND DUP2 MSTORE PUSH1 0x20 ADD PUSH0 PUSH16 0xFFFFFFFFFFFFFFFFFFFFFFFFFFFFFFFF AND DUP2 MSTORE PUSH1 0x20 ADD PUSH0 PUSH16 0xFFFFFFFFFFFFFFFFFFFFFFFFFFFFFFFF AND DUP2 MSTORE PUSH1 0x20 ADD PUSH0 PUSH16 0xFFFFFFFFFFFFFFFFFFFFFFFFFFFFFFFF AND DUP2 MSTORE PUSH1 0x20 ADD PUSH0 PUSH16 0xFFFFFFFFFFFFFFFFFFFFFFFFFFFFFFFF AND DUP2 MSTORE PUSH1 0x20 ADD PUSH0 PUSH5 0xFFFFFFFFFF AND DUP2 MSTORE PUSH1 0x20 ADD PUSH0 PUSH2 0xFFFF AND DUP2 MSTORE PUSH1 0x20 ADD PUSH0 PUSH20 0xFFFFFFFFFFFFFFFFFFFFFFFFFFFFFFFFFFFFFFFF AND DUP2 MSTORE PUSH1 0x20 ADD PUSH0 PUSH20 0xFFFFFFFFFFFFFFFFFFFFFFFFFFFFFFFFFFFFFFFF AND DUP2 MSTORE PUSH1 0x20 ADD PUSH0 PUSH20 0xFFFFFFFFFFFFFFFFFFFFFFFFFFFFFFFFFFFFFFFF AND DUP2 MSTORE PUSH1 0x20 ADD PUSH0 PUSH20 0xFFFFFFFFFFFFFFFFFFFFFFFFFFFFFFFFFFFFFFFF AND DUP2 MSTORE PUSH1 0x20 ADD PUSH0 PUSH16 0xFFFFFFFFFFFFFFFFFFFFFFFFFFFFFFFF AND DUP2 MSTORE PUSH1 0x20 ADD PUSH0 PUSH16 0xFFFFFFFFFFFFFFFFFFFFFFFFFFFFFFFF AND DUP2 MSTORE PUSH1 0x20 ADD PUSH0 PUSH16 0xFFFFFFFFFFFFFFFFFFFFFFFFFFFFFFFF AND DUP2 MSTORE POP SWAP1 JUMP JUMPDEST PUSH1 0x40 MLOAD DUP1 PUSH1 0x20 ADD PUSH1 0x40 MSTORE DUP1 PUSH0 DUP2 MSTORE POP SWAP1 JUMP JUMPDEST PUSH1 0x40 MLOAD DUP1 PUSH1 0xA0 ADD PUSH1 0x40 MSTORE DUP1 PUSH0 PUSH2 0xFFFF AND DUP2 MSTORE PUSH1 0x20 ADD PUSH0 PUSH2 0xFFFF AND DUP2 MSTORE PUSH1 0x20 ADD PUSH0 PUSH2 0xFFFF AND DUP2 MSTORE PUSH1 0x20 ADD PUSH0 PUSH20 0xFFFFFFFFFFFFFFFFFFFFFFFFFFFFFFFFFFFFFFFF AND DUP2 MSTORE PUSH1 0x20 ADD PUSH1 0x60 DUP2 MSTORE POP SWAP1 JUMP JUMPDEST PUSH1 0x40 MLOAD DUP1 PUSH1 0x20 ADD PUSH1 0x40 MSTORE DUP1 PUSH0 DUP2 MSTORE POP SWAP1 JUMP JUMPDEST PUSH0 PUSH1 0x40 MLOAD SWAP1 POP SWAP1 JUMP JUMPDEST PUSH0 DUP1 REVERT JUMPDEST PUSH0 DUP1 REVERT JUMPDEST PUSH0 PUSH20 0xFFFFFFFFFFFFFFFFFFFFFFFFFFFFFFFFFFFFFFFF DUP3 AND SWAP1 POP SWAP2 SWAP1 POP JUMP JUMPDEST PUSH0 PUSH2 0x49AD DUP3 PUSH2 0x4984 JUMP JUMPDEST SWAP1 POP SWAP2 SWAP1 POP JUMP JUMPDEST PUSH2 0x49BD DUP2 PUSH2 0x49A3 JUMP JUMPDEST DUP2 EQ PUSH2 0x49C7 JUMPI PUSH0 DUP1 REVERT JUMPDEST POP JUMP JUMPDEST PUSH0 DUP2 CALLDATALOAD SWAP1 POP PUSH2 0x49D8 DUP2 PUSH2 0x49B4 JUMP JUMPDEST SWAP3 SWAP2 POP POP JUMP JUMPDEST PUSH0 DUP2 SWAP1 POP SWAP2 SWAP1 POP JUMP JUMPDEST PUSH2 0x49F0 DUP2 PUSH2 0x49DE JUMP JUMPDEST DUP2 EQ PUSH2 0x49FA JUMPI PUSH0 DUP1 REVERT JUMPDEST POP JUMP JUMPDEST PUSH0 DUP2 CALLDATALOAD SWAP1 POP PUSH2 0x4A0B DUP2 PUSH2 0x49E7 JUMP JUMPDEST SWAP3 SWAP2 POP POP JUMP JUMPDEST PUSH0 DUP2 ISZERO ISZERO SWAP1 POP SWAP2 SWAP1 POP JUMP JUMPDEST PUSH2 0x4A25 DUP2 PUSH2 0x4A11 JUMP JUMPDEST DUP2 EQ PUSH2 0x4A2F JUMPI PUSH0 DUP1 REVERT JUMPDEST POP JUMP JUMPDEST PUSH0 DUP2 CALLDATALOAD SWAP1 POP PUSH2 0x4A40 DUP2 PUSH2 0x4A1C JUMP JUMPDEST SWAP3 SWAP2 POP POP JUMP JUMPDEST PUSH0 DUP1 PUSH0 DUP1 PUSH0 PUSH1 0xA0 DUP7 DUP9 SUB SLT ISZERO PUSH2 0x4A5F JUMPI PUSH2 0x4A5E PUSH2 0x497C JUMP JUMPDEST JUMPDEST PUSH0 PUSH2 0x4A6C DUP9 DUP3 DUP10 ADD PUSH2 0x49CA JUMP JUMPDEST SWAP6 POP POP PUSH1 0x20 PUSH2 0x4A7D DUP9 DUP3 DUP10 ADD PUSH2 0x49CA JUMP JUMPDEST SWAP5 POP POP PUSH1 0x40 PUSH2 0x4A8E DUP9 DUP3 DUP10 ADD PUSH2 0x49CA JUMP JUMPDEST SWAP4 POP POP PUSH1 0x60 PUSH2 0x4A9F DUP9 DUP3 DUP10 ADD PUSH2 0x49FD JUMP JUMPDEST SWAP3 POP POP PUSH1 0x80 PUSH2 0x4AB0 DUP9 DUP3 DUP10 ADD PUSH2 0x4A32 JUMP JUMPDEST SWAP2 POP POP SWAP3 SWAP6 POP SWAP3 SWAP6 SWAP1 SWAP4 POP JUMP JUMPDEST PUSH2 0x4AC6 DUP2 PUSH2 0x49DE JUMP JUMPDEST DUP3 MSTORE POP POP JUMP JUMPDEST PUSH0 PUSH1 0x20 DUP3 ADD SWAP1 POP PUSH2 0x4ADF PUSH0 DUP4 ADD DUP5 PUSH2 0x4ABD JUMP JUMPDEST SWAP3 SWAP2 POP POP JUMP JUMPDEST PUSH0 PUSH2 0xFFFF DUP3 AND SWAP1 POP SWAP2 SWAP1 POP JUMP JUMPDEST PUSH2 0x4AFB DUP2 PUSH2 0x4AE5 JUMP JUMPDEST DUP2 EQ PUSH2 0x4B05 JUMPI PUSH0 DUP1 REVERT JUMPDEST POP JUMP JUMPDEST PUSH0 DUP2 CALLDATALOAD SWAP1 POP PUSH2 0x4B16 DUP2 PUSH2 0x4AF2 JUMP JUMPDEST SWAP3 SWAP2 POP POP JUMP JUMPDEST PUSH0 PUSH1 0xFF DUP3 AND SWAP1 POP SWAP2 SWAP1 POP JUMP JUMPDEST PUSH2 0x4B31 DUP2 PUSH2 0x4B1C JUMP JUMPDEST DUP2 EQ PUSH2 0x4B3B JUMPI PUSH0 DUP1 REVERT JUMPDEST POP JUMP JUMPDEST PUSH0 DUP2 CALLDATALOAD SWAP1 POP PUSH2 0x4B4C DUP2 PUSH2 0x4B28 JUMP JUMPDEST SWAP3 SWAP2 POP POP JUMP JUMPDEST PUSH0 DUP2 SWAP1 POP SWAP2 SWAP1 POP JUMP JUMPDEST PUSH2 0x4B64 DUP2 PUSH2 0x4B52 JUMP JUMPDEST DUP2 EQ PUSH2 0x4B6E JUMPI PUSH0 DUP1 REVERT JUMPDEST POP JUMP JUMPDEST PUSH0 DUP2 CALLDATALOAD SWAP1 POP PUSH2 0x4B7F DUP2 PUSH2 0x4B5B JUMP JUMPDEST SWAP3 SWAP2 POP POP JUMP JUMPDEST PUSH0 DUP1 PUSH0 DUP1 PUSH0 DUP1 PUSH0 DUP1 PUSH2 0x100 DUP10 DUP12 SUB SLT ISZERO PUSH2 0x4BA2 JUMPI PUSH2 0x4BA1 PUSH2 0x497C JUMP JUMPDEST JUMPDEST PUSH0 PUSH2 0x4BAF DUP12 DUP3 DUP13 ADD PUSH2 0x49CA JUMP JUMPDEST SWAP9 POP POP PUSH1 0x20 PUSH2 0x4BC0 DUP12 DUP3 DUP13 ADD PUSH2 0x49FD JUMP JUMPDEST SWAP8 POP POP PUSH1 0x40 PUSH2 0x4BD1 DUP12 DUP3 DUP13 ADD PUSH2 0x49CA JUMP JUMPDEST SWAP7 POP POP PUSH1 0x60 PUSH2 0x4BE2 DUP12 DUP3 DUP13 ADD PUSH2 0x4B08 JUMP JUMPDEST SWAP6 POP POP PUSH1 0x80 PUSH2 0x4BF3 DUP12 DUP3 DUP13 ADD PUSH2 0x49FD JUMP JUMPDEST SWAP5 POP POP PUSH1 0xA0 PUSH2 0x4C04 DUP12 DUP3 DUP13 ADD PUSH2 0x4B3E JUMP JUMPDEST SWAP4 POP POP PUSH1 0xC0 PUSH2 0x4C15 DUP12 DUP3 DUP13 ADD PUSH2 0x4B71 JUMP JUMPDEST SWAP3 POP POP PUSH1 0xE0 PUSH2 0x4C26 DUP12 DUP3 DUP13 ADD PUSH2 0x4B71 JUMP JUMPDEST SWAP2 POP POP SWAP3 SWAP6 SWAP9 POP SWAP3 SWAP6 SWAP9 SWAP1 SWAP4 SWAP7 POP JUMP JUMPDEST PUSH0 DUP2 SWAP1 POP SWAP2 SWAP1 POP JUMP JUMPDEST PUSH0 PUSH2 0x4C59 PUSH2 0x4C54 PUSH2 0x4C4F DUP5 PUSH2 0x4984 JUMP JUMPDEST PUSH2 0x4C36 JUMP JUMPDEST PUSH2 0x4984 JUMP JUMPDEST SWAP1 POP SWAP2 SWAP1 POP JUMP JUMPDEST PUSH0 PUSH2 0x4C6A DUP3 PUSH2 0x4C3F JUMP JUMPDEST SWAP1 POP SWAP2 SWAP1 POP JUMP JUMPDEST PUSH0 PUSH2 0x4C7B DUP3 PUSH2 0x4C60 JUMP JUMPDEST SWAP1 POP SWAP2 SWAP1 POP JUMP JUMPDEST PUSH2 0x4C8B DUP2 PUSH2 0x4C71 JUMP JUMPDEST DUP3 MSTORE POP POP JUMP JUMPDEST PUSH0 PUSH1 0x20 DUP3 ADD SWAP1 POP PUSH2 0x4CA4 PUSH0 DUP4 ADD DUP5 PUSH2 0x4C82 JUMP JUMPDEST SWAP3 SWAP2 POP POP JUMP JUMPDEST PUSH0 PUSH16 0xFFFFFFFFFFFFFFFFFFFFFFFFFFFFFFFF DUP3 AND SWAP1 POP SWAP2 SWAP1 POP JUMP JUMPDEST PUSH2 0x4CCE DUP2 PUSH2 0x4CAA JUMP JUMPDEST DUP3 MSTORE POP POP JUMP JUMPDEST PUSH0 PUSH1 0x20 DUP3 ADD SWAP1 POP PUSH2 0x4CE7 PUSH0 DUP4 ADD DUP5 PUSH2 0x4CC5 JUMP JUMPDEST SWAP3 SWAP2 POP POP JUMP JUMPDEST PUSH0 DUP1 PUSH1 0x40 DUP4 DUP6 SUB SLT ISZERO PUSH2 0x4D03 JUMPI PUSH2 0x4D02 PUSH2 0x497C JUMP JUMPDEST JUMPDEST PUSH0 PUSH2 0x4D10 DUP6 DUP3 DUP7 ADD PUSH2 0x49CA JUMP JUMPDEST SWAP3 POP POP PUSH1 0x20 PUSH2 0x4D21 DUP6 DUP3 DUP7 ADD PUSH2 0x49CA JUMP JUMPDEST SWAP2 POP POP SWAP3 POP SWAP3 SWAP1 POP JUMP JUMPDEST PUSH0 PUSH1 0x20 DUP3 DUP5 SUB SLT ISZERO PUSH2 0x4D40 JUMPI PUSH2 0x4D3F PUSH2 0x497C JUMP JUMPDEST JUMPDEST PUSH0 PUSH2 0x4D4D DUP5 DUP3 DUP6 ADD PUSH2 0x4B3E JUMP JUMPDEST SWAP2 POP POP SWAP3 SWAP2 POP POP JUMP JUMPDEST PUSH0 DUP1 PUSH0 PUSH1 0x60 DUP5 DUP7 SUB SLT ISZERO PUSH2 0x4D6D JUMPI PUSH2 0x4D6C PUSH2 0x497C JUMP JUMPDEST JUMPDEST PUSH0 PUSH2 0x4D7A DUP7 DUP3 DUP8 ADD PUSH2 0x49CA JUMP JUMPDEST SWAP4 POP POP PUSH1 0x20 PUSH2 0x4D8B DUP7 DUP3 DUP8 ADD PUSH2 0x49FD JUMP JUMPDEST SWAP3 POP POP PUSH1 0x40 PUSH2 0x4D9C DUP7 DUP3 DUP8 ADD PUSH2 0x49FD JUMP JUMPDEST SWAP2 POP POP SWAP3 POP SWAP3 POP SWAP3 JUMP JUMPDEST PUSH0 PUSH1 0x20 DUP3 DUP5 SUB SLT ISZERO PUSH2 0x4DBB JUMPI PUSH2 0x4DBA PUSH2 0x497C JUMP JUMPDEST JUMPDEST PUSH0 PUSH2 0x4DC8 DUP5 DUP3 DUP6 ADD PUSH2 0x49FD JUMP JUMPDEST SWAP2 POP POP SWAP3 SWAP2 POP POP JUMP JUMPDEST PUSH0 PUSH1 0x20 DUP3 DUP5 SUB SLT ISZERO PUSH2 0x4DE6 JUMPI PUSH2 0x4DE5 PUSH2 0x497C JUMP JUMPDEST JUMPDEST PUSH0 PUSH2 0x4DF3 DUP5 DUP3 DUP6 ADD PUSH2 0x49CA JUMP JUMPDEST SWAP2 POP POP SWAP3 SWAP2 POP POP JUMP JUMPDEST PUSH2 0x4E05 DUP2 PUSH2 0x49DE JUMP JUMPDEST DUP3 MSTORE POP POP JUMP JUMPDEST PUSH1 0x20 DUP3 ADD PUSH0 DUP3 ADD MLOAD PUSH2 0x4E1F PUSH0 DUP6 ADD DUP3 PUSH2 0x4DFC JUMP JUMPDEST POP POP POP POP JUMP JUMPDEST PUSH2 0x4E2E DUP2 PUSH2 0x4CAA JUMP JUMPDEST DUP3 MSTORE POP POP JUMP JUMPDEST PUSH0 PUSH5 0xFFFFFFFFFF DUP3 AND SWAP1 POP SWAP2 SWAP1 POP JUMP JUMPDEST PUSH2 0x4E4D DUP2 PUSH2 0x4E34 JUMP JUMPDEST DUP3 MSTORE POP POP JUMP JUMPDEST PUSH2 0x4E5C DUP2 PUSH2 0x4AE5 JUMP JUMPDEST DUP3 MSTORE POP POP JUMP JUMPDEST PUSH2 0x4E6B DUP2 PUSH2 0x49A3 JUMP JUMPDEST DUP3 MSTORE POP POP JUMP JUMPDEST PUSH2 0x1E0 DUP3 ADD PUSH0 DUP3 ADD MLOAD PUSH2 0x4E86 PUSH0 DUP6 ADD DUP3 PUSH2 0x4E0B JUMP JUMPDEST POP PUSH1 0x20 DUP3 ADD MLOAD PUSH2 0x4E99 PUSH1 0x20 DUP6 ADD DUP3 PUSH2 0x4E25 JUMP JUMPDEST POP PUSH1 0x40 DUP3 ADD MLOAD PUSH2 0x4EAC PUSH1 0x40 DUP6 ADD DUP3 PUSH2 0x4E25 JUMP JUMPDEST POP PUSH1 0x60 DUP3 ADD MLOAD PUSH2 0x4EBF PUSH1 0x60 DUP6 ADD DUP3 PUSH2 0x4E25 JUMP JUMPDEST POP PUSH1 0x80 DUP3 ADD MLOAD PUSH2 0x4ED2 PUSH1 0x80 DUP6 ADD DUP3 PUSH2 0x4E25 JUMP JUMPDEST POP PUSH1 0xA0 DUP3 ADD MLOAD PUSH2 0x4EE5 PUSH1 0xA0 DUP6 ADD DUP3 PUSH2 0x4E25 JUMP JUMPDEST POP PUSH1 0xC0 DUP3 ADD MLOAD PUSH2 0x4EF8 PUSH1 0xC0 DUP6 ADD DUP3 PUSH2 0x4E44 JUMP JUMPDEST POP PUSH1 0xE0 DUP3 ADD MLOAD PUSH2 0x4F0B PUSH1 0xE0 DUP6 ADD DUP3 PUSH2 0x4E53 JUMP JUMPDEST POP PUSH2 0x100 DUP3 ADD MLOAD PUSH2 0x4F20 PUSH2 0x100 DUP6 ADD DUP3 PUSH2 0x4E62 JUMP JUMPDEST POP PUSH2 0x120 DUP3 ADD MLOAD PUSH2 0x4F35 PUSH2 0x120 DUP6 ADD DUP3 PUSH2 0x4E62 JUMP JUMPDEST POP PUSH2 0x140 DUP3 ADD MLOAD PUSH2 0x4F4A PUSH2 0x140 DUP6 ADD DUP3 PUSH2 0x4E62 JUMP JUMPDEST POP PUSH2 0x160 DUP3 ADD MLOAD PUSH2 0x4F5F PUSH2 0x160 DUP6 ADD DUP3 PUSH2 0x4E62 JUMP JUMPDEST POP PUSH2 0x180 DUP3 ADD MLOAD PUSH2 0x4F74 PUSH2 0x180 DUP6 ADD DUP3 PUSH2 0x4E25 JUMP JUMPDEST POP PUSH2 0x1A0 DUP3 ADD MLOAD PUSH2 0x4F89 PUSH2 0x1A0 DUP6 ADD DUP3 PUSH2 0x4E25 JUMP JUMPDEST POP PUSH2 0x1C0 DUP3 ADD MLOAD PUSH2 0x4F9E PUSH2 0x1C0 DUP6 ADD DUP3 PUSH2 0x4E25 JUMP JUMPDEST POP POP POP POP JUMP JUMPDEST PUSH0 PUSH2 0x1E0 DUP3 ADD SWAP1 POP PUSH2 0x4FB8 PUSH0 DUP4 ADD DUP5 PUSH2 0x4E71 JUMP JUMPDEST SWAP3 SWAP2 POP POP JUMP JUMPDEST PUSH0 DUP1 REVERT JUMPDEST PUSH0 DUP1 REVERT JUMPDEST PUSH0 DUP1 REVERT JUMPDEST PUSH0 DUP1 DUP4 PUSH1 0x1F DUP5 ADD SLT PUSH2 0x4FDF JUMPI PUSH2 0x4FDE PUSH2 0x4FBE JUMP JUMPDEST JUMPDEST DUP3 CALLDATALOAD SWAP1 POP PUSH8 0xFFFFFFFFFFFFFFFF DUP2 GT ISZERO PUSH2 0x4FFC JUMPI PUSH2 0x4FFB PUSH2 0x4FC2 JUMP JUMPDEST JUMPDEST PUSH1 0x20 DUP4 ADD SWAP2 POP DUP4 PUSH1 0x1 DUP3 MUL DUP4 ADD GT ISZERO PUSH2 0x5018 JUMPI PUSH2 0x5017 PUSH2 0x4FC6 JUMP JUMPDEST JUMPDEST SWAP3 POP SWAP3 SWAP1 POP JUMP JUMPDEST PUSH0 DUP1 PUSH0 DUP1 PUSH0 DUP1 PUSH1 0xA0 DUP8 DUP10 SUB SLT ISZERO PUSH2 0x5039 JUMPI PUSH2 0x5038 PUSH2 0x497C JUMP JUMPDEST JUMPDEST PUSH0 PUSH2 0x5046 DUP10 DUP3 DUP11 ADD PUSH2 0x49CA JUMP JUMPDEST SWAP7 POP POP PUSH1 0x20 PUSH2 0x5057 DUP10 DUP3 DUP11 ADD PUSH2 0x49CA JUMP JUMPDEST SWAP6 POP POP PUSH1 0x40 PUSH2 0x5068 DUP10 DUP3 DUP11 ADD PUSH2 0x49FD JUMP JUMPDEST SWAP5 POP POP PUSH1 0x60 DUP8 ADD CALLDATALOAD PUSH8 0xFFFFFFFFFFFFFFFF DUP2 GT ISZERO PUSH2 0x5089 JUMPI PUSH2 0x5088 PUSH2 0x4980 JUMP JUMPDEST JUMPDEST PUSH2 0x5095 DUP10 DUP3 DUP11 ADD PUSH2 0x4FCA JUMP JUMPDEST SWAP4 POP SWAP4 POP POP PUSH1 0x80 PUSH2 0x50A8 DUP10 DUP3 DUP11 ADD PUSH2 0x4B08 JUMP JUMPDEST SWAP2 POP POP SWAP3 SWAP6 POP SWAP3 SWAP6 POP SWAP3 SWAP6 JUMP JUMPDEST PUSH1 0x20 DUP3 ADD PUSH0 DUP3 ADD MLOAD PUSH2 0x50C9 PUSH0 DUP6 ADD DUP3 PUSH2 0x4DFC JUMP JUMPDEST POP POP POP POP JUMP JUMPDEST PUSH0 PUSH1 0x20 DUP3 ADD SWAP1 POP PUSH2 0x50E2 PUSH0 DUP4 ADD DUP5 PUSH2 0x50B5 JUMP JUMPDEST SWAP3 SWAP2 POP POP JUMP JUMPDEST PUSH0 PUSH1 0x20 DUP3 DUP5 SUB SLT ISZERO PUSH2 0x50FD JUMPI PUSH2 0x50FC PUSH2 0x497C JUMP JUMPDEST JUMPDEST PUSH0 PUSH2 0x510A DUP5 DUP3 DUP6 ADD PUSH2 0x4B08 JUMP JUMPDEST SWAP2 POP POP SWAP3 SWAP2 POP POP JUMP JUMPDEST PUSH2 0x511C DUP2 PUSH2 0x49A3 JUMP JUMPDEST DUP3 MSTORE POP POP JUMP JUMPDEST PUSH0 PUSH1 0x20 DUP3 ADD SWAP1 POP PUSH2 0x5135 PUSH0 DUP4 ADD DUP5 PUSH2 0x5113 JUMP JUMPDEST SWAP3 SWAP2 POP POP JUMP JUMPDEST PUSH0 DUP1 PUSH0 DUP1 PUSH1 0x80 DUP6 DUP8 SUB SLT ISZERO PUSH2 0x5153 JUMPI PUSH2 0x5152 PUSH2 0x497C JUMP JUMPDEST JUMPDEST PUSH0 PUSH2 0x5160 DUP8 DUP3 DUP9 ADD PUSH2 0x49CA JUMP JUMPDEST SWAP5 POP POP PUSH1 0x20 PUSH2 0x5171 DUP8 DUP3 DUP9 ADD PUSH2 0x49FD JUMP JUMPDEST SWAP4 POP POP PUSH1 0x40 PUSH2 0x5182 DUP8 DUP3 DUP9 ADD PUSH2 0x49FD JUMP JUMPDEST SWAP3 POP POP PUSH1 0x60 PUSH2 0x5193 DUP8 DUP3 DUP9 ADD PUSH2 0x49CA JUMP JUMPDEST SWAP2 POP POP SWAP3 SWAP6 SWAP2 SWAP5 POP SWAP3 POP JUMP JUMPDEST PUSH0 DUP1 PUSH1 0x40 DUP4 DUP6 SUB SLT ISZERO PUSH2 0x51B5 JUMPI PUSH2 0x51B4 PUSH2 0x497C JUMP JUMPDEST JUMPDEST PUSH0 PUSH2 0x51C2 DUP6 DUP3 DUP7 ADD PUSH2 0x49CA JUMP JUMPDEST SWAP3 POP POP PUSH1 0x20 PUSH2 0x51D3 DUP6 DUP3 DUP7 ADD PUSH2 0x4A32 JUMP JUMPDEST SWAP2 POP POP SWAP3 POP SWAP3 SWAP1 POP JUMP JUMPDEST PUSH0 DUP1 PUSH0 DUP1 PUSH1 0x80 DUP6 DUP8 SUB SLT ISZERO PUSH2 0x51F5 JUMPI PUSH2 0x51F4 PUSH2 0x497C JUMP JUMPDEST JUMPDEST PUSH0 PUSH2 0x5202 DUP8 DUP3 DUP9 ADD PUSH2 0x49CA JUMP JUMPDEST SWAP5 POP POP PUSH1 0x20 PUSH2 0x5213 DUP8 DUP3 DUP9 ADD PUSH2 0x49FD JUMP JUMPDEST SWAP4 POP POP PUSH1 0x40 PUSH2 0x5224 DUP8 DUP3 DUP9 ADD PUSH2 0x49CA JUMP JUMPDEST SWAP3 POP POP PUSH1 0x60 PUSH2 0x5235 DUP8 DUP3 DUP9 ADD PUSH2 0x4B08 JUMP JUMPDEST SWAP2 POP POP SWAP3 SWAP6 SWAP2 SWAP5 POP SWAP3 POP JUMP JUMPDEST PUSH0 DUP1 PUSH0 PUSH1 0x60 DUP5 DUP7 SUB SLT ISZERO PUSH2 0x5258 JUMPI PUSH2 0x5257 PUSH2 0x497C JUMP JUMPDEST JUMPDEST PUSH0 PUSH2 0x5265 DUP7 DUP3 DUP8 ADD PUSH2 0x49CA JUMP JUMPDEST SWAP4 POP POP PUSH1 0x20 PUSH2 0x5276 DUP7 DUP3 DUP8 ADD PUSH2 0x49FD JUMP JUMPDEST SWAP3 POP POP PUSH1 0x40 PUSH2 0x5287 DUP7 DUP3 DUP8 ADD PUSH2 0x49CA JUMP JUMPDEST SWAP2 POP POP SWAP3 POP SWAP3 POP SWAP3 JUMP JUMPDEST PUSH0 DUP2 MLOAD SWAP1 POP SWAP2 SWAP1 POP JUMP JUMPDEST PUSH0 DUP3 DUP3 MSTORE PUSH1 0x20 DUP3 ADD SWAP1 POP SWAP3 SWAP2 POP POP JUMP JUMPDEST DUP3 DUP2 DUP4 MCOPY PUSH0 DUP4 DUP4 ADD MSTORE POP POP POP JUMP JUMPDEST PUSH0 PUSH1 0x1F NOT PUSH1 0x1F DUP4 ADD AND SWAP1 POP SWAP2 SWAP1 POP JUMP JUMPDEST PUSH0 PUSH2 0x52D3 DUP3 PUSH2 0x5291 JUMP JUMPDEST PUSH2 0x52DD DUP2 DUP6 PUSH2 0x529B JUMP JUMPDEST SWAP4 POP PUSH2 0x52ED DUP2 DUP6 PUSH1 0x20 DUP7 ADD PUSH2 0x52AB JUMP JUMPDEST PUSH2 0x52F6 DUP2 PUSH2 0x52B9 JUMP JUMPDEST DUP5 ADD SWAP2 POP POP SWAP3 SWAP2 POP POP JUMP JUMPDEST PUSH0 PUSH1 0xA0 DUP4 ADD PUSH0 DUP4 ADD MLOAD PUSH2 0x5316 PUSH0 DUP7 ADD DUP3 PUSH2 0x4E53 JUMP JUMPDEST POP PUSH1 0x20 DUP4 ADD MLOAD PUSH2 0x5329 PUSH1 0x20 DUP7 ADD DUP3 PUSH2 0x4E53 JUMP JUMPDEST POP PUSH1 0x40 DUP4 ADD MLOAD PUSH2 0x533C PUSH1 0x40 DUP7 ADD DUP3 PUSH2 0x4E53 JUMP JUMPDEST POP PUSH1 0x60 DUP4 ADD MLOAD PUSH2 0x534F PUSH1 0x60 DUP7 ADD DUP3 PUSH2 0x4E62 JUMP JUMPDEST POP PUSH1 0x80 DUP4 ADD MLOAD DUP5 DUP3 SUB PUSH1 0x80 DUP7 ADD MSTORE PUSH2 0x5367 DUP3 DUP3 PUSH2 0x52C9 JUMP JUMPDEST SWAP2 POP POP DUP1 SWAP2 POP POP SWAP3 SWAP2 POP POP JUMP JUMPDEST PUSH0 PUSH1 0x20 DUP3 ADD SWAP1 POP DUP2 DUP2 SUB PUSH0 DUP4 ADD MSTORE PUSH2 0x538C DUP2 DUP5 PUSH2 0x5301 JUMP JUMPDEST SWAP1 POP SWAP3 SWAP2 POP POP JUMP JUMPDEST PUSH0 DUP1 PUSH0 DUP1 PUSH0 PUSH1 0xA0 DUP7 DUP9 SUB SLT ISZERO PUSH2 0x53AD JUMPI PUSH2 0x53AC PUSH2 0x497C JUMP JUMPDEST JUMPDEST PUSH0 PUSH2 0x53BA DUP9 DUP3 DUP10 ADD PUSH2 0x49CA JUMP JUMPDEST SWAP6 POP POP PUSH1 0x20 PUSH2 0x53CB DUP9 DUP3 DUP10 ADD PUSH2 0x49CA JUMP JUMPDEST SWAP5 POP POP PUSH1 0x40 PUSH2 0x53DC DUP9 DUP3 DUP10 ADD PUSH2 0x49CA JUMP JUMPDEST SWAP4 POP POP PUSH1 0x60 PUSH2 0x53ED DUP9 DUP3 DUP10 ADD PUSH2 0x49CA JUMP JUMPDEST SWAP3 POP POP PUSH1 0x80 PUSH2 0x53FE DUP9 DUP3 DUP10 ADD PUSH2 0x49CA JUMP JUMPDEST SWAP2 POP POP SWAP3 SWAP6 POP SWAP3 SWAP6 SWAP1 SWAP4 POP JUMP JUMPDEST PUSH0 DUP1 PUSH1 0x40 DUP4 DUP6 SUB SLT ISZERO PUSH2 0x5421 JUMPI PUSH2 0x5420 PUSH2 0x497C JUMP JUMPDEST JUMPDEST PUSH0 PUSH2 0x542E DUP6 DUP3 DUP7 ADD PUSH2 0x49CA JUMP JUMPDEST SWAP3 POP POP PUSH1 0x20 PUSH2 0x543F DUP6 DUP3 DUP7 ADD PUSH2 0x49FD JUMP JUMPDEST SWAP2 POP POP SWAP3 POP SWAP3 SWAP1 POP JUMP JUMPDEST PUSH0 DUP1 DUP4 PUSH1 0x1F DUP5 ADD SLT PUSH2 0x545E JUMPI PUSH2 0x545D PUSH2 0x4FBE JUMP JUMPDEST JUMPDEST DUP3 CALLDATALOAD SWAP1 POP PUSH8 0xFFFFFFFFFFFFFFFF DUP2 GT ISZERO PUSH2 0x547B JUMPI PUSH2 0x547A PUSH2 0x4FC2 JUMP JUMPDEST JUMPDEST PUSH1 0x20 DUP4 ADD SWAP2 POP DUP4 PUSH1 0x20 DUP3 MUL DUP4 ADD GT ISZERO PUSH2 0x5497 JUMPI PUSH2 0x5496 PUSH2 0x4FC6 JUMP JUMPDEST JUMPDEST SWAP3 POP SWAP3 SWAP1 POP JUMP JUMPDEST PUSH0 DUP1 PUSH1 0x20 DUP4 DUP6 SUB SLT ISZERO PUSH2 0x54B4 JUMPI PUSH2 0x54B3 PUSH2 0x497C JUMP JUMPDEST JUMPDEST PUSH0 DUP4 ADD CALLDATALOAD PUSH8 0xFFFFFFFFFFFFFFFF DUP2 GT ISZERO PUSH2 0x54D1 JUMPI PUSH2 0x54D0 PUSH2 0x4980 JUMP JUMPDEST JUMPDEST PUSH2 0x54DD DUP6 DUP3 DUP7 ADD PUSH2 0x5449 JUMP JUMPDEST SWAP3 POP SWAP3 POP POP SWAP3 POP SWAP3 SWAP1 POP JUMP JUMPDEST PUSH0 DUP1 PUSH0 DUP1 PUSH0 PUSH1 0xA0 DUP7 DUP9 SUB SLT ISZERO PUSH2 0x5502 JUMPI PUSH2 0x5501 PUSH2 0x497C JUMP JUMPDEST JUMPDEST PUSH0 PUSH2 0x550F DUP9 DUP3 DUP10 ADD PUSH2 0x49CA JUMP JUMPDEST SWAP6 POP POP PUSH1 0x20 PUSH2 0x5520 DUP9 DUP3 DUP10 ADD PUSH2 0x49FD JUMP JUMPDEST SWAP5 POP POP PUSH1 0x40 PUSH2 0x5531 DUP9 DUP3 DUP10 ADD PUSH2 0x49FD JUMP JUMPDEST SWAP4 POP POP PUSH1 0x60 PUSH2 0x5542 DUP9 DUP3 DUP10 ADD PUSH2 0x4B08 JUMP JUMPDEST SWAP3 POP POP PUSH1 0x80 PUSH2 0x5553 DUP9 DUP3 DUP10 ADD PUSH2 0x49CA JUMP JUMPDEST SWAP2 POP POP SWAP3 SWAP6 POP SWAP3 SWAP6 SWAP1 SWAP4 POP JUMP JUMPDEST PUSH0 DUP1 DUP4 PUSH1 0x1F DUP5 ADD SLT PUSH2 0x5575 JUMPI PUSH2 0x5574 PUSH2 0x4FBE JUMP JUMPDEST JUMPDEST DUP3 CALLDATALOAD SWAP1 POP PUSH8 0xFFFFFFFFFFFFFFFF DUP2 GT ISZERO PUSH2 0x5592 JUMPI PUSH2 0x5591 PUSH2 0x4FC2 JUMP JUMPDEST JUMPDEST PUSH1 0x20 DUP4 ADD SWAP2 POP DUP4 PUSH1 0x20 DUP3 MUL DUP4 ADD GT ISZERO PUSH2 0x55AE JUMPI PUSH2 0x55AD PUSH2 0x4FC6 JUMP JUMPDEST JUMPDEST SWAP3 POP SWAP3 SWAP1 POP JUMP JUMPDEST PUSH0 DUP1 PUSH0 DUP1 PUSH0 DUP1 PUSH0 DUP1 PUSH0 DUP1 PUSH0 PUSH1 0xE0 DUP13 DUP15 SUB SLT ISZERO PUSH2 0x55D4 JUMPI PUSH2 0x55D3 PUSH2 0x497C JUMP JUMPDEST JUMPDEST PUSH0 PUSH2 0x55E1 DUP15 DUP3 DUP16 ADD PUSH2 0x49CA JUMP JUMPDEST SWAP12 POP POP PUSH1 0x20 DUP13 ADD CALLDATALOAD PUSH8 0xFFFFFFFFFFFFFFFF DUP2 GT ISZERO PUSH2 0x5602 JUMPI PUSH2 0x5601 PUSH2 0x4980 JUMP JUMPDEST JUMPDEST PUSH2 0x560E DUP15 DUP3 DUP16 ADD PUSH2 0x5449 JUMP JUMPDEST SWAP11 POP SWAP11 POP POP PUSH1 0x40 DUP13 ADD CALLDATALOAD PUSH8 0xFFFFFFFFFFFFFFFF DUP2 GT ISZERO PUSH2 0x5631 JUMPI PUSH2 0x5630 PUSH2 0x4980 JUMP JUMPDEST JUMPDEST PUSH2 0x563D DUP15 DUP3 DUP16 ADD PUSH2 0x5560 JUMP JUMPDEST SWAP9 POP SWAP9 POP POP PUSH1 0x60 DUP13 ADD CALLDATALOAD PUSH8 0xFFFFFFFFFFFFFFFF DUP2 GT ISZERO PUSH2 0x5660 JUMPI PUSH2 0x565F PUSH2 0x4980 JUMP JUMPDEST JUMPDEST PUSH2 0x566C DUP15 DUP3 DUP16 ADD PUSH2 0x5560 JUMP JUMPDEST SWAP7 POP SWAP7 POP POP PUSH1 0x80 PUSH2 0x567F DUP15 DUP3 DUP16 ADD PUSH2 0x49CA JUMP JUMPDEST SWAP5 POP POP PUSH1 0xA0 DUP13 ADD CALLDATALOAD PUSH8 0xFFFFFFFFFFFFFFFF DUP2 GT ISZERO PUSH2 0x56A0 JUMPI PUSH2 0x569F PUSH2 0x4980 JUMP JUMPDEST JUMPDEST PUSH2 0x56AC DUP15 DUP3 DUP16 ADD PUSH2 0x4FCA JUMP JUMPDEST SWAP4 POP SWAP4 POP POP PUSH1 0xC0 PUSH2 0x56BF DUP15 DUP3 DUP16 ADD PUSH2 0x4B08 JUMP JUMPDEST SWAP2 POP POP SWAP3 SWAP6 SWAP9 SWAP12 POP SWAP3 SWAP6 SWAP9 SWAP12 SWAP1 SWAP4 SWAP7 SWAP10 POP JUMP JUMPDEST PUSH2 0x56DB DUP2 PUSH2 0x4CAA JUMP JUMPDEST DUP2 EQ PUSH2 0x56E5 JUMPI PUSH0 DUP1 REVERT JUMPDEST POP JUMP JUMPDEST PUSH0 DUP2 CALLDATALOAD SWAP1 POP PUSH2 0x56F6 DUP2 PUSH2 0x56D2 JUMP JUMPDEST SWAP3 SWAP2 POP POP JUMP JUMPDEST PUSH0 DUP1 PUSH1 0x40 DUP4 DUP6 SUB SLT ISZERO PUSH2 0x5712 JUMPI PUSH2 0x5711 PUSH2 0x497C JUMP JUMPDEST JUMPDEST PUSH0 PUSH2 0x571F DUP6 DUP3 DUP7 ADD PUSH2 0x56E8 JUMP JUMPDEST SWAP3 POP POP PUSH1 0x20 PUSH2 0x5730 DUP6 DUP3 DUP7 ADD PUSH2 0x56E8 JUMP JUMPDEST SWAP2 POP POP SWAP3 POP SWAP3 SWAP1 POP JUMP JUMPDEST PUSH0 PUSH1 0xC0 DUP3 ADD SWAP1 POP PUSH2 0x574D PUSH0 DUP4 ADD DUP10 PUSH2 0x4ABD JUMP JUMPDEST PUSH2 0x575A PUSH1 0x20 DUP4 ADD DUP9 PUSH2 0x4ABD JUMP JUMPDEST PUSH2 0x5767 PUSH1 0x40 DUP4 ADD DUP8 PUSH2 0x4ABD JUMP JUMPDEST PUSH2 0x5774 PUSH1 0x60 DUP4 ADD DUP7 PUSH2 0x4ABD JUMP JUMPDEST PUSH2 0x5781 PUSH1 0x80 DUP4 ADD DUP6 PUSH2 0x4ABD JUMP JUMPDEST PUSH2 0x578E PUSH1 0xA0 DUP4 ADD DUP5 PUSH2 0x4ABD JUMP JUMPDEST SWAP8 SWAP7 POP POP POP POP POP POP POP JUMP JUMPDEST PUSH1 0x20 DUP3 ADD PUSH0 DUP3 ADD MLOAD PUSH2 0x57AD PUSH0 DUP6 ADD DUP3 PUSH2 0x4DFC JUMP JUMPDEST POP POP POP POP JUMP JUMPDEST PUSH0 PUSH1 0x20 DUP3 ADD SWAP1 POP PUSH2 0x57C6 PUSH0 DUP4 ADD DUP5 PUSH2 0x5799 JUMP JUMPDEST SWAP3 SWAP2 POP POP JUMP JUMPDEST PUSH0 PUSH2 0x57D6 DUP3 PUSH2 0x49A3 JUMP JUMPDEST SWAP1 POP SWAP2 SWAP1 POP JUMP JUMPDEST PUSH2 0x57E6 DUP2 PUSH2 0x57CC JUMP JUMPDEST DUP2 EQ PUSH2 0x57F0 JUMPI PUSH0 DUP1 REVERT JUMPDEST POP JUMP JUMPDEST PUSH0 DUP2 CALLDATALOAD SWAP1 POP PUSH2 0x5801 DUP2 PUSH2 0x57DD JUMP JUMPDEST SWAP3 SWAP2 POP POP JUMP JUMPDEST PUSH0 PUSH1 0x20 DUP3 DUP5 SUB SLT ISZERO PUSH2 0x581C JUMPI PUSH2 0x581B PUSH2 0x497C JUMP JUMPDEST JUMPDEST PUSH0 PUSH2 0x5829 DUP5 DUP3 DUP6 ADD PUSH2 0x57F3 JUMP JUMPDEST SWAP2 POP POP SWAP3 SWAP2 POP POP JUMP JUMPDEST PUSH0 DUP1 PUSH0 PUSH1 0x60 DUP5 DUP7 SUB SLT ISZERO PUSH2 0x5849 JUMPI PUSH2 0x5848 PUSH2 0x497C JUMP JUMPDEST JUMPDEST PUSH0 PUSH2 0x5856 DUP7 DUP3 DUP8 ADD PUSH2 0x49CA JUMP JUMPDEST SWAP4 POP POP PUSH1 0x20 PUSH2 0x5867 DUP7 DUP3 DUP8 ADD PUSH2 0x49CA JUMP JUMPDEST SWAP3 POP POP PUSH1 0x40 PUSH2 0x5878 DUP7 DUP3 DUP8 ADD PUSH2 0x49FD JUMP JUMPDEST SWAP2 POP POP SWAP3 POP SWAP3 POP SWAP3 JUMP JUMPDEST PUSH0 DUP2 MLOAD SWAP1 POP SWAP2 SWAP1 POP JUMP JUMPDEST PUSH0 DUP3 DUP3 MSTORE PUSH1 0x20 DUP3 ADD SWAP1 POP SWAP3 SWAP2 POP POP JUMP JUMPDEST PUSH0 DUP2 SWAP1 POP PUSH1 0x20 DUP3 ADD SWAP1 POP SWAP2 SWAP1 POP JUMP JUMPDEST PUSH0 PUSH2 0x58B6 DUP4 DUP4 PUSH2 0x4E62 JUMP JUMPDEST PUSH1 0x20 DUP4 ADD SWAP1 POP SWAP3 SWAP2 POP POP JUMP JUMPDEST PUSH0 PUSH1 0x20 DUP3 ADD SWAP1 POP SWAP2 SWAP1 POP JUMP JUMPDEST PUSH0 PUSH2 0x58D8 DUP3 PUSH2 0x5882 JUMP JUMPDEST PUSH2 0x58E2 DUP2 DUP6 PUSH2 0x588C JUMP JUMPDEST SWAP4 POP PUSH2 0x58ED DUP4 PUSH2 0x589C JUMP JUMPDEST DUP1 PUSH0 JUMPDEST DUP4 DUP2 LT ISZERO PUSH2 0x591D JUMPI DUP2 MLOAD PUSH2 0x5904 DUP9 DUP3 PUSH2 0x58AB JUMP JUMPDEST SWAP8 POP PUSH2 0x590F DUP4 PUSH2 0x58C2 JUMP JUMPDEST SWAP3 POP POP PUSH1 0x1 DUP2 ADD SWAP1 POP PUSH2 0x58F0 JUMP JUMPDEST POP DUP6 SWAP4 POP POP POP POP SWAP3 SWAP2 POP POP JUMP JUMPDEST PUSH0 PUSH1 0x20 DUP3 ADD SWAP1 POP DUP2 DUP2 SUB PUSH0 DUP4 ADD MSTORE PUSH2 0x5942 DUP2 DUP5 PUSH2 0x58CE JUMP JUMPDEST SWAP1 POP SWAP3 SWAP2 POP POP JUMP JUMPDEST PUSH0 DUP1 REVERT JUMPDEST PUSH32 0x4E487B7100000000000000000000000000000000000000000000000000000000 PUSH0 MSTORE PUSH1 0x41 PUSH1 0x4 MSTORE PUSH1 0x24 PUSH0 REVERT JUMPDEST PUSH2 0x5984 DUP3 PUSH2 0x52B9 JUMP JUMPDEST DUP2 ADD DUP2 DUP2 LT PUSH8 0xFFFFFFFFFFFFFFFF DUP3 GT OR ISZERO PUSH2 0x59A3 JUMPI PUSH2 0x59A2 PUSH2 0x594E JUMP JUMPDEST JUMPDEST DUP1 PUSH1 0x40 MSTORE POP POP POP JUMP JUMPDEST PUSH0 PUSH2 0x59B5 PUSH2 0x4973 JUMP JUMPDEST SWAP1 POP PUSH2 0x59C1 DUP3 DUP3 PUSH2 0x597B JUMP JUMPDEST SWAP2 SWAP1 POP JUMP JUMPDEST PUSH0 DUP1 REVERT JUMPDEST PUSH0 DUP1 REVERT JUMPDEST PUSH0 PUSH8 0xFFFFFFFFFFFFFFFF DUP3 GT ISZERO PUSH2 0x59E8 JUMPI PUSH2 0x59E7 PUSH2 0x594E JUMP JUMPDEST JUMPDEST PUSH2 0x59F1 DUP3 PUSH2 0x52B9 JUMP JUMPDEST SWAP1 POP PUSH1 0x20 DUP2 ADD SWAP1 POP SWAP2 SWAP1 POP JUMP JUMPDEST DUP3 DUP2 DUP4 CALLDATACOPY PUSH0 DUP4 DUP4 ADD MSTORE POP POP POP JUMP JUMPDEST PUSH0 PUSH2 0x5A1E PUSH2 0x5A19 DUP5 PUSH2 0x59CE JUMP JUMPDEST PUSH2 0x59AC JUMP JUMPDEST SWAP1 POP DUP3 DUP2 MSTORE PUSH1 0x20 DUP2 ADD DUP5 DUP5 DUP5 ADD GT ISZERO PUSH2 0x5A3A JUMPI PUSH2 0x5A39 PUSH2 0x59CA JUMP JUMPDEST JUMPDEST PUSH2 0x5A45 DUP5 DUP3 DUP6 PUSH2 0x59FE JUMP JUMPDEST POP SWAP4 SWAP3 POP POP POP JUMP JUMPDEST PUSH0 DUP3 PUSH1 0x1F DUP4 ADD SLT PUSH2 0x5A61 JUMPI PUSH2 0x5A60 PUSH2 0x4FBE JUMP JUMPDEST JUMPDEST DUP2 CALLDATALOAD PUSH2 0x5A71 DUP5 DUP3 PUSH1 0x20 DUP7 ADD PUSH2 0x5A0C JUMP JUMPDEST SWAP2 POP POP SWAP3 SWAP2 POP POP JUMP JUMPDEST PUSH0 PUSH1 0xA0 DUP3 DUP5 SUB SLT ISZERO PUSH2 0x5A8F JUMPI PUSH2 0x5A8E PUSH2 0x594A JUMP JUMPDEST JUMPDEST PUSH2 0x5A99 PUSH1 0xA0 PUSH2 0x59AC JUMP JUMPDEST SWAP1 POP PUSH0 PUSH2 0x5AA8 DUP5 DUP3 DUP6 ADD PUSH2 0x4B08 JUMP JUMPDEST PUSH0 DUP4 ADD MSTORE POP PUSH1 0x20 PUSH2 0x5ABB DUP5 DUP3 DUP6 ADD PUSH2 0x4B08 JUMP JUMPDEST PUSH1 0x20 DUP4 ADD MSTORE POP PUSH1 0x40 PUSH2 0x5ACF DUP5 DUP3 DUP6 ADD PUSH2 0x4B08 JUMP JUMPDEST PUSH1 0x40 DUP4 ADD MSTORE POP PUSH1 0x60 PUSH2 0x5AE3 DUP5 DUP3 DUP6 ADD PUSH2 0x49CA JUMP JUMPDEST PUSH1 0x60 DUP4 ADD MSTORE POP PUSH1 0x80 DUP3 ADD CALLDATALOAD PUSH8 0xFFFFFFFFFFFFFFFF DUP2 GT ISZERO PUSH2 0x5B07 JUMPI PUSH2 0x5B06 PUSH2 0x59C6 JUMP JUMPDEST JUMPDEST PUSH2 0x5B13 DUP5 DUP3 DUP6 ADD PUSH2 0x5A4D JUMP JUMPDEST PUSH1 0x80 DUP4 ADD MSTORE POP SWAP3 SWAP2 POP POP JUMP JUMPDEST PUSH0 DUP1 PUSH1 0x40 DUP4 DUP6 SUB SLT ISZERO PUSH2 0x5B35 JUMPI PUSH2 0x5B34 PUSH2 0x497C JUMP JUMPDEST JUMPDEST PUSH0 PUSH2 0x5B42 DUP6 DUP3 DUP7 ADD PUSH2 0x4B3E JUMP JUMPDEST SWAP3 POP POP PUSH1 0x20 DUP4 ADD CALLDATALOAD PUSH8 0xFFFFFFFFFFFFFFFF DUP2 GT ISZERO PUSH2 0x5B63 JUMPI PUSH2 0x5B62 PUSH2 0x4980 JUMP JUMPDEST JUMPDEST PUSH2 0x5B6F DUP6 DUP3 DUP7 ADD PUSH2 0x5A7A JUMP JUMPDEST SWAP2 POP POP SWAP3 POP SWAP3 SWAP1 POP JUMP JUMPDEST PUSH0 DUP1 PUSH0 DUP1 PUSH0 DUP1 PUSH1 0xC0 DUP8 DUP10 SUB SLT ISZERO PUSH2 0x5B93 JUMPI PUSH2 0x5B92 PUSH2 0x497C JUMP JUMPDEST JUMPDEST PUSH0 PUSH2 0x5BA0 DUP10 DUP3 DUP11 ADD PUSH2 0x49CA JUMP JUMPDEST SWAP7 POP POP PUSH1 0x20 PUSH2 0x5BB1 DUP10 DUP3 DUP11 ADD PUSH2 0x49CA JUMP JUMPDEST SWAP6 POP POP PUSH1 0x40 PUSH2 0x5BC2 DUP10 DUP3 DUP11 ADD PUSH2 0x49CA JUMP JUMPDEST SWAP5 POP POP PUSH1 0x60 PUSH2 0x5BD3 DUP10 DUP3 DUP11 ADD PUSH2 0x49FD JUMP JUMPDEST SWAP4 POP POP PUSH1 0x80 PUSH2 0x5BE4 DUP10 DUP3 DUP11 ADD PUSH2 0x49FD JUMP JUMPDEST SWAP3 POP POP PUSH1 0xA0 PUSH2 0x5BF5 DUP10 DUP3 DUP11 ADD PUSH2 0x49FD JUMP JUMPDEST SWAP2 POP POP SWAP3 SWAP6 POP SWAP3 SWAP6 POP SWAP3 SWAP6 JUMP JUMPDEST PUSH0 DUP1 PUSH0 DUP1 PUSH0 DUP1 PUSH0 DUP1 PUSH2 0x100 DUP10 DUP12 SUB SLT ISZERO PUSH2 0x5C1F JUMPI PUSH2 0x5C1E PUSH2 0x497C JUMP JUMPDEST JUMPDEST PUSH0 PUSH2 0x5C2C DUP12 DUP3 DUP13 ADD PUSH2 0x49CA JUMP JUMPDEST SWAP9 POP POP PUSH1 0x20 PUSH2 0x5C3D DUP12 DUP3 DUP13 ADD PUSH2 0x49FD JUMP JUMPDEST SWAP8 POP POP PUSH1 0x40 PUSH2 0x5C4E DUP12 DUP3 DUP13 ADD PUSH2 0x49FD JUMP JUMPDEST SWAP7 POP POP PUSH1 0x60 PUSH2 0x5C5F DUP12 DUP3 DUP13 ADD PUSH2 0x49CA JUMP JUMPDEST SWAP6 POP POP PUSH1 0x80 PUSH2 0x5C70 DUP12 DUP3 DUP13 ADD PUSH2 0x49FD JUMP JUMPDEST SWAP5 POP POP PUSH1 0xA0 PUSH2 0x5C81 DUP12 DUP3 DUP13 ADD PUSH2 0x4B3E JUMP JUMPDEST SWAP4 POP POP PUSH1 0xC0 PUSH2 0x5C92 DUP12 DUP3 DUP13 ADD PUSH2 0x4B71 JUMP JUMPDEST SWAP3 POP POP PUSH1 0xE0 PUSH2 0x5CA3 DUP12 DUP3 DUP13 ADD PUSH2 0x4B71 JUMP JUMPDEST SWAP2 POP POP SWAP3 SWAP6 SWAP9 POP SWAP3 SWAP6 SWAP9 SWAP1 SWAP4 SWAP7 POP JUMP JUMPDEST PUSH0 DUP1 REVERT JUMPDEST PUSH0 PUSH1 0x20 DUP3 DUP5 SUB SLT ISZERO PUSH2 0x5CCC JUMPI PUSH2 0x5CCB PUSH2 0x5CB3 JUMP JUMPDEST JUMPDEST DUP2 SWAP1 POP SWAP3 SWAP2 POP POP JUMP JUMPDEST PUSH0 DUP1 PUSH1 0x40 DUP4 DUP6 SUB SLT ISZERO PUSH2 0x5CEB JUMPI PUSH2 0x5CEA PUSH2 0x497C JUMP JUMPDEST JUMPDEST PUSH0 PUSH2 0x5CF8 DUP6 DUP3 DUP7 ADD PUSH2 0x49CA JUMP JUMPDEST SWAP3 POP POP PUSH1 0x20 PUSH2 0x5D09 DUP6 DUP3 DUP7 ADD PUSH2 0x5CB7 JUMP JUMPDEST SWAP2 POP POP SWAP3 POP SWAP3 SWAP1 POP JUMP JUMPDEST PUSH2 0x5D1C DUP2 PUSH2 0x4AE5 JUMP JUMPDEST DUP3 MSTORE POP POP JUMP JUMPDEST PUSH0 PUSH1 0x20 DUP3 ADD SWAP1 POP PUSH2 0x5D35 PUSH0 DUP4 ADD DUP5 PUSH2 0x5D13 JUMP JUMPDEST SWAP3 SWAP2 POP POP JUMP JUMPDEST PUSH0 DUP2 MLOAD SWAP1 POP PUSH2 0x5D49 DUP2 PUSH2 0x49B4 JUMP JUMPDEST SWAP3 SWAP2 POP POP JUMP JUMPDEST PUSH0 PUSH1 0x20 DUP3 DUP5 SUB SLT ISZERO PUSH2 0x5D64 JUMPI PUSH2 0x5D63 PUSH2 0x497C JUMP JUMPDEST JUMPDEST PUSH0 PUSH2 0x5D71 DUP5 DUP3 DUP6 ADD PUSH2 0x5D3B JUMP JUMPDEST SWAP2 POP POP SWAP3 SWAP2 POP POP JUMP JUMPDEST DUP1 DUP3 MSTORE POP POP JUMP JUMPDEST DUP1 DUP3 MSTORE POP POP JUMP JUMPDEST DUP1 DUP3 MSTORE POP POP JUMP JUMPDEST DUP1 DUP3 MSTORE POP POP JUMP JUMPDEST PUSH2 0x5D9F DUP2 PUSH2 0x49DE JUMP JUMPDEST DUP3 MSTORE POP POP JUMP JUMPDEST PUSH2 0x5DAE DUP2 PUSH2 0x49A3 JUMP JUMPDEST DUP3 MSTORE POP POP JUMP JUMPDEST PUSH2 0x5DBD DUP2 PUSH2 0x4A11 JUMP JUMPDEST DUP3 MSTORE POP POP JUMP JUMPDEST PUSH2 0x5DCC DUP2 PUSH2 0x4B1C JUMP JUMPDEST DUP3 MSTORE POP POP JUMP JUMPDEST PUSH2 0x120 DUP3 ADD PUSH0 DUP3 ADD MLOAD PUSH2 0x5DE7 PUSH0 DUP6 ADD DUP3 PUSH2 0x5D96 JUMP JUMPDEST POP PUSH1 0x20 DUP3 ADD MLOAD PUSH2 0x5DFA PUSH1 0x20 DUP6 ADD DUP3 PUSH2 0x5D96 JUMP JUMPDEST POP PUSH1 0x40 DUP3 ADD MLOAD PUSH2 0x5E0D PUSH1 0x40 DUP6 ADD DUP3 PUSH2 0x5DA5 JUMP JUMPDEST POP PUSH1 0x60 DUP3 ADD MLOAD PUSH2 0x5E20 PUSH1 0x60 DUP6 ADD DUP3 PUSH2 0x5DA5 JUMP JUMPDEST POP PUSH1 0x80 DUP3 ADD MLOAD PUSH2 0x5E33 PUSH1 0x80 DUP6 ADD DUP3 PUSH2 0x5DA5 JUMP JUMPDEST POP PUSH1 0xA0 DUP3 ADD MLOAD PUSH2 0x5E46 PUSH1 0xA0 DUP6 ADD DUP3 PUSH2 0x5DB4 JUMP JUMPDEST POP PUSH1 0xC0 DUP3 ADD MLOAD PUSH2 0x5E59 PUSH1 0xC0 DUP6 ADD DUP3 PUSH2 0x5DA5 JUMP JUMPDEST POP PUSH1 0xE0 DUP3 ADD MLOAD PUSH2 0x5E6C PUSH1 0xE0 DUP6 ADD DUP3 PUSH2 0x5DC3 JUMP JUMPDEST POP PUSH2 0x100 DUP3 ADD MLOAD PUSH2 0x5E81 PUSH2 0x100 DUP6 ADD DUP3 PUSH2 0x5DA5 JUMP JUMPDEST POP POP POP POP JUMP JUMPDEST PUSH0 PUSH2 0x1A0 DUP3 ADD SWAP1 POP PUSH2 0x5E9B PUSH0 DUP4 ADD DUP9 PUSH2 0x5D7A JUMP JUMPDEST PUSH2 0x5EA8 PUSH1 0x20 DUP4 ADD DUP8 PUSH2 0x5D81 JUMP JUMPDEST PUSH2 0x5EB5 PUSH1 0x40 DUP4 ADD DUP7 PUSH2 0x5D88 JUMP JUMPDEST PUSH2 0x5EC2 PUSH1 0x60 DUP4 ADD DUP6 PUSH2 0x5D8F JUMP JUMPDEST PUSH2 0x5ECF PUSH1 0x80 DUP4 ADD DUP5 PUSH2 0x5DD2 JUMP JUMPDEST SWAP7 SWAP6 POP POP POP POP POP POP JUMP JUMPDEST PUSH2 0x5EE2 DUP2 PUSH2 0x4B1C JUMP JUMPDEST DUP3 MSTORE POP POP JUMP JUMPDEST PUSH2 0x5EF1 DUP2 PUSH2 0x4B52 JUMP JUMPDEST DUP3 MSTORE POP POP JUMP JUMPDEST PUSH0 PUSH1 0xE0 DUP3 ADD SWAP1 POP PUSH2 0x5F0A PUSH0 DUP4 ADD DUP11 PUSH2 0x5113 JUMP JUMPDEST PUSH2 0x5F17 PUSH1 0x20 DUP4 ADD DUP10 PUSH2 0x5113 JUMP JUMPDEST PUSH2 0x5F24 PUSH1 0x40 DUP4 ADD DUP9 PUSH2 0x4ABD JUMP JUMPDEST PUSH2 0x5F31 PUSH1 0x60 DUP4 ADD DUP8 PUSH2 0x4ABD JUMP JUMPDEST PUSH2 0x5F3E PUSH1 0x80 DUP4 ADD DUP7 PUSH2 0x5ED9 JUMP JUMPDEST PUSH2 0x5F4B PUSH1 0xA0 DUP4 ADD DUP6 PUSH2 0x5EE8 JUMP JUMPDEST PUSH2 0x5F58 PUSH1 0xC0 DUP4 ADD DUP5 PUSH2 0x5EE8 JUMP JUMPDEST SWAP9 SWAP8 POP POP POP POP POP POP POP POP JUMP JUMPDEST DUP1 DUP3 MSTORE POP POP JUMP JUMPDEST PUSH2 0x5F74 DUP2 PUSH2 0x4AE5 JUMP JUMPDEST DUP3 MSTORE POP POP JUMP JUMPDEST PUSH1 0x80 DUP3 ADD PUSH0 DUP3 ADD MLOAD PUSH2 0x5F8E PUSH0 DUP6 ADD DUP3 PUSH2 0x5DA5 JUMP JUMPDEST POP PUSH1 0x20 DUP3 ADD MLOAD PUSH2 0x5FA1 PUSH1 0x20 DUP6 ADD DUP3 PUSH2 0x5D96 JUMP JUMPDEST POP PUSH1 0x40 DUP3 ADD MLOAD PUSH2 0x5FB4 PUSH1 0x40 DUP6 ADD DUP3 PUSH2 0x5DA5 JUMP JUMPDEST POP PUSH1 0x60 DUP3 ADD MLOAD PUSH2 0x5FC7 PUSH1 0x60 DUP6 ADD DUP3 PUSH2 0x5F6B JUMP JUMPDEST POP POP POP POP JUMP JUMPDEST PUSH0 PUSH1 0xE0 DUP3 ADD SWAP1 POP PUSH2 0x5FE0 PUSH0 DUP4 ADD DUP8 PUSH2 0x5D7A JUMP JUMPDEST PUSH2 0x5FED PUSH1 0x20 DUP4 ADD DUP7 PUSH2 0x5D81 JUMP JUMPDEST PUSH2 0x5FFA PUSH1 0x40 DUP4 ADD DUP6 PUSH2 0x5F64 JUMP JUMPDEST PUSH2 0x6007 PUSH1 0x60 DUP4 ADD DUP5 PUSH2 0x5F7A JUMP JUMPDEST SWAP6 SWAP5 POP POP POP POP POP JUMP JUMPDEST PUSH0 DUP3 DUP3 MSTORE PUSH1 0x20 DUP3 ADD SWAP1 POP SWAP3 SWAP2 POP POP JUMP JUMPDEST PUSH0 PUSH2 0x602A DUP3 PUSH2 0x5291 JUMP JUMPDEST PUSH2 0x6034 DUP2 DUP6 PUSH2 0x6010 JUMP JUMPDEST SWAP4 POP PUSH2 0x6044 DUP2 DUP6 PUSH1 0x20 DUP7 ADD PUSH2 0x52AB JUMP JUMPDEST PUSH2 0x604D DUP2 PUSH2 0x52B9 JUMP JUMPDEST DUP5 ADD SWAP2 POP POP SWAP3 SWAP2 POP POP JUMP JUMPDEST PUSH0 PUSH1 0x20 DUP3 ADD SWAP1 POP DUP2 DUP2 SUB PUSH0 DUP4 ADD MSTORE PUSH2 0x6070 DUP2 DUP5 PUSH2 0x6020 JUMP JUMPDEST SWAP1 POP SWAP3 SWAP2 POP POP JUMP JUMPDEST DUP1 DUP3 MSTORE POP POP JUMP JUMPDEST PUSH1 0x60 DUP3 ADD PUSH0 DUP3 ADD MLOAD PUSH2 0x6093 PUSH0 DUP6 ADD DUP3 PUSH2 0x5D96 JUMP JUMPDEST POP PUSH1 0x20 DUP3 ADD MLOAD PUSH2 0x60A6 PUSH1 0x20 DUP6 ADD DUP3 PUSH2 0x5DA5 JUMP JUMPDEST POP PUSH1 0x40 DUP3 ADD MLOAD PUSH2 0x60B9 PUSH1 0x40 DUP6 ADD DUP3 PUSH2 0x5DC3 JUMP JUMPDEST POP POP POP POP JUMP JUMPDEST PUSH0 PUSH2 0x100 DUP3 ADD SWAP1 POP PUSH2 0x60D3 PUSH0 DUP4 ADD DUP10 PUSH2 0x5D7A JUMP JUMPDEST PUSH2 0x60E0 PUSH1 0x20 DUP4 ADD DUP9 PUSH2 0x5D81 JUMP JUMPDEST PUSH2 0x60ED PUSH1 0x40 DUP4 ADD DUP8 PUSH2 0x5D8F JUMP JUMPDEST PUSH2 0x60FA PUSH1 0x60 DUP4 ADD DUP7 PUSH2 0x6078 JUMP JUMPDEST PUSH2 0x6107 PUSH1 0x80 DUP4 ADD DUP6 PUSH2 0x5F64 JUMP JUMPDEST PUSH2 0x6114 PUSH1 0xA0 DUP4 ADD DUP5 PUSH2 0x607F JUMP JUMPDEST SWAP8 SWAP7 POP POP POP POP POP POP POP JUMP JUMPDEST PUSH32 0x4E487B7100000000000000000000000000000000000000000000000000000000 PUSH0 MSTORE PUSH1 0x21 PUSH1 0x4 MSTORE PUSH1 0x24 PUSH0 REVERT JUMPDEST PUSH1 0x3 DUP2 LT PUSH2 0x615D JUMPI PUSH2 0x615C PUSH2 0x611F JUMP JUMPDEST JUMPDEST POP JUMP JUMPDEST PUSH0 DUP2 SWAP1 POP PUSH2 0x616D DUP3 PUSH2 0x614C JUMP JUMPDEST SWAP2 SWAP1 POP JUMP JUMPDEST PUSH0 PUSH2 0x617C DUP3 PUSH2 0x6160 JUMP JUMPDEST SWAP1 POP SWAP2 SWAP1 POP JUMP JUMPDEST PUSH2 0x618C DUP2 PUSH2 0x6172 JUMP JUMPDEST DUP3 MSTORE POP POP JUMP JUMPDEST PUSH1 0xA0 DUP3 ADD PUSH0 DUP3 ADD MLOAD PUSH2 0x61A6 PUSH0 DUP6 ADD DUP3 PUSH2 0x5DA5 JUMP JUMPDEST POP PUSH1 0x20 DUP3 ADD MLOAD PUSH2 0x61B9 PUSH1 0x20 DUP6 ADD DUP3 PUSH2 0x5D96 JUMP JUMPDEST POP PUSH1 0x40 DUP3 ADD MLOAD PUSH2 0x61CC PUSH1 0x40 DUP6 ADD DUP3 PUSH2 0x6183 JUMP JUMPDEST POP PUSH1 0x60 DUP3 ADD MLOAD PUSH2 0x61DF PUSH1 0x60 DUP6 ADD DUP3 PUSH2 0x5DA5 JUMP JUMPDEST POP PUSH1 0x80 DUP3 ADD MLOAD PUSH2 0x61F2 PUSH1 0x80 DUP6 ADD DUP3 PUSH2 0x5DB4 JUMP JUMPDEST POP POP POP POP JUMP JUMPDEST PUSH0 PUSH2 0x100 DUP3 ADD SWAP1 POP PUSH2 0x620C PUSH0 DUP4 ADD DUP8 PUSH2 0x5D7A JUMP JUMPDEST PUSH2 0x6219 PUSH1 0x20 DUP4 ADD DUP7 PUSH2 0x5D81 JUMP JUMPDEST PUSH2 0x6226 PUSH1 0x40 DUP4 ADD DUP6 PUSH2 0x5F64 JUMP JUMPDEST PUSH2 0x6233 PUSH1 0x60 DUP4 ADD DUP5 PUSH2 0x6192 JUMP JUMPDEST SWAP6 SWAP5 POP POP POP POP POP JUMP JUMPDEST PUSH0 DUP2 MLOAD SWAP1 POP PUSH2 0x624A DUP2 PUSH2 0x49E7 JUMP JUMPDEST SWAP3 SWAP2 POP POP JUMP JUMPDEST PUSH0 PUSH1 0x20 DUP3 DUP5 SUB SLT ISZERO PUSH2 0x6265 JUMPI PUSH2 0x6264 PUSH2 0x497C JUMP JUMPDEST JUMPDEST PUSH0 PUSH2 0x6272 DUP5 DUP3 DUP6 ADD PUSH2 0x623C JUMP JUMPDEST SWAP2 POP POP SWAP3 SWAP2 POP POP JUMP JUMPDEST DUP1 DUP3 MSTORE POP POP JUMP JUMPDEST PUSH0 DUP2 MLOAD SWAP1 POP SWAP2 SWAP1 POP JUMP JUMPDEST PUSH0 DUP3 DUP3 MSTORE PUSH1 0x20 DUP3 ADD SWAP1 POP SWAP3 SWAP2 POP POP JUMP JUMPDEST PUSH0 PUSH2 0x62A6 DUP3 PUSH2 0x6282 JUMP JUMPDEST PUSH2 0x62B0 DUP2 DUP6 PUSH2 0x628C JUMP JUMPDEST SWAP4 POP PUSH2 0x62C0 DUP2 DUP6 PUSH1 0x20 DUP7 ADD PUSH2 0x52AB JUMP JUMPDEST PUSH2 0x62C9 DUP2 PUSH2 0x52B9 JUMP JUMPDEST DUP5 ADD SWAP2 POP POP SWAP3 SWAP2 POP POP JUMP JUMPDEST PUSH0 PUSH1 0xE0 DUP4 ADD PUSH0 DUP4 ADD MLOAD PUSH2 0x62E9 PUSH0 DUP7 ADD DUP3 PUSH2 0x5DA5 JUMP JUMPDEST POP PUSH1 0x20 DUP4 ADD MLOAD PUSH2 0x62FC PUSH1 0x20 DUP7 ADD DUP3 PUSH2 0x5DA5 JUMP JUMPDEST POP PUSH1 0x40 DUP4 ADD MLOAD PUSH2 0x630F PUSH1 0x40 DUP7 ADD DUP3 PUSH2 0x5D96 JUMP JUMPDEST POP PUSH1 0x60 DUP4 ADD MLOAD DUP5 DUP3 SUB PUSH1 0x60 DUP7 ADD MSTORE PUSH2 0x6327 DUP3 DUP3 PUSH2 0x629C JUMP JUMPDEST SWAP2 POP POP PUSH1 0x80 DUP4 ADD MLOAD PUSH2 0x633C PUSH1 0x80 DUP7 ADD DUP3 PUSH2 0x5F6B JUMP JUMPDEST POP PUSH1 0xA0 DUP4 ADD MLOAD PUSH2 0x634F PUSH1 0xA0 DUP7 ADD DUP3 PUSH2 0x5D96 JUMP JUMPDEST POP PUSH1 0xC0 DUP4 ADD MLOAD PUSH2 0x6362 PUSH1 0xC0 DUP7 ADD DUP3 PUSH2 0x5D96 JUMP JUMPDEST POP DUP1 SWAP2 POP POP SWAP3 SWAP2 POP POP JUMP JUMPDEST PUSH0 PUSH1 0x40 DUP3 ADD SWAP1 POP PUSH2 0x6380 PUSH0 DUP4 ADD DUP6 PUSH2 0x627B JUMP JUMPDEST DUP2 DUP2 SUB PUSH1 0x20 DUP4 ADD MSTORE PUSH2 0x6392 DUP2 DUP5 PUSH2 0x62D4 JUMP JUMPDEST SWAP1 POP SWAP4 SWAP3 POP POP POP JUMP JUMPDEST PUSH2 0x63A4 DUP2 PUSH2 0x49A3 JUMP JUMPDEST DUP3 MSTORE POP POP JUMP JUMPDEST PUSH2 0x63B3 DUP2 PUSH2 0x4A11 JUMP JUMPDEST DUP3 MSTORE POP POP JUMP JUMPDEST PUSH0 PUSH2 0x63D3 PUSH2 0x63CE PUSH2 0x63C9 DUP5 PUSH2 0x4AE5 JUMP JUMPDEST PUSH2 0x4C36 JUMP JUMPDEST PUSH2 0x49DE JUMP JUMPDEST SWAP1 POP SWAP2 SWAP1 POP JUMP JUMPDEST PUSH2 0x63E3 DUP2 PUSH2 0x63B9 JUMP JUMPDEST DUP3 MSTORE POP POP JUMP JUMPDEST PUSH2 0x63F2 DUP2 PUSH2 0x4B1C JUMP JUMPDEST DUP3 MSTORE POP POP JUMP JUMPDEST PUSH0 PUSH2 0x120 DUP3 ADD SWAP1 POP PUSH2 0x640C PUSH0 DUP4 ADD DUP13 PUSH2 0x5D7A JUMP JUMPDEST PUSH2 0x6419 PUSH1 0x20 DUP4 ADD DUP12 PUSH2 0x5D81 JUMP JUMPDEST PUSH2 0x6426 PUSH1 0x40 DUP4 ADD DUP11 PUSH2 0x5D8F JUMP JUMPDEST PUSH2 0x6433 PUSH1 0x60 DUP4 ADD DUP10 PUSH2 0x5F64 JUMP JUMPDEST PUSH2 0x6440 PUSH1 0x80 DUP4 ADD DUP9 PUSH2 0x639B JUMP JUMPDEST PUSH2 0x644D PUSH1 0xA0 DUP4 ADD DUP8 PUSH2 0x63AA JUMP JUMPDEST PUSH2 0x645A PUSH1 0xC0 DUP4 ADD DUP7 PUSH2 0x63DA JUMP JUMPDEST PUSH2 0x6467 PUSH1 0xE0 DUP4 ADD DUP6 PUSH2 0x639B JUMP JUMPDEST PUSH2 0x6475 PUSH2 0x100 DUP4 ADD DUP5 PUSH2 0x63E9 JUMP JUMPDEST SWAP11 SWAP10 POP POP POP POP POP POP POP POP POP POP JUMP JUMPDEST PUSH0 PUSH1 0x60 DUP3 ADD SWAP1 POP PUSH2 0x6496 PUSH0 DUP4 ADD DUP7 PUSH2 0x5D7A JUMP JUMPDEST PUSH2 0x64A3 PUSH1 0x20 DUP4 ADD DUP6 PUSH2 0x5D81 JUMP JUMPDEST PUSH2 0x64B0 PUSH1 0x40 DUP4 ADD DUP5 PUSH2 0x639B JUMP JUMPDEST SWAP5 SWAP4 POP POP POP POP JUMP JUMPDEST PUSH1 0xC0 DUP3 ADD PUSH0 DUP3 ADD MLOAD PUSH2 0x64CC PUSH0 DUP6 ADD DUP3 PUSH2 0x5DA5 JUMP JUMPDEST POP PUSH1 0x20 DUP3 ADD MLOAD PUSH2 0x64DF PUSH1 0x20 DUP6 ADD DUP3 PUSH2 0x5D96 JUMP JUMPDEST POP PUSH1 0x40 DUP3 ADD MLOAD PUSH2 0x64F2 PUSH1 0x40 DUP6 ADD DUP3 PUSH2 0x5DA5 JUMP JUMPDEST POP PUSH1 0x60 DUP3 ADD MLOAD PUSH2 0x6505 PUSH1 0x60 DUP6 ADD DUP3 PUSH2 0x5D96 JUMP JUMPDEST POP PUSH1 0x80 DUP3 ADD MLOAD PUSH2 0x6518 PUSH1 0x80 DUP6 ADD DUP3 PUSH2 0x5DA5 JUMP JUMPDEST POP PUSH1 0xA0 DUP3 ADD MLOAD PUSH2 0x652B PUSH1 0xA0 DUP6 ADD DUP3 PUSH2 0x5DC3 JUMP JUMPDEST POP POP POP POP JUMP JUMPDEST PUSH0 PUSH2 0x140 DUP3 ADD SWAP1 POP PUSH2 0x6545 PUSH0 DUP4 ADD DUP9 PUSH2 0x5D7A JUMP JUMPDEST PUSH2 0x6552 PUSH1 0x20 DUP4 ADD DUP8 PUSH2 0x5D81 JUMP JUMPDEST PUSH2 0x655F PUSH1 0x40 DUP4 ADD DUP7 PUSH2 0x5D8F JUMP JUMPDEST PUSH2 0x656C PUSH1 0x60 DUP4 ADD DUP6 PUSH2 0x5F64 JUMP JUMPDEST PUSH2 0x6579 PUSH1 0x80 DUP4 ADD DUP5 PUSH2 0x64B8 JUMP JUMPDEST SWAP7 SWAP6 POP POP POP POP POP POP JUMP JUMPDEST PUSH2 0x658C DUP2 PUSH2 0x49DE JUMP JUMPDEST DUP3 MSTORE POP POP JUMP JUMPDEST PUSH2 0x659B DUP2 PUSH2 0x4AE5 JUMP JUMPDEST DUP3 MSTORE POP POP JUMP JUMPDEST PUSH0 PUSH1 0xE0 DUP3 ADD SWAP1 POP PUSH2 0x65B4 PUSH0 DUP4 ADD DUP11 PUSH2 0x5D7A JUMP JUMPDEST PUSH2 0x65C1 PUSH1 0x20 DUP4 ADD DUP10 PUSH2 0x5D81 JUMP JUMPDEST PUSH2 0x65CE PUSH1 0x40 DUP4 ADD DUP9 PUSH2 0x5F64 JUMP JUMPDEST PUSH2 0x65DB PUSH1 0x60 DUP4 ADD DUP8 PUSH2 0x639B JUMP JUMPDEST PUSH2 0x65E8 PUSH1 0x80 DUP4 ADD DUP7 PUSH2 0x6583 JUMP JUMPDEST PUSH2 0x65F5 PUSH1 0xA0 DUP4 ADD DUP6 PUSH2 0x639B JUMP JUMPDEST PUSH2 0x6602 PUSH1 0xC0 DUP4 ADD DUP5 PUSH2 0x6592 JUMP JUMPDEST SWAP9 SWAP8 POP POP POP POP POP POP POP POP JUMP JUMPDEST PUSH32 0x4E487B7100000000000000000000000000000000000000000000000000000000 PUSH0 MSTORE PUSH1 0x22 PUSH1 0x4 MSTORE PUSH1 0x24 PUSH0 REVERT JUMPDEST PUSH0 PUSH1 0x2 DUP3 DIV SWAP1 POP PUSH1 0x1 DUP3 AND DUP1 PUSH2 0x6652 JUMPI PUSH1 0x7F DUP3 AND SWAP2 POP JUMPDEST PUSH1 0x20 DUP3 LT DUP2 SUB PUSH2 0x6665 JUMPI PUSH2 0x6664 PUSH2 0x660E JUMP JUMPDEST JUMPDEST POP SWAP2 SWAP1 POP JUMP JUMPDEST PUSH1 0xE0 DUP3 ADD PUSH0 DUP3 ADD MLOAD PUSH2 0x667F PUSH0 DUP6 ADD DUP3 PUSH2 0x5DA5 JUMP JUMPDEST POP PUSH1 0x20 DUP3 ADD MLOAD PUSH2 0x6692 PUSH1 0x20 DUP6 ADD DUP3 PUSH2 0x5DA5 JUMP JUMPDEST POP PUSH1 0x40 DUP3 ADD MLOAD PUSH2 0x66A5 PUSH1 0x40 DUP6 ADD DUP3 PUSH2 0x5DA5 JUMP JUMPDEST POP PUSH1 0x60 DUP3 ADD MLOAD PUSH2 0x66B8 PUSH1 0x60 DUP6 ADD DUP3 PUSH2 0x5DA5 JUMP JUMPDEST POP PUSH1 0x80 DUP3 ADD MLOAD PUSH2 0x66CB PUSH1 0x80 DUP6 ADD DUP3 PUSH2 0x5DA5 JUMP JUMPDEST POP PUSH1 0xA0 DUP3 ADD MLOAD PUSH2 0x66DE PUSH1 0xA0 DUP6 ADD DUP3 PUSH2 0x5F6B JUMP JUMPDEST POP PUSH1 0xC0 DUP3 ADD MLOAD PUSH2 0x66F1 PUSH1 0xC0 DUP6 ADD DUP3 PUSH2 0x5F6B JUMP JUMPDEST POP POP POP POP JUMP JUMPDEST PUSH0 PUSH2 0x120 DUP3 ADD SWAP1 POP PUSH2 0x670B PUSH0 DUP4 ADD DUP7 PUSH2 0x5D7A JUMP JUMPDEST PUSH2 0x6718 PUSH1 0x20 DUP4 ADD DUP6 PUSH2 0x5D81 JUMP JUMPDEST PUSH2 0x6725 PUSH1 0x40 DUP4 ADD DUP5 PUSH2 0x666B JUMP JUMPDEST SWAP5 SWAP4 POP POP POP POP JUMP JUMPDEST PUSH0 DUP2 MLOAD SWAP1 POP PUSH2 0x673B DUP2 PUSH2 0x4A1C JUMP JUMPDEST SWAP3 SWAP2 POP POP JUMP JUMPDEST PUSH0 PUSH1 0x20 DUP3 DUP5 SUB SLT ISZERO PUSH2 0x6756 JUMPI PUSH2 0x6755 PUSH2 0x497C JUMP JUMPDEST JUMPDEST PUSH0 PUSH2 0x6763 DUP5 DUP3 DUP6 ADD PUSH2 0x672D JUMP JUMPDEST SWAP2 POP POP SWAP3 SWAP2 POP POP JUMP JUMPDEST PUSH32 0x4E487B7100000000000000000000000000000000000000000000000000000000 PUSH0 MSTORE PUSH1 0x11 PUSH1 0x4 MSTORE PUSH1 0x24 PUSH0 REVERT JUMPDEST PUSH0 PUSH2 0x67A3 DUP3 PUSH2 0x4AE5 JUMP JUMPDEST SWAP2 POP PUSH2 0xFFFF DUP3 SUB PUSH2 0x67B7 JUMPI PUSH2 0x67B6 PUSH2 0x676C JUMP JUMPDEST JUMPDEST PUSH1 0x1 DUP3 ADD SWAP1 POP SWAP2 SWAP1 POP JUMP JUMPDEST PUSH2 0x67CB DUP2 PUSH2 0x6172 JUMP JUMPDEST DUP3 MSTORE POP POP JUMP JUMPDEST PUSH0 PUSH1 0x80 DUP3 ADD SWAP1 POP PUSH2 0x67E4 PUSH0 DUP4 ADD DUP8 PUSH2 0x627B JUMP JUMPDEST PUSH2 0x67F1 PUSH1 0x20 DUP4 ADD DUP7 PUSH2 0x5F64 JUMP JUMPDEST PUSH2 0x67FE PUSH1 0x40 DUP4 ADD DUP6 PUSH2 0x639B JUMP JUMPDEST PUSH2 0x680B PUSH1 0x60 DUP4 ADD DUP5 PUSH2 0x67C2 JUMP JUMPDEST SWAP6 SWAP5 POP POP POP POP POP JUMP JUMPDEST PUSH0 DUP3 DUP3 MSTORE PUSH1 0x20 DUP3 ADD SWAP1 POP SWAP3 SWAP2 POP POP JUMP JUMPDEST PUSH0 DUP2 SWAP1 POP SWAP2 SWAP1 POP JUMP JUMPDEST PUSH0 PUSH2 0x6838 DUP4 DUP4 PUSH2 0x5DA5 JUMP JUMPDEST PUSH1 0x20 DUP4 ADD SWAP1 POP SWAP3 SWAP2 POP POP JUMP JUMPDEST PUSH0 PUSH2 0x6852 PUSH1 0x20 DUP5 ADD DUP5 PUSH2 0x49CA JUMP JUMPDEST SWAP1 POP SWAP3 SWAP2 POP POP JUMP JUMPDEST PUSH0 PUSH1 0x20 DUP3 ADD SWAP1 POP SWAP2 SWAP1 POP JUMP JUMPDEST PUSH0 PUSH2 0x6871 DUP4 DUP6 PUSH2 0x6814 JUMP JUMPDEST SWAP4 POP PUSH2 0x687C DUP3 PUSH2 0x6824 JUMP JUMPDEST DUP1 PUSH0 JUMPDEST DUP6 DUP2 LT ISZERO PUSH2 0x68B4 JUMPI PUSH2 0x6891 DUP3 DUP5 PUSH2 0x6844 JUMP JUMPDEST PUSH2 0x689B DUP9 DUP3 PUSH2 0x682D JUMP JUMPDEST SWAP8 POP PUSH2 0x68A6 DUP4 PUSH2 0x685A JUMP JUMPDEST SWAP3 POP POP PUSH1 0x1 DUP2 ADD SWAP1 POP PUSH2 0x687F JUMP JUMPDEST POP DUP6 SWAP3 POP POP POP SWAP4 SWAP3 POP POP POP JUMP JUMPDEST PUSH0 PUSH1 0x40 DUP3 ADD SWAP1 POP PUSH2 0x68D4 PUSH0 DUP4 ADD DUP7 PUSH2 0x5D7A JUMP JUMPDEST DUP2 DUP2 SUB PUSH1 0x20 DUP4 ADD MSTORE PUSH2 0x68E7 DUP2 DUP5 DUP7 PUSH2 0x6866 JUMP JUMPDEST SWAP1 POP SWAP5 SWAP4 POP POP POP POP JUMP JUMPDEST PUSH2 0x180 DUP3 ADD PUSH0 DUP3 ADD MLOAD PUSH2 0x6906 PUSH0 DUP6 ADD DUP3 PUSH2 0x5DA5 JUMP JUMPDEST POP PUSH1 0x20 DUP3 ADD MLOAD PUSH2 0x6919 PUSH1 0x20 DUP6 ADD DUP3 PUSH2 0x5DA5 JUMP JUMPDEST POP PUSH1 0x40 DUP3 ADD MLOAD PUSH2 0x692C PUSH1 0x40 DUP6 ADD DUP3 PUSH2 0x5DA5 JUMP JUMPDEST POP PUSH1 0x60 DUP3 ADD MLOAD PUSH2 0x693F PUSH1 0x60 DUP6 ADD DUP3 PUSH2 0x5D96 JUMP JUMPDEST POP PUSH1 0x80 DUP3 ADD MLOAD PUSH2 0x6952 PUSH1 0x80 DUP6 ADD DUP3 PUSH2 0x6183 JUMP JUMPDEST POP PUSH1 0xA0 DUP3 ADD MLOAD PUSH2 0x6965 PUSH1 0xA0 DUP6 ADD DUP3 PUSH2 0x5F6B JUMP JUMPDEST POP PUSH1 0xC0 DUP3 ADD MLOAD PUSH2 0x6978 PUSH1 0xC0 DUP6 ADD DUP3 PUSH2 0x5DB4 JUMP JUMPDEST POP PUSH1 0xE0 DUP3 ADD MLOAD PUSH2 0x698B PUSH1 0xE0 DUP6 ADD DUP3 PUSH2 0x5D96 JUMP JUMPDEST POP PUSH2 0x100 DUP3 ADD MLOAD PUSH2 0x69A0 PUSH2 0x100 DUP6 ADD DUP3 PUSH2 0x5D96 JUMP JUMPDEST POP PUSH2 0x120 DUP3 ADD MLOAD PUSH2 0x69B5 PUSH2 0x120 DUP6 ADD DUP3 PUSH2 0x5DA5 JUMP JUMPDEST POP PUSH2 0x140 DUP3 ADD MLOAD PUSH2 0x69CA PUSH2 0x140 DUP6 ADD DUP3 PUSH2 0x5DC3 JUMP JUMPDEST POP PUSH2 0x160 DUP3 ADD MLOAD PUSH2 0x69DF PUSH2 0x160 DUP6 ADD DUP3 PUSH2 0x5DA5 JUMP JUMPDEST POP POP POP POP JUMP JUMPDEST PUSH0 PUSH2 0x200 DUP3 ADD SWAP1 POP PUSH2 0x69F9 PUSH0 DUP4 ADD DUP9 PUSH2 0x5D7A JUMP JUMPDEST PUSH2 0x6A06 PUSH1 0x20 DUP4 ADD DUP8 PUSH2 0x5D81 JUMP JUMPDEST PUSH2 0x6A13 PUSH1 0x40 DUP4 ADD DUP7 PUSH2 0x5D8F JUMP JUMPDEST PUSH2 0x6A20 PUSH1 0x60 DUP4 ADD DUP6 PUSH2 0x5F64 JUMP JUMPDEST PUSH2 0x6A2D PUSH1 0x80 DUP4 ADD DUP5 PUSH2 0x68F1 JUMP JUMPDEST SWAP7 SWAP6 POP POP POP POP POP POP JUMP JUMPDEST PUSH0 DUP3 DUP3 MSTORE PUSH1 0x20 DUP3 ADD SWAP1 POP SWAP3 SWAP2 POP POP JUMP JUMPDEST PUSH0 PUSH2 0x6A51 DUP3 PUSH2 0x5882 JUMP JUMPDEST PUSH2 0x6A5B DUP2 DUP6 PUSH2 0x6A37 JUMP JUMPDEST SWAP4 POP PUSH2 0x6A66 DUP4 PUSH2 0x589C JUMP JUMPDEST DUP1 PUSH0 JUMPDEST DUP4 DUP2 LT ISZERO PUSH2 0x6A96 JUMPI DUP2 MLOAD PUSH2 0x6A7D DUP9 DUP3 PUSH2 0x682D JUMP JUMPDEST SWAP8 POP PUSH2 0x6A88 DUP4 PUSH2 0x58C2 JUMP JUMPDEST SWAP3 POP POP PUSH1 0x1 DUP2 ADD SWAP1 POP PUSH2 0x6A69 JUMP JUMPDEST POP DUP6 SWAP4 POP POP POP POP SWAP3 SWAP2 POP POP JUMP JUMPDEST PUSH0 DUP2 MLOAD SWAP1 POP SWAP2 SWAP1 POP JUMP JUMPDEST PUSH0 DUP3 DUP3 MSTORE PUSH1 0x20 DUP3 ADD SWAP1 POP SWAP3 SWAP2 POP POP JUMP JUMPDEST PUSH0 DUP2 SWAP1 POP PUSH1 0x20 DUP3 ADD SWAP1 POP SWAP2 SWAP1 POP JUMP JUMPDEST PUSH0 PUSH2 0x6AD7 DUP4 DUP4 PUSH2 0x5D96 JUMP JUMPDEST PUSH1 0x20 DUP4 ADD SWAP1 POP SWAP3 SWAP2 POP POP JUMP JUMPDEST PUSH0 PUSH1 0x20 DUP3 ADD SWAP1 POP SWAP2 SWAP1 POP JUMP JUMPDEST PUSH0 PUSH2 0x6AF9 DUP3 PUSH2 0x6AA3 JUMP JUMPDEST PUSH2 0x6B03 DUP2 DUP6 PUSH2 0x6AAD JUMP JUMPDEST SWAP4 POP PUSH2 0x6B0E DUP4 PUSH2 0x6ABD JUMP JUMPDEST DUP1 PUSH0 JUMPDEST DUP4 DUP2 LT ISZERO PUSH2 0x6B3E JUMPI DUP2 MLOAD PUSH2 0x6B25 DUP9 DUP3 PUSH2 0x6ACC JUMP JUMPDEST SWAP8 POP PUSH2 0x6B30 DUP4 PUSH2 0x6AE3 JUMP JUMPDEST SWAP3 POP POP PUSH1 0x1 DUP2 ADD SWAP1 POP PUSH2 0x6B11 JUMP JUMPDEST POP DUP6 SWAP4 POP POP POP POP SWAP3 SWAP2 POP POP JUMP JUMPDEST PUSH0 PUSH2 0x1C0 DUP4 ADD PUSH0 DUP4 ADD MLOAD PUSH2 0x6B61 PUSH0 DUP7 ADD DUP3 PUSH2 0x5DA5 JUMP JUMPDEST POP PUSH1 0x20 DUP4 ADD MLOAD DUP5 DUP3 SUB PUSH1 0x20 DUP7 ADD MSTORE PUSH2 0x6B79 DUP3 DUP3 PUSH2 0x6A47 JUMP JUMPDEST SWAP2 POP POP PUSH1 0x40 DUP4 ADD MLOAD DUP5 DUP3 SUB PUSH1 0x40 DUP7 ADD MSTORE PUSH2 0x6B93 DUP3 DUP3 PUSH2 0x6AEF JUMP JUMPDEST SWAP2 POP POP PUSH1 0x60 DUP4 ADD MLOAD DUP5 DUP3 SUB PUSH1 0x60 DUP7 ADD MSTORE PUSH2 0x6BAD DUP3 DUP3 PUSH2 0x6AEF JUMP JUMPDEST SWAP2 POP POP PUSH1 0x80 DUP4 ADD MLOAD PUSH2 0x6BC2 PUSH1 0x80 DUP7 ADD DUP3 PUSH2 0x5DA5 JUMP JUMPDEST POP PUSH1 0xA0 DUP4 ADD MLOAD DUP5 DUP3 SUB PUSH1 0xA0 DUP7 ADD MSTORE PUSH2 0x6BDA DUP3 DUP3 PUSH2 0x629C JUMP JUMPDEST SWAP2 POP POP PUSH1 0xC0 DUP4 ADD MLOAD PUSH2 0x6BEF PUSH1 0xC0 DUP7 ADD DUP3 PUSH2 0x5F6B JUMP JUMPDEST POP PUSH1 0xE0 DUP4 ADD MLOAD PUSH2 0x6C02 PUSH1 0xE0 DUP7 ADD DUP3 PUSH2 0x5D96 JUMP JUMPDEST POP PUSH2 0x100 DUP4 ADD MLOAD PUSH2 0x6C17 PUSH2 0x100 DUP7 ADD DUP3 PUSH2 0x5D96 JUMP JUMPDEST POP PUSH2 0x120 DUP4 ADD MLOAD PUSH2 0x6C2C PUSH2 0x120 DUP7 ADD DUP3 PUSH2 0x5D96 JUMP JUMPDEST POP PUSH2 0x140 DUP4 ADD MLOAD PUSH2 0x6C41 PUSH2 0x140 DUP7 ADD DUP3 PUSH2 0x5D96 JUMP JUMPDEST POP PUSH2 0x160 DUP4 ADD MLOAD PUSH2 0x6C56 PUSH2 0x160 DUP7 ADD DUP3 PUSH2 0x5DA5 JUMP JUMPDEST POP PUSH2 0x180 DUP4 ADD MLOAD PUSH2 0x6C6B PUSH2 0x180 DUP7 ADD DUP3 PUSH2 0x5DC3 JUMP JUMPDEST POP PUSH2 0x1A0 DUP4 ADD MLOAD PUSH2 0x6C80 PUSH2 0x1A0 DUP7 ADD DUP3 PUSH2 0x5DB4 JUMP JUMPDEST POP DUP1 SWAP2 POP POP SWAP3 SWAP2 POP POP JUMP JUMPDEST PUSH0 PUSH1 0xA0 DUP3 ADD SWAP1 POP PUSH2 0x6C9E PUSH0 DUP4 ADD DUP9 PUSH2 0x5D7A JUMP JUMPDEST PUSH2 0x6CAB PUSH1 0x20 DUP4 ADD DUP8 PUSH2 0x5D81 JUMP JUMPDEST PUSH2 0x6CB8 PUSH1 0x40 DUP4 ADD DUP7 PUSH2 0x5D8F JUMP JUMPDEST PUSH2 0x6CC5 PUSH1 0x60 DUP4 ADD DUP6 PUSH2 0x5F64 JUMP JUMPDEST DUP2 DUP2 SUB PUSH1 0x80 DUP4 ADD MSTORE PUSH2 0x6CD7 DUP2 DUP5 PUSH2 0x6B4B JUMP JUMPDEST SWAP1 POP SWAP7 SWAP6 POP POP POP POP POP POP JUMP JUMPDEST PUSH1 0x20 DUP3 ADD PUSH0 DUP3 ADD MLOAD PUSH2 0x6CF7 PUSH0 DUP6 ADD DUP3 PUSH2 0x5D96 JUMP JUMPDEST POP POP POP POP JUMP JUMPDEST PUSH1 0xA0 DUP3 ADD PUSH0 DUP3 ADD MLOAD PUSH2 0x6D11 PUSH0 DUP6 ADD DUP3 PUSH2 0x6CE3 JUMP JUMPDEST POP PUSH1 0x20 DUP3 ADD MLOAD PUSH2 0x6D24 PUSH1 0x20 DUP6 ADD DUP3 PUSH2 0x5D96 JUMP JUMPDEST POP PUSH1 0x40 DUP3 ADD MLOAD PUSH2 0x6D37 PUSH1 0x40 DUP6 ADD DUP3 PUSH2 0x5DA5 JUMP JUMPDEST POP PUSH1 0x60 DUP3 ADD MLOAD PUSH2 0x6D4A PUSH1 0x60 DUP6 ADD DUP3 PUSH2 0x5DA5 JUMP JUMPDEST POP PUSH1 0x80 DUP3 ADD MLOAD PUSH2 0x6D5D PUSH1 0x80 DUP6 ADD DUP3 PUSH2 0x5DC3 JUMP JUMPDEST POP POP POP POP JUMP JUMPDEST PUSH0 PUSH2 0x100 DUP3 ADD SWAP1 POP PUSH2 0x6D77 PUSH0 DUP4 ADD DUP8 PUSH2 0x5D7A JUMP JUMPDEST PUSH2 0x6D84 PUSH1 0x20 DUP4 ADD DUP7 PUSH2 0x5D81 JUMP JUMPDEST PUSH2 0x6D91 PUSH1 0x40 DUP4 ADD DUP6 PUSH2 0x5D8F JUMP JUMPDEST PUSH2 0x6D9E PUSH1 0x60 DUP4 ADD DUP5 PUSH2 0x6CFD JUMP JUMPDEST SWAP6 SWAP5 POP POP POP POP POP JUMP JUMPDEST PUSH0 DUP1 PUSH0 DUP1 PUSH0 DUP1 PUSH1 0xC0 DUP8 DUP10 SUB SLT ISZERO PUSH2 0x6DC1 JUMPI PUSH2 0x6DC0 PUSH2 0x497C JUMP JUMPDEST JUMPDEST PUSH0 PUSH2 0x6DCE DUP10 DUP3 DUP11 ADD PUSH2 0x623C JUMP JUMPDEST SWAP7 POP POP PUSH1 0x20 PUSH2 0x6DDF DUP10 DUP3 DUP11 ADD PUSH2 0x623C JUMP JUMPDEST SWAP6 POP POP PUSH1 0x40 PUSH2 0x6DF0 DUP10 DUP3 DUP11 ADD PUSH2 0x623C JUMP JUMPDEST SWAP5 POP POP PUSH1 0x60 PUSH2 0x6E01 DUP10 DUP3 DUP11 ADD PUSH2 0x623C JUMP JUMPDEST SWAP4 POP POP PUSH1 0x80 PUSH2 0x6E12 DUP10 DUP3 DUP11 ADD PUSH2 0x623C JUMP JUMPDEST SWAP3 POP POP PUSH1 0xA0 PUSH2 0x6E23 DUP10 DUP3 DUP11 ADD PUSH2 0x623C JUMP JUMPDEST SWAP2 POP POP SWAP3 SWAP6 POP SWAP3 SWAP6 POP SWAP3 SWAP6 JUMP JUMPDEST PUSH32 0x436F6E747261637420696E7374616E63652068617320616C7265616479206265 PUSH0 DUP3 ADD MSTORE PUSH32 0x656E20696E697469616C697A6564000000000000000000000000000000000000 PUSH1 0x20 DUP3 ADD MSTORE POP JUMP JUMPDEST PUSH0 PUSH2 0x6E8A PUSH1 0x2E DUP4 PUSH2 0x6010 JUMP JUMPDEST SWAP2 POP PUSH2 0x6E95 DUP3 PUSH2 0x6E30 JUMP JUMPDEST PUSH1 0x40 DUP3 ADD SWAP1 POP SWAP2 SWAP1 POP JUMP JUMPDEST PUSH0 PUSH1 0x20 DUP3 ADD SWAP1 POP DUP2 DUP2 SUB PUSH0 DUP4 ADD MSTORE PUSH2 0x6EB7 DUP2 PUSH2 0x6E7E JUMP JUMPDEST SWAP1 POP SWAP2 SWAP1 POP JUMP JUMPDEST PUSH0 PUSH1 0x60 DUP3 ADD SWAP1 POP PUSH2 0x6ED1 PUSH0 DUP4 ADD DUP7 PUSH2 0x627B JUMP JUMPDEST PUSH2 0x6EDE PUSH1 0x20 DUP4 ADD DUP6 PUSH2 0x639B JUMP JUMPDEST PUSH2 0x6EEB PUSH1 0x40 DUP4 ADD DUP5 PUSH2 0x639B JUMP JUMPDEST SWAP5 SWAP4 POP POP POP POP JUMP JUMPDEST PUSH0 PUSH1 0x60 DUP3 ADD SWAP1 POP PUSH2 0x6F06 PUSH0 DUP4 ADD DUP7 PUSH2 0x639B JUMP JUMPDEST PUSH2 0x6F13 PUSH1 0x20 DUP4 ADD DUP6 PUSH2 0x639B JUMP JUMPDEST PUSH2 0x6F20 PUSH1 0x40 DUP4 ADD DUP5 PUSH2 0x6583 JUMP JUMPDEST SWAP5 SWAP4 POP POP POP POP JUMP JUMPDEST PUSH0 PUSH2 0x6F32 DUP3 PUSH2 0x49DE JUMP JUMPDEST SWAP2 POP PUSH2 0x6F3D DUP4 PUSH2 0x49DE JUMP JUMPDEST SWAP3 POP DUP3 DUP3 SUB SWAP1 POP DUP2 DUP2 GT ISZERO PUSH2 0x6F55 JUMPI PUSH2 0x6F54 PUSH2 0x676C JUMP JUMPDEST JUMPDEST SWAP3 SWAP2 POP POP JUMP JUMPDEST PUSH32 0x4E487B7100000000000000000000000000000000000000000000000000000000 PUSH0 MSTORE PUSH1 0x32 PUSH1 0x4 MSTORE PUSH1 0x24 PUSH0 REVERT JUMPDEST PUSH0 PUSH2 0x6F92 DUP3 PUSH2 0x49DE JUMP JUMPDEST SWAP2 POP PUSH32 0xFFFFFFFFFFFFFFFFFFFFFFFFFFFFFFFFFFFFFFFFFFFFFFFFFFFFFFFFFFFFFFFF DUP3 SUB PUSH2 0x6FC4 JUMPI PUSH2 0x6FC3 PUSH2 0x676C JUMP JUMPDEST JUMPDEST PUSH1 0x1 DUP3 ADD SWAP1 POP SWAP2 SWAP1 POP JUMP JUMPDEST PUSH0 DUP2 SWAP1 POP DUP2 PUSH0 MSTORE PUSH1 0x20 PUSH0 KECCAK256 SWAP1 POP SWAP2 SWAP1 POP JUMP JUMPDEST PUSH0 PUSH1 0x20 PUSH1 0x1F DUP4 ADD DIV SWAP1 POP SWAP2 SWAP1 POP JUMP JUMPDEST PUSH0 DUP3 DUP3 SHL SWAP1 POP SWAP3 SWAP2 POP POP JUMP JUMPDEST PUSH0 PUSH1 0x8 DUP4 MUL PUSH2 0x702B PUSH32 0xFFFFFFFFFFFFFFFFFFFFFFFFFFFFFFFFFFFFFFFFFFFFFFFFFFFFFFFFFFFFFFFF DUP3 PUSH2 0x6FF0 JUMP JUMPDEST PUSH2 0x7035 DUP7 DUP4 PUSH2 0x6FF0 JUMP JUMPDEST SWAP6 POP DUP1 NOT DUP5 AND SWAP4 POP DUP1 DUP7 AND DUP5 OR SWAP3 POP POP POP SWAP4 SWAP3 POP POP POP JUMP JUMPDEST PUSH0 PUSH2 0x7067 PUSH2 0x7062 PUSH2 0x705D DUP5 PUSH2 0x49DE JUMP JUMPDEST PUSH2 0x4C36 JUMP JUMPDEST PUSH2 0x49DE JUMP JUMPDEST SWAP1 POP SWAP2 SWAP1 POP JUMP JUMPDEST PUSH0 DUP2 SWAP1 POP SWAP2 SWAP1 POP JUMP JUMPDEST PUSH2 0x7080 DUP4 PUSH2 0x704D JUMP JUMPDEST PUSH2 0x7094 PUSH2 0x708C DUP3 PUSH2 0x706E JUMP JUMPDEST DUP5 DUP5 SLOAD PUSH2 0x6FFC JUMP JUMPDEST DUP3 SSTORE POP POP POP POP JUMP JUMPDEST PUSH0 SWAP1 JUMP JUMPDEST PUSH2 0x70A8 PUSH2 0x709C JUMP JUMPDEST PUSH2 0x70B3 DUP2 DUP5 DUP5 PUSH2 0x7077 JUMP JUMPDEST POP POP POP JUMP JUMPDEST JUMPDEST DUP2 DUP2 LT ISZERO PUSH2 0x70D6 JUMPI PUSH2 0x70CB PUSH0 DUP3 PUSH2 0x70A0 JUMP JUMPDEST PUSH1 0x1 DUP2 ADD SWAP1 POP PUSH2 0x70B9 JUMP JUMPDEST POP POP JUMP JUMPDEST PUSH1 0x1F DUP3 GT ISZERO PUSH2 0x711B JUMPI PUSH2 0x70EC DUP2 PUSH2 0x6FCF JUMP JUMPDEST PUSH2 0x70F5 DUP5 PUSH2 0x6FE1 JUMP JUMPDEST DUP2 ADD PUSH1 0x20 DUP6 LT ISZERO PUSH2 0x7104 JUMPI DUP2 SWAP1 POP JUMPDEST PUSH2 0x7118 PUSH2 0x7110 DUP6 PUSH2 0x6FE1 JUMP JUMPDEST DUP4 ADD DUP3 PUSH2 0x70B8 JUMP JUMPDEST POP POP JUMPDEST POP POP POP JUMP JUMPDEST PUSH0 DUP3 DUP3 SHR SWAP1 POP SWAP3 SWAP2 POP POP JUMP JUMPDEST PUSH0 PUSH2 0x713B PUSH0 NOT DUP5 PUSH1 0x8 MUL PUSH2 0x7120 JUMP JUMPDEST NOT DUP1 DUP4 AND SWAP2 POP POP SWAP3 SWAP2 POP POP JUMP JUMPDEST PUSH0 PUSH2 0x7153 DUP4 DUP4 PUSH2 0x712C JUMP JUMPDEST SWAP2 POP DUP3 PUSH1 0x2 MUL DUP3 OR SWAP1 POP SWAP3 SWAP2 POP POP JUMP JUMPDEST PUSH2 0x716C DUP3 PUSH2 0x5291 JUMP JUMPDEST PUSH8 0xFFFFFFFFFFFFFFFF DUP2 GT ISZERO PUSH2 0x7185 JUMPI PUSH2 0x7184 PUSH2 0x594E JUMP JUMPDEST JUMPDEST PUSH2 0x718F DUP3 SLOAD PUSH2 0x663B JUMP JUMPDEST PUSH2 0x719A DUP3 DUP3 DUP6 PUSH2 0x70DA JUMP JUMPDEST PUSH0 PUSH1 0x20 SWAP1 POP PUSH1 0x1F DUP4 GT PUSH1 0x1 DUP2 EQ PUSH2 0x71CB JUMPI PUSH0 DUP5 ISZERO PUSH2 0x71B9 JUMPI DUP3 DUP8 ADD MLOAD SWAP1 POP JUMPDEST PUSH2 0x71C3 DUP6 DUP3 PUSH2 0x7148 JUMP JUMPDEST DUP7 SSTORE POP PUSH2 0x722A JUMP JUMPDEST PUSH1 0x1F NOT DUP5 AND PUSH2 0x71D9 DUP7 PUSH2 0x6FCF JUMP JUMPDEST PUSH0 JUMPDEST DUP3 DUP2 LT ISZERO PUSH2 0x7200 JUMPI DUP5 DUP10 ADD MLOAD DUP3 SSTORE PUSH1 0x1 DUP3 ADD SWAP2 POP PUSH1 0x20 DUP6 ADD SWAP5 POP PUSH1 0x20 DUP2 ADD SWAP1 POP PUSH2 0x71DB JUMP JUMPDEST DUP7 DUP4 LT ISZERO PUSH2 0x721D JUMPI DUP5 DUP10 ADD MLOAD PUSH2 0x7219 PUSH1 0x1F DUP10 AND DUP3 PUSH2 0x712C JUMP JUMPDEST DUP4 SSTORE POP JUMPDEST PUSH1 0x1 PUSH1 0x2 DUP9 MUL ADD DUP9 SSTORE POP POP POP JUMPDEST POP POP POP POP POP POP JUMP JUMPDEST PUSH2 0x120 DUP3 ADD PUSH0 DUP3 ADD MLOAD PUSH2 0x7247 PUSH0 DUP6 ADD DUP3 PUSH2 0x5DA5 JUMP JUMPDEST POP PUSH1 0x20 DUP3 ADD MLOAD PUSH2 0x725A PUSH1 0x20 DUP6 ADD DUP3 PUSH2 0x5DA5 JUMP JUMPDEST POP PUSH1 0x40 DUP3 ADD MLOAD PUSH2 0x726D PUSH1 0x40 DUP6 ADD DUP3 PUSH2 0x5DA5 JUMP JUMPDEST POP PUSH1 0x60 DUP3 ADD MLOAD PUSH2 0x7280 PUSH1 0x60 DUP6 ADD DUP3 PUSH2 0x5D96 JUMP JUMPDEST POP PUSH1 0x80 DUP3 ADD MLOAD PUSH2 0x7293 PUSH1 0x80 DUP6 ADD DUP3 PUSH2 0x5D96 JUMP JUMPDEST POP PUSH1 0xA0 DUP3 ADD MLOAD PUSH2 0x72A6 PUSH1 0xA0 DUP6 ADD DUP3 PUSH2 0x5D96 JUMP JUMPDEST POP PUSH1 0xC0 DUP3 ADD MLOAD PUSH2 0x72B9 PUSH1 0xC0 DUP6 ADD DUP3 PUSH2 0x5D96 JUMP JUMPDEST POP PUSH1 0xE0 DUP3 ADD MLOAD PUSH2 0x72CC PUSH1 0xE0 DUP6 ADD DUP3 PUSH2 0x5DA5 JUMP JUMPDEST POP PUSH2 0x100 DUP3 ADD MLOAD PUSH2 0x72E1 PUSH2 0x100 DUP6 ADD DUP3 PUSH2 0x5DC3 JUMP JUMPDEST POP POP POP POP JUMP JUMPDEST PUSH0 PUSH2 0x1A0 DUP3 ADD SWAP1 POP PUSH2 0x72FB PUSH0 DUP4 ADD DUP9 PUSH2 0x5D7A JUMP JUMPDEST PUSH2 0x7308 PUSH1 0x20 DUP4 ADD DUP8 PUSH2 0x5D81 JUMP JUMPDEST PUSH2 0x7315 PUSH1 0x40 DUP4 ADD DUP7 PUSH2 0x5D8F JUMP JUMPDEST PUSH2 0x7322 PUSH1 0x60 DUP4 ADD DUP6 PUSH2 0x5D88 JUMP JUMPDEST PUSH2 0x732F PUSH1 0x80 DUP4 ADD DUP5 PUSH2 0x7232 JUMP JUMPDEST SWAP7 SWAP6 POP POP POP POP POP POP JUMP JUMPDEST PUSH0 PUSH1 0xA0 DUP3 ADD SWAP1 POP PUSH2 0x734C PUSH0 DUP4 ADD DUP9 PUSH2 0x627B JUMP JUMPDEST PUSH2 0x7359 PUSH1 0x20 DUP4 ADD DUP8 PUSH2 0x639B JUMP JUMPDEST PUSH2 0x7366 PUSH1 0x40 DUP4 ADD DUP7 PUSH2 0x6583 JUMP JUMPDEST PUSH2 0x7373 PUSH1 0x60 DUP4 ADD DUP6 PUSH2 0x6583 JUMP JUMPDEST PUSH2 0x7380 PUSH1 0x80 DUP4 ADD DUP5 PUSH2 0x6583 JUMP JUMPDEST SWAP7 SWAP6 POP POP POP POP POP POP JUMP JUMPDEST PUSH0 PUSH1 0x40 DUP3 ADD SWAP1 POP PUSH2 0x739D PUSH0 DUP4 ADD DUP6 PUSH2 0x5D7A JUMP JUMPDEST PUSH2 0x73AA PUSH1 0x20 DUP4 ADD DUP5 PUSH2 0x639B JUMP JUMPDEST SWAP4 SWAP3 POP POP POP JUMP JUMPDEST PUSH0 DUP2 CALLDATALOAD PUSH2 0x73BD DUP2 PUSH2 0x49E7 JUMP JUMPDEST DUP1 SWAP2 POP POP SWAP2 SWAP1 POP JUMP JUMPDEST PUSH0 DUP2 PUSH0 SHL SWAP1 POP SWAP2 SWAP1 POP JUMP JUMPDEST PUSH0 PUSH32 0xFFFFFFFFFFFFFFFFFFFFFFFFFFFFFFFFFFFFFFFFFFFFFFFFFFFFFFFFFFFFFFFF PUSH2 0x73FC DUP5 PUSH2 0x73C6 JUMP JUMPDEST SWAP4 POP DUP1 NOT DUP4 AND SWAP3 POP DUP1 DUP5 AND DUP4 OR SWAP2 POP POP SWAP3 SWAP2 POP POP JUMP JUMPDEST PUSH2 0x741B DUP3 PUSH2 0x704D JUMP JUMPDEST PUSH2 0x742E PUSH2 0x7427 DUP3 PUSH2 0x706E JUMP JUMPDEST DUP4 SLOAD PUSH2 0x73D1 JUMP JUMPDEST DUP3 SSTORE POP POP POP JUMP JUMPDEST PUSH0 DUP2 ADD PUSH0 DUP4 ADD DUP1 PUSH2 0x7445 DUP2 PUSH2 0x73B1 JUMP JUMPDEST SWAP1 POP PUSH2 0x7451 DUP2 DUP5 PUSH2 0x7412 JUMP JUMPDEST POP POP POP POP POP JUMP JUMPDEST PUSH2 0x7462 DUP3 DUP3 PUSH2 0x7435 JUMP JUMPDEST POP POP JUMP JUMPDEST PUSH0 PUSH2 0x7470 DUP3 PUSH2 0x49DE JUMP JUMPDEST SWAP2 POP PUSH2 0x747B DUP4 PUSH2 0x49DE JUMP JUMPDEST SWAP3 POP DUP3 DUP3 MUL PUSH2 0x7489 DUP2 PUSH2 0x49DE JUMP JUMPDEST SWAP2 POP DUP3 DUP3 DIV DUP5 EQ DUP4 ISZERO OR PUSH2 0x74A0 JUMPI PUSH2 0x749F PUSH2 0x676C JUMP JUMPDEST JUMPDEST POP SWAP3 SWAP2 POP POP JUMP JUMPDEST PUSH32 0x4E487B7100000000000000000000000000000000000000000000000000000000 PUSH0 MSTORE PUSH1 0x12 PUSH1 0x4 MSTORE PUSH1 0x24 PUSH0 REVERT JUMPDEST PUSH0 PUSH2 0x74DE DUP3 PUSH2 0x49DE JUMP JUMPDEST SWAP2 POP PUSH2 0x74E9 DUP4 PUSH2 0x49DE JUMP JUMPDEST SWAP3 POP DUP3 DUP3 ADD SWAP1 POP DUP1 DUP3 GT ISZERO PUSH2 0x7501 JUMPI PUSH2 0x7500 PUSH2 0x676C JUMP JUMPDEST JUMPDEST SWAP3 SWAP2 POP POP JUMP JUMPDEST PUSH0 PUSH2 0x7511 DUP3 PUSH2 0x49DE JUMP JUMPDEST SWAP2 POP PUSH2 0x751C DUP4 PUSH2 0x49DE JUMP JUMPDEST SWAP3 POP DUP3 PUSH2 0x752C JUMPI PUSH2 0x752B PUSH2 0x74A7 JUMP JUMPDEST JUMPDEST DUP3 DUP3 DIV SWAP1 POP SWAP3 SWAP2 POP POP JUMP INVALID LOG2 PUSH5 0x6970667358 0x22 SLT KECCAK256 SWAP11 RETURNDATACOPY DUP7 0xCA BASEFEE 0xDC PUSH7 0xC1265C314E81B7 0xE 0xC6 0xAC MUL 0x22 SWAP3 0xB0 BLOBBASEFEE PUSH27 0xF4AB866250422A8DA864736F6C634300081A003300000000000000 "
		},
		"gasEstimates": {
			"creation": {
				"codeDepositCost": "6012200",
				"executionCost": "infinite",
				"totalCost": "infinite"
			},
			"external": {
				"ADDRESSES_PROVIDER()": "infinite",
				"BRIDGE_PROTOCOL_FEE()": "2500",
				"FLASHLOAN_PREMIUM_TOTAL()": "2608",
				"FLASHLOAN_PREMIUM_TO_PROTOCOL()": "2657",
				"MAX_NUMBER_RESERVES()": "492",
				"MAX_STABLE_RATE_BORROW_SIZE_PERCENT()": "2517",
				"POOL_REVISION()": "394",
				"backUnbacked(address,uint256,uint256)": "infinite",
				"borrow(address,uint256,uint256,uint16,address)": "infinite",
				"configureEModeCategory(uint8,(uint16,uint16,uint16,address,string))": "infinite",
				"deposit(address,uint256,address,uint16)": "infinite",
				"dropReserve(address)": "infinite",
				"finalizeTransfer(address,address,address,uint256,uint256,uint256)": "infinite",
				"flashLoan(address,address[],uint256[],uint256[],address,bytes,uint16)": "infinite",
				"flashLoanSimple(address,address,uint256,bytes,uint16)": "infinite",
				"getConfiguration(address)": "3096",
				"getEModeCategoryData(uint8)": "infinite",
				"getReserveAddressById(uint16)": "2976",
				"getReserveData(address)": "infinite",
				"getReserveNormalizedIncome(address)": "infinite",
				"getReserveNormalizedVariableDebt(address)": "infinite",
				"getReservesList()": "infinite",
				"getUserAccountData(address)": "infinite",
				"getUserConfiguration(address)": "3092",
				"getUserEMode(address)": "2958",
				"initReserve(address,address,address,address,address)": "infinite",
				"initialize(address)": "infinite",
				"liquidationCall(address,address,address,uint256,bool)": "infinite",
				"mintToTreasury(address[])": "infinite",
				"mintUnbacked(address,uint256,address,uint16)": "infinite",
				"rebalanceStableBorrowRate(address,address)": "infinite",
				"repay(address,uint256,uint256,address)": "infinite",
				"repayWithATokens(address,uint256,uint256)": "infinite",
				"repayWithPermit(address,uint256,uint256,address,uint256,uint8,bytes32,bytes32)": "infinite",
				"rescueTokens(address,address,uint256)": "infinite",
				"resetIsolationModeTotalDebt(address)": "infinite",
				"setConfiguration(address,(uint256))": "infinite",
				"setReserveInterestRateStrategyAddress(address,address)": "infinite",
				"setUserEMode(uint8)": "infinite",
				"setUserUseReserveAsCollateral(address,bool)": "infinite",
				"supply(address,uint256,address,uint16)": "infinite",
				"supplyWithPermit(address,uint256,address,uint16,uint256,uint8,bytes32,bytes32)": "infinite",
				"swapBorrowRateMode(address,uint256)": "infinite",
				"updateBridgeProtocolFee(uint256)": "infinite",
				"updateFlashloanPremiums(uint128,uint128)": "infinite",
				"withdraw(address,uint256,address)": "infinite"
			},
			"internal": {
				"_onlyBridge()": "infinite",
				"_onlyPoolAdmin()": "infinite",
				"_onlyPoolConfigurator()": "infinite",
				"getRevision()": "22"
			}
		},
		"methodIdentifiers": {
			"ADDRESSES_PROVIDER()": "0542975c",
			"BRIDGE_PROTOCOL_FEE()": "272d9072",
			"FLASHLOAN_PREMIUM_TOTAL()": "074b2e43",
			"FLASHLOAN_PREMIUM_TO_PROTOCOL()": "6a99c036",
			"MAX_NUMBER_RESERVES()": "f8119d51",
			"MAX_STABLE_RATE_BORROW_SIZE_PERCENT()": "e82fec2f",
			"POOL_REVISION()": "0148170e",
			"backUnbacked(address,uint256,uint256)": "d65dc7a1",
			"borrow(address,uint256,uint256,uint16,address)": "a415bcad",
			"configureEModeCategory(uint8,(uint16,uint16,uint16,address,string))": "d579ea7d",
			"deposit(address,uint256,address,uint16)": "e8eda9df",
			"dropReserve(address)": "63c9b860",
			"finalizeTransfer(address,address,address,uint256,uint256,uint256)": "d5ed3933",
			"flashLoan(address,address[],uint256[],uint256[],address,bytes,uint16)": "ab9c4b5d",
			"flashLoanSimple(address,address,uint256,bytes,uint16)": "42b0b77c",
			"getConfiguration(address)": "c44b11f7",
			"getEModeCategoryData(uint8)": "6c6f6ae1",
			"getReserveAddressById(uint16)": "52751797",
			"getReserveData(address)": "35ea6a75",
			"getReserveNormalizedIncome(address)": "d15e0053",
			"getReserveNormalizedVariableDebt(address)": "386497fd",
			"getReservesList()": "d1946dbc",
			"getUserAccountData(address)": "bf92857c",
			"getUserConfiguration(address)": "4417a583",
			"getUserEMode(address)": "eddf1b79",
			"initReserve(address,address,address,address,address)": "7a708e92",
			"initialize(address)": "c4d66de8",
			"liquidationCall(address,address,address,uint256,bool)": "00a718a9",
			"mintToTreasury(address[])": "9cd19996",
			"mintUnbacked(address,uint256,address,uint16)": "69a933a5",
			"rebalanceStableBorrowRate(address,address)": "cd112382",
			"repay(address,uint256,uint256,address)": "573ade81",
			"repayWithATokens(address,uint256,uint256)": "2dad97d4",
			"repayWithPermit(address,uint256,uint256,address,uint256,uint8,bytes32,bytes32)": "ee3e210b",
			"rescueTokens(address,address,uint256)": "cea9d26f",
			"resetIsolationModeTotalDebt(address)": "e43e88a1",
			"setConfiguration(address,(uint256))": "f51e435b",
			"setReserveInterestRateStrategyAddress(address,address)": "1d2118f9",
			"setUserEMode(uint8)": "28530a47",
			"setUserUseReserveAsCollateral(address,bool)": "5a3b74b9",
			"supply(address,uint256,address,uint16)": "617ba037",
			"supplyWithPermit(address,uint256,address,uint16,uint256,uint8,bytes32,bytes32)": "02c205f0",
			"swapBorrowRateMode(address,uint256)": "94ba89a2",
			"updateBridgeProtocolFee(uint256)": "3036b439",
			"updateFlashloanPremiums(uint128,uint128)": "bcb6e522",
			"withdraw(address,uint256,address)": "69328dec"
		}
	},
	"abi": [
		{
			"inputs": [
				{
					"internalType": "contract IPoolAddressesProvider",
					"name": "provider",
					"type": "address"
				}
			],
			"stateMutability": "nonpayable",
			"type": "constructor"
		},
		{
			"anonymous": false,
			"inputs": [
				{
					"indexed": true,
					"internalType": "address",
					"name": "reserve",
					"type": "address"
				},
				{
					"indexed": true,
					"internalType": "address",
					"name": "backer",
					"type": "address"
				},
				{
					"indexed": false,
					"internalType": "uint256",
					"name": "amount",
					"type": "uint256"
				},
				{
					"indexed": false,
					"internalType": "uint256",
					"name": "fee",
					"type": "uint256"
				}
			],
			"name": "BackUnbacked",
			"type": "event"
		},
		{
			"anonymous": false,
			"inputs": [
				{
					"indexed": true,
					"internalType": "address",
					"name": "reserve",
					"type": "address"
				},
				{
					"indexed": false,
					"internalType": "address",
					"name": "user",
					"type": "address"
				},
				{
					"indexed": true,
					"internalType": "address",
					"name": "onBehalfOf",
					"type": "address"
				},
				{
					"indexed": false,
					"internalType": "uint256",
					"name": "amount",
					"type": "uint256"
				},
				{
					"indexed": false,
					"internalType": "enum DataTypes.InterestRateMode",
					"name": "interestRateMode",
					"type": "uint8"
				},
				{
					"indexed": false,
					"internalType": "uint256",
					"name": "borrowRate",
					"type": "uint256"
				},
				{
					"indexed": true,
					"internalType": "uint16",
					"name": "referralCode",
					"type": "uint16"
				}
			],
			"name": "Borrow",
			"type": "event"
		},
		{
			"anonymous": false,
			"inputs": [
				{
					"indexed": true,
					"internalType": "address",
					"name": "target",
					"type": "address"
				},
				{
					"indexed": false,
					"internalType": "address",
					"name": "initiator",
					"type": "address"
				},
				{
					"indexed": true,
					"internalType": "address",
					"name": "asset",
					"type": "address"
				},
				{
					"indexed": false,
					"internalType": "uint256",
					"name": "amount",
					"type": "uint256"
				},
				{
					"indexed": false,
					"internalType": "enum DataTypes.InterestRateMode",
					"name": "interestRateMode",
					"type": "uint8"
				},
				{
					"indexed": false,
					"internalType": "uint256",
					"name": "premium",
					"type": "uint256"
				},
				{
					"indexed": true,
					"internalType": "uint16",
					"name": "referralCode",
					"type": "uint16"
				}
			],
			"name": "FlashLoan",
			"type": "event"
		},
		{
			"anonymous": false,
			"inputs": [
				{
					"indexed": true,
					"internalType": "address",
					"name": "asset",
					"type": "address"
				},
				{
					"indexed": false,
					"internalType": "uint256",
					"name": "totalDebt",
					"type": "uint256"
				}
			],
			"name": "IsolationModeTotalDebtUpdated",
			"type": "event"
		},
		{
			"anonymous": false,
			"inputs": [
				{
					"indexed": true,
					"internalType": "address",
					"name": "collateralAsset",
					"type": "address"
				},
				{
					"indexed": true,
					"internalType": "address",
					"name": "debtAsset",
					"type": "address"
				},
				{
					"indexed": true,
					"internalType": "address",
					"name": "user",
					"type": "address"
				},
				{
					"indexed": false,
					"internalType": "uint256",
					"name": "debtToCover",
					"type": "uint256"
				},
				{
					"indexed": false,
					"internalType": "uint256",
					"name": "liquidatedCollateralAmount",
					"type": "uint256"
				},
				{
					"indexed": false,
					"internalType": "address",
					"name": "liquidator",
					"type": "address"
				},
				{
					"indexed": false,
					"internalType": "bool",
					"name": "receiveAToken",
					"type": "bool"
				}
			],
			"name": "LiquidationCall",
			"type": "event"
		},
		{
			"anonymous": false,
			"inputs": [
				{
					"indexed": true,
					"internalType": "address",
					"name": "reserve",
					"type": "address"
				},
				{
					"indexed": false,
					"internalType": "address",
					"name": "user",
					"type": "address"
				},
				{
					"indexed": true,
					"internalType": "address",
					"name": "onBehalfOf",
					"type": "address"
				},
				{
					"indexed": false,
					"internalType": "uint256",
					"name": "amount",
					"type": "uint256"
				},
				{
					"indexed": true,
					"internalType": "uint16",
					"name": "referralCode",
					"type": "uint16"
				}
			],
			"name": "MintUnbacked",
			"type": "event"
		},
		{
			"anonymous": false,
			"inputs": [
				{
					"indexed": true,
					"internalType": "address",
					"name": "reserve",
					"type": "address"
				},
				{
					"indexed": false,
					"internalType": "uint256",
					"name": "amountMinted",
					"type": "uint256"
				}
			],
			"name": "MintedToTreasury",
			"type": "event"
		},
		{
			"anonymous": false,
			"inputs": [
				{
					"indexed": true,
					"internalType": "address",
					"name": "reserve",
					"type": "address"
				},
				{
					"indexed": true,
					"internalType": "address",
					"name": "user",
					"type": "address"
				}
			],
			"name": "RebalanceStableBorrowRate",
			"type": "event"
		},
		{
			"anonymous": false,
			"inputs": [
				{
					"indexed": true,
					"internalType": "address",
					"name": "reserve",
					"type": "address"
				},
				{
					"indexed": true,
					"internalType": "address",
					"name": "user",
					"type": "address"
				},
				{
					"indexed": true,
					"internalType": "address",
					"name": "repayer",
					"type": "address"
				},
				{
					"indexed": false,
					"internalType": "uint256",
					"name": "amount",
					"type": "uint256"
				},
				{
					"indexed": false,
					"internalType": "bool",
					"name": "useATokens",
					"type": "bool"
				}
			],
			"name": "Repay",
			"type": "event"
		},
		{
			"anonymous": false,
			"inputs": [
				{
					"indexed": true,
					"internalType": "address",
					"name": "reserve",
					"type": "address"
				},
				{
					"indexed": false,
					"internalType": "uint256",
					"name": "liquidityRate",
					"type": "uint256"
				},
				{
					"indexed": false,
					"internalType": "uint256",
					"name": "stableBorrowRate",
					"type": "uint256"
				},
				{
					"indexed": false,
					"internalType": "uint256",
					"name": "variableBorrowRate",
					"type": "uint256"
				},
				{
					"indexed": false,
					"internalType": "uint256",
					"name": "liquidityIndex",
					"type": "uint256"
				},
				{
					"indexed": false,
					"internalType": "uint256",
					"name": "variableBorrowIndex",
					"type": "uint256"
				}
			],
			"name": "ReserveDataUpdated",
			"type": "event"
		},
		{
			"anonymous": false,
			"inputs": [
				{
					"indexed": true,
					"internalType": "address",
					"name": "reserve",
					"type": "address"
				},
				{
					"indexed": true,
					"internalType": "address",
					"name": "user",
					"type": "address"
				}
			],
			"name": "ReserveUsedAsCollateralDisabled",
			"type": "event"
		},
		{
			"anonymous": false,
			"inputs": [
				{
					"indexed": true,
					"internalType": "address",
					"name": "reserve",
					"type": "address"
				},
				{
					"indexed": true,
					"internalType": "address",
					"name": "user",
					"type": "address"
				}
			],
			"name": "ReserveUsedAsCollateralEnabled",
			"type": "event"
		},
		{
			"anonymous": false,
			"inputs": [
				{
					"indexed": true,
					"internalType": "address",
					"name": "reserve",
					"type": "address"
				},
				{
					"indexed": false,
					"internalType": "address",
					"name": "user",
					"type": "address"
				},
				{
					"indexed": true,
					"internalType": "address",
					"name": "onBehalfOf",
					"type": "address"
				},
				{
					"indexed": false,
					"internalType": "uint256",
					"name": "amount",
					"type": "uint256"
				},
				{
					"indexed": true,
					"internalType": "uint16",
					"name": "referralCode",
					"type": "uint16"
				}
			],
			"name": "Supply",
			"type": "event"
		},
		{
			"anonymous": false,
			"inputs": [
				{
					"indexed": true,
					"internalType": "address",
					"name": "reserve",
					"type": "address"
				},
				{
					"indexed": true,
					"internalType": "address",
					"name": "user",
					"type": "address"
				},
				{
					"indexed": false,
					"internalType": "enum DataTypes.InterestRateMode",
					"name": "interestRateMode",
					"type": "uint8"
				}
			],
			"name": "SwapBorrowRateMode",
			"type": "event"
		},
		{
			"anonymous": false,
			"inputs": [
				{
					"indexed": true,
					"internalType": "address",
					"name": "user",
					"type": "address"
				},
				{
					"indexed": false,
					"internalType": "uint8",
					"name": "categoryId",
					"type": "uint8"
				}
			],
			"name": "UserEModeSet",
			"type": "event"
		},
		{
			"anonymous": false,
			"inputs": [
				{
					"indexed": true,
					"internalType": "address",
					"name": "reserve",
					"type": "address"
				},
				{
					"indexed": true,
					"internalType": "address",
					"name": "user",
					"type": "address"
				},
				{
					"indexed": true,
					"internalType": "address",
					"name": "to",
					"type": "address"
				},
				{
					"indexed": false,
					"internalType": "uint256",
					"name": "amount",
					"type": "uint256"
				}
			],
			"name": "Withdraw",
			"type": "event"
		},
		{
			"inputs": [],
			"name": "ADDRESSES_PROVIDER",
			"outputs": [
				{
					"internalType": "contract IPoolAddressesProvider",
					"name": "",
					"type": "address"
				}
			],
			"stateMutability": "view",
			"type": "function"
		},
		{
			"inputs": [],
			"name": "BRIDGE_PROTOCOL_FEE",
			"outputs": [
				{
					"internalType": "uint256",
					"name": "",
					"type": "uint256"
				}
			],
			"stateMutability": "view",
			"type": "function"
		},
		{
			"inputs": [],
			"name": "FLASHLOAN_PREMIUM_TOTAL",
			"outputs": [
				{
					"internalType": "uint128",
					"name": "",
					"type": "uint128"
				}
			],
			"stateMutability": "view",
			"type": "function"
		},
		{
			"inputs": [],
			"name": "FLASHLOAN_PREMIUM_TO_PROTOCOL",
			"outputs": [
				{
					"internalType": "uint128",
					"name": "",
					"type": "uint128"
				}
			],
			"stateMutability": "view",
			"type": "function"
		},
		{
			"inputs": [],
			"name": "MAX_NUMBER_RESERVES",
			"outputs": [
				{
					"internalType": "uint16",
					"name": "",
					"type": "uint16"
				}
			],
			"stateMutability": "view",
			"type": "function"
		},
		{
			"inputs": [],
			"name": "MAX_STABLE_RATE_BORROW_SIZE_PERCENT",
			"outputs": [
				{
					"internalType": "uint256",
					"name": "",
					"type": "uint256"
				}
			],
			"stateMutability": "view",
			"type": "function"
		},
		{
			"inputs": [],
			"name": "POOL_REVISION",
			"outputs": [
				{
					"internalType": "uint256",
					"name": "",
					"type": "uint256"
				}
			],
			"stateMutability": "view",
			"type": "function"
		},
		{
			"inputs": [
				{
					"internalType": "address",
					"name": "asset",
					"type": "address"
				},
				{
					"internalType": "uint256",
					"name": "amount",
					"type": "uint256"
				},
				{
					"internalType": "uint256",
					"name": "fee",
					"type": "uint256"
				}
			],
			"name": "backUnbacked",
			"outputs": [
				{
					"internalType": "uint256",
					"name": "",
					"type": "uint256"
				}
			],
			"stateMutability": "nonpayable",
			"type": "function"
		},
		{
			"inputs": [
				{
					"internalType": "address",
					"name": "asset",
					"type": "address"
				},
				{
					"internalType": "uint256",
					"name": "amount",
					"type": "uint256"
				},
				{
					"internalType": "uint256",
					"name": "interestRateMode",
					"type": "uint256"
				},
				{
					"internalType": "uint16",
					"name": "referralCode",
					"type": "uint16"
				},
				{
					"internalType": "address",
					"name": "onBehalfOf",
					"type": "address"
				}
			],
			"name": "borrow",
			"outputs": [],
			"stateMutability": "nonpayable",
			"type": "function"
		},
		{
			"inputs": [
				{
					"internalType": "uint8",
					"name": "id",
					"type": "uint8"
				},
				{
					"components": [
						{
							"internalType": "uint16",
							"name": "ltv",
							"type": "uint16"
						},
						{
							"internalType": "uint16",
							"name": "liquidationThreshold",
							"type": "uint16"
						},
						{
							"internalType": "uint16",
							"name": "liquidationBonus",
							"type": "uint16"
						},
						{
							"internalType": "address",
							"name": "priceSource",
							"type": "address"
						},
						{
							"internalType": "string",
							"name": "label",
							"type": "string"
						}
					],
					"internalType": "struct DataTypes.EModeCategory",
					"name": "category",
					"type": "tuple"
				}
			],
			"name": "configureEModeCategory",
			"outputs": [],
			"stateMutability": "nonpayable",
			"type": "function"
		},
		{
			"inputs": [
				{
					"internalType": "address",
					"name": "asset",
					"type": "address"
				},
				{
					"internalType": "uint256",
					"name": "amount",
					"type": "uint256"
				},
				{
					"internalType": "address",
					"name": "onBehalfOf",
					"type": "address"
				},
				{
					"internalType": "uint16",
					"name": "referralCode",
					"type": "uint16"
				}
			],
			"name": "deposit",
			"outputs": [],
			"stateMutability": "nonpayable",
			"type": "function"
		},
		{
			"inputs": [
				{
					"internalType": "address",
					"name": "asset",
					"type": "address"
				}
			],
			"name": "dropReserve",
			"outputs": [],
			"stateMutability": "nonpayable",
			"type": "function"
		},
		{
			"inputs": [
				{
					"internalType": "address",
					"name": "asset",
					"type": "address"
				},
				{
					"internalType": "address",
					"name": "from",
					"type": "address"
				},
				{
					"internalType": "address",
					"name": "to",
					"type": "address"
				},
				{
					"internalType": "uint256",
					"name": "amount",
					"type": "uint256"
				},
				{
					"internalType": "uint256",
					"name": "balanceFromBefore",
					"type": "uint256"
				},
				{
					"internalType": "uint256",
					"name": "balanceToBefore",
					"type": "uint256"
				}
			],
			"name": "finalizeTransfer",
			"outputs": [],
			"stateMutability": "nonpayable",
			"type": "function"
		},
		{
			"inputs": [
				{
					"internalType": "address",
					"name": "receiverAddress",
					"type": "address"
				},
				{
					"internalType": "address[]",
					"name": "assets",
					"type": "address[]"
				},
				{
					"internalType": "uint256[]",
					"name": "amounts",
					"type": "uint256[]"
				},
				{
					"internalType": "uint256[]",
					"name": "interestRateModes",
					"type": "uint256[]"
				},
				{
					"internalType": "address",
					"name": "onBehalfOf",
					"type": "address"
				},
				{
					"internalType": "bytes",
					"name": "params",
					"type": "bytes"
				},
				{
					"internalType": "uint16",
					"name": "referralCode",
					"type": "uint16"
				}
			],
			"name": "flashLoan",
			"outputs": [],
			"stateMutability": "nonpayable",
			"type": "function"
		},
		{
			"inputs": [
				{
					"internalType": "address",
					"name": "receiverAddress",
					"type": "address"
				},
				{
					"internalType": "address",
					"name": "asset",
					"type": "address"
				},
				{
					"internalType": "uint256",
					"name": "amount",
					"type": "uint256"
				},
				{
					"internalType": "bytes",
					"name": "params",
					"type": "bytes"
				},
				{
					"internalType": "uint16",
					"name": "referralCode",
					"type": "uint16"
				}
			],
			"name": "flashLoanSimple",
			"outputs": [],
			"stateMutability": "nonpayable",
			"type": "function"
		},
		{
			"inputs": [
				{
					"internalType": "address",
					"name": "asset",
					"type": "address"
				}
			],
			"name": "getConfiguration",
			"outputs": [
				{
					"components": [
						{
							"internalType": "uint256",
							"name": "data",
							"type": "uint256"
						}
					],
					"internalType": "struct DataTypes.ReserveConfigurationMap",
					"name": "",
					"type": "tuple"
				}
			],
			"stateMutability": "view",
			"type": "function"
		},
		{
			"inputs": [
				{
					"internalType": "uint8",
					"name": "id",
					"type": "uint8"
				}
			],
			"name": "getEModeCategoryData",
			"outputs": [
				{
					"components": [
						{
							"internalType": "uint16",
							"name": "ltv",
							"type": "uint16"
						},
						{
							"internalType": "uint16",
							"name": "liquidationThreshold",
							"type": "uint16"
						},
						{
							"internalType": "uint16",
							"name": "liquidationBonus",
							"type": "uint16"
						},
						{
							"internalType": "address",
							"name": "priceSource",
							"type": "address"
						},
						{
							"internalType": "string",
							"name": "label",
							"type": "string"
						}
					],
					"internalType": "struct DataTypes.EModeCategory",
					"name": "",
					"type": "tuple"
				}
			],
			"stateMutability": "view",
			"type": "function"
		},
		{
			"inputs": [
				{
					"internalType": "uint16",
					"name": "id",
					"type": "uint16"
				}
			],
			"name": "getReserveAddressById",
			"outputs": [
				{
					"internalType": "address",
					"name": "",
					"type": "address"
				}
			],
			"stateMutability": "view",
			"type": "function"
		},
		{
			"inputs": [
				{
					"internalType": "address",
					"name": "asset",
					"type": "address"
				}
			],
			"name": "getReserveData",
			"outputs": [
				{
					"components": [
						{
							"components": [
								{
									"internalType": "uint256",
									"name": "data",
									"type": "uint256"
								}
							],
							"internalType": "struct DataTypes.ReserveConfigurationMap",
							"name": "configuration",
							"type": "tuple"
						},
						{
							"internalType": "uint128",
							"name": "liquidityIndex",
							"type": "uint128"
						},
						{
							"internalType": "uint128",
							"name": "currentLiquidityRate",
							"type": "uint128"
						},
						{
							"internalType": "uint128",
							"name": "variableBorrowIndex",
							"type": "uint128"
						},
						{
							"internalType": "uint128",
							"name": "currentVariableBorrowRate",
							"type": "uint128"
						},
						{
							"internalType": "uint128",
							"name": "currentStableBorrowRate",
							"type": "uint128"
						},
						{
							"internalType": "uint40",
							"name": "lastUpdateTimestamp",
							"type": "uint40"
						},
						{
							"internalType": "uint16",
							"name": "id",
							"type": "uint16"
						},
						{
							"internalType": "address",
							"name": "aTokenAddress",
							"type": "address"
						},
						{
							"internalType": "address",
							"name": "stableDebtTokenAddress",
							"type": "address"
						},
						{
							"internalType": "address",
							"name": "variableDebtTokenAddress",
							"type": "address"
						},
						{
							"internalType": "address",
							"name": "interestRateStrategyAddress",
							"type": "address"
						},
						{
							"internalType": "uint128",
							"name": "accruedToTreasury",
							"type": "uint128"
						},
						{
							"internalType": "uint128",
							"name": "unbacked",
							"type": "uint128"
						},
						{
							"internalType": "uint128",
							"name": "isolationModeTotalDebt",
							"type": "uint128"
						}
					],
					"internalType": "struct DataTypes.ReserveData",
					"name": "",
					"type": "tuple"
				}
			],
			"stateMutability": "view",
			"type": "function"
		},
		{
			"inputs": [
				{
					"internalType": "address",
					"name": "asset",
					"type": "address"
				}
			],
			"name": "getReserveNormalizedIncome",
			"outputs": [
				{
					"internalType": "uint256",
					"name": "",
					"type": "uint256"
				}
			],
			"stateMutability": "view",
			"type": "function"
		},
		{
			"inputs": [
				{
					"internalType": "address",
					"name": "asset",
					"type": "address"
				}
			],
			"name": "getReserveNormalizedVariableDebt",
			"outputs": [
				{
					"internalType": "uint256",
					"name": "",
					"type": "uint256"
				}
			],
			"stateMutability": "view",
			"type": "function"
		},
		{
			"inputs": [],
			"name": "getReservesList",
			"outputs": [
				{
					"internalType": "address[]",
					"name": "",
					"type": "address[]"
				}
			],
			"stateMutability": "view",
			"type": "function"
		},
		{
			"inputs": [
				{
					"internalType": "address",
					"name": "user",
					"type": "address"
				}
			],
			"name": "getUserAccountData",
			"outputs": [
				{
					"internalType": "uint256",
					"name": "totalCollateralBase",
					"type": "uint256"
				},
				{
					"internalType": "uint256",
					"name": "totalDebtBase",
					"type": "uint256"
				},
				{
					"internalType": "uint256",
					"name": "availableBorrowsBase",
					"type": "uint256"
				},
				{
					"internalType": "uint256",
					"name": "currentLiquidationThreshold",
					"type": "uint256"
				},
				{
					"internalType": "uint256",
					"name": "ltv",
					"type": "uint256"
				},
				{
					"internalType": "uint256",
					"name": "healthFactor",
					"type": "uint256"
				}
			],
			"stateMutability": "view",
			"type": "function"
		},
		{
			"inputs": [
				{
					"internalType": "address",
					"name": "user",
					"type": "address"
				}
			],
			"name": "getUserConfiguration",
			"outputs": [
				{
					"components": [
						{
							"internalType": "uint256",
							"name": "data",
							"type": "uint256"
						}
					],
					"internalType": "struct DataTypes.UserConfigurationMap",
					"name": "",
					"type": "tuple"
				}
			],
			"stateMutability": "view",
			"type": "function"
		},
		{
			"inputs": [
				{
					"internalType": "address",
					"name": "user",
					"type": "address"
				}
			],
			"name": "getUserEMode",
			"outputs": [
				{
					"internalType": "uint256",
					"name": "",
					"type": "uint256"
				}
			],
			"stateMutability": "view",
			"type": "function"
		},
		{
			"inputs": [
				{
					"internalType": "address",
					"name": "asset",
					"type": "address"
				},
				{
					"internalType": "address",
					"name": "aTokenAddress",
					"type": "address"
				},
				{
					"internalType": "address",
					"name": "stableDebtAddress",
					"type": "address"
				},
				{
					"internalType": "address",
					"name": "variableDebtAddress",
					"type": "address"
				},
				{
					"internalType": "address",
					"name": "interestRateStrategyAddress",
					"type": "address"
				}
			],
			"name": "initReserve",
			"outputs": [],
			"stateMutability": "nonpayable",
			"type": "function"
		},
		{
			"inputs": [
				{
					"internalType": "contract IPoolAddressesProvider",
					"name": "provider",
					"type": "address"
				}
			],
			"name": "initialize",
			"outputs": [],
			"stateMutability": "nonpayable",
			"type": "function"
		},
		{
			"inputs": [
				{
					"internalType": "address",
					"name": "collateralAsset",
					"type": "address"
				},
				{
					"internalType": "address",
					"name": "debtAsset",
					"type": "address"
				},
				{
					"internalType": "address",
					"name": "user",
					"type": "address"
				},
				{
					"internalType": "uint256",
					"name": "debtToCover",
					"type": "uint256"
				},
				{
					"internalType": "bool",
					"name": "receiveAToken",
					"type": "bool"
				}
			],
			"name": "liquidationCall",
			"outputs": [],
			"stateMutability": "nonpayable",
			"type": "function"
		},
		{
			"inputs": [
				{
					"internalType": "address[]",
					"name": "assets",
					"type": "address[]"
				}
			],
			"name": "mintToTreasury",
			"outputs": [],
			"stateMutability": "nonpayable",
			"type": "function"
		},
		{
			"inputs": [
				{
					"internalType": "address",
					"name": "asset",
					"type": "address"
				},
				{
					"internalType": "uint256",
					"name": "amount",
					"type": "uint256"
				},
				{
					"internalType": "address",
					"name": "onBehalfOf",
					"type": "address"
				},
				{
					"internalType": "uint16",
					"name": "referralCode",
					"type": "uint16"
				}
			],
			"name": "mintUnbacked",
			"outputs": [],
			"stateMutability": "nonpayable",
			"type": "function"
		},
		{
			"inputs": [
				{
					"internalType": "address",
					"name": "asset",
					"type": "address"
				},
				{
					"internalType": "address",
					"name": "user",
					"type": "address"
				}
			],
			"name": "rebalanceStableBorrowRate",
			"outputs": [],
			"stateMutability": "nonpayable",
			"type": "function"
		},
		{
			"inputs": [
				{
					"internalType": "address",
					"name": "asset",
					"type": "address"
				},
				{
					"internalType": "uint256",
					"name": "amount",
					"type": "uint256"
				},
				{
					"internalType": "uint256",
					"name": "interestRateMode",
					"type": "uint256"
				},
				{
					"internalType": "address",
					"name": "onBehalfOf",
					"type": "address"
				}
			],
			"name": "repay",
			"outputs": [
				{
					"internalType": "uint256",
					"name": "",
					"type": "uint256"
				}
			],
			"stateMutability": "nonpayable",
			"type": "function"
		},
		{
			"inputs": [
				{
					"internalType": "address",
					"name": "asset",
					"type": "address"
				},
				{
					"internalType": "uint256",
					"name": "amount",
					"type": "uint256"
				},
				{
					"internalType": "uint256",
					"name": "interestRateMode",
					"type": "uint256"
				}
			],
			"name": "repayWithATokens",
			"outputs": [
				{
					"internalType": "uint256",
					"name": "",
					"type": "uint256"
				}
			],
			"stateMutability": "nonpayable",
			"type": "function"
		},
		{
			"inputs": [
				{
					"internalType": "address",
					"name": "asset",
					"type": "address"
				},
				{
					"internalType": "uint256",
					"name": "amount",
					"type": "uint256"
				},
				{
					"internalType": "uint256",
					"name": "interestRateMode",
					"type": "uint256"
				},
				{
					"internalType": "address",
					"name": "onBehalfOf",
					"type": "address"
				},
				{
					"internalType": "uint256",
					"name": "deadline",
					"type": "uint256"
				},
				{
					"internalType": "uint8",
					"name": "permitV",
					"type": "uint8"
				},
				{
					"internalType": "bytes32",
					"name": "permitR",
					"type": "bytes32"
				},
				{
					"internalType": "bytes32",
					"name": "permitS",
					"type": "bytes32"
				}
			],
			"name": "repayWithPermit",
			"outputs": [
				{
					"internalType": "uint256",
					"name": "",
					"type": "uint256"
				}
			],
			"stateMutability": "nonpayable",
			"type": "function"
		},
		{
			"inputs": [
				{
					"internalType": "address",
					"name": "token",
					"type": "address"
				},
				{
					"internalType": "address",
					"name": "to",
					"type": "address"
				},
				{
					"internalType": "uint256",
					"name": "amount",
					"type": "uint256"
				}
			],
			"name": "rescueTokens",
			"outputs": [],
			"stateMutability": "nonpayable",
			"type": "function"
		},
		{
			"inputs": [
				{
					"internalType": "address",
					"name": "asset",
					"type": "address"
				}
			],
			"name": "resetIsolationModeTotalDebt",
			"outputs": [],
			"stateMutability": "nonpayable",
			"type": "function"
		},
		{
			"inputs": [
				{
					"internalType": "address",
					"name": "asset",
					"type": "address"
				},
				{
					"components": [
						{
							"internalType": "uint256",
							"name": "data",
							"type": "uint256"
						}
					],
					"internalType": "struct DataTypes.ReserveConfigurationMap",
					"name": "configuration",
					"type": "tuple"
				}
			],
			"name": "setConfiguration",
			"outputs": [],
			"stateMutability": "nonpayable",
			"type": "function"
		},
		{
			"inputs": [
				{
					"internalType": "address",
					"name": "asset",
					"type": "address"
				},
				{
					"internalType": "address",
					"name": "rateStrategyAddress",
					"type": "address"
				}
			],
			"name": "setReserveInterestRateStrategyAddress",
			"outputs": [],
			"stateMutability": "nonpayable",
			"type": "function"
		},
		{
			"inputs": [
				{
					"internalType": "uint8",
					"name": "categoryId",
					"type": "uint8"
				}
			],
			"name": "setUserEMode",
			"outputs": [],
			"stateMutability": "nonpayable",
			"type": "function"
		},
		{
			"inputs": [
				{
					"internalType": "address",
					"name": "asset",
					"type": "address"
				},
				{
					"internalType": "bool",
					"name": "useAsCollateral",
					"type": "bool"
				}
			],
			"name": "setUserUseReserveAsCollateral",
			"outputs": [],
			"stateMutability": "nonpayable",
			"type": "function"
		},
		{
			"inputs": [
				{
					"internalType": "address",
					"name": "asset",
					"type": "address"
				},
				{
					"internalType": "uint256",
					"name": "amount",
					"type": "uint256"
				},
				{
					"internalType": "address",
					"name": "onBehalfOf",
					"type": "address"
				},
				{
					"internalType": "uint16",
					"name": "referralCode",
					"type": "uint16"
				}
			],
			"name": "supply",
			"outputs": [],
			"stateMutability": "nonpayable",
			"type": "function"
		},
		{
			"inputs": [
				{
					"internalType": "address",
					"name": "asset",
					"type": "address"
				},
				{
					"internalType": "uint256",
					"name": "amount",
					"type": "uint256"
				},
				{
					"internalType": "address",
					"name": "onBehalfOf",
					"type": "address"
				},
				{
					"internalType": "uint16",
					"name": "referralCode",
					"type": "uint16"
				},
				{
					"internalType": "uint256",
					"name": "deadline",
					"type": "uint256"
				},
				{
					"internalType": "uint8",
					"name": "permitV",
					"type": "uint8"
				},
				{
					"internalType": "bytes32",
					"name": "permitR",
					"type": "bytes32"
				},
				{
					"internalType": "bytes32",
					"name": "permitS",
					"type": "bytes32"
				}
			],
			"name": "supplyWithPermit",
			"outputs": [],
			"stateMutability": "nonpayable",
			"type": "function"
		},
		{
			"inputs": [
				{
					"internalType": "address",
					"name": "asset",
					"type": "address"
				},
				{
					"internalType": "uint256",
					"name": "interestRateMode",
					"type": "uint256"
				}
			],
			"name": "swapBorrowRateMode",
			"outputs": [],
			"stateMutability": "nonpayable",
			"type": "function"
		},
		{
			"inputs": [
				{
					"internalType": "uint256",
					"name": "protocolFee",
					"type": "uint256"
				}
			],
			"name": "updateBridgeProtocolFee",
			"outputs": [],
			"stateMutability": "nonpayable",
			"type": "function"
		},
		{
			"inputs": [
				{
					"internalType": "uint128",
					"name": "flashLoanPremiumTotal",
					"type": "uint128"
				},
				{
					"internalType": "uint128",
					"name": "flashLoanPremiumToProtocol",
					"type": "uint128"
				}
			],
			"name": "updateFlashloanPremiums",
			"outputs": [],
			"stateMutability": "nonpayable",
			"type": "function"
		},
		{
			"inputs": [
				{
					"internalType": "address",
					"name": "asset",
					"type": "address"
				},
				{
					"internalType": "uint256",
					"name": "amount",
					"type": "uint256"
				},
				{
					"internalType": "address",
					"name": "to",
					"type": "address"
				}
			],
			"name": "withdraw",
			"outputs": [
				{
					"internalType": "uint256",
					"name": "",
					"type": "uint256"
				}
			],
			"stateMutability": "nonpayable",
			"type": "function"
		}
	]
}