{
	"contracts/protocol/pool/DefaultReserveInterestRateStrategy.sol": {
		"DefaultReserveInterestRateStrategy": {
			"abi": [
				{
					"inputs": [
						{
							"internalType": "contract IPoolAddressesProvider",
							"name": "provider",
							"type": "address"
						},
						{
							"internalType": "uint256",
							"name": "optimalUsageRatio",
							"type": "uint256"
						},
						{
							"internalType": "uint256",
							"name": "baseVariableBorrowRate",
							"type": "uint256"
						},
						{
							"internalType": "uint256",
							"name": "variableRateSlope1",
							"type": "uint256"
						},
						{
							"internalType": "uint256",
							"name": "variableRateSlope2",
							"type": "uint256"
						},
						{
							"internalType": "uint256",
							"name": "stableRateSlope1",
							"type": "uint256"
						},
						{
							"internalType": "uint256",
							"name": "stableRateSlope2",
							"type": "uint256"
						},
						{
							"internalType": "uint256",
							"name": "baseStableRateOffset",
							"type": "uint256"
						},
						{
							"internalType": "uint256",
							"name": "stableRateExcessOffset",
							"type": "uint256"
						},
						{
							"internalType": "uint256",
							"name": "optimalStableToTotalDebtRatio",
							"type": "uint256"
						}
					],
					"stateMutability": "nonpayable",
					"type": "constructor"
				},
				{
					"inputs": [],
					"name": "ADDRESSES_PROVIDER",
					"outputs": [
						{
							"internalType": "contract IPoolAddressesProvider",
							"name": "",
							"type": "address"
						}
					],
					"stateMutability": "view",
					"type": "function"
				},
				{
					"inputs": [],
					"name": "MAX_EXCESS_STABLE_TO_TOTAL_DEBT_RATIO",
					"outputs": [
						{
							"internalType": "uint256",
							"name": "",
							"type": "uint256"
						}
					],
					"stateMutability": "view",
					"type": "function"
				},
				{
					"inputs": [],
					"name": "MAX_EXCESS_USAGE_RATIO",
					"outputs": [
						{
							"internalType": "uint256",
							"name": "",
							"type": "uint256"
						}
					],
					"stateMutability": "view",
					"type": "function"
				},
				{
					"inputs": [],
					"name": "OPTIMAL_STABLE_TO_TOTAL_DEBT_RATIO",
					"outputs": [
						{
							"internalType": "uint256",
							"name": "",
							"type": "uint256"
						}
					],
					"stateMutability": "view",
					"type": "function"
				},
				{
					"inputs": [],
					"name": "OPTIMAL_USAGE_RATIO",
					"outputs": [
						{
							"internalType": "uint256",
							"name": "",
							"type": "uint256"
						}
					],
					"stateMutability": "view",
					"type": "function"
				},
				{
					"inputs": [
						{
							"components": [
								{
									"internalType": "uint256",
									"name": "unbacked",
									"type": "uint256"
								},
								{
									"internalType": "uint256",
									"name": "liquidityAdded",
									"type": "uint256"
								},
								{
									"internalType": "uint256",
									"name": "liquidityTaken",
									"type": "uint256"
								},
								{
									"internalType": "uint256",
									"name": "totalStableDebt",
									"type": "uint256"
								},
								{
									"internalType": "uint256",
									"name": "totalVariableDebt",
									"type": "uint256"
								},
								{
									"internalType": "uint256",
									"name": "averageStableBorrowRate",
									"type": "uint256"
								},
								{
									"internalType": "uint256",
									"name": "reserveFactor",
									"type": "uint256"
								},
								{
									"internalType": "address",
									"name": "reserve",
									"type": "address"
								},
								{
									"internalType": "address",
									"name": "aToken",
									"type": "address"
								}
							],
							"internalType": "struct DataTypes.CalculateInterestRatesParams",
							"name": "params",
							"type": "tuple"
						}
					],
					"name": "calculateInterestRates",
					"outputs": [
						{
							"internalType": "uint256",
							"name": "",
							"type": "uint256"
						},
						{
							"internalType": "uint256",
							"name": "",
							"type": "uint256"
						},
						{
							"internalType": "uint256",
							"name": "",
							"type": "uint256"
						}
					],
					"stateMutability": "view",
					"type": "function"
				},
				{
					"inputs": [],
					"name": "getBaseStableBorrowRate",
					"outputs": [
						{
							"internalType": "uint256",
							"name": "",
							"type": "uint256"
						}
					],
					"stateMutability": "view",
					"type": "function"
				},
				{
					"inputs": [],
					"name": "getBaseVariableBorrowRate",
					"outputs": [
						{
							"internalType": "uint256",
							"name": "",
							"type": "uint256"
						}
					],
					"stateMutability": "view",
					"type": "function"
				},
				{
					"inputs": [],
					"name": "getMaxVariableBorrowRate",
					"outputs": [
						{
							"internalType": "uint256",
							"name": "",
							"type": "uint256"
						}
					],
					"stateMutability": "view",
					"type": "function"
				},
				{
					"inputs": [],
					"name": "getStableRateExcessOffset",
					"outputs": [
						{
							"internalType": "uint256",
							"name": "",
							"type": "uint256"
						}
					],
					"stateMutability": "view",
					"type": "function"
				},
				{
					"inputs": [],
					"name": "getStableRateSlope1",
					"outputs": [
						{
							"internalType": "uint256",
							"name": "",
							"type": "uint256"
						}
					],
					"stateMutability": "view",
					"type": "function"
				},
				{
					"inputs": [],
					"name": "getStableRateSlope2",
					"outputs": [
						{
							"internalType": "uint256",
							"name": "",
							"type": "uint256"
						}
					],
					"stateMutability": "view",
					"type": "function"
				},
				{
					"inputs": [],
					"name": "getVariableRateSlope1",
					"outputs": [
						{
							"internalType": "uint256",
							"name": "",
							"type": "uint256"
						}
					],
					"stateMutability": "view",
					"type": "function"
				},
				{
					"inputs": [],
					"name": "getVariableRateSlope2",
					"outputs": [
						{
							"internalType": "uint256",
							"name": "",
							"type": "uint256"
						}
					],
					"stateMutability": "view",
					"type": "function"
				}
			],
			"devdoc": {
				"author": "Aave",
				"details": "The model of interest rate is based on 2 slopes, one before the `OPTIMAL_USAGE_RATIO` point of usage and another from that one to 100%. - An instance of this same contract, can't be used across different Aave markets, due to the caching   of the PoolAddressesProvider",
				"kind": "dev",
				"methods": {
					"calculateInterestRates((uint256,uint256,uint256,uint256,uint256,uint256,uint256,address,address))": {
						"params": {
							"params": "The parameters needed to calculate interest rates"
						},
						"returns": {
							"_0": "liquidityRate The liquidity rate expressed in rays",
							"_1": "stableBorrowRate The stable borrow rate expressed in rays",
							"_2": "variableBorrowRate The variable borrow rate expressed in rays"
						}
					},
					"constructor": {
						"details": "Constructor.",
						"params": {
							"baseStableRateOffset": "The premium on top of variable rate for base stable borrowing rate",
							"baseVariableBorrowRate": "The base variable borrow rate",
							"optimalStableToTotalDebtRatio": "The optimal stable debt to total debt ratio of the reserve",
							"optimalUsageRatio": "The optimal usage ratio",
							"provider": "The address of the PoolAddressesProvider contract",
							"stableRateExcessOffset": "The premium on top of stable rate when there stable debt surpass the threshold",
							"stableRateSlope1": "The stable rate slope below optimal usage ratio",
							"stableRateSlope2": "The stable rate slope above optimal usage ratio",
							"variableRateSlope1": "The variable rate slope below optimal usage ratio",
							"variableRateSlope2": "The variable rate slope above optimal usage ratio"
						}
					},
					"getBaseStableBorrowRate()": {
						"returns": {
							"_0": "The base stable borrow rate, expressed in ray"
						}
					},
					"getBaseVariableBorrowRate()": {
						"returns": {
							"_0": "The base variable borrow rate, expressed in ray"
						}
					},
					"getMaxVariableBorrowRate()": {
						"returns": {
							"_0": "The maximum variable borrow rate, expressed in ray"
						}
					},
					"getStableRateExcessOffset()": {
						"details": "It's an additional premium applied to the stable when stable debt > OPTIMAL_STABLE_TO_TOTAL_DEBT_RATIO",
						"returns": {
							"_0": "The stable rate excess offset, expressed in ray"
						}
					},
					"getStableRateSlope1()": {
						"details": "It's the stable rate when usage ratio > 0 and <= OPTIMAL_USAGE_RATIO",
						"returns": {
							"_0": "The stable rate slope, expressed in ray"
						}
					},
					"getStableRateSlope2()": {
						"details": "It's the variable rate when usage ratio > OPTIMAL_USAGE_RATIO",
						"returns": {
							"_0": "The stable rate slope, expressed in ray"
						}
					},
					"getVariableRateSlope1()": {
						"details": "It's the variable rate when usage ratio > 0 and <= OPTIMAL_USAGE_RATIO",
						"returns": {
							"_0": "The variable rate slope, expressed in ray"
						}
					},
					"getVariableRateSlope2()": {
						"details": "It's the variable rate when usage ratio > OPTIMAL_USAGE_RATIO",
						"returns": {
							"_0": "The variable rate slope, expressed in ray"
						}
					}
				},
				"stateVariables": {
					"ADDRESSES_PROVIDER": {
						"return": "The address of the PoolAddressesProvider contract",
						"returns": {
							"_0": "The address of the PoolAddressesProvider contract"
						}
					},
					"MAX_EXCESS_STABLE_TO_TOTAL_DEBT_RATIO": {
						"details": "It's always equal to 1-optimal stable to total debt ratio (added as constant for gas optimizations)",
						"return": "The max excess stable to total debt ratio, expressed in ray.",
						"returns": {
							"_0": "The max excess stable to total debt ratio, expressed in ray."
						}
					},
					"MAX_EXCESS_USAGE_RATIO": {
						"details": "It's always equal to 1-optimal usage ratio (added as constant for gas optimizations)",
						"return": "The max excess usage ratio, expressed in ray.",
						"returns": {
							"_0": "The max excess usage ratio, expressed in ray."
						}
					},
					"OPTIMAL_STABLE_TO_TOTAL_DEBT_RATIO": {
						"return": "The optimal stable to total debt ratio, expressed in ray.",
						"returns": {
							"_0": "The optimal stable to total debt ratio, expressed in ray."
						}
					},
					"OPTIMAL_USAGE_RATIO": {
						"return": "The optimal usage ratio, expressed in ray.",
						"returns": {
							"_0": "The optimal usage ratio, expressed in ray."
						}
					}
				},
				"title": "DefaultReserveInterestRateStrategy contract",
				"version": 1
			},
			"evm": {
				"assembly": "    /* \"contracts/protocol/pool/DefaultReserveInterestRateStrategy.sol\":1138:10541  contract DefaultReserveInterestRateStrategy is IDefaultInterestRateStrategy {... */\n  mstore(0x40, 0x0200)\n    /* \"contracts/protocol/pool/DefaultReserveInterestRateStrategy.sol\":3705:4956  constructor(... */\n  callvalue\n  dup1\n  iszero\n  tag_1\n  jumpi\n  0x00\n  dup1\n  revert\ntag_1:\n  pop\n  mload(0x40)\n  sub(codesize, bytecodeSize)\n  dup1\n  bytecodeSize\n  dup4\n  codecopy\n  dup2\n  dup2\n  add\n  0x40\n  mstore\n  dup2\n  add\n  swap1\n  tag_2\n  swap2\n  swap1\n  tag_3\n  jump\t// in\ntag_2:\n    /* \"contracts/protocol/pool/DefaultReserveInterestRateStrategy.sol\":4106:4123  optimalUsageRatio */\n  dup9\n    /* \"contracts/protocol/libraries/math/WadRayMath.sol\":720:724  1e27 */\n  0x033b2e3c9fd0803ce8000000\n    /* \"contracts/protocol/pool/DefaultReserveInterestRateStrategy.sol\":4088:4123  WadRayMath.RAY >= optimalUsageRatio */\n  lt\n  iszero\n    /* \"contracts/protocol/pool/DefaultReserveInterestRateStrategy.sol\":4125:4159  Errors.INVALID_OPTIMAL_USAGE_RATIO */\n  mload(0x40)\n  dup1\n  0x40\n  add\n  0x40\n  mstore\n  dup1\n  0x02\n  dup2\n  mstore\n  0x20\n  add\n  0x3833000000000000000000000000000000000000000000000000000000000000\n  dup2\n  mstore\n  pop\n    /* \"contracts/protocol/pool/DefaultReserveInterestRateStrategy.sol\":4080:4160  require(WadRayMath.RAY >= optimalUsageRatio, Errors.INVALID_OPTIMAL_USAGE_RATIO) */\n  swap1\n  tag_6\n  jumpi\n  mload(0x40)\n  0x08c379a000000000000000000000000000000000000000000000000000000000\n  dup2\n  mstore\n  0x04\n  add\n  tag_7\n  swap2\n  swap1\n  tag_8\n  jump\t// in\ntag_7:\n  mload(0x40)\n  dup1\n  swap2\n  sub\n  swap1\n  revert\ntag_6:\n  pop\n    /* \"contracts/protocol/pool/DefaultReserveInterestRateStrategy.sol\":4201:4230  optimalStableToTotalDebtRatio */\n  dup1\n    /* \"contracts/protocol/libraries/math/WadRayMath.sol\":720:724  1e27 */\n  0x033b2e3c9fd0803ce8000000\n    /* \"contracts/protocol/pool/DefaultReserveInterestRateStrategy.sol\":4183:4230  WadRayMath.RAY >= optimalStableToTotalDebtRatio */\n  lt\n  iszero\n    /* \"contracts/protocol/pool/DefaultReserveInterestRateStrategy.sol\":4239:4288  Errors.INVALID_OPTIMAL_STABLE_TO_TOTAL_DEBT_RATIO */\n  mload(0x40)\n  dup1\n  0x40\n  add\n  0x40\n  mstore\n  dup1\n  0x02\n  dup2\n  mstore\n  0x20\n  add\n  0x3834000000000000000000000000000000000000000000000000000000000000\n  dup2\n  mstore\n  pop\n    /* \"contracts/protocol/pool/DefaultReserveInterestRateStrategy.sol\":4167:4295  require(... */\n  swap1\n  tag_9\n  jumpi\n  mload(0x40)\n  0x08c379a000000000000000000000000000000000000000000000000000000000\n  dup2\n  mstore\n  0x04\n  add\n  tag_10\n  swap2\n  swap1\n  tag_8\n  jump\t// in\ntag_10:\n  mload(0x40)\n  dup1\n  swap2\n  sub\n  swap1\n  revert\ntag_9:\n  pop\n    /* \"contracts/protocol/pool/DefaultReserveInterestRateStrategy.sol\":4324:4341  optimalUsageRatio */\n  dup9\n    /* \"contracts/protocol/pool/DefaultReserveInterestRateStrategy.sol\":4302:4341  OPTIMAL_USAGE_RATIO = optimalUsageRatio */\n  0x80\n  dup2\n  dup2\n  mstore\n  pop\n  pop\n    /* \"contracts/protocol/pool/DefaultReserveInterestRateStrategy.sol\":4390:4407  optimalUsageRatio */\n  dup9\n    /* \"contracts/protocol/libraries/math/WadRayMath.sol\":720:724  1e27 */\n  0x033b2e3c9fd0803ce8000000\n    /* \"contracts/protocol/pool/DefaultReserveInterestRateStrategy.sol\":4373:4407  WadRayMath.RAY - optimalUsageRatio */\n  tag_11\n  swap2\n  swap1\n  tag_12\n  jump\t// in\ntag_11:\n    /* \"contracts/protocol/pool/DefaultReserveInterestRateStrategy.sol\":4348:4407  MAX_EXCESS_USAGE_RATIO = WadRayMath.RAY - optimalUsageRatio */\n  0xc0\n  dup2\n  dup2\n  mstore\n  pop\n  pop\n    /* \"contracts/protocol/pool/DefaultReserveInterestRateStrategy.sol\":4451:4480  optimalStableToTotalDebtRatio */\n  dup1\n    /* \"contracts/protocol/pool/DefaultReserveInterestRateStrategy.sol\":4414:4480  OPTIMAL_STABLE_TO_TOTAL_DEBT_RATIO = optimalStableToTotalDebtRatio */\n  0xa0\n  dup2\n  dup2\n  mstore\n  pop\n  pop\n    /* \"contracts/protocol/pool/DefaultReserveInterestRateStrategy.sol\":4544:4573  optimalStableToTotalDebtRatio */\n  dup1\n    /* \"contracts/protocol/libraries/math/WadRayMath.sol\":720:724  1e27 */\n  0x033b2e3c9fd0803ce8000000\n    /* \"contracts/protocol/pool/DefaultReserveInterestRateStrategy.sol\":4527:4573  WadRayMath.RAY - optimalStableToTotalDebtRatio */\n  tag_13\n  swap2\n  swap1\n  tag_12\n  jump\t// in\ntag_13:\n    /* \"contracts/protocol/pool/DefaultReserveInterestRateStrategy.sol\":4487:4573  MAX_EXCESS_STABLE_TO_TOTAL_DEBT_RATIO = WadRayMath.RAY - optimalStableToTotalDebtRatio */\n  0xe0\n  dup2\n  dup2\n  mstore\n  pop\n  pop\n    /* \"contracts/protocol/pool/DefaultReserveInterestRateStrategy.sol\":4601:4609  provider */\n  dup10\n    /* \"contracts/protocol/pool/DefaultReserveInterestRateStrategy.sol\":4580:4609  ADDRESSES_PROVIDER = provider */\n  0xffffffffffffffffffffffffffffffffffffffff\n  and\n  0x0100\n  dup2\n  0xffffffffffffffffffffffffffffffffffffffff\n  and\n  dup2\n  mstore\n  pop\n  pop\n    /* \"contracts/protocol/pool/DefaultReserveInterestRateStrategy.sol\":4642:4664  baseVariableBorrowRate */\n  dup8\n    /* \"contracts/protocol/pool/DefaultReserveInterestRateStrategy.sol\":4616:4664  _baseVariableBorrowRate = baseVariableBorrowRate */\n  0x0120\n  dup2\n  dup2\n  mstore\n  pop\n  pop\n    /* \"contracts/protocol/pool/DefaultReserveInterestRateStrategy.sol\":4693:4711  variableRateSlope1 */\n  dup7\n    /* \"contracts/protocol/pool/DefaultReserveInterestRateStrategy.sol\":4671:4711  _variableRateSlope1 = variableRateSlope1 */\n  0x0140\n  dup2\n  dup2\n  mstore\n  pop\n  pop\n    /* \"contracts/protocol/pool/DefaultReserveInterestRateStrategy.sol\":4740:4758  variableRateSlope2 */\n  dup6\n    /* \"contracts/protocol/pool/DefaultReserveInterestRateStrategy.sol\":4718:4758  _variableRateSlope2 = variableRateSlope2 */\n  0x0160\n  dup2\n  dup2\n  mstore\n  pop\n  pop\n    /* \"contracts/protocol/pool/DefaultReserveInterestRateStrategy.sol\":4785:4801  stableRateSlope1 */\n  dup5\n    /* \"contracts/protocol/pool/DefaultReserveInterestRateStrategy.sol\":4765:4801  _stableRateSlope1 = stableRateSlope1 */\n  0x0180\n  dup2\n  dup2\n  mstore\n  pop\n  pop\n    /* \"contracts/protocol/pool/DefaultReserveInterestRateStrategy.sol\":4828:4844  stableRateSlope2 */\n  dup4\n    /* \"contracts/protocol/pool/DefaultReserveInterestRateStrategy.sol\":4808:4844  _stableRateSlope2 = stableRateSlope2 */\n  0x01a0\n  dup2\n  dup2\n  mstore\n  pop\n  pop\n    /* \"contracts/protocol/pool/DefaultReserveInterestRateStrategy.sol\":4875:4895  baseStableRateOffset */\n  dup3\n    /* \"contracts/protocol/pool/DefaultReserveInterestRateStrategy.sol\":4851:4895  _baseStableRateOffset = baseStableRateOffset */\n  0x01c0\n  dup2\n  dup2\n  mstore\n  pop\n  pop\n    /* \"contracts/protocol/pool/DefaultReserveInterestRateStrategy.sol\":4928:4950  stableRateExcessOffset */\n  dup2\n    /* \"contracts/protocol/pool/DefaultReserveInterestRateStrategy.sol\":4902:4950  _stableRateExcessOffset = stableRateExcessOffset */\n  0x01e0\n  dup2\n  dup2\n  mstore\n  pop\n  pop\n    /* \"contracts/protocol/pool/DefaultReserveInterestRateStrategy.sol\":3705:4956  constructor(... */\n  pop\n  pop\n  pop\n  pop\n  pop\n  pop\n  pop\n  pop\n  pop\n  pop\n    /* \"contracts/protocol/pool/DefaultReserveInterestRateStrategy.sol\":1138:10541  contract DefaultReserveInterestRateStrategy is IDefaultInterestRateStrategy {... */\n  jump(tag_14)\n    /* \"#utility.yul\":88:205   */\ntag_16:\n    /* \"#utility.yul\":197:198   */\n  0x00\n    /* \"#utility.yul\":194:195   */\n  dup1\n    /* \"#utility.yul\":187:199   */\n  revert\n    /* \"#utility.yul\":334:460   */\ntag_18:\n    /* \"#utility.yul\":371:378   */\n  0x00\n    /* \"#utility.yul\":411:453   */\n  0xffffffffffffffffffffffffffffffffffffffff\n    /* \"#utility.yul\":404:409   */\n  dup3\n    /* \"#utility.yul\":400:454   */\n  and\n    /* \"#utility.yul\":389:454   */\n  swap1\n  pop\n    /* \"#utility.yul\":334:460   */\n  swap2\n  swap1\n  pop\n  jump\t// out\n    /* \"#utility.yul\":466:562   */\ntag_19:\n    /* \"#utility.yul\":503:510   */\n  0x00\n    /* \"#utility.yul\":532:556   */\n  tag_38\n    /* \"#utility.yul\":550:555   */\n  dup3\n    /* \"#utility.yul\":532:556   */\n  tag_18\n  jump\t// in\ntag_38:\n    /* \"#utility.yul\":521:556   */\n  swap1\n  pop\n    /* \"#utility.yul\":466:562   */\n  swap2\n  swap1\n  pop\n  jump\t// out\n    /* \"#utility.yul\":568:694   */\ntag_20:\n    /* \"#utility.yul\":635:642   */\n  0x00\n    /* \"#utility.yul\":664:688   */\n  tag_40\n    /* \"#utility.yul\":682:687   */\n  dup3\n    /* \"#utility.yul\":664:688   */\n  tag_19\n  jump\t// in\ntag_40:\n    /* \"#utility.yul\":653:688   */\n  swap1\n  pop\n    /* \"#utility.yul\":568:694   */\n  swap2\n  swap1\n  pop\n  jump\t// out\n    /* \"#utility.yul\":700:882   */\ntag_21:\n    /* \"#utility.yul\":803:857   */\n  tag_42\n    /* \"#utility.yul\":851:856   */\n  dup2\n    /* \"#utility.yul\":803:857   */\n  tag_20\n  jump\t// in\ntag_42:\n    /* \"#utility.yul\":796:801   */\n  dup2\n    /* \"#utility.yul\":793:858   */\n  eq\n    /* \"#utility.yul\":783:876   */\n  tag_43\n  jumpi\n    /* \"#utility.yul\":872:873   */\n  0x00\n    /* \"#utility.yul\":869:870   */\n  dup1\n    /* \"#utility.yul\":862:874   */\n  revert\n    /* \"#utility.yul\":783:876   */\ntag_43:\n    /* \"#utility.yul\":700:882   */\n  pop\n  jump\t// out\n    /* \"#utility.yul\":888:1091   */\ntag_22:\n    /* \"#utility.yul\":975:980   */\n  0x00\n    /* \"#utility.yul\":1006:1012   */\n  dup2\n    /* \"#utility.yul\":1000:1013   */\n  mload\n    /* \"#utility.yul\":991:1013   */\n  swap1\n  pop\n    /* \"#utility.yul\":1022:1085   */\n  tag_45\n    /* \"#utility.yul\":1079:1084   */\n  dup2\n    /* \"#utility.yul\":1022:1085   */\n  tag_21\n  jump\t// in\ntag_45:\n    /* \"#utility.yul\":888:1091   */\n  swap3\n  swap2\n  pop\n  pop\n  jump\t// out\n    /* \"#utility.yul\":1097:1174   */\ntag_23:\n    /* \"#utility.yul\":1134:1141   */\n  0x00\n    /* \"#utility.yul\":1163:1168   */\n  dup2\n    /* \"#utility.yul\":1152:1168   */\n  swap1\n  pop\n    /* \"#utility.yul\":1097:1174   */\n  swap2\n  swap1\n  pop\n  jump\t// out\n    /* \"#utility.yul\":1180:1302   */\ntag_24:\n    /* \"#utility.yul\":1253:1277   */\n  tag_48\n    /* \"#utility.yul\":1271:1276   */\n  dup2\n    /* \"#utility.yul\":1253:1277   */\n  tag_23\n  jump\t// in\ntag_48:\n    /* \"#utility.yul\":1246:1251   */\n  dup2\n    /* \"#utility.yul\":1243:1278   */\n  eq\n    /* \"#utility.yul\":1233:1296   */\n  tag_49\n  jumpi\n    /* \"#utility.yul\":1292:1293   */\n  0x00\n    /* \"#utility.yul\":1289:1290   */\n  dup1\n    /* \"#utility.yul\":1282:1294   */\n  revert\n    /* \"#utility.yul\":1233:1296   */\ntag_49:\n    /* \"#utility.yul\":1180:1302   */\n  pop\n  jump\t// out\n    /* \"#utility.yul\":1308:1451   */\ntag_25:\n    /* \"#utility.yul\":1365:1370   */\n  0x00\n    /* \"#utility.yul\":1396:1402   */\n  dup2\n    /* \"#utility.yul\":1390:1403   */\n  mload\n    /* \"#utility.yul\":1381:1403   */\n  swap1\n  pop\n    /* \"#utility.yul\":1412:1445   */\n  tag_51\n    /* \"#utility.yul\":1439:1444   */\n  dup2\n    /* \"#utility.yul\":1412:1445   */\n  tag_24\n  jump\t// in\ntag_51:\n    /* \"#utility.yul\":1308:1451   */\n  swap3\n  swap2\n  pop\n  pop\n  jump\t// out\n    /* \"#utility.yul\":1457:3279   */\ntag_3:\n    /* \"#utility.yul\":1638:1644   */\n  0x00\n    /* \"#utility.yul\":1646:1652   */\n  dup1\n    /* \"#utility.yul\":1654:1660   */\n  0x00\n    /* \"#utility.yul\":1662:1668   */\n  dup1\n    /* \"#utility.yul\":1670:1676   */\n  0x00\n    /* \"#utility.yul\":1678:1684   */\n  dup1\n    /* \"#utility.yul\":1686:1692   */\n  0x00\n    /* \"#utility.yul\":1694:1700   */\n  dup1\n    /* \"#utility.yul\":1702:1708   */\n  0x00\n    /* \"#utility.yul\":1710:1716   */\n  dup1\n    /* \"#utility.yul\":1759:1762   */\n  0x0140\n    /* \"#utility.yul\":1747:1756   */\n  dup12\n    /* \"#utility.yul\":1738:1745   */\n  dup14\n    /* \"#utility.yul\":1734:1757   */\n  sub\n    /* \"#utility.yul\":1730:1763   */\n  slt\n    /* \"#utility.yul\":1727:1847   */\n  iszero\n  tag_53\n  jumpi\n    /* \"#utility.yul\":1766:1845   */\n  tag_54\n  tag_16\n  jump\t// in\ntag_54:\n    /* \"#utility.yul\":1727:1847   */\ntag_53:\n    /* \"#utility.yul\":1886:1887   */\n  0x00\n    /* \"#utility.yul\":1911:2005   */\n  tag_55\n    /* \"#utility.yul\":1997:2004   */\n  dup14\n    /* \"#utility.yul\":1988:1994   */\n  dup3\n    /* \"#utility.yul\":1977:1986   */\n  dup15\n    /* \"#utility.yul\":1973:1995   */\n  add\n    /* \"#utility.yul\":1911:2005   */\n  tag_22\n  jump\t// in\ntag_55:\n    /* \"#utility.yul\":1901:2005   */\n  swap11\n  pop\n    /* \"#utility.yul\":1857:2015   */\n  pop\n    /* \"#utility.yul\":2054:2056   */\n  0x20\n    /* \"#utility.yul\":2080:2144   */\n  tag_56\n    /* \"#utility.yul\":2136:2143   */\n  dup14\n    /* \"#utility.yul\":2127:2133   */\n  dup3\n    /* \"#utility.yul\":2116:2125   */\n  dup15\n    /* \"#utility.yul\":2112:2134   */\n  add\n    /* \"#utility.yul\":2080:2144   */\n  tag_25\n  jump\t// in\ntag_56:\n    /* \"#utility.yul\":2070:2144   */\n  swap10\n  pop\n    /* \"#utility.yul\":2025:2154   */\n  pop\n    /* \"#utility.yul\":2193:2195   */\n  0x40\n    /* \"#utility.yul\":2219:2283   */\n  tag_57\n    /* \"#utility.yul\":2275:2282   */\n  dup14\n    /* \"#utility.yul\":2266:2272   */\n  dup3\n    /* \"#utility.yul\":2255:2264   */\n  dup15\n    /* \"#utility.yul\":2251:2273   */\n  add\n    /* \"#utility.yul\":2219:2283   */\n  tag_25\n  jump\t// in\ntag_57:\n    /* \"#utility.yul\":2209:2283   */\n  swap9\n  pop\n    /* \"#utility.yul\":2164:2293   */\n  pop\n    /* \"#utility.yul\":2332:2334   */\n  0x60\n    /* \"#utility.yul\":2358:2422   */\n  tag_58\n    /* \"#utility.yul\":2414:2421   */\n  dup14\n    /* \"#utility.yul\":2405:2411   */\n  dup3\n    /* \"#utility.yul\":2394:2403   */\n  dup15\n    /* \"#utility.yul\":2390:2412   */\n  add\n    /* \"#utility.yul\":2358:2422   */\n  tag_25\n  jump\t// in\ntag_58:\n    /* \"#utility.yul\":2348:2422   */\n  swap8\n  pop\n    /* \"#utility.yul\":2303:2432   */\n  pop\n    /* \"#utility.yul\":2471:2474   */\n  0x80\n    /* \"#utility.yul\":2498:2562   */\n  tag_59\n    /* \"#utility.yul\":2554:2561   */\n  dup14\n    /* \"#utility.yul\":2545:2551   */\n  dup3\n    /* \"#utility.yul\":2534:2543   */\n  dup15\n    /* \"#utility.yul\":2530:2552   */\n  add\n    /* \"#utility.yul\":2498:2562   */\n  tag_25\n  jump\t// in\ntag_59:\n    /* \"#utility.yul\":2488:2562   */\n  swap7\n  pop\n    /* \"#utility.yul\":2442:2572   */\n  pop\n    /* \"#utility.yul\":2611:2614   */\n  0xa0\n    /* \"#utility.yul\":2638:2702   */\n  tag_60\n    /* \"#utility.yul\":2694:2701   */\n  dup14\n    /* \"#utility.yul\":2685:2691   */\n  dup3\n    /* \"#utility.yul\":2674:2683   */\n  dup15\n    /* \"#utility.yul\":2670:2692   */\n  add\n    /* \"#utility.yul\":2638:2702   */\n  tag_25\n  jump\t// in\ntag_60:\n    /* \"#utility.yul\":2628:2702   */\n  swap6\n  pop\n    /* \"#utility.yul\":2582:2712   */\n  pop\n    /* \"#utility.yul\":2751:2754   */\n  0xc0\n    /* \"#utility.yul\":2778:2842   */\n  tag_61\n    /* \"#utility.yul\":2834:2841   */\n  dup14\n    /* \"#utility.yul\":2825:2831   */\n  dup3\n    /* \"#utility.yul\":2814:2823   */\n  dup15\n    /* \"#utility.yul\":2810:2832   */\n  add\n    /* \"#utility.yul\":2778:2842   */\n  tag_25\n  jump\t// in\ntag_61:\n    /* \"#utility.yul\":2768:2842   */\n  swap5\n  pop\n    /* \"#utility.yul\":2722:2852   */\n  pop\n    /* \"#utility.yul\":2891:2894   */\n  0xe0\n    /* \"#utility.yul\":2918:2982   */\n  tag_62\n    /* \"#utility.yul\":2974:2981   */\n  dup14\n    /* \"#utility.yul\":2965:2971   */\n  dup3\n    /* \"#utility.yul\":2954:2963   */\n  dup15\n    /* \"#utility.yul\":2950:2972   */\n  add\n    /* \"#utility.yul\":2918:2982   */\n  tag_25\n  jump\t// in\ntag_62:\n    /* \"#utility.yul\":2908:2982   */\n  swap4\n  pop\n    /* \"#utility.yul\":2862:2992   */\n  pop\n    /* \"#utility.yul\":3031:3034   */\n  0x0100\n    /* \"#utility.yul\":3058:3122   */\n  tag_63\n    /* \"#utility.yul\":3114:3121   */\n  dup14\n    /* \"#utility.yul\":3105:3111   */\n  dup3\n    /* \"#utility.yul\":3094:3103   */\n  dup15\n    /* \"#utility.yul\":3090:3112   */\n  add\n    /* \"#utility.yul\":3058:3122   */\n  tag_25\n  jump\t// in\ntag_63:\n    /* \"#utility.yul\":3048:3122   */\n  swap3\n  pop\n    /* \"#utility.yul\":3002:3132   */\n  pop\n    /* \"#utility.yul\":3171:3174   */\n  0x0120\n    /* \"#utility.yul\":3198:3262   */\n  tag_64\n    /* \"#utility.yul\":3254:3261   */\n  dup14\n    /* \"#utility.yul\":3245:3251   */\n  dup3\n    /* \"#utility.yul\":3234:3243   */\n  dup15\n    /* \"#utility.yul\":3230:3252   */\n  add\n    /* \"#utility.yul\":3198:3262   */\n  tag_25\n  jump\t// in\ntag_64:\n    /* \"#utility.yul\":3188:3262   */\n  swap2\n  pop\n    /* \"#utility.yul\":3142:3272   */\n  pop\n    /* \"#utility.yul\":1457:3279   */\n  swap3\n  swap6\n  swap9\n  swap12\n  swap2\n  swap5\n  swap8\n  swap11\n  pop\n  swap3\n  swap6\n  swap9\n  pop\n  jump\t// out\n    /* \"#utility.yul\":3285:3384   */\ntag_26:\n    /* \"#utility.yul\":3337:3343   */\n  0x00\n    /* \"#utility.yul\":3371:3376   */\n  dup2\n    /* \"#utility.yul\":3365:3377   */\n  mload\n    /* \"#utility.yul\":3355:3377   */\n  swap1\n  pop\n    /* \"#utility.yul\":3285:3384   */\n  swap2\n  swap1\n  pop\n  jump\t// out\n    /* \"#utility.yul\":3390:3559   */\ntag_27:\n    /* \"#utility.yul\":3474:3485   */\n  0x00\n    /* \"#utility.yul\":3508:3514   */\n  dup3\n    /* \"#utility.yul\":3503:3506   */\n  dup3\n    /* \"#utility.yul\":3496:3515   */\n  mstore\n    /* \"#utility.yul\":3548:3552   */\n  0x20\n    /* \"#utility.yul\":3543:3546   */\n  dup3\n    /* \"#utility.yul\":3539:3553   */\n  add\n    /* \"#utility.yul\":3524:3553   */\n  swap1\n  pop\n    /* \"#utility.yul\":3390:3559   */\n  swap3\n  swap2\n  pop\n  pop\n  jump\t// out\n    /* \"#utility.yul\":3565:3704   */\ntag_28:\n    /* \"#utility.yul\":3654:3660   */\n  dup3\n    /* \"#utility.yul\":3649:3652   */\n  dup2\n    /* \"#utility.yul\":3644:3647   */\n  dup4\n    /* \"#utility.yul\":3638:3661   */\n  mcopy\n    /* \"#utility.yul\":3695:3696   */\n  0x00\n    /* \"#utility.yul\":3686:3692   */\n  dup4\n    /* \"#utility.yul\":3681:3684   */\n  dup4\n    /* \"#utility.yul\":3677:3693   */\n  add\n    /* \"#utility.yul\":3670:3697   */\n  mstore\n    /* \"#utility.yul\":3565:3704   */\n  pop\n  pop\n  pop\n  jump\t// out\n    /* \"#utility.yul\":3710:3812   */\ntag_29:\n    /* \"#utility.yul\":3751:3757   */\n  0x00\n    /* \"#utility.yul\":3802:3804   */\n  0x1f\n    /* \"#utility.yul\":3798:3805   */\n  not\n    /* \"#utility.yul\":3793:3795   */\n  0x1f\n    /* \"#utility.yul\":3786:3791   */\n  dup4\n    /* \"#utility.yul\":3782:3796   */\n  add\n    /* \"#utility.yul\":3778:3806   */\n  and\n    /* \"#utility.yul\":3768:3806   */\n  swap1\n  pop\n    /* \"#utility.yul\":3710:3812   */\n  swap2\n  swap1\n  pop\n  jump\t// out\n    /* \"#utility.yul\":3818:4195   */\ntag_30:\n    /* \"#utility.yul\":3906:3909   */\n  0x00\n    /* \"#utility.yul\":3934:3973   */\n  tag_70\n    /* \"#utility.yul\":3967:3972   */\n  dup3\n    /* \"#utility.yul\":3934:3973   */\n  tag_26\n  jump\t// in\ntag_70:\n    /* \"#utility.yul\":3989:4060   */\n  tag_71\n    /* \"#utility.yul\":4053:4059   */\n  dup2\n    /* \"#utility.yul\":4048:4051   */\n  dup6\n    /* \"#utility.yul\":3989:4060   */\n  tag_27\n  jump\t// in\ntag_71:\n    /* \"#utility.yul\":3982:4060   */\n  swap4\n  pop\n    /* \"#utility.yul\":4069:4134   */\n  tag_72\n    /* \"#utility.yul\":4127:4133   */\n  dup2\n    /* \"#utility.yul\":4122:4125   */\n  dup6\n    /* \"#utility.yul\":4115:4119   */\n  0x20\n    /* \"#utility.yul\":4108:4113   */\n  dup7\n    /* \"#utility.yul\":4104:4120   */\n  add\n    /* \"#utility.yul\":4069:4134   */\n  tag_28\n  jump\t// in\ntag_72:\n    /* \"#utility.yul\":4159:4188   */\n  tag_73\n    /* \"#utility.yul\":4181:4187   */\n  dup2\n    /* \"#utility.yul\":4159:4188   */\n  tag_29\n  jump\t// in\ntag_73:\n    /* \"#utility.yul\":4154:4157   */\n  dup5\n    /* \"#utility.yul\":4150:4189   */\n  add\n    /* \"#utility.yul\":4143:4189   */\n  swap2\n  pop\n    /* \"#utility.yul\":3910:4195   */\n  pop\n    /* \"#utility.yul\":3818:4195   */\n  swap3\n  swap2\n  pop\n  pop\n  jump\t// out\n    /* \"#utility.yul\":4201:4514   */\ntag_8:\n    /* \"#utility.yul\":4314:4318   */\n  0x00\n    /* \"#utility.yul\":4352:4354   */\n  0x20\n    /* \"#utility.yul\":4341:4350   */\n  dup3\n    /* \"#utility.yul\":4337:4355   */\n  add\n    /* \"#utility.yul\":4329:4355   */\n  swap1\n  pop\n    /* \"#utility.yul\":4401:4410   */\n  dup2\n    /* \"#utility.yul\":4395:4399   */\n  dup2\n    /* \"#utility.yul\":4391:4411   */\n  sub\n    /* \"#utility.yul\":4387:4388   */\n  0x00\n    /* \"#utility.yul\":4376:4385   */\n  dup4\n    /* \"#utility.yul\":4372:4389   */\n  add\n    /* \"#utility.yul\":4365:4412   */\n  mstore\n    /* \"#utility.yul\":4429:4507   */\n  tag_75\n    /* \"#utility.yul\":4502:4506   */\n  dup2\n    /* \"#utility.yul\":4493:4499   */\n  dup5\n    /* \"#utility.yul\":4429:4507   */\n  tag_30\n  jump\t// in\ntag_75:\n    /* \"#utility.yul\":4421:4507   */\n  swap1\n  pop\n    /* \"#utility.yul\":4201:4514   */\n  swap3\n  swap2\n  pop\n  pop\n  jump\t// out\n    /* \"#utility.yul\":4520:4700   */\ntag_31:\n    /* \"#utility.yul\":4568:4645   */\n  0x4e487b7100000000000000000000000000000000000000000000000000000000\n    /* \"#utility.yul\":4565:4566   */\n  0x00\n    /* \"#utility.yul\":4558:4646   */\n  mstore\n    /* \"#utility.yul\":4665:4669   */\n  0x11\n    /* \"#utility.yul\":4662:4663   */\n  0x04\n    /* \"#utility.yul\":4655:4670   */\n  mstore\n    /* \"#utility.yul\":4689:4693   */\n  0x24\n    /* \"#utility.yul\":4686:4687   */\n  0x00\n    /* \"#utility.yul\":4679:4694   */\n  revert\n    /* \"#utility.yul\":4706:4900   */\ntag_12:\n    /* \"#utility.yul\":4746:4750   */\n  0x00\n    /* \"#utility.yul\":4766:4786   */\n  tag_78\n    /* \"#utility.yul\":4784:4785   */\n  dup3\n    /* \"#utility.yul\":4766:4786   */\n  tag_23\n  jump\t// in\ntag_78:\n    /* \"#utility.yul\":4761:4786   */\n  swap2\n  pop\n    /* \"#utility.yul\":4800:4820   */\n  tag_79\n    /* \"#utility.yul\":4818:4819   */\n  dup4\n    /* \"#utility.yul\":4800:4820   */\n  tag_23\n  jump\t// in\ntag_79:\n    /* \"#utility.yul\":4795:4820   */\n  swap3\n  pop\n    /* \"#utility.yul\":4844:4845   */\n  dup3\n    /* \"#utility.yul\":4841:4842   */\n  dup3\n    /* \"#utility.yul\":4837:4846   */\n  sub\n    /* \"#utility.yul\":4829:4846   */\n  swap1\n  pop\n    /* \"#utility.yul\":4868:4869   */\n  dup2\n    /* \"#utility.yul\":4862:4866   */\n  dup2\n    /* \"#utility.yul\":4859:4870   */\n  gt\n    /* \"#utility.yul\":4856:4893   */\n  iszero\n  tag_80\n  jumpi\n    /* \"#utility.yul\":4873:4891   */\n  tag_81\n  tag_31\n  jump\t// in\ntag_81:\n    /* \"#utility.yul\":4856:4893   */\ntag_80:\n    /* \"#utility.yul\":4706:4900   */\n  swap3\n  swap2\n  pop\n  pop\n  jump\t// out\n    /* \"contracts/protocol/pool/DefaultReserveInterestRateStrategy.sol\":1138:10541  contract DefaultReserveInterestRateStrategy is IDefaultInterestRateStrategy {... */\ntag_14:\n  mload(0x80)\n  mload(0xa0)\n  mload(0xc0)\n  mload(0xe0)\n  mload(0x0100)\n  mload(0x0120)\n  mload(0x0140)\n  mload(0x0160)\n  mload(0x0180)\n  mload(0x01a0)\n  mload(0x01c0)\n  mload(0x01e0)\n  codecopy(0x00, dataOffset(sub_0), dataSize(sub_0))\n  0x00\n  assignImmutable(\"0x70b9cfc048319b9ef377ccc5e2a0402a437e40c262f68ec2c4300041ea0be603\")\n  0x00\n  assignImmutable(\"0x083f739698f890fb969b96417c0105ad7eef1ed61a3ab37d17df5b3d0462e396\")\n  0x00\n  assignImmutable(\"0x546b8ee2b6024b51f8ac09c9b51b13aa72133bd1c94292a0e87380adab199ff6\")\n  0x00\n  assignImmutable(\"0x86d9b12b99474cf5ed7f7b9358bacb67cb811b97bd81713281cc6e3cbdc2b05d\")\n  0x00\n  assignImmutable(\"0xc2d66ac8003fc0993ad707e1d8d85280e3f64a35eacfb6ef390dc54150f3cae5\")\n  0x00\n  assignImmutable(\"0xc2c292bd87d43b940f8ea6fe297efd99e49b4b5b77280a729c3126d2ddc0c8db\")\n  0x00\n  assignImmutable(\"0xbe2ad2d383491e673db26157cde0324edb7724156147b37fcd7f90ba61240566\")\n  0x00\n  assignImmutable(\"0x1be098a259116bb01f030c85677666e5a5cc1ac00ee0d8dd61762f3f467db074\")\n  0x00\n  assignImmutable(\"0x992b2834377aca810e18ed7e283a2289a822c850914d1e3ce431b6e3563cb371\")\n  0x00\n  assignImmutable(\"0x0878797cdfc1ddb1f7dac03a85224472dc2a836f7203bfa5d1dcbed3a851ef97\")\n  0x00\n  assignImmutable(\"0xcf44e63ed97cae6647795b2d87c131e71c545e7c60486fbc78d35dfb7f2e49dc\")\n  0x00\n  assignImmutable(\"0x120322e835ddaf7b57569e0455cf5d10d01f031638ad503f74e383f6b8a42ab2\")\n  return(0x00, dataSize(sub_0))\nstop\n\nsub_0: assembly {\n        /* \"contracts/protocol/pool/DefaultReserveInterestRateStrategy.sol\":1138:10541  contract DefaultReserveInterestRateStrategy is IDefaultInterestRateStrategy {... */\n      mstore(0x40, 0x80)\n      callvalue\n      dup1\n      iszero\n      tag_1\n      jumpi\n      0x00\n      dup1\n      revert\n    tag_1:\n      pop\n      jumpi(tag_2, lt(calldatasize, 0x04))\n      shr(0xe0, calldataload(0x00))\n      dup1\n      0xa5898709\n      gt\n      tag_17\n      jumpi\n      dup1\n      0xbc626908\n      gt\n      tag_18\n      jumpi\n      dup1\n      0xbc626908\n      eq\n      tag_13\n      jumpi\n      dup1\n      0xd5cd7391\n      eq\n      tag_14\n      jumpi\n      dup1\n      0xf4202409\n      eq\n      tag_15\n      jumpi\n      dup1\n      0xfe5fd698\n      eq\n      tag_16\n      jumpi\n      jump(tag_2)\n    tag_18:\n      dup1\n      0xa5898709\n      eq\n      tag_10\n      jumpi\n      dup1\n      0xa9c622f8\n      eq\n      tag_11\n      jumpi\n      dup1\n      0xacd78686\n      eq\n      tag_12\n      jumpi\n      jump(tag_2)\n    tag_17:\n      dup1\n      0x34762ca5\n      gt\n      tag_19\n      jumpi\n      dup1\n      0x34762ca5\n      eq\n      tag_6\n      jumpi\n      dup1\n      0x54c365c6\n      eq\n      tag_7\n      jumpi\n      dup1\n      0x6fb92589\n      eq\n      tag_8\n      jumpi\n      dup1\n      0x80031e37\n      eq\n      tag_9\n      jumpi\n      jump(tag_2)\n    tag_19:\n      dup1\n      0x0542975c\n      eq\n      tag_3\n      jumpi\n      dup1\n      0x0b3429a2\n      eq\n      tag_4\n      jumpi\n      dup1\n      0x14e32da4\n      eq\n      tag_5\n      jumpi\n    tag_2:\n      0x00\n      dup1\n      revert\n        /* \"contracts/protocol/pool/DefaultReserveInterestRateStrategy.sol\":1723:1781  IPoolAddressesProvider public immutable ADDRESSES_PROVIDER */\n    tag_3:\n      tag_20\n      tag_21\n      jump\t// in\n    tag_20:\n      mload(0x40)\n      tag_22\n      swap2\n      swap1\n      tag_23\n      jump\t// in\n    tag_22:\n      mload(0x40)\n      dup1\n      swap2\n      sub\n      swap1\n      return\n        /* \"contracts/protocol/pool/DefaultReserveInterestRateStrategy.sol\":5010:5114  function getVariableRateSlope1() external view returns (uint256) {... */\n    tag_4:\n      tag_24\n      tag_25\n      jump\t// in\n    tag_24:\n      mload(0x40)\n      tag_26\n      swap2\n      swap1\n      tag_27\n      jump\t// in\n    tag_26:\n      mload(0x40)\n      dup1\n      swap2\n      sub\n      swap1\n      return\n        /* \"contracts/protocol/pool/DefaultReserveInterestRateStrategy.sol\":5480:5580  function getStableRateSlope2() external view returns (uint256) {... */\n    tag_5:\n      tag_28\n      tag_29\n      jump\t// in\n    tag_28:\n      mload(0x40)\n      tag_30\n      swap2\n      swap1\n      tag_27\n      jump\t// in\n    tag_30:\n      mload(0x40)\n      dup1\n      swap2\n      sub\n      swap1\n      return\n        /* \"contracts/protocol/pool/DefaultReserveInterestRateStrategy.sol\":5982:6103  function getBaseVariableBorrowRate() external view override returns (uint256) {... */\n    tag_6:\n      tag_31\n      tag_32\n      jump\t// in\n    tag_31:\n      mload(0x40)\n      tag_33\n      swap2\n      swap1\n      tag_27\n      jump\t// in\n    tag_33:\n      mload(0x40)\n      dup1\n      swap2\n      sub\n      swap1\n      return\n        /* \"contracts/protocol/pool/DefaultReserveInterestRateStrategy.sol\":1339:1383  uint256 public immutable OPTIMAL_USAGE_RATIO */\n    tag_7:\n      tag_34\n      tag_35\n      jump\t// in\n    tag_34:\n      mload(0x40)\n      tag_36\n      swap2\n      swap1\n      tag_27\n      jump\t// in\n    tag_36:\n      mload(0x40)\n      dup1\n      swap2\n      sub\n      swap1\n      return\n        /* \"contracts/protocol/pool/DefaultReserveInterestRateStrategy.sol\":1438:1497  uint256 public immutable OPTIMAL_STABLE_TO_TOTAL_DEBT_RATIO */\n    tag_8:\n      tag_37\n      tag_38\n      jump\t// in\n    tag_37:\n      mload(0x40)\n      tag_39\n      swap2\n      swap1\n      tag_27\n      jump\t// in\n    tag_39:\n      mload(0x40)\n      dup1\n      swap2\n      sub\n      swap1\n      return\n        /* \"contracts/protocol/pool/DefaultReserveInterestRateStrategy.sol\":6157:6321  function getMaxVariableBorrowRate() external view override returns (uint256) {... */\n    tag_9:\n      tag_40\n      tag_41\n      jump\t// in\n    tag_40:\n      mload(0x40)\n      tag_42\n      swap2\n      swap1\n      tag_27\n      jump\t// in\n    tag_42:\n      mload(0x40)\n      dup1\n      swap2\n      sub\n      swap1\n      return\n        /* \"contracts/protocol/pool/DefaultReserveInterestRateStrategy.sol\":6731:9302  function calculateInterestRates(... */\n    tag_10:\n      tag_43\n      0x04\n      dup1\n      calldatasize\n      sub\n      dup2\n      add\n      swap1\n      tag_44\n      swap2\n      swap1\n      tag_45\n      jump\t// in\n    tag_44:\n      tag_46\n      jump\t// in\n    tag_43:\n      mload(0x40)\n      tag_47\n      swap4\n      swap3\n      swap2\n      swap1\n      tag_48\n      jump\t// in\n    tag_47:\n      mload(0x40)\n      dup1\n      swap2\n      sub\n      swap1\n      return\n        /* \"contracts/protocol/pool/DefaultReserveInterestRateStrategy.sol\":1552:1599  uint256 public immutable MAX_EXCESS_USAGE_RATIO */\n    tag_11:\n      tag_49\n      tag_50\n      jump\t// in\n    tag_49:\n      mload(0x40)\n      tag_51\n      swap2\n      swap1\n      tag_27\n      jump\t// in\n    tag_51:\n      mload(0x40)\n      dup1\n      swap2\n      sub\n      swap1\n      return\n        /* \"contracts/protocol/pool/DefaultReserveInterestRateStrategy.sol\":5800:5928  function getBaseStableBorrowRate() public view returns (uint256) {... */\n    tag_12:\n      tag_52\n      tag_53\n      jump\t// in\n    tag_52:\n      mload(0x40)\n      tag_54\n      swap2\n      swap1\n      tag_27\n      jump\t// in\n    tag_54:\n      mload(0x40)\n      dup1\n      swap2\n      sub\n      swap1\n      return\n        /* \"contracts/protocol/pool/DefaultReserveInterestRateStrategy.sol\":5634:5746  function getStableRateExcessOffset() external view returns (uint256) {... */\n    tag_13:\n      tag_55\n      tag_56\n      jump\t// in\n    tag_55:\n      mload(0x40)\n      tag_57\n      swap2\n      swap1\n      tag_27\n      jump\t// in\n    tag_57:\n      mload(0x40)\n      dup1\n      swap2\n      sub\n      swap1\n      return\n        /* \"contracts/protocol/pool/DefaultReserveInterestRateStrategy.sol\":5326:5426  function getStableRateSlope1() external view returns (uint256) {... */\n    tag_14:\n      tag_58\n      tag_59\n      jump\t// in\n    tag_58:\n      mload(0x40)\n      tag_60\n      swap2\n      swap1\n      tag_27\n      jump\t// in\n    tag_60:\n      mload(0x40)\n      dup1\n      swap2\n      sub\n      swap1\n      return\n        /* \"contracts/protocol/pool/DefaultReserveInterestRateStrategy.sol\":5168:5272  function getVariableRateSlope2() external view returns (uint256) {... */\n    tag_15:\n      tag_61\n      tag_62\n      jump\t// in\n    tag_61:\n      mload(0x40)\n      tag_63\n      swap2\n      swap1\n      tag_27\n      jump\t// in\n    tag_63:\n      mload(0x40)\n      dup1\n      swap2\n      sub\n      swap1\n      return\n        /* \"contracts/protocol/pool/DefaultReserveInterestRateStrategy.sol\":1654:1716  uint256 public immutable MAX_EXCESS_STABLE_TO_TOTAL_DEBT_RATIO */\n    tag_16:\n      tag_64\n      tag_65\n      jump\t// in\n    tag_64:\n      mload(0x40)\n      tag_66\n      swap2\n      swap1\n      tag_27\n      jump\t// in\n    tag_66:\n      mload(0x40)\n      dup1\n      swap2\n      sub\n      swap1\n      return\n        /* \"contracts/protocol/pool/DefaultReserveInterestRateStrategy.sol\":1723:1781  IPoolAddressesProvider public immutable ADDRESSES_PROVIDER */\n    tag_21:\n      immutable(\"0x1be098a259116bb01f030c85677666e5a5cc1ac00ee0d8dd61762f3f467db074\")\n      dup2\n      jump\t// out\n        /* \"contracts/protocol/pool/DefaultReserveInterestRateStrategy.sol\":5010:5114  function getVariableRateSlope1() external view returns (uint256) {... */\n    tag_25:\n        /* \"contracts/protocol/pool/DefaultReserveInterestRateStrategy.sol\":5066:5073  uint256 */\n      0x00\n        /* \"contracts/protocol/pool/DefaultReserveInterestRateStrategy.sol\":5089:5108  _variableRateSlope1 */\n      immutable(\"0xc2c292bd87d43b940f8ea6fe297efd99e49b4b5b77280a729c3126d2ddc0c8db\")\n        /* \"contracts/protocol/pool/DefaultReserveInterestRateStrategy.sol\":5082:5108  return _variableRateSlope1 */\n      swap1\n      pop\n        /* \"contracts/protocol/pool/DefaultReserveInterestRateStrategy.sol\":5010:5114  function getVariableRateSlope1() external view returns (uint256) {... */\n      swap1\n      jump\t// out\n        /* \"contracts/protocol/pool/DefaultReserveInterestRateStrategy.sol\":5480:5580  function getStableRateSlope2() external view returns (uint256) {... */\n    tag_29:\n        /* \"contracts/protocol/pool/DefaultReserveInterestRateStrategy.sol\":5534:5541  uint256 */\n      0x00\n        /* \"contracts/protocol/pool/DefaultReserveInterestRateStrategy.sol\":5557:5574  _stableRateSlope2 */\n      immutable(\"0x546b8ee2b6024b51f8ac09c9b51b13aa72133bd1c94292a0e87380adab199ff6\")\n        /* \"contracts/protocol/pool/DefaultReserveInterestRateStrategy.sol\":5550:5574  return _stableRateSlope2 */\n      swap1\n      pop\n        /* \"contracts/protocol/pool/DefaultReserveInterestRateStrategy.sol\":5480:5580  function getStableRateSlope2() external view returns (uint256) {... */\n      swap1\n      jump\t// out\n        /* \"contracts/protocol/pool/DefaultReserveInterestRateStrategy.sol\":5982:6103  function getBaseVariableBorrowRate() external view override returns (uint256) {... */\n    tag_32:\n        /* \"contracts/protocol/pool/DefaultReserveInterestRateStrategy.sol\":6051:6058  uint256 */\n      0x00\n        /* \"contracts/protocol/pool/DefaultReserveInterestRateStrategy.sol\":6074:6097  _baseVariableBorrowRate */\n      immutable(\"0xbe2ad2d383491e673db26157cde0324edb7724156147b37fcd7f90ba61240566\")\n        /* \"contracts/protocol/pool/DefaultReserveInterestRateStrategy.sol\":6067:6097  return _baseVariableBorrowRate */\n      swap1\n      pop\n        /* \"contracts/protocol/pool/DefaultReserveInterestRateStrategy.sol\":5982:6103  function getBaseVariableBorrowRate() external view override returns (uint256) {... */\n      swap1\n      jump\t// out\n        /* \"contracts/protocol/pool/DefaultReserveInterestRateStrategy.sol\":1339:1383  uint256 public immutable OPTIMAL_USAGE_RATIO */\n    tag_35:\n      immutable(\"0x120322e835ddaf7b57569e0455cf5d10d01f031638ad503f74e383f6b8a42ab2\")\n      dup2\n      jump\t// out\n        /* \"contracts/protocol/pool/DefaultReserveInterestRateStrategy.sol\":1438:1497  uint256 public immutable OPTIMAL_STABLE_TO_TOTAL_DEBT_RATIO */\n    tag_38:\n      immutable(\"0xcf44e63ed97cae6647795b2d87c131e71c545e7c60486fbc78d35dfb7f2e49dc\")\n      dup2\n      jump\t// out\n        /* \"contracts/protocol/pool/DefaultReserveInterestRateStrategy.sol\":6157:6321  function getMaxVariableBorrowRate() external view override returns (uint256) {... */\n    tag_41:\n        /* \"contracts/protocol/pool/DefaultReserveInterestRateStrategy.sol\":6225:6232  uint256 */\n      0x00\n        /* \"contracts/protocol/pool/DefaultReserveInterestRateStrategy.sol\":6296:6315  _variableRateSlope2 */\n      immutable(\"0xc2d66ac8003fc0993ad707e1d8d85280e3f64a35eacfb6ef390dc54150f3cae5\")\n        /* \"contracts/protocol/pool/DefaultReserveInterestRateStrategy.sol\":6274:6293  _variableRateSlope1 */\n      immutable(\"0xc2c292bd87d43b940f8ea6fe297efd99e49b4b5b77280a729c3126d2ddc0c8db\")\n        /* \"contracts/protocol/pool/DefaultReserveInterestRateStrategy.sol\":6248:6271  _baseVariableBorrowRate */\n      immutable(\"0xbe2ad2d383491e673db26157cde0324edb7724156147b37fcd7f90ba61240566\")\n        /* \"contracts/protocol/pool/DefaultReserveInterestRateStrategy.sol\":6248:6293  _baseVariableBorrowRate + _variableRateSlope1 */\n      tag_71\n      swap2\n      swap1\n      tag_72\n      jump\t// in\n    tag_71:\n        /* \"contracts/protocol/pool/DefaultReserveInterestRateStrategy.sol\":6248:6315  _baseVariableBorrowRate + _variableRateSlope1 + _variableRateSlope2 */\n      tag_73\n      swap2\n      swap1\n      tag_72\n      jump\t// in\n    tag_73:\n        /* \"contracts/protocol/pool/DefaultReserveInterestRateStrategy.sol\":6241:6315  return _baseVariableBorrowRate + _variableRateSlope1 + _variableRateSlope2 */\n      swap1\n      pop\n        /* \"contracts/protocol/pool/DefaultReserveInterestRateStrategy.sol\":6157:6321  function getMaxVariableBorrowRate() external view override returns (uint256) {... */\n      swap1\n      jump\t// out\n        /* \"contracts/protocol/pool/DefaultReserveInterestRateStrategy.sol\":6731:9302  function calculateInterestRates(... */\n    tag_46:\n        /* \"contracts/protocol/pool/DefaultReserveInterestRateStrategy.sol\":6857:6864  uint256 */\n      0x00\n        /* \"contracts/protocol/pool/DefaultReserveInterestRateStrategy.sol\":6866:6873  uint256 */\n      dup1\n        /* \"contracts/protocol/pool/DefaultReserveInterestRateStrategy.sol\":6875:6882  uint256 */\n      0x00\n        /* \"contracts/protocol/pool/DefaultReserveInterestRateStrategy.sol\":6891:6929  CalcInterestRatesLocalVars memory vars */\n      tag_75\n      tag_76\n      jump\t// in\n    tag_75:\n        /* \"contracts/protocol/pool/DefaultReserveInterestRateStrategy.sol\":6980:6986  params */\n      dup5\n        /* \"contracts/protocol/pool/DefaultReserveInterestRateStrategy.sol\":6980:7004  params.totalVariableDebt */\n      0x80\n      add\n      mload\n        /* \"contracts/protocol/pool/DefaultReserveInterestRateStrategy.sol\":6955:6961  params */\n      dup6\n        /* \"contracts/protocol/pool/DefaultReserveInterestRateStrategy.sol\":6955:6977  params.totalStableDebt */\n      0x60\n      add\n      mload\n        /* \"contracts/protocol/pool/DefaultReserveInterestRateStrategy.sol\":6955:7004  params.totalStableDebt + params.totalVariableDebt */\n      tag_77\n      swap2\n      swap1\n      tag_72\n      jump\t// in\n    tag_77:\n        /* \"contracts/protocol/pool/DefaultReserveInterestRateStrategy.sol\":6938:6942  vars */\n      dup2\n        /* \"contracts/protocol/pool/DefaultReserveInterestRateStrategy.sol\":6938:6952  vars.totalDebt */\n      0x20\n      add\n        /* \"contracts/protocol/pool/DefaultReserveInterestRateStrategy.sol\":6938:7004  vars.totalDebt = params.totalStableDebt + params.totalVariableDebt */\n      dup2\n      dup2\n      mstore\n      pop\n      pop\n        /* \"contracts/protocol/pool/DefaultReserveInterestRateStrategy.sol\":7041:7042  0 */\n      0x00\n        /* \"contracts/protocol/pool/DefaultReserveInterestRateStrategy.sol\":7013:7017  vars */\n      dup2\n        /* \"contracts/protocol/pool/DefaultReserveInterestRateStrategy.sol\":7013:7038  vars.currentLiquidityRate */\n      0x80\n      add\n        /* \"contracts/protocol/pool/DefaultReserveInterestRateStrategy.sol\":7013:7042  vars.currentLiquidityRate = 0 */\n      dup2\n      dup2\n      mstore\n      pop\n      pop\n        /* \"contracts/protocol/pool/DefaultReserveInterestRateStrategy.sol\":7082:7105  _baseVariableBorrowRate */\n      immutable(\"0xbe2ad2d383491e673db26157cde0324edb7724156147b37fcd7f90ba61240566\")\n        /* \"contracts/protocol/pool/DefaultReserveInterestRateStrategy.sol\":7049:7053  vars */\n      dup2\n        /* \"contracts/protocol/pool/DefaultReserveInterestRateStrategy.sol\":7049:7079  vars.currentVariableBorrowRate */\n      0x40\n      add\n        /* \"contracts/protocol/pool/DefaultReserveInterestRateStrategy.sol\":7049:7105  vars.currentVariableBorrowRate = _baseVariableBorrowRate */\n      dup2\n      dup2\n      mstore\n      pop\n      pop\n        /* \"contracts/protocol/pool/DefaultReserveInterestRateStrategy.sol\":7143:7168  getBaseStableBorrowRate() */\n      tag_78\n        /* \"contracts/protocol/pool/DefaultReserveInterestRateStrategy.sol\":7143:7166  getBaseStableBorrowRate */\n      tag_53\n        /* \"contracts/protocol/pool/DefaultReserveInterestRateStrategy.sol\":7143:7168  getBaseStableBorrowRate() */\n      jump\t// in\n    tag_78:\n        /* \"contracts/protocol/pool/DefaultReserveInterestRateStrategy.sol\":7112:7116  vars */\n      dup2\n        /* \"contracts/protocol/pool/DefaultReserveInterestRateStrategy.sol\":7112:7140  vars.currentStableBorrowRate */\n      0x60\n      add\n        /* \"contracts/protocol/pool/DefaultReserveInterestRateStrategy.sol\":7112:7168  vars.currentStableBorrowRate = getBaseStableBorrowRate() */\n      dup2\n      dup2\n      mstore\n      pop\n      pop\n        /* \"contracts/protocol/pool/DefaultReserveInterestRateStrategy.sol\":7199:7200  0 */\n      0x00\n        /* \"contracts/protocol/pool/DefaultReserveInterestRateStrategy.sol\":7181:7185  vars */\n      dup2\n        /* \"contracts/protocol/pool/DefaultReserveInterestRateStrategy.sol\":7181:7195  vars.totalDebt */\n      0x20\n      add\n      mload\n        /* \"contracts/protocol/pool/DefaultReserveInterestRateStrategy.sol\":7181:7200  vars.totalDebt != 0 */\n      eq\n        /* \"contracts/protocol/pool/DefaultReserveInterestRateStrategy.sol\":7177:7746  if (vars.totalDebt != 0) {... */\n      tag_79\n      jumpi\n        /* \"contracts/protocol/pool/DefaultReserveInterestRateStrategy.sol\":7241:7286  params.totalStableDebt.rayDiv(vars.totalDebt) */\n      tag_80\n        /* \"contracts/protocol/pool/DefaultReserveInterestRateStrategy.sol\":7271:7275  vars */\n      dup2\n        /* \"contracts/protocol/pool/DefaultReserveInterestRateStrategy.sol\":7271:7285  vars.totalDebt */\n      0x20\n      add\n      mload\n        /* \"contracts/protocol/pool/DefaultReserveInterestRateStrategy.sol\":7241:7247  params */\n      dup7\n        /* \"contracts/protocol/pool/DefaultReserveInterestRateStrategy.sol\":7241:7263  params.totalStableDebt */\n      0x60\n      add\n      mload\n        /* \"contracts/protocol/pool/DefaultReserveInterestRateStrategy.sol\":7241:7270  params.totalStableDebt.rayDiv */\n      tag_81\n      swap1\n        /* \"contracts/protocol/pool/DefaultReserveInterestRateStrategy.sol\":7241:7286  params.totalStableDebt.rayDiv(vars.totalDebt) */\n      swap2\n      swap1\n      0xffffffff\n      and\n      jump\t// in\n    tag_80:\n        /* \"contracts/protocol/pool/DefaultReserveInterestRateStrategy.sol\":7211:7215  vars */\n      dup2\n        /* \"contracts/protocol/pool/DefaultReserveInterestRateStrategy.sol\":7211:7238  vars.stableToTotalDebtRatio */\n      0xe0\n      add\n        /* \"contracts/protocol/pool/DefaultReserveInterestRateStrategy.sol\":7211:7286  vars.stableToTotalDebtRatio = params.totalStableDebt.rayDiv(vars.totalDebt) */\n      dup2\n      dup2\n      mstore\n      pop\n      pop\n        /* \"contracts/protocol/pool/DefaultReserveInterestRateStrategy.sol\":7422:7428  params */\n      dup5\n        /* \"contracts/protocol/pool/DefaultReserveInterestRateStrategy.sol\":7422:7443  params.liquidityTaken */\n      0x40\n      add\n      mload\n        /* \"contracts/protocol/pool/DefaultReserveInterestRateStrategy.sol\":7389:7395  params */\n      dup6\n        /* \"contracts/protocol/pool/DefaultReserveInterestRateStrategy.sol\":7389:7410  params.liquidityAdded */\n      0x20\n      add\n      mload\n        /* \"contracts/protocol/pool/DefaultReserveInterestRateStrategy.sol\":7337:7343  params */\n      dup7\n        /* \"contracts/protocol/pool/DefaultReserveInterestRateStrategy.sol\":7337:7351  params.reserve */\n      0xe0\n      add\n      mload\n        /* \"contracts/protocol/pool/DefaultReserveInterestRateStrategy.sol\":7330:7362  IERC20(params.reserve).balanceOf */\n      0xffffffffffffffffffffffffffffffffffffffff\n      and\n      0x70a08231\n        /* \"contracts/protocol/pool/DefaultReserveInterestRateStrategy.sol\":7363:7369  params */\n      dup9\n        /* \"contracts/protocol/pool/DefaultReserveInterestRateStrategy.sol\":7363:7376  params.aToken */\n      0x0100\n      add\n      mload\n        /* \"contracts/protocol/pool/DefaultReserveInterestRateStrategy.sol\":7330:7377  IERC20(params.reserve).balanceOf(params.aToken) */\n      mload(0x40)\n      dup3\n      0xffffffff\n      and\n      0xe0\n      shl\n      dup2\n      mstore\n      0x04\n      add\n      tag_82\n      swap2\n      swap1\n      tag_83\n      jump\t// in\n    tag_82:\n      0x20\n      mload(0x40)\n      dup1\n      dup4\n      sub\n      dup2\n      dup7\n      gas\n      staticcall\n      iszero\n      dup1\n      iszero\n      tag_85\n      jumpi\n      returndatasize\n      0x00\n      dup1\n      returndatacopy\n      revert(0x00, returndatasize)\n    tag_85:\n      pop\n      pop\n      pop\n      pop\n      mload(0x40)\n      returndatasize\n      not(0x1f)\n      0x1f\n      dup3\n      add\n      and\n      dup3\n      add\n      dup1\n      0x40\n      mstore\n      pop\n      dup2\n      add\n      swap1\n      tag_86\n      swap2\n      swap1\n      tag_87\n      jump\t// in\n    tag_86:\n        /* \"contracts/protocol/pool/DefaultReserveInterestRateStrategy.sol\":7330:7410  IERC20(params.reserve).balanceOf(params.aToken) +... */\n      tag_88\n      swap2\n      swap1\n      tag_72\n      jump\t// in\n    tag_88:\n        /* \"contracts/protocol/pool/DefaultReserveInterestRateStrategy.sol\":7330:7443  IERC20(params.reserve).balanceOf(params.aToken) +... */\n      tag_89\n      swap2\n      swap1\n      tag_90\n      jump\t// in\n    tag_89:\n        /* \"contracts/protocol/pool/DefaultReserveInterestRateStrategy.sol\":7295:7299  vars */\n      dup2\n        /* \"contracts/protocol/pool/DefaultReserveInterestRateStrategy.sol\":7295:7318  vars.availableLiquidity */\n      0x00\n      add\n        /* \"contracts/protocol/pool/DefaultReserveInterestRateStrategy.sol\":7295:7443  vars.availableLiquidity =... */\n      dup2\n      dup2\n      mstore\n      pop\n      pop\n        /* \"contracts/protocol/pool/DefaultReserveInterestRateStrategy.sol\":7514:7518  vars */\n      dup1\n        /* \"contracts/protocol/pool/DefaultReserveInterestRateStrategy.sol\":7514:7528  vars.totalDebt */\n      0x20\n      add\n      mload\n        /* \"contracts/protocol/pool/DefaultReserveInterestRateStrategy.sol\":7488:7492  vars */\n      dup2\n        /* \"contracts/protocol/pool/DefaultReserveInterestRateStrategy.sol\":7488:7511  vars.availableLiquidity */\n      0x00\n      add\n      mload\n        /* \"contracts/protocol/pool/DefaultReserveInterestRateStrategy.sol\":7488:7528  vars.availableLiquidity + vars.totalDebt */\n      tag_91\n      swap2\n      swap1\n      tag_72\n      jump\t// in\n    tag_91:\n        /* \"contracts/protocol/pool/DefaultReserveInterestRateStrategy.sol\":7454:7458  vars */\n      dup2\n        /* \"contracts/protocol/pool/DefaultReserveInterestRateStrategy.sol\":7454:7485  vars.availableLiquidityPlusDebt */\n      0x0100\n      add\n        /* \"contracts/protocol/pool/DefaultReserveInterestRateStrategy.sol\":7454:7528  vars.availableLiquidityPlusDebt = vars.availableLiquidity + vars.totalDebt */\n      dup2\n      dup2\n      mstore\n      pop\n      pop\n        /* \"contracts/protocol/pool/DefaultReserveInterestRateStrategy.sol\":7561:7615  vars.totalDebt.rayDiv(vars.availableLiquidityPlusDebt) */\n      tag_92\n        /* \"contracts/protocol/pool/DefaultReserveInterestRateStrategy.sol\":7583:7587  vars */\n      dup2\n        /* \"contracts/protocol/pool/DefaultReserveInterestRateStrategy.sol\":7583:7614  vars.availableLiquidityPlusDebt */\n      0x0100\n      add\n      mload\n        /* \"contracts/protocol/pool/DefaultReserveInterestRateStrategy.sol\":7561:7565  vars */\n      dup3\n        /* \"contracts/protocol/pool/DefaultReserveInterestRateStrategy.sol\":7561:7575  vars.totalDebt */\n      0x20\n      add\n      mload\n        /* \"contracts/protocol/pool/DefaultReserveInterestRateStrategy.sol\":7561:7582  vars.totalDebt.rayDiv */\n      tag_81\n      swap1\n        /* \"contracts/protocol/pool/DefaultReserveInterestRateStrategy.sol\":7561:7615  vars.totalDebt.rayDiv(vars.availableLiquidityPlusDebt) */\n      swap2\n      swap1\n      0xffffffff\n      and\n      jump\t// in\n    tag_92:\n        /* \"contracts/protocol/pool/DefaultReserveInterestRateStrategy.sol\":7537:7541  vars */\n      dup2\n        /* \"contracts/protocol/pool/DefaultReserveInterestRateStrategy.sol\":7537:7558  vars.borrowUsageRatio */\n      0xa0\n      add\n        /* \"contracts/protocol/pool/DefaultReserveInterestRateStrategy.sol\":7537:7615  vars.borrowUsageRatio = vars.totalDebt.rayDiv(vars.availableLiquidityPlusDebt) */\n      dup2\n      dup2\n      mstore\n      pop\n      pop\n        /* \"contracts/protocol/pool/DefaultReserveInterestRateStrategy.sol\":7648:7738  vars.totalDebt.rayDiv(... */\n      tag_93\n        /* \"contracts/protocol/pool/DefaultReserveInterestRateStrategy.sol\":7714:7720  params */\n      dup6\n        /* \"contracts/protocol/pool/DefaultReserveInterestRateStrategy.sol\":7714:7729  params.unbacked */\n      0x00\n      add\n      mload\n        /* \"contracts/protocol/pool/DefaultReserveInterestRateStrategy.sol\":7680:7684  vars */\n      dup3\n        /* \"contracts/protocol/pool/DefaultReserveInterestRateStrategy.sol\":7680:7711  vars.availableLiquidityPlusDebt */\n      0x0100\n      add\n      mload\n        /* \"contracts/protocol/pool/DefaultReserveInterestRateStrategy.sol\":7680:7729  vars.availableLiquidityPlusDebt + params.unbacked */\n      tag_94\n      swap2\n      swap1\n      tag_72\n      jump\t// in\n    tag_94:\n        /* \"contracts/protocol/pool/DefaultReserveInterestRateStrategy.sol\":7648:7652  vars */\n      dup3\n        /* \"contracts/protocol/pool/DefaultReserveInterestRateStrategy.sol\":7648:7662  vars.totalDebt */\n      0x20\n      add\n      mload\n        /* \"contracts/protocol/pool/DefaultReserveInterestRateStrategy.sol\":7648:7669  vars.totalDebt.rayDiv */\n      tag_81\n      swap1\n        /* \"contracts/protocol/pool/DefaultReserveInterestRateStrategy.sol\":7648:7738  vars.totalDebt.rayDiv(... */\n      swap2\n      swap1\n      0xffffffff\n      and\n      jump\t// in\n    tag_93:\n        /* \"contracts/protocol/pool/DefaultReserveInterestRateStrategy.sol\":7624:7628  vars */\n      dup2\n        /* \"contracts/protocol/pool/DefaultReserveInterestRateStrategy.sol\":7624:7645  vars.supplyUsageRatio */\n      0xc0\n      add\n        /* \"contracts/protocol/pool/DefaultReserveInterestRateStrategy.sol\":7624:7738  vars.supplyUsageRatio = vars.totalDebt.rayDiv(... */\n      dup2\n      dup2\n      mstore\n      pop\n      pop\n        /* \"contracts/protocol/pool/DefaultReserveInterestRateStrategy.sol\":7177:7746  if (vars.totalDebt != 0) {... */\n    tag_79:\n        /* \"contracts/protocol/pool/DefaultReserveInterestRateStrategy.sol\":7782:7801  OPTIMAL_USAGE_RATIO */\n      immutable(\"0x120322e835ddaf7b57569e0455cf5d10d01f031638ad503f74e383f6b8a42ab2\")\n        /* \"contracts/protocol/pool/DefaultReserveInterestRateStrategy.sol\":7758:7762  vars */\n      dup2\n        /* \"contracts/protocol/pool/DefaultReserveInterestRateStrategy.sol\":7758:7779  vars.borrowUsageRatio */\n      0xa0\n      add\n      mload\n        /* \"contracts/protocol/pool/DefaultReserveInterestRateStrategy.sol\":7758:7801  vars.borrowUsageRatio > OPTIMAL_USAGE_RATIO */\n      gt\n        /* \"contracts/protocol/pool/DefaultReserveInterestRateStrategy.sol\":7754:8499  if (vars.borrowUsageRatio > OPTIMAL_USAGE_RATIO) {... */\n      iszero\n      tag_95\n      jumpi\n        /* \"contracts/protocol/pool/DefaultReserveInterestRateStrategy.sol\":7812:7842  uint256 excessBorrowUsageRatio */\n      0x00\n        /* \"contracts/protocol/pool/DefaultReserveInterestRateStrategy.sol\":7845:7939  (vars.borrowUsageRatio - OPTIMAL_USAGE_RATIO).rayDiv(... */\n      tag_96\n        /* \"contracts/protocol/pool/DefaultReserveInterestRateStrategy.sol\":7908:7930  MAX_EXCESS_USAGE_RATIO */\n      immutable(\"0x0878797cdfc1ddb1f7dac03a85224472dc2a836f7203bfa5d1dcbed3a851ef97\")\n        /* \"contracts/protocol/pool/DefaultReserveInterestRateStrategy.sol\":7870:7889  OPTIMAL_USAGE_RATIO */\n      immutable(\"0x120322e835ddaf7b57569e0455cf5d10d01f031638ad503f74e383f6b8a42ab2\")\n        /* \"contracts/protocol/pool/DefaultReserveInterestRateStrategy.sol\":7846:7850  vars */\n      dup5\n        /* \"contracts/protocol/pool/DefaultReserveInterestRateStrategy.sol\":7846:7867  vars.borrowUsageRatio */\n      0xa0\n      add\n      mload\n        /* \"contracts/protocol/pool/DefaultReserveInterestRateStrategy.sol\":7846:7889  vars.borrowUsageRatio - OPTIMAL_USAGE_RATIO */\n      tag_97\n      swap2\n      swap1\n      tag_90\n      jump\t// in\n    tag_97:\n        /* \"contracts/protocol/pool/DefaultReserveInterestRateStrategy.sol\":7845:7897  (vars.borrowUsageRatio - OPTIMAL_USAGE_RATIO).rayDiv */\n      tag_81\n      swap1\n        /* \"contracts/protocol/pool/DefaultReserveInterestRateStrategy.sol\":7845:7939  (vars.borrowUsageRatio - OPTIMAL_USAGE_RATIO).rayDiv(... */\n      swap2\n      swap1\n      0xffffffff\n      and\n      jump\t// in\n    tag_96:\n        /* \"contracts/protocol/pool/DefaultReserveInterestRateStrategy.sol\":7812:7939  uint256 excessBorrowUsageRatio = (vars.borrowUsageRatio - OPTIMAL_USAGE_RATIO).rayDiv(... */\n      swap1\n      pop\n        /* \"contracts/protocol/pool/DefaultReserveInterestRateStrategy.sol\":8020:8068  _stableRateSlope2.rayMul(excessBorrowUsageRatio) */\n      tag_98\n        /* \"contracts/protocol/pool/DefaultReserveInterestRateStrategy.sol\":8045:8067  excessBorrowUsageRatio */\n      dup2\n        /* \"contracts/protocol/pool/DefaultReserveInterestRateStrategy.sol\":8020:8037  _stableRateSlope2 */\n      immutable(\"0x546b8ee2b6024b51f8ac09c9b51b13aa72133bd1c94292a0e87380adab199ff6\")\n        /* \"contracts/protocol/pool/DefaultReserveInterestRateStrategy.sol\":8020:8044  _stableRateSlope2.rayMul */\n      tag_99\n      swap1\n        /* \"contracts/protocol/pool/DefaultReserveInterestRateStrategy.sol\":8020:8068  _stableRateSlope2.rayMul(excessBorrowUsageRatio) */\n      swap2\n      swap1\n      0xffffffff\n      and\n      jump\t// in\n    tag_98:\n        /* \"contracts/protocol/pool/DefaultReserveInterestRateStrategy.sol\":7991:8008  _stableRateSlope1 */\n      immutable(\"0x86d9b12b99474cf5ed7f7b9358bacb67cb811b97bd81713281cc6e3cbdc2b05d\")\n        /* \"contracts/protocol/pool/DefaultReserveInterestRateStrategy.sol\":7991:8068  _stableRateSlope1 +... */\n      tag_100\n      swap2\n      swap1\n      tag_72\n      jump\t// in\n    tag_100:\n        /* \"contracts/protocol/pool/DefaultReserveInterestRateStrategy.sol\":7950:7954  vars */\n      dup3\n        /* \"contracts/protocol/pool/DefaultReserveInterestRateStrategy.sol\":7950:7978  vars.currentStableBorrowRate */\n      0x60\n      add\n        /* \"contracts/protocol/pool/DefaultReserveInterestRateStrategy.sol\":7950:8068  vars.currentStableBorrowRate +=... */\n      dup2\n      dup2\n      mload\n      tag_101\n      swap2\n      swap1\n      tag_72\n      jump\t// in\n    tag_101:\n      swap2\n      pop\n      dup2\n      dup2\n      mstore\n      pop\n      pop\n        /* \"contracts/protocol/pool/DefaultReserveInterestRateStrategy.sol\":8153:8203  _variableRateSlope2.rayMul(excessBorrowUsageRatio) */\n      tag_102\n        /* \"contracts/protocol/pool/DefaultReserveInterestRateStrategy.sol\":8180:8202  excessBorrowUsageRatio */\n      dup2\n        /* \"contracts/protocol/pool/DefaultReserveInterestRateStrategy.sol\":8153:8172  _variableRateSlope2 */\n      immutable(\"0xc2d66ac8003fc0993ad707e1d8d85280e3f64a35eacfb6ef390dc54150f3cae5\")\n        /* \"contracts/protocol/pool/DefaultReserveInterestRateStrategy.sol\":8153:8179  _variableRateSlope2.rayMul */\n      tag_99\n      swap1\n        /* \"contracts/protocol/pool/DefaultReserveInterestRateStrategy.sol\":8153:8203  _variableRateSlope2.rayMul(excessBorrowUsageRatio) */\n      swap2\n      swap1\n      0xffffffff\n      and\n      jump\t// in\n    tag_102:\n        /* \"contracts/protocol/pool/DefaultReserveInterestRateStrategy.sol\":8122:8141  _variableRateSlope1 */\n      immutable(\"0xc2c292bd87d43b940f8ea6fe297efd99e49b4b5b77280a729c3126d2ddc0c8db\")\n        /* \"contracts/protocol/pool/DefaultReserveInterestRateStrategy.sol\":8122:8203  _variableRateSlope1 +... */\n      tag_103\n      swap2\n      swap1\n      tag_72\n      jump\t// in\n    tag_103:\n        /* \"contracts/protocol/pool/DefaultReserveInterestRateStrategy.sol\":8079:8083  vars */\n      dup3\n        /* \"contracts/protocol/pool/DefaultReserveInterestRateStrategy.sol\":8079:8109  vars.currentVariableBorrowRate */\n      0x40\n      add\n        /* \"contracts/protocol/pool/DefaultReserveInterestRateStrategy.sol\":8079:8203  vars.currentVariableBorrowRate +=... */\n      dup2\n      dup2\n      mload\n      tag_104\n      swap2\n      swap1\n      tag_72\n      jump\t// in\n    tag_104:\n      swap2\n      pop\n      dup2\n      dup2\n      mstore\n      pop\n      pop\n        /* \"contracts/protocol/pool/DefaultReserveInterestRateStrategy.sol\":7803:8211  {... */\n      pop\n        /* \"contracts/protocol/pool/DefaultReserveInterestRateStrategy.sol\":7754:8499  if (vars.borrowUsageRatio > OPTIMAL_USAGE_RATIO) {... */\n      jump(tag_105)\n    tag_95:\n        /* \"contracts/protocol/pool/DefaultReserveInterestRateStrategy.sol\":8258:8351  _stableRateSlope1.rayMul(vars.borrowUsageRatio).rayDiv(... */\n      tag_106\n        /* \"contracts/protocol/pool/DefaultReserveInterestRateStrategy.sol\":8323:8342  OPTIMAL_USAGE_RATIO */\n      immutable(\"0x120322e835ddaf7b57569e0455cf5d10d01f031638ad503f74e383f6b8a42ab2\")\n        /* \"contracts/protocol/pool/DefaultReserveInterestRateStrategy.sol\":8258:8305  _stableRateSlope1.rayMul(vars.borrowUsageRatio) */\n      tag_107\n        /* \"contracts/protocol/pool/DefaultReserveInterestRateStrategy.sol\":8283:8287  vars */\n      dup4\n        /* \"contracts/protocol/pool/DefaultReserveInterestRateStrategy.sol\":8283:8304  vars.borrowUsageRatio */\n      0xa0\n      add\n      mload\n        /* \"contracts/protocol/pool/DefaultReserveInterestRateStrategy.sol\":8258:8275  _stableRateSlope1 */\n      immutable(\"0x86d9b12b99474cf5ed7f7b9358bacb67cb811b97bd81713281cc6e3cbdc2b05d\")\n        /* \"contracts/protocol/pool/DefaultReserveInterestRateStrategy.sol\":8258:8282  _stableRateSlope1.rayMul */\n      tag_99\n      swap1\n        /* \"contracts/protocol/pool/DefaultReserveInterestRateStrategy.sol\":8258:8305  _stableRateSlope1.rayMul(vars.borrowUsageRatio) */\n      swap2\n      swap1\n      0xffffffff\n      and\n      jump\t// in\n    tag_107:\n        /* \"contracts/protocol/pool/DefaultReserveInterestRateStrategy.sol\":8258:8312  _stableRateSlope1.rayMul(vars.borrowUsageRatio).rayDiv */\n      tag_81\n      swap1\n        /* \"contracts/protocol/pool/DefaultReserveInterestRateStrategy.sol\":8258:8351  _stableRateSlope1.rayMul(vars.borrowUsageRatio).rayDiv(... */\n      swap2\n      swap1\n      0xffffffff\n      and\n      jump\t// in\n    tag_106:\n        /* \"contracts/protocol/pool/DefaultReserveInterestRateStrategy.sol\":8226:8230  vars */\n      dup2\n        /* \"contracts/protocol/pool/DefaultReserveInterestRateStrategy.sol\":8226:8254  vars.currentStableBorrowRate */\n      0x60\n      add\n        /* \"contracts/protocol/pool/DefaultReserveInterestRateStrategy.sol\":8226:8351  vars.currentStableBorrowRate += _stableRateSlope1.rayMul(vars.borrowUsageRatio).rayDiv(... */\n      dup2\n      dup2\n      mload\n      tag_108\n      swap2\n      swap1\n      tag_72\n      jump\t// in\n    tag_108:\n      swap2\n      pop\n      dup2\n      dup2\n      mstore\n      pop\n      pop\n        /* \"contracts/protocol/pool/DefaultReserveInterestRateStrategy.sol\":8396:8491  _variableRateSlope1.rayMul(vars.borrowUsageRatio).rayDiv(... */\n      tag_109\n        /* \"contracts/protocol/pool/DefaultReserveInterestRateStrategy.sol\":8463:8482  OPTIMAL_USAGE_RATIO */\n      immutable(\"0x120322e835ddaf7b57569e0455cf5d10d01f031638ad503f74e383f6b8a42ab2\")\n        /* \"contracts/protocol/pool/DefaultReserveInterestRateStrategy.sol\":8396:8445  _variableRateSlope1.rayMul(vars.borrowUsageRatio) */\n      tag_110\n        /* \"contracts/protocol/pool/DefaultReserveInterestRateStrategy.sol\":8423:8427  vars */\n      dup4\n        /* \"contracts/protocol/pool/DefaultReserveInterestRateStrategy.sol\":8423:8444  vars.borrowUsageRatio */\n      0xa0\n      add\n      mload\n        /* \"contracts/protocol/pool/DefaultReserveInterestRateStrategy.sol\":8396:8415  _variableRateSlope1 */\n      immutable(\"0xc2c292bd87d43b940f8ea6fe297efd99e49b4b5b77280a729c3126d2ddc0c8db\")\n        /* \"contracts/protocol/pool/DefaultReserveInterestRateStrategy.sol\":8396:8422  _variableRateSlope1.rayMul */\n      tag_99\n      swap1\n        /* \"contracts/protocol/pool/DefaultReserveInterestRateStrategy.sol\":8396:8445  _variableRateSlope1.rayMul(vars.borrowUsageRatio) */\n      swap2\n      swap1\n      0xffffffff\n      and\n      jump\t// in\n    tag_110:\n        /* \"contracts/protocol/pool/DefaultReserveInterestRateStrategy.sol\":8396:8452  _variableRateSlope1.rayMul(vars.borrowUsageRatio).rayDiv */\n      tag_81\n      swap1\n        /* \"contracts/protocol/pool/DefaultReserveInterestRateStrategy.sol\":8396:8491  _variableRateSlope1.rayMul(vars.borrowUsageRatio).rayDiv(... */\n      swap2\n      swap1\n      0xffffffff\n      and\n      jump\t// in\n    tag_109:\n        /* \"contracts/protocol/pool/DefaultReserveInterestRateStrategy.sol\":8362:8366  vars */\n      dup2\n        /* \"contracts/protocol/pool/DefaultReserveInterestRateStrategy.sol\":8362:8392  vars.currentVariableBorrowRate */\n      0x40\n      add\n        /* \"contracts/protocol/pool/DefaultReserveInterestRateStrategy.sol\":8362:8491  vars.currentVariableBorrowRate += _variableRateSlope1.rayMul(vars.borrowUsageRatio).rayDiv(... */\n      dup2\n      dup2\n      mload\n      tag_111\n      swap2\n      swap1\n      tag_72\n      jump\t// in\n    tag_111:\n      swap2\n      pop\n      dup2\n      dup2\n      mstore\n      pop\n      pop\n        /* \"contracts/protocol/pool/DefaultReserveInterestRateStrategy.sol\":7754:8499  if (vars.borrowUsageRatio > OPTIMAL_USAGE_RATIO) {... */\n    tag_105:\n        /* \"contracts/protocol/pool/DefaultReserveInterestRateStrategy.sol\":8541:8575  OPTIMAL_STABLE_TO_TOTAL_DEBT_RATIO */\n      immutable(\"0xcf44e63ed97cae6647795b2d87c131e71c545e7c60486fbc78d35dfb7f2e49dc\")\n        /* \"contracts/protocol/pool/DefaultReserveInterestRateStrategy.sol\":8511:8515  vars */\n      dup2\n        /* \"contracts/protocol/pool/DefaultReserveInterestRateStrategy.sol\":8511:8538  vars.stableToTotalDebtRatio */\n      0xe0\n      add\n      mload\n        /* \"contracts/protocol/pool/DefaultReserveInterestRateStrategy.sol\":8511:8575  vars.stableToTotalDebtRatio > OPTIMAL_STABLE_TO_TOTAL_DEBT_RATIO */\n      gt\n        /* \"contracts/protocol/pool/DefaultReserveInterestRateStrategy.sol\":8507:8841  if (vars.stableToTotalDebtRatio > OPTIMAL_STABLE_TO_TOTAL_DEBT_RATIO) {... */\n      iszero\n      tag_112\n      jumpi\n        /* \"contracts/protocol/pool/DefaultReserveInterestRateStrategy.sol\":8586:8615  uint256 excessStableDebtRatio */\n      0x00\n        /* \"contracts/protocol/pool/DefaultReserveInterestRateStrategy.sol\":8618:8739  (vars.stableToTotalDebtRatio -... */\n      tag_113\n        /* \"contracts/protocol/pool/DefaultReserveInterestRateStrategy.sol\":8701:8738  MAX_EXCESS_STABLE_TO_TOTAL_DEBT_RATIO */\n      immutable(\"0x992b2834377aca810e18ed7e283a2289a822c850914d1e3ce431b6e3563cb371\")\n        /* \"contracts/protocol/pool/DefaultReserveInterestRateStrategy.sol\":8658:8692  OPTIMAL_STABLE_TO_TOTAL_DEBT_RATIO */\n      immutable(\"0xcf44e63ed97cae6647795b2d87c131e71c545e7c60486fbc78d35dfb7f2e49dc\")\n        /* \"contracts/protocol/pool/DefaultReserveInterestRateStrategy.sol\":8619:8623  vars */\n      dup5\n        /* \"contracts/protocol/pool/DefaultReserveInterestRateStrategy.sol\":8619:8646  vars.stableToTotalDebtRatio */\n      0xe0\n      add\n      mload\n        /* \"contracts/protocol/pool/DefaultReserveInterestRateStrategy.sol\":8619:8692  vars.stableToTotalDebtRatio -... */\n      tag_114\n      swap2\n      swap1\n      tag_90\n      jump\t// in\n    tag_114:\n        /* \"contracts/protocol/pool/DefaultReserveInterestRateStrategy.sol\":8618:8700  (vars.stableToTotalDebtRatio -... */\n      tag_81\n      swap1\n        /* \"contracts/protocol/pool/DefaultReserveInterestRateStrategy.sol\":8618:8739  (vars.stableToTotalDebtRatio -... */\n      swap2\n      swap1\n      0xffffffff\n      and\n      jump\t// in\n    tag_113:\n        /* \"contracts/protocol/pool/DefaultReserveInterestRateStrategy.sol\":8586:8739  uint256 excessStableDebtRatio = (vars.stableToTotalDebtRatio -... */\n      swap1\n      pop\n        /* \"contracts/protocol/pool/DefaultReserveInterestRateStrategy.sol\":8780:8833  _stableRateExcessOffset.rayMul(excessStableDebtRatio) */\n      tag_115\n        /* \"contracts/protocol/pool/DefaultReserveInterestRateStrategy.sol\":8811:8832  excessStableDebtRatio */\n      dup2\n        /* \"contracts/protocol/pool/DefaultReserveInterestRateStrategy.sol\":8780:8803  _stableRateExcessOffset */\n      immutable(\"0x70b9cfc048319b9ef377ccc5e2a0402a437e40c262f68ec2c4300041ea0be603\")\n        /* \"contracts/protocol/pool/DefaultReserveInterestRateStrategy.sol\":8780:8810  _stableRateExcessOffset.rayMul */\n      tag_99\n      swap1\n        /* \"contracts/protocol/pool/DefaultReserveInterestRateStrategy.sol\":8780:8833  _stableRateExcessOffset.rayMul(excessStableDebtRatio) */\n      swap2\n      swap1\n      0xffffffff\n      and\n      jump\t// in\n    tag_115:\n        /* \"contracts/protocol/pool/DefaultReserveInterestRateStrategy.sol\":8748:8752  vars */\n      dup3\n        /* \"contracts/protocol/pool/DefaultReserveInterestRateStrategy.sol\":8748:8776  vars.currentStableBorrowRate */\n      0x60\n      add\n        /* \"contracts/protocol/pool/DefaultReserveInterestRateStrategy.sol\":8748:8833  vars.currentStableBorrowRate += _stableRateExcessOffset.rayMul(excessStableDebtRatio) */\n      dup2\n      dup2\n      mload\n      tag_116\n      swap2\n      swap1\n      tag_72\n      jump\t// in\n    tag_116:\n      swap2\n      pop\n      dup2\n      dup2\n      mstore\n      pop\n      pop\n        /* \"contracts/protocol/pool/DefaultReserveInterestRateStrategy.sol\":8577:8841  {... */\n      pop\n        /* \"contracts/protocol/pool/DefaultReserveInterestRateStrategy.sol\":8507:8841  if (vars.stableToTotalDebtRatio > OPTIMAL_STABLE_TO_TOTAL_DEBT_RATIO) {... */\n    tag_112:\n        /* \"contracts/protocol/pool/DefaultReserveInterestRateStrategy.sol\":8877:9163  _getOverallBorrowRate(... */\n      tag_117\n        /* \"contracts/protocol/pool/DefaultReserveInterestRateStrategy.sol\":9134:9140  params */\n      dup6\n        /* \"contracts/protocol/pool/DefaultReserveInterestRateStrategy.sol\":9134:9154  params.reserveFactor */\n      0xc0\n      add\n      mload\n        /* \"contracts/protocol/libraries/math/PercentageMath.sol\":536:539  1e4 */\n      0x2710\n        /* \"contracts/protocol/pool/DefaultReserveInterestRateStrategy.sol\":9099:9154  PercentageMath.PERCENTAGE_FACTOR - params.reserveFactor */\n      tag_118\n      swap2\n      swap1\n      tag_90\n      jump\t// in\n    tag_118:\n        /* \"contracts/protocol/pool/DefaultReserveInterestRateStrategy.sol\":8877:9077  _getOverallBorrowRate(... */\n      tag_119\n        /* \"contracts/protocol/pool/DefaultReserveInterestRateStrategy.sol\":9055:9059  vars */\n      dup4\n        /* \"contracts/protocol/pool/DefaultReserveInterestRateStrategy.sol\":9055:9076  vars.supplyUsageRatio */\n      0xc0\n      add\n      mload\n        /* \"contracts/protocol/pool/DefaultReserveInterestRateStrategy.sol\":8877:9047  _getOverallBorrowRate(... */\n      tag_120\n        /* \"contracts/protocol/pool/DefaultReserveInterestRateStrategy.sol\":8907:8913  params */\n      dup10\n        /* \"contracts/protocol/pool/DefaultReserveInterestRateStrategy.sol\":8907:8929  params.totalStableDebt */\n      0x60\n      add\n      mload\n        /* \"contracts/protocol/pool/DefaultReserveInterestRateStrategy.sol\":8938:8944  params */\n      dup11\n        /* \"contracts/protocol/pool/DefaultReserveInterestRateStrategy.sol\":8938:8962  params.totalVariableDebt */\n      0x80\n      add\n      mload\n        /* \"contracts/protocol/pool/DefaultReserveInterestRateStrategy.sol\":8971:8975  vars */\n      dup8\n        /* \"contracts/protocol/pool/DefaultReserveInterestRateStrategy.sol\":8971:9001  vars.currentVariableBorrowRate */\n      0x40\n      add\n      mload\n        /* \"contracts/protocol/pool/DefaultReserveInterestRateStrategy.sol\":9010:9016  params */\n      dup13\n        /* \"contracts/protocol/pool/DefaultReserveInterestRateStrategy.sol\":9010:9040  params.averageStableBorrowRate */\n      0xa0\n      add\n      mload\n        /* \"contracts/protocol/pool/DefaultReserveInterestRateStrategy.sol\":8877:8898  _getOverallBorrowRate */\n      tag_121\n        /* \"contracts/protocol/pool/DefaultReserveInterestRateStrategy.sol\":8877:9047  _getOverallBorrowRate(... */\n      jump\t// in\n    tag_120:\n        /* \"contracts/protocol/pool/DefaultReserveInterestRateStrategy.sol\":8877:9054  _getOverallBorrowRate(... */\n      tag_99\n      swap1\n        /* \"contracts/protocol/pool/DefaultReserveInterestRateStrategy.sol\":8877:9077  _getOverallBorrowRate(... */\n      swap2\n      swap1\n      0xffffffff\n      and\n      jump\t// in\n    tag_119:\n        /* \"contracts/protocol/pool/DefaultReserveInterestRateStrategy.sol\":8877:9088  _getOverallBorrowRate(... */\n      tag_122\n      swap1\n        /* \"contracts/protocol/pool/DefaultReserveInterestRateStrategy.sol\":8877:9163  _getOverallBorrowRate(... */\n      swap2\n      swap1\n      0xffffffff\n      and\n      jump\t// in\n    tag_117:\n        /* \"contracts/protocol/pool/DefaultReserveInterestRateStrategy.sol\":8849:8853  vars */\n      dup2\n        /* \"contracts/protocol/pool/DefaultReserveInterestRateStrategy.sol\":8849:8874  vars.currentLiquidityRate */\n      0x80\n      add\n        /* \"contracts/protocol/pool/DefaultReserveInterestRateStrategy.sol\":8849:9163  vars.currentLiquidityRate = _getOverallBorrowRate(... */\n      dup2\n      dup2\n      mstore\n      pop\n      pop\n        /* \"contracts/protocol/pool/DefaultReserveInterestRateStrategy.sol\":9188:9192  vars */\n      dup1\n        /* \"contracts/protocol/pool/DefaultReserveInterestRateStrategy.sol\":9188:9213  vars.currentLiquidityRate */\n      0x80\n      add\n      mload\n        /* \"contracts/protocol/pool/DefaultReserveInterestRateStrategy.sol\":9222:9226  vars */\n      dup2\n        /* \"contracts/protocol/pool/DefaultReserveInterestRateStrategy.sol\":9222:9250  vars.currentStableBorrowRate */\n      0x60\n      add\n      mload\n        /* \"contracts/protocol/pool/DefaultReserveInterestRateStrategy.sol\":9259:9263  vars */\n      dup3\n        /* \"contracts/protocol/pool/DefaultReserveInterestRateStrategy.sol\":9259:9289  vars.currentVariableBorrowRate */\n      0x40\n      add\n      mload\n        /* \"contracts/protocol/pool/DefaultReserveInterestRateStrategy.sol\":9172:9296  return (... */\n      swap4\n      pop\n      swap4\n      pop\n      swap4\n      pop\n      pop\n        /* \"contracts/protocol/pool/DefaultReserveInterestRateStrategy.sol\":6731:9302  function calculateInterestRates(... */\n      swap2\n      swap4\n      swap1\n      swap3\n      pop\n      jump\t// out\n        /* \"contracts/protocol/pool/DefaultReserveInterestRateStrategy.sol\":1552:1599  uint256 public immutable MAX_EXCESS_USAGE_RATIO */\n    tag_50:\n      immutable(\"0x0878797cdfc1ddb1f7dac03a85224472dc2a836f7203bfa5d1dcbed3a851ef97\")\n      dup2\n      jump\t// out\n        /* \"contracts/protocol/pool/DefaultReserveInterestRateStrategy.sol\":5800:5928  function getBaseStableBorrowRate() public view returns (uint256) {... */\n    tag_53:\n        /* \"contracts/protocol/pool/DefaultReserveInterestRateStrategy.sol\":5856:5863  uint256 */\n      0x00\n        /* \"contracts/protocol/pool/DefaultReserveInterestRateStrategy.sol\":5901:5922  _baseStableRateOffset */\n      immutable(\"0x083f739698f890fb969b96417c0105ad7eef1ed61a3ab37d17df5b3d0462e396\")\n        /* \"contracts/protocol/pool/DefaultReserveInterestRateStrategy.sol\":5879:5898  _variableRateSlope1 */\n      immutable(\"0xc2c292bd87d43b940f8ea6fe297efd99e49b4b5b77280a729c3126d2ddc0c8db\")\n        /* \"contracts/protocol/pool/DefaultReserveInterestRateStrategy.sol\":5879:5922  _variableRateSlope1 + _baseStableRateOffset */\n      tag_124\n      swap2\n      swap1\n      tag_72\n      jump\t// in\n    tag_124:\n        /* \"contracts/protocol/pool/DefaultReserveInterestRateStrategy.sol\":5872:5922  return _variableRateSlope1 + _baseStableRateOffset */\n      swap1\n      pop\n        /* \"contracts/protocol/pool/DefaultReserveInterestRateStrategy.sol\":5800:5928  function getBaseStableBorrowRate() public view returns (uint256) {... */\n      swap1\n      jump\t// out\n        /* \"contracts/protocol/pool/DefaultReserveInterestRateStrategy.sol\":5634:5746  function getStableRateExcessOffset() external view returns (uint256) {... */\n    tag_56:\n        /* \"contracts/protocol/pool/DefaultReserveInterestRateStrategy.sol\":5694:5701  uint256 */\n      0x00\n        /* \"contracts/protocol/pool/DefaultReserveInterestRateStrategy.sol\":5717:5740  _stableRateExcessOffset */\n      immutable(\"0x70b9cfc048319b9ef377ccc5e2a0402a437e40c262f68ec2c4300041ea0be603\")\n        /* \"contracts/protocol/pool/DefaultReserveInterestRateStrategy.sol\":5710:5740  return _stableRateExcessOffset */\n      swap1\n      pop\n        /* \"contracts/protocol/pool/DefaultReserveInterestRateStrategy.sol\":5634:5746  function getStableRateExcessOffset() external view returns (uint256) {... */\n      swap1\n      jump\t// out\n        /* \"contracts/protocol/pool/DefaultReserveInterestRateStrategy.sol\":5326:5426  function getStableRateSlope1() external view returns (uint256) {... */\n    tag_59:\n        /* \"contracts/protocol/pool/DefaultReserveInterestRateStrategy.sol\":5380:5387  uint256 */\n      0x00\n        /* \"contracts/protocol/pool/DefaultReserveInterestRateStrategy.sol\":5403:5420  _stableRateSlope1 */\n      immutable(\"0x86d9b12b99474cf5ed7f7b9358bacb67cb811b97bd81713281cc6e3cbdc2b05d\")\n        /* \"contracts/protocol/pool/DefaultReserveInterestRateStrategy.sol\":5396:5420  return _stableRateSlope1 */\n      swap1\n      pop\n        /* \"contracts/protocol/pool/DefaultReserveInterestRateStrategy.sol\":5326:5426  function getStableRateSlope1() external view returns (uint256) {... */\n      swap1\n      jump\t// out\n        /* \"contracts/protocol/pool/DefaultReserveInterestRateStrategy.sol\":5168:5272  function getVariableRateSlope2() external view returns (uint256) {... */\n    tag_62:\n        /* \"contracts/protocol/pool/DefaultReserveInterestRateStrategy.sol\":5224:5231  uint256 */\n      0x00\n        /* \"contracts/protocol/pool/DefaultReserveInterestRateStrategy.sol\":5247:5266  _variableRateSlope2 */\n      immutable(\"0xc2d66ac8003fc0993ad707e1d8d85280e3f64a35eacfb6ef390dc54150f3cae5\")\n        /* \"contracts/protocol/pool/DefaultReserveInterestRateStrategy.sol\":5240:5266  return _variableRateSlope2 */\n      swap1\n      pop\n        /* \"contracts/protocol/pool/DefaultReserveInterestRateStrategy.sol\":5168:5272  function getVariableRateSlope2() external view returns (uint256) {... */\n      swap1\n      jump\t// out\n        /* \"contracts/protocol/pool/DefaultReserveInterestRateStrategy.sol\":1654:1716  uint256 public immutable MAX_EXCESS_STABLE_TO_TOTAL_DEBT_RATIO */\n    tag_65:\n      immutable(\"0x992b2834377aca810e18ed7e283a2289a822c850914d1e3ce431b6e3563cb371\")\n      dup2\n      jump\t// out\n        /* \"contracts/protocol/libraries/math/WadRayMath.sol\":2922:3253  function rayDiv(uint256 a, uint256 b) internal pure returns (uint256 c) {... */\n    tag_81:\n        /* \"contracts/protocol/libraries/math/WadRayMath.sol\":2983:2992  uint256 c */\n      0x00\n        /* \"contracts/protocol/libraries/math/WadRayMath.sol\":3150:3153  RAY */\n      0x033b2e3c9fd0803ce8000000\n        /* \"contracts/protocol/libraries/math/WadRayMath.sol\":3145:3146  2 */\n      0x02\n        /* \"contracts/protocol/libraries/math/WadRayMath.sol\":3142:3143  b */\n      dup4\n        /* \"contracts/protocol/libraries/math/WadRayMath.sol\":3138:3147  div(b, 2) */\n      div\n        /* \"contracts/protocol/libraries/math/WadRayMath.sol\":3134:3135  0 */\n      0x00\n        /* \"contracts/protocol/libraries/math/WadRayMath.sol\":3130:3136  not(0) */\n      not\n        /* \"contracts/protocol/libraries/math/WadRayMath.sol\":3126:3148  sub(not(0), div(b, 2)) */\n      sub\n        /* \"contracts/protocol/libraries/math/WadRayMath.sol\":3122:3154  div(sub(not(0), div(b, 2)), RAY) */\n      div\n        /* \"contracts/protocol/libraries/math/WadRayMath.sol\":3119:3120  a */\n      dup4\n        /* \"contracts/protocol/libraries/math/WadRayMath.sol\":3116:3155  gt(a, div(sub(not(0), div(b, 2)), RAY)) */\n      gt\n        /* \"contracts/protocol/libraries/math/WadRayMath.sol\":3109:3156  iszero(gt(a, div(sub(not(0), div(b, 2)), RAY))) */\n      iszero\n        /* \"contracts/protocol/libraries/math/WadRayMath.sol\":3102:3157  iszero(iszero(gt(a, div(sub(not(0), div(b, 2)), RAY)))) */\n      iszero\n        /* \"contracts/protocol/libraries/math/WadRayMath.sol\":3098:3099  b */\n      dup3\n        /* \"contracts/protocol/libraries/math/WadRayMath.sol\":3091:3100  iszero(b) */\n      iszero\n        /* \"contracts/protocol/libraries/math/WadRayMath.sol\":3088:3158  or(iszero(b), iszero(iszero(gt(a, div(sub(not(0), div(b, 2)), RAY))))) */\n      or\n        /* \"contracts/protocol/libraries/math/WadRayMath.sol\":3085:3191  if or(iszero(b), iszero(iszero(gt(a, div(sub(not(0), div(b, 2)), RAY))))) {... */\n      iszero\n      tag_129\n      jumpi\n        /* \"contracts/protocol/libraries/math/WadRayMath.sol\":3180:3181  0 */\n      0x00\n        /* \"contracts/protocol/libraries/math/WadRayMath.sol\":3177:3178  0 */\n      dup1\n        /* \"contracts/protocol/libraries/math/WadRayMath.sol\":3170:3182  revert(0, 0) */\n      revert\n        /* \"contracts/protocol/libraries/math/WadRayMath.sol\":3085:3191  if or(iszero(b), iszero(iszero(gt(a, div(sub(not(0), div(b, 2)), RAY))))) {... */\n    tag_129:\n        /* \"contracts/protocol/libraries/math/WadRayMath.sol\":3239:3240  b */\n      dup2\n        /* \"contracts/protocol/libraries/math/WadRayMath.sol\":3234:3235  2 */\n      0x02\n        /* \"contracts/protocol/libraries/math/WadRayMath.sol\":3231:3232  b */\n      dup4\n        /* \"contracts/protocol/libraries/math/WadRayMath.sol\":3227:3236  div(b, 2) */\n      div\n        /* \"contracts/protocol/libraries/math/WadRayMath.sol\":3221:3224  RAY */\n      0x033b2e3c9fd0803ce8000000\n        /* \"contracts/protocol/libraries/math/WadRayMath.sol\":3218:3219  a */\n      dup6\n        /* \"contracts/protocol/libraries/math/WadRayMath.sol\":3214:3225  mul(a, RAY) */\n      mul\n        /* \"contracts/protocol/libraries/math/WadRayMath.sol\":3210:3237  add(mul(a, RAY), div(b, 2)) */\n      add\n        /* \"contracts/protocol/libraries/math/WadRayMath.sol\":3206:3241  div(add(mul(a, RAY), div(b, 2)), b) */\n      div\n        /* \"contracts/protocol/libraries/math/WadRayMath.sol\":3201:3241  c := div(add(mul(a, RAY), div(b, 2)), b) */\n      swap1\n      pop\n        /* \"contracts/protocol/libraries/math/WadRayMath.sol\":2922:3253  function rayDiv(uint256 a, uint256 b) internal pure returns (uint256 c) {... */\n      swap3\n      swap2\n      pop\n      pop\n      jump\t// out\n        /* \"contracts/protocol/libraries/math/WadRayMath.sol\":2317:2645  function rayMul(uint256 a, uint256 b) internal pure returns (uint256 c) {... */\n    tag_99:\n        /* \"contracts/protocol/libraries/math/WadRayMath.sol\":2378:2387  uint256 c */\n      0x00\n        /* \"contracts/protocol/libraries/math/WadRayMath.sol\":2545:2546  b */\n      dup2\n        /* \"contracts/protocol/libraries/math/WadRayMath.sol\":2534:2542  HALF_RAY */\n      0x019d971e4fe8401e74000000\n        /* \"contracts/protocol/libraries/math/WadRayMath.sol\":2530:2531  0 */\n      0x00\n        /* \"contracts/protocol/libraries/math/WadRayMath.sol\":2526:2532  not(0) */\n      not\n        /* \"contracts/protocol/libraries/math/WadRayMath.sol\":2522:2543  sub(not(0), HALF_RAY) */\n      sub\n        /* \"contracts/protocol/libraries/math/WadRayMath.sol\":2518:2547  div(sub(not(0), HALF_RAY), b) */\n      div\n        /* \"contracts/protocol/libraries/math/WadRayMath.sol\":2515:2516  a */\n      dup4\n        /* \"contracts/protocol/libraries/math/WadRayMath.sol\":2512:2548  gt(a, div(sub(not(0), HALF_RAY), b)) */\n      gt\n        /* \"contracts/protocol/libraries/math/WadRayMath.sol\":2505:2549  iszero(gt(a, div(sub(not(0), HALF_RAY), b))) */\n      iszero\n        /* \"contracts/protocol/libraries/math/WadRayMath.sol\":2501:2502  b */\n      dup3\n        /* \"contracts/protocol/libraries/math/WadRayMath.sol\":2494:2503  iszero(b) */\n      iszero\n        /* \"contracts/protocol/libraries/math/WadRayMath.sol\":2491:2550  or(iszero(b), iszero(gt(a, div(sub(not(0), HALF_RAY), b)))) */\n      or\n        /* \"contracts/protocol/libraries/math/WadRayMath.sol\":2481:2584  if iszero(or(iszero(b), iszero(gt(a, div(sub(not(0), HALF_RAY), b))))) {... */\n      tag_131\n      jumpi\n        /* \"contracts/protocol/libraries/math/WadRayMath.sol\":2573:2574  0 */\n      0x00\n        /* \"contracts/protocol/libraries/math/WadRayMath.sol\":2570:2571  0 */\n      dup1\n        /* \"contracts/protocol/libraries/math/WadRayMath.sol\":2563:2575  revert(0, 0) */\n      revert\n        /* \"contracts/protocol/libraries/math/WadRayMath.sol\":2481:2584  if iszero(or(iszero(b), iszero(gt(a, div(sub(not(0), HALF_RAY), b))))) {... */\n    tag_131:\n        /* \"contracts/protocol/libraries/math/WadRayMath.sol\":2629:2632  RAY */\n      0x033b2e3c9fd0803ce8000000\n        /* \"contracts/protocol/libraries/math/WadRayMath.sol\":2618:2626  HALF_RAY */\n      0x019d971e4fe8401e74000000\n        /* \"contracts/protocol/libraries/math/WadRayMath.sol\":2614:2615  b */\n      dup4\n        /* \"contracts/protocol/libraries/math/WadRayMath.sol\":2611:2612  a */\n      dup6\n        /* \"contracts/protocol/libraries/math/WadRayMath.sol\":2607:2616  mul(a, b) */\n      mul\n        /* \"contracts/protocol/libraries/math/WadRayMath.sol\":2603:2627  add(mul(a, b), HALF_RAY) */\n      add\n        /* \"contracts/protocol/libraries/math/WadRayMath.sol\":2599:2633  div(add(mul(a, b), HALF_RAY), RAY) */\n      div\n        /* \"contracts/protocol/libraries/math/WadRayMath.sol\":2594:2633  c := div(add(mul(a, b), HALF_RAY), RAY) */\n      swap1\n      pop\n        /* \"contracts/protocol/libraries/math/WadRayMath.sol\":2317:2645  function rayMul(uint256 a, uint256 b) internal pure returns (uint256 c) {... */\n      swap3\n      swap2\n      pop\n      pop\n      jump\t// out\n        /* \"contracts/protocol/pool/DefaultReserveInterestRateStrategy.sol\":9857:10538  function _getOverallBorrowRate(... */\n    tag_121:\n        /* \"contracts/protocol/pool/DefaultReserveInterestRateStrategy.sol\":10063:10070  uint256 */\n      0x00\n        /* \"contracts/protocol/pool/DefaultReserveInterestRateStrategy.sol\":10079:10096  uint256 totalDebt */\n      dup1\n        /* \"contracts/protocol/pool/DefaultReserveInterestRateStrategy.sol\":10117:10134  totalVariableDebt */\n      dup5\n        /* \"contracts/protocol/pool/DefaultReserveInterestRateStrategy.sol\":10099:10114  totalStableDebt */\n      dup7\n        /* \"contracts/protocol/pool/DefaultReserveInterestRateStrategy.sol\":10099:10134  totalStableDebt + totalVariableDebt */\n      tag_133\n      swap2\n      swap1\n      tag_72\n      jump\t// in\n    tag_133:\n        /* \"contracts/protocol/pool/DefaultReserveInterestRateStrategy.sol\":10079:10134  uint256 totalDebt = totalStableDebt + totalVariableDebt */\n      swap1\n      pop\n        /* \"contracts/protocol/pool/DefaultReserveInterestRateStrategy.sol\":10160:10161  0 */\n      0x00\n        /* \"contracts/protocol/pool/DefaultReserveInterestRateStrategy.sol\":10147:10156  totalDebt */\n      dup2\n        /* \"contracts/protocol/pool/DefaultReserveInterestRateStrategy.sol\":10147:10161  totalDebt == 0 */\n      sub\n        /* \"contracts/protocol/pool/DefaultReserveInterestRateStrategy.sol\":10143:10171  if (totalDebt == 0) return 0 */\n      tag_134\n      jumpi\n        /* \"contracts/protocol/pool/DefaultReserveInterestRateStrategy.sol\":10170:10171  0 */\n      0x00\n        /* \"contracts/protocol/pool/DefaultReserveInterestRateStrategy.sol\":10163:10171  return 0 */\n      swap2\n      pop\n      pop\n      jump(tag_132)\n        /* \"contracts/protocol/pool/DefaultReserveInterestRateStrategy.sol\":10143:10171  if (totalDebt == 0) return 0 */\n    tag_134:\n        /* \"contracts/protocol/pool/DefaultReserveInterestRateStrategy.sol\":10180:10208  uint256 weightedVariableRate */\n      0x00\n        /* \"contracts/protocol/pool/DefaultReserveInterestRateStrategy.sol\":10211:10273  totalVariableDebt.wadToRay().rayMul(currentVariableBorrowRate) */\n      tag_135\n        /* \"contracts/protocol/pool/DefaultReserveInterestRateStrategy.sol\":10247:10272  currentVariableBorrowRate */\n      dup6\n        /* \"contracts/protocol/pool/DefaultReserveInterestRateStrategy.sol\":10211:10239  totalVariableDebt.wadToRay() */\n      tag_136\n        /* \"contracts/protocol/pool/DefaultReserveInterestRateStrategy.sol\":10211:10228  totalVariableDebt */\n      dup9\n        /* \"contracts/protocol/pool/DefaultReserveInterestRateStrategy.sol\":10211:10237  totalVariableDebt.wadToRay */\n      tag_137\n        /* \"contracts/protocol/pool/DefaultReserveInterestRateStrategy.sol\":10211:10239  totalVariableDebt.wadToRay() */\n      jump\t// in\n    tag_136:\n        /* \"contracts/protocol/pool/DefaultReserveInterestRateStrategy.sol\":10211:10246  totalVariableDebt.wadToRay().rayMul */\n      tag_99\n      swap1\n        /* \"contracts/protocol/pool/DefaultReserveInterestRateStrategy.sol\":10211:10273  totalVariableDebt.wadToRay().rayMul(currentVariableBorrowRate) */\n      swap2\n      swap1\n      0xffffffff\n      and\n      jump\t// in\n    tag_135:\n        /* \"contracts/protocol/pool/DefaultReserveInterestRateStrategy.sol\":10180:10273  uint256 weightedVariableRate = totalVariableDebt.wadToRay().rayMul(currentVariableBorrowRate) */\n      swap1\n      pop\n        /* \"contracts/protocol/pool/DefaultReserveInterestRateStrategy.sol\":10282:10308  uint256 weightedStableRate */\n      0x00\n        /* \"contracts/protocol/pool/DefaultReserveInterestRateStrategy.sol\":10311:10376  totalStableDebt.wadToRay().rayMul(currentAverageStableBorrowRate) */\n      tag_138\n        /* \"contracts/protocol/pool/DefaultReserveInterestRateStrategy.sol\":10345:10375  currentAverageStableBorrowRate */\n      dup6\n        /* \"contracts/protocol/pool/DefaultReserveInterestRateStrategy.sol\":10311:10337  totalStableDebt.wadToRay() */\n      tag_139\n        /* \"contracts/protocol/pool/DefaultReserveInterestRateStrategy.sol\":10311:10326  totalStableDebt */\n      dup11\n        /* \"contracts/protocol/pool/DefaultReserveInterestRateStrategy.sol\":10311:10335  totalStableDebt.wadToRay */\n      tag_137\n        /* \"contracts/protocol/pool/DefaultReserveInterestRateStrategy.sol\":10311:10337  totalStableDebt.wadToRay() */\n      jump\t// in\n    tag_139:\n        /* \"contracts/protocol/pool/DefaultReserveInterestRateStrategy.sol\":10311:10344  totalStableDebt.wadToRay().rayMul */\n      tag_99\n      swap1\n        /* \"contracts/protocol/pool/DefaultReserveInterestRateStrategy.sol\":10311:10376  totalStableDebt.wadToRay().rayMul(currentAverageStableBorrowRate) */\n      swap2\n      swap1\n      0xffffffff\n      and\n      jump\t// in\n    tag_138:\n        /* \"contracts/protocol/pool/DefaultReserveInterestRateStrategy.sol\":10282:10376  uint256 weightedStableRate = totalStableDebt.wadToRay().rayMul(currentAverageStableBorrowRate) */\n      swap1\n      pop\n        /* \"contracts/protocol/pool/DefaultReserveInterestRateStrategy.sol\":10385:10410  uint256 overallBorrowRate */\n      0x00\n        /* \"contracts/protocol/pool/DefaultReserveInterestRateStrategy.sol\":10413:10499  (weightedVariableRate + weightedStableRate).rayDiv(... */\n      tag_140\n        /* \"contracts/protocol/pool/DefaultReserveInterestRateStrategy.sol\":10472:10492  totalDebt.wadToRay() */\n      tag_141\n        /* \"contracts/protocol/pool/DefaultReserveInterestRateStrategy.sol\":10472:10481  totalDebt */\n      dup6\n        /* \"contracts/protocol/pool/DefaultReserveInterestRateStrategy.sol\":10472:10490  totalDebt.wadToRay */\n      tag_137\n        /* \"contracts/protocol/pool/DefaultReserveInterestRateStrategy.sol\":10472:10492  totalDebt.wadToRay() */\n      jump\t// in\n    tag_141:\n        /* \"contracts/protocol/pool/DefaultReserveInterestRateStrategy.sol\":10437:10455  weightedStableRate */\n      dup4\n        /* \"contracts/protocol/pool/DefaultReserveInterestRateStrategy.sol\":10414:10434  weightedVariableRate */\n      dup6\n        /* \"contracts/protocol/pool/DefaultReserveInterestRateStrategy.sol\":10414:10455  weightedVariableRate + weightedStableRate */\n      tag_142\n      swap2\n      swap1\n      tag_72\n      jump\t// in\n    tag_142:\n        /* \"contracts/protocol/pool/DefaultReserveInterestRateStrategy.sol\":10413:10463  (weightedVariableRate + weightedStableRate).rayDiv */\n      tag_81\n      swap1\n        /* \"contracts/protocol/pool/DefaultReserveInterestRateStrategy.sol\":10413:10499  (weightedVariableRate + weightedStableRate).rayDiv(... */\n      swap2\n      swap1\n      0xffffffff\n      and\n      jump\t// in\n    tag_140:\n        /* \"contracts/protocol/pool/DefaultReserveInterestRateStrategy.sol\":10385:10499  uint256 overallBorrowRate = (weightedVariableRate + weightedStableRate).rayDiv(... */\n      swap1\n      pop\n        /* \"contracts/protocol/pool/DefaultReserveInterestRateStrategy.sol\":10515:10532  overallBorrowRate */\n      dup1\n        /* \"contracts/protocol/pool/DefaultReserveInterestRateStrategy.sol\":10508:10532  return overallBorrowRate */\n      swap5\n      pop\n      pop\n      pop\n      pop\n      pop\n        /* \"contracts/protocol/pool/DefaultReserveInterestRateStrategy.sol\":9857:10538  function _getOverallBorrowRate(... */\n    tag_132:\n      swap5\n      swap4\n      pop\n      pop\n      pop\n      pop\n      jump\t// out\n        /* \"contracts/protocol/libraries/math/PercentageMath.sol\":1029:1539  function percentMul(uint256 value, uint256 percentage) internal pure returns (uint256 result) {... */\n    tag_122:\n        /* \"contracts/protocol/libraries/math/PercentageMath.sol\":1107:1121  uint256 result */\n      0x00\n        /* \"contracts/protocol/libraries/math/PercentageMath.sol\":1366:1376  percentage */\n      dup2\n        /* \"contracts/protocol/libraries/math/PercentageMath.sol\":1341:1363  HALF_PERCENTAGE_FACTOR */\n      0x1388\n        /* \"contracts/protocol/libraries/math/PercentageMath.sol\":1337:1338  0 */\n      0x00\n        /* \"contracts/protocol/libraries/math/PercentageMath.sol\":1333:1339  not(0) */\n      not\n        /* \"contracts/protocol/libraries/math/PercentageMath.sol\":1329:1364  sub(not(0), HALF_PERCENTAGE_FACTOR) */\n      sub\n        /* \"contracts/protocol/libraries/math/PercentageMath.sol\":1325:1377  div(sub(not(0), HALF_PERCENTAGE_FACTOR), percentage) */\n      div\n        /* \"contracts/protocol/libraries/math/PercentageMath.sol\":1318:1323  value */\n      dup4\n        /* \"contracts/protocol/libraries/math/PercentageMath.sol\":1315:1378  gt(value, div(sub(not(0), HALF_PERCENTAGE_FACTOR), percentage)) */\n      gt\n        /* \"contracts/protocol/libraries/math/PercentageMath.sol\":1308:1379  iszero(gt(value, div(sub(not(0), HALF_PERCENTAGE_FACTOR), percentage))) */\n      iszero\n        /* \"contracts/protocol/libraries/math/PercentageMath.sol\":1284:1294  percentage */\n      dup3\n        /* \"contracts/protocol/libraries/math/PercentageMath.sol\":1277:1295  iszero(percentage) */\n      iszero\n        /* \"contracts/protocol/libraries/math/PercentageMath.sol\":1262:1390  or(... */\n      or\n        /* \"contracts/protocol/libraries/math/PercentageMath.sol\":1242:1432  if iszero(... */\n      tag_144\n      jumpi\n        /* \"contracts/protocol/libraries/math/PercentageMath.sol\":1421:1422  0 */\n      0x00\n        /* \"contracts/protocol/libraries/math/PercentageMath.sol\":1418:1419  0 */\n      dup1\n        /* \"contracts/protocol/libraries/math/PercentageMath.sol\":1411:1423  revert(0, 0) */\n      revert\n        /* \"contracts/protocol/libraries/math/PercentageMath.sol\":1242:1432  if iszero(... */\n    tag_144:\n        /* \"contracts/protocol/libraries/math/PercentageMath.sol\":1509:1526  PERCENTAGE_FACTOR */\n      0x2710\n        /* \"contracts/protocol/libraries/math/PercentageMath.sol\":1484:1506  HALF_PERCENTAGE_FACTOR */\n      0x1388\n        /* \"contracts/protocol/libraries/math/PercentageMath.sol\":1471:1481  percentage */\n      dup4\n        /* \"contracts/protocol/libraries/math/PercentageMath.sol\":1464:1469  value */\n      dup6\n        /* \"contracts/protocol/libraries/math/PercentageMath.sol\":1460:1482  mul(value, percentage) */\n      mul\n        /* \"contracts/protocol/libraries/math/PercentageMath.sol\":1456:1507  add(mul(value, percentage), HALF_PERCENTAGE_FACTOR) */\n      add\n        /* \"contracts/protocol/libraries/math/PercentageMath.sol\":1452:1527  div(add(mul(value, percentage), HALF_PERCENTAGE_FACTOR), PERCENTAGE_FACTOR) */\n      div\n        /* \"contracts/protocol/libraries/math/PercentageMath.sol\":1442:1527  result := div(add(mul(value, percentage), HALF_PERCENTAGE_FACTOR), PERCENTAGE_FACTOR) */\n      swap1\n      pop\n        /* \"contracts/protocol/libraries/math/PercentageMath.sol\":1029:1539  function percentMul(uint256 value, uint256 percentage) internal pure returns (uint256 result) {... */\n      swap3\n      swap2\n      pop\n      pop\n      jump\t// out\n        /* \"contracts/protocol/libraries/math/WadRayMath.sol\":4016:4272  function wadToRay(uint256 a) internal pure returns (uint256 b) {... */\n    tag_137:\n        /* \"contracts/protocol/libraries/math/WadRayMath.sol\":4068:4077  uint256 b */\n      0x00\n        /* \"contracts/protocol/libraries/math/WadRayMath.sol\":4164:4177  WAD_RAY_RATIO */\n      0x3b9aca00\n        /* \"contracts/protocol/libraries/math/WadRayMath.sol\":4161:4162  a */\n      dup3\n        /* \"contracts/protocol/libraries/math/WadRayMath.sol\":4157:4178  mul(a, WAD_RAY_RATIO) */\n      mul\n        /* \"contracts/protocol/libraries/math/WadRayMath.sol\":4152:4178  b := mul(a, WAD_RAY_RATIO) */\n      swap1\n      pop\n        /* \"contracts/protocol/libraries/math/WadRayMath.sol\":4224:4225  a */\n      dup2\n        /* \"contracts/protocol/libraries/math/WadRayMath.sol\":4208:4221  WAD_RAY_RATIO */\n      0x3b9aca00\n        /* \"contracts/protocol/libraries/math/WadRayMath.sol\":4205:4206  b */\n      dup3\n        /* \"contracts/protocol/libraries/math/WadRayMath.sol\":4201:4222  div(b, WAD_RAY_RATIO) */\n      div\n        /* \"contracts/protocol/libraries/math/WadRayMath.sol\":4198:4226  eq(div(b, WAD_RAY_RATIO), a) */\n      eq\n        /* \"contracts/protocol/libraries/math/WadRayMath.sol\":4188:4260  if iszero(eq(div(b, WAD_RAY_RATIO), a)) {... */\n      tag_146\n      jumpi\n        /* \"contracts/protocol/libraries/math/WadRayMath.sol\":4249:4250  0 */\n      0x00\n        /* \"contracts/protocol/libraries/math/WadRayMath.sol\":4246:4247  0 */\n      dup1\n        /* \"contracts/protocol/libraries/math/WadRayMath.sol\":4239:4251  revert(0, 0) */\n      revert\n        /* \"contracts/protocol/libraries/math/WadRayMath.sol\":4188:4260  if iszero(eq(div(b, WAD_RAY_RATIO), a)) {... */\n    tag_146:\n        /* \"contracts/protocol/libraries/math/WadRayMath.sol\":4016:4272  function wadToRay(uint256 a) internal pure returns (uint256 b) {... */\n      swap2\n      swap1\n      pop\n      jump\t// out\n    tag_76:\n      mload(0x40)\n      dup1\n      0x0120\n      add\n      0x40\n      mstore\n      dup1\n      0x00\n      dup2\n      mstore\n      0x20\n      add\n      0x00\n      dup2\n      mstore\n      0x20\n      add\n      0x00\n      dup2\n      mstore\n      0x20\n      add\n      0x00\n      dup2\n      mstore\n      0x20\n      add\n      0x00\n      dup2\n      mstore\n      0x20\n      add\n      0x00\n      dup2\n      mstore\n      0x20\n      add\n      0x00\n      dup2\n      mstore\n      0x20\n      add\n      0x00\n      dup2\n      mstore\n      0x20\n      add\n      0x00\n      dup2\n      mstore\n      pop\n      swap1\n      jump\t// out\n        /* \"#utility.yul\":7:133   */\n    tag_147:\n        /* \"#utility.yul\":44:51   */\n      0x00\n        /* \"#utility.yul\":84:126   */\n      0xffffffffffffffffffffffffffffffffffffffff\n        /* \"#utility.yul\":77:82   */\n      dup3\n        /* \"#utility.yul\":73:127   */\n      and\n        /* \"#utility.yul\":62:127   */\n      swap1\n      pop\n        /* \"#utility.yul\":7:133   */\n      swap2\n      swap1\n      pop\n      jump\t// out\n        /* \"#utility.yul\":139:199   */\n    tag_148:\n        /* \"#utility.yul\":167:170   */\n      0x00\n        /* \"#utility.yul\":188:193   */\n      dup2\n        /* \"#utility.yul\":181:193   */\n      swap1\n      pop\n        /* \"#utility.yul\":139:199   */\n      swap2\n      swap1\n      pop\n      jump\t// out\n        /* \"#utility.yul\":205:347   */\n    tag_149:\n        /* \"#utility.yul\":255:264   */\n      0x00\n        /* \"#utility.yul\":288:341   */\n      tag_177\n        /* \"#utility.yul\":306:340   */\n      tag_178\n        /* \"#utility.yul\":315:339   */\n      tag_179\n        /* \"#utility.yul\":333:338   */\n      dup5\n        /* \"#utility.yul\":315:339   */\n      tag_147\n      jump\t// in\n    tag_179:\n        /* \"#utility.yul\":306:340   */\n      tag_148\n      jump\t// in\n    tag_178:\n        /* \"#utility.yul\":288:341   */\n      tag_147\n      jump\t// in\n    tag_177:\n        /* \"#utility.yul\":275:341   */\n      swap1\n      pop\n        /* \"#utility.yul\":205:347   */\n      swap2\n      swap1\n      pop\n      jump\t// out\n        /* \"#utility.yul\":353:479   */\n    tag_150:\n        /* \"#utility.yul\":403:412   */\n      0x00\n        /* \"#utility.yul\":436:473   */\n      tag_181\n        /* \"#utility.yul\":467:472   */\n      dup3\n        /* \"#utility.yul\":436:473   */\n      tag_149\n      jump\t// in\n    tag_181:\n        /* \"#utility.yul\":423:473   */\n      swap1\n      pop\n        /* \"#utility.yul\":353:479   */\n      swap2\n      swap1\n      pop\n      jump\t// out\n        /* \"#utility.yul\":485:641   */\n    tag_151:\n        /* \"#utility.yul\":565:574   */\n      0x00\n        /* \"#utility.yul\":598:635   */\n      tag_183\n        /* \"#utility.yul\":629:634   */\n      dup3\n        /* \"#utility.yul\":598:635   */\n      tag_150\n      jump\t// in\n    tag_183:\n        /* \"#utility.yul\":585:635   */\n      swap1\n      pop\n        /* \"#utility.yul\":485:641   */\n      swap2\n      swap1\n      pop\n      jump\t// out\n        /* \"#utility.yul\":647:838   */\n    tag_152:\n        /* \"#utility.yul\":764:831   */\n      tag_185\n        /* \"#utility.yul\":825:830   */\n      dup2\n        /* \"#utility.yul\":764:831   */\n      tag_151\n      jump\t// in\n    tag_185:\n        /* \"#utility.yul\":759:762   */\n      dup3\n        /* \"#utility.yul\":752:832   */\n      mstore\n        /* \"#utility.yul\":647:838   */\n      pop\n      pop\n      jump\t// out\n        /* \"#utility.yul\":844:1126   */\n    tag_23:\n        /* \"#utility.yul\":967:971   */\n      0x00\n        /* \"#utility.yul\":1005:1007   */\n      0x20\n        /* \"#utility.yul\":994:1003   */\n      dup3\n        /* \"#utility.yul\":990:1008   */\n      add\n        /* \"#utility.yul\":982:1008   */\n      swap1\n      pop\n        /* \"#utility.yul\":1018:1119   */\n      tag_187\n        /* \"#utility.yul\":1116:1117   */\n      0x00\n        /* \"#utility.yul\":1105:1114   */\n      dup4\n        /* \"#utility.yul\":1101:1118   */\n      add\n        /* \"#utility.yul\":1092:1098   */\n      dup5\n        /* \"#utility.yul\":1018:1119   */\n      tag_152\n      jump\t// in\n    tag_187:\n        /* \"#utility.yul\":844:1126   */\n      swap3\n      swap2\n      pop\n      pop\n      jump\t// out\n        /* \"#utility.yul\":1132:1209   */\n    tag_153:\n        /* \"#utility.yul\":1169:1176   */\n      0x00\n        /* \"#utility.yul\":1198:1203   */\n      dup2\n        /* \"#utility.yul\":1187:1203   */\n      swap1\n      pop\n        /* \"#utility.yul\":1132:1209   */\n      swap2\n      swap1\n      pop\n      jump\t// out\n        /* \"#utility.yul\":1215:1333   */\n    tag_154:\n        /* \"#utility.yul\":1302:1326   */\n      tag_190\n        /* \"#utility.yul\":1320:1325   */\n      dup2\n        /* \"#utility.yul\":1302:1326   */\n      tag_153\n      jump\t// in\n    tag_190:\n        /* \"#utility.yul\":1297:1300   */\n      dup3\n        /* \"#utility.yul\":1290:1327   */\n      mstore\n        /* \"#utility.yul\":1215:1333   */\n      pop\n      pop\n      jump\t// out\n        /* \"#utility.yul\":1339:1561   */\n    tag_27:\n        /* \"#utility.yul\":1432:1436   */\n      0x00\n        /* \"#utility.yul\":1470:1472   */\n      0x20\n        /* \"#utility.yul\":1459:1468   */\n      dup3\n        /* \"#utility.yul\":1455:1473   */\n      add\n        /* \"#utility.yul\":1447:1473   */\n      swap1\n      pop\n        /* \"#utility.yul\":1483:1554   */\n      tag_192\n        /* \"#utility.yul\":1551:1552   */\n      0x00\n        /* \"#utility.yul\":1540:1549   */\n      dup4\n        /* \"#utility.yul\":1536:1553   */\n      add\n        /* \"#utility.yul\":1527:1533   */\n      dup5\n        /* \"#utility.yul\":1483:1554   */\n      tag_154\n      jump\t// in\n    tag_192:\n        /* \"#utility.yul\":1339:1561   */\n      swap3\n      swap2\n      pop\n      pop\n      jump\t// out\n        /* \"#utility.yul\":1567:1642   */\n    tag_155:\n        /* \"#utility.yul\":1600:1606   */\n      0x00\n        /* \"#utility.yul\":1633:1635   */\n      0x40\n        /* \"#utility.yul\":1627:1636   */\n      mload\n        /* \"#utility.yul\":1617:1636   */\n      swap1\n      pop\n        /* \"#utility.yul\":1567:1642   */\n      swap1\n      jump\t// out\n        /* \"#utility.yul\":1648:1765   */\n    tag_156:\n        /* \"#utility.yul\":1757:1758   */\n      0x00\n        /* \"#utility.yul\":1754:1755   */\n      dup1\n        /* \"#utility.yul\":1747:1759   */\n      revert\n        /* \"#utility.yul\":1894:2011   */\n    tag_158:\n        /* \"#utility.yul\":2003:2004   */\n      0x00\n        /* \"#utility.yul\":2000:2001   */\n      dup1\n        /* \"#utility.yul\":1993:2005   */\n      revert\n        /* \"#utility.yul\":2017:2119   */\n    tag_159:\n        /* \"#utility.yul\":2058:2064   */\n      0x00\n        /* \"#utility.yul\":2109:2111   */\n      0x1f\n        /* \"#utility.yul\":2105:2112   */\n      not\n        /* \"#utility.yul\":2100:2102   */\n      0x1f\n        /* \"#utility.yul\":2093:2098   */\n      dup4\n        /* \"#utility.yul\":2089:2103   */\n      add\n        /* \"#utility.yul\":2085:2113   */\n      and\n        /* \"#utility.yul\":2075:2113   */\n      swap1\n      pop\n        /* \"#utility.yul\":2017:2119   */\n      swap2\n      swap1\n      pop\n      jump\t// out\n        /* \"#utility.yul\":2125:2305   */\n    tag_160:\n        /* \"#utility.yul\":2173:2250   */\n      0x4e487b7100000000000000000000000000000000000000000000000000000000\n        /* \"#utility.yul\":2170:2171   */\n      0x00\n        /* \"#utility.yul\":2163:2251   */\n      mstore\n        /* \"#utility.yul\":2270:2274   */\n      0x41\n        /* \"#utility.yul\":2267:2268   */\n      0x04\n        /* \"#utility.yul\":2260:2275   */\n      mstore\n        /* \"#utility.yul\":2294:2298   */\n      0x24\n        /* \"#utility.yul\":2291:2292   */\n      0x00\n        /* \"#utility.yul\":2284:2299   */\n      revert\n        /* \"#utility.yul\":2311:2592   */\n    tag_161:\n        /* \"#utility.yul\":2394:2421   */\n      tag_200\n        /* \"#utility.yul\":2416:2420   */\n      dup3\n        /* \"#utility.yul\":2394:2421   */\n      tag_159\n      jump\t// in\n    tag_200:\n        /* \"#utility.yul\":2386:2392   */\n      dup2\n        /* \"#utility.yul\":2382:2422   */\n      add\n        /* \"#utility.yul\":2524:2530   */\n      dup2\n        /* \"#utility.yul\":2512:2522   */\n      dup2\n        /* \"#utility.yul\":2509:2531   */\n      lt\n        /* \"#utility.yul\":2488:2506   */\n      0xffffffffffffffff\n        /* \"#utility.yul\":2476:2486   */\n      dup3\n        /* \"#utility.yul\":2473:2507   */\n      gt\n        /* \"#utility.yul\":2470:2532   */\n      or\n        /* \"#utility.yul\":2467:2555   */\n      iszero\n      tag_201\n      jumpi\n        /* \"#utility.yul\":2535:2553   */\n      tag_202\n      tag_160\n      jump\t// in\n    tag_202:\n        /* \"#utility.yul\":2467:2555   */\n    tag_201:\n        /* \"#utility.yul\":2575:2585   */\n      dup1\n        /* \"#utility.yul\":2571:2573   */\n      0x40\n        /* \"#utility.yul\":2564:2586   */\n      mstore\n        /* \"#utility.yul\":2354:2592   */\n      pop\n        /* \"#utility.yul\":2311:2592   */\n      pop\n      pop\n      jump\t// out\n        /* \"#utility.yul\":2598:2727   */\n    tag_162:\n        /* \"#utility.yul\":2632:2638   */\n      0x00\n        /* \"#utility.yul\":2659:2679   */\n      tag_204\n      tag_155\n      jump\t// in\n    tag_204:\n        /* \"#utility.yul\":2649:2679   */\n      swap1\n      pop\n        /* \"#utility.yul\":2688:2721   */\n      tag_205\n        /* \"#utility.yul\":2716:2720   */\n      dup3\n        /* \"#utility.yul\":2708:2714   */\n      dup3\n        /* \"#utility.yul\":2688:2721   */\n      tag_161\n      jump\t// in\n    tag_205:\n        /* \"#utility.yul\":2598:2727   */\n      swap2\n      swap1\n      pop\n      jump\t// out\n        /* \"#utility.yul\":2856:2978   */\n    tag_164:\n        /* \"#utility.yul\":2929:2953   */\n      tag_208\n        /* \"#utility.yul\":2947:2952   */\n      dup2\n        /* \"#utility.yul\":2929:2953   */\n      tag_153\n      jump\t// in\n    tag_208:\n        /* \"#utility.yul\":2922:2927   */\n      dup2\n        /* \"#utility.yul\":2919:2954   */\n      eq\n        /* \"#utility.yul\":2909:2972   */\n      tag_209\n      jumpi\n        /* \"#utility.yul\":2968:2969   */\n      0x00\n        /* \"#utility.yul\":2965:2966   */\n      dup1\n        /* \"#utility.yul\":2958:2970   */\n      revert\n        /* \"#utility.yul\":2909:2972   */\n    tag_209:\n        /* \"#utility.yul\":2856:2978   */\n      pop\n      jump\t// out\n        /* \"#utility.yul\":2984:3123   */\n    tag_165:\n        /* \"#utility.yul\":3030:3035   */\n      0x00\n        /* \"#utility.yul\":3068:3074   */\n      dup2\n        /* \"#utility.yul\":3055:3075   */\n      calldataload\n        /* \"#utility.yul\":3046:3075   */\n      swap1\n      pop\n        /* \"#utility.yul\":3084:3117   */\n      tag_211\n        /* \"#utility.yul\":3111:3116   */\n      dup2\n        /* \"#utility.yul\":3084:3117   */\n      tag_164\n      jump\t// in\n    tag_211:\n        /* \"#utility.yul\":2984:3123   */\n      swap3\n      swap2\n      pop\n      pop\n      jump\t// out\n        /* \"#utility.yul\":3129:3225   */\n    tag_166:\n        /* \"#utility.yul\":3166:3173   */\n      0x00\n        /* \"#utility.yul\":3195:3219   */\n      tag_213\n        /* \"#utility.yul\":3213:3218   */\n      dup3\n        /* \"#utility.yul\":3195:3219   */\n      tag_147\n      jump\t// in\n    tag_213:\n        /* \"#utility.yul\":3184:3219   */\n      swap1\n      pop\n        /* \"#utility.yul\":3129:3225   */\n      swap2\n      swap1\n      pop\n      jump\t// out\n        /* \"#utility.yul\":3231:3353   */\n    tag_167:\n        /* \"#utility.yul\":3304:3328   */\n      tag_215\n        /* \"#utility.yul\":3322:3327   */\n      dup2\n        /* \"#utility.yul\":3304:3328   */\n      tag_166\n      jump\t// in\n    tag_215:\n        /* \"#utility.yul\":3297:3302   */\n      dup2\n        /* \"#utility.yul\":3294:3329   */\n      eq\n        /* \"#utility.yul\":3284:3347   */\n      tag_216\n      jumpi\n        /* \"#utility.yul\":3343:3344   */\n      0x00\n        /* \"#utility.yul\":3340:3341   */\n      dup1\n        /* \"#utility.yul\":3333:3345   */\n      revert\n        /* \"#utility.yul\":3284:3347   */\n    tag_216:\n        /* \"#utility.yul\":3231:3353   */\n      pop\n      jump\t// out\n        /* \"#utility.yul\":3359:3498   */\n    tag_168:\n        /* \"#utility.yul\":3405:3410   */\n      0x00\n        /* \"#utility.yul\":3443:3449   */\n      dup2\n        /* \"#utility.yul\":3430:3450   */\n      calldataload\n        /* \"#utility.yul\":3421:3450   */\n      swap1\n      pop\n        /* \"#utility.yul\":3459:3492   */\n      tag_218\n        /* \"#utility.yul\":3486:3491   */\n      dup2\n        /* \"#utility.yul\":3459:3492   */\n      tag_167\n      jump\t// in\n    tag_218:\n        /* \"#utility.yul\":3359:3498   */\n      swap3\n      swap2\n      pop\n      pop\n      jump\t// out\n        /* \"#utility.yul\":3557:5371   */\n    tag_169:\n        /* \"#utility.yul\":3652:3657   */\n      0x00\n        /* \"#utility.yul\":3696:3702   */\n      0x0120\n        /* \"#utility.yul\":3684:3693   */\n      dup3\n        /* \"#utility.yul\":3679:3682   */\n      dup5\n        /* \"#utility.yul\":3675:3694   */\n      sub\n        /* \"#utility.yul\":3671:3703   */\n      slt\n        /* \"#utility.yul\":3668:3787   */\n      iszero\n      tag_220\n      jumpi\n        /* \"#utility.yul\":3706:3785   */\n      tag_221\n      tag_158\n      jump\t// in\n    tag_221:\n        /* \"#utility.yul\":3668:3787   */\n    tag_220:\n        /* \"#utility.yul\":3805:3828   */\n      tag_222\n        /* \"#utility.yul\":3821:3827   */\n      0x0120\n        /* \"#utility.yul\":3805:3828   */\n      tag_162\n      jump\t// in\n    tag_222:\n        /* \"#utility.yul\":3796:3828   */\n      swap1\n      pop\n        /* \"#utility.yul\":3891:3892   */\n      0x00\n        /* \"#utility.yul\":3931:3980   */\n      tag_223\n        /* \"#utility.yul\":3976:3979   */\n      dup5\n        /* \"#utility.yul\":3967:3973   */\n      dup3\n        /* \"#utility.yul\":3956:3965   */\n      dup6\n        /* \"#utility.yul\":3952:3974   */\n      add\n        /* \"#utility.yul\":3931:3980   */\n      tag_165\n      jump\t// in\n    tag_223:\n        /* \"#utility.yul\":3924:3928   */\n      0x00\n        /* \"#utility.yul\":3917:3922   */\n      dup4\n        /* \"#utility.yul\":3913:3929   */\n      add\n        /* \"#utility.yul\":3906:3981   */\n      mstore\n        /* \"#utility.yul\":3838:3992   */\n      pop\n        /* \"#utility.yul\":4061:4063   */\n      0x20\n        /* \"#utility.yul\":4102:4151   */\n      tag_224\n        /* \"#utility.yul\":4147:4150   */\n      dup5\n        /* \"#utility.yul\":4138:4144   */\n      dup3\n        /* \"#utility.yul\":4127:4136   */\n      dup6\n        /* \"#utility.yul\":4123:4145   */\n      add\n        /* \"#utility.yul\":4102:4151   */\n      tag_165\n      jump\t// in\n    tag_224:\n        /* \"#utility.yul\":4095:4099   */\n      0x20\n        /* \"#utility.yul\":4088:4093   */\n      dup4\n        /* \"#utility.yul\":4084:4100   */\n      add\n        /* \"#utility.yul\":4077:4152   */\n      mstore\n        /* \"#utility.yul\":4002:4163   */\n      pop\n        /* \"#utility.yul\":4232:4234   */\n      0x40\n        /* \"#utility.yul\":4273:4322   */\n      tag_225\n        /* \"#utility.yul\":4318:4321   */\n      dup5\n        /* \"#utility.yul\":4309:4315   */\n      dup3\n        /* \"#utility.yul\":4298:4307   */\n      dup6\n        /* \"#utility.yul\":4294:4316   */\n      add\n        /* \"#utility.yul\":4273:4322   */\n      tag_165\n      jump\t// in\n    tag_225:\n        /* \"#utility.yul\":4266:4270   */\n      0x40\n        /* \"#utility.yul\":4259:4264   */\n      dup4\n        /* \"#utility.yul\":4255:4271   */\n      add\n        /* \"#utility.yul\":4248:4323   */\n      mstore\n        /* \"#utility.yul\":4173:4334   */\n      pop\n        /* \"#utility.yul\":4404:4406   */\n      0x60\n        /* \"#utility.yul\":4445:4494   */\n      tag_226\n        /* \"#utility.yul\":4490:4493   */\n      dup5\n        /* \"#utility.yul\":4481:4487   */\n      dup3\n        /* \"#utility.yul\":4470:4479   */\n      dup6\n        /* \"#utility.yul\":4466:4488   */\n      add\n        /* \"#utility.yul\":4445:4494   */\n      tag_165\n      jump\t// in\n    tag_226:\n        /* \"#utility.yul\":4438:4442   */\n      0x60\n        /* \"#utility.yul\":4431:4436   */\n      dup4\n        /* \"#utility.yul\":4427:4443   */\n      add\n        /* \"#utility.yul\":4420:4495   */\n      mstore\n        /* \"#utility.yul\":4344:4506   */\n      pop\n        /* \"#utility.yul\":4578:4581   */\n      0x80\n        /* \"#utility.yul\":4620:4669   */\n      tag_227\n        /* \"#utility.yul\":4665:4668   */\n      dup5\n        /* \"#utility.yul\":4656:4662   */\n      dup3\n        /* \"#utility.yul\":4645:4654   */\n      dup6\n        /* \"#utility.yul\":4641:4663   */\n      add\n        /* \"#utility.yul\":4620:4669   */\n      tag_165\n      jump\t// in\n    tag_227:\n        /* \"#utility.yul\":4613:4617   */\n      0x80\n        /* \"#utility.yul\":4606:4611   */\n      dup4\n        /* \"#utility.yul\":4602:4618   */\n      add\n        /* \"#utility.yul\":4595:4670   */\n      mstore\n        /* \"#utility.yul\":4516:4681   */\n      pop\n        /* \"#utility.yul\":4759:4762   */\n      0xa0\n        /* \"#utility.yul\":4801:4850   */\n      tag_228\n        /* \"#utility.yul\":4846:4849   */\n      dup5\n        /* \"#utility.yul\":4837:4843   */\n      dup3\n        /* \"#utility.yul\":4826:4835   */\n      dup6\n        /* \"#utility.yul\":4822:4844   */\n      add\n        /* \"#utility.yul\":4801:4850   */\n      tag_165\n      jump\t// in\n    tag_228:\n        /* \"#utility.yul\":4794:4798   */\n      0xa0\n        /* \"#utility.yul\":4787:4792   */\n      dup4\n        /* \"#utility.yul\":4783:4799   */\n      add\n        /* \"#utility.yul\":4776:4851   */\n      mstore\n        /* \"#utility.yul\":4691:4862   */\n      pop\n        /* \"#utility.yul\":4930:4933   */\n      0xc0\n        /* \"#utility.yul\":4972:5021   */\n      tag_229\n        /* \"#utility.yul\":5017:5020   */\n      dup5\n        /* \"#utility.yul\":5008:5014   */\n      dup3\n        /* \"#utility.yul\":4997:5006   */\n      dup6\n        /* \"#utility.yul\":4993:5015   */\n      add\n        /* \"#utility.yul\":4972:5021   */\n      tag_165\n      jump\t// in\n    tag_229:\n        /* \"#utility.yul\":4965:4969   */\n      0xc0\n        /* \"#utility.yul\":4958:4963   */\n      dup4\n        /* \"#utility.yul\":4954:4970   */\n      add\n        /* \"#utility.yul\":4947:5022   */\n      mstore\n        /* \"#utility.yul\":4872:5033   */\n      pop\n        /* \"#utility.yul\":5095:5098   */\n      0xe0\n        /* \"#utility.yul\":5137:5186   */\n      tag_230\n        /* \"#utility.yul\":5182:5185   */\n      dup5\n        /* \"#utility.yul\":5173:5179   */\n      dup3\n        /* \"#utility.yul\":5162:5171   */\n      dup6\n        /* \"#utility.yul\":5158:5180   */\n      add\n        /* \"#utility.yul\":5137:5186   */\n      tag_168\n      jump\t// in\n    tag_230:\n        /* \"#utility.yul\":5130:5134   */\n      0xe0\n        /* \"#utility.yul\":5123:5128   */\n      dup4\n        /* \"#utility.yul\":5119:5135   */\n      add\n        /* \"#utility.yul\":5112:5187   */\n      mstore\n        /* \"#utility.yul\":5043:5198   */\n      pop\n        /* \"#utility.yul\":5259:5262   */\n      0x0100\n        /* \"#utility.yul\":5303:5352   */\n      tag_231\n        /* \"#utility.yul\":5348:5351   */\n      dup5\n        /* \"#utility.yul\":5339:5345   */\n      dup3\n        /* \"#utility.yul\":5328:5337   */\n      dup6\n        /* \"#utility.yul\":5324:5346   */\n      add\n        /* \"#utility.yul\":5303:5352   */\n      tag_168\n      jump\t// in\n    tag_231:\n        /* \"#utility.yul\":5294:5300   */\n      0x0100\n        /* \"#utility.yul\":5287:5292   */\n      dup4\n        /* \"#utility.yul\":5283:5301   */\n      add\n        /* \"#utility.yul\":5276:5353   */\n      mstore\n        /* \"#utility.yul\":5208:5364   */\n      pop\n        /* \"#utility.yul\":3557:5371   */\n      swap3\n      swap2\n      pop\n      pop\n      jump\t// out\n        /* \"#utility.yul\":5377:5799   */\n    tag_45:\n        /* \"#utility.yul\":5482:5488   */\n      0x00\n        /* \"#utility.yul\":5531:5534   */\n      0x0120\n        /* \"#utility.yul\":5519:5528   */\n      dup3\n        /* \"#utility.yul\":5510:5517   */\n      dup5\n        /* \"#utility.yul\":5506:5529   */\n      sub\n        /* \"#utility.yul\":5502:5535   */\n      slt\n        /* \"#utility.yul\":5499:5619   */\n      iszero\n      tag_233\n      jumpi\n        /* \"#utility.yul\":5538:5617   */\n      tag_234\n      tag_156\n      jump\t// in\n    tag_234:\n        /* \"#utility.yul\":5499:5619   */\n    tag_233:\n        /* \"#utility.yul\":5658:5659   */\n      0x00\n        /* \"#utility.yul\":5683:5782   */\n      tag_235\n        /* \"#utility.yul\":5774:5781   */\n      dup5\n        /* \"#utility.yul\":5765:5771   */\n      dup3\n        /* \"#utility.yul\":5754:5763   */\n      dup6\n        /* \"#utility.yul\":5750:5772   */\n      add\n        /* \"#utility.yul\":5683:5782   */\n      tag_169\n      jump\t// in\n    tag_235:\n        /* \"#utility.yul\":5673:5782   */\n      swap2\n      pop\n        /* \"#utility.yul\":5629:5792   */\n      pop\n        /* \"#utility.yul\":5377:5799   */\n      swap3\n      swap2\n      pop\n      pop\n      jump\t// out\n        /* \"#utility.yul\":5805:6247   */\n    tag_48:\n        /* \"#utility.yul\":5954:5958   */\n      0x00\n        /* \"#utility.yul\":5992:5994   */\n      0x60\n        /* \"#utility.yul\":5981:5990   */\n      dup3\n        /* \"#utility.yul\":5977:5995   */\n      add\n        /* \"#utility.yul\":5969:5995   */\n      swap1\n      pop\n        /* \"#utility.yul\":6005:6076   */\n      tag_237\n        /* \"#utility.yul\":6073:6074   */\n      0x00\n        /* \"#utility.yul\":6062:6071   */\n      dup4\n        /* \"#utility.yul\":6058:6075   */\n      add\n        /* \"#utility.yul\":6049:6055   */\n      dup7\n        /* \"#utility.yul\":6005:6076   */\n      tag_154\n      jump\t// in\n    tag_237:\n        /* \"#utility.yul\":6086:6158   */\n      tag_238\n        /* \"#utility.yul\":6154:6156   */\n      0x20\n        /* \"#utility.yul\":6143:6152   */\n      dup4\n        /* \"#utility.yul\":6139:6157   */\n      add\n        /* \"#utility.yul\":6130:6136   */\n      dup6\n        /* \"#utility.yul\":6086:6158   */\n      tag_154\n      jump\t// in\n    tag_238:\n        /* \"#utility.yul\":6168:6240   */\n      tag_239\n        /* \"#utility.yul\":6236:6238   */\n      0x40\n        /* \"#utility.yul\":6225:6234   */\n      dup4\n        /* \"#utility.yul\":6221:6239   */\n      add\n        /* \"#utility.yul\":6212:6218   */\n      dup5\n        /* \"#utility.yul\":6168:6240   */\n      tag_154\n      jump\t// in\n    tag_239:\n        /* \"#utility.yul\":5805:6247   */\n      swap5\n      swap4\n      pop\n      pop\n      pop\n      pop\n      jump\t// out\n        /* \"#utility.yul\":6253:6433   */\n    tag_170:\n        /* \"#utility.yul\":6301:6378   */\n      0x4e487b7100000000000000000000000000000000000000000000000000000000\n        /* \"#utility.yul\":6298:6299   */\n      0x00\n        /* \"#utility.yul\":6291:6379   */\n      mstore\n        /* \"#utility.yul\":6398:6402   */\n      0x11\n        /* \"#utility.yul\":6395:6396   */\n      0x04\n        /* \"#utility.yul\":6388:6403   */\n      mstore\n        /* \"#utility.yul\":6422:6426   */\n      0x24\n        /* \"#utility.yul\":6419:6420   */\n      0x00\n        /* \"#utility.yul\":6412:6427   */\n      revert\n        /* \"#utility.yul\":6439:6630   */\n    tag_72:\n        /* \"#utility.yul\":6479:6482   */\n      0x00\n        /* \"#utility.yul\":6498:6518   */\n      tag_242\n        /* \"#utility.yul\":6516:6517   */\n      dup3\n        /* \"#utility.yul\":6498:6518   */\n      tag_153\n      jump\t// in\n    tag_242:\n        /* \"#utility.yul\":6493:6518   */\n      swap2\n      pop\n        /* \"#utility.yul\":6532:6552   */\n      tag_243\n        /* \"#utility.yul\":6550:6551   */\n      dup4\n        /* \"#utility.yul\":6532:6552   */\n      tag_153\n      jump\t// in\n    tag_243:\n        /* \"#utility.yul\":6527:6552   */\n      swap3\n      pop\n        /* \"#utility.yul\":6575:6576   */\n      dup3\n        /* \"#utility.yul\":6572:6573   */\n      dup3\n        /* \"#utility.yul\":6568:6577   */\n      add\n        /* \"#utility.yul\":6561:6577   */\n      swap1\n      pop\n        /* \"#utility.yul\":6596:6599   */\n      dup1\n        /* \"#utility.yul\":6593:6594   */\n      dup3\n        /* \"#utility.yul\":6590:6600   */\n      gt\n        /* \"#utility.yul\":6587:6623   */\n      iszero\n      tag_244\n      jumpi\n        /* \"#utility.yul\":6603:6621   */\n      tag_245\n      tag_170\n      jump\t// in\n    tag_245:\n        /* \"#utility.yul\":6587:6623   */\n    tag_244:\n        /* \"#utility.yul\":6439:6630   */\n      swap3\n      swap2\n      pop\n      pop\n      jump\t// out\n        /* \"#utility.yul\":6636:6754   */\n    tag_171:\n        /* \"#utility.yul\":6723:6747   */\n      tag_247\n        /* \"#utility.yul\":6741:6746   */\n      dup2\n        /* \"#utility.yul\":6723:6747   */\n      tag_166\n      jump\t// in\n    tag_247:\n        /* \"#utility.yul\":6718:6721   */\n      dup3\n        /* \"#utility.yul\":6711:6748   */\n      mstore\n        /* \"#utility.yul\":6636:6754   */\n      pop\n      pop\n      jump\t// out\n        /* \"#utility.yul\":6760:6982   */\n    tag_83:\n        /* \"#utility.yul\":6853:6857   */\n      0x00\n        /* \"#utility.yul\":6891:6893   */\n      0x20\n        /* \"#utility.yul\":6880:6889   */\n      dup3\n        /* \"#utility.yul\":6876:6894   */\n      add\n        /* \"#utility.yul\":6868:6894   */\n      swap1\n      pop\n        /* \"#utility.yul\":6904:6975   */\n      tag_249\n        /* \"#utility.yul\":6972:6973   */\n      0x00\n        /* \"#utility.yul\":6961:6970   */\n      dup4\n        /* \"#utility.yul\":6957:6974   */\n      add\n        /* \"#utility.yul\":6948:6954   */\n      dup5\n        /* \"#utility.yul\":6904:6975   */\n      tag_171\n      jump\t// in\n    tag_249:\n        /* \"#utility.yul\":6760:6982   */\n      swap3\n      swap2\n      pop\n      pop\n      jump\t// out\n        /* \"#utility.yul\":6988:7131   */\n    tag_172:\n        /* \"#utility.yul\":7045:7050   */\n      0x00\n        /* \"#utility.yul\":7076:7082   */\n      dup2\n        /* \"#utility.yul\":7070:7083   */\n      mload\n        /* \"#utility.yul\":7061:7083   */\n      swap1\n      pop\n        /* \"#utility.yul\":7092:7125   */\n      tag_251\n        /* \"#utility.yul\":7119:7124   */\n      dup2\n        /* \"#utility.yul\":7092:7125   */\n      tag_164\n      jump\t// in\n    tag_251:\n        /* \"#utility.yul\":6988:7131   */\n      swap3\n      swap2\n      pop\n      pop\n      jump\t// out\n        /* \"#utility.yul\":7137:7488   */\n    tag_87:\n        /* \"#utility.yul\":7207:7213   */\n      0x00\n        /* \"#utility.yul\":7256:7258   */\n      0x20\n        /* \"#utility.yul\":7244:7253   */\n      dup3\n        /* \"#utility.yul\":7235:7242   */\n      dup5\n        /* \"#utility.yul\":7231:7254   */\n      sub\n        /* \"#utility.yul\":7227:7259   */\n      slt\n        /* \"#utility.yul\":7224:7343   */\n      iszero\n      tag_253\n      jumpi\n        /* \"#utility.yul\":7262:7341   */\n      tag_254\n      tag_156\n      jump\t// in\n    tag_254:\n        /* \"#utility.yul\":7224:7343   */\n    tag_253:\n        /* \"#utility.yul\":7382:7383   */\n      0x00\n        /* \"#utility.yul\":7407:7471   */\n      tag_255\n        /* \"#utility.yul\":7463:7470   */\n      dup5\n        /* \"#utility.yul\":7454:7460   */\n      dup3\n        /* \"#utility.yul\":7443:7452   */\n      dup6\n        /* \"#utility.yul\":7439:7461   */\n      add\n        /* \"#utility.yul\":7407:7471   */\n      tag_172\n      jump\t// in\n    tag_255:\n        /* \"#utility.yul\":7397:7471   */\n      swap2\n      pop\n        /* \"#utility.yul\":7353:7481   */\n      pop\n        /* \"#utility.yul\":7137:7488   */\n      swap3\n      swap2\n      pop\n      pop\n      jump\t// out\n        /* \"#utility.yul\":7494:7688   */\n    tag_90:\n        /* \"#utility.yul\":7534:7538   */\n      0x00\n        /* \"#utility.yul\":7554:7574   */\n      tag_257\n        /* \"#utility.yul\":7572:7573   */\n      dup3\n        /* \"#utility.yul\":7554:7574   */\n      tag_153\n      jump\t// in\n    tag_257:\n        /* \"#utility.yul\":7549:7574   */\n      swap2\n      pop\n        /* \"#utility.yul\":7588:7608   */\n      tag_258\n        /* \"#utility.yul\":7606:7607   */\n      dup4\n        /* \"#utility.yul\":7588:7608   */\n      tag_153\n      jump\t// in\n    tag_258:\n        /* \"#utility.yul\":7583:7608   */\n      swap3\n      pop\n        /* \"#utility.yul\":7632:7633   */\n      dup3\n        /* \"#utility.yul\":7629:7630   */\n      dup3\n        /* \"#utility.yul\":7625:7634   */\n      sub\n        /* \"#utility.yul\":7617:7634   */\n      swap1\n      pop\n        /* \"#utility.yul\":7656:7657   */\n      dup2\n        /* \"#utility.yul\":7650:7654   */\n      dup2\n        /* \"#utility.yul\":7647:7658   */\n      gt\n        /* \"#utility.yul\":7644:7681   */\n      iszero\n      tag_259\n      jumpi\n        /* \"#utility.yul\":7661:7679   */\n      tag_260\n      tag_170\n      jump\t// in\n    tag_260:\n        /* \"#utility.yul\":7644:7681   */\n    tag_259:\n        /* \"#utility.yul\":7494:7688   */\n      swap3\n      swap2\n      pop\n      pop\n      jump\t// out\n\n    auxdata: 0xa264697066735822122024ccfec125c89d6afa7b31a6276089690761b15474d5e94e36e35557281b195464736f6c634300081a0033\n}\n",
				"bytecode": {
					"linkReferences": {},
					"object": "610200604052348015610010575f80fd5b50604051611614380380611614833981810160405281019061003291906102b5565b886b033b2e3c9fd0803ce800000010156040518060400160405280600281526020017f3833000000000000000000000000000000000000000000000000000000000000815250906100b9576040517f08c379a00000000000000000000000000000000000000000000000000000000081526004016100b091906103fe565b60405180910390fd5b50806b033b2e3c9fd0803ce800000010156040518060400160405280600281526020017f383400000000000000000000000000000000000000000000000000000000000081525090610141576040517f08c379a000000000000000000000000000000000000000000000000000000000815260040161013891906103fe565b60405180910390fd5b508860808181525050886b033b2e3c9fd0803ce8000000610162919061044b565b60c081815250508060a08181525050806b033b2e3c9fd0803ce8000000610189919061044b565b60e081815250508973ffffffffffffffffffffffffffffffffffffffff166101008173ffffffffffffffffffffffffffffffffffffffff1681525050876101208181525050866101408181525050856101608181525050846101808181525050836101a08181525050826101c08181525050816101e081815250505050505050505050505061047e565b5f80fd5b5f73ffffffffffffffffffffffffffffffffffffffff82169050919050565b5f61024082610217565b9050919050565b5f61025182610236565b9050919050565b61026181610247565b811461026b575f80fd5b50565b5f8151905061027c81610258565b92915050565b5f819050919050565b61029481610282565b811461029e575f80fd5b50565b5f815190506102af8161028b565b92915050565b5f805f805f805f805f806101408b8d0312156102d4576102d3610213565b5b5f6102e18d828e0161026e565b9a505060206102f28d828e016102a1565b99505060406103038d828e016102a1565b98505060606103148d828e016102a1565b97505060806103258d828e016102a1565b96505060a06103368d828e016102a1565b95505060c06103478d828e016102a1565b94505060e06103588d828e016102a1565b93505061010061036a8d828e016102a1565b92505061012061037c8d828e016102a1565b9150509295989b9194979a5092959850565b5f81519050919050565b5f82825260208201905092915050565b8281835e5f83830152505050565b5f601f19601f8301169050919050565b5f6103d08261038e565b6103da8185610398565b93506103ea8185602086016103a8565b6103f3816103b6565b840191505092915050565b5f6020820190508181035f83015261041681846103c6565b905092915050565b7f4e487b71000000000000000000000000000000000000000000000000000000005f52601160045260245ffd5b5f61045582610282565b915061046083610282565b92508282039050818111156104785761047761041e565b5b92915050565b60805160a05160c05160e05161010051610120516101405161016051610180516101a0516101c0516101e05161108761058d5f395f81816108d80152610a1301525f6109c101525f81816102f2015261065201525f81816106810152818161076c0152610a3a01525f8181610388015281816106c80152610a6101525f81816102cb015281816103a9015281816106f7015281816107ed01526109e201525f8181610319015281816103ca015261043601525f6102a601525f81816108730152610a8701525f81816105ed015261099c01525f818161036301528181610843015261089401525f818161033f015281816105bd0152818161060e0152818161074301526107c401526110875ff3fe608060405234801561000f575f80fd5b50600436106100e8575f3560e01c8063a58987091161008a578063bc62690811610064578063bc6269081461022c578063d5cd73911461024a578063f420240914610268578063fe5fd69814610286576100e8565b8063a5898709146101be578063a9c622f8146101f0578063acd786861461020e576100e8565b806334762ca5116100c657806334762ca51461014657806354c365c6146101645780636fb925891461018257806380031e37146101a0576100e8565b80630542975c146100ec5780630b3429a21461010a57806314e32da414610128575b5f80fd5b6100f46102a4565b6040516101019190610cd1565b60405180910390f35b6101126102c8565b60405161011f9190610d02565b60405180910390f35b6101306102ef565b60405161013d9190610d02565b60405180910390f35b61014e610316565b60405161015b9190610d02565b60405180910390f35b61016c61033d565b6040516101799190610d02565b60405180910390f35b61018a610361565b6040516101979190610d02565b60405180910390f35b6101a8610385565b6040516101b59190610d02565b60405180910390f35b6101d860048036038101906101d39190610ef6565b610402565b6040516101e793929190610f22565b60405180910390f35b6101f861099a565b6040516102059190610d02565b60405180910390f35b6102166109be565b6040516102239190610d02565b60405180910390f35b610234610a10565b6040516102419190610d02565b60405180910390f35b610252610a37565b60405161025f9190610d02565b60405180910390f35b610270610a5e565b60405161027d9190610d02565b60405180910390f35b61028e610a85565b60405161029b9190610d02565b60405180910390f35b7f000000000000000000000000000000000000000000000000000000000000000081565b5f7f0000000000000000000000000000000000000000000000000000000000000000905090565b5f7f0000000000000000000000000000000000000000000000000000000000000000905090565b5f7f0000000000000000000000000000000000000000000000000000000000000000905090565b7f000000000000000000000000000000000000000000000000000000000000000081565b7f000000000000000000000000000000000000000000000000000000000000000081565b5f7f00000000000000000000000000000000000000000000000000000000000000007f00000000000000000000000000000000000000000000000000000000000000007f00000000000000000000000000000000000000000000000000000000000000006103f39190610f84565b6103fd9190610f84565b905090565b5f805f61040d610c14565b846080015185606001516104219190610f84565b8160200181815250505f8160800181815250507f00000000000000000000000000000000000000000000000000000000000000008160400181815250506104666109be565b8160600181815250505f8160200151146105bb5761049581602001518660600151610aa990919063ffffffff16565b8160e0018181525050846040015185602001518660e0015173ffffffffffffffffffffffffffffffffffffffff166370a082318861010001516040518263ffffffff1660e01b81526004016104ea9190610fc6565b602060405180830381865afa158015610505573d5f803e3d5ffd5b505050506040513d601f19601f820116820180604052508101906105299190610ff3565b6105339190610f84565b61053d919061101e565b815f0181815250508060200151815f01516105589190610f84565b8161010001818152505061057e8161010001518260200151610aa990919063ffffffff16565b8160a00181815250506105b1855f015182610100015161059e9190610f84565b8260200151610aa990919063ffffffff16565b8160c00181815250505b7f00000000000000000000000000000000000000000000000000000000000000008160a00151111561073e575f61064a7f00000000000000000000000000000000000000000000000000000000000000007f00000000000000000000000000000000000000000000000000000000000000008460a0015161063c919061101e565b610aa990919063ffffffff16565b905061067f817f0000000000000000000000000000000000000000000000000000000000000000610aed90919063ffffffff16565b7f00000000000000000000000000000000000000000000000000000000000000006106aa9190610f84565b826060018181516106bb9190610f84565b915081815250506106f5817f0000000000000000000000000000000000000000000000000000000000000000610aed90919063ffffffff16565b7f00000000000000000000000000000000000000000000000000000000000000006107209190610f84565b826040018181516107319190610f84565b9150818152505050610841565b6107a77f00000000000000000000000000000000000000000000000000000000000000006107998360a001517f0000000000000000000000000000000000000000000000000000000000000000610aed90919063ffffffff16565b610aa990919063ffffffff16565b816060018181516107b89190610f84565b915081815250506108287f000000000000000000000000000000000000000000000000000000000000000061081a8360a001517f0000000000000000000000000000000000000000000000000000000000000000610aed90919063ffffffff16565b610aa990919063ffffffff16565b816040018181516108399190610f84565b915081815250505b7f00000000000000000000000000000000000000000000000000000000000000008160e00151111561091f575f6108d07f00000000000000000000000000000000000000000000000000000000000000007f00000000000000000000000000000000000000000000000000000000000000008460e001516108c2919061101e565b610aa990919063ffffffff16565b9050610905817f0000000000000000000000000000000000000000000000000000000000000000610aed90919063ffffffff16565b826060018181516109169190610f84565b91508181525050505b6109748560c00151612710610934919061101e565b6109668360c0015161095889606001518a6080015187604001518c60a00151610b35565b610aed90919063ffffffff16565b610bca90919063ffffffff16565b816080018181525050806080015181606001518260400151935093509350509193909250565b7f000000000000000000000000000000000000000000000000000000000000000081565b5f7f00000000000000000000000000000000000000000000000000000000000000007f0000000000000000000000000000000000000000000000000000000000000000610a0b9190610f84565b905090565b5f7f0000000000000000000000000000000000000000000000000000000000000000905090565b5f7f0000000000000000000000000000000000000000000000000000000000000000905090565b5f7f0000000000000000000000000000000000000000000000000000000000000000905090565b7f000000000000000000000000000000000000000000000000000000000000000081565b5f6b033b2e3c9fd0803ce8000000600283045f1903048311151582151715610acf575f80fd5b81600283046b033b2e3c9fd0803ce800000085020104905092915050565b5f816b019d971e4fe8401e740000005f190304831115821517610b0e575f80fd5b6b033b2e3c9fd0803ce80000006b019d971e4fe8401e740000008385020104905092915050565b5f808486610b439190610f84565b90505f8103610b55575f915050610bc2565b5f610b7185610b6388610bf4565b610aed90919063ffffffff16565b90505f610b8f85610b818a610bf4565b610aed90919063ffffffff16565b90505f610bb8610b9e85610bf4565b8385610baa9190610f84565b610aa990919063ffffffff16565b9050809450505050505b949350505050565b5f816113885f190304831115821517610be1575f80fd5b6127106113888385020104905092915050565b5f633b9aca008202905081633b9aca00820414610c0f575f80fd5b919050565b6040518061012001604052805f81526020015f81526020015f81526020015f81526020015f81526020015f81526020015f81526020015f81526020015f81525090565b5f73ffffffffffffffffffffffffffffffffffffffff82169050919050565b5f819050919050565b5f610c99610c94610c8f84610c57565b610c76565b610c57565b9050919050565b5f610caa82610c7f565b9050919050565b5f610cbb82610ca0565b9050919050565b610ccb81610cb1565b82525050565b5f602082019050610ce45f830184610cc2565b92915050565b5f819050919050565b610cfc81610cea565b82525050565b5f602082019050610d155f830184610cf3565b92915050565b5f604051905090565b5f80fd5b5f80fd5b5f601f19601f8301169050919050565b7f4e487b71000000000000000000000000000000000000000000000000000000005f52604160045260245ffd5b610d7282610d2c565b810181811067ffffffffffffffff82111715610d9157610d90610d3c565b5b80604052505050565b5f610da3610d1b565b9050610daf8282610d69565b919050565b610dbd81610cea565b8114610dc7575f80fd5b50565b5f81359050610dd881610db4565b92915050565b5f610de882610c57565b9050919050565b610df881610dde565b8114610e02575f80fd5b50565b5f81359050610e1381610def565b92915050565b5f6101208284031215610e2f57610e2e610d28565b5b610e3a610120610d9a565b90505f610e4984828501610dca565b5f830152506020610e5c84828501610dca565b6020830152506040610e7084828501610dca565b6040830152506060610e8484828501610dca565b6060830152506080610e9884828501610dca565b60808301525060a0610eac84828501610dca565b60a08301525060c0610ec084828501610dca565b60c08301525060e0610ed484828501610e05565b60e083015250610100610ee984828501610e05565b6101008301525092915050565b5f6101208284031215610f0c57610f0b610d24565b5b5f610f1984828501610e19565b91505092915050565b5f606082019050610f355f830186610cf3565b610f426020830185610cf3565b610f4f6040830184610cf3565b949350505050565b7f4e487b71000000000000000000000000000000000000000000000000000000005f52601160045260245ffd5b5f610f8e82610cea565b9150610f9983610cea565b9250828201905080821115610fb157610fb0610f57565b5b92915050565b610fc081610dde565b82525050565b5f602082019050610fd95f830184610fb7565b92915050565b5f81519050610fed81610db4565b92915050565b5f6020828403121561100857611007610d24565b5b5f61101584828501610fdf565b91505092915050565b5f61102882610cea565b915061103383610cea565b925082820390508181111561104b5761104a610f57565b5b9291505056fea264697066735822122024ccfec125c89d6afa7b31a6276089690761b15474d5e94e36e35557281b195464736f6c634300081a0033",
					"opcodes": "PUSH2 0x200 PUSH1 0x40 MSTORE CALLVALUE DUP1 ISZERO PUSH2 0x10 JUMPI PUSH0 DUP1 REVERT JUMPDEST POP PUSH1 0x40 MLOAD PUSH2 0x1614 CODESIZE SUB DUP1 PUSH2 0x1614 DUP4 CODECOPY DUP2 DUP2 ADD PUSH1 0x40 MSTORE DUP2 ADD SWAP1 PUSH2 0x32 SWAP2 SWAP1 PUSH2 0x2B5 JUMP JUMPDEST DUP9 PUSH12 0x33B2E3C9FD0803CE8000000 LT ISZERO PUSH1 0x40 MLOAD DUP1 PUSH1 0x40 ADD PUSH1 0x40 MSTORE DUP1 PUSH1 0x2 DUP2 MSTORE PUSH1 0x20 ADD PUSH32 0x3833000000000000000000000000000000000000000000000000000000000000 DUP2 MSTORE POP SWAP1 PUSH2 0xB9 JUMPI PUSH1 0x40 MLOAD PUSH32 0x8C379A000000000000000000000000000000000000000000000000000000000 DUP2 MSTORE PUSH1 0x4 ADD PUSH2 0xB0 SWAP2 SWAP1 PUSH2 0x3FE JUMP JUMPDEST PUSH1 0x40 MLOAD DUP1 SWAP2 SUB SWAP1 REVERT JUMPDEST POP DUP1 PUSH12 0x33B2E3C9FD0803CE8000000 LT ISZERO PUSH1 0x40 MLOAD DUP1 PUSH1 0x40 ADD PUSH1 0x40 MSTORE DUP1 PUSH1 0x2 DUP2 MSTORE PUSH1 0x20 ADD PUSH32 0x3834000000000000000000000000000000000000000000000000000000000000 DUP2 MSTORE POP SWAP1 PUSH2 0x141 JUMPI PUSH1 0x40 MLOAD PUSH32 0x8C379A000000000000000000000000000000000000000000000000000000000 DUP2 MSTORE PUSH1 0x4 ADD PUSH2 0x138 SWAP2 SWAP1 PUSH2 0x3FE JUMP JUMPDEST PUSH1 0x40 MLOAD DUP1 SWAP2 SUB SWAP1 REVERT JUMPDEST POP DUP9 PUSH1 0x80 DUP2 DUP2 MSTORE POP POP DUP9 PUSH12 0x33B2E3C9FD0803CE8000000 PUSH2 0x162 SWAP2 SWAP1 PUSH2 0x44B JUMP JUMPDEST PUSH1 0xC0 DUP2 DUP2 MSTORE POP POP DUP1 PUSH1 0xA0 DUP2 DUP2 MSTORE POP POP DUP1 PUSH12 0x33B2E3C9FD0803CE8000000 PUSH2 0x189 SWAP2 SWAP1 PUSH2 0x44B JUMP JUMPDEST PUSH1 0xE0 DUP2 DUP2 MSTORE POP POP DUP10 PUSH20 0xFFFFFFFFFFFFFFFFFFFFFFFFFFFFFFFFFFFFFFFF AND PUSH2 0x100 DUP2 PUSH20 0xFFFFFFFFFFFFFFFFFFFFFFFFFFFFFFFFFFFFFFFF AND DUP2 MSTORE POP POP DUP8 PUSH2 0x120 DUP2 DUP2 MSTORE POP POP DUP7 PUSH2 0x140 DUP2 DUP2 MSTORE POP POP DUP6 PUSH2 0x160 DUP2 DUP2 MSTORE POP POP DUP5 PUSH2 0x180 DUP2 DUP2 MSTORE POP POP DUP4 PUSH2 0x1A0 DUP2 DUP2 MSTORE POP POP DUP3 PUSH2 0x1C0 DUP2 DUP2 MSTORE POP POP DUP2 PUSH2 0x1E0 DUP2 DUP2 MSTORE POP POP POP POP POP POP POP POP POP POP POP POP PUSH2 0x47E JUMP JUMPDEST PUSH0 DUP1 REVERT JUMPDEST PUSH0 PUSH20 0xFFFFFFFFFFFFFFFFFFFFFFFFFFFFFFFFFFFFFFFF DUP3 AND SWAP1 POP SWAP2 SWAP1 POP JUMP JUMPDEST PUSH0 PUSH2 0x240 DUP3 PUSH2 0x217 JUMP JUMPDEST SWAP1 POP SWAP2 SWAP1 POP JUMP JUMPDEST PUSH0 PUSH2 0x251 DUP3 PUSH2 0x236 JUMP JUMPDEST SWAP1 POP SWAP2 SWAP1 POP JUMP JUMPDEST PUSH2 0x261 DUP2 PUSH2 0x247 JUMP JUMPDEST DUP2 EQ PUSH2 0x26B JUMPI PUSH0 DUP1 REVERT JUMPDEST POP JUMP JUMPDEST PUSH0 DUP2 MLOAD SWAP1 POP PUSH2 0x27C DUP2 PUSH2 0x258 JUMP JUMPDEST SWAP3 SWAP2 POP POP JUMP JUMPDEST PUSH0 DUP2 SWAP1 POP SWAP2 SWAP1 POP JUMP JUMPDEST PUSH2 0x294 DUP2 PUSH2 0x282 JUMP JUMPDEST DUP2 EQ PUSH2 0x29E JUMPI PUSH0 DUP1 REVERT JUMPDEST POP JUMP JUMPDEST PUSH0 DUP2 MLOAD SWAP1 POP PUSH2 0x2AF DUP2 PUSH2 0x28B JUMP JUMPDEST SWAP3 SWAP2 POP POP JUMP JUMPDEST PUSH0 DUP1 PUSH0 DUP1 PUSH0 DUP1 PUSH0 DUP1 PUSH0 DUP1 PUSH2 0x140 DUP12 DUP14 SUB SLT ISZERO PUSH2 0x2D4 JUMPI PUSH2 0x2D3 PUSH2 0x213 JUMP JUMPDEST JUMPDEST PUSH0 PUSH2 0x2E1 DUP14 DUP3 DUP15 ADD PUSH2 0x26E JUMP JUMPDEST SWAP11 POP POP PUSH1 0x20 PUSH2 0x2F2 DUP14 DUP3 DUP15 ADD PUSH2 0x2A1 JUMP JUMPDEST SWAP10 POP POP PUSH1 0x40 PUSH2 0x303 DUP14 DUP3 DUP15 ADD PUSH2 0x2A1 JUMP JUMPDEST SWAP9 POP POP PUSH1 0x60 PUSH2 0x314 DUP14 DUP3 DUP15 ADD PUSH2 0x2A1 JUMP JUMPDEST SWAP8 POP POP PUSH1 0x80 PUSH2 0x325 DUP14 DUP3 DUP15 ADD PUSH2 0x2A1 JUMP JUMPDEST SWAP7 POP POP PUSH1 0xA0 PUSH2 0x336 DUP14 DUP3 DUP15 ADD PUSH2 0x2A1 JUMP JUMPDEST SWAP6 POP POP PUSH1 0xC0 PUSH2 0x347 DUP14 DUP3 DUP15 ADD PUSH2 0x2A1 JUMP JUMPDEST SWAP5 POP POP PUSH1 0xE0 PUSH2 0x358 DUP14 DUP3 DUP15 ADD PUSH2 0x2A1 JUMP JUMPDEST SWAP4 POP POP PUSH2 0x100 PUSH2 0x36A DUP14 DUP3 DUP15 ADD PUSH2 0x2A1 JUMP JUMPDEST SWAP3 POP POP PUSH2 0x120 PUSH2 0x37C DUP14 DUP3 DUP15 ADD PUSH2 0x2A1 JUMP JUMPDEST SWAP2 POP POP SWAP3 SWAP6 SWAP9 SWAP12 SWAP2 SWAP5 SWAP8 SWAP11 POP SWAP3 SWAP6 SWAP9 POP JUMP JUMPDEST PUSH0 DUP2 MLOAD SWAP1 POP SWAP2 SWAP1 POP JUMP JUMPDEST PUSH0 DUP3 DUP3 MSTORE PUSH1 0x20 DUP3 ADD SWAP1 POP SWAP3 SWAP2 POP POP JUMP JUMPDEST DUP3 DUP2 DUP4 MCOPY PUSH0 DUP4 DUP4 ADD MSTORE POP POP POP JUMP JUMPDEST PUSH0 PUSH1 0x1F NOT PUSH1 0x1F DUP4 ADD AND SWAP1 POP SWAP2 SWAP1 POP JUMP JUMPDEST PUSH0 PUSH2 0x3D0 DUP3 PUSH2 0x38E JUMP JUMPDEST PUSH2 0x3DA DUP2 DUP6 PUSH2 0x398 JUMP JUMPDEST SWAP4 POP PUSH2 0x3EA DUP2 DUP6 PUSH1 0x20 DUP7 ADD PUSH2 0x3A8 JUMP JUMPDEST PUSH2 0x3F3 DUP2 PUSH2 0x3B6 JUMP JUMPDEST DUP5 ADD SWAP2 POP POP SWAP3 SWAP2 POP POP JUMP JUMPDEST PUSH0 PUSH1 0x20 DUP3 ADD SWAP1 POP DUP2 DUP2 SUB PUSH0 DUP4 ADD MSTORE PUSH2 0x416 DUP2 DUP5 PUSH2 0x3C6 JUMP JUMPDEST SWAP1 POP SWAP3 SWAP2 POP POP JUMP JUMPDEST PUSH32 0x4E487B7100000000000000000000000000000000000000000000000000000000 PUSH0 MSTORE PUSH1 0x11 PUSH1 0x4 MSTORE PUSH1 0x24 PUSH0 REVERT JUMPDEST PUSH0 PUSH2 0x455 DUP3 PUSH2 0x282 JUMP JUMPDEST SWAP2 POP PUSH2 0x460 DUP4 PUSH2 0x282 JUMP JUMPDEST SWAP3 POP DUP3 DUP3 SUB SWAP1 POP DUP2 DUP2 GT ISZERO PUSH2 0x478 JUMPI PUSH2 0x477 PUSH2 0x41E JUMP JUMPDEST JUMPDEST SWAP3 SWAP2 POP POP JUMP JUMPDEST PUSH1 0x80 MLOAD PUSH1 0xA0 MLOAD PUSH1 0xC0 MLOAD PUSH1 0xE0 MLOAD PUSH2 0x100 MLOAD PUSH2 0x120 MLOAD PUSH2 0x140 MLOAD PUSH2 0x160 MLOAD PUSH2 0x180 MLOAD PUSH2 0x1A0 MLOAD PUSH2 0x1C0 MLOAD PUSH2 0x1E0 MLOAD PUSH2 0x1087 PUSH2 0x58D PUSH0 CODECOPY PUSH0 DUP2 DUP2 PUSH2 0x8D8 ADD MSTORE PUSH2 0xA13 ADD MSTORE PUSH0 PUSH2 0x9C1 ADD MSTORE PUSH0 DUP2 DUP2 PUSH2 0x2F2 ADD MSTORE PUSH2 0x652 ADD MSTORE PUSH0 DUP2 DUP2 PUSH2 0x681 ADD MSTORE DUP2 DUP2 PUSH2 0x76C ADD MSTORE PUSH2 0xA3A ADD MSTORE PUSH0 DUP2 DUP2 PUSH2 0x388 ADD MSTORE DUP2 DUP2 PUSH2 0x6C8 ADD MSTORE PUSH2 0xA61 ADD MSTORE PUSH0 DUP2 DUP2 PUSH2 0x2CB ADD MSTORE DUP2 DUP2 PUSH2 0x3A9 ADD MSTORE DUP2 DUP2 PUSH2 0x6F7 ADD MSTORE DUP2 DUP2 PUSH2 0x7ED ADD MSTORE PUSH2 0x9E2 ADD MSTORE PUSH0 DUP2 DUP2 PUSH2 0x319 ADD MSTORE DUP2 DUP2 PUSH2 0x3CA ADD MSTORE PUSH2 0x436 ADD MSTORE PUSH0 PUSH2 0x2A6 ADD MSTORE PUSH0 DUP2 DUP2 PUSH2 0x873 ADD MSTORE PUSH2 0xA87 ADD MSTORE PUSH0 DUP2 DUP2 PUSH2 0x5ED ADD MSTORE PUSH2 0x99C ADD MSTORE PUSH0 DUP2 DUP2 PUSH2 0x363 ADD MSTORE DUP2 DUP2 PUSH2 0x843 ADD MSTORE PUSH2 0x894 ADD MSTORE PUSH0 DUP2 DUP2 PUSH2 0x33F ADD MSTORE DUP2 DUP2 PUSH2 0x5BD ADD MSTORE DUP2 DUP2 PUSH2 0x60E ADD MSTORE DUP2 DUP2 PUSH2 0x743 ADD MSTORE PUSH2 0x7C4 ADD MSTORE PUSH2 0x1087 PUSH0 RETURN INVALID PUSH1 0x80 PUSH1 0x40 MSTORE CALLVALUE DUP1 ISZERO PUSH2 0xF JUMPI PUSH0 DUP1 REVERT JUMPDEST POP PUSH1 0x4 CALLDATASIZE LT PUSH2 0xE8 JUMPI PUSH0 CALLDATALOAD PUSH1 0xE0 SHR DUP1 PUSH4 0xA5898709 GT PUSH2 0x8A JUMPI DUP1 PUSH4 0xBC626908 GT PUSH2 0x64 JUMPI DUP1 PUSH4 0xBC626908 EQ PUSH2 0x22C JUMPI DUP1 PUSH4 0xD5CD7391 EQ PUSH2 0x24A JUMPI DUP1 PUSH4 0xF4202409 EQ PUSH2 0x268 JUMPI DUP1 PUSH4 0xFE5FD698 EQ PUSH2 0x286 JUMPI PUSH2 0xE8 JUMP JUMPDEST DUP1 PUSH4 0xA5898709 EQ PUSH2 0x1BE JUMPI DUP1 PUSH4 0xA9C622F8 EQ PUSH2 0x1F0 JUMPI DUP1 PUSH4 0xACD78686 EQ PUSH2 0x20E JUMPI PUSH2 0xE8 JUMP JUMPDEST DUP1 PUSH4 0x34762CA5 GT PUSH2 0xC6 JUMPI DUP1 PUSH4 0x34762CA5 EQ PUSH2 0x146 JUMPI DUP1 PUSH4 0x54C365C6 EQ PUSH2 0x164 JUMPI DUP1 PUSH4 0x6FB92589 EQ PUSH2 0x182 JUMPI DUP1 PUSH4 0x80031E37 EQ PUSH2 0x1A0 JUMPI PUSH2 0xE8 JUMP JUMPDEST DUP1 PUSH4 0x542975C EQ PUSH2 0xEC JUMPI DUP1 PUSH4 0xB3429A2 EQ PUSH2 0x10A JUMPI DUP1 PUSH4 0x14E32DA4 EQ PUSH2 0x128 JUMPI JUMPDEST PUSH0 DUP1 REVERT JUMPDEST PUSH2 0xF4 PUSH2 0x2A4 JUMP JUMPDEST PUSH1 0x40 MLOAD PUSH2 0x101 SWAP2 SWAP1 PUSH2 0xCD1 JUMP JUMPDEST PUSH1 0x40 MLOAD DUP1 SWAP2 SUB SWAP1 RETURN JUMPDEST PUSH2 0x112 PUSH2 0x2C8 JUMP JUMPDEST PUSH1 0x40 MLOAD PUSH2 0x11F SWAP2 SWAP1 PUSH2 0xD02 JUMP JUMPDEST PUSH1 0x40 MLOAD DUP1 SWAP2 SUB SWAP1 RETURN JUMPDEST PUSH2 0x130 PUSH2 0x2EF JUMP JUMPDEST PUSH1 0x40 MLOAD PUSH2 0x13D SWAP2 SWAP1 PUSH2 0xD02 JUMP JUMPDEST PUSH1 0x40 MLOAD DUP1 SWAP2 SUB SWAP1 RETURN JUMPDEST PUSH2 0x14E PUSH2 0x316 JUMP JUMPDEST PUSH1 0x40 MLOAD PUSH2 0x15B SWAP2 SWAP1 PUSH2 0xD02 JUMP JUMPDEST PUSH1 0x40 MLOAD DUP1 SWAP2 SUB SWAP1 RETURN JUMPDEST PUSH2 0x16C PUSH2 0x33D JUMP JUMPDEST PUSH1 0x40 MLOAD PUSH2 0x179 SWAP2 SWAP1 PUSH2 0xD02 JUMP JUMPDEST PUSH1 0x40 MLOAD DUP1 SWAP2 SUB SWAP1 RETURN JUMPDEST PUSH2 0x18A PUSH2 0x361 JUMP JUMPDEST PUSH1 0x40 MLOAD PUSH2 0x197 SWAP2 SWAP1 PUSH2 0xD02 JUMP JUMPDEST PUSH1 0x40 MLOAD DUP1 SWAP2 SUB SWAP1 RETURN JUMPDEST PUSH2 0x1A8 PUSH2 0x385 JUMP JUMPDEST PUSH1 0x40 MLOAD PUSH2 0x1B5 SWAP2 SWAP1 PUSH2 0xD02 JUMP JUMPDEST PUSH1 0x40 MLOAD DUP1 SWAP2 SUB SWAP1 RETURN JUMPDEST PUSH2 0x1D8 PUSH1 0x4 DUP1 CALLDATASIZE SUB DUP2 ADD SWAP1 PUSH2 0x1D3 SWAP2 SWAP1 PUSH2 0xEF6 JUMP JUMPDEST PUSH2 0x402 JUMP JUMPDEST PUSH1 0x40 MLOAD PUSH2 0x1E7 SWAP4 SWAP3 SWAP2 SWAP1 PUSH2 0xF22 JUMP JUMPDEST PUSH1 0x40 MLOAD DUP1 SWAP2 SUB SWAP1 RETURN JUMPDEST PUSH2 0x1F8 PUSH2 0x99A JUMP JUMPDEST PUSH1 0x40 MLOAD PUSH2 0x205 SWAP2 SWAP1 PUSH2 0xD02 JUMP JUMPDEST PUSH1 0x40 MLOAD DUP1 SWAP2 SUB SWAP1 RETURN JUMPDEST PUSH2 0x216 PUSH2 0x9BE JUMP JUMPDEST PUSH1 0x40 MLOAD PUSH2 0x223 SWAP2 SWAP1 PUSH2 0xD02 JUMP JUMPDEST PUSH1 0x40 MLOAD DUP1 SWAP2 SUB SWAP1 RETURN JUMPDEST PUSH2 0x234 PUSH2 0xA10 JUMP JUMPDEST PUSH1 0x40 MLOAD PUSH2 0x241 SWAP2 SWAP1 PUSH2 0xD02 JUMP JUMPDEST PUSH1 0x40 MLOAD DUP1 SWAP2 SUB SWAP1 RETURN JUMPDEST PUSH2 0x252 PUSH2 0xA37 JUMP JUMPDEST PUSH1 0x40 MLOAD PUSH2 0x25F SWAP2 SWAP1 PUSH2 0xD02 JUMP JUMPDEST PUSH1 0x40 MLOAD DUP1 SWAP2 SUB SWAP1 RETURN JUMPDEST PUSH2 0x270 PUSH2 0xA5E JUMP JUMPDEST PUSH1 0x40 MLOAD PUSH2 0x27D SWAP2 SWAP1 PUSH2 0xD02 JUMP JUMPDEST PUSH1 0x40 MLOAD DUP1 SWAP2 SUB SWAP1 RETURN JUMPDEST PUSH2 0x28E PUSH2 0xA85 JUMP JUMPDEST PUSH1 0x40 MLOAD PUSH2 0x29B SWAP2 SWAP1 PUSH2 0xD02 JUMP JUMPDEST PUSH1 0x40 MLOAD DUP1 SWAP2 SUB SWAP1 RETURN JUMPDEST PUSH32 0x0 DUP2 JUMP JUMPDEST PUSH0 PUSH32 0x0 SWAP1 POP SWAP1 JUMP JUMPDEST PUSH0 PUSH32 0x0 SWAP1 POP SWAP1 JUMP JUMPDEST PUSH0 PUSH32 0x0 SWAP1 POP SWAP1 JUMP JUMPDEST PUSH32 0x0 DUP2 JUMP JUMPDEST PUSH32 0x0 DUP2 JUMP JUMPDEST PUSH0 PUSH32 0x0 PUSH32 0x0 PUSH32 0x0 PUSH2 0x3F3 SWAP2 SWAP1 PUSH2 0xF84 JUMP JUMPDEST PUSH2 0x3FD SWAP2 SWAP1 PUSH2 0xF84 JUMP JUMPDEST SWAP1 POP SWAP1 JUMP JUMPDEST PUSH0 DUP1 PUSH0 PUSH2 0x40D PUSH2 0xC14 JUMP JUMPDEST DUP5 PUSH1 0x80 ADD MLOAD DUP6 PUSH1 0x60 ADD MLOAD PUSH2 0x421 SWAP2 SWAP1 PUSH2 0xF84 JUMP JUMPDEST DUP2 PUSH1 0x20 ADD DUP2 DUP2 MSTORE POP POP PUSH0 DUP2 PUSH1 0x80 ADD DUP2 DUP2 MSTORE POP POP PUSH32 0x0 DUP2 PUSH1 0x40 ADD DUP2 DUP2 MSTORE POP POP PUSH2 0x466 PUSH2 0x9BE JUMP JUMPDEST DUP2 PUSH1 0x60 ADD DUP2 DUP2 MSTORE POP POP PUSH0 DUP2 PUSH1 0x20 ADD MLOAD EQ PUSH2 0x5BB JUMPI PUSH2 0x495 DUP2 PUSH1 0x20 ADD MLOAD DUP7 PUSH1 0x60 ADD MLOAD PUSH2 0xAA9 SWAP1 SWAP2 SWAP1 PUSH4 0xFFFFFFFF AND JUMP JUMPDEST DUP2 PUSH1 0xE0 ADD DUP2 DUP2 MSTORE POP POP DUP5 PUSH1 0x40 ADD MLOAD DUP6 PUSH1 0x20 ADD MLOAD DUP7 PUSH1 0xE0 ADD MLOAD PUSH20 0xFFFFFFFFFFFFFFFFFFFFFFFFFFFFFFFFFFFFFFFF AND PUSH4 0x70A08231 DUP9 PUSH2 0x100 ADD MLOAD PUSH1 0x40 MLOAD DUP3 PUSH4 0xFFFFFFFF AND PUSH1 0xE0 SHL DUP2 MSTORE PUSH1 0x4 ADD PUSH2 0x4EA SWAP2 SWAP1 PUSH2 0xFC6 JUMP JUMPDEST PUSH1 0x20 PUSH1 0x40 MLOAD DUP1 DUP4 SUB DUP2 DUP7 GAS STATICCALL ISZERO DUP1 ISZERO PUSH2 0x505 JUMPI RETURNDATASIZE PUSH0 DUP1 RETURNDATACOPY RETURNDATASIZE PUSH0 REVERT JUMPDEST POP POP POP POP PUSH1 0x40 MLOAD RETURNDATASIZE PUSH1 0x1F NOT PUSH1 0x1F DUP3 ADD AND DUP3 ADD DUP1 PUSH1 0x40 MSTORE POP DUP2 ADD SWAP1 PUSH2 0x529 SWAP2 SWAP1 PUSH2 0xFF3 JUMP JUMPDEST PUSH2 0x533 SWAP2 SWAP1 PUSH2 0xF84 JUMP JUMPDEST PUSH2 0x53D SWAP2 SWAP1 PUSH2 0x101E JUMP JUMPDEST DUP2 PUSH0 ADD DUP2 DUP2 MSTORE POP POP DUP1 PUSH1 0x20 ADD MLOAD DUP2 PUSH0 ADD MLOAD PUSH2 0x558 SWAP2 SWAP1 PUSH2 0xF84 JUMP JUMPDEST DUP2 PUSH2 0x100 ADD DUP2 DUP2 MSTORE POP POP PUSH2 0x57E DUP2 PUSH2 0x100 ADD MLOAD DUP3 PUSH1 0x20 ADD MLOAD PUSH2 0xAA9 SWAP1 SWAP2 SWAP1 PUSH4 0xFFFFFFFF AND JUMP JUMPDEST DUP2 PUSH1 0xA0 ADD DUP2 DUP2 MSTORE POP POP PUSH2 0x5B1 DUP6 PUSH0 ADD MLOAD DUP3 PUSH2 0x100 ADD MLOAD PUSH2 0x59E SWAP2 SWAP1 PUSH2 0xF84 JUMP JUMPDEST DUP3 PUSH1 0x20 ADD MLOAD PUSH2 0xAA9 SWAP1 SWAP2 SWAP1 PUSH4 0xFFFFFFFF AND JUMP JUMPDEST DUP2 PUSH1 0xC0 ADD DUP2 DUP2 MSTORE POP POP JUMPDEST PUSH32 0x0 DUP2 PUSH1 0xA0 ADD MLOAD GT ISZERO PUSH2 0x73E JUMPI PUSH0 PUSH2 0x64A PUSH32 0x0 PUSH32 0x0 DUP5 PUSH1 0xA0 ADD MLOAD PUSH2 0x63C SWAP2 SWAP1 PUSH2 0x101E JUMP JUMPDEST PUSH2 0xAA9 SWAP1 SWAP2 SWAP1 PUSH4 0xFFFFFFFF AND JUMP JUMPDEST SWAP1 POP PUSH2 0x67F DUP2 PUSH32 0x0 PUSH2 0xAED SWAP1 SWAP2 SWAP1 PUSH4 0xFFFFFFFF AND JUMP JUMPDEST PUSH32 0x0 PUSH2 0x6AA SWAP2 SWAP1 PUSH2 0xF84 JUMP JUMPDEST DUP3 PUSH1 0x60 ADD DUP2 DUP2 MLOAD PUSH2 0x6BB SWAP2 SWAP1 PUSH2 0xF84 JUMP JUMPDEST SWAP2 POP DUP2 DUP2 MSTORE POP POP PUSH2 0x6F5 DUP2 PUSH32 0x0 PUSH2 0xAED SWAP1 SWAP2 SWAP1 PUSH4 0xFFFFFFFF AND JUMP JUMPDEST PUSH32 0x0 PUSH2 0x720 SWAP2 SWAP1 PUSH2 0xF84 JUMP JUMPDEST DUP3 PUSH1 0x40 ADD DUP2 DUP2 MLOAD PUSH2 0x731 SWAP2 SWAP1 PUSH2 0xF84 JUMP JUMPDEST SWAP2 POP DUP2 DUP2 MSTORE POP POP POP PUSH2 0x841 JUMP JUMPDEST PUSH2 0x7A7 PUSH32 0x0 PUSH2 0x799 DUP4 PUSH1 0xA0 ADD MLOAD PUSH32 0x0 PUSH2 0xAED SWAP1 SWAP2 SWAP1 PUSH4 0xFFFFFFFF AND JUMP JUMPDEST PUSH2 0xAA9 SWAP1 SWAP2 SWAP1 PUSH4 0xFFFFFFFF AND JUMP JUMPDEST DUP2 PUSH1 0x60 ADD DUP2 DUP2 MLOAD PUSH2 0x7B8 SWAP2 SWAP1 PUSH2 0xF84 JUMP JUMPDEST SWAP2 POP DUP2 DUP2 MSTORE POP POP PUSH2 0x828 PUSH32 0x0 PUSH2 0x81A DUP4 PUSH1 0xA0 ADD MLOAD PUSH32 0x0 PUSH2 0xAED SWAP1 SWAP2 SWAP1 PUSH4 0xFFFFFFFF AND JUMP JUMPDEST PUSH2 0xAA9 SWAP1 SWAP2 SWAP1 PUSH4 0xFFFFFFFF AND JUMP JUMPDEST DUP2 PUSH1 0x40 ADD DUP2 DUP2 MLOAD PUSH2 0x839 SWAP2 SWAP1 PUSH2 0xF84 JUMP JUMPDEST SWAP2 POP DUP2 DUP2 MSTORE POP POP JUMPDEST PUSH32 0x0 DUP2 PUSH1 0xE0 ADD MLOAD GT ISZERO PUSH2 0x91F JUMPI PUSH0 PUSH2 0x8D0 PUSH32 0x0 PUSH32 0x0 DUP5 PUSH1 0xE0 ADD MLOAD PUSH2 0x8C2 SWAP2 SWAP1 PUSH2 0x101E JUMP JUMPDEST PUSH2 0xAA9 SWAP1 SWAP2 SWAP1 PUSH4 0xFFFFFFFF AND JUMP JUMPDEST SWAP1 POP PUSH2 0x905 DUP2 PUSH32 0x0 PUSH2 0xAED SWAP1 SWAP2 SWAP1 PUSH4 0xFFFFFFFF AND JUMP JUMPDEST DUP3 PUSH1 0x60 ADD DUP2 DUP2 MLOAD PUSH2 0x916 SWAP2 SWAP1 PUSH2 0xF84 JUMP JUMPDEST SWAP2 POP DUP2 DUP2 MSTORE POP POP POP JUMPDEST PUSH2 0x974 DUP6 PUSH1 0xC0 ADD MLOAD PUSH2 0x2710 PUSH2 0x934 SWAP2 SWAP1 PUSH2 0x101E JUMP JUMPDEST PUSH2 0x966 DUP4 PUSH1 0xC0 ADD MLOAD PUSH2 0x958 DUP10 PUSH1 0x60 ADD MLOAD DUP11 PUSH1 0x80 ADD MLOAD DUP8 PUSH1 0x40 ADD MLOAD DUP13 PUSH1 0xA0 ADD MLOAD PUSH2 0xB35 JUMP JUMPDEST PUSH2 0xAED SWAP1 SWAP2 SWAP1 PUSH4 0xFFFFFFFF AND JUMP JUMPDEST PUSH2 0xBCA SWAP1 SWAP2 SWAP1 PUSH4 0xFFFFFFFF AND JUMP JUMPDEST DUP2 PUSH1 0x80 ADD DUP2 DUP2 MSTORE POP POP DUP1 PUSH1 0x80 ADD MLOAD DUP2 PUSH1 0x60 ADD MLOAD DUP3 PUSH1 0x40 ADD MLOAD SWAP4 POP SWAP4 POP SWAP4 POP POP SWAP2 SWAP4 SWAP1 SWAP3 POP JUMP JUMPDEST PUSH32 0x0 DUP2 JUMP JUMPDEST PUSH0 PUSH32 0x0 PUSH32 0x0 PUSH2 0xA0B SWAP2 SWAP1 PUSH2 0xF84 JUMP JUMPDEST SWAP1 POP SWAP1 JUMP JUMPDEST PUSH0 PUSH32 0x0 SWAP1 POP SWAP1 JUMP JUMPDEST PUSH0 PUSH32 0x0 SWAP1 POP SWAP1 JUMP JUMPDEST PUSH0 PUSH32 0x0 SWAP1 POP SWAP1 JUMP JUMPDEST PUSH32 0x0 DUP2 JUMP JUMPDEST PUSH0 PUSH12 0x33B2E3C9FD0803CE8000000 PUSH1 0x2 DUP4 DIV PUSH0 NOT SUB DIV DUP4 GT ISZERO ISZERO DUP3 ISZERO OR ISZERO PUSH2 0xACF JUMPI PUSH0 DUP1 REVERT JUMPDEST DUP2 PUSH1 0x2 DUP4 DIV PUSH12 0x33B2E3C9FD0803CE8000000 DUP6 MUL ADD DIV SWAP1 POP SWAP3 SWAP2 POP POP JUMP JUMPDEST PUSH0 DUP2 PUSH12 0x19D971E4FE8401E74000000 PUSH0 NOT SUB DIV DUP4 GT ISZERO DUP3 ISZERO OR PUSH2 0xB0E JUMPI PUSH0 DUP1 REVERT JUMPDEST PUSH12 0x33B2E3C9FD0803CE8000000 PUSH12 0x19D971E4FE8401E74000000 DUP4 DUP6 MUL ADD DIV SWAP1 POP SWAP3 SWAP2 POP POP JUMP JUMPDEST PUSH0 DUP1 DUP5 DUP7 PUSH2 0xB43 SWAP2 SWAP1 PUSH2 0xF84 JUMP JUMPDEST SWAP1 POP PUSH0 DUP2 SUB PUSH2 0xB55 JUMPI PUSH0 SWAP2 POP POP PUSH2 0xBC2 JUMP JUMPDEST PUSH0 PUSH2 0xB71 DUP6 PUSH2 0xB63 DUP9 PUSH2 0xBF4 JUMP JUMPDEST PUSH2 0xAED SWAP1 SWAP2 SWAP1 PUSH4 0xFFFFFFFF AND JUMP JUMPDEST SWAP1 POP PUSH0 PUSH2 0xB8F DUP6 PUSH2 0xB81 DUP11 PUSH2 0xBF4 JUMP JUMPDEST PUSH2 0xAED SWAP1 SWAP2 SWAP1 PUSH4 0xFFFFFFFF AND JUMP JUMPDEST SWAP1 POP PUSH0 PUSH2 0xBB8 PUSH2 0xB9E DUP6 PUSH2 0xBF4 JUMP JUMPDEST DUP4 DUP6 PUSH2 0xBAA SWAP2 SWAP1 PUSH2 0xF84 JUMP JUMPDEST PUSH2 0xAA9 SWAP1 SWAP2 SWAP1 PUSH4 0xFFFFFFFF AND JUMP JUMPDEST SWAP1 POP DUP1 SWAP5 POP POP POP POP POP JUMPDEST SWAP5 SWAP4 POP POP POP POP JUMP JUMPDEST PUSH0 DUP2 PUSH2 0x1388 PUSH0 NOT SUB DIV DUP4 GT ISZERO DUP3 ISZERO OR PUSH2 0xBE1 JUMPI PUSH0 DUP1 REVERT JUMPDEST PUSH2 0x2710 PUSH2 0x1388 DUP4 DUP6 MUL ADD DIV SWAP1 POP SWAP3 SWAP2 POP POP JUMP JUMPDEST PUSH0 PUSH4 0x3B9ACA00 DUP3 MUL SWAP1 POP DUP2 PUSH4 0x3B9ACA00 DUP3 DIV EQ PUSH2 0xC0F JUMPI PUSH0 DUP1 REVERT JUMPDEST SWAP2 SWAP1 POP JUMP JUMPDEST PUSH1 0x40 MLOAD DUP1 PUSH2 0x120 ADD PUSH1 0x40 MSTORE DUP1 PUSH0 DUP2 MSTORE PUSH1 0x20 ADD PUSH0 DUP2 MSTORE PUSH1 0x20 ADD PUSH0 DUP2 MSTORE PUSH1 0x20 ADD PUSH0 DUP2 MSTORE PUSH1 0x20 ADD PUSH0 DUP2 MSTORE PUSH1 0x20 ADD PUSH0 DUP2 MSTORE PUSH1 0x20 ADD PUSH0 DUP2 MSTORE PUSH1 0x20 ADD PUSH0 DUP2 MSTORE PUSH1 0x20 ADD PUSH0 DUP2 MSTORE POP SWAP1 JUMP JUMPDEST PUSH0 PUSH20 0xFFFFFFFFFFFFFFFFFFFFFFFFFFFFFFFFFFFFFFFF DUP3 AND SWAP1 POP SWAP2 SWAP1 POP JUMP JUMPDEST PUSH0 DUP2 SWAP1 POP SWAP2 SWAP1 POP JUMP JUMPDEST PUSH0 PUSH2 0xC99 PUSH2 0xC94 PUSH2 0xC8F DUP5 PUSH2 0xC57 JUMP JUMPDEST PUSH2 0xC76 JUMP JUMPDEST PUSH2 0xC57 JUMP JUMPDEST SWAP1 POP SWAP2 SWAP1 POP JUMP JUMPDEST PUSH0 PUSH2 0xCAA DUP3 PUSH2 0xC7F JUMP JUMPDEST SWAP1 POP SWAP2 SWAP1 POP JUMP JUMPDEST PUSH0 PUSH2 0xCBB DUP3 PUSH2 0xCA0 JUMP JUMPDEST SWAP1 POP SWAP2 SWAP1 POP JUMP JUMPDEST PUSH2 0xCCB DUP2 PUSH2 0xCB1 JUMP JUMPDEST DUP3 MSTORE POP POP JUMP JUMPDEST PUSH0 PUSH1 0x20 DUP3 ADD SWAP1 POP PUSH2 0xCE4 PUSH0 DUP4 ADD DUP5 PUSH2 0xCC2 JUMP JUMPDEST SWAP3 SWAP2 POP POP JUMP JUMPDEST PUSH0 DUP2 SWAP1 POP SWAP2 SWAP1 POP JUMP JUMPDEST PUSH2 0xCFC DUP2 PUSH2 0xCEA JUMP JUMPDEST DUP3 MSTORE POP POP JUMP JUMPDEST PUSH0 PUSH1 0x20 DUP3 ADD SWAP1 POP PUSH2 0xD15 PUSH0 DUP4 ADD DUP5 PUSH2 0xCF3 JUMP JUMPDEST SWAP3 SWAP2 POP POP JUMP JUMPDEST PUSH0 PUSH1 0x40 MLOAD SWAP1 POP SWAP1 JUMP JUMPDEST PUSH0 DUP1 REVERT JUMPDEST PUSH0 DUP1 REVERT JUMPDEST PUSH0 PUSH1 0x1F NOT PUSH1 0x1F DUP4 ADD AND SWAP1 POP SWAP2 SWAP1 POP JUMP JUMPDEST PUSH32 0x4E487B7100000000000000000000000000000000000000000000000000000000 PUSH0 MSTORE PUSH1 0x41 PUSH1 0x4 MSTORE PUSH1 0x24 PUSH0 REVERT JUMPDEST PUSH2 0xD72 DUP3 PUSH2 0xD2C JUMP JUMPDEST DUP2 ADD DUP2 DUP2 LT PUSH8 0xFFFFFFFFFFFFFFFF DUP3 GT OR ISZERO PUSH2 0xD91 JUMPI PUSH2 0xD90 PUSH2 0xD3C JUMP JUMPDEST JUMPDEST DUP1 PUSH1 0x40 MSTORE POP POP POP JUMP JUMPDEST PUSH0 PUSH2 0xDA3 PUSH2 0xD1B JUMP JUMPDEST SWAP1 POP PUSH2 0xDAF DUP3 DUP3 PUSH2 0xD69 JUMP JUMPDEST SWAP2 SWAP1 POP JUMP JUMPDEST PUSH2 0xDBD DUP2 PUSH2 0xCEA JUMP JUMPDEST DUP2 EQ PUSH2 0xDC7 JUMPI PUSH0 DUP1 REVERT JUMPDEST POP JUMP JUMPDEST PUSH0 DUP2 CALLDATALOAD SWAP1 POP PUSH2 0xDD8 DUP2 PUSH2 0xDB4 JUMP JUMPDEST SWAP3 SWAP2 POP POP JUMP JUMPDEST PUSH0 PUSH2 0xDE8 DUP3 PUSH2 0xC57 JUMP JUMPDEST SWAP1 POP SWAP2 SWAP1 POP JUMP JUMPDEST PUSH2 0xDF8 DUP2 PUSH2 0xDDE JUMP JUMPDEST DUP2 EQ PUSH2 0xE02 JUMPI PUSH0 DUP1 REVERT JUMPDEST POP JUMP JUMPDEST PUSH0 DUP2 CALLDATALOAD SWAP1 POP PUSH2 0xE13 DUP2 PUSH2 0xDEF JUMP JUMPDEST SWAP3 SWAP2 POP POP JUMP JUMPDEST PUSH0 PUSH2 0x120 DUP3 DUP5 SUB SLT ISZERO PUSH2 0xE2F JUMPI PUSH2 0xE2E PUSH2 0xD28 JUMP JUMPDEST JUMPDEST PUSH2 0xE3A PUSH2 0x120 PUSH2 0xD9A JUMP JUMPDEST SWAP1 POP PUSH0 PUSH2 0xE49 DUP5 DUP3 DUP6 ADD PUSH2 0xDCA JUMP JUMPDEST PUSH0 DUP4 ADD MSTORE POP PUSH1 0x20 PUSH2 0xE5C DUP5 DUP3 DUP6 ADD PUSH2 0xDCA JUMP JUMPDEST PUSH1 0x20 DUP4 ADD MSTORE POP PUSH1 0x40 PUSH2 0xE70 DUP5 DUP3 DUP6 ADD PUSH2 0xDCA JUMP JUMPDEST PUSH1 0x40 DUP4 ADD MSTORE POP PUSH1 0x60 PUSH2 0xE84 DUP5 DUP3 DUP6 ADD PUSH2 0xDCA JUMP JUMPDEST PUSH1 0x60 DUP4 ADD MSTORE POP PUSH1 0x80 PUSH2 0xE98 DUP5 DUP3 DUP6 ADD PUSH2 0xDCA JUMP JUMPDEST PUSH1 0x80 DUP4 ADD MSTORE POP PUSH1 0xA0 PUSH2 0xEAC DUP5 DUP3 DUP6 ADD PUSH2 0xDCA JUMP JUMPDEST PUSH1 0xA0 DUP4 ADD MSTORE POP PUSH1 0xC0 PUSH2 0xEC0 DUP5 DUP3 DUP6 ADD PUSH2 0xDCA JUMP JUMPDEST PUSH1 0xC0 DUP4 ADD MSTORE POP PUSH1 0xE0 PUSH2 0xED4 DUP5 DUP3 DUP6 ADD PUSH2 0xE05 JUMP JUMPDEST PUSH1 0xE0 DUP4 ADD MSTORE POP PUSH2 0x100 PUSH2 0xEE9 DUP5 DUP3 DUP6 ADD PUSH2 0xE05 JUMP JUMPDEST PUSH2 0x100 DUP4 ADD MSTORE POP SWAP3 SWAP2 POP POP JUMP JUMPDEST PUSH0 PUSH2 0x120 DUP3 DUP5 SUB SLT ISZERO PUSH2 0xF0C JUMPI PUSH2 0xF0B PUSH2 0xD24 JUMP JUMPDEST JUMPDEST PUSH0 PUSH2 0xF19 DUP5 DUP3 DUP6 ADD PUSH2 0xE19 JUMP JUMPDEST SWAP2 POP POP SWAP3 SWAP2 POP POP JUMP JUMPDEST PUSH0 PUSH1 0x60 DUP3 ADD SWAP1 POP PUSH2 0xF35 PUSH0 DUP4 ADD DUP7 PUSH2 0xCF3 JUMP JUMPDEST PUSH2 0xF42 PUSH1 0x20 DUP4 ADD DUP6 PUSH2 0xCF3 JUMP JUMPDEST PUSH2 0xF4F PUSH1 0x40 DUP4 ADD DUP5 PUSH2 0xCF3 JUMP JUMPDEST SWAP5 SWAP4 POP POP POP POP JUMP JUMPDEST PUSH32 0x4E487B7100000000000000000000000000000000000000000000000000000000 PUSH0 MSTORE PUSH1 0x11 PUSH1 0x4 MSTORE PUSH1 0x24 PUSH0 REVERT JUMPDEST PUSH0 PUSH2 0xF8E DUP3 PUSH2 0xCEA JUMP JUMPDEST SWAP2 POP PUSH2 0xF99 DUP4 PUSH2 0xCEA JUMP JUMPDEST SWAP3 POP DUP3 DUP3 ADD SWAP1 POP DUP1 DUP3 GT ISZERO PUSH2 0xFB1 JUMPI PUSH2 0xFB0 PUSH2 0xF57 JUMP JUMPDEST JUMPDEST SWAP3 SWAP2 POP POP JUMP JUMPDEST PUSH2 0xFC0 DUP2 PUSH2 0xDDE JUMP JUMPDEST DUP3 MSTORE POP POP JUMP JUMPDEST PUSH0 PUSH1 0x20 DUP3 ADD SWAP1 POP PUSH2 0xFD9 PUSH0 DUP4 ADD DUP5 PUSH2 0xFB7 JUMP JUMPDEST SWAP3 SWAP2 POP POP JUMP JUMPDEST PUSH0 DUP2 MLOAD SWAP1 POP PUSH2 0xFED DUP2 PUSH2 0xDB4 JUMP JUMPDEST SWAP3 SWAP2 POP POP JUMP JUMPDEST PUSH0 PUSH1 0x20 DUP3 DUP5 SUB SLT ISZERO PUSH2 0x1008 JUMPI PUSH2 0x1007 PUSH2 0xD24 JUMP JUMPDEST JUMPDEST PUSH0 PUSH2 0x1015 DUP5 DUP3 DUP6 ADD PUSH2 0xFDF JUMP JUMPDEST SWAP2 POP POP SWAP3 SWAP2 POP POP JUMP JUMPDEST PUSH0 PUSH2 0x1028 DUP3 PUSH2 0xCEA JUMP JUMPDEST SWAP2 POP PUSH2 0x1033 DUP4 PUSH2 0xCEA JUMP JUMPDEST SWAP3 POP DUP3 DUP3 SUB SWAP1 POP DUP2 DUP2 GT ISZERO PUSH2 0x104B JUMPI PUSH2 0x104A PUSH2 0xF57 JUMP JUMPDEST JUMPDEST SWAP3 SWAP2 POP POP JUMP INVALID LOG2 PUSH5 0x6970667358 0x22 SLT KECCAK256 0x24 0xCC INVALID 0xC1 0x25 0xC8 SWAP14 PUSH11 0xFA7B31A6276089690761B1 SLOAD PUSH21 0xD5E94E36E35557281B195464736F6C634300081A00 CALLER "
				},
				"gasEstimates": {
					"creation": {
						"codeDepositCost": "846200",
						"executionCost": "infinite",
						"totalCost": "infinite"
					},
					"external": {
						"ADDRESSES_PROVIDER()": "infinite",
						"MAX_EXCESS_STABLE_TO_TOTAL_DEBT_RATIO()": "infinite",
						"MAX_EXCESS_USAGE_RATIO()": "infinite",
						"OPTIMAL_STABLE_TO_TOTAL_DEBT_RATIO()": "infinite",
						"OPTIMAL_USAGE_RATIO()": "infinite",
						"calculateInterestRates((uint256,uint256,uint256,uint256,uint256,uint256,uint256,address,address))": "infinite",
						"getBaseStableBorrowRate()": "infinite",
						"getBaseVariableBorrowRate()": "infinite",
						"getMaxVariableBorrowRate()": "infinite",
						"getStableRateExcessOffset()": "infinite",
						"getStableRateSlope1()": "infinite",
						"getStableRateSlope2()": "infinite",
						"getVariableRateSlope1()": "infinite",
						"getVariableRateSlope2()": "infinite"
					},
					"internal": {
						"_getOverallBorrowRate(uint256,uint256,uint256,uint256)": "infinite"
					}
				},
				"methodIdentifiers": {
					"ADDRESSES_PROVIDER()": "0542975c",
					"MAX_EXCESS_STABLE_TO_TOTAL_DEBT_RATIO()": "fe5fd698",
					"MAX_EXCESS_USAGE_RATIO()": "a9c622f8",
					"OPTIMAL_STABLE_TO_TOTAL_DEBT_RATIO()": "6fb92589",
					"OPTIMAL_USAGE_RATIO()": "54c365c6",
					"calculateInterestRates((uint256,uint256,uint256,uint256,uint256,uint256,uint256,address,address))": "a5898709",
					"getBaseStableBorrowRate()": "acd78686",
					"getBaseVariableBorrowRate()": "34762ca5",
					"getMaxVariableBorrowRate()": "80031e37",
					"getStableRateExcessOffset()": "bc626908",
					"getStableRateSlope1()": "d5cd7391",
					"getStableRateSlope2()": "14e32da4",
					"getVariableRateSlope1()": "0b3429a2",
					"getVariableRateSlope2()": "f4202409"
				}
			},
			"storageLayout": {
				"storage": [],
				"types": null
			},
			"userdoc": {
				"kind": "user",
				"methods": {
					"ADDRESSES_PROVIDER()": {
						"notice": "Returns the address of the PoolAddressesProvider"
					},
					"MAX_EXCESS_STABLE_TO_TOTAL_DEBT_RATIO()": {
						"notice": "Returns the excess stable debt ratio above the optimal."
					},
					"MAX_EXCESS_USAGE_RATIO()": {
						"notice": "Returns the excess usage ratio above the optimal."
					},
					"OPTIMAL_STABLE_TO_TOTAL_DEBT_RATIO()": {
						"notice": "Returns the optimal stable to total debt ratio of the reserve."
					},
					"OPTIMAL_USAGE_RATIO()": {
						"notice": "Returns the usage ratio at which the pool aims to obtain most competitive borrow rates."
					},
					"calculateInterestRates((uint256,uint256,uint256,uint256,uint256,uint256,uint256,address,address))": {
						"notice": "Calculates the interest rates depending on the reserve's state and configurations"
					},
					"getBaseStableBorrowRate()": {
						"notice": "Returns the base stable borrow rate"
					},
					"getBaseVariableBorrowRate()": {
						"notice": "Returns the base variable borrow rate"
					},
					"getMaxVariableBorrowRate()": {
						"notice": "Returns the maximum variable borrow rate"
					},
					"getStableRateExcessOffset()": {
						"notice": "Returns the stable rate excess offset"
					},
					"getStableRateSlope1()": {
						"notice": "Returns the stable rate slope below optimal usage ratio"
					},
					"getStableRateSlope2()": {
						"notice": "Returns the stable rate slope above optimal usage ratio"
					},
					"getVariableRateSlope1()": {
						"notice": "Returns the variable rate slope below optimal usage ratio"
					},
					"getVariableRateSlope2()": {
						"notice": "Returns the variable rate slope above optimal usage ratio"
					}
				},
				"notice": "Implements the calculation of the interest rates depending on the reserve state",
				"version": 1
			}
		}
	}
}