{
	"contracts/protocol/libraries/configuration/ReserveConfiguration.sol": {
		"ReserveConfiguration": {
			"abi": [
				{
					"inputs": [],
					"name": "DEBT_CEILING_DECIMALS",
					"outputs": [
						{
							"internalType": "uint256",
							"name": "",
							"type": "uint256"
						}
					],
					"stateMutability": "view",
					"type": "function"
				},
				{
					"inputs": [],
					"name": "MAX_RESERVES_COUNT",
					"outputs": [
						{
							"internalType": "uint16",
							"name": "",
							"type": "uint16"
						}
					],
					"stateMutability": "view",
					"type": "function"
				}
			],
			"devdoc": {
				"author": "Aave",
				"kind": "dev",
				"methods": {},
				"stateVariables": {
					"LIQUIDATION_THRESHOLD_START_BIT_POSITION": {
						"details": "For the LTV, the start bit is 0 (up to 15), hence no bitshifting is needed"
					}
				},
				"title": "ReserveConfiguration library",
				"version": 1
			},
			"evm": {
				"assembly": "    /* \"contracts/protocol/libraries/configuration/ReserveConfiguration.sol\":308:24264  library ReserveConfiguration {... */\n  dataSize(sub_0)\n  dataOffset(sub_0)\n  0x0b\n  dup3\n  dup3\n  dup3\n  codecopy\n  dup1\n  mload\n  0x00\n  byte\n  0x73\n  eq\n  tag_1\n  jumpi\n  mstore(0x00, 0x4e487b7100000000000000000000000000000000000000000000000000000000)\n  mstore(0x04, 0x00)\n  revert(0x00, 0x24)\ntag_1:\n  mstore(0x00, address)\n  0x73\n  dup2\n  mstore8\n  dup3\n  dup2\n  return\nstop\n\nsub_0: assembly {\n        /* \"contracts/protocol/libraries/configuration/ReserveConfiguration.sol\":308:24264  library ReserveConfiguration {... */\n      eq(address, deployTimeAddress())\n      mstore(0x40, 0x80)\n      jumpi(tag_1, lt(calldatasize, 0x04))\n      shr(0xe0, calldataload(0x00))\n      dup1\n      0x280d5de9\n      eq\n      tag_2\n      jumpi\n      dup1\n      0x31b561ba\n      eq\n      tag_3\n      jumpi\n    tag_1:\n      0x00\n      dup1\n      revert\n        /* \"contracts/protocol/libraries/configuration/ReserveConfiguration.sol\":5251:5300  uint256 public constant DEBT_CEILING_DECIMALS = 2 */\n    tag_2:\n      tag_4\n      tag_5\n      jump\t// in\n    tag_4:\n      mload(0x40)\n      tag_6\n      swap2\n      swap1\n      tag_7\n      jump\t// in\n    tag_6:\n      mload(0x40)\n      dup1\n      swap2\n      sub\n      swap1\n      return\n        /* \"contracts/protocol/libraries/configuration/ReserveConfiguration.sol\":5305:5352  uint16 public constant MAX_RESERVES_COUNT = 128 */\n    tag_3:\n      tag_8\n      tag_9\n      jump\t// in\n    tag_8:\n      mload(0x40)\n      tag_10\n      swap2\n      swap1\n      tag_11\n      jump\t// in\n    tag_10:\n      mload(0x40)\n      dup1\n      swap2\n      sub\n      swap1\n      return\n        /* \"contracts/protocol/libraries/configuration/ReserveConfiguration.sol\":5251:5300  uint256 public constant DEBT_CEILING_DECIMALS = 2 */\n    tag_5:\n        /* \"contracts/protocol/libraries/configuration/ReserveConfiguration.sol\":5299:5300  2 */\n      0x02\n        /* \"contracts/protocol/libraries/configuration/ReserveConfiguration.sol\":5251:5300  uint256 public constant DEBT_CEILING_DECIMALS = 2 */\n      dup2\n      jump\t// out\n        /* \"contracts/protocol/libraries/configuration/ReserveConfiguration.sol\":5305:5352  uint16 public constant MAX_RESERVES_COUNT = 128 */\n    tag_9:\n        /* \"contracts/protocol/libraries/configuration/ReserveConfiguration.sol\":5349:5352  128 */\n      0x80\n        /* \"contracts/protocol/libraries/configuration/ReserveConfiguration.sol\":5305:5352  uint16 public constant MAX_RESERVES_COUNT = 128 */\n      dup2\n      jump\t// out\n        /* \"#utility.yul\":7:84   */\n    tag_12:\n        /* \"#utility.yul\":44:51   */\n      0x00\n        /* \"#utility.yul\":73:78   */\n      dup2\n        /* \"#utility.yul\":62:78   */\n      swap1\n      pop\n        /* \"#utility.yul\":7:84   */\n      swap2\n      swap1\n      pop\n      jump\t// out\n        /* \"#utility.yul\":90:216   */\n    tag_13:\n        /* \"#utility.yul\":185:209   */\n      tag_19\n        /* \"#utility.yul\":203:208   */\n      dup2\n        /* \"#utility.yul\":185:209   */\n      tag_12\n      jump\t// in\n    tag_19:\n        /* \"#utility.yul\":180:183   */\n      dup3\n        /* \"#utility.yul\":173:210   */\n      mstore\n        /* \"#utility.yul\":90:216   */\n      pop\n      pop\n      jump\t// out\n        /* \"#utility.yul\":222:460   */\n    tag_7:\n        /* \"#utility.yul\":323:327   */\n      0x00\n        /* \"#utility.yul\":361:363   */\n      0x20\n        /* \"#utility.yul\":350:359   */\n      dup3\n        /* \"#utility.yul\":346:364   */\n      add\n        /* \"#utility.yul\":338:364   */\n      swap1\n      pop\n        /* \"#utility.yul\":374:453   */\n      tag_21\n        /* \"#utility.yul\":450:451   */\n      0x00\n        /* \"#utility.yul\":439:448   */\n      dup4\n        /* \"#utility.yul\":435:452   */\n      add\n        /* \"#utility.yul\":426:432   */\n      dup5\n        /* \"#utility.yul\":374:453   */\n      tag_13\n      jump\t// in\n    tag_21:\n        /* \"#utility.yul\":222:460   */\n      swap3\n      swap2\n      pop\n      pop\n      jump\t// out\n        /* \"#utility.yul\":466:555   */\n    tag_14:\n        /* \"#utility.yul\":502:509   */\n      0x00\n        /* \"#utility.yul\":542:548   */\n      0xffff\n        /* \"#utility.yul\":535:540   */\n      dup3\n        /* \"#utility.yul\":531:549   */\n      and\n        /* \"#utility.yul\":520:549   */\n      swap1\n      pop\n        /* \"#utility.yul\":466:555   */\n      swap2\n      swap1\n      pop\n      jump\t// out\n        /* \"#utility.yul\":561:684   */\n    tag_15:\n        /* \"#utility.yul\":654:677   */\n      tag_24\n        /* \"#utility.yul\":671:676   */\n      dup2\n        /* \"#utility.yul\":654:677   */\n      tag_14\n      jump\t// in\n    tag_24:\n        /* \"#utility.yul\":649:652   */\n      dup3\n        /* \"#utility.yul\":642:678   */\n      mstore\n        /* \"#utility.yul\":561:684   */\n      pop\n      pop\n      jump\t// out\n        /* \"#utility.yul\":690:924   */\n    tag_11:\n        /* \"#utility.yul\":789:793   */\n      0x00\n        /* \"#utility.yul\":827:829   */\n      0x20\n        /* \"#utility.yul\":816:825   */\n      dup3\n        /* \"#utility.yul\":812:830   */\n      add\n        /* \"#utility.yul\":804:830   */\n      swap1\n      pop\n        /* \"#utility.yul\":840:917   */\n      tag_26\n        /* \"#utility.yul\":914:915   */\n      0x00\n        /* \"#utility.yul\":903:912   */\n      dup4\n        /* \"#utility.yul\":899:916   */\n      add\n        /* \"#utility.yul\":890:896   */\n      dup5\n        /* \"#utility.yul\":840:917   */\n      tag_15\n      jump\t// in\n    tag_26:\n        /* \"#utility.yul\":690:924   */\n      swap3\n      swap2\n      pop\n      pop\n      jump\t// out\n\n    auxdata: 0xa2646970667358221220b71a59f2fb4e73cb808d955392bc63868ff89bed277b89c3fdf6f71f1065e9f064736f6c634300081a0033\n}\n",
				"bytecode": {
					"linkReferences": {},
					"object": "61011261004d600b8282823980515f1a6073146041577f4e487b71000000000000000000000000000000000000000000000000000000005f525f60045260245ffd5b305f52607381538281f3fe7300000000000000000000000000000000000000003014608060405260043610603c575f3560e01c8063280d5de914604057806331b561ba14605a575b5f80fd5b60466074565b604051605191906094565b60405180910390f35b60606079565b604051606b919060c5565b60405180910390f35b600281565b608081565b5f819050919050565b608e81607e565b82525050565b5f60208201905060a55f8301846087565b92915050565b5f61ffff82169050919050565b60bf8160ab565b82525050565b5f60208201905060d65f83018460b8565b9291505056fea2646970667358221220b71a59f2fb4e73cb808d955392bc63868ff89bed277b89c3fdf6f71f1065e9f064736f6c634300081a0033",
					"opcodes": "PUSH2 0x112 PUSH2 0x4D PUSH1 0xB DUP3 DUP3 DUP3 CODECOPY DUP1 MLOAD PUSH0 BYTE PUSH1 0x73 EQ PUSH1 0x41 JUMPI PUSH32 0x4E487B7100000000000000000000000000000000000000000000000000000000 PUSH0 MSTORE PUSH0 PUSH1 0x4 MSTORE PUSH1 0x24 PUSH0 REVERT JUMPDEST ADDRESS PUSH0 MSTORE PUSH1 0x73 DUP2 MSTORE8 DUP3 DUP2 RETURN INVALID PUSH20 0x0 ADDRESS EQ PUSH1 0x80 PUSH1 0x40 MSTORE PUSH1 0x4 CALLDATASIZE LT PUSH1 0x3C JUMPI PUSH0 CALLDATALOAD PUSH1 0xE0 SHR DUP1 PUSH4 0x280D5DE9 EQ PUSH1 0x40 JUMPI DUP1 PUSH4 0x31B561BA EQ PUSH1 0x5A JUMPI JUMPDEST PUSH0 DUP1 REVERT JUMPDEST PUSH1 0x46 PUSH1 0x74 JUMP JUMPDEST PUSH1 0x40 MLOAD PUSH1 0x51 SWAP2 SWAP1 PUSH1 0x94 JUMP JUMPDEST PUSH1 0x40 MLOAD DUP1 SWAP2 SUB SWAP1 RETURN JUMPDEST PUSH1 0x60 PUSH1 0x79 JUMP JUMPDEST PUSH1 0x40 MLOAD PUSH1 0x6B SWAP2 SWAP1 PUSH1 0xC5 JUMP JUMPDEST PUSH1 0x40 MLOAD DUP1 SWAP2 SUB SWAP1 RETURN JUMPDEST PUSH1 0x2 DUP2 JUMP JUMPDEST PUSH1 0x80 DUP2 JUMP JUMPDEST PUSH0 DUP2 SWAP1 POP SWAP2 SWAP1 POP JUMP JUMPDEST PUSH1 0x8E DUP2 PUSH1 0x7E JUMP JUMPDEST DUP3 MSTORE POP POP JUMP JUMPDEST PUSH0 PUSH1 0x20 DUP3 ADD SWAP1 POP PUSH1 0xA5 PUSH0 DUP4 ADD DUP5 PUSH1 0x87 JUMP JUMPDEST SWAP3 SWAP2 POP POP JUMP JUMPDEST PUSH0 PUSH2 0xFFFF DUP3 AND SWAP1 POP SWAP2 SWAP1 POP JUMP JUMPDEST PUSH1 0xBF DUP2 PUSH1 0xAB JUMP JUMPDEST DUP3 MSTORE POP POP JUMP JUMPDEST PUSH0 PUSH1 0x20 DUP3 ADD SWAP1 POP PUSH1 0xD6 PUSH0 DUP4 ADD DUP5 PUSH1 0xB8 JUMP JUMPDEST SWAP3 SWAP2 POP POP JUMP INVALID LOG2 PUSH5 0x6970667358 0x22 SLT KECCAK256 0xB7 BYTE MSIZE CALLCODE 0xFB 0x4E PUSH20 0xCB808D955392BC63868FF89BED277B89C3FDF6F7 0x1F LT PUSH6 0xE9F064736F6C PUSH4 0x4300081A STOP CALLER "
				},
				"gasEstimates": {
					"creation": {
						"codeDepositCost": "54800",
						"executionCost": "128",
						"totalCost": "54928"
					},
					"external": {
						"DEBT_CEILING_DECIMALS()": "287",
						"MAX_RESERVES_COUNT()": "315"
					},
					"internal": {
						"getActive(struct DataTypes.ReserveConfigurationMap memory)": "infinite",
						"getBorrowCap(struct DataTypes.ReserveConfigurationMap memory)": "infinite",
						"getBorrowableInIsolation(struct DataTypes.ReserveConfigurationMap memory)": "infinite",
						"getBorrowingEnabled(struct DataTypes.ReserveConfigurationMap memory)": "infinite",
						"getCaps(struct DataTypes.ReserveConfigurationMap memory)": "infinite",
						"getDebtCeiling(struct DataTypes.ReserveConfigurationMap memory)": "infinite",
						"getDecimals(struct DataTypes.ReserveConfigurationMap memory)": "infinite",
						"getEModeCategory(struct DataTypes.ReserveConfigurationMap memory)": "infinite",
						"getFlags(struct DataTypes.ReserveConfigurationMap memory)": "infinite",
						"getFlashLoanEnabled(struct DataTypes.ReserveConfigurationMap memory)": "infinite",
						"getFrozen(struct DataTypes.ReserveConfigurationMap memory)": "infinite",
						"getLiquidationBonus(struct DataTypes.ReserveConfigurationMap memory)": "infinite",
						"getLiquidationProtocolFee(struct DataTypes.ReserveConfigurationMap memory)": "infinite",
						"getLiquidationThreshold(struct DataTypes.ReserveConfigurationMap memory)": "infinite",
						"getLtv(struct DataTypes.ReserveConfigurationMap memory)": "infinite",
						"getParams(struct DataTypes.ReserveConfigurationMap memory)": "infinite",
						"getPaused(struct DataTypes.ReserveConfigurationMap memory)": "infinite",
						"getReserveFactor(struct DataTypes.ReserveConfigurationMap memory)": "infinite",
						"getSiloedBorrowing(struct DataTypes.ReserveConfigurationMap memory)": "infinite",
						"getStableRateBorrowingEnabled(struct DataTypes.ReserveConfigurationMap memory)": "infinite",
						"getSupplyCap(struct DataTypes.ReserveConfigurationMap memory)": "infinite",
						"getUnbackedMintCap(struct DataTypes.ReserveConfigurationMap memory)": "infinite",
						"setActive(struct DataTypes.ReserveConfigurationMap memory,bool)": "infinite",
						"setBorrowCap(struct DataTypes.ReserveConfigurationMap memory,uint256)": "infinite",
						"setBorrowableInIsolation(struct DataTypes.ReserveConfigurationMap memory,bool)": "infinite",
						"setBorrowingEnabled(struct DataTypes.ReserveConfigurationMap memory,bool)": "infinite",
						"setDebtCeiling(struct DataTypes.ReserveConfigurationMap memory,uint256)": "infinite",
						"setDecimals(struct DataTypes.ReserveConfigurationMap memory,uint256)": "infinite",
						"setEModeCategory(struct DataTypes.ReserveConfigurationMap memory,uint256)": "infinite",
						"setFlashLoanEnabled(struct DataTypes.ReserveConfigurationMap memory,bool)": "infinite",
						"setFrozen(struct DataTypes.ReserveConfigurationMap memory,bool)": "infinite",
						"setLiquidationBonus(struct DataTypes.ReserveConfigurationMap memory,uint256)": "infinite",
						"setLiquidationProtocolFee(struct DataTypes.ReserveConfigurationMap memory,uint256)": "infinite",
						"setLiquidationThreshold(struct DataTypes.ReserveConfigurationMap memory,uint256)": "infinite",
						"setLtv(struct DataTypes.ReserveConfigurationMap memory,uint256)": "infinite",
						"setPaused(struct DataTypes.ReserveConfigurationMap memory,bool)": "infinite",
						"setReserveFactor(struct DataTypes.ReserveConfigurationMap memory,uint256)": "infinite",
						"setSiloedBorrowing(struct DataTypes.ReserveConfigurationMap memory,bool)": "infinite",
						"setStableRateBorrowingEnabled(struct DataTypes.ReserveConfigurationMap memory,bool)": "infinite",
						"setSupplyCap(struct DataTypes.ReserveConfigurationMap memory,uint256)": "infinite",
						"setUnbackedMintCap(struct DataTypes.ReserveConfigurationMap memory,uint256)": "infinite"
					}
				},
				"methodIdentifiers": {
					"DEBT_CEILING_DECIMALS()": "280d5de9",
					"MAX_RESERVES_COUNT()": "31b561ba"
				}
			},
			"storageLayout": {
				"storage": [],
				"types": null
			},
			"userdoc": {
				"kind": "user",
				"methods": {},
				"notice": "Implements the bitmap logic to handle the reserve configuration",
				"version": 1
			}
		}
	}
}