{
	"contracts/misc/WalletBalanceProvider.sol": {
		"WalletBalanceProvider": {
			"abi": [
				{
					"inputs": [
						{
							"internalType": "address",
							"name": "user",
							"type": "address"
						},
						{
							"internalType": "address",
							"name": "token",
							"type": "address"
						}
					],
					"name": "balanceOf",
					"outputs": [
						{
							"internalType": "uint256",
							"name": "",
							"type": "uint256"
						}
					],
					"stateMutability": "view",
					"type": "function"
				},
				{
					"inputs": [
						{
							"internalType": "address[]",
							"name": "users",
							"type": "address[]"
						},
						{
							"internalType": "address[]",
							"name": "tokens",
							"type": "address[]"
						}
					],
					"name": "batchBalanceOf",
					"outputs": [
						{
							"internalType": "uint256[]",
							"name": "",
							"type": "uint256[]"
						}
					],
					"stateMutability": "view",
					"type": "function"
				},
				{
					"inputs": [
						{
							"internalType": "address",
							"name": "provider",
							"type": "address"
						},
						{
							"internalType": "address",
							"name": "user",
							"type": "address"
						}
					],
					"name": "getUserWalletBalances",
					"outputs": [
						{
							"internalType": "address[]",
							"name": "",
							"type": "address[]"
						},
						{
							"internalType": "uint256[]",
							"name": "",
							"type": "uint256[]"
						}
					],
					"stateMutability": "view",
					"type": "function"
				},
				{
					"stateMutability": "payable",
					"type": "receive"
				}
			],
			"devdoc": {
				"author": "Aave, influenced by https://github.com/wbobeirne/eth-balance-checker/blob/master/contracts/BalanceChecker.sol",
				"details": "NOTE: THIS CONTRACT IS NOT USED WITHIN THE AAVE PROTOCOL. It's an accessory contract used to reduce the number of calls towards the blockchain from the Aave backend.*",
				"kind": "dev",
				"methods": {
					"balanceOf(address,address)": {
						"details": "Check the token balance of a wallet in a token contract Returns the balance of the token for user. Avoids possible errors: - return 0 on non-contract address*"
					},
					"batchBalanceOf(address[],address[])": {
						"params": {
							"tokens": "The list of tokens",
							"users": "The list of users"
						},
						"returns": {
							"_0": "And array with the concatenation of, for each user, his/her balances*"
						}
					},
					"getUserWalletBalances(address,address)": {
						"details": "provides balances of user wallet for all reserves available on the pool"
					}
				},
				"title": "WalletBalanceProvider contract",
				"version": 1
			},
			"evm": {
				"assembly": "    /* \"contracts/misc/WalletBalanceProvider.sol\":1193:4119  contract WalletBalanceProvider {... */\n  mstore(0x40, 0x80)\n  callvalue\n  dup1\n  iszero\n  tag_1\n  jumpi\n  0x00\n  dup1\n  revert\ntag_1:\n  pop\n  dataSize(sub_0)\n  dup1\n  dataOffset(sub_0)\n  0x00\n  codecopy\n  0x00\n  return\nstop\n\nsub_0: assembly {\n        /* \"contracts/misc/WalletBalanceProvider.sol\":1193:4119  contract WalletBalanceProvider {... */\n      mstore(0x40, 0x80)\n      jumpi(tag_1, lt(calldatasize, 0x04))\n      shr(0xe0, calldataload(0x00))\n      dup1\n      0x02405343\n      eq\n      tag_3\n      jumpi\n      dup1\n      0xb59b28ef\n      eq\n      tag_4\n      jumpi\n      dup1\n      0xf7888aec\n      eq\n      tag_5\n      jumpi\n      jump(tag_2)\n    tag_1:\n      jumpi(tag_2, calldatasize)\n        /* \"contracts/misc/WalletBalanceProvider.sol\":1643:1666  msg.sender.isContract() */\n      tag_8\n        /* \"contracts/misc/WalletBalanceProvider.sol\":1643:1653  msg.sender */\n      caller\n        /* \"contracts/misc/WalletBalanceProvider.sol\":1643:1664  msg.sender.isContract */\n      0xffffffffffffffffffffffffffffffffffffffff\n      and\n      tag_9\n        /* \"contracts/misc/WalletBalanceProvider.sol\":1643:1666  msg.sender.isContract() */\n      jump\t// in\n    tag_8:\n        /* \"contracts/misc/WalletBalanceProvider.sol\":1635:1673  require(msg.sender.isContract(), '22') */\n      tag_10\n      jumpi\n      mload(0x40)\n      0x08c379a000000000000000000000000000000000000000000000000000000000\n      dup2\n      mstore\n      0x04\n      add\n      tag_11\n      swap1\n      tag_12\n      jump\t// in\n    tag_11:\n      mload(0x40)\n      dup1\n      swap2\n      sub\n      swap1\n      revert\n    tag_10:\n        /* \"contracts/misc/WalletBalanceProvider.sol\":1193:4119  contract WalletBalanceProvider {... */\n      stop\n    tag_2:\n      0x00\n      dup1\n      revert\n        /* \"contracts/misc/WalletBalanceProvider.sol\":3039:4116  function getUserWalletBalances(... */\n    tag_3:\n      callvalue\n      dup1\n      iszero\n      tag_13\n      jumpi\n      0x00\n      dup1\n      revert\n    tag_13:\n      pop\n      tag_14\n      0x04\n      dup1\n      calldatasize\n      sub\n      dup2\n      add\n      swap1\n      tag_15\n      swap2\n      swap1\n      tag_16\n      jump\t// in\n    tag_15:\n      tag_17\n      jump\t// in\n    tag_14:\n      mload(0x40)\n      tag_18\n      swap3\n      swap2\n      swap1\n      tag_19\n      jump\t// in\n    tag_18:\n      mload(0x40)\n      dup1\n      swap2\n      sub\n      swap1\n      return\n        /* \"contracts/misc/WalletBalanceProvider.sol\":2499:2936  function batchBalanceOf(... */\n    tag_4:\n      callvalue\n      dup1\n      iszero\n      tag_20\n      jumpi\n      0x00\n      dup1\n      revert\n    tag_20:\n      pop\n      tag_21\n      0x04\n      dup1\n      calldatasize\n      sub\n      dup2\n      add\n      swap1\n      tag_22\n      swap2\n      swap1\n      tag_23\n      jump\t// in\n    tag_22:\n      tag_24\n      jump\t// in\n    tag_21:\n      mload(0x40)\n      tag_25\n      swap2\n      swap1\n      tag_26\n      jump\t// in\n    tag_25:\n      mload(0x40)\n      dup1\n      swap2\n      sub\n      swap1\n      return\n        /* \"contracts/misc/WalletBalanceProvider.sol\":1883:2216  function balanceOf(address user, address token) public view returns (uint256) {... */\n    tag_5:\n      callvalue\n      dup1\n      iszero\n      tag_27\n      jumpi\n      0x00\n      dup1\n      revert\n    tag_27:\n      pop\n      tag_28\n      0x04\n      dup1\n      calldatasize\n      sub\n      dup2\n      add\n      swap1\n      tag_29\n      swap2\n      swap1\n      tag_16\n      jump\t// in\n    tag_29:\n      tag_30\n      jump\t// in\n    tag_28:\n      mload(0x40)\n      tag_31\n      swap2\n      swap1\n      tag_32\n      jump\t// in\n    tag_31:\n      mload(0x40)\n      dup1\n      swap2\n      sub\n      swap1\n      return\n        /* \"@aave/core-v3/contracts/dependencies/openzeppelin/contracts/Address.sol\":735:1076  function isContract(address account) internal view returns (bool) {... */\n    tag_9:\n        /* \"@aave/core-v3/contracts/dependencies/openzeppelin/contracts/Address.sol\":795:799  bool */\n      0x00\n        /* \"@aave/core-v3/contracts/dependencies/openzeppelin/contracts/Address.sol\":982:994  uint256 size */\n      dup1\n        /* \"@aave/core-v3/contracts/dependencies/openzeppelin/contracts/Address.sol\":1037:1044  account */\n      dup3\n        /* \"@aave/core-v3/contracts/dependencies/openzeppelin/contracts/Address.sol\":1025:1045  extcodesize(account) */\n      extcodesize\n        /* \"@aave/core-v3/contracts/dependencies/openzeppelin/contracts/Address.sol\":1017:1045  size := extcodesize(account) */\n      swap1\n      pop\n        /* \"@aave/core-v3/contracts/dependencies/openzeppelin/contracts/Address.sol\":1070:1071  0 */\n      0x00\n        /* \"@aave/core-v3/contracts/dependencies/openzeppelin/contracts/Address.sol\":1063:1067  size */\n      dup2\n        /* \"@aave/core-v3/contracts/dependencies/openzeppelin/contracts/Address.sol\":1063:1071  size > 0 */\n      gt\n        /* \"@aave/core-v3/contracts/dependencies/openzeppelin/contracts/Address.sol\":1056:1071  return size > 0 */\n      swap2\n      pop\n      pop\n        /* \"@aave/core-v3/contracts/dependencies/openzeppelin/contracts/Address.sol\":735:1076  function isContract(address account) internal view returns (bool) {... */\n      swap2\n      swap1\n      pop\n      jump\t// out\n        /* \"contracts/misc/WalletBalanceProvider.sol\":3039:4116  function getUserWalletBalances(... */\n    tag_17:\n        /* \"contracts/misc/WalletBalanceProvider.sol\":3140:3156  address[] memory */\n      0x60\n        /* \"contracts/misc/WalletBalanceProvider.sol\":3158:3174  uint256[] memory */\n      dup1\n        /* \"contracts/misc/WalletBalanceProvider.sol\":3183:3193  IPool pool */\n      0x00\n        /* \"contracts/misc/WalletBalanceProvider.sol\":3225:3233  provider */\n      dup5\n        /* \"contracts/misc/WalletBalanceProvider.sol\":3202:3242  IPoolAddressesProvider(provider).getPool */\n      0xffffffffffffffffffffffffffffffffffffffff\n      and\n      0x026b1d5f\n        /* \"contracts/misc/WalletBalanceProvider.sol\":3202:3244  IPoolAddressesProvider(provider).getPool() */\n      mload(0x40)\n      dup2\n      0xffffffff\n      and\n      0xe0\n      shl\n      dup2\n      mstore\n      0x04\n      add\n      0x20\n      mload(0x40)\n      dup1\n      dup4\n      sub\n      dup2\n      dup7\n      gas\n      staticcall\n      iszero\n      dup1\n      iszero\n      tag_36\n      jumpi\n      returndatasize\n      0x00\n      dup1\n      returndatacopy\n      revert(0x00, returndatasize)\n    tag_36:\n      pop\n      pop\n      pop\n      pop\n      mload(0x40)\n      returndatasize\n      not(0x1f)\n      0x1f\n      dup3\n      add\n      and\n      dup3\n      add\n      dup1\n      0x40\n      mstore\n      pop\n      dup2\n      add\n      swap1\n      tag_37\n      swap2\n      swap1\n      tag_38\n      jump\t// in\n    tag_37:\n        /* \"contracts/misc/WalletBalanceProvider.sol\":3183:3245  IPool pool = IPool(IPoolAddressesProvider(provider).getPool()) */\n      swap1\n      pop\n        /* \"contracts/misc/WalletBalanceProvider.sol\":3254:3279  address[] memory reserves */\n      0x00\n        /* \"contracts/misc/WalletBalanceProvider.sol\":3282:3286  pool */\n      dup2\n        /* \"contracts/misc/WalletBalanceProvider.sol\":3282:3302  pool.getReservesList */\n      0xffffffffffffffffffffffffffffffffffffffff\n      and\n      0xd1946dbc\n        /* \"contracts/misc/WalletBalanceProvider.sol\":3282:3304  pool.getReservesList() */\n      mload(0x40)\n      dup2\n      0xffffffff\n      and\n      0xe0\n      shl\n      dup2\n      mstore\n      0x04\n      add\n      0x00\n      mload(0x40)\n      dup1\n      dup4\n      sub\n      dup2\n      dup7\n      gas\n      staticcall\n      iszero\n      dup1\n      iszero\n      tag_40\n      jumpi\n      returndatasize\n      0x00\n      dup1\n      returndatacopy\n      revert(0x00, returndatasize)\n    tag_40:\n      pop\n      pop\n      pop\n      pop\n      mload(0x40)\n      returndatasize\n      0x00\n      dup3\n      returndatacopy\n      returndatasize\n      not(0x1f)\n      0x1f\n      dup3\n      add\n      and\n      dup3\n      add\n      dup1\n      0x40\n      mstore\n      pop\n      dup2\n      add\n      swap1\n      tag_41\n      swap2\n      swap1\n      tag_42\n      jump\t// in\n    tag_41:\n        /* \"contracts/misc/WalletBalanceProvider.sol\":3254:3304  address[] memory reserves = pool.getReservesList() */\n      swap1\n      pop\n        /* \"contracts/misc/WalletBalanceProvider.sol\":3311:3343  address[] memory reservesWithEth */\n      0x00\n        /* \"contracts/misc/WalletBalanceProvider.sol\":3378:3379  1 */\n      0x01\n        /* \"contracts/misc/WalletBalanceProvider.sol\":3360:3368  reserves */\n      dup3\n        /* \"contracts/misc/WalletBalanceProvider.sol\":3360:3375  reserves.length */\n      mload\n        /* \"contracts/misc/WalletBalanceProvider.sol\":3360:3379  reserves.length + 1 */\n      tag_43\n      swap2\n      swap1\n      tag_44\n      jump\t// in\n    tag_43:\n        /* \"contracts/misc/WalletBalanceProvider.sol\":3346:3380  new address[](reserves.length + 1) */\n      0xffffffffffffffff\n      dup2\n      gt\n      iszero\n      tag_45\n      jumpi\n      tag_46\n      tag_47\n      jump\t// in\n    tag_46:\n    tag_45:\n      mload(0x40)\n      swap1\n      dup1\n      dup3\n      mstore\n      dup1\n      0x20\n      mul\n      0x20\n      add\n      dup3\n      add\n      0x40\n      mstore\n      dup1\n      iszero\n      tag_48\n      jumpi\n      dup2\n      0x20\n      add\n      0x20\n      dup3\n      mul\n      dup1\n      calldatasize\n      dup4\n      calldatacopy\n      dup1\n      dup3\n      add\n      swap2\n      pop\n      pop\n      swap1\n      pop\n    tag_48:\n      pop\n        /* \"contracts/misc/WalletBalanceProvider.sol\":3311:3380  address[] memory reservesWithEth = new address[](reserves.length + 1) */\n      swap1\n      pop\n        /* \"contracts/misc/WalletBalanceProvider.sol\":3392:3401  uint256 i */\n      0x00\n        /* \"contracts/misc/WalletBalanceProvider.sol\":3387:3482  for (uint256 i = 0; i < reserves.length; i++) {... */\n    tag_49:\n        /* \"contracts/misc/WalletBalanceProvider.sol\":3411:3419  reserves */\n      dup3\n        /* \"contracts/misc/WalletBalanceProvider.sol\":3411:3426  reserves.length */\n      mload\n        /* \"contracts/misc/WalletBalanceProvider.sol\":3407:3408  i */\n      dup2\n        /* \"contracts/misc/WalletBalanceProvider.sol\":3407:3426  i < reserves.length */\n      lt\n        /* \"contracts/misc/WalletBalanceProvider.sol\":3387:3482  for (uint256 i = 0; i < reserves.length; i++) {... */\n      iszero\n      tag_50\n      jumpi\n        /* \"contracts/misc/WalletBalanceProvider.sol\":3463:3471  reserves */\n      dup3\n        /* \"contracts/misc/WalletBalanceProvider.sol\":3472:3473  i */\n      dup2\n        /* \"contracts/misc/WalletBalanceProvider.sol\":3463:3474  reserves[i] */\n      dup2\n      mload\n      dup2\n      lt\n      tag_52\n      jumpi\n      tag_53\n      tag_54\n      jump\t// in\n    tag_53:\n    tag_52:\n      0x20\n      mul\n      0x20\n      add\n      add\n      mload\n        /* \"contracts/misc/WalletBalanceProvider.sol\":3442:3457  reservesWithEth */\n      dup3\n        /* \"contracts/misc/WalletBalanceProvider.sol\":3458:3459  i */\n      dup3\n        /* \"contracts/misc/WalletBalanceProvider.sol\":3442:3460  reservesWithEth[i] */\n      dup2\n      mload\n      dup2\n      lt\n      tag_55\n      jumpi\n      tag_56\n      tag_54\n      jump\t// in\n    tag_56:\n    tag_55:\n      0x20\n      mul\n      0x20\n      add\n      add\n        /* \"contracts/misc/WalletBalanceProvider.sol\":3442:3474  reservesWithEth[i] = reserves[i] */\n      swap1\n      0xffffffffffffffffffffffffffffffffffffffff\n      and\n      swap1\n      dup2\n      0xffffffffffffffffffffffffffffffffffffffff\n      and\n      dup2\n      mstore\n      pop\n      pop\n        /* \"contracts/misc/WalletBalanceProvider.sol\":3428:3431  i++ */\n      dup1\n      dup1\n      0x01\n      add\n      swap2\n      pop\n      pop\n        /* \"contracts/misc/WalletBalanceProvider.sol\":3387:3482  for (uint256 i = 0; i < reserves.length; i++) {... */\n      jump(tag_49)\n    tag_50:\n      pop\n        /* \"contracts/misc/WalletBalanceProvider.sol\":1439:1481  0xEeeeeEeeeEeEeeEeEeEeeEEEeeeeEeeeeeeeEEeE */\n      0xeeeeeeeeeeeeeeeeeeeeeeeeeeeeeeeeeeeeeeee\n        /* \"contracts/misc/WalletBalanceProvider.sol\":3488:3503  reservesWithEth */\n      dup2\n        /* \"contracts/misc/WalletBalanceProvider.sol\":3504:3512  reserves */\n      dup4\n        /* \"contracts/misc/WalletBalanceProvider.sol\":3504:3519  reserves.length */\n      mload\n        /* \"contracts/misc/WalletBalanceProvider.sol\":3488:3520  reservesWithEth[reserves.length] */\n      dup2\n      mload\n      dup2\n      lt\n      tag_57\n      jumpi\n      tag_58\n      tag_54\n      jump\t// in\n    tag_58:\n    tag_57:\n      0x20\n      mul\n      0x20\n      add\n      add\n        /* \"contracts/misc/WalletBalanceProvider.sol\":3488:3539  reservesWithEth[reserves.length] = MOCK_ETH_ADDRESS */\n      swap1\n      0xffffffffffffffffffffffffffffffffffffffff\n      and\n      swap1\n      dup2\n      0xffffffffffffffffffffffffffffffffffffffff\n      and\n      dup2\n      mstore\n      pop\n      pop\n        /* \"contracts/misc/WalletBalanceProvider.sol\":3548:3573  uint256[] memory balances */\n      0x00\n        /* \"contracts/misc/WalletBalanceProvider.sol\":3590:3605  reservesWithEth */\n      dup2\n        /* \"contracts/misc/WalletBalanceProvider.sol\":3590:3612  reservesWithEth.length */\n      mload\n        /* \"contracts/misc/WalletBalanceProvider.sol\":3576:3613  new uint256[](reservesWithEth.length) */\n      0xffffffffffffffff\n      dup2\n      gt\n      iszero\n      tag_59\n      jumpi\n      tag_60\n      tag_47\n      jump\t// in\n    tag_60:\n    tag_59:\n      mload(0x40)\n      swap1\n      dup1\n      dup3\n      mstore\n      dup1\n      0x20\n      mul\n      0x20\n      add\n      dup3\n      add\n      0x40\n      mstore\n      dup1\n      iszero\n      tag_61\n      jumpi\n      dup2\n      0x20\n      add\n      0x20\n      dup3\n      mul\n      dup1\n      calldatasize\n      dup4\n      calldatacopy\n      dup1\n      dup3\n      add\n      swap2\n      pop\n      pop\n      swap1\n      pop\n    tag_61:\n      pop\n        /* \"contracts/misc/WalletBalanceProvider.sol\":3548:3613  uint256[] memory balances = new uint256[](reservesWithEth.length) */\n      swap1\n      pop\n        /* \"contracts/misc/WalletBalanceProvider.sol\":3627:3636  uint256 j */\n      0x00\n        /* \"contracts/misc/WalletBalanceProvider.sol\":3622:4000  for (uint256 j = 0; j < reserves.length; j++) {... */\n    tag_62:\n        /* \"contracts/misc/WalletBalanceProvider.sol\":3646:3654  reserves */\n      dup4\n        /* \"contracts/misc/WalletBalanceProvider.sol\":3646:3661  reserves.length */\n      mload\n        /* \"contracts/misc/WalletBalanceProvider.sol\":3642:3643  j */\n      dup2\n        /* \"contracts/misc/WalletBalanceProvider.sol\":3642:3661  j < reserves.length */\n      lt\n        /* \"contracts/misc/WalletBalanceProvider.sol\":3622:4000  for (uint256 j = 0; j < reserves.length; j++) {... */\n      iszero\n      tag_63\n      jumpi\n        /* \"contracts/misc/WalletBalanceProvider.sol\":3677:3731  DataTypes.ReserveConfigurationMap memory configuration */\n      0x00\n        /* \"contracts/misc/WalletBalanceProvider.sol\":3734:3738  pool */\n      dup6\n        /* \"contracts/misc/WalletBalanceProvider.sol\":3734:3755  pool.getConfiguration */\n      0xffffffffffffffffffffffffffffffffffffffff\n      and\n      0xc44b11f7\n        /* \"contracts/misc/WalletBalanceProvider.sol\":3766:3781  reservesWithEth */\n      dup6\n        /* \"contracts/misc/WalletBalanceProvider.sol\":3782:3783  j */\n      dup5\n        /* \"contracts/misc/WalletBalanceProvider.sol\":3766:3784  reservesWithEth[j] */\n      dup2\n      mload\n      dup2\n      lt\n      tag_65\n      jumpi\n      tag_66\n      tag_54\n      jump\t// in\n    tag_66:\n    tag_65:\n      0x20\n      mul\n      0x20\n      add\n      add\n      mload\n        /* \"contracts/misc/WalletBalanceProvider.sol\":3734:3793  pool.getConfiguration(... */\n      mload(0x40)\n      dup3\n      0xffffffff\n      and\n      0xe0\n      shl\n      dup2\n      mstore\n      0x04\n      add\n      tag_67\n      swap2\n      swap1\n      tag_68\n      jump\t// in\n    tag_67:\n      0x20\n      mload(0x40)\n      dup1\n      dup4\n      sub\n      dup2\n      dup7\n      gas\n      staticcall\n      iszero\n      dup1\n      iszero\n      tag_70\n      jumpi\n      returndatasize\n      0x00\n      dup1\n      returndatacopy\n      revert(0x00, returndatasize)\n    tag_70:\n      pop\n      pop\n      pop\n      pop\n      mload(0x40)\n      returndatasize\n      not(0x1f)\n      0x1f\n      dup3\n      add\n      and\n      dup3\n      add\n      dup1\n      0x40\n      mstore\n      pop\n      dup2\n      add\n      swap1\n      tag_71\n      swap2\n      swap1\n      tag_72\n      jump\t// in\n    tag_71:\n        /* \"contracts/misc/WalletBalanceProvider.sol\":3677:3793  DataTypes.ReserveConfigurationMap memory configuration = pool.getConfiguration(... */\n      swap1\n      pop\n        /* \"contracts/misc/WalletBalanceProvider.sol\":3805:3818  bool isActive */\n      0x00\n        /* \"contracts/misc/WalletBalanceProvider.sol\":3830:3854  configuration.getFlags() */\n      tag_73\n        /* \"contracts/misc/WalletBalanceProvider.sol\":3830:3843  configuration */\n      dup3\n        /* \"contracts/misc/WalletBalanceProvider.sol\":3830:3852  configuration.getFlags */\n      tag_74\n        /* \"contracts/misc/WalletBalanceProvider.sol\":3830:3854  configuration.getFlags() */\n      jump\t// in\n    tag_73:\n        /* \"contracts/misc/WalletBalanceProvider.sol\":3804:3854  (bool isActive, , , , ) = configuration.getFlags() */\n      pop\n      pop\n      pop\n      pop\n      swap1\n      pop\n        /* \"contracts/misc/WalletBalanceProvider.sol\":3870:3878  isActive */\n      dup1\n        /* \"contracts/misc/WalletBalanceProvider.sol\":3865:3935  if (!isActive) {... */\n      tag_75\n      jumpi\n        /* \"contracts/misc/WalletBalanceProvider.sol\":3905:3906  0 */\n      0x00\n        /* \"contracts/misc/WalletBalanceProvider.sol\":3891:3899  balances */\n      dup5\n        /* \"contracts/misc/WalletBalanceProvider.sol\":3900:3901  j */\n      dup5\n        /* \"contracts/misc/WalletBalanceProvider.sol\":3891:3902  balances[j] */\n      dup2\n      mload\n      dup2\n      lt\n      tag_76\n      jumpi\n      tag_77\n      tag_54\n      jump\t// in\n    tag_77:\n    tag_76:\n      0x20\n      mul\n      0x20\n      add\n      add\n        /* \"contracts/misc/WalletBalanceProvider.sol\":3891:3906  balances[j] = 0 */\n      dup2\n      dup2\n      mstore\n      pop\n      pop\n        /* \"contracts/misc/WalletBalanceProvider.sol\":3917:3925  continue */\n      pop\n      pop\n      jump(tag_64)\n        /* \"contracts/misc/WalletBalanceProvider.sol\":3865:3935  if (!isActive) {... */\n    tag_75:\n        /* \"contracts/misc/WalletBalanceProvider.sol\":3957:3992  balanceOf(user, reservesWithEth[j]) */\n      tag_78\n        /* \"contracts/misc/WalletBalanceProvider.sol\":3967:3971  user */\n      dup11\n        /* \"contracts/misc/WalletBalanceProvider.sol\":3973:3988  reservesWithEth */\n      dup7\n        /* \"contracts/misc/WalletBalanceProvider.sol\":3989:3990  j */\n      dup6\n        /* \"contracts/misc/WalletBalanceProvider.sol\":3973:3991  reservesWithEth[j] */\n      dup2\n      mload\n      dup2\n      lt\n      tag_79\n      jumpi\n      tag_80\n      tag_54\n      jump\t// in\n    tag_80:\n    tag_79:\n      0x20\n      mul\n      0x20\n      add\n      add\n      mload\n        /* \"contracts/misc/WalletBalanceProvider.sol\":3957:3966  balanceOf */\n      tag_30\n        /* \"contracts/misc/WalletBalanceProvider.sol\":3957:3992  balanceOf(user, reservesWithEth[j]) */\n      jump\t// in\n    tag_78:\n        /* \"contracts/misc/WalletBalanceProvider.sol\":3943:3951  balances */\n      dup5\n        /* \"contracts/misc/WalletBalanceProvider.sol\":3952:3953  j */\n      dup5\n        /* \"contracts/misc/WalletBalanceProvider.sol\":3943:3954  balances[j] */\n      dup2\n      mload\n      dup2\n      lt\n      tag_81\n      jumpi\n      tag_82\n      tag_54\n      jump\t// in\n    tag_82:\n    tag_81:\n      0x20\n      mul\n      0x20\n      add\n      add\n        /* \"contracts/misc/WalletBalanceProvider.sol\":3943:3992  balances[j] = balanceOf(user, reservesWithEth[j]) */\n      dup2\n      dup2\n      mstore\n      pop\n      pop\n        /* \"contracts/misc/WalletBalanceProvider.sol\":3668:4000  {... */\n      pop\n      pop\n        /* \"contracts/misc/WalletBalanceProvider.sol\":3622:4000  for (uint256 j = 0; j < reserves.length; j++) {... */\n    tag_64:\n        /* \"contracts/misc/WalletBalanceProvider.sol\":3663:3666  j++ */\n      dup1\n      dup1\n      0x01\n      add\n      swap2\n      pop\n      pop\n        /* \"contracts/misc/WalletBalanceProvider.sol\":3622:4000  for (uint256 j = 0; j < reserves.length; j++) {... */\n      jump(tag_62)\n    tag_63:\n      pop\n        /* \"contracts/misc/WalletBalanceProvider.sol\":4034:4067  balanceOf(user, MOCK_ETH_ADDRESS) */\n      tag_83\n        /* \"contracts/misc/WalletBalanceProvider.sol\":4044:4048  user */\n      dup8\n        /* \"contracts/misc/WalletBalanceProvider.sol\":1439:1481  0xEeeeeEeeeEeEeeEeEeEeeEEEeeeeEeeeeeeeEEeE */\n      0xeeeeeeeeeeeeeeeeeeeeeeeeeeeeeeeeeeeeeeee\n        /* \"contracts/misc/WalletBalanceProvider.sol\":4034:4043  balanceOf */\n      tag_30\n        /* \"contracts/misc/WalletBalanceProvider.sol\":4034:4067  balanceOf(user, MOCK_ETH_ADDRESS) */\n      jump\t// in\n    tag_83:\n        /* \"contracts/misc/WalletBalanceProvider.sol\":4006:4014  balances */\n      dup2\n        /* \"contracts/misc/WalletBalanceProvider.sol\":4015:4023  reserves */\n      dup5\n        /* \"contracts/misc/WalletBalanceProvider.sol\":4015:4030  reserves.length */\n      mload\n        /* \"contracts/misc/WalletBalanceProvider.sol\":4006:4031  balances[reserves.length] */\n      dup2\n      mload\n      dup2\n      lt\n      tag_84\n      jumpi\n      tag_85\n      tag_54\n      jump\t// in\n    tag_85:\n    tag_84:\n      0x20\n      mul\n      0x20\n      add\n      add\n        /* \"contracts/misc/WalletBalanceProvider.sol\":4006:4067  balances[reserves.length] = balanceOf(user, MOCK_ETH_ADDRESS) */\n      dup2\n      dup2\n      mstore\n      pop\n      pop\n        /* \"contracts/misc/WalletBalanceProvider.sol\":4084:4099  reservesWithEth */\n      dup2\n        /* \"contracts/misc/WalletBalanceProvider.sol\":4101:4109  balances */\n      dup2\n        /* \"contracts/misc/WalletBalanceProvider.sol\":4076:4110  return (reservesWithEth, balances) */\n      swap6\n      pop\n      swap6\n      pop\n      pop\n      pop\n      pop\n      pop\n        /* \"contracts/misc/WalletBalanceProvider.sol\":3039:4116  function getUserWalletBalances(... */\n      swap3\n      pop\n      swap3\n      swap1\n      pop\n      jump\t// out\n        /* \"contracts/misc/WalletBalanceProvider.sol\":2499:2936  function batchBalanceOf(... */\n    tag_24:\n        /* \"contracts/misc/WalletBalanceProvider.sol\":2614:2630  uint256[] memory */\n      0x60\n        /* \"contracts/misc/WalletBalanceProvider.sol\":2639:2664  uint256[] memory balances */\n      0x00\n        /* \"contracts/misc/WalletBalanceProvider.sol\":2696:2702  tokens */\n      dup4\n      dup4\n        /* \"contracts/misc/WalletBalanceProvider.sol\":2696:2709  tokens.length */\n      swap1\n      pop\n        /* \"contracts/misc/WalletBalanceProvider.sol\":2681:2686  users */\n      dup7\n      dup7\n        /* \"contracts/misc/WalletBalanceProvider.sol\":2681:2693  users.length */\n      swap1\n      pop\n        /* \"contracts/misc/WalletBalanceProvider.sol\":2681:2709  users.length * tokens.length */\n      tag_87\n      swap2\n      swap1\n      tag_88\n      jump\t// in\n    tag_87:\n        /* \"contracts/misc/WalletBalanceProvider.sol\":2667:2710  new uint256[](users.length * tokens.length) */\n      0xffffffffffffffff\n      dup2\n      gt\n      iszero\n      tag_89\n      jumpi\n      tag_90\n      tag_47\n      jump\t// in\n    tag_90:\n    tag_89:\n      mload(0x40)\n      swap1\n      dup1\n      dup3\n      mstore\n      dup1\n      0x20\n      mul\n      0x20\n      add\n      dup3\n      add\n      0x40\n      mstore\n      dup1\n      iszero\n      tag_91\n      jumpi\n      dup2\n      0x20\n      add\n      0x20\n      dup3\n      mul\n      dup1\n      calldatasize\n      dup4\n      calldatacopy\n      dup1\n      dup3\n      add\n      swap2\n      pop\n      pop\n      swap1\n      pop\n    tag_91:\n      pop\n        /* \"contracts/misc/WalletBalanceProvider.sol\":2639:2710  uint256[] memory balances = new uint256[](users.length * tokens.length) */\n      swap1\n      pop\n        /* \"contracts/misc/WalletBalanceProvider.sol\":2724:2733  uint256 i */\n      0x00\n        /* \"contracts/misc/WalletBalanceProvider.sol\":2719:2907  for (uint256 i = 0; i < users.length; i++) {... */\n    tag_92:\n        /* \"contracts/misc/WalletBalanceProvider.sol\":2743:2748  users */\n      dup7\n      dup7\n        /* \"contracts/misc/WalletBalanceProvider.sol\":2743:2755  users.length */\n      swap1\n      pop\n        /* \"contracts/misc/WalletBalanceProvider.sol\":2739:2740  i */\n      dup2\n        /* \"contracts/misc/WalletBalanceProvider.sol\":2739:2755  i < users.length */\n      lt\n        /* \"contracts/misc/WalletBalanceProvider.sol\":2719:2907  for (uint256 i = 0; i < users.length; i++) {... */\n      iszero\n      tag_93\n      jumpi\n        /* \"contracts/misc/WalletBalanceProvider.sol\":2776:2785  uint256 j */\n      0x00\n        /* \"contracts/misc/WalletBalanceProvider.sol\":2771:2900  for (uint256 j = 0; j < tokens.length; j++) {... */\n    tag_95:\n        /* \"contracts/misc/WalletBalanceProvider.sol\":2795:2801  tokens */\n      dup6\n      dup6\n        /* \"contracts/misc/WalletBalanceProvider.sol\":2795:2808  tokens.length */\n      swap1\n      pop\n        /* \"contracts/misc/WalletBalanceProvider.sol\":2791:2792  j */\n      dup2\n        /* \"contracts/misc/WalletBalanceProvider.sol\":2791:2808  j < tokens.length */\n      lt\n        /* \"contracts/misc/WalletBalanceProvider.sol\":2771:2900  for (uint256 j = 0; j < tokens.length; j++) {... */\n      iszero\n      tag_96\n      jumpi\n        /* \"contracts/misc/WalletBalanceProvider.sol\":2860:2890  balanceOf(users[i], tokens[j]) */\n      tag_98\n        /* \"contracts/misc/WalletBalanceProvider.sol\":2870:2875  users */\n      dup9\n      dup9\n        /* \"contracts/misc/WalletBalanceProvider.sol\":2876:2877  i */\n      dup5\n        /* \"contracts/misc/WalletBalanceProvider.sol\":2870:2878  users[i] */\n      dup2\n      dup2\n      lt\n      tag_99\n      jumpi\n      tag_100\n      tag_54\n      jump\t// in\n    tag_100:\n    tag_99:\n      swap1\n      pop\n      0x20\n      mul\n      add\n      0x20\n      dup2\n      add\n      swap1\n      tag_101\n      swap2\n      swap1\n      tag_102\n      jump\t// in\n    tag_101:\n        /* \"contracts/misc/WalletBalanceProvider.sol\":2880:2886  tokens */\n      dup8\n      dup8\n        /* \"contracts/misc/WalletBalanceProvider.sol\":2887:2888  j */\n      dup5\n        /* \"contracts/misc/WalletBalanceProvider.sol\":2880:2889  tokens[j] */\n      dup2\n      dup2\n      lt\n      tag_103\n      jumpi\n      tag_104\n      tag_54\n      jump\t// in\n    tag_104:\n    tag_103:\n      swap1\n      pop\n      0x20\n      mul\n      add\n      0x20\n      dup2\n      add\n      swap1\n      tag_105\n      swap2\n      swap1\n      tag_102\n      jump\t// in\n    tag_105:\n        /* \"contracts/misc/WalletBalanceProvider.sol\":2860:2869  balanceOf */\n      tag_30\n        /* \"contracts/misc/WalletBalanceProvider.sol\":2860:2890  balanceOf(users[i], tokens[j]) */\n      jump\t// in\n    tag_98:\n        /* \"contracts/misc/WalletBalanceProvider.sol\":2826:2834  balances */\n      dup4\n        /* \"contracts/misc/WalletBalanceProvider.sol\":2855:2856  j */\n      dup3\n        /* \"contracts/misc/WalletBalanceProvider.sol\":2839:2845  tokens */\n      dup9\n      dup9\n        /* \"contracts/misc/WalletBalanceProvider.sol\":2839:2852  tokens.length */\n      swap1\n      pop\n        /* \"contracts/misc/WalletBalanceProvider.sol\":2835:2836  i */\n      dup6\n        /* \"contracts/misc/WalletBalanceProvider.sol\":2835:2852  i * tokens.length */\n      tag_106\n      swap2\n      swap1\n      tag_88\n      jump\t// in\n    tag_106:\n        /* \"contracts/misc/WalletBalanceProvider.sol\":2835:2856  i * tokens.length + j */\n      tag_107\n      swap2\n      swap1\n      tag_44\n      jump\t// in\n    tag_107:\n        /* \"contracts/misc/WalletBalanceProvider.sol\":2826:2857  balances[i * tokens.length + j] */\n      dup2\n      mload\n      dup2\n      lt\n      tag_108\n      jumpi\n      tag_109\n      tag_54\n      jump\t// in\n    tag_109:\n    tag_108:\n      0x20\n      mul\n      0x20\n      add\n      add\n        /* \"contracts/misc/WalletBalanceProvider.sol\":2826:2890  balances[i * tokens.length + j] = balanceOf(users[i], tokens[j]) */\n      dup2\n      dup2\n      mstore\n      pop\n      pop\n        /* \"contracts/misc/WalletBalanceProvider.sol\":2810:2813  j++ */\n      dup1\n      dup1\n      0x01\n      add\n      swap2\n      pop\n      pop\n        /* \"contracts/misc/WalletBalanceProvider.sol\":2771:2900  for (uint256 j = 0; j < tokens.length; j++) {... */\n      jump(tag_95)\n    tag_96:\n      pop\n        /* \"contracts/misc/WalletBalanceProvider.sol\":2757:2760  i++ */\n      dup1\n      dup1\n      0x01\n      add\n      swap2\n      pop\n      pop\n        /* \"contracts/misc/WalletBalanceProvider.sol\":2719:2907  for (uint256 i = 0; i < users.length; i++) {... */\n      jump(tag_92)\n    tag_93:\n      pop\n        /* \"contracts/misc/WalletBalanceProvider.sol\":2922:2930  balances */\n      dup1\n        /* \"contracts/misc/WalletBalanceProvider.sol\":2915:2930  return balances */\n      swap2\n      pop\n      pop\n        /* \"contracts/misc/WalletBalanceProvider.sol\":2499:2936  function batchBalanceOf(... */\n      swap5\n      swap4\n      pop\n      pop\n      pop\n      pop\n      jump\t// out\n        /* \"contracts/misc/WalletBalanceProvider.sol\":1883:2216  function balanceOf(address user, address token) public view returns (uint256) {... */\n    tag_30:\n        /* \"contracts/misc/WalletBalanceProvider.sol\":1952:1959  uint256 */\n      0x00\n        /* \"contracts/misc/WalletBalanceProvider.sol\":1439:1481  0xEeeeeEeeeEeEeeEeEeEeeEEEeeeeEeeeeeeeEEeE */\n      0xeeeeeeeeeeeeeeeeeeeeeeeeeeeeeeeeeeeeeeee\n        /* \"contracts/misc/WalletBalanceProvider.sol\":1972:1997  token == MOCK_ETH_ADDRESS */\n      0xffffffffffffffffffffffffffffffffffffffff\n      and\n        /* \"contracts/misc/WalletBalanceProvider.sol\":1972:1977  token */\n      dup3\n        /* \"contracts/misc/WalletBalanceProvider.sol\":1972:1997  token == MOCK_ETH_ADDRESS */\n      0xffffffffffffffffffffffffffffffffffffffff\n      and\n      sub\n        /* \"contracts/misc/WalletBalanceProvider.sol\":1968:2181  if (token == MOCK_ETH_ADDRESS) {... */\n      tag_111\n      jumpi\n        /* \"contracts/misc/WalletBalanceProvider.sol\":2015:2019  user */\n      dup3\n        /* \"contracts/misc/WalletBalanceProvider.sol\":2015:2027  user.balance */\n      0xffffffffffffffffffffffffffffffffffffffff\n      and\n      balance\n        /* \"contracts/misc/WalletBalanceProvider.sol\":2008:2027  return user.balance */\n      swap1\n      pop\n      jump(tag_110)\n        /* \"contracts/misc/WalletBalanceProvider.sol\":1968:2181  if (token == MOCK_ETH_ADDRESS) {... */\n    tag_111:\n        /* \"contracts/misc/WalletBalanceProvider.sol\":2108:2126  token.isContract() */\n      tag_113\n        /* \"contracts/misc/WalletBalanceProvider.sol\":2108:2113  token */\n      dup3\n        /* \"contracts/misc/WalletBalanceProvider.sol\":2108:2124  token.isContract */\n      0xffffffffffffffffffffffffffffffffffffffff\n      and\n      tag_9\n        /* \"contracts/misc/WalletBalanceProvider.sol\":2108:2126  token.isContract() */\n      jump\t// in\n    tag_113:\n        /* \"contracts/misc/WalletBalanceProvider.sol\":2104:2181  if (token.isContract()) {... */\n      iszero\n      tag_114\n      jumpi\n        /* \"contracts/misc/WalletBalanceProvider.sol\":2151:2156  token */\n      dup2\n        /* \"contracts/misc/WalletBalanceProvider.sol\":2144:2167  IERC20(token).balanceOf */\n      0xffffffffffffffffffffffffffffffffffffffff\n      and\n      0x70a08231\n        /* \"contracts/misc/WalletBalanceProvider.sol\":2168:2172  user */\n      dup5\n        /* \"contracts/misc/WalletBalanceProvider.sol\":2144:2173  IERC20(token).balanceOf(user) */\n      mload(0x40)\n      dup3\n      0xffffffff\n      and\n      0xe0\n      shl\n      dup2\n      mstore\n      0x04\n      add\n      tag_115\n      swap2\n      swap1\n      tag_68\n      jump\t// in\n    tag_115:\n      0x20\n      mload(0x40)\n      dup1\n      dup4\n      sub\n      dup2\n      dup7\n      gas\n      staticcall\n      iszero\n      dup1\n      iszero\n      tag_117\n      jumpi\n      returndatasize\n      0x00\n      dup1\n      returndatacopy\n      revert(0x00, returndatasize)\n    tag_117:\n      pop\n      pop\n      pop\n      pop\n      mload(0x40)\n      returndatasize\n      not(0x1f)\n      0x1f\n      dup3\n      add\n      and\n      dup3\n      add\n      dup1\n      0x40\n      mstore\n      pop\n      dup2\n      add\n      swap1\n      tag_118\n      swap2\n      swap1\n      tag_119\n      jump\t// in\n    tag_118:\n        /* \"contracts/misc/WalletBalanceProvider.sol\":2137:2173  return IERC20(token).balanceOf(user) */\n      swap1\n      pop\n      jump(tag_110)\n        /* \"contracts/misc/WalletBalanceProvider.sol\":2104:2181  if (token.isContract()) {... */\n    tag_114:\n        /* \"contracts/misc/WalletBalanceProvider.sol\":2187:2210  revert('INVALID_TOKEN') */\n      mload(0x40)\n      0x08c379a000000000000000000000000000000000000000000000000000000000\n      dup2\n      mstore\n      0x04\n      add\n      tag_120\n      swap1\n      tag_121\n      jump\t// in\n    tag_120:\n      mload(0x40)\n      dup1\n      swap2\n      sub\n      swap1\n      revert\n        /* \"contracts/misc/WalletBalanceProvider.sol\":1883:2216  function balanceOf(address user, address token) public view returns (uint256) {... */\n    tag_110:\n      swap3\n      swap2\n      pop\n      pop\n      jump\t// out\n        /* \"@aave/core-v3/contracts/protocol/libraries/configuration/ReserveConfiguration.sol\":21583:21977  function getFlags(... */\n    tag_74:\n        /* \"@aave/core-v3/contracts/protocol/libraries/configuration/ReserveConfiguration.sol\":21679:21683  bool */\n      0x00\n        /* \"@aave/core-v3/contracts/protocol/libraries/configuration/ReserveConfiguration.sol\":21685:21689  bool */\n      dup1\n        /* \"@aave/core-v3/contracts/protocol/libraries/configuration/ReserveConfiguration.sol\":21691:21695  bool */\n      0x00\n        /* \"@aave/core-v3/contracts/protocol/libraries/configuration/ReserveConfiguration.sol\":21697:21701  bool */\n      dup1\n        /* \"@aave/core-v3/contracts/protocol/libraries/configuration/ReserveConfiguration.sol\":21703:21707  bool */\n      0x00\n        /* \"@aave/core-v3/contracts/protocol/libraries/configuration/ReserveConfiguration.sol\":21715:21732  uint256 dataLocal */\n      dup1\n        /* \"@aave/core-v3/contracts/protocol/libraries/configuration/ReserveConfiguration.sol\":21735:21739  self */\n      dup7\n        /* \"@aave/core-v3/contracts/protocol/libraries/configuration/ReserveConfiguration.sol\":21735:21744  self.data */\n      0x00\n      add\n      mload\n        /* \"@aave/core-v3/contracts/protocol/libraries/configuration/ReserveConfiguration.sol\":21715:21744  uint256 dataLocal = self.data */\n      swap1\n      pop\n        /* \"@aave/core-v3/contracts/protocol/libraries/configuration/ReserveConfiguration.sol\":21796:21797  0 */\n      0x00\n        /* \"@aave/core-v3/contracts/protocol/libraries/configuration/ReserveConfiguration.sol\":981:1047  0xFFFFFFFFFFFFFFFFFFFFFFFFFFFFFFFFFFFFFFFFFFFFFFFFFEFFFFFFFFFFFFFF */\n      0xfffffffffffffffffffffffffffffffffffffffffffffffffeffffffffffffff\n        /* \"@aave/core-v3/contracts/protocol/libraries/configuration/ReserveConfiguration.sol\":21779:21791  ~ACTIVE_MASK */\n      not\n        /* \"@aave/core-v3/contracts/protocol/libraries/configuration/ReserveConfiguration.sol\":21767:21776  dataLocal */\n      dup3\n        /* \"@aave/core-v3/contracts/protocol/libraries/configuration/ReserveConfiguration.sol\":21767:21791  dataLocal & ~ACTIVE_MASK */\n      and\n        /* \"@aave/core-v3/contracts/protocol/libraries/configuration/ReserveConfiguration.sol\":21766:21797  (dataLocal & ~ACTIVE_MASK) != 0 */\n      eq\n      iszero\n        /* \"@aave/core-v3/contracts/protocol/libraries/configuration/ReserveConfiguration.sol\":21835:21836  0 */\n      0x00\n        /* \"@aave/core-v3/contracts/protocol/libraries/configuration/ReserveConfiguration.sol\":1129:1195  0xFFFFFFFFFFFFFFFFFFFFFFFFFFFFFFFFFFFFFFFFFFFFFFFFFDFFFFFFFFFFFFFF */\n      0xfffffffffffffffffffffffffffffffffffffffffffffffffdffffffffffffff\n        /* \"@aave/core-v3/contracts/protocol/libraries/configuration/ReserveConfiguration.sol\":21818:21830  ~FROZEN_MASK */\n      not\n        /* \"@aave/core-v3/contracts/protocol/libraries/configuration/ReserveConfiguration.sol\":21806:21815  dataLocal */\n      dup4\n        /* \"@aave/core-v3/contracts/protocol/libraries/configuration/ReserveConfiguration.sol\":21806:21830  dataLocal & ~FROZEN_MASK */\n      and\n        /* \"@aave/core-v3/contracts/protocol/libraries/configuration/ReserveConfiguration.sol\":21805:21836  (dataLocal & ~FROZEN_MASK) != 0 */\n      eq\n      iszero\n        /* \"@aave/core-v3/contracts/protocol/libraries/configuration/ReserveConfiguration.sol\":21877:21878  0 */\n      0x00\n        /* \"@aave/core-v3/contracts/protocol/libraries/configuration/ReserveConfiguration.sol\":1277:1343  0xFFFFFFFFFFFFFFFFFFFFFFFFFFFFFFFFFFFFFFFFFFFFFFFFFBFFFFFFFFFFFFFF */\n      0xfffffffffffffffffffffffffffffffffffffffffffffffffbffffffffffffff\n        /* \"@aave/core-v3/contracts/protocol/libraries/configuration/ReserveConfiguration.sol\":21857:21872  ~BORROWING_MASK */\n      not\n        /* \"@aave/core-v3/contracts/protocol/libraries/configuration/ReserveConfiguration.sol\":21845:21854  dataLocal */\n      dup5\n        /* \"@aave/core-v3/contracts/protocol/libraries/configuration/ReserveConfiguration.sol\":21845:21872  dataLocal & ~BORROWING_MASK */\n      and\n        /* \"@aave/core-v3/contracts/protocol/libraries/configuration/ReserveConfiguration.sol\":21844:21878  (dataLocal & ~BORROWING_MASK) != 0 */\n      eq\n      iszero\n        /* \"@aave/core-v3/contracts/protocol/libraries/configuration/ReserveConfiguration.sol\":21926:21927  0 */\n      0x00\n        /* \"@aave/core-v3/contracts/protocol/libraries/configuration/ReserveConfiguration.sol\":1425:1491  0xFFFFFFFFFFFFFFFFFFFFFFFFFFFFFFFFFFFFFFFFFFFFFFFFF7FFFFFFFFFFFFFF */\n      0xfffffffffffffffffffffffffffffffffffffffffffffffff7ffffffffffffff\n        /* \"@aave/core-v3/contracts/protocol/libraries/configuration/ReserveConfiguration.sol\":21899:21921  ~STABLE_BORROWING_MASK */\n      not\n        /* \"@aave/core-v3/contracts/protocol/libraries/configuration/ReserveConfiguration.sol\":21887:21896  dataLocal */\n      dup6\n        /* \"@aave/core-v3/contracts/protocol/libraries/configuration/ReserveConfiguration.sol\":21887:21921  dataLocal & ~STABLE_BORROWING_MASK */\n      and\n        /* \"@aave/core-v3/contracts/protocol/libraries/configuration/ReserveConfiguration.sol\":21886:21927  (dataLocal & ~STABLE_BORROWING_MASK) != 0 */\n      eq\n      iszero\n        /* \"@aave/core-v3/contracts/protocol/libraries/configuration/ReserveConfiguration.sol\":21965:21966  0 */\n      0x00\n        /* \"@aave/core-v3/contracts/protocol/libraries/configuration/ReserveConfiguration.sol\":1573:1639  0xFFFFFFFFFFFFFFFFFFFFFFFFFFFFFFFFFFFFFFFFFFFFFFFFEFFFFFFFFFFFFFFF */\n      0xffffffffffffffffffffffffffffffffffffffffffffffffefffffffffffffff\n        /* \"@aave/core-v3/contracts/protocol/libraries/configuration/ReserveConfiguration.sol\":21948:21960  ~PAUSED_MASK */\n      not\n        /* \"@aave/core-v3/contracts/protocol/libraries/configuration/ReserveConfiguration.sol\":21936:21945  dataLocal */\n      dup7\n        /* \"@aave/core-v3/contracts/protocol/libraries/configuration/ReserveConfiguration.sol\":21936:21960  dataLocal & ~PAUSED_MASK */\n      and\n        /* \"@aave/core-v3/contracts/protocol/libraries/configuration/ReserveConfiguration.sol\":21935:21966  (dataLocal & ~PAUSED_MASK) != 0 */\n      eq\n      iszero\n        /* \"@aave/core-v3/contracts/protocol/libraries/configuration/ReserveConfiguration.sol\":21751:21972  return (... */\n      swap6\n      pop\n      swap6\n      pop\n      swap6\n      pop\n      swap6\n      pop\n      swap6\n      pop\n      pop\n        /* \"@aave/core-v3/contracts/protocol/libraries/configuration/ReserveConfiguration.sol\":21583:21977  function getFlags(... */\n      swap2\n      swap4\n      swap6\n      swap1\n      swap3\n      swap5\n      pop\n      jump\t// out\n        /* \"#utility.yul\":7:176   */\n    tag_123:\n        /* \"#utility.yul\":91:102   */\n      0x00\n        /* \"#utility.yul\":125:131   */\n      dup3\n        /* \"#utility.yul\":120:123   */\n      dup3\n        /* \"#utility.yul\":113:132   */\n      mstore\n        /* \"#utility.yul\":165:169   */\n      0x20\n        /* \"#utility.yul\":160:163   */\n      dup3\n        /* \"#utility.yul\":156:170   */\n      add\n        /* \"#utility.yul\":141:170   */\n      swap1\n      pop\n        /* \"#utility.yul\":7:176   */\n      swap3\n      swap2\n      pop\n      pop\n      jump\t// out\n        /* \"#utility.yul\":182:334   */\n    tag_124:\n        /* \"#utility.yul\":322:326   */\n      0x3232000000000000000000000000000000000000000000000000000000000000\n        /* \"#utility.yul\":318:319   */\n      0x00\n        /* \"#utility.yul\":310:316   */\n      dup3\n        /* \"#utility.yul\":306:320   */\n      add\n        /* \"#utility.yul\":299:327   */\n      mstore\n        /* \"#utility.yul\":182:334   */\n      pop\n      jump\t// out\n        /* \"#utility.yul\":340:705   */\n    tag_125:\n        /* \"#utility.yul\":482:485   */\n      0x00\n        /* \"#utility.yul\":503:569   */\n      tag_173\n        /* \"#utility.yul\":567:568   */\n      0x02\n        /* \"#utility.yul\":562:565   */\n      dup4\n        /* \"#utility.yul\":503:569   */\n      tag_123\n      jump\t// in\n    tag_173:\n        /* \"#utility.yul\":496:569   */\n      swap2\n      pop\n        /* \"#utility.yul\":578:671   */\n      tag_174\n        /* \"#utility.yul\":667:670   */\n      dup3\n        /* \"#utility.yul\":578:671   */\n      tag_124\n      jump\t// in\n    tag_174:\n        /* \"#utility.yul\":696:698   */\n      0x20\n        /* \"#utility.yul\":691:694   */\n      dup3\n        /* \"#utility.yul\":687:699   */\n      add\n        /* \"#utility.yul\":680:699   */\n      swap1\n      pop\n        /* \"#utility.yul\":340:705   */\n      swap2\n      swap1\n      pop\n      jump\t// out\n        /* \"#utility.yul\":711:1130   */\n    tag_12:\n        /* \"#utility.yul\":877:881   */\n      0x00\n        /* \"#utility.yul\":915:917   */\n      0x20\n        /* \"#utility.yul\":904:913   */\n      dup3\n        /* \"#utility.yul\":900:918   */\n      add\n        /* \"#utility.yul\":892:918   */\n      swap1\n      pop\n        /* \"#utility.yul\":964:973   */\n      dup2\n        /* \"#utility.yul\":958:962   */\n      dup2\n        /* \"#utility.yul\":954:974   */\n      sub\n        /* \"#utility.yul\":950:951   */\n      0x00\n        /* \"#utility.yul\":939:948   */\n      dup4\n        /* \"#utility.yul\":935:952   */\n      add\n        /* \"#utility.yul\":928:975   */\n      mstore\n        /* \"#utility.yul\":992:1123   */\n      tag_176\n        /* \"#utility.yul\":1118:1122   */\n      dup2\n        /* \"#utility.yul\":992:1123   */\n      tag_125\n      jump\t// in\n    tag_176:\n        /* \"#utility.yul\":984:1123   */\n      swap1\n      pop\n        /* \"#utility.yul\":711:1130   */\n      swap2\n      swap1\n      pop\n      jump\t// out\n        /* \"#utility.yul\":1136:1211   */\n    tag_126:\n        /* \"#utility.yul\":1169:1175   */\n      0x00\n        /* \"#utility.yul\":1202:1204   */\n      0x40\n        /* \"#utility.yul\":1196:1205   */\n      mload\n        /* \"#utility.yul\":1186:1205   */\n      swap1\n      pop\n        /* \"#utility.yul\":1136:1211   */\n      swap1\n      jump\t// out\n        /* \"#utility.yul\":1217:1334   */\n    tag_127:\n        /* \"#utility.yul\":1326:1327   */\n      0x00\n        /* \"#utility.yul\":1323:1324   */\n      dup1\n        /* \"#utility.yul\":1316:1328   */\n      revert\n        /* \"#utility.yul\":1340:1457   */\n    tag_128:\n        /* \"#utility.yul\":1449:1450   */\n      0x00\n        /* \"#utility.yul\":1446:1447   */\n      dup1\n        /* \"#utility.yul\":1439:1451   */\n      revert\n        /* \"#utility.yul\":1463:1589   */\n    tag_129:\n        /* \"#utility.yul\":1500:1507   */\n      0x00\n        /* \"#utility.yul\":1540:1582   */\n      0xffffffffffffffffffffffffffffffffffffffff\n        /* \"#utility.yul\":1533:1538   */\n      dup3\n        /* \"#utility.yul\":1529:1583   */\n      and\n        /* \"#utility.yul\":1518:1583   */\n      swap1\n      pop\n        /* \"#utility.yul\":1463:1589   */\n      swap2\n      swap1\n      pop\n      jump\t// out\n        /* \"#utility.yul\":1595:1691   */\n    tag_130:\n        /* \"#utility.yul\":1632:1639   */\n      0x00\n        /* \"#utility.yul\":1661:1685   */\n      tag_182\n        /* \"#utility.yul\":1679:1684   */\n      dup3\n        /* \"#utility.yul\":1661:1685   */\n      tag_129\n      jump\t// in\n    tag_182:\n        /* \"#utility.yul\":1650:1685   */\n      swap1\n      pop\n        /* \"#utility.yul\":1595:1691   */\n      swap2\n      swap1\n      pop\n      jump\t// out\n        /* \"#utility.yul\":1697:1819   */\n    tag_131:\n        /* \"#utility.yul\":1770:1794   */\n      tag_184\n        /* \"#utility.yul\":1788:1793   */\n      dup2\n        /* \"#utility.yul\":1770:1794   */\n      tag_130\n      jump\t// in\n    tag_184:\n        /* \"#utility.yul\":1763:1768   */\n      dup2\n        /* \"#utility.yul\":1760:1795   */\n      eq\n        /* \"#utility.yul\":1750:1813   */\n      tag_185\n      jumpi\n        /* \"#utility.yul\":1809:1810   */\n      0x00\n        /* \"#utility.yul\":1806:1807   */\n      dup1\n        /* \"#utility.yul\":1799:1811   */\n      revert\n        /* \"#utility.yul\":1750:1813   */\n    tag_185:\n        /* \"#utility.yul\":1697:1819   */\n      pop\n      jump\t// out\n        /* \"#utility.yul\":1825:1964   */\n    tag_132:\n        /* \"#utility.yul\":1871:1876   */\n      0x00\n        /* \"#utility.yul\":1909:1915   */\n      dup2\n        /* \"#utility.yul\":1896:1916   */\n      calldataload\n        /* \"#utility.yul\":1887:1916   */\n      swap1\n      pop\n        /* \"#utility.yul\":1925:1958   */\n      tag_187\n        /* \"#utility.yul\":1952:1957   */\n      dup2\n        /* \"#utility.yul\":1925:1958   */\n      tag_131\n      jump\t// in\n    tag_187:\n        /* \"#utility.yul\":1825:1964   */\n      swap3\n      swap2\n      pop\n      pop\n      jump\t// out\n        /* \"#utility.yul\":1970:2444   */\n    tag_16:\n        /* \"#utility.yul\":2038:2044   */\n      0x00\n        /* \"#utility.yul\":2046:2052   */\n      dup1\n        /* \"#utility.yul\":2095:2097   */\n      0x40\n        /* \"#utility.yul\":2083:2092   */\n      dup4\n        /* \"#utility.yul\":2074:2081   */\n      dup6\n        /* \"#utility.yul\":2070:2093   */\n      sub\n        /* \"#utility.yul\":2066:2098   */\n      slt\n        /* \"#utility.yul\":2063:2182   */\n      iszero\n      tag_189\n      jumpi\n        /* \"#utility.yul\":2101:2180   */\n      tag_190\n      tag_127\n      jump\t// in\n    tag_190:\n        /* \"#utility.yul\":2063:2182   */\n    tag_189:\n        /* \"#utility.yul\":2221:2222   */\n      0x00\n        /* \"#utility.yul\":2246:2299   */\n      tag_191\n        /* \"#utility.yul\":2291:2298   */\n      dup6\n        /* \"#utility.yul\":2282:2288   */\n      dup3\n        /* \"#utility.yul\":2271:2280   */\n      dup7\n        /* \"#utility.yul\":2267:2289   */\n      add\n        /* \"#utility.yul\":2246:2299   */\n      tag_132\n      jump\t// in\n    tag_191:\n        /* \"#utility.yul\":2236:2299   */\n      swap3\n      pop\n        /* \"#utility.yul\":2192:2309   */\n      pop\n        /* \"#utility.yul\":2348:2350   */\n      0x20\n        /* \"#utility.yul\":2374:2427   */\n      tag_192\n        /* \"#utility.yul\":2419:2426   */\n      dup6\n        /* \"#utility.yul\":2410:2416   */\n      dup3\n        /* \"#utility.yul\":2399:2408   */\n      dup7\n        /* \"#utility.yul\":2395:2417   */\n      add\n        /* \"#utility.yul\":2374:2427   */\n      tag_132\n      jump\t// in\n    tag_192:\n        /* \"#utility.yul\":2364:2427   */\n      swap2\n      pop\n        /* \"#utility.yul\":2319:2437   */\n      pop\n        /* \"#utility.yul\":1970:2444   */\n      swap3\n      pop\n      swap3\n      swap1\n      pop\n      jump\t// out\n        /* \"#utility.yul\":2450:2564   */\n    tag_133:\n        /* \"#utility.yul\":2517:2523   */\n      0x00\n        /* \"#utility.yul\":2551:2556   */\n      dup2\n        /* \"#utility.yul\":2545:2557   */\n      mload\n        /* \"#utility.yul\":2535:2557   */\n      swap1\n      pop\n        /* \"#utility.yul\":2450:2564   */\n      swap2\n      swap1\n      pop\n      jump\t// out\n        /* \"#utility.yul\":2570:2754   */\n    tag_134:\n        /* \"#utility.yul\":2669:2680   */\n      0x00\n        /* \"#utility.yul\":2703:2709   */\n      dup3\n        /* \"#utility.yul\":2698:2701   */\n      dup3\n        /* \"#utility.yul\":2691:2710   */\n      mstore\n        /* \"#utility.yul\":2743:2747   */\n      0x20\n        /* \"#utility.yul\":2738:2741   */\n      dup3\n        /* \"#utility.yul\":2734:2748   */\n      add\n        /* \"#utility.yul\":2719:2748   */\n      swap1\n      pop\n        /* \"#utility.yul\":2570:2754   */\n      swap3\n      swap2\n      pop\n      pop\n      jump\t// out\n        /* \"#utility.yul\":2760:2892   */\n    tag_135:\n        /* \"#utility.yul\":2827:2831   */\n      0x00\n        /* \"#utility.yul\":2850:2853   */\n      dup2\n        /* \"#utility.yul\":2842:2853   */\n      swap1\n      pop\n        /* \"#utility.yul\":2880:2884   */\n      0x20\n        /* \"#utility.yul\":2875:2878   */\n      dup3\n        /* \"#utility.yul\":2871:2885   */\n      add\n        /* \"#utility.yul\":2863:2885   */\n      swap1\n      pop\n        /* \"#utility.yul\":2760:2892   */\n      swap2\n      swap1\n      pop\n      jump\t// out\n        /* \"#utility.yul\":2898:3006   */\n    tag_136:\n        /* \"#utility.yul\":2975:2999   */\n      tag_197\n        /* \"#utility.yul\":2993:2998   */\n      dup2\n        /* \"#utility.yul\":2975:2999   */\n      tag_130\n      jump\t// in\n    tag_197:\n        /* \"#utility.yul\":2970:2973   */\n      dup3\n        /* \"#utility.yul\":2963:3000   */\n      mstore\n        /* \"#utility.yul\":2898:3006   */\n      pop\n      pop\n      jump\t// out\n        /* \"#utility.yul\":3012:3191   */\n    tag_137:\n        /* \"#utility.yul\":3081:3091   */\n      0x00\n        /* \"#utility.yul\":3102:3148   */\n      tag_199\n        /* \"#utility.yul\":3144:3147   */\n      dup4\n        /* \"#utility.yul\":3136:3142   */\n      dup4\n        /* \"#utility.yul\":3102:3148   */\n      tag_136\n      jump\t// in\n    tag_199:\n        /* \"#utility.yul\":3180:3184   */\n      0x20\n        /* \"#utility.yul\":3175:3178   */\n      dup4\n        /* \"#utility.yul\":3171:3185   */\n      add\n        /* \"#utility.yul\":3157:3185   */\n      swap1\n      pop\n        /* \"#utility.yul\":3012:3191   */\n      swap3\n      swap2\n      pop\n      pop\n      jump\t// out\n        /* \"#utility.yul\":3197:3310   */\n    tag_138:\n        /* \"#utility.yul\":3267:3271   */\n      0x00\n        /* \"#utility.yul\":3299:3303   */\n      0x20\n        /* \"#utility.yul\":3294:3297   */\n      dup3\n        /* \"#utility.yul\":3290:3304   */\n      add\n        /* \"#utility.yul\":3282:3304   */\n      swap1\n      pop\n        /* \"#utility.yul\":3197:3310   */\n      swap2\n      swap1\n      pop\n      jump\t// out\n        /* \"#utility.yul\":3346:4078   */\n    tag_139:\n        /* \"#utility.yul\":3465:3468   */\n      0x00\n        /* \"#utility.yul\":3494:3548   */\n      tag_202\n        /* \"#utility.yul\":3542:3547   */\n      dup3\n        /* \"#utility.yul\":3494:3548   */\n      tag_133\n      jump\t// in\n    tag_202:\n        /* \"#utility.yul\":3564:3650   */\n      tag_203\n        /* \"#utility.yul\":3643:3649   */\n      dup2\n        /* \"#utility.yul\":3638:3641   */\n      dup6\n        /* \"#utility.yul\":3564:3650   */\n      tag_134\n      jump\t// in\n    tag_203:\n        /* \"#utility.yul\":3557:3650   */\n      swap4\n      pop\n        /* \"#utility.yul\":3674:3730   */\n      tag_204\n        /* \"#utility.yul\":3724:3729   */\n      dup4\n        /* \"#utility.yul\":3674:3730   */\n      tag_135\n      jump\t// in\n    tag_204:\n        /* \"#utility.yul\":3753:3760   */\n      dup1\n        /* \"#utility.yul\":3784:3785   */\n      0x00\n        /* \"#utility.yul\":3769:4053   */\n    tag_205:\n        /* \"#utility.yul\":3794:3800   */\n      dup4\n        /* \"#utility.yul\":3791:3792   */\n      dup2\n        /* \"#utility.yul\":3788:3801   */\n      lt\n        /* \"#utility.yul\":3769:4053   */\n      iszero\n      tag_207\n      jumpi\n        /* \"#utility.yul\":3870:3876   */\n      dup2\n        /* \"#utility.yul\":3864:3877   */\n      mload\n        /* \"#utility.yul\":3897:3960   */\n      tag_208\n        /* \"#utility.yul\":3956:3959   */\n      dup9\n        /* \"#utility.yul\":3941:3954   */\n      dup3\n        /* \"#utility.yul\":3897:3960   */\n      tag_137\n      jump\t// in\n    tag_208:\n        /* \"#utility.yul\":3890:3960   */\n      swap8\n      pop\n        /* \"#utility.yul\":3983:4043   */\n      tag_209\n        /* \"#utility.yul\":4036:4042   */\n      dup4\n        /* \"#utility.yul\":3983:4043   */\n      tag_138\n      jump\t// in\n    tag_209:\n        /* \"#utility.yul\":3973:4043   */\n      swap3\n      pop\n        /* \"#utility.yul\":3829:4053   */\n      pop\n        /* \"#utility.yul\":3816:3817   */\n      0x01\n        /* \"#utility.yul\":3813:3814   */\n      dup2\n        /* \"#utility.yul\":3809:3818   */\n      add\n        /* \"#utility.yul\":3804:3818   */\n      swap1\n      pop\n        /* \"#utility.yul\":3769:4053   */\n      jump(tag_205)\n    tag_207:\n        /* \"#utility.yul\":3773:3787   */\n      pop\n        /* \"#utility.yul\":4069:4072   */\n      dup6\n        /* \"#utility.yul\":4062:4072   */\n      swap4\n      pop\n        /* \"#utility.yul\":3470:4078   */\n      pop\n      pop\n      pop\n        /* \"#utility.yul\":3346:4078   */\n      swap3\n      swap2\n      pop\n      pop\n      jump\t// out\n        /* \"#utility.yul\":4084:4198   */\n    tag_140:\n        /* \"#utility.yul\":4151:4157   */\n      0x00\n        /* \"#utility.yul\":4185:4190   */\n      dup2\n        /* \"#utility.yul\":4179:4191   */\n      mload\n        /* \"#utility.yul\":4169:4191   */\n      swap1\n      pop\n        /* \"#utility.yul\":4084:4198   */\n      swap2\n      swap1\n      pop\n      jump\t// out\n        /* \"#utility.yul\":4204:4388   */\n    tag_141:\n        /* \"#utility.yul\":4303:4314   */\n      0x00\n        /* \"#utility.yul\":4337:4343   */\n      dup3\n        /* \"#utility.yul\":4332:4335   */\n      dup3\n        /* \"#utility.yul\":4325:4344   */\n      mstore\n        /* \"#utility.yul\":4377:4381   */\n      0x20\n        /* \"#utility.yul\":4372:4375   */\n      dup3\n        /* \"#utility.yul\":4368:4382   */\n      add\n        /* \"#utility.yul\":4353:4382   */\n      swap1\n      pop\n        /* \"#utility.yul\":4204:4388   */\n      swap3\n      swap2\n      pop\n      pop\n      jump\t// out\n        /* \"#utility.yul\":4394:4526   */\n    tag_142:\n        /* \"#utility.yul\":4461:4465   */\n      0x00\n        /* \"#utility.yul\":4484:4487   */\n      dup2\n        /* \"#utility.yul\":4476:4487   */\n      swap1\n      pop\n        /* \"#utility.yul\":4514:4518   */\n      0x20\n        /* \"#utility.yul\":4509:4512   */\n      dup3\n        /* \"#utility.yul\":4505:4519   */\n      add\n        /* \"#utility.yul\":4497:4519   */\n      swap1\n      pop\n        /* \"#utility.yul\":4394:4526   */\n      swap2\n      swap1\n      pop\n      jump\t// out\n        /* \"#utility.yul\":4532:4609   */\n    tag_143:\n        /* \"#utility.yul\":4569:4576   */\n      0x00\n        /* \"#utility.yul\":4598:4603   */\n      dup2\n        /* \"#utility.yul\":4587:4603   */\n      swap1\n      pop\n        /* \"#utility.yul\":4532:4609   */\n      swap2\n      swap1\n      pop\n      jump\t// out\n        /* \"#utility.yul\":4615:4723   */\n    tag_144:\n        /* \"#utility.yul\":4692:4716   */\n      tag_215\n        /* \"#utility.yul\":4710:4715   */\n      dup2\n        /* \"#utility.yul\":4692:4716   */\n      tag_143\n      jump\t// in\n    tag_215:\n        /* \"#utility.yul\":4687:4690   */\n      dup3\n        /* \"#utility.yul\":4680:4717   */\n      mstore\n        /* \"#utility.yul\":4615:4723   */\n      pop\n      pop\n      jump\t// out\n        /* \"#utility.yul\":4729:4908   */\n    tag_145:\n        /* \"#utility.yul\":4798:4808   */\n      0x00\n        /* \"#utility.yul\":4819:4865   */\n      tag_217\n        /* \"#utility.yul\":4861:4864   */\n      dup4\n        /* \"#utility.yul\":4853:4859   */\n      dup4\n        /* \"#utility.yul\":4819:4865   */\n      tag_144\n      jump\t// in\n    tag_217:\n        /* \"#utility.yul\":4897:4901   */\n      0x20\n        /* \"#utility.yul\":4892:4895   */\n      dup4\n        /* \"#utility.yul\":4888:4902   */\n      add\n        /* \"#utility.yul\":4874:4902   */\n      swap1\n      pop\n        /* \"#utility.yul\":4729:4908   */\n      swap3\n      swap2\n      pop\n      pop\n      jump\t// out\n        /* \"#utility.yul\":4914:5027   */\n    tag_146:\n        /* \"#utility.yul\":4984:4988   */\n      0x00\n        /* \"#utility.yul\":5016:5020   */\n      0x20\n        /* \"#utility.yul\":5011:5014   */\n      dup3\n        /* \"#utility.yul\":5007:5021   */\n      add\n        /* \"#utility.yul\":4999:5021   */\n      swap1\n      pop\n        /* \"#utility.yul\":4914:5027   */\n      swap2\n      swap1\n      pop\n      jump\t// out\n        /* \"#utility.yul\":5063:5795   */\n    tag_147:\n        /* \"#utility.yul\":5182:5185   */\n      0x00\n        /* \"#utility.yul\":5211:5265   */\n      tag_220\n        /* \"#utility.yul\":5259:5264   */\n      dup3\n        /* \"#utility.yul\":5211:5265   */\n      tag_140\n      jump\t// in\n    tag_220:\n        /* \"#utility.yul\":5281:5367   */\n      tag_221\n        /* \"#utility.yul\":5360:5366   */\n      dup2\n        /* \"#utility.yul\":5355:5358   */\n      dup6\n        /* \"#utility.yul\":5281:5367   */\n      tag_141\n      jump\t// in\n    tag_221:\n        /* \"#utility.yul\":5274:5367   */\n      swap4\n      pop\n        /* \"#utility.yul\":5391:5447   */\n      tag_222\n        /* \"#utility.yul\":5441:5446   */\n      dup4\n        /* \"#utility.yul\":5391:5447   */\n      tag_142\n      jump\t// in\n    tag_222:\n        /* \"#utility.yul\":5470:5477   */\n      dup1\n        /* \"#utility.yul\":5501:5502   */\n      0x00\n        /* \"#utility.yul\":5486:5770   */\n    tag_223:\n        /* \"#utility.yul\":5511:5517   */\n      dup4\n        /* \"#utility.yul\":5508:5509   */\n      dup2\n        /* \"#utility.yul\":5505:5518   */\n      lt\n        /* \"#utility.yul\":5486:5770   */\n      iszero\n      tag_225\n      jumpi\n        /* \"#utility.yul\":5587:5593   */\n      dup2\n        /* \"#utility.yul\":5581:5594   */\n      mload\n        /* \"#utility.yul\":5614:5677   */\n      tag_226\n        /* \"#utility.yul\":5673:5676   */\n      dup9\n        /* \"#utility.yul\":5658:5671   */\n      dup3\n        /* \"#utility.yul\":5614:5677   */\n      tag_145\n      jump\t// in\n    tag_226:\n        /* \"#utility.yul\":5607:5677   */\n      swap8\n      pop\n        /* \"#utility.yul\":5700:5760   */\n      tag_227\n        /* \"#utility.yul\":5753:5759   */\n      dup4\n        /* \"#utility.yul\":5700:5760   */\n      tag_146\n      jump\t// in\n    tag_227:\n        /* \"#utility.yul\":5690:5760   */\n      swap3\n      pop\n        /* \"#utility.yul\":5546:5770   */\n      pop\n        /* \"#utility.yul\":5533:5534   */\n      0x01\n        /* \"#utility.yul\":5530:5531   */\n      dup2\n        /* \"#utility.yul\":5526:5535   */\n      add\n        /* \"#utility.yul\":5521:5535   */\n      swap1\n      pop\n        /* \"#utility.yul\":5486:5770   */\n      jump(tag_223)\n    tag_225:\n        /* \"#utility.yul\":5490:5504   */\n      pop\n        /* \"#utility.yul\":5786:5789   */\n      dup6\n        /* \"#utility.yul\":5779:5789   */\n      swap4\n      pop\n        /* \"#utility.yul\":5187:5795   */\n      pop\n      pop\n      pop\n        /* \"#utility.yul\":5063:5795   */\n      swap3\n      swap2\n      pop\n      pop\n      jump\t// out\n        /* \"#utility.yul\":5801:6435   */\n    tag_19:\n        /* \"#utility.yul\":6022:6026   */\n      0x00\n        /* \"#utility.yul\":6060:6062   */\n      0x40\n        /* \"#utility.yul\":6049:6058   */\n      dup3\n        /* \"#utility.yul\":6045:6063   */\n      add\n        /* \"#utility.yul\":6037:6063   */\n      swap1\n      pop\n        /* \"#utility.yul\":6109:6118   */\n      dup2\n        /* \"#utility.yul\":6103:6107   */\n      dup2\n        /* \"#utility.yul\":6099:6119   */\n      sub\n        /* \"#utility.yul\":6095:6096   */\n      0x00\n        /* \"#utility.yul\":6084:6093   */\n      dup4\n        /* \"#utility.yul\":6080:6097   */\n      add\n        /* \"#utility.yul\":6073:6120   */\n      mstore\n        /* \"#utility.yul\":6137:6245   */\n      tag_229\n        /* \"#utility.yul\":6240:6244   */\n      dup2\n        /* \"#utility.yul\":6231:6237   */\n      dup6\n        /* \"#utility.yul\":6137:6245   */\n      tag_139\n      jump\t// in\n    tag_229:\n        /* \"#utility.yul\":6129:6245   */\n      swap1\n      pop\n        /* \"#utility.yul\":6292:6301   */\n      dup2\n        /* \"#utility.yul\":6286:6290   */\n      dup2\n        /* \"#utility.yul\":6282:6302   */\n      sub\n        /* \"#utility.yul\":6277:6279   */\n      0x20\n        /* \"#utility.yul\":6266:6275   */\n      dup4\n        /* \"#utility.yul\":6262:6280   */\n      add\n        /* \"#utility.yul\":6255:6303   */\n      mstore\n        /* \"#utility.yul\":6320:6428   */\n      tag_230\n        /* \"#utility.yul\":6423:6427   */\n      dup2\n        /* \"#utility.yul\":6414:6420   */\n      dup5\n        /* \"#utility.yul\":6320:6428   */\n      tag_147\n      jump\t// in\n    tag_230:\n        /* \"#utility.yul\":6312:6428   */\n      swap1\n      pop\n        /* \"#utility.yul\":5801:6435   */\n      swap4\n      swap3\n      pop\n      pop\n      pop\n      jump\t// out\n        /* \"#utility.yul\":6441:6558   */\n    tag_148:\n        /* \"#utility.yul\":6550:6551   */\n      0x00\n        /* \"#utility.yul\":6547:6548   */\n      dup1\n        /* \"#utility.yul\":6540:6552   */\n      revert\n        /* \"#utility.yul\":6564:6681   */\n    tag_149:\n        /* \"#utility.yul\":6673:6674   */\n      0x00\n        /* \"#utility.yul\":6670:6671   */\n      dup1\n        /* \"#utility.yul\":6663:6675   */\n      revert\n        /* \"#utility.yul\":6687:6804   */\n    tag_150:\n        /* \"#utility.yul\":6796:6797   */\n      0x00\n        /* \"#utility.yul\":6793:6794   */\n      dup1\n        /* \"#utility.yul\":6786:6798   */\n      revert\n        /* \"#utility.yul\":6827:7395   */\n    tag_151:\n        /* \"#utility.yul\":6900:6908   */\n      0x00\n        /* \"#utility.yul\":6910:6916   */\n      dup1\n        /* \"#utility.yul\":6960:6963   */\n      dup4\n        /* \"#utility.yul\":6953:6957   */\n      0x1f\n        /* \"#utility.yul\":6945:6951   */\n      dup5\n        /* \"#utility.yul\":6941:6958   */\n      add\n        /* \"#utility.yul\":6937:6964   */\n      slt\n        /* \"#utility.yul\":6927:7049   */\n      tag_235\n      jumpi\n        /* \"#utility.yul\":6968:7047   */\n      tag_236\n      tag_148\n      jump\t// in\n    tag_236:\n        /* \"#utility.yul\":6927:7049   */\n    tag_235:\n        /* \"#utility.yul\":7081:7087   */\n      dup3\n        /* \"#utility.yul\":7068:7088   */\n      calldataload\n        /* \"#utility.yul\":7058:7088   */\n      swap1\n      pop\n        /* \"#utility.yul\":7111:7129   */\n      0xffffffffffffffff\n        /* \"#utility.yul\":7103:7109   */\n      dup2\n        /* \"#utility.yul\":7100:7130   */\n      gt\n        /* \"#utility.yul\":7097:7214   */\n      iszero\n      tag_237\n      jumpi\n        /* \"#utility.yul\":7133:7212   */\n      tag_238\n      tag_149\n      jump\t// in\n    tag_238:\n        /* \"#utility.yul\":7097:7214   */\n    tag_237:\n        /* \"#utility.yul\":7247:7251   */\n      0x20\n        /* \"#utility.yul\":7239:7245   */\n      dup4\n        /* \"#utility.yul\":7235:7252   */\n      add\n        /* \"#utility.yul\":7223:7252   */\n      swap2\n      pop\n        /* \"#utility.yul\":7301:7304   */\n      dup4\n        /* \"#utility.yul\":7293:7297   */\n      0x20\n        /* \"#utility.yul\":7285:7291   */\n      dup3\n        /* \"#utility.yul\":7281:7298   */\n      mul\n        /* \"#utility.yul\":7271:7279   */\n      dup4\n        /* \"#utility.yul\":7267:7299   */\n      add\n        /* \"#utility.yul\":7264:7305   */\n      gt\n        /* \"#utility.yul\":7261:7389   */\n      iszero\n      tag_239\n      jumpi\n        /* \"#utility.yul\":7308:7387   */\n      tag_240\n      tag_150\n      jump\t// in\n    tag_240:\n        /* \"#utility.yul\":7261:7389   */\n    tag_239:\n        /* \"#utility.yul\":6827:7395   */\n      swap3\n      pop\n      swap3\n      swap1\n      pop\n      jump\t// out\n        /* \"#utility.yul\":7401:8335   */\n    tag_23:\n        /* \"#utility.yul\":7523:7529   */\n      0x00\n        /* \"#utility.yul\":7531:7537   */\n      dup1\n        /* \"#utility.yul\":7539:7545   */\n      0x00\n        /* \"#utility.yul\":7547:7553   */\n      dup1\n        /* \"#utility.yul\":7596:7598   */\n      0x40\n        /* \"#utility.yul\":7584:7593   */\n      dup6\n        /* \"#utility.yul\":7575:7582   */\n      dup8\n        /* \"#utility.yul\":7571:7594   */\n      sub\n        /* \"#utility.yul\":7567:7599   */\n      slt\n        /* \"#utility.yul\":7564:7683   */\n      iszero\n      tag_242\n      jumpi\n        /* \"#utility.yul\":7602:7681   */\n      tag_243\n      tag_127\n      jump\t// in\n    tag_243:\n        /* \"#utility.yul\":7564:7683   */\n    tag_242:\n        /* \"#utility.yul\":7750:7751   */\n      0x00\n        /* \"#utility.yul\":7739:7748   */\n      dup6\n        /* \"#utility.yul\":7735:7752   */\n      add\n        /* \"#utility.yul\":7722:7753   */\n      calldataload\n        /* \"#utility.yul\":7780:7798   */\n      0xffffffffffffffff\n        /* \"#utility.yul\":7772:7778   */\n      dup2\n        /* \"#utility.yul\":7769:7799   */\n      gt\n        /* \"#utility.yul\":7766:7883   */\n      iszero\n      tag_244\n      jumpi\n        /* \"#utility.yul\":7802:7881   */\n      tag_245\n      tag_128\n      jump\t// in\n    tag_245:\n        /* \"#utility.yul\":7766:7883   */\n    tag_244:\n        /* \"#utility.yul\":7915:7995   */\n      tag_246\n        /* \"#utility.yul\":7987:7994   */\n      dup8\n        /* \"#utility.yul\":7978:7984   */\n      dup3\n        /* \"#utility.yul\":7967:7976   */\n      dup9\n        /* \"#utility.yul\":7963:7985   */\n      add\n        /* \"#utility.yul\":7915:7995   */\n      tag_151\n      jump\t// in\n    tag_246:\n        /* \"#utility.yul\":7897:7995   */\n      swap5\n      pop\n      swap5\n      pop\n        /* \"#utility.yul\":7693:8005   */\n      pop\n        /* \"#utility.yul\":8072:8074   */\n      0x20\n        /* \"#utility.yul\":8061:8070   */\n      dup6\n        /* \"#utility.yul\":8057:8075   */\n      add\n        /* \"#utility.yul\":8044:8076   */\n      calldataload\n        /* \"#utility.yul\":8103:8121   */\n      0xffffffffffffffff\n        /* \"#utility.yul\":8095:8101   */\n      dup2\n        /* \"#utility.yul\":8092:8122   */\n      gt\n        /* \"#utility.yul\":8089:8206   */\n      iszero\n      tag_247\n      jumpi\n        /* \"#utility.yul\":8125:8204   */\n      tag_248\n      tag_128\n      jump\t// in\n    tag_248:\n        /* \"#utility.yul\":8089:8206   */\n    tag_247:\n        /* \"#utility.yul\":8238:8318   */\n      tag_249\n        /* \"#utility.yul\":8310:8317   */\n      dup8\n        /* \"#utility.yul\":8301:8307   */\n      dup3\n        /* \"#utility.yul\":8290:8299   */\n      dup9\n        /* \"#utility.yul\":8286:8308   */\n      add\n        /* \"#utility.yul\":8238:8318   */\n      tag_151\n      jump\t// in\n    tag_249:\n        /* \"#utility.yul\":8220:8318   */\n      swap3\n      pop\n      swap3\n      pop\n        /* \"#utility.yul\":8015:8328   */\n      pop\n        /* \"#utility.yul\":7401:8335   */\n      swap3\n      swap6\n      swap2\n      swap5\n      pop\n      swap3\n      pop\n      jump\t// out\n        /* \"#utility.yul\":8341:8714   */\n    tag_26:\n        /* \"#utility.yul\":8484:8488   */\n      0x00\n        /* \"#utility.yul\":8522:8524   */\n      0x20\n        /* \"#utility.yul\":8511:8520   */\n      dup3\n        /* \"#utility.yul\":8507:8525   */\n      add\n        /* \"#utility.yul\":8499:8525   */\n      swap1\n      pop\n        /* \"#utility.yul\":8571:8580   */\n      dup2\n        /* \"#utility.yul\":8565:8569   */\n      dup2\n        /* \"#utility.yul\":8561:8581   */\n      sub\n        /* \"#utility.yul\":8557:8558   */\n      0x00\n        /* \"#utility.yul\":8546:8555   */\n      dup4\n        /* \"#utility.yul\":8542:8559   */\n      add\n        /* \"#utility.yul\":8535:8582   */\n      mstore\n        /* \"#utility.yul\":8599:8707   */\n      tag_251\n        /* \"#utility.yul\":8702:8706   */\n      dup2\n        /* \"#utility.yul\":8693:8699   */\n      dup5\n        /* \"#utility.yul\":8599:8707   */\n      tag_147\n      jump\t// in\n    tag_251:\n        /* \"#utility.yul\":8591:8707   */\n      swap1\n      pop\n        /* \"#utility.yul\":8341:8714   */\n      swap3\n      swap2\n      pop\n      pop\n      jump\t// out\n        /* \"#utility.yul\":8720:8838   */\n    tag_152:\n        /* \"#utility.yul\":8807:8831   */\n      tag_253\n        /* \"#utility.yul\":8825:8830   */\n      dup2\n        /* \"#utility.yul\":8807:8831   */\n      tag_143\n      jump\t// in\n    tag_253:\n        /* \"#utility.yul\":8802:8805   */\n      dup3\n        /* \"#utility.yul\":8795:8832   */\n      mstore\n        /* \"#utility.yul\":8720:8838   */\n      pop\n      pop\n      jump\t// out\n        /* \"#utility.yul\":8844:9066   */\n    tag_32:\n        /* \"#utility.yul\":8937:8941   */\n      0x00\n        /* \"#utility.yul\":8975:8977   */\n      0x20\n        /* \"#utility.yul\":8964:8973   */\n      dup3\n        /* \"#utility.yul\":8960:8978   */\n      add\n        /* \"#utility.yul\":8952:8978   */\n      swap1\n      pop\n        /* \"#utility.yul\":8988:9059   */\n      tag_255\n        /* \"#utility.yul\":9056:9057   */\n      0x00\n        /* \"#utility.yul\":9045:9054   */\n      dup4\n        /* \"#utility.yul\":9041:9058   */\n      add\n        /* \"#utility.yul\":9032:9038   */\n      dup5\n        /* \"#utility.yul\":8988:9059   */\n      tag_152\n      jump\t// in\n    tag_255:\n        /* \"#utility.yul\":8844:9066   */\n      swap3\n      swap2\n      pop\n      pop\n      jump\t// out\n        /* \"#utility.yul\":9072:9215   */\n    tag_153:\n        /* \"#utility.yul\":9129:9134   */\n      0x00\n        /* \"#utility.yul\":9160:9166   */\n      dup2\n        /* \"#utility.yul\":9154:9167   */\n      mload\n        /* \"#utility.yul\":9145:9167   */\n      swap1\n      pop\n        /* \"#utility.yul\":9176:9209   */\n      tag_257\n        /* \"#utility.yul\":9203:9208   */\n      dup2\n        /* \"#utility.yul\":9176:9209   */\n      tag_131\n      jump\t// in\n    tag_257:\n        /* \"#utility.yul\":9072:9215   */\n      swap3\n      swap2\n      pop\n      pop\n      jump\t// out\n        /* \"#utility.yul\":9221:9572   */\n    tag_38:\n        /* \"#utility.yul\":9291:9297   */\n      0x00\n        /* \"#utility.yul\":9340:9342   */\n      0x20\n        /* \"#utility.yul\":9328:9337   */\n      dup3\n        /* \"#utility.yul\":9319:9326   */\n      dup5\n        /* \"#utility.yul\":9315:9338   */\n      sub\n        /* \"#utility.yul\":9311:9343   */\n      slt\n        /* \"#utility.yul\":9308:9427   */\n      iszero\n      tag_259\n      jumpi\n        /* \"#utility.yul\":9346:9425   */\n      tag_260\n      tag_127\n      jump\t// in\n    tag_260:\n        /* \"#utility.yul\":9308:9427   */\n    tag_259:\n        /* \"#utility.yul\":9466:9467   */\n      0x00\n        /* \"#utility.yul\":9491:9555   */\n      tag_261\n        /* \"#utility.yul\":9547:9554   */\n      dup5\n        /* \"#utility.yul\":9538:9544   */\n      dup3\n        /* \"#utility.yul\":9527:9536   */\n      dup6\n        /* \"#utility.yul\":9523:9545   */\n      add\n        /* \"#utility.yul\":9491:9555   */\n      tag_153\n      jump\t// in\n    tag_261:\n        /* \"#utility.yul\":9481:9555   */\n      swap2\n      pop\n        /* \"#utility.yul\":9437:9565   */\n      pop\n        /* \"#utility.yul\":9221:9572   */\n      swap3\n      swap2\n      pop\n      pop\n      jump\t// out\n        /* \"#utility.yul\":9578:9680   */\n    tag_154:\n        /* \"#utility.yul\":9619:9625   */\n      0x00\n        /* \"#utility.yul\":9670:9672   */\n      0x1f\n        /* \"#utility.yul\":9666:9673   */\n      not\n        /* \"#utility.yul\":9661:9663   */\n      0x1f\n        /* \"#utility.yul\":9654:9659   */\n      dup4\n        /* \"#utility.yul\":9650:9664   */\n      add\n        /* \"#utility.yul\":9646:9674   */\n      and\n        /* \"#utility.yul\":9636:9674   */\n      swap1\n      pop\n        /* \"#utility.yul\":9578:9680   */\n      swap2\n      swap1\n      pop\n      jump\t// out\n        /* \"#utility.yul\":9686:9866   */\n    tag_47:\n        /* \"#utility.yul\":9734:9811   */\n      0x4e487b7100000000000000000000000000000000000000000000000000000000\n        /* \"#utility.yul\":9731:9732   */\n      0x00\n        /* \"#utility.yul\":9724:9812   */\n      mstore\n        /* \"#utility.yul\":9831:9835   */\n      0x41\n        /* \"#utility.yul\":9828:9829   */\n      0x04\n        /* \"#utility.yul\":9821:9836   */\n      mstore\n        /* \"#utility.yul\":9855:9859   */\n      0x24\n        /* \"#utility.yul\":9852:9853   */\n      0x00\n        /* \"#utility.yul\":9845:9860   */\n      revert\n        /* \"#utility.yul\":9872:10153   */\n    tag_155:\n        /* \"#utility.yul\":9955:9982   */\n      tag_265\n        /* \"#utility.yul\":9977:9981   */\n      dup3\n        /* \"#utility.yul\":9955:9982   */\n      tag_154\n      jump\t// in\n    tag_265:\n        /* \"#utility.yul\":9947:9953   */\n      dup2\n        /* \"#utility.yul\":9943:9983   */\n      add\n        /* \"#utility.yul\":10085:10091   */\n      dup2\n        /* \"#utility.yul\":10073:10083   */\n      dup2\n        /* \"#utility.yul\":10070:10092   */\n      lt\n        /* \"#utility.yul\":10049:10067   */\n      0xffffffffffffffff\n        /* \"#utility.yul\":10037:10047   */\n      dup3\n        /* \"#utility.yul\":10034:10068   */\n      gt\n        /* \"#utility.yul\":10031:10093   */\n      or\n        /* \"#utility.yul\":10028:10116   */\n      iszero\n      tag_266\n      jumpi\n        /* \"#utility.yul\":10096:10114   */\n      tag_267\n      tag_47\n      jump\t// in\n    tag_267:\n        /* \"#utility.yul\":10028:10116   */\n    tag_266:\n        /* \"#utility.yul\":10136:10146   */\n      dup1\n        /* \"#utility.yul\":10132:10134   */\n      0x40\n        /* \"#utility.yul\":10125:10147   */\n      mstore\n        /* \"#utility.yul\":9915:10153   */\n      pop\n        /* \"#utility.yul\":9872:10153   */\n      pop\n      pop\n      jump\t// out\n        /* \"#utility.yul\":10159:10288   */\n    tag_156:\n        /* \"#utility.yul\":10193:10199   */\n      0x00\n        /* \"#utility.yul\":10220:10240   */\n      tag_269\n      tag_126\n      jump\t// in\n    tag_269:\n        /* \"#utility.yul\":10210:10240   */\n      swap1\n      pop\n        /* \"#utility.yul\":10249:10282   */\n      tag_270\n        /* \"#utility.yul\":10277:10281   */\n      dup3\n        /* \"#utility.yul\":10269:10275   */\n      dup3\n        /* \"#utility.yul\":10249:10282   */\n      tag_155\n      jump\t// in\n    tag_270:\n        /* \"#utility.yul\":10159:10288   */\n      swap2\n      swap1\n      pop\n      jump\t// out\n        /* \"#utility.yul\":10294:10605   */\n    tag_157:\n        /* \"#utility.yul\":10371:10375   */\n      0x00\n        /* \"#utility.yul\":10461:10479   */\n      0xffffffffffffffff\n        /* \"#utility.yul\":10453:10459   */\n      dup3\n        /* \"#utility.yul\":10450:10480   */\n      gt\n        /* \"#utility.yul\":10447:10503   */\n      iszero\n      tag_272\n      jumpi\n        /* \"#utility.yul\":10483:10501   */\n      tag_273\n      tag_47\n      jump\t// in\n    tag_273:\n        /* \"#utility.yul\":10447:10503   */\n    tag_272:\n        /* \"#utility.yul\":10533:10537   */\n      0x20\n        /* \"#utility.yul\":10525:10531   */\n      dup3\n        /* \"#utility.yul\":10521:10538   */\n      mul\n        /* \"#utility.yul\":10513:10538   */\n      swap1\n      pop\n        /* \"#utility.yul\":10593:10597   */\n      0x20\n        /* \"#utility.yul\":10587:10591   */\n      dup2\n        /* \"#utility.yul\":10583:10598   */\n      add\n        /* \"#utility.yul\":10575:10598   */\n      swap1\n      pop\n        /* \"#utility.yul\":10294:10605   */\n      swap2\n      swap1\n      pop\n      jump\t// out\n        /* \"#utility.yul\":10628:11360   */\n    tag_158:\n        /* \"#utility.yul\":10735:10740   */\n      0x00\n        /* \"#utility.yul\":10760:10841   */\n      tag_275\n        /* \"#utility.yul\":10776:10840   */\n      tag_276\n        /* \"#utility.yul\":10833:10839   */\n      dup5\n        /* \"#utility.yul\":10776:10840   */\n      tag_157\n      jump\t// in\n    tag_276:\n        /* \"#utility.yul\":10760:10841   */\n      tag_156\n      jump\t// in\n    tag_275:\n        /* \"#utility.yul\":10751:10841   */\n      swap1\n      pop\n        /* \"#utility.yul\":10861:10866   */\n      dup1\n        /* \"#utility.yul\":10890:10896   */\n      dup4\n        /* \"#utility.yul\":10883:10888   */\n      dup3\n        /* \"#utility.yul\":10876:10897   */\n      mstore\n        /* \"#utility.yul\":10924:10928   */\n      0x20\n        /* \"#utility.yul\":10917:10922   */\n      dup3\n        /* \"#utility.yul\":10913:10929   */\n      add\n        /* \"#utility.yul\":10906:10929   */\n      swap1\n      pop\n        /* \"#utility.yul\":10977:10981   */\n      0x20\n        /* \"#utility.yul\":10969:10975   */\n      dup5\n        /* \"#utility.yul\":10965:10982   */\n      mul\n        /* \"#utility.yul\":10957:10963   */\n      dup4\n        /* \"#utility.yul\":10953:10983   */\n      add\n        /* \"#utility.yul\":11006:11009   */\n      dup6\n        /* \"#utility.yul\":10998:11004   */\n      dup2\n        /* \"#utility.yul\":10995:11010   */\n      gt\n        /* \"#utility.yul\":10992:11114   */\n      iszero\n      tag_277\n      jumpi\n        /* \"#utility.yul\":11025:11104   */\n      tag_278\n      tag_150\n      jump\t// in\n    tag_278:\n        /* \"#utility.yul\":10992:11114   */\n    tag_277:\n        /* \"#utility.yul\":11140:11146   */\n      dup4\n        /* \"#utility.yul\":11123:11354   */\n    tag_279:\n        /* \"#utility.yul\":11157:11163   */\n      dup2\n        /* \"#utility.yul\":11152:11155   */\n      dup2\n        /* \"#utility.yul\":11149:11164   */\n      lt\n        /* \"#utility.yul\":11123:11354   */\n      iszero\n      tag_281\n      jumpi\n        /* \"#utility.yul\":11232:11235   */\n      dup1\n        /* \"#utility.yul\":11261:11309   */\n      tag_282\n        /* \"#utility.yul\":11305:11308   */\n      dup9\n        /* \"#utility.yul\":11293:11303   */\n      dup3\n        /* \"#utility.yul\":11261:11309   */\n      tag_153\n      jump\t// in\n    tag_282:\n        /* \"#utility.yul\":11256:11259   */\n      dup5\n        /* \"#utility.yul\":11249:11310   */\n      mstore\n        /* \"#utility.yul\":11339:11343   */\n      0x20\n        /* \"#utility.yul\":11334:11337   */\n      dup5\n        /* \"#utility.yul\":11330:11344   */\n      add\n        /* \"#utility.yul\":11323:11344   */\n      swap4\n      pop\n        /* \"#utility.yul\":11199:11354   */\n      pop\n        /* \"#utility.yul\":11183:11187   */\n      0x20\n        /* \"#utility.yul\":11178:11181   */\n      dup2\n        /* \"#utility.yul\":11174:11188   */\n      add\n        /* \"#utility.yul\":11167:11188   */\n      swap1\n      pop\n        /* \"#utility.yul\":11123:11354   */\n      jump(tag_279)\n    tag_281:\n        /* \"#utility.yul\":11127:11148   */\n      pop\n        /* \"#utility.yul\":10741:11360   */\n      pop\n      pop\n        /* \"#utility.yul\":10628:11360   */\n      swap4\n      swap3\n      pop\n      pop\n      pop\n      jump\t// out\n        /* \"#utility.yul\":11383:11768   */\n    tag_159:\n        /* \"#utility.yul\":11465:11470   */\n      0x00\n        /* \"#utility.yul\":11514:11517   */\n      dup3\n        /* \"#utility.yul\":11507:11511   */\n      0x1f\n        /* \"#utility.yul\":11499:11505   */\n      dup4\n        /* \"#utility.yul\":11495:11512   */\n      add\n        /* \"#utility.yul\":11491:11518   */\n      slt\n        /* \"#utility.yul\":11481:11603   */\n      tag_284\n      jumpi\n        /* \"#utility.yul\":11522:11601   */\n      tag_285\n      tag_148\n      jump\t// in\n    tag_285:\n        /* \"#utility.yul\":11481:11603   */\n    tag_284:\n        /* \"#utility.yul\":11632:11638   */\n      dup2\n        /* \"#utility.yul\":11626:11639   */\n      mload\n        /* \"#utility.yul\":11657:11762   */\n      tag_286\n        /* \"#utility.yul\":11758:11761   */\n      dup5\n        /* \"#utility.yul\":11750:11756   */\n      dup3\n        /* \"#utility.yul\":11743:11747   */\n      0x20\n        /* \"#utility.yul\":11735:11741   */\n      dup7\n        /* \"#utility.yul\":11731:11748   */\n      add\n        /* \"#utility.yul\":11657:11762   */\n      tag_158\n      jump\t// in\n    tag_286:\n        /* \"#utility.yul\":11648:11762   */\n      swap2\n      pop\n        /* \"#utility.yul\":11471:11768   */\n      pop\n        /* \"#utility.yul\":11383:11768   */\n      swap3\n      swap2\n      pop\n      pop\n      jump\t// out\n        /* \"#utility.yul\":11774:12328   */\n    tag_42:\n        /* \"#utility.yul\":11869:11875   */\n      0x00\n        /* \"#utility.yul\":11918:11920   */\n      0x20\n        /* \"#utility.yul\":11906:11915   */\n      dup3\n        /* \"#utility.yul\":11897:11904   */\n      dup5\n        /* \"#utility.yul\":11893:11916   */\n      sub\n        /* \"#utility.yul\":11889:11921   */\n      slt\n        /* \"#utility.yul\":11886:12005   */\n      iszero\n      tag_288\n      jumpi\n        /* \"#utility.yul\":11924:12003   */\n      tag_289\n      tag_127\n      jump\t// in\n    tag_289:\n        /* \"#utility.yul\":11886:12005   */\n    tag_288:\n        /* \"#utility.yul\":12065:12066   */\n      0x00\n        /* \"#utility.yul\":12054:12063   */\n      dup3\n        /* \"#utility.yul\":12050:12067   */\n      add\n        /* \"#utility.yul\":12044:12068   */\n      mload\n        /* \"#utility.yul\":12095:12113   */\n      0xffffffffffffffff\n        /* \"#utility.yul\":12087:12093   */\n      dup2\n        /* \"#utility.yul\":12084:12114   */\n      gt\n        /* \"#utility.yul\":12081:12198   */\n      iszero\n      tag_290\n      jumpi\n        /* \"#utility.yul\":12117:12196   */\n      tag_291\n      tag_128\n      jump\t// in\n    tag_291:\n        /* \"#utility.yul\":12081:12198   */\n    tag_290:\n        /* \"#utility.yul\":12222:12311   */\n      tag_292\n        /* \"#utility.yul\":12303:12310   */\n      dup5\n        /* \"#utility.yul\":12294:12300   */\n      dup3\n        /* \"#utility.yul\":12283:12292   */\n      dup6\n        /* \"#utility.yul\":12279:12301   */\n      add\n        /* \"#utility.yul\":12222:12311   */\n      tag_159\n      jump\t// in\n    tag_292:\n        /* \"#utility.yul\":12212:12311   */\n      swap2\n      pop\n        /* \"#utility.yul\":12015:12321   */\n      pop\n        /* \"#utility.yul\":11774:12328   */\n      swap3\n      swap2\n      pop\n      pop\n      jump\t// out\n        /* \"#utility.yul\":12334:12514   */\n    tag_160:\n        /* \"#utility.yul\":12382:12459   */\n      0x4e487b7100000000000000000000000000000000000000000000000000000000\n        /* \"#utility.yul\":12379:12380   */\n      0x00\n        /* \"#utility.yul\":12372:12460   */\n      mstore\n        /* \"#utility.yul\":12479:12483   */\n      0x11\n        /* \"#utility.yul\":12476:12477   */\n      0x04\n        /* \"#utility.yul\":12469:12484   */\n      mstore\n        /* \"#utility.yul\":12503:12507   */\n      0x24\n        /* \"#utility.yul\":12500:12501   */\n      0x00\n        /* \"#utility.yul\":12493:12508   */\n      revert\n        /* \"#utility.yul\":12520:12711   */\n    tag_44:\n        /* \"#utility.yul\":12560:12563   */\n      0x00\n        /* \"#utility.yul\":12579:12599   */\n      tag_295\n        /* \"#utility.yul\":12597:12598   */\n      dup3\n        /* \"#utility.yul\":12579:12599   */\n      tag_143\n      jump\t// in\n    tag_295:\n        /* \"#utility.yul\":12574:12599   */\n      swap2\n      pop\n        /* \"#utility.yul\":12613:12633   */\n      tag_296\n        /* \"#utility.yul\":12631:12632   */\n      dup4\n        /* \"#utility.yul\":12613:12633   */\n      tag_143\n      jump\t// in\n    tag_296:\n        /* \"#utility.yul\":12608:12633   */\n      swap3\n      pop\n        /* \"#utility.yul\":12656:12657   */\n      dup3\n        /* \"#utility.yul\":12653:12654   */\n      dup3\n        /* \"#utility.yul\":12649:12658   */\n      add\n        /* \"#utility.yul\":12642:12658   */\n      swap1\n      pop\n        /* \"#utility.yul\":12677:12680   */\n      dup1\n        /* \"#utility.yul\":12674:12675   */\n      dup3\n        /* \"#utility.yul\":12671:12681   */\n      gt\n        /* \"#utility.yul\":12668:12704   */\n      iszero\n      tag_297\n      jumpi\n        /* \"#utility.yul\":12684:12702   */\n      tag_298\n      tag_160\n      jump\t// in\n    tag_298:\n        /* \"#utility.yul\":12668:12704   */\n    tag_297:\n        /* \"#utility.yul\":12520:12711   */\n      swap3\n      swap2\n      pop\n      pop\n      jump\t// out\n        /* \"#utility.yul\":12717:12897   */\n    tag_54:\n        /* \"#utility.yul\":12765:12842   */\n      0x4e487b7100000000000000000000000000000000000000000000000000000000\n        /* \"#utility.yul\":12762:12763   */\n      0x00\n        /* \"#utility.yul\":12755:12843   */\n      mstore\n        /* \"#utility.yul\":12862:12866   */\n      0x32\n        /* \"#utility.yul\":12859:12860   */\n      0x04\n        /* \"#utility.yul\":12852:12867   */\n      mstore\n        /* \"#utility.yul\":12886:12890   */\n      0x24\n        /* \"#utility.yul\":12883:12884   */\n      0x00\n        /* \"#utility.yul\":12876:12891   */\n      revert\n        /* \"#utility.yul\":12903:13021   */\n    tag_161:\n        /* \"#utility.yul\":12990:13014   */\n      tag_301\n        /* \"#utility.yul\":13008:13013   */\n      dup2\n        /* \"#utility.yul\":12990:13014   */\n      tag_130\n      jump\t// in\n    tag_301:\n        /* \"#utility.yul\":12985:12988   */\n      dup3\n        /* \"#utility.yul\":12978:13015   */\n      mstore\n        /* \"#utility.yul\":12903:13021   */\n      pop\n      pop\n      jump\t// out\n        /* \"#utility.yul\":13027:13249   */\n    tag_68:\n        /* \"#utility.yul\":13120:13124   */\n      0x00\n        /* \"#utility.yul\":13158:13160   */\n      0x20\n        /* \"#utility.yul\":13147:13156   */\n      dup3\n        /* \"#utility.yul\":13143:13161   */\n      add\n        /* \"#utility.yul\":13135:13161   */\n      swap1\n      pop\n        /* \"#utility.yul\":13171:13242   */\n      tag_303\n        /* \"#utility.yul\":13239:13240   */\n      0x00\n        /* \"#utility.yul\":13228:13237   */\n      dup4\n        /* \"#utility.yul\":13224:13241   */\n      add\n        /* \"#utility.yul\":13215:13221   */\n      dup5\n        /* \"#utility.yul\":13171:13242   */\n      tag_161\n      jump\t// in\n    tag_303:\n        /* \"#utility.yul\":13027:13249   */\n      swap3\n      swap2\n      pop\n      pop\n      jump\t// out\n        /* \"#utility.yul\":13255:13372   */\n    tag_162:\n        /* \"#utility.yul\":13364:13365   */\n      0x00\n        /* \"#utility.yul\":13361:13362   */\n      dup1\n        /* \"#utility.yul\":13354:13366   */\n      revert\n        /* \"#utility.yul\":13501:13623   */\n    tag_164:\n        /* \"#utility.yul\":13574:13598   */\n      tag_307\n        /* \"#utility.yul\":13592:13597   */\n      dup2\n        /* \"#utility.yul\":13574:13598   */\n      tag_143\n      jump\t// in\n    tag_307:\n        /* \"#utility.yul\":13567:13572   */\n      dup2\n        /* \"#utility.yul\":13564:13599   */\n      eq\n        /* \"#utility.yul\":13554:13617   */\n      tag_308\n      jumpi\n        /* \"#utility.yul\":13613:13614   */\n      0x00\n        /* \"#utility.yul\":13610:13611   */\n      dup1\n        /* \"#utility.yul\":13603:13615   */\n      revert\n        /* \"#utility.yul\":13554:13617   */\n    tag_308:\n        /* \"#utility.yul\":13501:13623   */\n      pop\n      jump\t// out\n        /* \"#utility.yul\":13629:13772   */\n    tag_165:\n        /* \"#utility.yul\":13686:13691   */\n      0x00\n        /* \"#utility.yul\":13717:13723   */\n      dup2\n        /* \"#utility.yul\":13711:13724   */\n      mload\n        /* \"#utility.yul\":13702:13724   */\n      swap1\n      pop\n        /* \"#utility.yul\":13733:13766   */\n      tag_310\n        /* \"#utility.yul\":13760:13765   */\n      dup2\n        /* \"#utility.yul\":13733:13766   */\n      tag_164\n      jump\t// in\n    tag_310:\n        /* \"#utility.yul\":13629:13772   */\n      swap3\n      swap2\n      pop\n      pop\n      jump\t// out\n        /* \"#utility.yul\":13826:14277   */\n    tag_166:\n        /* \"#utility.yul\":13927:13932   */\n      0x00\n        /* \"#utility.yul\":13971:13975   */\n      0x20\n        /* \"#utility.yul\":13959:13968   */\n      dup3\n        /* \"#utility.yul\":13954:13957   */\n      dup5\n        /* \"#utility.yul\":13950:13969   */\n      sub\n        /* \"#utility.yul\":13946:13976   */\n      slt\n        /* \"#utility.yul\":13943:14060   */\n      iszero\n      tag_312\n      jumpi\n        /* \"#utility.yul\":13979:14058   */\n      tag_313\n      tag_162\n      jump\t// in\n    tag_313:\n        /* \"#utility.yul\":13943:14060   */\n    tag_312:\n        /* \"#utility.yul\":14078:14099   */\n      tag_314\n        /* \"#utility.yul\":14094:14098   */\n      0x20\n        /* \"#utility.yul\":14078:14099   */\n      tag_156\n      jump\t// in\n    tag_314:\n        /* \"#utility.yul\":14069:14099   */\n      swap1\n      pop\n        /* \"#utility.yul\":14158:14159   */\n      0x00\n        /* \"#utility.yul\":14198:14258   */\n      tag_315\n        /* \"#utility.yul\":14254:14257   */\n      dup5\n        /* \"#utility.yul\":14245:14251   */\n      dup3\n        /* \"#utility.yul\":14234:14243   */\n      dup6\n        /* \"#utility.yul\":14230:14252   */\n      add\n        /* \"#utility.yul\":14198:14258   */\n      tag_165\n      jump\t// in\n    tag_315:\n        /* \"#utility.yul\":14191:14195   */\n      0x00\n        /* \"#utility.yul\":14184:14189   */\n      dup4\n        /* \"#utility.yul\":14180:14196   */\n      add\n        /* \"#utility.yul\":14173:14259   */\n      mstore\n        /* \"#utility.yul\":14109:14270   */\n      pop\n        /* \"#utility.yul\":13826:14277   */\n      swap3\n      swap2\n      pop\n      pop\n      jump\t// out\n        /* \"#utility.yul\":14283:14716   */\n    tag_72:\n        /* \"#utility.yul\":14394:14400   */\n      0x00\n        /* \"#utility.yul\":14443:14445   */\n      0x20\n        /* \"#utility.yul\":14431:14440   */\n      dup3\n        /* \"#utility.yul\":14422:14429   */\n      dup5\n        /* \"#utility.yul\":14418:14441   */\n      sub\n        /* \"#utility.yul\":14414:14446   */\n      slt\n        /* \"#utility.yul\":14411:14530   */\n      iszero\n      tag_317\n      jumpi\n        /* \"#utility.yul\":14449:14528   */\n      tag_318\n      tag_127\n      jump\t// in\n    tag_318:\n        /* \"#utility.yul\":14411:14530   */\n    tag_317:\n        /* \"#utility.yul\":14569:14570   */\n      0x00\n        /* \"#utility.yul\":14594:14699   */\n      tag_319\n        /* \"#utility.yul\":14691:14698   */\n      dup5\n        /* \"#utility.yul\":14682:14688   */\n      dup3\n        /* \"#utility.yul\":14671:14680   */\n      dup6\n        /* \"#utility.yul\":14667:14689   */\n      add\n        /* \"#utility.yul\":14594:14699   */\n      tag_166\n      jump\t// in\n    tag_319:\n        /* \"#utility.yul\":14584:14699   */\n      swap2\n      pop\n        /* \"#utility.yul\":14540:14709   */\n      pop\n        /* \"#utility.yul\":14283:14716   */\n      swap3\n      swap2\n      pop\n      pop\n      jump\t// out\n        /* \"#utility.yul\":14722:15132   */\n    tag_88:\n        /* \"#utility.yul\":14762:14769   */\n      0x00\n        /* \"#utility.yul\":14785:14805   */\n      tag_321\n        /* \"#utility.yul\":14803:14804   */\n      dup3\n        /* \"#utility.yul\":14785:14805   */\n      tag_143\n      jump\t// in\n    tag_321:\n        /* \"#utility.yul\":14780:14805   */\n      swap2\n      pop\n        /* \"#utility.yul\":14819:14839   */\n      tag_322\n        /* \"#utility.yul\":14837:14838   */\n      dup4\n        /* \"#utility.yul\":14819:14839   */\n      tag_143\n      jump\t// in\n    tag_322:\n        /* \"#utility.yul\":14814:14839   */\n      swap3\n      pop\n        /* \"#utility.yul\":14874:14875   */\n      dup3\n        /* \"#utility.yul\":14871:14872   */\n      dup3\n        /* \"#utility.yul\":14867:14876   */\n      mul\n        /* \"#utility.yul\":14896:14926   */\n      tag_323\n        /* \"#utility.yul\":14914:14925   */\n      dup2\n        /* \"#utility.yul\":14896:14926   */\n      tag_143\n      jump\t// in\n    tag_323:\n        /* \"#utility.yul\":14885:14926   */\n      swap2\n      pop\n        /* \"#utility.yul\":15075:15076   */\n      dup3\n        /* \"#utility.yul\":15066:15073   */\n      dup3\n        /* \"#utility.yul\":15062:15077   */\n      div\n        /* \"#utility.yul\":15059:15060   */\n      dup5\n        /* \"#utility.yul\":15056:15078   */\n      eq\n        /* \"#utility.yul\":15036:15037   */\n      dup4\n        /* \"#utility.yul\":15029:15038   */\n      iszero\n        /* \"#utility.yul\":15009:15092   */\n      or\n        /* \"#utility.yul\":14986:15125   */\n      tag_324\n      jumpi\n        /* \"#utility.yul\":15105:15123   */\n      tag_325\n      tag_160\n      jump\t// in\n    tag_325:\n        /* \"#utility.yul\":14986:15125   */\n    tag_324:\n        /* \"#utility.yul\":14770:15132   */\n      pop\n        /* \"#utility.yul\":14722:15132   */\n      swap3\n      swap2\n      pop\n      pop\n      jump\t// out\n        /* \"#utility.yul\":15138:15467   */\n    tag_102:\n        /* \"#utility.yul\":15197:15203   */\n      0x00\n        /* \"#utility.yul\":15246:15248   */\n      0x20\n        /* \"#utility.yul\":15234:15243   */\n      dup3\n        /* \"#utility.yul\":15225:15232   */\n      dup5\n        /* \"#utility.yul\":15221:15244   */\n      sub\n        /* \"#utility.yul\":15217:15249   */\n      slt\n        /* \"#utility.yul\":15214:15333   */\n      iszero\n      tag_327\n      jumpi\n        /* \"#utility.yul\":15252:15331   */\n      tag_328\n      tag_127\n      jump\t// in\n    tag_328:\n        /* \"#utility.yul\":15214:15333   */\n    tag_327:\n        /* \"#utility.yul\":15372:15373   */\n      0x00\n        /* \"#utility.yul\":15397:15450   */\n      tag_329\n        /* \"#utility.yul\":15442:15449   */\n      dup5\n        /* \"#utility.yul\":15433:15439   */\n      dup3\n        /* \"#utility.yul\":15422:15431   */\n      dup6\n        /* \"#utility.yul\":15418:15440   */\n      add\n        /* \"#utility.yul\":15397:15450   */\n      tag_132\n      jump\t// in\n    tag_329:\n        /* \"#utility.yul\":15387:15450   */\n      swap2\n      pop\n        /* \"#utility.yul\":15343:15460   */\n      pop\n        /* \"#utility.yul\":15138:15467   */\n      swap3\n      swap2\n      pop\n      pop\n      jump\t// out\n        /* \"#utility.yul\":15473:15824   */\n    tag_119:\n        /* \"#utility.yul\":15543:15549   */\n      0x00\n        /* \"#utility.yul\":15592:15594   */\n      0x20\n        /* \"#utility.yul\":15580:15589   */\n      dup3\n        /* \"#utility.yul\":15571:15578   */\n      dup5\n        /* \"#utility.yul\":15567:15590   */\n      sub\n        /* \"#utility.yul\":15563:15595   */\n      slt\n        /* \"#utility.yul\":15560:15679   */\n      iszero\n      tag_331\n      jumpi\n        /* \"#utility.yul\":15598:15677   */\n      tag_332\n      tag_127\n      jump\t// in\n    tag_332:\n        /* \"#utility.yul\":15560:15679   */\n    tag_331:\n        /* \"#utility.yul\":15718:15719   */\n      0x00\n        /* \"#utility.yul\":15743:15807   */\n      tag_333\n        /* \"#utility.yul\":15799:15806   */\n      dup5\n        /* \"#utility.yul\":15790:15796   */\n      dup3\n        /* \"#utility.yul\":15779:15788   */\n      dup6\n        /* \"#utility.yul\":15775:15797   */\n      add\n        /* \"#utility.yul\":15743:15807   */\n      tag_165\n      jump\t// in\n    tag_333:\n        /* \"#utility.yul\":15733:15807   */\n      swap2\n      pop\n        /* \"#utility.yul\":15689:15817   */\n      pop\n        /* \"#utility.yul\":15473:15824   */\n      swap3\n      swap2\n      pop\n      pop\n      jump\t// out\n        /* \"#utility.yul\":15830:15993   */\n    tag_167:\n        /* \"#utility.yul\":15970:15985   */\n      0x494e56414c49445f544f4b454e00000000000000000000000000000000000000\n        /* \"#utility.yul\":15966:15967   */\n      0x00\n        /* \"#utility.yul\":15958:15964   */\n      dup3\n        /* \"#utility.yul\":15954:15968   */\n      add\n        /* \"#utility.yul\":15947:15986   */\n      mstore\n        /* \"#utility.yul\":15830:15993   */\n      pop\n      jump\t// out\n        /* \"#utility.yul\":15999:16365   */\n    tag_168:\n        /* \"#utility.yul\":16141:16144   */\n      0x00\n        /* \"#utility.yul\":16162:16229   */\n      tag_336\n        /* \"#utility.yul\":16226:16228   */\n      0x0d\n        /* \"#utility.yul\":16221:16224   */\n      dup4\n        /* \"#utility.yul\":16162:16229   */\n      tag_123\n      jump\t// in\n    tag_336:\n        /* \"#utility.yul\":16155:16229   */\n      swap2\n      pop\n        /* \"#utility.yul\":16238:16331   */\n      tag_337\n        /* \"#utility.yul\":16327:16330   */\n      dup3\n        /* \"#utility.yul\":16238:16331   */\n      tag_167\n      jump\t// in\n    tag_337:\n        /* \"#utility.yul\":16356:16358   */\n      0x20\n        /* \"#utility.yul\":16351:16354   */\n      dup3\n        /* \"#utility.yul\":16347:16359   */\n      add\n        /* \"#utility.yul\":16340:16359   */\n      swap1\n      pop\n        /* \"#utility.yul\":15999:16365   */\n      swap2\n      swap1\n      pop\n      jump\t// out\n        /* \"#utility.yul\":16371:16790   */\n    tag_121:\n        /* \"#utility.yul\":16537:16541   */\n      0x00\n        /* \"#utility.yul\":16575:16577   */\n      0x20\n        /* \"#utility.yul\":16564:16573   */\n      dup3\n        /* \"#utility.yul\":16560:16578   */\n      add\n        /* \"#utility.yul\":16552:16578   */\n      swap1\n      pop\n        /* \"#utility.yul\":16624:16633   */\n      dup2\n        /* \"#utility.yul\":16618:16622   */\n      dup2\n        /* \"#utility.yul\":16614:16634   */\n      sub\n        /* \"#utility.yul\":16610:16611   */\n      0x00\n        /* \"#utility.yul\":16599:16608   */\n      dup4\n        /* \"#utility.yul\":16595:16612   */\n      add\n        /* \"#utility.yul\":16588:16635   */\n      mstore\n        /* \"#utility.yul\":16652:16783   */\n      tag_339\n        /* \"#utility.yul\":16778:16782   */\n      dup2\n        /* \"#utility.yul\":16652:16783   */\n      tag_168\n      jump\t// in\n    tag_339:\n        /* \"#utility.yul\":16644:16783   */\n      swap1\n      pop\n        /* \"#utility.yul\":16371:16790   */\n      swap2\n      swap1\n      pop\n      jump\t// out\n\n    auxdata: 0xa26469706673582212202ade1fa16cf49f62bab49ee1fc80ff6e2ecdaca4f776a865a4dfa9294ac0a7a664736f6c634300081a0033\n}\n",
				"bytecode": {
					"linkReferences": {},
					"object": "6080604052348015600e575f80fd5b506110f28061001c5f395ff3fe608060405260043610610037575f3560e01c806302405343146100a0578063b59b28ef146100dd578063f7888aec146101195761009c565b3661009c5761005b3373ffffffffffffffffffffffffffffffffffffffff16610155565b61009a576040517f08c379a00000000000000000000000000000000000000000000000000000000081526004016100919061090e565b60405180910390fd5b005b5f80fd5b3480156100ab575f80fd5b506100c660048036038101906100c19190610997565b610166565b6040516100d4929190610b4c565b60405180910390f35b3480156100e8575f80fd5b5061010360048036038101906100fe9190610be2565b610555565b6040516101109190610c60565b60405180910390f35b348015610124575f80fd5b5061013f600480360381019061013a9190610997565b610686565b60405161014c9190610c8f565b60405180910390f35b5f80823b90505f8111915050919050565b6060805f8473ffffffffffffffffffffffffffffffffffffffff1663026b1d5f6040518163ffffffff1660e01b8152600401602060405180830381865afa1580156101b3573d5f803e3d5ffd5b505050506040513d601f19601f820116820180604052508101906101d79190610cbc565b90505f8173ffffffffffffffffffffffffffffffffffffffff1663d1946dbc6040518163ffffffff1660e01b81526004015f60405180830381865afa158015610222573d5f803e3d5ffd5b505050506040513d5f823e3d601f19601f8201168201806040525081019061024a9190610e2f565b90505f6001825161025b9190610ea3565b67ffffffffffffffff81111561027457610273610cf7565b5b6040519080825280602002602001820160405280156102a25781602001602082028036833780820191505090505b5090505f5b8251811015610325578281815181106102c3576102c2610ed6565b5b60200260200101518282815181106102de576102dd610ed6565b5b602002602001019073ffffffffffffffffffffffffffffffffffffffff16908173ffffffffffffffffffffffffffffffffffffffff168152505080806001019150506102a7565b5073eeeeeeeeeeeeeeeeeeeeeeeeeeeeeeeeeeeeeeee8183518151811061034f5761034e610ed6565b5b602002602001019073ffffffffffffffffffffffffffffffffffffffff16908173ffffffffffffffffffffffffffffffffffffffff16815250505f815167ffffffffffffffff8111156103a5576103a4610cf7565b5b6040519080825280602002602001820160405280156103d35781602001602082028036833780820191505090505b5090505f5b8351811015610505575f8573ffffffffffffffffffffffffffffffffffffffff1663c44b11f785848151811061041157610410610ed6565b5b60200260200101516040518263ffffffff1660e01b81526004016104359190610f12565b602060405180830381865afa158015610450573d5f803e3d5ffd5b505050506040513d601f19601f820116820180604052508101906104749190610f92565b90505f610480826107d1565b505050509050806104b2575f84848151811061049f5761049e610ed6565b5b60200260200101818152505050506104f8565b6104d68a8685815181106104c9576104c8610ed6565b5b6020026020010151610686565b8484815181106104e9576104e8610ed6565b5b60200260200101818152505050505b80806001019150506103d8565b506105248773eeeeeeeeeeeeeeeeeeeeeeeeeeeeeeeeeeeeeeee610686565b8184518151811061053857610537610ed6565b5b602002602001018181525050818195509550505050509250929050565b60605f838390508686905061056a9190610fbd565b67ffffffffffffffff81111561058357610582610cf7565b5b6040519080825280602002602001820160405280156105b15781602001602082028036833780820191505090505b5090505f5b86869050811015610679575f5b8585905081101561066b576106268888848181106105e4576105e3610ed6565b5b90506020020160208101906105f99190610ffe565b87878481811061060c5761060b610ed6565b5b90506020020160208101906106219190610ffe565b610686565b838288889050856106379190610fbd565b6106419190610ea3565b8151811061065257610651610ed6565b5b60200260200101818152505080806001019150506105c3565b5080806001019150506105b6565b5080915050949350505050565b5f73eeeeeeeeeeeeeeeeeeeeeeeeeeeeeeeeeeeeeeee73ffffffffffffffffffffffffffffffffffffffff168273ffffffffffffffffffffffffffffffffffffffff16036106ed578273ffffffffffffffffffffffffffffffffffffffff163190506107cb565b61070c8273ffffffffffffffffffffffffffffffffffffffff16610155565b15610790578173ffffffffffffffffffffffffffffffffffffffff166370a08231846040518263ffffffff1660e01b815260040161074a9190610f12565b602060405180830381865afa158015610765573d5f803e3d5ffd5b505050506040513d601f19601f820116820180604052508101906107899190611029565b90506107cb565b6040517f08c379a00000000000000000000000000000000000000000000000000000000081526004016107c29061109e565b60405180910390fd5b92915050565b5f805f805f80865f015190505f7ffffffffffffffffffffffffffffffffffffffffffffffffffeffffffffffffff19821614155f7ffffffffffffffffffffffffffffffffffffffffffffffffffdffffffffffffff19831614155f7ffffffffffffffffffffffffffffffffffffffffffffffffffbffffffffffffff19841614155f7ffffffffffffffffffffffffffffffffffffffffffffffffff7ffffffffffffff19851614155f7fffffffffffffffffffffffffffffffffffffffffffffffffefffffffffffffff1986161415955095509550955095505091939590929450565b5f82825260208201905092915050565b7f32320000000000000000000000000000000000000000000000000000000000005f82015250565b5f6108f86002836108b4565b9150610903826108c4565b602082019050919050565b5f6020820190508181035f830152610925816108ec565b9050919050565b5f604051905090565b5f80fd5b5f80fd5b5f73ffffffffffffffffffffffffffffffffffffffff82169050919050565b5f6109668261093d565b9050919050565b6109768161095c565b8114610980575f80fd5b50565b5f813590506109918161096d565b92915050565b5f80604083850312156109ad576109ac610935565b5b5f6109ba85828601610983565b92505060206109cb85828601610983565b9150509250929050565b5f81519050919050565b5f82825260208201905092915050565b5f819050602082019050919050565b610a078161095c565b82525050565b5f610a1883836109fe565b60208301905092915050565b5f602082019050919050565b5f610a3a826109d5565b610a4481856109df565b9350610a4f836109ef565b805f5b83811015610a7f578151610a668882610a0d565b9750610a7183610a24565b925050600181019050610a52565b5085935050505092915050565b5f81519050919050565b5f82825260208201905092915050565b5f819050602082019050919050565b5f819050919050565b610ac781610ab5565b82525050565b5f610ad88383610abe565b60208301905092915050565b5f602082019050919050565b5f610afa82610a8c565b610b048185610a96565b9350610b0f83610aa6565b805f5b83811015610b3f578151610b268882610acd565b9750610b3183610ae4565b925050600181019050610b12565b5085935050505092915050565b5f6040820190508181035f830152610b648185610a30565b90508181036020830152610b788184610af0565b90509392505050565b5f80fd5b5f80fd5b5f80fd5b5f8083601f840112610ba257610ba1610b81565b5b8235905067ffffffffffffffff811115610bbf57610bbe610b85565b5b602083019150836020820283011115610bdb57610bda610b89565b5b9250929050565b5f805f8060408587031215610bfa57610bf9610935565b5b5f85013567ffffffffffffffff811115610c1757610c16610939565b5b610c2387828801610b8d565b9450945050602085013567ffffffffffffffff811115610c4657610c45610939565b5b610c5287828801610b8d565b925092505092959194509250565b5f6020820190508181035f830152610c788184610af0565b905092915050565b610c8981610ab5565b82525050565b5f602082019050610ca25f830184610c80565b92915050565b5f81519050610cb68161096d565b92915050565b5f60208284031215610cd157610cd0610935565b5b5f610cde84828501610ca8565b91505092915050565b5f601f19601f8301169050919050565b7f4e487b71000000000000000000000000000000000000000000000000000000005f52604160045260245ffd5b610d2d82610ce7565b810181811067ffffffffffffffff82111715610d4c57610d4b610cf7565b5b80604052505050565b5f610d5e61092c565b9050610d6a8282610d24565b919050565b5f67ffffffffffffffff821115610d8957610d88610cf7565b5b602082029050602081019050919050565b5f610dac610da784610d6f565b610d55565b90508083825260208201905060208402830185811115610dcf57610dce610b89565b5b835b81811015610df85780610de48882610ca8565b845260208401935050602081019050610dd1565b5050509392505050565b5f82601f830112610e1657610e15610b81565b5b8151610e26848260208601610d9a565b91505092915050565b5f60208284031215610e4457610e43610935565b5b5f82015167ffffffffffffffff811115610e6157610e60610939565b5b610e6d84828501610e02565b91505092915050565b7f4e487b71000000000000000000000000000000000000000000000000000000005f52601160045260245ffd5b5f610ead82610ab5565b9150610eb883610ab5565b9250828201905080821115610ed057610ecf610e76565b5b92915050565b7f4e487b71000000000000000000000000000000000000000000000000000000005f52603260045260245ffd5b610f0c8161095c565b82525050565b5f602082019050610f255f830184610f03565b92915050565b5f80fd5b610f3881610ab5565b8114610f42575f80fd5b50565b5f81519050610f5381610f2f565b92915050565b5f60208284031215610f6e57610f6d610f2b565b5b610f786020610d55565b90505f610f8784828501610f45565b5f8301525092915050565b5f60208284031215610fa757610fa6610935565b5b5f610fb484828501610f59565b91505092915050565b5f610fc782610ab5565b9150610fd283610ab5565b9250828202610fe081610ab5565b91508282048414831517610ff757610ff6610e76565b5b5092915050565b5f6020828403121561101357611012610935565b5b5f61102084828501610983565b91505092915050565b5f6020828403121561103e5761103d610935565b5b5f61104b84828501610f45565b91505092915050565b7f494e56414c49445f544f4b454e000000000000000000000000000000000000005f82015250565b5f611088600d836108b4565b915061109382611054565b602082019050919050565b5f6020820190508181035f8301526110b58161107c565b905091905056fea26469706673582212202ade1fa16cf49f62bab49ee1fc80ff6e2ecdaca4f776a865a4dfa9294ac0a7a664736f6c634300081a0033",
					"opcodes": "PUSH1 0x80 PUSH1 0x40 MSTORE CALLVALUE DUP1 ISZERO PUSH1 0xE JUMPI PUSH0 DUP1 REVERT JUMPDEST POP PUSH2 0x10F2 DUP1 PUSH2 0x1C PUSH0 CODECOPY PUSH0 RETURN INVALID PUSH1 0x80 PUSH1 0x40 MSTORE PUSH1 0x4 CALLDATASIZE LT PUSH2 0x37 JUMPI PUSH0 CALLDATALOAD PUSH1 0xE0 SHR DUP1 PUSH4 0x2405343 EQ PUSH2 0xA0 JUMPI DUP1 PUSH4 0xB59B28EF EQ PUSH2 0xDD JUMPI DUP1 PUSH4 0xF7888AEC EQ PUSH2 0x119 JUMPI PUSH2 0x9C JUMP JUMPDEST CALLDATASIZE PUSH2 0x9C JUMPI PUSH2 0x5B CALLER PUSH20 0xFFFFFFFFFFFFFFFFFFFFFFFFFFFFFFFFFFFFFFFF AND PUSH2 0x155 JUMP JUMPDEST PUSH2 0x9A JUMPI PUSH1 0x40 MLOAD PUSH32 0x8C379A000000000000000000000000000000000000000000000000000000000 DUP2 MSTORE PUSH1 0x4 ADD PUSH2 0x91 SWAP1 PUSH2 0x90E JUMP JUMPDEST PUSH1 0x40 MLOAD DUP1 SWAP2 SUB SWAP1 REVERT JUMPDEST STOP JUMPDEST PUSH0 DUP1 REVERT JUMPDEST CALLVALUE DUP1 ISZERO PUSH2 0xAB JUMPI PUSH0 DUP1 REVERT JUMPDEST POP PUSH2 0xC6 PUSH1 0x4 DUP1 CALLDATASIZE SUB DUP2 ADD SWAP1 PUSH2 0xC1 SWAP2 SWAP1 PUSH2 0x997 JUMP JUMPDEST PUSH2 0x166 JUMP JUMPDEST PUSH1 0x40 MLOAD PUSH2 0xD4 SWAP3 SWAP2 SWAP1 PUSH2 0xB4C JUMP JUMPDEST PUSH1 0x40 MLOAD DUP1 SWAP2 SUB SWAP1 RETURN JUMPDEST CALLVALUE DUP1 ISZERO PUSH2 0xE8 JUMPI PUSH0 DUP1 REVERT JUMPDEST POP PUSH2 0x103 PUSH1 0x4 DUP1 CALLDATASIZE SUB DUP2 ADD SWAP1 PUSH2 0xFE SWAP2 SWAP1 PUSH2 0xBE2 JUMP JUMPDEST PUSH2 0x555 JUMP JUMPDEST PUSH1 0x40 MLOAD PUSH2 0x110 SWAP2 SWAP1 PUSH2 0xC60 JUMP JUMPDEST PUSH1 0x40 MLOAD DUP1 SWAP2 SUB SWAP1 RETURN JUMPDEST CALLVALUE DUP1 ISZERO PUSH2 0x124 JUMPI PUSH0 DUP1 REVERT JUMPDEST POP PUSH2 0x13F PUSH1 0x4 DUP1 CALLDATASIZE SUB DUP2 ADD SWAP1 PUSH2 0x13A SWAP2 SWAP1 PUSH2 0x997 JUMP JUMPDEST PUSH2 0x686 JUMP JUMPDEST PUSH1 0x40 MLOAD PUSH2 0x14C SWAP2 SWAP1 PUSH2 0xC8F JUMP JUMPDEST PUSH1 0x40 MLOAD DUP1 SWAP2 SUB SWAP1 RETURN JUMPDEST PUSH0 DUP1 DUP3 EXTCODESIZE SWAP1 POP PUSH0 DUP2 GT SWAP2 POP POP SWAP2 SWAP1 POP JUMP JUMPDEST PUSH1 0x60 DUP1 PUSH0 DUP5 PUSH20 0xFFFFFFFFFFFFFFFFFFFFFFFFFFFFFFFFFFFFFFFF AND PUSH4 0x26B1D5F PUSH1 0x40 MLOAD DUP2 PUSH4 0xFFFFFFFF AND PUSH1 0xE0 SHL DUP2 MSTORE PUSH1 0x4 ADD PUSH1 0x20 PUSH1 0x40 MLOAD DUP1 DUP4 SUB DUP2 DUP7 GAS STATICCALL ISZERO DUP1 ISZERO PUSH2 0x1B3 JUMPI RETURNDATASIZE PUSH0 DUP1 RETURNDATACOPY RETURNDATASIZE PUSH0 REVERT JUMPDEST POP POP POP POP PUSH1 0x40 MLOAD RETURNDATASIZE PUSH1 0x1F NOT PUSH1 0x1F DUP3 ADD AND DUP3 ADD DUP1 PUSH1 0x40 MSTORE POP DUP2 ADD SWAP1 PUSH2 0x1D7 SWAP2 SWAP1 PUSH2 0xCBC JUMP JUMPDEST SWAP1 POP PUSH0 DUP2 PUSH20 0xFFFFFFFFFFFFFFFFFFFFFFFFFFFFFFFFFFFFFFFF AND PUSH4 0xD1946DBC PUSH1 0x40 MLOAD DUP2 PUSH4 0xFFFFFFFF AND PUSH1 0xE0 SHL DUP2 MSTORE PUSH1 0x4 ADD PUSH0 PUSH1 0x40 MLOAD DUP1 DUP4 SUB DUP2 DUP7 GAS STATICCALL ISZERO DUP1 ISZERO PUSH2 0x222 JUMPI RETURNDATASIZE PUSH0 DUP1 RETURNDATACOPY RETURNDATASIZE PUSH0 REVERT JUMPDEST POP POP POP POP PUSH1 0x40 MLOAD RETURNDATASIZE PUSH0 DUP3 RETURNDATACOPY RETURNDATASIZE PUSH1 0x1F NOT PUSH1 0x1F DUP3 ADD AND DUP3 ADD DUP1 PUSH1 0x40 MSTORE POP DUP2 ADD SWAP1 PUSH2 0x24A SWAP2 SWAP1 PUSH2 0xE2F JUMP JUMPDEST SWAP1 POP PUSH0 PUSH1 0x1 DUP3 MLOAD PUSH2 0x25B SWAP2 SWAP1 PUSH2 0xEA3 JUMP JUMPDEST PUSH8 0xFFFFFFFFFFFFFFFF DUP2 GT ISZERO PUSH2 0x274 JUMPI PUSH2 0x273 PUSH2 0xCF7 JUMP JUMPDEST JUMPDEST PUSH1 0x40 MLOAD SWAP1 DUP1 DUP3 MSTORE DUP1 PUSH1 0x20 MUL PUSH1 0x20 ADD DUP3 ADD PUSH1 0x40 MSTORE DUP1 ISZERO PUSH2 0x2A2 JUMPI DUP2 PUSH1 0x20 ADD PUSH1 0x20 DUP3 MUL DUP1 CALLDATASIZE DUP4 CALLDATACOPY DUP1 DUP3 ADD SWAP2 POP POP SWAP1 POP JUMPDEST POP SWAP1 POP PUSH0 JUMPDEST DUP3 MLOAD DUP2 LT ISZERO PUSH2 0x325 JUMPI DUP3 DUP2 DUP2 MLOAD DUP2 LT PUSH2 0x2C3 JUMPI PUSH2 0x2C2 PUSH2 0xED6 JUMP JUMPDEST JUMPDEST PUSH1 0x20 MUL PUSH1 0x20 ADD ADD MLOAD DUP3 DUP3 DUP2 MLOAD DUP2 LT PUSH2 0x2DE JUMPI PUSH2 0x2DD PUSH2 0xED6 JUMP JUMPDEST JUMPDEST PUSH1 0x20 MUL PUSH1 0x20 ADD ADD SWAP1 PUSH20 0xFFFFFFFFFFFFFFFFFFFFFFFFFFFFFFFFFFFFFFFF AND SWAP1 DUP2 PUSH20 0xFFFFFFFFFFFFFFFFFFFFFFFFFFFFFFFFFFFFFFFF AND DUP2 MSTORE POP POP DUP1 DUP1 PUSH1 0x1 ADD SWAP2 POP POP PUSH2 0x2A7 JUMP JUMPDEST POP PUSH20 0xEEEEEEEEEEEEEEEEEEEEEEEEEEEEEEEEEEEEEEEE DUP2 DUP4 MLOAD DUP2 MLOAD DUP2 LT PUSH2 0x34F JUMPI PUSH2 0x34E PUSH2 0xED6 JUMP JUMPDEST JUMPDEST PUSH1 0x20 MUL PUSH1 0x20 ADD ADD SWAP1 PUSH20 0xFFFFFFFFFFFFFFFFFFFFFFFFFFFFFFFFFFFFFFFF AND SWAP1 DUP2 PUSH20 0xFFFFFFFFFFFFFFFFFFFFFFFFFFFFFFFFFFFFFFFF AND DUP2 MSTORE POP POP PUSH0 DUP2 MLOAD PUSH8 0xFFFFFFFFFFFFFFFF DUP2 GT ISZERO PUSH2 0x3A5 JUMPI PUSH2 0x3A4 PUSH2 0xCF7 JUMP JUMPDEST JUMPDEST PUSH1 0x40 MLOAD SWAP1 DUP1 DUP3 MSTORE DUP1 PUSH1 0x20 MUL PUSH1 0x20 ADD DUP3 ADD PUSH1 0x40 MSTORE DUP1 ISZERO PUSH2 0x3D3 JUMPI DUP2 PUSH1 0x20 ADD PUSH1 0x20 DUP3 MUL DUP1 CALLDATASIZE DUP4 CALLDATACOPY DUP1 DUP3 ADD SWAP2 POP POP SWAP1 POP JUMPDEST POP SWAP1 POP PUSH0 JUMPDEST DUP4 MLOAD DUP2 LT ISZERO PUSH2 0x505 JUMPI PUSH0 DUP6 PUSH20 0xFFFFFFFFFFFFFFFFFFFFFFFFFFFFFFFFFFFFFFFF AND PUSH4 0xC44B11F7 DUP6 DUP5 DUP2 MLOAD DUP2 LT PUSH2 0x411 JUMPI PUSH2 0x410 PUSH2 0xED6 JUMP JUMPDEST JUMPDEST PUSH1 0x20 MUL PUSH1 0x20 ADD ADD MLOAD PUSH1 0x40 MLOAD DUP3 PUSH4 0xFFFFFFFF AND PUSH1 0xE0 SHL DUP2 MSTORE PUSH1 0x4 ADD PUSH2 0x435 SWAP2 SWAP1 PUSH2 0xF12 JUMP JUMPDEST PUSH1 0x20 PUSH1 0x40 MLOAD DUP1 DUP4 SUB DUP2 DUP7 GAS STATICCALL ISZERO DUP1 ISZERO PUSH2 0x450 JUMPI RETURNDATASIZE PUSH0 DUP1 RETURNDATACOPY RETURNDATASIZE PUSH0 REVERT JUMPDEST POP POP POP POP PUSH1 0x40 MLOAD RETURNDATASIZE PUSH1 0x1F NOT PUSH1 0x1F DUP3 ADD AND DUP3 ADD DUP1 PUSH1 0x40 MSTORE POP DUP2 ADD SWAP1 PUSH2 0x474 SWAP2 SWAP1 PUSH2 0xF92 JUMP JUMPDEST SWAP1 POP PUSH0 PUSH2 0x480 DUP3 PUSH2 0x7D1 JUMP JUMPDEST POP POP POP POP SWAP1 POP DUP1 PUSH2 0x4B2 JUMPI PUSH0 DUP5 DUP5 DUP2 MLOAD DUP2 LT PUSH2 0x49F JUMPI PUSH2 0x49E PUSH2 0xED6 JUMP JUMPDEST JUMPDEST PUSH1 0x20 MUL PUSH1 0x20 ADD ADD DUP2 DUP2 MSTORE POP POP POP POP PUSH2 0x4F8 JUMP JUMPDEST PUSH2 0x4D6 DUP11 DUP7 DUP6 DUP2 MLOAD DUP2 LT PUSH2 0x4C9 JUMPI PUSH2 0x4C8 PUSH2 0xED6 JUMP JUMPDEST JUMPDEST PUSH1 0x20 MUL PUSH1 0x20 ADD ADD MLOAD PUSH2 0x686 JUMP JUMPDEST DUP5 DUP5 DUP2 MLOAD DUP2 LT PUSH2 0x4E9 JUMPI PUSH2 0x4E8 PUSH2 0xED6 JUMP JUMPDEST JUMPDEST PUSH1 0x20 MUL PUSH1 0x20 ADD ADD DUP2 DUP2 MSTORE POP POP POP POP JUMPDEST DUP1 DUP1 PUSH1 0x1 ADD SWAP2 POP POP PUSH2 0x3D8 JUMP JUMPDEST POP PUSH2 0x524 DUP8 PUSH20 0xEEEEEEEEEEEEEEEEEEEEEEEEEEEEEEEEEEEEEEEE PUSH2 0x686 JUMP JUMPDEST DUP2 DUP5 MLOAD DUP2 MLOAD DUP2 LT PUSH2 0x538 JUMPI PUSH2 0x537 PUSH2 0xED6 JUMP JUMPDEST JUMPDEST PUSH1 0x20 MUL PUSH1 0x20 ADD ADD DUP2 DUP2 MSTORE POP POP DUP2 DUP2 SWAP6 POP SWAP6 POP POP POP POP POP SWAP3 POP SWAP3 SWAP1 POP JUMP JUMPDEST PUSH1 0x60 PUSH0 DUP4 DUP4 SWAP1 POP DUP7 DUP7 SWAP1 POP PUSH2 0x56A SWAP2 SWAP1 PUSH2 0xFBD JUMP JUMPDEST PUSH8 0xFFFFFFFFFFFFFFFF DUP2 GT ISZERO PUSH2 0x583 JUMPI PUSH2 0x582 PUSH2 0xCF7 JUMP JUMPDEST JUMPDEST PUSH1 0x40 MLOAD SWAP1 DUP1 DUP3 MSTORE DUP1 PUSH1 0x20 MUL PUSH1 0x20 ADD DUP3 ADD PUSH1 0x40 MSTORE DUP1 ISZERO PUSH2 0x5B1 JUMPI DUP2 PUSH1 0x20 ADD PUSH1 0x20 DUP3 MUL DUP1 CALLDATASIZE DUP4 CALLDATACOPY DUP1 DUP3 ADD SWAP2 POP POP SWAP1 POP JUMPDEST POP SWAP1 POP PUSH0 JUMPDEST DUP7 DUP7 SWAP1 POP DUP2 LT ISZERO PUSH2 0x679 JUMPI PUSH0 JUMPDEST DUP6 DUP6 SWAP1 POP DUP2 LT ISZERO PUSH2 0x66B JUMPI PUSH2 0x626 DUP9 DUP9 DUP5 DUP2 DUP2 LT PUSH2 0x5E4 JUMPI PUSH2 0x5E3 PUSH2 0xED6 JUMP JUMPDEST JUMPDEST SWAP1 POP PUSH1 0x20 MUL ADD PUSH1 0x20 DUP2 ADD SWAP1 PUSH2 0x5F9 SWAP2 SWAP1 PUSH2 0xFFE JUMP JUMPDEST DUP8 DUP8 DUP5 DUP2 DUP2 LT PUSH2 0x60C JUMPI PUSH2 0x60B PUSH2 0xED6 JUMP JUMPDEST JUMPDEST SWAP1 POP PUSH1 0x20 MUL ADD PUSH1 0x20 DUP2 ADD SWAP1 PUSH2 0x621 SWAP2 SWAP1 PUSH2 0xFFE JUMP JUMPDEST PUSH2 0x686 JUMP JUMPDEST DUP4 DUP3 DUP9 DUP9 SWAP1 POP DUP6 PUSH2 0x637 SWAP2 SWAP1 PUSH2 0xFBD JUMP JUMPDEST PUSH2 0x641 SWAP2 SWAP1 PUSH2 0xEA3 JUMP JUMPDEST DUP2 MLOAD DUP2 LT PUSH2 0x652 JUMPI PUSH2 0x651 PUSH2 0xED6 JUMP JUMPDEST JUMPDEST PUSH1 0x20 MUL PUSH1 0x20 ADD ADD DUP2 DUP2 MSTORE POP POP DUP1 DUP1 PUSH1 0x1 ADD SWAP2 POP POP PUSH2 0x5C3 JUMP JUMPDEST POP DUP1 DUP1 PUSH1 0x1 ADD SWAP2 POP POP PUSH2 0x5B6 JUMP JUMPDEST POP DUP1 SWAP2 POP POP SWAP5 SWAP4 POP POP POP POP JUMP JUMPDEST PUSH0 PUSH20 0xEEEEEEEEEEEEEEEEEEEEEEEEEEEEEEEEEEEEEEEE PUSH20 0xFFFFFFFFFFFFFFFFFFFFFFFFFFFFFFFFFFFFFFFF AND DUP3 PUSH20 0xFFFFFFFFFFFFFFFFFFFFFFFFFFFFFFFFFFFFFFFF AND SUB PUSH2 0x6ED JUMPI DUP3 PUSH20 0xFFFFFFFFFFFFFFFFFFFFFFFFFFFFFFFFFFFFFFFF AND BALANCE SWAP1 POP PUSH2 0x7CB JUMP JUMPDEST PUSH2 0x70C DUP3 PUSH20 0xFFFFFFFFFFFFFFFFFFFFFFFFFFFFFFFFFFFFFFFF AND PUSH2 0x155 JUMP JUMPDEST ISZERO PUSH2 0x790 JUMPI DUP2 PUSH20 0xFFFFFFFFFFFFFFFFFFFFFFFFFFFFFFFFFFFFFFFF AND PUSH4 0x70A08231 DUP5 PUSH1 0x40 MLOAD DUP3 PUSH4 0xFFFFFFFF AND PUSH1 0xE0 SHL DUP2 MSTORE PUSH1 0x4 ADD PUSH2 0x74A SWAP2 SWAP1 PUSH2 0xF12 JUMP JUMPDEST PUSH1 0x20 PUSH1 0x40 MLOAD DUP1 DUP4 SUB DUP2 DUP7 GAS STATICCALL ISZERO DUP1 ISZERO PUSH2 0x765 JUMPI RETURNDATASIZE PUSH0 DUP1 RETURNDATACOPY RETURNDATASIZE PUSH0 REVERT JUMPDEST POP POP POP POP PUSH1 0x40 MLOAD RETURNDATASIZE PUSH1 0x1F NOT PUSH1 0x1F DUP3 ADD AND DUP3 ADD DUP1 PUSH1 0x40 MSTORE POP DUP2 ADD SWAP1 PUSH2 0x789 SWAP2 SWAP1 PUSH2 0x1029 JUMP JUMPDEST SWAP1 POP PUSH2 0x7CB JUMP JUMPDEST PUSH1 0x40 MLOAD PUSH32 0x8C379A000000000000000000000000000000000000000000000000000000000 DUP2 MSTORE PUSH1 0x4 ADD PUSH2 0x7C2 SWAP1 PUSH2 0x109E JUMP JUMPDEST PUSH1 0x40 MLOAD DUP1 SWAP2 SUB SWAP1 REVERT JUMPDEST SWAP3 SWAP2 POP POP JUMP JUMPDEST PUSH0 DUP1 PUSH0 DUP1 PUSH0 DUP1 DUP7 PUSH0 ADD MLOAD SWAP1 POP PUSH0 PUSH32 0xFFFFFFFFFFFFFFFFFFFFFFFFFFFFFFFFFFFFFFFFFFFFFFFFFEFFFFFFFFFFFFFF NOT DUP3 AND EQ ISZERO PUSH0 PUSH32 0xFFFFFFFFFFFFFFFFFFFFFFFFFFFFFFFFFFFFFFFFFFFFFFFFFDFFFFFFFFFFFFFF NOT DUP4 AND EQ ISZERO PUSH0 PUSH32 0xFFFFFFFFFFFFFFFFFFFFFFFFFFFFFFFFFFFFFFFFFFFFFFFFFBFFFFFFFFFFFFFF NOT DUP5 AND EQ ISZERO PUSH0 PUSH32 0xFFFFFFFFFFFFFFFFFFFFFFFFFFFFFFFFFFFFFFFFFFFFFFFFF7FFFFFFFFFFFFFF NOT DUP6 AND EQ ISZERO PUSH0 PUSH32 0xFFFFFFFFFFFFFFFFFFFFFFFFFFFFFFFFFFFFFFFFFFFFFFFFEFFFFFFFFFFFFFFF NOT DUP7 AND EQ ISZERO SWAP6 POP SWAP6 POP SWAP6 POP SWAP6 POP SWAP6 POP POP SWAP2 SWAP4 SWAP6 SWAP1 SWAP3 SWAP5 POP JUMP JUMPDEST PUSH0 DUP3 DUP3 MSTORE PUSH1 0x20 DUP3 ADD SWAP1 POP SWAP3 SWAP2 POP POP JUMP JUMPDEST PUSH32 0x3232000000000000000000000000000000000000000000000000000000000000 PUSH0 DUP3 ADD MSTORE POP JUMP JUMPDEST PUSH0 PUSH2 0x8F8 PUSH1 0x2 DUP4 PUSH2 0x8B4 JUMP JUMPDEST SWAP2 POP PUSH2 0x903 DUP3 PUSH2 0x8C4 JUMP JUMPDEST PUSH1 0x20 DUP3 ADD SWAP1 POP SWAP2 SWAP1 POP JUMP JUMPDEST PUSH0 PUSH1 0x20 DUP3 ADD SWAP1 POP DUP2 DUP2 SUB PUSH0 DUP4 ADD MSTORE PUSH2 0x925 DUP2 PUSH2 0x8EC JUMP JUMPDEST SWAP1 POP SWAP2 SWAP1 POP JUMP JUMPDEST PUSH0 PUSH1 0x40 MLOAD SWAP1 POP SWAP1 JUMP JUMPDEST PUSH0 DUP1 REVERT JUMPDEST PUSH0 DUP1 REVERT JUMPDEST PUSH0 PUSH20 0xFFFFFFFFFFFFFFFFFFFFFFFFFFFFFFFFFFFFFFFF DUP3 AND SWAP1 POP SWAP2 SWAP1 POP JUMP JUMPDEST PUSH0 PUSH2 0x966 DUP3 PUSH2 0x93D JUMP JUMPDEST SWAP1 POP SWAP2 SWAP1 POP JUMP JUMPDEST PUSH2 0x976 DUP2 PUSH2 0x95C JUMP JUMPDEST DUP2 EQ PUSH2 0x980 JUMPI PUSH0 DUP1 REVERT JUMPDEST POP JUMP JUMPDEST PUSH0 DUP2 CALLDATALOAD SWAP1 POP PUSH2 0x991 DUP2 PUSH2 0x96D JUMP JUMPDEST SWAP3 SWAP2 POP POP JUMP JUMPDEST PUSH0 DUP1 PUSH1 0x40 DUP4 DUP6 SUB SLT ISZERO PUSH2 0x9AD JUMPI PUSH2 0x9AC PUSH2 0x935 JUMP JUMPDEST JUMPDEST PUSH0 PUSH2 0x9BA DUP6 DUP3 DUP7 ADD PUSH2 0x983 JUMP JUMPDEST SWAP3 POP POP PUSH1 0x20 PUSH2 0x9CB DUP6 DUP3 DUP7 ADD PUSH2 0x983 JUMP JUMPDEST SWAP2 POP POP SWAP3 POP SWAP3 SWAP1 POP JUMP JUMPDEST PUSH0 DUP2 MLOAD SWAP1 POP SWAP2 SWAP1 POP JUMP JUMPDEST PUSH0 DUP3 DUP3 MSTORE PUSH1 0x20 DUP3 ADD SWAP1 POP SWAP3 SWAP2 POP POP JUMP JUMPDEST PUSH0 DUP2 SWAP1 POP PUSH1 0x20 DUP3 ADD SWAP1 POP SWAP2 SWAP1 POP JUMP JUMPDEST PUSH2 0xA07 DUP2 PUSH2 0x95C JUMP JUMPDEST DUP3 MSTORE POP POP JUMP JUMPDEST PUSH0 PUSH2 0xA18 DUP4 DUP4 PUSH2 0x9FE JUMP JUMPDEST PUSH1 0x20 DUP4 ADD SWAP1 POP SWAP3 SWAP2 POP POP JUMP JUMPDEST PUSH0 PUSH1 0x20 DUP3 ADD SWAP1 POP SWAP2 SWAP1 POP JUMP JUMPDEST PUSH0 PUSH2 0xA3A DUP3 PUSH2 0x9D5 JUMP JUMPDEST PUSH2 0xA44 DUP2 DUP6 PUSH2 0x9DF JUMP JUMPDEST SWAP4 POP PUSH2 0xA4F DUP4 PUSH2 0x9EF JUMP JUMPDEST DUP1 PUSH0 JUMPDEST DUP4 DUP2 LT ISZERO PUSH2 0xA7F JUMPI DUP2 MLOAD PUSH2 0xA66 DUP9 DUP3 PUSH2 0xA0D JUMP JUMPDEST SWAP8 POP PUSH2 0xA71 DUP4 PUSH2 0xA24 JUMP JUMPDEST SWAP3 POP POP PUSH1 0x1 DUP2 ADD SWAP1 POP PUSH2 0xA52 JUMP JUMPDEST POP DUP6 SWAP4 POP POP POP POP SWAP3 SWAP2 POP POP JUMP JUMPDEST PUSH0 DUP2 MLOAD SWAP1 POP SWAP2 SWAP1 POP JUMP JUMPDEST PUSH0 DUP3 DUP3 MSTORE PUSH1 0x20 DUP3 ADD SWAP1 POP SWAP3 SWAP2 POP POP JUMP JUMPDEST PUSH0 DUP2 SWAP1 POP PUSH1 0x20 DUP3 ADD SWAP1 POP SWAP2 SWAP1 POP JUMP JUMPDEST PUSH0 DUP2 SWAP1 POP SWAP2 SWAP1 POP JUMP JUMPDEST PUSH2 0xAC7 DUP2 PUSH2 0xAB5 JUMP JUMPDEST DUP3 MSTORE POP POP JUMP JUMPDEST PUSH0 PUSH2 0xAD8 DUP4 DUP4 PUSH2 0xABE JUMP JUMPDEST PUSH1 0x20 DUP4 ADD SWAP1 POP SWAP3 SWAP2 POP POP JUMP JUMPDEST PUSH0 PUSH1 0x20 DUP3 ADD SWAP1 POP SWAP2 SWAP1 POP JUMP JUMPDEST PUSH0 PUSH2 0xAFA DUP3 PUSH2 0xA8C JUMP JUMPDEST PUSH2 0xB04 DUP2 DUP6 PUSH2 0xA96 JUMP JUMPDEST SWAP4 POP PUSH2 0xB0F DUP4 PUSH2 0xAA6 JUMP JUMPDEST DUP1 PUSH0 JUMPDEST DUP4 DUP2 LT ISZERO PUSH2 0xB3F JUMPI DUP2 MLOAD PUSH2 0xB26 DUP9 DUP3 PUSH2 0xACD JUMP JUMPDEST SWAP8 POP PUSH2 0xB31 DUP4 PUSH2 0xAE4 JUMP JUMPDEST SWAP3 POP POP PUSH1 0x1 DUP2 ADD SWAP1 POP PUSH2 0xB12 JUMP JUMPDEST POP DUP6 SWAP4 POP POP POP POP SWAP3 SWAP2 POP POP JUMP JUMPDEST PUSH0 PUSH1 0x40 DUP3 ADD SWAP1 POP DUP2 DUP2 SUB PUSH0 DUP4 ADD MSTORE PUSH2 0xB64 DUP2 DUP6 PUSH2 0xA30 JUMP JUMPDEST SWAP1 POP DUP2 DUP2 SUB PUSH1 0x20 DUP4 ADD MSTORE PUSH2 0xB78 DUP2 DUP5 PUSH2 0xAF0 JUMP JUMPDEST SWAP1 POP SWAP4 SWAP3 POP POP POP JUMP JUMPDEST PUSH0 DUP1 REVERT JUMPDEST PUSH0 DUP1 REVERT JUMPDEST PUSH0 DUP1 REVERT JUMPDEST PUSH0 DUP1 DUP4 PUSH1 0x1F DUP5 ADD SLT PUSH2 0xBA2 JUMPI PUSH2 0xBA1 PUSH2 0xB81 JUMP JUMPDEST JUMPDEST DUP3 CALLDATALOAD SWAP1 POP PUSH8 0xFFFFFFFFFFFFFFFF DUP2 GT ISZERO PUSH2 0xBBF JUMPI PUSH2 0xBBE PUSH2 0xB85 JUMP JUMPDEST JUMPDEST PUSH1 0x20 DUP4 ADD SWAP2 POP DUP4 PUSH1 0x20 DUP3 MUL DUP4 ADD GT ISZERO PUSH2 0xBDB JUMPI PUSH2 0xBDA PUSH2 0xB89 JUMP JUMPDEST JUMPDEST SWAP3 POP SWAP3 SWAP1 POP JUMP JUMPDEST PUSH0 DUP1 PUSH0 DUP1 PUSH1 0x40 DUP6 DUP8 SUB SLT ISZERO PUSH2 0xBFA JUMPI PUSH2 0xBF9 PUSH2 0x935 JUMP JUMPDEST JUMPDEST PUSH0 DUP6 ADD CALLDATALOAD PUSH8 0xFFFFFFFFFFFFFFFF DUP2 GT ISZERO PUSH2 0xC17 JUMPI PUSH2 0xC16 PUSH2 0x939 JUMP JUMPDEST JUMPDEST PUSH2 0xC23 DUP8 DUP3 DUP9 ADD PUSH2 0xB8D JUMP JUMPDEST SWAP5 POP SWAP5 POP POP PUSH1 0x20 DUP6 ADD CALLDATALOAD PUSH8 0xFFFFFFFFFFFFFFFF DUP2 GT ISZERO PUSH2 0xC46 JUMPI PUSH2 0xC45 PUSH2 0x939 JUMP JUMPDEST JUMPDEST PUSH2 0xC52 DUP8 DUP3 DUP9 ADD PUSH2 0xB8D JUMP JUMPDEST SWAP3 POP SWAP3 POP POP SWAP3 SWAP6 SWAP2 SWAP5 POP SWAP3 POP JUMP JUMPDEST PUSH0 PUSH1 0x20 DUP3 ADD SWAP1 POP DUP2 DUP2 SUB PUSH0 DUP4 ADD MSTORE PUSH2 0xC78 DUP2 DUP5 PUSH2 0xAF0 JUMP JUMPDEST SWAP1 POP SWAP3 SWAP2 POP POP JUMP JUMPDEST PUSH2 0xC89 DUP2 PUSH2 0xAB5 JUMP JUMPDEST DUP3 MSTORE POP POP JUMP JUMPDEST PUSH0 PUSH1 0x20 DUP3 ADD SWAP1 POP PUSH2 0xCA2 PUSH0 DUP4 ADD DUP5 PUSH2 0xC80 JUMP JUMPDEST SWAP3 SWAP2 POP POP JUMP JUMPDEST PUSH0 DUP2 MLOAD SWAP1 POP PUSH2 0xCB6 DUP2 PUSH2 0x96D JUMP JUMPDEST SWAP3 SWAP2 POP POP JUMP JUMPDEST PUSH0 PUSH1 0x20 DUP3 DUP5 SUB SLT ISZERO PUSH2 0xCD1 JUMPI PUSH2 0xCD0 PUSH2 0x935 JUMP JUMPDEST JUMPDEST PUSH0 PUSH2 0xCDE DUP5 DUP3 DUP6 ADD PUSH2 0xCA8 JUMP JUMPDEST SWAP2 POP POP SWAP3 SWAP2 POP POP JUMP JUMPDEST PUSH0 PUSH1 0x1F NOT PUSH1 0x1F DUP4 ADD AND SWAP1 POP SWAP2 SWAP1 POP JUMP JUMPDEST PUSH32 0x4E487B7100000000000000000000000000000000000000000000000000000000 PUSH0 MSTORE PUSH1 0x41 PUSH1 0x4 MSTORE PUSH1 0x24 PUSH0 REVERT JUMPDEST PUSH2 0xD2D DUP3 PUSH2 0xCE7 JUMP JUMPDEST DUP2 ADD DUP2 DUP2 LT PUSH8 0xFFFFFFFFFFFFFFFF DUP3 GT OR ISZERO PUSH2 0xD4C JUMPI PUSH2 0xD4B PUSH2 0xCF7 JUMP JUMPDEST JUMPDEST DUP1 PUSH1 0x40 MSTORE POP POP POP JUMP JUMPDEST PUSH0 PUSH2 0xD5E PUSH2 0x92C JUMP JUMPDEST SWAP1 POP PUSH2 0xD6A DUP3 DUP3 PUSH2 0xD24 JUMP JUMPDEST SWAP2 SWAP1 POP JUMP JUMPDEST PUSH0 PUSH8 0xFFFFFFFFFFFFFFFF DUP3 GT ISZERO PUSH2 0xD89 JUMPI PUSH2 0xD88 PUSH2 0xCF7 JUMP JUMPDEST JUMPDEST PUSH1 0x20 DUP3 MUL SWAP1 POP PUSH1 0x20 DUP2 ADD SWAP1 POP SWAP2 SWAP1 POP JUMP JUMPDEST PUSH0 PUSH2 0xDAC PUSH2 0xDA7 DUP5 PUSH2 0xD6F JUMP JUMPDEST PUSH2 0xD55 JUMP JUMPDEST SWAP1 POP DUP1 DUP4 DUP3 MSTORE PUSH1 0x20 DUP3 ADD SWAP1 POP PUSH1 0x20 DUP5 MUL DUP4 ADD DUP6 DUP2 GT ISZERO PUSH2 0xDCF JUMPI PUSH2 0xDCE PUSH2 0xB89 JUMP JUMPDEST JUMPDEST DUP4 JUMPDEST DUP2 DUP2 LT ISZERO PUSH2 0xDF8 JUMPI DUP1 PUSH2 0xDE4 DUP9 DUP3 PUSH2 0xCA8 JUMP JUMPDEST DUP5 MSTORE PUSH1 0x20 DUP5 ADD SWAP4 POP POP PUSH1 0x20 DUP2 ADD SWAP1 POP PUSH2 0xDD1 JUMP JUMPDEST POP POP POP SWAP4 SWAP3 POP POP POP JUMP JUMPDEST PUSH0 DUP3 PUSH1 0x1F DUP4 ADD SLT PUSH2 0xE16 JUMPI PUSH2 0xE15 PUSH2 0xB81 JUMP JUMPDEST JUMPDEST DUP2 MLOAD PUSH2 0xE26 DUP5 DUP3 PUSH1 0x20 DUP7 ADD PUSH2 0xD9A JUMP JUMPDEST SWAP2 POP POP SWAP3 SWAP2 POP POP JUMP JUMPDEST PUSH0 PUSH1 0x20 DUP3 DUP5 SUB SLT ISZERO PUSH2 0xE44 JUMPI PUSH2 0xE43 PUSH2 0x935 JUMP JUMPDEST JUMPDEST PUSH0 DUP3 ADD MLOAD PUSH8 0xFFFFFFFFFFFFFFFF DUP2 GT ISZERO PUSH2 0xE61 JUMPI PUSH2 0xE60 PUSH2 0x939 JUMP JUMPDEST JUMPDEST PUSH2 0xE6D DUP5 DUP3 DUP6 ADD PUSH2 0xE02 JUMP JUMPDEST SWAP2 POP POP SWAP3 SWAP2 POP POP JUMP JUMPDEST PUSH32 0x4E487B7100000000000000000000000000000000000000000000000000000000 PUSH0 MSTORE PUSH1 0x11 PUSH1 0x4 MSTORE PUSH1 0x24 PUSH0 REVERT JUMPDEST PUSH0 PUSH2 0xEAD DUP3 PUSH2 0xAB5 JUMP JUMPDEST SWAP2 POP PUSH2 0xEB8 DUP4 PUSH2 0xAB5 JUMP JUMPDEST SWAP3 POP DUP3 DUP3 ADD SWAP1 POP DUP1 DUP3 GT ISZERO PUSH2 0xED0 JUMPI PUSH2 0xECF PUSH2 0xE76 JUMP JUMPDEST JUMPDEST SWAP3 SWAP2 POP POP JUMP JUMPDEST PUSH32 0x4E487B7100000000000000000000000000000000000000000000000000000000 PUSH0 MSTORE PUSH1 0x32 PUSH1 0x4 MSTORE PUSH1 0x24 PUSH0 REVERT JUMPDEST PUSH2 0xF0C DUP2 PUSH2 0x95C JUMP JUMPDEST DUP3 MSTORE POP POP JUMP JUMPDEST PUSH0 PUSH1 0x20 DUP3 ADD SWAP1 POP PUSH2 0xF25 PUSH0 DUP4 ADD DUP5 PUSH2 0xF03 JUMP JUMPDEST SWAP3 SWAP2 POP POP JUMP JUMPDEST PUSH0 DUP1 REVERT JUMPDEST PUSH2 0xF38 DUP2 PUSH2 0xAB5 JUMP JUMPDEST DUP2 EQ PUSH2 0xF42 JUMPI PUSH0 DUP1 REVERT JUMPDEST POP JUMP JUMPDEST PUSH0 DUP2 MLOAD SWAP1 POP PUSH2 0xF53 DUP2 PUSH2 0xF2F JUMP JUMPDEST SWAP3 SWAP2 POP POP JUMP JUMPDEST PUSH0 PUSH1 0x20 DUP3 DUP5 SUB SLT ISZERO PUSH2 0xF6E JUMPI PUSH2 0xF6D PUSH2 0xF2B JUMP JUMPDEST JUMPDEST PUSH2 0xF78 PUSH1 0x20 PUSH2 0xD55 JUMP JUMPDEST SWAP1 POP PUSH0 PUSH2 0xF87 DUP5 DUP3 DUP6 ADD PUSH2 0xF45 JUMP JUMPDEST PUSH0 DUP4 ADD MSTORE POP SWAP3 SWAP2 POP POP JUMP JUMPDEST PUSH0 PUSH1 0x20 DUP3 DUP5 SUB SLT ISZERO PUSH2 0xFA7 JUMPI PUSH2 0xFA6 PUSH2 0x935 JUMP JUMPDEST JUMPDEST PUSH0 PUSH2 0xFB4 DUP5 DUP3 DUP6 ADD PUSH2 0xF59 JUMP JUMPDEST SWAP2 POP POP SWAP3 SWAP2 POP POP JUMP JUMPDEST PUSH0 PUSH2 0xFC7 DUP3 PUSH2 0xAB5 JUMP JUMPDEST SWAP2 POP PUSH2 0xFD2 DUP4 PUSH2 0xAB5 JUMP JUMPDEST SWAP3 POP DUP3 DUP3 MUL PUSH2 0xFE0 DUP2 PUSH2 0xAB5 JUMP JUMPDEST SWAP2 POP DUP3 DUP3 DIV DUP5 EQ DUP4 ISZERO OR PUSH2 0xFF7 JUMPI PUSH2 0xFF6 PUSH2 0xE76 JUMP JUMPDEST JUMPDEST POP SWAP3 SWAP2 POP POP JUMP JUMPDEST PUSH0 PUSH1 0x20 DUP3 DUP5 SUB SLT ISZERO PUSH2 0x1013 JUMPI PUSH2 0x1012 PUSH2 0x935 JUMP JUMPDEST JUMPDEST PUSH0 PUSH2 0x1020 DUP5 DUP3 DUP6 ADD PUSH2 0x983 JUMP JUMPDEST SWAP2 POP POP SWAP3 SWAP2 POP POP JUMP JUMPDEST PUSH0 PUSH1 0x20 DUP3 DUP5 SUB SLT ISZERO PUSH2 0x103E JUMPI PUSH2 0x103D PUSH2 0x935 JUMP JUMPDEST JUMPDEST PUSH0 PUSH2 0x104B DUP5 DUP3 DUP6 ADD PUSH2 0xF45 JUMP JUMPDEST SWAP2 POP POP SWAP3 SWAP2 POP POP JUMP JUMPDEST PUSH32 0x494E56414C49445F544F4B454E00000000000000000000000000000000000000 PUSH0 DUP3 ADD MSTORE POP JUMP JUMPDEST PUSH0 PUSH2 0x1088 PUSH1 0xD DUP4 PUSH2 0x8B4 JUMP JUMPDEST SWAP2 POP PUSH2 0x1093 DUP3 PUSH2 0x1054 JUMP JUMPDEST PUSH1 0x20 DUP3 ADD SWAP1 POP SWAP2 SWAP1 POP JUMP JUMPDEST PUSH0 PUSH1 0x20 DUP3 ADD SWAP1 POP DUP2 DUP2 SUB PUSH0 DUP4 ADD MSTORE PUSH2 0x10B5 DUP2 PUSH2 0x107C JUMP JUMPDEST SWAP1 POP SWAP2 SWAP1 POP JUMP INVALID LOG2 PUSH5 0x6970667358 0x22 SLT KECCAK256 0x2A 0xDE 0x1F LOG1 PUSH13 0xF49F62BAB49EE1FC80FF6E2ECD 0xAC LOG4 0xF7 PUSH23 0xA865A4DFA9294AC0A7A664736F6C634300081A00330000 "
				},
				"gasEstimates": {
					"creation": {
						"codeDepositCost": "867600",
						"executionCost": "901",
						"totalCost": "868501"
					},
					"external": {
						"balanceOf(address,address)": "infinite",
						"batchBalanceOf(address[],address[])": "infinite",
						"getUserWalletBalances(address,address)": "infinite"
					}
				},
				"methodIdentifiers": {
					"balanceOf(address,address)": "f7888aec",
					"batchBalanceOf(address[],address[])": "b59b28ef",
					"getUserWalletBalances(address,address)": "02405343"
				}
			},
			"storageLayout": {
				"storage": [],
				"types": null
			},
			"userdoc": {
				"kind": "user",
				"methods": {
					"batchBalanceOf(address[],address[])": {
						"notice": "Fetches, for a list of _users and _tokens (ETH included with mock address), the balances"
					}
				},
				"notice": "Implements a logic of getting multiple tokens balance for one user address",
				"version": 1
			}
		}
	}
}