{
	"data": {
		"bytecode": {
			"linkReferences": {},
			"object": "60e06040525f8055348015610012575f80fd5b5060405161524838038061524883398181016040528101906100349190610241565b806040518060400160405280600b81526020017f41544f4b454e5f494d504c0000000000000000000000000000000000000000008152506040518060400160405280600b81526020017f41544f4b454e5f494d504c0000000000000000000000000000000000000000008152505f83838383838383838373ffffffffffffffffffffffffffffffffffffffff16630542975c6040518163ffffffff1660e01b8152600401602060405180830381865afa1580156100f3573d5f803e3d5ffd5b505050506040513d601f19601f8201168201806040525081019061011791906102a7565b73ffffffffffffffffffffffffffffffffffffffff1660808173ffffffffffffffffffffffffffffffffffffffff16815250508260379081610159919061050c565b508160389081610169919061050c565b508060395f6101000a81548160ff021916908360ff1602179055508373ffffffffffffffffffffffffffffffffffffffff1660a08173ffffffffffffffffffffffffffffffffffffffff16815250505050505050505050505050504660c08181525050506105db565b5f80fd5b5f73ffffffffffffffffffffffffffffffffffffffff82169050919050565b5f6101ff826101d6565b9050919050565b5f610210826101f5565b9050919050565b61022081610206565b811461022a575f80fd5b50565b5f8151905061023b81610217565b92915050565b5f60208284031215610256576102556101d2565b5b5f6102638482850161022d565b91505092915050565b5f610276826101f5565b9050919050565b6102868161026c565b8114610290575f80fd5b50565b5f815190506102a18161027d565b92915050565b5f602082840312156102bc576102bb6101d2565b5b5f6102c984828501610293565b91505092915050565b5f81519050919050565b7f4e487b71000000000000000000000000000000000000000000000000000000005f52604160045260245ffd5b7f4e487b71000000000000000000000000000000000000000000000000000000005f52602260045260245ffd5b5f600282049050600182168061034d57607f821691505b6020821081036103605761035f610309565b5b50919050565b5f819050815f5260205f209050919050565b5f6020601f8301049050919050565b5f82821b905092915050565b5f600883026103c27fffffffffffffffffffffffffffffffffffffffffffffffffffffffffffffffff82610387565b6103cc8683610387565b95508019841693508086168417925050509392505050565b5f819050919050565b5f819050919050565b5f61041061040b610406846103e4565b6103ed565b6103e4565b9050919050565b5f819050919050565b610429836103f6565b61043d61043582610417565b848454610393565b825550505050565b5f90565b610451610445565b61045c818484610420565b505050565b5b8181101561047f576104745f82610449565b600181019050610462565b5050565b601f8211156104c45761049581610366565b61049e84610378565b810160208510156104ad578190505b6104c16104b985610378565b830182610461565b50505b505050565b5f82821c905092915050565b5f6104e45f19846008026104c9565b1980831691505092915050565b5f6104fc83836104d5565b9150826002028217905092915050565b610515826102d2565b67ffffffffffffffff81111561052e5761052d6102dc565b5b6105388254610336565b610543828285610483565b5f60209050601f831160018114610574575f8415610562578287015190505b61056c85826104f1565b8655506105d3565b601f19841661058286610366565b5f5b828110156105a957848901518255600182019150602085019450602081019050610584565b868310156105c657848901516105c2601f8916826104d5565b8355505b6001600288020188555050505b505050505050565b60805160a05160c051614be16106675f395f61231501525f81816107ba0152818161093501528181610b6c01528181610e0101528181610f1f01528181610ff6015281816110cd015281816111530152818161122c0152818161144d01528181611ae901528181611f0601528181612ab50152612b9d01525f81816115320152611d420152614be15ff3fe608060405234801561000f575f80fd5b5060043610610204575f3560e01c80637816037611610118578063b1bf962d116100ab578063d7020d0a1161007a578063d7020d0a14610617578063dd62ed3e14610633578063e075398614610663578063e655dbd814610693578063f866c319146106af57610204565b8063b1bf962d14610591578063b3f1c93d146105af578063cea9d26f146105df578063d505accf146105fb57610204565b8063a457c2d7116100e7578063a457c2d7146104f5578063a9059cbb14610525578063ae16733514610555578063b16a19de1461057357610204565b8063781603761461046d5780637df5bd3b1461048b5780637ecebe00146104a757806395d89b41146104d757610204565b806330adf81f1161019b5780634efecaa51161016a5780634efecaa5146103c95780636fd97676146103e557806370a08231146104015780637535d2461461043157806375d264131461044f57610204565b806330adf81f1461033f578063313ce5671461035d5780633644e5151461037b578063395093511461039957610204565b806318160ddd116101d757806318160ddd146102a5578063183fb413146102c35780631da24f3e146102df57806323b872dd1461030f57610204565b806306fdde0314610208578063095ea7b3146102265780630afbcdc9146102565780630bd7ad3b14610287575b5f80fd5b6102106106cb565b60405161021d91906139e8565b60405180910390f35b610240600480360381019061023b9190613a9d565b61075b565b60405161024d9190613af5565b60405180910390f35b610270600480360381019061026b9190613b0e565b610778565b60405161027e929190613b48565b60405180910390f35b61028f610794565b60405161029c9190613b6f565b60405180910390f35b6102ad610799565b6040516102ba9190613b6f565b60405180910390f35b6102dd60048036038101906102d89190613cea565b610887565b005b6102f960048036038101906102f49190613b0e565b610c2e565b6040516103069190613b6f565b60405180910390f35b61032960048036038101906103249190613dfb565b610c3f565b6040516103369190613af5565b60405180910390f35b610347610d11565b6040516103549190613e63565b60405180910390f35b610365610d35565b6040516103729190613e8b565b60405180910390f35b610383610d4a565b6040516103909190613e63565b60405180910390f35b6103b360048036038101906103ae9190613a9d565b610d58565b6040516103c09190613af5565b60405180910390f35b6103e360048036038101906103de9190613a9d565b610dff565b005b6103ff60048036038101906103fa9190613dfb565b610f1d565b005b61041b60048036038101906104169190613b0e565b610ff0565b6040516104289190613b6f565b60405180910390f35b6104396110cb565b6040516104469190613eff565b60405180910390f35b6104576110ef565b6040516104649190613f38565b60405180910390f35b610475611118565b6040516104829190613fa3565b60405180910390f35b6104a560048036038101906104a09190613fc3565b611151565b005b6104c160048036038101906104bc9190613b0e565b61127a565b6040516104ce9190613b6f565b60405180910390f35b6104df61128b565b6040516104ec91906139e8565b60405180910390f35b61050f600480360381019061050a9190613a9d565b61131b565b60405161051c9190613af5565b60405180910390f35b61053f600480360381019061053a9190613a9d565b6113c2565b60405161054c9190613af5565b60405180910390f35b61055d6113ec565b60405161056a9190614010565b60405180910390f35b61057b611414565b6040516105889190614010565b60405180910390f35b61059961143c565b6040516105a69190613b6f565b60405180910390f35b6105c960048036038101906105c49190614029565b61144a565b6040516105d69190613af5565b60405180910390f35b6105f960048036038101906105f49190613dfb565b61152f565b005b610615600480360381019061061091906140b7565b6117a9565b005b610631600480360381019061062c9190614029565b611ae7565b005b61064d60048036038101906106489190614154565b611c47565b60405161065a9190613b6f565b60405180910390f35b61067d60048036038101906106789190613b0e565b611cc9565b60405161068a9190613b6f565b60405180910390f35b6106ad60048036038101906106a89190614192565b611d3f565b005b6106c960048036038101906106c49190613dfb565b611f04565b005b6060603780546106da906141ea565b80601f0160208091040260200160405190810160405280929190818152602001828054610706906141ea565b80156107515780601f1061072857610100808354040283529160200191610751565b820191905f5260205f20905b81548152906001019060200180831161073457829003601f168201915b5050505050905090565b5f61076e610767611fe3565b8484611fea565b6001905092915050565b5f80610783836120d1565b61078b612146565b91509150915091565b600181565b5f806107a3612146565b90505f81036107b5575f915050610884565b6108807f000000000000000000000000000000000000000000000000000000000000000073ffffffffffffffffffffffffffffffffffffffff1663d15e0053603d5f9054906101000a900473ffffffffffffffffffffffffffffffffffffffff166040518263ffffffff1660e01b81526004016108329190614010565b602060405180830381865afa15801561084d573d5f803e3d5ffd5b505050506040513d601f19601f82011682018060405250810190610871919061422e565b8261214f90919063ffffffff16565b9150505b90565b5f610890612197565b905060015f9054906101000a900460ff16806108b057506108af61219f565b5b806108bb57505f5481115b6108fa576040517f08c379a00000000000000000000000000000000000000000000000000000000081526004016108f1906142c9565b60405180910390fd5b5f60015f9054906101000a900460ff161590508015610933576001805f6101000a81548160ff021916908315150217905550815f819055505b7f000000000000000000000000000000000000000000000000000000000000000073ffffffffffffffffffffffffffffffffffffffff168d73ffffffffffffffffffffffffffffffffffffffff16146040518060400160405280600281526020017f3837000000000000000000000000000000000000000000000000000000000000815250906109f9576040517f08c379a00000000000000000000000000000000000000000000000000000000081526004016109f091906139e8565b60405180910390fd5b50610a4688888080601f0160208091040260200160405190810160405280939291908181526020018383808284375f81840152601f19601f820116905080830192505050505050506121ae565b610a9286868080601f0160208091040260200160405190810160405280939291908181526020018383808284375f81840152601f19601f820116905080830192505050505050506121c1565b610a9b896121d4565b8b603c5f6101000a81548173ffffffffffffffffffffffffffffffffffffffff021916908373ffffffffffffffffffffffffffffffffffffffff1602179055508a603d5f6101000a81548173ffffffffffffffffffffffffffffffffffffffff021916908373ffffffffffffffffffffffffffffffffffffffff16021790555089603960016101000a81548173ffffffffffffffffffffffffffffffffffffffff021916908373ffffffffffffffffffffffffffffffffffffffff160217905550610b646121f1565b603b819055507f000000000000000000000000000000000000000000000000000000000000000073ffffffffffffffffffffffffffffffffffffffff168b73ffffffffffffffffffffffffffffffffffffffff167fb19e051f8af41150ccccb3fc2c2d8d15f4a4cf434f32a559ba75fe73d6eea20b8e8d8d8d8d8d8d8d8d604051610bf79998979695949392919061434d565b60405180910390a38015610c1f575f60015f6101000a81548160ff0219169083151502179055505b50505050505050505050505050565b5f610c38826120d1565b9050919050565b5f80610c4a83612290565b9050610cfa85610c58611fe3565b836fffffffffffffffffffffffffffffffff1660355f8a73ffffffffffffffffffffffffffffffffffffffff1673ffffffffffffffffffffffffffffffffffffffff1681526020019081526020015f205f610cb1611fe3565b73ffffffffffffffffffffffffffffffffffffffff1673ffffffffffffffffffffffffffffffffffffffff1681526020019081526020015f2054610cf591906143f4565b611fea565b610d058585836122ee565b60019150509392505050565b7f6e71edae12b1b97f4d1f60370fef10105fa2faae0126114a169c64845d6126c981565b5f60395f9054906101000a900460ff16905090565b5f610d53612312565b905090565b5f610df5610d64611fe3565b848460355f610d71611fe3565b73ffffffffffffffffffffffffffffffffffffffff1673ffffffffffffffffffffffffffffffffffffffff1681526020019081526020015f205f8873ffffffffffffffffffffffffffffffffffffffff1673ffffffffffffffffffffffffffffffffffffffff1681526020019081526020015f2054610df09190614427565b611fea565b6001905092915050565b7f000000000000000000000000000000000000000000000000000000000000000073ffffffffffffffffffffffffffffffffffffffff16610e3e611fe3565b73ffffffffffffffffffffffffffffffffffffffff16146040518060400160405280600281526020017f323300000000000000000000000000000000000000000000000000000000000081525090610ecc576040517f08c379a0000000000000000000000000000000000000000000000000000000008152600401610ec391906139e8565b60405180910390fd5b50610f198282603d5f9054906101000a900473ffffffffffffffffffffffffffffffffffffffff1673ffffffffffffffffffffffffffffffffffffffff166123529092919063ffffffff16565b5050565b7f000000000000000000000000000000000000000000000000000000000000000073ffffffffffffffffffffffffffffffffffffffff16610f5c611fe3565b73ffffffffffffffffffffffffffffffffffffffff16146040518060400160405280600281526020017f323300000000000000000000000000000000000000000000000000000000000081525090610fea576040517f08c379a0000000000000000000000000000000000000000000000000000000008152600401610fe191906139e8565b60405180910390fd5b50505050565b5f6110c47f000000000000000000000000000000000000000000000000000000000000000073ffffffffffffffffffffffffffffffffffffffff1663d15e0053603d5f9054906101000a900473ffffffffffffffffffffffffffffffffffffffff166040518263ffffffff1660e01b815260040161106e9190614010565b602060405180830381865afa158015611089573d5f803e3d5ffd5b505050506040513d601f19601f820116820180604052508101906110ad919061422e565b6110b6846120d1565b61214f90919063ffffffff16565b9050919050565b7f000000000000000000000000000000000000000000000000000000000000000081565b5f603960019054906101000a900473ffffffffffffffffffffffffffffffffffffffff16905090565b6040518060400160405280600181526020017f310000000000000000000000000000000000000000000000000000000000000081525081565b7f000000000000000000000000000000000000000000000000000000000000000073ffffffffffffffffffffffffffffffffffffffff16611190611fe3565b73ffffffffffffffffffffffffffffffffffffffff16146040518060400160405280600281526020017f32330000000000000000000000000000000000000000000000000000000000008152509061121e576040517f08c379a000000000000000000000000000000000000000000000000000000000815260040161121591906139e8565b60405180910390fd5b505f820315611276576112747f0000000000000000000000000000000000000000000000000000000000000000603c5f9054906101000a900473ffffffffffffffffffffffffffffffffffffffff1684846123e9565b505b5050565b5f611284826126a6565b9050919050565b60606038805461129a906141ea565b80601f01602080910402602001604051908101604052809291908181526020018280546112c6906141ea565b80156113115780601f106112e857610100808354040283529160200191611311565b820191905f5260205f20905b8154815290600101906020018083116112f457829003601f168201915b5050505050905090565b5f6113b8611327611fe3565b848460355f611334611fe3565b73ffffffffffffffffffffffffffffffffffffffff1673ffffffffffffffffffffffffffffffffffffffff1681526020019081526020015f205f8873ffffffffffffffffffffffffffffffffffffffff1673ffffffffffffffffffffffffffffffffffffffff1681526020019081526020015f20546113b391906143f4565b611fea565b6001905092915050565b5f806113cd83612290565b90506113e16113da611fe3565b85836122ee565b600191505092915050565b5f603c5f9054906101000a900473ffffffffffffffffffffffffffffffffffffffff16905090565b5f603d5f9054906101000a900473ffffffffffffffffffffffffffffffffffffffff16905090565b5f611445612146565b905090565b5f7f000000000000000000000000000000000000000000000000000000000000000073ffffffffffffffffffffffffffffffffffffffff1661148a611fe3565b73ffffffffffffffffffffffffffffffffffffffff16146040518060400160405280600281526020017f323300000000000000000000000000000000000000000000000000000000000081525090611518576040517f08c379a000000000000000000000000000000000000000000000000000000000815260040161150f91906139e8565b60405180910390fd5b50611525858585856123e9565b9050949350505050565b5f7f000000000000000000000000000000000000000000000000000000000000000073ffffffffffffffffffffffffffffffffffffffff1663707cd7166040518163ffffffff1660e01b8152600401602060405180830381865afa158015611599573d5f803e3d5ffd5b505050506040513d601f19601f820116820180604052508101906115bd919061446e565b90508073ffffffffffffffffffffffffffffffffffffffff16637be53ca1336040518263ffffffff1660e01b81526004016115f89190614010565b602060405180830381865afa158015611613573d5f803e3d5ffd5b505050506040513d601f19601f8201168201806040525081019061163791906144c3565b6040518060400160405280600181526020017f3100000000000000000000000000000000000000000000000000000000000000815250906116ae576040517f08c379a00000000000000000000000000000000000000000000000000000000081526004016116a591906139e8565b60405180910390fd5b50603d5f9054906101000a900473ffffffffffffffffffffffffffffffffffffffff1673ffffffffffffffffffffffffffffffffffffffff168473ffffffffffffffffffffffffffffffffffffffff1614156040518060400160405280600281526020017f383500000000000000000000000000000000000000000000000000000000000081525090611777576040517f08c379a000000000000000000000000000000000000000000000000000000000815260040161176e91906139e8565b60405180910390fd5b506117a383838673ffffffffffffffffffffffffffffffffffffffff166123529092919063ffffffff16565b50505050565b5f73ffffffffffffffffffffffffffffffffffffffff168773ffffffffffffffffffffffffffffffffffffffff1614156040518060400160405280600281526020017f373700000000000000000000000000000000000000000000000000000000000081525090611850576040517f08c379a000000000000000000000000000000000000000000000000000000000815260040161184791906139e8565b60405180910390fd5b50834211156040518060400160405280600281526020017f3738000000000000000000000000000000000000000000000000000000000000815250906118cc576040517f08c379a00000000000000000000000000000000000000000000000000000000081526004016118c391906139e8565b60405180910390fd5b505f603a5f8973ffffffffffffffffffffffffffffffffffffffff1673ffffffffffffffffffffffffffffffffffffffff1681526020019081526020015f205490505f611917610d4a565b7f6e71edae12b1b97f4d1f60370fef10105fa2faae0126114a169c64845d6126c98a8a8a868b604051602001611952969594939291906144ee565b604051602081830303815290604052805190602001206040516020016119799291906145c1565b6040516020818303038152906040528051906020012090506001818686866040515f81526020016040526040516119b394939291906145f7565b6020604051602081039080840390855afa1580156119d3573d5f803e3d5ffd5b5050506020604051035173ffffffffffffffffffffffffffffffffffffffff168973ffffffffffffffffffffffffffffffffffffffff16146040518060400160405280600281526020017f373900000000000000000000000000000000000000000000000000000000000081525090611a82576040517f08c379a0000000000000000000000000000000000000000000000000000000008152600401611a7991906139e8565b60405180910390fd5b50600182611a909190614427565b603a5f8b73ffffffffffffffffffffffffffffffffffffffff1673ffffffffffffffffffffffffffffffffffffffff1681526020019081526020015f2081905550611adc898989611fea565b505050505050505050565b7f000000000000000000000000000000000000000000000000000000000000000073ffffffffffffffffffffffffffffffffffffffff16611b26611fe3565b73ffffffffffffffffffffffffffffffffffffffff16146040518060400160405280600281526020017f323300000000000000000000000000000000000000000000000000000000000081525090611bb4576040517f08c379a0000000000000000000000000000000000000000000000000000000008152600401611bab91906139e8565b60405180910390fd5b50611bc1848484846126ec565b3073ffffffffffffffffffffffffffffffffffffffff168373ffffffffffffffffffffffffffffffffffffffff1614611c4157611c408383603d5f9054906101000a900473ffffffffffffffffffffffffffffffffffffffff1673ffffffffffffffffffffffffffffffffffffffff166123529092919063ffffffff16565b5b50505050565b5f60355f8473ffffffffffffffffffffffffffffffffffffffff1673ffffffffffffffffffffffffffffffffffffffff1681526020019081526020015f205f8373ffffffffffffffffffffffffffffffffffffffff1673ffffffffffffffffffffffffffffffffffffffff1681526020019081526020015f2054905092915050565b5f60345f8373ffffffffffffffffffffffffffffffffffffffff1673ffffffffffffffffffffffffffffffffffffffff1681526020019081526020015f205f0160109054906101000a90046fffffffffffffffffffffffffffffffff166fffffffffffffffffffffffffffffffff169050919050565b5f7f000000000000000000000000000000000000000000000000000000000000000073ffffffffffffffffffffffffffffffffffffffff1663707cd7166040518163ffffffff1660e01b8152600401602060405180830381865afa158015611da9573d5f803e3d5ffd5b505050506040513d601f19601f82011682018060405250810190611dcd919061446e565b90508073ffffffffffffffffffffffffffffffffffffffff16637be53ca1336040518263ffffffff1660e01b8152600401611e089190614010565b602060405180830381865afa158015611e23573d5f803e3d5ffd5b505050506040513d601f19601f82011682018060405250810190611e4791906144c3565b6040518060400160405280600181526020017f310000000000000000000000000000000000000000000000000000000000000081525090611ebe576040517f08c379a0000000000000000000000000000000000000000000000000000000008152600401611eb591906139e8565b60405180910390fd5b5081603960016101000a81548173ffffffffffffffffffffffffffffffffffffffff021916908373ffffffffffffffffffffffffffffffffffffffff1602179055505050565b7f000000000000000000000000000000000000000000000000000000000000000073ffffffffffffffffffffffffffffffffffffffff16611f43611fe3565b73ffffffffffffffffffffffffffffffffffffffff16146040518060400160405280600281526020017f323300000000000000000000000000000000000000000000000000000000000081525090611fd1576040517f08c379a0000000000000000000000000000000000000000000000000000000008152600401611fc891906139e8565b60405180910390fd5b50611fde8383835f612a8d565b505050565b5f33905090565b8060355f8573ffffffffffffffffffffffffffffffffffffffff1673ffffffffffffffffffffffffffffffffffffffff1681526020019081526020015f205f8473ffffffffffffffffffffffffffffffffffffffff1673ffffffffffffffffffffffffffffffffffffffff1681526020019081526020015f20819055508173ffffffffffffffffffffffffffffffffffffffff168373ffffffffffffffffffffffffffffffffffffffff167f8c5be1e5ebec7d5bd14f71427d1e84f3dd0314c0f7b2291e5b200ac8c7c3b925836040516120c49190613b6f565b60405180910390a3505050565b5f60345f8373ffffffffffffffffffffffffffffffffffffffff1673ffffffffffffffffffffffffffffffffffffffff1681526020019081526020015f205f015f9054906101000a90046fffffffffffffffffffffffffffffffff166fffffffffffffffffffffffffffffffff169050919050565b5f603654905090565b5f816b019d971e4fe8401e740000005f190304831115821517612170575f80fd5b6b033b2e3c9fd0803ce80000006b019d971e4fe8401e740000008385020104905092915050565b5f6001905090565b5f80303b90505f811491505090565b80603790816121bd91906147fb565b5050565b80603890816121d091906147fb565b5050565b8060395f6101000a81548160ff021916908360ff16021790555050565b5f7f8b73c3c69bb8fe3d512ecc4cf759cc79239f7b179b0ffacaa9a75d522b39400f61221b612caf565b805190602001206040518060400160405280600181526020017f31000000000000000000000000000000000000000000000000000000000000008152508051906020012046306040516020016122759594939291906148ca565b60405160208183030381529060405280519060200120905090565b5f6fffffffffffffffffffffffffffffffff80168211156122e6576040517f08c379a00000000000000000000000000000000000000000000000000000000081526004016122dd9061498b565b60405180910390fd5b819050919050565b61230d8383836fffffffffffffffffffffffffffffffff166001612a8d565b505050565b5f7f0000000000000000000000000000000000000000000000000000000000000000460361234457603b54905061234f565b61234c6121f1565b90505b90565b5f63a9059cbb60e01b905060405181815273ffffffffffffffffffffffffffffffffffffffff841660048201528260248201525f806044835f895af161239a573d5f803e3d5ffd5b506123a484612cbe565b6123e3576040517f08c379a00000000000000000000000000000000000000000000000000000000081526004016123da906149f3565b60405180910390fd5b50505050565b5f806123fe8385612d8590919063ffffffff16565b90505f8114156040518060400160405280600281526020017f32340000000000000000000000000000000000000000000000000000000000008152509061247b576040517f08c379a000000000000000000000000000000000000000000000000000000000815260040161247291906139e8565b60405180910390fd5b505f612486866120d1565b90505f61250960345f8973ffffffffffffffffffffffffffffffffffffffff1673ffffffffffffffffffffffffffffffffffffffff1681526020019081526020015f205f0160109054906101000a90046fffffffffffffffffffffffffffffffff166fffffffffffffffffffffffffffffffff168361214f90919063ffffffff16565b61251c868461214f90919063ffffffff16565b61252691906143f4565b905061253185612290565b60345f8973ffffffffffffffffffffffffffffffffffffffff1673ffffffffffffffffffffffffffffffffffffffff1681526020019081526020015f205f0160106101000a8154816fffffffffffffffffffffffffffffffff02191690836fffffffffffffffffffffffffffffffff1602179055506125b8876125b385612290565b612dc9565b5f81876125c59190614427565b90508773ffffffffffffffffffffffffffffffffffffffff165f73ffffffffffffffffffffffffffffffffffffffff167fddf252ad1be2c89b69c2b068fc378daa952ba7f163c4a11628f55a4df523b3ef836040516126249190613b6f565b60405180910390a38773ffffffffffffffffffffffffffffffffffffffff168973ffffffffffffffffffffffffffffffffffffffff167f458f5fa412d0f69b08dd84872b0215675cc67bc1d5b6fd93300a1c3878b8619683858a60405161268d93929190614a11565b60405180910390a35f8314945050505050949350505050565b5f603a5f8373ffffffffffffffffffffffffffffffffffffffff1673ffffffffffffffffffffffffffffffffffffffff1681526020019081526020015f20549050919050565b5f6127008284612d8590919063ffffffff16565b90505f8114156040518060400160405280600281526020017f32350000000000000000000000000000000000000000000000000000000000008152509061277d576040517f08c379a000000000000000000000000000000000000000000000000000000000815260040161277491906139e8565b60405180910390fd5b505f612788866120d1565b90505f61280b60345f8973ffffffffffffffffffffffffffffffffffffffff1673ffffffffffffffffffffffffffffffffffffffff1681526020019081526020015f205f0160109054906101000a90046fffffffffffffffffffffffffffffffff166fffffffffffffffffffffffffffffffff168361214f90919063ffffffff16565b61281e858461214f90919063ffffffff16565b61282891906143f4565b905061283384612290565b60345f8973ffffffffffffffffffffffffffffffffffffffff1673ffffffffffffffffffffffffffffffffffffffff1681526020019081526020015f205f0160106101000a8154816fffffffffffffffffffffffffffffffff02191690836fffffffffffffffffffffffffffffffff1602179055506128ba876128b585612290565b612f9c565b848111156129a5575f85826128cf91906143f4565b90508773ffffffffffffffffffffffffffffffffffffffff165f73ffffffffffffffffffffffffffffffffffffffff167fddf252ad1be2c89b69c2b068fc378daa952ba7f163c4a11628f55a4df523b3ef8360405161292e9190613b6f565b60405180910390a38773ffffffffffffffffffffffffffffffffffffffff168873ffffffffffffffffffffffffffffffffffffffff167f458f5fa412d0f69b08dd84872b0215675cc67bc1d5b6fd93300a1c3878b8619683858960405161299793929190614a11565b60405180910390a350612a84565b5f81866129b291906143f4565b90505f73ffffffffffffffffffffffffffffffffffffffff168873ffffffffffffffffffffffffffffffffffffffff167fddf252ad1be2c89b69c2b068fc378daa952ba7f163c4a11628f55a4df523b3ef83604051612a119190613b6f565b60405180910390a38673ffffffffffffffffffffffffffffffffffffffff168873ffffffffffffffffffffffffffffffffffffffff167f4cf25bc1d991c17529c25213d3cc0cda295eeaad5f13f361969b12ea48015f90838589604051612a7a93929190614a11565b60405180910390a3505b50505050505050565b5f603d5f9054906101000a900473ffffffffffffffffffffffffffffffffffffffff1690505f7f000000000000000000000000000000000000000000000000000000000000000073ffffffffffffffffffffffffffffffffffffffff1663d15e0053836040518263ffffffff1660e01b8152600401612b0c9190614010565b602060405180830381865afa158015612b27573d5f803e3d5ffd5b505050506040513d601f19601f82011682018060405250810190612b4b919061422e565b90505f612b6982612b5b896120d1565b61214f90919063ffffffff16565b90505f612b8783612b79896120d1565b61214f90919063ffffffff16565b9050612b958888888661316f565b8415612c2c577f000000000000000000000000000000000000000000000000000000000000000073ffffffffffffffffffffffffffffffffffffffff1663d5ed3933858a8a8a87876040518763ffffffff1660e01b8152600401612bfe96959493929190614a46565b5f604051808303815f87803b158015612c15575f80fd5b505af1158015612c27573d5f803e3d5ffd5b505050505b8673ffffffffffffffffffffffffffffffffffffffff168873ffffffffffffffffffffffffffffffffffffffff167f4beccb90f994c31aced7a23b5611020728a23d8ec5cddd1a3e9d97b96fda8666612c8e868a612d8590919063ffffffff16565b86604051612c9d929190613b48565b60405180910390a35050505050505050565b6060612cb96106cb565b905090565b5f612cf9565b7f08c379a0000000000000000000000000000000000000000000000000000000005f526020600452806024528160445260645ffd5b3d5f8114612d395760208114612d7457612d347f475076323a206d616c666f726d6564207472616e7366657220726573756c7400601f612cc4565b612d7f565b823b612d6b57612d6a7f475076323a206e6f74206120636f6e74726163740000000000000000000000006014612cc4565b5b60019150612d7f565b3d5f803e5f51151591505b50919050565b5f6b033b2e3c9fd0803ce8000000600283045f1903048311151582151715612dab575f80fd5b81600283046b033b2e3c9fd0803ce800000085020104905092915050565b5f6036549050816fffffffffffffffffffffffffffffffff1681612ded9190614427565b6036819055505f60345f8573ffffffffffffffffffffffffffffffffffffffff1673ffffffffffffffffffffffffffffffffffffffff1681526020019081526020015f205f015f9054906101000a90046fffffffffffffffffffffffffffffffff1690508281612e5d9190614ac0565b60345f8673ffffffffffffffffffffffffffffffffffffffff1673ffffffffffffffffffffffffffffffffffffffff1681526020019081526020015f205f015f6101000a8154816fffffffffffffffffffffffffffffffff02191690836fffffffffffffffffffffffffffffffff1602179055505f603960019054906101000a900473ffffffffffffffffffffffffffffffffffffffff1690505f73ffffffffffffffffffffffffffffffffffffffff168173ffffffffffffffffffffffffffffffffffffffff1614612f95578073ffffffffffffffffffffffffffffffffffffffff166331873e2e8685856040518463ffffffff1660e01b8152600401612f6793929190614b33565b5f604051808303815f87803b158015612f7e575f80fd5b505af1158015612f90573d5f803e3d5ffd5b505050505b5050505050565b5f6036549050816fffffffffffffffffffffffffffffffff1681612fc091906143f4565b6036819055505f60345f8573ffffffffffffffffffffffffffffffffffffffff1673ffffffffffffffffffffffffffffffffffffffff1681526020019081526020015f205f015f9054906101000a90046fffffffffffffffffffffffffffffffff16905082816130309190614b68565b60345f8673ffffffffffffffffffffffffffffffffffffffff1673ffffffffffffffffffffffffffffffffffffffff1681526020019081526020015f205f015f6101000a8154816fffffffffffffffffffffffffffffffff02191690836fffffffffffffffffffffffffffffffff1602179055505f603960019054906101000a900473ffffffffffffffffffffffffffffffffffffffff1690505f73ffffffffffffffffffffffffffffffffffffffff168173ffffffffffffffffffffffffffffffffffffffff1614613168578073ffffffffffffffffffffffffffffffffffffffff166331873e2e8685856040518463ffffffff1660e01b815260040161313a93929190614b33565b5f604051808303815f87803b158015613151575f80fd5b505af1158015613163573d5f803e3d5ffd5b505050505b5050505050565b5f613179856120d1565b90505f6131fc60345f8873ffffffffffffffffffffffffffffffffffffffff1673ffffffffffffffffffffffffffffffffffffffff1681526020019081526020015f205f0160109054906101000a90046fffffffffffffffffffffffffffffffff166fffffffffffffffffffffffffffffffff168361214f90919063ffffffff16565b61320f848461214f90919063ffffffff16565b61321991906143f4565b90505f613225866120d1565b90505f6132a860345f8973ffffffffffffffffffffffffffffffffffffffff1673ffffffffffffffffffffffffffffffffffffffff1681526020019081526020015f205f0160109054906101000a90046fffffffffffffffffffffffffffffffff166fffffffffffffffffffffffffffffffff168361214f90919063ffffffff16565b6132bb868461214f90919063ffffffff16565b6132c591906143f4565b90506132d085612290565b60345f8a73ffffffffffffffffffffffffffffffffffffffff1673ffffffffffffffffffffffffffffffffffffffff1681526020019081526020015f205f0160106101000a8154816fffffffffffffffffffffffffffffffff02191690836fffffffffffffffffffffffffffffffff16021790555061334e85612290565b60345f8973ffffffffffffffffffffffffffffffffffffffff1673ffffffffffffffffffffffffffffffffffffffff1681526020019081526020015f205f0160106101000a8154816fffffffffffffffffffffffffffffffff02191690836fffffffffffffffffffffffffffffffff1602179055506133e888886133e36133de898b612d8590919063ffffffff16565b612290565b61364b565b5f8311156134c6578773ffffffffffffffffffffffffffffffffffffffff165f73ffffffffffffffffffffffffffffffffffffffff167fddf252ad1be2c89b69c2b068fc378daa952ba7f163c4a11628f55a4df523b3ef8560405161344d9190613b6f565b60405180910390a38773ffffffffffffffffffffffffffffffffffffffff16613474611fe3565b73ffffffffffffffffffffffffffffffffffffffff167f458f5fa412d0f69b08dd84872b0215675cc67bc1d5b6fd93300a1c3878b861968586896040516134bd93929190614a11565b60405180910390a35b8673ffffffffffffffffffffffffffffffffffffffff168873ffffffffffffffffffffffffffffffffffffffff161415801561350157505f81115b156135dc578673ffffffffffffffffffffffffffffffffffffffff165f73ffffffffffffffffffffffffffffffffffffffff167fddf252ad1be2c89b69c2b068fc378daa952ba7f163c4a11628f55a4df523b3ef836040516135639190613b6f565b60405180910390a38673ffffffffffffffffffffffffffffffffffffffff1661358a611fe3565b73ffffffffffffffffffffffffffffffffffffffff167f458f5fa412d0f69b08dd84872b0215675cc67bc1d5b6fd93300a1c3878b861968384896040516135d393929190614a11565b60405180910390a35b8673ffffffffffffffffffffffffffffffffffffffff168873ffffffffffffffffffffffffffffffffffffffff167fddf252ad1be2c89b69c2b068fc378daa952ba7f163c4a11628f55a4df523b3ef886040516136399190613b6f565b60405180910390a35050505050505050565b5f60345f8573ffffffffffffffffffffffffffffffffffffffff1673ffffffffffffffffffffffffffffffffffffffff1681526020019081526020015f205f015f9054906101000a90046fffffffffffffffffffffffffffffffff16905081816136b59190614b68565b60345f8673ffffffffffffffffffffffffffffffffffffffff1673ffffffffffffffffffffffffffffffffffffffff1681526020019081526020015f205f015f6101000a8154816fffffffffffffffffffffffffffffffff02191690836fffffffffffffffffffffffffffffffff1602179055505f60345f8573ffffffffffffffffffffffffffffffffffffffff1673ffffffffffffffffffffffffffffffffffffffff1681526020019081526020015f205f015f9054906101000a90046fffffffffffffffffffffffffffffffff16905082816137939190614ac0565b60345f8673ffffffffffffffffffffffffffffffffffffffff1673ffffffffffffffffffffffffffffffffffffffff1681526020019081526020015f205f015f6101000a8154816fffffffffffffffffffffffffffffffff02191690836fffffffffffffffffffffffffffffffff1602179055505f603960019054906101000a900473ffffffffffffffffffffffffffffffffffffffff1690505f73ffffffffffffffffffffffffffffffffffffffff168173ffffffffffffffffffffffffffffffffffffffff1614613970575f60365490508173ffffffffffffffffffffffffffffffffffffffff166331873e2e8883876040518463ffffffff1660e01b81526004016138a393929190614b33565b5f604051808303815f87803b1580156138ba575f80fd5b505af11580156138cc573d5f803e3d5ffd5b505050508573ffffffffffffffffffffffffffffffffffffffff168773ffffffffffffffffffffffffffffffffffffffff161461396e578173ffffffffffffffffffffffffffffffffffffffff166331873e2e8783866040518463ffffffff1660e01b815260040161394093929190614b33565b5f604051808303815f87803b158015613957575f80fd5b505af1158015613969573d5f803e3d5ffd5b505050505b505b505050505050565b5f81519050919050565b5f82825260208201905092915050565b8281835e5f83830152505050565b5f601f19601f8301169050919050565b5f6139ba82613978565b6139c48185613982565b93506139d4818560208601613992565b6139dd816139a0565b840191505092915050565b5f6020820190508181035f830152613a0081846139b0565b905092915050565b5f80fd5b5f80fd5b5f73ffffffffffffffffffffffffffffffffffffffff82169050919050565b5f613a3982613a10565b9050919050565b613a4981613a2f565b8114613a53575f80fd5b50565b5f81359050613a6481613a40565b92915050565b5f819050919050565b613a7c81613a6a565b8114613a86575f80fd5b50565b5f81359050613a9781613a73565b92915050565b5f8060408385031215613ab357613ab2613a08565b5b5f613ac085828601613a56565b9250506020613ad185828601613a89565b9150509250929050565b5f8115159050919050565b613aef81613adb565b82525050565b5f602082019050613b085f830184613ae6565b92915050565b5f60208284031215613b2357613b22613a08565b5b5f613b3084828501613a56565b91505092915050565b613b4281613a6a565b82525050565b5f604082019050613b5b5f830185613b39565b613b686020830184613b39565b9392505050565b5f602082019050613b825f830184613b39565b92915050565b5f613b9282613a2f565b9050919050565b613ba281613b88565b8114613bac575f80fd5b50565b5f81359050613bbd81613b99565b92915050565b5f613bcd82613a2f565b9050919050565b613bdd81613bc3565b8114613be7575f80fd5b50565b5f81359050613bf881613bd4565b92915050565b5f60ff82169050919050565b613c1381613bfe565b8114613c1d575f80fd5b50565b5f81359050613c2e81613c0a565b92915050565b5f80fd5b5f80fd5b5f80fd5b5f8083601f840112613c5557613c54613c34565b5b8235905067ffffffffffffffff811115613c7257613c71613c38565b5b602083019150836001820283011115613c8e57613c8d613c3c565b5b9250929050565b5f8083601f840112613caa57613ca9613c34565b5b8235905067ffffffffffffffff811115613cc757613cc6613c38565b5b602083019150836001820283011115613ce357613ce2613c3c565b5b9250929050565b5f805f805f805f805f805f6101008c8e031215613d0a57613d09613a08565b5b5f613d178e828f01613baf565b9b50506020613d288e828f01613a56565b9a50506040613d398e828f01613a56565b9950506060613d4a8e828f01613bea565b9850506080613d5b8e828f01613c20565b97505060a08c013567ffffffffffffffff811115613d7c57613d7b613a0c565b5b613d888e828f01613c40565b965096505060c08c013567ffffffffffffffff811115613dab57613daa613a0c565b5b613db78e828f01613c40565b945094505060e08c013567ffffffffffffffff811115613dda57613dd9613a0c565b5b613de68e828f01613c95565b92509250509295989b509295989b9093969950565b5f805f60608486031215613e1257613e11613a08565b5b5f613e1f86828701613a56565b9350506020613e3086828701613a56565b9250506040613e4186828701613a89565b9150509250925092565b5f819050919050565b613e5d81613e4b565b82525050565b5f602082019050613e765f830184613e54565b92915050565b613e8581613bfe565b82525050565b5f602082019050613e9e5f830184613e7c565b92915050565b5f819050919050565b5f613ec7613ec2613ebd84613a10565b613ea4565b613a10565b9050919050565b5f613ed882613ead565b9050919050565b5f613ee982613ece565b9050919050565b613ef981613edf565b82525050565b5f602082019050613f125f830184613ef0565b92915050565b5f613f2282613ece565b9050919050565b613f3281613f18565b82525050565b5f602082019050613f4b5f830184613f29565b92915050565b5f81519050919050565b5f82825260208201905092915050565b5f613f7582613f51565b613f7f8185613f5b565b9350613f8f818560208601613992565b613f98816139a0565b840191505092915050565b5f6020820190508181035f830152613fbb8184613f6b565b905092915050565b5f8060408385031215613fd957613fd8613a08565b5b5f613fe685828601613a89565b9250506020613ff785828601613a89565b9150509250929050565b61400a81613a2f565b82525050565b5f6020820190506140235f830184614001565b92915050565b5f805f806080858703121561404157614040613a08565b5b5f61404e87828801613a56565b945050602061405f87828801613a56565b935050604061407087828801613a89565b925050606061408187828801613a89565b91505092959194509250565b61409681613e4b565b81146140a0575f80fd5b50565b5f813590506140b18161408d565b92915050565b5f805f805f805f60e0888a0312156140d2576140d1613a08565b5b5f6140df8a828b01613a56565b97505060206140f08a828b01613a56565b96505060406141018a828b01613a89565b95505060606141128a828b01613a89565b94505060806141238a828b01613c20565b93505060a06141348a828b016140a3565b92505060c06141458a828b016140a3565b91505092959891949750929550565b5f806040838503121561416a57614169613a08565b5b5f61417785828601613a56565b925050602061418885828601613a56565b9150509250929050565b5f602082840312156141a7576141a6613a08565b5b5f6141b484828501613bea565b91505092915050565b7f4e487b71000000000000000000000000000000000000000000000000000000005f52602260045260245ffd5b5f600282049050600182168061420157607f821691505b602082108103614214576142136141bd565b5b50919050565b5f8151905061422881613a73565b92915050565b5f6020828403121561424357614242613a08565b5b5f6142508482850161421a565b91505092915050565b7f436f6e747261637420696e7374616e63652068617320616c72656164792062655f8201527f656e20696e697469616c697a6564000000000000000000000000000000000000602082015250565b5f6142b3602e83613982565b91506142be82614259565b604082019050919050565b5f6020820190508181035f8301526142e0816142a7565b9050919050565b828183375f83830152505050565b5f6143008385613982565b935061430d8385846142e7565b614316836139a0565b840190509392505050565b5f61432c8385613f5b565b93506143398385846142e7565b614342836139a0565b840190509392505050565b5f60c0820190506143605f83018c614001565b61436d602083018b614001565b61437a604083018a613e7c565b818103606083015261438d81888a6142f5565b905081810360808301526143a28186886142f5565b905081810360a08301526143b7818486614321565b90509a9950505050505050505050565b7f4e487b71000000000000000000000000000000000000000000000000000000005f52601160045260245ffd5b5f6143fe82613a6a565b915061440983613a6a565b9250828203905081811115614421576144206143c7565b5b92915050565b5f61443182613a6a565b915061443c83613a6a565b9250828201905080821115614454576144536143c7565b5b92915050565b5f8151905061446881613a40565b92915050565b5f6020828403121561448357614482613a08565b5b5f6144908482850161445a565b91505092915050565b6144a281613adb565b81146144ac575f80fd5b50565b5f815190506144bd81614499565b92915050565b5f602082840312156144d8576144d7613a08565b5b5f6144e5848285016144af565b91505092915050565b5f60c0820190506145015f830189613e54565b61450e6020830188614001565b61451b6040830187614001565b6145286060830186613b39565b6145356080830185613b39565b61454260a0830184613b39565b979650505050505050565b5f81905092915050565b7f19010000000000000000000000000000000000000000000000000000000000005f82015250565b5f61458b60028361454d565b915061459682614557565b600282019050919050565b5f819050919050565b6145bb6145b682613e4b565b6145a1565b82525050565b5f6145cb8261457f565b91506145d782856145aa565b6020820191506145e782846145aa565b6020820191508190509392505050565b5f60808201905061460a5f830187613e54565b6146176020830186613e7c565b6146246040830185613e54565b6146316060830184613e54565b95945050505050565b7f4e487b71000000000000000000000000000000000000000000000000000000005f52604160045260245ffd5b5f819050815f5260205f209050919050565b5f6020601f8301049050919050565b5f82821b905092915050565b5f600883026146c37fffffffffffffffffffffffffffffffffffffffffffffffffffffffffffffffff82614688565b6146cd8683614688565b95508019841693508086168417925050509392505050565b5f6146ff6146fa6146f584613a6a565b613ea4565b613a6a565b9050919050565b5f819050919050565b614718836146e5565b61472c61472482614706565b848454614694565b825550505050565b5f90565b614740614734565b61474b81848461470f565b505050565b5b8181101561476e576147635f82614738565b600181019050614751565b5050565b601f8211156147b35761478481614667565b61478d84614679565b8101602085101561479c578190505b6147b06147a885614679565b830182614750565b50505b505050565b5f82821c905092915050565b5f6147d35f19846008026147b8565b1980831691505092915050565b5f6147eb83836147c4565b9150826002028217905092915050565b61480482613978565b67ffffffffffffffff81111561481d5761481c61463a565b5b61482782546141ea565b614832828285614772565b5f60209050601f831160018114614863575f8415614851578287015190505b61485b85826147e0565b8655506148c2565b601f19841661487186614667565b5f5b8281101561489857848901518255600182019150602085019450602081019050614873565b868310156148b557848901516148b1601f8916826147c4565b8355505b6001600288020188555050505b505050505050565b5f60a0820190506148dd5f830188613e54565b6148ea6020830187613e54565b6148f76040830186613e54565b6149046060830185613b39565b6149116080830184614001565b9695505050505050565b7f53616665436173743a2076616c756520646f65736e27742066697420696e20315f8201527f3238206269747300000000000000000000000000000000000000000000000000602082015250565b5f614975602783613982565b91506149808261491b565b604082019050919050565b5f6020820190508181035f8301526149a281614969565b9050919050565b7f475076323a206661696c6564207472616e7366657200000000000000000000005f82015250565b5f6149dd601583613982565b91506149e8826149a9565b602082019050919050565b5f6020820190508181035f830152614a0a816149d1565b9050919050565b5f606082019050614a245f830186613b39565b614a316020830185613b39565b614a3e6040830184613b39565b949350505050565b5f60c082019050614a595f830189614001565b614a666020830188614001565b614a736040830187614001565b614a806060830186613b39565b614a8d6080830185613b39565b614a9a60a0830184613b39565b979650505050505050565b5f6fffffffffffffffffffffffffffffffff82169050919050565b5f614aca82614aa5565b9150614ad583614aa5565b925082820190506fffffffffffffffffffffffffffffffff811115614afd57614afc6143c7565b5b92915050565b5f614b1d614b18614b1384614aa5565b613ea4565b613a6a565b9050919050565b614b2d81614b03565b82525050565b5f606082019050614b465f830186614001565b614b536020830185613b39565b614b606040830184614b24565b949350505050565b5f614b7282614aa5565b9150614b7d83614aa5565b925082820390506fffffffffffffffffffffffffffffffff811115614ba557614ba46143c7565b5b9291505056fea264697066735822122030c657a3679d70fd17f5979a79dedfb77d4c9059dea27c0c9910cbc9156b729c64736f6c634300081a0033",
			"opcodes": "PUSH1 0xE0 PUSH1 0x40 MSTORE PUSH0 DUP1 SSTORE CALLVALUE DUP1 ISZERO PUSH2 0x12 JUMPI PUSH0 DUP1 REVERT JUMPDEST POP PUSH1 0x40 MLOAD PUSH2 0x5248 CODESIZE SUB DUP1 PUSH2 0x5248 DUP4 CODECOPY DUP2 DUP2 ADD PUSH1 0x40 MSTORE DUP2 ADD SWAP1 PUSH2 0x34 SWAP2 SWAP1 PUSH2 0x241 JUMP JUMPDEST DUP1 PUSH1 0x40 MLOAD DUP1 PUSH1 0x40 ADD PUSH1 0x40 MSTORE DUP1 PUSH1 0xB DUP2 MSTORE PUSH1 0x20 ADD PUSH32 0x41544F4B454E5F494D504C000000000000000000000000000000000000000000 DUP2 MSTORE POP PUSH1 0x40 MLOAD DUP1 PUSH1 0x40 ADD PUSH1 0x40 MSTORE DUP1 PUSH1 0xB DUP2 MSTORE PUSH1 0x20 ADD PUSH32 0x41544F4B454E5F494D504C000000000000000000000000000000000000000000 DUP2 MSTORE POP PUSH0 DUP4 DUP4 DUP4 DUP4 DUP4 DUP4 DUP4 DUP4 DUP4 PUSH20 0xFFFFFFFFFFFFFFFFFFFFFFFFFFFFFFFFFFFFFFFF AND PUSH4 0x542975C PUSH1 0x40 MLOAD DUP2 PUSH4 0xFFFFFFFF AND PUSH1 0xE0 SHL DUP2 MSTORE PUSH1 0x4 ADD PUSH1 0x20 PUSH1 0x40 MLOAD DUP1 DUP4 SUB DUP2 DUP7 GAS STATICCALL ISZERO DUP1 ISZERO PUSH2 0xF3 JUMPI RETURNDATASIZE PUSH0 DUP1 RETURNDATACOPY RETURNDATASIZE PUSH0 REVERT JUMPDEST POP POP POP POP PUSH1 0x40 MLOAD RETURNDATASIZE PUSH1 0x1F NOT PUSH1 0x1F DUP3 ADD AND DUP3 ADD DUP1 PUSH1 0x40 MSTORE POP DUP2 ADD SWAP1 PUSH2 0x117 SWAP2 SWAP1 PUSH2 0x2A7 JUMP JUMPDEST PUSH20 0xFFFFFFFFFFFFFFFFFFFFFFFFFFFFFFFFFFFFFFFF AND PUSH1 0x80 DUP2 PUSH20 0xFFFFFFFFFFFFFFFFFFFFFFFFFFFFFFFFFFFFFFFF AND DUP2 MSTORE POP POP DUP3 PUSH1 0x37 SWAP1 DUP2 PUSH2 0x159 SWAP2 SWAP1 PUSH2 0x50C JUMP JUMPDEST POP DUP2 PUSH1 0x38 SWAP1 DUP2 PUSH2 0x169 SWAP2 SWAP1 PUSH2 0x50C JUMP JUMPDEST POP DUP1 PUSH1 0x39 PUSH0 PUSH2 0x100 EXP DUP2 SLOAD DUP2 PUSH1 0xFF MUL NOT AND SWAP1 DUP4 PUSH1 0xFF AND MUL OR SWAP1 SSTORE POP DUP4 PUSH20 0xFFFFFFFFFFFFFFFFFFFFFFFFFFFFFFFFFFFFFFFF AND PUSH1 0xA0 DUP2 PUSH20 0xFFFFFFFFFFFFFFFFFFFFFFFFFFFFFFFFFFFFFFFF AND DUP2 MSTORE POP POP POP POP POP POP POP POP POP POP POP POP POP POP CHAINID PUSH1 0xC0 DUP2 DUP2 MSTORE POP POP POP PUSH2 0x5DB JUMP JUMPDEST PUSH0 DUP1 REVERT JUMPDEST PUSH0 PUSH20 0xFFFFFFFFFFFFFFFFFFFFFFFFFFFFFFFFFFFFFFFF DUP3 AND SWAP1 POP SWAP2 SWAP1 POP JUMP JUMPDEST PUSH0 PUSH2 0x1FF DUP3 PUSH2 0x1D6 JUMP JUMPDEST SWAP1 POP SWAP2 SWAP1 POP JUMP JUMPDEST PUSH0 PUSH2 0x210 DUP3 PUSH2 0x1F5 JUMP JUMPDEST SWAP1 POP SWAP2 SWAP1 POP JUMP JUMPDEST PUSH2 0x220 DUP2 PUSH2 0x206 JUMP JUMPDEST DUP2 EQ PUSH2 0x22A JUMPI PUSH0 DUP1 REVERT JUMPDEST POP JUMP JUMPDEST PUSH0 DUP2 MLOAD SWAP1 POP PUSH2 0x23B DUP2 PUSH2 0x217 JUMP JUMPDEST SWAP3 SWAP2 POP POP JUMP JUMPDEST PUSH0 PUSH1 0x20 DUP3 DUP5 SUB SLT ISZERO PUSH2 0x256 JUMPI PUSH2 0x255 PUSH2 0x1D2 JUMP JUMPDEST JUMPDEST PUSH0 PUSH2 0x263 DUP5 DUP3 DUP6 ADD PUSH2 0x22D JUMP JUMPDEST SWAP2 POP POP SWAP3 SWAP2 POP POP JUMP JUMPDEST PUSH0 PUSH2 0x276 DUP3 PUSH2 0x1F5 JUMP JUMPDEST SWAP1 POP SWAP2 SWAP1 POP JUMP JUMPDEST PUSH2 0x286 DUP2 PUSH2 0x26C JUMP JUMPDEST DUP2 EQ PUSH2 0x290 JUMPI PUSH0 DUP1 REVERT JUMPDEST POP JUMP JUMPDEST PUSH0 DUP2 MLOAD SWAP1 POP PUSH2 0x2A1 DUP2 PUSH2 0x27D JUMP JUMPDEST SWAP3 SWAP2 POP POP JUMP JUMPDEST PUSH0 PUSH1 0x20 DUP3 DUP5 SUB SLT ISZERO PUSH2 0x2BC JUMPI PUSH2 0x2BB PUSH2 0x1D2 JUMP JUMPDEST JUMPDEST PUSH0 PUSH2 0x2C9 DUP5 DUP3 DUP6 ADD PUSH2 0x293 JUMP JUMPDEST SWAP2 POP POP SWAP3 SWAP2 POP POP JUMP JUMPDEST PUSH0 DUP2 MLOAD SWAP1 POP SWAP2 SWAP1 POP JUMP JUMPDEST PUSH32 0x4E487B7100000000000000000000000000000000000000000000000000000000 PUSH0 MSTORE PUSH1 0x41 PUSH1 0x4 MSTORE PUSH1 0x24 PUSH0 REVERT JUMPDEST PUSH32 0x4E487B7100000000000000000000000000000000000000000000000000000000 PUSH0 MSTORE PUSH1 0x22 PUSH1 0x4 MSTORE PUSH1 0x24 PUSH0 REVERT JUMPDEST PUSH0 PUSH1 0x2 DUP3 DIV SWAP1 POP PUSH1 0x1 DUP3 AND DUP1 PUSH2 0x34D JUMPI PUSH1 0x7F DUP3 AND SWAP2 POP JUMPDEST PUSH1 0x20 DUP3 LT DUP2 SUB PUSH2 0x360 JUMPI PUSH2 0x35F PUSH2 0x309 JUMP JUMPDEST JUMPDEST POP SWAP2 SWAP1 POP JUMP JUMPDEST PUSH0 DUP2 SWAP1 POP DUP2 PUSH0 MSTORE PUSH1 0x20 PUSH0 KECCAK256 SWAP1 POP SWAP2 SWAP1 POP JUMP JUMPDEST PUSH0 PUSH1 0x20 PUSH1 0x1F DUP4 ADD DIV SWAP1 POP SWAP2 SWAP1 POP JUMP JUMPDEST PUSH0 DUP3 DUP3 SHL SWAP1 POP SWAP3 SWAP2 POP POP JUMP JUMPDEST PUSH0 PUSH1 0x8 DUP4 MUL PUSH2 0x3C2 PUSH32 0xFFFFFFFFFFFFFFFFFFFFFFFFFFFFFFFFFFFFFFFFFFFFFFFFFFFFFFFFFFFFFFFF DUP3 PUSH2 0x387 JUMP JUMPDEST PUSH2 0x3CC DUP7 DUP4 PUSH2 0x387 JUMP JUMPDEST SWAP6 POP DUP1 NOT DUP5 AND SWAP4 POP DUP1 DUP7 AND DUP5 OR SWAP3 POP POP POP SWAP4 SWAP3 POP POP POP JUMP JUMPDEST PUSH0 DUP2 SWAP1 POP SWAP2 SWAP1 POP JUMP JUMPDEST PUSH0 DUP2 SWAP1 POP SWAP2 SWAP1 POP JUMP JUMPDEST PUSH0 PUSH2 0x410 PUSH2 0x40B PUSH2 0x406 DUP5 PUSH2 0x3E4 JUMP JUMPDEST PUSH2 0x3ED JUMP JUMPDEST PUSH2 0x3E4 JUMP JUMPDEST SWAP1 POP SWAP2 SWAP1 POP JUMP JUMPDEST PUSH0 DUP2 SWAP1 POP SWAP2 SWAP1 POP JUMP JUMPDEST PUSH2 0x429 DUP4 PUSH2 0x3F6 JUMP JUMPDEST PUSH2 0x43D PUSH2 0x435 DUP3 PUSH2 0x417 JUMP JUMPDEST DUP5 DUP5 SLOAD PUSH2 0x393 JUMP JUMPDEST DUP3 SSTORE POP POP POP POP JUMP JUMPDEST PUSH0 SWAP1 JUMP JUMPDEST PUSH2 0x451 PUSH2 0x445 JUMP JUMPDEST PUSH2 0x45C DUP2 DUP5 DUP5 PUSH2 0x420 JUMP JUMPDEST POP POP POP JUMP JUMPDEST JUMPDEST DUP2 DUP2 LT ISZERO PUSH2 0x47F JUMPI PUSH2 0x474 PUSH0 DUP3 PUSH2 0x449 JUMP JUMPDEST PUSH1 0x1 DUP2 ADD SWAP1 POP PUSH2 0x462 JUMP JUMPDEST POP POP JUMP JUMPDEST PUSH1 0x1F DUP3 GT ISZERO PUSH2 0x4C4 JUMPI PUSH2 0x495 DUP2 PUSH2 0x366 JUMP JUMPDEST PUSH2 0x49E DUP5 PUSH2 0x378 JUMP JUMPDEST DUP2 ADD PUSH1 0x20 DUP6 LT ISZERO PUSH2 0x4AD JUMPI DUP2 SWAP1 POP JUMPDEST PUSH2 0x4C1 PUSH2 0x4B9 DUP6 PUSH2 0x378 JUMP JUMPDEST DUP4 ADD DUP3 PUSH2 0x461 JUMP JUMPDEST POP POP JUMPDEST POP POP POP JUMP JUMPDEST PUSH0 DUP3 DUP3 SHR SWAP1 POP SWAP3 SWAP2 POP POP JUMP JUMPDEST PUSH0 PUSH2 0x4E4 PUSH0 NOT DUP5 PUSH1 0x8 MUL PUSH2 0x4C9 JUMP JUMPDEST NOT DUP1 DUP4 AND SWAP2 POP POP SWAP3 SWAP2 POP POP JUMP JUMPDEST PUSH0 PUSH2 0x4FC DUP4 DUP4 PUSH2 0x4D5 JUMP JUMPDEST SWAP2 POP DUP3 PUSH1 0x2 MUL DUP3 OR SWAP1 POP SWAP3 SWAP2 POP POP JUMP JUMPDEST PUSH2 0x515 DUP3 PUSH2 0x2D2 JUMP JUMPDEST PUSH8 0xFFFFFFFFFFFFFFFF DUP2 GT ISZERO PUSH2 0x52E JUMPI PUSH2 0x52D PUSH2 0x2DC JUMP JUMPDEST JUMPDEST PUSH2 0x538 DUP3 SLOAD PUSH2 0x336 JUMP JUMPDEST PUSH2 0x543 DUP3 DUP3 DUP6 PUSH2 0x483 JUMP JUMPDEST PUSH0 PUSH1 0x20 SWAP1 POP PUSH1 0x1F DUP4 GT PUSH1 0x1 DUP2 EQ PUSH2 0x574 JUMPI PUSH0 DUP5 ISZERO PUSH2 0x562 JUMPI DUP3 DUP8 ADD MLOAD SWAP1 POP JUMPDEST PUSH2 0x56C DUP6 DUP3 PUSH2 0x4F1 JUMP JUMPDEST DUP7 SSTORE POP PUSH2 0x5D3 JUMP JUMPDEST PUSH1 0x1F NOT DUP5 AND PUSH2 0x582 DUP7 PUSH2 0x366 JUMP JUMPDEST PUSH0 JUMPDEST DUP3 DUP2 LT ISZERO PUSH2 0x5A9 JUMPI DUP5 DUP10 ADD MLOAD DUP3 SSTORE PUSH1 0x1 DUP3 ADD SWAP2 POP PUSH1 0x20 DUP6 ADD SWAP5 POP PUSH1 0x20 DUP2 ADD SWAP1 POP PUSH2 0x584 JUMP JUMPDEST DUP7 DUP4 LT ISZERO PUSH2 0x5C6 JUMPI DUP5 DUP10 ADD MLOAD PUSH2 0x5C2 PUSH1 0x1F DUP10 AND DUP3 PUSH2 0x4D5 JUMP JUMPDEST DUP4 SSTORE POP JUMPDEST PUSH1 0x1 PUSH1 0x2 DUP9 MUL ADD DUP9 SSTORE POP POP POP JUMPDEST POP POP POP POP POP POP JUMP JUMPDEST PUSH1 0x80 MLOAD PUSH1 0xA0 MLOAD PUSH1 0xC0 MLOAD PUSH2 0x4BE1 PUSH2 0x667 PUSH0 CODECOPY PUSH0 PUSH2 0x2315 ADD MSTORE PUSH0 DUP2 DUP2 PUSH2 0x7BA ADD MSTORE DUP2 DUP2 PUSH2 0x935 ADD MSTORE DUP2 DUP2 PUSH2 0xB6C ADD MSTORE DUP2 DUP2 PUSH2 0xE01 ADD MSTORE DUP2 DUP2 PUSH2 0xF1F ADD MSTORE DUP2 DUP2 PUSH2 0xFF6 ADD MSTORE DUP2 DUP2 PUSH2 0x10CD ADD MSTORE DUP2 DUP2 PUSH2 0x1153 ADD MSTORE DUP2 DUP2 PUSH2 0x122C ADD MSTORE DUP2 DUP2 PUSH2 0x144D ADD MSTORE DUP2 DUP2 PUSH2 0x1AE9 ADD MSTORE DUP2 DUP2 PUSH2 0x1F06 ADD MSTORE DUP2 DUP2 PUSH2 0x2AB5 ADD MSTORE PUSH2 0x2B9D ADD MSTORE PUSH0 DUP2 DUP2 PUSH2 0x1532 ADD MSTORE PUSH2 0x1D42 ADD MSTORE PUSH2 0x4BE1 PUSH0 RETURN INVALID PUSH1 0x80 PUSH1 0x40 MSTORE CALLVALUE DUP1 ISZERO PUSH2 0xF JUMPI PUSH0 DUP1 REVERT JUMPDEST POP PUSH1 0x4 CALLDATASIZE LT PUSH2 0x204 JUMPI PUSH0 CALLDATALOAD PUSH1 0xE0 SHR DUP1 PUSH4 0x78160376 GT PUSH2 0x118 JUMPI DUP1 PUSH4 0xB1BF962D GT PUSH2 0xAB JUMPI DUP1 PUSH4 0xD7020D0A GT PUSH2 0x7A JUMPI DUP1 PUSH4 0xD7020D0A EQ PUSH2 0x617 JUMPI DUP1 PUSH4 0xDD62ED3E EQ PUSH2 0x633 JUMPI DUP1 PUSH4 0xE0753986 EQ PUSH2 0x663 JUMPI DUP1 PUSH4 0xE655DBD8 EQ PUSH2 0x693 JUMPI DUP1 PUSH4 0xF866C319 EQ PUSH2 0x6AF JUMPI PUSH2 0x204 JUMP JUMPDEST DUP1 PUSH4 0xB1BF962D EQ PUSH2 0x591 JUMPI DUP1 PUSH4 0xB3F1C93D EQ PUSH2 0x5AF JUMPI DUP1 PUSH4 0xCEA9D26F EQ PUSH2 0x5DF JUMPI DUP1 PUSH4 0xD505ACCF EQ PUSH2 0x5FB JUMPI PUSH2 0x204 JUMP JUMPDEST DUP1 PUSH4 0xA457C2D7 GT PUSH2 0xE7 JUMPI DUP1 PUSH4 0xA457C2D7 EQ PUSH2 0x4F5 JUMPI DUP1 PUSH4 0xA9059CBB EQ PUSH2 0x525 JUMPI DUP1 PUSH4 0xAE167335 EQ PUSH2 0x555 JUMPI DUP1 PUSH4 0xB16A19DE EQ PUSH2 0x573 JUMPI PUSH2 0x204 JUMP JUMPDEST DUP1 PUSH4 0x78160376 EQ PUSH2 0x46D JUMPI DUP1 PUSH4 0x7DF5BD3B EQ PUSH2 0x48B JUMPI DUP1 PUSH4 0x7ECEBE00 EQ PUSH2 0x4A7 JUMPI DUP1 PUSH4 0x95D89B41 EQ PUSH2 0x4D7 JUMPI PUSH2 0x204 JUMP JUMPDEST DUP1 PUSH4 0x30ADF81F GT PUSH2 0x19B JUMPI DUP1 PUSH4 0x4EFECAA5 GT PUSH2 0x16A JUMPI DUP1 PUSH4 0x4EFECAA5 EQ PUSH2 0x3C9 JUMPI DUP1 PUSH4 0x6FD97676 EQ PUSH2 0x3E5 JUMPI DUP1 PUSH4 0x70A08231 EQ PUSH2 0x401 JUMPI DUP1 PUSH4 0x7535D246 EQ PUSH2 0x431 JUMPI DUP1 PUSH4 0x75D26413 EQ PUSH2 0x44F JUMPI PUSH2 0x204 JUMP JUMPDEST DUP1 PUSH4 0x30ADF81F EQ PUSH2 0x33F JUMPI DUP1 PUSH4 0x313CE567 EQ PUSH2 0x35D JUMPI DUP1 PUSH4 0x3644E515 EQ PUSH2 0x37B JUMPI DUP1 PUSH4 0x39509351 EQ PUSH2 0x399 JUMPI PUSH2 0x204 JUMP JUMPDEST DUP1 PUSH4 0x18160DDD GT PUSH2 0x1D7 JUMPI DUP1 PUSH4 0x18160DDD EQ PUSH2 0x2A5 JUMPI DUP1 PUSH4 0x183FB413 EQ PUSH2 0x2C3 JUMPI DUP1 PUSH4 0x1DA24F3E EQ PUSH2 0x2DF JUMPI DUP1 PUSH4 0x23B872DD EQ PUSH2 0x30F JUMPI PUSH2 0x204 JUMP JUMPDEST DUP1 PUSH4 0x6FDDE03 EQ PUSH2 0x208 JUMPI DUP1 PUSH4 0x95EA7B3 EQ PUSH2 0x226 JUMPI DUP1 PUSH4 0xAFBCDC9 EQ PUSH2 0x256 JUMPI DUP1 PUSH4 0xBD7AD3B EQ PUSH2 0x287 JUMPI JUMPDEST PUSH0 DUP1 REVERT JUMPDEST PUSH2 0x210 PUSH2 0x6CB JUMP JUMPDEST PUSH1 0x40 MLOAD PUSH2 0x21D SWAP2 SWAP1 PUSH2 0x39E8 JUMP JUMPDEST PUSH1 0x40 MLOAD DUP1 SWAP2 SUB SWAP1 RETURN JUMPDEST PUSH2 0x240 PUSH1 0x4 DUP1 CALLDATASIZE SUB DUP2 ADD SWAP1 PUSH2 0x23B SWAP2 SWAP1 PUSH2 0x3A9D JUMP JUMPDEST PUSH2 0x75B JUMP JUMPDEST PUSH1 0x40 MLOAD PUSH2 0x24D SWAP2 SWAP1 PUSH2 0x3AF5 JUMP JUMPDEST PUSH1 0x40 MLOAD DUP1 SWAP2 SUB SWAP1 RETURN JUMPDEST PUSH2 0x270 PUSH1 0x4 DUP1 CALLDATASIZE SUB DUP2 ADD SWAP1 PUSH2 0x26B SWAP2 SWAP1 PUSH2 0x3B0E JUMP JUMPDEST PUSH2 0x778 JUMP JUMPDEST PUSH1 0x40 MLOAD PUSH2 0x27E SWAP3 SWAP2 SWAP1 PUSH2 0x3B48 JUMP JUMPDEST PUSH1 0x40 MLOAD DUP1 SWAP2 SUB SWAP1 RETURN JUMPDEST PUSH2 0x28F PUSH2 0x794 JUMP JUMPDEST PUSH1 0x40 MLOAD PUSH2 0x29C SWAP2 SWAP1 PUSH2 0x3B6F JUMP JUMPDEST PUSH1 0x40 MLOAD DUP1 SWAP2 SUB SWAP1 RETURN JUMPDEST PUSH2 0x2AD PUSH2 0x799 JUMP JUMPDEST PUSH1 0x40 MLOAD PUSH2 0x2BA SWAP2 SWAP1 PUSH2 0x3B6F JUMP JUMPDEST PUSH1 0x40 MLOAD DUP1 SWAP2 SUB SWAP1 RETURN JUMPDEST PUSH2 0x2DD PUSH1 0x4 DUP1 CALLDATASIZE SUB DUP2 ADD SWAP1 PUSH2 0x2D8 SWAP2 SWAP1 PUSH2 0x3CEA JUMP JUMPDEST PUSH2 0x887 JUMP JUMPDEST STOP JUMPDEST PUSH2 0x2F9 PUSH1 0x4 DUP1 CALLDATASIZE SUB DUP2 ADD SWAP1 PUSH2 0x2F4 SWAP2 SWAP1 PUSH2 0x3B0E JUMP JUMPDEST PUSH2 0xC2E JUMP JUMPDEST PUSH1 0x40 MLOAD PUSH2 0x306 SWAP2 SWAP1 PUSH2 0x3B6F JUMP JUMPDEST PUSH1 0x40 MLOAD DUP1 SWAP2 SUB SWAP1 RETURN JUMPDEST PUSH2 0x329 PUSH1 0x4 DUP1 CALLDATASIZE SUB DUP2 ADD SWAP1 PUSH2 0x324 SWAP2 SWAP1 PUSH2 0x3DFB JUMP JUMPDEST PUSH2 0xC3F JUMP JUMPDEST PUSH1 0x40 MLOAD PUSH2 0x336 SWAP2 SWAP1 PUSH2 0x3AF5 JUMP JUMPDEST PUSH1 0x40 MLOAD DUP1 SWAP2 SUB SWAP1 RETURN JUMPDEST PUSH2 0x347 PUSH2 0xD11 JUMP JUMPDEST PUSH1 0x40 MLOAD PUSH2 0x354 SWAP2 SWAP1 PUSH2 0x3E63 JUMP JUMPDEST PUSH1 0x40 MLOAD DUP1 SWAP2 SUB SWAP1 RETURN JUMPDEST PUSH2 0x365 PUSH2 0xD35 JUMP JUMPDEST PUSH1 0x40 MLOAD PUSH2 0x372 SWAP2 SWAP1 PUSH2 0x3E8B JUMP JUMPDEST PUSH1 0x40 MLOAD DUP1 SWAP2 SUB SWAP1 RETURN JUMPDEST PUSH2 0x383 PUSH2 0xD4A JUMP JUMPDEST PUSH1 0x40 MLOAD PUSH2 0x390 SWAP2 SWAP1 PUSH2 0x3E63 JUMP JUMPDEST PUSH1 0x40 MLOAD DUP1 SWAP2 SUB SWAP1 RETURN JUMPDEST PUSH2 0x3B3 PUSH1 0x4 DUP1 CALLDATASIZE SUB DUP2 ADD SWAP1 PUSH2 0x3AE SWAP2 SWAP1 PUSH2 0x3A9D JUMP JUMPDEST PUSH2 0xD58 JUMP JUMPDEST PUSH1 0x40 MLOAD PUSH2 0x3C0 SWAP2 SWAP1 PUSH2 0x3AF5 JUMP JUMPDEST PUSH1 0x40 MLOAD DUP1 SWAP2 SUB SWAP1 RETURN JUMPDEST PUSH2 0x3E3 PUSH1 0x4 DUP1 CALLDATASIZE SUB DUP2 ADD SWAP1 PUSH2 0x3DE SWAP2 SWAP1 PUSH2 0x3A9D JUMP JUMPDEST PUSH2 0xDFF JUMP JUMPDEST STOP JUMPDEST PUSH2 0x3FF PUSH1 0x4 DUP1 CALLDATASIZE SUB DUP2 ADD SWAP1 PUSH2 0x3FA SWAP2 SWAP1 PUSH2 0x3DFB JUMP JUMPDEST PUSH2 0xF1D JUMP JUMPDEST STOP JUMPDEST PUSH2 0x41B PUSH1 0x4 DUP1 CALLDATASIZE SUB DUP2 ADD SWAP1 PUSH2 0x416 SWAP2 SWAP1 PUSH2 0x3B0E JUMP JUMPDEST PUSH2 0xFF0 JUMP JUMPDEST PUSH1 0x40 MLOAD PUSH2 0x428 SWAP2 SWAP1 PUSH2 0x3B6F JUMP JUMPDEST PUSH1 0x40 MLOAD DUP1 SWAP2 SUB SWAP1 RETURN JUMPDEST PUSH2 0x439 PUSH2 0x10CB JUMP JUMPDEST PUSH1 0x40 MLOAD PUSH2 0x446 SWAP2 SWAP1 PUSH2 0x3EFF JUMP JUMPDEST PUSH1 0x40 MLOAD DUP1 SWAP2 SUB SWAP1 RETURN JUMPDEST PUSH2 0x457 PUSH2 0x10EF JUMP JUMPDEST PUSH1 0x40 MLOAD PUSH2 0x464 SWAP2 SWAP1 PUSH2 0x3F38 JUMP JUMPDEST PUSH1 0x40 MLOAD DUP1 SWAP2 SUB SWAP1 RETURN JUMPDEST PUSH2 0x475 PUSH2 0x1118 JUMP JUMPDEST PUSH1 0x40 MLOAD PUSH2 0x482 SWAP2 SWAP1 PUSH2 0x3FA3 JUMP JUMPDEST PUSH1 0x40 MLOAD DUP1 SWAP2 SUB SWAP1 RETURN JUMPDEST PUSH2 0x4A5 PUSH1 0x4 DUP1 CALLDATASIZE SUB DUP2 ADD SWAP1 PUSH2 0x4A0 SWAP2 SWAP1 PUSH2 0x3FC3 JUMP JUMPDEST PUSH2 0x1151 JUMP JUMPDEST STOP JUMPDEST PUSH2 0x4C1 PUSH1 0x4 DUP1 CALLDATASIZE SUB DUP2 ADD SWAP1 PUSH2 0x4BC SWAP2 SWAP1 PUSH2 0x3B0E JUMP JUMPDEST PUSH2 0x127A JUMP JUMPDEST PUSH1 0x40 MLOAD PUSH2 0x4CE SWAP2 SWAP1 PUSH2 0x3B6F JUMP JUMPDEST PUSH1 0x40 MLOAD DUP1 SWAP2 SUB SWAP1 RETURN JUMPDEST PUSH2 0x4DF PUSH2 0x128B JUMP JUMPDEST PUSH1 0x40 MLOAD PUSH2 0x4EC SWAP2 SWAP1 PUSH2 0x39E8 JUMP JUMPDEST PUSH1 0x40 MLOAD DUP1 SWAP2 SUB SWAP1 RETURN JUMPDEST PUSH2 0x50F PUSH1 0x4 DUP1 CALLDATASIZE SUB DUP2 ADD SWAP1 PUSH2 0x50A SWAP2 SWAP1 PUSH2 0x3A9D JUMP JUMPDEST PUSH2 0x131B JUMP JUMPDEST PUSH1 0x40 MLOAD PUSH2 0x51C SWAP2 SWAP1 PUSH2 0x3AF5 JUMP JUMPDEST PUSH1 0x40 MLOAD DUP1 SWAP2 SUB SWAP1 RETURN JUMPDEST PUSH2 0x53F PUSH1 0x4 DUP1 CALLDATASIZE SUB DUP2 ADD SWAP1 PUSH2 0x53A SWAP2 SWAP1 PUSH2 0x3A9D JUMP JUMPDEST PUSH2 0x13C2 JUMP JUMPDEST PUSH1 0x40 MLOAD PUSH2 0x54C SWAP2 SWAP1 PUSH2 0x3AF5 JUMP JUMPDEST PUSH1 0x40 MLOAD DUP1 SWAP2 SUB SWAP1 RETURN JUMPDEST PUSH2 0x55D PUSH2 0x13EC JUMP JUMPDEST PUSH1 0x40 MLOAD PUSH2 0x56A SWAP2 SWAP1 PUSH2 0x4010 JUMP JUMPDEST PUSH1 0x40 MLOAD DUP1 SWAP2 SUB SWAP1 RETURN JUMPDEST PUSH2 0x57B PUSH2 0x1414 JUMP JUMPDEST PUSH1 0x40 MLOAD PUSH2 0x588 SWAP2 SWAP1 PUSH2 0x4010 JUMP JUMPDEST PUSH1 0x40 MLOAD DUP1 SWAP2 SUB SWAP1 RETURN JUMPDEST PUSH2 0x599 PUSH2 0x143C JUMP JUMPDEST PUSH1 0x40 MLOAD PUSH2 0x5A6 SWAP2 SWAP1 PUSH2 0x3B6F JUMP JUMPDEST PUSH1 0x40 MLOAD DUP1 SWAP2 SUB SWAP1 RETURN JUMPDEST PUSH2 0x5C9 PUSH1 0x4 DUP1 CALLDATASIZE SUB DUP2 ADD SWAP1 PUSH2 0x5C4 SWAP2 SWAP1 PUSH2 0x4029 JUMP JUMPDEST PUSH2 0x144A JUMP JUMPDEST PUSH1 0x40 MLOAD PUSH2 0x5D6 SWAP2 SWAP1 PUSH2 0x3AF5 JUMP JUMPDEST PUSH1 0x40 MLOAD DUP1 SWAP2 SUB SWAP1 RETURN JUMPDEST PUSH2 0x5F9 PUSH1 0x4 DUP1 CALLDATASIZE SUB DUP2 ADD SWAP1 PUSH2 0x5F4 SWAP2 SWAP1 PUSH2 0x3DFB JUMP JUMPDEST PUSH2 0x152F JUMP JUMPDEST STOP JUMPDEST PUSH2 0x615 PUSH1 0x4 DUP1 CALLDATASIZE SUB DUP2 ADD SWAP1 PUSH2 0x610 SWAP2 SWAP1 PUSH2 0x40B7 JUMP JUMPDEST PUSH2 0x17A9 JUMP JUMPDEST STOP JUMPDEST PUSH2 0x631 PUSH1 0x4 DUP1 CALLDATASIZE SUB DUP2 ADD SWAP1 PUSH2 0x62C SWAP2 SWAP1 PUSH2 0x4029 JUMP JUMPDEST PUSH2 0x1AE7 JUMP JUMPDEST STOP JUMPDEST PUSH2 0x64D PUSH1 0x4 DUP1 CALLDATASIZE SUB DUP2 ADD SWAP1 PUSH2 0x648 SWAP2 SWAP1 PUSH2 0x4154 JUMP JUMPDEST PUSH2 0x1C47 JUMP JUMPDEST PUSH1 0x40 MLOAD PUSH2 0x65A SWAP2 SWAP1 PUSH2 0x3B6F JUMP JUMPDEST PUSH1 0x40 MLOAD DUP1 SWAP2 SUB SWAP1 RETURN JUMPDEST PUSH2 0x67D PUSH1 0x4 DUP1 CALLDATASIZE SUB DUP2 ADD SWAP1 PUSH2 0x678 SWAP2 SWAP1 PUSH2 0x3B0E JUMP JUMPDEST PUSH2 0x1CC9 JUMP JUMPDEST PUSH1 0x40 MLOAD PUSH2 0x68A SWAP2 SWAP1 PUSH2 0x3B6F JUMP JUMPDEST PUSH1 0x40 MLOAD DUP1 SWAP2 SUB SWAP1 RETURN JUMPDEST PUSH2 0x6AD PUSH1 0x4 DUP1 CALLDATASIZE SUB DUP2 ADD SWAP1 PUSH2 0x6A8 SWAP2 SWAP1 PUSH2 0x4192 JUMP JUMPDEST PUSH2 0x1D3F JUMP JUMPDEST STOP JUMPDEST PUSH2 0x6C9 PUSH1 0x4 DUP1 CALLDATASIZE SUB DUP2 ADD SWAP1 PUSH2 0x6C4 SWAP2 SWAP1 PUSH2 0x3DFB JUMP JUMPDEST PUSH2 0x1F04 JUMP JUMPDEST STOP JUMPDEST PUSH1 0x60 PUSH1 0x37 DUP1 SLOAD PUSH2 0x6DA SWAP1 PUSH2 0x41EA JUMP JUMPDEST DUP1 PUSH1 0x1F ADD PUSH1 0x20 DUP1 SWAP2 DIV MUL PUSH1 0x20 ADD PUSH1 0x40 MLOAD SWAP1 DUP2 ADD PUSH1 0x40 MSTORE DUP1 SWAP3 SWAP2 SWAP1 DUP2 DUP2 MSTORE PUSH1 0x20 ADD DUP3 DUP1 SLOAD PUSH2 0x706 SWAP1 PUSH2 0x41EA JUMP JUMPDEST DUP1 ISZERO PUSH2 0x751 JUMPI DUP1 PUSH1 0x1F LT PUSH2 0x728 JUMPI PUSH2 0x100 DUP1 DUP4 SLOAD DIV MUL DUP4 MSTORE SWAP2 PUSH1 0x20 ADD SWAP2 PUSH2 0x751 JUMP JUMPDEST DUP3 ADD SWAP2 SWAP1 PUSH0 MSTORE PUSH1 0x20 PUSH0 KECCAK256 SWAP1 JUMPDEST DUP2 SLOAD DUP2 MSTORE SWAP1 PUSH1 0x1 ADD SWAP1 PUSH1 0x20 ADD DUP1 DUP4 GT PUSH2 0x734 JUMPI DUP3 SWAP1 SUB PUSH1 0x1F AND DUP3 ADD SWAP2 JUMPDEST POP POP POP POP POP SWAP1 POP SWAP1 JUMP JUMPDEST PUSH0 PUSH2 0x76E PUSH2 0x767 PUSH2 0x1FE3 JUMP JUMPDEST DUP5 DUP5 PUSH2 0x1FEA JUMP JUMPDEST PUSH1 0x1 SWAP1 POP SWAP3 SWAP2 POP POP JUMP JUMPDEST PUSH0 DUP1 PUSH2 0x783 DUP4 PUSH2 0x20D1 JUMP JUMPDEST PUSH2 0x78B PUSH2 0x2146 JUMP JUMPDEST SWAP2 POP SWAP2 POP SWAP2 POP SWAP2 JUMP JUMPDEST PUSH1 0x1 DUP2 JUMP JUMPDEST PUSH0 DUP1 PUSH2 0x7A3 PUSH2 0x2146 JUMP JUMPDEST SWAP1 POP PUSH0 DUP2 SUB PUSH2 0x7B5 JUMPI PUSH0 SWAP2 POP POP PUSH2 0x884 JUMP JUMPDEST PUSH2 0x880 PUSH32 0x0 PUSH20 0xFFFFFFFFFFFFFFFFFFFFFFFFFFFFFFFFFFFFFFFF AND PUSH4 0xD15E0053 PUSH1 0x3D PUSH0 SWAP1 SLOAD SWAP1 PUSH2 0x100 EXP SWAP1 DIV PUSH20 0xFFFFFFFFFFFFFFFFFFFFFFFFFFFFFFFFFFFFFFFF AND PUSH1 0x40 MLOAD DUP3 PUSH4 0xFFFFFFFF AND PUSH1 0xE0 SHL DUP2 MSTORE PUSH1 0x4 ADD PUSH2 0x832 SWAP2 SWAP1 PUSH2 0x4010 JUMP JUMPDEST PUSH1 0x20 PUSH1 0x40 MLOAD DUP1 DUP4 SUB DUP2 DUP7 GAS STATICCALL ISZERO DUP1 ISZERO PUSH2 0x84D JUMPI RETURNDATASIZE PUSH0 DUP1 RETURNDATACOPY RETURNDATASIZE PUSH0 REVERT JUMPDEST POP POP POP POP PUSH1 0x40 MLOAD RETURNDATASIZE PUSH1 0x1F NOT PUSH1 0x1F DUP3 ADD AND DUP3 ADD DUP1 PUSH1 0x40 MSTORE POP DUP2 ADD SWAP1 PUSH2 0x871 SWAP2 SWAP1 PUSH2 0x422E JUMP JUMPDEST DUP3 PUSH2 0x214F SWAP1 SWAP2 SWAP1 PUSH4 0xFFFFFFFF AND JUMP JUMPDEST SWAP2 POP POP JUMPDEST SWAP1 JUMP JUMPDEST PUSH0 PUSH2 0x890 PUSH2 0x2197 JUMP JUMPDEST SWAP1 POP PUSH1 0x1 PUSH0 SWAP1 SLOAD SWAP1 PUSH2 0x100 EXP SWAP1 DIV PUSH1 0xFF AND DUP1 PUSH2 0x8B0 JUMPI POP PUSH2 0x8AF PUSH2 0x219F JUMP JUMPDEST JUMPDEST DUP1 PUSH2 0x8BB JUMPI POP PUSH0 SLOAD DUP2 GT JUMPDEST PUSH2 0x8FA JUMPI PUSH1 0x40 MLOAD PUSH32 0x8C379A000000000000000000000000000000000000000000000000000000000 DUP2 MSTORE PUSH1 0x4 ADD PUSH2 0x8F1 SWAP1 PUSH2 0x42C9 JUMP JUMPDEST PUSH1 0x40 MLOAD DUP1 SWAP2 SUB SWAP1 REVERT JUMPDEST PUSH0 PUSH1 0x1 PUSH0 SWAP1 SLOAD SWAP1 PUSH2 0x100 EXP SWAP1 DIV PUSH1 0xFF AND ISZERO SWAP1 POP DUP1 ISZERO PUSH2 0x933 JUMPI PUSH1 0x1 DUP1 PUSH0 PUSH2 0x100 EXP DUP2 SLOAD DUP2 PUSH1 0xFF MUL NOT AND SWAP1 DUP4 ISZERO ISZERO MUL OR SWAP1 SSTORE POP DUP2 PUSH0 DUP2 SWAP1 SSTORE POP JUMPDEST PUSH32 0x0 PUSH20 0xFFFFFFFFFFFFFFFFFFFFFFFFFFFFFFFFFFFFFFFF AND DUP14 PUSH20 0xFFFFFFFFFFFFFFFFFFFFFFFFFFFFFFFFFFFFFFFF AND EQ PUSH1 0x40 MLOAD DUP1 PUSH1 0x40 ADD PUSH1 0x40 MSTORE DUP1 PUSH1 0x2 DUP2 MSTORE PUSH1 0x20 ADD PUSH32 0x3837000000000000000000000000000000000000000000000000000000000000 DUP2 MSTORE POP SWAP1 PUSH2 0x9F9 JUMPI PUSH1 0x40 MLOAD PUSH32 0x8C379A000000000000000000000000000000000000000000000000000000000 DUP2 MSTORE PUSH1 0x4 ADD PUSH2 0x9F0 SWAP2 SWAP1 PUSH2 0x39E8 JUMP JUMPDEST PUSH1 0x40 MLOAD DUP1 SWAP2 SUB SWAP1 REVERT JUMPDEST POP PUSH2 0xA46 DUP9 DUP9 DUP1 DUP1 PUSH1 0x1F ADD PUSH1 0x20 DUP1 SWAP2 DIV MUL PUSH1 0x20 ADD PUSH1 0x40 MLOAD SWAP1 DUP2 ADD PUSH1 0x40 MSTORE DUP1 SWAP4 SWAP3 SWAP2 SWAP1 DUP2 DUP2 MSTORE PUSH1 0x20 ADD DUP4 DUP4 DUP1 DUP3 DUP5 CALLDATACOPY PUSH0 DUP2 DUP5 ADD MSTORE PUSH1 0x1F NOT PUSH1 0x1F DUP3 ADD AND SWAP1 POP DUP1 DUP4 ADD SWAP3 POP POP POP POP POP POP POP PUSH2 0x21AE JUMP JUMPDEST PUSH2 0xA92 DUP7 DUP7 DUP1 DUP1 PUSH1 0x1F ADD PUSH1 0x20 DUP1 SWAP2 DIV MUL PUSH1 0x20 ADD PUSH1 0x40 MLOAD SWAP1 DUP2 ADD PUSH1 0x40 MSTORE DUP1 SWAP4 SWAP3 SWAP2 SWAP1 DUP2 DUP2 MSTORE PUSH1 0x20 ADD DUP4 DUP4 DUP1 DUP3 DUP5 CALLDATACOPY PUSH0 DUP2 DUP5 ADD MSTORE PUSH1 0x1F NOT PUSH1 0x1F DUP3 ADD AND SWAP1 POP DUP1 DUP4 ADD SWAP3 POP POP POP POP POP POP POP PUSH2 0x21C1 JUMP JUMPDEST PUSH2 0xA9B DUP10 PUSH2 0x21D4 JUMP JUMPDEST DUP12 PUSH1 0x3C PUSH0 PUSH2 0x100 EXP DUP2 SLOAD DUP2 PUSH20 0xFFFFFFFFFFFFFFFFFFFFFFFFFFFFFFFFFFFFFFFF MUL NOT AND SWAP1 DUP4 PUSH20 0xFFFFFFFFFFFFFFFFFFFFFFFFFFFFFFFFFFFFFFFF AND MUL OR SWAP1 SSTORE POP DUP11 PUSH1 0x3D PUSH0 PUSH2 0x100 EXP DUP2 SLOAD DUP2 PUSH20 0xFFFFFFFFFFFFFFFFFFFFFFFFFFFFFFFFFFFFFFFF MUL NOT AND SWAP1 DUP4 PUSH20 0xFFFFFFFFFFFFFFFFFFFFFFFFFFFFFFFFFFFFFFFF AND MUL OR SWAP1 SSTORE POP DUP10 PUSH1 0x39 PUSH1 0x1 PUSH2 0x100 EXP DUP2 SLOAD DUP2 PUSH20 0xFFFFFFFFFFFFFFFFFFFFFFFFFFFFFFFFFFFFFFFF MUL NOT AND SWAP1 DUP4 PUSH20 0xFFFFFFFFFFFFFFFFFFFFFFFFFFFFFFFFFFFFFFFF AND MUL OR SWAP1 SSTORE POP PUSH2 0xB64 PUSH2 0x21F1 JUMP JUMPDEST PUSH1 0x3B DUP2 SWAP1 SSTORE POP PUSH32 0x0 PUSH20 0xFFFFFFFFFFFFFFFFFFFFFFFFFFFFFFFFFFFFFFFF AND DUP12 PUSH20 0xFFFFFFFFFFFFFFFFFFFFFFFFFFFFFFFFFFFFFFFF AND PUSH32 0xB19E051F8AF41150CCCCB3FC2C2D8D15F4A4CF434F32A559BA75FE73D6EEA20B DUP15 DUP14 DUP14 DUP14 DUP14 DUP14 DUP14 DUP14 DUP14 PUSH1 0x40 MLOAD PUSH2 0xBF7 SWAP10 SWAP9 SWAP8 SWAP7 SWAP6 SWAP5 SWAP4 SWAP3 SWAP2 SWAP1 PUSH2 0x434D JUMP JUMPDEST PUSH1 0x40 MLOAD DUP1 SWAP2 SUB SWAP1 LOG3 DUP1 ISZERO PUSH2 0xC1F JUMPI PUSH0 PUSH1 0x1 PUSH0 PUSH2 0x100 EXP DUP2 SLOAD DUP2 PUSH1 0xFF MUL NOT AND SWAP1 DUP4 ISZERO ISZERO MUL OR SWAP1 SSTORE POP JUMPDEST POP POP POP POP POP POP POP POP POP POP POP POP POP JUMP JUMPDEST PUSH0 PUSH2 0xC38 DUP3 PUSH2 0x20D1 JUMP JUMPDEST SWAP1 POP SWAP2 SWAP1 POP JUMP JUMPDEST PUSH0 DUP1 PUSH2 0xC4A DUP4 PUSH2 0x2290 JUMP JUMPDEST SWAP1 POP PUSH2 0xCFA DUP6 PUSH2 0xC58 PUSH2 0x1FE3 JUMP JUMPDEST DUP4 PUSH16 0xFFFFFFFFFFFFFFFFFFFFFFFFFFFFFFFF AND PUSH1 0x35 PUSH0 DUP11 PUSH20 0xFFFFFFFFFFFFFFFFFFFFFFFFFFFFFFFFFFFFFFFF AND PUSH20 0xFFFFFFFFFFFFFFFFFFFFFFFFFFFFFFFFFFFFFFFF AND DUP2 MSTORE PUSH1 0x20 ADD SWAP1 DUP2 MSTORE PUSH1 0x20 ADD PUSH0 KECCAK256 PUSH0 PUSH2 0xCB1 PUSH2 0x1FE3 JUMP JUMPDEST PUSH20 0xFFFFFFFFFFFFFFFFFFFFFFFFFFFFFFFFFFFFFFFF AND PUSH20 0xFFFFFFFFFFFFFFFFFFFFFFFFFFFFFFFFFFFFFFFF AND DUP2 MSTORE PUSH1 0x20 ADD SWAP1 DUP2 MSTORE PUSH1 0x20 ADD PUSH0 KECCAK256 SLOAD PUSH2 0xCF5 SWAP2 SWAP1 PUSH2 0x43F4 JUMP JUMPDEST PUSH2 0x1FEA JUMP JUMPDEST PUSH2 0xD05 DUP6 DUP6 DUP4 PUSH2 0x22EE JUMP JUMPDEST PUSH1 0x1 SWAP2 POP POP SWAP4 SWAP3 POP POP POP JUMP JUMPDEST PUSH32 0x6E71EDAE12B1B97F4D1F60370FEF10105FA2FAAE0126114A169C64845D6126C9 DUP2 JUMP JUMPDEST PUSH0 PUSH1 0x39 PUSH0 SWAP1 SLOAD SWAP1 PUSH2 0x100 EXP SWAP1 DIV PUSH1 0xFF AND SWAP1 POP SWAP1 JUMP JUMPDEST PUSH0 PUSH2 0xD53 PUSH2 0x2312 JUMP JUMPDEST SWAP1 POP SWAP1 JUMP JUMPDEST PUSH0 PUSH2 0xDF5 PUSH2 0xD64 PUSH2 0x1FE3 JUMP JUMPDEST DUP5 DUP5 PUSH1 0x35 PUSH0 PUSH2 0xD71 PUSH2 0x1FE3 JUMP JUMPDEST PUSH20 0xFFFFFFFFFFFFFFFFFFFFFFFFFFFFFFFFFFFFFFFF AND PUSH20 0xFFFFFFFFFFFFFFFFFFFFFFFFFFFFFFFFFFFFFFFF AND DUP2 MSTORE PUSH1 0x20 ADD SWAP1 DUP2 MSTORE PUSH1 0x20 ADD PUSH0 KECCAK256 PUSH0 DUP9 PUSH20 0xFFFFFFFFFFFFFFFFFFFFFFFFFFFFFFFFFFFFFFFF AND PUSH20 0xFFFFFFFFFFFFFFFFFFFFFFFFFFFFFFFFFFFFFFFF AND DUP2 MSTORE PUSH1 0x20 ADD SWAP1 DUP2 MSTORE PUSH1 0x20 ADD PUSH0 KECCAK256 SLOAD PUSH2 0xDF0 SWAP2 SWAP1 PUSH2 0x4427 JUMP JUMPDEST PUSH2 0x1FEA JUMP JUMPDEST PUSH1 0x1 SWAP1 POP SWAP3 SWAP2 POP POP JUMP JUMPDEST PUSH32 0x0 PUSH20 0xFFFFFFFFFFFFFFFFFFFFFFFFFFFFFFFFFFFFFFFF AND PUSH2 0xE3E PUSH2 0x1FE3 JUMP JUMPDEST PUSH20 0xFFFFFFFFFFFFFFFFFFFFFFFFFFFFFFFFFFFFFFFF AND EQ PUSH1 0x40 MLOAD DUP1 PUSH1 0x40 ADD PUSH1 0x40 MSTORE DUP1 PUSH1 0x2 DUP2 MSTORE PUSH1 0x20 ADD PUSH32 0x3233000000000000000000000000000000000000000000000000000000000000 DUP2 MSTORE POP SWAP1 PUSH2 0xECC JUMPI PUSH1 0x40 MLOAD PUSH32 0x8C379A000000000000000000000000000000000000000000000000000000000 DUP2 MSTORE PUSH1 0x4 ADD PUSH2 0xEC3 SWAP2 SWAP1 PUSH2 0x39E8 JUMP JUMPDEST PUSH1 0x40 MLOAD DUP1 SWAP2 SUB SWAP1 REVERT JUMPDEST POP PUSH2 0xF19 DUP3 DUP3 PUSH1 0x3D PUSH0 SWAP1 SLOAD SWAP1 PUSH2 0x100 EXP SWAP1 DIV PUSH20 0xFFFFFFFFFFFFFFFFFFFFFFFFFFFFFFFFFFFFFFFF AND PUSH20 0xFFFFFFFFFFFFFFFFFFFFFFFFFFFFFFFFFFFFFFFF AND PUSH2 0x2352 SWAP1 SWAP3 SWAP2 SWAP1 PUSH4 0xFFFFFFFF AND JUMP JUMPDEST POP POP JUMP JUMPDEST PUSH32 0x0 PUSH20 0xFFFFFFFFFFFFFFFFFFFFFFFFFFFFFFFFFFFFFFFF AND PUSH2 0xF5C PUSH2 0x1FE3 JUMP JUMPDEST PUSH20 0xFFFFFFFFFFFFFFFFFFFFFFFFFFFFFFFFFFFFFFFF AND EQ PUSH1 0x40 MLOAD DUP1 PUSH1 0x40 ADD PUSH1 0x40 MSTORE DUP1 PUSH1 0x2 DUP2 MSTORE PUSH1 0x20 ADD PUSH32 0x3233000000000000000000000000000000000000000000000000000000000000 DUP2 MSTORE POP SWAP1 PUSH2 0xFEA JUMPI PUSH1 0x40 MLOAD PUSH32 0x8C379A000000000000000000000000000000000000000000000000000000000 DUP2 MSTORE PUSH1 0x4 ADD PUSH2 0xFE1 SWAP2 SWAP1 PUSH2 0x39E8 JUMP JUMPDEST PUSH1 0x40 MLOAD DUP1 SWAP2 SUB SWAP1 REVERT JUMPDEST POP POP POP POP JUMP JUMPDEST PUSH0 PUSH2 0x10C4 PUSH32 0x0 PUSH20 0xFFFFFFFFFFFFFFFFFFFFFFFFFFFFFFFFFFFFFFFF AND PUSH4 0xD15E0053 PUSH1 0x3D PUSH0 SWAP1 SLOAD SWAP1 PUSH2 0x100 EXP SWAP1 DIV PUSH20 0xFFFFFFFFFFFFFFFFFFFFFFFFFFFFFFFFFFFFFFFF AND PUSH1 0x40 MLOAD DUP3 PUSH4 0xFFFFFFFF AND PUSH1 0xE0 SHL DUP2 MSTORE PUSH1 0x4 ADD PUSH2 0x106E SWAP2 SWAP1 PUSH2 0x4010 JUMP JUMPDEST PUSH1 0x20 PUSH1 0x40 MLOAD DUP1 DUP4 SUB DUP2 DUP7 GAS STATICCALL ISZERO DUP1 ISZERO PUSH2 0x1089 JUMPI RETURNDATASIZE PUSH0 DUP1 RETURNDATACOPY RETURNDATASIZE PUSH0 REVERT JUMPDEST POP POP POP POP PUSH1 0x40 MLOAD RETURNDATASIZE PUSH1 0x1F NOT PUSH1 0x1F DUP3 ADD AND DUP3 ADD DUP1 PUSH1 0x40 MSTORE POP DUP2 ADD SWAP1 PUSH2 0x10AD SWAP2 SWAP1 PUSH2 0x422E JUMP JUMPDEST PUSH2 0x10B6 DUP5 PUSH2 0x20D1 JUMP JUMPDEST PUSH2 0x214F SWAP1 SWAP2 SWAP1 PUSH4 0xFFFFFFFF AND JUMP JUMPDEST SWAP1 POP SWAP2 SWAP1 POP JUMP JUMPDEST PUSH32 0x0 DUP2 JUMP JUMPDEST PUSH0 PUSH1 0x39 PUSH1 0x1 SWAP1 SLOAD SWAP1 PUSH2 0x100 EXP SWAP1 DIV PUSH20 0xFFFFFFFFFFFFFFFFFFFFFFFFFFFFFFFFFFFFFFFF AND SWAP1 POP SWAP1 JUMP JUMPDEST PUSH1 0x40 MLOAD DUP1 PUSH1 0x40 ADD PUSH1 0x40 MSTORE DUP1 PUSH1 0x1 DUP2 MSTORE PUSH1 0x20 ADD PUSH32 0x3100000000000000000000000000000000000000000000000000000000000000 DUP2 MSTORE POP DUP2 JUMP JUMPDEST PUSH32 0x0 PUSH20 0xFFFFFFFFFFFFFFFFFFFFFFFFFFFFFFFFFFFFFFFF AND PUSH2 0x1190 PUSH2 0x1FE3 JUMP JUMPDEST PUSH20 0xFFFFFFFFFFFFFFFFFFFFFFFFFFFFFFFFFFFFFFFF AND EQ PUSH1 0x40 MLOAD DUP1 PUSH1 0x40 ADD PUSH1 0x40 MSTORE DUP1 PUSH1 0x2 DUP2 MSTORE PUSH1 0x20 ADD PUSH32 0x3233000000000000000000000000000000000000000000000000000000000000 DUP2 MSTORE POP SWAP1 PUSH2 0x121E JUMPI PUSH1 0x40 MLOAD PUSH32 0x8C379A000000000000000000000000000000000000000000000000000000000 DUP2 MSTORE PUSH1 0x4 ADD PUSH2 0x1215 SWAP2 SWAP1 PUSH2 0x39E8 JUMP JUMPDEST PUSH1 0x40 MLOAD DUP1 SWAP2 SUB SWAP1 REVERT JUMPDEST POP PUSH0 DUP3 SUB ISZERO PUSH2 0x1276 JUMPI PUSH2 0x1274 PUSH32 0x0 PUSH1 0x3C PUSH0 SWAP1 SLOAD SWAP1 PUSH2 0x100 EXP SWAP1 DIV PUSH20 0xFFFFFFFFFFFFFFFFFFFFFFFFFFFFFFFFFFFFFFFF AND DUP5 DUP5 PUSH2 0x23E9 JUMP JUMPDEST POP JUMPDEST POP POP JUMP JUMPDEST PUSH0 PUSH2 0x1284 DUP3 PUSH2 0x26A6 JUMP JUMPDEST SWAP1 POP SWAP2 SWAP1 POP JUMP JUMPDEST PUSH1 0x60 PUSH1 0x38 DUP1 SLOAD PUSH2 0x129A SWAP1 PUSH2 0x41EA JUMP JUMPDEST DUP1 PUSH1 0x1F ADD PUSH1 0x20 DUP1 SWAP2 DIV MUL PUSH1 0x20 ADD PUSH1 0x40 MLOAD SWAP1 DUP2 ADD PUSH1 0x40 MSTORE DUP1 SWAP3 SWAP2 SWAP1 DUP2 DUP2 MSTORE PUSH1 0x20 ADD DUP3 DUP1 SLOAD PUSH2 0x12C6 SWAP1 PUSH2 0x41EA JUMP JUMPDEST DUP1 ISZERO PUSH2 0x1311 JUMPI DUP1 PUSH1 0x1F LT PUSH2 0x12E8 JUMPI PUSH2 0x100 DUP1 DUP4 SLOAD DIV MUL DUP4 MSTORE SWAP2 PUSH1 0x20 ADD SWAP2 PUSH2 0x1311 JUMP JUMPDEST DUP3 ADD SWAP2 SWAP1 PUSH0 MSTORE PUSH1 0x20 PUSH0 KECCAK256 SWAP1 JUMPDEST DUP2 SLOAD DUP2 MSTORE SWAP1 PUSH1 0x1 ADD SWAP1 PUSH1 0x20 ADD DUP1 DUP4 GT PUSH2 0x12F4 JUMPI DUP3 SWAP1 SUB PUSH1 0x1F AND DUP3 ADD SWAP2 JUMPDEST POP POP POP POP POP SWAP1 POP SWAP1 JUMP JUMPDEST PUSH0 PUSH2 0x13B8 PUSH2 0x1327 PUSH2 0x1FE3 JUMP JUMPDEST DUP5 DUP5 PUSH1 0x35 PUSH0 PUSH2 0x1334 PUSH2 0x1FE3 JUMP JUMPDEST PUSH20 0xFFFFFFFFFFFFFFFFFFFFFFFFFFFFFFFFFFFFFFFF AND PUSH20 0xFFFFFFFFFFFFFFFFFFFFFFFFFFFFFFFFFFFFFFFF AND DUP2 MSTORE PUSH1 0x20 ADD SWAP1 DUP2 MSTORE PUSH1 0x20 ADD PUSH0 KECCAK256 PUSH0 DUP9 PUSH20 0xFFFFFFFFFFFFFFFFFFFFFFFFFFFFFFFFFFFFFFFF AND PUSH20 0xFFFFFFFFFFFFFFFFFFFFFFFFFFFFFFFFFFFFFFFF AND DUP2 MSTORE PUSH1 0x20 ADD SWAP1 DUP2 MSTORE PUSH1 0x20 ADD PUSH0 KECCAK256 SLOAD PUSH2 0x13B3 SWAP2 SWAP1 PUSH2 0x43F4 JUMP JUMPDEST PUSH2 0x1FEA JUMP JUMPDEST PUSH1 0x1 SWAP1 POP SWAP3 SWAP2 POP POP JUMP JUMPDEST PUSH0 DUP1 PUSH2 0x13CD DUP4 PUSH2 0x2290 JUMP JUMPDEST SWAP1 POP PUSH2 0x13E1 PUSH2 0x13DA PUSH2 0x1FE3 JUMP JUMPDEST DUP6 DUP4 PUSH2 0x22EE JUMP JUMPDEST PUSH1 0x1 SWAP2 POP POP SWAP3 SWAP2 POP POP JUMP JUMPDEST PUSH0 PUSH1 0x3C PUSH0 SWAP1 SLOAD SWAP1 PUSH2 0x100 EXP SWAP1 DIV PUSH20 0xFFFFFFFFFFFFFFFFFFFFFFFFFFFFFFFFFFFFFFFF AND SWAP1 POP SWAP1 JUMP JUMPDEST PUSH0 PUSH1 0x3D PUSH0 SWAP1 SLOAD SWAP1 PUSH2 0x100 EXP SWAP1 DIV PUSH20 0xFFFFFFFFFFFFFFFFFFFFFFFFFFFFFFFFFFFFFFFF AND SWAP1 POP SWAP1 JUMP JUMPDEST PUSH0 PUSH2 0x1445 PUSH2 0x2146 JUMP JUMPDEST SWAP1 POP SWAP1 JUMP JUMPDEST PUSH0 PUSH32 0x0 PUSH20 0xFFFFFFFFFFFFFFFFFFFFFFFFFFFFFFFFFFFFFFFF AND PUSH2 0x148A PUSH2 0x1FE3 JUMP JUMPDEST PUSH20 0xFFFFFFFFFFFFFFFFFFFFFFFFFFFFFFFFFFFFFFFF AND EQ PUSH1 0x40 MLOAD DUP1 PUSH1 0x40 ADD PUSH1 0x40 MSTORE DUP1 PUSH1 0x2 DUP2 MSTORE PUSH1 0x20 ADD PUSH32 0x3233000000000000000000000000000000000000000000000000000000000000 DUP2 MSTORE POP SWAP1 PUSH2 0x1518 JUMPI PUSH1 0x40 MLOAD PUSH32 0x8C379A000000000000000000000000000000000000000000000000000000000 DUP2 MSTORE PUSH1 0x4 ADD PUSH2 0x150F SWAP2 SWAP1 PUSH2 0x39E8 JUMP JUMPDEST PUSH1 0x40 MLOAD DUP1 SWAP2 SUB SWAP1 REVERT JUMPDEST POP PUSH2 0x1525 DUP6 DUP6 DUP6 DUP6 PUSH2 0x23E9 JUMP JUMPDEST SWAP1 POP SWAP5 SWAP4 POP POP POP POP JUMP JUMPDEST PUSH0 PUSH32 0x0 PUSH20 0xFFFFFFFFFFFFFFFFFFFFFFFFFFFFFFFFFFFFFFFF AND PUSH4 0x707CD716 PUSH1 0x40 MLOAD DUP2 PUSH4 0xFFFFFFFF AND PUSH1 0xE0 SHL DUP2 MSTORE PUSH1 0x4 ADD PUSH1 0x20 PUSH1 0x40 MLOAD DUP1 DUP4 SUB DUP2 DUP7 GAS STATICCALL ISZERO DUP1 ISZERO PUSH2 0x1599 JUMPI RETURNDATASIZE PUSH0 DUP1 RETURNDATACOPY RETURNDATASIZE PUSH0 REVERT JUMPDEST POP POP POP POP PUSH1 0x40 MLOAD RETURNDATASIZE PUSH1 0x1F NOT PUSH1 0x1F DUP3 ADD AND DUP3 ADD DUP1 PUSH1 0x40 MSTORE POP DUP2 ADD SWAP1 PUSH2 0x15BD SWAP2 SWAP1 PUSH2 0x446E JUMP JUMPDEST SWAP1 POP DUP1 PUSH20 0xFFFFFFFFFFFFFFFFFFFFFFFFFFFFFFFFFFFFFFFF AND PUSH4 0x7BE53CA1 CALLER PUSH1 0x40 MLOAD DUP3 PUSH4 0xFFFFFFFF AND PUSH1 0xE0 SHL DUP2 MSTORE PUSH1 0x4 ADD PUSH2 0x15F8 SWAP2 SWAP1 PUSH2 0x4010 JUMP JUMPDEST PUSH1 0x20 PUSH1 0x40 MLOAD DUP1 DUP4 SUB DUP2 DUP7 GAS STATICCALL ISZERO DUP1 ISZERO PUSH2 0x1613 JUMPI RETURNDATASIZE PUSH0 DUP1 RETURNDATACOPY RETURNDATASIZE PUSH0 REVERT JUMPDEST POP POP POP POP PUSH1 0x40 MLOAD RETURNDATASIZE PUSH1 0x1F NOT PUSH1 0x1F DUP3 ADD AND DUP3 ADD DUP1 PUSH1 0x40 MSTORE POP DUP2 ADD SWAP1 PUSH2 0x1637 SWAP2 SWAP1 PUSH2 0x44C3 JUMP JUMPDEST PUSH1 0x40 MLOAD DUP1 PUSH1 0x40 ADD PUSH1 0x40 MSTORE DUP1 PUSH1 0x1 DUP2 MSTORE PUSH1 0x20 ADD PUSH32 0x3100000000000000000000000000000000000000000000000000000000000000 DUP2 MSTORE POP SWAP1 PUSH2 0x16AE JUMPI PUSH1 0x40 MLOAD PUSH32 0x8C379A000000000000000000000000000000000000000000000000000000000 DUP2 MSTORE PUSH1 0x4 ADD PUSH2 0x16A5 SWAP2 SWAP1 PUSH2 0x39E8 JUMP JUMPDEST PUSH1 0x40 MLOAD DUP1 SWAP2 SUB SWAP1 REVERT JUMPDEST POP PUSH1 0x3D PUSH0 SWAP1 SLOAD SWAP1 PUSH2 0x100 EXP SWAP1 DIV PUSH20 0xFFFFFFFFFFFFFFFFFFFFFFFFFFFFFFFFFFFFFFFF AND PUSH20 0xFFFFFFFFFFFFFFFFFFFFFFFFFFFFFFFFFFFFFFFF AND DUP5 PUSH20 0xFFFFFFFFFFFFFFFFFFFFFFFFFFFFFFFFFFFFFFFF AND EQ ISZERO PUSH1 0x40 MLOAD DUP1 PUSH1 0x40 ADD PUSH1 0x40 MSTORE DUP1 PUSH1 0x2 DUP2 MSTORE PUSH1 0x20 ADD PUSH32 0x3835000000000000000000000000000000000000000000000000000000000000 DUP2 MSTORE POP SWAP1 PUSH2 0x1777 JUMPI PUSH1 0x40 MLOAD PUSH32 0x8C379A000000000000000000000000000000000000000000000000000000000 DUP2 MSTORE PUSH1 0x4 ADD PUSH2 0x176E SWAP2 SWAP1 PUSH2 0x39E8 JUMP JUMPDEST PUSH1 0x40 MLOAD DUP1 SWAP2 SUB SWAP1 REVERT JUMPDEST POP PUSH2 0x17A3 DUP4 DUP4 DUP7 PUSH20 0xFFFFFFFFFFFFFFFFFFFFFFFFFFFFFFFFFFFFFFFF AND PUSH2 0x2352 SWAP1 SWAP3 SWAP2 SWAP1 PUSH4 0xFFFFFFFF AND JUMP JUMPDEST POP POP POP POP JUMP JUMPDEST PUSH0 PUSH20 0xFFFFFFFFFFFFFFFFFFFFFFFFFFFFFFFFFFFFFFFF AND DUP8 PUSH20 0xFFFFFFFFFFFFFFFFFFFFFFFFFFFFFFFFFFFFFFFF AND EQ ISZERO PUSH1 0x40 MLOAD DUP1 PUSH1 0x40 ADD PUSH1 0x40 MSTORE DUP1 PUSH1 0x2 DUP2 MSTORE PUSH1 0x20 ADD PUSH32 0x3737000000000000000000000000000000000000000000000000000000000000 DUP2 MSTORE POP SWAP1 PUSH2 0x1850 JUMPI PUSH1 0x40 MLOAD PUSH32 0x8C379A000000000000000000000000000000000000000000000000000000000 DUP2 MSTORE PUSH1 0x4 ADD PUSH2 0x1847 SWAP2 SWAP1 PUSH2 0x39E8 JUMP JUMPDEST PUSH1 0x40 MLOAD DUP1 SWAP2 SUB SWAP1 REVERT JUMPDEST POP DUP4 TIMESTAMP GT ISZERO PUSH1 0x40 MLOAD DUP1 PUSH1 0x40 ADD PUSH1 0x40 MSTORE DUP1 PUSH1 0x2 DUP2 MSTORE PUSH1 0x20 ADD PUSH32 0x3738000000000000000000000000000000000000000000000000000000000000 DUP2 MSTORE POP SWAP1 PUSH2 0x18CC JUMPI PUSH1 0x40 MLOAD PUSH32 0x8C379A000000000000000000000000000000000000000000000000000000000 DUP2 MSTORE PUSH1 0x4 ADD PUSH2 0x18C3 SWAP2 SWAP1 PUSH2 0x39E8 JUMP JUMPDEST PUSH1 0x40 MLOAD DUP1 SWAP2 SUB SWAP1 REVERT JUMPDEST POP PUSH0 PUSH1 0x3A PUSH0 DUP10 PUSH20 0xFFFFFFFFFFFFFFFFFFFFFFFFFFFFFFFFFFFFFFFF AND PUSH20 0xFFFFFFFFFFFFFFFFFFFFFFFFFFFFFFFFFFFFFFFF AND DUP2 MSTORE PUSH1 0x20 ADD SWAP1 DUP2 MSTORE PUSH1 0x20 ADD PUSH0 KECCAK256 SLOAD SWAP1 POP PUSH0 PUSH2 0x1917 PUSH2 0xD4A JUMP JUMPDEST PUSH32 0x6E71EDAE12B1B97F4D1F60370FEF10105FA2FAAE0126114A169C64845D6126C9 DUP11 DUP11 DUP11 DUP7 DUP12 PUSH1 0x40 MLOAD PUSH1 0x20 ADD PUSH2 0x1952 SWAP7 SWAP6 SWAP5 SWAP4 SWAP3 SWAP2 SWAP1 PUSH2 0x44EE JUMP JUMPDEST PUSH1 0x40 MLOAD PUSH1 0x20 DUP2 DUP4 SUB SUB DUP2 MSTORE SWAP1 PUSH1 0x40 MSTORE DUP1 MLOAD SWAP1 PUSH1 0x20 ADD KECCAK256 PUSH1 0x40 MLOAD PUSH1 0x20 ADD PUSH2 0x1979 SWAP3 SWAP2 SWAP1 PUSH2 0x45C1 JUMP JUMPDEST PUSH1 0x40 MLOAD PUSH1 0x20 DUP2 DUP4 SUB SUB DUP2 MSTORE SWAP1 PUSH1 0x40 MSTORE DUP1 MLOAD SWAP1 PUSH1 0x20 ADD KECCAK256 SWAP1 POP PUSH1 0x1 DUP2 DUP7 DUP7 DUP7 PUSH1 0x40 MLOAD PUSH0 DUP2 MSTORE PUSH1 0x20 ADD PUSH1 0x40 MSTORE PUSH1 0x40 MLOAD PUSH2 0x19B3 SWAP5 SWAP4 SWAP3 SWAP2 SWAP1 PUSH2 0x45F7 JUMP JUMPDEST PUSH1 0x20 PUSH1 0x40 MLOAD PUSH1 0x20 DUP2 SUB SWAP1 DUP1 DUP5 SUB SWAP1 DUP6 GAS STATICCALL ISZERO DUP1 ISZERO PUSH2 0x19D3 JUMPI RETURNDATASIZE PUSH0 DUP1 RETURNDATACOPY RETURNDATASIZE PUSH0 REVERT JUMPDEST POP POP POP PUSH1 0x20 PUSH1 0x40 MLOAD SUB MLOAD PUSH20 0xFFFFFFFFFFFFFFFFFFFFFFFFFFFFFFFFFFFFFFFF AND DUP10 PUSH20 0xFFFFFFFFFFFFFFFFFFFFFFFFFFFFFFFFFFFFFFFF AND EQ PUSH1 0x40 MLOAD DUP1 PUSH1 0x40 ADD PUSH1 0x40 MSTORE DUP1 PUSH1 0x2 DUP2 MSTORE PUSH1 0x20 ADD PUSH32 0x3739000000000000000000000000000000000000000000000000000000000000 DUP2 MSTORE POP SWAP1 PUSH2 0x1A82 JUMPI PUSH1 0x40 MLOAD PUSH32 0x8C379A000000000000000000000000000000000000000000000000000000000 DUP2 MSTORE PUSH1 0x4 ADD PUSH2 0x1A79 SWAP2 SWAP1 PUSH2 0x39E8 JUMP JUMPDEST PUSH1 0x40 MLOAD DUP1 SWAP2 SUB SWAP1 REVERT JUMPDEST POP PUSH1 0x1 DUP3 PUSH2 0x1A90 SWAP2 SWAP1 PUSH2 0x4427 JUMP JUMPDEST PUSH1 0x3A PUSH0 DUP12 PUSH20 0xFFFFFFFFFFFFFFFFFFFFFFFFFFFFFFFFFFFFFFFF AND PUSH20 0xFFFFFFFFFFFFFFFFFFFFFFFFFFFFFFFFFFFFFFFF AND DUP2 MSTORE PUSH1 0x20 ADD SWAP1 DUP2 MSTORE PUSH1 0x20 ADD PUSH0 KECCAK256 DUP2 SWAP1 SSTORE POP PUSH2 0x1ADC DUP10 DUP10 DUP10 PUSH2 0x1FEA JUMP JUMPDEST POP POP POP POP POP POP POP POP POP JUMP JUMPDEST PUSH32 0x0 PUSH20 0xFFFFFFFFFFFFFFFFFFFFFFFFFFFFFFFFFFFFFFFF AND PUSH2 0x1B26 PUSH2 0x1FE3 JUMP JUMPDEST PUSH20 0xFFFFFFFFFFFFFFFFFFFFFFFFFFFFFFFFFFFFFFFF AND EQ PUSH1 0x40 MLOAD DUP1 PUSH1 0x40 ADD PUSH1 0x40 MSTORE DUP1 PUSH1 0x2 DUP2 MSTORE PUSH1 0x20 ADD PUSH32 0x3233000000000000000000000000000000000000000000000000000000000000 DUP2 MSTORE POP SWAP1 PUSH2 0x1BB4 JUMPI PUSH1 0x40 MLOAD PUSH32 0x8C379A000000000000000000000000000000000000000000000000000000000 DUP2 MSTORE PUSH1 0x4 ADD PUSH2 0x1BAB SWAP2 SWAP1 PUSH2 0x39E8 JUMP JUMPDEST PUSH1 0x40 MLOAD DUP1 SWAP2 SUB SWAP1 REVERT JUMPDEST POP PUSH2 0x1BC1 DUP5 DUP5 DUP5 DUP5 PUSH2 0x26EC JUMP JUMPDEST ADDRESS PUSH20 0xFFFFFFFFFFFFFFFFFFFFFFFFFFFFFFFFFFFFFFFF AND DUP4 PUSH20 0xFFFFFFFFFFFFFFFFFFFFFFFFFFFFFFFFFFFFFFFF AND EQ PUSH2 0x1C41 JUMPI PUSH2 0x1C40 DUP4 DUP4 PUSH1 0x3D PUSH0 SWAP1 SLOAD SWAP1 PUSH2 0x100 EXP SWAP1 DIV PUSH20 0xFFFFFFFFFFFFFFFFFFFFFFFFFFFFFFFFFFFFFFFF AND PUSH20 0xFFFFFFFFFFFFFFFFFFFFFFFFFFFFFFFFFFFFFFFF AND PUSH2 0x2352 SWAP1 SWAP3 SWAP2 SWAP1 PUSH4 0xFFFFFFFF AND JUMP JUMPDEST JUMPDEST POP POP POP POP JUMP JUMPDEST PUSH0 PUSH1 0x35 PUSH0 DUP5 PUSH20 0xFFFFFFFFFFFFFFFFFFFFFFFFFFFFFFFFFFFFFFFF AND PUSH20 0xFFFFFFFFFFFFFFFFFFFFFFFFFFFFFFFFFFFFFFFF AND DUP2 MSTORE PUSH1 0x20 ADD SWAP1 DUP2 MSTORE PUSH1 0x20 ADD PUSH0 KECCAK256 PUSH0 DUP4 PUSH20 0xFFFFFFFFFFFFFFFFFFFFFFFFFFFFFFFFFFFFFFFF AND PUSH20 0xFFFFFFFFFFFFFFFFFFFFFFFFFFFFFFFFFFFFFFFF AND DUP2 MSTORE PUSH1 0x20 ADD SWAP1 DUP2 MSTORE PUSH1 0x20 ADD PUSH0 KECCAK256 SLOAD SWAP1 POP SWAP3 SWAP2 POP POP JUMP JUMPDEST PUSH0 PUSH1 0x34 PUSH0 DUP4 PUSH20 0xFFFFFFFFFFFFFFFFFFFFFFFFFFFFFFFFFFFFFFFF AND PUSH20 0xFFFFFFFFFFFFFFFFFFFFFFFFFFFFFFFFFFFFFFFF AND DUP2 MSTORE PUSH1 0x20 ADD SWAP1 DUP2 MSTORE PUSH1 0x20 ADD PUSH0 KECCAK256 PUSH0 ADD PUSH1 0x10 SWAP1 SLOAD SWAP1 PUSH2 0x100 EXP SWAP1 DIV PUSH16 0xFFFFFFFFFFFFFFFFFFFFFFFFFFFFFFFF AND PUSH16 0xFFFFFFFFFFFFFFFFFFFFFFFFFFFFFFFF AND SWAP1 POP SWAP2 SWAP1 POP JUMP JUMPDEST PUSH0 PUSH32 0x0 PUSH20 0xFFFFFFFFFFFFFFFFFFFFFFFFFFFFFFFFFFFFFFFF AND PUSH4 0x707CD716 PUSH1 0x40 MLOAD DUP2 PUSH4 0xFFFFFFFF AND PUSH1 0xE0 SHL DUP2 MSTORE PUSH1 0x4 ADD PUSH1 0x20 PUSH1 0x40 MLOAD DUP1 DUP4 SUB DUP2 DUP7 GAS STATICCALL ISZERO DUP1 ISZERO PUSH2 0x1DA9 JUMPI RETURNDATASIZE PUSH0 DUP1 RETURNDATACOPY RETURNDATASIZE PUSH0 REVERT JUMPDEST POP POP POP POP PUSH1 0x40 MLOAD RETURNDATASIZE PUSH1 0x1F NOT PUSH1 0x1F DUP3 ADD AND DUP3 ADD DUP1 PUSH1 0x40 MSTORE POP DUP2 ADD SWAP1 PUSH2 0x1DCD SWAP2 SWAP1 PUSH2 0x446E JUMP JUMPDEST SWAP1 POP DUP1 PUSH20 0xFFFFFFFFFFFFFFFFFFFFFFFFFFFFFFFFFFFFFFFF AND PUSH4 0x7BE53CA1 CALLER PUSH1 0x40 MLOAD DUP3 PUSH4 0xFFFFFFFF AND PUSH1 0xE0 SHL DUP2 MSTORE PUSH1 0x4 ADD PUSH2 0x1E08 SWAP2 SWAP1 PUSH2 0x4010 JUMP JUMPDEST PUSH1 0x20 PUSH1 0x40 MLOAD DUP1 DUP4 SUB DUP2 DUP7 GAS STATICCALL ISZERO DUP1 ISZERO PUSH2 0x1E23 JUMPI RETURNDATASIZE PUSH0 DUP1 RETURNDATACOPY RETURNDATASIZE PUSH0 REVERT JUMPDEST POP POP POP POP PUSH1 0x40 MLOAD RETURNDATASIZE PUSH1 0x1F NOT PUSH1 0x1F DUP3 ADD AND DUP3 ADD DUP1 PUSH1 0x40 MSTORE POP DUP2 ADD SWAP1 PUSH2 0x1E47 SWAP2 SWAP1 PUSH2 0x44C3 JUMP JUMPDEST PUSH1 0x40 MLOAD DUP1 PUSH1 0x40 ADD PUSH1 0x40 MSTORE DUP1 PUSH1 0x1 DUP2 MSTORE PUSH1 0x20 ADD PUSH32 0x3100000000000000000000000000000000000000000000000000000000000000 DUP2 MSTORE POP SWAP1 PUSH2 0x1EBE JUMPI PUSH1 0x40 MLOAD PUSH32 0x8C379A000000000000000000000000000000000000000000000000000000000 DUP2 MSTORE PUSH1 0x4 ADD PUSH2 0x1EB5 SWAP2 SWAP1 PUSH2 0x39E8 JUMP JUMPDEST PUSH1 0x40 MLOAD DUP1 SWAP2 SUB SWAP1 REVERT JUMPDEST POP DUP2 PUSH1 0x39 PUSH1 0x1 PUSH2 0x100 EXP DUP2 SLOAD DUP2 PUSH20 0xFFFFFFFFFFFFFFFFFFFFFFFFFFFFFFFFFFFFFFFF MUL NOT AND SWAP1 DUP4 PUSH20 0xFFFFFFFFFFFFFFFFFFFFFFFFFFFFFFFFFFFFFFFF AND MUL OR SWAP1 SSTORE POP POP POP JUMP JUMPDEST PUSH32 0x0 PUSH20 0xFFFFFFFFFFFFFFFFFFFFFFFFFFFFFFFFFFFFFFFF AND PUSH2 0x1F43 PUSH2 0x1FE3 JUMP JUMPDEST PUSH20 0xFFFFFFFFFFFFFFFFFFFFFFFFFFFFFFFFFFFFFFFF AND EQ PUSH1 0x40 MLOAD DUP1 PUSH1 0x40 ADD PUSH1 0x40 MSTORE DUP1 PUSH1 0x2 DUP2 MSTORE PUSH1 0x20 ADD PUSH32 0x3233000000000000000000000000000000000000000000000000000000000000 DUP2 MSTORE POP SWAP1 PUSH2 0x1FD1 JUMPI PUSH1 0x40 MLOAD PUSH32 0x8C379A000000000000000000000000000000000000000000000000000000000 DUP2 MSTORE PUSH1 0x4 ADD PUSH2 0x1FC8 SWAP2 SWAP1 PUSH2 0x39E8 JUMP JUMPDEST PUSH1 0x40 MLOAD DUP1 SWAP2 SUB SWAP1 REVERT JUMPDEST POP PUSH2 0x1FDE DUP4 DUP4 DUP4 PUSH0 PUSH2 0x2A8D JUMP JUMPDEST POP POP POP JUMP JUMPDEST PUSH0 CALLER SWAP1 POP SWAP1 JUMP JUMPDEST DUP1 PUSH1 0x35 PUSH0 DUP6 PUSH20 0xFFFFFFFFFFFFFFFFFFFFFFFFFFFFFFFFFFFFFFFF AND PUSH20 0xFFFFFFFFFFFFFFFFFFFFFFFFFFFFFFFFFFFFFFFF AND DUP2 MSTORE PUSH1 0x20 ADD SWAP1 DUP2 MSTORE PUSH1 0x20 ADD PUSH0 KECCAK256 PUSH0 DUP5 PUSH20 0xFFFFFFFFFFFFFFFFFFFFFFFFFFFFFFFFFFFFFFFF AND PUSH20 0xFFFFFFFFFFFFFFFFFFFFFFFFFFFFFFFFFFFFFFFF AND DUP2 MSTORE PUSH1 0x20 ADD SWAP1 DUP2 MSTORE PUSH1 0x20 ADD PUSH0 KECCAK256 DUP2 SWAP1 SSTORE POP DUP2 PUSH20 0xFFFFFFFFFFFFFFFFFFFFFFFFFFFFFFFFFFFFFFFF AND DUP4 PUSH20 0xFFFFFFFFFFFFFFFFFFFFFFFFFFFFFFFFFFFFFFFF AND PUSH32 0x8C5BE1E5EBEC7D5BD14F71427D1E84F3DD0314C0F7B2291E5B200AC8C7C3B925 DUP4 PUSH1 0x40 MLOAD PUSH2 0x20C4 SWAP2 SWAP1 PUSH2 0x3B6F JUMP JUMPDEST PUSH1 0x40 MLOAD DUP1 SWAP2 SUB SWAP1 LOG3 POP POP POP JUMP JUMPDEST PUSH0 PUSH1 0x34 PUSH0 DUP4 PUSH20 0xFFFFFFFFFFFFFFFFFFFFFFFFFFFFFFFFFFFFFFFF AND PUSH20 0xFFFFFFFFFFFFFFFFFFFFFFFFFFFFFFFFFFFFFFFF AND DUP2 MSTORE PUSH1 0x20 ADD SWAP1 DUP2 MSTORE PUSH1 0x20 ADD PUSH0 KECCAK256 PUSH0 ADD PUSH0 SWAP1 SLOAD SWAP1 PUSH2 0x100 EXP SWAP1 DIV PUSH16 0xFFFFFFFFFFFFFFFFFFFFFFFFFFFFFFFF AND PUSH16 0xFFFFFFFFFFFFFFFFFFFFFFFFFFFFFFFF AND SWAP1 POP SWAP2 SWAP1 POP JUMP JUMPDEST PUSH0 PUSH1 0x36 SLOAD SWAP1 POP SWAP1 JUMP JUMPDEST PUSH0 DUP2 PUSH12 0x19D971E4FE8401E74000000 PUSH0 NOT SUB DIV DUP4 GT ISZERO DUP3 ISZERO OR PUSH2 0x2170 JUMPI PUSH0 DUP1 REVERT JUMPDEST PUSH12 0x33B2E3C9FD0803CE8000000 PUSH12 0x19D971E4FE8401E74000000 DUP4 DUP6 MUL ADD DIV SWAP1 POP SWAP3 SWAP2 POP POP JUMP JUMPDEST PUSH0 PUSH1 0x1 SWAP1 POP SWAP1 JUMP JUMPDEST PUSH0 DUP1 ADDRESS EXTCODESIZE SWAP1 POP PUSH0 DUP2 EQ SWAP2 POP POP SWAP1 JUMP JUMPDEST DUP1 PUSH1 0x37 SWAP1 DUP2 PUSH2 0x21BD SWAP2 SWAP1 PUSH2 0x47FB JUMP JUMPDEST POP POP JUMP JUMPDEST DUP1 PUSH1 0x38 SWAP1 DUP2 PUSH2 0x21D0 SWAP2 SWAP1 PUSH2 0x47FB JUMP JUMPDEST POP POP JUMP JUMPDEST DUP1 PUSH1 0x39 PUSH0 PUSH2 0x100 EXP DUP2 SLOAD DUP2 PUSH1 0xFF MUL NOT AND SWAP1 DUP4 PUSH1 0xFF AND MUL OR SWAP1 SSTORE POP POP JUMP JUMPDEST PUSH0 PUSH32 0x8B73C3C69BB8FE3D512ECC4CF759CC79239F7B179B0FFACAA9A75D522B39400F PUSH2 0x221B PUSH2 0x2CAF JUMP JUMPDEST DUP1 MLOAD SWAP1 PUSH1 0x20 ADD KECCAK256 PUSH1 0x40 MLOAD DUP1 PUSH1 0x40 ADD PUSH1 0x40 MSTORE DUP1 PUSH1 0x1 DUP2 MSTORE PUSH1 0x20 ADD PUSH32 0x3100000000000000000000000000000000000000000000000000000000000000 DUP2 MSTORE POP DUP1 MLOAD SWAP1 PUSH1 0x20 ADD KECCAK256 CHAINID ADDRESS PUSH1 0x40 MLOAD PUSH1 0x20 ADD PUSH2 0x2275 SWAP6 SWAP5 SWAP4 SWAP3 SWAP2 SWAP1 PUSH2 0x48CA JUMP JUMPDEST PUSH1 0x40 MLOAD PUSH1 0x20 DUP2 DUP4 SUB SUB DUP2 MSTORE SWAP1 PUSH1 0x40 MSTORE DUP1 MLOAD SWAP1 PUSH1 0x20 ADD KECCAK256 SWAP1 POP SWAP1 JUMP JUMPDEST PUSH0 PUSH16 0xFFFFFFFFFFFFFFFFFFFFFFFFFFFFFFFF DUP1 AND DUP3 GT ISZERO PUSH2 0x22E6 JUMPI PUSH1 0x40 MLOAD PUSH32 0x8C379A000000000000000000000000000000000000000000000000000000000 DUP2 MSTORE PUSH1 0x4 ADD PUSH2 0x22DD SWAP1 PUSH2 0x498B JUMP JUMPDEST PUSH1 0x40 MLOAD DUP1 SWAP2 SUB SWAP1 REVERT JUMPDEST DUP2 SWAP1 POP SWAP2 SWAP1 POP JUMP JUMPDEST PUSH2 0x230D DUP4 DUP4 DUP4 PUSH16 0xFFFFFFFFFFFFFFFFFFFFFFFFFFFFFFFF AND PUSH1 0x1 PUSH2 0x2A8D JUMP JUMPDEST POP POP POP JUMP JUMPDEST PUSH0 PUSH32 0x0 CHAINID SUB PUSH2 0x2344 JUMPI PUSH1 0x3B SLOAD SWAP1 POP PUSH2 0x234F JUMP JUMPDEST PUSH2 0x234C PUSH2 0x21F1 JUMP JUMPDEST SWAP1 POP JUMPDEST SWAP1 JUMP JUMPDEST PUSH0 PUSH4 0xA9059CBB PUSH1 0xE0 SHL SWAP1 POP PUSH1 0x40 MLOAD DUP2 DUP2 MSTORE PUSH20 0xFFFFFFFFFFFFFFFFFFFFFFFFFFFFFFFFFFFFFFFF DUP5 AND PUSH1 0x4 DUP3 ADD MSTORE DUP3 PUSH1 0x24 DUP3 ADD MSTORE PUSH0 DUP1 PUSH1 0x44 DUP4 PUSH0 DUP10 GAS CALL PUSH2 0x239A JUMPI RETURNDATASIZE PUSH0 DUP1 RETURNDATACOPY RETURNDATASIZE PUSH0 REVERT JUMPDEST POP PUSH2 0x23A4 DUP5 PUSH2 0x2CBE JUMP JUMPDEST PUSH2 0x23E3 JUMPI PUSH1 0x40 MLOAD PUSH32 0x8C379A000000000000000000000000000000000000000000000000000000000 DUP2 MSTORE PUSH1 0x4 ADD PUSH2 0x23DA SWAP1 PUSH2 0x49F3 JUMP JUMPDEST PUSH1 0x40 MLOAD DUP1 SWAP2 SUB SWAP1 REVERT JUMPDEST POP POP POP POP JUMP JUMPDEST PUSH0 DUP1 PUSH2 0x23FE DUP4 DUP6 PUSH2 0x2D85 SWAP1 SWAP2 SWAP1 PUSH4 0xFFFFFFFF AND JUMP JUMPDEST SWAP1 POP PUSH0 DUP2 EQ ISZERO PUSH1 0x40 MLOAD DUP1 PUSH1 0x40 ADD PUSH1 0x40 MSTORE DUP1 PUSH1 0x2 DUP2 MSTORE PUSH1 0x20 ADD PUSH32 0x3234000000000000000000000000000000000000000000000000000000000000 DUP2 MSTORE POP SWAP1 PUSH2 0x247B JUMPI PUSH1 0x40 MLOAD PUSH32 0x8C379A000000000000000000000000000000000000000000000000000000000 DUP2 MSTORE PUSH1 0x4 ADD PUSH2 0x2472 SWAP2 SWAP1 PUSH2 0x39E8 JUMP JUMPDEST PUSH1 0x40 MLOAD DUP1 SWAP2 SUB SWAP1 REVERT JUMPDEST POP PUSH0 PUSH2 0x2486 DUP7 PUSH2 0x20D1 JUMP JUMPDEST SWAP1 POP PUSH0 PUSH2 0x2509 PUSH1 0x34 PUSH0 DUP10 PUSH20 0xFFFFFFFFFFFFFFFFFFFFFFFFFFFFFFFFFFFFFFFF AND PUSH20 0xFFFFFFFFFFFFFFFFFFFFFFFFFFFFFFFFFFFFFFFF AND DUP2 MSTORE PUSH1 0x20 ADD SWAP1 DUP2 MSTORE PUSH1 0x20 ADD PUSH0 KECCAK256 PUSH0 ADD PUSH1 0x10 SWAP1 SLOAD SWAP1 PUSH2 0x100 EXP SWAP1 DIV PUSH16 0xFFFFFFFFFFFFFFFFFFFFFFFFFFFFFFFF AND PUSH16 0xFFFFFFFFFFFFFFFFFFFFFFFFFFFFFFFF AND DUP4 PUSH2 0x214F SWAP1 SWAP2 SWAP1 PUSH4 0xFFFFFFFF AND JUMP JUMPDEST PUSH2 0x251C DUP7 DUP5 PUSH2 0x214F SWAP1 SWAP2 SWAP1 PUSH4 0xFFFFFFFF AND JUMP JUMPDEST PUSH2 0x2526 SWAP2 SWAP1 PUSH2 0x43F4 JUMP JUMPDEST SWAP1 POP PUSH2 0x2531 DUP6 PUSH2 0x2290 JUMP JUMPDEST PUSH1 0x34 PUSH0 DUP10 PUSH20 0xFFFFFFFFFFFFFFFFFFFFFFFFFFFFFFFFFFFFFFFF AND PUSH20 0xFFFFFFFFFFFFFFFFFFFFFFFFFFFFFFFFFFFFFFFF AND DUP2 MSTORE PUSH1 0x20 ADD SWAP1 DUP2 MSTORE PUSH1 0x20 ADD PUSH0 KECCAK256 PUSH0 ADD PUSH1 0x10 PUSH2 0x100 EXP DUP2 SLOAD DUP2 PUSH16 0xFFFFFFFFFFFFFFFFFFFFFFFFFFFFFFFF MUL NOT AND SWAP1 DUP4 PUSH16 0xFFFFFFFFFFFFFFFFFFFFFFFFFFFFFFFF AND MUL OR SWAP1 SSTORE POP PUSH2 0x25B8 DUP8 PUSH2 0x25B3 DUP6 PUSH2 0x2290 JUMP JUMPDEST PUSH2 0x2DC9 JUMP JUMPDEST PUSH0 DUP2 DUP8 PUSH2 0x25C5 SWAP2 SWAP1 PUSH2 0x4427 JUMP JUMPDEST SWAP1 POP DUP8 PUSH20 0xFFFFFFFFFFFFFFFFFFFFFFFFFFFFFFFFFFFFFFFF AND PUSH0 PUSH20 0xFFFFFFFFFFFFFFFFFFFFFFFFFFFFFFFFFFFFFFFF AND PUSH32 0xDDF252AD1BE2C89B69C2B068FC378DAA952BA7F163C4A11628F55A4DF523B3EF DUP4 PUSH1 0x40 MLOAD PUSH2 0x2624 SWAP2 SWAP1 PUSH2 0x3B6F JUMP JUMPDEST PUSH1 0x40 MLOAD DUP1 SWAP2 SUB SWAP1 LOG3 DUP8 PUSH20 0xFFFFFFFFFFFFFFFFFFFFFFFFFFFFFFFFFFFFFFFF AND DUP10 PUSH20 0xFFFFFFFFFFFFFFFFFFFFFFFFFFFFFFFFFFFFFFFF AND PUSH32 0x458F5FA412D0F69B08DD84872B0215675CC67BC1D5B6FD93300A1C3878B86196 DUP4 DUP6 DUP11 PUSH1 0x40 MLOAD PUSH2 0x268D SWAP4 SWAP3 SWAP2 SWAP1 PUSH2 0x4A11 JUMP JUMPDEST PUSH1 0x40 MLOAD DUP1 SWAP2 SUB SWAP1 LOG3 PUSH0 DUP4 EQ SWAP5 POP POP POP POP POP SWAP5 SWAP4 POP POP POP POP JUMP JUMPDEST PUSH0 PUSH1 0x3A PUSH0 DUP4 PUSH20 0xFFFFFFFFFFFFFFFFFFFFFFFFFFFFFFFFFFFFFFFF AND PUSH20 0xFFFFFFFFFFFFFFFFFFFFFFFFFFFFFFFFFFFFFFFF AND DUP2 MSTORE PUSH1 0x20 ADD SWAP1 DUP2 MSTORE PUSH1 0x20 ADD PUSH0 KECCAK256 SLOAD SWAP1 POP SWAP2 SWAP1 POP JUMP JUMPDEST PUSH0 PUSH2 0x2700 DUP3 DUP5 PUSH2 0x2D85 SWAP1 SWAP2 SWAP1 PUSH4 0xFFFFFFFF AND JUMP JUMPDEST SWAP1 POP PUSH0 DUP2 EQ ISZERO PUSH1 0x40 MLOAD DUP1 PUSH1 0x40 ADD PUSH1 0x40 MSTORE DUP1 PUSH1 0x2 DUP2 MSTORE PUSH1 0x20 ADD PUSH32 0x3235000000000000000000000000000000000000000000000000000000000000 DUP2 MSTORE POP SWAP1 PUSH2 0x277D JUMPI PUSH1 0x40 MLOAD PUSH32 0x8C379A000000000000000000000000000000000000000000000000000000000 DUP2 MSTORE PUSH1 0x4 ADD PUSH2 0x2774 SWAP2 SWAP1 PUSH2 0x39E8 JUMP JUMPDEST PUSH1 0x40 MLOAD DUP1 SWAP2 SUB SWAP1 REVERT JUMPDEST POP PUSH0 PUSH2 0x2788 DUP7 PUSH2 0x20D1 JUMP JUMPDEST SWAP1 POP PUSH0 PUSH2 0x280B PUSH1 0x34 PUSH0 DUP10 PUSH20 0xFFFFFFFFFFFFFFFFFFFFFFFFFFFFFFFFFFFFFFFF AND PUSH20 0xFFFFFFFFFFFFFFFFFFFFFFFFFFFFFFFFFFFFFFFF AND DUP2 MSTORE PUSH1 0x20 ADD SWAP1 DUP2 MSTORE PUSH1 0x20 ADD PUSH0 KECCAK256 PUSH0 ADD PUSH1 0x10 SWAP1 SLOAD SWAP1 PUSH2 0x100 EXP SWAP1 DIV PUSH16 0xFFFFFFFFFFFFFFFFFFFFFFFFFFFFFFFF AND PUSH16 0xFFFFFFFFFFFFFFFFFFFFFFFFFFFFFFFF AND DUP4 PUSH2 0x214F SWAP1 SWAP2 SWAP1 PUSH4 0xFFFFFFFF AND JUMP JUMPDEST PUSH2 0x281E DUP6 DUP5 PUSH2 0x214F SWAP1 SWAP2 SWAP1 PUSH4 0xFFFFFFFF AND JUMP JUMPDEST PUSH2 0x2828 SWAP2 SWAP1 PUSH2 0x43F4 JUMP JUMPDEST SWAP1 POP PUSH2 0x2833 DUP5 PUSH2 0x2290 JUMP JUMPDEST PUSH1 0x34 PUSH0 DUP10 PUSH20 0xFFFFFFFFFFFFFFFFFFFFFFFFFFFFFFFFFFFFFFFF AND PUSH20 0xFFFFFFFFFFFFFFFFFFFFFFFFFFFFFFFFFFFFFFFF AND DUP2 MSTORE PUSH1 0x20 ADD SWAP1 DUP2 MSTORE PUSH1 0x20 ADD PUSH0 KECCAK256 PUSH0 ADD PUSH1 0x10 PUSH2 0x100 EXP DUP2 SLOAD DUP2 PUSH16 0xFFFFFFFFFFFFFFFFFFFFFFFFFFFFFFFF MUL NOT AND SWAP1 DUP4 PUSH16 0xFFFFFFFFFFFFFFFFFFFFFFFFFFFFFFFF AND MUL OR SWAP1 SSTORE POP PUSH2 0x28BA DUP8 PUSH2 0x28B5 DUP6 PUSH2 0x2290 JUMP JUMPDEST PUSH2 0x2F9C JUMP JUMPDEST DUP5 DUP2 GT ISZERO PUSH2 0x29A5 JUMPI PUSH0 DUP6 DUP3 PUSH2 0x28CF SWAP2 SWAP1 PUSH2 0x43F4 JUMP JUMPDEST SWAP1 POP DUP8 PUSH20 0xFFFFFFFFFFFFFFFFFFFFFFFFFFFFFFFFFFFFFFFF AND PUSH0 PUSH20 0xFFFFFFFFFFFFFFFFFFFFFFFFFFFFFFFFFFFFFFFF AND PUSH32 0xDDF252AD1BE2C89B69C2B068FC378DAA952BA7F163C4A11628F55A4DF523B3EF DUP4 PUSH1 0x40 MLOAD PUSH2 0x292E SWAP2 SWAP1 PUSH2 0x3B6F JUMP JUMPDEST PUSH1 0x40 MLOAD DUP1 SWAP2 SUB SWAP1 LOG3 DUP8 PUSH20 0xFFFFFFFFFFFFFFFFFFFFFFFFFFFFFFFFFFFFFFFF AND DUP9 PUSH20 0xFFFFFFFFFFFFFFFFFFFFFFFFFFFFFFFFFFFFFFFF AND PUSH32 0x458F5FA412D0F69B08DD84872B0215675CC67BC1D5B6FD93300A1C3878B86196 DUP4 DUP6 DUP10 PUSH1 0x40 MLOAD PUSH2 0x2997 SWAP4 SWAP3 SWAP2 SWAP1 PUSH2 0x4A11 JUMP JUMPDEST PUSH1 0x40 MLOAD DUP1 SWAP2 SUB SWAP1 LOG3 POP PUSH2 0x2A84 JUMP JUMPDEST PUSH0 DUP2 DUP7 PUSH2 0x29B2 SWAP2 SWAP1 PUSH2 0x43F4 JUMP JUMPDEST SWAP1 POP PUSH0 PUSH20 0xFFFFFFFFFFFFFFFFFFFFFFFFFFFFFFFFFFFFFFFF AND DUP9 PUSH20 0xFFFFFFFFFFFFFFFFFFFFFFFFFFFFFFFFFFFFFFFF AND PUSH32 0xDDF252AD1BE2C89B69C2B068FC378DAA952BA7F163C4A11628F55A4DF523B3EF DUP4 PUSH1 0x40 MLOAD PUSH2 0x2A11 SWAP2 SWAP1 PUSH2 0x3B6F JUMP JUMPDEST PUSH1 0x40 MLOAD DUP1 SWAP2 SUB SWAP1 LOG3 DUP7 PUSH20 0xFFFFFFFFFFFFFFFFFFFFFFFFFFFFFFFFFFFFFFFF AND DUP9 PUSH20 0xFFFFFFFFFFFFFFFFFFFFFFFFFFFFFFFFFFFFFFFF AND PUSH32 0x4CF25BC1D991C17529C25213D3CC0CDA295EEAAD5F13F361969B12EA48015F90 DUP4 DUP6 DUP10 PUSH1 0x40 MLOAD PUSH2 0x2A7A SWAP4 SWAP3 SWAP2 SWAP1 PUSH2 0x4A11 JUMP JUMPDEST PUSH1 0x40 MLOAD DUP1 SWAP2 SUB SWAP1 LOG3 POP JUMPDEST POP POP POP POP POP POP POP JUMP JUMPDEST PUSH0 PUSH1 0x3D PUSH0 SWAP1 SLOAD SWAP1 PUSH2 0x100 EXP SWAP1 DIV PUSH20 0xFFFFFFFFFFFFFFFFFFFFFFFFFFFFFFFFFFFFFFFF AND SWAP1 POP PUSH0 PUSH32 0x0 PUSH20 0xFFFFFFFFFFFFFFFFFFFFFFFFFFFFFFFFFFFFFFFF AND PUSH4 0xD15E0053 DUP4 PUSH1 0x40 MLOAD DUP3 PUSH4 0xFFFFFFFF AND PUSH1 0xE0 SHL DUP2 MSTORE PUSH1 0x4 ADD PUSH2 0x2B0C SWAP2 SWAP1 PUSH2 0x4010 JUMP JUMPDEST PUSH1 0x20 PUSH1 0x40 MLOAD DUP1 DUP4 SUB DUP2 DUP7 GAS STATICCALL ISZERO DUP1 ISZERO PUSH2 0x2B27 JUMPI RETURNDATASIZE PUSH0 DUP1 RETURNDATACOPY RETURNDATASIZE PUSH0 REVERT JUMPDEST POP POP POP POP PUSH1 0x40 MLOAD RETURNDATASIZE PUSH1 0x1F NOT PUSH1 0x1F DUP3 ADD AND DUP3 ADD DUP1 PUSH1 0x40 MSTORE POP DUP2 ADD SWAP1 PUSH2 0x2B4B SWAP2 SWAP1 PUSH2 0x422E JUMP JUMPDEST SWAP1 POP PUSH0 PUSH2 0x2B69 DUP3 PUSH2 0x2B5B DUP10 PUSH2 0x20D1 JUMP JUMPDEST PUSH2 0x214F SWAP1 SWAP2 SWAP1 PUSH4 0xFFFFFFFF AND JUMP JUMPDEST SWAP1 POP PUSH0 PUSH2 0x2B87 DUP4 PUSH2 0x2B79 DUP10 PUSH2 0x20D1 JUMP JUMPDEST PUSH2 0x214F SWAP1 SWAP2 SWAP1 PUSH4 0xFFFFFFFF AND JUMP JUMPDEST SWAP1 POP PUSH2 0x2B95 DUP9 DUP9 DUP9 DUP7 PUSH2 0x316F JUMP JUMPDEST DUP5 ISZERO PUSH2 0x2C2C JUMPI PUSH32 0x0 PUSH20 0xFFFFFFFFFFFFFFFFFFFFFFFFFFFFFFFFFFFFFFFF AND PUSH4 0xD5ED3933 DUP6 DUP11 DUP11 DUP11 DUP8 DUP8 PUSH1 0x40 MLOAD DUP8 PUSH4 0xFFFFFFFF AND PUSH1 0xE0 SHL DUP2 MSTORE PUSH1 0x4 ADD PUSH2 0x2BFE SWAP7 SWAP6 SWAP5 SWAP4 SWAP3 SWAP2 SWAP1 PUSH2 0x4A46 JUMP JUMPDEST PUSH0 PUSH1 0x40 MLOAD DUP1 DUP4 SUB DUP2 PUSH0 DUP8 DUP1 EXTCODESIZE ISZERO DUP1 ISZERO PUSH2 0x2C15 JUMPI PUSH0 DUP1 REVERT JUMPDEST POP GAS CALL ISZERO DUP1 ISZERO PUSH2 0x2C27 JUMPI RETURNDATASIZE PUSH0 DUP1 RETURNDATACOPY RETURNDATASIZE PUSH0 REVERT JUMPDEST POP POP POP POP JUMPDEST DUP7 PUSH20 0xFFFFFFFFFFFFFFFFFFFFFFFFFFFFFFFFFFFFFFFF AND DUP9 PUSH20 0xFFFFFFFFFFFFFFFFFFFFFFFFFFFFFFFFFFFFFFFF AND PUSH32 0x4BECCB90F994C31ACED7A23B5611020728A23D8EC5CDDD1A3E9D97B96FDA8666 PUSH2 0x2C8E DUP7 DUP11 PUSH2 0x2D85 SWAP1 SWAP2 SWAP1 PUSH4 0xFFFFFFFF AND JUMP JUMPDEST DUP7 PUSH1 0x40 MLOAD PUSH2 0x2C9D SWAP3 SWAP2 SWAP1 PUSH2 0x3B48 JUMP JUMPDEST PUSH1 0x40 MLOAD DUP1 SWAP2 SUB SWAP1 LOG3 POP POP POP POP POP POP POP POP JUMP JUMPDEST PUSH1 0x60 PUSH2 0x2CB9 PUSH2 0x6CB JUMP JUMPDEST SWAP1 POP SWAP1 JUMP JUMPDEST PUSH0 PUSH2 0x2CF9 JUMP JUMPDEST PUSH32 0x8C379A000000000000000000000000000000000000000000000000000000000 PUSH0 MSTORE PUSH1 0x20 PUSH1 0x4 MSTORE DUP1 PUSH1 0x24 MSTORE DUP2 PUSH1 0x44 MSTORE PUSH1 0x64 PUSH0 REVERT JUMPDEST RETURNDATASIZE PUSH0 DUP2 EQ PUSH2 0x2D39 JUMPI PUSH1 0x20 DUP2 EQ PUSH2 0x2D74 JUMPI PUSH2 0x2D34 PUSH32 0x475076323A206D616C666F726D6564207472616E7366657220726573756C7400 PUSH1 0x1F PUSH2 0x2CC4 JUMP JUMPDEST PUSH2 0x2D7F JUMP JUMPDEST DUP3 EXTCODESIZE PUSH2 0x2D6B JUMPI PUSH2 0x2D6A PUSH32 0x475076323A206E6F74206120636F6E7472616374000000000000000000000000 PUSH1 0x14 PUSH2 0x2CC4 JUMP JUMPDEST JUMPDEST PUSH1 0x1 SWAP2 POP PUSH2 0x2D7F JUMP JUMPDEST RETURNDATASIZE PUSH0 DUP1 RETURNDATACOPY PUSH0 MLOAD ISZERO ISZERO SWAP2 POP JUMPDEST POP SWAP2 SWAP1 POP JUMP JUMPDEST PUSH0 PUSH12 0x33B2E3C9FD0803CE8000000 PUSH1 0x2 DUP4 DIV PUSH0 NOT SUB DIV DUP4 GT ISZERO ISZERO DUP3 ISZERO OR ISZERO PUSH2 0x2DAB JUMPI PUSH0 DUP1 REVERT JUMPDEST DUP2 PUSH1 0x2 DUP4 DIV PUSH12 0x33B2E3C9FD0803CE8000000 DUP6 MUL ADD DIV SWAP1 POP SWAP3 SWAP2 POP POP JUMP JUMPDEST PUSH0 PUSH1 0x36 SLOAD SWAP1 POP DUP2 PUSH16 0xFFFFFFFFFFFFFFFFFFFFFFFFFFFFFFFF AND DUP2 PUSH2 0x2DED SWAP2 SWAP1 PUSH2 0x4427 JUMP JUMPDEST PUSH1 0x36 DUP2 SWAP1 SSTORE POP PUSH0 PUSH1 0x34 PUSH0 DUP6 PUSH20 0xFFFFFFFFFFFFFFFFFFFFFFFFFFFFFFFFFFFFFFFF AND PUSH20 0xFFFFFFFFFFFFFFFFFFFFFFFFFFFFFFFFFFFFFFFF AND DUP2 MSTORE PUSH1 0x20 ADD SWAP1 DUP2 MSTORE PUSH1 0x20 ADD PUSH0 KECCAK256 PUSH0 ADD PUSH0 SWAP1 SLOAD SWAP1 PUSH2 0x100 EXP SWAP1 DIV PUSH16 0xFFFFFFFFFFFFFFFFFFFFFFFFFFFFFFFF AND SWAP1 POP DUP3 DUP2 PUSH2 0x2E5D SWAP2 SWAP1 PUSH2 0x4AC0 JUMP JUMPDEST PUSH1 0x34 PUSH0 DUP7 PUSH20 0xFFFFFFFFFFFFFFFFFFFFFFFFFFFFFFFFFFFFFFFF AND PUSH20 0xFFFFFFFFFFFFFFFFFFFFFFFFFFFFFFFFFFFFFFFF AND DUP2 MSTORE PUSH1 0x20 ADD SWAP1 DUP2 MSTORE PUSH1 0x20 ADD PUSH0 KECCAK256 PUSH0 ADD PUSH0 PUSH2 0x100 EXP DUP2 SLOAD DUP2 PUSH16 0xFFFFFFFFFFFFFFFFFFFFFFFFFFFFFFFF MUL NOT AND SWAP1 DUP4 PUSH16 0xFFFFFFFFFFFFFFFFFFFFFFFFFFFFFFFF AND MUL OR SWAP1 SSTORE POP PUSH0 PUSH1 0x39 PUSH1 0x1 SWAP1 SLOAD SWAP1 PUSH2 0x100 EXP SWAP1 DIV PUSH20 0xFFFFFFFFFFFFFFFFFFFFFFFFFFFFFFFFFFFFFFFF AND SWAP1 POP PUSH0 PUSH20 0xFFFFFFFFFFFFFFFFFFFFFFFFFFFFFFFFFFFFFFFF AND DUP2 PUSH20 0xFFFFFFFFFFFFFFFFFFFFFFFFFFFFFFFFFFFFFFFF AND EQ PUSH2 0x2F95 JUMPI DUP1 PUSH20 0xFFFFFFFFFFFFFFFFFFFFFFFFFFFFFFFFFFFFFFFF AND PUSH4 0x31873E2E DUP7 DUP6 DUP6 PUSH1 0x40 MLOAD DUP5 PUSH4 0xFFFFFFFF AND PUSH1 0xE0 SHL DUP2 MSTORE PUSH1 0x4 ADD PUSH2 0x2F67 SWAP4 SWAP3 SWAP2 SWAP1 PUSH2 0x4B33 JUMP JUMPDEST PUSH0 PUSH1 0x40 MLOAD DUP1 DUP4 SUB DUP2 PUSH0 DUP8 DUP1 EXTCODESIZE ISZERO DUP1 ISZERO PUSH2 0x2F7E JUMPI PUSH0 DUP1 REVERT JUMPDEST POP GAS CALL ISZERO DUP1 ISZERO PUSH2 0x2F90 JUMPI RETURNDATASIZE PUSH0 DUP1 RETURNDATACOPY RETURNDATASIZE PUSH0 REVERT JUMPDEST POP POP POP POP JUMPDEST POP POP POP POP POP JUMP JUMPDEST PUSH0 PUSH1 0x36 SLOAD SWAP1 POP DUP2 PUSH16 0xFFFFFFFFFFFFFFFFFFFFFFFFFFFFFFFF AND DUP2 PUSH2 0x2FC0 SWAP2 SWAP1 PUSH2 0x43F4 JUMP JUMPDEST PUSH1 0x36 DUP2 SWAP1 SSTORE POP PUSH0 PUSH1 0x34 PUSH0 DUP6 PUSH20 0xFFFFFFFFFFFFFFFFFFFFFFFFFFFFFFFFFFFFFFFF AND PUSH20 0xFFFFFFFFFFFFFFFFFFFFFFFFFFFFFFFFFFFFFFFF AND DUP2 MSTORE PUSH1 0x20 ADD SWAP1 DUP2 MSTORE PUSH1 0x20 ADD PUSH0 KECCAK256 PUSH0 ADD PUSH0 SWAP1 SLOAD SWAP1 PUSH2 0x100 EXP SWAP1 DIV PUSH16 0xFFFFFFFFFFFFFFFFFFFFFFFFFFFFFFFF AND SWAP1 POP DUP3 DUP2 PUSH2 0x3030 SWAP2 SWAP1 PUSH2 0x4B68 JUMP JUMPDEST PUSH1 0x34 PUSH0 DUP7 PUSH20 0xFFFFFFFFFFFFFFFFFFFFFFFFFFFFFFFFFFFFFFFF AND PUSH20 0xFFFFFFFFFFFFFFFFFFFFFFFFFFFFFFFFFFFFFFFF AND DUP2 MSTORE PUSH1 0x20 ADD SWAP1 DUP2 MSTORE PUSH1 0x20 ADD PUSH0 KECCAK256 PUSH0 ADD PUSH0 PUSH2 0x100 EXP DUP2 SLOAD DUP2 PUSH16 0xFFFFFFFFFFFFFFFFFFFFFFFFFFFFFFFF MUL NOT AND SWAP1 DUP4 PUSH16 0xFFFFFFFFFFFFFFFFFFFFFFFFFFFFFFFF AND MUL OR SWAP1 SSTORE POP PUSH0 PUSH1 0x39 PUSH1 0x1 SWAP1 SLOAD SWAP1 PUSH2 0x100 EXP SWAP1 DIV PUSH20 0xFFFFFFFFFFFFFFFFFFFFFFFFFFFFFFFFFFFFFFFF AND SWAP1 POP PUSH0 PUSH20 0xFFFFFFFFFFFFFFFFFFFFFFFFFFFFFFFFFFFFFFFF AND DUP2 PUSH20 0xFFFFFFFFFFFFFFFFFFFFFFFFFFFFFFFFFFFFFFFF AND EQ PUSH2 0x3168 JUMPI DUP1 PUSH20 0xFFFFFFFFFFFFFFFFFFFFFFFFFFFFFFFFFFFFFFFF AND PUSH4 0x31873E2E DUP7 DUP6 DUP6 PUSH1 0x40 MLOAD DUP5 PUSH4 0xFFFFFFFF AND PUSH1 0xE0 SHL DUP2 MSTORE PUSH1 0x4 ADD PUSH2 0x313A SWAP4 SWAP3 SWAP2 SWAP1 PUSH2 0x4B33 JUMP JUMPDEST PUSH0 PUSH1 0x40 MLOAD DUP1 DUP4 SUB DUP2 PUSH0 DUP8 DUP1 EXTCODESIZE ISZERO DUP1 ISZERO PUSH2 0x3151 JUMPI PUSH0 DUP1 REVERT JUMPDEST POP GAS CALL ISZERO DUP1 ISZERO PUSH2 0x3163 JUMPI RETURNDATASIZE PUSH0 DUP1 RETURNDATACOPY RETURNDATASIZE PUSH0 REVERT JUMPDEST POP POP POP POP JUMPDEST POP POP POP POP POP JUMP JUMPDEST PUSH0 PUSH2 0x3179 DUP6 PUSH2 0x20D1 JUMP JUMPDEST SWAP1 POP PUSH0 PUSH2 0x31FC PUSH1 0x34 PUSH0 DUP9 PUSH20 0xFFFFFFFFFFFFFFFFFFFFFFFFFFFFFFFFFFFFFFFF AND PUSH20 0xFFFFFFFFFFFFFFFFFFFFFFFFFFFFFFFFFFFFFFFF AND DUP2 MSTORE PUSH1 0x20 ADD SWAP1 DUP2 MSTORE PUSH1 0x20 ADD PUSH0 KECCAK256 PUSH0 ADD PUSH1 0x10 SWAP1 SLOAD SWAP1 PUSH2 0x100 EXP SWAP1 DIV PUSH16 0xFFFFFFFFFFFFFFFFFFFFFFFFFFFFFFFF AND PUSH16 0xFFFFFFFFFFFFFFFFFFFFFFFFFFFFFFFF AND DUP4 PUSH2 0x214F SWAP1 SWAP2 SWAP1 PUSH4 0xFFFFFFFF AND JUMP JUMPDEST PUSH2 0x320F DUP5 DUP5 PUSH2 0x214F SWAP1 SWAP2 SWAP1 PUSH4 0xFFFFFFFF AND JUMP JUMPDEST PUSH2 0x3219 SWAP2 SWAP1 PUSH2 0x43F4 JUMP JUMPDEST SWAP1 POP PUSH0 PUSH2 0x3225 DUP7 PUSH2 0x20D1 JUMP JUMPDEST SWAP1 POP PUSH0 PUSH2 0x32A8 PUSH1 0x34 PUSH0 DUP10 PUSH20 0xFFFFFFFFFFFFFFFFFFFFFFFFFFFFFFFFFFFFFFFF AND PUSH20 0xFFFFFFFFFFFFFFFFFFFFFFFFFFFFFFFFFFFFFFFF AND DUP2 MSTORE PUSH1 0x20 ADD SWAP1 DUP2 MSTORE PUSH1 0x20 ADD PUSH0 KECCAK256 PUSH0 ADD PUSH1 0x10 SWAP1 SLOAD SWAP1 PUSH2 0x100 EXP SWAP1 DIV PUSH16 0xFFFFFFFFFFFFFFFFFFFFFFFFFFFFFFFF AND PUSH16 0xFFFFFFFFFFFFFFFFFFFFFFFFFFFFFFFF AND DUP4 PUSH2 0x214F SWAP1 SWAP2 SWAP1 PUSH4 0xFFFFFFFF AND JUMP JUMPDEST PUSH2 0x32BB DUP7 DUP5 PUSH2 0x214F SWAP1 SWAP2 SWAP1 PUSH4 0xFFFFFFFF AND JUMP JUMPDEST PUSH2 0x32C5 SWAP2 SWAP1 PUSH2 0x43F4 JUMP JUMPDEST SWAP1 POP PUSH2 0x32D0 DUP6 PUSH2 0x2290 JUMP JUMPDEST PUSH1 0x34 PUSH0 DUP11 PUSH20 0xFFFFFFFFFFFFFFFFFFFFFFFFFFFFFFFFFFFFFFFF AND PUSH20 0xFFFFFFFFFFFFFFFFFFFFFFFFFFFFFFFFFFFFFFFF AND DUP2 MSTORE PUSH1 0x20 ADD SWAP1 DUP2 MSTORE PUSH1 0x20 ADD PUSH0 KECCAK256 PUSH0 ADD PUSH1 0x10 PUSH2 0x100 EXP DUP2 SLOAD DUP2 PUSH16 0xFFFFFFFFFFFFFFFFFFFFFFFFFFFFFFFF MUL NOT AND SWAP1 DUP4 PUSH16 0xFFFFFFFFFFFFFFFFFFFFFFFFFFFFFFFF AND MUL OR SWAP1 SSTORE POP PUSH2 0x334E DUP6 PUSH2 0x2290 JUMP JUMPDEST PUSH1 0x34 PUSH0 DUP10 PUSH20 0xFFFFFFFFFFFFFFFFFFFFFFFFFFFFFFFFFFFFFFFF AND PUSH20 0xFFFFFFFFFFFFFFFFFFFFFFFFFFFFFFFFFFFFFFFF AND DUP2 MSTORE PUSH1 0x20 ADD SWAP1 DUP2 MSTORE PUSH1 0x20 ADD PUSH0 KECCAK256 PUSH0 ADD PUSH1 0x10 PUSH2 0x100 EXP DUP2 SLOAD DUP2 PUSH16 0xFFFFFFFFFFFFFFFFFFFFFFFFFFFFFFFF MUL NOT AND SWAP1 DUP4 PUSH16 0xFFFFFFFFFFFFFFFFFFFFFFFFFFFFFFFF AND MUL OR SWAP1 SSTORE POP PUSH2 0x33E8 DUP9 DUP9 PUSH2 0x33E3 PUSH2 0x33DE DUP10 DUP12 PUSH2 0x2D85 SWAP1 SWAP2 SWAP1 PUSH4 0xFFFFFFFF AND JUMP JUMPDEST PUSH2 0x2290 JUMP JUMPDEST PUSH2 0x364B JUMP JUMPDEST PUSH0 DUP4 GT ISZERO PUSH2 0x34C6 JUMPI DUP8 PUSH20 0xFFFFFFFFFFFFFFFFFFFFFFFFFFFFFFFFFFFFFFFF AND PUSH0 PUSH20 0xFFFFFFFFFFFFFFFFFFFFFFFFFFFFFFFFFFFFFFFF AND PUSH32 0xDDF252AD1BE2C89B69C2B068FC378DAA952BA7F163C4A11628F55A4DF523B3EF DUP6 PUSH1 0x40 MLOAD PUSH2 0x344D SWAP2 SWAP1 PUSH2 0x3B6F JUMP JUMPDEST PUSH1 0x40 MLOAD DUP1 SWAP2 SUB SWAP1 LOG3 DUP8 PUSH20 0xFFFFFFFFFFFFFFFFFFFFFFFFFFFFFFFFFFFFFFFF AND PUSH2 0x3474 PUSH2 0x1FE3 JUMP JUMPDEST PUSH20 0xFFFFFFFFFFFFFFFFFFFFFFFFFFFFFFFFFFFFFFFF AND PUSH32 0x458F5FA412D0F69B08DD84872B0215675CC67BC1D5B6FD93300A1C3878B86196 DUP6 DUP7 DUP10 PUSH1 0x40 MLOAD PUSH2 0x34BD SWAP4 SWAP3 SWAP2 SWAP1 PUSH2 0x4A11 JUMP JUMPDEST PUSH1 0x40 MLOAD DUP1 SWAP2 SUB SWAP1 LOG3 JUMPDEST DUP7 PUSH20 0xFFFFFFFFFFFFFFFFFFFFFFFFFFFFFFFFFFFFFFFF AND DUP9 PUSH20 0xFFFFFFFFFFFFFFFFFFFFFFFFFFFFFFFFFFFFFFFF AND EQ ISZERO DUP1 ISZERO PUSH2 0x3501 JUMPI POP PUSH0 DUP2 GT JUMPDEST ISZERO PUSH2 0x35DC JUMPI DUP7 PUSH20 0xFFFFFFFFFFFFFFFFFFFFFFFFFFFFFFFFFFFFFFFF AND PUSH0 PUSH20 0xFFFFFFFFFFFFFFFFFFFFFFFFFFFFFFFFFFFFFFFF AND PUSH32 0xDDF252AD1BE2C89B69C2B068FC378DAA952BA7F163C4A11628F55A4DF523B3EF DUP4 PUSH1 0x40 MLOAD PUSH2 0x3563 SWAP2 SWAP1 PUSH2 0x3B6F JUMP JUMPDEST PUSH1 0x40 MLOAD DUP1 SWAP2 SUB SWAP1 LOG3 DUP7 PUSH20 0xFFFFFFFFFFFFFFFFFFFFFFFFFFFFFFFFFFFFFFFF AND PUSH2 0x358A PUSH2 0x1FE3 JUMP JUMPDEST PUSH20 0xFFFFFFFFFFFFFFFFFFFFFFFFFFFFFFFFFFFFFFFF AND PUSH32 0x458F5FA412D0F69B08DD84872B0215675CC67BC1D5B6FD93300A1C3878B86196 DUP4 DUP5 DUP10 PUSH1 0x40 MLOAD PUSH2 0x35D3 SWAP4 SWAP3 SWAP2 SWAP1 PUSH2 0x4A11 JUMP JUMPDEST PUSH1 0x40 MLOAD DUP1 SWAP2 SUB SWAP1 LOG3 JUMPDEST DUP7 PUSH20 0xFFFFFFFFFFFFFFFFFFFFFFFFFFFFFFFFFFFFFFFF AND DUP9 PUSH20 0xFFFFFFFFFFFFFFFFFFFFFFFFFFFFFFFFFFFFFFFF AND PUSH32 0xDDF252AD1BE2C89B69C2B068FC378DAA952BA7F163C4A11628F55A4DF523B3EF DUP9 PUSH1 0x40 MLOAD PUSH2 0x3639 SWAP2 SWAP1 PUSH2 0x3B6F JUMP JUMPDEST PUSH1 0x40 MLOAD DUP1 SWAP2 SUB SWAP1 LOG3 POP POP POP POP POP POP POP POP JUMP JUMPDEST PUSH0 PUSH1 0x34 PUSH0 DUP6 PUSH20 0xFFFFFFFFFFFFFFFFFFFFFFFFFFFFFFFFFFFFFFFF AND PUSH20 0xFFFFFFFFFFFFFFFFFFFFFFFFFFFFFFFFFFFFFFFF AND DUP2 MSTORE PUSH1 0x20 ADD SWAP1 DUP2 MSTORE PUSH1 0x20 ADD PUSH0 KECCAK256 PUSH0 ADD PUSH0 SWAP1 SLOAD SWAP1 PUSH2 0x100 EXP SWAP1 DIV PUSH16 0xFFFFFFFFFFFFFFFFFFFFFFFFFFFFFFFF AND SWAP1 POP DUP2 DUP2 PUSH2 0x36B5 SWAP2 SWAP1 PUSH2 0x4B68 JUMP JUMPDEST PUSH1 0x34 PUSH0 DUP7 PUSH20 0xFFFFFFFFFFFFFFFFFFFFFFFFFFFFFFFFFFFFFFFF AND PUSH20 0xFFFFFFFFFFFFFFFFFFFFFFFFFFFFFFFFFFFFFFFF AND DUP2 MSTORE PUSH1 0x20 ADD SWAP1 DUP2 MSTORE PUSH1 0x20 ADD PUSH0 KECCAK256 PUSH0 ADD PUSH0 PUSH2 0x100 EXP DUP2 SLOAD DUP2 PUSH16 0xFFFFFFFFFFFFFFFFFFFFFFFFFFFFFFFF MUL NOT AND SWAP1 DUP4 PUSH16 0xFFFFFFFFFFFFFFFFFFFFFFFFFFFFFFFF AND MUL OR SWAP1 SSTORE POP PUSH0 PUSH1 0x34 PUSH0 DUP6 PUSH20 0xFFFFFFFFFFFFFFFFFFFFFFFFFFFFFFFFFFFFFFFF AND PUSH20 0xFFFFFFFFFFFFFFFFFFFFFFFFFFFFFFFFFFFFFFFF AND DUP2 MSTORE PUSH1 0x20 ADD SWAP1 DUP2 MSTORE PUSH1 0x20 ADD PUSH0 KECCAK256 PUSH0 ADD PUSH0 SWAP1 SLOAD SWAP1 PUSH2 0x100 EXP SWAP1 DIV PUSH16 0xFFFFFFFFFFFFFFFFFFFFFFFFFFFFFFFF AND SWAP1 POP DUP3 DUP2 PUSH2 0x3793 SWAP2 SWAP1 PUSH2 0x4AC0 JUMP JUMPDEST PUSH1 0x34 PUSH0 DUP7 PUSH20 0xFFFFFFFFFFFFFFFFFFFFFFFFFFFFFFFFFFFFFFFF AND PUSH20 0xFFFFFFFFFFFFFFFFFFFFFFFFFFFFFFFFFFFFFFFF AND DUP2 MSTORE PUSH1 0x20 ADD SWAP1 DUP2 MSTORE PUSH1 0x20 ADD PUSH0 KECCAK256 PUSH0 ADD PUSH0 PUSH2 0x100 EXP DUP2 SLOAD DUP2 PUSH16 0xFFFFFFFFFFFFFFFFFFFFFFFFFFFFFFFF MUL NOT AND SWAP1 DUP4 PUSH16 0xFFFFFFFFFFFFFFFFFFFFFFFFFFFFFFFF AND MUL OR SWAP1 SSTORE POP PUSH0 PUSH1 0x39 PUSH1 0x1 SWAP1 SLOAD SWAP1 PUSH2 0x100 EXP SWAP1 DIV PUSH20 0xFFFFFFFFFFFFFFFFFFFFFFFFFFFFFFFFFFFFFFFF AND SWAP1 POP PUSH0 PUSH20 0xFFFFFFFFFFFFFFFFFFFFFFFFFFFFFFFFFFFFFFFF AND DUP2 PUSH20 0xFFFFFFFFFFFFFFFFFFFFFFFFFFFFFFFFFFFFFFFF AND EQ PUSH2 0x3970 JUMPI PUSH0 PUSH1 0x36 SLOAD SWAP1 POP DUP2 PUSH20 0xFFFFFFFFFFFFFFFFFFFFFFFFFFFFFFFFFFFFFFFF AND PUSH4 0x31873E2E DUP9 DUP4 DUP8 PUSH1 0x40 MLOAD DUP5 PUSH4 0xFFFFFFFF AND PUSH1 0xE0 SHL DUP2 MSTORE PUSH1 0x4 ADD PUSH2 0x38A3 SWAP4 SWAP3 SWAP2 SWAP1 PUSH2 0x4B33 JUMP JUMPDEST PUSH0 PUSH1 0x40 MLOAD DUP1 DUP4 SUB DUP2 PUSH0 DUP8 DUP1 EXTCODESIZE ISZERO DUP1 ISZERO PUSH2 0x38BA JUMPI PUSH0 DUP1 REVERT JUMPDEST POP GAS CALL ISZERO DUP1 ISZERO PUSH2 0x38CC JUMPI RETURNDATASIZE PUSH0 DUP1 RETURNDATACOPY RETURNDATASIZE PUSH0 REVERT JUMPDEST POP POP POP POP DUP6 PUSH20 0xFFFFFFFFFFFFFFFFFFFFFFFFFFFFFFFFFFFFFFFF AND DUP8 PUSH20 0xFFFFFFFFFFFFFFFFFFFFFFFFFFFFFFFFFFFFFFFF AND EQ PUSH2 0x396E JUMPI DUP2 PUSH20 0xFFFFFFFFFFFFFFFFFFFFFFFFFFFFFFFFFFFFFFFF AND PUSH4 0x31873E2E DUP8 DUP4 DUP7 PUSH1 0x40 MLOAD DUP5 PUSH4 0xFFFFFFFF AND PUSH1 0xE0 SHL DUP2 MSTORE PUSH1 0x4 ADD PUSH2 0x3940 SWAP4 SWAP3 SWAP2 SWAP1 PUSH2 0x4B33 JUMP JUMPDEST PUSH0 PUSH1 0x40 MLOAD DUP1 DUP4 SUB DUP2 PUSH0 DUP8 DUP1 EXTCODESIZE ISZERO DUP1 ISZERO PUSH2 0x3957 JUMPI PUSH0 DUP1 REVERT JUMPDEST POP GAS CALL ISZERO DUP1 ISZERO PUSH2 0x3969 JUMPI RETURNDATASIZE PUSH0 DUP1 RETURNDATACOPY RETURNDATASIZE PUSH0 REVERT JUMPDEST POP POP POP POP JUMPDEST POP JUMPDEST POP POP POP POP POP POP JUMP JUMPDEST PUSH0 DUP2 MLOAD SWAP1 POP SWAP2 SWAP1 POP JUMP JUMPDEST PUSH0 DUP3 DUP3 MSTORE PUSH1 0x20 DUP3 ADD SWAP1 POP SWAP3 SWAP2 POP POP JUMP JUMPDEST DUP3 DUP2 DUP4 MCOPY PUSH0 DUP4 DUP4 ADD MSTORE POP POP POP JUMP JUMPDEST PUSH0 PUSH1 0x1F NOT PUSH1 0x1F DUP4 ADD AND SWAP1 POP SWAP2 SWAP1 POP JUMP JUMPDEST PUSH0 PUSH2 0x39BA DUP3 PUSH2 0x3978 JUMP JUMPDEST PUSH2 0x39C4 DUP2 DUP6 PUSH2 0x3982 JUMP JUMPDEST SWAP4 POP PUSH2 0x39D4 DUP2 DUP6 PUSH1 0x20 DUP7 ADD PUSH2 0x3992 JUMP JUMPDEST PUSH2 0x39DD DUP2 PUSH2 0x39A0 JUMP JUMPDEST DUP5 ADD SWAP2 POP POP SWAP3 SWAP2 POP POP JUMP JUMPDEST PUSH0 PUSH1 0x20 DUP3 ADD SWAP1 POP DUP2 DUP2 SUB PUSH0 DUP4 ADD MSTORE PUSH2 0x3A00 DUP2 DUP5 PUSH2 0x39B0 JUMP JUMPDEST SWAP1 POP SWAP3 SWAP2 POP POP JUMP JUMPDEST PUSH0 DUP1 REVERT JUMPDEST PUSH0 DUP1 REVERT JUMPDEST PUSH0 PUSH20 0xFFFFFFFFFFFFFFFFFFFFFFFFFFFFFFFFFFFFFFFF DUP3 AND SWAP1 POP SWAP2 SWAP1 POP JUMP JUMPDEST PUSH0 PUSH2 0x3A39 DUP3 PUSH2 0x3A10 JUMP JUMPDEST SWAP1 POP SWAP2 SWAP1 POP JUMP JUMPDEST PUSH2 0x3A49 DUP2 PUSH2 0x3A2F JUMP JUMPDEST DUP2 EQ PUSH2 0x3A53 JUMPI PUSH0 DUP1 REVERT JUMPDEST POP JUMP JUMPDEST PUSH0 DUP2 CALLDATALOAD SWAP1 POP PUSH2 0x3A64 DUP2 PUSH2 0x3A40 JUMP JUMPDEST SWAP3 SWAP2 POP POP JUMP JUMPDEST PUSH0 DUP2 SWAP1 POP SWAP2 SWAP1 POP JUMP JUMPDEST PUSH2 0x3A7C DUP2 PUSH2 0x3A6A JUMP JUMPDEST DUP2 EQ PUSH2 0x3A86 JUMPI PUSH0 DUP1 REVERT JUMPDEST POP JUMP JUMPDEST PUSH0 DUP2 CALLDATALOAD SWAP1 POP PUSH2 0x3A97 DUP2 PUSH2 0x3A73 JUMP JUMPDEST SWAP3 SWAP2 POP POP JUMP JUMPDEST PUSH0 DUP1 PUSH1 0x40 DUP4 DUP6 SUB SLT ISZERO PUSH2 0x3AB3 JUMPI PUSH2 0x3AB2 PUSH2 0x3A08 JUMP JUMPDEST JUMPDEST PUSH0 PUSH2 0x3AC0 DUP6 DUP3 DUP7 ADD PUSH2 0x3A56 JUMP JUMPDEST SWAP3 POP POP PUSH1 0x20 PUSH2 0x3AD1 DUP6 DUP3 DUP7 ADD PUSH2 0x3A89 JUMP JUMPDEST SWAP2 POP POP SWAP3 POP SWAP3 SWAP1 POP JUMP JUMPDEST PUSH0 DUP2 ISZERO ISZERO SWAP1 POP SWAP2 SWAP1 POP JUMP JUMPDEST PUSH2 0x3AEF DUP2 PUSH2 0x3ADB JUMP JUMPDEST DUP3 MSTORE POP POP JUMP JUMPDEST PUSH0 PUSH1 0x20 DUP3 ADD SWAP1 POP PUSH2 0x3B08 PUSH0 DUP4 ADD DUP5 PUSH2 0x3AE6 JUMP JUMPDEST SWAP3 SWAP2 POP POP JUMP JUMPDEST PUSH0 PUSH1 0x20 DUP3 DUP5 SUB SLT ISZERO PUSH2 0x3B23 JUMPI PUSH2 0x3B22 PUSH2 0x3A08 JUMP JUMPDEST JUMPDEST PUSH0 PUSH2 0x3B30 DUP5 DUP3 DUP6 ADD PUSH2 0x3A56 JUMP JUMPDEST SWAP2 POP POP SWAP3 SWAP2 POP POP JUMP JUMPDEST PUSH2 0x3B42 DUP2 PUSH2 0x3A6A JUMP JUMPDEST DUP3 MSTORE POP POP JUMP JUMPDEST PUSH0 PUSH1 0x40 DUP3 ADD SWAP1 POP PUSH2 0x3B5B PUSH0 DUP4 ADD DUP6 PUSH2 0x3B39 JUMP JUMPDEST PUSH2 0x3B68 PUSH1 0x20 DUP4 ADD DUP5 PUSH2 0x3B39 JUMP JUMPDEST SWAP4 SWAP3 POP POP POP JUMP JUMPDEST PUSH0 PUSH1 0x20 DUP3 ADD SWAP1 POP PUSH2 0x3B82 PUSH0 DUP4 ADD DUP5 PUSH2 0x3B39 JUMP JUMPDEST SWAP3 SWAP2 POP POP JUMP JUMPDEST PUSH0 PUSH2 0x3B92 DUP3 PUSH2 0x3A2F JUMP JUMPDEST SWAP1 POP SWAP2 SWAP1 POP JUMP JUMPDEST PUSH2 0x3BA2 DUP2 PUSH2 0x3B88 JUMP JUMPDEST DUP2 EQ PUSH2 0x3BAC JUMPI PUSH0 DUP1 REVERT JUMPDEST POP JUMP JUMPDEST PUSH0 DUP2 CALLDATALOAD SWAP1 POP PUSH2 0x3BBD DUP2 PUSH2 0x3B99 JUMP JUMPDEST SWAP3 SWAP2 POP POP JUMP JUMPDEST PUSH0 PUSH2 0x3BCD DUP3 PUSH2 0x3A2F JUMP JUMPDEST SWAP1 POP SWAP2 SWAP1 POP JUMP JUMPDEST PUSH2 0x3BDD DUP2 PUSH2 0x3BC3 JUMP JUMPDEST DUP2 EQ PUSH2 0x3BE7 JUMPI PUSH0 DUP1 REVERT JUMPDEST POP JUMP JUMPDEST PUSH0 DUP2 CALLDATALOAD SWAP1 POP PUSH2 0x3BF8 DUP2 PUSH2 0x3BD4 JUMP JUMPDEST SWAP3 SWAP2 POP POP JUMP JUMPDEST PUSH0 PUSH1 0xFF DUP3 AND SWAP1 POP SWAP2 SWAP1 POP JUMP JUMPDEST PUSH2 0x3C13 DUP2 PUSH2 0x3BFE JUMP JUMPDEST DUP2 EQ PUSH2 0x3C1D JUMPI PUSH0 DUP1 REVERT JUMPDEST POP JUMP JUMPDEST PUSH0 DUP2 CALLDATALOAD SWAP1 POP PUSH2 0x3C2E DUP2 PUSH2 0x3C0A JUMP JUMPDEST SWAP3 SWAP2 POP POP JUMP JUMPDEST PUSH0 DUP1 REVERT JUMPDEST PUSH0 DUP1 REVERT JUMPDEST PUSH0 DUP1 REVERT JUMPDEST PUSH0 DUP1 DUP4 PUSH1 0x1F DUP5 ADD SLT PUSH2 0x3C55 JUMPI PUSH2 0x3C54 PUSH2 0x3C34 JUMP JUMPDEST JUMPDEST DUP3 CALLDATALOAD SWAP1 POP PUSH8 0xFFFFFFFFFFFFFFFF DUP2 GT ISZERO PUSH2 0x3C72 JUMPI PUSH2 0x3C71 PUSH2 0x3C38 JUMP JUMPDEST JUMPDEST PUSH1 0x20 DUP4 ADD SWAP2 POP DUP4 PUSH1 0x1 DUP3 MUL DUP4 ADD GT ISZERO PUSH2 0x3C8E JUMPI PUSH2 0x3C8D PUSH2 0x3C3C JUMP JUMPDEST JUMPDEST SWAP3 POP SWAP3 SWAP1 POP JUMP JUMPDEST PUSH0 DUP1 DUP4 PUSH1 0x1F DUP5 ADD SLT PUSH2 0x3CAA JUMPI PUSH2 0x3CA9 PUSH2 0x3C34 JUMP JUMPDEST JUMPDEST DUP3 CALLDATALOAD SWAP1 POP PUSH8 0xFFFFFFFFFFFFFFFF DUP2 GT ISZERO PUSH2 0x3CC7 JUMPI PUSH2 0x3CC6 PUSH2 0x3C38 JUMP JUMPDEST JUMPDEST PUSH1 0x20 DUP4 ADD SWAP2 POP DUP4 PUSH1 0x1 DUP3 MUL DUP4 ADD GT ISZERO PUSH2 0x3CE3 JUMPI PUSH2 0x3CE2 PUSH2 0x3C3C JUMP JUMPDEST JUMPDEST SWAP3 POP SWAP3 SWAP1 POP JUMP JUMPDEST PUSH0 DUP1 PUSH0 DUP1 PUSH0 DUP1 PUSH0 DUP1 PUSH0 DUP1 PUSH0 PUSH2 0x100 DUP13 DUP15 SUB SLT ISZERO PUSH2 0x3D0A JUMPI PUSH2 0x3D09 PUSH2 0x3A08 JUMP JUMPDEST JUMPDEST PUSH0 PUSH2 0x3D17 DUP15 DUP3 DUP16 ADD PUSH2 0x3BAF JUMP JUMPDEST SWAP12 POP POP PUSH1 0x20 PUSH2 0x3D28 DUP15 DUP3 DUP16 ADD PUSH2 0x3A56 JUMP JUMPDEST SWAP11 POP POP PUSH1 0x40 PUSH2 0x3D39 DUP15 DUP3 DUP16 ADD PUSH2 0x3A56 JUMP JUMPDEST SWAP10 POP POP PUSH1 0x60 PUSH2 0x3D4A DUP15 DUP3 DUP16 ADD PUSH2 0x3BEA JUMP JUMPDEST SWAP9 POP POP PUSH1 0x80 PUSH2 0x3D5B DUP15 DUP3 DUP16 ADD PUSH2 0x3C20 JUMP JUMPDEST SWAP8 POP POP PUSH1 0xA0 DUP13 ADD CALLDATALOAD PUSH8 0xFFFFFFFFFFFFFFFF DUP2 GT ISZERO PUSH2 0x3D7C JUMPI PUSH2 0x3D7B PUSH2 0x3A0C JUMP JUMPDEST JUMPDEST PUSH2 0x3D88 DUP15 DUP3 DUP16 ADD PUSH2 0x3C40 JUMP JUMPDEST SWAP7 POP SWAP7 POP POP PUSH1 0xC0 DUP13 ADD CALLDATALOAD PUSH8 0xFFFFFFFFFFFFFFFF DUP2 GT ISZERO PUSH2 0x3DAB JUMPI PUSH2 0x3DAA PUSH2 0x3A0C JUMP JUMPDEST JUMPDEST PUSH2 0x3DB7 DUP15 DUP3 DUP16 ADD PUSH2 0x3C40 JUMP JUMPDEST SWAP5 POP SWAP5 POP POP PUSH1 0xE0 DUP13 ADD CALLDATALOAD PUSH8 0xFFFFFFFFFFFFFFFF DUP2 GT ISZERO PUSH2 0x3DDA JUMPI PUSH2 0x3DD9 PUSH2 0x3A0C JUMP JUMPDEST JUMPDEST PUSH2 0x3DE6 DUP15 DUP3 DUP16 ADD PUSH2 0x3C95 JUMP JUMPDEST SWAP3 POP SWAP3 POP POP SWAP3 SWAP6 SWAP9 SWAP12 POP SWAP3 SWAP6 SWAP9 SWAP12 SWAP1 SWAP4 SWAP7 SWAP10 POP JUMP JUMPDEST PUSH0 DUP1 PUSH0 PUSH1 0x60 DUP5 DUP7 SUB SLT ISZERO PUSH2 0x3E12 JUMPI PUSH2 0x3E11 PUSH2 0x3A08 JUMP JUMPDEST JUMPDEST PUSH0 PUSH2 0x3E1F DUP7 DUP3 DUP8 ADD PUSH2 0x3A56 JUMP JUMPDEST SWAP4 POP POP PUSH1 0x20 PUSH2 0x3E30 DUP7 DUP3 DUP8 ADD PUSH2 0x3A56 JUMP JUMPDEST SWAP3 POP POP PUSH1 0x40 PUSH2 0x3E41 DUP7 DUP3 DUP8 ADD PUSH2 0x3A89 JUMP JUMPDEST SWAP2 POP POP SWAP3 POP SWAP3 POP SWAP3 JUMP JUMPDEST PUSH0 DUP2 SWAP1 POP SWAP2 SWAP1 POP JUMP JUMPDEST PUSH2 0x3E5D DUP2 PUSH2 0x3E4B JUMP JUMPDEST DUP3 MSTORE POP POP JUMP JUMPDEST PUSH0 PUSH1 0x20 DUP3 ADD SWAP1 POP PUSH2 0x3E76 PUSH0 DUP4 ADD DUP5 PUSH2 0x3E54 JUMP JUMPDEST SWAP3 SWAP2 POP POP JUMP JUMPDEST PUSH2 0x3E85 DUP2 PUSH2 0x3BFE JUMP JUMPDEST DUP3 MSTORE POP POP JUMP JUMPDEST PUSH0 PUSH1 0x20 DUP3 ADD SWAP1 POP PUSH2 0x3E9E PUSH0 DUP4 ADD DUP5 PUSH2 0x3E7C JUMP JUMPDEST SWAP3 SWAP2 POP POP JUMP JUMPDEST PUSH0 DUP2 SWAP1 POP SWAP2 SWAP1 POP JUMP JUMPDEST PUSH0 PUSH2 0x3EC7 PUSH2 0x3EC2 PUSH2 0x3EBD DUP5 PUSH2 0x3A10 JUMP JUMPDEST PUSH2 0x3EA4 JUMP JUMPDEST PUSH2 0x3A10 JUMP JUMPDEST SWAP1 POP SWAP2 SWAP1 POP JUMP JUMPDEST PUSH0 PUSH2 0x3ED8 DUP3 PUSH2 0x3EAD JUMP JUMPDEST SWAP1 POP SWAP2 SWAP1 POP JUMP JUMPDEST PUSH0 PUSH2 0x3EE9 DUP3 PUSH2 0x3ECE JUMP JUMPDEST SWAP1 POP SWAP2 SWAP1 POP JUMP JUMPDEST PUSH2 0x3EF9 DUP2 PUSH2 0x3EDF JUMP JUMPDEST DUP3 MSTORE POP POP JUMP JUMPDEST PUSH0 PUSH1 0x20 DUP3 ADD SWAP1 POP PUSH2 0x3F12 PUSH0 DUP4 ADD DUP5 PUSH2 0x3EF0 JUMP JUMPDEST SWAP3 SWAP2 POP POP JUMP JUMPDEST PUSH0 PUSH2 0x3F22 DUP3 PUSH2 0x3ECE JUMP JUMPDEST SWAP1 POP SWAP2 SWAP1 POP JUMP JUMPDEST PUSH2 0x3F32 DUP2 PUSH2 0x3F18 JUMP JUMPDEST DUP3 MSTORE POP POP JUMP JUMPDEST PUSH0 PUSH1 0x20 DUP3 ADD SWAP1 POP PUSH2 0x3F4B PUSH0 DUP4 ADD DUP5 PUSH2 0x3F29 JUMP JUMPDEST SWAP3 SWAP2 POP POP JUMP JUMPDEST PUSH0 DUP2 MLOAD SWAP1 POP SWAP2 SWAP1 POP JUMP JUMPDEST PUSH0 DUP3 DUP3 MSTORE PUSH1 0x20 DUP3 ADD SWAP1 POP SWAP3 SWAP2 POP POP JUMP JUMPDEST PUSH0 PUSH2 0x3F75 DUP3 PUSH2 0x3F51 JUMP JUMPDEST PUSH2 0x3F7F DUP2 DUP6 PUSH2 0x3F5B JUMP JUMPDEST SWAP4 POP PUSH2 0x3F8F DUP2 DUP6 PUSH1 0x20 DUP7 ADD PUSH2 0x3992 JUMP JUMPDEST PUSH2 0x3F98 DUP2 PUSH2 0x39A0 JUMP JUMPDEST DUP5 ADD SWAP2 POP POP SWAP3 SWAP2 POP POP JUMP JUMPDEST PUSH0 PUSH1 0x20 DUP3 ADD SWAP1 POP DUP2 DUP2 SUB PUSH0 DUP4 ADD MSTORE PUSH2 0x3FBB DUP2 DUP5 PUSH2 0x3F6B JUMP JUMPDEST SWAP1 POP SWAP3 SWAP2 POP POP JUMP JUMPDEST PUSH0 DUP1 PUSH1 0x40 DUP4 DUP6 SUB SLT ISZERO PUSH2 0x3FD9 JUMPI PUSH2 0x3FD8 PUSH2 0x3A08 JUMP JUMPDEST JUMPDEST PUSH0 PUSH2 0x3FE6 DUP6 DUP3 DUP7 ADD PUSH2 0x3A89 JUMP JUMPDEST SWAP3 POP POP PUSH1 0x20 PUSH2 0x3FF7 DUP6 DUP3 DUP7 ADD PUSH2 0x3A89 JUMP JUMPDEST SWAP2 POP POP SWAP3 POP SWAP3 SWAP1 POP JUMP JUMPDEST PUSH2 0x400A DUP2 PUSH2 0x3A2F JUMP JUMPDEST DUP3 MSTORE POP POP JUMP JUMPDEST PUSH0 PUSH1 0x20 DUP3 ADD SWAP1 POP PUSH2 0x4023 PUSH0 DUP4 ADD DUP5 PUSH2 0x4001 JUMP JUMPDEST SWAP3 SWAP2 POP POP JUMP JUMPDEST PUSH0 DUP1 PUSH0 DUP1 PUSH1 0x80 DUP6 DUP8 SUB SLT ISZERO PUSH2 0x4041 JUMPI PUSH2 0x4040 PUSH2 0x3A08 JUMP JUMPDEST JUMPDEST PUSH0 PUSH2 0x404E DUP8 DUP3 DUP9 ADD PUSH2 0x3A56 JUMP JUMPDEST SWAP5 POP POP PUSH1 0x20 PUSH2 0x405F DUP8 DUP3 DUP9 ADD PUSH2 0x3A56 JUMP JUMPDEST SWAP4 POP POP PUSH1 0x40 PUSH2 0x4070 DUP8 DUP3 DUP9 ADD PUSH2 0x3A89 JUMP JUMPDEST SWAP3 POP POP PUSH1 0x60 PUSH2 0x4081 DUP8 DUP3 DUP9 ADD PUSH2 0x3A89 JUMP JUMPDEST SWAP2 POP POP SWAP3 SWAP6 SWAP2 SWAP5 POP SWAP3 POP JUMP JUMPDEST PUSH2 0x4096 DUP2 PUSH2 0x3E4B JUMP JUMPDEST DUP2 EQ PUSH2 0x40A0 JUMPI PUSH0 DUP1 REVERT JUMPDEST POP JUMP JUMPDEST PUSH0 DUP2 CALLDATALOAD SWAP1 POP PUSH2 0x40B1 DUP2 PUSH2 0x408D JUMP JUMPDEST SWAP3 SWAP2 POP POP JUMP JUMPDEST PUSH0 DUP1 PUSH0 DUP1 PUSH0 DUP1 PUSH0 PUSH1 0xE0 DUP9 DUP11 SUB SLT ISZERO PUSH2 0x40D2 JUMPI PUSH2 0x40D1 PUSH2 0x3A08 JUMP JUMPDEST JUMPDEST PUSH0 PUSH2 0x40DF DUP11 DUP3 DUP12 ADD PUSH2 0x3A56 JUMP JUMPDEST SWAP8 POP POP PUSH1 0x20 PUSH2 0x40F0 DUP11 DUP3 DUP12 ADD PUSH2 0x3A56 JUMP JUMPDEST SWAP7 POP POP PUSH1 0x40 PUSH2 0x4101 DUP11 DUP3 DUP12 ADD PUSH2 0x3A89 JUMP JUMPDEST SWAP6 POP POP PUSH1 0x60 PUSH2 0x4112 DUP11 DUP3 DUP12 ADD PUSH2 0x3A89 JUMP JUMPDEST SWAP5 POP POP PUSH1 0x80 PUSH2 0x4123 DUP11 DUP3 DUP12 ADD PUSH2 0x3C20 JUMP JUMPDEST SWAP4 POP POP PUSH1 0xA0 PUSH2 0x4134 DUP11 DUP3 DUP12 ADD PUSH2 0x40A3 JUMP JUMPDEST SWAP3 POP POP PUSH1 0xC0 PUSH2 0x4145 DUP11 DUP3 DUP12 ADD PUSH2 0x40A3 JUMP JUMPDEST SWAP2 POP POP SWAP3 SWAP6 SWAP9 SWAP2 SWAP5 SWAP8 POP SWAP3 SWAP6 POP JUMP JUMPDEST PUSH0 DUP1 PUSH1 0x40 DUP4 DUP6 SUB SLT ISZERO PUSH2 0x416A JUMPI PUSH2 0x4169 PUSH2 0x3A08 JUMP JUMPDEST JUMPDEST PUSH0 PUSH2 0x4177 DUP6 DUP3 DUP7 ADD PUSH2 0x3A56 JUMP JUMPDEST SWAP3 POP POP PUSH1 0x20 PUSH2 0x4188 DUP6 DUP3 DUP7 ADD PUSH2 0x3A56 JUMP JUMPDEST SWAP2 POP POP SWAP3 POP SWAP3 SWAP1 POP JUMP JUMPDEST PUSH0 PUSH1 0x20 DUP3 DUP5 SUB SLT ISZERO PUSH2 0x41A7 JUMPI PUSH2 0x41A6 PUSH2 0x3A08 JUMP JUMPDEST JUMPDEST PUSH0 PUSH2 0x41B4 DUP5 DUP3 DUP6 ADD PUSH2 0x3BEA JUMP JUMPDEST SWAP2 POP POP SWAP3 SWAP2 POP POP JUMP JUMPDEST PUSH32 0x4E487B7100000000000000000000000000000000000000000000000000000000 PUSH0 MSTORE PUSH1 0x22 PUSH1 0x4 MSTORE PUSH1 0x24 PUSH0 REVERT JUMPDEST PUSH0 PUSH1 0x2 DUP3 DIV SWAP1 POP PUSH1 0x1 DUP3 AND DUP1 PUSH2 0x4201 JUMPI PUSH1 0x7F DUP3 AND SWAP2 POP JUMPDEST PUSH1 0x20 DUP3 LT DUP2 SUB PUSH2 0x4214 JUMPI PUSH2 0x4213 PUSH2 0x41BD JUMP JUMPDEST JUMPDEST POP SWAP2 SWAP1 POP JUMP JUMPDEST PUSH0 DUP2 MLOAD SWAP1 POP PUSH2 0x4228 DUP2 PUSH2 0x3A73 JUMP JUMPDEST SWAP3 SWAP2 POP POP JUMP JUMPDEST PUSH0 PUSH1 0x20 DUP3 DUP5 SUB SLT ISZERO PUSH2 0x4243 JUMPI PUSH2 0x4242 PUSH2 0x3A08 JUMP JUMPDEST JUMPDEST PUSH0 PUSH2 0x4250 DUP5 DUP3 DUP6 ADD PUSH2 0x421A JUMP JUMPDEST SWAP2 POP POP SWAP3 SWAP2 POP POP JUMP JUMPDEST PUSH32 0x436F6E747261637420696E7374616E63652068617320616C7265616479206265 PUSH0 DUP3 ADD MSTORE PUSH32 0x656E20696E697469616C697A6564000000000000000000000000000000000000 PUSH1 0x20 DUP3 ADD MSTORE POP JUMP JUMPDEST PUSH0 PUSH2 0x42B3 PUSH1 0x2E DUP4 PUSH2 0x3982 JUMP JUMPDEST SWAP2 POP PUSH2 0x42BE DUP3 PUSH2 0x4259 JUMP JUMPDEST PUSH1 0x40 DUP3 ADD SWAP1 POP SWAP2 SWAP1 POP JUMP JUMPDEST PUSH0 PUSH1 0x20 DUP3 ADD SWAP1 POP DUP2 DUP2 SUB PUSH0 DUP4 ADD MSTORE PUSH2 0x42E0 DUP2 PUSH2 0x42A7 JUMP JUMPDEST SWAP1 POP SWAP2 SWAP1 POP JUMP JUMPDEST DUP3 DUP2 DUP4 CALLDATACOPY PUSH0 DUP4 DUP4 ADD MSTORE POP POP POP JUMP JUMPDEST PUSH0 PUSH2 0x4300 DUP4 DUP6 PUSH2 0x3982 JUMP JUMPDEST SWAP4 POP PUSH2 0x430D DUP4 DUP6 DUP5 PUSH2 0x42E7 JUMP JUMPDEST PUSH2 0x4316 DUP4 PUSH2 0x39A0 JUMP JUMPDEST DUP5 ADD SWAP1 POP SWAP4 SWAP3 POP POP POP JUMP JUMPDEST PUSH0 PUSH2 0x432C DUP4 DUP6 PUSH2 0x3F5B JUMP JUMPDEST SWAP4 POP PUSH2 0x4339 DUP4 DUP6 DUP5 PUSH2 0x42E7 JUMP JUMPDEST PUSH2 0x4342 DUP4 PUSH2 0x39A0 JUMP JUMPDEST DUP5 ADD SWAP1 POP SWAP4 SWAP3 POP POP POP JUMP JUMPDEST PUSH0 PUSH1 0xC0 DUP3 ADD SWAP1 POP PUSH2 0x4360 PUSH0 DUP4 ADD DUP13 PUSH2 0x4001 JUMP JUMPDEST PUSH2 0x436D PUSH1 0x20 DUP4 ADD DUP12 PUSH2 0x4001 JUMP JUMPDEST PUSH2 0x437A PUSH1 0x40 DUP4 ADD DUP11 PUSH2 0x3E7C JUMP JUMPDEST DUP2 DUP2 SUB PUSH1 0x60 DUP4 ADD MSTORE PUSH2 0x438D DUP2 DUP9 DUP11 PUSH2 0x42F5 JUMP JUMPDEST SWAP1 POP DUP2 DUP2 SUB PUSH1 0x80 DUP4 ADD MSTORE PUSH2 0x43A2 DUP2 DUP7 DUP9 PUSH2 0x42F5 JUMP JUMPDEST SWAP1 POP DUP2 DUP2 SUB PUSH1 0xA0 DUP4 ADD MSTORE PUSH2 0x43B7 DUP2 DUP5 DUP7 PUSH2 0x4321 JUMP JUMPDEST SWAP1 POP SWAP11 SWAP10 POP POP POP POP POP POP POP POP POP POP JUMP JUMPDEST PUSH32 0x4E487B7100000000000000000000000000000000000000000000000000000000 PUSH0 MSTORE PUSH1 0x11 PUSH1 0x4 MSTORE PUSH1 0x24 PUSH0 REVERT JUMPDEST PUSH0 PUSH2 0x43FE DUP3 PUSH2 0x3A6A JUMP JUMPDEST SWAP2 POP PUSH2 0x4409 DUP4 PUSH2 0x3A6A JUMP JUMPDEST SWAP3 POP DUP3 DUP3 SUB SWAP1 POP DUP2 DUP2 GT ISZERO PUSH2 0x4421 JUMPI PUSH2 0x4420 PUSH2 0x43C7 JUMP JUMPDEST JUMPDEST SWAP3 SWAP2 POP POP JUMP JUMPDEST PUSH0 PUSH2 0x4431 DUP3 PUSH2 0x3A6A JUMP JUMPDEST SWAP2 POP PUSH2 0x443C DUP4 PUSH2 0x3A6A JUMP JUMPDEST SWAP3 POP DUP3 DUP3 ADD SWAP1 POP DUP1 DUP3 GT ISZERO PUSH2 0x4454 JUMPI PUSH2 0x4453 PUSH2 0x43C7 JUMP JUMPDEST JUMPDEST SWAP3 SWAP2 POP POP JUMP JUMPDEST PUSH0 DUP2 MLOAD SWAP1 POP PUSH2 0x4468 DUP2 PUSH2 0x3A40 JUMP JUMPDEST SWAP3 SWAP2 POP POP JUMP JUMPDEST PUSH0 PUSH1 0x20 DUP3 DUP5 SUB SLT ISZERO PUSH2 0x4483 JUMPI PUSH2 0x4482 PUSH2 0x3A08 JUMP JUMPDEST JUMPDEST PUSH0 PUSH2 0x4490 DUP5 DUP3 DUP6 ADD PUSH2 0x445A JUMP JUMPDEST SWAP2 POP POP SWAP3 SWAP2 POP POP JUMP JUMPDEST PUSH2 0x44A2 DUP2 PUSH2 0x3ADB JUMP JUMPDEST DUP2 EQ PUSH2 0x44AC JUMPI PUSH0 DUP1 REVERT JUMPDEST POP JUMP JUMPDEST PUSH0 DUP2 MLOAD SWAP1 POP PUSH2 0x44BD DUP2 PUSH2 0x4499 JUMP JUMPDEST SWAP3 SWAP2 POP POP JUMP JUMPDEST PUSH0 PUSH1 0x20 DUP3 DUP5 SUB SLT ISZERO PUSH2 0x44D8 JUMPI PUSH2 0x44D7 PUSH2 0x3A08 JUMP JUMPDEST JUMPDEST PUSH0 PUSH2 0x44E5 DUP5 DUP3 DUP6 ADD PUSH2 0x44AF JUMP JUMPDEST SWAP2 POP POP SWAP3 SWAP2 POP POP JUMP JUMPDEST PUSH0 PUSH1 0xC0 DUP3 ADD SWAP1 POP PUSH2 0x4501 PUSH0 DUP4 ADD DUP10 PUSH2 0x3E54 JUMP JUMPDEST PUSH2 0x450E PUSH1 0x20 DUP4 ADD DUP9 PUSH2 0x4001 JUMP JUMPDEST PUSH2 0x451B PUSH1 0x40 DUP4 ADD DUP8 PUSH2 0x4001 JUMP JUMPDEST PUSH2 0x4528 PUSH1 0x60 DUP4 ADD DUP7 PUSH2 0x3B39 JUMP JUMPDEST PUSH2 0x4535 PUSH1 0x80 DUP4 ADD DUP6 PUSH2 0x3B39 JUMP JUMPDEST PUSH2 0x4542 PUSH1 0xA0 DUP4 ADD DUP5 PUSH2 0x3B39 JUMP JUMPDEST SWAP8 SWAP7 POP POP POP POP POP POP POP JUMP JUMPDEST PUSH0 DUP2 SWAP1 POP SWAP3 SWAP2 POP POP JUMP JUMPDEST PUSH32 0x1901000000000000000000000000000000000000000000000000000000000000 PUSH0 DUP3 ADD MSTORE POP JUMP JUMPDEST PUSH0 PUSH2 0x458B PUSH1 0x2 DUP4 PUSH2 0x454D JUMP JUMPDEST SWAP2 POP PUSH2 0x4596 DUP3 PUSH2 0x4557 JUMP JUMPDEST PUSH1 0x2 DUP3 ADD SWAP1 POP SWAP2 SWAP1 POP JUMP JUMPDEST PUSH0 DUP2 SWAP1 POP SWAP2 SWAP1 POP JUMP JUMPDEST PUSH2 0x45BB PUSH2 0x45B6 DUP3 PUSH2 0x3E4B JUMP JUMPDEST PUSH2 0x45A1 JUMP JUMPDEST DUP3 MSTORE POP POP JUMP JUMPDEST PUSH0 PUSH2 0x45CB DUP3 PUSH2 0x457F JUMP JUMPDEST SWAP2 POP PUSH2 0x45D7 DUP3 DUP6 PUSH2 0x45AA JUMP JUMPDEST PUSH1 0x20 DUP3 ADD SWAP2 POP PUSH2 0x45E7 DUP3 DUP5 PUSH2 0x45AA JUMP JUMPDEST PUSH1 0x20 DUP3 ADD SWAP2 POP DUP2 SWAP1 POP SWAP4 SWAP3 POP POP POP JUMP JUMPDEST PUSH0 PUSH1 0x80 DUP3 ADD SWAP1 POP PUSH2 0x460A PUSH0 DUP4 ADD DUP8 PUSH2 0x3E54 JUMP JUMPDEST PUSH2 0x4617 PUSH1 0x20 DUP4 ADD DUP7 PUSH2 0x3E7C JUMP JUMPDEST PUSH2 0x4624 PUSH1 0x40 DUP4 ADD DUP6 PUSH2 0x3E54 JUMP JUMPDEST PUSH2 0x4631 PUSH1 0x60 DUP4 ADD DUP5 PUSH2 0x3E54 JUMP JUMPDEST SWAP6 SWAP5 POP POP POP POP POP JUMP JUMPDEST PUSH32 0x4E487B7100000000000000000000000000000000000000000000000000000000 PUSH0 MSTORE PUSH1 0x41 PUSH1 0x4 MSTORE PUSH1 0x24 PUSH0 REVERT JUMPDEST PUSH0 DUP2 SWAP1 POP DUP2 PUSH0 MSTORE PUSH1 0x20 PUSH0 KECCAK256 SWAP1 POP SWAP2 SWAP1 POP JUMP JUMPDEST PUSH0 PUSH1 0x20 PUSH1 0x1F DUP4 ADD DIV SWAP1 POP SWAP2 SWAP1 POP JUMP JUMPDEST PUSH0 DUP3 DUP3 SHL SWAP1 POP SWAP3 SWAP2 POP POP JUMP JUMPDEST PUSH0 PUSH1 0x8 DUP4 MUL PUSH2 0x46C3 PUSH32 0xFFFFFFFFFFFFFFFFFFFFFFFFFFFFFFFFFFFFFFFFFFFFFFFFFFFFFFFFFFFFFFFF DUP3 PUSH2 0x4688 JUMP JUMPDEST PUSH2 0x46CD DUP7 DUP4 PUSH2 0x4688 JUMP JUMPDEST SWAP6 POP DUP1 NOT DUP5 AND SWAP4 POP DUP1 DUP7 AND DUP5 OR SWAP3 POP POP POP SWAP4 SWAP3 POP POP POP JUMP JUMPDEST PUSH0 PUSH2 0x46FF PUSH2 0x46FA PUSH2 0x46F5 DUP5 PUSH2 0x3A6A JUMP JUMPDEST PUSH2 0x3EA4 JUMP JUMPDEST PUSH2 0x3A6A JUMP JUMPDEST SWAP1 POP SWAP2 SWAP1 POP JUMP JUMPDEST PUSH0 DUP2 SWAP1 POP SWAP2 SWAP1 POP JUMP JUMPDEST PUSH2 0x4718 DUP4 PUSH2 0x46E5 JUMP JUMPDEST PUSH2 0x472C PUSH2 0x4724 DUP3 PUSH2 0x4706 JUMP JUMPDEST DUP5 DUP5 SLOAD PUSH2 0x4694 JUMP JUMPDEST DUP3 SSTORE POP POP POP POP JUMP JUMPDEST PUSH0 SWAP1 JUMP JUMPDEST PUSH2 0x4740 PUSH2 0x4734 JUMP JUMPDEST PUSH2 0x474B DUP2 DUP5 DUP5 PUSH2 0x470F JUMP JUMPDEST POP POP POP JUMP JUMPDEST JUMPDEST DUP2 DUP2 LT ISZERO PUSH2 0x476E JUMPI PUSH2 0x4763 PUSH0 DUP3 PUSH2 0x4738 JUMP JUMPDEST PUSH1 0x1 DUP2 ADD SWAP1 POP PUSH2 0x4751 JUMP JUMPDEST POP POP JUMP JUMPDEST PUSH1 0x1F DUP3 GT ISZERO PUSH2 0x47B3 JUMPI PUSH2 0x4784 DUP2 PUSH2 0x4667 JUMP JUMPDEST PUSH2 0x478D DUP5 PUSH2 0x4679 JUMP JUMPDEST DUP2 ADD PUSH1 0x20 DUP6 LT ISZERO PUSH2 0x479C JUMPI DUP2 SWAP1 POP JUMPDEST PUSH2 0x47B0 PUSH2 0x47A8 DUP6 PUSH2 0x4679 JUMP JUMPDEST DUP4 ADD DUP3 PUSH2 0x4750 JUMP JUMPDEST POP POP JUMPDEST POP POP POP JUMP JUMPDEST PUSH0 DUP3 DUP3 SHR SWAP1 POP SWAP3 SWAP2 POP POP JUMP JUMPDEST PUSH0 PUSH2 0x47D3 PUSH0 NOT DUP5 PUSH1 0x8 MUL PUSH2 0x47B8 JUMP JUMPDEST NOT DUP1 DUP4 AND SWAP2 POP POP SWAP3 SWAP2 POP POP JUMP JUMPDEST PUSH0 PUSH2 0x47EB DUP4 DUP4 PUSH2 0x47C4 JUMP JUMPDEST SWAP2 POP DUP3 PUSH1 0x2 MUL DUP3 OR SWAP1 POP SWAP3 SWAP2 POP POP JUMP JUMPDEST PUSH2 0x4804 DUP3 PUSH2 0x3978 JUMP JUMPDEST PUSH8 0xFFFFFFFFFFFFFFFF DUP2 GT ISZERO PUSH2 0x481D JUMPI PUSH2 0x481C PUSH2 0x463A JUMP JUMPDEST JUMPDEST PUSH2 0x4827 DUP3 SLOAD PUSH2 0x41EA JUMP JUMPDEST PUSH2 0x4832 DUP3 DUP3 DUP6 PUSH2 0x4772 JUMP JUMPDEST PUSH0 PUSH1 0x20 SWAP1 POP PUSH1 0x1F DUP4 GT PUSH1 0x1 DUP2 EQ PUSH2 0x4863 JUMPI PUSH0 DUP5 ISZERO PUSH2 0x4851 JUMPI DUP3 DUP8 ADD MLOAD SWAP1 POP JUMPDEST PUSH2 0x485B DUP6 DUP3 PUSH2 0x47E0 JUMP JUMPDEST DUP7 SSTORE POP PUSH2 0x48C2 JUMP JUMPDEST PUSH1 0x1F NOT DUP5 AND PUSH2 0x4871 DUP7 PUSH2 0x4667 JUMP JUMPDEST PUSH0 JUMPDEST DUP3 DUP2 LT ISZERO PUSH2 0x4898 JUMPI DUP5 DUP10 ADD MLOAD DUP3 SSTORE PUSH1 0x1 DUP3 ADD SWAP2 POP PUSH1 0x20 DUP6 ADD SWAP5 POP PUSH1 0x20 DUP2 ADD SWAP1 POP PUSH2 0x4873 JUMP JUMPDEST DUP7 DUP4 LT ISZERO PUSH2 0x48B5 JUMPI DUP5 DUP10 ADD MLOAD PUSH2 0x48B1 PUSH1 0x1F DUP10 AND DUP3 PUSH2 0x47C4 JUMP JUMPDEST DUP4 SSTORE POP JUMPDEST PUSH1 0x1 PUSH1 0x2 DUP9 MUL ADD DUP9 SSTORE POP POP POP JUMPDEST POP POP POP POP POP POP JUMP JUMPDEST PUSH0 PUSH1 0xA0 DUP3 ADD SWAP1 POP PUSH2 0x48DD PUSH0 DUP4 ADD DUP9 PUSH2 0x3E54 JUMP JUMPDEST PUSH2 0x48EA PUSH1 0x20 DUP4 ADD DUP8 PUSH2 0x3E54 JUMP JUMPDEST PUSH2 0x48F7 PUSH1 0x40 DUP4 ADD DUP7 PUSH2 0x3E54 JUMP JUMPDEST PUSH2 0x4904 PUSH1 0x60 DUP4 ADD DUP6 PUSH2 0x3B39 JUMP JUMPDEST PUSH2 0x4911 PUSH1 0x80 DUP4 ADD DUP5 PUSH2 0x4001 JUMP JUMPDEST SWAP7 SWAP6 POP POP POP POP POP POP JUMP JUMPDEST PUSH32 0x53616665436173743A2076616C756520646F65736E27742066697420696E2031 PUSH0 DUP3 ADD MSTORE PUSH32 0x3238206269747300000000000000000000000000000000000000000000000000 PUSH1 0x20 DUP3 ADD MSTORE POP JUMP JUMPDEST PUSH0 PUSH2 0x4975 PUSH1 0x27 DUP4 PUSH2 0x3982 JUMP JUMPDEST SWAP2 POP PUSH2 0x4980 DUP3 PUSH2 0x491B JUMP JUMPDEST PUSH1 0x40 DUP3 ADD SWAP1 POP SWAP2 SWAP1 POP JUMP JUMPDEST PUSH0 PUSH1 0x20 DUP3 ADD SWAP1 POP DUP2 DUP2 SUB PUSH0 DUP4 ADD MSTORE PUSH2 0x49A2 DUP2 PUSH2 0x4969 JUMP JUMPDEST SWAP1 POP SWAP2 SWAP1 POP JUMP JUMPDEST PUSH32 0x475076323A206661696C6564207472616E736665720000000000000000000000 PUSH0 DUP3 ADD MSTORE POP JUMP JUMPDEST PUSH0 PUSH2 0x49DD PUSH1 0x15 DUP4 PUSH2 0x3982 JUMP JUMPDEST SWAP2 POP PUSH2 0x49E8 DUP3 PUSH2 0x49A9 JUMP JUMPDEST PUSH1 0x20 DUP3 ADD SWAP1 POP SWAP2 SWAP1 POP JUMP JUMPDEST PUSH0 PUSH1 0x20 DUP3 ADD SWAP1 POP DUP2 DUP2 SUB PUSH0 DUP4 ADD MSTORE PUSH2 0x4A0A DUP2 PUSH2 0x49D1 JUMP JUMPDEST SWAP1 POP SWAP2 SWAP1 POP JUMP JUMPDEST PUSH0 PUSH1 0x60 DUP3 ADD SWAP1 POP PUSH2 0x4A24 PUSH0 DUP4 ADD DUP7 PUSH2 0x3B39 JUMP JUMPDEST PUSH2 0x4A31 PUSH1 0x20 DUP4 ADD DUP6 PUSH2 0x3B39 JUMP JUMPDEST PUSH2 0x4A3E PUSH1 0x40 DUP4 ADD DUP5 PUSH2 0x3B39 JUMP JUMPDEST SWAP5 SWAP4 POP POP POP POP JUMP JUMPDEST PUSH0 PUSH1 0xC0 DUP3 ADD SWAP1 POP PUSH2 0x4A59 PUSH0 DUP4 ADD DUP10 PUSH2 0x4001 JUMP JUMPDEST PUSH2 0x4A66 PUSH1 0x20 DUP4 ADD DUP9 PUSH2 0x4001 JUMP JUMPDEST PUSH2 0x4A73 PUSH1 0x40 DUP4 ADD DUP8 PUSH2 0x4001 JUMP JUMPDEST PUSH2 0x4A80 PUSH1 0x60 DUP4 ADD DUP7 PUSH2 0x3B39 JUMP JUMPDEST PUSH2 0x4A8D PUSH1 0x80 DUP4 ADD DUP6 PUSH2 0x3B39 JUMP JUMPDEST PUSH2 0x4A9A PUSH1 0xA0 DUP4 ADD DUP5 PUSH2 0x3B39 JUMP JUMPDEST SWAP8 SWAP7 POP POP POP POP POP POP POP JUMP JUMPDEST PUSH0 PUSH16 0xFFFFFFFFFFFFFFFFFFFFFFFFFFFFFFFF DUP3 AND SWAP1 POP SWAP2 SWAP1 POP JUMP JUMPDEST PUSH0 PUSH2 0x4ACA DUP3 PUSH2 0x4AA5 JUMP JUMPDEST SWAP2 POP PUSH2 0x4AD5 DUP4 PUSH2 0x4AA5 JUMP JUMPDEST SWAP3 POP DUP3 DUP3 ADD SWAP1 POP PUSH16 0xFFFFFFFFFFFFFFFFFFFFFFFFFFFFFFFF DUP2 GT ISZERO PUSH2 0x4AFD JUMPI PUSH2 0x4AFC PUSH2 0x43C7 JUMP JUMPDEST JUMPDEST SWAP3 SWAP2 POP POP JUMP JUMPDEST PUSH0 PUSH2 0x4B1D PUSH2 0x4B18 PUSH2 0x4B13 DUP5 PUSH2 0x4AA5 JUMP JUMPDEST PUSH2 0x3EA4 JUMP JUMPDEST PUSH2 0x3A6A JUMP JUMPDEST SWAP1 POP SWAP2 SWAP1 POP JUMP JUMPDEST PUSH2 0x4B2D DUP2 PUSH2 0x4B03 JUMP JUMPDEST DUP3 MSTORE POP POP JUMP JUMPDEST PUSH0 PUSH1 0x60 DUP3 ADD SWAP1 POP PUSH2 0x4B46 PUSH0 DUP4 ADD DUP7 PUSH2 0x4001 JUMP JUMPDEST PUSH2 0x4B53 PUSH1 0x20 DUP4 ADD DUP6 PUSH2 0x3B39 JUMP JUMPDEST PUSH2 0x4B60 PUSH1 0x40 DUP4 ADD DUP5 PUSH2 0x4B24 JUMP JUMPDEST SWAP5 SWAP4 POP POP POP POP JUMP JUMPDEST PUSH0 PUSH2 0x4B72 DUP3 PUSH2 0x4AA5 JUMP JUMPDEST SWAP2 POP PUSH2 0x4B7D DUP4 PUSH2 0x4AA5 JUMP JUMPDEST SWAP3 POP DUP3 DUP3 SUB SWAP1 POP PUSH16 0xFFFFFFFFFFFFFFFFFFFFFFFFFFFFFFFF DUP2 GT ISZERO PUSH2 0x4BA5 JUMPI PUSH2 0x4BA4 PUSH2 0x43C7 JUMP JUMPDEST JUMPDEST SWAP3 SWAP2 POP POP JUMP INVALID LOG2 PUSH5 0x6970667358 0x22 SLT KECCAK256 ADDRESS 0xC6 JUMPI LOG3 PUSH8 0x9D70FD17F5979A79 0xDE 0xDF 0xB7 PUSH30 0x4C9059DEA27C0C9910CBC9156B729C64736F6C634300081A003300000000 "
		},
		"gasEstimates": {
			"creation": {
				"codeDepositCost": "3885000",
				"executionCost": "infinite",
				"totalCost": "infinite"
			},
			"external": {
				"ATOKEN_REVISION()": "438",
				"DOMAIN_SEPARATOR()": "infinite",
				"EIP712_REVISION()": "infinite",
				"PERMIT_TYPEHASH()": "371",
				"POOL()": "infinite",
				"RESERVE_TREASURY_ADDRESS()": "2604",
				"UNDERLYING_ASSET_ADDRESS()": "2626",
				"allowance(address,address)": "infinite",
				"approve(address,uint256)": "infinite",
				"balanceOf(address)": "infinite",
				"burn(address,address,uint256,uint256)": "infinite",
				"decimals()": "2541",
				"decreaseAllowance(address,uint256)": "infinite",
				"getIncentivesController()": "infinite",
				"getPreviousIndex(address)": "3014",
				"getScaledUserBalanceAndSupply(address)": "infinite",
				"handleRepayment(address,address,uint256)": "infinite",
				"increaseAllowance(address,uint256)": "infinite",
				"initialize(address,address,address,address,uint8,string,string,bytes)": "infinite",
				"mint(address,address,uint256,uint256)": "infinite",
				"mintToTreasury(uint256,uint256)": "infinite",
				"name()": "infinite",
				"nonces(address)": "2961",
				"permit(address,address,uint256,uint256,uint8,bytes32,bytes32)": "infinite",
				"rescueTokens(address,address,uint256)": "infinite",
				"scaledBalanceOf(address)": "3007",
				"scaledTotalSupply()": "2511",
				"setIncentivesController(address)": "infinite",
				"symbol()": "infinite",
				"totalSupply()": "infinite",
				"transfer(address,uint256)": "infinite",
				"transferFrom(address,address,uint256)": "infinite",
				"transferOnLiquidation(address,address,uint256)": "infinite",
				"transferUnderlyingTo(address,uint256)": "infinite"
			},
			"internal": {
				"_EIP712BaseId()": "infinite",
				"_transfer(address,address,uint128)": "infinite",
				"_transfer(address,address,uint256,bool)": "infinite",
				"getRevision()": "22"
			}
		},
		"methodIdentifiers": {
			"ATOKEN_REVISION()": "0bd7ad3b",
			"DOMAIN_SEPARATOR()": "3644e515",
			"EIP712_REVISION()": "78160376",
			"PERMIT_TYPEHASH()": "30adf81f",
			"POOL()": "7535d246",
			"RESERVE_TREASURY_ADDRESS()": "ae167335",
			"UNDERLYING_ASSET_ADDRESS()": "b16a19de",
			"allowance(address,address)": "dd62ed3e",
			"approve(address,uint256)": "095ea7b3",
			"balanceOf(address)": "70a08231",
			"burn(address,address,uint256,uint256)": "d7020d0a",
			"decimals()": "313ce567",
			"decreaseAllowance(address,uint256)": "a457c2d7",
			"getIncentivesController()": "75d26413",
			"getPreviousIndex(address)": "e0753986",
			"getScaledUserBalanceAndSupply(address)": "0afbcdc9",
			"handleRepayment(address,address,uint256)": "6fd97676",
			"increaseAllowance(address,uint256)": "39509351",
			"initialize(address,address,address,address,uint8,string,string,bytes)": "183fb413",
			"mint(address,address,uint256,uint256)": "b3f1c93d",
			"mintToTreasury(uint256,uint256)": "7df5bd3b",
			"name()": "06fdde03",
			"nonces(address)": "7ecebe00",
			"permit(address,address,uint256,uint256,uint8,bytes32,bytes32)": "d505accf",
			"rescueTokens(address,address,uint256)": "cea9d26f",
			"scaledBalanceOf(address)": "1da24f3e",
			"scaledTotalSupply()": "b1bf962d",
			"setIncentivesController(address)": "e655dbd8",
			"symbol()": "95d89b41",
			"totalSupply()": "18160ddd",
			"transfer(address,uint256)": "a9059cbb",
			"transferFrom(address,address,uint256)": "23b872dd",
			"transferOnLiquidation(address,address,uint256)": "f866c319",
			"transferUnderlyingTo(address,uint256)": "4efecaa5"
		}
	},
	"abi": [
		{
			"inputs": [
				{
					"internalType": "contract IPool",
					"name": "pool",
					"type": "address"
				}
			],
			"stateMutability": "nonpayable",
			"type": "constructor"
		},
		{
			"anonymous": false,
			"inputs": [
				{
					"indexed": true,
					"internalType": "address",
					"name": "owner",
					"type": "address"
				},
				{
					"indexed": true,
					"internalType": "address",
					"name": "spender",
					"type": "address"
				},
				{
					"indexed": false,
					"internalType": "uint256",
					"name": "value",
					"type": "uint256"
				}
			],
			"name": "Approval",
			"type": "event"
		},
		{
			"anonymous": false,
			"inputs": [
				{
					"indexed": true,
					"internalType": "address",
					"name": "from",
					"type": "address"
				},
				{
					"indexed": true,
					"internalType": "address",
					"name": "to",
					"type": "address"
				},
				{
					"indexed": false,
					"internalType": "uint256",
					"name": "value",
					"type": "uint256"
				},
				{
					"indexed": false,
					"internalType": "uint256",
					"name": "index",
					"type": "uint256"
				}
			],
			"name": "BalanceTransfer",
			"type": "event"
		},
		{
			"anonymous": false,
			"inputs": [
				{
					"indexed": true,
					"internalType": "address",
					"name": "from",
					"type": "address"
				},
				{
					"indexed": true,
					"internalType": "address",
					"name": "target",
					"type": "address"
				},
				{
					"indexed": false,
					"internalType": "uint256",
					"name": "value",
					"type": "uint256"
				},
				{
					"indexed": false,
					"internalType": "uint256",
					"name": "balanceIncrease",
					"type": "uint256"
				},
				{
					"indexed": false,
					"internalType": "uint256",
					"name": "index",
					"type": "uint256"
				}
			],
			"name": "Burn",
			"type": "event"
		},
		{
			"anonymous": false,
			"inputs": [
				{
					"indexed": true,
					"internalType": "address",
					"name": "underlyingAsset",
					"type": "address"
				},
				{
					"indexed": true,
					"internalType": "address",
					"name": "pool",
					"type": "address"
				},
				{
					"indexed": false,
					"internalType": "address",
					"name": "treasury",
					"type": "address"
				},
				{
					"indexed": false,
					"internalType": "address",
					"name": "incentivesController",
					"type": "address"
				},
				{
					"indexed": false,
					"internalType": "uint8",
					"name": "aTokenDecimals",
					"type": "uint8"
				},
				{
					"indexed": false,
					"internalType": "string",
					"name": "aTokenName",
					"type": "string"
				},
				{
					"indexed": false,
					"internalType": "string",
					"name": "aTokenSymbol",
					"type": "string"
				},
				{
					"indexed": false,
					"internalType": "bytes",
					"name": "params",
					"type": "bytes"
				}
			],
			"name": "Initialized",
			"type": "event"
		},
		{
			"anonymous": false,
			"inputs": [
				{
					"indexed": true,
					"internalType": "address",
					"name": "caller",
					"type": "address"
				},
				{
					"indexed": true,
					"internalType": "address",
					"name": "onBehalfOf",
					"type": "address"
				},
				{
					"indexed": false,
					"internalType": "uint256",
					"name": "value",
					"type": "uint256"
				},
				{
					"indexed": false,
					"internalType": "uint256",
					"name": "balanceIncrease",
					"type": "uint256"
				},
				{
					"indexed": false,
					"internalType": "uint256",
					"name": "index",
					"type": "uint256"
				}
			],
			"name": "Mint",
			"type": "event"
		},
		{
			"anonymous": false,
			"inputs": [
				{
					"indexed": true,
					"internalType": "address",
					"name": "from",
					"type": "address"
				},
				{
					"indexed": true,
					"internalType": "address",
					"name": "to",
					"type": "address"
				},
				{
					"indexed": false,
					"internalType": "uint256",
					"name": "value",
					"type": "uint256"
				}
			],
			"name": "Transfer",
			"type": "event"
		},
		{
			"inputs": [],
			"name": "ATOKEN_REVISION",
			"outputs": [
				{
					"internalType": "uint256",
					"name": "",
					"type": "uint256"
				}
			],
			"stateMutability": "view",
			"type": "function"
		},
		{
			"inputs": [],
			"name": "DOMAIN_SEPARATOR",
			"outputs": [
				{
					"internalType": "bytes32",
					"name": "",
					"type": "bytes32"
				}
			],
			"stateMutability": "view",
			"type": "function"
		},
		{
			"inputs": [],
			"name": "EIP712_REVISION",
			"outputs": [
				{
					"internalType": "bytes",
					"name": "",
					"type": "bytes"
				}
			],
			"stateMutability": "view",
			"type": "function"
		},
		{
			"inputs": [],
			"name": "PERMIT_TYPEHASH",
			"outputs": [
				{
					"internalType": "bytes32",
					"name": "",
					"type": "bytes32"
				}
			],
			"stateMutability": "view",
			"type": "function"
		},
		{
			"inputs": [],
			"name": "POOL",
			"outputs": [
				{
					"internalType": "contract IPool",
					"name": "",
					"type": "address"
				}
			],
			"stateMutability": "view",
			"type": "function"
		},
		{
			"inputs": [],
			"name": "RESERVE_TREASURY_ADDRESS",
			"outputs": [
				{
					"internalType": "address",
					"name": "",
					"type": "address"
				}
			],
			"stateMutability": "view",
			"type": "function"
		},
		{
			"inputs": [],
			"name": "UNDERLYING_ASSET_ADDRESS",
			"outputs": [
				{
					"internalType": "address",
					"name": "",
					"type": "address"
				}
			],
			"stateMutability": "view",
			"type": "function"
		},
		{
			"inputs": [
				{
					"internalType": "address",
					"name": "owner",
					"type": "address"
				},
				{
					"internalType": "address",
					"name": "spender",
					"type": "address"
				}
			],
			"name": "allowance",
			"outputs": [
				{
					"internalType": "uint256",
					"name": "",
					"type": "uint256"
				}
			],
			"stateMutability": "view",
			"type": "function"
		},
		{
			"inputs": [
				{
					"internalType": "address",
					"name": "spender",
					"type": "address"
				},
				{
					"internalType": "uint256",
					"name": "amount",
					"type": "uint256"
				}
			],
			"name": "approve",
			"outputs": [
				{
					"internalType": "bool",
					"name": "",
					"type": "bool"
				}
			],
			"stateMutability": "nonpayable",
			"type": "function"
		},
		{
			"inputs": [
				{
					"internalType": "address",
					"name": "user",
					"type": "address"
				}
			],
			"name": "balanceOf",
			"outputs": [
				{
					"internalType": "uint256",
					"name": "",
					"type": "uint256"
				}
			],
			"stateMutability": "view",
			"type": "function"
		},
		{
			"inputs": [
				{
					"internalType": "address",
					"name": "from",
					"type": "address"
				},
				{
					"internalType": "address",
					"name": "receiverOfUnderlying",
					"type": "address"
				},
				{
					"internalType": "uint256",
					"name": "amount",
					"type": "uint256"
				},
				{
					"internalType": "uint256",
					"name": "index",
					"type": "uint256"
				}
			],
			"name": "burn",
			"outputs": [],
			"stateMutability": "nonpayable",
			"type": "function"
		},
		{
			"inputs": [],
			"name": "decimals",
			"outputs": [
				{
					"internalType": "uint8",
					"name": "",
					"type": "uint8"
				}
			],
			"stateMutability": "view",
			"type": "function"
		},
		{
			"inputs": [
				{
					"internalType": "address",
					"name": "spender",
					"type": "address"
				},
				{
					"internalType": "uint256",
					"name": "subtractedValue",
					"type": "uint256"
				}
			],
			"name": "decreaseAllowance",
			"outputs": [
				{
					"internalType": "bool",
					"name": "",
					"type": "bool"
				}
			],
			"stateMutability": "nonpayable",
			"type": "function"
		},
		{
			"inputs": [],
			"name": "getIncentivesController",
			"outputs": [
				{
					"internalType": "contract IAaveIncentivesController",
					"name": "",
					"type": "address"
				}
			],
			"stateMutability": "view",
			"type": "function"
		},
		{
			"inputs": [
				{
					"internalType": "address",
					"name": "user",
					"type": "address"
				}
			],
			"name": "getPreviousIndex",
			"outputs": [
				{
					"internalType": "uint256",
					"name": "",
					"type": "uint256"
				}
			],
			"stateMutability": "view",
			"type": "function"
		},
		{
			"inputs": [
				{
					"internalType": "address",
					"name": "user",
					"type": "address"
				}
			],
			"name": "getScaledUserBalanceAndSupply",
			"outputs": [
				{
					"internalType": "uint256",
					"name": "",
					"type": "uint256"
				},
				{
					"internalType": "uint256",
					"name": "",
					"type": "uint256"
				}
			],
			"stateMutability": "view",
			"type": "function"
		},
		{
			"inputs": [
				{
					"internalType": "address",
					"name": "user",
					"type": "address"
				},
				{
					"internalType": "address",
					"name": "onBehalfOf",
					"type": "address"
				},
				{
					"internalType": "uint256",
					"name": "amount",
					"type": "uint256"
				}
			],
			"name": "handleRepayment",
			"outputs": [],
			"stateMutability": "nonpayable",
			"type": "function"
		},
		{
			"inputs": [
				{
					"internalType": "address",
					"name": "spender",
					"type": "address"
				},
				{
					"internalType": "uint256",
					"name": "addedValue",
					"type": "uint256"
				}
			],
			"name": "increaseAllowance",
			"outputs": [
				{
					"internalType": "bool",
					"name": "",
					"type": "bool"
				}
			],
			"stateMutability": "nonpayable",
			"type": "function"
		},
		{
			"inputs": [
				{
					"internalType": "contract IPool",
					"name": "initializingPool",
					"type": "address"
				},
				{
					"internalType": "address",
					"name": "treasury",
					"type": "address"
				},
				{
					"internalType": "address",
					"name": "underlyingAsset",
					"type": "address"
				},
				{
					"internalType": "contract IAaveIncentivesController",
					"name": "incentivesController",
					"type": "address"
				},
				{
					"internalType": "uint8",
					"name": "aTokenDecimals",
					"type": "uint8"
				},
				{
					"internalType": "string",
					"name": "aTokenName",
					"type": "string"
				},
				{
					"internalType": "string",
					"name": "aTokenSymbol",
					"type": "string"
				},
				{
					"internalType": "bytes",
					"name": "params",
					"type": "bytes"
				}
			],
			"name": "initialize",
			"outputs": [],
			"stateMutability": "nonpayable",
			"type": "function"
		},
		{
			"inputs": [
				{
					"internalType": "address",
					"name": "caller",
					"type": "address"
				},
				{
					"internalType": "address",
					"name": "onBehalfOf",
					"type": "address"
				},
				{
					"internalType": "uint256",
					"name": "amount",
					"type": "uint256"
				},
				{
					"internalType": "uint256",
					"name": "index",
					"type": "uint256"
				}
			],
			"name": "mint",
			"outputs": [
				{
					"internalType": "bool",
					"name": "",
					"type": "bool"
				}
			],
			"stateMutability": "nonpayable",
			"type": "function"
		},
		{
			"inputs": [
				{
					"internalType": "uint256",
					"name": "amount",
					"type": "uint256"
				},
				{
					"internalType": "uint256",
					"name": "index",
					"type": "uint256"
				}
			],
			"name": "mintToTreasury",
			"outputs": [],
			"stateMutability": "nonpayable",
			"type": "function"
		},
		{
			"inputs": [],
			"name": "name",
			"outputs": [
				{
					"internalType": "string",
					"name": "",
					"type": "string"
				}
			],
			"stateMutability": "view",
			"type": "function"
		},
		{
			"inputs": [
				{
					"internalType": "address",
					"name": "owner",
					"type": "address"
				}
			],
			"name": "nonces",
			"outputs": [
				{
					"internalType": "uint256",
					"name": "",
					"type": "uint256"
				}
			],
			"stateMutability": "view",
			"type": "function"
		},
		{
			"inputs": [
				{
					"internalType": "address",
					"name": "owner",
					"type": "address"
				},
				{
					"internalType": "address",
					"name": "spender",
					"type": "address"
				},
				{
					"internalType": "uint256",
					"name": "value",
					"type": "uint256"
				},
				{
					"internalType": "uint256",
					"name": "deadline",
					"type": "uint256"
				},
				{
					"internalType": "uint8",
					"name": "v",
					"type": "uint8"
				},
				{
					"internalType": "bytes32",
					"name": "r",
					"type": "bytes32"
				},
				{
					"internalType": "bytes32",
					"name": "s",
					"type": "bytes32"
				}
			],
			"name": "permit",
			"outputs": [],
			"stateMutability": "nonpayable",
			"type": "function"
		},
		{
			"inputs": [
				{
					"internalType": "address",
					"name": "token",
					"type": "address"
				},
				{
					"internalType": "address",
					"name": "to",
					"type": "address"
				},
				{
					"internalType": "uint256",
					"name": "amount",
					"type": "uint256"
				}
			],
			"name": "rescueTokens",
			"outputs": [],
			"stateMutability": "nonpayable",
			"type": "function"
		},
		{
			"inputs": [
				{
					"internalType": "address",
					"name": "user",
					"type": "address"
				}
			],
			"name": "scaledBalanceOf",
			"outputs": [
				{
					"internalType": "uint256",
					"name": "",
					"type": "uint256"
				}
			],
			"stateMutability": "view",
			"type": "function"
		},
		{
			"inputs": [],
			"name": "scaledTotalSupply",
			"outputs": [
				{
					"internalType": "uint256",
					"name": "",
					"type": "uint256"
				}
			],
			"stateMutability": "view",
			"type": "function"
		},
		{
			"inputs": [
				{
					"internalType": "contract IAaveIncentivesController",
					"name": "controller",
					"type": "address"
				}
			],
			"name": "setIncentivesController",
			"outputs": [],
			"stateMutability": "nonpayable",
			"type": "function"
		},
		{
			"inputs": [],
			"name": "symbol",
			"outputs": [
				{
					"internalType": "string",
					"name": "",
					"type": "string"
				}
			],
			"stateMutability": "view",
			"type": "function"
		},
		{
			"inputs": [],
			"name": "totalSupply",
			"outputs": [
				{
					"internalType": "uint256",
					"name": "",
					"type": "uint256"
				}
			],
			"stateMutability": "view",
			"type": "function"
		},
		{
			"inputs": [
				{
					"internalType": "address",
					"name": "recipient",
					"type": "address"
				},
				{
					"internalType": "uint256",
					"name": "amount",
					"type": "uint256"
				}
			],
			"name": "transfer",
			"outputs": [
				{
					"internalType": "bool",
					"name": "",
					"type": "bool"
				}
			],
			"stateMutability": "nonpayable",
			"type": "function"
		},
		{
			"inputs": [
				{
					"internalType": "address",
					"name": "sender",
					"type": "address"
				},
				{
					"internalType": "address",
					"name": "recipient",
					"type": "address"
				},
				{
					"internalType": "uint256",
					"name": "amount",
					"type": "uint256"
				}
			],
			"name": "transferFrom",
			"outputs": [
				{
					"internalType": "bool",
					"name": "",
					"type": "bool"
				}
			],
			"stateMutability": "nonpayable",
			"type": "function"
		},
		{
			"inputs": [
				{
					"internalType": "address",
					"name": "from",
					"type": "address"
				},
				{
					"internalType": "address",
					"name": "to",
					"type": "address"
				},
				{
					"internalType": "uint256",
					"name": "value",
					"type": "uint256"
				}
			],
			"name": "transferOnLiquidation",
			"outputs": [],
			"stateMutability": "nonpayable",
			"type": "function"
		},
		{
			"inputs": [
				{
					"internalType": "address",
					"name": "target",
					"type": "address"
				},
				{
					"internalType": "uint256",
					"name": "amount",
					"type": "uint256"
				}
			],
			"name": "transferUnderlyingTo",
			"outputs": [],
			"stateMutability": "nonpayable",
			"type": "function"
		}
	]
}