{
	"data": {
		"bytecode": {
			"linkReferences": {},
			"object": "60e06040525f8055348015610012575f80fd5b506040516147e03803806147e083398181016040528101906100349190610231565b806040518060400160405280601681526020017f535441424c455f444542545f544f4b454e5f494d504c000000000000000000008152506040518060400160405280601681526020017f535441424c455f444542545f544f4b454e5f494d504c000000000000000000008152505f46608081815250508373ffffffffffffffffffffffffffffffffffffffff16630542975c6040518163ffffffff1660e01b8152600401602060405180830381865afa1580156100f3573d5f803e3d5ffd5b505050506040513d601f19601f820116820180604052508101906101179190610297565b73ffffffffffffffffffffffffffffffffffffffff1660a08173ffffffffffffffffffffffffffffffffffffffff168152505082603b908161015991906104fc565b5081603c908161016991906104fc565b5080603d5f6101000a81548160ff021916908360ff1602179055508373ffffffffffffffffffffffffffffffffffffffff1660c08173ffffffffffffffffffffffffffffffffffffffff168152505050505050506105cb565b5f80fd5b5f73ffffffffffffffffffffffffffffffffffffffff82169050919050565b5f6101ef826101c6565b9050919050565b5f610200826101e5565b9050919050565b610210816101f6565b811461021a575f80fd5b50565b5f8151905061022b81610207565b92915050565b5f60208284031215610246576102456101c2565b5b5f6102538482850161021d565b91505092915050565b5f610266826101e5565b9050919050565b6102768161025c565b8114610280575f80fd5b50565b5f815190506102918161026d565b92915050565b5f602082840312156102ac576102ab6101c2565b5b5f6102b984828501610283565b91505092915050565b5f81519050919050565b7f4e487b71000000000000000000000000000000000000000000000000000000005f52604160045260245ffd5b7f4e487b71000000000000000000000000000000000000000000000000000000005f52602260045260245ffd5b5f600282049050600182168061033d57607f821691505b6020821081036103505761034f6102f9565b5b50919050565b5f819050815f5260205f209050919050565b5f6020601f8301049050919050565b5f82821b905092915050565b5f600883026103b27fffffffffffffffffffffffffffffffffffffffffffffffffffffffffffffffff82610377565b6103bc8683610377565b95508019841693508086168417925050509392505050565b5f819050919050565b5f819050919050565b5f6104006103fb6103f6846103d4565b6103dd565b6103d4565b9050919050565b5f819050919050565b610419836103e6565b61042d61042582610407565b848454610383565b825550505050565b5f90565b610441610435565b61044c818484610410565b505050565b5b8181101561046f576104645f82610439565b600181019050610452565b5050565b601f8211156104b45761048581610356565b61048e84610368565b8101602085101561049d578190505b6104b16104a985610368565b830182610451565b50505b505050565b5f82821c905092915050565b5f6104d45f19846008026104b9565b1980831691505092915050565b5f6104ec83836104c5565b9150826002028217905092915050565b610505826102c2565b67ffffffffffffffff81111561051e5761051d6102cc565b5b6105288254610326565b610533828285610473565b5f60209050601f831160018114610564575f8415610552578287015190505b61055c85826104e1565b8655506105c3565b601f19841661057286610356565b5f5b8281101561059957848901518255600182019150602085019450602081019050610574565b868310156105b657848901516105b2601f8916826104c5565b8355505b6001600288020188555050505b505050505050565b60805160a05160c0516141cf6106115f395f8181610e190152818161106f015281816117c301528181611de40152611f5501525f61209501525f610bde01526141cf5ff3fe608060405234801561000f575f80fd5b50600436106101f9575f3560e01c806390f6fcf211610118578063c04a8a10116100ab578063e655dbd81161007a578063e655dbd81461062f578063e74848901461064b578063e78c9b3b14610669578063f3bfc73814610699578063f731e9be146106b7576101f9565b8063c04a8a1014610597578063c222ec8a146105b3578063c634dfaa146105cf578063dd62ed3e146105ff576101f9565b8063a9059cbb116100e7578063a9059cbb146104f9578063b16a19de14610529578063b3f1c93d14610547578063b9a7b62214610579576101f9565b806390f6fcf21461045c57806395d89b411461047a5780639dc29fac14610498578063a457c2d7146104c9576101f9565b80636bd76d2411610190578063781603761161015f57806378160376146103bd57806379774338146103db57806379ce6b8c146103fc5780637ecebe001461042c576101f9565b80636bd76d241461032157806370a08231146103515780637535d2461461038157806375d264131461039f576101f9565b806323b872dd116101cc57806323b872dd14610285578063313ce567146102b55780633644e515146102d357806339509351146102f1576101f9565b806306fdde03146101fd578063095ea7b31461021b5780630b52d5581461024b57806318160ddd14610267575b5f80fd5b6102056106d6565b6040516102129190612f18565b60405180910390f35b61023560048036038101906102309190612fd6565b610766565b604051610242919061302e565b60405180910390f35b610265600480360381019061026091906130b0565b6107d9565b005b61026f610b15565b60405161027c919061315c565b60405180910390f35b61029f600480360381019061029a9190613175565b610b53565b6040516102ac919061302e565b60405180910390f35b6102bd610bc6565b6040516102ca91906131d4565b60405180910390f35b6102db610bdb565b6040516102e891906131fc565b60405180910390f35b61030b60048036038101906103069190612fd6565b610c1b565b604051610318919061302e565b60405180910390f35b61033b60048036038101906103369190613215565b610c8e565b604051610348919061315c565b60405180910390f35b61036b60048036038101906103669190613253565b610d10565b604051610378919061315c565b60405180910390f35b610389610e17565b60405161039691906132d9565b60405180910390f35b6103a7610e3b565b6040516103b49190613312565b60405180910390f35b6103c5610e64565b6040516103d2919061337d565b60405180910390f35b6103e3610e9d565b6040516103f394939291906133bc565b60405180910390f35b61041660048036038101906104119190613253565b610f09565b60405161042391906133ff565b60405180910390f35b61044660048036038101906104419190613253565b610f5f565b604051610453919061315c565b60405180910390f35b610464610fa5565b604051610471919061315c565b60405180910390f35b610482610fdb565b60405161048f9190612f18565b60405180910390f35b6104b260048036038101906104ad9190612fd6565b61106b565b6040516104c0929190613418565b60405180910390f35b6104e360048036038101906104de9190612fd6565b6116b0565b6040516104f0919061302e565b60405180910390f35b610513600480360381019061050e9190612fd6565b611723565b604051610520919061302e565b60405180910390f35b610531611796565b60405161053e919061344e565b60405180910390f35b610561600480360381019061055c9190613467565b6117be565b604051610570939291906134cb565b60405180910390f35b610581611d1b565b60405161058e919061315c565b60405180910390f35b6105b160048036038101906105ac9190612fd6565b611d20565b005b6105cd60048036038101906105c891906136ff565b611d36565b005b6105e960048036038101906105e49190613253565b61200e565b6040516105f6919061315c565b60405180910390f35b61061960048036038101906106149190613215565b61201f565b604051610626919061315c565b60405180910390f35b610649600480360381019061064491906137f4565b612092565b005b610653612257565b60405161066091906133ff565b60405180910390f35b610683600480360381019061067e9190613253565b612271565b604051610690919061315c565b60405180910390f35b6106a16122e7565b6040516106ae91906131fc565b60405180910390f35b6106bf61230b565b6040516106cd929190613418565b60405180910390f35b6060603b80546106e59061384c565b80601f01602080910402602001604051908101604052809291908181526020018280546107119061384c565b801561075c5780601f106107335761010080835404028352916020019161075c565b820191905f5260205f20905b81548152906001019060200180831161073f57829003601f168201915b5050505050905090565b5f6040518060400160405280600281526020017f38300000000000000000000000000000000000000000000000000000000000008152506040517f08c379a00000000000000000000000000000000000000000000000000000000081526004016107d09190612f18565b60405180910390fd5b5f73ffffffffffffffffffffffffffffffffffffffff168773ffffffffffffffffffffffffffffffffffffffff1614156040518060400160405280600281526020017f373700000000000000000000000000000000000000000000000000000000000081525090610880576040517f08c379a00000000000000000000000000000000000000000000000000000000081526004016108779190612f18565b60405180910390fd5b50834211156040518060400160405280600281526020017f3738000000000000000000000000000000000000000000000000000000000000815250906108fc576040517f08c379a00000000000000000000000000000000000000000000000000000000081526004016108f39190612f18565b60405180910390fd5b505f60345f8973ffffffffffffffffffffffffffffffffffffffff1673ffffffffffffffffffffffffffffffffffffffff1681526020019081526020015f205490505f610947610bdb565b7f323db0410fecc107e39e2af5908671f4c8d106123b35a51501bb805c5fa36aa08989858a60405160200161098095949392919061387c565b604051602081830303815290604052805190602001206040516020016109a7929190613941565b6040516020818303038152906040528051906020012090506001818686866040515f81526020016040526040516109e19493929190613977565b6020604051602081039080840390855afa158015610a01573d5f803e3d5ffd5b5050506020604051035173ffffffffffffffffffffffffffffffffffffffff168973ffffffffffffffffffffffffffffffffffffffff16146040518060400160405280600281526020017f373900000000000000000000000000000000000000000000000000000000000081525090610ab0576040517f08c379a0000000000000000000000000000000000000000000000000000000008152600401610aa79190612f18565b60405180910390fd5b50600182610abe91906139e7565b60345f8b73ffffffffffffffffffffffffffffffffffffffff1673ffffffffffffffffffffffffffffffffffffffff1681526020019081526020015f2081905550610b0a898989612353565b505050505050505050565b5f610b4e603f5f9054906101000a90046fffffffffffffffffffffffffffffffff166fffffffffffffffffffffffffffffffff16612472565b905090565b5f6040518060400160405280600281526020017f38300000000000000000000000000000000000000000000000000000000000008152506040517f08c379a0000000000000000000000000000000000000000000000000000000008152600401610bbd9190612f18565b60405180910390fd5b5f603d5f9054906101000a900460ff16905090565b5f7f00000000000000000000000000000000000000000000000000000000000000004603610c0d576035549050610c18565b610c156124cb565b90505b90565b5f6040518060400160405280600281526020017f38300000000000000000000000000000000000000000000000000000000000008152506040517f08c379a0000000000000000000000000000000000000000000000000000000008152600401610c859190612f18565b60405180910390fd5b5f60365f8473ffffffffffffffffffffffffffffffffffffffff1673ffffffffffffffffffffffffffffffffffffffff1681526020019081526020015f205f8373ffffffffffffffffffffffffffffffffffffffff1673ffffffffffffffffffffffffffffffffffffffff1681526020019081526020015f2054905092915050565b5f80610d1b8361256a565b90505f60385f8573ffffffffffffffffffffffffffffffffffffffff1673ffffffffffffffffffffffffffffffffffffffff1681526020019081526020015f205f0160109054906101000a90046fffffffffffffffffffffffffffffffff166fffffffffffffffffffffffffffffffff1690505f8203610d9f575f92505050610e12565b5f610df782603e5f8873ffffffffffffffffffffffffffffffffffffffff1673ffffffffffffffffffffffffffffffffffffffff1681526020019081526020015f205f9054906101000a900464ffffffffff166125df565b9050610e0c81846125f390919063ffffffff16565b93505050505b919050565b7f000000000000000000000000000000000000000000000000000000000000000081565b5f603d60019054906101000a900473ffffffffffffffffffffffffffffffffffffffff16905090565b6040518060400160405280600181526020017f310000000000000000000000000000000000000000000000000000000000000081525081565b5f805f805f603f5f9054906101000a90046fffffffffffffffffffffffffffffffff166fffffffffffffffffffffffffffffffff169050610edc61263b565b610ee582612472565b82603f60109054906101000a900464ffffffffff1694509450945094505090919293565b5f603e5f8373ffffffffffffffffffffffffffffffffffffffff1673ffffffffffffffffffffffffffffffffffffffff1681526020019081526020015f205f9054906101000a900464ffffffffff169050919050565b5f60345f8373ffffffffffffffffffffffffffffffffffffffff1673ffffffffffffffffffffffffffffffffffffffff1681526020019081526020015f20549050919050565b5f603f5f9054906101000a90046fffffffffffffffffffffffffffffffff166fffffffffffffffffffffffffffffffff16905090565b6060603c8054610fea9061384c565b80601f01602080910402602001604051908101604052809291908181526020018280546110169061384c565b80156110615780601f1061103857610100808354040283529160200191611061565b820191905f5260205f20905b81548152906001019060200180831161104457829003601f168201915b5050505050905090565b5f807f000000000000000000000000000000000000000000000000000000000000000073ffffffffffffffffffffffffffffffffffffffff166110ac612644565b73ffffffffffffffffffffffffffffffffffffffff16146040518060400160405280600281526020017f32330000000000000000000000000000000000000000000000000000000000008152509061113a576040517f08c379a00000000000000000000000000000000000000000000000000000000081526004016111319190612f18565b60405180910390fd5b505f806111468661264b565b92509250505f611154610b15565b90505f805f60385f8b73ffffffffffffffffffffffffffffffffffffffff1673ffffffffffffffffffffffffffffffffffffffff1681526020019081526020015f205f0160109054906101000a90046fffffffffffffffffffffffffffffffff166fffffffffffffffffffffffffffffffff169050888411611214575f603f5f6101000a8154816fffffffffffffffffffffffffffffffff02191690836fffffffffffffffffffffffffffffffff1602179055505f603a8190555061136a565b88846112209190613a1a565b603a81905591505f6112726112348661269a565b603f5f9054906101000a90046fffffffffffffffffffffffffffffffff166fffffffffffffffffffffffffffffffff166125f390919063ffffffff16565b90505f6112906112818c61269a565b846125f390919063ffffffff16565b90508181106112ee575f603f5f6101000a8154816fffffffffffffffffffffffffffffffff02191690836fffffffffffffffffffffffffffffffff16021790556fffffffffffffffffffffffffffffffff16603a8190559450611367565b61131c6113176112fd8661269a565b83856113099190613a1a565b6126ba90919063ffffffff16565b6126fe565b603f5f6101000a8154816fffffffffffffffffffffffffffffffff02191690836fffffffffffffffffffffffffffffffff16021790556fffffffffffffffffffffffffffffffff1694505b50505b858903611449575f60385f8c73ffffffffffffffffffffffffffffffffffffffff1673ffffffffffffffffffffffffffffffffffffffff1681526020019081526020015f205f0160106101000a8154816fffffffffffffffffffffffffffffffff02191690836fffffffffffffffffffffffffffffffff1602179055505f603e5f8c73ffffffffffffffffffffffffffffffffffffffff1673ffffffffffffffffffffffffffffffffffffffff1681526020019081526020015f205f6101000a81548164ffffffffff021916908364ffffffffff1602179055506114a7565b42603e5f8c73ffffffffffffffffffffffffffffffffffffffff1673ffffffffffffffffffffffffffffffffffffffff1681526020019081526020015f205f6101000a81548164ffffffffff021916908364ffffffffff1602179055505b42603f60106101000a81548164ffffffffff021916908364ffffffffff160217905550888511156115c6575f89866114df9190613a1a565b90506114ec8b828761275c565b8a73ffffffffffffffffffffffffffffffffffffffff165f73ffffffffffffffffffffffffffffffffffffffff167fddf252ad1be2c89b69c2b068fc378daa952ba7f163c4a11628f55a4df523b3ef83604051611549919061315c565b60405180910390a38a73ffffffffffffffffffffffffffffffffffffffff168b73ffffffffffffffffffffffffffffffffffffffff167fc16f4e4ca34d790de4c656c72fd015c667d688f20be64eea360618545c4c530f838a8a878a8a6040516115b896959493929190613a4d565b60405180910390a35061169d565b5f858a6115d39190613a1a565b90506115e08b828761292f565b5f73ffffffffffffffffffffffffffffffffffffffff168b73ffffffffffffffffffffffffffffffffffffffff167fddf252ad1be2c89b69c2b068fc378daa952ba7f163c4a11628f55a4df523b3ef8360405161163d919061315c565b60405180910390a38a73ffffffffffffffffffffffffffffffffffffffff167f44bd20a79e993bdcc7cbedf54a3b4d19fb78490124b6b90d04fe3242eea579e88289898888604051611693959493929190613aac565b60405180910390a2505b8183975097505050505050509250929050565b5f6040518060400160405280600281526020017f38300000000000000000000000000000000000000000000000000000000000008152506040517f08c379a000000000000000000000000000000000000000000000000000000000815260040161171a9190612f18565b60405180910390fd5b5f6040518060400160405280600281526020017f38300000000000000000000000000000000000000000000000000000000000008152506040517f08c379a000000000000000000000000000000000000000000000000000000000815260040161178d9190612f18565b60405180910390fd5b5f60375f9054906101000a900473ffffffffffffffffffffffffffffffffffffffff16905090565b5f805f7f000000000000000000000000000000000000000000000000000000000000000073ffffffffffffffffffffffffffffffffffffffff16611800612644565b73ffffffffffffffffffffffffffffffffffffffff16146040518060400160405280600281526020017f32330000000000000000000000000000000000000000000000000000000000008152509061188e576040517f08c379a00000000000000000000000000000000000000000000000000000000081526004016118859190612f18565b60405180910390fd5b50611897612e78565b8673ffffffffffffffffffffffffffffffffffffffff168873ffffffffffffffffffffffffffffffffffffffff16146118d6576118d5878988612b02565b5b5f806118e18961264b565b92509250506118ee610b15565b835f018181525050603f5f9054906101000a90046fffffffffffffffffffffffffffffffff166fffffffffffffffffffffffffffffffff168360a001818152505087835f015161193e91906139e7565b603a8190558360200181815250506119558861269a565b83604001818152505060385f8a73ffffffffffffffffffffffffffffffffffffffff1673ffffffffffffffffffffffffffffffffffffffff1681526020019081526020015f205f0160109054906101000a90046fffffffffffffffffffffffffffffffff166fffffffffffffffffffffffffffffffff16836060018181525050611a3a6119ec89846119e791906139e7565b61269a565b611a038986604001516125f390919063ffffffff16565b611a22611a0f8661269a565b87606001516125f390919063ffffffff16565b611a2c91906139e7565b6126ba90919063ffffffff16565b836080018181525050611a5083608001516126fe565b60385f8b73ffffffffffffffffffffffffffffffffffffffff1673ffffffffffffffffffffffffffffffffffffffff1681526020019081526020015f205f0160106101000a8154816fffffffffffffffffffffffffffffffff02191690836fffffffffffffffffffffffffffffffff16021790555042603e5f8b73ffffffffffffffffffffffffffffffffffffffff1673ffffffffffffffffffffffffffffffffffffffff1681526020019081526020015f205f6101000a81548164ffffffffff021916908364ffffffffff1602179055603f60106101000a81548164ffffffffff021916908364ffffffffff160217905550611bac611ba7611b56856020015161269a565b611b6d86604001518b6125f390919063ffffffff16565b611b8f611b7c885f015161269a565b8860a001516125f390919063ffffffff16565b611b9991906139e7565b6126ba90919063ffffffff16565b6126fe565b603f5f6101000a8154816fffffffffffffffffffffffffffffffff02191690836fffffffffffffffffffffffffffffffff16021790556fffffffffffffffffffffffffffffffff168360a00181815250505f8189611c0a91906139e7565b9050611c1a8a82865f015161275c565b8973ffffffffffffffffffffffffffffffffffffffff165f73ffffffffffffffffffffffffffffffffffffffff167fddf252ad1be2c89b69c2b068fc378daa952ba7f163c4a11628f55a4df523b3ef83604051611c77919061315c565b60405180910390a38973ffffffffffffffffffffffffffffffffffffffff168b73ffffffffffffffffffffffffffffffffffffffff167fc16f4e4ca34d790de4c656c72fd015c667d688f20be64eea360618545c4c530f83868689608001518a60a001518b60200151604051611cf296959493929190613a4d565b60405180910390a35f831484602001518560a00151965096509650505050509450945094915050565b600181565b611d32611d2b612644565b8383612353565b5050565b5f611d3f612ca9565b905060015f9054906101000a900460ff1680611d5f5750611d5e612cb1565b5b80611d6a57505f5481115b611da9576040517f08c379a0000000000000000000000000000000000000000000000000000000008152600401611da090613b6d565b60405180910390fd5b5f60015f9054906101000a900460ff161590508015611de2576001805f6101000a81548160ff021916908315150217905550815f819055505b7f000000000000000000000000000000000000000000000000000000000000000073ffffffffffffffffffffffffffffffffffffffff168a73ffffffffffffffffffffffffffffffffffffffff16146040518060400160405280600281526020017f383700000000000000000000000000000000000000000000000000000000000081525090611ea8576040517f08c379a0000000000000000000000000000000000000000000000000000000008152600401611e9f9190612f18565b60405180910390fd5b50611eb286612cc0565b611ebb85612cd3565b611ec487612ce6565b8860375f6101000a81548173ffffffffffffffffffffffffffffffffffffffff021916908373ffffffffffffffffffffffffffffffffffffffff16021790555087603d60016101000a81548173ffffffffffffffffffffffffffffffffffffffff021916908373ffffffffffffffffffffffffffffffffffffffff160217905550611f4d6124cb565b6035819055507f000000000000000000000000000000000000000000000000000000000000000073ffffffffffffffffffffffffffffffffffffffff168973ffffffffffffffffffffffffffffffffffffffff167f40251fbfb6656cfa65a00d7879029fec1fad21d28fdcff2f4f68f52795b74f2c8a8a8a8a8a8a604051611fda96959493929190613bb7565b60405180910390a38015612002575f60015f6101000a81548160ff0219169083151502179055505b50505050505050505050565b5f6120188261256a565b9050919050565b5f6040518060400160405280600281526020017f38300000000000000000000000000000000000000000000000000000000000008152506040517f08c379a00000000000000000000000000000000000000000000000000000000081526004016120899190612f18565b60405180910390fd5b5f7f000000000000000000000000000000000000000000000000000000000000000073ffffffffffffffffffffffffffffffffffffffff1663707cd7166040518163ffffffff1660e01b8152600401602060405180830381865afa1580156120fc573d5f803e3d5ffd5b505050506040513d601f19601f820116820180604052508101906121209190613c33565b90508073ffffffffffffffffffffffffffffffffffffffff16637be53ca1336040518263ffffffff1660e01b815260040161215b919061344e565b602060405180830381865afa158015612176573d5f803e3d5ffd5b505050506040513d601f19601f8201168201806040525081019061219a9190613c88565b6040518060400160405280600181526020017f310000000000000000000000000000000000000000000000000000000000000081525090612211576040517f08c379a00000000000000000000000000000000000000000000000000000000081526004016122089190612f18565b60405180910390fd5b5081603d60016101000a81548173ffffffffffffffffffffffffffffffffffffffff021916908373ffffffffffffffffffffffffffffffffffffffff1602179055505050565b5f603f60109054906101000a900464ffffffffff16905090565b5f60385f8373ffffffffffffffffffffffffffffffffffffffff1673ffffffffffffffffffffffffffffffffffffffff1681526020019081526020015f205f0160109054906101000a90046fffffffffffffffffffffffffffffffff166fffffffffffffffffffffffffffffffff169050919050565b7f323db0410fecc107e39e2af5908671f4c8d106123b35a51501bb805c5fa36aa081565b5f805f603f5f9054906101000a90046fffffffffffffffffffffffffffffffff166fffffffffffffffffffffffffffffffff16905061234981612472565b8192509250509091565b8060365f8573ffffffffffffffffffffffffffffffffffffffff1673ffffffffffffffffffffffffffffffffffffffff1681526020019081526020015f205f8473ffffffffffffffffffffffffffffffffffffffff1673ffffffffffffffffffffffffffffffffffffffff1681526020019081526020015f208190555060375f9054906101000a900473ffffffffffffffffffffffffffffffffffffffff1673ffffffffffffffffffffffffffffffffffffffff168273ffffffffffffffffffffffffffffffffffffffff168473ffffffffffffffffffffffffffffffffffffffff167fda919360433220e13b51e8c211e490d148e61a3bd53de8c097194e458b97f3e184604051612465919061315c565b60405180910390a4505050565b5f8061247c61263b565b90505f810361248e575f9150506124c6565b5f6124ac84603f60109054906101000a900464ffffffffff166125df565b90506124c181836125f390919063ffffffff16565b925050505b919050565b5f7f8b73c3c69bb8fe3d512ecc4cf759cc79239f7b179b0ffacaa9a75d522b39400f6124f5612d03565b805190602001206040518060400160405280600181526020017f310000000000000000000000000000000000000000000000000000000000000081525080519060200120463060405160200161254f959493929190613cb3565b60405160208183030381529060405280519060200120905090565b5f60385f8373ffffffffffffffffffffffffffffffffffffffff1673ffffffffffffffffffffffffffffffffffffffff1681526020019081526020015f205f015f9054906101000a90046fffffffffffffffffffffffffffffffff166fffffffffffffffffffffffffffffffff169050919050565b5f6125eb838342612d12565b905092915050565b5f816b019d971e4fe8401e740000005f190304831115821517612614575f80fd5b6b033b2e3c9fd0803ce80000006b019d971e4fe8401e740000008385020104905092915050565b5f603a54905090565b5f33905090565b5f805f806126588561256a565b90505f8103612670575f805f93509350935050612693565b5f61267a86610d10565b90508181838361268a9190613a1a565b94509450945050505b9193909250565b5f633b9aca008202905081633b9aca008204146126b5575f80fd5b919050565b5f6b033b2e3c9fd0803ce8000000600283045f19030483111515821517156126e0575f80fd5b81600283046b033b2e3c9fd0803ce800000085020104905092915050565b5f6fffffffffffffffffffffffffffffffff8016821115612754576040517f08c379a000000000000000000000000000000000000000000000000000000000815260040161274b90613d74565b60405180910390fd5b819050919050565b5f612766836126fe565b90505f60385f8673ffffffffffffffffffffffffffffffffffffffff1673ffffffffffffffffffffffffffffffffffffffff1681526020019081526020015f205f015f9054906101000a90046fffffffffffffffffffffffffffffffff16905081816127d29190613dad565b60385f8773ffffffffffffffffffffffffffffffffffffffff1673ffffffffffffffffffffffffffffffffffffffff1681526020019081526020015f205f015f6101000a8154816fffffffffffffffffffffffffffffffff02191690836fffffffffffffffffffffffffffffffff1602179055505f73ffffffffffffffffffffffffffffffffffffffff16603d60019054906101000a900473ffffffffffffffffffffffffffffffffffffffff1673ffffffffffffffffffffffffffffffffffffffff161461292857603d60019054906101000a900473ffffffffffffffffffffffffffffffffffffffff1673ffffffffffffffffffffffffffffffffffffffff166331873e2e8685846040518463ffffffff1660e01b81526004016128fa93929190613e20565b5f604051808303815f87803b158015612911575f80fd5b505af1158015612923573d5f803e3d5ffd5b505050505b5050505050565b5f612939836126fe565b90505f60385f8673ffffffffffffffffffffffffffffffffffffffff1673ffffffffffffffffffffffffffffffffffffffff1681526020019081526020015f205f015f9054906101000a90046fffffffffffffffffffffffffffffffff16905081816129a59190613e55565b60385f8773ffffffffffffffffffffffffffffffffffffffff1673ffffffffffffffffffffffffffffffffffffffff1681526020019081526020015f205f015f6101000a8154816fffffffffffffffffffffffffffffffff02191690836fffffffffffffffffffffffffffffffff1602179055505f73ffffffffffffffffffffffffffffffffffffffff16603d60019054906101000a900473ffffffffffffffffffffffffffffffffffffffff1673ffffffffffffffffffffffffffffffffffffffff1614612afb57603d60019054906101000a900473ffffffffffffffffffffffffffffffffffffffff1673ffffffffffffffffffffffffffffffffffffffff166331873e2e8685846040518463ffffffff1660e01b8152600401612acd93929190613e20565b5f604051808303815f87803b158015612ae4575f80fd5b505af1158015612af6573d5f803e3d5ffd5b505050505b5050505050565b5f8160365f8673ffffffffffffffffffffffffffffffffffffffff1673ffffffffffffffffffffffffffffffffffffffff1681526020019081526020015f205f8573ffffffffffffffffffffffffffffffffffffffff1673ffffffffffffffffffffffffffffffffffffffff1681526020019081526020015f2054612b879190613a1a565b90508060365f8673ffffffffffffffffffffffffffffffffffffffff1673ffffffffffffffffffffffffffffffffffffffff1681526020019081526020015f205f8573ffffffffffffffffffffffffffffffffffffffff1673ffffffffffffffffffffffffffffffffffffffff1681526020019081526020015f208190555060375f9054906101000a900473ffffffffffffffffffffffffffffffffffffffff1673ffffffffffffffffffffffffffffffffffffffff168373ffffffffffffffffffffffffffffffffffffffff168573ffffffffffffffffffffffffffffffffffffffff167fda919360433220e13b51e8c211e490d148e61a3bd53de8c097194e458b97f3e184604051612c9b919061315c565b60405180910390a450505050565b5f6001905090565b5f80303b90505f811491505090565b80603b9081612ccf919061402c565b5050565b80603c9081612ce2919061402c565b5050565b80603d5f6101000a81548160ff021916908360ff16021790555050565b6060612d0d6106d6565b905090565b5f808364ffffffffff1683612d279190613a1a565b90505f8103612d45576b033b2e3c9fd0803ce8000000915050612e71565b5f805f8060018503935060028511612d5d575f612d62565b600285035b92506301e133808002612d7e8a8b6125f390919063ffffffff16565b81612d8c57612d8b6140fb565b5b0491506301e13380612da78a846125f390919063ffffffff16565b81612db557612db46140fb565b5b0490505f828587612dc69190614128565b612dd09190614128565b905060028181612de357612de26140fb565b5b0490505f82858789612df59190614128565b612dff9190614128565b612e099190614128565b905060068181612e1c57612e1b6140fb565b5b04905080826301e13380898e612e329190614128565b612e3c9190614169565b6b033b2e3c9fd0803ce8000000612e5391906139e7565b612e5d91906139e7565b612e6791906139e7565b9750505050505050505b9392505050565b6040518060c001604052805f81526020015f81526020015f81526020015f81526020015f81526020015f81525090565b5f81519050919050565b5f82825260208201905092915050565b8281835e5f83830152505050565b5f601f19601f8301169050919050565b5f612eea82612ea8565b612ef48185612eb2565b9350612f04818560208601612ec2565b612f0d81612ed0565b840191505092915050565b5f6020820190508181035f830152612f308184612ee0565b905092915050565b5f604051905090565b5f80fd5b5f80fd5b5f73ffffffffffffffffffffffffffffffffffffffff82169050919050565b5f612f7282612f49565b9050919050565b612f8281612f68565b8114612f8c575f80fd5b50565b5f81359050612f9d81612f79565b92915050565b5f819050919050565b612fb581612fa3565b8114612fbf575f80fd5b50565b5f81359050612fd081612fac565b92915050565b5f8060408385031215612fec57612feb612f41565b5b5f612ff985828601612f8f565b925050602061300a85828601612fc2565b9150509250929050565b5f8115159050919050565b61302881613014565b82525050565b5f6020820190506130415f83018461301f565b92915050565b5f60ff82169050919050565b61305c81613047565b8114613066575f80fd5b50565b5f8135905061307781613053565b92915050565b5f819050919050565b61308f8161307d565b8114613099575f80fd5b50565b5f813590506130aa81613086565b92915050565b5f805f805f805f60e0888a0312156130cb576130ca612f41565b5b5f6130d88a828b01612f8f565b97505060206130e98a828b01612f8f565b96505060406130fa8a828b01612fc2565b955050606061310b8a828b01612fc2565b945050608061311c8a828b01613069565b93505060a061312d8a828b0161309c565b92505060c061313e8a828b0161309c565b91505092959891949750929550565b61315681612fa3565b82525050565b5f60208201905061316f5f83018461314d565b92915050565b5f805f6060848603121561318c5761318b612f41565b5b5f61319986828701612f8f565b93505060206131aa86828701612f8f565b92505060406131bb86828701612fc2565b9150509250925092565b6131ce81613047565b82525050565b5f6020820190506131e75f8301846131c5565b92915050565b6131f68161307d565b82525050565b5f60208201905061320f5f8301846131ed565b92915050565b5f806040838503121561322b5761322a612f41565b5b5f61323885828601612f8f565b925050602061324985828601612f8f565b9150509250929050565b5f6020828403121561326857613267612f41565b5b5f61327584828501612f8f565b91505092915050565b5f819050919050565b5f6132a161329c61329784612f49565b61327e565b612f49565b9050919050565b5f6132b282613287565b9050919050565b5f6132c3826132a8565b9050919050565b6132d3816132b9565b82525050565b5f6020820190506132ec5f8301846132ca565b92915050565b5f6132fc826132a8565b9050919050565b61330c816132f2565b82525050565b5f6020820190506133255f830184613303565b92915050565b5f81519050919050565b5f82825260208201905092915050565b5f61334f8261332b565b6133598185613335565b9350613369818560208601612ec2565b61337281612ed0565b840191505092915050565b5f6020820190508181035f8301526133958184613345565b905092915050565b5f64ffffffffff82169050919050565b6133b68161339d565b82525050565b5f6080820190506133cf5f83018761314d565b6133dc602083018661314d565b6133e9604083018561314d565b6133f660608301846133ad565b95945050505050565b5f6020820190506134125f8301846133ad565b92915050565b5f60408201905061342b5f83018561314d565b613438602083018461314d565b9392505050565b61344881612f68565b82525050565b5f6020820190506134615f83018461343f565b92915050565b5f805f806080858703121561347f5761347e612f41565b5b5f61348c87828801612f8f565b945050602061349d87828801612f8f565b93505060406134ae87828801612fc2565b92505060606134bf87828801612fc2565b91505092959194509250565b5f6060820190506134de5f83018661301f565b6134eb602083018561314d565b6134f8604083018461314d565b949350505050565b5f61350a82612f68565b9050919050565b61351a81613500565b8114613524575f80fd5b50565b5f8135905061353581613511565b92915050565b5f61354582612f68565b9050919050565b6135558161353b565b811461355f575f80fd5b50565b5f813590506135708161354c565b92915050565b5f80fd5b5f80fd5b7f4e487b71000000000000000000000000000000000000000000000000000000005f52604160045260245ffd5b6135b482612ed0565b810181811067ffffffffffffffff821117156135d3576135d261357e565b5b80604052505050565b5f6135e5612f38565b90506135f182826135ab565b919050565b5f67ffffffffffffffff8211156136105761360f61357e565b5b61361982612ed0565b9050602081019050919050565b828183375f83830152505050565b5f613646613641846135f6565b6135dc565b9050828152602081018484840111156136625761366161357a565b5b61366d848285613626565b509392505050565b5f82601f83011261368957613688613576565b5b8135613699848260208601613634565b91505092915050565b5f80fd5b5f80fd5b5f8083601f8401126136bf576136be613576565b5b8235905067ffffffffffffffff8111156136dc576136db6136a2565b5b6020830191508360018202830111156136f8576136f76136a6565b5b9250929050565b5f805f805f805f8060e0898b03121561371b5761371a612f41565b5b5f6137288b828c01613527565b98505060206137398b828c01612f8f565b975050604061374a8b828c01613562565b965050606061375b8b828c01613069565b955050608089013567ffffffffffffffff81111561377c5761377b612f45565b5b6137888b828c01613675565b94505060a089013567ffffffffffffffff8111156137a9576137a8612f45565b5b6137b58b828c01613675565b93505060c089013567ffffffffffffffff8111156137d6576137d5612f45565b5b6137e28b828c016136aa565b92509250509295985092959890939650565b5f6020828403121561380957613808612f41565b5b5f61381684828501613562565b91505092915050565b7f4e487b71000000000000000000000000000000000000000000000000000000005f52602260045260245ffd5b5f600282049050600182168061386357607f821691505b6020821081036138765761387561381f565b5b50919050565b5f60a08201905061388f5f8301886131ed565b61389c602083018761343f565b6138a9604083018661314d565b6138b6606083018561314d565b6138c3608083018461314d565b9695505050505050565b5f81905092915050565b7f19010000000000000000000000000000000000000000000000000000000000005f82015250565b5f61390b6002836138cd565b9150613916826138d7565b600282019050919050565b5f819050919050565b61393b6139368261307d565b613921565b82525050565b5f61394b826138ff565b9150613957828561392a565b602082019150613967828461392a565b6020820191508190509392505050565b5f60808201905061398a5f8301876131ed565b61399760208301866131c5565b6139a460408301856131ed565b6139b160608301846131ed565b95945050505050565b7f4e487b71000000000000000000000000000000000000000000000000000000005f52601160045260245ffd5b5f6139f182612fa3565b91506139fc83612fa3565b9250828201905080821115613a1457613a136139ba565b5b92915050565b5f613a2482612fa3565b9150613a2f83612fa3565b9250828203905081811115613a4757613a466139ba565b5b92915050565b5f60c082019050613a605f83018961314d565b613a6d602083018861314d565b613a7a604083018761314d565b613a87606083018661314d565b613a94608083018561314d565b613aa160a083018461314d565b979650505050505050565b5f60a082019050613abf5f83018861314d565b613acc602083018761314d565b613ad9604083018661314d565b613ae6606083018561314d565b613af3608083018461314d565b9695505050505050565b7f436f6e747261637420696e7374616e63652068617320616c72656164792062655f8201527f656e20696e697469616c697a6564000000000000000000000000000000000000602082015250565b5f613b57602e83612eb2565b9150613b6282613afd565b604082019050919050565b5f6020820190508181035f830152613b8481613b4b565b9050919050565b5f613b968385613335565b9350613ba3838584613626565b613bac83612ed0565b840190509392505050565b5f60a082019050613bca5f83018961343f565b613bd760208301886131c5565b8181036040830152613be98187612ee0565b90508181036060830152613bfd8186612ee0565b90508181036080830152613c12818486613b8b565b9050979650505050505050565b5f81519050613c2d81612f79565b92915050565b5f60208284031215613c4857613c47612f41565b5b5f613c5584828501613c1f565b91505092915050565b613c6781613014565b8114613c71575f80fd5b50565b5f81519050613c8281613c5e565b92915050565b5f60208284031215613c9d57613c9c612f41565b5b5f613caa84828501613c74565b91505092915050565b5f60a082019050613cc65f8301886131ed565b613cd360208301876131ed565b613ce060408301866131ed565b613ced606083018561314d565b613cfa608083018461343f565b9695505050505050565b7f53616665436173743a2076616c756520646f65736e27742066697420696e20315f8201527f3238206269747300000000000000000000000000000000000000000000000000602082015250565b5f613d5e602783612eb2565b9150613d6982613d04565b604082019050919050565b5f6020820190508181035f830152613d8b81613d52565b9050919050565b5f6fffffffffffffffffffffffffffffffff82169050919050565b5f613db782613d92565b9150613dc283613d92565b925082820190506fffffffffffffffffffffffffffffffff811115613dea57613de96139ba565b5b92915050565b5f613e0a613e05613e0084613d92565b61327e565b612fa3565b9050919050565b613e1a81613df0565b82525050565b5f606082019050613e335f83018661343f565b613e40602083018561314d565b613e4d6040830184613e11565b949350505050565b5f613e5f82613d92565b9150613e6a83613d92565b925082820390506fffffffffffffffffffffffffffffffff811115613e9257613e916139ba565b5b92915050565b5f819050815f5260205f209050919050565b5f6020601f8301049050919050565b5f82821b905092915050565b5f60088302613ef47fffffffffffffffffffffffffffffffffffffffffffffffffffffffffffffffff82613eb9565b613efe8683613eb9565b95508019841693508086168417925050509392505050565b5f613f30613f2b613f2684612fa3565b61327e565b612fa3565b9050919050565b5f819050919050565b613f4983613f16565b613f5d613f5582613f37565b848454613ec5565b825550505050565b5f90565b613f71613f65565b613f7c818484613f40565b505050565b5b81811015613f9f57613f945f82613f69565b600181019050613f82565b5050565b601f821115613fe457613fb581613e98565b613fbe84613eaa565b81016020851015613fcd578190505b613fe1613fd985613eaa565b830182613f81565b50505b505050565b5f82821c905092915050565b5f6140045f1984600802613fe9565b1980831691505092915050565b5f61401c8383613ff5565b9150826002028217905092915050565b61403582612ea8565b67ffffffffffffffff81111561404e5761404d61357e565b5b614058825461384c565b614063828285613fa3565b5f60209050601f831160018114614094575f8415614082578287015190505b61408c8582614011565b8655506140f3565b601f1984166140a286613e98565b5f5b828110156140c9578489015182556001820191506020850194506020810190506140a4565b868310156140e657848901516140e2601f891682613ff5565b8355505b6001600288020188555050505b505050505050565b7f4e487b71000000000000000000000000000000000000000000000000000000005f52601260045260245ffd5b5f61413282612fa3565b915061413d83612fa3565b925082820261414b81612fa3565b91508282048414831517614162576141616139ba565b5b5092915050565b5f61417382612fa3565b915061417e83612fa3565b92508261418e5761418d6140fb565b5b82820490509291505056fea2646970667358221220501aab6392d6e9f218d7553866cdc1ff9171e9ab41ef88c6b1a009435b7320da64736f6c634300081a0033",
			"opcodes": "PUSH1 0xE0 PUSH1 0x40 MSTORE PUSH0 DUP1 SSTORE CALLVALUE DUP1 ISZERO PUSH2 0x12 JUMPI PUSH0 DUP1 REVERT JUMPDEST POP PUSH1 0x40 MLOAD PUSH2 0x47E0 CODESIZE SUB DUP1 PUSH2 0x47E0 DUP4 CODECOPY DUP2 DUP2 ADD PUSH1 0x40 MSTORE DUP2 ADD SWAP1 PUSH2 0x34 SWAP2 SWAP1 PUSH2 0x231 JUMP JUMPDEST DUP1 PUSH1 0x40 MLOAD DUP1 PUSH1 0x40 ADD PUSH1 0x40 MSTORE DUP1 PUSH1 0x16 DUP2 MSTORE PUSH1 0x20 ADD PUSH32 0x535441424C455F444542545F544F4B454E5F494D504C00000000000000000000 DUP2 MSTORE POP PUSH1 0x40 MLOAD DUP1 PUSH1 0x40 ADD PUSH1 0x40 MSTORE DUP1 PUSH1 0x16 DUP2 MSTORE PUSH1 0x20 ADD PUSH32 0x535441424C455F444542545F544F4B454E5F494D504C00000000000000000000 DUP2 MSTORE POP PUSH0 CHAINID PUSH1 0x80 DUP2 DUP2 MSTORE POP POP DUP4 PUSH20 0xFFFFFFFFFFFFFFFFFFFFFFFFFFFFFFFFFFFFFFFF AND PUSH4 0x542975C PUSH1 0x40 MLOAD DUP2 PUSH4 0xFFFFFFFF AND PUSH1 0xE0 SHL DUP2 MSTORE PUSH1 0x4 ADD PUSH1 0x20 PUSH1 0x40 MLOAD DUP1 DUP4 SUB DUP2 DUP7 GAS STATICCALL ISZERO DUP1 ISZERO PUSH2 0xF3 JUMPI RETURNDATASIZE PUSH0 DUP1 RETURNDATACOPY RETURNDATASIZE PUSH0 REVERT JUMPDEST POP POP POP POP PUSH1 0x40 MLOAD RETURNDATASIZE PUSH1 0x1F NOT PUSH1 0x1F DUP3 ADD AND DUP3 ADD DUP1 PUSH1 0x40 MSTORE POP DUP2 ADD SWAP1 PUSH2 0x117 SWAP2 SWAP1 PUSH2 0x297 JUMP JUMPDEST PUSH20 0xFFFFFFFFFFFFFFFFFFFFFFFFFFFFFFFFFFFFFFFF AND PUSH1 0xA0 DUP2 PUSH20 0xFFFFFFFFFFFFFFFFFFFFFFFFFFFFFFFFFFFFFFFF AND DUP2 MSTORE POP POP DUP3 PUSH1 0x3B SWAP1 DUP2 PUSH2 0x159 SWAP2 SWAP1 PUSH2 0x4FC JUMP JUMPDEST POP DUP2 PUSH1 0x3C SWAP1 DUP2 PUSH2 0x169 SWAP2 SWAP1 PUSH2 0x4FC JUMP JUMPDEST POP DUP1 PUSH1 0x3D PUSH0 PUSH2 0x100 EXP DUP2 SLOAD DUP2 PUSH1 0xFF MUL NOT AND SWAP1 DUP4 PUSH1 0xFF AND MUL OR SWAP1 SSTORE POP DUP4 PUSH20 0xFFFFFFFFFFFFFFFFFFFFFFFFFFFFFFFFFFFFFFFF AND PUSH1 0xC0 DUP2 PUSH20 0xFFFFFFFFFFFFFFFFFFFFFFFFFFFFFFFFFFFFFFFF AND DUP2 MSTORE POP POP POP POP POP POP POP PUSH2 0x5CB JUMP JUMPDEST PUSH0 DUP1 REVERT JUMPDEST PUSH0 PUSH20 0xFFFFFFFFFFFFFFFFFFFFFFFFFFFFFFFFFFFFFFFF DUP3 AND SWAP1 POP SWAP2 SWAP1 POP JUMP JUMPDEST PUSH0 PUSH2 0x1EF DUP3 PUSH2 0x1C6 JUMP JUMPDEST SWAP1 POP SWAP2 SWAP1 POP JUMP JUMPDEST PUSH0 PUSH2 0x200 DUP3 PUSH2 0x1E5 JUMP JUMPDEST SWAP1 POP SWAP2 SWAP1 POP JUMP JUMPDEST PUSH2 0x210 DUP2 PUSH2 0x1F6 JUMP JUMPDEST DUP2 EQ PUSH2 0x21A JUMPI PUSH0 DUP1 REVERT JUMPDEST POP JUMP JUMPDEST PUSH0 DUP2 MLOAD SWAP1 POP PUSH2 0x22B DUP2 PUSH2 0x207 JUMP JUMPDEST SWAP3 SWAP2 POP POP JUMP JUMPDEST PUSH0 PUSH1 0x20 DUP3 DUP5 SUB SLT ISZERO PUSH2 0x246 JUMPI PUSH2 0x245 PUSH2 0x1C2 JUMP JUMPDEST JUMPDEST PUSH0 PUSH2 0x253 DUP5 DUP3 DUP6 ADD PUSH2 0x21D JUMP JUMPDEST SWAP2 POP POP SWAP3 SWAP2 POP POP JUMP JUMPDEST PUSH0 PUSH2 0x266 DUP3 PUSH2 0x1E5 JUMP JUMPDEST SWAP1 POP SWAP2 SWAP1 POP JUMP JUMPDEST PUSH2 0x276 DUP2 PUSH2 0x25C JUMP JUMPDEST DUP2 EQ PUSH2 0x280 JUMPI PUSH0 DUP1 REVERT JUMPDEST POP JUMP JUMPDEST PUSH0 DUP2 MLOAD SWAP1 POP PUSH2 0x291 DUP2 PUSH2 0x26D JUMP JUMPDEST SWAP3 SWAP2 POP POP JUMP JUMPDEST PUSH0 PUSH1 0x20 DUP3 DUP5 SUB SLT ISZERO PUSH2 0x2AC JUMPI PUSH2 0x2AB PUSH2 0x1C2 JUMP JUMPDEST JUMPDEST PUSH0 PUSH2 0x2B9 DUP5 DUP3 DUP6 ADD PUSH2 0x283 JUMP JUMPDEST SWAP2 POP POP SWAP3 SWAP2 POP POP JUMP JUMPDEST PUSH0 DUP2 MLOAD SWAP1 POP SWAP2 SWAP1 POP JUMP JUMPDEST PUSH32 0x4E487B7100000000000000000000000000000000000000000000000000000000 PUSH0 MSTORE PUSH1 0x41 PUSH1 0x4 MSTORE PUSH1 0x24 PUSH0 REVERT JUMPDEST PUSH32 0x4E487B7100000000000000000000000000000000000000000000000000000000 PUSH0 MSTORE PUSH1 0x22 PUSH1 0x4 MSTORE PUSH1 0x24 PUSH0 REVERT JUMPDEST PUSH0 PUSH1 0x2 DUP3 DIV SWAP1 POP PUSH1 0x1 DUP3 AND DUP1 PUSH2 0x33D JUMPI PUSH1 0x7F DUP3 AND SWAP2 POP JUMPDEST PUSH1 0x20 DUP3 LT DUP2 SUB PUSH2 0x350 JUMPI PUSH2 0x34F PUSH2 0x2F9 JUMP JUMPDEST JUMPDEST POP SWAP2 SWAP1 POP JUMP JUMPDEST PUSH0 DUP2 SWAP1 POP DUP2 PUSH0 MSTORE PUSH1 0x20 PUSH0 KECCAK256 SWAP1 POP SWAP2 SWAP1 POP JUMP JUMPDEST PUSH0 PUSH1 0x20 PUSH1 0x1F DUP4 ADD DIV SWAP1 POP SWAP2 SWAP1 POP JUMP JUMPDEST PUSH0 DUP3 DUP3 SHL SWAP1 POP SWAP3 SWAP2 POP POP JUMP JUMPDEST PUSH0 PUSH1 0x8 DUP4 MUL PUSH2 0x3B2 PUSH32 0xFFFFFFFFFFFFFFFFFFFFFFFFFFFFFFFFFFFFFFFFFFFFFFFFFFFFFFFFFFFFFFFF DUP3 PUSH2 0x377 JUMP JUMPDEST PUSH2 0x3BC DUP7 DUP4 PUSH2 0x377 JUMP JUMPDEST SWAP6 POP DUP1 NOT DUP5 AND SWAP4 POP DUP1 DUP7 AND DUP5 OR SWAP3 POP POP POP SWAP4 SWAP3 POP POP POP JUMP JUMPDEST PUSH0 DUP2 SWAP1 POP SWAP2 SWAP1 POP JUMP JUMPDEST PUSH0 DUP2 SWAP1 POP SWAP2 SWAP1 POP JUMP JUMPDEST PUSH0 PUSH2 0x400 PUSH2 0x3FB PUSH2 0x3F6 DUP5 PUSH2 0x3D4 JUMP JUMPDEST PUSH2 0x3DD JUMP JUMPDEST PUSH2 0x3D4 JUMP JUMPDEST SWAP1 POP SWAP2 SWAP1 POP JUMP JUMPDEST PUSH0 DUP2 SWAP1 POP SWAP2 SWAP1 POP JUMP JUMPDEST PUSH2 0x419 DUP4 PUSH2 0x3E6 JUMP JUMPDEST PUSH2 0x42D PUSH2 0x425 DUP3 PUSH2 0x407 JUMP JUMPDEST DUP5 DUP5 SLOAD PUSH2 0x383 JUMP JUMPDEST DUP3 SSTORE POP POP POP POP JUMP JUMPDEST PUSH0 SWAP1 JUMP JUMPDEST PUSH2 0x441 PUSH2 0x435 JUMP JUMPDEST PUSH2 0x44C DUP2 DUP5 DUP5 PUSH2 0x410 JUMP JUMPDEST POP POP POP JUMP JUMPDEST JUMPDEST DUP2 DUP2 LT ISZERO PUSH2 0x46F JUMPI PUSH2 0x464 PUSH0 DUP3 PUSH2 0x439 JUMP JUMPDEST PUSH1 0x1 DUP2 ADD SWAP1 POP PUSH2 0x452 JUMP JUMPDEST POP POP JUMP JUMPDEST PUSH1 0x1F DUP3 GT ISZERO PUSH2 0x4B4 JUMPI PUSH2 0x485 DUP2 PUSH2 0x356 JUMP JUMPDEST PUSH2 0x48E DUP5 PUSH2 0x368 JUMP JUMPDEST DUP2 ADD PUSH1 0x20 DUP6 LT ISZERO PUSH2 0x49D JUMPI DUP2 SWAP1 POP JUMPDEST PUSH2 0x4B1 PUSH2 0x4A9 DUP6 PUSH2 0x368 JUMP JUMPDEST DUP4 ADD DUP3 PUSH2 0x451 JUMP JUMPDEST POP POP JUMPDEST POP POP POP JUMP JUMPDEST PUSH0 DUP3 DUP3 SHR SWAP1 POP SWAP3 SWAP2 POP POP JUMP JUMPDEST PUSH0 PUSH2 0x4D4 PUSH0 NOT DUP5 PUSH1 0x8 MUL PUSH2 0x4B9 JUMP JUMPDEST NOT DUP1 DUP4 AND SWAP2 POP POP SWAP3 SWAP2 POP POP JUMP JUMPDEST PUSH0 PUSH2 0x4EC DUP4 DUP4 PUSH2 0x4C5 JUMP JUMPDEST SWAP2 POP DUP3 PUSH1 0x2 MUL DUP3 OR SWAP1 POP SWAP3 SWAP2 POP POP JUMP JUMPDEST PUSH2 0x505 DUP3 PUSH2 0x2C2 JUMP JUMPDEST PUSH8 0xFFFFFFFFFFFFFFFF DUP2 GT ISZERO PUSH2 0x51E JUMPI PUSH2 0x51D PUSH2 0x2CC JUMP JUMPDEST JUMPDEST PUSH2 0x528 DUP3 SLOAD PUSH2 0x326 JUMP JUMPDEST PUSH2 0x533 DUP3 DUP3 DUP6 PUSH2 0x473 JUMP JUMPDEST PUSH0 PUSH1 0x20 SWAP1 POP PUSH1 0x1F DUP4 GT PUSH1 0x1 DUP2 EQ PUSH2 0x564 JUMPI PUSH0 DUP5 ISZERO PUSH2 0x552 JUMPI DUP3 DUP8 ADD MLOAD SWAP1 POP JUMPDEST PUSH2 0x55C DUP6 DUP3 PUSH2 0x4E1 JUMP JUMPDEST DUP7 SSTORE POP PUSH2 0x5C3 JUMP JUMPDEST PUSH1 0x1F NOT DUP5 AND PUSH2 0x572 DUP7 PUSH2 0x356 JUMP JUMPDEST PUSH0 JUMPDEST DUP3 DUP2 LT ISZERO PUSH2 0x599 JUMPI DUP5 DUP10 ADD MLOAD DUP3 SSTORE PUSH1 0x1 DUP3 ADD SWAP2 POP PUSH1 0x20 DUP6 ADD SWAP5 POP PUSH1 0x20 DUP2 ADD SWAP1 POP PUSH2 0x574 JUMP JUMPDEST DUP7 DUP4 LT ISZERO PUSH2 0x5B6 JUMPI DUP5 DUP10 ADD MLOAD PUSH2 0x5B2 PUSH1 0x1F DUP10 AND DUP3 PUSH2 0x4C5 JUMP JUMPDEST DUP4 SSTORE POP JUMPDEST PUSH1 0x1 PUSH1 0x2 DUP9 MUL ADD DUP9 SSTORE POP POP POP JUMPDEST POP POP POP POP POP POP JUMP JUMPDEST PUSH1 0x80 MLOAD PUSH1 0xA0 MLOAD PUSH1 0xC0 MLOAD PUSH2 0x41CF PUSH2 0x611 PUSH0 CODECOPY PUSH0 DUP2 DUP2 PUSH2 0xE19 ADD MSTORE DUP2 DUP2 PUSH2 0x106F ADD MSTORE DUP2 DUP2 PUSH2 0x17C3 ADD MSTORE DUP2 DUP2 PUSH2 0x1DE4 ADD MSTORE PUSH2 0x1F55 ADD MSTORE PUSH0 PUSH2 0x2095 ADD MSTORE PUSH0 PUSH2 0xBDE ADD MSTORE PUSH2 0x41CF PUSH0 RETURN INVALID PUSH1 0x80 PUSH1 0x40 MSTORE CALLVALUE DUP1 ISZERO PUSH2 0xF JUMPI PUSH0 DUP1 REVERT JUMPDEST POP PUSH1 0x4 CALLDATASIZE LT PUSH2 0x1F9 JUMPI PUSH0 CALLDATALOAD PUSH1 0xE0 SHR DUP1 PUSH4 0x90F6FCF2 GT PUSH2 0x118 JUMPI DUP1 PUSH4 0xC04A8A10 GT PUSH2 0xAB JUMPI DUP1 PUSH4 0xE655DBD8 GT PUSH2 0x7A JUMPI DUP1 PUSH4 0xE655DBD8 EQ PUSH2 0x62F JUMPI DUP1 PUSH4 0xE7484890 EQ PUSH2 0x64B JUMPI DUP1 PUSH4 0xE78C9B3B EQ PUSH2 0x669 JUMPI DUP1 PUSH4 0xF3BFC738 EQ PUSH2 0x699 JUMPI DUP1 PUSH4 0xF731E9BE EQ PUSH2 0x6B7 JUMPI PUSH2 0x1F9 JUMP JUMPDEST DUP1 PUSH4 0xC04A8A10 EQ PUSH2 0x597 JUMPI DUP1 PUSH4 0xC222EC8A EQ PUSH2 0x5B3 JUMPI DUP1 PUSH4 0xC634DFAA EQ PUSH2 0x5CF JUMPI DUP1 PUSH4 0xDD62ED3E EQ PUSH2 0x5FF JUMPI PUSH2 0x1F9 JUMP JUMPDEST DUP1 PUSH4 0xA9059CBB GT PUSH2 0xE7 JUMPI DUP1 PUSH4 0xA9059CBB EQ PUSH2 0x4F9 JUMPI DUP1 PUSH4 0xB16A19DE EQ PUSH2 0x529 JUMPI DUP1 PUSH4 0xB3F1C93D EQ PUSH2 0x547 JUMPI DUP1 PUSH4 0xB9A7B622 EQ PUSH2 0x579 JUMPI PUSH2 0x1F9 JUMP JUMPDEST DUP1 PUSH4 0x90F6FCF2 EQ PUSH2 0x45C JUMPI DUP1 PUSH4 0x95D89B41 EQ PUSH2 0x47A JUMPI DUP1 PUSH4 0x9DC29FAC EQ PUSH2 0x498 JUMPI DUP1 PUSH4 0xA457C2D7 EQ PUSH2 0x4C9 JUMPI PUSH2 0x1F9 JUMP JUMPDEST DUP1 PUSH4 0x6BD76D24 GT PUSH2 0x190 JUMPI DUP1 PUSH4 0x78160376 GT PUSH2 0x15F JUMPI DUP1 PUSH4 0x78160376 EQ PUSH2 0x3BD JUMPI DUP1 PUSH4 0x79774338 EQ PUSH2 0x3DB JUMPI DUP1 PUSH4 0x79CE6B8C EQ PUSH2 0x3FC JUMPI DUP1 PUSH4 0x7ECEBE00 EQ PUSH2 0x42C JUMPI PUSH2 0x1F9 JUMP JUMPDEST DUP1 PUSH4 0x6BD76D24 EQ PUSH2 0x321 JUMPI DUP1 PUSH4 0x70A08231 EQ PUSH2 0x351 JUMPI DUP1 PUSH4 0x7535D246 EQ PUSH2 0x381 JUMPI DUP1 PUSH4 0x75D26413 EQ PUSH2 0x39F JUMPI PUSH2 0x1F9 JUMP JUMPDEST DUP1 PUSH4 0x23B872DD GT PUSH2 0x1CC JUMPI DUP1 PUSH4 0x23B872DD EQ PUSH2 0x285 JUMPI DUP1 PUSH4 0x313CE567 EQ PUSH2 0x2B5 JUMPI DUP1 PUSH4 0x3644E515 EQ PUSH2 0x2D3 JUMPI DUP1 PUSH4 0x39509351 EQ PUSH2 0x2F1 JUMPI PUSH2 0x1F9 JUMP JUMPDEST DUP1 PUSH4 0x6FDDE03 EQ PUSH2 0x1FD JUMPI DUP1 PUSH4 0x95EA7B3 EQ PUSH2 0x21B JUMPI DUP1 PUSH4 0xB52D558 EQ PUSH2 0x24B JUMPI DUP1 PUSH4 0x18160DDD EQ PUSH2 0x267 JUMPI JUMPDEST PUSH0 DUP1 REVERT JUMPDEST PUSH2 0x205 PUSH2 0x6D6 JUMP JUMPDEST PUSH1 0x40 MLOAD PUSH2 0x212 SWAP2 SWAP1 PUSH2 0x2F18 JUMP JUMPDEST PUSH1 0x40 MLOAD DUP1 SWAP2 SUB SWAP1 RETURN JUMPDEST PUSH2 0x235 PUSH1 0x4 DUP1 CALLDATASIZE SUB DUP2 ADD SWAP1 PUSH2 0x230 SWAP2 SWAP1 PUSH2 0x2FD6 JUMP JUMPDEST PUSH2 0x766 JUMP JUMPDEST PUSH1 0x40 MLOAD PUSH2 0x242 SWAP2 SWAP1 PUSH2 0x302E JUMP JUMPDEST PUSH1 0x40 MLOAD DUP1 SWAP2 SUB SWAP1 RETURN JUMPDEST PUSH2 0x265 PUSH1 0x4 DUP1 CALLDATASIZE SUB DUP2 ADD SWAP1 PUSH2 0x260 SWAP2 SWAP1 PUSH2 0x30B0 JUMP JUMPDEST PUSH2 0x7D9 JUMP JUMPDEST STOP JUMPDEST PUSH2 0x26F PUSH2 0xB15 JUMP JUMPDEST PUSH1 0x40 MLOAD PUSH2 0x27C SWAP2 SWAP1 PUSH2 0x315C JUMP JUMPDEST PUSH1 0x40 MLOAD DUP1 SWAP2 SUB SWAP1 RETURN JUMPDEST PUSH2 0x29F PUSH1 0x4 DUP1 CALLDATASIZE SUB DUP2 ADD SWAP1 PUSH2 0x29A SWAP2 SWAP1 PUSH2 0x3175 JUMP JUMPDEST PUSH2 0xB53 JUMP JUMPDEST PUSH1 0x40 MLOAD PUSH2 0x2AC SWAP2 SWAP1 PUSH2 0x302E JUMP JUMPDEST PUSH1 0x40 MLOAD DUP1 SWAP2 SUB SWAP1 RETURN JUMPDEST PUSH2 0x2BD PUSH2 0xBC6 JUMP JUMPDEST PUSH1 0x40 MLOAD PUSH2 0x2CA SWAP2 SWAP1 PUSH2 0x31D4 JUMP JUMPDEST PUSH1 0x40 MLOAD DUP1 SWAP2 SUB SWAP1 RETURN JUMPDEST PUSH2 0x2DB PUSH2 0xBDB JUMP JUMPDEST PUSH1 0x40 MLOAD PUSH2 0x2E8 SWAP2 SWAP1 PUSH2 0x31FC JUMP JUMPDEST PUSH1 0x40 MLOAD DUP1 SWAP2 SUB SWAP1 RETURN JUMPDEST PUSH2 0x30B PUSH1 0x4 DUP1 CALLDATASIZE SUB DUP2 ADD SWAP1 PUSH2 0x306 SWAP2 SWAP1 PUSH2 0x2FD6 JUMP JUMPDEST PUSH2 0xC1B JUMP JUMPDEST PUSH1 0x40 MLOAD PUSH2 0x318 SWAP2 SWAP1 PUSH2 0x302E JUMP JUMPDEST PUSH1 0x40 MLOAD DUP1 SWAP2 SUB SWAP1 RETURN JUMPDEST PUSH2 0x33B PUSH1 0x4 DUP1 CALLDATASIZE SUB DUP2 ADD SWAP1 PUSH2 0x336 SWAP2 SWAP1 PUSH2 0x3215 JUMP JUMPDEST PUSH2 0xC8E JUMP JUMPDEST PUSH1 0x40 MLOAD PUSH2 0x348 SWAP2 SWAP1 PUSH2 0x315C JUMP JUMPDEST PUSH1 0x40 MLOAD DUP1 SWAP2 SUB SWAP1 RETURN JUMPDEST PUSH2 0x36B PUSH1 0x4 DUP1 CALLDATASIZE SUB DUP2 ADD SWAP1 PUSH2 0x366 SWAP2 SWAP1 PUSH2 0x3253 JUMP JUMPDEST PUSH2 0xD10 JUMP JUMPDEST PUSH1 0x40 MLOAD PUSH2 0x378 SWAP2 SWAP1 PUSH2 0x315C JUMP JUMPDEST PUSH1 0x40 MLOAD DUP1 SWAP2 SUB SWAP1 RETURN JUMPDEST PUSH2 0x389 PUSH2 0xE17 JUMP JUMPDEST PUSH1 0x40 MLOAD PUSH2 0x396 SWAP2 SWAP1 PUSH2 0x32D9 JUMP JUMPDEST PUSH1 0x40 MLOAD DUP1 SWAP2 SUB SWAP1 RETURN JUMPDEST PUSH2 0x3A7 PUSH2 0xE3B JUMP JUMPDEST PUSH1 0x40 MLOAD PUSH2 0x3B4 SWAP2 SWAP1 PUSH2 0x3312 JUMP JUMPDEST PUSH1 0x40 MLOAD DUP1 SWAP2 SUB SWAP1 RETURN JUMPDEST PUSH2 0x3C5 PUSH2 0xE64 JUMP JUMPDEST PUSH1 0x40 MLOAD PUSH2 0x3D2 SWAP2 SWAP1 PUSH2 0x337D JUMP JUMPDEST PUSH1 0x40 MLOAD DUP1 SWAP2 SUB SWAP1 RETURN JUMPDEST PUSH2 0x3E3 PUSH2 0xE9D JUMP JUMPDEST PUSH1 0x40 MLOAD PUSH2 0x3F3 SWAP5 SWAP4 SWAP3 SWAP2 SWAP1 PUSH2 0x33BC JUMP JUMPDEST PUSH1 0x40 MLOAD DUP1 SWAP2 SUB SWAP1 RETURN JUMPDEST PUSH2 0x416 PUSH1 0x4 DUP1 CALLDATASIZE SUB DUP2 ADD SWAP1 PUSH2 0x411 SWAP2 SWAP1 PUSH2 0x3253 JUMP JUMPDEST PUSH2 0xF09 JUMP JUMPDEST PUSH1 0x40 MLOAD PUSH2 0x423 SWAP2 SWAP1 PUSH2 0x33FF JUMP JUMPDEST PUSH1 0x40 MLOAD DUP1 SWAP2 SUB SWAP1 RETURN JUMPDEST PUSH2 0x446 PUSH1 0x4 DUP1 CALLDATASIZE SUB DUP2 ADD SWAP1 PUSH2 0x441 SWAP2 SWAP1 PUSH2 0x3253 JUMP JUMPDEST PUSH2 0xF5F JUMP JUMPDEST PUSH1 0x40 MLOAD PUSH2 0x453 SWAP2 SWAP1 PUSH2 0x315C JUMP JUMPDEST PUSH1 0x40 MLOAD DUP1 SWAP2 SUB SWAP1 RETURN JUMPDEST PUSH2 0x464 PUSH2 0xFA5 JUMP JUMPDEST PUSH1 0x40 MLOAD PUSH2 0x471 SWAP2 SWAP1 PUSH2 0x315C JUMP JUMPDEST PUSH1 0x40 MLOAD DUP1 SWAP2 SUB SWAP1 RETURN JUMPDEST PUSH2 0x482 PUSH2 0xFDB JUMP JUMPDEST PUSH1 0x40 MLOAD PUSH2 0x48F SWAP2 SWAP1 PUSH2 0x2F18 JUMP JUMPDEST PUSH1 0x40 MLOAD DUP1 SWAP2 SUB SWAP1 RETURN JUMPDEST PUSH2 0x4B2 PUSH1 0x4 DUP1 CALLDATASIZE SUB DUP2 ADD SWAP1 PUSH2 0x4AD SWAP2 SWAP1 PUSH2 0x2FD6 JUMP JUMPDEST PUSH2 0x106B JUMP JUMPDEST PUSH1 0x40 MLOAD PUSH2 0x4C0 SWAP3 SWAP2 SWAP1 PUSH2 0x3418 JUMP JUMPDEST PUSH1 0x40 MLOAD DUP1 SWAP2 SUB SWAP1 RETURN JUMPDEST PUSH2 0x4E3 PUSH1 0x4 DUP1 CALLDATASIZE SUB DUP2 ADD SWAP1 PUSH2 0x4DE SWAP2 SWAP1 PUSH2 0x2FD6 JUMP JUMPDEST PUSH2 0x16B0 JUMP JUMPDEST PUSH1 0x40 MLOAD PUSH2 0x4F0 SWAP2 SWAP1 PUSH2 0x302E JUMP JUMPDEST PUSH1 0x40 MLOAD DUP1 SWAP2 SUB SWAP1 RETURN JUMPDEST PUSH2 0x513 PUSH1 0x4 DUP1 CALLDATASIZE SUB DUP2 ADD SWAP1 PUSH2 0x50E SWAP2 SWAP1 PUSH2 0x2FD6 JUMP JUMPDEST PUSH2 0x1723 JUMP JUMPDEST PUSH1 0x40 MLOAD PUSH2 0x520 SWAP2 SWAP1 PUSH2 0x302E JUMP JUMPDEST PUSH1 0x40 MLOAD DUP1 SWAP2 SUB SWAP1 RETURN JUMPDEST PUSH2 0x531 PUSH2 0x1796 JUMP JUMPDEST PUSH1 0x40 MLOAD PUSH2 0x53E SWAP2 SWAP1 PUSH2 0x344E JUMP JUMPDEST PUSH1 0x40 MLOAD DUP1 SWAP2 SUB SWAP1 RETURN JUMPDEST PUSH2 0x561 PUSH1 0x4 DUP1 CALLDATASIZE SUB DUP2 ADD SWAP1 PUSH2 0x55C SWAP2 SWAP1 PUSH2 0x3467 JUMP JUMPDEST PUSH2 0x17BE JUMP JUMPDEST PUSH1 0x40 MLOAD PUSH2 0x570 SWAP4 SWAP3 SWAP2 SWAP1 PUSH2 0x34CB JUMP JUMPDEST PUSH1 0x40 MLOAD DUP1 SWAP2 SUB SWAP1 RETURN JUMPDEST PUSH2 0x581 PUSH2 0x1D1B JUMP JUMPDEST PUSH1 0x40 MLOAD PUSH2 0x58E SWAP2 SWAP1 PUSH2 0x315C JUMP JUMPDEST PUSH1 0x40 MLOAD DUP1 SWAP2 SUB SWAP1 RETURN JUMPDEST PUSH2 0x5B1 PUSH1 0x4 DUP1 CALLDATASIZE SUB DUP2 ADD SWAP1 PUSH2 0x5AC SWAP2 SWAP1 PUSH2 0x2FD6 JUMP JUMPDEST PUSH2 0x1D20 JUMP JUMPDEST STOP JUMPDEST PUSH2 0x5CD PUSH1 0x4 DUP1 CALLDATASIZE SUB DUP2 ADD SWAP1 PUSH2 0x5C8 SWAP2 SWAP1 PUSH2 0x36FF JUMP JUMPDEST PUSH2 0x1D36 JUMP JUMPDEST STOP JUMPDEST PUSH2 0x5E9 PUSH1 0x4 DUP1 CALLDATASIZE SUB DUP2 ADD SWAP1 PUSH2 0x5E4 SWAP2 SWAP1 PUSH2 0x3253 JUMP JUMPDEST PUSH2 0x200E JUMP JUMPDEST PUSH1 0x40 MLOAD PUSH2 0x5F6 SWAP2 SWAP1 PUSH2 0x315C JUMP JUMPDEST PUSH1 0x40 MLOAD DUP1 SWAP2 SUB SWAP1 RETURN JUMPDEST PUSH2 0x619 PUSH1 0x4 DUP1 CALLDATASIZE SUB DUP2 ADD SWAP1 PUSH2 0x614 SWAP2 SWAP1 PUSH2 0x3215 JUMP JUMPDEST PUSH2 0x201F JUMP JUMPDEST PUSH1 0x40 MLOAD PUSH2 0x626 SWAP2 SWAP1 PUSH2 0x315C JUMP JUMPDEST PUSH1 0x40 MLOAD DUP1 SWAP2 SUB SWAP1 RETURN JUMPDEST PUSH2 0x649 PUSH1 0x4 DUP1 CALLDATASIZE SUB DUP2 ADD SWAP1 PUSH2 0x644 SWAP2 SWAP1 PUSH2 0x37F4 JUMP JUMPDEST PUSH2 0x2092 JUMP JUMPDEST STOP JUMPDEST PUSH2 0x653 PUSH2 0x2257 JUMP JUMPDEST PUSH1 0x40 MLOAD PUSH2 0x660 SWAP2 SWAP1 PUSH2 0x33FF JUMP JUMPDEST PUSH1 0x40 MLOAD DUP1 SWAP2 SUB SWAP1 RETURN JUMPDEST PUSH2 0x683 PUSH1 0x4 DUP1 CALLDATASIZE SUB DUP2 ADD SWAP1 PUSH2 0x67E SWAP2 SWAP1 PUSH2 0x3253 JUMP JUMPDEST PUSH2 0x2271 JUMP JUMPDEST PUSH1 0x40 MLOAD PUSH2 0x690 SWAP2 SWAP1 PUSH2 0x315C JUMP JUMPDEST PUSH1 0x40 MLOAD DUP1 SWAP2 SUB SWAP1 RETURN JUMPDEST PUSH2 0x6A1 PUSH2 0x22E7 JUMP JUMPDEST PUSH1 0x40 MLOAD PUSH2 0x6AE SWAP2 SWAP1 PUSH2 0x31FC JUMP JUMPDEST PUSH1 0x40 MLOAD DUP1 SWAP2 SUB SWAP1 RETURN JUMPDEST PUSH2 0x6BF PUSH2 0x230B JUMP JUMPDEST PUSH1 0x40 MLOAD PUSH2 0x6CD SWAP3 SWAP2 SWAP1 PUSH2 0x3418 JUMP JUMPDEST PUSH1 0x40 MLOAD DUP1 SWAP2 SUB SWAP1 RETURN JUMPDEST PUSH1 0x60 PUSH1 0x3B DUP1 SLOAD PUSH2 0x6E5 SWAP1 PUSH2 0x384C JUMP JUMPDEST DUP1 PUSH1 0x1F ADD PUSH1 0x20 DUP1 SWAP2 DIV MUL PUSH1 0x20 ADD PUSH1 0x40 MLOAD SWAP1 DUP2 ADD PUSH1 0x40 MSTORE DUP1 SWAP3 SWAP2 SWAP1 DUP2 DUP2 MSTORE PUSH1 0x20 ADD DUP3 DUP1 SLOAD PUSH2 0x711 SWAP1 PUSH2 0x384C JUMP JUMPDEST DUP1 ISZERO PUSH2 0x75C JUMPI DUP1 PUSH1 0x1F LT PUSH2 0x733 JUMPI PUSH2 0x100 DUP1 DUP4 SLOAD DIV MUL DUP4 MSTORE SWAP2 PUSH1 0x20 ADD SWAP2 PUSH2 0x75C JUMP JUMPDEST DUP3 ADD SWAP2 SWAP1 PUSH0 MSTORE PUSH1 0x20 PUSH0 KECCAK256 SWAP1 JUMPDEST DUP2 SLOAD DUP2 MSTORE SWAP1 PUSH1 0x1 ADD SWAP1 PUSH1 0x20 ADD DUP1 DUP4 GT PUSH2 0x73F JUMPI DUP3 SWAP1 SUB PUSH1 0x1F AND DUP3 ADD SWAP2 JUMPDEST POP POP POP POP POP SWAP1 POP SWAP1 JUMP JUMPDEST PUSH0 PUSH1 0x40 MLOAD DUP1 PUSH1 0x40 ADD PUSH1 0x40 MSTORE DUP1 PUSH1 0x2 DUP2 MSTORE PUSH1 0x20 ADD PUSH32 0x3830000000000000000000000000000000000000000000000000000000000000 DUP2 MSTORE POP PUSH1 0x40 MLOAD PUSH32 0x8C379A000000000000000000000000000000000000000000000000000000000 DUP2 MSTORE PUSH1 0x4 ADD PUSH2 0x7D0 SWAP2 SWAP1 PUSH2 0x2F18 JUMP JUMPDEST PUSH1 0x40 MLOAD DUP1 SWAP2 SUB SWAP1 REVERT JUMPDEST PUSH0 PUSH20 0xFFFFFFFFFFFFFFFFFFFFFFFFFFFFFFFFFFFFFFFF AND DUP8 PUSH20 0xFFFFFFFFFFFFFFFFFFFFFFFFFFFFFFFFFFFFFFFF AND EQ ISZERO PUSH1 0x40 MLOAD DUP1 PUSH1 0x40 ADD PUSH1 0x40 MSTORE DUP1 PUSH1 0x2 DUP2 MSTORE PUSH1 0x20 ADD PUSH32 0x3737000000000000000000000000000000000000000000000000000000000000 DUP2 MSTORE POP SWAP1 PUSH2 0x880 JUMPI PUSH1 0x40 MLOAD PUSH32 0x8C379A000000000000000000000000000000000000000000000000000000000 DUP2 MSTORE PUSH1 0x4 ADD PUSH2 0x877 SWAP2 SWAP1 PUSH2 0x2F18 JUMP JUMPDEST PUSH1 0x40 MLOAD DUP1 SWAP2 SUB SWAP1 REVERT JUMPDEST POP DUP4 TIMESTAMP GT ISZERO PUSH1 0x40 MLOAD DUP1 PUSH1 0x40 ADD PUSH1 0x40 MSTORE DUP1 PUSH1 0x2 DUP2 MSTORE PUSH1 0x20 ADD PUSH32 0x3738000000000000000000000000000000000000000000000000000000000000 DUP2 MSTORE POP SWAP1 PUSH2 0x8FC JUMPI PUSH1 0x40 MLOAD PUSH32 0x8C379A000000000000000000000000000000000000000000000000000000000 DUP2 MSTORE PUSH1 0x4 ADD PUSH2 0x8F3 SWAP2 SWAP1 PUSH2 0x2F18 JUMP JUMPDEST PUSH1 0x40 MLOAD DUP1 SWAP2 SUB SWAP1 REVERT JUMPDEST POP PUSH0 PUSH1 0x34 PUSH0 DUP10 PUSH20 0xFFFFFFFFFFFFFFFFFFFFFFFFFFFFFFFFFFFFFFFF AND PUSH20 0xFFFFFFFFFFFFFFFFFFFFFFFFFFFFFFFFFFFFFFFF AND DUP2 MSTORE PUSH1 0x20 ADD SWAP1 DUP2 MSTORE PUSH1 0x20 ADD PUSH0 KECCAK256 SLOAD SWAP1 POP PUSH0 PUSH2 0x947 PUSH2 0xBDB JUMP JUMPDEST PUSH32 0x323DB0410FECC107E39E2AF5908671F4C8D106123B35A51501BB805C5FA36AA0 DUP10 DUP10 DUP6 DUP11 PUSH1 0x40 MLOAD PUSH1 0x20 ADD PUSH2 0x980 SWAP6 SWAP5 SWAP4 SWAP3 SWAP2 SWAP1 PUSH2 0x387C JUMP JUMPDEST PUSH1 0x40 MLOAD PUSH1 0x20 DUP2 DUP4 SUB SUB DUP2 MSTORE SWAP1 PUSH1 0x40 MSTORE DUP1 MLOAD SWAP1 PUSH1 0x20 ADD KECCAK256 PUSH1 0x40 MLOAD PUSH1 0x20 ADD PUSH2 0x9A7 SWAP3 SWAP2 SWAP1 PUSH2 0x3941 JUMP JUMPDEST PUSH1 0x40 MLOAD PUSH1 0x20 DUP2 DUP4 SUB SUB DUP2 MSTORE SWAP1 PUSH1 0x40 MSTORE DUP1 MLOAD SWAP1 PUSH1 0x20 ADD KECCAK256 SWAP1 POP PUSH1 0x1 DUP2 DUP7 DUP7 DUP7 PUSH1 0x40 MLOAD PUSH0 DUP2 MSTORE PUSH1 0x20 ADD PUSH1 0x40 MSTORE PUSH1 0x40 MLOAD PUSH2 0x9E1 SWAP5 SWAP4 SWAP3 SWAP2 SWAP1 PUSH2 0x3977 JUMP JUMPDEST PUSH1 0x20 PUSH1 0x40 MLOAD PUSH1 0x20 DUP2 SUB SWAP1 DUP1 DUP5 SUB SWAP1 DUP6 GAS STATICCALL ISZERO DUP1 ISZERO PUSH2 0xA01 JUMPI RETURNDATASIZE PUSH0 DUP1 RETURNDATACOPY RETURNDATASIZE PUSH0 REVERT JUMPDEST POP POP POP PUSH1 0x20 PUSH1 0x40 MLOAD SUB MLOAD PUSH20 0xFFFFFFFFFFFFFFFFFFFFFFFFFFFFFFFFFFFFFFFF AND DUP10 PUSH20 0xFFFFFFFFFFFFFFFFFFFFFFFFFFFFFFFFFFFFFFFF AND EQ PUSH1 0x40 MLOAD DUP1 PUSH1 0x40 ADD PUSH1 0x40 MSTORE DUP1 PUSH1 0x2 DUP2 MSTORE PUSH1 0x20 ADD PUSH32 0x3739000000000000000000000000000000000000000000000000000000000000 DUP2 MSTORE POP SWAP1 PUSH2 0xAB0 JUMPI PUSH1 0x40 MLOAD PUSH32 0x8C379A000000000000000000000000000000000000000000000000000000000 DUP2 MSTORE PUSH1 0x4 ADD PUSH2 0xAA7 SWAP2 SWAP1 PUSH2 0x2F18 JUMP JUMPDEST PUSH1 0x40 MLOAD DUP1 SWAP2 SUB SWAP1 REVERT JUMPDEST POP PUSH1 0x1 DUP3 PUSH2 0xABE SWAP2 SWAP1 PUSH2 0x39E7 JUMP JUMPDEST PUSH1 0x34 PUSH0 DUP12 PUSH20 0xFFFFFFFFFFFFFFFFFFFFFFFFFFFFFFFFFFFFFFFF AND PUSH20 0xFFFFFFFFFFFFFFFFFFFFFFFFFFFFFFFFFFFFFFFF AND DUP2 MSTORE PUSH1 0x20 ADD SWAP1 DUP2 MSTORE PUSH1 0x20 ADD PUSH0 KECCAK256 DUP2 SWAP1 SSTORE POP PUSH2 0xB0A DUP10 DUP10 DUP10 PUSH2 0x2353 JUMP JUMPDEST POP POP POP POP POP POP POP POP POP JUMP JUMPDEST PUSH0 PUSH2 0xB4E PUSH1 0x3F PUSH0 SWAP1 SLOAD SWAP1 PUSH2 0x100 EXP SWAP1 DIV PUSH16 0xFFFFFFFFFFFFFFFFFFFFFFFFFFFFFFFF AND PUSH16 0xFFFFFFFFFFFFFFFFFFFFFFFFFFFFFFFF AND PUSH2 0x2472 JUMP JUMPDEST SWAP1 POP SWAP1 JUMP JUMPDEST PUSH0 PUSH1 0x40 MLOAD DUP1 PUSH1 0x40 ADD PUSH1 0x40 MSTORE DUP1 PUSH1 0x2 DUP2 MSTORE PUSH1 0x20 ADD PUSH32 0x3830000000000000000000000000000000000000000000000000000000000000 DUP2 MSTORE POP PUSH1 0x40 MLOAD PUSH32 0x8C379A000000000000000000000000000000000000000000000000000000000 DUP2 MSTORE PUSH1 0x4 ADD PUSH2 0xBBD SWAP2 SWAP1 PUSH2 0x2F18 JUMP JUMPDEST PUSH1 0x40 MLOAD DUP1 SWAP2 SUB SWAP1 REVERT JUMPDEST PUSH0 PUSH1 0x3D PUSH0 SWAP1 SLOAD SWAP1 PUSH2 0x100 EXP SWAP1 DIV PUSH1 0xFF AND SWAP1 POP SWAP1 JUMP JUMPDEST PUSH0 PUSH32 0x0 CHAINID SUB PUSH2 0xC0D JUMPI PUSH1 0x35 SLOAD SWAP1 POP PUSH2 0xC18 JUMP JUMPDEST PUSH2 0xC15 PUSH2 0x24CB JUMP JUMPDEST SWAP1 POP JUMPDEST SWAP1 JUMP JUMPDEST PUSH0 PUSH1 0x40 MLOAD DUP1 PUSH1 0x40 ADD PUSH1 0x40 MSTORE DUP1 PUSH1 0x2 DUP2 MSTORE PUSH1 0x20 ADD PUSH32 0x3830000000000000000000000000000000000000000000000000000000000000 DUP2 MSTORE POP PUSH1 0x40 MLOAD PUSH32 0x8C379A000000000000000000000000000000000000000000000000000000000 DUP2 MSTORE PUSH1 0x4 ADD PUSH2 0xC85 SWAP2 SWAP1 PUSH2 0x2F18 JUMP JUMPDEST PUSH1 0x40 MLOAD DUP1 SWAP2 SUB SWAP1 REVERT JUMPDEST PUSH0 PUSH1 0x36 PUSH0 DUP5 PUSH20 0xFFFFFFFFFFFFFFFFFFFFFFFFFFFFFFFFFFFFFFFF AND PUSH20 0xFFFFFFFFFFFFFFFFFFFFFFFFFFFFFFFFFFFFFFFF AND DUP2 MSTORE PUSH1 0x20 ADD SWAP1 DUP2 MSTORE PUSH1 0x20 ADD PUSH0 KECCAK256 PUSH0 DUP4 PUSH20 0xFFFFFFFFFFFFFFFFFFFFFFFFFFFFFFFFFFFFFFFF AND PUSH20 0xFFFFFFFFFFFFFFFFFFFFFFFFFFFFFFFFFFFFFFFF AND DUP2 MSTORE PUSH1 0x20 ADD SWAP1 DUP2 MSTORE PUSH1 0x20 ADD PUSH0 KECCAK256 SLOAD SWAP1 POP SWAP3 SWAP2 POP POP JUMP JUMPDEST PUSH0 DUP1 PUSH2 0xD1B DUP4 PUSH2 0x256A JUMP JUMPDEST SWAP1 POP PUSH0 PUSH1 0x38 PUSH0 DUP6 PUSH20 0xFFFFFFFFFFFFFFFFFFFFFFFFFFFFFFFFFFFFFFFF AND PUSH20 0xFFFFFFFFFFFFFFFFFFFFFFFFFFFFFFFFFFFFFFFF AND DUP2 MSTORE PUSH1 0x20 ADD SWAP1 DUP2 MSTORE PUSH1 0x20 ADD PUSH0 KECCAK256 PUSH0 ADD PUSH1 0x10 SWAP1 SLOAD SWAP1 PUSH2 0x100 EXP SWAP1 DIV PUSH16 0xFFFFFFFFFFFFFFFFFFFFFFFFFFFFFFFF AND PUSH16 0xFFFFFFFFFFFFFFFFFFFFFFFFFFFFFFFF AND SWAP1 POP PUSH0 DUP3 SUB PUSH2 0xD9F JUMPI PUSH0 SWAP3 POP POP POP PUSH2 0xE12 JUMP JUMPDEST PUSH0 PUSH2 0xDF7 DUP3 PUSH1 0x3E PUSH0 DUP9 PUSH20 0xFFFFFFFFFFFFFFFFFFFFFFFFFFFFFFFFFFFFFFFF AND PUSH20 0xFFFFFFFFFFFFFFFFFFFFFFFFFFFFFFFFFFFFFFFF AND DUP2 MSTORE PUSH1 0x20 ADD SWAP1 DUP2 MSTORE PUSH1 0x20 ADD PUSH0 KECCAK256 PUSH0 SWAP1 SLOAD SWAP1 PUSH2 0x100 EXP SWAP1 DIV PUSH5 0xFFFFFFFFFF AND PUSH2 0x25DF JUMP JUMPDEST SWAP1 POP PUSH2 0xE0C DUP2 DUP5 PUSH2 0x25F3 SWAP1 SWAP2 SWAP1 PUSH4 0xFFFFFFFF AND JUMP JUMPDEST SWAP4 POP POP POP POP JUMPDEST SWAP2 SWAP1 POP JUMP JUMPDEST PUSH32 0x0 DUP2 JUMP JUMPDEST PUSH0 PUSH1 0x3D PUSH1 0x1 SWAP1 SLOAD SWAP1 PUSH2 0x100 EXP SWAP1 DIV PUSH20 0xFFFFFFFFFFFFFFFFFFFFFFFFFFFFFFFFFFFFFFFF AND SWAP1 POP SWAP1 JUMP JUMPDEST PUSH1 0x40 MLOAD DUP1 PUSH1 0x40 ADD PUSH1 0x40 MSTORE DUP1 PUSH1 0x1 DUP2 MSTORE PUSH1 0x20 ADD PUSH32 0x3100000000000000000000000000000000000000000000000000000000000000 DUP2 MSTORE POP DUP2 JUMP JUMPDEST PUSH0 DUP1 PUSH0 DUP1 PUSH0 PUSH1 0x3F PUSH0 SWAP1 SLOAD SWAP1 PUSH2 0x100 EXP SWAP1 DIV PUSH16 0xFFFFFFFFFFFFFFFFFFFFFFFFFFFFFFFF AND PUSH16 0xFFFFFFFFFFFFFFFFFFFFFFFFFFFFFFFF AND SWAP1 POP PUSH2 0xEDC PUSH2 0x263B JUMP JUMPDEST PUSH2 0xEE5 DUP3 PUSH2 0x2472 JUMP JUMPDEST DUP3 PUSH1 0x3F PUSH1 0x10 SWAP1 SLOAD SWAP1 PUSH2 0x100 EXP SWAP1 DIV PUSH5 0xFFFFFFFFFF AND SWAP5 POP SWAP5 POP SWAP5 POP SWAP5 POP POP SWAP1 SWAP2 SWAP3 SWAP4 JUMP JUMPDEST PUSH0 PUSH1 0x3E PUSH0 DUP4 PUSH20 0xFFFFFFFFFFFFFFFFFFFFFFFFFFFFFFFFFFFFFFFF AND PUSH20 0xFFFFFFFFFFFFFFFFFFFFFFFFFFFFFFFFFFFFFFFF AND DUP2 MSTORE PUSH1 0x20 ADD SWAP1 DUP2 MSTORE PUSH1 0x20 ADD PUSH0 KECCAK256 PUSH0 SWAP1 SLOAD SWAP1 PUSH2 0x100 EXP SWAP1 DIV PUSH5 0xFFFFFFFFFF AND SWAP1 POP SWAP2 SWAP1 POP JUMP JUMPDEST PUSH0 PUSH1 0x34 PUSH0 DUP4 PUSH20 0xFFFFFFFFFFFFFFFFFFFFFFFFFFFFFFFFFFFFFFFF AND PUSH20 0xFFFFFFFFFFFFFFFFFFFFFFFFFFFFFFFFFFFFFFFF AND DUP2 MSTORE PUSH1 0x20 ADD SWAP1 DUP2 MSTORE PUSH1 0x20 ADD PUSH0 KECCAK256 SLOAD SWAP1 POP SWAP2 SWAP1 POP JUMP JUMPDEST PUSH0 PUSH1 0x3F PUSH0 SWAP1 SLOAD SWAP1 PUSH2 0x100 EXP SWAP1 DIV PUSH16 0xFFFFFFFFFFFFFFFFFFFFFFFFFFFFFFFF AND PUSH16 0xFFFFFFFFFFFFFFFFFFFFFFFFFFFFFFFF AND SWAP1 POP SWAP1 JUMP JUMPDEST PUSH1 0x60 PUSH1 0x3C DUP1 SLOAD PUSH2 0xFEA SWAP1 PUSH2 0x384C JUMP JUMPDEST DUP1 PUSH1 0x1F ADD PUSH1 0x20 DUP1 SWAP2 DIV MUL PUSH1 0x20 ADD PUSH1 0x40 MLOAD SWAP1 DUP2 ADD PUSH1 0x40 MSTORE DUP1 SWAP3 SWAP2 SWAP1 DUP2 DUP2 MSTORE PUSH1 0x20 ADD DUP3 DUP1 SLOAD PUSH2 0x1016 SWAP1 PUSH2 0x384C JUMP JUMPDEST DUP1 ISZERO PUSH2 0x1061 JUMPI DUP1 PUSH1 0x1F LT PUSH2 0x1038 JUMPI PUSH2 0x100 DUP1 DUP4 SLOAD DIV MUL DUP4 MSTORE SWAP2 PUSH1 0x20 ADD SWAP2 PUSH2 0x1061 JUMP JUMPDEST DUP3 ADD SWAP2 SWAP1 PUSH0 MSTORE PUSH1 0x20 PUSH0 KECCAK256 SWAP1 JUMPDEST DUP2 SLOAD DUP2 MSTORE SWAP1 PUSH1 0x1 ADD SWAP1 PUSH1 0x20 ADD DUP1 DUP4 GT PUSH2 0x1044 JUMPI DUP3 SWAP1 SUB PUSH1 0x1F AND DUP3 ADD SWAP2 JUMPDEST POP POP POP POP POP SWAP1 POP SWAP1 JUMP JUMPDEST PUSH0 DUP1 PUSH32 0x0 PUSH20 0xFFFFFFFFFFFFFFFFFFFFFFFFFFFFFFFFFFFFFFFF AND PUSH2 0x10AC PUSH2 0x2644 JUMP JUMPDEST PUSH20 0xFFFFFFFFFFFFFFFFFFFFFFFFFFFFFFFFFFFFFFFF AND EQ PUSH1 0x40 MLOAD DUP1 PUSH1 0x40 ADD PUSH1 0x40 MSTORE DUP1 PUSH1 0x2 DUP2 MSTORE PUSH1 0x20 ADD PUSH32 0x3233000000000000000000000000000000000000000000000000000000000000 DUP2 MSTORE POP SWAP1 PUSH2 0x113A JUMPI PUSH1 0x40 MLOAD PUSH32 0x8C379A000000000000000000000000000000000000000000000000000000000 DUP2 MSTORE PUSH1 0x4 ADD PUSH2 0x1131 SWAP2 SWAP1 PUSH2 0x2F18 JUMP JUMPDEST PUSH1 0x40 MLOAD DUP1 SWAP2 SUB SWAP1 REVERT JUMPDEST POP PUSH0 DUP1 PUSH2 0x1146 DUP7 PUSH2 0x264B JUMP JUMPDEST SWAP3 POP SWAP3 POP POP PUSH0 PUSH2 0x1154 PUSH2 0xB15 JUMP JUMPDEST SWAP1 POP PUSH0 DUP1 PUSH0 PUSH1 0x38 PUSH0 DUP12 PUSH20 0xFFFFFFFFFFFFFFFFFFFFFFFFFFFFFFFFFFFFFFFF AND PUSH20 0xFFFFFFFFFFFFFFFFFFFFFFFFFFFFFFFFFFFFFFFF AND DUP2 MSTORE PUSH1 0x20 ADD SWAP1 DUP2 MSTORE PUSH1 0x20 ADD PUSH0 KECCAK256 PUSH0 ADD PUSH1 0x10 SWAP1 SLOAD SWAP1 PUSH2 0x100 EXP SWAP1 DIV PUSH16 0xFFFFFFFFFFFFFFFFFFFFFFFFFFFFFFFF AND PUSH16 0xFFFFFFFFFFFFFFFFFFFFFFFFFFFFFFFF AND SWAP1 POP DUP9 DUP5 GT PUSH2 0x1214 JUMPI PUSH0 PUSH1 0x3F PUSH0 PUSH2 0x100 EXP DUP2 SLOAD DUP2 PUSH16 0xFFFFFFFFFFFFFFFFFFFFFFFFFFFFFFFF MUL NOT AND SWAP1 DUP4 PUSH16 0xFFFFFFFFFFFFFFFFFFFFFFFFFFFFFFFF AND MUL OR SWAP1 SSTORE POP PUSH0 PUSH1 0x3A DUP2 SWAP1 SSTORE POP PUSH2 0x136A JUMP JUMPDEST DUP9 DUP5 PUSH2 0x1220 SWAP2 SWAP1 PUSH2 0x3A1A JUMP JUMPDEST PUSH1 0x3A DUP2 SWAP1 SSTORE SWAP2 POP PUSH0 PUSH2 0x1272 PUSH2 0x1234 DUP7 PUSH2 0x269A JUMP JUMPDEST PUSH1 0x3F PUSH0 SWAP1 SLOAD SWAP1 PUSH2 0x100 EXP SWAP1 DIV PUSH16 0xFFFFFFFFFFFFFFFFFFFFFFFFFFFFFFFF AND PUSH16 0xFFFFFFFFFFFFFFFFFFFFFFFFFFFFFFFF AND PUSH2 0x25F3 SWAP1 SWAP2 SWAP1 PUSH4 0xFFFFFFFF AND JUMP JUMPDEST SWAP1 POP PUSH0 PUSH2 0x1290 PUSH2 0x1281 DUP13 PUSH2 0x269A JUMP JUMPDEST DUP5 PUSH2 0x25F3 SWAP1 SWAP2 SWAP1 PUSH4 0xFFFFFFFF AND JUMP JUMPDEST SWAP1 POP DUP2 DUP2 LT PUSH2 0x12EE JUMPI PUSH0 PUSH1 0x3F PUSH0 PUSH2 0x100 EXP DUP2 SLOAD DUP2 PUSH16 0xFFFFFFFFFFFFFFFFFFFFFFFFFFFFFFFF MUL NOT AND SWAP1 DUP4 PUSH16 0xFFFFFFFFFFFFFFFFFFFFFFFFFFFFFFFF AND MUL OR SWAP1 SSTORE PUSH16 0xFFFFFFFFFFFFFFFFFFFFFFFFFFFFFFFF AND PUSH1 0x3A DUP2 SWAP1 SSTORE SWAP5 POP PUSH2 0x1367 JUMP JUMPDEST PUSH2 0x131C PUSH2 0x1317 PUSH2 0x12FD DUP7 PUSH2 0x269A JUMP JUMPDEST DUP4 DUP6 PUSH2 0x1309 SWAP2 SWAP1 PUSH2 0x3A1A JUMP JUMPDEST PUSH2 0x26BA SWAP1 SWAP2 SWAP1 PUSH4 0xFFFFFFFF AND JUMP JUMPDEST PUSH2 0x26FE JUMP JUMPDEST PUSH1 0x3F PUSH0 PUSH2 0x100 EXP DUP2 SLOAD DUP2 PUSH16 0xFFFFFFFFFFFFFFFFFFFFFFFFFFFFFFFF MUL NOT AND SWAP1 DUP4 PUSH16 0xFFFFFFFFFFFFFFFFFFFFFFFFFFFFFFFF AND MUL OR SWAP1 SSTORE PUSH16 0xFFFFFFFFFFFFFFFFFFFFFFFFFFFFFFFF AND SWAP5 POP JUMPDEST POP POP JUMPDEST DUP6 DUP10 SUB PUSH2 0x1449 JUMPI PUSH0 PUSH1 0x38 PUSH0 DUP13 PUSH20 0xFFFFFFFFFFFFFFFFFFFFFFFFFFFFFFFFFFFFFFFF AND PUSH20 0xFFFFFFFFFFFFFFFFFFFFFFFFFFFFFFFFFFFFFFFF AND DUP2 MSTORE PUSH1 0x20 ADD SWAP1 DUP2 MSTORE PUSH1 0x20 ADD PUSH0 KECCAK256 PUSH0 ADD PUSH1 0x10 PUSH2 0x100 EXP DUP2 SLOAD DUP2 PUSH16 0xFFFFFFFFFFFFFFFFFFFFFFFFFFFFFFFF MUL NOT AND SWAP1 DUP4 PUSH16 0xFFFFFFFFFFFFFFFFFFFFFFFFFFFFFFFF AND MUL OR SWAP1 SSTORE POP PUSH0 PUSH1 0x3E PUSH0 DUP13 PUSH20 0xFFFFFFFFFFFFFFFFFFFFFFFFFFFFFFFFFFFFFFFF AND PUSH20 0xFFFFFFFFFFFFFFFFFFFFFFFFFFFFFFFFFFFFFFFF AND DUP2 MSTORE PUSH1 0x20 ADD SWAP1 DUP2 MSTORE PUSH1 0x20 ADD PUSH0 KECCAK256 PUSH0 PUSH2 0x100 EXP DUP2 SLOAD DUP2 PUSH5 0xFFFFFFFFFF MUL NOT AND SWAP1 DUP4 PUSH5 0xFFFFFFFFFF AND MUL OR SWAP1 SSTORE POP PUSH2 0x14A7 JUMP JUMPDEST TIMESTAMP PUSH1 0x3E PUSH0 DUP13 PUSH20 0xFFFFFFFFFFFFFFFFFFFFFFFFFFFFFFFFFFFFFFFF AND PUSH20 0xFFFFFFFFFFFFFFFFFFFFFFFFFFFFFFFFFFFFFFFF AND DUP2 MSTORE PUSH1 0x20 ADD SWAP1 DUP2 MSTORE PUSH1 0x20 ADD PUSH0 KECCAK256 PUSH0 PUSH2 0x100 EXP DUP2 SLOAD DUP2 PUSH5 0xFFFFFFFFFF MUL NOT AND SWAP1 DUP4 PUSH5 0xFFFFFFFFFF AND MUL OR SWAP1 SSTORE POP JUMPDEST TIMESTAMP PUSH1 0x3F PUSH1 0x10 PUSH2 0x100 EXP DUP2 SLOAD DUP2 PUSH5 0xFFFFFFFFFF MUL NOT AND SWAP1 DUP4 PUSH5 0xFFFFFFFFFF AND MUL OR SWAP1 SSTORE POP DUP9 DUP6 GT ISZERO PUSH2 0x15C6 JUMPI PUSH0 DUP10 DUP7 PUSH2 0x14DF SWAP2 SWAP1 PUSH2 0x3A1A JUMP JUMPDEST SWAP1 POP PUSH2 0x14EC DUP12 DUP3 DUP8 PUSH2 0x275C JUMP JUMPDEST DUP11 PUSH20 0xFFFFFFFFFFFFFFFFFFFFFFFFFFFFFFFFFFFFFFFF AND PUSH0 PUSH20 0xFFFFFFFFFFFFFFFFFFFFFFFFFFFFFFFFFFFFFFFF AND PUSH32 0xDDF252AD1BE2C89B69C2B068FC378DAA952BA7F163C4A11628F55A4DF523B3EF DUP4 PUSH1 0x40 MLOAD PUSH2 0x1549 SWAP2 SWAP1 PUSH2 0x315C JUMP JUMPDEST PUSH1 0x40 MLOAD DUP1 SWAP2 SUB SWAP1 LOG3 DUP11 PUSH20 0xFFFFFFFFFFFFFFFFFFFFFFFFFFFFFFFFFFFFFFFF AND DUP12 PUSH20 0xFFFFFFFFFFFFFFFFFFFFFFFFFFFFFFFFFFFFFFFF AND PUSH32 0xC16F4E4CA34D790DE4C656C72FD015C667D688F20BE64EEA360618545C4C530F DUP4 DUP11 DUP11 DUP8 DUP11 DUP11 PUSH1 0x40 MLOAD PUSH2 0x15B8 SWAP7 SWAP6 SWAP5 SWAP4 SWAP3 SWAP2 SWAP1 PUSH2 0x3A4D JUMP JUMPDEST PUSH1 0x40 MLOAD DUP1 SWAP2 SUB SWAP1 LOG3 POP PUSH2 0x169D JUMP JUMPDEST PUSH0 DUP6 DUP11 PUSH2 0x15D3 SWAP2 SWAP1 PUSH2 0x3A1A JUMP JUMPDEST SWAP1 POP PUSH2 0x15E0 DUP12 DUP3 DUP8 PUSH2 0x292F JUMP JUMPDEST PUSH0 PUSH20 0xFFFFFFFFFFFFFFFFFFFFFFFFFFFFFFFFFFFFFFFF AND DUP12 PUSH20 0xFFFFFFFFFFFFFFFFFFFFFFFFFFFFFFFFFFFFFFFF AND PUSH32 0xDDF252AD1BE2C89B69C2B068FC378DAA952BA7F163C4A11628F55A4DF523B3EF DUP4 PUSH1 0x40 MLOAD PUSH2 0x163D SWAP2 SWAP1 PUSH2 0x315C JUMP JUMPDEST PUSH1 0x40 MLOAD DUP1 SWAP2 SUB SWAP1 LOG3 DUP11 PUSH20 0xFFFFFFFFFFFFFFFFFFFFFFFFFFFFFFFFFFFFFFFF AND PUSH32 0x44BD20A79E993BDCC7CBEDF54A3B4D19FB78490124B6B90D04FE3242EEA579E8 DUP3 DUP10 DUP10 DUP9 DUP9 PUSH1 0x40 MLOAD PUSH2 0x1693 SWAP6 SWAP5 SWAP4 SWAP3 SWAP2 SWAP1 PUSH2 0x3AAC JUMP JUMPDEST PUSH1 0x40 MLOAD DUP1 SWAP2 SUB SWAP1 LOG2 POP JUMPDEST DUP2 DUP4 SWAP8 POP SWAP8 POP POP POP POP POP POP POP SWAP3 POP SWAP3 SWAP1 POP JUMP JUMPDEST PUSH0 PUSH1 0x40 MLOAD DUP1 PUSH1 0x40 ADD PUSH1 0x40 MSTORE DUP1 PUSH1 0x2 DUP2 MSTORE PUSH1 0x20 ADD PUSH32 0x3830000000000000000000000000000000000000000000000000000000000000 DUP2 MSTORE POP PUSH1 0x40 MLOAD PUSH32 0x8C379A000000000000000000000000000000000000000000000000000000000 DUP2 MSTORE PUSH1 0x4 ADD PUSH2 0x171A SWAP2 SWAP1 PUSH2 0x2F18 JUMP JUMPDEST PUSH1 0x40 MLOAD DUP1 SWAP2 SUB SWAP1 REVERT JUMPDEST PUSH0 PUSH1 0x40 MLOAD DUP1 PUSH1 0x40 ADD PUSH1 0x40 MSTORE DUP1 PUSH1 0x2 DUP2 MSTORE PUSH1 0x20 ADD PUSH32 0x3830000000000000000000000000000000000000000000000000000000000000 DUP2 MSTORE POP PUSH1 0x40 MLOAD PUSH32 0x8C379A000000000000000000000000000000000000000000000000000000000 DUP2 MSTORE PUSH1 0x4 ADD PUSH2 0x178D SWAP2 SWAP1 PUSH2 0x2F18 JUMP JUMPDEST PUSH1 0x40 MLOAD DUP1 SWAP2 SUB SWAP1 REVERT JUMPDEST PUSH0 PUSH1 0x37 PUSH0 SWAP1 SLOAD SWAP1 PUSH2 0x100 EXP SWAP1 DIV PUSH20 0xFFFFFFFFFFFFFFFFFFFFFFFFFFFFFFFFFFFFFFFF AND SWAP1 POP SWAP1 JUMP JUMPDEST PUSH0 DUP1 PUSH0 PUSH32 0x0 PUSH20 0xFFFFFFFFFFFFFFFFFFFFFFFFFFFFFFFFFFFFFFFF AND PUSH2 0x1800 PUSH2 0x2644 JUMP JUMPDEST PUSH20 0xFFFFFFFFFFFFFFFFFFFFFFFFFFFFFFFFFFFFFFFF AND EQ PUSH1 0x40 MLOAD DUP1 PUSH1 0x40 ADD PUSH1 0x40 MSTORE DUP1 PUSH1 0x2 DUP2 MSTORE PUSH1 0x20 ADD PUSH32 0x3233000000000000000000000000000000000000000000000000000000000000 DUP2 MSTORE POP SWAP1 PUSH2 0x188E JUMPI PUSH1 0x40 MLOAD PUSH32 0x8C379A000000000000000000000000000000000000000000000000000000000 DUP2 MSTORE PUSH1 0x4 ADD PUSH2 0x1885 SWAP2 SWAP1 PUSH2 0x2F18 JUMP JUMPDEST PUSH1 0x40 MLOAD DUP1 SWAP2 SUB SWAP1 REVERT JUMPDEST POP PUSH2 0x1897 PUSH2 0x2E78 JUMP JUMPDEST DUP7 PUSH20 0xFFFFFFFFFFFFFFFFFFFFFFFFFFFFFFFFFFFFFFFF AND DUP9 PUSH20 0xFFFFFFFFFFFFFFFFFFFFFFFFFFFFFFFFFFFFFFFF AND EQ PUSH2 0x18D6 JUMPI PUSH2 0x18D5 DUP8 DUP10 DUP9 PUSH2 0x2B02 JUMP JUMPDEST JUMPDEST PUSH0 DUP1 PUSH2 0x18E1 DUP10 PUSH2 0x264B JUMP JUMPDEST SWAP3 POP SWAP3 POP POP PUSH2 0x18EE PUSH2 0xB15 JUMP JUMPDEST DUP4 PUSH0 ADD DUP2 DUP2 MSTORE POP POP PUSH1 0x3F PUSH0 SWAP1 SLOAD SWAP1 PUSH2 0x100 EXP SWAP1 DIV PUSH16 0xFFFFFFFFFFFFFFFFFFFFFFFFFFFFFFFF AND PUSH16 0xFFFFFFFFFFFFFFFFFFFFFFFFFFFFFFFF AND DUP4 PUSH1 0xA0 ADD DUP2 DUP2 MSTORE POP POP DUP8 DUP4 PUSH0 ADD MLOAD PUSH2 0x193E SWAP2 SWAP1 PUSH2 0x39E7 JUMP JUMPDEST PUSH1 0x3A DUP2 SWAP1 SSTORE DUP4 PUSH1 0x20 ADD DUP2 DUP2 MSTORE POP POP PUSH2 0x1955 DUP9 PUSH2 0x269A JUMP JUMPDEST DUP4 PUSH1 0x40 ADD DUP2 DUP2 MSTORE POP POP PUSH1 0x38 PUSH0 DUP11 PUSH20 0xFFFFFFFFFFFFFFFFFFFFFFFFFFFFFFFFFFFFFFFF AND PUSH20 0xFFFFFFFFFFFFFFFFFFFFFFFFFFFFFFFFFFFFFFFF AND DUP2 MSTORE PUSH1 0x20 ADD SWAP1 DUP2 MSTORE PUSH1 0x20 ADD PUSH0 KECCAK256 PUSH0 ADD PUSH1 0x10 SWAP1 SLOAD SWAP1 PUSH2 0x100 EXP SWAP1 DIV PUSH16 0xFFFFFFFFFFFFFFFFFFFFFFFFFFFFFFFF AND PUSH16 0xFFFFFFFFFFFFFFFFFFFFFFFFFFFFFFFF AND DUP4 PUSH1 0x60 ADD DUP2 DUP2 MSTORE POP POP PUSH2 0x1A3A PUSH2 0x19EC DUP10 DUP5 PUSH2 0x19E7 SWAP2 SWAP1 PUSH2 0x39E7 JUMP JUMPDEST PUSH2 0x269A JUMP JUMPDEST PUSH2 0x1A03 DUP10 DUP7 PUSH1 0x40 ADD MLOAD PUSH2 0x25F3 SWAP1 SWAP2 SWAP1 PUSH4 0xFFFFFFFF AND JUMP JUMPDEST PUSH2 0x1A22 PUSH2 0x1A0F DUP7 PUSH2 0x269A JUMP JUMPDEST DUP8 PUSH1 0x60 ADD MLOAD PUSH2 0x25F3 SWAP1 SWAP2 SWAP1 PUSH4 0xFFFFFFFF AND JUMP JUMPDEST PUSH2 0x1A2C SWAP2 SWAP1 PUSH2 0x39E7 JUMP JUMPDEST PUSH2 0x26BA SWAP1 SWAP2 SWAP1 PUSH4 0xFFFFFFFF AND JUMP JUMPDEST DUP4 PUSH1 0x80 ADD DUP2 DUP2 MSTORE POP POP PUSH2 0x1A50 DUP4 PUSH1 0x80 ADD MLOAD PUSH2 0x26FE JUMP JUMPDEST PUSH1 0x38 PUSH0 DUP12 PUSH20 0xFFFFFFFFFFFFFFFFFFFFFFFFFFFFFFFFFFFFFFFF AND PUSH20 0xFFFFFFFFFFFFFFFFFFFFFFFFFFFFFFFFFFFFFFFF AND DUP2 MSTORE PUSH1 0x20 ADD SWAP1 DUP2 MSTORE PUSH1 0x20 ADD PUSH0 KECCAK256 PUSH0 ADD PUSH1 0x10 PUSH2 0x100 EXP DUP2 SLOAD DUP2 PUSH16 0xFFFFFFFFFFFFFFFFFFFFFFFFFFFFFFFF MUL NOT AND SWAP1 DUP4 PUSH16 0xFFFFFFFFFFFFFFFFFFFFFFFFFFFFFFFF AND MUL OR SWAP1 SSTORE POP TIMESTAMP PUSH1 0x3E PUSH0 DUP12 PUSH20 0xFFFFFFFFFFFFFFFFFFFFFFFFFFFFFFFFFFFFFFFF AND PUSH20 0xFFFFFFFFFFFFFFFFFFFFFFFFFFFFFFFFFFFFFFFF AND DUP2 MSTORE PUSH1 0x20 ADD SWAP1 DUP2 MSTORE PUSH1 0x20 ADD PUSH0 KECCAK256 PUSH0 PUSH2 0x100 EXP DUP2 SLOAD DUP2 PUSH5 0xFFFFFFFFFF MUL NOT AND SWAP1 DUP4 PUSH5 0xFFFFFFFFFF AND MUL OR SWAP1 SSTORE PUSH1 0x3F PUSH1 0x10 PUSH2 0x100 EXP DUP2 SLOAD DUP2 PUSH5 0xFFFFFFFFFF MUL NOT AND SWAP1 DUP4 PUSH5 0xFFFFFFFFFF AND MUL OR SWAP1 SSTORE POP PUSH2 0x1BAC PUSH2 0x1BA7 PUSH2 0x1B56 DUP6 PUSH1 0x20 ADD MLOAD PUSH2 0x269A JUMP JUMPDEST PUSH2 0x1B6D DUP7 PUSH1 0x40 ADD MLOAD DUP12 PUSH2 0x25F3 SWAP1 SWAP2 SWAP1 PUSH4 0xFFFFFFFF AND JUMP JUMPDEST PUSH2 0x1B8F PUSH2 0x1B7C DUP9 PUSH0 ADD MLOAD PUSH2 0x269A JUMP JUMPDEST DUP9 PUSH1 0xA0 ADD MLOAD PUSH2 0x25F3 SWAP1 SWAP2 SWAP1 PUSH4 0xFFFFFFFF AND JUMP JUMPDEST PUSH2 0x1B99 SWAP2 SWAP1 PUSH2 0x39E7 JUMP JUMPDEST PUSH2 0x26BA SWAP1 SWAP2 SWAP1 PUSH4 0xFFFFFFFF AND JUMP JUMPDEST PUSH2 0x26FE JUMP JUMPDEST PUSH1 0x3F PUSH0 PUSH2 0x100 EXP DUP2 SLOAD DUP2 PUSH16 0xFFFFFFFFFFFFFFFFFFFFFFFFFFFFFFFF MUL NOT AND SWAP1 DUP4 PUSH16 0xFFFFFFFFFFFFFFFFFFFFFFFFFFFFFFFF AND MUL OR SWAP1 SSTORE PUSH16 0xFFFFFFFFFFFFFFFFFFFFFFFFFFFFFFFF AND DUP4 PUSH1 0xA0 ADD DUP2 DUP2 MSTORE POP POP PUSH0 DUP2 DUP10 PUSH2 0x1C0A SWAP2 SWAP1 PUSH2 0x39E7 JUMP JUMPDEST SWAP1 POP PUSH2 0x1C1A DUP11 DUP3 DUP7 PUSH0 ADD MLOAD PUSH2 0x275C JUMP JUMPDEST DUP10 PUSH20 0xFFFFFFFFFFFFFFFFFFFFFFFFFFFFFFFFFFFFFFFF AND PUSH0 PUSH20 0xFFFFFFFFFFFFFFFFFFFFFFFFFFFFFFFFFFFFFFFF AND PUSH32 0xDDF252AD1BE2C89B69C2B068FC378DAA952BA7F163C4A11628F55A4DF523B3EF DUP4 PUSH1 0x40 MLOAD PUSH2 0x1C77 SWAP2 SWAP1 PUSH2 0x315C JUMP JUMPDEST PUSH1 0x40 MLOAD DUP1 SWAP2 SUB SWAP1 LOG3 DUP10 PUSH20 0xFFFFFFFFFFFFFFFFFFFFFFFFFFFFFFFFFFFFFFFF AND DUP12 PUSH20 0xFFFFFFFFFFFFFFFFFFFFFFFFFFFFFFFFFFFFFFFF AND PUSH32 0xC16F4E4CA34D790DE4C656C72FD015C667D688F20BE64EEA360618545C4C530F DUP4 DUP7 DUP7 DUP10 PUSH1 0x80 ADD MLOAD DUP11 PUSH1 0xA0 ADD MLOAD DUP12 PUSH1 0x20 ADD MLOAD PUSH1 0x40 MLOAD PUSH2 0x1CF2 SWAP7 SWAP6 SWAP5 SWAP4 SWAP3 SWAP2 SWAP1 PUSH2 0x3A4D JUMP JUMPDEST PUSH1 0x40 MLOAD DUP1 SWAP2 SUB SWAP1 LOG3 PUSH0 DUP4 EQ DUP5 PUSH1 0x20 ADD MLOAD DUP6 PUSH1 0xA0 ADD MLOAD SWAP7 POP SWAP7 POP SWAP7 POP POP POP POP POP SWAP5 POP SWAP5 POP SWAP5 SWAP2 POP POP JUMP JUMPDEST PUSH1 0x1 DUP2 JUMP JUMPDEST PUSH2 0x1D32 PUSH2 0x1D2B PUSH2 0x2644 JUMP JUMPDEST DUP4 DUP4 PUSH2 0x2353 JUMP JUMPDEST POP POP JUMP JUMPDEST PUSH0 PUSH2 0x1D3F PUSH2 0x2CA9 JUMP JUMPDEST SWAP1 POP PUSH1 0x1 PUSH0 SWAP1 SLOAD SWAP1 PUSH2 0x100 EXP SWAP1 DIV PUSH1 0xFF AND DUP1 PUSH2 0x1D5F JUMPI POP PUSH2 0x1D5E PUSH2 0x2CB1 JUMP JUMPDEST JUMPDEST DUP1 PUSH2 0x1D6A JUMPI POP PUSH0 SLOAD DUP2 GT JUMPDEST PUSH2 0x1DA9 JUMPI PUSH1 0x40 MLOAD PUSH32 0x8C379A000000000000000000000000000000000000000000000000000000000 DUP2 MSTORE PUSH1 0x4 ADD PUSH2 0x1DA0 SWAP1 PUSH2 0x3B6D JUMP JUMPDEST PUSH1 0x40 MLOAD DUP1 SWAP2 SUB SWAP1 REVERT JUMPDEST PUSH0 PUSH1 0x1 PUSH0 SWAP1 SLOAD SWAP1 PUSH2 0x100 EXP SWAP1 DIV PUSH1 0xFF AND ISZERO SWAP1 POP DUP1 ISZERO PUSH2 0x1DE2 JUMPI PUSH1 0x1 DUP1 PUSH0 PUSH2 0x100 EXP DUP2 SLOAD DUP2 PUSH1 0xFF MUL NOT AND SWAP1 DUP4 ISZERO ISZERO MUL OR SWAP1 SSTORE POP DUP2 PUSH0 DUP2 SWAP1 SSTORE POP JUMPDEST PUSH32 0x0 PUSH20 0xFFFFFFFFFFFFFFFFFFFFFFFFFFFFFFFFFFFFFFFF AND DUP11 PUSH20 0xFFFFFFFFFFFFFFFFFFFFFFFFFFFFFFFFFFFFFFFF AND EQ PUSH1 0x40 MLOAD DUP1 PUSH1 0x40 ADD PUSH1 0x40 MSTORE DUP1 PUSH1 0x2 DUP2 MSTORE PUSH1 0x20 ADD PUSH32 0x3837000000000000000000000000000000000000000000000000000000000000 DUP2 MSTORE POP SWAP1 PUSH2 0x1EA8 JUMPI PUSH1 0x40 MLOAD PUSH32 0x8C379A000000000000000000000000000000000000000000000000000000000 DUP2 MSTORE PUSH1 0x4 ADD PUSH2 0x1E9F SWAP2 SWAP1 PUSH2 0x2F18 JUMP JUMPDEST PUSH1 0x40 MLOAD DUP1 SWAP2 SUB SWAP1 REVERT JUMPDEST POP PUSH2 0x1EB2 DUP7 PUSH2 0x2CC0 JUMP JUMPDEST PUSH2 0x1EBB DUP6 PUSH2 0x2CD3 JUMP JUMPDEST PUSH2 0x1EC4 DUP8 PUSH2 0x2CE6 JUMP JUMPDEST DUP9 PUSH1 0x37 PUSH0 PUSH2 0x100 EXP DUP2 SLOAD DUP2 PUSH20 0xFFFFFFFFFFFFFFFFFFFFFFFFFFFFFFFFFFFFFFFF MUL NOT AND SWAP1 DUP4 PUSH20 0xFFFFFFFFFFFFFFFFFFFFFFFFFFFFFFFFFFFFFFFF AND MUL OR SWAP1 SSTORE POP DUP8 PUSH1 0x3D PUSH1 0x1 PUSH2 0x100 EXP DUP2 SLOAD DUP2 PUSH20 0xFFFFFFFFFFFFFFFFFFFFFFFFFFFFFFFFFFFFFFFF MUL NOT AND SWAP1 DUP4 PUSH20 0xFFFFFFFFFFFFFFFFFFFFFFFFFFFFFFFFFFFFFFFF AND MUL OR SWAP1 SSTORE POP PUSH2 0x1F4D PUSH2 0x24CB JUMP JUMPDEST PUSH1 0x35 DUP2 SWAP1 SSTORE POP PUSH32 0x0 PUSH20 0xFFFFFFFFFFFFFFFFFFFFFFFFFFFFFFFFFFFFFFFF AND DUP10 PUSH20 0xFFFFFFFFFFFFFFFFFFFFFFFFFFFFFFFFFFFFFFFF AND PUSH32 0x40251FBFB6656CFA65A00D7879029FEC1FAD21D28FDCFF2F4F68F52795B74F2C DUP11 DUP11 DUP11 DUP11 DUP11 DUP11 PUSH1 0x40 MLOAD PUSH2 0x1FDA SWAP7 SWAP6 SWAP5 SWAP4 SWAP3 SWAP2 SWAP1 PUSH2 0x3BB7 JUMP JUMPDEST PUSH1 0x40 MLOAD DUP1 SWAP2 SUB SWAP1 LOG3 DUP1 ISZERO PUSH2 0x2002 JUMPI PUSH0 PUSH1 0x1 PUSH0 PUSH2 0x100 EXP DUP2 SLOAD DUP2 PUSH1 0xFF MUL NOT AND SWAP1 DUP4 ISZERO ISZERO MUL OR SWAP1 SSTORE POP JUMPDEST POP POP POP POP POP POP POP POP POP POP JUMP JUMPDEST PUSH0 PUSH2 0x2018 DUP3 PUSH2 0x256A JUMP JUMPDEST SWAP1 POP SWAP2 SWAP1 POP JUMP JUMPDEST PUSH0 PUSH1 0x40 MLOAD DUP1 PUSH1 0x40 ADD PUSH1 0x40 MSTORE DUP1 PUSH1 0x2 DUP2 MSTORE PUSH1 0x20 ADD PUSH32 0x3830000000000000000000000000000000000000000000000000000000000000 DUP2 MSTORE POP PUSH1 0x40 MLOAD PUSH32 0x8C379A000000000000000000000000000000000000000000000000000000000 DUP2 MSTORE PUSH1 0x4 ADD PUSH2 0x2089 SWAP2 SWAP1 PUSH2 0x2F18 JUMP JUMPDEST PUSH1 0x40 MLOAD DUP1 SWAP2 SUB SWAP1 REVERT JUMPDEST PUSH0 PUSH32 0x0 PUSH20 0xFFFFFFFFFFFFFFFFFFFFFFFFFFFFFFFFFFFFFFFF AND PUSH4 0x707CD716 PUSH1 0x40 MLOAD DUP2 PUSH4 0xFFFFFFFF AND PUSH1 0xE0 SHL DUP2 MSTORE PUSH1 0x4 ADD PUSH1 0x20 PUSH1 0x40 MLOAD DUP1 DUP4 SUB DUP2 DUP7 GAS STATICCALL ISZERO DUP1 ISZERO PUSH2 0x20FC JUMPI RETURNDATASIZE PUSH0 DUP1 RETURNDATACOPY RETURNDATASIZE PUSH0 REVERT JUMPDEST POP POP POP POP PUSH1 0x40 MLOAD RETURNDATASIZE PUSH1 0x1F NOT PUSH1 0x1F DUP3 ADD AND DUP3 ADD DUP1 PUSH1 0x40 MSTORE POP DUP2 ADD SWAP1 PUSH2 0x2120 SWAP2 SWAP1 PUSH2 0x3C33 JUMP JUMPDEST SWAP1 POP DUP1 PUSH20 0xFFFFFFFFFFFFFFFFFFFFFFFFFFFFFFFFFFFFFFFF AND PUSH4 0x7BE53CA1 CALLER PUSH1 0x40 MLOAD DUP3 PUSH4 0xFFFFFFFF AND PUSH1 0xE0 SHL DUP2 MSTORE PUSH1 0x4 ADD PUSH2 0x215B SWAP2 SWAP1 PUSH2 0x344E JUMP JUMPDEST PUSH1 0x20 PUSH1 0x40 MLOAD DUP1 DUP4 SUB DUP2 DUP7 GAS STATICCALL ISZERO DUP1 ISZERO PUSH2 0x2176 JUMPI RETURNDATASIZE PUSH0 DUP1 RETURNDATACOPY RETURNDATASIZE PUSH0 REVERT JUMPDEST POP POP POP POP PUSH1 0x40 MLOAD RETURNDATASIZE PUSH1 0x1F NOT PUSH1 0x1F DUP3 ADD AND DUP3 ADD DUP1 PUSH1 0x40 MSTORE POP DUP2 ADD SWAP1 PUSH2 0x219A SWAP2 SWAP1 PUSH2 0x3C88 JUMP JUMPDEST PUSH1 0x40 MLOAD DUP1 PUSH1 0x40 ADD PUSH1 0x40 MSTORE DUP1 PUSH1 0x1 DUP2 MSTORE PUSH1 0x20 ADD PUSH32 0x3100000000000000000000000000000000000000000000000000000000000000 DUP2 MSTORE POP SWAP1 PUSH2 0x2211 JUMPI PUSH1 0x40 MLOAD PUSH32 0x8C379A000000000000000000000000000000000000000000000000000000000 DUP2 MSTORE PUSH1 0x4 ADD PUSH2 0x2208 SWAP2 SWAP1 PUSH2 0x2F18 JUMP JUMPDEST PUSH1 0x40 MLOAD DUP1 SWAP2 SUB SWAP1 REVERT JUMPDEST POP DUP2 PUSH1 0x3D PUSH1 0x1 PUSH2 0x100 EXP DUP2 SLOAD DUP2 PUSH20 0xFFFFFFFFFFFFFFFFFFFFFFFFFFFFFFFFFFFFFFFF MUL NOT AND SWAP1 DUP4 PUSH20 0xFFFFFFFFFFFFFFFFFFFFFFFFFFFFFFFFFFFFFFFF AND MUL OR SWAP1 SSTORE POP POP POP JUMP JUMPDEST PUSH0 PUSH1 0x3F PUSH1 0x10 SWAP1 SLOAD SWAP1 PUSH2 0x100 EXP SWAP1 DIV PUSH5 0xFFFFFFFFFF AND SWAP1 POP SWAP1 JUMP JUMPDEST PUSH0 PUSH1 0x38 PUSH0 DUP4 PUSH20 0xFFFFFFFFFFFFFFFFFFFFFFFFFFFFFFFFFFFFFFFF AND PUSH20 0xFFFFFFFFFFFFFFFFFFFFFFFFFFFFFFFFFFFFFFFF AND DUP2 MSTORE PUSH1 0x20 ADD SWAP1 DUP2 MSTORE PUSH1 0x20 ADD PUSH0 KECCAK256 PUSH0 ADD PUSH1 0x10 SWAP1 SLOAD SWAP1 PUSH2 0x100 EXP SWAP1 DIV PUSH16 0xFFFFFFFFFFFFFFFFFFFFFFFFFFFFFFFF AND PUSH16 0xFFFFFFFFFFFFFFFFFFFFFFFFFFFFFFFF AND SWAP1 POP SWAP2 SWAP1 POP JUMP JUMPDEST PUSH32 0x323DB0410FECC107E39E2AF5908671F4C8D106123B35A51501BB805C5FA36AA0 DUP2 JUMP JUMPDEST PUSH0 DUP1 PUSH0 PUSH1 0x3F PUSH0 SWAP1 SLOAD SWAP1 PUSH2 0x100 EXP SWAP1 DIV PUSH16 0xFFFFFFFFFFFFFFFFFFFFFFFFFFFFFFFF AND PUSH16 0xFFFFFFFFFFFFFFFFFFFFFFFFFFFFFFFF AND SWAP1 POP PUSH2 0x2349 DUP2 PUSH2 0x2472 JUMP JUMPDEST DUP2 SWAP3 POP SWAP3 POP POP SWAP1 SWAP2 JUMP JUMPDEST DUP1 PUSH1 0x36 PUSH0 DUP6 PUSH20 0xFFFFFFFFFFFFFFFFFFFFFFFFFFFFFFFFFFFFFFFF AND PUSH20 0xFFFFFFFFFFFFFFFFFFFFFFFFFFFFFFFFFFFFFFFF AND DUP2 MSTORE PUSH1 0x20 ADD SWAP1 DUP2 MSTORE PUSH1 0x20 ADD PUSH0 KECCAK256 PUSH0 DUP5 PUSH20 0xFFFFFFFFFFFFFFFFFFFFFFFFFFFFFFFFFFFFFFFF AND PUSH20 0xFFFFFFFFFFFFFFFFFFFFFFFFFFFFFFFFFFFFFFFF AND DUP2 MSTORE PUSH1 0x20 ADD SWAP1 DUP2 MSTORE PUSH1 0x20 ADD PUSH0 KECCAK256 DUP2 SWAP1 SSTORE POP PUSH1 0x37 PUSH0 SWAP1 SLOAD SWAP1 PUSH2 0x100 EXP SWAP1 DIV PUSH20 0xFFFFFFFFFFFFFFFFFFFFFFFFFFFFFFFFFFFFFFFF AND PUSH20 0xFFFFFFFFFFFFFFFFFFFFFFFFFFFFFFFFFFFFFFFF AND DUP3 PUSH20 0xFFFFFFFFFFFFFFFFFFFFFFFFFFFFFFFFFFFFFFFF AND DUP5 PUSH20 0xFFFFFFFFFFFFFFFFFFFFFFFFFFFFFFFFFFFFFFFF AND PUSH32 0xDA919360433220E13B51E8C211E490D148E61A3BD53DE8C097194E458B97F3E1 DUP5 PUSH1 0x40 MLOAD PUSH2 0x2465 SWAP2 SWAP1 PUSH2 0x315C JUMP JUMPDEST PUSH1 0x40 MLOAD DUP1 SWAP2 SUB SWAP1 LOG4 POP POP POP JUMP JUMPDEST PUSH0 DUP1 PUSH2 0x247C PUSH2 0x263B JUMP JUMPDEST SWAP1 POP PUSH0 DUP2 SUB PUSH2 0x248E JUMPI PUSH0 SWAP2 POP POP PUSH2 0x24C6 JUMP JUMPDEST PUSH0 PUSH2 0x24AC DUP5 PUSH1 0x3F PUSH1 0x10 SWAP1 SLOAD SWAP1 PUSH2 0x100 EXP SWAP1 DIV PUSH5 0xFFFFFFFFFF AND PUSH2 0x25DF JUMP JUMPDEST SWAP1 POP PUSH2 0x24C1 DUP2 DUP4 PUSH2 0x25F3 SWAP1 SWAP2 SWAP1 PUSH4 0xFFFFFFFF AND JUMP JUMPDEST SWAP3 POP POP POP JUMPDEST SWAP2 SWAP1 POP JUMP JUMPDEST PUSH0 PUSH32 0x8B73C3C69BB8FE3D512ECC4CF759CC79239F7B179B0FFACAA9A75D522B39400F PUSH2 0x24F5 PUSH2 0x2D03 JUMP JUMPDEST DUP1 MLOAD SWAP1 PUSH1 0x20 ADD KECCAK256 PUSH1 0x40 MLOAD DUP1 PUSH1 0x40 ADD PUSH1 0x40 MSTORE DUP1 PUSH1 0x1 DUP2 MSTORE PUSH1 0x20 ADD PUSH32 0x3100000000000000000000000000000000000000000000000000000000000000 DUP2 MSTORE POP DUP1 MLOAD SWAP1 PUSH1 0x20 ADD KECCAK256 CHAINID ADDRESS PUSH1 0x40 MLOAD PUSH1 0x20 ADD PUSH2 0x254F SWAP6 SWAP5 SWAP4 SWAP3 SWAP2 SWAP1 PUSH2 0x3CB3 JUMP JUMPDEST PUSH1 0x40 MLOAD PUSH1 0x20 DUP2 DUP4 SUB SUB DUP2 MSTORE SWAP1 PUSH1 0x40 MSTORE DUP1 MLOAD SWAP1 PUSH1 0x20 ADD KECCAK256 SWAP1 POP SWAP1 JUMP JUMPDEST PUSH0 PUSH1 0x38 PUSH0 DUP4 PUSH20 0xFFFFFFFFFFFFFFFFFFFFFFFFFFFFFFFFFFFFFFFF AND PUSH20 0xFFFFFFFFFFFFFFFFFFFFFFFFFFFFFFFFFFFFFFFF AND DUP2 MSTORE PUSH1 0x20 ADD SWAP1 DUP2 MSTORE PUSH1 0x20 ADD PUSH0 KECCAK256 PUSH0 ADD PUSH0 SWAP1 SLOAD SWAP1 PUSH2 0x100 EXP SWAP1 DIV PUSH16 0xFFFFFFFFFFFFFFFFFFFFFFFFFFFFFFFF AND PUSH16 0xFFFFFFFFFFFFFFFFFFFFFFFFFFFFFFFF AND SWAP1 POP SWAP2 SWAP1 POP JUMP JUMPDEST PUSH0 PUSH2 0x25EB DUP4 DUP4 TIMESTAMP PUSH2 0x2D12 JUMP JUMPDEST SWAP1 POP SWAP3 SWAP2 POP POP JUMP JUMPDEST PUSH0 DUP2 PUSH12 0x19D971E4FE8401E74000000 PUSH0 NOT SUB DIV DUP4 GT ISZERO DUP3 ISZERO OR PUSH2 0x2614 JUMPI PUSH0 DUP1 REVERT JUMPDEST PUSH12 0x33B2E3C9FD0803CE8000000 PUSH12 0x19D971E4FE8401E74000000 DUP4 DUP6 MUL ADD DIV SWAP1 POP SWAP3 SWAP2 POP POP JUMP JUMPDEST PUSH0 PUSH1 0x3A SLOAD SWAP1 POP SWAP1 JUMP JUMPDEST PUSH0 CALLER SWAP1 POP SWAP1 JUMP JUMPDEST PUSH0 DUP1 PUSH0 DUP1 PUSH2 0x2658 DUP6 PUSH2 0x256A JUMP JUMPDEST SWAP1 POP PUSH0 DUP2 SUB PUSH2 0x2670 JUMPI PUSH0 DUP1 PUSH0 SWAP4 POP SWAP4 POP SWAP4 POP POP PUSH2 0x2693 JUMP JUMPDEST PUSH0 PUSH2 0x267A DUP7 PUSH2 0xD10 JUMP JUMPDEST SWAP1 POP DUP2 DUP2 DUP4 DUP4 PUSH2 0x268A SWAP2 SWAP1 PUSH2 0x3A1A JUMP JUMPDEST SWAP5 POP SWAP5 POP SWAP5 POP POP POP JUMPDEST SWAP2 SWAP4 SWAP1 SWAP3 POP JUMP JUMPDEST PUSH0 PUSH4 0x3B9ACA00 DUP3 MUL SWAP1 POP DUP2 PUSH4 0x3B9ACA00 DUP3 DIV EQ PUSH2 0x26B5 JUMPI PUSH0 DUP1 REVERT JUMPDEST SWAP2 SWAP1 POP JUMP JUMPDEST PUSH0 PUSH12 0x33B2E3C9FD0803CE8000000 PUSH1 0x2 DUP4 DIV PUSH0 NOT SUB DIV DUP4 GT ISZERO ISZERO DUP3 ISZERO OR ISZERO PUSH2 0x26E0 JUMPI PUSH0 DUP1 REVERT JUMPDEST DUP2 PUSH1 0x2 DUP4 DIV PUSH12 0x33B2E3C9FD0803CE8000000 DUP6 MUL ADD DIV SWAP1 POP SWAP3 SWAP2 POP POP JUMP JUMPDEST PUSH0 PUSH16 0xFFFFFFFFFFFFFFFFFFFFFFFFFFFFFFFF DUP1 AND DUP3 GT ISZERO PUSH2 0x2754 JUMPI PUSH1 0x40 MLOAD PUSH32 0x8C379A000000000000000000000000000000000000000000000000000000000 DUP2 MSTORE PUSH1 0x4 ADD PUSH2 0x274B SWAP1 PUSH2 0x3D74 JUMP JUMPDEST PUSH1 0x40 MLOAD DUP1 SWAP2 SUB SWAP1 REVERT JUMPDEST DUP2 SWAP1 POP SWAP2 SWAP1 POP JUMP JUMPDEST PUSH0 PUSH2 0x2766 DUP4 PUSH2 0x26FE JUMP JUMPDEST SWAP1 POP PUSH0 PUSH1 0x38 PUSH0 DUP7 PUSH20 0xFFFFFFFFFFFFFFFFFFFFFFFFFFFFFFFFFFFFFFFF AND PUSH20 0xFFFFFFFFFFFFFFFFFFFFFFFFFFFFFFFFFFFFFFFF AND DUP2 MSTORE PUSH1 0x20 ADD SWAP1 DUP2 MSTORE PUSH1 0x20 ADD PUSH0 KECCAK256 PUSH0 ADD PUSH0 SWAP1 SLOAD SWAP1 PUSH2 0x100 EXP SWAP1 DIV PUSH16 0xFFFFFFFFFFFFFFFFFFFFFFFFFFFFFFFF AND SWAP1 POP DUP2 DUP2 PUSH2 0x27D2 SWAP2 SWAP1 PUSH2 0x3DAD JUMP JUMPDEST PUSH1 0x38 PUSH0 DUP8 PUSH20 0xFFFFFFFFFFFFFFFFFFFFFFFFFFFFFFFFFFFFFFFF AND PUSH20 0xFFFFFFFFFFFFFFFFFFFFFFFFFFFFFFFFFFFFFFFF AND DUP2 MSTORE PUSH1 0x20 ADD SWAP1 DUP2 MSTORE PUSH1 0x20 ADD PUSH0 KECCAK256 PUSH0 ADD PUSH0 PUSH2 0x100 EXP DUP2 SLOAD DUP2 PUSH16 0xFFFFFFFFFFFFFFFFFFFFFFFFFFFFFFFF MUL NOT AND SWAP1 DUP4 PUSH16 0xFFFFFFFFFFFFFFFFFFFFFFFFFFFFFFFF AND MUL OR SWAP1 SSTORE POP PUSH0 PUSH20 0xFFFFFFFFFFFFFFFFFFFFFFFFFFFFFFFFFFFFFFFF AND PUSH1 0x3D PUSH1 0x1 SWAP1 SLOAD SWAP1 PUSH2 0x100 EXP SWAP1 DIV PUSH20 0xFFFFFFFFFFFFFFFFFFFFFFFFFFFFFFFFFFFFFFFF AND PUSH20 0xFFFFFFFFFFFFFFFFFFFFFFFFFFFFFFFFFFFFFFFF AND EQ PUSH2 0x2928 JUMPI PUSH1 0x3D PUSH1 0x1 SWAP1 SLOAD SWAP1 PUSH2 0x100 EXP SWAP1 DIV PUSH20 0xFFFFFFFFFFFFFFFFFFFFFFFFFFFFFFFFFFFFFFFF AND PUSH20 0xFFFFFFFFFFFFFFFFFFFFFFFFFFFFFFFFFFFFFFFF AND PUSH4 0x31873E2E DUP7 DUP6 DUP5 PUSH1 0x40 MLOAD DUP5 PUSH4 0xFFFFFFFF AND PUSH1 0xE0 SHL DUP2 MSTORE PUSH1 0x4 ADD PUSH2 0x28FA SWAP4 SWAP3 SWAP2 SWAP1 PUSH2 0x3E20 JUMP JUMPDEST PUSH0 PUSH1 0x40 MLOAD DUP1 DUP4 SUB DUP2 PUSH0 DUP8 DUP1 EXTCODESIZE ISZERO DUP1 ISZERO PUSH2 0x2911 JUMPI PUSH0 DUP1 REVERT JUMPDEST POP GAS CALL ISZERO DUP1 ISZERO PUSH2 0x2923 JUMPI RETURNDATASIZE PUSH0 DUP1 RETURNDATACOPY RETURNDATASIZE PUSH0 REVERT JUMPDEST POP POP POP POP JUMPDEST POP POP POP POP POP JUMP JUMPDEST PUSH0 PUSH2 0x2939 DUP4 PUSH2 0x26FE JUMP JUMPDEST SWAP1 POP PUSH0 PUSH1 0x38 PUSH0 DUP7 PUSH20 0xFFFFFFFFFFFFFFFFFFFFFFFFFFFFFFFFFFFFFFFF AND PUSH20 0xFFFFFFFFFFFFFFFFFFFFFFFFFFFFFFFFFFFFFFFF AND DUP2 MSTORE PUSH1 0x20 ADD SWAP1 DUP2 MSTORE PUSH1 0x20 ADD PUSH0 KECCAK256 PUSH0 ADD PUSH0 SWAP1 SLOAD SWAP1 PUSH2 0x100 EXP SWAP1 DIV PUSH16 0xFFFFFFFFFFFFFFFFFFFFFFFFFFFFFFFF AND SWAP1 POP DUP2 DUP2 PUSH2 0x29A5 SWAP2 SWAP1 PUSH2 0x3E55 JUMP JUMPDEST PUSH1 0x38 PUSH0 DUP8 PUSH20 0xFFFFFFFFFFFFFFFFFFFFFFFFFFFFFFFFFFFFFFFF AND PUSH20 0xFFFFFFFFFFFFFFFFFFFFFFFFFFFFFFFFFFFFFFFF AND DUP2 MSTORE PUSH1 0x20 ADD SWAP1 DUP2 MSTORE PUSH1 0x20 ADD PUSH0 KECCAK256 PUSH0 ADD PUSH0 PUSH2 0x100 EXP DUP2 SLOAD DUP2 PUSH16 0xFFFFFFFFFFFFFFFFFFFFFFFFFFFFFFFF MUL NOT AND SWAP1 DUP4 PUSH16 0xFFFFFFFFFFFFFFFFFFFFFFFFFFFFFFFF AND MUL OR SWAP1 SSTORE POP PUSH0 PUSH20 0xFFFFFFFFFFFFFFFFFFFFFFFFFFFFFFFFFFFFFFFF AND PUSH1 0x3D PUSH1 0x1 SWAP1 SLOAD SWAP1 PUSH2 0x100 EXP SWAP1 DIV PUSH20 0xFFFFFFFFFFFFFFFFFFFFFFFFFFFFFFFFFFFFFFFF AND PUSH20 0xFFFFFFFFFFFFFFFFFFFFFFFFFFFFFFFFFFFFFFFF AND EQ PUSH2 0x2AFB JUMPI PUSH1 0x3D PUSH1 0x1 SWAP1 SLOAD SWAP1 PUSH2 0x100 EXP SWAP1 DIV PUSH20 0xFFFFFFFFFFFFFFFFFFFFFFFFFFFFFFFFFFFFFFFF AND PUSH20 0xFFFFFFFFFFFFFFFFFFFFFFFFFFFFFFFFFFFFFFFF AND PUSH4 0x31873E2E DUP7 DUP6 DUP5 PUSH1 0x40 MLOAD DUP5 PUSH4 0xFFFFFFFF AND PUSH1 0xE0 SHL DUP2 MSTORE PUSH1 0x4 ADD PUSH2 0x2ACD SWAP4 SWAP3 SWAP2 SWAP1 PUSH2 0x3E20 JUMP JUMPDEST PUSH0 PUSH1 0x40 MLOAD DUP1 DUP4 SUB DUP2 PUSH0 DUP8 DUP1 EXTCODESIZE ISZERO DUP1 ISZERO PUSH2 0x2AE4 JUMPI PUSH0 DUP1 REVERT JUMPDEST POP GAS CALL ISZERO DUP1 ISZERO PUSH2 0x2AF6 JUMPI RETURNDATASIZE PUSH0 DUP1 RETURNDATACOPY RETURNDATASIZE PUSH0 REVERT JUMPDEST POP POP POP POP JUMPDEST POP POP POP POP POP JUMP JUMPDEST PUSH0 DUP2 PUSH1 0x36 PUSH0 DUP7 PUSH20 0xFFFFFFFFFFFFFFFFFFFFFFFFFFFFFFFFFFFFFFFF AND PUSH20 0xFFFFFFFFFFFFFFFFFFFFFFFFFFFFFFFFFFFFFFFF AND DUP2 MSTORE PUSH1 0x20 ADD SWAP1 DUP2 MSTORE PUSH1 0x20 ADD PUSH0 KECCAK256 PUSH0 DUP6 PUSH20 0xFFFFFFFFFFFFFFFFFFFFFFFFFFFFFFFFFFFFFFFF AND PUSH20 0xFFFFFFFFFFFFFFFFFFFFFFFFFFFFFFFFFFFFFFFF AND DUP2 MSTORE PUSH1 0x20 ADD SWAP1 DUP2 MSTORE PUSH1 0x20 ADD PUSH0 KECCAK256 SLOAD PUSH2 0x2B87 SWAP2 SWAP1 PUSH2 0x3A1A JUMP JUMPDEST SWAP1 POP DUP1 PUSH1 0x36 PUSH0 DUP7 PUSH20 0xFFFFFFFFFFFFFFFFFFFFFFFFFFFFFFFFFFFFFFFF AND PUSH20 0xFFFFFFFFFFFFFFFFFFFFFFFFFFFFFFFFFFFFFFFF AND DUP2 MSTORE PUSH1 0x20 ADD SWAP1 DUP2 MSTORE PUSH1 0x20 ADD PUSH0 KECCAK256 PUSH0 DUP6 PUSH20 0xFFFFFFFFFFFFFFFFFFFFFFFFFFFFFFFFFFFFFFFF AND PUSH20 0xFFFFFFFFFFFFFFFFFFFFFFFFFFFFFFFFFFFFFFFF AND DUP2 MSTORE PUSH1 0x20 ADD SWAP1 DUP2 MSTORE PUSH1 0x20 ADD PUSH0 KECCAK256 DUP2 SWAP1 SSTORE POP PUSH1 0x37 PUSH0 SWAP1 SLOAD SWAP1 PUSH2 0x100 EXP SWAP1 DIV PUSH20 0xFFFFFFFFFFFFFFFFFFFFFFFFFFFFFFFFFFFFFFFF AND PUSH20 0xFFFFFFFFFFFFFFFFFFFFFFFFFFFFFFFFFFFFFFFF AND DUP4 PUSH20 0xFFFFFFFFFFFFFFFFFFFFFFFFFFFFFFFFFFFFFFFF AND DUP6 PUSH20 0xFFFFFFFFFFFFFFFFFFFFFFFFFFFFFFFFFFFFFFFF AND PUSH32 0xDA919360433220E13B51E8C211E490D148E61A3BD53DE8C097194E458B97F3E1 DUP5 PUSH1 0x40 MLOAD PUSH2 0x2C9B SWAP2 SWAP1 PUSH2 0x315C JUMP JUMPDEST PUSH1 0x40 MLOAD DUP1 SWAP2 SUB SWAP1 LOG4 POP POP POP POP JUMP JUMPDEST PUSH0 PUSH1 0x1 SWAP1 POP SWAP1 JUMP JUMPDEST PUSH0 DUP1 ADDRESS EXTCODESIZE SWAP1 POP PUSH0 DUP2 EQ SWAP2 POP POP SWAP1 JUMP JUMPDEST DUP1 PUSH1 0x3B SWAP1 DUP2 PUSH2 0x2CCF SWAP2 SWAP1 PUSH2 0x402C JUMP JUMPDEST POP POP JUMP JUMPDEST DUP1 PUSH1 0x3C SWAP1 DUP2 PUSH2 0x2CE2 SWAP2 SWAP1 PUSH2 0x402C JUMP JUMPDEST POP POP JUMP JUMPDEST DUP1 PUSH1 0x3D PUSH0 PUSH2 0x100 EXP DUP2 SLOAD DUP2 PUSH1 0xFF MUL NOT AND SWAP1 DUP4 PUSH1 0xFF AND MUL OR SWAP1 SSTORE POP POP JUMP JUMPDEST PUSH1 0x60 PUSH2 0x2D0D PUSH2 0x6D6 JUMP JUMPDEST SWAP1 POP SWAP1 JUMP JUMPDEST PUSH0 DUP1 DUP4 PUSH5 0xFFFFFFFFFF AND DUP4 PUSH2 0x2D27 SWAP2 SWAP1 PUSH2 0x3A1A JUMP JUMPDEST SWAP1 POP PUSH0 DUP2 SUB PUSH2 0x2D45 JUMPI PUSH12 0x33B2E3C9FD0803CE8000000 SWAP2 POP POP PUSH2 0x2E71 JUMP JUMPDEST PUSH0 DUP1 PUSH0 DUP1 PUSH1 0x1 DUP6 SUB SWAP4 POP PUSH1 0x2 DUP6 GT PUSH2 0x2D5D JUMPI PUSH0 PUSH2 0x2D62 JUMP JUMPDEST PUSH1 0x2 DUP6 SUB JUMPDEST SWAP3 POP PUSH4 0x1E13380 DUP1 MUL PUSH2 0x2D7E DUP11 DUP12 PUSH2 0x25F3 SWAP1 SWAP2 SWAP1 PUSH4 0xFFFFFFFF AND JUMP JUMPDEST DUP2 PUSH2 0x2D8C JUMPI PUSH2 0x2D8B PUSH2 0x40FB JUMP JUMPDEST JUMPDEST DIV SWAP2 POP PUSH4 0x1E13380 PUSH2 0x2DA7 DUP11 DUP5 PUSH2 0x25F3 SWAP1 SWAP2 SWAP1 PUSH4 0xFFFFFFFF AND JUMP JUMPDEST DUP2 PUSH2 0x2DB5 JUMPI PUSH2 0x2DB4 PUSH2 0x40FB JUMP JUMPDEST JUMPDEST DIV SWAP1 POP PUSH0 DUP3 DUP6 DUP8 PUSH2 0x2DC6 SWAP2 SWAP1 PUSH2 0x4128 JUMP JUMPDEST PUSH2 0x2DD0 SWAP2 SWAP1 PUSH2 0x4128 JUMP JUMPDEST SWAP1 POP PUSH1 0x2 DUP2 DUP2 PUSH2 0x2DE3 JUMPI PUSH2 0x2DE2 PUSH2 0x40FB JUMP JUMPDEST JUMPDEST DIV SWAP1 POP PUSH0 DUP3 DUP6 DUP8 DUP10 PUSH2 0x2DF5 SWAP2 SWAP1 PUSH2 0x4128 JUMP JUMPDEST PUSH2 0x2DFF SWAP2 SWAP1 PUSH2 0x4128 JUMP JUMPDEST PUSH2 0x2E09 SWAP2 SWAP1 PUSH2 0x4128 JUMP JUMPDEST SWAP1 POP PUSH1 0x6 DUP2 DUP2 PUSH2 0x2E1C JUMPI PUSH2 0x2E1B PUSH2 0x40FB JUMP JUMPDEST JUMPDEST DIV SWAP1 POP DUP1 DUP3 PUSH4 0x1E13380 DUP10 DUP15 PUSH2 0x2E32 SWAP2 SWAP1 PUSH2 0x4128 JUMP JUMPDEST PUSH2 0x2E3C SWAP2 SWAP1 PUSH2 0x4169 JUMP JUMPDEST PUSH12 0x33B2E3C9FD0803CE8000000 PUSH2 0x2E53 SWAP2 SWAP1 PUSH2 0x39E7 JUMP JUMPDEST PUSH2 0x2E5D SWAP2 SWAP1 PUSH2 0x39E7 JUMP JUMPDEST PUSH2 0x2E67 SWAP2 SWAP1 PUSH2 0x39E7 JUMP JUMPDEST SWAP8 POP POP POP POP POP POP POP POP JUMPDEST SWAP4 SWAP3 POP POP POP JUMP JUMPDEST PUSH1 0x40 MLOAD DUP1 PUSH1 0xC0 ADD PUSH1 0x40 MSTORE DUP1 PUSH0 DUP2 MSTORE PUSH1 0x20 ADD PUSH0 DUP2 MSTORE PUSH1 0x20 ADD PUSH0 DUP2 MSTORE PUSH1 0x20 ADD PUSH0 DUP2 MSTORE PUSH1 0x20 ADD PUSH0 DUP2 MSTORE PUSH1 0x20 ADD PUSH0 DUP2 MSTORE POP SWAP1 JUMP JUMPDEST PUSH0 DUP2 MLOAD SWAP1 POP SWAP2 SWAP1 POP JUMP JUMPDEST PUSH0 DUP3 DUP3 MSTORE PUSH1 0x20 DUP3 ADD SWAP1 POP SWAP3 SWAP2 POP POP JUMP JUMPDEST DUP3 DUP2 DUP4 MCOPY PUSH0 DUP4 DUP4 ADD MSTORE POP POP POP JUMP JUMPDEST PUSH0 PUSH1 0x1F NOT PUSH1 0x1F DUP4 ADD AND SWAP1 POP SWAP2 SWAP1 POP JUMP JUMPDEST PUSH0 PUSH2 0x2EEA DUP3 PUSH2 0x2EA8 JUMP JUMPDEST PUSH2 0x2EF4 DUP2 DUP6 PUSH2 0x2EB2 JUMP JUMPDEST SWAP4 POP PUSH2 0x2F04 DUP2 DUP6 PUSH1 0x20 DUP7 ADD PUSH2 0x2EC2 JUMP JUMPDEST PUSH2 0x2F0D DUP2 PUSH2 0x2ED0 JUMP JUMPDEST DUP5 ADD SWAP2 POP POP SWAP3 SWAP2 POP POP JUMP JUMPDEST PUSH0 PUSH1 0x20 DUP3 ADD SWAP1 POP DUP2 DUP2 SUB PUSH0 DUP4 ADD MSTORE PUSH2 0x2F30 DUP2 DUP5 PUSH2 0x2EE0 JUMP JUMPDEST SWAP1 POP SWAP3 SWAP2 POP POP JUMP JUMPDEST PUSH0 PUSH1 0x40 MLOAD SWAP1 POP SWAP1 JUMP JUMPDEST PUSH0 DUP1 REVERT JUMPDEST PUSH0 DUP1 REVERT JUMPDEST PUSH0 PUSH20 0xFFFFFFFFFFFFFFFFFFFFFFFFFFFFFFFFFFFFFFFF DUP3 AND SWAP1 POP SWAP2 SWAP1 POP JUMP JUMPDEST PUSH0 PUSH2 0x2F72 DUP3 PUSH2 0x2F49 JUMP JUMPDEST SWAP1 POP SWAP2 SWAP1 POP JUMP JUMPDEST PUSH2 0x2F82 DUP2 PUSH2 0x2F68 JUMP JUMPDEST DUP2 EQ PUSH2 0x2F8C JUMPI PUSH0 DUP1 REVERT JUMPDEST POP JUMP JUMPDEST PUSH0 DUP2 CALLDATALOAD SWAP1 POP PUSH2 0x2F9D DUP2 PUSH2 0x2F79 JUMP JUMPDEST SWAP3 SWAP2 POP POP JUMP JUMPDEST PUSH0 DUP2 SWAP1 POP SWAP2 SWAP1 POP JUMP JUMPDEST PUSH2 0x2FB5 DUP2 PUSH2 0x2FA3 JUMP JUMPDEST DUP2 EQ PUSH2 0x2FBF JUMPI PUSH0 DUP1 REVERT JUMPDEST POP JUMP JUMPDEST PUSH0 DUP2 CALLDATALOAD SWAP1 POP PUSH2 0x2FD0 DUP2 PUSH2 0x2FAC JUMP JUMPDEST SWAP3 SWAP2 POP POP JUMP JUMPDEST PUSH0 DUP1 PUSH1 0x40 DUP4 DUP6 SUB SLT ISZERO PUSH2 0x2FEC JUMPI PUSH2 0x2FEB PUSH2 0x2F41 JUMP JUMPDEST JUMPDEST PUSH0 PUSH2 0x2FF9 DUP6 DUP3 DUP7 ADD PUSH2 0x2F8F JUMP JUMPDEST SWAP3 POP POP PUSH1 0x20 PUSH2 0x300A DUP6 DUP3 DUP7 ADD PUSH2 0x2FC2 JUMP JUMPDEST SWAP2 POP POP SWAP3 POP SWAP3 SWAP1 POP JUMP JUMPDEST PUSH0 DUP2 ISZERO ISZERO SWAP1 POP SWAP2 SWAP1 POP JUMP JUMPDEST PUSH2 0x3028 DUP2 PUSH2 0x3014 JUMP JUMPDEST DUP3 MSTORE POP POP JUMP JUMPDEST PUSH0 PUSH1 0x20 DUP3 ADD SWAP1 POP PUSH2 0x3041 PUSH0 DUP4 ADD DUP5 PUSH2 0x301F JUMP JUMPDEST SWAP3 SWAP2 POP POP JUMP JUMPDEST PUSH0 PUSH1 0xFF DUP3 AND SWAP1 POP SWAP2 SWAP1 POP JUMP JUMPDEST PUSH2 0x305C DUP2 PUSH2 0x3047 JUMP JUMPDEST DUP2 EQ PUSH2 0x3066 JUMPI PUSH0 DUP1 REVERT JUMPDEST POP JUMP JUMPDEST PUSH0 DUP2 CALLDATALOAD SWAP1 POP PUSH2 0x3077 DUP2 PUSH2 0x3053 JUMP JUMPDEST SWAP3 SWAP2 POP POP JUMP JUMPDEST PUSH0 DUP2 SWAP1 POP SWAP2 SWAP1 POP JUMP JUMPDEST PUSH2 0x308F DUP2 PUSH2 0x307D JUMP JUMPDEST DUP2 EQ PUSH2 0x3099 JUMPI PUSH0 DUP1 REVERT JUMPDEST POP JUMP JUMPDEST PUSH0 DUP2 CALLDATALOAD SWAP1 POP PUSH2 0x30AA DUP2 PUSH2 0x3086 JUMP JUMPDEST SWAP3 SWAP2 POP POP JUMP JUMPDEST PUSH0 DUP1 PUSH0 DUP1 PUSH0 DUP1 PUSH0 PUSH1 0xE0 DUP9 DUP11 SUB SLT ISZERO PUSH2 0x30CB JUMPI PUSH2 0x30CA PUSH2 0x2F41 JUMP JUMPDEST JUMPDEST PUSH0 PUSH2 0x30D8 DUP11 DUP3 DUP12 ADD PUSH2 0x2F8F JUMP JUMPDEST SWAP8 POP POP PUSH1 0x20 PUSH2 0x30E9 DUP11 DUP3 DUP12 ADD PUSH2 0x2F8F JUMP JUMPDEST SWAP7 POP POP PUSH1 0x40 PUSH2 0x30FA DUP11 DUP3 DUP12 ADD PUSH2 0x2FC2 JUMP JUMPDEST SWAP6 POP POP PUSH1 0x60 PUSH2 0x310B DUP11 DUP3 DUP12 ADD PUSH2 0x2FC2 JUMP JUMPDEST SWAP5 POP POP PUSH1 0x80 PUSH2 0x311C DUP11 DUP3 DUP12 ADD PUSH2 0x3069 JUMP JUMPDEST SWAP4 POP POP PUSH1 0xA0 PUSH2 0x312D DUP11 DUP3 DUP12 ADD PUSH2 0x309C JUMP JUMPDEST SWAP3 POP POP PUSH1 0xC0 PUSH2 0x313E DUP11 DUP3 DUP12 ADD PUSH2 0x309C JUMP JUMPDEST SWAP2 POP POP SWAP3 SWAP6 SWAP9 SWAP2 SWAP5 SWAP8 POP SWAP3 SWAP6 POP JUMP JUMPDEST PUSH2 0x3156 DUP2 PUSH2 0x2FA3 JUMP JUMPDEST DUP3 MSTORE POP POP JUMP JUMPDEST PUSH0 PUSH1 0x20 DUP3 ADD SWAP1 POP PUSH2 0x316F PUSH0 DUP4 ADD DUP5 PUSH2 0x314D JUMP JUMPDEST SWAP3 SWAP2 POP POP JUMP JUMPDEST PUSH0 DUP1 PUSH0 PUSH1 0x60 DUP5 DUP7 SUB SLT ISZERO PUSH2 0x318C JUMPI PUSH2 0x318B PUSH2 0x2F41 JUMP JUMPDEST JUMPDEST PUSH0 PUSH2 0x3199 DUP7 DUP3 DUP8 ADD PUSH2 0x2F8F JUMP JUMPDEST SWAP4 POP POP PUSH1 0x20 PUSH2 0x31AA DUP7 DUP3 DUP8 ADD PUSH2 0x2F8F JUMP JUMPDEST SWAP3 POP POP PUSH1 0x40 PUSH2 0x31BB DUP7 DUP3 DUP8 ADD PUSH2 0x2FC2 JUMP JUMPDEST SWAP2 POP POP SWAP3 POP SWAP3 POP SWAP3 JUMP JUMPDEST PUSH2 0x31CE DUP2 PUSH2 0x3047 JUMP JUMPDEST DUP3 MSTORE POP POP JUMP JUMPDEST PUSH0 PUSH1 0x20 DUP3 ADD SWAP1 POP PUSH2 0x31E7 PUSH0 DUP4 ADD DUP5 PUSH2 0x31C5 JUMP JUMPDEST SWAP3 SWAP2 POP POP JUMP JUMPDEST PUSH2 0x31F6 DUP2 PUSH2 0x307D JUMP JUMPDEST DUP3 MSTORE POP POP JUMP JUMPDEST PUSH0 PUSH1 0x20 DUP3 ADD SWAP1 POP PUSH2 0x320F PUSH0 DUP4 ADD DUP5 PUSH2 0x31ED JUMP JUMPDEST SWAP3 SWAP2 POP POP JUMP JUMPDEST PUSH0 DUP1 PUSH1 0x40 DUP4 DUP6 SUB SLT ISZERO PUSH2 0x322B JUMPI PUSH2 0x322A PUSH2 0x2F41 JUMP JUMPDEST JUMPDEST PUSH0 PUSH2 0x3238 DUP6 DUP3 DUP7 ADD PUSH2 0x2F8F JUMP JUMPDEST SWAP3 POP POP PUSH1 0x20 PUSH2 0x3249 DUP6 DUP3 DUP7 ADD PUSH2 0x2F8F JUMP JUMPDEST SWAP2 POP POP SWAP3 POP SWAP3 SWAP1 POP JUMP JUMPDEST PUSH0 PUSH1 0x20 DUP3 DUP5 SUB SLT ISZERO PUSH2 0x3268 JUMPI PUSH2 0x3267 PUSH2 0x2F41 JUMP JUMPDEST JUMPDEST PUSH0 PUSH2 0x3275 DUP5 DUP3 DUP6 ADD PUSH2 0x2F8F JUMP JUMPDEST SWAP2 POP POP SWAP3 SWAP2 POP POP JUMP JUMPDEST PUSH0 DUP2 SWAP1 POP SWAP2 SWAP1 POP JUMP JUMPDEST PUSH0 PUSH2 0x32A1 PUSH2 0x329C PUSH2 0x3297 DUP5 PUSH2 0x2F49 JUMP JUMPDEST PUSH2 0x327E JUMP JUMPDEST PUSH2 0x2F49 JUMP JUMPDEST SWAP1 POP SWAP2 SWAP1 POP JUMP JUMPDEST PUSH0 PUSH2 0x32B2 DUP3 PUSH2 0x3287 JUMP JUMPDEST SWAP1 POP SWAP2 SWAP1 POP JUMP JUMPDEST PUSH0 PUSH2 0x32C3 DUP3 PUSH2 0x32A8 JUMP JUMPDEST SWAP1 POP SWAP2 SWAP1 POP JUMP JUMPDEST PUSH2 0x32D3 DUP2 PUSH2 0x32B9 JUMP JUMPDEST DUP3 MSTORE POP POP JUMP JUMPDEST PUSH0 PUSH1 0x20 DUP3 ADD SWAP1 POP PUSH2 0x32EC PUSH0 DUP4 ADD DUP5 PUSH2 0x32CA JUMP JUMPDEST SWAP3 SWAP2 POP POP JUMP JUMPDEST PUSH0 PUSH2 0x32FC DUP3 PUSH2 0x32A8 JUMP JUMPDEST SWAP1 POP SWAP2 SWAP1 POP JUMP JUMPDEST PUSH2 0x330C DUP2 PUSH2 0x32F2 JUMP JUMPDEST DUP3 MSTORE POP POP JUMP JUMPDEST PUSH0 PUSH1 0x20 DUP3 ADD SWAP1 POP PUSH2 0x3325 PUSH0 DUP4 ADD DUP5 PUSH2 0x3303 JUMP JUMPDEST SWAP3 SWAP2 POP POP JUMP JUMPDEST PUSH0 DUP2 MLOAD SWAP1 POP SWAP2 SWAP1 POP JUMP JUMPDEST PUSH0 DUP3 DUP3 MSTORE PUSH1 0x20 DUP3 ADD SWAP1 POP SWAP3 SWAP2 POP POP JUMP JUMPDEST PUSH0 PUSH2 0x334F DUP3 PUSH2 0x332B JUMP JUMPDEST PUSH2 0x3359 DUP2 DUP6 PUSH2 0x3335 JUMP JUMPDEST SWAP4 POP PUSH2 0x3369 DUP2 DUP6 PUSH1 0x20 DUP7 ADD PUSH2 0x2EC2 JUMP JUMPDEST PUSH2 0x3372 DUP2 PUSH2 0x2ED0 JUMP JUMPDEST DUP5 ADD SWAP2 POP POP SWAP3 SWAP2 POP POP JUMP JUMPDEST PUSH0 PUSH1 0x20 DUP3 ADD SWAP1 POP DUP2 DUP2 SUB PUSH0 DUP4 ADD MSTORE PUSH2 0x3395 DUP2 DUP5 PUSH2 0x3345 JUMP JUMPDEST SWAP1 POP SWAP3 SWAP2 POP POP JUMP JUMPDEST PUSH0 PUSH5 0xFFFFFFFFFF DUP3 AND SWAP1 POP SWAP2 SWAP1 POP JUMP JUMPDEST PUSH2 0x33B6 DUP2 PUSH2 0x339D JUMP JUMPDEST DUP3 MSTORE POP POP JUMP JUMPDEST PUSH0 PUSH1 0x80 DUP3 ADD SWAP1 POP PUSH2 0x33CF PUSH0 DUP4 ADD DUP8 PUSH2 0x314D JUMP JUMPDEST PUSH2 0x33DC PUSH1 0x20 DUP4 ADD DUP7 PUSH2 0x314D JUMP JUMPDEST PUSH2 0x33E9 PUSH1 0x40 DUP4 ADD DUP6 PUSH2 0x314D JUMP JUMPDEST PUSH2 0x33F6 PUSH1 0x60 DUP4 ADD DUP5 PUSH2 0x33AD JUMP JUMPDEST SWAP6 SWAP5 POP POP POP POP POP JUMP JUMPDEST PUSH0 PUSH1 0x20 DUP3 ADD SWAP1 POP PUSH2 0x3412 PUSH0 DUP4 ADD DUP5 PUSH2 0x33AD JUMP JUMPDEST SWAP3 SWAP2 POP POP JUMP JUMPDEST PUSH0 PUSH1 0x40 DUP3 ADD SWAP1 POP PUSH2 0x342B PUSH0 DUP4 ADD DUP6 PUSH2 0x314D JUMP JUMPDEST PUSH2 0x3438 PUSH1 0x20 DUP4 ADD DUP5 PUSH2 0x314D JUMP JUMPDEST SWAP4 SWAP3 POP POP POP JUMP JUMPDEST PUSH2 0x3448 DUP2 PUSH2 0x2F68 JUMP JUMPDEST DUP3 MSTORE POP POP JUMP JUMPDEST PUSH0 PUSH1 0x20 DUP3 ADD SWAP1 POP PUSH2 0x3461 PUSH0 DUP4 ADD DUP5 PUSH2 0x343F JUMP JUMPDEST SWAP3 SWAP2 POP POP JUMP JUMPDEST PUSH0 DUP1 PUSH0 DUP1 PUSH1 0x80 DUP6 DUP8 SUB SLT ISZERO PUSH2 0x347F JUMPI PUSH2 0x347E PUSH2 0x2F41 JUMP JUMPDEST JUMPDEST PUSH0 PUSH2 0x348C DUP8 DUP3 DUP9 ADD PUSH2 0x2F8F JUMP JUMPDEST SWAP5 POP POP PUSH1 0x20 PUSH2 0x349D DUP8 DUP3 DUP9 ADD PUSH2 0x2F8F JUMP JUMPDEST SWAP4 POP POP PUSH1 0x40 PUSH2 0x34AE DUP8 DUP3 DUP9 ADD PUSH2 0x2FC2 JUMP JUMPDEST SWAP3 POP POP PUSH1 0x60 PUSH2 0x34BF DUP8 DUP3 DUP9 ADD PUSH2 0x2FC2 JUMP JUMPDEST SWAP2 POP POP SWAP3 SWAP6 SWAP2 SWAP5 POP SWAP3 POP JUMP JUMPDEST PUSH0 PUSH1 0x60 DUP3 ADD SWAP1 POP PUSH2 0x34DE PUSH0 DUP4 ADD DUP7 PUSH2 0x301F JUMP JUMPDEST PUSH2 0x34EB PUSH1 0x20 DUP4 ADD DUP6 PUSH2 0x314D JUMP JUMPDEST PUSH2 0x34F8 PUSH1 0x40 DUP4 ADD DUP5 PUSH2 0x314D JUMP JUMPDEST SWAP5 SWAP4 POP POP POP POP JUMP JUMPDEST PUSH0 PUSH2 0x350A DUP3 PUSH2 0x2F68 JUMP JUMPDEST SWAP1 POP SWAP2 SWAP1 POP JUMP JUMPDEST PUSH2 0x351A DUP2 PUSH2 0x3500 JUMP JUMPDEST DUP2 EQ PUSH2 0x3524 JUMPI PUSH0 DUP1 REVERT JUMPDEST POP JUMP JUMPDEST PUSH0 DUP2 CALLDATALOAD SWAP1 POP PUSH2 0x3535 DUP2 PUSH2 0x3511 JUMP JUMPDEST SWAP3 SWAP2 POP POP JUMP JUMPDEST PUSH0 PUSH2 0x3545 DUP3 PUSH2 0x2F68 JUMP JUMPDEST SWAP1 POP SWAP2 SWAP1 POP JUMP JUMPDEST PUSH2 0x3555 DUP2 PUSH2 0x353B JUMP JUMPDEST DUP2 EQ PUSH2 0x355F JUMPI PUSH0 DUP1 REVERT JUMPDEST POP JUMP JUMPDEST PUSH0 DUP2 CALLDATALOAD SWAP1 POP PUSH2 0x3570 DUP2 PUSH2 0x354C JUMP JUMPDEST SWAP3 SWAP2 POP POP JUMP JUMPDEST PUSH0 DUP1 REVERT JUMPDEST PUSH0 DUP1 REVERT JUMPDEST PUSH32 0x4E487B7100000000000000000000000000000000000000000000000000000000 PUSH0 MSTORE PUSH1 0x41 PUSH1 0x4 MSTORE PUSH1 0x24 PUSH0 REVERT JUMPDEST PUSH2 0x35B4 DUP3 PUSH2 0x2ED0 JUMP JUMPDEST DUP2 ADD DUP2 DUP2 LT PUSH8 0xFFFFFFFFFFFFFFFF DUP3 GT OR ISZERO PUSH2 0x35D3 JUMPI PUSH2 0x35D2 PUSH2 0x357E JUMP JUMPDEST JUMPDEST DUP1 PUSH1 0x40 MSTORE POP POP POP JUMP JUMPDEST PUSH0 PUSH2 0x35E5 PUSH2 0x2F38 JUMP JUMPDEST SWAP1 POP PUSH2 0x35F1 DUP3 DUP3 PUSH2 0x35AB JUMP JUMPDEST SWAP2 SWAP1 POP JUMP JUMPDEST PUSH0 PUSH8 0xFFFFFFFFFFFFFFFF DUP3 GT ISZERO PUSH2 0x3610 JUMPI PUSH2 0x360F PUSH2 0x357E JUMP JUMPDEST JUMPDEST PUSH2 0x3619 DUP3 PUSH2 0x2ED0 JUMP JUMPDEST SWAP1 POP PUSH1 0x20 DUP2 ADD SWAP1 POP SWAP2 SWAP1 POP JUMP JUMPDEST DUP3 DUP2 DUP4 CALLDATACOPY PUSH0 DUP4 DUP4 ADD MSTORE POP POP POP JUMP JUMPDEST PUSH0 PUSH2 0x3646 PUSH2 0x3641 DUP5 PUSH2 0x35F6 JUMP JUMPDEST PUSH2 0x35DC JUMP JUMPDEST SWAP1 POP DUP3 DUP2 MSTORE PUSH1 0x20 DUP2 ADD DUP5 DUP5 DUP5 ADD GT ISZERO PUSH2 0x3662 JUMPI PUSH2 0x3661 PUSH2 0x357A JUMP JUMPDEST JUMPDEST PUSH2 0x366D DUP5 DUP3 DUP6 PUSH2 0x3626 JUMP JUMPDEST POP SWAP4 SWAP3 POP POP POP JUMP JUMPDEST PUSH0 DUP3 PUSH1 0x1F DUP4 ADD SLT PUSH2 0x3689 JUMPI PUSH2 0x3688 PUSH2 0x3576 JUMP JUMPDEST JUMPDEST DUP2 CALLDATALOAD PUSH2 0x3699 DUP5 DUP3 PUSH1 0x20 DUP7 ADD PUSH2 0x3634 JUMP JUMPDEST SWAP2 POP POP SWAP3 SWAP2 POP POP JUMP JUMPDEST PUSH0 DUP1 REVERT JUMPDEST PUSH0 DUP1 REVERT JUMPDEST PUSH0 DUP1 DUP4 PUSH1 0x1F DUP5 ADD SLT PUSH2 0x36BF JUMPI PUSH2 0x36BE PUSH2 0x3576 JUMP JUMPDEST JUMPDEST DUP3 CALLDATALOAD SWAP1 POP PUSH8 0xFFFFFFFFFFFFFFFF DUP2 GT ISZERO PUSH2 0x36DC JUMPI PUSH2 0x36DB PUSH2 0x36A2 JUMP JUMPDEST JUMPDEST PUSH1 0x20 DUP4 ADD SWAP2 POP DUP4 PUSH1 0x1 DUP3 MUL DUP4 ADD GT ISZERO PUSH2 0x36F8 JUMPI PUSH2 0x36F7 PUSH2 0x36A6 JUMP JUMPDEST JUMPDEST SWAP3 POP SWAP3 SWAP1 POP JUMP JUMPDEST PUSH0 DUP1 PUSH0 DUP1 PUSH0 DUP1 PUSH0 DUP1 PUSH1 0xE0 DUP10 DUP12 SUB SLT ISZERO PUSH2 0x371B JUMPI PUSH2 0x371A PUSH2 0x2F41 JUMP JUMPDEST JUMPDEST PUSH0 PUSH2 0x3728 DUP12 DUP3 DUP13 ADD PUSH2 0x3527 JUMP JUMPDEST SWAP9 POP POP PUSH1 0x20 PUSH2 0x3739 DUP12 DUP3 DUP13 ADD PUSH2 0x2F8F JUMP JUMPDEST SWAP8 POP POP PUSH1 0x40 PUSH2 0x374A DUP12 DUP3 DUP13 ADD PUSH2 0x3562 JUMP JUMPDEST SWAP7 POP POP PUSH1 0x60 PUSH2 0x375B DUP12 DUP3 DUP13 ADD PUSH2 0x3069 JUMP JUMPDEST SWAP6 POP POP PUSH1 0x80 DUP10 ADD CALLDATALOAD PUSH8 0xFFFFFFFFFFFFFFFF DUP2 GT ISZERO PUSH2 0x377C JUMPI PUSH2 0x377B PUSH2 0x2F45 JUMP JUMPDEST JUMPDEST PUSH2 0x3788 DUP12 DUP3 DUP13 ADD PUSH2 0x3675 JUMP JUMPDEST SWAP5 POP POP PUSH1 0xA0 DUP10 ADD CALLDATALOAD PUSH8 0xFFFFFFFFFFFFFFFF DUP2 GT ISZERO PUSH2 0x37A9 JUMPI PUSH2 0x37A8 PUSH2 0x2F45 JUMP JUMPDEST JUMPDEST PUSH2 0x37B5 DUP12 DUP3 DUP13 ADD PUSH2 0x3675 JUMP JUMPDEST SWAP4 POP POP PUSH1 0xC0 DUP10 ADD CALLDATALOAD PUSH8 0xFFFFFFFFFFFFFFFF DUP2 GT ISZERO PUSH2 0x37D6 JUMPI PUSH2 0x37D5 PUSH2 0x2F45 JUMP JUMPDEST JUMPDEST PUSH2 0x37E2 DUP12 DUP3 DUP13 ADD PUSH2 0x36AA JUMP JUMPDEST SWAP3 POP SWAP3 POP POP SWAP3 SWAP6 SWAP9 POP SWAP3 SWAP6 SWAP9 SWAP1 SWAP4 SWAP7 POP JUMP JUMPDEST PUSH0 PUSH1 0x20 DUP3 DUP5 SUB SLT ISZERO PUSH2 0x3809 JUMPI PUSH2 0x3808 PUSH2 0x2F41 JUMP JUMPDEST JUMPDEST PUSH0 PUSH2 0x3816 DUP5 DUP3 DUP6 ADD PUSH2 0x3562 JUMP JUMPDEST SWAP2 POP POP SWAP3 SWAP2 POP POP JUMP JUMPDEST PUSH32 0x4E487B7100000000000000000000000000000000000000000000000000000000 PUSH0 MSTORE PUSH1 0x22 PUSH1 0x4 MSTORE PUSH1 0x24 PUSH0 REVERT JUMPDEST PUSH0 PUSH1 0x2 DUP3 DIV SWAP1 POP PUSH1 0x1 DUP3 AND DUP1 PUSH2 0x3863 JUMPI PUSH1 0x7F DUP3 AND SWAP2 POP JUMPDEST PUSH1 0x20 DUP3 LT DUP2 SUB PUSH2 0x3876 JUMPI PUSH2 0x3875 PUSH2 0x381F JUMP JUMPDEST JUMPDEST POP SWAP2 SWAP1 POP JUMP JUMPDEST PUSH0 PUSH1 0xA0 DUP3 ADD SWAP1 POP PUSH2 0x388F PUSH0 DUP4 ADD DUP9 PUSH2 0x31ED JUMP JUMPDEST PUSH2 0x389C PUSH1 0x20 DUP4 ADD DUP8 PUSH2 0x343F JUMP JUMPDEST PUSH2 0x38A9 PUSH1 0x40 DUP4 ADD DUP7 PUSH2 0x314D JUMP JUMPDEST PUSH2 0x38B6 PUSH1 0x60 DUP4 ADD DUP6 PUSH2 0x314D JUMP JUMPDEST PUSH2 0x38C3 PUSH1 0x80 DUP4 ADD DUP5 PUSH2 0x314D JUMP JUMPDEST SWAP7 SWAP6 POP POP POP POP POP POP JUMP JUMPDEST PUSH0 DUP2 SWAP1 POP SWAP3 SWAP2 POP POP JUMP JUMPDEST PUSH32 0x1901000000000000000000000000000000000000000000000000000000000000 PUSH0 DUP3 ADD MSTORE POP JUMP JUMPDEST PUSH0 PUSH2 0x390B PUSH1 0x2 DUP4 PUSH2 0x38CD JUMP JUMPDEST SWAP2 POP PUSH2 0x3916 DUP3 PUSH2 0x38D7 JUMP JUMPDEST PUSH1 0x2 DUP3 ADD SWAP1 POP SWAP2 SWAP1 POP JUMP JUMPDEST PUSH0 DUP2 SWAP1 POP SWAP2 SWAP1 POP JUMP JUMPDEST PUSH2 0x393B PUSH2 0x3936 DUP3 PUSH2 0x307D JUMP JUMPDEST PUSH2 0x3921 JUMP JUMPDEST DUP3 MSTORE POP POP JUMP JUMPDEST PUSH0 PUSH2 0x394B DUP3 PUSH2 0x38FF JUMP JUMPDEST SWAP2 POP PUSH2 0x3957 DUP3 DUP6 PUSH2 0x392A JUMP JUMPDEST PUSH1 0x20 DUP3 ADD SWAP2 POP PUSH2 0x3967 DUP3 DUP5 PUSH2 0x392A JUMP JUMPDEST PUSH1 0x20 DUP3 ADD SWAP2 POP DUP2 SWAP1 POP SWAP4 SWAP3 POP POP POP JUMP JUMPDEST PUSH0 PUSH1 0x80 DUP3 ADD SWAP1 POP PUSH2 0x398A PUSH0 DUP4 ADD DUP8 PUSH2 0x31ED JUMP JUMPDEST PUSH2 0x3997 PUSH1 0x20 DUP4 ADD DUP7 PUSH2 0x31C5 JUMP JUMPDEST PUSH2 0x39A4 PUSH1 0x40 DUP4 ADD DUP6 PUSH2 0x31ED JUMP JUMPDEST PUSH2 0x39B1 PUSH1 0x60 DUP4 ADD DUP5 PUSH2 0x31ED JUMP JUMPDEST SWAP6 SWAP5 POP POP POP POP POP JUMP JUMPDEST PUSH32 0x4E487B7100000000000000000000000000000000000000000000000000000000 PUSH0 MSTORE PUSH1 0x11 PUSH1 0x4 MSTORE PUSH1 0x24 PUSH0 REVERT JUMPDEST PUSH0 PUSH2 0x39F1 DUP3 PUSH2 0x2FA3 JUMP JUMPDEST SWAP2 POP PUSH2 0x39FC DUP4 PUSH2 0x2FA3 JUMP JUMPDEST SWAP3 POP DUP3 DUP3 ADD SWAP1 POP DUP1 DUP3 GT ISZERO PUSH2 0x3A14 JUMPI PUSH2 0x3A13 PUSH2 0x39BA JUMP JUMPDEST JUMPDEST SWAP3 SWAP2 POP POP JUMP JUMPDEST PUSH0 PUSH2 0x3A24 DUP3 PUSH2 0x2FA3 JUMP JUMPDEST SWAP2 POP PUSH2 0x3A2F DUP4 PUSH2 0x2FA3 JUMP JUMPDEST SWAP3 POP DUP3 DUP3 SUB SWAP1 POP DUP2 DUP2 GT ISZERO PUSH2 0x3A47 JUMPI PUSH2 0x3A46 PUSH2 0x39BA JUMP JUMPDEST JUMPDEST SWAP3 SWAP2 POP POP JUMP JUMPDEST PUSH0 PUSH1 0xC0 DUP3 ADD SWAP1 POP PUSH2 0x3A60 PUSH0 DUP4 ADD DUP10 PUSH2 0x314D JUMP JUMPDEST PUSH2 0x3A6D PUSH1 0x20 DUP4 ADD DUP9 PUSH2 0x314D JUMP JUMPDEST PUSH2 0x3A7A PUSH1 0x40 DUP4 ADD DUP8 PUSH2 0x314D JUMP JUMPDEST PUSH2 0x3A87 PUSH1 0x60 DUP4 ADD DUP7 PUSH2 0x314D JUMP JUMPDEST PUSH2 0x3A94 PUSH1 0x80 DUP4 ADD DUP6 PUSH2 0x314D JUMP JUMPDEST PUSH2 0x3AA1 PUSH1 0xA0 DUP4 ADD DUP5 PUSH2 0x314D JUMP JUMPDEST SWAP8 SWAP7 POP POP POP POP POP POP POP JUMP JUMPDEST PUSH0 PUSH1 0xA0 DUP3 ADD SWAP1 POP PUSH2 0x3ABF PUSH0 DUP4 ADD DUP9 PUSH2 0x314D JUMP JUMPDEST PUSH2 0x3ACC PUSH1 0x20 DUP4 ADD DUP8 PUSH2 0x314D JUMP JUMPDEST PUSH2 0x3AD9 PUSH1 0x40 DUP4 ADD DUP7 PUSH2 0x314D JUMP JUMPDEST PUSH2 0x3AE6 PUSH1 0x60 DUP4 ADD DUP6 PUSH2 0x314D JUMP JUMPDEST PUSH2 0x3AF3 PUSH1 0x80 DUP4 ADD DUP5 PUSH2 0x314D JUMP JUMPDEST SWAP7 SWAP6 POP POP POP POP POP POP JUMP JUMPDEST PUSH32 0x436F6E747261637420696E7374616E63652068617320616C7265616479206265 PUSH0 DUP3 ADD MSTORE PUSH32 0x656E20696E697469616C697A6564000000000000000000000000000000000000 PUSH1 0x20 DUP3 ADD MSTORE POP JUMP JUMPDEST PUSH0 PUSH2 0x3B57 PUSH1 0x2E DUP4 PUSH2 0x2EB2 JUMP JUMPDEST SWAP2 POP PUSH2 0x3B62 DUP3 PUSH2 0x3AFD JUMP JUMPDEST PUSH1 0x40 DUP3 ADD SWAP1 POP SWAP2 SWAP1 POP JUMP JUMPDEST PUSH0 PUSH1 0x20 DUP3 ADD SWAP1 POP DUP2 DUP2 SUB PUSH0 DUP4 ADD MSTORE PUSH2 0x3B84 DUP2 PUSH2 0x3B4B JUMP JUMPDEST SWAP1 POP SWAP2 SWAP1 POP JUMP JUMPDEST PUSH0 PUSH2 0x3B96 DUP4 DUP6 PUSH2 0x3335 JUMP JUMPDEST SWAP4 POP PUSH2 0x3BA3 DUP4 DUP6 DUP5 PUSH2 0x3626 JUMP JUMPDEST PUSH2 0x3BAC DUP4 PUSH2 0x2ED0 JUMP JUMPDEST DUP5 ADD SWAP1 POP SWAP4 SWAP3 POP POP POP JUMP JUMPDEST PUSH0 PUSH1 0xA0 DUP3 ADD SWAP1 POP PUSH2 0x3BCA PUSH0 DUP4 ADD DUP10 PUSH2 0x343F JUMP JUMPDEST PUSH2 0x3BD7 PUSH1 0x20 DUP4 ADD DUP9 PUSH2 0x31C5 JUMP JUMPDEST DUP2 DUP2 SUB PUSH1 0x40 DUP4 ADD MSTORE PUSH2 0x3BE9 DUP2 DUP8 PUSH2 0x2EE0 JUMP JUMPDEST SWAP1 POP DUP2 DUP2 SUB PUSH1 0x60 DUP4 ADD MSTORE PUSH2 0x3BFD DUP2 DUP7 PUSH2 0x2EE0 JUMP JUMPDEST SWAP1 POP DUP2 DUP2 SUB PUSH1 0x80 DUP4 ADD MSTORE PUSH2 0x3C12 DUP2 DUP5 DUP7 PUSH2 0x3B8B JUMP JUMPDEST SWAP1 POP SWAP8 SWAP7 POP POP POP POP POP POP POP JUMP JUMPDEST PUSH0 DUP2 MLOAD SWAP1 POP PUSH2 0x3C2D DUP2 PUSH2 0x2F79 JUMP JUMPDEST SWAP3 SWAP2 POP POP JUMP JUMPDEST PUSH0 PUSH1 0x20 DUP3 DUP5 SUB SLT ISZERO PUSH2 0x3C48 JUMPI PUSH2 0x3C47 PUSH2 0x2F41 JUMP JUMPDEST JUMPDEST PUSH0 PUSH2 0x3C55 DUP5 DUP3 DUP6 ADD PUSH2 0x3C1F JUMP JUMPDEST SWAP2 POP POP SWAP3 SWAP2 POP POP JUMP JUMPDEST PUSH2 0x3C67 DUP2 PUSH2 0x3014 JUMP JUMPDEST DUP2 EQ PUSH2 0x3C71 JUMPI PUSH0 DUP1 REVERT JUMPDEST POP JUMP JUMPDEST PUSH0 DUP2 MLOAD SWAP1 POP PUSH2 0x3C82 DUP2 PUSH2 0x3C5E JUMP JUMPDEST SWAP3 SWAP2 POP POP JUMP JUMPDEST PUSH0 PUSH1 0x20 DUP3 DUP5 SUB SLT ISZERO PUSH2 0x3C9D JUMPI PUSH2 0x3C9C PUSH2 0x2F41 JUMP JUMPDEST JUMPDEST PUSH0 PUSH2 0x3CAA DUP5 DUP3 DUP6 ADD PUSH2 0x3C74 JUMP JUMPDEST SWAP2 POP POP SWAP3 SWAP2 POP POP JUMP JUMPDEST PUSH0 PUSH1 0xA0 DUP3 ADD SWAP1 POP PUSH2 0x3CC6 PUSH0 DUP4 ADD DUP9 PUSH2 0x31ED JUMP JUMPDEST PUSH2 0x3CD3 PUSH1 0x20 DUP4 ADD DUP8 PUSH2 0x31ED JUMP JUMPDEST PUSH2 0x3CE0 PUSH1 0x40 DUP4 ADD DUP7 PUSH2 0x31ED JUMP JUMPDEST PUSH2 0x3CED PUSH1 0x60 DUP4 ADD DUP6 PUSH2 0x314D JUMP JUMPDEST PUSH2 0x3CFA PUSH1 0x80 DUP4 ADD DUP5 PUSH2 0x343F JUMP JUMPDEST SWAP7 SWAP6 POP POP POP POP POP POP JUMP JUMPDEST PUSH32 0x53616665436173743A2076616C756520646F65736E27742066697420696E2031 PUSH0 DUP3 ADD MSTORE PUSH32 0x3238206269747300000000000000000000000000000000000000000000000000 PUSH1 0x20 DUP3 ADD MSTORE POP JUMP JUMPDEST PUSH0 PUSH2 0x3D5E PUSH1 0x27 DUP4 PUSH2 0x2EB2 JUMP JUMPDEST SWAP2 POP PUSH2 0x3D69 DUP3 PUSH2 0x3D04 JUMP JUMPDEST PUSH1 0x40 DUP3 ADD SWAP1 POP SWAP2 SWAP1 POP JUMP JUMPDEST PUSH0 PUSH1 0x20 DUP3 ADD SWAP1 POP DUP2 DUP2 SUB PUSH0 DUP4 ADD MSTORE PUSH2 0x3D8B DUP2 PUSH2 0x3D52 JUMP JUMPDEST SWAP1 POP SWAP2 SWAP1 POP JUMP JUMPDEST PUSH0 PUSH16 0xFFFFFFFFFFFFFFFFFFFFFFFFFFFFFFFF DUP3 AND SWAP1 POP SWAP2 SWAP1 POP JUMP JUMPDEST PUSH0 PUSH2 0x3DB7 DUP3 PUSH2 0x3D92 JUMP JUMPDEST SWAP2 POP PUSH2 0x3DC2 DUP4 PUSH2 0x3D92 JUMP JUMPDEST SWAP3 POP DUP3 DUP3 ADD SWAP1 POP PUSH16 0xFFFFFFFFFFFFFFFFFFFFFFFFFFFFFFFF DUP2 GT ISZERO PUSH2 0x3DEA JUMPI PUSH2 0x3DE9 PUSH2 0x39BA JUMP JUMPDEST JUMPDEST SWAP3 SWAP2 POP POP JUMP JUMPDEST PUSH0 PUSH2 0x3E0A PUSH2 0x3E05 PUSH2 0x3E00 DUP5 PUSH2 0x3D92 JUMP JUMPDEST PUSH2 0x327E JUMP JUMPDEST PUSH2 0x2FA3 JUMP JUMPDEST SWAP1 POP SWAP2 SWAP1 POP JUMP JUMPDEST PUSH2 0x3E1A DUP2 PUSH2 0x3DF0 JUMP JUMPDEST DUP3 MSTORE POP POP JUMP JUMPDEST PUSH0 PUSH1 0x60 DUP3 ADD SWAP1 POP PUSH2 0x3E33 PUSH0 DUP4 ADD DUP7 PUSH2 0x343F JUMP JUMPDEST PUSH2 0x3E40 PUSH1 0x20 DUP4 ADD DUP6 PUSH2 0x314D JUMP JUMPDEST PUSH2 0x3E4D PUSH1 0x40 DUP4 ADD DUP5 PUSH2 0x3E11 JUMP JUMPDEST SWAP5 SWAP4 POP POP POP POP JUMP JUMPDEST PUSH0 PUSH2 0x3E5F DUP3 PUSH2 0x3D92 JUMP JUMPDEST SWAP2 POP PUSH2 0x3E6A DUP4 PUSH2 0x3D92 JUMP JUMPDEST SWAP3 POP DUP3 DUP3 SUB SWAP1 POP PUSH16 0xFFFFFFFFFFFFFFFFFFFFFFFFFFFFFFFF DUP2 GT ISZERO PUSH2 0x3E92 JUMPI PUSH2 0x3E91 PUSH2 0x39BA JUMP JUMPDEST JUMPDEST SWAP3 SWAP2 POP POP JUMP JUMPDEST PUSH0 DUP2 SWAP1 POP DUP2 PUSH0 MSTORE PUSH1 0x20 PUSH0 KECCAK256 SWAP1 POP SWAP2 SWAP1 POP JUMP JUMPDEST PUSH0 PUSH1 0x20 PUSH1 0x1F DUP4 ADD DIV SWAP1 POP SWAP2 SWAP1 POP JUMP JUMPDEST PUSH0 DUP3 DUP3 SHL SWAP1 POP SWAP3 SWAP2 POP POP JUMP JUMPDEST PUSH0 PUSH1 0x8 DUP4 MUL PUSH2 0x3EF4 PUSH32 0xFFFFFFFFFFFFFFFFFFFFFFFFFFFFFFFFFFFFFFFFFFFFFFFFFFFFFFFFFFFFFFFF DUP3 PUSH2 0x3EB9 JUMP JUMPDEST PUSH2 0x3EFE DUP7 DUP4 PUSH2 0x3EB9 JUMP JUMPDEST SWAP6 POP DUP1 NOT DUP5 AND SWAP4 POP DUP1 DUP7 AND DUP5 OR SWAP3 POP POP POP SWAP4 SWAP3 POP POP POP JUMP JUMPDEST PUSH0 PUSH2 0x3F30 PUSH2 0x3F2B PUSH2 0x3F26 DUP5 PUSH2 0x2FA3 JUMP JUMPDEST PUSH2 0x327E JUMP JUMPDEST PUSH2 0x2FA3 JUMP JUMPDEST SWAP1 POP SWAP2 SWAP1 POP JUMP JUMPDEST PUSH0 DUP2 SWAP1 POP SWAP2 SWAP1 POP JUMP JUMPDEST PUSH2 0x3F49 DUP4 PUSH2 0x3F16 JUMP JUMPDEST PUSH2 0x3F5D PUSH2 0x3F55 DUP3 PUSH2 0x3F37 JUMP JUMPDEST DUP5 DUP5 SLOAD PUSH2 0x3EC5 JUMP JUMPDEST DUP3 SSTORE POP POP POP POP JUMP JUMPDEST PUSH0 SWAP1 JUMP JUMPDEST PUSH2 0x3F71 PUSH2 0x3F65 JUMP JUMPDEST PUSH2 0x3F7C DUP2 DUP5 DUP5 PUSH2 0x3F40 JUMP JUMPDEST POP POP POP JUMP JUMPDEST JUMPDEST DUP2 DUP2 LT ISZERO PUSH2 0x3F9F JUMPI PUSH2 0x3F94 PUSH0 DUP3 PUSH2 0x3F69 JUMP JUMPDEST PUSH1 0x1 DUP2 ADD SWAP1 POP PUSH2 0x3F82 JUMP JUMPDEST POP POP JUMP JUMPDEST PUSH1 0x1F DUP3 GT ISZERO PUSH2 0x3FE4 JUMPI PUSH2 0x3FB5 DUP2 PUSH2 0x3E98 JUMP JUMPDEST PUSH2 0x3FBE DUP5 PUSH2 0x3EAA JUMP JUMPDEST DUP2 ADD PUSH1 0x20 DUP6 LT ISZERO PUSH2 0x3FCD JUMPI DUP2 SWAP1 POP JUMPDEST PUSH2 0x3FE1 PUSH2 0x3FD9 DUP6 PUSH2 0x3EAA JUMP JUMPDEST DUP4 ADD DUP3 PUSH2 0x3F81 JUMP JUMPDEST POP POP JUMPDEST POP POP POP JUMP JUMPDEST PUSH0 DUP3 DUP3 SHR SWAP1 POP SWAP3 SWAP2 POP POP JUMP JUMPDEST PUSH0 PUSH2 0x4004 PUSH0 NOT DUP5 PUSH1 0x8 MUL PUSH2 0x3FE9 JUMP JUMPDEST NOT DUP1 DUP4 AND SWAP2 POP POP SWAP3 SWAP2 POP POP JUMP JUMPDEST PUSH0 PUSH2 0x401C DUP4 DUP4 PUSH2 0x3FF5 JUMP JUMPDEST SWAP2 POP DUP3 PUSH1 0x2 MUL DUP3 OR SWAP1 POP SWAP3 SWAP2 POP POP JUMP JUMPDEST PUSH2 0x4035 DUP3 PUSH2 0x2EA8 JUMP JUMPDEST PUSH8 0xFFFFFFFFFFFFFFFF DUP2 GT ISZERO PUSH2 0x404E JUMPI PUSH2 0x404D PUSH2 0x357E JUMP JUMPDEST JUMPDEST PUSH2 0x4058 DUP3 SLOAD PUSH2 0x384C JUMP JUMPDEST PUSH2 0x4063 DUP3 DUP3 DUP6 PUSH2 0x3FA3 JUMP JUMPDEST PUSH0 PUSH1 0x20 SWAP1 POP PUSH1 0x1F DUP4 GT PUSH1 0x1 DUP2 EQ PUSH2 0x4094 JUMPI PUSH0 DUP5 ISZERO PUSH2 0x4082 JUMPI DUP3 DUP8 ADD MLOAD SWAP1 POP JUMPDEST PUSH2 0x408C DUP6 DUP3 PUSH2 0x4011 JUMP JUMPDEST DUP7 SSTORE POP PUSH2 0x40F3 JUMP JUMPDEST PUSH1 0x1F NOT DUP5 AND PUSH2 0x40A2 DUP7 PUSH2 0x3E98 JUMP JUMPDEST PUSH0 JUMPDEST DUP3 DUP2 LT ISZERO PUSH2 0x40C9 JUMPI DUP5 DUP10 ADD MLOAD DUP3 SSTORE PUSH1 0x1 DUP3 ADD SWAP2 POP PUSH1 0x20 DUP6 ADD SWAP5 POP PUSH1 0x20 DUP2 ADD SWAP1 POP PUSH2 0x40A4 JUMP JUMPDEST DUP7 DUP4 LT ISZERO PUSH2 0x40E6 JUMPI DUP5 DUP10 ADD MLOAD PUSH2 0x40E2 PUSH1 0x1F DUP10 AND DUP3 PUSH2 0x3FF5 JUMP JUMPDEST DUP4 SSTORE POP JUMPDEST PUSH1 0x1 PUSH1 0x2 DUP9 MUL ADD DUP9 SSTORE POP POP POP JUMPDEST POP POP POP POP POP POP JUMP JUMPDEST PUSH32 0x4E487B7100000000000000000000000000000000000000000000000000000000 PUSH0 MSTORE PUSH1 0x12 PUSH1 0x4 MSTORE PUSH1 0x24 PUSH0 REVERT JUMPDEST PUSH0 PUSH2 0x4132 DUP3 PUSH2 0x2FA3 JUMP JUMPDEST SWAP2 POP PUSH2 0x413D DUP4 PUSH2 0x2FA3 JUMP JUMPDEST SWAP3 POP DUP3 DUP3 MUL PUSH2 0x414B DUP2 PUSH2 0x2FA3 JUMP JUMPDEST SWAP2 POP DUP3 DUP3 DIV DUP5 EQ DUP4 ISZERO OR PUSH2 0x4162 JUMPI PUSH2 0x4161 PUSH2 0x39BA JUMP JUMPDEST JUMPDEST POP SWAP3 SWAP2 POP POP JUMP JUMPDEST PUSH0 PUSH2 0x4173 DUP3 PUSH2 0x2FA3 JUMP JUMPDEST SWAP2 POP PUSH2 0x417E DUP4 PUSH2 0x2FA3 JUMP JUMPDEST SWAP3 POP DUP3 PUSH2 0x418E JUMPI PUSH2 0x418D PUSH2 0x40FB JUMP JUMPDEST JUMPDEST DUP3 DUP3 DIV SWAP1 POP SWAP3 SWAP2 POP POP JUMP INVALID LOG2 PUSH5 0x6970667358 0x22 SLT KECCAK256 POP BYTE 0xAB PUSH4 0x92D6E9F2 XOR 0xD7 SSTORE CODESIZE PUSH7 0xCDC1FF9171E9AB COINBASE 0xEF DUP9 0xC6 0xB1 LOG0 MULMOD NUMBER JUMPDEST PUSH20 0x20DA64736F6C634300081A003300000000000000 "
		},
		"gasEstimates": {
			"creation": {
				"codeDepositCost": "3369400",
				"executionCost": "infinite",
				"totalCost": "infinite"
			},
			"external": {
				"DEBT_TOKEN_REVISION()": "436",
				"DELEGATION_WITH_SIG_TYPEHASH()": "435",
				"DOMAIN_SEPARATOR()": "infinite",
				"EIP712_REVISION()": "infinite",
				"POOL()": "infinite",
				"UNDERLYING_ASSET_ADDRESS()": "2582",
				"allowance(address,address)": "infinite",
				"approve(address,uint256)": "infinite",
				"approveDelegation(address,uint256)": "infinite",
				"balanceOf(address)": "infinite",
				"borrowAllowance(address,address)": "infinite",
				"burn(address,uint256)": "infinite",
				"decimals()": "2541",
				"decreaseAllowance(address,uint256)": "infinite",
				"delegationWithSig(address,address,uint256,uint256,uint8,bytes32,bytes32)": "infinite",
				"getAverageStableRate()": "2519",
				"getIncentivesController()": "infinite",
				"getSupplyData()": "infinite",
				"getTotalSupplyAndAvgRate()": "infinite",
				"getTotalSupplyLastUpdated()": "2590",
				"getUserLastUpdated(address)": "2959",
				"getUserStableRate(address)": "3014",
				"increaseAllowance(address,uint256)": "infinite",
				"initialize(address,address,address,uint8,string,string,bytes)": "infinite",
				"mint(address,address,uint256,uint256)": "infinite",
				"name()": "infinite",
				"nonces(address)": "2940",
				"principalBalanceOf(address)": "3006",
				"setIncentivesController(address)": "infinite",
				"symbol()": "infinite",
				"totalSupply()": "infinite",
				"transfer(address,uint256)": "infinite",
				"transferFrom(address,address,uint256)": "infinite"
			},
			"internal": {
				"_EIP712BaseId()": "infinite",
				"_burn(address,uint256,uint256)": "infinite",
				"_calcTotalSupply(uint256)": "infinite",
				"_calculateBalanceIncrease(address)": "infinite",
				"_mint(address,uint256,uint256)": "infinite",
				"getRevision()": "22"
			}
		},
		"methodIdentifiers": {
			"DEBT_TOKEN_REVISION()": "b9a7b622",
			"DELEGATION_WITH_SIG_TYPEHASH()": "f3bfc738",
			"DOMAIN_SEPARATOR()": "3644e515",
			"EIP712_REVISION()": "78160376",
			"POOL()": "7535d246",
			"UNDERLYING_ASSET_ADDRESS()": "b16a19de",
			"allowance(address,address)": "dd62ed3e",
			"approve(address,uint256)": "095ea7b3",
			"approveDelegation(address,uint256)": "c04a8a10",
			"balanceOf(address)": "70a08231",
			"borrowAllowance(address,address)": "6bd76d24",
			"burn(address,uint256)": "9dc29fac",
			"decimals()": "313ce567",
			"decreaseAllowance(address,uint256)": "a457c2d7",
			"delegationWithSig(address,address,uint256,uint256,uint8,bytes32,bytes32)": "0b52d558",
			"getAverageStableRate()": "90f6fcf2",
			"getIncentivesController()": "75d26413",
			"getSupplyData()": "79774338",
			"getTotalSupplyAndAvgRate()": "f731e9be",
			"getTotalSupplyLastUpdated()": "e7484890",
			"getUserLastUpdated(address)": "79ce6b8c",
			"getUserStableRate(address)": "e78c9b3b",
			"increaseAllowance(address,uint256)": "39509351",
			"initialize(address,address,address,uint8,string,string,bytes)": "c222ec8a",
			"mint(address,address,uint256,uint256)": "b3f1c93d",
			"name()": "06fdde03",
			"nonces(address)": "7ecebe00",
			"principalBalanceOf(address)": "c634dfaa",
			"setIncentivesController(address)": "e655dbd8",
			"symbol()": "95d89b41",
			"totalSupply()": "18160ddd",
			"transfer(address,uint256)": "a9059cbb",
			"transferFrom(address,address,uint256)": "23b872dd"
		}
	},
	"abi": [
		{
			"inputs": [
				{
					"internalType": "contract IPool",
					"name": "pool",
					"type": "address"
				}
			],
			"stateMutability": "nonpayable",
			"type": "constructor"
		},
		{
			"anonymous": false,
			"inputs": [
				{
					"indexed": true,
					"internalType": "address",
					"name": "owner",
					"type": "address"
				},
				{
					"indexed": true,
					"internalType": "address",
					"name": "spender",
					"type": "address"
				},
				{
					"indexed": false,
					"internalType": "uint256",
					"name": "value",
					"type": "uint256"
				}
			],
			"name": "Approval",
			"type": "event"
		},
		{
			"anonymous": false,
			"inputs": [
				{
					"indexed": true,
					"internalType": "address",
					"name": "fromUser",
					"type": "address"
				},
				{
					"indexed": true,
					"internalType": "address",
					"name": "toUser",
					"type": "address"
				},
				{
					"indexed": true,
					"internalType": "address",
					"name": "asset",
					"type": "address"
				},
				{
					"indexed": false,
					"internalType": "uint256",
					"name": "amount",
					"type": "uint256"
				}
			],
			"name": "BorrowAllowanceDelegated",
			"type": "event"
		},
		{
			"anonymous": false,
			"inputs": [
				{
					"indexed": true,
					"internalType": "address",
					"name": "from",
					"type": "address"
				},
				{
					"indexed": false,
					"internalType": "uint256",
					"name": "amount",
					"type": "uint256"
				},
				{
					"indexed": false,
					"internalType": "uint256",
					"name": "currentBalance",
					"type": "uint256"
				},
				{
					"indexed": false,
					"internalType": "uint256",
					"name": "balanceIncrease",
					"type": "uint256"
				},
				{
					"indexed": false,
					"internalType": "uint256",
					"name": "avgStableRate",
					"type": "uint256"
				},
				{
					"indexed": false,
					"internalType": "uint256",
					"name": "newTotalSupply",
					"type": "uint256"
				}
			],
			"name": "Burn",
			"type": "event"
		},
		{
			"anonymous": false,
			"inputs": [
				{
					"indexed": true,
					"internalType": "address",
					"name": "underlyingAsset",
					"type": "address"
				},
				{
					"indexed": true,
					"internalType": "address",
					"name": "pool",
					"type": "address"
				},
				{
					"indexed": false,
					"internalType": "address",
					"name": "incentivesController",
					"type": "address"
				},
				{
					"indexed": false,
					"internalType": "uint8",
					"name": "debtTokenDecimals",
					"type": "uint8"
				},
				{
					"indexed": false,
					"internalType": "string",
					"name": "debtTokenName",
					"type": "string"
				},
				{
					"indexed": false,
					"internalType": "string",
					"name": "debtTokenSymbol",
					"type": "string"
				},
				{
					"indexed": false,
					"internalType": "bytes",
					"name": "params",
					"type": "bytes"
				}
			],
			"name": "Initialized",
			"type": "event"
		},
		{
			"anonymous": false,
			"inputs": [
				{
					"indexed": true,
					"internalType": "address",
					"name": "user",
					"type": "address"
				},
				{
					"indexed": true,
					"internalType": "address",
					"name": "onBehalfOf",
					"type": "address"
				},
				{
					"indexed": false,
					"internalType": "uint256",
					"name": "amount",
					"type": "uint256"
				},
				{
					"indexed": false,
					"internalType": "uint256",
					"name": "currentBalance",
					"type": "uint256"
				},
				{
					"indexed": false,
					"internalType": "uint256",
					"name": "balanceIncrease",
					"type": "uint256"
				},
				{
					"indexed": false,
					"internalType": "uint256",
					"name": "newRate",
					"type": "uint256"
				},
				{
					"indexed": false,
					"internalType": "uint256",
					"name": "avgStableRate",
					"type": "uint256"
				},
				{
					"indexed": false,
					"internalType": "uint256",
					"name": "newTotalSupply",
					"type": "uint256"
				}
			],
			"name": "Mint",
			"type": "event"
		},
		{
			"anonymous": false,
			"inputs": [
				{
					"indexed": true,
					"internalType": "address",
					"name": "from",
					"type": "address"
				},
				{
					"indexed": true,
					"internalType": "address",
					"name": "to",
					"type": "address"
				},
				{
					"indexed": false,
					"internalType": "uint256",
					"name": "value",
					"type": "uint256"
				}
			],
			"name": "Transfer",
			"type": "event"
		},
		{
			"inputs": [],
			"name": "DEBT_TOKEN_REVISION",
			"outputs": [
				{
					"internalType": "uint256",
					"name": "",
					"type": "uint256"
				}
			],
			"stateMutability": "view",
			"type": "function"
		},
		{
			"inputs": [],
			"name": "DELEGATION_WITH_SIG_TYPEHASH",
			"outputs": [
				{
					"internalType": "bytes32",
					"name": "",
					"type": "bytes32"
				}
			],
			"stateMutability": "view",
			"type": "function"
		},
		{
			"inputs": [],
			"name": "DOMAIN_SEPARATOR",
			"outputs": [
				{
					"internalType": "bytes32",
					"name": "",
					"type": "bytes32"
				}
			],
			"stateMutability": "view",
			"type": "function"
		},
		{
			"inputs": [],
			"name": "EIP712_REVISION",
			"outputs": [
				{
					"internalType": "bytes",
					"name": "",
					"type": "bytes"
				}
			],
			"stateMutability": "view",
			"type": "function"
		},
		{
			"inputs": [],
			"name": "POOL",
			"outputs": [
				{
					"internalType": "contract IPool",
					"name": "",
					"type": "address"
				}
			],
			"stateMutability": "view",
			"type": "function"
		},
		{
			"inputs": [],
			"name": "UNDERLYING_ASSET_ADDRESS",
			"outputs": [
				{
					"internalType": "address",
					"name": "",
					"type": "address"
				}
			],
			"stateMutability": "view",
			"type": "function"
		},
		{
			"inputs": [
				{
					"internalType": "address",
					"name": "",
					"type": "address"
				},
				{
					"internalType": "address",
					"name": "",
					"type": "address"
				}
			],
			"name": "allowance",
			"outputs": [
				{
					"internalType": "uint256",
					"name": "",
					"type": "uint256"
				}
			],
			"stateMutability": "view",
			"type": "function"
		},
		{
			"inputs": [
				{
					"internalType": "address",
					"name": "",
					"type": "address"
				},
				{
					"internalType": "uint256",
					"name": "",
					"type": "uint256"
				}
			],
			"name": "approve",
			"outputs": [
				{
					"internalType": "bool",
					"name": "",
					"type": "bool"
				}
			],
			"stateMutability": "nonpayable",
			"type": "function"
		},
		{
			"inputs": [
				{
					"internalType": "address",
					"name": "delegatee",
					"type": "address"
				},
				{
					"internalType": "uint256",
					"name": "amount",
					"type": "uint256"
				}
			],
			"name": "approveDelegation",
			"outputs": [],
			"stateMutability": "nonpayable",
			"type": "function"
		},
		{
			"inputs": [
				{
					"internalType": "address",
					"name": "account",
					"type": "address"
				}
			],
			"name": "balanceOf",
			"outputs": [
				{
					"internalType": "uint256",
					"name": "",
					"type": "uint256"
				}
			],
			"stateMutability": "view",
			"type": "function"
		},
		{
			"inputs": [
				{
					"internalType": "address",
					"name": "fromUser",
					"type": "address"
				},
				{
					"internalType": "address",
					"name": "toUser",
					"type": "address"
				}
			],
			"name": "borrowAllowance",
			"outputs": [
				{
					"internalType": "uint256",
					"name": "",
					"type": "uint256"
				}
			],
			"stateMutability": "view",
			"type": "function"
		},
		{
			"inputs": [
				{
					"internalType": "address",
					"name": "from",
					"type": "address"
				},
				{
					"internalType": "uint256",
					"name": "amount",
					"type": "uint256"
				}
			],
			"name": "burn",
			"outputs": [
				{
					"internalType": "uint256",
					"name": "",
					"type": "uint256"
				},
				{
					"internalType": "uint256",
					"name": "",
					"type": "uint256"
				}
			],
			"stateMutability": "nonpayable",
			"type": "function"
		},
		{
			"inputs": [],
			"name": "decimals",
			"outputs": [
				{
					"internalType": "uint8",
					"name": "",
					"type": "uint8"
				}
			],
			"stateMutability": "view",
			"type": "function"
		},
		{
			"inputs": [
				{
					"internalType": "address",
					"name": "",
					"type": "address"
				},
				{
					"internalType": "uint256",
					"name": "",
					"type": "uint256"
				}
			],
			"name": "decreaseAllowance",
			"outputs": [
				{
					"internalType": "bool",
					"name": "",
					"type": "bool"
				}
			],
			"stateMutability": "nonpayable",
			"type": "function"
		},
		{
			"inputs": [
				{
					"internalType": "address",
					"name": "delegator",
					"type": "address"
				},
				{
					"internalType": "address",
					"name": "delegatee",
					"type": "address"
				},
				{
					"internalType": "uint256",
					"name": "value",
					"type": "uint256"
				},
				{
					"internalType": "uint256",
					"name": "deadline",
					"type": "uint256"
				},
				{
					"internalType": "uint8",
					"name": "v",
					"type": "uint8"
				},
				{
					"internalType": "bytes32",
					"name": "r",
					"type": "bytes32"
				},
				{
					"internalType": "bytes32",
					"name": "s",
					"type": "bytes32"
				}
			],
			"name": "delegationWithSig",
			"outputs": [],
			"stateMutability": "nonpayable",
			"type": "function"
		},
		{
			"inputs": [],
			"name": "getAverageStableRate",
			"outputs": [
				{
					"internalType": "uint256",
					"name": "",
					"type": "uint256"
				}
			],
			"stateMutability": "view",
			"type": "function"
		},
		{
			"inputs": [],
			"name": "getIncentivesController",
			"outputs": [
				{
					"internalType": "contract IAaveIncentivesController",
					"name": "",
					"type": "address"
				}
			],
			"stateMutability": "view",
			"type": "function"
		},
		{
			"inputs": [],
			"name": "getSupplyData",
			"outputs": [
				{
					"internalType": "uint256",
					"name": "",
					"type": "uint256"
				},
				{
					"internalType": "uint256",
					"name": "",
					"type": "uint256"
				},
				{
					"internalType": "uint256",
					"name": "",
					"type": "uint256"
				},
				{
					"internalType": "uint40",
					"name": "",
					"type": "uint40"
				}
			],
			"stateMutability": "view",
			"type": "function"
		},
		{
			"inputs": [],
			"name": "getTotalSupplyAndAvgRate",
			"outputs": [
				{
					"internalType": "uint256",
					"name": "",
					"type": "uint256"
				},
				{
					"internalType": "uint256",
					"name": "",
					"type": "uint256"
				}
			],
			"stateMutability": "view",
			"type": "function"
		},
		{
			"inputs": [],
			"name": "getTotalSupplyLastUpdated",
			"outputs": [
				{
					"internalType": "uint40",
					"name": "",
					"type": "uint40"
				}
			],
			"stateMutability": "view",
			"type": "function"
		},
		{
			"inputs": [
				{
					"internalType": "address",
					"name": "user",
					"type": "address"
				}
			],
			"name": "getUserLastUpdated",
			"outputs": [
				{
					"internalType": "uint40",
					"name": "",
					"type": "uint40"
				}
			],
			"stateMutability": "view",
			"type": "function"
		},
		{
			"inputs": [
				{
					"internalType": "address",
					"name": "user",
					"type": "address"
				}
			],
			"name": "getUserStableRate",
			"outputs": [
				{
					"internalType": "uint256",
					"name": "",
					"type": "uint256"
				}
			],
			"stateMutability": "view",
			"type": "function"
		},
		{
			"inputs": [
				{
					"internalType": "address",
					"name": "",
					"type": "address"
				},
				{
					"internalType": "uint256",
					"name": "",
					"type": "uint256"
				}
			],
			"name": "increaseAllowance",
			"outputs": [
				{
					"internalType": "bool",
					"name": "",
					"type": "bool"
				}
			],
			"stateMutability": "nonpayable",
			"type": "function"
		},
		{
			"inputs": [
				{
					"internalType": "contract IPool",
					"name": "initializingPool",
					"type": "address"
				},
				{
					"internalType": "address",
					"name": "underlyingAsset",
					"type": "address"
				},
				{
					"internalType": "contract IAaveIncentivesController",
					"name": "incentivesController",
					"type": "address"
				},
				{
					"internalType": "uint8",
					"name": "debtTokenDecimals",
					"type": "uint8"
				},
				{
					"internalType": "string",
					"name": "debtTokenName",
					"type": "string"
				},
				{
					"internalType": "string",
					"name": "debtTokenSymbol",
					"type": "string"
				},
				{
					"internalType": "bytes",
					"name": "params",
					"type": "bytes"
				}
			],
			"name": "initialize",
			"outputs": [],
			"stateMutability": "nonpayable",
			"type": "function"
		},
		{
			"inputs": [
				{
					"internalType": "address",
					"name": "user",
					"type": "address"
				},
				{
					"internalType": "address",
					"name": "onBehalfOf",
					"type": "address"
				},
				{
					"internalType": "uint256",
					"name": "amount",
					"type": "uint256"
				},
				{
					"internalType": "uint256",
					"name": "rate",
					"type": "uint256"
				}
			],
			"name": "mint",
			"outputs": [
				{
					"internalType": "bool",
					"name": "",
					"type": "bool"
				},
				{
					"internalType": "uint256",
					"name": "",
					"type": "uint256"
				},
				{
					"internalType": "uint256",
					"name": "",
					"type": "uint256"
				}
			],
			"stateMutability": "nonpayable",
			"type": "function"
		},
		{
			"inputs": [],
			"name": "name",
			"outputs": [
				{
					"internalType": "string",
					"name": "",
					"type": "string"
				}
			],
			"stateMutability": "view",
			"type": "function"
		},
		{
			"inputs": [
				{
					"internalType": "address",
					"name": "owner",
					"type": "address"
				}
			],
			"name": "nonces",
			"outputs": [
				{
					"internalType": "uint256",
					"name": "",
					"type": "uint256"
				}
			],
			"stateMutability": "view",
			"type": "function"
		},
		{
			"inputs": [
				{
					"internalType": "address",
					"name": "user",
					"type": "address"
				}
			],
			"name": "principalBalanceOf",
			"outputs": [
				{
					"internalType": "uint256",
					"name": "",
					"type": "uint256"
				}
			],
			"stateMutability": "view",
			"type": "function"
		},
		{
			"inputs": [
				{
					"internalType": "contract IAaveIncentivesController",
					"name": "controller",
					"type": "address"
				}
			],
			"name": "setIncentivesController",
			"outputs": [],
			"stateMutability": "nonpayable",
			"type": "function"
		},
		{
			"inputs": [],
			"name": "symbol",
			"outputs": [
				{
					"internalType": "string",
					"name": "",
					"type": "string"
				}
			],
			"stateMutability": "view",
			"type": "function"
		},
		{
			"inputs": [],
			"name": "totalSupply",
			"outputs": [
				{
					"internalType": "uint256",
					"name": "",
					"type": "uint256"
				}
			],
			"stateMutability": "view",
			"type": "function"
		},
		{
			"inputs": [
				{
					"internalType": "address",
					"name": "",
					"type": "address"
				},
				{
					"internalType": "uint256",
					"name": "",
					"type": "uint256"
				}
			],
			"name": "transfer",
			"outputs": [
				{
					"internalType": "bool",
					"name": "",
					"type": "bool"
				}
			],
			"stateMutability": "nonpayable",
			"type": "function"
		},
		{
			"inputs": [
				{
					"internalType": "address",
					"name": "",
					"type": "address"
				},
				{
					"internalType": "address",
					"name": "",
					"type": "address"
				},
				{
					"internalType": "uint256",
					"name": "",
					"type": "uint256"
				}
			],
			"name": "transferFrom",
			"outputs": [
				{
					"internalType": "bool",
					"name": "",
					"type": "bool"
				}
			],
			"stateMutability": "nonpayable",
			"type": "function"
		}
	]
}