{
	"data": {
		"bytecode": {
			"linkReferences": {},
			"object": "60e06040525f8055348015610012575f80fd5b5060405161402538038061402583398181016040528101906100349190610241565b806040518060400160405280601881526020017f5641524941424c455f444542545f544f4b454e5f494d504c00000000000000008152506040518060400160405280601881526020017f5641524941424c455f444542545f544f4b454e5f494d504c00000000000000008152505f838383838383838346608081815250508373ffffffffffffffffffffffffffffffffffffffff16630542975c6040518163ffffffff1660e01b8152600401602060405180830381865afa1580156100fb573d5f803e3d5ffd5b505050506040513d601f19601f8201168201806040525081019061011f91906102a7565b73ffffffffffffffffffffffffffffffffffffffff1660a08173ffffffffffffffffffffffffffffffffffffffff168152505082603b9081610161919061050c565b5081603c9081610171919061050c565b5080603d5f6101000a81548160ff021916908360ff1602179055508373ffffffffffffffffffffffffffffffffffffffff1660c08173ffffffffffffffffffffffffffffffffffffffff1681525050505050505050505050505050506105db565b5f80fd5b5f73ffffffffffffffffffffffffffffffffffffffff82169050919050565b5f6101ff826101d6565b9050919050565b5f610210826101f5565b9050919050565b61022081610206565b811461022a575f80fd5b50565b5f8151905061023b81610217565b92915050565b5f60208284031215610256576102556101d2565b5b5f6102638482850161022d565b91505092915050565b5f610276826101f5565b9050919050565b6102868161026c565b8114610290575f80fd5b50565b5f815190506102a18161027d565b92915050565b5f602082840312156102bc576102bb6101d2565b5b5f6102c984828501610293565b91505092915050565b5f81519050919050565b7f4e487b71000000000000000000000000000000000000000000000000000000005f52604160045260245ffd5b7f4e487b71000000000000000000000000000000000000000000000000000000005f52602260045260245ffd5b5f600282049050600182168061034d57607f821691505b6020821081036103605761035f610309565b5b50919050565b5f819050815f5260205f209050919050565b5f6020601f8301049050919050565b5f82821b905092915050565b5f600883026103c27fffffffffffffffffffffffffffffffffffffffffffffffffffffffffffffffff82610387565b6103cc8683610387565b95508019841693508086168417925050509392505050565b5f819050919050565b5f819050919050565b5f61041061040b610406846103e4565b6103ed565b6103e4565b9050919050565b5f819050919050565b610429836103f6565b61043d61043582610417565b848454610393565b825550505050565b5f90565b610451610445565b61045c818484610420565b505050565b5b8181101561047f576104745f82610449565b600181019050610462565b5050565b601f8211156104c45761049581610366565b61049e84610378565b810160208510156104ad578190505b6104c16104b985610378565b830182610461565b50505b505050565b5f82821c905092915050565b5f6104e45f19846008026104c9565b1980831691505092915050565b5f6104fc83836104d5565b9150826002028217905092915050565b610515826102d2565b67ffffffffffffffff81111561052e5761052d6102dc565b5b6105388254610336565b610543828285610483565b5f60209050601f831160018114610574575f8415610562578287015190505b61056c85826104f1565b8655506105d3565b601f19841661058286610366565b5f5b828110156105a957848901518255600182019150602085019450602081019050610584565b868310156105c657848901516105c2601f8916826104d5565b8355505b6001600288020188555050505b505050505050565b60805160a05160c0516139f661062f5f395f8181610ab701528181610d7901528181610e4a015281816110c4015281816112b90152818161142a01526117b801525f6115cf01525f610c2501526139f65ff3fe608060405234801561000f575f80fd5b50600436106101d8575f3560e01c80637ecebe0011610102578063b9a7b622116100a0578063e07539861161006f578063e0753986146105bc578063e655dbd8146105ec578063f3bfc73814610608578063f5298aca14610626576101d8565b8063b9a7b62214610536578063c04a8a1014610554578063c222ec8a14610570578063dd62ed3e1461058c576101d8565b8063a9059cbb116100dc578063a9059cbb14610499578063b16a19de146104c9578063b1bf962d146104e7578063b3f1c93d14610505576101d8565b80637ecebe001461041b57806395d89b411461044b578063a457c2d714610469576101d8565b8063313ce5671161017a57806370a082311161014957806370a08231146103915780637535d246146103c157806375d26413146103df57806378160376146103fd576101d8565b8063313ce567146102f55780633644e5151461031357806339509351146103315780636bd76d2414610361576101d8565b80630b52d558116101b65780630b52d5581461025b57806318160ddd146102775780631da24f3e1461029557806323b872dd146102c5576101d8565b806306fdde03146101dc578063095ea7b3146101fa5780630afbcdc91461022a575b5f80fd5b6101e4610656565b6040516101f19190612852565b60405180910390f35b610214600480360381019061020f9190612910565b6106e6565b6040516102219190612968565b60405180910390f35b610244600480360381019061023f9190612981565b610759565b6040516102529291906129bb565b60405180910390f35b61027560048036038101906102709190612a4b565b610775565b005b61027f610ab1565b60405161028c9190612ae8565b60405180910390f35b6102af60048036038101906102aa9190612981565b610b89565b6040516102bc9190612ae8565b60405180910390f35b6102df60048036038101906102da9190612b01565b610b9a565b6040516102ec9190612968565b60405180910390f35b6102fd610c0d565b60405161030a9190612b60565b60405180910390f35b61031b610c22565b6040516103289190612b88565b60405180910390f35b61034b60048036038101906103469190612910565b610c62565b6040516103589190612968565b60405180910390f35b61037b60048036038101906103769190612ba1565b610cd5565b6040516103889190612ae8565b60405180910390f35b6103ab60048036038101906103a69190612981565b610d57565b6040516103b89190612ae8565b60405180910390f35b6103c9610e48565b6040516103d69190612c3a565b60405180910390f35b6103e7610e6c565b6040516103f49190612c73565b60405180910390f35b610405610e95565b6040516104129190612cde565b60405180910390f35b61043560048036038101906104309190612981565b610ece565b6040516104429190612ae8565b60405180910390f35b610453610f14565b6040516104609190612852565b60405180910390f35b610483600480360381019061047e9190612910565b610fa4565b6040516104909190612968565b60405180910390f35b6104b360048036038101906104ae9190612910565b611017565b6040516104c09190612968565b60405180910390f35b6104d161108a565b6040516104de9190612d0d565b60405180910390f35b6104ef6110b2565b6040516104fc9190612ae8565b60405180910390f35b61051f600480360381019061051a9190612d26565b6110c0565b60405161052d929190612d8a565b60405180910390f35b61053e6111f0565b60405161054b9190612ae8565b60405180910390f35b61056e60048036038101906105699190612910565b6111f5565b005b61058a60048036038101906105859190612fb0565b61120b565b005b6105a660048036038101906105a19190612ba1565b6114e3565b6040516105b39190612ae8565b60405180910390f35b6105d660048036038101906105d19190612981565b611556565b6040516105e39190612ae8565b60405180910390f35b610606600480360381019061060191906130a5565b6115cc565b005b610610611791565b60405161061d9190612b88565b60405180910390f35b610640600480360381019061063b91906130d0565b6117b5565b60405161064d9190612ae8565b60405180910390f35b6060603b80546106659061314d565b80601f01602080910402602001604051908101604052809291908181526020018280546106919061314d565b80156106dc5780601f106106b3576101008083540402835291602001916106dc565b820191905f5260205f20905b8154815290600101906020018083116106bf57829003601f168201915b5050505050905090565b5f6040518060400160405280600281526020017f38300000000000000000000000000000000000000000000000000000000000008152506040517f08c379a00000000000000000000000000000000000000000000000000000000081526004016107509190612852565b60405180910390fd5b5f80610764836118a1565b61076c611916565b91509150915091565b5f73ffffffffffffffffffffffffffffffffffffffff168773ffffffffffffffffffffffffffffffffffffffff1614156040518060400160405280600281526020017f37370000000000000000000000000000000000000000000000000000000000008152509061081c576040517f08c379a00000000000000000000000000000000000000000000000000000000081526004016108139190612852565b60405180910390fd5b50834211156040518060400160405280600281526020017f373800000000000000000000000000000000000000000000000000000000000081525090610898576040517f08c379a000000000000000000000000000000000000000000000000000000000815260040161088f9190612852565b60405180910390fd5b505f60345f8973ffffffffffffffffffffffffffffffffffffffff1673ffffffffffffffffffffffffffffffffffffffff1681526020019081526020015f205490505f6108e3610c22565b7f323db0410fecc107e39e2af5908671f4c8d106123b35a51501bb805c5fa36aa08989858a60405160200161091c95949392919061317d565b60405160208183030381529060405280519060200120604051602001610943929190613242565b6040516020818303038152906040528051906020012090506001818686866040515f815260200160405260405161097d9493929190613278565b6020604051602081039080840390855afa15801561099d573d5f803e3d5ffd5b5050506020604051035173ffffffffffffffffffffffffffffffffffffffff168973ffffffffffffffffffffffffffffffffffffffff16146040518060400160405280600281526020017f373900000000000000000000000000000000000000000000000000000000000081525090610a4c576040517f08c379a0000000000000000000000000000000000000000000000000000000008152600401610a439190612852565b60405180910390fd5b50600182610a5a91906132e8565b60345f8b73ffffffffffffffffffffffffffffffffffffffff1673ffffffffffffffffffffffffffffffffffffffff1681526020019081526020015f2081905550610aa689898961191f565b505050505050505050565b5f610b847f000000000000000000000000000000000000000000000000000000000000000073ffffffffffffffffffffffffffffffffffffffff1663386497fd60375f9054906101000a900473ffffffffffffffffffffffffffffffffffffffff166040518263ffffffff1660e01b8152600401610b2f9190612d0d565b602060405180830381865afa158015610b4a573d5f803e3d5ffd5b505050506040513d601f19601f82011682018060405250810190610b6e919061332f565b610b76611916565b611a3e90919063ffffffff16565b905090565b5f610b93826118a1565b9050919050565b5f6040518060400160405280600281526020017f38300000000000000000000000000000000000000000000000000000000000008152506040517f08c379a0000000000000000000000000000000000000000000000000000000008152600401610c049190612852565b60405180910390fd5b5f603d5f9054906101000a900460ff16905090565b5f7f00000000000000000000000000000000000000000000000000000000000000004603610c54576035549050610c5f565b610c5c611a86565b90505b90565b5f6040518060400160405280600281526020017f38300000000000000000000000000000000000000000000000000000000000008152506040517f08c379a0000000000000000000000000000000000000000000000000000000008152600401610ccc9190612852565b60405180910390fd5b5f60365f8473ffffffffffffffffffffffffffffffffffffffff1673ffffffffffffffffffffffffffffffffffffffff1681526020019081526020015f205f8373ffffffffffffffffffffffffffffffffffffffff1673ffffffffffffffffffffffffffffffffffffffff1681526020019081526020015f2054905092915050565b5f80610d62836118a1565b90505f8103610d74575f915050610e43565b610e3f7f000000000000000000000000000000000000000000000000000000000000000073ffffffffffffffffffffffffffffffffffffffff1663386497fd60375f9054906101000a900473ffffffffffffffffffffffffffffffffffffffff166040518263ffffffff1660e01b8152600401610df19190612d0d565b602060405180830381865afa158015610e0c573d5f803e3d5ffd5b505050506040513d601f19601f82011682018060405250810190610e30919061332f565b82611a3e90919063ffffffff16565b9150505b919050565b7f000000000000000000000000000000000000000000000000000000000000000081565b5f603d60019054906101000a900473ffffffffffffffffffffffffffffffffffffffff16905090565b6040518060400160405280600181526020017f310000000000000000000000000000000000000000000000000000000000000081525081565b5f60345f8373ffffffffffffffffffffffffffffffffffffffff1673ffffffffffffffffffffffffffffffffffffffff1681526020019081526020015f20549050919050565b6060603c8054610f239061314d565b80601f0160208091040260200160405190810160405280929190818152602001828054610f4f9061314d565b8015610f9a5780601f10610f7157610100808354040283529160200191610f9a565b820191905f5260205f20905b815481529060010190602001808311610f7d57829003601f168201915b5050505050905090565b5f6040518060400160405280600281526020017f38300000000000000000000000000000000000000000000000000000000000008152506040517f08c379a000000000000000000000000000000000000000000000000000000000815260040161100e9190612852565b60405180910390fd5b5f6040518060400160405280600281526020017f38300000000000000000000000000000000000000000000000000000000000008152506040517f08c379a00000000000000000000000000000000000000000000000000000000081526004016110819190612852565b60405180910390fd5b5f60375f9054906101000a900473ffffffffffffffffffffffffffffffffffffffff16905090565b5f6110bb611916565b905090565b5f807f000000000000000000000000000000000000000000000000000000000000000073ffffffffffffffffffffffffffffffffffffffff16611101611b25565b73ffffffffffffffffffffffffffffffffffffffff16146040518060400160405280600281526020017f32330000000000000000000000000000000000000000000000000000000000008152509061118f576040517f08c379a00000000000000000000000000000000000000000000000000000000081526004016111869190612852565b60405180910390fd5b508473ffffffffffffffffffffffffffffffffffffffff168673ffffffffffffffffffffffffffffffffffffffff16146111cf576111ce858786611b2c565b5b6111db86868686611cd3565b6111e36110b2565b9150915094509492505050565b600181565b611207611200611b25565b838361191f565b5050565b5f611214611f90565b905060015f9054906101000a900460ff16806112345750611233611f98565b5b8061123f57505f5481115b61127e576040517f08c379a0000000000000000000000000000000000000000000000000000000008152600401611275906133ca565b60405180910390fd5b5f60015f9054906101000a900460ff1615905080156112b7576001805f6101000a81548160ff021916908315150217905550815f819055505b7f000000000000000000000000000000000000000000000000000000000000000073ffffffffffffffffffffffffffffffffffffffff168a73ffffffffffffffffffffffffffffffffffffffff16146040518060400160405280600281526020017f38370000000000000000000000000000000000000000000000000000000000008152509061137d576040517f08c379a00000000000000000000000000000000000000000000000000000000081526004016113749190612852565b60405180910390fd5b5061138786611fa7565b61139085611fba565b61139987611fcd565b8860375f6101000a81548173ffffffffffffffffffffffffffffffffffffffff021916908373ffffffffffffffffffffffffffffffffffffffff16021790555087603d60016101000a81548173ffffffffffffffffffffffffffffffffffffffff021916908373ffffffffffffffffffffffffffffffffffffffff160217905550611422611a86565b6035819055507f000000000000000000000000000000000000000000000000000000000000000073ffffffffffffffffffffffffffffffffffffffff168973ffffffffffffffffffffffffffffffffffffffff167f40251fbfb6656cfa65a00d7879029fec1fad21d28fdcff2f4f68f52795b74f2c8a8a8a8a8a8a6040516114af96959493929190613414565b60405180910390a380156114d7575f60015f6101000a81548160ff0219169083151502179055505b50505050505050505050565b5f6040518060400160405280600281526020017f38300000000000000000000000000000000000000000000000000000000000008152506040517f08c379a000000000000000000000000000000000000000000000000000000000815260040161154d9190612852565b60405180910390fd5b5f60385f8373ffffffffffffffffffffffffffffffffffffffff1673ffffffffffffffffffffffffffffffffffffffff1681526020019081526020015f205f0160109054906101000a90046fffffffffffffffffffffffffffffffff166fffffffffffffffffffffffffffffffff169050919050565b5f7f000000000000000000000000000000000000000000000000000000000000000073ffffffffffffffffffffffffffffffffffffffff1663707cd7166040518163ffffffff1660e01b8152600401602060405180830381865afa158015611636573d5f803e3d5ffd5b505050506040513d601f19601f8201168201806040525081019061165a9190613490565b90508073ffffffffffffffffffffffffffffffffffffffff16637be53ca1336040518263ffffffff1660e01b81526004016116959190612d0d565b602060405180830381865afa1580156116b0573d5f803e3d5ffd5b505050506040513d601f19601f820116820180604052508101906116d491906134e5565b6040518060400160405280600181526020017f31000000000000000000000000000000000000000000000000000000000000008152509061174b576040517f08c379a00000000000000000000000000000000000000000000000000000000081526004016117429190612852565b60405180910390fd5b5081603d60016101000a81548173ffffffffffffffffffffffffffffffffffffffff021916908373ffffffffffffffffffffffffffffffffffffffff1602179055505050565b7f323db0410fecc107e39e2af5908671f4c8d106123b35a51501bb805c5fa36aa081565b5f7f000000000000000000000000000000000000000000000000000000000000000073ffffffffffffffffffffffffffffffffffffffff166117f5611b25565b73ffffffffffffffffffffffffffffffffffffffff16146040518060400160405280600281526020017f323300000000000000000000000000000000000000000000000000000000000081525090611883576040517f08c379a000000000000000000000000000000000000000000000000000000000815260040161187a9190612852565b60405180910390fd5b50611890845f8585611fea565b6118986110b2565b90509392505050565b5f60385f8373ffffffffffffffffffffffffffffffffffffffff1673ffffffffffffffffffffffffffffffffffffffff1681526020019081526020015f205f015f9054906101000a90046fffffffffffffffffffffffffffffffff166fffffffffffffffffffffffffffffffff169050919050565b5f603a54905090565b8060365f8573ffffffffffffffffffffffffffffffffffffffff1673ffffffffffffffffffffffffffffffffffffffff1681526020019081526020015f205f8473ffffffffffffffffffffffffffffffffffffffff1673ffffffffffffffffffffffffffffffffffffffff1681526020019081526020015f208190555060375f9054906101000a900473ffffffffffffffffffffffffffffffffffffffff1673ffffffffffffffffffffffffffffffffffffffff168273ffffffffffffffffffffffffffffffffffffffff168473ffffffffffffffffffffffffffffffffffffffff167fda919360433220e13b51e8c211e490d148e61a3bd53de8c097194e458b97f3e184604051611a319190612ae8565b60405180910390a4505050565b5f816b019d971e4fe8401e740000005f190304831115821517611a5f575f80fd5b6b033b2e3c9fd0803ce80000006b019d971e4fe8401e740000008385020104905092915050565b5f7f8b73c3c69bb8fe3d512ecc4cf759cc79239f7b179b0ffacaa9a75d522b39400f611ab061238b565b805190602001206040518060400160405280600181526020017f3100000000000000000000000000000000000000000000000000000000000000815250805190602001204630604051602001611b0a959493929190613510565b60405160208183030381529060405280519060200120905090565b5f33905090565b5f8160365f8673ffffffffffffffffffffffffffffffffffffffff1673ffffffffffffffffffffffffffffffffffffffff1681526020019081526020015f205f8573ffffffffffffffffffffffffffffffffffffffff1673ffffffffffffffffffffffffffffffffffffffff1681526020019081526020015f2054611bb19190613561565b90508060365f8673ffffffffffffffffffffffffffffffffffffffff1673ffffffffffffffffffffffffffffffffffffffff1681526020019081526020015f205f8573ffffffffffffffffffffffffffffffffffffffff1673ffffffffffffffffffffffffffffffffffffffff1681526020019081526020015f208190555060375f9054906101000a900473ffffffffffffffffffffffffffffffffffffffff1673ffffffffffffffffffffffffffffffffffffffff168373ffffffffffffffffffffffffffffffffffffffff168573ffffffffffffffffffffffffffffffffffffffff167fda919360433220e13b51e8c211e490d148e61a3bd53de8c097194e458b97f3e184604051611cc59190612ae8565b60405180910390a450505050565b5f80611ce8838561239a90919063ffffffff16565b90505f8114156040518060400160405280600281526020017f323400000000000000000000000000000000000000000000000000000000000081525090611d65576040517f08c379a0000000000000000000000000000000000000000000000000000000008152600401611d5c9190612852565b60405180910390fd5b505f611d70866118a1565b90505f611df360385f8973ffffffffffffffffffffffffffffffffffffffff1673ffffffffffffffffffffffffffffffffffffffff1681526020019081526020015f205f0160109054906101000a90046fffffffffffffffffffffffffffffffff166fffffffffffffffffffffffffffffffff1683611a3e90919063ffffffff16565b611e068684611a3e90919063ffffffff16565b611e109190613561565b9050611e1b856123de565b60385f8973ffffffffffffffffffffffffffffffffffffffff1673ffffffffffffffffffffffffffffffffffffffff1681526020019081526020015f205f0160106101000a8154816fffffffffffffffffffffffffffffffff02191690836fffffffffffffffffffffffffffffffff160217905550611ea287611e9d856123de565b61243c565b5f8187611eaf91906132e8565b90508773ffffffffffffffffffffffffffffffffffffffff165f73ffffffffffffffffffffffffffffffffffffffff167fddf252ad1be2c89b69c2b068fc378daa952ba7f163c4a11628f55a4df523b3ef83604051611f0e9190612ae8565b60405180910390a38773ffffffffffffffffffffffffffffffffffffffff168973ffffffffffffffffffffffffffffffffffffffff167f458f5fa412d0f69b08dd84872b0215675cc67bc1d5b6fd93300a1c3878b8619683858a604051611f7793929190613594565b60405180910390a35f8314945050505050949350505050565b5f6001905090565b5f80303b90505f811491505090565b80603b9081611fb6919061375d565b5050565b80603c9081611fc9919061375d565b5050565b80603d5f6101000a81548160ff021916908360ff16021790555050565b5f611ffe828461239a90919063ffffffff16565b90505f8114156040518060400160405280600281526020017f32350000000000000000000000000000000000000000000000000000000000008152509061207b576040517f08c379a00000000000000000000000000000000000000000000000000000000081526004016120729190612852565b60405180910390fd5b505f612086866118a1565b90505f61210960385f8973ffffffffffffffffffffffffffffffffffffffff1673ffffffffffffffffffffffffffffffffffffffff1681526020019081526020015f205f0160109054906101000a90046fffffffffffffffffffffffffffffffff166fffffffffffffffffffffffffffffffff1683611a3e90919063ffffffff16565b61211c8584611a3e90919063ffffffff16565b6121269190613561565b9050612131846123de565b60385f8973ffffffffffffffffffffffffffffffffffffffff1673ffffffffffffffffffffffffffffffffffffffff1681526020019081526020015f205f0160106101000a8154816fffffffffffffffffffffffffffffffff02191690836fffffffffffffffffffffffffffffffff1602179055506121b8876121b3856123de565b61260f565b848111156122a3575f85826121cd9190613561565b90508773ffffffffffffffffffffffffffffffffffffffff165f73ffffffffffffffffffffffffffffffffffffffff167fddf252ad1be2c89b69c2b068fc378daa952ba7f163c4a11628f55a4df523b3ef8360405161222c9190612ae8565b60405180910390a38773ffffffffffffffffffffffffffffffffffffffff168873ffffffffffffffffffffffffffffffffffffffff167f458f5fa412d0f69b08dd84872b0215675cc67bc1d5b6fd93300a1c3878b8619683858960405161229593929190613594565b60405180910390a350612382565b5f81866122b09190613561565b90505f73ffffffffffffffffffffffffffffffffffffffff168873ffffffffffffffffffffffffffffffffffffffff167fddf252ad1be2c89b69c2b068fc378daa952ba7f163c4a11628f55a4df523b3ef8360405161230f9190612ae8565b60405180910390a38673ffffffffffffffffffffffffffffffffffffffff168873ffffffffffffffffffffffffffffffffffffffff167f4cf25bc1d991c17529c25213d3cc0cda295eeaad5f13f361969b12ea48015f9083858960405161237893929190613594565b60405180910390a3505b50505050505050565b6060612395610656565b905090565b5f6b033b2e3c9fd0803ce8000000600283045f19030483111515821517156123c0575f80fd5b81600283046b033b2e3c9fd0803ce800000085020104905092915050565b5f6fffffffffffffffffffffffffffffffff8016821115612434576040517f08c379a000000000000000000000000000000000000000000000000000000000815260040161242b9061389c565b60405180910390fd5b819050919050565b5f603a549050816fffffffffffffffffffffffffffffffff168161246091906132e8565b603a819055505f60385f8573ffffffffffffffffffffffffffffffffffffffff1673ffffffffffffffffffffffffffffffffffffffff1681526020019081526020015f205f015f9054906101000a90046fffffffffffffffffffffffffffffffff16905082816124d091906138d5565b60385f8673ffffffffffffffffffffffffffffffffffffffff1673ffffffffffffffffffffffffffffffffffffffff1681526020019081526020015f205f015f6101000a8154816fffffffffffffffffffffffffffffffff02191690836fffffffffffffffffffffffffffffffff1602179055505f603d60019054906101000a900473ffffffffffffffffffffffffffffffffffffffff1690505f73ffffffffffffffffffffffffffffffffffffffff168173ffffffffffffffffffffffffffffffffffffffff1614612608578073ffffffffffffffffffffffffffffffffffffffff166331873e2e8685856040518463ffffffff1660e01b81526004016125da93929190613948565b5f604051808303815f87803b1580156125f1575f80fd5b505af1158015612603573d5f803e3d5ffd5b505050505b5050505050565b5f603a549050816fffffffffffffffffffffffffffffffff16816126339190613561565b603a819055505f60385f8573ffffffffffffffffffffffffffffffffffffffff1673ffffffffffffffffffffffffffffffffffffffff1681526020019081526020015f205f015f9054906101000a90046fffffffffffffffffffffffffffffffff16905082816126a3919061397d565b60385f8673ffffffffffffffffffffffffffffffffffffffff1673ffffffffffffffffffffffffffffffffffffffff1681526020019081526020015f205f015f6101000a8154816fffffffffffffffffffffffffffffffff02191690836fffffffffffffffffffffffffffffffff1602179055505f603d60019054906101000a900473ffffffffffffffffffffffffffffffffffffffff1690505f73ffffffffffffffffffffffffffffffffffffffff168173ffffffffffffffffffffffffffffffffffffffff16146127db578073ffffffffffffffffffffffffffffffffffffffff166331873e2e8685856040518463ffffffff1660e01b81526004016127ad93929190613948565b5f604051808303815f87803b1580156127c4575f80fd5b505af11580156127d6573d5f803e3d5ffd5b505050505b5050505050565b5f81519050919050565b5f82825260208201905092915050565b8281835e5f83830152505050565b5f601f19601f8301169050919050565b5f612824826127e2565b61282e81856127ec565b935061283e8185602086016127fc565b6128478161280a565b840191505092915050565b5f6020820190508181035f83015261286a818461281a565b905092915050565b5f604051905090565b5f80fd5b5f80fd5b5f73ffffffffffffffffffffffffffffffffffffffff82169050919050565b5f6128ac82612883565b9050919050565b6128bc816128a2565b81146128c6575f80fd5b50565b5f813590506128d7816128b3565b92915050565b5f819050919050565b6128ef816128dd565b81146128f9575f80fd5b50565b5f8135905061290a816128e6565b92915050565b5f80604083850312156129265761292561287b565b5b5f612933858286016128c9565b9250506020612944858286016128fc565b9150509250929050565b5f8115159050919050565b6129628161294e565b82525050565b5f60208201905061297b5f830184612959565b92915050565b5f602082840312156129965761299561287b565b5b5f6129a3848285016128c9565b91505092915050565b6129b5816128dd565b82525050565b5f6040820190506129ce5f8301856129ac565b6129db60208301846129ac565b9392505050565b5f60ff82169050919050565b6129f7816129e2565b8114612a01575f80fd5b50565b5f81359050612a12816129ee565b92915050565b5f819050919050565b612a2a81612a18565b8114612a34575f80fd5b50565b5f81359050612a4581612a21565b92915050565b5f805f805f805f60e0888a031215612a6657612a6561287b565b5b5f612a738a828b016128c9565b9750506020612a848a828b016128c9565b9650506040612a958a828b016128fc565b9550506060612aa68a828b016128fc565b9450506080612ab78a828b01612a04565b93505060a0612ac88a828b01612a37565b92505060c0612ad98a828b01612a37565b91505092959891949750929550565b5f602082019050612afb5f8301846129ac565b92915050565b5f805f60608486031215612b1857612b1761287b565b5b5f612b25868287016128c9565b9350506020612b36868287016128c9565b9250506040612b47868287016128fc565b9150509250925092565b612b5a816129e2565b82525050565b5f602082019050612b735f830184612b51565b92915050565b612b8281612a18565b82525050565b5f602082019050612b9b5f830184612b79565b92915050565b5f8060408385031215612bb757612bb661287b565b5b5f612bc4858286016128c9565b9250506020612bd5858286016128c9565b9150509250929050565b5f819050919050565b5f612c02612bfd612bf884612883565b612bdf565b612883565b9050919050565b5f612c1382612be8565b9050919050565b5f612c2482612c09565b9050919050565b612c3481612c1a565b82525050565b5f602082019050612c4d5f830184612c2b565b92915050565b5f612c5d82612c09565b9050919050565b612c6d81612c53565b82525050565b5f602082019050612c865f830184612c64565b92915050565b5f81519050919050565b5f82825260208201905092915050565b5f612cb082612c8c565b612cba8185612c96565b9350612cca8185602086016127fc565b612cd38161280a565b840191505092915050565b5f6020820190508181035f830152612cf68184612ca6565b905092915050565b612d07816128a2565b82525050565b5f602082019050612d205f830184612cfe565b92915050565b5f805f8060808587031215612d3e57612d3d61287b565b5b5f612d4b878288016128c9565b9450506020612d5c878288016128c9565b9350506040612d6d878288016128fc565b9250506060612d7e878288016128fc565b91505092959194509250565b5f604082019050612d9d5f830185612959565b612daa60208301846129ac565b9392505050565b5f612dbb826128a2565b9050919050565b612dcb81612db1565b8114612dd5575f80fd5b50565b5f81359050612de681612dc2565b92915050565b5f612df6826128a2565b9050919050565b612e0681612dec565b8114612e10575f80fd5b50565b5f81359050612e2181612dfd565b92915050565b5f80fd5b5f80fd5b7f4e487b71000000000000000000000000000000000000000000000000000000005f52604160045260245ffd5b612e658261280a565b810181811067ffffffffffffffff82111715612e8457612e83612e2f565b5b80604052505050565b5f612e96612872565b9050612ea28282612e5c565b919050565b5f67ffffffffffffffff821115612ec157612ec0612e2f565b5b612eca8261280a565b9050602081019050919050565b828183375f83830152505050565b5f612ef7612ef284612ea7565b612e8d565b905082815260208101848484011115612f1357612f12612e2b565b5b612f1e848285612ed7565b509392505050565b5f82601f830112612f3a57612f39612e27565b5b8135612f4a848260208601612ee5565b91505092915050565b5f80fd5b5f80fd5b5f8083601f840112612f7057612f6f612e27565b5b8235905067ffffffffffffffff811115612f8d57612f8c612f53565b5b602083019150836001820283011115612fa957612fa8612f57565b5b9250929050565b5f805f805f805f8060e0898b031215612fcc57612fcb61287b565b5b5f612fd98b828c01612dd8565b9850506020612fea8b828c016128c9565b9750506040612ffb8b828c01612e13565b965050606061300c8b828c01612a04565b955050608089013567ffffffffffffffff81111561302d5761302c61287f565b5b6130398b828c01612f26565b94505060a089013567ffffffffffffffff81111561305a5761305961287f565b5b6130668b828c01612f26565b93505060c089013567ffffffffffffffff8111156130875761308661287f565b5b6130938b828c01612f5b565b92509250509295985092959890939650565b5f602082840312156130ba576130b961287b565b5b5f6130c784828501612e13565b91505092915050565b5f805f606084860312156130e7576130e661287b565b5b5f6130f4868287016128c9565b9350506020613105868287016128fc565b9250506040613116868287016128fc565b9150509250925092565b7f4e487b71000000000000000000000000000000000000000000000000000000005f52602260045260245ffd5b5f600282049050600182168061316457607f821691505b60208210810361317757613176613120565b5b50919050565b5f60a0820190506131905f830188612b79565b61319d6020830187612cfe565b6131aa60408301866129ac565b6131b760608301856129ac565b6131c460808301846129ac565b9695505050505050565b5f81905092915050565b7f19010000000000000000000000000000000000000000000000000000000000005f82015250565b5f61320c6002836131ce565b9150613217826131d8565b600282019050919050565b5f819050919050565b61323c61323782612a18565b613222565b82525050565b5f61324c82613200565b9150613258828561322b565b602082019150613268828461322b565b6020820191508190509392505050565b5f60808201905061328b5f830187612b79565b6132986020830186612b51565b6132a56040830185612b79565b6132b26060830184612b79565b95945050505050565b7f4e487b71000000000000000000000000000000000000000000000000000000005f52601160045260245ffd5b5f6132f2826128dd565b91506132fd836128dd565b9250828201905080821115613315576133146132bb565b5b92915050565b5f81519050613329816128e6565b92915050565b5f602082840312156133445761334361287b565b5b5f6133518482850161331b565b91505092915050565b7f436f6e747261637420696e7374616e63652068617320616c72656164792062655f8201527f656e20696e697469616c697a6564000000000000000000000000000000000000602082015250565b5f6133b4602e836127ec565b91506133bf8261335a565b604082019050919050565b5f6020820190508181035f8301526133e1816133a8565b9050919050565b5f6133f38385612c96565b9350613400838584612ed7565b6134098361280a565b840190509392505050565b5f60a0820190506134275f830189612cfe565b6134346020830188612b51565b8181036040830152613446818761281a565b9050818103606083015261345a818661281a565b9050818103608083015261346f8184866133e8565b9050979650505050505050565b5f8151905061348a816128b3565b92915050565b5f602082840312156134a5576134a461287b565b5b5f6134b28482850161347c565b91505092915050565b6134c48161294e565b81146134ce575f80fd5b50565b5f815190506134df816134bb565b92915050565b5f602082840312156134fa576134f961287b565b5b5f613507848285016134d1565b91505092915050565b5f60a0820190506135235f830188612b79565b6135306020830187612b79565b61353d6040830186612b79565b61354a60608301856129ac565b6135576080830184612cfe565b9695505050505050565b5f61356b826128dd565b9150613576836128dd565b925082820390508181111561358e5761358d6132bb565b5b92915050565b5f6060820190506135a75f8301866129ac565b6135b460208301856129ac565b6135c160408301846129ac565b949350505050565b5f819050815f5260205f209050919050565b5f6020601f8301049050919050565b5f82821b905092915050565b5f600883026136257fffffffffffffffffffffffffffffffffffffffffffffffffffffffffffffffff826135ea565b61362f86836135ea565b95508019841693508086168417925050509392505050565b5f61366161365c613657846128dd565b612bdf565b6128dd565b9050919050565b5f819050919050565b61367a83613647565b61368e61368682613668565b8484546135f6565b825550505050565b5f90565b6136a2613696565b6136ad818484613671565b505050565b5b818110156136d0576136c55f8261369a565b6001810190506136b3565b5050565b601f821115613715576136e6816135c9565b6136ef846135db565b810160208510156136fe578190505b61371261370a856135db565b8301826136b2565b50505b505050565b5f82821c905092915050565b5f6137355f198460080261371a565b1980831691505092915050565b5f61374d8383613726565b9150826002028217905092915050565b613766826127e2565b67ffffffffffffffff81111561377f5761377e612e2f565b5b613789825461314d565b6137948282856136d4565b5f60209050601f8311600181146137c5575f84156137b3578287015190505b6137bd8582613742565b865550613824565b601f1984166137d3866135c9565b5f5b828110156137fa578489015182556001820191506020850194506020810190506137d5565b868310156138175784890151613813601f891682613726565b8355505b6001600288020188555050505b505050505050565b7f53616665436173743a2076616c756520646f65736e27742066697420696e20315f8201527f3238206269747300000000000000000000000000000000000000000000000000602082015250565b5f6138866027836127ec565b91506138918261382c565b604082019050919050565b5f6020820190508181035f8301526138b38161387a565b9050919050565b5f6fffffffffffffffffffffffffffffffff82169050919050565b5f6138df826138ba565b91506138ea836138ba565b925082820190506fffffffffffffffffffffffffffffffff811115613912576139116132bb565b5b92915050565b5f61393261392d613928846138ba565b612bdf565b6128dd565b9050919050565b61394281613918565b82525050565b5f60608201905061395b5f830186612cfe565b61396860208301856129ac565b6139756040830184613939565b949350505050565b5f613987826138ba565b9150613992836138ba565b925082820390506fffffffffffffffffffffffffffffffff8111156139ba576139b96132bb565b5b9291505056fea2646970667358221220049f1deb97bb0b411f638624e8f661fc97d56e95b4dce350b5834cff8bd89cb864736f6c634300081a0033",
			"opcodes": "PUSH1 0xE0 PUSH1 0x40 MSTORE PUSH0 DUP1 SSTORE CALLVALUE DUP1 ISZERO PUSH2 0x12 JUMPI PUSH0 DUP1 REVERT JUMPDEST POP PUSH1 0x40 MLOAD PUSH2 0x4025 CODESIZE SUB DUP1 PUSH2 0x4025 DUP4 CODECOPY DUP2 DUP2 ADD PUSH1 0x40 MSTORE DUP2 ADD SWAP1 PUSH2 0x34 SWAP2 SWAP1 PUSH2 0x241 JUMP JUMPDEST DUP1 PUSH1 0x40 MLOAD DUP1 PUSH1 0x40 ADD PUSH1 0x40 MSTORE DUP1 PUSH1 0x18 DUP2 MSTORE PUSH1 0x20 ADD PUSH32 0x5641524941424C455F444542545F544F4B454E5F494D504C0000000000000000 DUP2 MSTORE POP PUSH1 0x40 MLOAD DUP1 PUSH1 0x40 ADD PUSH1 0x40 MSTORE DUP1 PUSH1 0x18 DUP2 MSTORE PUSH1 0x20 ADD PUSH32 0x5641524941424C455F444542545F544F4B454E5F494D504C0000000000000000 DUP2 MSTORE POP PUSH0 DUP4 DUP4 DUP4 DUP4 DUP4 DUP4 DUP4 DUP4 CHAINID PUSH1 0x80 DUP2 DUP2 MSTORE POP POP DUP4 PUSH20 0xFFFFFFFFFFFFFFFFFFFFFFFFFFFFFFFFFFFFFFFF AND PUSH4 0x542975C PUSH1 0x40 MLOAD DUP2 PUSH4 0xFFFFFFFF AND PUSH1 0xE0 SHL DUP2 MSTORE PUSH1 0x4 ADD PUSH1 0x20 PUSH1 0x40 MLOAD DUP1 DUP4 SUB DUP2 DUP7 GAS STATICCALL ISZERO DUP1 ISZERO PUSH2 0xFB JUMPI RETURNDATASIZE PUSH0 DUP1 RETURNDATACOPY RETURNDATASIZE PUSH0 REVERT JUMPDEST POP POP POP POP PUSH1 0x40 MLOAD RETURNDATASIZE PUSH1 0x1F NOT PUSH1 0x1F DUP3 ADD AND DUP3 ADD DUP1 PUSH1 0x40 MSTORE POP DUP2 ADD SWAP1 PUSH2 0x11F SWAP2 SWAP1 PUSH2 0x2A7 JUMP JUMPDEST PUSH20 0xFFFFFFFFFFFFFFFFFFFFFFFFFFFFFFFFFFFFFFFF AND PUSH1 0xA0 DUP2 PUSH20 0xFFFFFFFFFFFFFFFFFFFFFFFFFFFFFFFFFFFFFFFF AND DUP2 MSTORE POP POP DUP3 PUSH1 0x3B SWAP1 DUP2 PUSH2 0x161 SWAP2 SWAP1 PUSH2 0x50C JUMP JUMPDEST POP DUP2 PUSH1 0x3C SWAP1 DUP2 PUSH2 0x171 SWAP2 SWAP1 PUSH2 0x50C JUMP JUMPDEST POP DUP1 PUSH1 0x3D PUSH0 PUSH2 0x100 EXP DUP2 SLOAD DUP2 PUSH1 0xFF MUL NOT AND SWAP1 DUP4 PUSH1 0xFF AND MUL OR SWAP1 SSTORE POP DUP4 PUSH20 0xFFFFFFFFFFFFFFFFFFFFFFFFFFFFFFFFFFFFFFFF AND PUSH1 0xC0 DUP2 PUSH20 0xFFFFFFFFFFFFFFFFFFFFFFFFFFFFFFFFFFFFFFFF AND DUP2 MSTORE POP POP POP POP POP POP POP POP POP POP POP POP POP POP POP PUSH2 0x5DB JUMP JUMPDEST PUSH0 DUP1 REVERT JUMPDEST PUSH0 PUSH20 0xFFFFFFFFFFFFFFFFFFFFFFFFFFFFFFFFFFFFFFFF DUP3 AND SWAP1 POP SWAP2 SWAP1 POP JUMP JUMPDEST PUSH0 PUSH2 0x1FF DUP3 PUSH2 0x1D6 JUMP JUMPDEST SWAP1 POP SWAP2 SWAP1 POP JUMP JUMPDEST PUSH0 PUSH2 0x210 DUP3 PUSH2 0x1F5 JUMP JUMPDEST SWAP1 POP SWAP2 SWAP1 POP JUMP JUMPDEST PUSH2 0x220 DUP2 PUSH2 0x206 JUMP JUMPDEST DUP2 EQ PUSH2 0x22A JUMPI PUSH0 DUP1 REVERT JUMPDEST POP JUMP JUMPDEST PUSH0 DUP2 MLOAD SWAP1 POP PUSH2 0x23B DUP2 PUSH2 0x217 JUMP JUMPDEST SWAP3 SWAP2 POP POP JUMP JUMPDEST PUSH0 PUSH1 0x20 DUP3 DUP5 SUB SLT ISZERO PUSH2 0x256 JUMPI PUSH2 0x255 PUSH2 0x1D2 JUMP JUMPDEST JUMPDEST PUSH0 PUSH2 0x263 DUP5 DUP3 DUP6 ADD PUSH2 0x22D JUMP JUMPDEST SWAP2 POP POP SWAP3 SWAP2 POP POP JUMP JUMPDEST PUSH0 PUSH2 0x276 DUP3 PUSH2 0x1F5 JUMP JUMPDEST SWAP1 POP SWAP2 SWAP1 POP JUMP JUMPDEST PUSH2 0x286 DUP2 PUSH2 0x26C JUMP JUMPDEST DUP2 EQ PUSH2 0x290 JUMPI PUSH0 DUP1 REVERT JUMPDEST POP JUMP JUMPDEST PUSH0 DUP2 MLOAD SWAP1 POP PUSH2 0x2A1 DUP2 PUSH2 0x27D JUMP JUMPDEST SWAP3 SWAP2 POP POP JUMP JUMPDEST PUSH0 PUSH1 0x20 DUP3 DUP5 SUB SLT ISZERO PUSH2 0x2BC JUMPI PUSH2 0x2BB PUSH2 0x1D2 JUMP JUMPDEST JUMPDEST PUSH0 PUSH2 0x2C9 DUP5 DUP3 DUP6 ADD PUSH2 0x293 JUMP JUMPDEST SWAP2 POP POP SWAP3 SWAP2 POP POP JUMP JUMPDEST PUSH0 DUP2 MLOAD SWAP1 POP SWAP2 SWAP1 POP JUMP JUMPDEST PUSH32 0x4E487B7100000000000000000000000000000000000000000000000000000000 PUSH0 MSTORE PUSH1 0x41 PUSH1 0x4 MSTORE PUSH1 0x24 PUSH0 REVERT JUMPDEST PUSH32 0x4E487B7100000000000000000000000000000000000000000000000000000000 PUSH0 MSTORE PUSH1 0x22 PUSH1 0x4 MSTORE PUSH1 0x24 PUSH0 REVERT JUMPDEST PUSH0 PUSH1 0x2 DUP3 DIV SWAP1 POP PUSH1 0x1 DUP3 AND DUP1 PUSH2 0x34D JUMPI PUSH1 0x7F DUP3 AND SWAP2 POP JUMPDEST PUSH1 0x20 DUP3 LT DUP2 SUB PUSH2 0x360 JUMPI PUSH2 0x35F PUSH2 0x309 JUMP JUMPDEST JUMPDEST POP SWAP2 SWAP1 POP JUMP JUMPDEST PUSH0 DUP2 SWAP1 POP DUP2 PUSH0 MSTORE PUSH1 0x20 PUSH0 KECCAK256 SWAP1 POP SWAP2 SWAP1 POP JUMP JUMPDEST PUSH0 PUSH1 0x20 PUSH1 0x1F DUP4 ADD DIV SWAP1 POP SWAP2 SWAP1 POP JUMP JUMPDEST PUSH0 DUP3 DUP3 SHL SWAP1 POP SWAP3 SWAP2 POP POP JUMP JUMPDEST PUSH0 PUSH1 0x8 DUP4 MUL PUSH2 0x3C2 PUSH32 0xFFFFFFFFFFFFFFFFFFFFFFFFFFFFFFFFFFFFFFFFFFFFFFFFFFFFFFFFFFFFFFFF DUP3 PUSH2 0x387 JUMP JUMPDEST PUSH2 0x3CC DUP7 DUP4 PUSH2 0x387 JUMP JUMPDEST SWAP6 POP DUP1 NOT DUP5 AND SWAP4 POP DUP1 DUP7 AND DUP5 OR SWAP3 POP POP POP SWAP4 SWAP3 POP POP POP JUMP JUMPDEST PUSH0 DUP2 SWAP1 POP SWAP2 SWAP1 POP JUMP JUMPDEST PUSH0 DUP2 SWAP1 POP SWAP2 SWAP1 POP JUMP JUMPDEST PUSH0 PUSH2 0x410 PUSH2 0x40B PUSH2 0x406 DUP5 PUSH2 0x3E4 JUMP JUMPDEST PUSH2 0x3ED JUMP JUMPDEST PUSH2 0x3E4 JUMP JUMPDEST SWAP1 POP SWAP2 SWAP1 POP JUMP JUMPDEST PUSH0 DUP2 SWAP1 POP SWAP2 SWAP1 POP JUMP JUMPDEST PUSH2 0x429 DUP4 PUSH2 0x3F6 JUMP JUMPDEST PUSH2 0x43D PUSH2 0x435 DUP3 PUSH2 0x417 JUMP JUMPDEST DUP5 DUP5 SLOAD PUSH2 0x393 JUMP JUMPDEST DUP3 SSTORE POP POP POP POP JUMP JUMPDEST PUSH0 SWAP1 JUMP JUMPDEST PUSH2 0x451 PUSH2 0x445 JUMP JUMPDEST PUSH2 0x45C DUP2 DUP5 DUP5 PUSH2 0x420 JUMP JUMPDEST POP POP POP JUMP JUMPDEST JUMPDEST DUP2 DUP2 LT ISZERO PUSH2 0x47F JUMPI PUSH2 0x474 PUSH0 DUP3 PUSH2 0x449 JUMP JUMPDEST PUSH1 0x1 DUP2 ADD SWAP1 POP PUSH2 0x462 JUMP JUMPDEST POP POP JUMP JUMPDEST PUSH1 0x1F DUP3 GT ISZERO PUSH2 0x4C4 JUMPI PUSH2 0x495 DUP2 PUSH2 0x366 JUMP JUMPDEST PUSH2 0x49E DUP5 PUSH2 0x378 JUMP JUMPDEST DUP2 ADD PUSH1 0x20 DUP6 LT ISZERO PUSH2 0x4AD JUMPI DUP2 SWAP1 POP JUMPDEST PUSH2 0x4C1 PUSH2 0x4B9 DUP6 PUSH2 0x378 JUMP JUMPDEST DUP4 ADD DUP3 PUSH2 0x461 JUMP JUMPDEST POP POP JUMPDEST POP POP POP JUMP JUMPDEST PUSH0 DUP3 DUP3 SHR SWAP1 POP SWAP3 SWAP2 POP POP JUMP JUMPDEST PUSH0 PUSH2 0x4E4 PUSH0 NOT DUP5 PUSH1 0x8 MUL PUSH2 0x4C9 JUMP JUMPDEST NOT DUP1 DUP4 AND SWAP2 POP POP SWAP3 SWAP2 POP POP JUMP JUMPDEST PUSH0 PUSH2 0x4FC DUP4 DUP4 PUSH2 0x4D5 JUMP JUMPDEST SWAP2 POP DUP3 PUSH1 0x2 MUL DUP3 OR SWAP1 POP SWAP3 SWAP2 POP POP JUMP JUMPDEST PUSH2 0x515 DUP3 PUSH2 0x2D2 JUMP JUMPDEST PUSH8 0xFFFFFFFFFFFFFFFF DUP2 GT ISZERO PUSH2 0x52E JUMPI PUSH2 0x52D PUSH2 0x2DC JUMP JUMPDEST JUMPDEST PUSH2 0x538 DUP3 SLOAD PUSH2 0x336 JUMP JUMPDEST PUSH2 0x543 DUP3 DUP3 DUP6 PUSH2 0x483 JUMP JUMPDEST PUSH0 PUSH1 0x20 SWAP1 POP PUSH1 0x1F DUP4 GT PUSH1 0x1 DUP2 EQ PUSH2 0x574 JUMPI PUSH0 DUP5 ISZERO PUSH2 0x562 JUMPI DUP3 DUP8 ADD MLOAD SWAP1 POP JUMPDEST PUSH2 0x56C DUP6 DUP3 PUSH2 0x4F1 JUMP JUMPDEST DUP7 SSTORE POP PUSH2 0x5D3 JUMP JUMPDEST PUSH1 0x1F NOT DUP5 AND PUSH2 0x582 DUP7 PUSH2 0x366 JUMP JUMPDEST PUSH0 JUMPDEST DUP3 DUP2 LT ISZERO PUSH2 0x5A9 JUMPI DUP5 DUP10 ADD MLOAD DUP3 SSTORE PUSH1 0x1 DUP3 ADD SWAP2 POP PUSH1 0x20 DUP6 ADD SWAP5 POP PUSH1 0x20 DUP2 ADD SWAP1 POP PUSH2 0x584 JUMP JUMPDEST DUP7 DUP4 LT ISZERO PUSH2 0x5C6 JUMPI DUP5 DUP10 ADD MLOAD PUSH2 0x5C2 PUSH1 0x1F DUP10 AND DUP3 PUSH2 0x4D5 JUMP JUMPDEST DUP4 SSTORE POP JUMPDEST PUSH1 0x1 PUSH1 0x2 DUP9 MUL ADD DUP9 SSTORE POP POP POP JUMPDEST POP POP POP POP POP POP JUMP JUMPDEST PUSH1 0x80 MLOAD PUSH1 0xA0 MLOAD PUSH1 0xC0 MLOAD PUSH2 0x39F6 PUSH2 0x62F PUSH0 CODECOPY PUSH0 DUP2 DUP2 PUSH2 0xAB7 ADD MSTORE DUP2 DUP2 PUSH2 0xD79 ADD MSTORE DUP2 DUP2 PUSH2 0xE4A ADD MSTORE DUP2 DUP2 PUSH2 0x10C4 ADD MSTORE DUP2 DUP2 PUSH2 0x12B9 ADD MSTORE DUP2 DUP2 PUSH2 0x142A ADD MSTORE PUSH2 0x17B8 ADD MSTORE PUSH0 PUSH2 0x15CF ADD MSTORE PUSH0 PUSH2 0xC25 ADD MSTORE PUSH2 0x39F6 PUSH0 RETURN INVALID PUSH1 0x80 PUSH1 0x40 MSTORE CALLVALUE DUP1 ISZERO PUSH2 0xF JUMPI PUSH0 DUP1 REVERT JUMPDEST POP PUSH1 0x4 CALLDATASIZE LT PUSH2 0x1D8 JUMPI PUSH0 CALLDATALOAD PUSH1 0xE0 SHR DUP1 PUSH4 0x7ECEBE00 GT PUSH2 0x102 JUMPI DUP1 PUSH4 0xB9A7B622 GT PUSH2 0xA0 JUMPI DUP1 PUSH4 0xE0753986 GT PUSH2 0x6F JUMPI DUP1 PUSH4 0xE0753986 EQ PUSH2 0x5BC JUMPI DUP1 PUSH4 0xE655DBD8 EQ PUSH2 0x5EC JUMPI DUP1 PUSH4 0xF3BFC738 EQ PUSH2 0x608 JUMPI DUP1 PUSH4 0xF5298ACA EQ PUSH2 0x626 JUMPI PUSH2 0x1D8 JUMP JUMPDEST DUP1 PUSH4 0xB9A7B622 EQ PUSH2 0x536 JUMPI DUP1 PUSH4 0xC04A8A10 EQ PUSH2 0x554 JUMPI DUP1 PUSH4 0xC222EC8A EQ PUSH2 0x570 JUMPI DUP1 PUSH4 0xDD62ED3E EQ PUSH2 0x58C JUMPI PUSH2 0x1D8 JUMP JUMPDEST DUP1 PUSH4 0xA9059CBB GT PUSH2 0xDC JUMPI DUP1 PUSH4 0xA9059CBB EQ PUSH2 0x499 JUMPI DUP1 PUSH4 0xB16A19DE EQ PUSH2 0x4C9 JUMPI DUP1 PUSH4 0xB1BF962D EQ PUSH2 0x4E7 JUMPI DUP1 PUSH4 0xB3F1C93D EQ PUSH2 0x505 JUMPI PUSH2 0x1D8 JUMP JUMPDEST DUP1 PUSH4 0x7ECEBE00 EQ PUSH2 0x41B JUMPI DUP1 PUSH4 0x95D89B41 EQ PUSH2 0x44B JUMPI DUP1 PUSH4 0xA457C2D7 EQ PUSH2 0x469 JUMPI PUSH2 0x1D8 JUMP JUMPDEST DUP1 PUSH4 0x313CE567 GT PUSH2 0x17A JUMPI DUP1 PUSH4 0x70A08231 GT PUSH2 0x149 JUMPI DUP1 PUSH4 0x70A08231 EQ PUSH2 0x391 JUMPI DUP1 PUSH4 0x7535D246 EQ PUSH2 0x3C1 JUMPI DUP1 PUSH4 0x75D26413 EQ PUSH2 0x3DF JUMPI DUP1 PUSH4 0x78160376 EQ PUSH2 0x3FD JUMPI PUSH2 0x1D8 JUMP JUMPDEST DUP1 PUSH4 0x313CE567 EQ PUSH2 0x2F5 JUMPI DUP1 PUSH4 0x3644E515 EQ PUSH2 0x313 JUMPI DUP1 PUSH4 0x39509351 EQ PUSH2 0x331 JUMPI DUP1 PUSH4 0x6BD76D24 EQ PUSH2 0x361 JUMPI PUSH2 0x1D8 JUMP JUMPDEST DUP1 PUSH4 0xB52D558 GT PUSH2 0x1B6 JUMPI DUP1 PUSH4 0xB52D558 EQ PUSH2 0x25B JUMPI DUP1 PUSH4 0x18160DDD EQ PUSH2 0x277 JUMPI DUP1 PUSH4 0x1DA24F3E EQ PUSH2 0x295 JUMPI DUP1 PUSH4 0x23B872DD EQ PUSH2 0x2C5 JUMPI PUSH2 0x1D8 JUMP JUMPDEST DUP1 PUSH4 0x6FDDE03 EQ PUSH2 0x1DC JUMPI DUP1 PUSH4 0x95EA7B3 EQ PUSH2 0x1FA JUMPI DUP1 PUSH4 0xAFBCDC9 EQ PUSH2 0x22A JUMPI JUMPDEST PUSH0 DUP1 REVERT JUMPDEST PUSH2 0x1E4 PUSH2 0x656 JUMP JUMPDEST PUSH1 0x40 MLOAD PUSH2 0x1F1 SWAP2 SWAP1 PUSH2 0x2852 JUMP JUMPDEST PUSH1 0x40 MLOAD DUP1 SWAP2 SUB SWAP1 RETURN JUMPDEST PUSH2 0x214 PUSH1 0x4 DUP1 CALLDATASIZE SUB DUP2 ADD SWAP1 PUSH2 0x20F SWAP2 SWAP1 PUSH2 0x2910 JUMP JUMPDEST PUSH2 0x6E6 JUMP JUMPDEST PUSH1 0x40 MLOAD PUSH2 0x221 SWAP2 SWAP1 PUSH2 0x2968 JUMP JUMPDEST PUSH1 0x40 MLOAD DUP1 SWAP2 SUB SWAP1 RETURN JUMPDEST PUSH2 0x244 PUSH1 0x4 DUP1 CALLDATASIZE SUB DUP2 ADD SWAP1 PUSH2 0x23F SWAP2 SWAP1 PUSH2 0x2981 JUMP JUMPDEST PUSH2 0x759 JUMP JUMPDEST PUSH1 0x40 MLOAD PUSH2 0x252 SWAP3 SWAP2 SWAP1 PUSH2 0x29BB JUMP JUMPDEST PUSH1 0x40 MLOAD DUP1 SWAP2 SUB SWAP1 RETURN JUMPDEST PUSH2 0x275 PUSH1 0x4 DUP1 CALLDATASIZE SUB DUP2 ADD SWAP1 PUSH2 0x270 SWAP2 SWAP1 PUSH2 0x2A4B JUMP JUMPDEST PUSH2 0x775 JUMP JUMPDEST STOP JUMPDEST PUSH2 0x27F PUSH2 0xAB1 JUMP JUMPDEST PUSH1 0x40 MLOAD PUSH2 0x28C SWAP2 SWAP1 PUSH2 0x2AE8 JUMP JUMPDEST PUSH1 0x40 MLOAD DUP1 SWAP2 SUB SWAP1 RETURN JUMPDEST PUSH2 0x2AF PUSH1 0x4 DUP1 CALLDATASIZE SUB DUP2 ADD SWAP1 PUSH2 0x2AA SWAP2 SWAP1 PUSH2 0x2981 JUMP JUMPDEST PUSH2 0xB89 JUMP JUMPDEST PUSH1 0x40 MLOAD PUSH2 0x2BC SWAP2 SWAP1 PUSH2 0x2AE8 JUMP JUMPDEST PUSH1 0x40 MLOAD DUP1 SWAP2 SUB SWAP1 RETURN JUMPDEST PUSH2 0x2DF PUSH1 0x4 DUP1 CALLDATASIZE SUB DUP2 ADD SWAP1 PUSH2 0x2DA SWAP2 SWAP1 PUSH2 0x2B01 JUMP JUMPDEST PUSH2 0xB9A JUMP JUMPDEST PUSH1 0x40 MLOAD PUSH2 0x2EC SWAP2 SWAP1 PUSH2 0x2968 JUMP JUMPDEST PUSH1 0x40 MLOAD DUP1 SWAP2 SUB SWAP1 RETURN JUMPDEST PUSH2 0x2FD PUSH2 0xC0D JUMP JUMPDEST PUSH1 0x40 MLOAD PUSH2 0x30A SWAP2 SWAP1 PUSH2 0x2B60 JUMP JUMPDEST PUSH1 0x40 MLOAD DUP1 SWAP2 SUB SWAP1 RETURN JUMPDEST PUSH2 0x31B PUSH2 0xC22 JUMP JUMPDEST PUSH1 0x40 MLOAD PUSH2 0x328 SWAP2 SWAP1 PUSH2 0x2B88 JUMP JUMPDEST PUSH1 0x40 MLOAD DUP1 SWAP2 SUB SWAP1 RETURN JUMPDEST PUSH2 0x34B PUSH1 0x4 DUP1 CALLDATASIZE SUB DUP2 ADD SWAP1 PUSH2 0x346 SWAP2 SWAP1 PUSH2 0x2910 JUMP JUMPDEST PUSH2 0xC62 JUMP JUMPDEST PUSH1 0x40 MLOAD PUSH2 0x358 SWAP2 SWAP1 PUSH2 0x2968 JUMP JUMPDEST PUSH1 0x40 MLOAD DUP1 SWAP2 SUB SWAP1 RETURN JUMPDEST PUSH2 0x37B PUSH1 0x4 DUP1 CALLDATASIZE SUB DUP2 ADD SWAP1 PUSH2 0x376 SWAP2 SWAP1 PUSH2 0x2BA1 JUMP JUMPDEST PUSH2 0xCD5 JUMP JUMPDEST PUSH1 0x40 MLOAD PUSH2 0x388 SWAP2 SWAP1 PUSH2 0x2AE8 JUMP JUMPDEST PUSH1 0x40 MLOAD DUP1 SWAP2 SUB SWAP1 RETURN JUMPDEST PUSH2 0x3AB PUSH1 0x4 DUP1 CALLDATASIZE SUB DUP2 ADD SWAP1 PUSH2 0x3A6 SWAP2 SWAP1 PUSH2 0x2981 JUMP JUMPDEST PUSH2 0xD57 JUMP JUMPDEST PUSH1 0x40 MLOAD PUSH2 0x3B8 SWAP2 SWAP1 PUSH2 0x2AE8 JUMP JUMPDEST PUSH1 0x40 MLOAD DUP1 SWAP2 SUB SWAP1 RETURN JUMPDEST PUSH2 0x3C9 PUSH2 0xE48 JUMP JUMPDEST PUSH1 0x40 MLOAD PUSH2 0x3D6 SWAP2 SWAP1 PUSH2 0x2C3A JUMP JUMPDEST PUSH1 0x40 MLOAD DUP1 SWAP2 SUB SWAP1 RETURN JUMPDEST PUSH2 0x3E7 PUSH2 0xE6C JUMP JUMPDEST PUSH1 0x40 MLOAD PUSH2 0x3F4 SWAP2 SWAP1 PUSH2 0x2C73 JUMP JUMPDEST PUSH1 0x40 MLOAD DUP1 SWAP2 SUB SWAP1 RETURN JUMPDEST PUSH2 0x405 PUSH2 0xE95 JUMP JUMPDEST PUSH1 0x40 MLOAD PUSH2 0x412 SWAP2 SWAP1 PUSH2 0x2CDE JUMP JUMPDEST PUSH1 0x40 MLOAD DUP1 SWAP2 SUB SWAP1 RETURN JUMPDEST PUSH2 0x435 PUSH1 0x4 DUP1 CALLDATASIZE SUB DUP2 ADD SWAP1 PUSH2 0x430 SWAP2 SWAP1 PUSH2 0x2981 JUMP JUMPDEST PUSH2 0xECE JUMP JUMPDEST PUSH1 0x40 MLOAD PUSH2 0x442 SWAP2 SWAP1 PUSH2 0x2AE8 JUMP JUMPDEST PUSH1 0x40 MLOAD DUP1 SWAP2 SUB SWAP1 RETURN JUMPDEST PUSH2 0x453 PUSH2 0xF14 JUMP JUMPDEST PUSH1 0x40 MLOAD PUSH2 0x460 SWAP2 SWAP1 PUSH2 0x2852 JUMP JUMPDEST PUSH1 0x40 MLOAD DUP1 SWAP2 SUB SWAP1 RETURN JUMPDEST PUSH2 0x483 PUSH1 0x4 DUP1 CALLDATASIZE SUB DUP2 ADD SWAP1 PUSH2 0x47E SWAP2 SWAP1 PUSH2 0x2910 JUMP JUMPDEST PUSH2 0xFA4 JUMP JUMPDEST PUSH1 0x40 MLOAD PUSH2 0x490 SWAP2 SWAP1 PUSH2 0x2968 JUMP JUMPDEST PUSH1 0x40 MLOAD DUP1 SWAP2 SUB SWAP1 RETURN JUMPDEST PUSH2 0x4B3 PUSH1 0x4 DUP1 CALLDATASIZE SUB DUP2 ADD SWAP1 PUSH2 0x4AE SWAP2 SWAP1 PUSH2 0x2910 JUMP JUMPDEST PUSH2 0x1017 JUMP JUMPDEST PUSH1 0x40 MLOAD PUSH2 0x4C0 SWAP2 SWAP1 PUSH2 0x2968 JUMP JUMPDEST PUSH1 0x40 MLOAD DUP1 SWAP2 SUB SWAP1 RETURN JUMPDEST PUSH2 0x4D1 PUSH2 0x108A JUMP JUMPDEST PUSH1 0x40 MLOAD PUSH2 0x4DE SWAP2 SWAP1 PUSH2 0x2D0D JUMP JUMPDEST PUSH1 0x40 MLOAD DUP1 SWAP2 SUB SWAP1 RETURN JUMPDEST PUSH2 0x4EF PUSH2 0x10B2 JUMP JUMPDEST PUSH1 0x40 MLOAD PUSH2 0x4FC SWAP2 SWAP1 PUSH2 0x2AE8 JUMP JUMPDEST PUSH1 0x40 MLOAD DUP1 SWAP2 SUB SWAP1 RETURN JUMPDEST PUSH2 0x51F PUSH1 0x4 DUP1 CALLDATASIZE SUB DUP2 ADD SWAP1 PUSH2 0x51A SWAP2 SWAP1 PUSH2 0x2D26 JUMP JUMPDEST PUSH2 0x10C0 JUMP JUMPDEST PUSH1 0x40 MLOAD PUSH2 0x52D SWAP3 SWAP2 SWAP1 PUSH2 0x2D8A JUMP JUMPDEST PUSH1 0x40 MLOAD DUP1 SWAP2 SUB SWAP1 RETURN JUMPDEST PUSH2 0x53E PUSH2 0x11F0 JUMP JUMPDEST PUSH1 0x40 MLOAD PUSH2 0x54B SWAP2 SWAP1 PUSH2 0x2AE8 JUMP JUMPDEST PUSH1 0x40 MLOAD DUP1 SWAP2 SUB SWAP1 RETURN JUMPDEST PUSH2 0x56E PUSH1 0x4 DUP1 CALLDATASIZE SUB DUP2 ADD SWAP1 PUSH2 0x569 SWAP2 SWAP1 PUSH2 0x2910 JUMP JUMPDEST PUSH2 0x11F5 JUMP JUMPDEST STOP JUMPDEST PUSH2 0x58A PUSH1 0x4 DUP1 CALLDATASIZE SUB DUP2 ADD SWAP1 PUSH2 0x585 SWAP2 SWAP1 PUSH2 0x2FB0 JUMP JUMPDEST PUSH2 0x120B JUMP JUMPDEST STOP JUMPDEST PUSH2 0x5A6 PUSH1 0x4 DUP1 CALLDATASIZE SUB DUP2 ADD SWAP1 PUSH2 0x5A1 SWAP2 SWAP1 PUSH2 0x2BA1 JUMP JUMPDEST PUSH2 0x14E3 JUMP JUMPDEST PUSH1 0x40 MLOAD PUSH2 0x5B3 SWAP2 SWAP1 PUSH2 0x2AE8 JUMP JUMPDEST PUSH1 0x40 MLOAD DUP1 SWAP2 SUB SWAP1 RETURN JUMPDEST PUSH2 0x5D6 PUSH1 0x4 DUP1 CALLDATASIZE SUB DUP2 ADD SWAP1 PUSH2 0x5D1 SWAP2 SWAP1 PUSH2 0x2981 JUMP JUMPDEST PUSH2 0x1556 JUMP JUMPDEST PUSH1 0x40 MLOAD PUSH2 0x5E3 SWAP2 SWAP1 PUSH2 0x2AE8 JUMP JUMPDEST PUSH1 0x40 MLOAD DUP1 SWAP2 SUB SWAP1 RETURN JUMPDEST PUSH2 0x606 PUSH1 0x4 DUP1 CALLDATASIZE SUB DUP2 ADD SWAP1 PUSH2 0x601 SWAP2 SWAP1 PUSH2 0x30A5 JUMP JUMPDEST PUSH2 0x15CC JUMP JUMPDEST STOP JUMPDEST PUSH2 0x610 PUSH2 0x1791 JUMP JUMPDEST PUSH1 0x40 MLOAD PUSH2 0x61D SWAP2 SWAP1 PUSH2 0x2B88 JUMP JUMPDEST PUSH1 0x40 MLOAD DUP1 SWAP2 SUB SWAP1 RETURN JUMPDEST PUSH2 0x640 PUSH1 0x4 DUP1 CALLDATASIZE SUB DUP2 ADD SWAP1 PUSH2 0x63B SWAP2 SWAP1 PUSH2 0x30D0 JUMP JUMPDEST PUSH2 0x17B5 JUMP JUMPDEST PUSH1 0x40 MLOAD PUSH2 0x64D SWAP2 SWAP1 PUSH2 0x2AE8 JUMP JUMPDEST PUSH1 0x40 MLOAD DUP1 SWAP2 SUB SWAP1 RETURN JUMPDEST PUSH1 0x60 PUSH1 0x3B DUP1 SLOAD PUSH2 0x665 SWAP1 PUSH2 0x314D JUMP JUMPDEST DUP1 PUSH1 0x1F ADD PUSH1 0x20 DUP1 SWAP2 DIV MUL PUSH1 0x20 ADD PUSH1 0x40 MLOAD SWAP1 DUP2 ADD PUSH1 0x40 MSTORE DUP1 SWAP3 SWAP2 SWAP1 DUP2 DUP2 MSTORE PUSH1 0x20 ADD DUP3 DUP1 SLOAD PUSH2 0x691 SWAP1 PUSH2 0x314D JUMP JUMPDEST DUP1 ISZERO PUSH2 0x6DC JUMPI DUP1 PUSH1 0x1F LT PUSH2 0x6B3 JUMPI PUSH2 0x100 DUP1 DUP4 SLOAD DIV MUL DUP4 MSTORE SWAP2 PUSH1 0x20 ADD SWAP2 PUSH2 0x6DC JUMP JUMPDEST DUP3 ADD SWAP2 SWAP1 PUSH0 MSTORE PUSH1 0x20 PUSH0 KECCAK256 SWAP1 JUMPDEST DUP2 SLOAD DUP2 MSTORE SWAP1 PUSH1 0x1 ADD SWAP1 PUSH1 0x20 ADD DUP1 DUP4 GT PUSH2 0x6BF JUMPI DUP3 SWAP1 SUB PUSH1 0x1F AND DUP3 ADD SWAP2 JUMPDEST POP POP POP POP POP SWAP1 POP SWAP1 JUMP JUMPDEST PUSH0 PUSH1 0x40 MLOAD DUP1 PUSH1 0x40 ADD PUSH1 0x40 MSTORE DUP1 PUSH1 0x2 DUP2 MSTORE PUSH1 0x20 ADD PUSH32 0x3830000000000000000000000000000000000000000000000000000000000000 DUP2 MSTORE POP PUSH1 0x40 MLOAD PUSH32 0x8C379A000000000000000000000000000000000000000000000000000000000 DUP2 MSTORE PUSH1 0x4 ADD PUSH2 0x750 SWAP2 SWAP1 PUSH2 0x2852 JUMP JUMPDEST PUSH1 0x40 MLOAD DUP1 SWAP2 SUB SWAP1 REVERT JUMPDEST PUSH0 DUP1 PUSH2 0x764 DUP4 PUSH2 0x18A1 JUMP JUMPDEST PUSH2 0x76C PUSH2 0x1916 JUMP JUMPDEST SWAP2 POP SWAP2 POP SWAP2 POP SWAP2 JUMP JUMPDEST PUSH0 PUSH20 0xFFFFFFFFFFFFFFFFFFFFFFFFFFFFFFFFFFFFFFFF AND DUP8 PUSH20 0xFFFFFFFFFFFFFFFFFFFFFFFFFFFFFFFFFFFFFFFF AND EQ ISZERO PUSH1 0x40 MLOAD DUP1 PUSH1 0x40 ADD PUSH1 0x40 MSTORE DUP1 PUSH1 0x2 DUP2 MSTORE PUSH1 0x20 ADD PUSH32 0x3737000000000000000000000000000000000000000000000000000000000000 DUP2 MSTORE POP SWAP1 PUSH2 0x81C JUMPI PUSH1 0x40 MLOAD PUSH32 0x8C379A000000000000000000000000000000000000000000000000000000000 DUP2 MSTORE PUSH1 0x4 ADD PUSH2 0x813 SWAP2 SWAP1 PUSH2 0x2852 JUMP JUMPDEST PUSH1 0x40 MLOAD DUP1 SWAP2 SUB SWAP1 REVERT JUMPDEST POP DUP4 TIMESTAMP GT ISZERO PUSH1 0x40 MLOAD DUP1 PUSH1 0x40 ADD PUSH1 0x40 MSTORE DUP1 PUSH1 0x2 DUP2 MSTORE PUSH1 0x20 ADD PUSH32 0x3738000000000000000000000000000000000000000000000000000000000000 DUP2 MSTORE POP SWAP1 PUSH2 0x898 JUMPI PUSH1 0x40 MLOAD PUSH32 0x8C379A000000000000000000000000000000000000000000000000000000000 DUP2 MSTORE PUSH1 0x4 ADD PUSH2 0x88F SWAP2 SWAP1 PUSH2 0x2852 JUMP JUMPDEST PUSH1 0x40 MLOAD DUP1 SWAP2 SUB SWAP1 REVERT JUMPDEST POP PUSH0 PUSH1 0x34 PUSH0 DUP10 PUSH20 0xFFFFFFFFFFFFFFFFFFFFFFFFFFFFFFFFFFFFFFFF AND PUSH20 0xFFFFFFFFFFFFFFFFFFFFFFFFFFFFFFFFFFFFFFFF AND DUP2 MSTORE PUSH1 0x20 ADD SWAP1 DUP2 MSTORE PUSH1 0x20 ADD PUSH0 KECCAK256 SLOAD SWAP1 POP PUSH0 PUSH2 0x8E3 PUSH2 0xC22 JUMP JUMPDEST PUSH32 0x323DB0410FECC107E39E2AF5908671F4C8D106123B35A51501BB805C5FA36AA0 DUP10 DUP10 DUP6 DUP11 PUSH1 0x40 MLOAD PUSH1 0x20 ADD PUSH2 0x91C SWAP6 SWAP5 SWAP4 SWAP3 SWAP2 SWAP1 PUSH2 0x317D JUMP JUMPDEST PUSH1 0x40 MLOAD PUSH1 0x20 DUP2 DUP4 SUB SUB DUP2 MSTORE SWAP1 PUSH1 0x40 MSTORE DUP1 MLOAD SWAP1 PUSH1 0x20 ADD KECCAK256 PUSH1 0x40 MLOAD PUSH1 0x20 ADD PUSH2 0x943 SWAP3 SWAP2 SWAP1 PUSH2 0x3242 JUMP JUMPDEST PUSH1 0x40 MLOAD PUSH1 0x20 DUP2 DUP4 SUB SUB DUP2 MSTORE SWAP1 PUSH1 0x40 MSTORE DUP1 MLOAD SWAP1 PUSH1 0x20 ADD KECCAK256 SWAP1 POP PUSH1 0x1 DUP2 DUP7 DUP7 DUP7 PUSH1 0x40 MLOAD PUSH0 DUP2 MSTORE PUSH1 0x20 ADD PUSH1 0x40 MSTORE PUSH1 0x40 MLOAD PUSH2 0x97D SWAP5 SWAP4 SWAP3 SWAP2 SWAP1 PUSH2 0x3278 JUMP JUMPDEST PUSH1 0x20 PUSH1 0x40 MLOAD PUSH1 0x20 DUP2 SUB SWAP1 DUP1 DUP5 SUB SWAP1 DUP6 GAS STATICCALL ISZERO DUP1 ISZERO PUSH2 0x99D JUMPI RETURNDATASIZE PUSH0 DUP1 RETURNDATACOPY RETURNDATASIZE PUSH0 REVERT JUMPDEST POP POP POP PUSH1 0x20 PUSH1 0x40 MLOAD SUB MLOAD PUSH20 0xFFFFFFFFFFFFFFFFFFFFFFFFFFFFFFFFFFFFFFFF AND DUP10 PUSH20 0xFFFFFFFFFFFFFFFFFFFFFFFFFFFFFFFFFFFFFFFF AND EQ PUSH1 0x40 MLOAD DUP1 PUSH1 0x40 ADD PUSH1 0x40 MSTORE DUP1 PUSH1 0x2 DUP2 MSTORE PUSH1 0x20 ADD PUSH32 0x3739000000000000000000000000000000000000000000000000000000000000 DUP2 MSTORE POP SWAP1 PUSH2 0xA4C JUMPI PUSH1 0x40 MLOAD PUSH32 0x8C379A000000000000000000000000000000000000000000000000000000000 DUP2 MSTORE PUSH1 0x4 ADD PUSH2 0xA43 SWAP2 SWAP1 PUSH2 0x2852 JUMP JUMPDEST PUSH1 0x40 MLOAD DUP1 SWAP2 SUB SWAP1 REVERT JUMPDEST POP PUSH1 0x1 DUP3 PUSH2 0xA5A SWAP2 SWAP1 PUSH2 0x32E8 JUMP JUMPDEST PUSH1 0x34 PUSH0 DUP12 PUSH20 0xFFFFFFFFFFFFFFFFFFFFFFFFFFFFFFFFFFFFFFFF AND PUSH20 0xFFFFFFFFFFFFFFFFFFFFFFFFFFFFFFFFFFFFFFFF AND DUP2 MSTORE PUSH1 0x20 ADD SWAP1 DUP2 MSTORE PUSH1 0x20 ADD PUSH0 KECCAK256 DUP2 SWAP1 SSTORE POP PUSH2 0xAA6 DUP10 DUP10 DUP10 PUSH2 0x191F JUMP JUMPDEST POP POP POP POP POP POP POP POP POP JUMP JUMPDEST PUSH0 PUSH2 0xB84 PUSH32 0x0 PUSH20 0xFFFFFFFFFFFFFFFFFFFFFFFFFFFFFFFFFFFFFFFF AND PUSH4 0x386497FD PUSH1 0x37 PUSH0 SWAP1 SLOAD SWAP1 PUSH2 0x100 EXP SWAP1 DIV PUSH20 0xFFFFFFFFFFFFFFFFFFFFFFFFFFFFFFFFFFFFFFFF AND PUSH1 0x40 MLOAD DUP3 PUSH4 0xFFFFFFFF AND PUSH1 0xE0 SHL DUP2 MSTORE PUSH1 0x4 ADD PUSH2 0xB2F SWAP2 SWAP1 PUSH2 0x2D0D JUMP JUMPDEST PUSH1 0x20 PUSH1 0x40 MLOAD DUP1 DUP4 SUB DUP2 DUP7 GAS STATICCALL ISZERO DUP1 ISZERO PUSH2 0xB4A JUMPI RETURNDATASIZE PUSH0 DUP1 RETURNDATACOPY RETURNDATASIZE PUSH0 REVERT JUMPDEST POP POP POP POP PUSH1 0x40 MLOAD RETURNDATASIZE PUSH1 0x1F NOT PUSH1 0x1F DUP3 ADD AND DUP3 ADD DUP1 PUSH1 0x40 MSTORE POP DUP2 ADD SWAP1 PUSH2 0xB6E SWAP2 SWAP1 PUSH2 0x332F JUMP JUMPDEST PUSH2 0xB76 PUSH2 0x1916 JUMP JUMPDEST PUSH2 0x1A3E SWAP1 SWAP2 SWAP1 PUSH4 0xFFFFFFFF AND JUMP JUMPDEST SWAP1 POP SWAP1 JUMP JUMPDEST PUSH0 PUSH2 0xB93 DUP3 PUSH2 0x18A1 JUMP JUMPDEST SWAP1 POP SWAP2 SWAP1 POP JUMP JUMPDEST PUSH0 PUSH1 0x40 MLOAD DUP1 PUSH1 0x40 ADD PUSH1 0x40 MSTORE DUP1 PUSH1 0x2 DUP2 MSTORE PUSH1 0x20 ADD PUSH32 0x3830000000000000000000000000000000000000000000000000000000000000 DUP2 MSTORE POP PUSH1 0x40 MLOAD PUSH32 0x8C379A000000000000000000000000000000000000000000000000000000000 DUP2 MSTORE PUSH1 0x4 ADD PUSH2 0xC04 SWAP2 SWAP1 PUSH2 0x2852 JUMP JUMPDEST PUSH1 0x40 MLOAD DUP1 SWAP2 SUB SWAP1 REVERT JUMPDEST PUSH0 PUSH1 0x3D PUSH0 SWAP1 SLOAD SWAP1 PUSH2 0x100 EXP SWAP1 DIV PUSH1 0xFF AND SWAP1 POP SWAP1 JUMP JUMPDEST PUSH0 PUSH32 0x0 CHAINID SUB PUSH2 0xC54 JUMPI PUSH1 0x35 SLOAD SWAP1 POP PUSH2 0xC5F JUMP JUMPDEST PUSH2 0xC5C PUSH2 0x1A86 JUMP JUMPDEST SWAP1 POP JUMPDEST SWAP1 JUMP JUMPDEST PUSH0 PUSH1 0x40 MLOAD DUP1 PUSH1 0x40 ADD PUSH1 0x40 MSTORE DUP1 PUSH1 0x2 DUP2 MSTORE PUSH1 0x20 ADD PUSH32 0x3830000000000000000000000000000000000000000000000000000000000000 DUP2 MSTORE POP PUSH1 0x40 MLOAD PUSH32 0x8C379A000000000000000000000000000000000000000000000000000000000 DUP2 MSTORE PUSH1 0x4 ADD PUSH2 0xCCC SWAP2 SWAP1 PUSH2 0x2852 JUMP JUMPDEST PUSH1 0x40 MLOAD DUP1 SWAP2 SUB SWAP1 REVERT JUMPDEST PUSH0 PUSH1 0x36 PUSH0 DUP5 PUSH20 0xFFFFFFFFFFFFFFFFFFFFFFFFFFFFFFFFFFFFFFFF AND PUSH20 0xFFFFFFFFFFFFFFFFFFFFFFFFFFFFFFFFFFFFFFFF AND DUP2 MSTORE PUSH1 0x20 ADD SWAP1 DUP2 MSTORE PUSH1 0x20 ADD PUSH0 KECCAK256 PUSH0 DUP4 PUSH20 0xFFFFFFFFFFFFFFFFFFFFFFFFFFFFFFFFFFFFFFFF AND PUSH20 0xFFFFFFFFFFFFFFFFFFFFFFFFFFFFFFFFFFFFFFFF AND DUP2 MSTORE PUSH1 0x20 ADD SWAP1 DUP2 MSTORE PUSH1 0x20 ADD PUSH0 KECCAK256 SLOAD SWAP1 POP SWAP3 SWAP2 POP POP JUMP JUMPDEST PUSH0 DUP1 PUSH2 0xD62 DUP4 PUSH2 0x18A1 JUMP JUMPDEST SWAP1 POP PUSH0 DUP2 SUB PUSH2 0xD74 JUMPI PUSH0 SWAP2 POP POP PUSH2 0xE43 JUMP JUMPDEST PUSH2 0xE3F PUSH32 0x0 PUSH20 0xFFFFFFFFFFFFFFFFFFFFFFFFFFFFFFFFFFFFFFFF AND PUSH4 0x386497FD PUSH1 0x37 PUSH0 SWAP1 SLOAD SWAP1 PUSH2 0x100 EXP SWAP1 DIV PUSH20 0xFFFFFFFFFFFFFFFFFFFFFFFFFFFFFFFFFFFFFFFF AND PUSH1 0x40 MLOAD DUP3 PUSH4 0xFFFFFFFF AND PUSH1 0xE0 SHL DUP2 MSTORE PUSH1 0x4 ADD PUSH2 0xDF1 SWAP2 SWAP1 PUSH2 0x2D0D JUMP JUMPDEST PUSH1 0x20 PUSH1 0x40 MLOAD DUP1 DUP4 SUB DUP2 DUP7 GAS STATICCALL ISZERO DUP1 ISZERO PUSH2 0xE0C JUMPI RETURNDATASIZE PUSH0 DUP1 RETURNDATACOPY RETURNDATASIZE PUSH0 REVERT JUMPDEST POP POP POP POP PUSH1 0x40 MLOAD RETURNDATASIZE PUSH1 0x1F NOT PUSH1 0x1F DUP3 ADD AND DUP3 ADD DUP1 PUSH1 0x40 MSTORE POP DUP2 ADD SWAP1 PUSH2 0xE30 SWAP2 SWAP1 PUSH2 0x332F JUMP JUMPDEST DUP3 PUSH2 0x1A3E SWAP1 SWAP2 SWAP1 PUSH4 0xFFFFFFFF AND JUMP JUMPDEST SWAP2 POP POP JUMPDEST SWAP2 SWAP1 POP JUMP JUMPDEST PUSH32 0x0 DUP2 JUMP JUMPDEST PUSH0 PUSH1 0x3D PUSH1 0x1 SWAP1 SLOAD SWAP1 PUSH2 0x100 EXP SWAP1 DIV PUSH20 0xFFFFFFFFFFFFFFFFFFFFFFFFFFFFFFFFFFFFFFFF AND SWAP1 POP SWAP1 JUMP JUMPDEST PUSH1 0x40 MLOAD DUP1 PUSH1 0x40 ADD PUSH1 0x40 MSTORE DUP1 PUSH1 0x1 DUP2 MSTORE PUSH1 0x20 ADD PUSH32 0x3100000000000000000000000000000000000000000000000000000000000000 DUP2 MSTORE POP DUP2 JUMP JUMPDEST PUSH0 PUSH1 0x34 PUSH0 DUP4 PUSH20 0xFFFFFFFFFFFFFFFFFFFFFFFFFFFFFFFFFFFFFFFF AND PUSH20 0xFFFFFFFFFFFFFFFFFFFFFFFFFFFFFFFFFFFFFFFF AND DUP2 MSTORE PUSH1 0x20 ADD SWAP1 DUP2 MSTORE PUSH1 0x20 ADD PUSH0 KECCAK256 SLOAD SWAP1 POP SWAP2 SWAP1 POP JUMP JUMPDEST PUSH1 0x60 PUSH1 0x3C DUP1 SLOAD PUSH2 0xF23 SWAP1 PUSH2 0x314D JUMP JUMPDEST DUP1 PUSH1 0x1F ADD PUSH1 0x20 DUP1 SWAP2 DIV MUL PUSH1 0x20 ADD PUSH1 0x40 MLOAD SWAP1 DUP2 ADD PUSH1 0x40 MSTORE DUP1 SWAP3 SWAP2 SWAP1 DUP2 DUP2 MSTORE PUSH1 0x20 ADD DUP3 DUP1 SLOAD PUSH2 0xF4F SWAP1 PUSH2 0x314D JUMP JUMPDEST DUP1 ISZERO PUSH2 0xF9A JUMPI DUP1 PUSH1 0x1F LT PUSH2 0xF71 JUMPI PUSH2 0x100 DUP1 DUP4 SLOAD DIV MUL DUP4 MSTORE SWAP2 PUSH1 0x20 ADD SWAP2 PUSH2 0xF9A JUMP JUMPDEST DUP3 ADD SWAP2 SWAP1 PUSH0 MSTORE PUSH1 0x20 PUSH0 KECCAK256 SWAP1 JUMPDEST DUP2 SLOAD DUP2 MSTORE SWAP1 PUSH1 0x1 ADD SWAP1 PUSH1 0x20 ADD DUP1 DUP4 GT PUSH2 0xF7D JUMPI DUP3 SWAP1 SUB PUSH1 0x1F AND DUP3 ADD SWAP2 JUMPDEST POP POP POP POP POP SWAP1 POP SWAP1 JUMP JUMPDEST PUSH0 PUSH1 0x40 MLOAD DUP1 PUSH1 0x40 ADD PUSH1 0x40 MSTORE DUP1 PUSH1 0x2 DUP2 MSTORE PUSH1 0x20 ADD PUSH32 0x3830000000000000000000000000000000000000000000000000000000000000 DUP2 MSTORE POP PUSH1 0x40 MLOAD PUSH32 0x8C379A000000000000000000000000000000000000000000000000000000000 DUP2 MSTORE PUSH1 0x4 ADD PUSH2 0x100E SWAP2 SWAP1 PUSH2 0x2852 JUMP JUMPDEST PUSH1 0x40 MLOAD DUP1 SWAP2 SUB SWAP1 REVERT JUMPDEST PUSH0 PUSH1 0x40 MLOAD DUP1 PUSH1 0x40 ADD PUSH1 0x40 MSTORE DUP1 PUSH1 0x2 DUP2 MSTORE PUSH1 0x20 ADD PUSH32 0x3830000000000000000000000000000000000000000000000000000000000000 DUP2 MSTORE POP PUSH1 0x40 MLOAD PUSH32 0x8C379A000000000000000000000000000000000000000000000000000000000 DUP2 MSTORE PUSH1 0x4 ADD PUSH2 0x1081 SWAP2 SWAP1 PUSH2 0x2852 JUMP JUMPDEST PUSH1 0x40 MLOAD DUP1 SWAP2 SUB SWAP1 REVERT JUMPDEST PUSH0 PUSH1 0x37 PUSH0 SWAP1 SLOAD SWAP1 PUSH2 0x100 EXP SWAP1 DIV PUSH20 0xFFFFFFFFFFFFFFFFFFFFFFFFFFFFFFFFFFFFFFFF AND SWAP1 POP SWAP1 JUMP JUMPDEST PUSH0 PUSH2 0x10BB PUSH2 0x1916 JUMP JUMPDEST SWAP1 POP SWAP1 JUMP JUMPDEST PUSH0 DUP1 PUSH32 0x0 PUSH20 0xFFFFFFFFFFFFFFFFFFFFFFFFFFFFFFFFFFFFFFFF AND PUSH2 0x1101 PUSH2 0x1B25 JUMP JUMPDEST PUSH20 0xFFFFFFFFFFFFFFFFFFFFFFFFFFFFFFFFFFFFFFFF AND EQ PUSH1 0x40 MLOAD DUP1 PUSH1 0x40 ADD PUSH1 0x40 MSTORE DUP1 PUSH1 0x2 DUP2 MSTORE PUSH1 0x20 ADD PUSH32 0x3233000000000000000000000000000000000000000000000000000000000000 DUP2 MSTORE POP SWAP1 PUSH2 0x118F JUMPI PUSH1 0x40 MLOAD PUSH32 0x8C379A000000000000000000000000000000000000000000000000000000000 DUP2 MSTORE PUSH1 0x4 ADD PUSH2 0x1186 SWAP2 SWAP1 PUSH2 0x2852 JUMP JUMPDEST PUSH1 0x40 MLOAD DUP1 SWAP2 SUB SWAP1 REVERT JUMPDEST POP DUP5 PUSH20 0xFFFFFFFFFFFFFFFFFFFFFFFFFFFFFFFFFFFFFFFF AND DUP7 PUSH20 0xFFFFFFFFFFFFFFFFFFFFFFFFFFFFFFFFFFFFFFFF AND EQ PUSH2 0x11CF JUMPI PUSH2 0x11CE DUP6 DUP8 DUP7 PUSH2 0x1B2C JUMP JUMPDEST JUMPDEST PUSH2 0x11DB DUP7 DUP7 DUP7 DUP7 PUSH2 0x1CD3 JUMP JUMPDEST PUSH2 0x11E3 PUSH2 0x10B2 JUMP JUMPDEST SWAP2 POP SWAP2 POP SWAP5 POP SWAP5 SWAP3 POP POP POP JUMP JUMPDEST PUSH1 0x1 DUP2 JUMP JUMPDEST PUSH2 0x1207 PUSH2 0x1200 PUSH2 0x1B25 JUMP JUMPDEST DUP4 DUP4 PUSH2 0x191F JUMP JUMPDEST POP POP JUMP JUMPDEST PUSH0 PUSH2 0x1214 PUSH2 0x1F90 JUMP JUMPDEST SWAP1 POP PUSH1 0x1 PUSH0 SWAP1 SLOAD SWAP1 PUSH2 0x100 EXP SWAP1 DIV PUSH1 0xFF AND DUP1 PUSH2 0x1234 JUMPI POP PUSH2 0x1233 PUSH2 0x1F98 JUMP JUMPDEST JUMPDEST DUP1 PUSH2 0x123F JUMPI POP PUSH0 SLOAD DUP2 GT JUMPDEST PUSH2 0x127E JUMPI PUSH1 0x40 MLOAD PUSH32 0x8C379A000000000000000000000000000000000000000000000000000000000 DUP2 MSTORE PUSH1 0x4 ADD PUSH2 0x1275 SWAP1 PUSH2 0x33CA JUMP JUMPDEST PUSH1 0x40 MLOAD DUP1 SWAP2 SUB SWAP1 REVERT JUMPDEST PUSH0 PUSH1 0x1 PUSH0 SWAP1 SLOAD SWAP1 PUSH2 0x100 EXP SWAP1 DIV PUSH1 0xFF AND ISZERO SWAP1 POP DUP1 ISZERO PUSH2 0x12B7 JUMPI PUSH1 0x1 DUP1 PUSH0 PUSH2 0x100 EXP DUP2 SLOAD DUP2 PUSH1 0xFF MUL NOT AND SWAP1 DUP4 ISZERO ISZERO MUL OR SWAP1 SSTORE POP DUP2 PUSH0 DUP2 SWAP1 SSTORE POP JUMPDEST PUSH32 0x0 PUSH20 0xFFFFFFFFFFFFFFFFFFFFFFFFFFFFFFFFFFFFFFFF AND DUP11 PUSH20 0xFFFFFFFFFFFFFFFFFFFFFFFFFFFFFFFFFFFFFFFF AND EQ PUSH1 0x40 MLOAD DUP1 PUSH1 0x40 ADD PUSH1 0x40 MSTORE DUP1 PUSH1 0x2 DUP2 MSTORE PUSH1 0x20 ADD PUSH32 0x3837000000000000000000000000000000000000000000000000000000000000 DUP2 MSTORE POP SWAP1 PUSH2 0x137D JUMPI PUSH1 0x40 MLOAD PUSH32 0x8C379A000000000000000000000000000000000000000000000000000000000 DUP2 MSTORE PUSH1 0x4 ADD PUSH2 0x1374 SWAP2 SWAP1 PUSH2 0x2852 JUMP JUMPDEST PUSH1 0x40 MLOAD DUP1 SWAP2 SUB SWAP1 REVERT JUMPDEST POP PUSH2 0x1387 DUP7 PUSH2 0x1FA7 JUMP JUMPDEST PUSH2 0x1390 DUP6 PUSH2 0x1FBA JUMP JUMPDEST PUSH2 0x1399 DUP8 PUSH2 0x1FCD JUMP JUMPDEST DUP9 PUSH1 0x37 PUSH0 PUSH2 0x100 EXP DUP2 SLOAD DUP2 PUSH20 0xFFFFFFFFFFFFFFFFFFFFFFFFFFFFFFFFFFFFFFFF MUL NOT AND SWAP1 DUP4 PUSH20 0xFFFFFFFFFFFFFFFFFFFFFFFFFFFFFFFFFFFFFFFF AND MUL OR SWAP1 SSTORE POP DUP8 PUSH1 0x3D PUSH1 0x1 PUSH2 0x100 EXP DUP2 SLOAD DUP2 PUSH20 0xFFFFFFFFFFFFFFFFFFFFFFFFFFFFFFFFFFFFFFFF MUL NOT AND SWAP1 DUP4 PUSH20 0xFFFFFFFFFFFFFFFFFFFFFFFFFFFFFFFFFFFFFFFF AND MUL OR SWAP1 SSTORE POP PUSH2 0x1422 PUSH2 0x1A86 JUMP JUMPDEST PUSH1 0x35 DUP2 SWAP1 SSTORE POP PUSH32 0x0 PUSH20 0xFFFFFFFFFFFFFFFFFFFFFFFFFFFFFFFFFFFFFFFF AND DUP10 PUSH20 0xFFFFFFFFFFFFFFFFFFFFFFFFFFFFFFFFFFFFFFFF AND PUSH32 0x40251FBFB6656CFA65A00D7879029FEC1FAD21D28FDCFF2F4F68F52795B74F2C DUP11 DUP11 DUP11 DUP11 DUP11 DUP11 PUSH1 0x40 MLOAD PUSH2 0x14AF SWAP7 SWAP6 SWAP5 SWAP4 SWAP3 SWAP2 SWAP1 PUSH2 0x3414 JUMP JUMPDEST PUSH1 0x40 MLOAD DUP1 SWAP2 SUB SWAP1 LOG3 DUP1 ISZERO PUSH2 0x14D7 JUMPI PUSH0 PUSH1 0x1 PUSH0 PUSH2 0x100 EXP DUP2 SLOAD DUP2 PUSH1 0xFF MUL NOT AND SWAP1 DUP4 ISZERO ISZERO MUL OR SWAP1 SSTORE POP JUMPDEST POP POP POP POP POP POP POP POP POP POP JUMP JUMPDEST PUSH0 PUSH1 0x40 MLOAD DUP1 PUSH1 0x40 ADD PUSH1 0x40 MSTORE DUP1 PUSH1 0x2 DUP2 MSTORE PUSH1 0x20 ADD PUSH32 0x3830000000000000000000000000000000000000000000000000000000000000 DUP2 MSTORE POP PUSH1 0x40 MLOAD PUSH32 0x8C379A000000000000000000000000000000000000000000000000000000000 DUP2 MSTORE PUSH1 0x4 ADD PUSH2 0x154D SWAP2 SWAP1 PUSH2 0x2852 JUMP JUMPDEST PUSH1 0x40 MLOAD DUP1 SWAP2 SUB SWAP1 REVERT JUMPDEST PUSH0 PUSH1 0x38 PUSH0 DUP4 PUSH20 0xFFFFFFFFFFFFFFFFFFFFFFFFFFFFFFFFFFFFFFFF AND PUSH20 0xFFFFFFFFFFFFFFFFFFFFFFFFFFFFFFFFFFFFFFFF AND DUP2 MSTORE PUSH1 0x20 ADD SWAP1 DUP2 MSTORE PUSH1 0x20 ADD PUSH0 KECCAK256 PUSH0 ADD PUSH1 0x10 SWAP1 SLOAD SWAP1 PUSH2 0x100 EXP SWAP1 DIV PUSH16 0xFFFFFFFFFFFFFFFFFFFFFFFFFFFFFFFF AND PUSH16 0xFFFFFFFFFFFFFFFFFFFFFFFFFFFFFFFF AND SWAP1 POP SWAP2 SWAP1 POP JUMP JUMPDEST PUSH0 PUSH32 0x0 PUSH20 0xFFFFFFFFFFFFFFFFFFFFFFFFFFFFFFFFFFFFFFFF AND PUSH4 0x707CD716 PUSH1 0x40 MLOAD DUP2 PUSH4 0xFFFFFFFF AND PUSH1 0xE0 SHL DUP2 MSTORE PUSH1 0x4 ADD PUSH1 0x20 PUSH1 0x40 MLOAD DUP1 DUP4 SUB DUP2 DUP7 GAS STATICCALL ISZERO DUP1 ISZERO PUSH2 0x1636 JUMPI RETURNDATASIZE PUSH0 DUP1 RETURNDATACOPY RETURNDATASIZE PUSH0 REVERT JUMPDEST POP POP POP POP PUSH1 0x40 MLOAD RETURNDATASIZE PUSH1 0x1F NOT PUSH1 0x1F DUP3 ADD AND DUP3 ADD DUP1 PUSH1 0x40 MSTORE POP DUP2 ADD SWAP1 PUSH2 0x165A SWAP2 SWAP1 PUSH2 0x3490 JUMP JUMPDEST SWAP1 POP DUP1 PUSH20 0xFFFFFFFFFFFFFFFFFFFFFFFFFFFFFFFFFFFFFFFF AND PUSH4 0x7BE53CA1 CALLER PUSH1 0x40 MLOAD DUP3 PUSH4 0xFFFFFFFF AND PUSH1 0xE0 SHL DUP2 MSTORE PUSH1 0x4 ADD PUSH2 0x1695 SWAP2 SWAP1 PUSH2 0x2D0D JUMP JUMPDEST PUSH1 0x20 PUSH1 0x40 MLOAD DUP1 DUP4 SUB DUP2 DUP7 GAS STATICCALL ISZERO DUP1 ISZERO PUSH2 0x16B0 JUMPI RETURNDATASIZE PUSH0 DUP1 RETURNDATACOPY RETURNDATASIZE PUSH0 REVERT JUMPDEST POP POP POP POP PUSH1 0x40 MLOAD RETURNDATASIZE PUSH1 0x1F NOT PUSH1 0x1F DUP3 ADD AND DUP3 ADD DUP1 PUSH1 0x40 MSTORE POP DUP2 ADD SWAP1 PUSH2 0x16D4 SWAP2 SWAP1 PUSH2 0x34E5 JUMP JUMPDEST PUSH1 0x40 MLOAD DUP1 PUSH1 0x40 ADD PUSH1 0x40 MSTORE DUP1 PUSH1 0x1 DUP2 MSTORE PUSH1 0x20 ADD PUSH32 0x3100000000000000000000000000000000000000000000000000000000000000 DUP2 MSTORE POP SWAP1 PUSH2 0x174B JUMPI PUSH1 0x40 MLOAD PUSH32 0x8C379A000000000000000000000000000000000000000000000000000000000 DUP2 MSTORE PUSH1 0x4 ADD PUSH2 0x1742 SWAP2 SWAP1 PUSH2 0x2852 JUMP JUMPDEST PUSH1 0x40 MLOAD DUP1 SWAP2 SUB SWAP1 REVERT JUMPDEST POP DUP2 PUSH1 0x3D PUSH1 0x1 PUSH2 0x100 EXP DUP2 SLOAD DUP2 PUSH20 0xFFFFFFFFFFFFFFFFFFFFFFFFFFFFFFFFFFFFFFFF MUL NOT AND SWAP1 DUP4 PUSH20 0xFFFFFFFFFFFFFFFFFFFFFFFFFFFFFFFFFFFFFFFF AND MUL OR SWAP1 SSTORE POP POP POP JUMP JUMPDEST PUSH32 0x323DB0410FECC107E39E2AF5908671F4C8D106123B35A51501BB805C5FA36AA0 DUP2 JUMP JUMPDEST PUSH0 PUSH32 0x0 PUSH20 0xFFFFFFFFFFFFFFFFFFFFFFFFFFFFFFFFFFFFFFFF AND PUSH2 0x17F5 PUSH2 0x1B25 JUMP JUMPDEST PUSH20 0xFFFFFFFFFFFFFFFFFFFFFFFFFFFFFFFFFFFFFFFF AND EQ PUSH1 0x40 MLOAD DUP1 PUSH1 0x40 ADD PUSH1 0x40 MSTORE DUP1 PUSH1 0x2 DUP2 MSTORE PUSH1 0x20 ADD PUSH32 0x3233000000000000000000000000000000000000000000000000000000000000 DUP2 MSTORE POP SWAP1 PUSH2 0x1883 JUMPI PUSH1 0x40 MLOAD PUSH32 0x8C379A000000000000000000000000000000000000000000000000000000000 DUP2 MSTORE PUSH1 0x4 ADD PUSH2 0x187A SWAP2 SWAP1 PUSH2 0x2852 JUMP JUMPDEST PUSH1 0x40 MLOAD DUP1 SWAP2 SUB SWAP1 REVERT JUMPDEST POP PUSH2 0x1890 DUP5 PUSH0 DUP6 DUP6 PUSH2 0x1FEA JUMP JUMPDEST PUSH2 0x1898 PUSH2 0x10B2 JUMP JUMPDEST SWAP1 POP SWAP4 SWAP3 POP POP POP JUMP JUMPDEST PUSH0 PUSH1 0x38 PUSH0 DUP4 PUSH20 0xFFFFFFFFFFFFFFFFFFFFFFFFFFFFFFFFFFFFFFFF AND PUSH20 0xFFFFFFFFFFFFFFFFFFFFFFFFFFFFFFFFFFFFFFFF AND DUP2 MSTORE PUSH1 0x20 ADD SWAP1 DUP2 MSTORE PUSH1 0x20 ADD PUSH0 KECCAK256 PUSH0 ADD PUSH0 SWAP1 SLOAD SWAP1 PUSH2 0x100 EXP SWAP1 DIV PUSH16 0xFFFFFFFFFFFFFFFFFFFFFFFFFFFFFFFF AND PUSH16 0xFFFFFFFFFFFFFFFFFFFFFFFFFFFFFFFF AND SWAP1 POP SWAP2 SWAP1 POP JUMP JUMPDEST PUSH0 PUSH1 0x3A SLOAD SWAP1 POP SWAP1 JUMP JUMPDEST DUP1 PUSH1 0x36 PUSH0 DUP6 PUSH20 0xFFFFFFFFFFFFFFFFFFFFFFFFFFFFFFFFFFFFFFFF AND PUSH20 0xFFFFFFFFFFFFFFFFFFFFFFFFFFFFFFFFFFFFFFFF AND DUP2 MSTORE PUSH1 0x20 ADD SWAP1 DUP2 MSTORE PUSH1 0x20 ADD PUSH0 KECCAK256 PUSH0 DUP5 PUSH20 0xFFFFFFFFFFFFFFFFFFFFFFFFFFFFFFFFFFFFFFFF AND PUSH20 0xFFFFFFFFFFFFFFFFFFFFFFFFFFFFFFFFFFFFFFFF AND DUP2 MSTORE PUSH1 0x20 ADD SWAP1 DUP2 MSTORE PUSH1 0x20 ADD PUSH0 KECCAK256 DUP2 SWAP1 SSTORE POP PUSH1 0x37 PUSH0 SWAP1 SLOAD SWAP1 PUSH2 0x100 EXP SWAP1 DIV PUSH20 0xFFFFFFFFFFFFFFFFFFFFFFFFFFFFFFFFFFFFFFFF AND PUSH20 0xFFFFFFFFFFFFFFFFFFFFFFFFFFFFFFFFFFFFFFFF AND DUP3 PUSH20 0xFFFFFFFFFFFFFFFFFFFFFFFFFFFFFFFFFFFFFFFF AND DUP5 PUSH20 0xFFFFFFFFFFFFFFFFFFFFFFFFFFFFFFFFFFFFFFFF AND PUSH32 0xDA919360433220E13B51E8C211E490D148E61A3BD53DE8C097194E458B97F3E1 DUP5 PUSH1 0x40 MLOAD PUSH2 0x1A31 SWAP2 SWAP1 PUSH2 0x2AE8 JUMP JUMPDEST PUSH1 0x40 MLOAD DUP1 SWAP2 SUB SWAP1 LOG4 POP POP POP JUMP JUMPDEST PUSH0 DUP2 PUSH12 0x19D971E4FE8401E74000000 PUSH0 NOT SUB DIV DUP4 GT ISZERO DUP3 ISZERO OR PUSH2 0x1A5F JUMPI PUSH0 DUP1 REVERT JUMPDEST PUSH12 0x33B2E3C9FD0803CE8000000 PUSH12 0x19D971E4FE8401E74000000 DUP4 DUP6 MUL ADD DIV SWAP1 POP SWAP3 SWAP2 POP POP JUMP JUMPDEST PUSH0 PUSH32 0x8B73C3C69BB8FE3D512ECC4CF759CC79239F7B179B0FFACAA9A75D522B39400F PUSH2 0x1AB0 PUSH2 0x238B JUMP JUMPDEST DUP1 MLOAD SWAP1 PUSH1 0x20 ADD KECCAK256 PUSH1 0x40 MLOAD DUP1 PUSH1 0x40 ADD PUSH1 0x40 MSTORE DUP1 PUSH1 0x1 DUP2 MSTORE PUSH1 0x20 ADD PUSH32 0x3100000000000000000000000000000000000000000000000000000000000000 DUP2 MSTORE POP DUP1 MLOAD SWAP1 PUSH1 0x20 ADD KECCAK256 CHAINID ADDRESS PUSH1 0x40 MLOAD PUSH1 0x20 ADD PUSH2 0x1B0A SWAP6 SWAP5 SWAP4 SWAP3 SWAP2 SWAP1 PUSH2 0x3510 JUMP JUMPDEST PUSH1 0x40 MLOAD PUSH1 0x20 DUP2 DUP4 SUB SUB DUP2 MSTORE SWAP1 PUSH1 0x40 MSTORE DUP1 MLOAD SWAP1 PUSH1 0x20 ADD KECCAK256 SWAP1 POP SWAP1 JUMP JUMPDEST PUSH0 CALLER SWAP1 POP SWAP1 JUMP JUMPDEST PUSH0 DUP2 PUSH1 0x36 PUSH0 DUP7 PUSH20 0xFFFFFFFFFFFFFFFFFFFFFFFFFFFFFFFFFFFFFFFF AND PUSH20 0xFFFFFFFFFFFFFFFFFFFFFFFFFFFFFFFFFFFFFFFF AND DUP2 MSTORE PUSH1 0x20 ADD SWAP1 DUP2 MSTORE PUSH1 0x20 ADD PUSH0 KECCAK256 PUSH0 DUP6 PUSH20 0xFFFFFFFFFFFFFFFFFFFFFFFFFFFFFFFFFFFFFFFF AND PUSH20 0xFFFFFFFFFFFFFFFFFFFFFFFFFFFFFFFFFFFFFFFF AND DUP2 MSTORE PUSH1 0x20 ADD SWAP1 DUP2 MSTORE PUSH1 0x20 ADD PUSH0 KECCAK256 SLOAD PUSH2 0x1BB1 SWAP2 SWAP1 PUSH2 0x3561 JUMP JUMPDEST SWAP1 POP DUP1 PUSH1 0x36 PUSH0 DUP7 PUSH20 0xFFFFFFFFFFFFFFFFFFFFFFFFFFFFFFFFFFFFFFFF AND PUSH20 0xFFFFFFFFFFFFFFFFFFFFFFFFFFFFFFFFFFFFFFFF AND DUP2 MSTORE PUSH1 0x20 ADD SWAP1 DUP2 MSTORE PUSH1 0x20 ADD PUSH0 KECCAK256 PUSH0 DUP6 PUSH20 0xFFFFFFFFFFFFFFFFFFFFFFFFFFFFFFFFFFFFFFFF AND PUSH20 0xFFFFFFFFFFFFFFFFFFFFFFFFFFFFFFFFFFFFFFFF AND DUP2 MSTORE PUSH1 0x20 ADD SWAP1 DUP2 MSTORE PUSH1 0x20 ADD PUSH0 KECCAK256 DUP2 SWAP1 SSTORE POP PUSH1 0x37 PUSH0 SWAP1 SLOAD SWAP1 PUSH2 0x100 EXP SWAP1 DIV PUSH20 0xFFFFFFFFFFFFFFFFFFFFFFFFFFFFFFFFFFFFFFFF AND PUSH20 0xFFFFFFFFFFFFFFFFFFFFFFFFFFFFFFFFFFFFFFFF AND DUP4 PUSH20 0xFFFFFFFFFFFFFFFFFFFFFFFFFFFFFFFFFFFFFFFF AND DUP6 PUSH20 0xFFFFFFFFFFFFFFFFFFFFFFFFFFFFFFFFFFFFFFFF AND PUSH32 0xDA919360433220E13B51E8C211E490D148E61A3BD53DE8C097194E458B97F3E1 DUP5 PUSH1 0x40 MLOAD PUSH2 0x1CC5 SWAP2 SWAP1 PUSH2 0x2AE8 JUMP JUMPDEST PUSH1 0x40 MLOAD DUP1 SWAP2 SUB SWAP1 LOG4 POP POP POP POP JUMP JUMPDEST PUSH0 DUP1 PUSH2 0x1CE8 DUP4 DUP6 PUSH2 0x239A SWAP1 SWAP2 SWAP1 PUSH4 0xFFFFFFFF AND JUMP JUMPDEST SWAP1 POP PUSH0 DUP2 EQ ISZERO PUSH1 0x40 MLOAD DUP1 PUSH1 0x40 ADD PUSH1 0x40 MSTORE DUP1 PUSH1 0x2 DUP2 MSTORE PUSH1 0x20 ADD PUSH32 0x3234000000000000000000000000000000000000000000000000000000000000 DUP2 MSTORE POP SWAP1 PUSH2 0x1D65 JUMPI PUSH1 0x40 MLOAD PUSH32 0x8C379A000000000000000000000000000000000000000000000000000000000 DUP2 MSTORE PUSH1 0x4 ADD PUSH2 0x1D5C SWAP2 SWAP1 PUSH2 0x2852 JUMP JUMPDEST PUSH1 0x40 MLOAD DUP1 SWAP2 SUB SWAP1 REVERT JUMPDEST POP PUSH0 PUSH2 0x1D70 DUP7 PUSH2 0x18A1 JUMP JUMPDEST SWAP1 POP PUSH0 PUSH2 0x1DF3 PUSH1 0x38 PUSH0 DUP10 PUSH20 0xFFFFFFFFFFFFFFFFFFFFFFFFFFFFFFFFFFFFFFFF AND PUSH20 0xFFFFFFFFFFFFFFFFFFFFFFFFFFFFFFFFFFFFFFFF AND DUP2 MSTORE PUSH1 0x20 ADD SWAP1 DUP2 MSTORE PUSH1 0x20 ADD PUSH0 KECCAK256 PUSH0 ADD PUSH1 0x10 SWAP1 SLOAD SWAP1 PUSH2 0x100 EXP SWAP1 DIV PUSH16 0xFFFFFFFFFFFFFFFFFFFFFFFFFFFFFFFF AND PUSH16 0xFFFFFFFFFFFFFFFFFFFFFFFFFFFFFFFF AND DUP4 PUSH2 0x1A3E SWAP1 SWAP2 SWAP1 PUSH4 0xFFFFFFFF AND JUMP JUMPDEST PUSH2 0x1E06 DUP7 DUP5 PUSH2 0x1A3E SWAP1 SWAP2 SWAP1 PUSH4 0xFFFFFFFF AND JUMP JUMPDEST PUSH2 0x1E10 SWAP2 SWAP1 PUSH2 0x3561 JUMP JUMPDEST SWAP1 POP PUSH2 0x1E1B DUP6 PUSH2 0x23DE JUMP JUMPDEST PUSH1 0x38 PUSH0 DUP10 PUSH20 0xFFFFFFFFFFFFFFFFFFFFFFFFFFFFFFFFFFFFFFFF AND PUSH20 0xFFFFFFFFFFFFFFFFFFFFFFFFFFFFFFFFFFFFFFFF AND DUP2 MSTORE PUSH1 0x20 ADD SWAP1 DUP2 MSTORE PUSH1 0x20 ADD PUSH0 KECCAK256 PUSH0 ADD PUSH1 0x10 PUSH2 0x100 EXP DUP2 SLOAD DUP2 PUSH16 0xFFFFFFFFFFFFFFFFFFFFFFFFFFFFFFFF MUL NOT AND SWAP1 DUP4 PUSH16 0xFFFFFFFFFFFFFFFFFFFFFFFFFFFFFFFF AND MUL OR SWAP1 SSTORE POP PUSH2 0x1EA2 DUP8 PUSH2 0x1E9D DUP6 PUSH2 0x23DE JUMP JUMPDEST PUSH2 0x243C JUMP JUMPDEST PUSH0 DUP2 DUP8 PUSH2 0x1EAF SWAP2 SWAP1 PUSH2 0x32E8 JUMP JUMPDEST SWAP1 POP DUP8 PUSH20 0xFFFFFFFFFFFFFFFFFFFFFFFFFFFFFFFFFFFFFFFF AND PUSH0 PUSH20 0xFFFFFFFFFFFFFFFFFFFFFFFFFFFFFFFFFFFFFFFF AND PUSH32 0xDDF252AD1BE2C89B69C2B068FC378DAA952BA7F163C4A11628F55A4DF523B3EF DUP4 PUSH1 0x40 MLOAD PUSH2 0x1F0E SWAP2 SWAP1 PUSH2 0x2AE8 JUMP JUMPDEST PUSH1 0x40 MLOAD DUP1 SWAP2 SUB SWAP1 LOG3 DUP8 PUSH20 0xFFFFFFFFFFFFFFFFFFFFFFFFFFFFFFFFFFFFFFFF AND DUP10 PUSH20 0xFFFFFFFFFFFFFFFFFFFFFFFFFFFFFFFFFFFFFFFF AND PUSH32 0x458F5FA412D0F69B08DD84872B0215675CC67BC1D5B6FD93300A1C3878B86196 DUP4 DUP6 DUP11 PUSH1 0x40 MLOAD PUSH2 0x1F77 SWAP4 SWAP3 SWAP2 SWAP1 PUSH2 0x3594 JUMP JUMPDEST PUSH1 0x40 MLOAD DUP1 SWAP2 SUB SWAP1 LOG3 PUSH0 DUP4 EQ SWAP5 POP POP POP POP POP SWAP5 SWAP4 POP POP POP POP JUMP JUMPDEST PUSH0 PUSH1 0x1 SWAP1 POP SWAP1 JUMP JUMPDEST PUSH0 DUP1 ADDRESS EXTCODESIZE SWAP1 POP PUSH0 DUP2 EQ SWAP2 POP POP SWAP1 JUMP JUMPDEST DUP1 PUSH1 0x3B SWAP1 DUP2 PUSH2 0x1FB6 SWAP2 SWAP1 PUSH2 0x375D JUMP JUMPDEST POP POP JUMP JUMPDEST DUP1 PUSH1 0x3C SWAP1 DUP2 PUSH2 0x1FC9 SWAP2 SWAP1 PUSH2 0x375D JUMP JUMPDEST POP POP JUMP JUMPDEST DUP1 PUSH1 0x3D PUSH0 PUSH2 0x100 EXP DUP2 SLOAD DUP2 PUSH1 0xFF MUL NOT AND SWAP1 DUP4 PUSH1 0xFF AND MUL OR SWAP1 SSTORE POP POP JUMP JUMPDEST PUSH0 PUSH2 0x1FFE DUP3 DUP5 PUSH2 0x239A SWAP1 SWAP2 SWAP1 PUSH4 0xFFFFFFFF AND JUMP JUMPDEST SWAP1 POP PUSH0 DUP2 EQ ISZERO PUSH1 0x40 MLOAD DUP1 PUSH1 0x40 ADD PUSH1 0x40 MSTORE DUP1 PUSH1 0x2 DUP2 MSTORE PUSH1 0x20 ADD PUSH32 0x3235000000000000000000000000000000000000000000000000000000000000 DUP2 MSTORE POP SWAP1 PUSH2 0x207B JUMPI PUSH1 0x40 MLOAD PUSH32 0x8C379A000000000000000000000000000000000000000000000000000000000 DUP2 MSTORE PUSH1 0x4 ADD PUSH2 0x2072 SWAP2 SWAP1 PUSH2 0x2852 JUMP JUMPDEST PUSH1 0x40 MLOAD DUP1 SWAP2 SUB SWAP1 REVERT JUMPDEST POP PUSH0 PUSH2 0x2086 DUP7 PUSH2 0x18A1 JUMP JUMPDEST SWAP1 POP PUSH0 PUSH2 0x2109 PUSH1 0x38 PUSH0 DUP10 PUSH20 0xFFFFFFFFFFFFFFFFFFFFFFFFFFFFFFFFFFFFFFFF AND PUSH20 0xFFFFFFFFFFFFFFFFFFFFFFFFFFFFFFFFFFFFFFFF AND DUP2 MSTORE PUSH1 0x20 ADD SWAP1 DUP2 MSTORE PUSH1 0x20 ADD PUSH0 KECCAK256 PUSH0 ADD PUSH1 0x10 SWAP1 SLOAD SWAP1 PUSH2 0x100 EXP SWAP1 DIV PUSH16 0xFFFFFFFFFFFFFFFFFFFFFFFFFFFFFFFF AND PUSH16 0xFFFFFFFFFFFFFFFFFFFFFFFFFFFFFFFF AND DUP4 PUSH2 0x1A3E SWAP1 SWAP2 SWAP1 PUSH4 0xFFFFFFFF AND JUMP JUMPDEST PUSH2 0x211C DUP6 DUP5 PUSH2 0x1A3E SWAP1 SWAP2 SWAP1 PUSH4 0xFFFFFFFF AND JUMP JUMPDEST PUSH2 0x2126 SWAP2 SWAP1 PUSH2 0x3561 JUMP JUMPDEST SWAP1 POP PUSH2 0x2131 DUP5 PUSH2 0x23DE JUMP JUMPDEST PUSH1 0x38 PUSH0 DUP10 PUSH20 0xFFFFFFFFFFFFFFFFFFFFFFFFFFFFFFFFFFFFFFFF AND PUSH20 0xFFFFFFFFFFFFFFFFFFFFFFFFFFFFFFFFFFFFFFFF AND DUP2 MSTORE PUSH1 0x20 ADD SWAP1 DUP2 MSTORE PUSH1 0x20 ADD PUSH0 KECCAK256 PUSH0 ADD PUSH1 0x10 PUSH2 0x100 EXP DUP2 SLOAD DUP2 PUSH16 0xFFFFFFFFFFFFFFFFFFFFFFFFFFFFFFFF MUL NOT AND SWAP1 DUP4 PUSH16 0xFFFFFFFFFFFFFFFFFFFFFFFFFFFFFFFF AND MUL OR SWAP1 SSTORE POP PUSH2 0x21B8 DUP8 PUSH2 0x21B3 DUP6 PUSH2 0x23DE JUMP JUMPDEST PUSH2 0x260F JUMP JUMPDEST DUP5 DUP2 GT ISZERO PUSH2 0x22A3 JUMPI PUSH0 DUP6 DUP3 PUSH2 0x21CD SWAP2 SWAP1 PUSH2 0x3561 JUMP JUMPDEST SWAP1 POP DUP8 PUSH20 0xFFFFFFFFFFFFFFFFFFFFFFFFFFFFFFFFFFFFFFFF AND PUSH0 PUSH20 0xFFFFFFFFFFFFFFFFFFFFFFFFFFFFFFFFFFFFFFFF AND PUSH32 0xDDF252AD1BE2C89B69C2B068FC378DAA952BA7F163C4A11628F55A4DF523B3EF DUP4 PUSH1 0x40 MLOAD PUSH2 0x222C SWAP2 SWAP1 PUSH2 0x2AE8 JUMP JUMPDEST PUSH1 0x40 MLOAD DUP1 SWAP2 SUB SWAP1 LOG3 DUP8 PUSH20 0xFFFFFFFFFFFFFFFFFFFFFFFFFFFFFFFFFFFFFFFF AND DUP9 PUSH20 0xFFFFFFFFFFFFFFFFFFFFFFFFFFFFFFFFFFFFFFFF AND PUSH32 0x458F5FA412D0F69B08DD84872B0215675CC67BC1D5B6FD93300A1C3878B86196 DUP4 DUP6 DUP10 PUSH1 0x40 MLOAD PUSH2 0x2295 SWAP4 SWAP3 SWAP2 SWAP1 PUSH2 0x3594 JUMP JUMPDEST PUSH1 0x40 MLOAD DUP1 SWAP2 SUB SWAP1 LOG3 POP PUSH2 0x2382 JUMP JUMPDEST PUSH0 DUP2 DUP7 PUSH2 0x22B0 SWAP2 SWAP1 PUSH2 0x3561 JUMP JUMPDEST SWAP1 POP PUSH0 PUSH20 0xFFFFFFFFFFFFFFFFFFFFFFFFFFFFFFFFFFFFFFFF AND DUP9 PUSH20 0xFFFFFFFFFFFFFFFFFFFFFFFFFFFFFFFFFFFFFFFF AND PUSH32 0xDDF252AD1BE2C89B69C2B068FC378DAA952BA7F163C4A11628F55A4DF523B3EF DUP4 PUSH1 0x40 MLOAD PUSH2 0x230F SWAP2 SWAP1 PUSH2 0x2AE8 JUMP JUMPDEST PUSH1 0x40 MLOAD DUP1 SWAP2 SUB SWAP1 LOG3 DUP7 PUSH20 0xFFFFFFFFFFFFFFFFFFFFFFFFFFFFFFFFFFFFFFFF AND DUP9 PUSH20 0xFFFFFFFFFFFFFFFFFFFFFFFFFFFFFFFFFFFFFFFF AND PUSH32 0x4CF25BC1D991C17529C25213D3CC0CDA295EEAAD5F13F361969B12EA48015F90 DUP4 DUP6 DUP10 PUSH1 0x40 MLOAD PUSH2 0x2378 SWAP4 SWAP3 SWAP2 SWAP1 PUSH2 0x3594 JUMP JUMPDEST PUSH1 0x40 MLOAD DUP1 SWAP2 SUB SWAP1 LOG3 POP JUMPDEST POP POP POP POP POP POP POP JUMP JUMPDEST PUSH1 0x60 PUSH2 0x2395 PUSH2 0x656 JUMP JUMPDEST SWAP1 POP SWAP1 JUMP JUMPDEST PUSH0 PUSH12 0x33B2E3C9FD0803CE8000000 PUSH1 0x2 DUP4 DIV PUSH0 NOT SUB DIV DUP4 GT ISZERO ISZERO DUP3 ISZERO OR ISZERO PUSH2 0x23C0 JUMPI PUSH0 DUP1 REVERT JUMPDEST DUP2 PUSH1 0x2 DUP4 DIV PUSH12 0x33B2E3C9FD0803CE8000000 DUP6 MUL ADD DIV SWAP1 POP SWAP3 SWAP2 POP POP JUMP JUMPDEST PUSH0 PUSH16 0xFFFFFFFFFFFFFFFFFFFFFFFFFFFFFFFF DUP1 AND DUP3 GT ISZERO PUSH2 0x2434 JUMPI PUSH1 0x40 MLOAD PUSH32 0x8C379A000000000000000000000000000000000000000000000000000000000 DUP2 MSTORE PUSH1 0x4 ADD PUSH2 0x242B SWAP1 PUSH2 0x389C JUMP JUMPDEST PUSH1 0x40 MLOAD DUP1 SWAP2 SUB SWAP1 REVERT JUMPDEST DUP2 SWAP1 POP SWAP2 SWAP1 POP JUMP JUMPDEST PUSH0 PUSH1 0x3A SLOAD SWAP1 POP DUP2 PUSH16 0xFFFFFFFFFFFFFFFFFFFFFFFFFFFFFFFF AND DUP2 PUSH2 0x2460 SWAP2 SWAP1 PUSH2 0x32E8 JUMP JUMPDEST PUSH1 0x3A DUP2 SWAP1 SSTORE POP PUSH0 PUSH1 0x38 PUSH0 DUP6 PUSH20 0xFFFFFFFFFFFFFFFFFFFFFFFFFFFFFFFFFFFFFFFF AND PUSH20 0xFFFFFFFFFFFFFFFFFFFFFFFFFFFFFFFFFFFFFFFF AND DUP2 MSTORE PUSH1 0x20 ADD SWAP1 DUP2 MSTORE PUSH1 0x20 ADD PUSH0 KECCAK256 PUSH0 ADD PUSH0 SWAP1 SLOAD SWAP1 PUSH2 0x100 EXP SWAP1 DIV PUSH16 0xFFFFFFFFFFFFFFFFFFFFFFFFFFFFFFFF AND SWAP1 POP DUP3 DUP2 PUSH2 0x24D0 SWAP2 SWAP1 PUSH2 0x38D5 JUMP JUMPDEST PUSH1 0x38 PUSH0 DUP7 PUSH20 0xFFFFFFFFFFFFFFFFFFFFFFFFFFFFFFFFFFFFFFFF AND PUSH20 0xFFFFFFFFFFFFFFFFFFFFFFFFFFFFFFFFFFFFFFFF AND DUP2 MSTORE PUSH1 0x20 ADD SWAP1 DUP2 MSTORE PUSH1 0x20 ADD PUSH0 KECCAK256 PUSH0 ADD PUSH0 PUSH2 0x100 EXP DUP2 SLOAD DUP2 PUSH16 0xFFFFFFFFFFFFFFFFFFFFFFFFFFFFFFFF MUL NOT AND SWAP1 DUP4 PUSH16 0xFFFFFFFFFFFFFFFFFFFFFFFFFFFFFFFF AND MUL OR SWAP1 SSTORE POP PUSH0 PUSH1 0x3D PUSH1 0x1 SWAP1 SLOAD SWAP1 PUSH2 0x100 EXP SWAP1 DIV PUSH20 0xFFFFFFFFFFFFFFFFFFFFFFFFFFFFFFFFFFFFFFFF AND SWAP1 POP PUSH0 PUSH20 0xFFFFFFFFFFFFFFFFFFFFFFFFFFFFFFFFFFFFFFFF AND DUP2 PUSH20 0xFFFFFFFFFFFFFFFFFFFFFFFFFFFFFFFFFFFFFFFF AND EQ PUSH2 0x2608 JUMPI DUP1 PUSH20 0xFFFFFFFFFFFFFFFFFFFFFFFFFFFFFFFFFFFFFFFF AND PUSH4 0x31873E2E DUP7 DUP6 DUP6 PUSH1 0x40 MLOAD DUP5 PUSH4 0xFFFFFFFF AND PUSH1 0xE0 SHL DUP2 MSTORE PUSH1 0x4 ADD PUSH2 0x25DA SWAP4 SWAP3 SWAP2 SWAP1 PUSH2 0x3948 JUMP JUMPDEST PUSH0 PUSH1 0x40 MLOAD DUP1 DUP4 SUB DUP2 PUSH0 DUP8 DUP1 EXTCODESIZE ISZERO DUP1 ISZERO PUSH2 0x25F1 JUMPI PUSH0 DUP1 REVERT JUMPDEST POP GAS CALL ISZERO DUP1 ISZERO PUSH2 0x2603 JUMPI RETURNDATASIZE PUSH0 DUP1 RETURNDATACOPY RETURNDATASIZE PUSH0 REVERT JUMPDEST POP POP POP POP JUMPDEST POP POP POP POP POP JUMP JUMPDEST PUSH0 PUSH1 0x3A SLOAD SWAP1 POP DUP2 PUSH16 0xFFFFFFFFFFFFFFFFFFFFFFFFFFFFFFFF AND DUP2 PUSH2 0x2633 SWAP2 SWAP1 PUSH2 0x3561 JUMP JUMPDEST PUSH1 0x3A DUP2 SWAP1 SSTORE POP PUSH0 PUSH1 0x38 PUSH0 DUP6 PUSH20 0xFFFFFFFFFFFFFFFFFFFFFFFFFFFFFFFFFFFFFFFF AND PUSH20 0xFFFFFFFFFFFFFFFFFFFFFFFFFFFFFFFFFFFFFFFF AND DUP2 MSTORE PUSH1 0x20 ADD SWAP1 DUP2 MSTORE PUSH1 0x20 ADD PUSH0 KECCAK256 PUSH0 ADD PUSH0 SWAP1 SLOAD SWAP1 PUSH2 0x100 EXP SWAP1 DIV PUSH16 0xFFFFFFFFFFFFFFFFFFFFFFFFFFFFFFFF AND SWAP1 POP DUP3 DUP2 PUSH2 0x26A3 SWAP2 SWAP1 PUSH2 0x397D JUMP JUMPDEST PUSH1 0x38 PUSH0 DUP7 PUSH20 0xFFFFFFFFFFFFFFFFFFFFFFFFFFFFFFFFFFFFFFFF AND PUSH20 0xFFFFFFFFFFFFFFFFFFFFFFFFFFFFFFFFFFFFFFFF AND DUP2 MSTORE PUSH1 0x20 ADD SWAP1 DUP2 MSTORE PUSH1 0x20 ADD PUSH0 KECCAK256 PUSH0 ADD PUSH0 PUSH2 0x100 EXP DUP2 SLOAD DUP2 PUSH16 0xFFFFFFFFFFFFFFFFFFFFFFFFFFFFFFFF MUL NOT AND SWAP1 DUP4 PUSH16 0xFFFFFFFFFFFFFFFFFFFFFFFFFFFFFFFF AND MUL OR SWAP1 SSTORE POP PUSH0 PUSH1 0x3D PUSH1 0x1 SWAP1 SLOAD SWAP1 PUSH2 0x100 EXP SWAP1 DIV PUSH20 0xFFFFFFFFFFFFFFFFFFFFFFFFFFFFFFFFFFFFFFFF AND SWAP1 POP PUSH0 PUSH20 0xFFFFFFFFFFFFFFFFFFFFFFFFFFFFFFFFFFFFFFFF AND DUP2 PUSH20 0xFFFFFFFFFFFFFFFFFFFFFFFFFFFFFFFFFFFFFFFF AND EQ PUSH2 0x27DB JUMPI DUP1 PUSH20 0xFFFFFFFFFFFFFFFFFFFFFFFFFFFFFFFFFFFFFFFF AND PUSH4 0x31873E2E DUP7 DUP6 DUP6 PUSH1 0x40 MLOAD DUP5 PUSH4 0xFFFFFFFF AND PUSH1 0xE0 SHL DUP2 MSTORE PUSH1 0x4 ADD PUSH2 0x27AD SWAP4 SWAP3 SWAP2 SWAP1 PUSH2 0x3948 JUMP JUMPDEST PUSH0 PUSH1 0x40 MLOAD DUP1 DUP4 SUB DUP2 PUSH0 DUP8 DUP1 EXTCODESIZE ISZERO DUP1 ISZERO PUSH2 0x27C4 JUMPI PUSH0 DUP1 REVERT JUMPDEST POP GAS CALL ISZERO DUP1 ISZERO PUSH2 0x27D6 JUMPI RETURNDATASIZE PUSH0 DUP1 RETURNDATACOPY RETURNDATASIZE PUSH0 REVERT JUMPDEST POP POP POP POP JUMPDEST POP POP POP POP POP JUMP JUMPDEST PUSH0 DUP2 MLOAD SWAP1 POP SWAP2 SWAP1 POP JUMP JUMPDEST PUSH0 DUP3 DUP3 MSTORE PUSH1 0x20 DUP3 ADD SWAP1 POP SWAP3 SWAP2 POP POP JUMP JUMPDEST DUP3 DUP2 DUP4 MCOPY PUSH0 DUP4 DUP4 ADD MSTORE POP POP POP JUMP JUMPDEST PUSH0 PUSH1 0x1F NOT PUSH1 0x1F DUP4 ADD AND SWAP1 POP SWAP2 SWAP1 POP JUMP JUMPDEST PUSH0 PUSH2 0x2824 DUP3 PUSH2 0x27E2 JUMP JUMPDEST PUSH2 0x282E DUP2 DUP6 PUSH2 0x27EC JUMP JUMPDEST SWAP4 POP PUSH2 0x283E DUP2 DUP6 PUSH1 0x20 DUP7 ADD PUSH2 0x27FC JUMP JUMPDEST PUSH2 0x2847 DUP2 PUSH2 0x280A JUMP JUMPDEST DUP5 ADD SWAP2 POP POP SWAP3 SWAP2 POP POP JUMP JUMPDEST PUSH0 PUSH1 0x20 DUP3 ADD SWAP1 POP DUP2 DUP2 SUB PUSH0 DUP4 ADD MSTORE PUSH2 0x286A DUP2 DUP5 PUSH2 0x281A JUMP JUMPDEST SWAP1 POP SWAP3 SWAP2 POP POP JUMP JUMPDEST PUSH0 PUSH1 0x40 MLOAD SWAP1 POP SWAP1 JUMP JUMPDEST PUSH0 DUP1 REVERT JUMPDEST PUSH0 DUP1 REVERT JUMPDEST PUSH0 PUSH20 0xFFFFFFFFFFFFFFFFFFFFFFFFFFFFFFFFFFFFFFFF DUP3 AND SWAP1 POP SWAP2 SWAP1 POP JUMP JUMPDEST PUSH0 PUSH2 0x28AC DUP3 PUSH2 0x2883 JUMP JUMPDEST SWAP1 POP SWAP2 SWAP1 POP JUMP JUMPDEST PUSH2 0x28BC DUP2 PUSH2 0x28A2 JUMP JUMPDEST DUP2 EQ PUSH2 0x28C6 JUMPI PUSH0 DUP1 REVERT JUMPDEST POP JUMP JUMPDEST PUSH0 DUP2 CALLDATALOAD SWAP1 POP PUSH2 0x28D7 DUP2 PUSH2 0x28B3 JUMP JUMPDEST SWAP3 SWAP2 POP POP JUMP JUMPDEST PUSH0 DUP2 SWAP1 POP SWAP2 SWAP1 POP JUMP JUMPDEST PUSH2 0x28EF DUP2 PUSH2 0x28DD JUMP JUMPDEST DUP2 EQ PUSH2 0x28F9 JUMPI PUSH0 DUP1 REVERT JUMPDEST POP JUMP JUMPDEST PUSH0 DUP2 CALLDATALOAD SWAP1 POP PUSH2 0x290A DUP2 PUSH2 0x28E6 JUMP JUMPDEST SWAP3 SWAP2 POP POP JUMP JUMPDEST PUSH0 DUP1 PUSH1 0x40 DUP4 DUP6 SUB SLT ISZERO PUSH2 0x2926 JUMPI PUSH2 0x2925 PUSH2 0x287B JUMP JUMPDEST JUMPDEST PUSH0 PUSH2 0x2933 DUP6 DUP3 DUP7 ADD PUSH2 0x28C9 JUMP JUMPDEST SWAP3 POP POP PUSH1 0x20 PUSH2 0x2944 DUP6 DUP3 DUP7 ADD PUSH2 0x28FC JUMP JUMPDEST SWAP2 POP POP SWAP3 POP SWAP3 SWAP1 POP JUMP JUMPDEST PUSH0 DUP2 ISZERO ISZERO SWAP1 POP SWAP2 SWAP1 POP JUMP JUMPDEST PUSH2 0x2962 DUP2 PUSH2 0x294E JUMP JUMPDEST DUP3 MSTORE POP POP JUMP JUMPDEST PUSH0 PUSH1 0x20 DUP3 ADD SWAP1 POP PUSH2 0x297B PUSH0 DUP4 ADD DUP5 PUSH2 0x2959 JUMP JUMPDEST SWAP3 SWAP2 POP POP JUMP JUMPDEST PUSH0 PUSH1 0x20 DUP3 DUP5 SUB SLT ISZERO PUSH2 0x2996 JUMPI PUSH2 0x2995 PUSH2 0x287B JUMP JUMPDEST JUMPDEST PUSH0 PUSH2 0x29A3 DUP5 DUP3 DUP6 ADD PUSH2 0x28C9 JUMP JUMPDEST SWAP2 POP POP SWAP3 SWAP2 POP POP JUMP JUMPDEST PUSH2 0x29B5 DUP2 PUSH2 0x28DD JUMP JUMPDEST DUP3 MSTORE POP POP JUMP JUMPDEST PUSH0 PUSH1 0x40 DUP3 ADD SWAP1 POP PUSH2 0x29CE PUSH0 DUP4 ADD DUP6 PUSH2 0x29AC JUMP JUMPDEST PUSH2 0x29DB PUSH1 0x20 DUP4 ADD DUP5 PUSH2 0x29AC JUMP JUMPDEST SWAP4 SWAP3 POP POP POP JUMP JUMPDEST PUSH0 PUSH1 0xFF DUP3 AND SWAP1 POP SWAP2 SWAP1 POP JUMP JUMPDEST PUSH2 0x29F7 DUP2 PUSH2 0x29E2 JUMP JUMPDEST DUP2 EQ PUSH2 0x2A01 JUMPI PUSH0 DUP1 REVERT JUMPDEST POP JUMP JUMPDEST PUSH0 DUP2 CALLDATALOAD SWAP1 POP PUSH2 0x2A12 DUP2 PUSH2 0x29EE JUMP JUMPDEST SWAP3 SWAP2 POP POP JUMP JUMPDEST PUSH0 DUP2 SWAP1 POP SWAP2 SWAP1 POP JUMP JUMPDEST PUSH2 0x2A2A DUP2 PUSH2 0x2A18 JUMP JUMPDEST DUP2 EQ PUSH2 0x2A34 JUMPI PUSH0 DUP1 REVERT JUMPDEST POP JUMP JUMPDEST PUSH0 DUP2 CALLDATALOAD SWAP1 POP PUSH2 0x2A45 DUP2 PUSH2 0x2A21 JUMP JUMPDEST SWAP3 SWAP2 POP POP JUMP JUMPDEST PUSH0 DUP1 PUSH0 DUP1 PUSH0 DUP1 PUSH0 PUSH1 0xE0 DUP9 DUP11 SUB SLT ISZERO PUSH2 0x2A66 JUMPI PUSH2 0x2A65 PUSH2 0x287B JUMP JUMPDEST JUMPDEST PUSH0 PUSH2 0x2A73 DUP11 DUP3 DUP12 ADD PUSH2 0x28C9 JUMP JUMPDEST SWAP8 POP POP PUSH1 0x20 PUSH2 0x2A84 DUP11 DUP3 DUP12 ADD PUSH2 0x28C9 JUMP JUMPDEST SWAP7 POP POP PUSH1 0x40 PUSH2 0x2A95 DUP11 DUP3 DUP12 ADD PUSH2 0x28FC JUMP JUMPDEST SWAP6 POP POP PUSH1 0x60 PUSH2 0x2AA6 DUP11 DUP3 DUP12 ADD PUSH2 0x28FC JUMP JUMPDEST SWAP5 POP POP PUSH1 0x80 PUSH2 0x2AB7 DUP11 DUP3 DUP12 ADD PUSH2 0x2A04 JUMP JUMPDEST SWAP4 POP POP PUSH1 0xA0 PUSH2 0x2AC8 DUP11 DUP3 DUP12 ADD PUSH2 0x2A37 JUMP JUMPDEST SWAP3 POP POP PUSH1 0xC0 PUSH2 0x2AD9 DUP11 DUP3 DUP12 ADD PUSH2 0x2A37 JUMP JUMPDEST SWAP2 POP POP SWAP3 SWAP6 SWAP9 SWAP2 SWAP5 SWAP8 POP SWAP3 SWAP6 POP JUMP JUMPDEST PUSH0 PUSH1 0x20 DUP3 ADD SWAP1 POP PUSH2 0x2AFB PUSH0 DUP4 ADD DUP5 PUSH2 0x29AC JUMP JUMPDEST SWAP3 SWAP2 POP POP JUMP JUMPDEST PUSH0 DUP1 PUSH0 PUSH1 0x60 DUP5 DUP7 SUB SLT ISZERO PUSH2 0x2B18 JUMPI PUSH2 0x2B17 PUSH2 0x287B JUMP JUMPDEST JUMPDEST PUSH0 PUSH2 0x2B25 DUP7 DUP3 DUP8 ADD PUSH2 0x28C9 JUMP JUMPDEST SWAP4 POP POP PUSH1 0x20 PUSH2 0x2B36 DUP7 DUP3 DUP8 ADD PUSH2 0x28C9 JUMP JUMPDEST SWAP3 POP POP PUSH1 0x40 PUSH2 0x2B47 DUP7 DUP3 DUP8 ADD PUSH2 0x28FC JUMP JUMPDEST SWAP2 POP POP SWAP3 POP SWAP3 POP SWAP3 JUMP JUMPDEST PUSH2 0x2B5A DUP2 PUSH2 0x29E2 JUMP JUMPDEST DUP3 MSTORE POP POP JUMP JUMPDEST PUSH0 PUSH1 0x20 DUP3 ADD SWAP1 POP PUSH2 0x2B73 PUSH0 DUP4 ADD DUP5 PUSH2 0x2B51 JUMP JUMPDEST SWAP3 SWAP2 POP POP JUMP JUMPDEST PUSH2 0x2B82 DUP2 PUSH2 0x2A18 JUMP JUMPDEST DUP3 MSTORE POP POP JUMP JUMPDEST PUSH0 PUSH1 0x20 DUP3 ADD SWAP1 POP PUSH2 0x2B9B PUSH0 DUP4 ADD DUP5 PUSH2 0x2B79 JUMP JUMPDEST SWAP3 SWAP2 POP POP JUMP JUMPDEST PUSH0 DUP1 PUSH1 0x40 DUP4 DUP6 SUB SLT ISZERO PUSH2 0x2BB7 JUMPI PUSH2 0x2BB6 PUSH2 0x287B JUMP JUMPDEST JUMPDEST PUSH0 PUSH2 0x2BC4 DUP6 DUP3 DUP7 ADD PUSH2 0x28C9 JUMP JUMPDEST SWAP3 POP POP PUSH1 0x20 PUSH2 0x2BD5 DUP6 DUP3 DUP7 ADD PUSH2 0x28C9 JUMP JUMPDEST SWAP2 POP POP SWAP3 POP SWAP3 SWAP1 POP JUMP JUMPDEST PUSH0 DUP2 SWAP1 POP SWAP2 SWAP1 POP JUMP JUMPDEST PUSH0 PUSH2 0x2C02 PUSH2 0x2BFD PUSH2 0x2BF8 DUP5 PUSH2 0x2883 JUMP JUMPDEST PUSH2 0x2BDF JUMP JUMPDEST PUSH2 0x2883 JUMP JUMPDEST SWAP1 POP SWAP2 SWAP1 POP JUMP JUMPDEST PUSH0 PUSH2 0x2C13 DUP3 PUSH2 0x2BE8 JUMP JUMPDEST SWAP1 POP SWAP2 SWAP1 POP JUMP JUMPDEST PUSH0 PUSH2 0x2C24 DUP3 PUSH2 0x2C09 JUMP JUMPDEST SWAP1 POP SWAP2 SWAP1 POP JUMP JUMPDEST PUSH2 0x2C34 DUP2 PUSH2 0x2C1A JUMP JUMPDEST DUP3 MSTORE POP POP JUMP JUMPDEST PUSH0 PUSH1 0x20 DUP3 ADD SWAP1 POP PUSH2 0x2C4D PUSH0 DUP4 ADD DUP5 PUSH2 0x2C2B JUMP JUMPDEST SWAP3 SWAP2 POP POP JUMP JUMPDEST PUSH0 PUSH2 0x2C5D DUP3 PUSH2 0x2C09 JUMP JUMPDEST SWAP1 POP SWAP2 SWAP1 POP JUMP JUMPDEST PUSH2 0x2C6D DUP2 PUSH2 0x2C53 JUMP JUMPDEST DUP3 MSTORE POP POP JUMP JUMPDEST PUSH0 PUSH1 0x20 DUP3 ADD SWAP1 POP PUSH2 0x2C86 PUSH0 DUP4 ADD DUP5 PUSH2 0x2C64 JUMP JUMPDEST SWAP3 SWAP2 POP POP JUMP JUMPDEST PUSH0 DUP2 MLOAD SWAP1 POP SWAP2 SWAP1 POP JUMP JUMPDEST PUSH0 DUP3 DUP3 MSTORE PUSH1 0x20 DUP3 ADD SWAP1 POP SWAP3 SWAP2 POP POP JUMP JUMPDEST PUSH0 PUSH2 0x2CB0 DUP3 PUSH2 0x2C8C JUMP JUMPDEST PUSH2 0x2CBA DUP2 DUP6 PUSH2 0x2C96 JUMP JUMPDEST SWAP4 POP PUSH2 0x2CCA DUP2 DUP6 PUSH1 0x20 DUP7 ADD PUSH2 0x27FC JUMP JUMPDEST PUSH2 0x2CD3 DUP2 PUSH2 0x280A JUMP JUMPDEST DUP5 ADD SWAP2 POP POP SWAP3 SWAP2 POP POP JUMP JUMPDEST PUSH0 PUSH1 0x20 DUP3 ADD SWAP1 POP DUP2 DUP2 SUB PUSH0 DUP4 ADD MSTORE PUSH2 0x2CF6 DUP2 DUP5 PUSH2 0x2CA6 JUMP JUMPDEST SWAP1 POP SWAP3 SWAP2 POP POP JUMP JUMPDEST PUSH2 0x2D07 DUP2 PUSH2 0x28A2 JUMP JUMPDEST DUP3 MSTORE POP POP JUMP JUMPDEST PUSH0 PUSH1 0x20 DUP3 ADD SWAP1 POP PUSH2 0x2D20 PUSH0 DUP4 ADD DUP5 PUSH2 0x2CFE JUMP JUMPDEST SWAP3 SWAP2 POP POP JUMP JUMPDEST PUSH0 DUP1 PUSH0 DUP1 PUSH1 0x80 DUP6 DUP8 SUB SLT ISZERO PUSH2 0x2D3E JUMPI PUSH2 0x2D3D PUSH2 0x287B JUMP JUMPDEST JUMPDEST PUSH0 PUSH2 0x2D4B DUP8 DUP3 DUP9 ADD PUSH2 0x28C9 JUMP JUMPDEST SWAP5 POP POP PUSH1 0x20 PUSH2 0x2D5C DUP8 DUP3 DUP9 ADD PUSH2 0x28C9 JUMP JUMPDEST SWAP4 POP POP PUSH1 0x40 PUSH2 0x2D6D DUP8 DUP3 DUP9 ADD PUSH2 0x28FC JUMP JUMPDEST SWAP3 POP POP PUSH1 0x60 PUSH2 0x2D7E DUP8 DUP3 DUP9 ADD PUSH2 0x28FC JUMP JUMPDEST SWAP2 POP POP SWAP3 SWAP6 SWAP2 SWAP5 POP SWAP3 POP JUMP JUMPDEST PUSH0 PUSH1 0x40 DUP3 ADD SWAP1 POP PUSH2 0x2D9D PUSH0 DUP4 ADD DUP6 PUSH2 0x2959 JUMP JUMPDEST PUSH2 0x2DAA PUSH1 0x20 DUP4 ADD DUP5 PUSH2 0x29AC JUMP JUMPDEST SWAP4 SWAP3 POP POP POP JUMP JUMPDEST PUSH0 PUSH2 0x2DBB DUP3 PUSH2 0x28A2 JUMP JUMPDEST SWAP1 POP SWAP2 SWAP1 POP JUMP JUMPDEST PUSH2 0x2DCB DUP2 PUSH2 0x2DB1 JUMP JUMPDEST DUP2 EQ PUSH2 0x2DD5 JUMPI PUSH0 DUP1 REVERT JUMPDEST POP JUMP JUMPDEST PUSH0 DUP2 CALLDATALOAD SWAP1 POP PUSH2 0x2DE6 DUP2 PUSH2 0x2DC2 JUMP JUMPDEST SWAP3 SWAP2 POP POP JUMP JUMPDEST PUSH0 PUSH2 0x2DF6 DUP3 PUSH2 0x28A2 JUMP JUMPDEST SWAP1 POP SWAP2 SWAP1 POP JUMP JUMPDEST PUSH2 0x2E06 DUP2 PUSH2 0x2DEC JUMP JUMPDEST DUP2 EQ PUSH2 0x2E10 JUMPI PUSH0 DUP1 REVERT JUMPDEST POP JUMP JUMPDEST PUSH0 DUP2 CALLDATALOAD SWAP1 POP PUSH2 0x2E21 DUP2 PUSH2 0x2DFD JUMP JUMPDEST SWAP3 SWAP2 POP POP JUMP JUMPDEST PUSH0 DUP1 REVERT JUMPDEST PUSH0 DUP1 REVERT JUMPDEST PUSH32 0x4E487B7100000000000000000000000000000000000000000000000000000000 PUSH0 MSTORE PUSH1 0x41 PUSH1 0x4 MSTORE PUSH1 0x24 PUSH0 REVERT JUMPDEST PUSH2 0x2E65 DUP3 PUSH2 0x280A JUMP JUMPDEST DUP2 ADD DUP2 DUP2 LT PUSH8 0xFFFFFFFFFFFFFFFF DUP3 GT OR ISZERO PUSH2 0x2E84 JUMPI PUSH2 0x2E83 PUSH2 0x2E2F JUMP JUMPDEST JUMPDEST DUP1 PUSH1 0x40 MSTORE POP POP POP JUMP JUMPDEST PUSH0 PUSH2 0x2E96 PUSH2 0x2872 JUMP JUMPDEST SWAP1 POP PUSH2 0x2EA2 DUP3 DUP3 PUSH2 0x2E5C JUMP JUMPDEST SWAP2 SWAP1 POP JUMP JUMPDEST PUSH0 PUSH8 0xFFFFFFFFFFFFFFFF DUP3 GT ISZERO PUSH2 0x2EC1 JUMPI PUSH2 0x2EC0 PUSH2 0x2E2F JUMP JUMPDEST JUMPDEST PUSH2 0x2ECA DUP3 PUSH2 0x280A JUMP JUMPDEST SWAP1 POP PUSH1 0x20 DUP2 ADD SWAP1 POP SWAP2 SWAP1 POP JUMP JUMPDEST DUP3 DUP2 DUP4 CALLDATACOPY PUSH0 DUP4 DUP4 ADD MSTORE POP POP POP JUMP JUMPDEST PUSH0 PUSH2 0x2EF7 PUSH2 0x2EF2 DUP5 PUSH2 0x2EA7 JUMP JUMPDEST PUSH2 0x2E8D JUMP JUMPDEST SWAP1 POP DUP3 DUP2 MSTORE PUSH1 0x20 DUP2 ADD DUP5 DUP5 DUP5 ADD GT ISZERO PUSH2 0x2F13 JUMPI PUSH2 0x2F12 PUSH2 0x2E2B JUMP JUMPDEST JUMPDEST PUSH2 0x2F1E DUP5 DUP3 DUP6 PUSH2 0x2ED7 JUMP JUMPDEST POP SWAP4 SWAP3 POP POP POP JUMP JUMPDEST PUSH0 DUP3 PUSH1 0x1F DUP4 ADD SLT PUSH2 0x2F3A JUMPI PUSH2 0x2F39 PUSH2 0x2E27 JUMP JUMPDEST JUMPDEST DUP2 CALLDATALOAD PUSH2 0x2F4A DUP5 DUP3 PUSH1 0x20 DUP7 ADD PUSH2 0x2EE5 JUMP JUMPDEST SWAP2 POP POP SWAP3 SWAP2 POP POP JUMP JUMPDEST PUSH0 DUP1 REVERT JUMPDEST PUSH0 DUP1 REVERT JUMPDEST PUSH0 DUP1 DUP4 PUSH1 0x1F DUP5 ADD SLT PUSH2 0x2F70 JUMPI PUSH2 0x2F6F PUSH2 0x2E27 JUMP JUMPDEST JUMPDEST DUP3 CALLDATALOAD SWAP1 POP PUSH8 0xFFFFFFFFFFFFFFFF DUP2 GT ISZERO PUSH2 0x2F8D JUMPI PUSH2 0x2F8C PUSH2 0x2F53 JUMP JUMPDEST JUMPDEST PUSH1 0x20 DUP4 ADD SWAP2 POP DUP4 PUSH1 0x1 DUP3 MUL DUP4 ADD GT ISZERO PUSH2 0x2FA9 JUMPI PUSH2 0x2FA8 PUSH2 0x2F57 JUMP JUMPDEST JUMPDEST SWAP3 POP SWAP3 SWAP1 POP JUMP JUMPDEST PUSH0 DUP1 PUSH0 DUP1 PUSH0 DUP1 PUSH0 DUP1 PUSH1 0xE0 DUP10 DUP12 SUB SLT ISZERO PUSH2 0x2FCC JUMPI PUSH2 0x2FCB PUSH2 0x287B JUMP JUMPDEST JUMPDEST PUSH0 PUSH2 0x2FD9 DUP12 DUP3 DUP13 ADD PUSH2 0x2DD8 JUMP JUMPDEST SWAP9 POP POP PUSH1 0x20 PUSH2 0x2FEA DUP12 DUP3 DUP13 ADD PUSH2 0x28C9 JUMP JUMPDEST SWAP8 POP POP PUSH1 0x40 PUSH2 0x2FFB DUP12 DUP3 DUP13 ADD PUSH2 0x2E13 JUMP JUMPDEST SWAP7 POP POP PUSH1 0x60 PUSH2 0x300C DUP12 DUP3 DUP13 ADD PUSH2 0x2A04 JUMP JUMPDEST SWAP6 POP POP PUSH1 0x80 DUP10 ADD CALLDATALOAD PUSH8 0xFFFFFFFFFFFFFFFF DUP2 GT ISZERO PUSH2 0x302D JUMPI PUSH2 0x302C PUSH2 0x287F JUMP JUMPDEST JUMPDEST PUSH2 0x3039 DUP12 DUP3 DUP13 ADD PUSH2 0x2F26 JUMP JUMPDEST SWAP5 POP POP PUSH1 0xA0 DUP10 ADD CALLDATALOAD PUSH8 0xFFFFFFFFFFFFFFFF DUP2 GT ISZERO PUSH2 0x305A JUMPI PUSH2 0x3059 PUSH2 0x287F JUMP JUMPDEST JUMPDEST PUSH2 0x3066 DUP12 DUP3 DUP13 ADD PUSH2 0x2F26 JUMP JUMPDEST SWAP4 POP POP PUSH1 0xC0 DUP10 ADD CALLDATALOAD PUSH8 0xFFFFFFFFFFFFFFFF DUP2 GT ISZERO PUSH2 0x3087 JUMPI PUSH2 0x3086 PUSH2 0x287F JUMP JUMPDEST JUMPDEST PUSH2 0x3093 DUP12 DUP3 DUP13 ADD PUSH2 0x2F5B JUMP JUMPDEST SWAP3 POP SWAP3 POP POP SWAP3 SWAP6 SWAP9 POP SWAP3 SWAP6 SWAP9 SWAP1 SWAP4 SWAP7 POP JUMP JUMPDEST PUSH0 PUSH1 0x20 DUP3 DUP5 SUB SLT ISZERO PUSH2 0x30BA JUMPI PUSH2 0x30B9 PUSH2 0x287B JUMP JUMPDEST JUMPDEST PUSH0 PUSH2 0x30C7 DUP5 DUP3 DUP6 ADD PUSH2 0x2E13 JUMP JUMPDEST SWAP2 POP POP SWAP3 SWAP2 POP POP JUMP JUMPDEST PUSH0 DUP1 PUSH0 PUSH1 0x60 DUP5 DUP7 SUB SLT ISZERO PUSH2 0x30E7 JUMPI PUSH2 0x30E6 PUSH2 0x287B JUMP JUMPDEST JUMPDEST PUSH0 PUSH2 0x30F4 DUP7 DUP3 DUP8 ADD PUSH2 0x28C9 JUMP JUMPDEST SWAP4 POP POP PUSH1 0x20 PUSH2 0x3105 DUP7 DUP3 DUP8 ADD PUSH2 0x28FC JUMP JUMPDEST SWAP3 POP POP PUSH1 0x40 PUSH2 0x3116 DUP7 DUP3 DUP8 ADD PUSH2 0x28FC JUMP JUMPDEST SWAP2 POP POP SWAP3 POP SWAP3 POP SWAP3 JUMP JUMPDEST PUSH32 0x4E487B7100000000000000000000000000000000000000000000000000000000 PUSH0 MSTORE PUSH1 0x22 PUSH1 0x4 MSTORE PUSH1 0x24 PUSH0 REVERT JUMPDEST PUSH0 PUSH1 0x2 DUP3 DIV SWAP1 POP PUSH1 0x1 DUP3 AND DUP1 PUSH2 0x3164 JUMPI PUSH1 0x7F DUP3 AND SWAP2 POP JUMPDEST PUSH1 0x20 DUP3 LT DUP2 SUB PUSH2 0x3177 JUMPI PUSH2 0x3176 PUSH2 0x3120 JUMP JUMPDEST JUMPDEST POP SWAP2 SWAP1 POP JUMP JUMPDEST PUSH0 PUSH1 0xA0 DUP3 ADD SWAP1 POP PUSH2 0x3190 PUSH0 DUP4 ADD DUP9 PUSH2 0x2B79 JUMP JUMPDEST PUSH2 0x319D PUSH1 0x20 DUP4 ADD DUP8 PUSH2 0x2CFE JUMP JUMPDEST PUSH2 0x31AA PUSH1 0x40 DUP4 ADD DUP7 PUSH2 0x29AC JUMP JUMPDEST PUSH2 0x31B7 PUSH1 0x60 DUP4 ADD DUP6 PUSH2 0x29AC JUMP JUMPDEST PUSH2 0x31C4 PUSH1 0x80 DUP4 ADD DUP5 PUSH2 0x29AC JUMP JUMPDEST SWAP7 SWAP6 POP POP POP POP POP POP JUMP JUMPDEST PUSH0 DUP2 SWAP1 POP SWAP3 SWAP2 POP POP JUMP JUMPDEST PUSH32 0x1901000000000000000000000000000000000000000000000000000000000000 PUSH0 DUP3 ADD MSTORE POP JUMP JUMPDEST PUSH0 PUSH2 0x320C PUSH1 0x2 DUP4 PUSH2 0x31CE JUMP JUMPDEST SWAP2 POP PUSH2 0x3217 DUP3 PUSH2 0x31D8 JUMP JUMPDEST PUSH1 0x2 DUP3 ADD SWAP1 POP SWAP2 SWAP1 POP JUMP JUMPDEST PUSH0 DUP2 SWAP1 POP SWAP2 SWAP1 POP JUMP JUMPDEST PUSH2 0x323C PUSH2 0x3237 DUP3 PUSH2 0x2A18 JUMP JUMPDEST PUSH2 0x3222 JUMP JUMPDEST DUP3 MSTORE POP POP JUMP JUMPDEST PUSH0 PUSH2 0x324C DUP3 PUSH2 0x3200 JUMP JUMPDEST SWAP2 POP PUSH2 0x3258 DUP3 DUP6 PUSH2 0x322B JUMP JUMPDEST PUSH1 0x20 DUP3 ADD SWAP2 POP PUSH2 0x3268 DUP3 DUP5 PUSH2 0x322B JUMP JUMPDEST PUSH1 0x20 DUP3 ADD SWAP2 POP DUP2 SWAP1 POP SWAP4 SWAP3 POP POP POP JUMP JUMPDEST PUSH0 PUSH1 0x80 DUP3 ADD SWAP1 POP PUSH2 0x328B PUSH0 DUP4 ADD DUP8 PUSH2 0x2B79 JUMP JUMPDEST PUSH2 0x3298 PUSH1 0x20 DUP4 ADD DUP7 PUSH2 0x2B51 JUMP JUMPDEST PUSH2 0x32A5 PUSH1 0x40 DUP4 ADD DUP6 PUSH2 0x2B79 JUMP JUMPDEST PUSH2 0x32B2 PUSH1 0x60 DUP4 ADD DUP5 PUSH2 0x2B79 JUMP JUMPDEST SWAP6 SWAP5 POP POP POP POP POP JUMP JUMPDEST PUSH32 0x4E487B7100000000000000000000000000000000000000000000000000000000 PUSH0 MSTORE PUSH1 0x11 PUSH1 0x4 MSTORE PUSH1 0x24 PUSH0 REVERT JUMPDEST PUSH0 PUSH2 0x32F2 DUP3 PUSH2 0x28DD JUMP JUMPDEST SWAP2 POP PUSH2 0x32FD DUP4 PUSH2 0x28DD JUMP JUMPDEST SWAP3 POP DUP3 DUP3 ADD SWAP1 POP DUP1 DUP3 GT ISZERO PUSH2 0x3315 JUMPI PUSH2 0x3314 PUSH2 0x32BB JUMP JUMPDEST JUMPDEST SWAP3 SWAP2 POP POP JUMP JUMPDEST PUSH0 DUP2 MLOAD SWAP1 POP PUSH2 0x3329 DUP2 PUSH2 0x28E6 JUMP JUMPDEST SWAP3 SWAP2 POP POP JUMP JUMPDEST PUSH0 PUSH1 0x20 DUP3 DUP5 SUB SLT ISZERO PUSH2 0x3344 JUMPI PUSH2 0x3343 PUSH2 0x287B JUMP JUMPDEST JUMPDEST PUSH0 PUSH2 0x3351 DUP5 DUP3 DUP6 ADD PUSH2 0x331B JUMP JUMPDEST SWAP2 POP POP SWAP3 SWAP2 POP POP JUMP JUMPDEST PUSH32 0x436F6E747261637420696E7374616E63652068617320616C7265616479206265 PUSH0 DUP3 ADD MSTORE PUSH32 0x656E20696E697469616C697A6564000000000000000000000000000000000000 PUSH1 0x20 DUP3 ADD MSTORE POP JUMP JUMPDEST PUSH0 PUSH2 0x33B4 PUSH1 0x2E DUP4 PUSH2 0x27EC JUMP JUMPDEST SWAP2 POP PUSH2 0x33BF DUP3 PUSH2 0x335A JUMP JUMPDEST PUSH1 0x40 DUP3 ADD SWAP1 POP SWAP2 SWAP1 POP JUMP JUMPDEST PUSH0 PUSH1 0x20 DUP3 ADD SWAP1 POP DUP2 DUP2 SUB PUSH0 DUP4 ADD MSTORE PUSH2 0x33E1 DUP2 PUSH2 0x33A8 JUMP JUMPDEST SWAP1 POP SWAP2 SWAP1 POP JUMP JUMPDEST PUSH0 PUSH2 0x33F3 DUP4 DUP6 PUSH2 0x2C96 JUMP JUMPDEST SWAP4 POP PUSH2 0x3400 DUP4 DUP6 DUP5 PUSH2 0x2ED7 JUMP JUMPDEST PUSH2 0x3409 DUP4 PUSH2 0x280A JUMP JUMPDEST DUP5 ADD SWAP1 POP SWAP4 SWAP3 POP POP POP JUMP JUMPDEST PUSH0 PUSH1 0xA0 DUP3 ADD SWAP1 POP PUSH2 0x3427 PUSH0 DUP4 ADD DUP10 PUSH2 0x2CFE JUMP JUMPDEST PUSH2 0x3434 PUSH1 0x20 DUP4 ADD DUP9 PUSH2 0x2B51 JUMP JUMPDEST DUP2 DUP2 SUB PUSH1 0x40 DUP4 ADD MSTORE PUSH2 0x3446 DUP2 DUP8 PUSH2 0x281A JUMP JUMPDEST SWAP1 POP DUP2 DUP2 SUB PUSH1 0x60 DUP4 ADD MSTORE PUSH2 0x345A DUP2 DUP7 PUSH2 0x281A JUMP JUMPDEST SWAP1 POP DUP2 DUP2 SUB PUSH1 0x80 DUP4 ADD MSTORE PUSH2 0x346F DUP2 DUP5 DUP7 PUSH2 0x33E8 JUMP JUMPDEST SWAP1 POP SWAP8 SWAP7 POP POP POP POP POP POP POP JUMP JUMPDEST PUSH0 DUP2 MLOAD SWAP1 POP PUSH2 0x348A DUP2 PUSH2 0x28B3 JUMP JUMPDEST SWAP3 SWAP2 POP POP JUMP JUMPDEST PUSH0 PUSH1 0x20 DUP3 DUP5 SUB SLT ISZERO PUSH2 0x34A5 JUMPI PUSH2 0x34A4 PUSH2 0x287B JUMP JUMPDEST JUMPDEST PUSH0 PUSH2 0x34B2 DUP5 DUP3 DUP6 ADD PUSH2 0x347C JUMP JUMPDEST SWAP2 POP POP SWAP3 SWAP2 POP POP JUMP JUMPDEST PUSH2 0x34C4 DUP2 PUSH2 0x294E JUMP JUMPDEST DUP2 EQ PUSH2 0x34CE JUMPI PUSH0 DUP1 REVERT JUMPDEST POP JUMP JUMPDEST PUSH0 DUP2 MLOAD SWAP1 POP PUSH2 0x34DF DUP2 PUSH2 0x34BB JUMP JUMPDEST SWAP3 SWAP2 POP POP JUMP JUMPDEST PUSH0 PUSH1 0x20 DUP3 DUP5 SUB SLT ISZERO PUSH2 0x34FA JUMPI PUSH2 0x34F9 PUSH2 0x287B JUMP JUMPDEST JUMPDEST PUSH0 PUSH2 0x3507 DUP5 DUP3 DUP6 ADD PUSH2 0x34D1 JUMP JUMPDEST SWAP2 POP POP SWAP3 SWAP2 POP POP JUMP JUMPDEST PUSH0 PUSH1 0xA0 DUP3 ADD SWAP1 POP PUSH2 0x3523 PUSH0 DUP4 ADD DUP9 PUSH2 0x2B79 JUMP JUMPDEST PUSH2 0x3530 PUSH1 0x20 DUP4 ADD DUP8 PUSH2 0x2B79 JUMP JUMPDEST PUSH2 0x353D PUSH1 0x40 DUP4 ADD DUP7 PUSH2 0x2B79 JUMP JUMPDEST PUSH2 0x354A PUSH1 0x60 DUP4 ADD DUP6 PUSH2 0x29AC JUMP JUMPDEST PUSH2 0x3557 PUSH1 0x80 DUP4 ADD DUP5 PUSH2 0x2CFE JUMP JUMPDEST SWAP7 SWAP6 POP POP POP POP POP POP JUMP JUMPDEST PUSH0 PUSH2 0x356B DUP3 PUSH2 0x28DD JUMP JUMPDEST SWAP2 POP PUSH2 0x3576 DUP4 PUSH2 0x28DD JUMP JUMPDEST SWAP3 POP DUP3 DUP3 SUB SWAP1 POP DUP2 DUP2 GT ISZERO PUSH2 0x358E JUMPI PUSH2 0x358D PUSH2 0x32BB JUMP JUMPDEST JUMPDEST SWAP3 SWAP2 POP POP JUMP JUMPDEST PUSH0 PUSH1 0x60 DUP3 ADD SWAP1 POP PUSH2 0x35A7 PUSH0 DUP4 ADD DUP7 PUSH2 0x29AC JUMP JUMPDEST PUSH2 0x35B4 PUSH1 0x20 DUP4 ADD DUP6 PUSH2 0x29AC JUMP JUMPDEST PUSH2 0x35C1 PUSH1 0x40 DUP4 ADD DUP5 PUSH2 0x29AC JUMP JUMPDEST SWAP5 SWAP4 POP POP POP POP JUMP JUMPDEST PUSH0 DUP2 SWAP1 POP DUP2 PUSH0 MSTORE PUSH1 0x20 PUSH0 KECCAK256 SWAP1 POP SWAP2 SWAP1 POP JUMP JUMPDEST PUSH0 PUSH1 0x20 PUSH1 0x1F DUP4 ADD DIV SWAP1 POP SWAP2 SWAP1 POP JUMP JUMPDEST PUSH0 DUP3 DUP3 SHL SWAP1 POP SWAP3 SWAP2 POP POP JUMP JUMPDEST PUSH0 PUSH1 0x8 DUP4 MUL PUSH2 0x3625 PUSH32 0xFFFFFFFFFFFFFFFFFFFFFFFFFFFFFFFFFFFFFFFFFFFFFFFFFFFFFFFFFFFFFFFF DUP3 PUSH2 0x35EA JUMP JUMPDEST PUSH2 0x362F DUP7 DUP4 PUSH2 0x35EA JUMP JUMPDEST SWAP6 POP DUP1 NOT DUP5 AND SWAP4 POP DUP1 DUP7 AND DUP5 OR SWAP3 POP POP POP SWAP4 SWAP3 POP POP POP JUMP JUMPDEST PUSH0 PUSH2 0x3661 PUSH2 0x365C PUSH2 0x3657 DUP5 PUSH2 0x28DD JUMP JUMPDEST PUSH2 0x2BDF JUMP JUMPDEST PUSH2 0x28DD JUMP JUMPDEST SWAP1 POP SWAP2 SWAP1 POP JUMP JUMPDEST PUSH0 DUP2 SWAP1 POP SWAP2 SWAP1 POP JUMP JUMPDEST PUSH2 0x367A DUP4 PUSH2 0x3647 JUMP JUMPDEST PUSH2 0x368E PUSH2 0x3686 DUP3 PUSH2 0x3668 JUMP JUMPDEST DUP5 DUP5 SLOAD PUSH2 0x35F6 JUMP JUMPDEST DUP3 SSTORE POP POP POP POP JUMP JUMPDEST PUSH0 SWAP1 JUMP JUMPDEST PUSH2 0x36A2 PUSH2 0x3696 JUMP JUMPDEST PUSH2 0x36AD DUP2 DUP5 DUP5 PUSH2 0x3671 JUMP JUMPDEST POP POP POP JUMP JUMPDEST JUMPDEST DUP2 DUP2 LT ISZERO PUSH2 0x36D0 JUMPI PUSH2 0x36C5 PUSH0 DUP3 PUSH2 0x369A JUMP JUMPDEST PUSH1 0x1 DUP2 ADD SWAP1 POP PUSH2 0x36B3 JUMP JUMPDEST POP POP JUMP JUMPDEST PUSH1 0x1F DUP3 GT ISZERO PUSH2 0x3715 JUMPI PUSH2 0x36E6 DUP2 PUSH2 0x35C9 JUMP JUMPDEST PUSH2 0x36EF DUP5 PUSH2 0x35DB JUMP JUMPDEST DUP2 ADD PUSH1 0x20 DUP6 LT ISZERO PUSH2 0x36FE JUMPI DUP2 SWAP1 POP JUMPDEST PUSH2 0x3712 PUSH2 0x370A DUP6 PUSH2 0x35DB JUMP JUMPDEST DUP4 ADD DUP3 PUSH2 0x36B2 JUMP JUMPDEST POP POP JUMPDEST POP POP POP JUMP JUMPDEST PUSH0 DUP3 DUP3 SHR SWAP1 POP SWAP3 SWAP2 POP POP JUMP JUMPDEST PUSH0 PUSH2 0x3735 PUSH0 NOT DUP5 PUSH1 0x8 MUL PUSH2 0x371A JUMP JUMPDEST NOT DUP1 DUP4 AND SWAP2 POP POP SWAP3 SWAP2 POP POP JUMP JUMPDEST PUSH0 PUSH2 0x374D DUP4 DUP4 PUSH2 0x3726 JUMP JUMPDEST SWAP2 POP DUP3 PUSH1 0x2 MUL DUP3 OR SWAP1 POP SWAP3 SWAP2 POP POP JUMP JUMPDEST PUSH2 0x3766 DUP3 PUSH2 0x27E2 JUMP JUMPDEST PUSH8 0xFFFFFFFFFFFFFFFF DUP2 GT ISZERO PUSH2 0x377F JUMPI PUSH2 0x377E PUSH2 0x2E2F JUMP JUMPDEST JUMPDEST PUSH2 0x3789 DUP3 SLOAD PUSH2 0x314D JUMP JUMPDEST PUSH2 0x3794 DUP3 DUP3 DUP6 PUSH2 0x36D4 JUMP JUMPDEST PUSH0 PUSH1 0x20 SWAP1 POP PUSH1 0x1F DUP4 GT PUSH1 0x1 DUP2 EQ PUSH2 0x37C5 JUMPI PUSH0 DUP5 ISZERO PUSH2 0x37B3 JUMPI DUP3 DUP8 ADD MLOAD SWAP1 POP JUMPDEST PUSH2 0x37BD DUP6 DUP3 PUSH2 0x3742 JUMP JUMPDEST DUP7 SSTORE POP PUSH2 0x3824 JUMP JUMPDEST PUSH1 0x1F NOT DUP5 AND PUSH2 0x37D3 DUP7 PUSH2 0x35C9 JUMP JUMPDEST PUSH0 JUMPDEST DUP3 DUP2 LT ISZERO PUSH2 0x37FA JUMPI DUP5 DUP10 ADD MLOAD DUP3 SSTORE PUSH1 0x1 DUP3 ADD SWAP2 POP PUSH1 0x20 DUP6 ADD SWAP5 POP PUSH1 0x20 DUP2 ADD SWAP1 POP PUSH2 0x37D5 JUMP JUMPDEST DUP7 DUP4 LT ISZERO PUSH2 0x3817 JUMPI DUP5 DUP10 ADD MLOAD PUSH2 0x3813 PUSH1 0x1F DUP10 AND DUP3 PUSH2 0x3726 JUMP JUMPDEST DUP4 SSTORE POP JUMPDEST PUSH1 0x1 PUSH1 0x2 DUP9 MUL ADD DUP9 SSTORE POP POP POP JUMPDEST POP POP POP POP POP POP JUMP JUMPDEST PUSH32 0x53616665436173743A2076616C756520646F65736E27742066697420696E2031 PUSH0 DUP3 ADD MSTORE PUSH32 0x3238206269747300000000000000000000000000000000000000000000000000 PUSH1 0x20 DUP3 ADD MSTORE POP JUMP JUMPDEST PUSH0 PUSH2 0x3886 PUSH1 0x27 DUP4 PUSH2 0x27EC JUMP JUMPDEST SWAP2 POP PUSH2 0x3891 DUP3 PUSH2 0x382C JUMP JUMPDEST PUSH1 0x40 DUP3 ADD SWAP1 POP SWAP2 SWAP1 POP JUMP JUMPDEST PUSH0 PUSH1 0x20 DUP3 ADD SWAP1 POP DUP2 DUP2 SUB PUSH0 DUP4 ADD MSTORE PUSH2 0x38B3 DUP2 PUSH2 0x387A JUMP JUMPDEST SWAP1 POP SWAP2 SWAP1 POP JUMP JUMPDEST PUSH0 PUSH16 0xFFFFFFFFFFFFFFFFFFFFFFFFFFFFFFFF DUP3 AND SWAP1 POP SWAP2 SWAP1 POP JUMP JUMPDEST PUSH0 PUSH2 0x38DF DUP3 PUSH2 0x38BA JUMP JUMPDEST SWAP2 POP PUSH2 0x38EA DUP4 PUSH2 0x38BA JUMP JUMPDEST SWAP3 POP DUP3 DUP3 ADD SWAP1 POP PUSH16 0xFFFFFFFFFFFFFFFFFFFFFFFFFFFFFFFF DUP2 GT ISZERO PUSH2 0x3912 JUMPI PUSH2 0x3911 PUSH2 0x32BB JUMP JUMPDEST JUMPDEST SWAP3 SWAP2 POP POP JUMP JUMPDEST PUSH0 PUSH2 0x3932 PUSH2 0x392D PUSH2 0x3928 DUP5 PUSH2 0x38BA JUMP JUMPDEST PUSH2 0x2BDF JUMP JUMPDEST PUSH2 0x28DD JUMP JUMPDEST SWAP1 POP SWAP2 SWAP1 POP JUMP JUMPDEST PUSH2 0x3942 DUP2 PUSH2 0x3918 JUMP JUMPDEST DUP3 MSTORE POP POP JUMP JUMPDEST PUSH0 PUSH1 0x60 DUP3 ADD SWAP1 POP PUSH2 0x395B PUSH0 DUP4 ADD DUP7 PUSH2 0x2CFE JUMP JUMPDEST PUSH2 0x3968 PUSH1 0x20 DUP4 ADD DUP6 PUSH2 0x29AC JUMP JUMPDEST PUSH2 0x3975 PUSH1 0x40 DUP4 ADD DUP5 PUSH2 0x3939 JUMP JUMPDEST SWAP5 SWAP4 POP POP POP POP JUMP JUMPDEST PUSH0 PUSH2 0x3987 DUP3 PUSH2 0x38BA JUMP JUMPDEST SWAP2 POP PUSH2 0x3992 DUP4 PUSH2 0x38BA JUMP JUMPDEST SWAP3 POP DUP3 DUP3 SUB SWAP1 POP PUSH16 0xFFFFFFFFFFFFFFFFFFFFFFFFFFFFFFFF DUP2 GT ISZERO PUSH2 0x39BA JUMPI PUSH2 0x39B9 PUSH2 0x32BB JUMP JUMPDEST JUMPDEST SWAP3 SWAP2 POP POP JUMP INVALID LOG2 PUSH5 0x6970667358 0x22 SLT KECCAK256 DIV SWAP16 SAR 0xEB SWAP8 0xBB SIGNEXTEND COINBASE 0x1F PUSH4 0x8624E8F6 PUSH2 0xFC97 0xD5 PUSH15 0x95B4DCE350B5834CFF8BD89CB86473 PUSH16 0x6C634300081A00330000000000000000 "
		},
		"gasEstimates": {
			"creation": {
				"codeDepositCost": "2967600",
				"executionCost": "infinite",
				"totalCost": "infinite"
			},
			"external": {
				"DEBT_TOKEN_REVISION()": "370",
				"DELEGATION_WITH_SIG_TYPEHASH()": "413",
				"DOMAIN_SEPARATOR()": "infinite",
				"EIP712_REVISION()": "infinite",
				"POOL()": "infinite",
				"UNDERLYING_ASSET_ADDRESS()": "2582",
				"allowance(address,address)": "infinite",
				"approve(address,uint256)": "infinite",
				"approveDelegation(address,uint256)": "infinite",
				"balanceOf(address)": "infinite",
				"borrowAllowance(address,address)": "infinite",
				"burn(address,uint256,uint256)": "infinite",
				"decimals()": "2519",
				"decreaseAllowance(address,uint256)": "infinite",
				"delegationWithSig(address,address,uint256,uint256,uint8,bytes32,bytes32)": "infinite",
				"getIncentivesController()": "infinite",
				"getPreviousIndex(address)": "2970",
				"getScaledUserBalanceAndSupply(address)": "infinite",
				"increaseAllowance(address,uint256)": "infinite",
				"initialize(address,address,address,uint8,string,string,bytes)": "infinite",
				"mint(address,address,uint256,uint256)": "infinite",
				"name()": "infinite",
				"nonces(address)": "2875",
				"scaledBalanceOf(address)": "3007",
				"scaledTotalSupply()": "2555",
				"setIncentivesController(address)": "infinite",
				"symbol()": "infinite",
				"totalSupply()": "infinite",
				"transfer(address,uint256)": "infinite",
				"transferFrom(address,address,uint256)": "infinite"
			},
			"internal": {
				"_EIP712BaseId()": "infinite",
				"getRevision()": "22"
			}
		},
		"methodIdentifiers": {
			"DEBT_TOKEN_REVISION()": "b9a7b622",
			"DELEGATION_WITH_SIG_TYPEHASH()": "f3bfc738",
			"DOMAIN_SEPARATOR()": "3644e515",
			"EIP712_REVISION()": "78160376",
			"POOL()": "7535d246",
			"UNDERLYING_ASSET_ADDRESS()": "b16a19de",
			"allowance(address,address)": "dd62ed3e",
			"approve(address,uint256)": "095ea7b3",
			"approveDelegation(address,uint256)": "c04a8a10",
			"balanceOf(address)": "70a08231",
			"borrowAllowance(address,address)": "6bd76d24",
			"burn(address,uint256,uint256)": "f5298aca",
			"decimals()": "313ce567",
			"decreaseAllowance(address,uint256)": "a457c2d7",
			"delegationWithSig(address,address,uint256,uint256,uint8,bytes32,bytes32)": "0b52d558",
			"getIncentivesController()": "75d26413",
			"getPreviousIndex(address)": "e0753986",
			"getScaledUserBalanceAndSupply(address)": "0afbcdc9",
			"increaseAllowance(address,uint256)": "39509351",
			"initialize(address,address,address,uint8,string,string,bytes)": "c222ec8a",
			"mint(address,address,uint256,uint256)": "b3f1c93d",
			"name()": "06fdde03",
			"nonces(address)": "7ecebe00",
			"scaledBalanceOf(address)": "1da24f3e",
			"scaledTotalSupply()": "b1bf962d",
			"setIncentivesController(address)": "e655dbd8",
			"symbol()": "95d89b41",
			"totalSupply()": "18160ddd",
			"transfer(address,uint256)": "a9059cbb",
			"transferFrom(address,address,uint256)": "23b872dd"
		}
	},
	"abi": [
		{
			"inputs": [
				{
					"internalType": "contract IPool",
					"name": "pool",
					"type": "address"
				}
			],
			"stateMutability": "nonpayable",
			"type": "constructor"
		},
		{
			"anonymous": false,
			"inputs": [
				{
					"indexed": true,
					"internalType": "address",
					"name": "owner",
					"type": "address"
				},
				{
					"indexed": true,
					"internalType": "address",
					"name": "spender",
					"type": "address"
				},
				{
					"indexed": false,
					"internalType": "uint256",
					"name": "value",
					"type": "uint256"
				}
			],
			"name": "Approval",
			"type": "event"
		},
		{
			"anonymous": false,
			"inputs": [
				{
					"indexed": true,
					"internalType": "address",
					"name": "fromUser",
					"type": "address"
				},
				{
					"indexed": true,
					"internalType": "address",
					"name": "toUser",
					"type": "address"
				},
				{
					"indexed": true,
					"internalType": "address",
					"name": "asset",
					"type": "address"
				},
				{
					"indexed": false,
					"internalType": "uint256",
					"name": "amount",
					"type": "uint256"
				}
			],
			"name": "BorrowAllowanceDelegated",
			"type": "event"
		},
		{
			"anonymous": false,
			"inputs": [
				{
					"indexed": true,
					"internalType": "address",
					"name": "from",
					"type": "address"
				},
				{
					"indexed": true,
					"internalType": "address",
					"name": "target",
					"type": "address"
				},
				{
					"indexed": false,
					"internalType": "uint256",
					"name": "value",
					"type": "uint256"
				},
				{
					"indexed": false,
					"internalType": "uint256",
					"name": "balanceIncrease",
					"type": "uint256"
				},
				{
					"indexed": false,
					"internalType": "uint256",
					"name": "index",
					"type": "uint256"
				}
			],
			"name": "Burn",
			"type": "event"
		},
		{
			"anonymous": false,
			"inputs": [
				{
					"indexed": true,
					"internalType": "address",
					"name": "underlyingAsset",
					"type": "address"
				},
				{
					"indexed": true,
					"internalType": "address",
					"name": "pool",
					"type": "address"
				},
				{
					"indexed": false,
					"internalType": "address",
					"name": "incentivesController",
					"type": "address"
				},
				{
					"indexed": false,
					"internalType": "uint8",
					"name": "debtTokenDecimals",
					"type": "uint8"
				},
				{
					"indexed": false,
					"internalType": "string",
					"name": "debtTokenName",
					"type": "string"
				},
				{
					"indexed": false,
					"internalType": "string",
					"name": "debtTokenSymbol",
					"type": "string"
				},
				{
					"indexed": false,
					"internalType": "bytes",
					"name": "params",
					"type": "bytes"
				}
			],
			"name": "Initialized",
			"type": "event"
		},
		{
			"anonymous": false,
			"inputs": [
				{
					"indexed": true,
					"internalType": "address",
					"name": "caller",
					"type": "address"
				},
				{
					"indexed": true,
					"internalType": "address",
					"name": "onBehalfOf",
					"type": "address"
				},
				{
					"indexed": false,
					"internalType": "uint256",
					"name": "value",
					"type": "uint256"
				},
				{
					"indexed": false,
					"internalType": "uint256",
					"name": "balanceIncrease",
					"type": "uint256"
				},
				{
					"indexed": false,
					"internalType": "uint256",
					"name": "index",
					"type": "uint256"
				}
			],
			"name": "Mint",
			"type": "event"
		},
		{
			"anonymous": false,
			"inputs": [
				{
					"indexed": true,
					"internalType": "address",
					"name": "from",
					"type": "address"
				},
				{
					"indexed": true,
					"internalType": "address",
					"name": "to",
					"type": "address"
				},
				{
					"indexed": false,
					"internalType": "uint256",
					"name": "value",
					"type": "uint256"
				}
			],
			"name": "Transfer",
			"type": "event"
		},
		{
			"inputs": [],
			"name": "DEBT_TOKEN_REVISION",
			"outputs": [
				{
					"internalType": "uint256",
					"name": "",
					"type": "uint256"
				}
			],
			"stateMutability": "view",
			"type": "function"
		},
		{
			"inputs": [],
			"name": "DELEGATION_WITH_SIG_TYPEHASH",
			"outputs": [
				{
					"internalType": "bytes32",
					"name": "",
					"type": "bytes32"
				}
			],
			"stateMutability": "view",
			"type": "function"
		},
		{
			"inputs": [],
			"name": "DOMAIN_SEPARATOR",
			"outputs": [
				{
					"internalType": "bytes32",
					"name": "",
					"type": "bytes32"
				}
			],
			"stateMutability": "view",
			"type": "function"
		},
		{
			"inputs": [],
			"name": "EIP712_REVISION",
			"outputs": [
				{
					"internalType": "bytes",
					"name": "",
					"type": "bytes"
				}
			],
			"stateMutability": "view",
			"type": "function"
		},
		{
			"inputs": [],
			"name": "POOL",
			"outputs": [
				{
					"internalType": "contract IPool",
					"name": "",
					"type": "address"
				}
			],
			"stateMutability": "view",
			"type": "function"
		},
		{
			"inputs": [],
			"name": "UNDERLYING_ASSET_ADDRESS",
			"outputs": [
				{
					"internalType": "address",
					"name": "",
					"type": "address"
				}
			],
			"stateMutability": "view",
			"type": "function"
		},
		{
			"inputs": [
				{
					"internalType": "address",
					"name": "",
					"type": "address"
				},
				{
					"internalType": "address",
					"name": "",
					"type": "address"
				}
			],
			"name": "allowance",
			"outputs": [
				{
					"internalType": "uint256",
					"name": "",
					"type": "uint256"
				}
			],
			"stateMutability": "view",
			"type": "function"
		},
		{
			"inputs": [
				{
					"internalType": "address",
					"name": "",
					"type": "address"
				},
				{
					"internalType": "uint256",
					"name": "",
					"type": "uint256"
				}
			],
			"name": "approve",
			"outputs": [
				{
					"internalType": "bool",
					"name": "",
					"type": "bool"
				}
			],
			"stateMutability": "nonpayable",
			"type": "function"
		},
		{
			"inputs": [
				{
					"internalType": "address",
					"name": "delegatee",
					"type": "address"
				},
				{
					"internalType": "uint256",
					"name": "amount",
					"type": "uint256"
				}
			],
			"name": "approveDelegation",
			"outputs": [],
			"stateMutability": "nonpayable",
			"type": "function"
		},
		{
			"inputs": [
				{
					"internalType": "address",
					"name": "user",
					"type": "address"
				}
			],
			"name": "balanceOf",
			"outputs": [
				{
					"internalType": "uint256",
					"name": "",
					"type": "uint256"
				}
			],
			"stateMutability": "view",
			"type": "function"
		},
		{
			"inputs": [
				{
					"internalType": "address",
					"name": "fromUser",
					"type": "address"
				},
				{
					"internalType": "address",
					"name": "toUser",
					"type": "address"
				}
			],
			"name": "borrowAllowance",
			"outputs": [
				{
					"internalType": "uint256",
					"name": "",
					"type": "uint256"
				}
			],
			"stateMutability": "view",
			"type": "function"
		},
		{
			"inputs": [
				{
					"internalType": "address",
					"name": "from",
					"type": "address"
				},
				{
					"internalType": "uint256",
					"name": "amount",
					"type": "uint256"
				},
				{
					"internalType": "uint256",
					"name": "index",
					"type": "uint256"
				}
			],
			"name": "burn",
			"outputs": [
				{
					"internalType": "uint256",
					"name": "",
					"type": "uint256"
				}
			],
			"stateMutability": "nonpayable",
			"type": "function"
		},
		{
			"inputs": [],
			"name": "decimals",
			"outputs": [
				{
					"internalType": "uint8",
					"name": "",
					"type": "uint8"
				}
			],
			"stateMutability": "view",
			"type": "function"
		},
		{
			"inputs": [
				{
					"internalType": "address",
					"name": "",
					"type": "address"
				},
				{
					"internalType": "uint256",
					"name": "",
					"type": "uint256"
				}
			],
			"name": "decreaseAllowance",
			"outputs": [
				{
					"internalType": "bool",
					"name": "",
					"type": "bool"
				}
			],
			"stateMutability": "nonpayable",
			"type": "function"
		},
		{
			"inputs": [
				{
					"internalType": "address",
					"name": "delegator",
					"type": "address"
				},
				{
					"internalType": "address",
					"name": "delegatee",
					"type": "address"
				},
				{
					"internalType": "uint256",
					"name": "value",
					"type": "uint256"
				},
				{
					"internalType": "uint256",
					"name": "deadline",
					"type": "uint256"
				},
				{
					"internalType": "uint8",
					"name": "v",
					"type": "uint8"
				},
				{
					"internalType": "bytes32",
					"name": "r",
					"type": "bytes32"
				},
				{
					"internalType": "bytes32",
					"name": "s",
					"type": "bytes32"
				}
			],
			"name": "delegationWithSig",
			"outputs": [],
			"stateMutability": "nonpayable",
			"type": "function"
		},
		{
			"inputs": [],
			"name": "getIncentivesController",
			"outputs": [
				{
					"internalType": "contract IAaveIncentivesController",
					"name": "",
					"type": "address"
				}
			],
			"stateMutability": "view",
			"type": "function"
		},
		{
			"inputs": [
				{
					"internalType": "address",
					"name": "user",
					"type": "address"
				}
			],
			"name": "getPreviousIndex",
			"outputs": [
				{
					"internalType": "uint256",
					"name": "",
					"type": "uint256"
				}
			],
			"stateMutability": "view",
			"type": "function"
		},
		{
			"inputs": [
				{
					"internalType": "address",
					"name": "user",
					"type": "address"
				}
			],
			"name": "getScaledUserBalanceAndSupply",
			"outputs": [
				{
					"internalType": "uint256",
					"name": "",
					"type": "uint256"
				},
				{
					"internalType": "uint256",
					"name": "",
					"type": "uint256"
				}
			],
			"stateMutability": "view",
			"type": "function"
		},
		{
			"inputs": [
				{
					"internalType": "address",
					"name": "",
					"type": "address"
				},
				{
					"internalType": "uint256",
					"name": "",
					"type": "uint256"
				}
			],
			"name": "increaseAllowance",
			"outputs": [
				{
					"internalType": "bool",
					"name": "",
					"type": "bool"
				}
			],
			"stateMutability": "nonpayable",
			"type": "function"
		},
		{
			"inputs": [
				{
					"internalType": "contract IPool",
					"name": "initializingPool",
					"type": "address"
				},
				{
					"internalType": "address",
					"name": "underlyingAsset",
					"type": "address"
				},
				{
					"internalType": "contract IAaveIncentivesController",
					"name": "incentivesController",
					"type": "address"
				},
				{
					"internalType": "uint8",
					"name": "debtTokenDecimals",
					"type": "uint8"
				},
				{
					"internalType": "string",
					"name": "debtTokenName",
					"type": "string"
				},
				{
					"internalType": "string",
					"name": "debtTokenSymbol",
					"type": "string"
				},
				{
					"internalType": "bytes",
					"name": "params",
					"type": "bytes"
				}
			],
			"name": "initialize",
			"outputs": [],
			"stateMutability": "nonpayable",
			"type": "function"
		},
		{
			"inputs": [
				{
					"internalType": "address",
					"name": "user",
					"type": "address"
				},
				{
					"internalType": "address",
					"name": "onBehalfOf",
					"type": "address"
				},
				{
					"internalType": "uint256",
					"name": "amount",
					"type": "uint256"
				},
				{
					"internalType": "uint256",
					"name": "index",
					"type": "uint256"
				}
			],
			"name": "mint",
			"outputs": [
				{
					"internalType": "bool",
					"name": "",
					"type": "bool"
				},
				{
					"internalType": "uint256",
					"name": "",
					"type": "uint256"
				}
			],
			"stateMutability": "nonpayable",
			"type": "function"
		},
		{
			"inputs": [],
			"name": "name",
			"outputs": [
				{
					"internalType": "string",
					"name": "",
					"type": "string"
				}
			],
			"stateMutability": "view",
			"type": "function"
		},
		{
			"inputs": [
				{
					"internalType": "address",
					"name": "owner",
					"type": "address"
				}
			],
			"name": "nonces",
			"outputs": [
				{
					"internalType": "uint256",
					"name": "",
					"type": "uint256"
				}
			],
			"stateMutability": "view",
			"type": "function"
		},
		{
			"inputs": [
				{
					"internalType": "address",
					"name": "user",
					"type": "address"
				}
			],
			"name": "scaledBalanceOf",
			"outputs": [
				{
					"internalType": "uint256",
					"name": "",
					"type": "uint256"
				}
			],
			"stateMutability": "view",
			"type": "function"
		},
		{
			"inputs": [],
			"name": "scaledTotalSupply",
			"outputs": [
				{
					"internalType": "uint256",
					"name": "",
					"type": "uint256"
				}
			],
			"stateMutability": "view",
			"type": "function"
		},
		{
			"inputs": [
				{
					"internalType": "contract IAaveIncentivesController",
					"name": "controller",
					"type": "address"
				}
			],
			"name": "setIncentivesController",
			"outputs": [],
			"stateMutability": "nonpayable",
			"type": "function"
		},
		{
			"inputs": [],
			"name": "symbol",
			"outputs": [
				{
					"internalType": "string",
					"name": "",
					"type": "string"
				}
			],
			"stateMutability": "view",
			"type": "function"
		},
		{
			"inputs": [],
			"name": "totalSupply",
			"outputs": [
				{
					"internalType": "uint256",
					"name": "",
					"type": "uint256"
				}
			],
			"stateMutability": "view",
			"type": "function"
		},
		{
			"inputs": [
				{
					"internalType": "address",
					"name": "",
					"type": "address"
				},
				{
					"internalType": "uint256",
					"name": "",
					"type": "uint256"
				}
			],
			"name": "transfer",
			"outputs": [
				{
					"internalType": "bool",
					"name": "",
					"type": "bool"
				}
			],
			"stateMutability": "nonpayable",
			"type": "function"
		},
		{
			"inputs": [
				{
					"internalType": "address",
					"name": "",
					"type": "address"
				},
				{
					"internalType": "address",
					"name": "",
					"type": "address"
				},
				{
					"internalType": "uint256",
					"name": "",
					"type": "uint256"
				}
			],
			"name": "transferFrom",
			"outputs": [
				{
					"internalType": "bool",
					"name": "",
					"type": "bool"
				}
			],
			"stateMutability": "nonpayable",
			"type": "function"
		}
	]
}