{
	"contracts/treasury/CollectorController.sol": {
		"CollectorController": {
			"abi": [
				{
					"inputs": [
						{
							"internalType": "address",
							"name": "owner",
							"type": "address"
						}
					],
					"stateMutability": "nonpayable",
					"type": "constructor"
				},
				{
					"anonymous": false,
					"inputs": [
						{
							"indexed": true,
							"internalType": "address",
							"name": "previousOwner",
							"type": "address"
						},
						{
							"indexed": true,
							"internalType": "address",
							"name": "newOwner",
							"type": "address"
						}
					],
					"name": "OwnershipTransferred",
					"type": "event"
				},
				{
					"inputs": [
						{
							"internalType": "address",
							"name": "collector",
							"type": "address"
						},
						{
							"internalType": "contract IERC20",
							"name": "token",
							"type": "address"
						},
						{
							"internalType": "address",
							"name": "recipient",
							"type": "address"
						},
						{
							"internalType": "uint256",
							"name": "amount",
							"type": "uint256"
						}
					],
					"name": "approve",
					"outputs": [],
					"stateMutability": "nonpayable",
					"type": "function"
				},
				{
					"inputs": [],
					"name": "owner",
					"outputs": [
						{
							"internalType": "address",
							"name": "",
							"type": "address"
						}
					],
					"stateMutability": "view",
					"type": "function"
				},
				{
					"inputs": [],
					"name": "renounceOwnership",
					"outputs": [],
					"stateMutability": "nonpayable",
					"type": "function"
				},
				{
					"inputs": [
						{
							"internalType": "address",
							"name": "collector",
							"type": "address"
						},
						{
							"internalType": "contract IERC20",
							"name": "token",
							"type": "address"
						},
						{
							"internalType": "address",
							"name": "recipient",
							"type": "address"
						},
						{
							"internalType": "uint256",
							"name": "amount",
							"type": "uint256"
						}
					],
					"name": "transfer",
					"outputs": [],
					"stateMutability": "nonpayable",
					"type": "function"
				},
				{
					"inputs": [
						{
							"internalType": "address",
							"name": "newOwner",
							"type": "address"
						}
					],
					"name": "transferOwnership",
					"outputs": [],
					"stateMutability": "nonpayable",
					"type": "function"
				}
			],
			"devdoc": {
				"author": "Aave*",
				"kind": "dev",
				"methods": {
					"approve(address,address,address,uint256)": {
						"details": "Transfer an amount of tokens to the recipient.",
						"params": {
							"amount": "The amount to be transferred.",
							"collector": "The address of the collector contract",
							"recipient": "The address of the entity to transfer the tokens.",
							"token": "The address of the asset"
						}
					},
					"constructor": {
						"details": "Constructor setups the ownership of the contract",
						"params": {
							"owner": "The address of the owner of the CollectorController"
						}
					},
					"owner()": {
						"details": "Returns the address of the current owner."
					},
					"renounceOwnership()": {
						"details": "Leaves the contract without owner. It will not be possible to call `onlyOwner` functions anymore. Can only be called by the current owner. NOTE: Renouncing ownership will leave the contract without an owner, thereby removing any functionality that is only available to the owner."
					},
					"transfer(address,address,address,uint256)": {
						"details": "Transfer an amount of tokens to the recipient.",
						"params": {
							"amount": "The amount to be transferred.",
							"collector": "The address of the collector contract to retrieve funds from (e.g. Aave ecosystem reserve)",
							"recipient": "The address of the entity to transfer the tokens.",
							"token": "The address of the asset"
						}
					},
					"transferOwnership(address)": {
						"details": "Transfers ownership of the contract to a new account (`newOwner`). Can only be called by the current owner."
					}
				},
				"title": "CollectorController",
				"version": 1
			},
			"evm": {
				"assembly": "    /* \"contracts/treasury/CollectorController.sol\":705:2023  contract CollectorController is Ownable {... */\n  mstore(0x40, 0x80)\n    /* \"contracts/treasury/CollectorController.sol\":895:959  constructor(address owner) {... */\n  callvalue\n  dup1\n  iszero\n  tag_1\n  jumpi\n  0x00\n  dup1\n  revert\ntag_1:\n  pop\n  mload(0x40)\n  sub(codesize, bytecodeSize)\n  dup1\n  bytecodeSize\n  dup4\n  codecopy\n  dup2\n  dup2\n  add\n  0x40\n  mstore\n  dup2\n  add\n  swap1\n  tag_2\n  swap2\n  swap1\n  tag_3\n  jump\t// in\ntag_2:\n    /* \"@aave/core-v3/contracts/dependencies/openzeppelin/contracts/Ownable.sol\":835:852  address msgSender */\n  0x00\n    /* \"@aave/core-v3/contracts/dependencies/openzeppelin/contracts/Ownable.sol\":855:867  _msgSender() */\n  tag_7\n    /* \"@aave/core-v3/contracts/dependencies/openzeppelin/contracts/Ownable.sol\":855:865  _msgSender */\n  shl(0x20, tag_8)\n    /* \"@aave/core-v3/contracts/dependencies/openzeppelin/contracts/Ownable.sol\":855:867  _msgSender() */\n  0x20\n  shr\n  jump\t// in\ntag_7:\n    /* \"@aave/core-v3/contracts/dependencies/openzeppelin/contracts/Ownable.sol\":835:867  address msgSender = _msgSender() */\n  swap1\n  pop\n    /* \"@aave/core-v3/contracts/dependencies/openzeppelin/contracts/Ownable.sol\":882:891  msgSender */\n  dup1\n    /* \"@aave/core-v3/contracts/dependencies/openzeppelin/contracts/Ownable.sol\":873:879  _owner */\n  0x00\n  dup1\n    /* \"@aave/core-v3/contracts/dependencies/openzeppelin/contracts/Ownable.sol\":873:891  _owner = msgSender */\n  0x0100\n  exp\n  dup2\n  sload\n  dup2\n  0xffffffffffffffffffffffffffffffffffffffff\n  mul\n  not\n  and\n  swap1\n  dup4\n  0xffffffffffffffffffffffffffffffffffffffff\n  and\n  mul\n  or\n  swap1\n  sstore\n  pop\n    /* \"@aave/core-v3/contracts/dependencies/openzeppelin/contracts/Ownable.sol\":935:944  msgSender */\n  dup1\n    /* \"@aave/core-v3/contracts/dependencies/openzeppelin/contracts/Ownable.sol\":902:945  OwnershipTransferred(address(0), msgSender) */\n  0xffffffffffffffffffffffffffffffffffffffff\n  and\n    /* \"@aave/core-v3/contracts/dependencies/openzeppelin/contracts/Ownable.sol\":931:932  0 */\n  0x00\n    /* \"@aave/core-v3/contracts/dependencies/openzeppelin/contracts/Ownable.sol\":902:945  OwnershipTransferred(address(0), msgSender) */\n  0xffffffffffffffffffffffffffffffffffffffff\n  and\n  0x8be0079c531659141344cd1fd0a4f28419497f9722a3daafe3b4186f6b6457e0\n  mload(0x40)\n  mload(0x40)\n  dup1\n  swap2\n  sub\n  swap1\n  log3\n    /* \"@aave/core-v3/contracts/dependencies/openzeppelin/contracts/Ownable.sol\":829:950  {... */\n  pop\n    /* \"contracts/treasury/CollectorController.sol\":929:953  transferOwnership(owner) */\n  tag_10\n    /* \"contracts/treasury/CollectorController.sol\":947:952  owner */\n  dup2\n    /* \"contracts/treasury/CollectorController.sol\":929:946  transferOwnership */\n  shl(0x20, tag_11)\n    /* \"contracts/treasury/CollectorController.sol\":929:953  transferOwnership(owner) */\n  0x20\n  shr\n  jump\t// in\ntag_10:\n    /* \"contracts/treasury/CollectorController.sol\":895:959  constructor(address owner) {... */\n  pop\n    /* \"contracts/treasury/CollectorController.sol\":705:2023  contract CollectorController is Ownable {... */\n  jump(tag_12)\n    /* \"@aave/core-v3/contracts/dependencies/openzeppelin/contracts/Context.sol\":587:694  function _msgSender() internal view virtual returns (address payable) {... */\ntag_8:\n    /* \"@aave/core-v3/contracts/dependencies/openzeppelin/contracts/Context.sol\":640:655  address payable */\n  0x00\n    /* \"@aave/core-v3/contracts/dependencies/openzeppelin/contracts/Context.sol\":678:688  msg.sender */\n  caller\n    /* \"@aave/core-v3/contracts/dependencies/openzeppelin/contracts/Context.sol\":663:689  return payable(msg.sender) */\n  swap1\n  pop\n    /* \"@aave/core-v3/contracts/dependencies/openzeppelin/contracts/Context.sol\":587:694  function _msgSender() internal view virtual returns (address payable) {... */\n  swap1\n  jump\t// out\n    /* \"@aave/core-v3/contracts/dependencies/openzeppelin/contracts/Ownable.sol\":1875:2101  function transferOwnership(address newOwner) public virtual onlyOwner {... */\ntag_11:\n    /* \"@aave/core-v3/contracts/dependencies/openzeppelin/contracts/Ownable.sol\":1214:1226  _msgSender() */\n  tag_15\n    /* \"@aave/core-v3/contracts/dependencies/openzeppelin/contracts/Ownable.sol\":1214:1224  _msgSender */\n  shl(0x20, tag_8)\n    /* \"@aave/core-v3/contracts/dependencies/openzeppelin/contracts/Ownable.sol\":1214:1226  _msgSender() */\n  0x20\n  shr\n  jump\t// in\ntag_15:\n    /* \"@aave/core-v3/contracts/dependencies/openzeppelin/contracts/Ownable.sol\":1204:1226  _owner == _msgSender() */\n  0xffffffffffffffffffffffffffffffffffffffff\n  and\n    /* \"@aave/core-v3/contracts/dependencies/openzeppelin/contracts/Ownable.sol\":1204:1210  _owner */\n  0x00\n  dup1\n  sload\n  swap1\n  0x0100\n  exp\n  swap1\n  div\n  0xffffffffffffffffffffffffffffffffffffffff\n  and\n    /* \"@aave/core-v3/contracts/dependencies/openzeppelin/contracts/Ownable.sol\":1204:1226  _owner == _msgSender() */\n  0xffffffffffffffffffffffffffffffffffffffff\n  and\n  eq\n    /* \"@aave/core-v3/contracts/dependencies/openzeppelin/contracts/Ownable.sol\":1196:1263  require(_owner == _msgSender(), 'Ownable: caller is not the owner') */\n  tag_16\n  jumpi\n  mload(0x40)\n  0x08c379a000000000000000000000000000000000000000000000000000000000\n  dup2\n  mstore\n  0x04\n  add\n  tag_17\n  swap1\n  tag_18\n  jump\t// in\ntag_17:\n  mload(0x40)\n  dup1\n  swap2\n  sub\n  swap1\n  revert\ntag_16:\n    /* \"@aave/core-v3/contracts/dependencies/openzeppelin/contracts/Ownable.sol\":1979:1980  0 */\n  0x00\n    /* \"@aave/core-v3/contracts/dependencies/openzeppelin/contracts/Ownable.sol\":1959:1981  newOwner != address(0) */\n  0xffffffffffffffffffffffffffffffffffffffff\n  and\n    /* \"@aave/core-v3/contracts/dependencies/openzeppelin/contracts/Ownable.sol\":1959:1967  newOwner */\n  dup2\n    /* \"@aave/core-v3/contracts/dependencies/openzeppelin/contracts/Ownable.sol\":1959:1981  newOwner != address(0) */\n  0xffffffffffffffffffffffffffffffffffffffff\n  and\n  sub\n    /* \"@aave/core-v3/contracts/dependencies/openzeppelin/contracts/Ownable.sol\":1951:2024  require(newOwner != address(0), 'Ownable: new owner is the zero address') */\n  tag_20\n  jumpi\n  mload(0x40)\n  0x08c379a000000000000000000000000000000000000000000000000000000000\n  dup2\n  mstore\n  0x04\n  add\n  tag_21\n  swap1\n  tag_22\n  jump\t// in\ntag_21:\n  mload(0x40)\n  dup1\n  swap2\n  sub\n  swap1\n  revert\ntag_20:\n    /* \"@aave/core-v3/contracts/dependencies/openzeppelin/contracts/Ownable.sol\":2064:2072  newOwner */\n  dup1\n    /* \"@aave/core-v3/contracts/dependencies/openzeppelin/contracts/Ownable.sol\":2035:2073  OwnershipTransferred(_owner, newOwner) */\n  0xffffffffffffffffffffffffffffffffffffffff\n  and\n    /* \"@aave/core-v3/contracts/dependencies/openzeppelin/contracts/Ownable.sol\":2056:2062  _owner */\n  0x00\n  dup1\n  sload\n  swap1\n  0x0100\n  exp\n  swap1\n  div\n  0xffffffffffffffffffffffffffffffffffffffff\n  and\n    /* \"@aave/core-v3/contracts/dependencies/openzeppelin/contracts/Ownable.sol\":2035:2073  OwnershipTransferred(_owner, newOwner) */\n  0xffffffffffffffffffffffffffffffffffffffff\n  and\n  0x8be0079c531659141344cd1fd0a4f28419497f9722a3daafe3b4186f6b6457e0\n  mload(0x40)\n  mload(0x40)\n  dup1\n  swap2\n  sub\n  swap1\n  log3\n    /* \"@aave/core-v3/contracts/dependencies/openzeppelin/contracts/Ownable.sol\":2088:2096  newOwner */\n  dup1\n    /* \"@aave/core-v3/contracts/dependencies/openzeppelin/contracts/Ownable.sol\":2079:2085  _owner */\n  0x00\n  dup1\n    /* \"@aave/core-v3/contracts/dependencies/openzeppelin/contracts/Ownable.sol\":2079:2096  _owner = newOwner */\n  0x0100\n  exp\n  dup2\n  sload\n  dup2\n  0xffffffffffffffffffffffffffffffffffffffff\n  mul\n  not\n  and\n  swap1\n  dup4\n  0xffffffffffffffffffffffffffffffffffffffff\n  and\n  mul\n  or\n  swap1\n  sstore\n  pop\n    /* \"@aave/core-v3/contracts/dependencies/openzeppelin/contracts/Ownable.sol\":1875:2101  function transferOwnership(address newOwner) public virtual onlyOwner {... */\n  pop\n  jump\t// out\n    /* \"#utility.yul\":88:205   */\ntag_24:\n    /* \"#utility.yul\":197:198   */\n  0x00\n    /* \"#utility.yul\":194:195   */\n  dup1\n    /* \"#utility.yul\":187:199   */\n  revert\n    /* \"#utility.yul\":334:460   */\ntag_26:\n    /* \"#utility.yul\":371:378   */\n  0x00\n    /* \"#utility.yul\":411:453   */\n  0xffffffffffffffffffffffffffffffffffffffff\n    /* \"#utility.yul\":404:409   */\n  dup3\n    /* \"#utility.yul\":400:454   */\n  and\n    /* \"#utility.yul\":389:454   */\n  swap1\n  pop\n    /* \"#utility.yul\":334:460   */\n  swap2\n  swap1\n  pop\n  jump\t// out\n    /* \"#utility.yul\":466:562   */\ntag_27:\n    /* \"#utility.yul\":503:510   */\n  0x00\n    /* \"#utility.yul\":532:556   */\n  tag_41\n    /* \"#utility.yul\":550:555   */\n  dup3\n    /* \"#utility.yul\":532:556   */\n  tag_26\n  jump\t// in\ntag_41:\n    /* \"#utility.yul\":521:556   */\n  swap1\n  pop\n    /* \"#utility.yul\":466:562   */\n  swap2\n  swap1\n  pop\n  jump\t// out\n    /* \"#utility.yul\":568:690   */\ntag_28:\n    /* \"#utility.yul\":641:665   */\n  tag_43\n    /* \"#utility.yul\":659:664   */\n  dup2\n    /* \"#utility.yul\":641:665   */\n  tag_27\n  jump\t// in\ntag_43:\n    /* \"#utility.yul\":634:639   */\n  dup2\n    /* \"#utility.yul\":631:666   */\n  eq\n    /* \"#utility.yul\":621:684   */\n  tag_44\n  jumpi\n    /* \"#utility.yul\":680:681   */\n  0x00\n    /* \"#utility.yul\":677:678   */\n  dup1\n    /* \"#utility.yul\":670:682   */\n  revert\n    /* \"#utility.yul\":621:684   */\ntag_44:\n    /* \"#utility.yul\":568:690   */\n  pop\n  jump\t// out\n    /* \"#utility.yul\":696:839   */\ntag_29:\n    /* \"#utility.yul\":753:758   */\n  0x00\n    /* \"#utility.yul\":784:790   */\n  dup2\n    /* \"#utility.yul\":778:791   */\n  mload\n    /* \"#utility.yul\":769:791   */\n  swap1\n  pop\n    /* \"#utility.yul\":800:833   */\n  tag_46\n    /* \"#utility.yul\":827:832   */\n  dup2\n    /* \"#utility.yul\":800:833   */\n  tag_28\n  jump\t// in\ntag_46:\n    /* \"#utility.yul\":696:839   */\n  swap3\n  swap2\n  pop\n  pop\n  jump\t// out\n    /* \"#utility.yul\":845:1196   */\ntag_3:\n    /* \"#utility.yul\":915:921   */\n  0x00\n    /* \"#utility.yul\":964:966   */\n  0x20\n    /* \"#utility.yul\":952:961   */\n  dup3\n    /* \"#utility.yul\":943:950   */\n  dup5\n    /* \"#utility.yul\":939:962   */\n  sub\n    /* \"#utility.yul\":935:967   */\n  slt\n    /* \"#utility.yul\":932:1051   */\n  iszero\n  tag_48\n  jumpi\n    /* \"#utility.yul\":970:1049   */\n  tag_49\n  tag_24\n  jump\t// in\ntag_49:\n    /* \"#utility.yul\":932:1051   */\ntag_48:\n    /* \"#utility.yul\":1090:1091   */\n  0x00\n    /* \"#utility.yul\":1115:1179   */\n  tag_50\n    /* \"#utility.yul\":1171:1178   */\n  dup5\n    /* \"#utility.yul\":1162:1168   */\n  dup3\n    /* \"#utility.yul\":1151:1160   */\n  dup6\n    /* \"#utility.yul\":1147:1169   */\n  add\n    /* \"#utility.yul\":1115:1179   */\n  tag_29\n  jump\t// in\ntag_50:\n    /* \"#utility.yul\":1105:1179   */\n  swap2\n  pop\n    /* \"#utility.yul\":1061:1189   */\n  pop\n    /* \"#utility.yul\":845:1196   */\n  swap3\n  swap2\n  pop\n  pop\n  jump\t// out\n    /* \"#utility.yul\":1202:1371   */\ntag_30:\n    /* \"#utility.yul\":1286:1297   */\n  0x00\n    /* \"#utility.yul\":1320:1326   */\n  dup3\n    /* \"#utility.yul\":1315:1318   */\n  dup3\n    /* \"#utility.yul\":1308:1327   */\n  mstore\n    /* \"#utility.yul\":1360:1364   */\n  0x20\n    /* \"#utility.yul\":1355:1358   */\n  dup3\n    /* \"#utility.yul\":1351:1365   */\n  add\n    /* \"#utility.yul\":1336:1365   */\n  swap1\n  pop\n    /* \"#utility.yul\":1202:1371   */\n  swap3\n  swap2\n  pop\n  pop\n  jump\t// out\n    /* \"#utility.yul\":1377:1559   */\ntag_31:\n    /* \"#utility.yul\":1517:1551   */\n  0x4f776e61626c653a2063616c6c6572206973206e6f7420746865206f776e6572\n    /* \"#utility.yul\":1513:1514   */\n  0x00\n    /* \"#utility.yul\":1505:1511   */\n  dup3\n    /* \"#utility.yul\":1501:1515   */\n  add\n    /* \"#utility.yul\":1494:1552   */\n  mstore\n    /* \"#utility.yul\":1377:1559   */\n  pop\n  jump\t// out\n    /* \"#utility.yul\":1565:1931   */\ntag_32:\n    /* \"#utility.yul\":1707:1710   */\n  0x00\n    /* \"#utility.yul\":1728:1795   */\n  tag_54\n    /* \"#utility.yul\":1792:1794   */\n  0x20\n    /* \"#utility.yul\":1787:1790   */\n  dup4\n    /* \"#utility.yul\":1728:1795   */\n  tag_30\n  jump\t// in\ntag_54:\n    /* \"#utility.yul\":1721:1795   */\n  swap2\n  pop\n    /* \"#utility.yul\":1804:1897   */\n  tag_55\n    /* \"#utility.yul\":1893:1896   */\n  dup3\n    /* \"#utility.yul\":1804:1897   */\n  tag_31\n  jump\t// in\ntag_55:\n    /* \"#utility.yul\":1922:1924   */\n  0x20\n    /* \"#utility.yul\":1917:1920   */\n  dup3\n    /* \"#utility.yul\":1913:1925   */\n  add\n    /* \"#utility.yul\":1906:1925   */\n  swap1\n  pop\n    /* \"#utility.yul\":1565:1931   */\n  swap2\n  swap1\n  pop\n  jump\t// out\n    /* \"#utility.yul\":1937:2356   */\ntag_18:\n    /* \"#utility.yul\":2103:2107   */\n  0x00\n    /* \"#utility.yul\":2141:2143   */\n  0x20\n    /* \"#utility.yul\":2130:2139   */\n  dup3\n    /* \"#utility.yul\":2126:2144   */\n  add\n    /* \"#utility.yul\":2118:2144   */\n  swap1\n  pop\n    /* \"#utility.yul\":2190:2199   */\n  dup2\n    /* \"#utility.yul\":2184:2188   */\n  dup2\n    /* \"#utility.yul\":2180:2200   */\n  sub\n    /* \"#utility.yul\":2176:2177   */\n  0x00\n    /* \"#utility.yul\":2165:2174   */\n  dup4\n    /* \"#utility.yul\":2161:2178   */\n  add\n    /* \"#utility.yul\":2154:2201   */\n  mstore\n    /* \"#utility.yul\":2218:2349   */\n  tag_57\n    /* \"#utility.yul\":2344:2348   */\n  dup2\n    /* \"#utility.yul\":2218:2349   */\n  tag_32\n  jump\t// in\ntag_57:\n    /* \"#utility.yul\":2210:2349   */\n  swap1\n  pop\n    /* \"#utility.yul\":1937:2356   */\n  swap2\n  swap1\n  pop\n  jump\t// out\n    /* \"#utility.yul\":2362:2587   */\ntag_33:\n    /* \"#utility.yul\":2502:2536   */\n  0x4f776e61626c653a206e6577206f776e657220697320746865207a65726f2061\n    /* \"#utility.yul\":2498:2499   */\n  0x00\n    /* \"#utility.yul\":2490:2496   */\n  dup3\n    /* \"#utility.yul\":2486:2500   */\n  add\n    /* \"#utility.yul\":2479:2537   */\n  mstore\n    /* \"#utility.yul\":2571:2579   */\n  0x6464726573730000000000000000000000000000000000000000000000000000\n    /* \"#utility.yul\":2566:2568   */\n  0x20\n    /* \"#utility.yul\":2558:2564   */\n  dup3\n    /* \"#utility.yul\":2554:2569   */\n  add\n    /* \"#utility.yul\":2547:2580   */\n  mstore\n    /* \"#utility.yul\":2362:2587   */\n  pop\n  jump\t// out\n    /* \"#utility.yul\":2593:2959   */\ntag_34:\n    /* \"#utility.yul\":2735:2738   */\n  0x00\n    /* \"#utility.yul\":2756:2823   */\n  tag_60\n    /* \"#utility.yul\":2820:2822   */\n  0x26\n    /* \"#utility.yul\":2815:2818   */\n  dup4\n    /* \"#utility.yul\":2756:2823   */\n  tag_30\n  jump\t// in\ntag_60:\n    /* \"#utility.yul\":2749:2823   */\n  swap2\n  pop\n    /* \"#utility.yul\":2832:2925   */\n  tag_61\n    /* \"#utility.yul\":2921:2924   */\n  dup3\n    /* \"#utility.yul\":2832:2925   */\n  tag_33\n  jump\t// in\ntag_61:\n    /* \"#utility.yul\":2950:2952   */\n  0x40\n    /* \"#utility.yul\":2945:2948   */\n  dup3\n    /* \"#utility.yul\":2941:2953   */\n  add\n    /* \"#utility.yul\":2934:2953   */\n  swap1\n  pop\n    /* \"#utility.yul\":2593:2959   */\n  swap2\n  swap1\n  pop\n  jump\t// out\n    /* \"#utility.yul\":2965:3384   */\ntag_22:\n    /* \"#utility.yul\":3131:3135   */\n  0x00\n    /* \"#utility.yul\":3169:3171   */\n  0x20\n    /* \"#utility.yul\":3158:3167   */\n  dup3\n    /* \"#utility.yul\":3154:3172   */\n  add\n    /* \"#utility.yul\":3146:3172   */\n  swap1\n  pop\n    /* \"#utility.yul\":3218:3227   */\n  dup2\n    /* \"#utility.yul\":3212:3216   */\n  dup2\n    /* \"#utility.yul\":3208:3228   */\n  sub\n    /* \"#utility.yul\":3204:3205   */\n  0x00\n    /* \"#utility.yul\":3193:3202   */\n  dup4\n    /* \"#utility.yul\":3189:3206   */\n  add\n    /* \"#utility.yul\":3182:3229   */\n  mstore\n    /* \"#utility.yul\":3246:3377   */\n  tag_63\n    /* \"#utility.yul\":3372:3376   */\n  dup2\n    /* \"#utility.yul\":3246:3377   */\n  tag_34\n  jump\t// in\ntag_63:\n    /* \"#utility.yul\":3238:3377   */\n  swap1\n  pop\n    /* \"#utility.yul\":2965:3384   */\n  swap2\n  swap1\n  pop\n  jump\t// out\n    /* \"contracts/treasury/CollectorController.sol\":705:2023  contract CollectorController is Ownable {... */\ntag_12:\n  dataSize(sub_0)\n  dup1\n  dataOffset(sub_0)\n  0x00\n  codecopy\n  0x00\n  return\nstop\n\nsub_0: assembly {\n        /* \"contracts/treasury/CollectorController.sol\":705:2023  contract CollectorController is Ownable {... */\n      mstore(0x40, 0x80)\n      callvalue\n      dup1\n      iszero\n      tag_1\n      jumpi\n      0x00\n      dup1\n      revert\n    tag_1:\n      pop\n      jumpi(tag_2, lt(calldatasize, 0x04))\n      shr(0xe0, calldataload(0x00))\n      dup1\n      0x59eba454\n      eq\n      tag_3\n      jumpi\n      dup1\n      0x715018a6\n      eq\n      tag_4\n      jumpi\n      dup1\n      0x8da5cb5b\n      eq\n      tag_5\n      jumpi\n      dup1\n      0xf18d03cc\n      eq\n      tag_6\n      jumpi\n      dup1\n      0xf2fde38b\n      eq\n      tag_7\n      jumpi\n    tag_2:\n      0x00\n      dup1\n      revert\n        /* \"contracts/treasury/CollectorController.sol\":1265:1462  function approve(... */\n    tag_3:\n      tag_8\n      0x04\n      dup1\n      calldatasize\n      sub\n      dup2\n      add\n      swap1\n      tag_9\n      swap2\n      swap1\n      tag_10\n      jump\t// in\n    tag_9:\n      tag_11\n      jump\t// in\n    tag_8:\n      stop\n        /* \"@aave/core-v3/contracts/dependencies/openzeppelin/contracts/Ownable.sol\":1601:1736  function renounceOwnership() public virtual onlyOwner {... */\n    tag_4:\n      tag_12\n      tag_13\n      jump\t// in\n    tag_12:\n      stop\n        /* \"@aave/core-v3/contracts/dependencies/openzeppelin/contracts/Ownable.sol\":1018:1089  function owner() public view returns (address) {... */\n    tag_5:\n      tag_14\n      tag_15\n      jump\t// in\n    tag_14:\n      mload(0x40)\n      tag_16\n      swap2\n      swap1\n      tag_17\n      jump\t// in\n    tag_16:\n      mload(0x40)\n      dup1\n      swap2\n      sub\n      swap1\n      return\n        /* \"contracts/treasury/CollectorController.sol\":1821:2020  function transfer(... */\n    tag_6:\n      tag_18\n      0x04\n      dup1\n      calldatasize\n      sub\n      dup2\n      add\n      swap1\n      tag_19\n      swap2\n      swap1\n      tag_10\n      jump\t// in\n    tag_19:\n      tag_20\n      jump\t// in\n    tag_18:\n      stop\n        /* \"@aave/core-v3/contracts/dependencies/openzeppelin/contracts/Ownable.sol\":1875:2101  function transferOwnership(address newOwner) public virtual onlyOwner {... */\n    tag_7:\n      tag_21\n      0x04\n      dup1\n      calldatasize\n      sub\n      dup2\n      add\n      swap1\n      tag_22\n      swap2\n      swap1\n      tag_23\n      jump\t// in\n    tag_22:\n      tag_24\n      jump\t// in\n    tag_21:\n      stop\n        /* \"contracts/treasury/CollectorController.sol\":1265:1462  function approve(... */\n    tag_11:\n        /* \"@aave/core-v3/contracts/dependencies/openzeppelin/contracts/Ownable.sol\":1214:1226  _msgSender() */\n      tag_26\n        /* \"@aave/core-v3/contracts/dependencies/openzeppelin/contracts/Ownable.sol\":1214:1224  _msgSender */\n      tag_27\n        /* \"@aave/core-v3/contracts/dependencies/openzeppelin/contracts/Ownable.sol\":1214:1226  _msgSender() */\n      jump\t// in\n    tag_26:\n        /* \"@aave/core-v3/contracts/dependencies/openzeppelin/contracts/Ownable.sol\":1204:1226  _owner == _msgSender() */\n      0xffffffffffffffffffffffffffffffffffffffff\n      and\n        /* \"@aave/core-v3/contracts/dependencies/openzeppelin/contracts/Ownable.sol\":1204:1210  _owner */\n      0x00\n      dup1\n      sload\n      swap1\n      0x0100\n      exp\n      swap1\n      div\n      0xffffffffffffffffffffffffffffffffffffffff\n      and\n        /* \"@aave/core-v3/contracts/dependencies/openzeppelin/contracts/Ownable.sol\":1204:1226  _owner == _msgSender() */\n      0xffffffffffffffffffffffffffffffffffffffff\n      and\n      eq\n        /* \"@aave/core-v3/contracts/dependencies/openzeppelin/contracts/Ownable.sol\":1196:1263  require(_owner == _msgSender(), 'Ownable: caller is not the owner') */\n      tag_28\n      jumpi\n      mload(0x40)\n      0x08c379a000000000000000000000000000000000000000000000000000000000\n      dup2\n      mstore\n      0x04\n      add\n      tag_29\n      swap1\n      tag_30\n      jump\t// in\n    tag_29:\n      mload(0x40)\n      dup1\n      swap2\n      sub\n      swap1\n      revert\n    tag_28:\n        /* \"contracts/treasury/CollectorController.sol\":1412:1421  collector */\n      dup4\n        /* \"contracts/treasury/CollectorController.sol\":1401:1430  ICollector(collector).approve */\n      0xffffffffffffffffffffffffffffffffffffffff\n      and\n      0xe1f21c67\n        /* \"contracts/treasury/CollectorController.sol\":1431:1436  token */\n      dup5\n        /* \"contracts/treasury/CollectorController.sol\":1438:1447  recipient */\n      dup5\n        /* \"contracts/treasury/CollectorController.sol\":1449:1455  amount */\n      dup5\n        /* \"contracts/treasury/CollectorController.sol\":1401:1456  ICollector(collector).approve(token, recipient, amount) */\n      mload(0x40)\n      dup5\n      0xffffffff\n      and\n      0xe0\n      shl\n      dup2\n      mstore\n      0x04\n      add\n      tag_32\n      swap4\n      swap3\n      swap2\n      swap1\n      tag_33\n      jump\t// in\n    tag_32:\n      0x00\n      mload(0x40)\n      dup1\n      dup4\n      sub\n      dup2\n      0x00\n      dup8\n      dup1\n      extcodesize\n      iszero\n      dup1\n      iszero\n      tag_34\n      jumpi\n      0x00\n      dup1\n      revert\n    tag_34:\n      pop\n      gas\n      call\n      iszero\n      dup1\n      iszero\n      tag_36\n      jumpi\n      returndatasize\n      0x00\n      dup1\n      returndatacopy\n      revert(0x00, returndatasize)\n    tag_36:\n      pop\n      pop\n      pop\n      pop\n        /* \"contracts/treasury/CollectorController.sol\":1265:1462  function approve(... */\n      pop\n      pop\n      pop\n      pop\n      jump\t// out\n        /* \"@aave/core-v3/contracts/dependencies/openzeppelin/contracts/Ownable.sol\":1601:1736  function renounceOwnership() public virtual onlyOwner {... */\n    tag_13:\n        /* \"@aave/core-v3/contracts/dependencies/openzeppelin/contracts/Ownable.sol\":1214:1226  _msgSender() */\n      tag_38\n        /* \"@aave/core-v3/contracts/dependencies/openzeppelin/contracts/Ownable.sol\":1214:1224  _msgSender */\n      tag_27\n        /* \"@aave/core-v3/contracts/dependencies/openzeppelin/contracts/Ownable.sol\":1214:1226  _msgSender() */\n      jump\t// in\n    tag_38:\n        /* \"@aave/core-v3/contracts/dependencies/openzeppelin/contracts/Ownable.sol\":1204:1226  _owner == _msgSender() */\n      0xffffffffffffffffffffffffffffffffffffffff\n      and\n        /* \"@aave/core-v3/contracts/dependencies/openzeppelin/contracts/Ownable.sol\":1204:1210  _owner */\n      0x00\n      dup1\n      sload\n      swap1\n      0x0100\n      exp\n      swap1\n      div\n      0xffffffffffffffffffffffffffffffffffffffff\n      and\n        /* \"@aave/core-v3/contracts/dependencies/openzeppelin/contracts/Ownable.sol\":1204:1226  _owner == _msgSender() */\n      0xffffffffffffffffffffffffffffffffffffffff\n      and\n      eq\n        /* \"@aave/core-v3/contracts/dependencies/openzeppelin/contracts/Ownable.sol\":1196:1263  require(_owner == _msgSender(), 'Ownable: caller is not the owner') */\n      tag_39\n      jumpi\n      mload(0x40)\n      0x08c379a000000000000000000000000000000000000000000000000000000000\n      dup2\n      mstore\n      0x04\n      add\n      tag_40\n      swap1\n      tag_30\n      jump\t// in\n    tag_40:\n      mload(0x40)\n      dup1\n      swap2\n      sub\n      swap1\n      revert\n    tag_39:\n        /* \"@aave/core-v3/contracts/dependencies/openzeppelin/contracts/Ownable.sol\":1703:1704  0 */\n      0x00\n        /* \"@aave/core-v3/contracts/dependencies/openzeppelin/contracts/Ownable.sol\":1666:1706  OwnershipTransferred(_owner, address(0)) */\n      0xffffffffffffffffffffffffffffffffffffffff\n      and\n        /* \"@aave/core-v3/contracts/dependencies/openzeppelin/contracts/Ownable.sol\":1687:1693  _owner */\n      0x00\n      dup1\n      sload\n      swap1\n      0x0100\n      exp\n      swap1\n      div\n      0xffffffffffffffffffffffffffffffffffffffff\n      and\n        /* \"@aave/core-v3/contracts/dependencies/openzeppelin/contracts/Ownable.sol\":1666:1706  OwnershipTransferred(_owner, address(0)) */\n      0xffffffffffffffffffffffffffffffffffffffff\n      and\n      0x8be0079c531659141344cd1fd0a4f28419497f9722a3daafe3b4186f6b6457e0\n      mload(0x40)\n      mload(0x40)\n      dup1\n      swap2\n      sub\n      swap1\n      log3\n        /* \"@aave/core-v3/contracts/dependencies/openzeppelin/contracts/Ownable.sol\":1729:1730  0 */\n      0x00\n        /* \"@aave/core-v3/contracts/dependencies/openzeppelin/contracts/Ownable.sol\":1712:1718  _owner */\n      dup1\n      0x00\n        /* \"@aave/core-v3/contracts/dependencies/openzeppelin/contracts/Ownable.sol\":1712:1731  _owner = address(0) */\n      0x0100\n      exp\n      dup2\n      sload\n      dup2\n      0xffffffffffffffffffffffffffffffffffffffff\n      mul\n      not\n      and\n      swap1\n      dup4\n      0xffffffffffffffffffffffffffffffffffffffff\n      and\n      mul\n      or\n      swap1\n      sstore\n      pop\n        /* \"@aave/core-v3/contracts/dependencies/openzeppelin/contracts/Ownable.sol\":1601:1736  function renounceOwnership() public virtual onlyOwner {... */\n      jump\t// out\n        /* \"@aave/core-v3/contracts/dependencies/openzeppelin/contracts/Ownable.sol\":1018:1089  function owner() public view returns (address) {... */\n    tag_15:\n        /* \"@aave/core-v3/contracts/dependencies/openzeppelin/contracts/Ownable.sol\":1056:1063  address */\n      0x00\n        /* \"@aave/core-v3/contracts/dependencies/openzeppelin/contracts/Ownable.sol\":1078:1084  _owner */\n      dup1\n      0x00\n      swap1\n      sload\n      swap1\n      0x0100\n      exp\n      swap1\n      div\n      0xffffffffffffffffffffffffffffffffffffffff\n      and\n        /* \"@aave/core-v3/contracts/dependencies/openzeppelin/contracts/Ownable.sol\":1071:1084  return _owner */\n      swap1\n      pop\n        /* \"@aave/core-v3/contracts/dependencies/openzeppelin/contracts/Ownable.sol\":1018:1089  function owner() public view returns (address) {... */\n      swap1\n      jump\t// out\n        /* \"contracts/treasury/CollectorController.sol\":1821:2020  function transfer(... */\n    tag_20:\n        /* \"@aave/core-v3/contracts/dependencies/openzeppelin/contracts/Ownable.sol\":1214:1226  _msgSender() */\n      tag_44\n        /* \"@aave/core-v3/contracts/dependencies/openzeppelin/contracts/Ownable.sol\":1214:1224  _msgSender */\n      tag_27\n        /* \"@aave/core-v3/contracts/dependencies/openzeppelin/contracts/Ownable.sol\":1214:1226  _msgSender() */\n      jump\t// in\n    tag_44:\n        /* \"@aave/core-v3/contracts/dependencies/openzeppelin/contracts/Ownable.sol\":1204:1226  _owner == _msgSender() */\n      0xffffffffffffffffffffffffffffffffffffffff\n      and\n        /* \"@aave/core-v3/contracts/dependencies/openzeppelin/contracts/Ownable.sol\":1204:1210  _owner */\n      0x00\n      dup1\n      sload\n      swap1\n      0x0100\n      exp\n      swap1\n      div\n      0xffffffffffffffffffffffffffffffffffffffff\n      and\n        /* \"@aave/core-v3/contracts/dependencies/openzeppelin/contracts/Ownable.sol\":1204:1226  _owner == _msgSender() */\n      0xffffffffffffffffffffffffffffffffffffffff\n      and\n      eq\n        /* \"@aave/core-v3/contracts/dependencies/openzeppelin/contracts/Ownable.sol\":1196:1263  require(_owner == _msgSender(), 'Ownable: caller is not the owner') */\n      tag_45\n      jumpi\n      mload(0x40)\n      0x08c379a000000000000000000000000000000000000000000000000000000000\n      dup2\n      mstore\n      0x04\n      add\n      tag_46\n      swap1\n      tag_30\n      jump\t// in\n    tag_46:\n      mload(0x40)\n      dup1\n      swap2\n      sub\n      swap1\n      revert\n    tag_45:\n        /* \"contracts/treasury/CollectorController.sol\":1969:1978  collector */\n      dup4\n        /* \"contracts/treasury/CollectorController.sol\":1958:1988  ICollector(collector).transfer */\n      0xffffffffffffffffffffffffffffffffffffffff\n      and\n      0xbeabacc8\n        /* \"contracts/treasury/CollectorController.sol\":1989:1994  token */\n      dup5\n        /* \"contracts/treasury/CollectorController.sol\":1996:2005  recipient */\n      dup5\n        /* \"contracts/treasury/CollectorController.sol\":2007:2013  amount */\n      dup5\n        /* \"contracts/treasury/CollectorController.sol\":1958:2014  ICollector(collector).transfer(token, recipient, amount) */\n      mload(0x40)\n      dup5\n      0xffffffff\n      and\n      0xe0\n      shl\n      dup2\n      mstore\n      0x04\n      add\n      tag_48\n      swap4\n      swap3\n      swap2\n      swap1\n      tag_33\n      jump\t// in\n    tag_48:\n      0x00\n      mload(0x40)\n      dup1\n      dup4\n      sub\n      dup2\n      0x00\n      dup8\n      dup1\n      extcodesize\n      iszero\n      dup1\n      iszero\n      tag_49\n      jumpi\n      0x00\n      dup1\n      revert\n    tag_49:\n      pop\n      gas\n      call\n      iszero\n      dup1\n      iszero\n      tag_51\n      jumpi\n      returndatasize\n      0x00\n      dup1\n      returndatacopy\n      revert(0x00, returndatasize)\n    tag_51:\n      pop\n      pop\n      pop\n      pop\n        /* \"contracts/treasury/CollectorController.sol\":1821:2020  function transfer(... */\n      pop\n      pop\n      pop\n      pop\n      jump\t// out\n        /* \"@aave/core-v3/contracts/dependencies/openzeppelin/contracts/Ownable.sol\":1875:2101  function transferOwnership(address newOwner) public virtual onlyOwner {... */\n    tag_24:\n        /* \"@aave/core-v3/contracts/dependencies/openzeppelin/contracts/Ownable.sol\":1214:1226  _msgSender() */\n      tag_53\n        /* \"@aave/core-v3/contracts/dependencies/openzeppelin/contracts/Ownable.sol\":1214:1224  _msgSender */\n      tag_27\n        /* \"@aave/core-v3/contracts/dependencies/openzeppelin/contracts/Ownable.sol\":1214:1226  _msgSender() */\n      jump\t// in\n    tag_53:\n        /* \"@aave/core-v3/contracts/dependencies/openzeppelin/contracts/Ownable.sol\":1204:1226  _owner == _msgSender() */\n      0xffffffffffffffffffffffffffffffffffffffff\n      and\n        /* \"@aave/core-v3/contracts/dependencies/openzeppelin/contracts/Ownable.sol\":1204:1210  _owner */\n      0x00\n      dup1\n      sload\n      swap1\n      0x0100\n      exp\n      swap1\n      div\n      0xffffffffffffffffffffffffffffffffffffffff\n      and\n        /* \"@aave/core-v3/contracts/dependencies/openzeppelin/contracts/Ownable.sol\":1204:1226  _owner == _msgSender() */\n      0xffffffffffffffffffffffffffffffffffffffff\n      and\n      eq\n        /* \"@aave/core-v3/contracts/dependencies/openzeppelin/contracts/Ownable.sol\":1196:1263  require(_owner == _msgSender(), 'Ownable: caller is not the owner') */\n      tag_54\n      jumpi\n      mload(0x40)\n      0x08c379a000000000000000000000000000000000000000000000000000000000\n      dup2\n      mstore\n      0x04\n      add\n      tag_55\n      swap1\n      tag_30\n      jump\t// in\n    tag_55:\n      mload(0x40)\n      dup1\n      swap2\n      sub\n      swap1\n      revert\n    tag_54:\n        /* \"@aave/core-v3/contracts/dependencies/openzeppelin/contracts/Ownable.sol\":1979:1980  0 */\n      0x00\n        /* \"@aave/core-v3/contracts/dependencies/openzeppelin/contracts/Ownable.sol\":1959:1981  newOwner != address(0) */\n      0xffffffffffffffffffffffffffffffffffffffff\n      and\n        /* \"@aave/core-v3/contracts/dependencies/openzeppelin/contracts/Ownable.sol\":1959:1967  newOwner */\n      dup2\n        /* \"@aave/core-v3/contracts/dependencies/openzeppelin/contracts/Ownable.sol\":1959:1981  newOwner != address(0) */\n      0xffffffffffffffffffffffffffffffffffffffff\n      and\n      sub\n        /* \"@aave/core-v3/contracts/dependencies/openzeppelin/contracts/Ownable.sol\":1951:2024  require(newOwner != address(0), 'Ownable: new owner is the zero address') */\n      tag_57\n      jumpi\n      mload(0x40)\n      0x08c379a000000000000000000000000000000000000000000000000000000000\n      dup2\n      mstore\n      0x04\n      add\n      tag_58\n      swap1\n      tag_59\n      jump\t// in\n    tag_58:\n      mload(0x40)\n      dup1\n      swap2\n      sub\n      swap1\n      revert\n    tag_57:\n        /* \"@aave/core-v3/contracts/dependencies/openzeppelin/contracts/Ownable.sol\":2064:2072  newOwner */\n      dup1\n        /* \"@aave/core-v3/contracts/dependencies/openzeppelin/contracts/Ownable.sol\":2035:2073  OwnershipTransferred(_owner, newOwner) */\n      0xffffffffffffffffffffffffffffffffffffffff\n      and\n        /* \"@aave/core-v3/contracts/dependencies/openzeppelin/contracts/Ownable.sol\":2056:2062  _owner */\n      0x00\n      dup1\n      sload\n      swap1\n      0x0100\n      exp\n      swap1\n      div\n      0xffffffffffffffffffffffffffffffffffffffff\n      and\n        /* \"@aave/core-v3/contracts/dependencies/openzeppelin/contracts/Ownable.sol\":2035:2073  OwnershipTransferred(_owner, newOwner) */\n      0xffffffffffffffffffffffffffffffffffffffff\n      and\n      0x8be0079c531659141344cd1fd0a4f28419497f9722a3daafe3b4186f6b6457e0\n      mload(0x40)\n      mload(0x40)\n      dup1\n      swap2\n      sub\n      swap1\n      log3\n        /* \"@aave/core-v3/contracts/dependencies/openzeppelin/contracts/Ownable.sol\":2088:2096  newOwner */\n      dup1\n        /* \"@aave/core-v3/contracts/dependencies/openzeppelin/contracts/Ownable.sol\":2079:2085  _owner */\n      0x00\n      dup1\n        /* \"@aave/core-v3/contracts/dependencies/openzeppelin/contracts/Ownable.sol\":2079:2096  _owner = newOwner */\n      0x0100\n      exp\n      dup2\n      sload\n      dup2\n      0xffffffffffffffffffffffffffffffffffffffff\n      mul\n      not\n      and\n      swap1\n      dup4\n      0xffffffffffffffffffffffffffffffffffffffff\n      and\n      mul\n      or\n      swap1\n      sstore\n      pop\n        /* \"@aave/core-v3/contracts/dependencies/openzeppelin/contracts/Ownable.sol\":1875:2101  function transferOwnership(address newOwner) public virtual onlyOwner {... */\n      pop\n      jump\t// out\n        /* \"@aave/core-v3/contracts/dependencies/openzeppelin/contracts/Context.sol\":587:694  function _msgSender() internal view virtual returns (address payable) {... */\n    tag_27:\n        /* \"@aave/core-v3/contracts/dependencies/openzeppelin/contracts/Context.sol\":640:655  address payable */\n      0x00\n        /* \"@aave/core-v3/contracts/dependencies/openzeppelin/contracts/Context.sol\":678:688  msg.sender */\n      caller\n        /* \"@aave/core-v3/contracts/dependencies/openzeppelin/contracts/Context.sol\":663:689  return payable(msg.sender) */\n      swap1\n      pop\n        /* \"@aave/core-v3/contracts/dependencies/openzeppelin/contracts/Context.sol\":587:694  function _msgSender() internal view virtual returns (address payable) {... */\n      swap1\n      jump\t// out\n        /* \"#utility.yul\":88:205   */\n    tag_62:\n        /* \"#utility.yul\":197:198   */\n      0x00\n        /* \"#utility.yul\":194:195   */\n      dup1\n        /* \"#utility.yul\":187:199   */\n      revert\n        /* \"#utility.yul\":334:460   */\n    tag_64:\n        /* \"#utility.yul\":371:378   */\n      0x00\n        /* \"#utility.yul\":411:453   */\n      0xffffffffffffffffffffffffffffffffffffffff\n        /* \"#utility.yul\":404:409   */\n      dup3\n        /* \"#utility.yul\":400:454   */\n      and\n        /* \"#utility.yul\":389:454   */\n      swap1\n      pop\n        /* \"#utility.yul\":334:460   */\n      swap2\n      swap1\n      pop\n      jump\t// out\n        /* \"#utility.yul\":466:562   */\n    tag_65:\n        /* \"#utility.yul\":503:510   */\n      0x00\n        /* \"#utility.yul\":532:556   */\n      tag_92\n        /* \"#utility.yul\":550:555   */\n      dup3\n        /* \"#utility.yul\":532:556   */\n      tag_64\n      jump\t// in\n    tag_92:\n        /* \"#utility.yul\":521:556   */\n      swap1\n      pop\n        /* \"#utility.yul\":466:562   */\n      swap2\n      swap1\n      pop\n      jump\t// out\n        /* \"#utility.yul\":568:690   */\n    tag_66:\n        /* \"#utility.yul\":641:665   */\n      tag_94\n        /* \"#utility.yul\":659:664   */\n      dup2\n        /* \"#utility.yul\":641:665   */\n      tag_65\n      jump\t// in\n    tag_94:\n        /* \"#utility.yul\":634:639   */\n      dup2\n        /* \"#utility.yul\":631:666   */\n      eq\n        /* \"#utility.yul\":621:684   */\n      tag_95\n      jumpi\n        /* \"#utility.yul\":680:681   */\n      0x00\n        /* \"#utility.yul\":677:678   */\n      dup1\n        /* \"#utility.yul\":670:682   */\n      revert\n        /* \"#utility.yul\":621:684   */\n    tag_95:\n        /* \"#utility.yul\":568:690   */\n      pop\n      jump\t// out\n        /* \"#utility.yul\":696:835   */\n    tag_67:\n        /* \"#utility.yul\":742:747   */\n      0x00\n        /* \"#utility.yul\":780:786   */\n      dup2\n        /* \"#utility.yul\":767:787   */\n      calldataload\n        /* \"#utility.yul\":758:787   */\n      swap1\n      pop\n        /* \"#utility.yul\":796:829   */\n      tag_97\n        /* \"#utility.yul\":823:828   */\n      dup2\n        /* \"#utility.yul\":796:829   */\n      tag_66\n      jump\t// in\n    tag_97:\n        /* \"#utility.yul\":696:835   */\n      swap3\n      swap2\n      pop\n      pop\n      jump\t// out\n        /* \"#utility.yul\":841:951   */\n    tag_68:\n        /* \"#utility.yul\":892:899   */\n      0x00\n        /* \"#utility.yul\":921:945   */\n      tag_99\n        /* \"#utility.yul\":939:944   */\n      dup3\n        /* \"#utility.yul\":921:945   */\n      tag_65\n      jump\t// in\n    tag_99:\n        /* \"#utility.yul\":910:945   */\n      swap1\n      pop\n        /* \"#utility.yul\":841:951   */\n      swap2\n      swap1\n      pop\n      jump\t// out\n        /* \"#utility.yul\":957:1107   */\n    tag_69:\n        /* \"#utility.yul\":1044:1082   */\n      tag_101\n        /* \"#utility.yul\":1076:1081   */\n      dup2\n        /* \"#utility.yul\":1044:1082   */\n      tag_68\n      jump\t// in\n    tag_101:\n        /* \"#utility.yul\":1037:1042   */\n      dup2\n        /* \"#utility.yul\":1034:1083   */\n      eq\n        /* \"#utility.yul\":1024:1101   */\n      tag_102\n      jumpi\n        /* \"#utility.yul\":1097:1098   */\n      0x00\n        /* \"#utility.yul\":1094:1095   */\n      dup1\n        /* \"#utility.yul\":1087:1099   */\n      revert\n        /* \"#utility.yul\":1024:1101   */\n    tag_102:\n        /* \"#utility.yul\":957:1107   */\n      pop\n      jump\t// out\n        /* \"#utility.yul\":1113:1280   */\n    tag_70:\n        /* \"#utility.yul\":1173:1178   */\n      0x00\n        /* \"#utility.yul\":1211:1217   */\n      dup2\n        /* \"#utility.yul\":1198:1218   */\n      calldataload\n        /* \"#utility.yul\":1189:1218   */\n      swap1\n      pop\n        /* \"#utility.yul\":1227:1274   */\n      tag_104\n        /* \"#utility.yul\":1268:1273   */\n      dup2\n        /* \"#utility.yul\":1227:1274   */\n      tag_69\n      jump\t// in\n    tag_104:\n        /* \"#utility.yul\":1113:1280   */\n      swap3\n      swap2\n      pop\n      pop\n      jump\t// out\n        /* \"#utility.yul\":1286:1363   */\n    tag_71:\n        /* \"#utility.yul\":1323:1330   */\n      0x00\n        /* \"#utility.yul\":1352:1357   */\n      dup2\n        /* \"#utility.yul\":1341:1357   */\n      swap1\n      pop\n        /* \"#utility.yul\":1286:1363   */\n      swap2\n      swap1\n      pop\n      jump\t// out\n        /* \"#utility.yul\":1369:1491   */\n    tag_72:\n        /* \"#utility.yul\":1442:1466   */\n      tag_107\n        /* \"#utility.yul\":1460:1465   */\n      dup2\n        /* \"#utility.yul\":1442:1466   */\n      tag_71\n      jump\t// in\n    tag_107:\n        /* \"#utility.yul\":1435:1440   */\n      dup2\n        /* \"#utility.yul\":1432:1467   */\n      eq\n        /* \"#utility.yul\":1422:1485   */\n      tag_108\n      jumpi\n        /* \"#utility.yul\":1481:1482   */\n      0x00\n        /* \"#utility.yul\":1478:1479   */\n      dup1\n        /* \"#utility.yul\":1471:1483   */\n      revert\n        /* \"#utility.yul\":1422:1485   */\n    tag_108:\n        /* \"#utility.yul\":1369:1491   */\n      pop\n      jump\t// out\n        /* \"#utility.yul\":1497:1636   */\n    tag_73:\n        /* \"#utility.yul\":1543:1548   */\n      0x00\n        /* \"#utility.yul\":1581:1587   */\n      dup2\n        /* \"#utility.yul\":1568:1588   */\n      calldataload\n        /* \"#utility.yul\":1559:1588   */\n      swap1\n      pop\n        /* \"#utility.yul\":1597:1630   */\n      tag_110\n        /* \"#utility.yul\":1624:1629   */\n      dup2\n        /* \"#utility.yul\":1597:1630   */\n      tag_72\n      jump\t// in\n    tag_110:\n        /* \"#utility.yul\":1497:1636   */\n      swap3\n      swap2\n      pop\n      pop\n      jump\t// out\n        /* \"#utility.yul\":1642:2435   */\n    tag_10:\n        /* \"#utility.yul\":1742:1748   */\n      0x00\n        /* \"#utility.yul\":1750:1756   */\n      dup1\n        /* \"#utility.yul\":1758:1764   */\n      0x00\n        /* \"#utility.yul\":1766:1772   */\n      dup1\n        /* \"#utility.yul\":1815:1818   */\n      0x80\n        /* \"#utility.yul\":1803:1812   */\n      dup6\n        /* \"#utility.yul\":1794:1801   */\n      dup8\n        /* \"#utility.yul\":1790:1813   */\n      sub\n        /* \"#utility.yul\":1786:1819   */\n      slt\n        /* \"#utility.yul\":1783:1903   */\n      iszero\n      tag_112\n      jumpi\n        /* \"#utility.yul\":1822:1901   */\n      tag_113\n      tag_62\n      jump\t// in\n    tag_113:\n        /* \"#utility.yul\":1783:1903   */\n    tag_112:\n        /* \"#utility.yul\":1942:1943   */\n      0x00\n        /* \"#utility.yul\":1967:2020   */\n      tag_114\n        /* \"#utility.yul\":2012:2019   */\n      dup8\n        /* \"#utility.yul\":2003:2009   */\n      dup3\n        /* \"#utility.yul\":1992:2001   */\n      dup9\n        /* \"#utility.yul\":1988:2010   */\n      add\n        /* \"#utility.yul\":1967:2020   */\n      tag_67\n      jump\t// in\n    tag_114:\n        /* \"#utility.yul\":1957:2020   */\n      swap5\n      pop\n        /* \"#utility.yul\":1913:2030   */\n      pop\n        /* \"#utility.yul\":2069:2071   */\n      0x20\n        /* \"#utility.yul\":2095:2162   */\n      tag_115\n        /* \"#utility.yul\":2154:2161   */\n      dup8\n        /* \"#utility.yul\":2145:2151   */\n      dup3\n        /* \"#utility.yul\":2134:2143   */\n      dup9\n        /* \"#utility.yul\":2130:2152   */\n      add\n        /* \"#utility.yul\":2095:2162   */\n      tag_70\n      jump\t// in\n    tag_115:\n        /* \"#utility.yul\":2085:2162   */\n      swap4\n      pop\n        /* \"#utility.yul\":2040:2172   */\n      pop\n        /* \"#utility.yul\":2211:2213   */\n      0x40\n        /* \"#utility.yul\":2237:2290   */\n      tag_116\n        /* \"#utility.yul\":2282:2289   */\n      dup8\n        /* \"#utility.yul\":2273:2279   */\n      dup3\n        /* \"#utility.yul\":2262:2271   */\n      dup9\n        /* \"#utility.yul\":2258:2280   */\n      add\n        /* \"#utility.yul\":2237:2290   */\n      tag_67\n      jump\t// in\n    tag_116:\n        /* \"#utility.yul\":2227:2290   */\n      swap3\n      pop\n        /* \"#utility.yul\":2182:2300   */\n      pop\n        /* \"#utility.yul\":2339:2341   */\n      0x60\n        /* \"#utility.yul\":2365:2418   */\n      tag_117\n        /* \"#utility.yul\":2410:2417   */\n      dup8\n        /* \"#utility.yul\":2401:2407   */\n      dup3\n        /* \"#utility.yul\":2390:2399   */\n      dup9\n        /* \"#utility.yul\":2386:2408   */\n      add\n        /* \"#utility.yul\":2365:2418   */\n      tag_73\n      jump\t// in\n    tag_117:\n        /* \"#utility.yul\":2355:2418   */\n      swap2\n      pop\n        /* \"#utility.yul\":2310:2428   */\n      pop\n        /* \"#utility.yul\":1642:2435   */\n      swap3\n      swap6\n      swap2\n      swap5\n      pop\n      swap3\n      pop\n      jump\t// out\n        /* \"#utility.yul\":2441:2559   */\n    tag_74:\n        /* \"#utility.yul\":2528:2552   */\n      tag_119\n        /* \"#utility.yul\":2546:2551   */\n      dup2\n        /* \"#utility.yul\":2528:2552   */\n      tag_65\n      jump\t// in\n    tag_119:\n        /* \"#utility.yul\":2523:2526   */\n      dup3\n        /* \"#utility.yul\":2516:2553   */\n      mstore\n        /* \"#utility.yul\":2441:2559   */\n      pop\n      pop\n      jump\t// out\n        /* \"#utility.yul\":2565:2787   */\n    tag_17:\n        /* \"#utility.yul\":2658:2662   */\n      0x00\n        /* \"#utility.yul\":2696:2698   */\n      0x20\n        /* \"#utility.yul\":2685:2694   */\n      dup3\n        /* \"#utility.yul\":2681:2699   */\n      add\n        /* \"#utility.yul\":2673:2699   */\n      swap1\n      pop\n        /* \"#utility.yul\":2709:2780   */\n      tag_121\n        /* \"#utility.yul\":2777:2778   */\n      0x00\n        /* \"#utility.yul\":2766:2775   */\n      dup4\n        /* \"#utility.yul\":2762:2779   */\n      add\n        /* \"#utility.yul\":2753:2759   */\n      dup5\n        /* \"#utility.yul\":2709:2780   */\n      tag_74\n      jump\t// in\n    tag_121:\n        /* \"#utility.yul\":2565:2787   */\n      swap3\n      swap2\n      pop\n      pop\n      jump\t// out\n        /* \"#utility.yul\":2793:3122   */\n    tag_23:\n        /* \"#utility.yul\":2852:2858   */\n      0x00\n        /* \"#utility.yul\":2901:2903   */\n      0x20\n        /* \"#utility.yul\":2889:2898   */\n      dup3\n        /* \"#utility.yul\":2880:2887   */\n      dup5\n        /* \"#utility.yul\":2876:2899   */\n      sub\n        /* \"#utility.yul\":2872:2904   */\n      slt\n        /* \"#utility.yul\":2869:2988   */\n      iszero\n      tag_123\n      jumpi\n        /* \"#utility.yul\":2907:2986   */\n      tag_124\n      tag_62\n      jump\t// in\n    tag_124:\n        /* \"#utility.yul\":2869:2988   */\n    tag_123:\n        /* \"#utility.yul\":3027:3028   */\n      0x00\n        /* \"#utility.yul\":3052:3105   */\n      tag_125\n        /* \"#utility.yul\":3097:3104   */\n      dup5\n        /* \"#utility.yul\":3088:3094   */\n      dup3\n        /* \"#utility.yul\":3077:3086   */\n      dup6\n        /* \"#utility.yul\":3073:3095   */\n      add\n        /* \"#utility.yul\":3052:3105   */\n      tag_67\n      jump\t// in\n    tag_125:\n        /* \"#utility.yul\":3042:3105   */\n      swap2\n      pop\n        /* \"#utility.yul\":2998:3115   */\n      pop\n        /* \"#utility.yul\":2793:3122   */\n      swap3\n      swap2\n      pop\n      pop\n      jump\t// out\n        /* \"#utility.yul\":3128:3297   */\n    tag_75:\n        /* \"#utility.yul\":3212:3223   */\n      0x00\n        /* \"#utility.yul\":3246:3252   */\n      dup3\n        /* \"#utility.yul\":3241:3244   */\n      dup3\n        /* \"#utility.yul\":3234:3253   */\n      mstore\n        /* \"#utility.yul\":3286:3290   */\n      0x20\n        /* \"#utility.yul\":3281:3284   */\n      dup3\n        /* \"#utility.yul\":3277:3291   */\n      add\n        /* \"#utility.yul\":3262:3291   */\n      swap1\n      pop\n        /* \"#utility.yul\":3128:3297   */\n      swap3\n      swap2\n      pop\n      pop\n      jump\t// out\n        /* \"#utility.yul\":3303:3485   */\n    tag_76:\n        /* \"#utility.yul\":3443:3477   */\n      0x4f776e61626c653a2063616c6c6572206973206e6f7420746865206f776e6572\n        /* \"#utility.yul\":3439:3440   */\n      0x00\n        /* \"#utility.yul\":3431:3437   */\n      dup3\n        /* \"#utility.yul\":3427:3441   */\n      add\n        /* \"#utility.yul\":3420:3478   */\n      mstore\n        /* \"#utility.yul\":3303:3485   */\n      pop\n      jump\t// out\n        /* \"#utility.yul\":3491:3857   */\n    tag_77:\n        /* \"#utility.yul\":3633:3636   */\n      0x00\n        /* \"#utility.yul\":3654:3721   */\n      tag_129\n        /* \"#utility.yul\":3718:3720   */\n      0x20\n        /* \"#utility.yul\":3713:3716   */\n      dup4\n        /* \"#utility.yul\":3654:3721   */\n      tag_75\n      jump\t// in\n    tag_129:\n        /* \"#utility.yul\":3647:3721   */\n      swap2\n      pop\n        /* \"#utility.yul\":3730:3823   */\n      tag_130\n        /* \"#utility.yul\":3819:3822   */\n      dup3\n        /* \"#utility.yul\":3730:3823   */\n      tag_76\n      jump\t// in\n    tag_130:\n        /* \"#utility.yul\":3848:3850   */\n      0x20\n        /* \"#utility.yul\":3843:3846   */\n      dup3\n        /* \"#utility.yul\":3839:3851   */\n      add\n        /* \"#utility.yul\":3832:3851   */\n      swap1\n      pop\n        /* \"#utility.yul\":3491:3857   */\n      swap2\n      swap1\n      pop\n      jump\t// out\n        /* \"#utility.yul\":3863:4282   */\n    tag_30:\n        /* \"#utility.yul\":4029:4033   */\n      0x00\n        /* \"#utility.yul\":4067:4069   */\n      0x20\n        /* \"#utility.yul\":4056:4065   */\n      dup3\n        /* \"#utility.yul\":4052:4070   */\n      add\n        /* \"#utility.yul\":4044:4070   */\n      swap1\n      pop\n        /* \"#utility.yul\":4116:4125   */\n      dup2\n        /* \"#utility.yul\":4110:4114   */\n      dup2\n        /* \"#utility.yul\":4106:4126   */\n      sub\n        /* \"#utility.yul\":4102:4103   */\n      0x00\n        /* \"#utility.yul\":4091:4100   */\n      dup4\n        /* \"#utility.yul\":4087:4104   */\n      add\n        /* \"#utility.yul\":4080:4127   */\n      mstore\n        /* \"#utility.yul\":4144:4275   */\n      tag_132\n        /* \"#utility.yul\":4270:4274   */\n      dup2\n        /* \"#utility.yul\":4144:4275   */\n      tag_77\n      jump\t// in\n    tag_132:\n        /* \"#utility.yul\":4136:4275   */\n      swap1\n      pop\n        /* \"#utility.yul\":3863:4282   */\n      swap2\n      swap1\n      pop\n      jump\t// out\n        /* \"#utility.yul\":4288:4348   */\n    tag_78:\n        /* \"#utility.yul\":4316:4319   */\n      0x00\n        /* \"#utility.yul\":4337:4342   */\n      dup2\n        /* \"#utility.yul\":4330:4342   */\n      swap1\n      pop\n        /* \"#utility.yul\":4288:4348   */\n      swap2\n      swap1\n      pop\n      jump\t// out\n        /* \"#utility.yul\":4354:4496   */\n    tag_79:\n        /* \"#utility.yul\":4404:4413   */\n      0x00\n        /* \"#utility.yul\":4437:4490   */\n      tag_135\n        /* \"#utility.yul\":4455:4489   */\n      tag_136\n        /* \"#utility.yul\":4464:4488   */\n      tag_137\n        /* \"#utility.yul\":4482:4487   */\n      dup5\n        /* \"#utility.yul\":4464:4488   */\n      tag_64\n      jump\t// in\n    tag_137:\n        /* \"#utility.yul\":4455:4489   */\n      tag_78\n      jump\t// in\n    tag_136:\n        /* \"#utility.yul\":4437:4490   */\n      tag_64\n      jump\t// in\n    tag_135:\n        /* \"#utility.yul\":4424:4490   */\n      swap1\n      pop\n        /* \"#utility.yul\":4354:4496   */\n      swap2\n      swap1\n      pop\n      jump\t// out\n        /* \"#utility.yul\":4502:4628   */\n    tag_80:\n        /* \"#utility.yul\":4552:4561   */\n      0x00\n        /* \"#utility.yul\":4585:4622   */\n      tag_139\n        /* \"#utility.yul\":4616:4621   */\n      dup3\n        /* \"#utility.yul\":4585:4622   */\n      tag_79\n      jump\t// in\n    tag_139:\n        /* \"#utility.yul\":4572:4622   */\n      swap1\n      pop\n        /* \"#utility.yul\":4502:4628   */\n      swap2\n      swap1\n      pop\n      jump\t// out\n        /* \"#utility.yul\":4634:4774   */\n    tag_81:\n        /* \"#utility.yul\":4698:4707   */\n      0x00\n        /* \"#utility.yul\":4731:4768   */\n      tag_141\n        /* \"#utility.yul\":4762:4767   */\n      dup3\n        /* \"#utility.yul\":4731:4768   */\n      tag_80\n      jump\t// in\n    tag_141:\n        /* \"#utility.yul\":4718:4768   */\n      swap1\n      pop\n        /* \"#utility.yul\":4634:4774   */\n      swap2\n      swap1\n      pop\n      jump\t// out\n        /* \"#utility.yul\":4780:4939   */\n    tag_82:\n        /* \"#utility.yul\":4881:4932   */\n      tag_143\n        /* \"#utility.yul\":4926:4931   */\n      dup2\n        /* \"#utility.yul\":4881:4932   */\n      tag_81\n      jump\t// in\n    tag_143:\n        /* \"#utility.yul\":4876:4879   */\n      dup3\n        /* \"#utility.yul\":4869:4933   */\n      mstore\n        /* \"#utility.yul\":4780:4939   */\n      pop\n      pop\n      jump\t// out\n        /* \"#utility.yul\":4945:5063   */\n    tag_83:\n        /* \"#utility.yul\":5032:5056   */\n      tag_145\n        /* \"#utility.yul\":5050:5055   */\n      dup2\n        /* \"#utility.yul\":5032:5056   */\n      tag_71\n      jump\t// in\n    tag_145:\n        /* \"#utility.yul\":5027:5030   */\n      dup3\n        /* \"#utility.yul\":5020:5057   */\n      mstore\n        /* \"#utility.yul\":4945:5063   */\n      pop\n      pop\n      jump\t// out\n        /* \"#utility.yul\":5069:5539   */\n    tag_33:\n        /* \"#utility.yul\":5232:5236   */\n      0x00\n        /* \"#utility.yul\":5270:5272   */\n      0x60\n        /* \"#utility.yul\":5259:5268   */\n      dup3\n        /* \"#utility.yul\":5255:5273   */\n      add\n        /* \"#utility.yul\":5247:5273   */\n      swap1\n      pop\n        /* \"#utility.yul\":5283:5368   */\n      tag_147\n        /* \"#utility.yul\":5365:5366   */\n      0x00\n        /* \"#utility.yul\":5354:5363   */\n      dup4\n        /* \"#utility.yul\":5350:5367   */\n      add\n        /* \"#utility.yul\":5341:5347   */\n      dup7\n        /* \"#utility.yul\":5283:5368   */\n      tag_82\n      jump\t// in\n    tag_147:\n        /* \"#utility.yul\":5378:5450   */\n      tag_148\n        /* \"#utility.yul\":5446:5448   */\n      0x20\n        /* \"#utility.yul\":5435:5444   */\n      dup4\n        /* \"#utility.yul\":5431:5449   */\n      add\n        /* \"#utility.yul\":5422:5428   */\n      dup6\n        /* \"#utility.yul\":5378:5450   */\n      tag_74\n      jump\t// in\n    tag_148:\n        /* \"#utility.yul\":5460:5532   */\n      tag_149\n        /* \"#utility.yul\":5528:5530   */\n      0x40\n        /* \"#utility.yul\":5517:5526   */\n      dup4\n        /* \"#utility.yul\":5513:5531   */\n      add\n        /* \"#utility.yul\":5504:5510   */\n      dup5\n        /* \"#utility.yul\":5460:5532   */\n      tag_83\n      jump\t// in\n    tag_149:\n        /* \"#utility.yul\":5069:5539   */\n      swap5\n      swap4\n      pop\n      pop\n      pop\n      pop\n      jump\t// out\n        /* \"#utility.yul\":5545:5770   */\n    tag_84:\n        /* \"#utility.yul\":5685:5719   */\n      0x4f776e61626c653a206e6577206f776e657220697320746865207a65726f2061\n        /* \"#utility.yul\":5681:5682   */\n      0x00\n        /* \"#utility.yul\":5673:5679   */\n      dup3\n        /* \"#utility.yul\":5669:5683   */\n      add\n        /* \"#utility.yul\":5662:5720   */\n      mstore\n        /* \"#utility.yul\":5754:5762   */\n      0x6464726573730000000000000000000000000000000000000000000000000000\n        /* \"#utility.yul\":5749:5751   */\n      0x20\n        /* \"#utility.yul\":5741:5747   */\n      dup3\n        /* \"#utility.yul\":5737:5752   */\n      add\n        /* \"#utility.yul\":5730:5763   */\n      mstore\n        /* \"#utility.yul\":5545:5770   */\n      pop\n      jump\t// out\n        /* \"#utility.yul\":5776:6142   */\n    tag_85:\n        /* \"#utility.yul\":5918:5921   */\n      0x00\n        /* \"#utility.yul\":5939:6006   */\n      tag_152\n        /* \"#utility.yul\":6003:6005   */\n      0x26\n        /* \"#utility.yul\":5998:6001   */\n      dup4\n        /* \"#utility.yul\":5939:6006   */\n      tag_75\n      jump\t// in\n    tag_152:\n        /* \"#utility.yul\":5932:6006   */\n      swap2\n      pop\n        /* \"#utility.yul\":6015:6108   */\n      tag_153\n        /* \"#utility.yul\":6104:6107   */\n      dup3\n        /* \"#utility.yul\":6015:6108   */\n      tag_84\n      jump\t// in\n    tag_153:\n        /* \"#utility.yul\":6133:6135   */\n      0x40\n        /* \"#utility.yul\":6128:6131   */\n      dup3\n        /* \"#utility.yul\":6124:6136   */\n      add\n        /* \"#utility.yul\":6117:6136   */\n      swap1\n      pop\n        /* \"#utility.yul\":5776:6142   */\n      swap2\n      swap1\n      pop\n      jump\t// out\n        /* \"#utility.yul\":6148:6567   */\n    tag_59:\n        /* \"#utility.yul\":6314:6318   */\n      0x00\n        /* \"#utility.yul\":6352:6354   */\n      0x20\n        /* \"#utility.yul\":6341:6350   */\n      dup3\n        /* \"#utility.yul\":6337:6355   */\n      add\n        /* \"#utility.yul\":6329:6355   */\n      swap1\n      pop\n        /* \"#utility.yul\":6401:6410   */\n      dup2\n        /* \"#utility.yul\":6395:6399   */\n      dup2\n        /* \"#utility.yul\":6391:6411   */\n      sub\n        /* \"#utility.yul\":6387:6388   */\n      0x00\n        /* \"#utility.yul\":6376:6385   */\n      dup4\n        /* \"#utility.yul\":6372:6389   */\n      add\n        /* \"#utility.yul\":6365:6412   */\n      mstore\n        /* \"#utility.yul\":6429:6560   */\n      tag_155\n        /* \"#utility.yul\":6555:6559   */\n      dup2\n        /* \"#utility.yul\":6429:6560   */\n      tag_85\n      jump\t// in\n    tag_155:\n        /* \"#utility.yul\":6421:6560   */\n      swap1\n      pop\n        /* \"#utility.yul\":6148:6567   */\n      swap2\n      swap1\n      pop\n      jump\t// out\n\n    auxdata: 0xa26469706673582212200ce952e5a7b5eea369c0492999e04a5e921932334a7c2a6c2f645949eb28a9d464736f6c634300081a0033\n}\n",
				"bytecode": {
					"linkReferences": {},
					"object": "608060405234801561000f575f80fd5b50604051610dcb380380610dcb83398181016040528101906100319190610319565b5f6100406100f160201b60201c565b9050805f806101000a81548173ffffffffffffffffffffffffffffffffffffffff021916908373ffffffffffffffffffffffffffffffffffffffff1602179055508073ffffffffffffffffffffffffffffffffffffffff165f73ffffffffffffffffffffffffffffffffffffffff167f8be0079c531659141344cd1fd0a4f28419497f9722a3daafe3b4186f6b6457e060405160405180910390a3506100eb816100f860201b60201c565b5061044a565b5f33905090565b6101066100f160201b60201c565b73ffffffffffffffffffffffffffffffffffffffff165f8054906101000a900473ffffffffffffffffffffffffffffffffffffffff1673ffffffffffffffffffffffffffffffffffffffff1614610192576040517f08c379a00000000000000000000000000000000000000000000000000000000081526004016101899061039e565b60405180910390fd5b5f73ffffffffffffffffffffffffffffffffffffffff168173ffffffffffffffffffffffffffffffffffffffff1603610200576040517f08c379a00000000000000000000000000000000000000000000000000000000081526004016101f79061042c565b60405180910390fd5b8073ffffffffffffffffffffffffffffffffffffffff165f8054906101000a900473ffffffffffffffffffffffffffffffffffffffff1673ffffffffffffffffffffffffffffffffffffffff167f8be0079c531659141344cd1fd0a4f28419497f9722a3daafe3b4186f6b6457e060405160405180910390a3805f806101000a81548173ffffffffffffffffffffffffffffffffffffffff021916908373ffffffffffffffffffffffffffffffffffffffff16021790555050565b5f80fd5b5f73ffffffffffffffffffffffffffffffffffffffff82169050919050565b5f6102e8826102bf565b9050919050565b6102f8816102de565b8114610302575f80fd5b50565b5f81519050610313816102ef565b92915050565b5f6020828403121561032e5761032d6102bb565b5b5f61033b84828501610305565b91505092915050565b5f82825260208201905092915050565b7f4f776e61626c653a2063616c6c6572206973206e6f7420746865206f776e65725f82015250565b5f610388602083610344565b915061039382610354565b602082019050919050565b5f6020820190508181035f8301526103b58161037c565b9050919050565b7f4f776e61626c653a206e6577206f776e657220697320746865207a65726f20615f8201527f6464726573730000000000000000000000000000000000000000000000000000602082015250565b5f610416602683610344565b9150610421826103bc565b604082019050919050565b5f6020820190508181035f8301526104438161040a565b9050919050565b610974806104575f395ff3fe608060405234801561000f575f80fd5b5060043610610055575f3560e01c806359eba45414610059578063715018a6146100755780638da5cb5b1461007f578063f18d03cc1461009d578063f2fde38b146100b9575b5f80fd5b610073600480360381019061006e91906106e2565b6100d5565b005b61007d6101d9565b005b610087610327565b6040516100949190610755565b60405180910390f35b6100b760048036038101906100b291906106e2565b61034e565b005b6100d360048036038101906100ce919061076e565b610452565b005b6100dd61060f565b73ffffffffffffffffffffffffffffffffffffffff165f8054906101000a900473ffffffffffffffffffffffffffffffffffffffff1673ffffffffffffffffffffffffffffffffffffffff1614610169576040517f08c379a0000000000000000000000000000000000000000000000000000000008152600401610160906107f3565b60405180910390fd5b8373ffffffffffffffffffffffffffffffffffffffff1663e1f21c678484846040518463ffffffff1660e01b81526004016101a69392919061087b565b5f604051808303815f87803b1580156101bd575f80fd5b505af11580156101cf573d5f803e3d5ffd5b5050505050505050565b6101e161060f565b73ffffffffffffffffffffffffffffffffffffffff165f8054906101000a900473ffffffffffffffffffffffffffffffffffffffff1673ffffffffffffffffffffffffffffffffffffffff161461026d576040517f08c379a0000000000000000000000000000000000000000000000000000000008152600401610264906107f3565b60405180910390fd5b5f73ffffffffffffffffffffffffffffffffffffffff165f8054906101000a900473ffffffffffffffffffffffffffffffffffffffff1673ffffffffffffffffffffffffffffffffffffffff167f8be0079c531659141344cd1fd0a4f28419497f9722a3daafe3b4186f6b6457e060405160405180910390a35f805f6101000a81548173ffffffffffffffffffffffffffffffffffffffff021916908373ffffffffffffffffffffffffffffffffffffffff160217905550565b5f805f9054906101000a900473ffffffffffffffffffffffffffffffffffffffff16905090565b61035661060f565b73ffffffffffffffffffffffffffffffffffffffff165f8054906101000a900473ffffffffffffffffffffffffffffffffffffffff1673ffffffffffffffffffffffffffffffffffffffff16146103e2576040517f08c379a00000000000000000000000000000000000000000000000000000000081526004016103d9906107f3565b60405180910390fd5b8373ffffffffffffffffffffffffffffffffffffffff1663beabacc88484846040518463ffffffff1660e01b815260040161041f9392919061087b565b5f604051808303815f87803b158015610436575f80fd5b505af1158015610448573d5f803e3d5ffd5b5050505050505050565b61045a61060f565b73ffffffffffffffffffffffffffffffffffffffff165f8054906101000a900473ffffffffffffffffffffffffffffffffffffffff1673ffffffffffffffffffffffffffffffffffffffff16146104e6576040517f08c379a00000000000000000000000000000000000000000000000000000000081526004016104dd906107f3565b60405180910390fd5b5f73ffffffffffffffffffffffffffffffffffffffff168173ffffffffffffffffffffffffffffffffffffffff1603610554576040517f08c379a000000000000000000000000000000000000000000000000000000000815260040161054b90610920565b60405180910390fd5b8073ffffffffffffffffffffffffffffffffffffffff165f8054906101000a900473ffffffffffffffffffffffffffffffffffffffff1673ffffffffffffffffffffffffffffffffffffffff167f8be0079c531659141344cd1fd0a4f28419497f9722a3daafe3b4186f6b6457e060405160405180910390a3805f806101000a81548173ffffffffffffffffffffffffffffffffffffffff021916908373ffffffffffffffffffffffffffffffffffffffff16021790555050565b5f33905090565b5f80fd5b5f73ffffffffffffffffffffffffffffffffffffffff82169050919050565b5f6106438261061a565b9050919050565b61065381610639565b811461065d575f80fd5b50565b5f8135905061066e8161064a565b92915050565b5f61067e82610639565b9050919050565b61068e81610674565b8114610698575f80fd5b50565b5f813590506106a981610685565b92915050565b5f819050919050565b6106c1816106af565b81146106cb575f80fd5b50565b5f813590506106dc816106b8565b92915050565b5f805f80608085870312156106fa576106f9610616565b5b5f61070787828801610660565b94505060206107188782880161069b565b935050604061072987828801610660565b925050606061073a878288016106ce565b91505092959194509250565b61074f81610639565b82525050565b5f6020820190506107685f830184610746565b92915050565b5f6020828403121561078357610782610616565b5b5f61079084828501610660565b91505092915050565b5f82825260208201905092915050565b7f4f776e61626c653a2063616c6c6572206973206e6f7420746865206f776e65725f82015250565b5f6107dd602083610799565b91506107e8826107a9565b602082019050919050565b5f6020820190508181035f83015261080a816107d1565b9050919050565b5f819050919050565b5f61083461082f61082a8461061a565b610811565b61061a565b9050919050565b5f6108458261081a565b9050919050565b5f6108568261083b565b9050919050565b6108668161084c565b82525050565b610875816106af565b82525050565b5f60608201905061088e5f83018661085d565b61089b6020830185610746565b6108a8604083018461086c565b949350505050565b7f4f776e61626c653a206e6577206f776e657220697320746865207a65726f20615f8201527f6464726573730000000000000000000000000000000000000000000000000000602082015250565b5f61090a602683610799565b9150610915826108b0565b604082019050919050565b5f6020820190508181035f830152610937816108fe565b905091905056fea26469706673582212200ce952e5a7b5eea369c0492999e04a5e921932334a7c2a6c2f645949eb28a9d464736f6c634300081a0033",
					"opcodes": "PUSH1 0x80 PUSH1 0x40 MSTORE CALLVALUE DUP1 ISZERO PUSH2 0xF JUMPI PUSH0 DUP1 REVERT JUMPDEST POP PUSH1 0x40 MLOAD PUSH2 0xDCB CODESIZE SUB DUP1 PUSH2 0xDCB DUP4 CODECOPY DUP2 DUP2 ADD PUSH1 0x40 MSTORE DUP2 ADD SWAP1 PUSH2 0x31 SWAP2 SWAP1 PUSH2 0x319 JUMP JUMPDEST PUSH0 PUSH2 0x40 PUSH2 0xF1 PUSH1 0x20 SHL PUSH1 0x20 SHR JUMP JUMPDEST SWAP1 POP DUP1 PUSH0 DUP1 PUSH2 0x100 EXP DUP2 SLOAD DUP2 PUSH20 0xFFFFFFFFFFFFFFFFFFFFFFFFFFFFFFFFFFFFFFFF MUL NOT AND SWAP1 DUP4 PUSH20 0xFFFFFFFFFFFFFFFFFFFFFFFFFFFFFFFFFFFFFFFF AND MUL OR SWAP1 SSTORE POP DUP1 PUSH20 0xFFFFFFFFFFFFFFFFFFFFFFFFFFFFFFFFFFFFFFFF AND PUSH0 PUSH20 0xFFFFFFFFFFFFFFFFFFFFFFFFFFFFFFFFFFFFFFFF AND PUSH32 0x8BE0079C531659141344CD1FD0A4F28419497F9722A3DAAFE3B4186F6B6457E0 PUSH1 0x40 MLOAD PUSH1 0x40 MLOAD DUP1 SWAP2 SUB SWAP1 LOG3 POP PUSH2 0xEB DUP2 PUSH2 0xF8 PUSH1 0x20 SHL PUSH1 0x20 SHR JUMP JUMPDEST POP PUSH2 0x44A JUMP JUMPDEST PUSH0 CALLER SWAP1 POP SWAP1 JUMP JUMPDEST PUSH2 0x106 PUSH2 0xF1 PUSH1 0x20 SHL PUSH1 0x20 SHR JUMP JUMPDEST PUSH20 0xFFFFFFFFFFFFFFFFFFFFFFFFFFFFFFFFFFFFFFFF AND PUSH0 DUP1 SLOAD SWAP1 PUSH2 0x100 EXP SWAP1 DIV PUSH20 0xFFFFFFFFFFFFFFFFFFFFFFFFFFFFFFFFFFFFFFFF AND PUSH20 0xFFFFFFFFFFFFFFFFFFFFFFFFFFFFFFFFFFFFFFFF AND EQ PUSH2 0x192 JUMPI PUSH1 0x40 MLOAD PUSH32 0x8C379A000000000000000000000000000000000000000000000000000000000 DUP2 MSTORE PUSH1 0x4 ADD PUSH2 0x189 SWAP1 PUSH2 0x39E JUMP JUMPDEST PUSH1 0x40 MLOAD DUP1 SWAP2 SUB SWAP1 REVERT JUMPDEST PUSH0 PUSH20 0xFFFFFFFFFFFFFFFFFFFFFFFFFFFFFFFFFFFFFFFF AND DUP2 PUSH20 0xFFFFFFFFFFFFFFFFFFFFFFFFFFFFFFFFFFFFFFFF AND SUB PUSH2 0x200 JUMPI PUSH1 0x40 MLOAD PUSH32 0x8C379A000000000000000000000000000000000000000000000000000000000 DUP2 MSTORE PUSH1 0x4 ADD PUSH2 0x1F7 SWAP1 PUSH2 0x42C JUMP JUMPDEST PUSH1 0x40 MLOAD DUP1 SWAP2 SUB SWAP1 REVERT JUMPDEST DUP1 PUSH20 0xFFFFFFFFFFFFFFFFFFFFFFFFFFFFFFFFFFFFFFFF AND PUSH0 DUP1 SLOAD SWAP1 PUSH2 0x100 EXP SWAP1 DIV PUSH20 0xFFFFFFFFFFFFFFFFFFFFFFFFFFFFFFFFFFFFFFFF AND PUSH20 0xFFFFFFFFFFFFFFFFFFFFFFFFFFFFFFFFFFFFFFFF AND PUSH32 0x8BE0079C531659141344CD1FD0A4F28419497F9722A3DAAFE3B4186F6B6457E0 PUSH1 0x40 MLOAD PUSH1 0x40 MLOAD DUP1 SWAP2 SUB SWAP1 LOG3 DUP1 PUSH0 DUP1 PUSH2 0x100 EXP DUP2 SLOAD DUP2 PUSH20 0xFFFFFFFFFFFFFFFFFFFFFFFFFFFFFFFFFFFFFFFF MUL NOT AND SWAP1 DUP4 PUSH20 0xFFFFFFFFFFFFFFFFFFFFFFFFFFFFFFFFFFFFFFFF AND MUL OR SWAP1 SSTORE POP POP JUMP JUMPDEST PUSH0 DUP1 REVERT JUMPDEST PUSH0 PUSH20 0xFFFFFFFFFFFFFFFFFFFFFFFFFFFFFFFFFFFFFFFF DUP3 AND SWAP1 POP SWAP2 SWAP1 POP JUMP JUMPDEST PUSH0 PUSH2 0x2E8 DUP3 PUSH2 0x2BF JUMP JUMPDEST SWAP1 POP SWAP2 SWAP1 POP JUMP JUMPDEST PUSH2 0x2F8 DUP2 PUSH2 0x2DE JUMP JUMPDEST DUP2 EQ PUSH2 0x302 JUMPI PUSH0 DUP1 REVERT JUMPDEST POP JUMP JUMPDEST PUSH0 DUP2 MLOAD SWAP1 POP PUSH2 0x313 DUP2 PUSH2 0x2EF JUMP JUMPDEST SWAP3 SWAP2 POP POP JUMP JUMPDEST PUSH0 PUSH1 0x20 DUP3 DUP5 SUB SLT ISZERO PUSH2 0x32E JUMPI PUSH2 0x32D PUSH2 0x2BB JUMP JUMPDEST JUMPDEST PUSH0 PUSH2 0x33B DUP5 DUP3 DUP6 ADD PUSH2 0x305 JUMP JUMPDEST SWAP2 POP POP SWAP3 SWAP2 POP POP JUMP JUMPDEST PUSH0 DUP3 DUP3 MSTORE PUSH1 0x20 DUP3 ADD SWAP1 POP SWAP3 SWAP2 POP POP JUMP JUMPDEST PUSH32 0x4F776E61626C653A2063616C6C6572206973206E6F7420746865206F776E6572 PUSH0 DUP3 ADD MSTORE POP JUMP JUMPDEST PUSH0 PUSH2 0x388 PUSH1 0x20 DUP4 PUSH2 0x344 JUMP JUMPDEST SWAP2 POP PUSH2 0x393 DUP3 PUSH2 0x354 JUMP JUMPDEST PUSH1 0x20 DUP3 ADD SWAP1 POP SWAP2 SWAP1 POP JUMP JUMPDEST PUSH0 PUSH1 0x20 DUP3 ADD SWAP1 POP DUP2 DUP2 SUB PUSH0 DUP4 ADD MSTORE PUSH2 0x3B5 DUP2 PUSH2 0x37C JUMP JUMPDEST SWAP1 POP SWAP2 SWAP1 POP JUMP JUMPDEST PUSH32 0x4F776E61626C653A206E6577206F776E657220697320746865207A65726F2061 PUSH0 DUP3 ADD MSTORE PUSH32 0x6464726573730000000000000000000000000000000000000000000000000000 PUSH1 0x20 DUP3 ADD MSTORE POP JUMP JUMPDEST PUSH0 PUSH2 0x416 PUSH1 0x26 DUP4 PUSH2 0x344 JUMP JUMPDEST SWAP2 POP PUSH2 0x421 DUP3 PUSH2 0x3BC JUMP JUMPDEST PUSH1 0x40 DUP3 ADD SWAP1 POP SWAP2 SWAP1 POP JUMP JUMPDEST PUSH0 PUSH1 0x20 DUP3 ADD SWAP1 POP DUP2 DUP2 SUB PUSH0 DUP4 ADD MSTORE PUSH2 0x443 DUP2 PUSH2 0x40A JUMP JUMPDEST SWAP1 POP SWAP2 SWAP1 POP JUMP JUMPDEST PUSH2 0x974 DUP1 PUSH2 0x457 PUSH0 CODECOPY PUSH0 RETURN INVALID PUSH1 0x80 PUSH1 0x40 MSTORE CALLVALUE DUP1 ISZERO PUSH2 0xF JUMPI PUSH0 DUP1 REVERT JUMPDEST POP PUSH1 0x4 CALLDATASIZE LT PUSH2 0x55 JUMPI PUSH0 CALLDATALOAD PUSH1 0xE0 SHR DUP1 PUSH4 0x59EBA454 EQ PUSH2 0x59 JUMPI DUP1 PUSH4 0x715018A6 EQ PUSH2 0x75 JUMPI DUP1 PUSH4 0x8DA5CB5B EQ PUSH2 0x7F JUMPI DUP1 PUSH4 0xF18D03CC EQ PUSH2 0x9D JUMPI DUP1 PUSH4 0xF2FDE38B EQ PUSH2 0xB9 JUMPI JUMPDEST PUSH0 DUP1 REVERT JUMPDEST PUSH2 0x73 PUSH1 0x4 DUP1 CALLDATASIZE SUB DUP2 ADD SWAP1 PUSH2 0x6E SWAP2 SWAP1 PUSH2 0x6E2 JUMP JUMPDEST PUSH2 0xD5 JUMP JUMPDEST STOP JUMPDEST PUSH2 0x7D PUSH2 0x1D9 JUMP JUMPDEST STOP JUMPDEST PUSH2 0x87 PUSH2 0x327 JUMP JUMPDEST PUSH1 0x40 MLOAD PUSH2 0x94 SWAP2 SWAP1 PUSH2 0x755 JUMP JUMPDEST PUSH1 0x40 MLOAD DUP1 SWAP2 SUB SWAP1 RETURN JUMPDEST PUSH2 0xB7 PUSH1 0x4 DUP1 CALLDATASIZE SUB DUP2 ADD SWAP1 PUSH2 0xB2 SWAP2 SWAP1 PUSH2 0x6E2 JUMP JUMPDEST PUSH2 0x34E JUMP JUMPDEST STOP JUMPDEST PUSH2 0xD3 PUSH1 0x4 DUP1 CALLDATASIZE SUB DUP2 ADD SWAP1 PUSH2 0xCE SWAP2 SWAP1 PUSH2 0x76E JUMP JUMPDEST PUSH2 0x452 JUMP JUMPDEST STOP JUMPDEST PUSH2 0xDD PUSH2 0x60F JUMP JUMPDEST PUSH20 0xFFFFFFFFFFFFFFFFFFFFFFFFFFFFFFFFFFFFFFFF AND PUSH0 DUP1 SLOAD SWAP1 PUSH2 0x100 EXP SWAP1 DIV PUSH20 0xFFFFFFFFFFFFFFFFFFFFFFFFFFFFFFFFFFFFFFFF AND PUSH20 0xFFFFFFFFFFFFFFFFFFFFFFFFFFFFFFFFFFFFFFFF AND EQ PUSH2 0x169 JUMPI PUSH1 0x40 MLOAD PUSH32 0x8C379A000000000000000000000000000000000000000000000000000000000 DUP2 MSTORE PUSH1 0x4 ADD PUSH2 0x160 SWAP1 PUSH2 0x7F3 JUMP JUMPDEST PUSH1 0x40 MLOAD DUP1 SWAP2 SUB SWAP1 REVERT JUMPDEST DUP4 PUSH20 0xFFFFFFFFFFFFFFFFFFFFFFFFFFFFFFFFFFFFFFFF AND PUSH4 0xE1F21C67 DUP5 DUP5 DUP5 PUSH1 0x40 MLOAD DUP5 PUSH4 0xFFFFFFFF AND PUSH1 0xE0 SHL DUP2 MSTORE PUSH1 0x4 ADD PUSH2 0x1A6 SWAP4 SWAP3 SWAP2 SWAP1 PUSH2 0x87B JUMP JUMPDEST PUSH0 PUSH1 0x40 MLOAD DUP1 DUP4 SUB DUP2 PUSH0 DUP8 DUP1 EXTCODESIZE ISZERO DUP1 ISZERO PUSH2 0x1BD JUMPI PUSH0 DUP1 REVERT JUMPDEST POP GAS CALL ISZERO DUP1 ISZERO PUSH2 0x1CF JUMPI RETURNDATASIZE PUSH0 DUP1 RETURNDATACOPY RETURNDATASIZE PUSH0 REVERT JUMPDEST POP POP POP POP POP POP POP POP JUMP JUMPDEST PUSH2 0x1E1 PUSH2 0x60F JUMP JUMPDEST PUSH20 0xFFFFFFFFFFFFFFFFFFFFFFFFFFFFFFFFFFFFFFFF AND PUSH0 DUP1 SLOAD SWAP1 PUSH2 0x100 EXP SWAP1 DIV PUSH20 0xFFFFFFFFFFFFFFFFFFFFFFFFFFFFFFFFFFFFFFFF AND PUSH20 0xFFFFFFFFFFFFFFFFFFFFFFFFFFFFFFFFFFFFFFFF AND EQ PUSH2 0x26D JUMPI PUSH1 0x40 MLOAD PUSH32 0x8C379A000000000000000000000000000000000000000000000000000000000 DUP2 MSTORE PUSH1 0x4 ADD PUSH2 0x264 SWAP1 PUSH2 0x7F3 JUMP JUMPDEST PUSH1 0x40 MLOAD DUP1 SWAP2 SUB SWAP1 REVERT JUMPDEST PUSH0 PUSH20 0xFFFFFFFFFFFFFFFFFFFFFFFFFFFFFFFFFFFFFFFF AND PUSH0 DUP1 SLOAD SWAP1 PUSH2 0x100 EXP SWAP1 DIV PUSH20 0xFFFFFFFFFFFFFFFFFFFFFFFFFFFFFFFFFFFFFFFF AND PUSH20 0xFFFFFFFFFFFFFFFFFFFFFFFFFFFFFFFFFFFFFFFF AND PUSH32 0x8BE0079C531659141344CD1FD0A4F28419497F9722A3DAAFE3B4186F6B6457E0 PUSH1 0x40 MLOAD PUSH1 0x40 MLOAD DUP1 SWAP2 SUB SWAP1 LOG3 PUSH0 DUP1 PUSH0 PUSH2 0x100 EXP DUP2 SLOAD DUP2 PUSH20 0xFFFFFFFFFFFFFFFFFFFFFFFFFFFFFFFFFFFFFFFF MUL NOT AND SWAP1 DUP4 PUSH20 0xFFFFFFFFFFFFFFFFFFFFFFFFFFFFFFFFFFFFFFFF AND MUL OR SWAP1 SSTORE POP JUMP JUMPDEST PUSH0 DUP1 PUSH0 SWAP1 SLOAD SWAP1 PUSH2 0x100 EXP SWAP1 DIV PUSH20 0xFFFFFFFFFFFFFFFFFFFFFFFFFFFFFFFFFFFFFFFF AND SWAP1 POP SWAP1 JUMP JUMPDEST PUSH2 0x356 PUSH2 0x60F JUMP JUMPDEST PUSH20 0xFFFFFFFFFFFFFFFFFFFFFFFFFFFFFFFFFFFFFFFF AND PUSH0 DUP1 SLOAD SWAP1 PUSH2 0x100 EXP SWAP1 DIV PUSH20 0xFFFFFFFFFFFFFFFFFFFFFFFFFFFFFFFFFFFFFFFF AND PUSH20 0xFFFFFFFFFFFFFFFFFFFFFFFFFFFFFFFFFFFFFFFF AND EQ PUSH2 0x3E2 JUMPI PUSH1 0x40 MLOAD PUSH32 0x8C379A000000000000000000000000000000000000000000000000000000000 DUP2 MSTORE PUSH1 0x4 ADD PUSH2 0x3D9 SWAP1 PUSH2 0x7F3 JUMP JUMPDEST PUSH1 0x40 MLOAD DUP1 SWAP2 SUB SWAP1 REVERT JUMPDEST DUP4 PUSH20 0xFFFFFFFFFFFFFFFFFFFFFFFFFFFFFFFFFFFFFFFF AND PUSH4 0xBEABACC8 DUP5 DUP5 DUP5 PUSH1 0x40 MLOAD DUP5 PUSH4 0xFFFFFFFF AND PUSH1 0xE0 SHL DUP2 MSTORE PUSH1 0x4 ADD PUSH2 0x41F SWAP4 SWAP3 SWAP2 SWAP1 PUSH2 0x87B JUMP JUMPDEST PUSH0 PUSH1 0x40 MLOAD DUP1 DUP4 SUB DUP2 PUSH0 DUP8 DUP1 EXTCODESIZE ISZERO DUP1 ISZERO PUSH2 0x436 JUMPI PUSH0 DUP1 REVERT JUMPDEST POP GAS CALL ISZERO DUP1 ISZERO PUSH2 0x448 JUMPI RETURNDATASIZE PUSH0 DUP1 RETURNDATACOPY RETURNDATASIZE PUSH0 REVERT JUMPDEST POP POP POP POP POP POP POP POP JUMP JUMPDEST PUSH2 0x45A PUSH2 0x60F JUMP JUMPDEST PUSH20 0xFFFFFFFFFFFFFFFFFFFFFFFFFFFFFFFFFFFFFFFF AND PUSH0 DUP1 SLOAD SWAP1 PUSH2 0x100 EXP SWAP1 DIV PUSH20 0xFFFFFFFFFFFFFFFFFFFFFFFFFFFFFFFFFFFFFFFF AND PUSH20 0xFFFFFFFFFFFFFFFFFFFFFFFFFFFFFFFFFFFFFFFF AND EQ PUSH2 0x4E6 JUMPI PUSH1 0x40 MLOAD PUSH32 0x8C379A000000000000000000000000000000000000000000000000000000000 DUP2 MSTORE PUSH1 0x4 ADD PUSH2 0x4DD SWAP1 PUSH2 0x7F3 JUMP JUMPDEST PUSH1 0x40 MLOAD DUP1 SWAP2 SUB SWAP1 REVERT JUMPDEST PUSH0 PUSH20 0xFFFFFFFFFFFFFFFFFFFFFFFFFFFFFFFFFFFFFFFF AND DUP2 PUSH20 0xFFFFFFFFFFFFFFFFFFFFFFFFFFFFFFFFFFFFFFFF AND SUB PUSH2 0x554 JUMPI PUSH1 0x40 MLOAD PUSH32 0x8C379A000000000000000000000000000000000000000000000000000000000 DUP2 MSTORE PUSH1 0x4 ADD PUSH2 0x54B SWAP1 PUSH2 0x920 JUMP JUMPDEST PUSH1 0x40 MLOAD DUP1 SWAP2 SUB SWAP1 REVERT JUMPDEST DUP1 PUSH20 0xFFFFFFFFFFFFFFFFFFFFFFFFFFFFFFFFFFFFFFFF AND PUSH0 DUP1 SLOAD SWAP1 PUSH2 0x100 EXP SWAP1 DIV PUSH20 0xFFFFFFFFFFFFFFFFFFFFFFFFFFFFFFFFFFFFFFFF AND PUSH20 0xFFFFFFFFFFFFFFFFFFFFFFFFFFFFFFFFFFFFFFFF AND PUSH32 0x8BE0079C531659141344CD1FD0A4F28419497F9722A3DAAFE3B4186F6B6457E0 PUSH1 0x40 MLOAD PUSH1 0x40 MLOAD DUP1 SWAP2 SUB SWAP1 LOG3 DUP1 PUSH0 DUP1 PUSH2 0x100 EXP DUP2 SLOAD DUP2 PUSH20 0xFFFFFFFFFFFFFFFFFFFFFFFFFFFFFFFFFFFFFFFF MUL NOT AND SWAP1 DUP4 PUSH20 0xFFFFFFFFFFFFFFFFFFFFFFFFFFFFFFFFFFFFFFFF AND MUL OR SWAP1 SSTORE POP POP JUMP JUMPDEST PUSH0 CALLER SWAP1 POP SWAP1 JUMP JUMPDEST PUSH0 DUP1 REVERT JUMPDEST PUSH0 PUSH20 0xFFFFFFFFFFFFFFFFFFFFFFFFFFFFFFFFFFFFFFFF DUP3 AND SWAP1 POP SWAP2 SWAP1 POP JUMP JUMPDEST PUSH0 PUSH2 0x643 DUP3 PUSH2 0x61A JUMP JUMPDEST SWAP1 POP SWAP2 SWAP1 POP JUMP JUMPDEST PUSH2 0x653 DUP2 PUSH2 0x639 JUMP JUMPDEST DUP2 EQ PUSH2 0x65D JUMPI PUSH0 DUP1 REVERT JUMPDEST POP JUMP JUMPDEST PUSH0 DUP2 CALLDATALOAD SWAP1 POP PUSH2 0x66E DUP2 PUSH2 0x64A JUMP JUMPDEST SWAP3 SWAP2 POP POP JUMP JUMPDEST PUSH0 PUSH2 0x67E DUP3 PUSH2 0x639 JUMP JUMPDEST SWAP1 POP SWAP2 SWAP1 POP JUMP JUMPDEST PUSH2 0x68E DUP2 PUSH2 0x674 JUMP JUMPDEST DUP2 EQ PUSH2 0x698 JUMPI PUSH0 DUP1 REVERT JUMPDEST POP JUMP JUMPDEST PUSH0 DUP2 CALLDATALOAD SWAP1 POP PUSH2 0x6A9 DUP2 PUSH2 0x685 JUMP JUMPDEST SWAP3 SWAP2 POP POP JUMP JUMPDEST PUSH0 DUP2 SWAP1 POP SWAP2 SWAP1 POP JUMP JUMPDEST PUSH2 0x6C1 DUP2 PUSH2 0x6AF JUMP JUMPDEST DUP2 EQ PUSH2 0x6CB JUMPI PUSH0 DUP1 REVERT JUMPDEST POP JUMP JUMPDEST PUSH0 DUP2 CALLDATALOAD SWAP1 POP PUSH2 0x6DC DUP2 PUSH2 0x6B8 JUMP JUMPDEST SWAP3 SWAP2 POP POP JUMP JUMPDEST PUSH0 DUP1 PUSH0 DUP1 PUSH1 0x80 DUP6 DUP8 SUB SLT ISZERO PUSH2 0x6FA JUMPI PUSH2 0x6F9 PUSH2 0x616 JUMP JUMPDEST JUMPDEST PUSH0 PUSH2 0x707 DUP8 DUP3 DUP9 ADD PUSH2 0x660 JUMP JUMPDEST SWAP5 POP POP PUSH1 0x20 PUSH2 0x718 DUP8 DUP3 DUP9 ADD PUSH2 0x69B JUMP JUMPDEST SWAP4 POP POP PUSH1 0x40 PUSH2 0x729 DUP8 DUP3 DUP9 ADD PUSH2 0x660 JUMP JUMPDEST SWAP3 POP POP PUSH1 0x60 PUSH2 0x73A DUP8 DUP3 DUP9 ADD PUSH2 0x6CE JUMP JUMPDEST SWAP2 POP POP SWAP3 SWAP6 SWAP2 SWAP5 POP SWAP3 POP JUMP JUMPDEST PUSH2 0x74F DUP2 PUSH2 0x639 JUMP JUMPDEST DUP3 MSTORE POP POP JUMP JUMPDEST PUSH0 PUSH1 0x20 DUP3 ADD SWAP1 POP PUSH2 0x768 PUSH0 DUP4 ADD DUP5 PUSH2 0x746 JUMP JUMPDEST SWAP3 SWAP2 POP POP JUMP JUMPDEST PUSH0 PUSH1 0x20 DUP3 DUP5 SUB SLT ISZERO PUSH2 0x783 JUMPI PUSH2 0x782 PUSH2 0x616 JUMP JUMPDEST JUMPDEST PUSH0 PUSH2 0x790 DUP5 DUP3 DUP6 ADD PUSH2 0x660 JUMP JUMPDEST SWAP2 POP POP SWAP3 SWAP2 POP POP JUMP JUMPDEST PUSH0 DUP3 DUP3 MSTORE PUSH1 0x20 DUP3 ADD SWAP1 POP SWAP3 SWAP2 POP POP JUMP JUMPDEST PUSH32 0x4F776E61626C653A2063616C6C6572206973206E6F7420746865206F776E6572 PUSH0 DUP3 ADD MSTORE POP JUMP JUMPDEST PUSH0 PUSH2 0x7DD PUSH1 0x20 DUP4 PUSH2 0x799 JUMP JUMPDEST SWAP2 POP PUSH2 0x7E8 DUP3 PUSH2 0x7A9 JUMP JUMPDEST PUSH1 0x20 DUP3 ADD SWAP1 POP SWAP2 SWAP1 POP JUMP JUMPDEST PUSH0 PUSH1 0x20 DUP3 ADD SWAP1 POP DUP2 DUP2 SUB PUSH0 DUP4 ADD MSTORE PUSH2 0x80A DUP2 PUSH2 0x7D1 JUMP JUMPDEST SWAP1 POP SWAP2 SWAP1 POP JUMP JUMPDEST PUSH0 DUP2 SWAP1 POP SWAP2 SWAP1 POP JUMP JUMPDEST PUSH0 PUSH2 0x834 PUSH2 0x82F PUSH2 0x82A DUP5 PUSH2 0x61A JUMP JUMPDEST PUSH2 0x811 JUMP JUMPDEST PUSH2 0x61A JUMP JUMPDEST SWAP1 POP SWAP2 SWAP1 POP JUMP JUMPDEST PUSH0 PUSH2 0x845 DUP3 PUSH2 0x81A JUMP JUMPDEST SWAP1 POP SWAP2 SWAP1 POP JUMP JUMPDEST PUSH0 PUSH2 0x856 DUP3 PUSH2 0x83B JUMP JUMPDEST SWAP1 POP SWAP2 SWAP1 POP JUMP JUMPDEST PUSH2 0x866 DUP2 PUSH2 0x84C JUMP JUMPDEST DUP3 MSTORE POP POP JUMP JUMPDEST PUSH2 0x875 DUP2 PUSH2 0x6AF JUMP JUMPDEST DUP3 MSTORE POP POP JUMP JUMPDEST PUSH0 PUSH1 0x60 DUP3 ADD SWAP1 POP PUSH2 0x88E PUSH0 DUP4 ADD DUP7 PUSH2 0x85D JUMP JUMPDEST PUSH2 0x89B PUSH1 0x20 DUP4 ADD DUP6 PUSH2 0x746 JUMP JUMPDEST PUSH2 0x8A8 PUSH1 0x40 DUP4 ADD DUP5 PUSH2 0x86C JUMP JUMPDEST SWAP5 SWAP4 POP POP POP POP JUMP JUMPDEST PUSH32 0x4F776E61626C653A206E6577206F776E657220697320746865207A65726F2061 PUSH0 DUP3 ADD MSTORE PUSH32 0x6464726573730000000000000000000000000000000000000000000000000000 PUSH1 0x20 DUP3 ADD MSTORE POP JUMP JUMPDEST PUSH0 PUSH2 0x90A PUSH1 0x26 DUP4 PUSH2 0x799 JUMP JUMPDEST SWAP2 POP PUSH2 0x915 DUP3 PUSH2 0x8B0 JUMP JUMPDEST PUSH1 0x40 DUP3 ADD SWAP1 POP SWAP2 SWAP1 POP JUMP JUMPDEST PUSH0 PUSH1 0x20 DUP3 ADD SWAP1 POP DUP2 DUP2 SUB PUSH0 DUP4 ADD MSTORE PUSH2 0x937 DUP2 PUSH2 0x8FE JUMP JUMPDEST SWAP1 POP SWAP2 SWAP1 POP JUMP INVALID LOG2 PUSH5 0x6970667358 0x22 SLT KECCAK256 0xC 0xE9 MSTORE 0xE5 0xA7 0xB5 0xEE LOG3 PUSH10 0xC0492999E04A5E921932 CALLER BLOBBASEFEE PUSH29 0x2A6C2F645949EB28A9D464736F6C634300081A00330000000000000000 "
				},
				"gasEstimates": {
					"creation": {
						"codeDepositCost": "484000",
						"executionCost": "infinite",
						"totalCost": "infinite"
					},
					"external": {
						"approve(address,address,address,uint256)": "infinite",
						"owner()": "2537",
						"renounceOwnership()": "30284",
						"transfer(address,address,address,uint256)": "infinite",
						"transferOwnership(address)": "30692"
					}
				},
				"methodIdentifiers": {
					"approve(address,address,address,uint256)": "59eba454",
					"owner()": "8da5cb5b",
					"renounceOwnership()": "715018a6",
					"transfer(address,address,address,uint256)": "f18d03cc",
					"transferOwnership(address)": "f2fde38b"
				}
			},
			"storageLayout": {
				"storage": [
					{
						"astId": 111,
						"contract": "contracts/treasury/CollectorController.sol:CollectorController",
						"label": "_owner",
						"offset": 0,
						"slot": "0",
						"type": "t_address"
					}
				],
				"types": {
					"t_address": {
						"encoding": "inplace",
						"label": "address",
						"numberOfBytes": "20"
					}
				}
			},
			"userdoc": {
				"kind": "user",
				"methods": {},
				"notice": "The CollectorController contracts allows the owner of the contract to approve or transfer tokens from the specified collector proxy contract. The admin of the Collector proxy can't be the same as the fundsAdmin address. This is needed due the usage of transparent proxy pattern.",
				"version": 1
			}
		}
	}
}