{
	"contracts/treasury/AaveEcosystemReserveController.sol": {
		"AaveEcosystemReserveController": {
			"abi": [
				{
					"inputs": [
						{
							"internalType": "address",
							"name": "aaveGovShortTimelock",
							"type": "address"
						}
					],
					"stateMutability": "nonpayable",
					"type": "constructor"
				},
				{
					"anonymous": false,
					"inputs": [
						{
							"indexed": true,
							"internalType": "address",
							"name": "previousOwner",
							"type": "address"
						},
						{
							"indexed": true,
							"internalType": "address",
							"name": "newOwner",
							"type": "address"
						}
					],
					"name": "OwnershipTransferred",
					"type": "event"
				},
				{
					"inputs": [
						{
							"internalType": "address",
							"name": "collector",
							"type": "address"
						},
						{
							"internalType": "contract IERC20",
							"name": "token",
							"type": "address"
						},
						{
							"internalType": "address",
							"name": "recipient",
							"type": "address"
						},
						{
							"internalType": "uint256",
							"name": "amount",
							"type": "uint256"
						}
					],
					"name": "approve",
					"outputs": [],
					"stateMutability": "nonpayable",
					"type": "function"
				},
				{
					"inputs": [
						{
							"internalType": "address",
							"name": "collector",
							"type": "address"
						},
						{
							"internalType": "uint256",
							"name": "streamId",
							"type": "uint256"
						}
					],
					"name": "cancelStream",
					"outputs": [
						{
							"internalType": "bool",
							"name": "",
							"type": "bool"
						}
					],
					"stateMutability": "nonpayable",
					"type": "function"
				},
				{
					"inputs": [
						{
							"internalType": "address",
							"name": "collector",
							"type": "address"
						},
						{
							"internalType": "address",
							"name": "recipient",
							"type": "address"
						},
						{
							"internalType": "uint256",
							"name": "deposit",
							"type": "uint256"
						},
						{
							"internalType": "contract IERC20",
							"name": "tokenAddress",
							"type": "address"
						},
						{
							"internalType": "uint256",
							"name": "startTime",
							"type": "uint256"
						},
						{
							"internalType": "uint256",
							"name": "stopTime",
							"type": "uint256"
						}
					],
					"name": "createStream",
					"outputs": [
						{
							"internalType": "uint256",
							"name": "",
							"type": "uint256"
						}
					],
					"stateMutability": "nonpayable",
					"type": "function"
				},
				{
					"inputs": [],
					"name": "owner",
					"outputs": [
						{
							"internalType": "address",
							"name": "",
							"type": "address"
						}
					],
					"stateMutability": "view",
					"type": "function"
				},
				{
					"inputs": [],
					"name": "renounceOwnership",
					"outputs": [],
					"stateMutability": "nonpayable",
					"type": "function"
				},
				{
					"inputs": [
						{
							"internalType": "address",
							"name": "collector",
							"type": "address"
						},
						{
							"internalType": "contract IERC20",
							"name": "token",
							"type": "address"
						},
						{
							"internalType": "address",
							"name": "recipient",
							"type": "address"
						},
						{
							"internalType": "uint256",
							"name": "amount",
							"type": "uint256"
						}
					],
					"name": "transfer",
					"outputs": [],
					"stateMutability": "nonpayable",
					"type": "function"
				},
				{
					"inputs": [
						{
							"internalType": "address",
							"name": "newOwner",
							"type": "address"
						}
					],
					"name": "transferOwnership",
					"outputs": [],
					"stateMutability": "nonpayable",
					"type": "function"
				},
				{
					"inputs": [
						{
							"internalType": "address",
							"name": "collector",
							"type": "address"
						},
						{
							"internalType": "uint256",
							"name": "streamId",
							"type": "uint256"
						},
						{
							"internalType": "uint256",
							"name": "funds",
							"type": "uint256"
						}
					],
					"name": "withdrawFromStream",
					"outputs": [
						{
							"internalType": "bool",
							"name": "",
							"type": "bool"
						}
					],
					"stateMutability": "nonpayable",
					"type": "function"
				}
			],
			"devdoc": {
				"kind": "dev",
				"methods": {
					"approve(address,address,address,uint256)": {
						"params": {
							"amount": "Allowance to approve*",
							"collector": "The collector contract with funds (Aave ecosystem reserve)",
							"recipient": "Allowance's recipient",
							"token": "The asset address"
						}
					},
					"cancelStream(address,uint256)": {
						"params": {
							"collector": "The collector contract with funds (Aave ecosystem reserve)",
							"streamId": "The id of the stream to cancel"
						},
						"returns": {
							"_0": "bool If the cancellation happened correctly*"
						}
					},
					"constructor": {
						"params": {
							"aaveGovShortTimelock": "The address of the Aave's governance executor, owning this contract"
						}
					},
					"createStream(address,address,uint256,address,uint256,uint256)": {
						"params": {
							"collector": "The collector contract with funds (Aave ecosystem reserve)",
							"deposit": "Total amount to be streamed",
							"recipient": "The recipient of the stream of token",
							"startTime": "The unix timestamp for when the stream starts",
							"stopTime": "The unix timestamp for when the stream stops",
							"tokenAddress": "The ERC20 token to use as streaming asset"
						},
						"returns": {
							"_0": "uint256 The stream id created*"
						}
					},
					"owner()": {
						"details": "Returns the address of the current owner."
					},
					"renounceOwnership()": {
						"details": "Leaves the contract without owner. It will not be possible to call `onlyOwner` functions anymore. Can only be called by the current owner. NOTE: Renouncing ownership will leave the contract without an owner, thereby removing any functionality that is only available to the owner."
					},
					"transfer(address,address,address,uint256)": {
						"params": {
							"amount": "Amount to transfer*",
							"collector": "The collector contract with funds (Aave ecosystem reserve)",
							"recipient": "Transfer's recipient",
							"token": "The asset address"
						}
					},
					"transferOwnership(address)": {
						"details": "Transfers ownership of the contract to a new account (`newOwner`). Can only be called by the current owner."
					},
					"withdrawFromStream(address,uint256,uint256)": {
						"params": {
							"collector": "The collector contract with funds (Aave ecosystem reserve)",
							"funds": "Amount to withdraw",
							"streamId": "The id of the stream to withdraw tokens from"
						},
						"returns": {
							"_0": "bool If the withdrawal finished properly*"
						}
					}
				},
				"version": 1
			},
			"evm": {
				"assembly": "    /* \"contracts/treasury/AaveEcosystemReserveController.sol\":516:2327  contract AaveEcosystemReserveController is Ownable, IAaveEcosystemReserveController {... */\n  mstore(0x40, 0x80)\n    /* \"contracts/treasury/AaveEcosystemReserveController.sol\":748:842  constructor(address aaveGovShortTimelock) {... */\n  callvalue\n  dup1\n  iszero\n  tag_1\n  jumpi\n  0x00\n  dup1\n  revert\ntag_1:\n  pop\n  mload(0x40)\n  sub(codesize, bytecodeSize)\n  dup1\n  bytecodeSize\n  dup4\n  codecopy\n  dup2\n  dup2\n  add\n  0x40\n  mstore\n  dup2\n  add\n  swap1\n  tag_2\n  swap2\n  swap1\n  tag_3\n  jump\t// in\ntag_2:\n    /* \"@aave/core-v3/contracts/dependencies/openzeppelin/contracts/Ownable.sol\":835:852  address msgSender */\n  0x00\n    /* \"@aave/core-v3/contracts/dependencies/openzeppelin/contracts/Ownable.sol\":855:867  _msgSender() */\n  tag_7\n    /* \"@aave/core-v3/contracts/dependencies/openzeppelin/contracts/Ownable.sol\":855:865  _msgSender */\n  shl(0x20, tag_8)\n    /* \"@aave/core-v3/contracts/dependencies/openzeppelin/contracts/Ownable.sol\":855:867  _msgSender() */\n  0x20\n  shr\n  jump\t// in\ntag_7:\n    /* \"@aave/core-v3/contracts/dependencies/openzeppelin/contracts/Ownable.sol\":835:867  address msgSender = _msgSender() */\n  swap1\n  pop\n    /* \"@aave/core-v3/contracts/dependencies/openzeppelin/contracts/Ownable.sol\":882:891  msgSender */\n  dup1\n    /* \"@aave/core-v3/contracts/dependencies/openzeppelin/contracts/Ownable.sol\":873:879  _owner */\n  0x00\n  dup1\n    /* \"@aave/core-v3/contracts/dependencies/openzeppelin/contracts/Ownable.sol\":873:891  _owner = msgSender */\n  0x0100\n  exp\n  dup2\n  sload\n  dup2\n  0xffffffffffffffffffffffffffffffffffffffff\n  mul\n  not\n  and\n  swap1\n  dup4\n  0xffffffffffffffffffffffffffffffffffffffff\n  and\n  mul\n  or\n  swap1\n  sstore\n  pop\n    /* \"@aave/core-v3/contracts/dependencies/openzeppelin/contracts/Ownable.sol\":935:944  msgSender */\n  dup1\n    /* \"@aave/core-v3/contracts/dependencies/openzeppelin/contracts/Ownable.sol\":902:945  OwnershipTransferred(address(0), msgSender) */\n  0xffffffffffffffffffffffffffffffffffffffff\n  and\n    /* \"@aave/core-v3/contracts/dependencies/openzeppelin/contracts/Ownable.sol\":931:932  0 */\n  0x00\n    /* \"@aave/core-v3/contracts/dependencies/openzeppelin/contracts/Ownable.sol\":902:945  OwnershipTransferred(address(0), msgSender) */\n  0xffffffffffffffffffffffffffffffffffffffff\n  and\n  0x8be0079c531659141344cd1fd0a4f28419497f9722a3daafe3b4186f6b6457e0\n  mload(0x40)\n  mload(0x40)\n  dup1\n  swap2\n  sub\n  swap1\n  log3\n    /* \"@aave/core-v3/contracts/dependencies/openzeppelin/contracts/Ownable.sol\":829:950  {... */\n  pop\n    /* \"contracts/treasury/AaveEcosystemReserveController.sol\":797:836  transferOwnership(aaveGovShortTimelock) */\n  tag_10\n    /* \"contracts/treasury/AaveEcosystemReserveController.sol\":815:835  aaveGovShortTimelock */\n  dup2\n    /* \"contracts/treasury/AaveEcosystemReserveController.sol\":797:814  transferOwnership */\n  shl(0x20, tag_11)\n    /* \"contracts/treasury/AaveEcosystemReserveController.sol\":797:836  transferOwnership(aaveGovShortTimelock) */\n  0x20\n  shr\n  jump\t// in\ntag_10:\n    /* \"contracts/treasury/AaveEcosystemReserveController.sol\":748:842  constructor(address aaveGovShortTimelock) {... */\n  pop\n    /* \"contracts/treasury/AaveEcosystemReserveController.sol\":516:2327  contract AaveEcosystemReserveController is Ownable, IAaveEcosystemReserveController {... */\n  jump(tag_12)\n    /* \"@aave/core-v3/contracts/dependencies/openzeppelin/contracts/Context.sol\":587:694  function _msgSender() internal view virtual returns (address payable) {... */\ntag_8:\n    /* \"@aave/core-v3/contracts/dependencies/openzeppelin/contracts/Context.sol\":640:655  address payable */\n  0x00\n    /* \"@aave/core-v3/contracts/dependencies/openzeppelin/contracts/Context.sol\":678:688  msg.sender */\n  caller\n    /* \"@aave/core-v3/contracts/dependencies/openzeppelin/contracts/Context.sol\":663:689  return payable(msg.sender) */\n  swap1\n  pop\n    /* \"@aave/core-v3/contracts/dependencies/openzeppelin/contracts/Context.sol\":587:694  function _msgSender() internal view virtual returns (address payable) {... */\n  swap1\n  jump\t// out\n    /* \"@aave/core-v3/contracts/dependencies/openzeppelin/contracts/Ownable.sol\":1875:2101  function transferOwnership(address newOwner) public virtual onlyOwner {... */\ntag_11:\n    /* \"@aave/core-v3/contracts/dependencies/openzeppelin/contracts/Ownable.sol\":1214:1226  _msgSender() */\n  tag_15\n    /* \"@aave/core-v3/contracts/dependencies/openzeppelin/contracts/Ownable.sol\":1214:1224  _msgSender */\n  shl(0x20, tag_8)\n    /* \"@aave/core-v3/contracts/dependencies/openzeppelin/contracts/Ownable.sol\":1214:1226  _msgSender() */\n  0x20\n  shr\n  jump\t// in\ntag_15:\n    /* \"@aave/core-v3/contracts/dependencies/openzeppelin/contracts/Ownable.sol\":1204:1226  _owner == _msgSender() */\n  0xffffffffffffffffffffffffffffffffffffffff\n  and\n    /* \"@aave/core-v3/contracts/dependencies/openzeppelin/contracts/Ownable.sol\":1204:1210  _owner */\n  0x00\n  dup1\n  sload\n  swap1\n  0x0100\n  exp\n  swap1\n  div\n  0xffffffffffffffffffffffffffffffffffffffff\n  and\n    /* \"@aave/core-v3/contracts/dependencies/openzeppelin/contracts/Ownable.sol\":1204:1226  _owner == _msgSender() */\n  0xffffffffffffffffffffffffffffffffffffffff\n  and\n  eq\n    /* \"@aave/core-v3/contracts/dependencies/openzeppelin/contracts/Ownable.sol\":1196:1263  require(_owner == _msgSender(), 'Ownable: caller is not the owner') */\n  tag_16\n  jumpi\n  mload(0x40)\n  0x08c379a000000000000000000000000000000000000000000000000000000000\n  dup2\n  mstore\n  0x04\n  add\n  tag_17\n  swap1\n  tag_18\n  jump\t// in\ntag_17:\n  mload(0x40)\n  dup1\n  swap2\n  sub\n  swap1\n  revert\ntag_16:\n    /* \"@aave/core-v3/contracts/dependencies/openzeppelin/contracts/Ownable.sol\":1979:1980  0 */\n  0x00\n    /* \"@aave/core-v3/contracts/dependencies/openzeppelin/contracts/Ownable.sol\":1959:1981  newOwner != address(0) */\n  0xffffffffffffffffffffffffffffffffffffffff\n  and\n    /* \"@aave/core-v3/contracts/dependencies/openzeppelin/contracts/Ownable.sol\":1959:1967  newOwner */\n  dup2\n    /* \"@aave/core-v3/contracts/dependencies/openzeppelin/contracts/Ownable.sol\":1959:1981  newOwner != address(0) */\n  0xffffffffffffffffffffffffffffffffffffffff\n  and\n  sub\n    /* \"@aave/core-v3/contracts/dependencies/openzeppelin/contracts/Ownable.sol\":1951:2024  require(newOwner != address(0), 'Ownable: new owner is the zero address') */\n  tag_20\n  jumpi\n  mload(0x40)\n  0x08c379a000000000000000000000000000000000000000000000000000000000\n  dup2\n  mstore\n  0x04\n  add\n  tag_21\n  swap1\n  tag_22\n  jump\t// in\ntag_21:\n  mload(0x40)\n  dup1\n  swap2\n  sub\n  swap1\n  revert\ntag_20:\n    /* \"@aave/core-v3/contracts/dependencies/openzeppelin/contracts/Ownable.sol\":2064:2072  newOwner */\n  dup1\n    /* \"@aave/core-v3/contracts/dependencies/openzeppelin/contracts/Ownable.sol\":2035:2073  OwnershipTransferred(_owner, newOwner) */\n  0xffffffffffffffffffffffffffffffffffffffff\n  and\n    /* \"@aave/core-v3/contracts/dependencies/openzeppelin/contracts/Ownable.sol\":2056:2062  _owner */\n  0x00\n  dup1\n  sload\n  swap1\n  0x0100\n  exp\n  swap1\n  div\n  0xffffffffffffffffffffffffffffffffffffffff\n  and\n    /* \"@aave/core-v3/contracts/dependencies/openzeppelin/contracts/Ownable.sol\":2035:2073  OwnershipTransferred(_owner, newOwner) */\n  0xffffffffffffffffffffffffffffffffffffffff\n  and\n  0x8be0079c531659141344cd1fd0a4f28419497f9722a3daafe3b4186f6b6457e0\n  mload(0x40)\n  mload(0x40)\n  dup1\n  swap2\n  sub\n  swap1\n  log3\n    /* \"@aave/core-v3/contracts/dependencies/openzeppelin/contracts/Ownable.sol\":2088:2096  newOwner */\n  dup1\n    /* \"@aave/core-v3/contracts/dependencies/openzeppelin/contracts/Ownable.sol\":2079:2085  _owner */\n  0x00\n  dup1\n    /* \"@aave/core-v3/contracts/dependencies/openzeppelin/contracts/Ownable.sol\":2079:2096  _owner = newOwner */\n  0x0100\n  exp\n  dup2\n  sload\n  dup2\n  0xffffffffffffffffffffffffffffffffffffffff\n  mul\n  not\n  and\n  swap1\n  dup4\n  0xffffffffffffffffffffffffffffffffffffffff\n  and\n  mul\n  or\n  swap1\n  sstore\n  pop\n    /* \"@aave/core-v3/contracts/dependencies/openzeppelin/contracts/Ownable.sol\":1875:2101  function transferOwnership(address newOwner) public virtual onlyOwner {... */\n  pop\n  jump\t// out\n    /* \"#utility.yul\":88:205   */\ntag_24:\n    /* \"#utility.yul\":197:198   */\n  0x00\n    /* \"#utility.yul\":194:195   */\n  dup1\n    /* \"#utility.yul\":187:199   */\n  revert\n    /* \"#utility.yul\":334:460   */\ntag_26:\n    /* \"#utility.yul\":371:378   */\n  0x00\n    /* \"#utility.yul\":411:453   */\n  0xffffffffffffffffffffffffffffffffffffffff\n    /* \"#utility.yul\":404:409   */\n  dup3\n    /* \"#utility.yul\":400:454   */\n  and\n    /* \"#utility.yul\":389:454   */\n  swap1\n  pop\n    /* \"#utility.yul\":334:460   */\n  swap2\n  swap1\n  pop\n  jump\t// out\n    /* \"#utility.yul\":466:562   */\ntag_27:\n    /* \"#utility.yul\":503:510   */\n  0x00\n    /* \"#utility.yul\":532:556   */\n  tag_41\n    /* \"#utility.yul\":550:555   */\n  dup3\n    /* \"#utility.yul\":532:556   */\n  tag_26\n  jump\t// in\ntag_41:\n    /* \"#utility.yul\":521:556   */\n  swap1\n  pop\n    /* \"#utility.yul\":466:562   */\n  swap2\n  swap1\n  pop\n  jump\t// out\n    /* \"#utility.yul\":568:690   */\ntag_28:\n    /* \"#utility.yul\":641:665   */\n  tag_43\n    /* \"#utility.yul\":659:664   */\n  dup2\n    /* \"#utility.yul\":641:665   */\n  tag_27\n  jump\t// in\ntag_43:\n    /* \"#utility.yul\":634:639   */\n  dup2\n    /* \"#utility.yul\":631:666   */\n  eq\n    /* \"#utility.yul\":621:684   */\n  tag_44\n  jumpi\n    /* \"#utility.yul\":680:681   */\n  0x00\n    /* \"#utility.yul\":677:678   */\n  dup1\n    /* \"#utility.yul\":670:682   */\n  revert\n    /* \"#utility.yul\":621:684   */\ntag_44:\n    /* \"#utility.yul\":568:690   */\n  pop\n  jump\t// out\n    /* \"#utility.yul\":696:839   */\ntag_29:\n    /* \"#utility.yul\":753:758   */\n  0x00\n    /* \"#utility.yul\":784:790   */\n  dup2\n    /* \"#utility.yul\":778:791   */\n  mload\n    /* \"#utility.yul\":769:791   */\n  swap1\n  pop\n    /* \"#utility.yul\":800:833   */\n  tag_46\n    /* \"#utility.yul\":827:832   */\n  dup2\n    /* \"#utility.yul\":800:833   */\n  tag_28\n  jump\t// in\ntag_46:\n    /* \"#utility.yul\":696:839   */\n  swap3\n  swap2\n  pop\n  pop\n  jump\t// out\n    /* \"#utility.yul\":845:1196   */\ntag_3:\n    /* \"#utility.yul\":915:921   */\n  0x00\n    /* \"#utility.yul\":964:966   */\n  0x20\n    /* \"#utility.yul\":952:961   */\n  dup3\n    /* \"#utility.yul\":943:950   */\n  dup5\n    /* \"#utility.yul\":939:962   */\n  sub\n    /* \"#utility.yul\":935:967   */\n  slt\n    /* \"#utility.yul\":932:1051   */\n  iszero\n  tag_48\n  jumpi\n    /* \"#utility.yul\":970:1049   */\n  tag_49\n  tag_24\n  jump\t// in\ntag_49:\n    /* \"#utility.yul\":932:1051   */\ntag_48:\n    /* \"#utility.yul\":1090:1091   */\n  0x00\n    /* \"#utility.yul\":1115:1179   */\n  tag_50\n    /* \"#utility.yul\":1171:1178   */\n  dup5\n    /* \"#utility.yul\":1162:1168   */\n  dup3\n    /* \"#utility.yul\":1151:1160   */\n  dup6\n    /* \"#utility.yul\":1147:1169   */\n  add\n    /* \"#utility.yul\":1115:1179   */\n  tag_29\n  jump\t// in\ntag_50:\n    /* \"#utility.yul\":1105:1179   */\n  swap2\n  pop\n    /* \"#utility.yul\":1061:1189   */\n  pop\n    /* \"#utility.yul\":845:1196   */\n  swap3\n  swap2\n  pop\n  pop\n  jump\t// out\n    /* \"#utility.yul\":1202:1371   */\ntag_30:\n    /* \"#utility.yul\":1286:1297   */\n  0x00\n    /* \"#utility.yul\":1320:1326   */\n  dup3\n    /* \"#utility.yul\":1315:1318   */\n  dup3\n    /* \"#utility.yul\":1308:1327   */\n  mstore\n    /* \"#utility.yul\":1360:1364   */\n  0x20\n    /* \"#utility.yul\":1355:1358   */\n  dup3\n    /* \"#utility.yul\":1351:1365   */\n  add\n    /* \"#utility.yul\":1336:1365   */\n  swap1\n  pop\n    /* \"#utility.yul\":1202:1371   */\n  swap3\n  swap2\n  pop\n  pop\n  jump\t// out\n    /* \"#utility.yul\":1377:1559   */\ntag_31:\n    /* \"#utility.yul\":1517:1551   */\n  0x4f776e61626c653a2063616c6c6572206973206e6f7420746865206f776e6572\n    /* \"#utility.yul\":1513:1514   */\n  0x00\n    /* \"#utility.yul\":1505:1511   */\n  dup3\n    /* \"#utility.yul\":1501:1515   */\n  add\n    /* \"#utility.yul\":1494:1552   */\n  mstore\n    /* \"#utility.yul\":1377:1559   */\n  pop\n  jump\t// out\n    /* \"#utility.yul\":1565:1931   */\ntag_32:\n    /* \"#utility.yul\":1707:1710   */\n  0x00\n    /* \"#utility.yul\":1728:1795   */\n  tag_54\n    /* \"#utility.yul\":1792:1794   */\n  0x20\n    /* \"#utility.yul\":1787:1790   */\n  dup4\n    /* \"#utility.yul\":1728:1795   */\n  tag_30\n  jump\t// in\ntag_54:\n    /* \"#utility.yul\":1721:1795   */\n  swap2\n  pop\n    /* \"#utility.yul\":1804:1897   */\n  tag_55\n    /* \"#utility.yul\":1893:1896   */\n  dup3\n    /* \"#utility.yul\":1804:1897   */\n  tag_31\n  jump\t// in\ntag_55:\n    /* \"#utility.yul\":1922:1924   */\n  0x20\n    /* \"#utility.yul\":1917:1920   */\n  dup3\n    /* \"#utility.yul\":1913:1925   */\n  add\n    /* \"#utility.yul\":1906:1925   */\n  swap1\n  pop\n    /* \"#utility.yul\":1565:1931   */\n  swap2\n  swap1\n  pop\n  jump\t// out\n    /* \"#utility.yul\":1937:2356   */\ntag_18:\n    /* \"#utility.yul\":2103:2107   */\n  0x00\n    /* \"#utility.yul\":2141:2143   */\n  0x20\n    /* \"#utility.yul\":2130:2139   */\n  dup3\n    /* \"#utility.yul\":2126:2144   */\n  add\n    /* \"#utility.yul\":2118:2144   */\n  swap1\n  pop\n    /* \"#utility.yul\":2190:2199   */\n  dup2\n    /* \"#utility.yul\":2184:2188   */\n  dup2\n    /* \"#utility.yul\":2180:2200   */\n  sub\n    /* \"#utility.yul\":2176:2177   */\n  0x00\n    /* \"#utility.yul\":2165:2174   */\n  dup4\n    /* \"#utility.yul\":2161:2178   */\n  add\n    /* \"#utility.yul\":2154:2201   */\n  mstore\n    /* \"#utility.yul\":2218:2349   */\n  tag_57\n    /* \"#utility.yul\":2344:2348   */\n  dup2\n    /* \"#utility.yul\":2218:2349   */\n  tag_32\n  jump\t// in\ntag_57:\n    /* \"#utility.yul\":2210:2349   */\n  swap1\n  pop\n    /* \"#utility.yul\":1937:2356   */\n  swap2\n  swap1\n  pop\n  jump\t// out\n    /* \"#utility.yul\":2362:2587   */\ntag_33:\n    /* \"#utility.yul\":2502:2536   */\n  0x4f776e61626c653a206e6577206f776e657220697320746865207a65726f2061\n    /* \"#utility.yul\":2498:2499   */\n  0x00\n    /* \"#utility.yul\":2490:2496   */\n  dup3\n    /* \"#utility.yul\":2486:2500   */\n  add\n    /* \"#utility.yul\":2479:2537   */\n  mstore\n    /* \"#utility.yul\":2571:2579   */\n  0x6464726573730000000000000000000000000000000000000000000000000000\n    /* \"#utility.yul\":2566:2568   */\n  0x20\n    /* \"#utility.yul\":2558:2564   */\n  dup3\n    /* \"#utility.yul\":2554:2569   */\n  add\n    /* \"#utility.yul\":2547:2580   */\n  mstore\n    /* \"#utility.yul\":2362:2587   */\n  pop\n  jump\t// out\n    /* \"#utility.yul\":2593:2959   */\ntag_34:\n    /* \"#utility.yul\":2735:2738   */\n  0x00\n    /* \"#utility.yul\":2756:2823   */\n  tag_60\n    /* \"#utility.yul\":2820:2822   */\n  0x26\n    /* \"#utility.yul\":2815:2818   */\n  dup4\n    /* \"#utility.yul\":2756:2823   */\n  tag_30\n  jump\t// in\ntag_60:\n    /* \"#utility.yul\":2749:2823   */\n  swap2\n  pop\n    /* \"#utility.yul\":2832:2925   */\n  tag_61\n    /* \"#utility.yul\":2921:2924   */\n  dup3\n    /* \"#utility.yul\":2832:2925   */\n  tag_33\n  jump\t// in\ntag_61:\n    /* \"#utility.yul\":2950:2952   */\n  0x40\n    /* \"#utility.yul\":2945:2948   */\n  dup3\n    /* \"#utility.yul\":2941:2953   */\n  add\n    /* \"#utility.yul\":2934:2953   */\n  swap1\n  pop\n    /* \"#utility.yul\":2593:2959   */\n  swap2\n  swap1\n  pop\n  jump\t// out\n    /* \"#utility.yul\":2965:3384   */\ntag_22:\n    /* \"#utility.yul\":3131:3135   */\n  0x00\n    /* \"#utility.yul\":3169:3171   */\n  0x20\n    /* \"#utility.yul\":3158:3167   */\n  dup3\n    /* \"#utility.yul\":3154:3172   */\n  add\n    /* \"#utility.yul\":3146:3172   */\n  swap1\n  pop\n    /* \"#utility.yul\":3218:3227   */\n  dup2\n    /* \"#utility.yul\":3212:3216   */\n  dup2\n    /* \"#utility.yul\":3208:3228   */\n  sub\n    /* \"#utility.yul\":3204:3205   */\n  0x00\n    /* \"#utility.yul\":3193:3202   */\n  dup4\n    /* \"#utility.yul\":3189:3206   */\n  add\n    /* \"#utility.yul\":3182:3229   */\n  mstore\n    /* \"#utility.yul\":3246:3377   */\n  tag_63\n    /* \"#utility.yul\":3372:3376   */\n  dup2\n    /* \"#utility.yul\":3246:3377   */\n  tag_34\n  jump\t// in\ntag_63:\n    /* \"#utility.yul\":3238:3377   */\n  swap1\n  pop\n    /* \"#utility.yul\":2965:3384   */\n  swap2\n  swap1\n  pop\n  jump\t// out\n    /* \"contracts/treasury/AaveEcosystemReserveController.sol\":516:2327  contract AaveEcosystemReserveController is Ownable, IAaveEcosystemReserveController {... */\ntag_12:\n  dataSize(sub_0)\n  dup1\n  dataOffset(sub_0)\n  0x00\n  codecopy\n  0x00\n  return\nstop\n\nsub_0: assembly {\n        /* \"contracts/treasury/AaveEcosystemReserveController.sol\":516:2327  contract AaveEcosystemReserveController is Ownable, IAaveEcosystemReserveController {... */\n      mstore(0x40, 0x80)\n      callvalue\n      dup1\n      iszero\n      tag_1\n      jumpi\n      0x00\n      dup1\n      revert\n    tag_1:\n      pop\n      jumpi(tag_2, lt(calldatasize, 0x04))\n      shr(0xe0, calldataload(0x00))\n      dup1\n      0x8da5cb5b\n      gt\n      tag_11\n      jumpi\n      dup1\n      0x8da5cb5b\n      eq\n      tag_7\n      jumpi\n      dup1\n      0xf18d03cc\n      eq\n      tag_8\n      jumpi\n      dup1\n      0xf2fde38b\n      eq\n      tag_9\n      jumpi\n      dup1\n      0xfd59e134\n      eq\n      tag_10\n      jumpi\n      jump(tag_2)\n    tag_11:\n      dup1\n      0x2f436bfa\n      eq\n      tag_3\n      jumpi\n      dup1\n      0x59eba454\n      eq\n      tag_4\n      jumpi\n      dup1\n      0x715018a6\n      eq\n      tag_5\n      jumpi\n      dup1\n      0x7dc14a8e\n      eq\n      tag_6\n      jumpi\n    tag_2:\n      0x00\n      dup1\n      revert\n        /* \"contracts/treasury/AaveEcosystemReserveController.sol\":1897:2109  function withdrawFromStream(... */\n    tag_3:\n      tag_12\n      0x04\n      dup1\n      calldatasize\n      sub\n      dup2\n      add\n      swap1\n      tag_13\n      swap2\n      swap1\n      tag_14\n      jump\t// in\n    tag_13:\n      tag_15\n      jump\t// in\n    tag_12:\n      mload(0x40)\n      tag_16\n      swap2\n      swap1\n      tag_17\n      jump\t// in\n    tag_16:\n      mload(0x40)\n      dup1\n      swap2\n      sub\n      swap1\n      return\n        /* \"contracts/treasury/AaveEcosystemReserveController.sol\":899:1118  function approve(... */\n    tag_4:\n      tag_18\n      0x04\n      dup1\n      calldatasize\n      sub\n      dup2\n      add\n      swap1\n      tag_19\n      swap2\n      swap1\n      tag_20\n      jump\t// in\n    tag_19:\n      tag_21\n      jump\t// in\n    tag_18:\n      stop\n        /* \"@aave/core-v3/contracts/dependencies/openzeppelin/contracts/Ownable.sol\":1601:1736  function renounceOwnership() public virtual onlyOwner {... */\n    tag_5:\n      tag_22\n      tag_23\n      jump\t// in\n    tag_22:\n      stop\n        /* \"contracts/treasury/AaveEcosystemReserveController.sol\":2166:2324  function cancelStream(address collector, uint256 streamId) external onlyOwner returns (bool) {... */\n    tag_6:\n      tag_24\n      0x04\n      dup1\n      calldatasize\n      sub\n      dup2\n      add\n      swap1\n      tag_25\n      swap2\n      swap1\n      tag_26\n      jump\t// in\n    tag_25:\n      tag_27\n      jump\t// in\n    tag_24:\n      mload(0x40)\n      tag_28\n      swap2\n      swap1\n      tag_17\n      jump\t// in\n    tag_28:\n      mload(0x40)\n      dup1\n      swap2\n      sub\n      swap1\n      return\n        /* \"@aave/core-v3/contracts/dependencies/openzeppelin/contracts/Ownable.sol\":1018:1089  function owner() public view returns (address) {... */\n    tag_7:\n      tag_29\n      tag_30\n      jump\t// in\n    tag_29:\n      mload(0x40)\n      tag_31\n      swap2\n      swap1\n      tag_32\n      jump\t// in\n    tag_31:\n      mload(0x40)\n      dup1\n      swap2\n      sub\n      swap1\n      return\n        /* \"contracts/treasury/AaveEcosystemReserveController.sol\":1175:1396  function transfer(... */\n    tag_8:\n      tag_33\n      0x04\n      dup1\n      calldatasize\n      sub\n      dup2\n      add\n      swap1\n      tag_34\n      swap2\n      swap1\n      tag_20\n      jump\t// in\n    tag_34:\n      tag_35\n      jump\t// in\n    tag_33:\n      stop\n        /* \"@aave/core-v3/contracts/dependencies/openzeppelin/contracts/Ownable.sol\":1875:2101  function transferOwnership(address newOwner) public virtual onlyOwner {... */\n    tag_9:\n      tag_36\n      0x04\n      dup1\n      calldatasize\n      sub\n      dup2\n      add\n      swap1\n      tag_37\n      swap2\n      swap1\n      tag_38\n      jump\t// in\n    tag_37:\n      tag_39\n      jump\t// in\n    tag_36:\n      stop\n        /* \"contracts/treasury/AaveEcosystemReserveController.sol\":1453:1840  function createStream(... */\n    tag_10:\n      tag_40\n      0x04\n      dup1\n      calldatasize\n      sub\n      dup2\n      add\n      swap1\n      tag_41\n      swap2\n      swap1\n      tag_42\n      jump\t// in\n    tag_41:\n      tag_43\n      jump\t// in\n    tag_40:\n      mload(0x40)\n      tag_44\n      swap2\n      swap1\n      tag_45\n      jump\t// in\n    tag_44:\n      mload(0x40)\n      dup1\n      swap2\n      sub\n      swap1\n      return\n        /* \"contracts/treasury/AaveEcosystemReserveController.sol\":1897:2109  function withdrawFromStream(... */\n    tag_15:\n        /* \"contracts/treasury/AaveEcosystemReserveController.sol\":2025:2029  bool */\n      0x00\n        /* \"@aave/core-v3/contracts/dependencies/openzeppelin/contracts/Ownable.sol\":1214:1226  _msgSender() */\n      tag_47\n        /* \"@aave/core-v3/contracts/dependencies/openzeppelin/contracts/Ownable.sol\":1214:1224  _msgSender */\n      tag_48\n        /* \"@aave/core-v3/contracts/dependencies/openzeppelin/contracts/Ownable.sol\":1214:1226  _msgSender() */\n      jump\t// in\n    tag_47:\n        /* \"@aave/core-v3/contracts/dependencies/openzeppelin/contracts/Ownable.sol\":1204:1226  _owner == _msgSender() */\n      0xffffffffffffffffffffffffffffffffffffffff\n      and\n        /* \"@aave/core-v3/contracts/dependencies/openzeppelin/contracts/Ownable.sol\":1204:1210  _owner */\n      0x00\n      dup1\n      sload\n      swap1\n      0x0100\n      exp\n      swap1\n      div\n      0xffffffffffffffffffffffffffffffffffffffff\n      and\n        /* \"@aave/core-v3/contracts/dependencies/openzeppelin/contracts/Ownable.sol\":1204:1226  _owner == _msgSender() */\n      0xffffffffffffffffffffffffffffffffffffffff\n      and\n      eq\n        /* \"@aave/core-v3/contracts/dependencies/openzeppelin/contracts/Ownable.sol\":1196:1263  require(_owner == _msgSender(), 'Ownable: caller is not the owner') */\n      tag_49\n      jumpi\n      mload(0x40)\n      0x08c379a000000000000000000000000000000000000000000000000000000000\n      dup2\n      mstore\n      0x04\n      add\n      tag_50\n      swap1\n      tag_51\n      jump\t// in\n    tag_50:\n      mload(0x40)\n      dup1\n      swap2\n      sub\n      swap1\n      revert\n    tag_49:\n        /* \"contracts/treasury/AaveEcosystemReserveController.sol\":2057:2066  collector */\n      dup4\n        /* \"contracts/treasury/AaveEcosystemReserveController.sol\":2045:2086  IStreamable(collector).withdrawFromStream */\n      0xffffffffffffffffffffffffffffffffffffffff\n      and\n      0x7a9b2c6c\n        /* \"contracts/treasury/AaveEcosystemReserveController.sol\":2087:2095  streamId */\n      dup5\n        /* \"contracts/treasury/AaveEcosystemReserveController.sol\":2097:2102  funds */\n      dup5\n        /* \"contracts/treasury/AaveEcosystemReserveController.sol\":2045:2103  IStreamable(collector).withdrawFromStream(streamId, funds) */\n      mload(0x40)\n      dup4\n      0xffffffff\n      and\n      0xe0\n      shl\n      dup2\n      mstore\n      0x04\n      add\n      tag_53\n      swap3\n      swap2\n      swap1\n      tag_54\n      jump\t// in\n    tag_53:\n      0x20\n      mload(0x40)\n      dup1\n      dup4\n      sub\n      dup2\n      0x00\n      dup8\n      gas\n      call\n      iszero\n      dup1\n      iszero\n      tag_56\n      jumpi\n      returndatasize\n      0x00\n      dup1\n      returndatacopy\n      revert(0x00, returndatasize)\n    tag_56:\n      pop\n      pop\n      pop\n      pop\n      mload(0x40)\n      returndatasize\n      not(0x1f)\n      0x1f\n      dup3\n      add\n      and\n      dup3\n      add\n      dup1\n      0x40\n      mstore\n      pop\n      dup2\n      add\n      swap1\n      tag_57\n      swap2\n      swap1\n      tag_58\n      jump\t// in\n    tag_57:\n        /* \"contracts/treasury/AaveEcosystemReserveController.sol\":2038:2103  return IStreamable(collector).withdrawFromStream(streamId, funds) */\n      swap1\n      pop\n        /* \"contracts/treasury/AaveEcosystemReserveController.sol\":1897:2109  function withdrawFromStream(... */\n      swap4\n      swap3\n      pop\n      pop\n      pop\n      jump\t// out\n        /* \"contracts/treasury/AaveEcosystemReserveController.sol\":899:1118  function approve(... */\n    tag_21:\n        /* \"@aave/core-v3/contracts/dependencies/openzeppelin/contracts/Ownable.sol\":1214:1226  _msgSender() */\n      tag_60\n        /* \"@aave/core-v3/contracts/dependencies/openzeppelin/contracts/Ownable.sol\":1214:1224  _msgSender */\n      tag_48\n        /* \"@aave/core-v3/contracts/dependencies/openzeppelin/contracts/Ownable.sol\":1214:1226  _msgSender() */\n      jump\t// in\n    tag_60:\n        /* \"@aave/core-v3/contracts/dependencies/openzeppelin/contracts/Ownable.sol\":1204:1226  _owner == _msgSender() */\n      0xffffffffffffffffffffffffffffffffffffffff\n      and\n        /* \"@aave/core-v3/contracts/dependencies/openzeppelin/contracts/Ownable.sol\":1204:1210  _owner */\n      0x00\n      dup1\n      sload\n      swap1\n      0x0100\n      exp\n      swap1\n      div\n      0xffffffffffffffffffffffffffffffffffffffff\n      and\n        /* \"@aave/core-v3/contracts/dependencies/openzeppelin/contracts/Ownable.sol\":1204:1226  _owner == _msgSender() */\n      0xffffffffffffffffffffffffffffffffffffffff\n      and\n      eq\n        /* \"@aave/core-v3/contracts/dependencies/openzeppelin/contracts/Ownable.sol\":1196:1263  require(_owner == _msgSender(), 'Ownable: caller is not the owner') */\n      tag_61\n      jumpi\n      mload(0x40)\n      0x08c379a000000000000000000000000000000000000000000000000000000000\n      dup2\n      mstore\n      0x04\n      add\n      tag_62\n      swap1\n      tag_51\n      jump\t// in\n    tag_62:\n      mload(0x40)\n      dup1\n      swap2\n      sub\n      swap1\n      revert\n    tag_61:\n        /* \"contracts/treasury/AaveEcosystemReserveController.sol\":1068:1077  collector */\n      dup4\n        /* \"contracts/treasury/AaveEcosystemReserveController.sol\":1035:1086  IAdminControlledEcosystemReserve(collector).approve */\n      0xffffffffffffffffffffffffffffffffffffffff\n      and\n      0xe1f21c67\n        /* \"contracts/treasury/AaveEcosystemReserveController.sol\":1087:1092  token */\n      dup5\n        /* \"contracts/treasury/AaveEcosystemReserveController.sol\":1094:1103  recipient */\n      dup5\n        /* \"contracts/treasury/AaveEcosystemReserveController.sol\":1105:1111  amount */\n      dup5\n        /* \"contracts/treasury/AaveEcosystemReserveController.sol\":1035:1112  IAdminControlledEcosystemReserve(collector).approve(token, recipient, amount) */\n      mload(0x40)\n      dup5\n      0xffffffff\n      and\n      0xe0\n      shl\n      dup2\n      mstore\n      0x04\n      add\n      tag_64\n      swap4\n      swap3\n      swap2\n      swap1\n      tag_65\n      jump\t// in\n    tag_64:\n      0x00\n      mload(0x40)\n      dup1\n      dup4\n      sub\n      dup2\n      0x00\n      dup8\n      dup1\n      extcodesize\n      iszero\n      dup1\n      iszero\n      tag_66\n      jumpi\n      0x00\n      dup1\n      revert\n    tag_66:\n      pop\n      gas\n      call\n      iszero\n      dup1\n      iszero\n      tag_68\n      jumpi\n      returndatasize\n      0x00\n      dup1\n      returndatacopy\n      revert(0x00, returndatasize)\n    tag_68:\n      pop\n      pop\n      pop\n      pop\n        /* \"contracts/treasury/AaveEcosystemReserveController.sol\":899:1118  function approve(... */\n      pop\n      pop\n      pop\n      pop\n      jump\t// out\n        /* \"@aave/core-v3/contracts/dependencies/openzeppelin/contracts/Ownable.sol\":1601:1736  function renounceOwnership() public virtual onlyOwner {... */\n    tag_23:\n        /* \"@aave/core-v3/contracts/dependencies/openzeppelin/contracts/Ownable.sol\":1214:1226  _msgSender() */\n      tag_70\n        /* \"@aave/core-v3/contracts/dependencies/openzeppelin/contracts/Ownable.sol\":1214:1224  _msgSender */\n      tag_48\n        /* \"@aave/core-v3/contracts/dependencies/openzeppelin/contracts/Ownable.sol\":1214:1226  _msgSender() */\n      jump\t// in\n    tag_70:\n        /* \"@aave/core-v3/contracts/dependencies/openzeppelin/contracts/Ownable.sol\":1204:1226  _owner == _msgSender() */\n      0xffffffffffffffffffffffffffffffffffffffff\n      and\n        /* \"@aave/core-v3/contracts/dependencies/openzeppelin/contracts/Ownable.sol\":1204:1210  _owner */\n      0x00\n      dup1\n      sload\n      swap1\n      0x0100\n      exp\n      swap1\n      div\n      0xffffffffffffffffffffffffffffffffffffffff\n      and\n        /* \"@aave/core-v3/contracts/dependencies/openzeppelin/contracts/Ownable.sol\":1204:1226  _owner == _msgSender() */\n      0xffffffffffffffffffffffffffffffffffffffff\n      and\n      eq\n        /* \"@aave/core-v3/contracts/dependencies/openzeppelin/contracts/Ownable.sol\":1196:1263  require(_owner == _msgSender(), 'Ownable: caller is not the owner') */\n      tag_71\n      jumpi\n      mload(0x40)\n      0x08c379a000000000000000000000000000000000000000000000000000000000\n      dup2\n      mstore\n      0x04\n      add\n      tag_72\n      swap1\n      tag_51\n      jump\t// in\n    tag_72:\n      mload(0x40)\n      dup1\n      swap2\n      sub\n      swap1\n      revert\n    tag_71:\n        /* \"@aave/core-v3/contracts/dependencies/openzeppelin/contracts/Ownable.sol\":1703:1704  0 */\n      0x00\n        /* \"@aave/core-v3/contracts/dependencies/openzeppelin/contracts/Ownable.sol\":1666:1706  OwnershipTransferred(_owner, address(0)) */\n      0xffffffffffffffffffffffffffffffffffffffff\n      and\n        /* \"@aave/core-v3/contracts/dependencies/openzeppelin/contracts/Ownable.sol\":1687:1693  _owner */\n      0x00\n      dup1\n      sload\n      swap1\n      0x0100\n      exp\n      swap1\n      div\n      0xffffffffffffffffffffffffffffffffffffffff\n      and\n        /* \"@aave/core-v3/contracts/dependencies/openzeppelin/contracts/Ownable.sol\":1666:1706  OwnershipTransferred(_owner, address(0)) */\n      0xffffffffffffffffffffffffffffffffffffffff\n      and\n      0x8be0079c531659141344cd1fd0a4f28419497f9722a3daafe3b4186f6b6457e0\n      mload(0x40)\n      mload(0x40)\n      dup1\n      swap2\n      sub\n      swap1\n      log3\n        /* \"@aave/core-v3/contracts/dependencies/openzeppelin/contracts/Ownable.sol\":1729:1730  0 */\n      0x00\n        /* \"@aave/core-v3/contracts/dependencies/openzeppelin/contracts/Ownable.sol\":1712:1718  _owner */\n      dup1\n      0x00\n        /* \"@aave/core-v3/contracts/dependencies/openzeppelin/contracts/Ownable.sol\":1712:1731  _owner = address(0) */\n      0x0100\n      exp\n      dup2\n      sload\n      dup2\n      0xffffffffffffffffffffffffffffffffffffffff\n      mul\n      not\n      and\n      swap1\n      dup4\n      0xffffffffffffffffffffffffffffffffffffffff\n      and\n      mul\n      or\n      swap1\n      sstore\n      pop\n        /* \"@aave/core-v3/contracts/dependencies/openzeppelin/contracts/Ownable.sol\":1601:1736  function renounceOwnership() public virtual onlyOwner {... */\n      jump\t// out\n        /* \"contracts/treasury/AaveEcosystemReserveController.sol\":2166:2324  function cancelStream(address collector, uint256 streamId) external onlyOwner returns (bool) {... */\n    tag_27:\n        /* \"contracts/treasury/AaveEcosystemReserveController.sol\":2253:2257  bool */\n      0x00\n        /* \"@aave/core-v3/contracts/dependencies/openzeppelin/contracts/Ownable.sol\":1214:1226  _msgSender() */\n      tag_75\n        /* \"@aave/core-v3/contracts/dependencies/openzeppelin/contracts/Ownable.sol\":1214:1224  _msgSender */\n      tag_48\n        /* \"@aave/core-v3/contracts/dependencies/openzeppelin/contracts/Ownable.sol\":1214:1226  _msgSender() */\n      jump\t// in\n    tag_75:\n        /* \"@aave/core-v3/contracts/dependencies/openzeppelin/contracts/Ownable.sol\":1204:1226  _owner == _msgSender() */\n      0xffffffffffffffffffffffffffffffffffffffff\n      and\n        /* \"@aave/core-v3/contracts/dependencies/openzeppelin/contracts/Ownable.sol\":1204:1210  _owner */\n      0x00\n      dup1\n      sload\n      swap1\n      0x0100\n      exp\n      swap1\n      div\n      0xffffffffffffffffffffffffffffffffffffffff\n      and\n        /* \"@aave/core-v3/contracts/dependencies/openzeppelin/contracts/Ownable.sol\":1204:1226  _owner == _msgSender() */\n      0xffffffffffffffffffffffffffffffffffffffff\n      and\n      eq\n        /* \"@aave/core-v3/contracts/dependencies/openzeppelin/contracts/Ownable.sol\":1196:1263  require(_owner == _msgSender(), 'Ownable: caller is not the owner') */\n      tag_76\n      jumpi\n      mload(0x40)\n      0x08c379a000000000000000000000000000000000000000000000000000000000\n      dup2\n      mstore\n      0x04\n      add\n      tag_77\n      swap1\n      tag_51\n      jump\t// in\n    tag_77:\n      mload(0x40)\n      dup1\n      swap2\n      sub\n      swap1\n      revert\n    tag_76:\n        /* \"contracts/treasury/AaveEcosystemReserveController.sol\":2285:2294  collector */\n      dup3\n        /* \"contracts/treasury/AaveEcosystemReserveController.sol\":2273:2308  IStreamable(collector).cancelStream */\n      0xffffffffffffffffffffffffffffffffffffffff\n      and\n      0x6db9241b\n        /* \"contracts/treasury/AaveEcosystemReserveController.sol\":2309:2317  streamId */\n      dup4\n        /* \"contracts/treasury/AaveEcosystemReserveController.sol\":2273:2318  IStreamable(collector).cancelStream(streamId) */\n      mload(0x40)\n      dup3\n      0xffffffff\n      and\n      0xe0\n      shl\n      dup2\n      mstore\n      0x04\n      add\n      tag_79\n      swap2\n      swap1\n      tag_45\n      jump\t// in\n    tag_79:\n      0x20\n      mload(0x40)\n      dup1\n      dup4\n      sub\n      dup2\n      0x00\n      dup8\n      gas\n      call\n      iszero\n      dup1\n      iszero\n      tag_81\n      jumpi\n      returndatasize\n      0x00\n      dup1\n      returndatacopy\n      revert(0x00, returndatasize)\n    tag_81:\n      pop\n      pop\n      pop\n      pop\n      mload(0x40)\n      returndatasize\n      not(0x1f)\n      0x1f\n      dup3\n      add\n      and\n      dup3\n      add\n      dup1\n      0x40\n      mstore\n      pop\n      dup2\n      add\n      swap1\n      tag_82\n      swap2\n      swap1\n      tag_58\n      jump\t// in\n    tag_82:\n        /* \"contracts/treasury/AaveEcosystemReserveController.sol\":2266:2318  return IStreamable(collector).cancelStream(streamId) */\n      swap1\n      pop\n        /* \"contracts/treasury/AaveEcosystemReserveController.sol\":2166:2324  function cancelStream(address collector, uint256 streamId) external onlyOwner returns (bool) {... */\n      swap3\n      swap2\n      pop\n      pop\n      jump\t// out\n        /* \"@aave/core-v3/contracts/dependencies/openzeppelin/contracts/Ownable.sol\":1018:1089  function owner() public view returns (address) {... */\n    tag_30:\n        /* \"@aave/core-v3/contracts/dependencies/openzeppelin/contracts/Ownable.sol\":1056:1063  address */\n      0x00\n        /* \"@aave/core-v3/contracts/dependencies/openzeppelin/contracts/Ownable.sol\":1078:1084  _owner */\n      dup1\n      0x00\n      swap1\n      sload\n      swap1\n      0x0100\n      exp\n      swap1\n      div\n      0xffffffffffffffffffffffffffffffffffffffff\n      and\n        /* \"@aave/core-v3/contracts/dependencies/openzeppelin/contracts/Ownable.sol\":1071:1084  return _owner */\n      swap1\n      pop\n        /* \"@aave/core-v3/contracts/dependencies/openzeppelin/contracts/Ownable.sol\":1018:1089  function owner() public view returns (address) {... */\n      swap1\n      jump\t// out\n        /* \"contracts/treasury/AaveEcosystemReserveController.sol\":1175:1396  function transfer(... */\n    tag_35:\n        /* \"@aave/core-v3/contracts/dependencies/openzeppelin/contracts/Ownable.sol\":1214:1226  _msgSender() */\n      tag_85\n        /* \"@aave/core-v3/contracts/dependencies/openzeppelin/contracts/Ownable.sol\":1214:1224  _msgSender */\n      tag_48\n        /* \"@aave/core-v3/contracts/dependencies/openzeppelin/contracts/Ownable.sol\":1214:1226  _msgSender() */\n      jump\t// in\n    tag_85:\n        /* \"@aave/core-v3/contracts/dependencies/openzeppelin/contracts/Ownable.sol\":1204:1226  _owner == _msgSender() */\n      0xffffffffffffffffffffffffffffffffffffffff\n      and\n        /* \"@aave/core-v3/contracts/dependencies/openzeppelin/contracts/Ownable.sol\":1204:1210  _owner */\n      0x00\n      dup1\n      sload\n      swap1\n      0x0100\n      exp\n      swap1\n      div\n      0xffffffffffffffffffffffffffffffffffffffff\n      and\n        /* \"@aave/core-v3/contracts/dependencies/openzeppelin/contracts/Ownable.sol\":1204:1226  _owner == _msgSender() */\n      0xffffffffffffffffffffffffffffffffffffffff\n      and\n      eq\n        /* \"@aave/core-v3/contracts/dependencies/openzeppelin/contracts/Ownable.sol\":1196:1263  require(_owner == _msgSender(), 'Ownable: caller is not the owner') */\n      tag_86\n      jumpi\n      mload(0x40)\n      0x08c379a000000000000000000000000000000000000000000000000000000000\n      dup2\n      mstore\n      0x04\n      add\n      tag_87\n      swap1\n      tag_51\n      jump\t// in\n    tag_87:\n      mload(0x40)\n      dup1\n      swap2\n      sub\n      swap1\n      revert\n    tag_86:\n        /* \"contracts/treasury/AaveEcosystemReserveController.sol\":1345:1354  collector */\n      dup4\n        /* \"contracts/treasury/AaveEcosystemReserveController.sol\":1312:1364  IAdminControlledEcosystemReserve(collector).transfer */\n      0xffffffffffffffffffffffffffffffffffffffff\n      and\n      0xbeabacc8\n        /* \"contracts/treasury/AaveEcosystemReserveController.sol\":1365:1370  token */\n      dup5\n        /* \"contracts/treasury/AaveEcosystemReserveController.sol\":1372:1381  recipient */\n      dup5\n        /* \"contracts/treasury/AaveEcosystemReserveController.sol\":1383:1389  amount */\n      dup5\n        /* \"contracts/treasury/AaveEcosystemReserveController.sol\":1312:1390  IAdminControlledEcosystemReserve(collector).transfer(token, recipient, amount) */\n      mload(0x40)\n      dup5\n      0xffffffff\n      and\n      0xe0\n      shl\n      dup2\n      mstore\n      0x04\n      add\n      tag_89\n      swap4\n      swap3\n      swap2\n      swap1\n      tag_65\n      jump\t// in\n    tag_89:\n      0x00\n      mload(0x40)\n      dup1\n      dup4\n      sub\n      dup2\n      0x00\n      dup8\n      dup1\n      extcodesize\n      iszero\n      dup1\n      iszero\n      tag_90\n      jumpi\n      0x00\n      dup1\n      revert\n    tag_90:\n      pop\n      gas\n      call\n      iszero\n      dup1\n      iszero\n      tag_92\n      jumpi\n      returndatasize\n      0x00\n      dup1\n      returndatacopy\n      revert(0x00, returndatasize)\n    tag_92:\n      pop\n      pop\n      pop\n      pop\n        /* \"contracts/treasury/AaveEcosystemReserveController.sol\":1175:1396  function transfer(... */\n      pop\n      pop\n      pop\n      pop\n      jump\t// out\n        /* \"@aave/core-v3/contracts/dependencies/openzeppelin/contracts/Ownable.sol\":1875:2101  function transferOwnership(address newOwner) public virtual onlyOwner {... */\n    tag_39:\n        /* \"@aave/core-v3/contracts/dependencies/openzeppelin/contracts/Ownable.sol\":1214:1226  _msgSender() */\n      tag_94\n        /* \"@aave/core-v3/contracts/dependencies/openzeppelin/contracts/Ownable.sol\":1214:1224  _msgSender */\n      tag_48\n        /* \"@aave/core-v3/contracts/dependencies/openzeppelin/contracts/Ownable.sol\":1214:1226  _msgSender() */\n      jump\t// in\n    tag_94:\n        /* \"@aave/core-v3/contracts/dependencies/openzeppelin/contracts/Ownable.sol\":1204:1226  _owner == _msgSender() */\n      0xffffffffffffffffffffffffffffffffffffffff\n      and\n        /* \"@aave/core-v3/contracts/dependencies/openzeppelin/contracts/Ownable.sol\":1204:1210  _owner */\n      0x00\n      dup1\n      sload\n      swap1\n      0x0100\n      exp\n      swap1\n      div\n      0xffffffffffffffffffffffffffffffffffffffff\n      and\n        /* \"@aave/core-v3/contracts/dependencies/openzeppelin/contracts/Ownable.sol\":1204:1226  _owner == _msgSender() */\n      0xffffffffffffffffffffffffffffffffffffffff\n      and\n      eq\n        /* \"@aave/core-v3/contracts/dependencies/openzeppelin/contracts/Ownable.sol\":1196:1263  require(_owner == _msgSender(), 'Ownable: caller is not the owner') */\n      tag_95\n      jumpi\n      mload(0x40)\n      0x08c379a000000000000000000000000000000000000000000000000000000000\n      dup2\n      mstore\n      0x04\n      add\n      tag_96\n      swap1\n      tag_51\n      jump\t// in\n    tag_96:\n      mload(0x40)\n      dup1\n      swap2\n      sub\n      swap1\n      revert\n    tag_95:\n        /* \"@aave/core-v3/contracts/dependencies/openzeppelin/contracts/Ownable.sol\":1979:1980  0 */\n      0x00\n        /* \"@aave/core-v3/contracts/dependencies/openzeppelin/contracts/Ownable.sol\":1959:1981  newOwner != address(0) */\n      0xffffffffffffffffffffffffffffffffffffffff\n      and\n        /* \"@aave/core-v3/contracts/dependencies/openzeppelin/contracts/Ownable.sol\":1959:1967  newOwner */\n      dup2\n        /* \"@aave/core-v3/contracts/dependencies/openzeppelin/contracts/Ownable.sol\":1959:1981  newOwner != address(0) */\n      0xffffffffffffffffffffffffffffffffffffffff\n      and\n      sub\n        /* \"@aave/core-v3/contracts/dependencies/openzeppelin/contracts/Ownable.sol\":1951:2024  require(newOwner != address(0), 'Ownable: new owner is the zero address') */\n      tag_98\n      jumpi\n      mload(0x40)\n      0x08c379a000000000000000000000000000000000000000000000000000000000\n      dup2\n      mstore\n      0x04\n      add\n      tag_99\n      swap1\n      tag_100\n      jump\t// in\n    tag_99:\n      mload(0x40)\n      dup1\n      swap2\n      sub\n      swap1\n      revert\n    tag_98:\n        /* \"@aave/core-v3/contracts/dependencies/openzeppelin/contracts/Ownable.sol\":2064:2072  newOwner */\n      dup1\n        /* \"@aave/core-v3/contracts/dependencies/openzeppelin/contracts/Ownable.sol\":2035:2073  OwnershipTransferred(_owner, newOwner) */\n      0xffffffffffffffffffffffffffffffffffffffff\n      and\n        /* \"@aave/core-v3/contracts/dependencies/openzeppelin/contracts/Ownable.sol\":2056:2062  _owner */\n      0x00\n      dup1\n      sload\n      swap1\n      0x0100\n      exp\n      swap1\n      div\n      0xffffffffffffffffffffffffffffffffffffffff\n      and\n        /* \"@aave/core-v3/contracts/dependencies/openzeppelin/contracts/Ownable.sol\":2035:2073  OwnershipTransferred(_owner, newOwner) */\n      0xffffffffffffffffffffffffffffffffffffffff\n      and\n      0x8be0079c531659141344cd1fd0a4f28419497f9722a3daafe3b4186f6b6457e0\n      mload(0x40)\n      mload(0x40)\n      dup1\n      swap2\n      sub\n      swap1\n      log3\n        /* \"@aave/core-v3/contracts/dependencies/openzeppelin/contracts/Ownable.sol\":2088:2096  newOwner */\n      dup1\n        /* \"@aave/core-v3/contracts/dependencies/openzeppelin/contracts/Ownable.sol\":2079:2085  _owner */\n      0x00\n      dup1\n        /* \"@aave/core-v3/contracts/dependencies/openzeppelin/contracts/Ownable.sol\":2079:2096  _owner = newOwner */\n      0x0100\n      exp\n      dup2\n      sload\n      dup2\n      0xffffffffffffffffffffffffffffffffffffffff\n      mul\n      not\n      and\n      swap1\n      dup4\n      0xffffffffffffffffffffffffffffffffffffffff\n      and\n      mul\n      or\n      swap1\n      sstore\n      pop\n        /* \"@aave/core-v3/contracts/dependencies/openzeppelin/contracts/Ownable.sol\":1875:2101  function transferOwnership(address newOwner) public virtual onlyOwner {... */\n      pop\n      jump\t// out\n        /* \"contracts/treasury/AaveEcosystemReserveController.sol\":1453:1840  function createStream(... */\n    tag_43:\n        /* \"contracts/treasury/AaveEcosystemReserveController.sol\":1651:1658  uint256 */\n      0x00\n        /* \"@aave/core-v3/contracts/dependencies/openzeppelin/contracts/Ownable.sol\":1214:1226  _msgSender() */\n      tag_102\n        /* \"@aave/core-v3/contracts/dependencies/openzeppelin/contracts/Ownable.sol\":1214:1224  _msgSender */\n      tag_48\n        /* \"@aave/core-v3/contracts/dependencies/openzeppelin/contracts/Ownable.sol\":1214:1226  _msgSender() */\n      jump\t// in\n    tag_102:\n        /* \"@aave/core-v3/contracts/dependencies/openzeppelin/contracts/Ownable.sol\":1204:1226  _owner == _msgSender() */\n      0xffffffffffffffffffffffffffffffffffffffff\n      and\n        /* \"@aave/core-v3/contracts/dependencies/openzeppelin/contracts/Ownable.sol\":1204:1210  _owner */\n      0x00\n      dup1\n      sload\n      swap1\n      0x0100\n      exp\n      swap1\n      div\n      0xffffffffffffffffffffffffffffffffffffffff\n      and\n        /* \"@aave/core-v3/contracts/dependencies/openzeppelin/contracts/Ownable.sol\":1204:1226  _owner == _msgSender() */\n      0xffffffffffffffffffffffffffffffffffffffff\n      and\n      eq\n        /* \"@aave/core-v3/contracts/dependencies/openzeppelin/contracts/Ownable.sol\":1196:1263  require(_owner == _msgSender(), 'Ownable: caller is not the owner') */\n      tag_103\n      jumpi\n      mload(0x40)\n      0x08c379a000000000000000000000000000000000000000000000000000000000\n      dup2\n      mstore\n      0x04\n      add\n      tag_104\n      swap1\n      tag_51\n      jump\t// in\n    tag_104:\n      mload(0x40)\n      dup1\n      swap2\n      sub\n      swap1\n      revert\n    tag_103:\n        /* \"contracts/treasury/AaveEcosystemReserveController.sol\":1693:1702  collector */\n      dup7\n        /* \"contracts/treasury/AaveEcosystemReserveController.sol\":1681:1716  IStreamable(collector).createStream */\n      0xffffffffffffffffffffffffffffffffffffffff\n      and\n      0xcc1b4bf6\n        /* \"contracts/treasury/AaveEcosystemReserveController.sol\":1727:1736  recipient */\n      dup8\n        /* \"contracts/treasury/AaveEcosystemReserveController.sol\":1747:1754  deposit */\n      dup8\n        /* \"contracts/treasury/AaveEcosystemReserveController.sol\":1773:1785  tokenAddress */\n      dup8\n        /* \"contracts/treasury/AaveEcosystemReserveController.sol\":1797:1806  startTime */\n      dup8\n        /* \"contracts/treasury/AaveEcosystemReserveController.sol\":1817:1825  stopTime */\n      dup8\n        /* \"contracts/treasury/AaveEcosystemReserveController.sol\":1681:1834  IStreamable(collector).createStream(... */\n      mload(0x40)\n      dup7\n      0xffffffff\n      and\n      0xe0\n      shl\n      dup2\n      mstore\n      0x04\n      add\n      tag_106\n      swap6\n      swap5\n      swap4\n      swap3\n      swap2\n      swap1\n      tag_107\n      jump\t// in\n    tag_106:\n      0x20\n      mload(0x40)\n      dup1\n      dup4\n      sub\n      dup2\n      0x00\n      dup8\n      gas\n      call\n      iszero\n      dup1\n      iszero\n      tag_109\n      jumpi\n      returndatasize\n      0x00\n      dup1\n      returndatacopy\n      revert(0x00, returndatasize)\n    tag_109:\n      pop\n      pop\n      pop\n      pop\n      mload(0x40)\n      returndatasize\n      not(0x1f)\n      0x1f\n      dup3\n      add\n      and\n      dup3\n      add\n      dup1\n      0x40\n      mstore\n      pop\n      dup2\n      add\n      swap1\n      tag_110\n      swap2\n      swap1\n      tag_111\n      jump\t// in\n    tag_110:\n        /* \"contracts/treasury/AaveEcosystemReserveController.sol\":1667:1834  return... */\n      swap1\n      pop\n        /* \"contracts/treasury/AaveEcosystemReserveController.sol\":1453:1840  function createStream(... */\n      swap7\n      swap6\n      pop\n      pop\n      pop\n      pop\n      pop\n      pop\n      jump\t// out\n        /* \"@aave/core-v3/contracts/dependencies/openzeppelin/contracts/Context.sol\":587:694  function _msgSender() internal view virtual returns (address payable) {... */\n    tag_48:\n        /* \"@aave/core-v3/contracts/dependencies/openzeppelin/contracts/Context.sol\":640:655  address payable */\n      0x00\n        /* \"@aave/core-v3/contracts/dependencies/openzeppelin/contracts/Context.sol\":678:688  msg.sender */\n      caller\n        /* \"@aave/core-v3/contracts/dependencies/openzeppelin/contracts/Context.sol\":663:689  return payable(msg.sender) */\n      swap1\n      pop\n        /* \"@aave/core-v3/contracts/dependencies/openzeppelin/contracts/Context.sol\":587:694  function _msgSender() internal view virtual returns (address payable) {... */\n      swap1\n      jump\t// out\n        /* \"#utility.yul\":88:205   */\n    tag_114:\n        /* \"#utility.yul\":197:198   */\n      0x00\n        /* \"#utility.yul\":194:195   */\n      dup1\n        /* \"#utility.yul\":187:199   */\n      revert\n        /* \"#utility.yul\":334:460   */\n    tag_116:\n        /* \"#utility.yul\":371:378   */\n      0x00\n        /* \"#utility.yul\":411:453   */\n      0xffffffffffffffffffffffffffffffffffffffff\n        /* \"#utility.yul\":404:409   */\n      dup3\n        /* \"#utility.yul\":400:454   */\n      and\n        /* \"#utility.yul\":389:454   */\n      swap1\n      pop\n        /* \"#utility.yul\":334:460   */\n      swap2\n      swap1\n      pop\n      jump\t// out\n        /* \"#utility.yul\":466:562   */\n    tag_117:\n        /* \"#utility.yul\":503:510   */\n      0x00\n        /* \"#utility.yul\":532:556   */\n      tag_149\n        /* \"#utility.yul\":550:555   */\n      dup3\n        /* \"#utility.yul\":532:556   */\n      tag_116\n      jump\t// in\n    tag_149:\n        /* \"#utility.yul\":521:556   */\n      swap1\n      pop\n        /* \"#utility.yul\":466:562   */\n      swap2\n      swap1\n      pop\n      jump\t// out\n        /* \"#utility.yul\":568:690   */\n    tag_118:\n        /* \"#utility.yul\":641:665   */\n      tag_151\n        /* \"#utility.yul\":659:664   */\n      dup2\n        /* \"#utility.yul\":641:665   */\n      tag_117\n      jump\t// in\n    tag_151:\n        /* \"#utility.yul\":634:639   */\n      dup2\n        /* \"#utility.yul\":631:666   */\n      eq\n        /* \"#utility.yul\":621:684   */\n      tag_152\n      jumpi\n        /* \"#utility.yul\":680:681   */\n      0x00\n        /* \"#utility.yul\":677:678   */\n      dup1\n        /* \"#utility.yul\":670:682   */\n      revert\n        /* \"#utility.yul\":621:684   */\n    tag_152:\n        /* \"#utility.yul\":568:690   */\n      pop\n      jump\t// out\n        /* \"#utility.yul\":696:835   */\n    tag_119:\n        /* \"#utility.yul\":742:747   */\n      0x00\n        /* \"#utility.yul\":780:786   */\n      dup2\n        /* \"#utility.yul\":767:787   */\n      calldataload\n        /* \"#utility.yul\":758:787   */\n      swap1\n      pop\n        /* \"#utility.yul\":796:829   */\n      tag_154\n        /* \"#utility.yul\":823:828   */\n      dup2\n        /* \"#utility.yul\":796:829   */\n      tag_118\n      jump\t// in\n    tag_154:\n        /* \"#utility.yul\":696:835   */\n      swap3\n      swap2\n      pop\n      pop\n      jump\t// out\n        /* \"#utility.yul\":841:918   */\n    tag_120:\n        /* \"#utility.yul\":878:885   */\n      0x00\n        /* \"#utility.yul\":907:912   */\n      dup2\n        /* \"#utility.yul\":896:912   */\n      swap1\n      pop\n        /* \"#utility.yul\":841:918   */\n      swap2\n      swap1\n      pop\n      jump\t// out\n        /* \"#utility.yul\":924:1046   */\n    tag_121:\n        /* \"#utility.yul\":997:1021   */\n      tag_157\n        /* \"#utility.yul\":1015:1020   */\n      dup2\n        /* \"#utility.yul\":997:1021   */\n      tag_120\n      jump\t// in\n    tag_157:\n        /* \"#utility.yul\":990:995   */\n      dup2\n        /* \"#utility.yul\":987:1022   */\n      eq\n        /* \"#utility.yul\":977:1040   */\n      tag_158\n      jumpi\n        /* \"#utility.yul\":1036:1037   */\n      0x00\n        /* \"#utility.yul\":1033:1034   */\n      dup1\n        /* \"#utility.yul\":1026:1038   */\n      revert\n        /* \"#utility.yul\":977:1040   */\n    tag_158:\n        /* \"#utility.yul\":924:1046   */\n      pop\n      jump\t// out\n        /* \"#utility.yul\":1052:1191   */\n    tag_122:\n        /* \"#utility.yul\":1098:1103   */\n      0x00\n        /* \"#utility.yul\":1136:1142   */\n      dup2\n        /* \"#utility.yul\":1123:1143   */\n      calldataload\n        /* \"#utility.yul\":1114:1143   */\n      swap1\n      pop\n        /* \"#utility.yul\":1152:1185   */\n      tag_160\n        /* \"#utility.yul\":1179:1184   */\n      dup2\n        /* \"#utility.yul\":1152:1185   */\n      tag_121\n      jump\t// in\n    tag_160:\n        /* \"#utility.yul\":1052:1191   */\n      swap3\n      swap2\n      pop\n      pop\n      jump\t// out\n        /* \"#utility.yul\":1197:1816   */\n    tag_14:\n        /* \"#utility.yul\":1274:1280   */\n      0x00\n        /* \"#utility.yul\":1282:1288   */\n      dup1\n        /* \"#utility.yul\":1290:1296   */\n      0x00\n        /* \"#utility.yul\":1339:1341   */\n      0x60\n        /* \"#utility.yul\":1327:1336   */\n      dup5\n        /* \"#utility.yul\":1318:1325   */\n      dup7\n        /* \"#utility.yul\":1314:1337   */\n      sub\n        /* \"#utility.yul\":1310:1342   */\n      slt\n        /* \"#utility.yul\":1307:1426   */\n      iszero\n      tag_162\n      jumpi\n        /* \"#utility.yul\":1345:1424   */\n      tag_163\n      tag_114\n      jump\t// in\n    tag_163:\n        /* \"#utility.yul\":1307:1426   */\n    tag_162:\n        /* \"#utility.yul\":1465:1466   */\n      0x00\n        /* \"#utility.yul\":1490:1543   */\n      tag_164\n        /* \"#utility.yul\":1535:1542   */\n      dup7\n        /* \"#utility.yul\":1526:1532   */\n      dup3\n        /* \"#utility.yul\":1515:1524   */\n      dup8\n        /* \"#utility.yul\":1511:1533   */\n      add\n        /* \"#utility.yul\":1490:1543   */\n      tag_119\n      jump\t// in\n    tag_164:\n        /* \"#utility.yul\":1480:1543   */\n      swap4\n      pop\n        /* \"#utility.yul\":1436:1553   */\n      pop\n        /* \"#utility.yul\":1592:1594   */\n      0x20\n        /* \"#utility.yul\":1618:1671   */\n      tag_165\n        /* \"#utility.yul\":1663:1670   */\n      dup7\n        /* \"#utility.yul\":1654:1660   */\n      dup3\n        /* \"#utility.yul\":1643:1652   */\n      dup8\n        /* \"#utility.yul\":1639:1661   */\n      add\n        /* \"#utility.yul\":1618:1671   */\n      tag_122\n      jump\t// in\n    tag_165:\n        /* \"#utility.yul\":1608:1671   */\n      swap3\n      pop\n        /* \"#utility.yul\":1563:1681   */\n      pop\n        /* \"#utility.yul\":1720:1722   */\n      0x40\n        /* \"#utility.yul\":1746:1799   */\n      tag_166\n        /* \"#utility.yul\":1791:1798   */\n      dup7\n        /* \"#utility.yul\":1782:1788   */\n      dup3\n        /* \"#utility.yul\":1771:1780   */\n      dup8\n        /* \"#utility.yul\":1767:1789   */\n      add\n        /* \"#utility.yul\":1746:1799   */\n      tag_122\n      jump\t// in\n    tag_166:\n        /* \"#utility.yul\":1736:1799   */\n      swap2\n      pop\n        /* \"#utility.yul\":1691:1809   */\n      pop\n        /* \"#utility.yul\":1197:1816   */\n      swap3\n      pop\n      swap3\n      pop\n      swap3\n      jump\t// out\n        /* \"#utility.yul\":1822:1912   */\n    tag_123:\n        /* \"#utility.yul\":1856:1863   */\n      0x00\n        /* \"#utility.yul\":1899:1904   */\n      dup2\n        /* \"#utility.yul\":1892:1905   */\n      iszero\n        /* \"#utility.yul\":1885:1906   */\n      iszero\n        /* \"#utility.yul\":1874:1906   */\n      swap1\n      pop\n        /* \"#utility.yul\":1822:1912   */\n      swap2\n      swap1\n      pop\n      jump\t// out\n        /* \"#utility.yul\":1918:2027   */\n    tag_124:\n        /* \"#utility.yul\":1999:2020   */\n      tag_169\n        /* \"#utility.yul\":2014:2019   */\n      dup2\n        /* \"#utility.yul\":1999:2020   */\n      tag_123\n      jump\t// in\n    tag_169:\n        /* \"#utility.yul\":1994:1997   */\n      dup3\n        /* \"#utility.yul\":1987:2021   */\n      mstore\n        /* \"#utility.yul\":1918:2027   */\n      pop\n      pop\n      jump\t// out\n        /* \"#utility.yul\":2033:2243   */\n    tag_17:\n        /* \"#utility.yul\":2120:2124   */\n      0x00\n        /* \"#utility.yul\":2158:2160   */\n      0x20\n        /* \"#utility.yul\":2147:2156   */\n      dup3\n        /* \"#utility.yul\":2143:2161   */\n      add\n        /* \"#utility.yul\":2135:2161   */\n      swap1\n      pop\n        /* \"#utility.yul\":2171:2236   */\n      tag_171\n        /* \"#utility.yul\":2233:2234   */\n      0x00\n        /* \"#utility.yul\":2222:2231   */\n      dup4\n        /* \"#utility.yul\":2218:2235   */\n      add\n        /* \"#utility.yul\":2209:2215   */\n      dup5\n        /* \"#utility.yul\":2171:2236   */\n      tag_124\n      jump\t// in\n    tag_171:\n        /* \"#utility.yul\":2033:2243   */\n      swap3\n      swap2\n      pop\n      pop\n      jump\t// out\n        /* \"#utility.yul\":2249:2359   */\n    tag_125:\n        /* \"#utility.yul\":2300:2307   */\n      0x00\n        /* \"#utility.yul\":2329:2353   */\n      tag_173\n        /* \"#utility.yul\":2347:2352   */\n      dup3\n        /* \"#utility.yul\":2329:2353   */\n      tag_117\n      jump\t// in\n    tag_173:\n        /* \"#utility.yul\":2318:2353   */\n      swap1\n      pop\n        /* \"#utility.yul\":2249:2359   */\n      swap2\n      swap1\n      pop\n      jump\t// out\n        /* \"#utility.yul\":2365:2515   */\n    tag_126:\n        /* \"#utility.yul\":2452:2490   */\n      tag_175\n        /* \"#utility.yul\":2484:2489   */\n      dup2\n        /* \"#utility.yul\":2452:2490   */\n      tag_125\n      jump\t// in\n    tag_175:\n        /* \"#utility.yul\":2445:2450   */\n      dup2\n        /* \"#utility.yul\":2442:2491   */\n      eq\n        /* \"#utility.yul\":2432:2509   */\n      tag_176\n      jumpi\n        /* \"#utility.yul\":2505:2506   */\n      0x00\n        /* \"#utility.yul\":2502:2503   */\n      dup1\n        /* \"#utility.yul\":2495:2507   */\n      revert\n        /* \"#utility.yul\":2432:2509   */\n    tag_176:\n        /* \"#utility.yul\":2365:2515   */\n      pop\n      jump\t// out\n        /* \"#utility.yul\":2521:2688   */\n    tag_127:\n        /* \"#utility.yul\":2581:2586   */\n      0x00\n        /* \"#utility.yul\":2619:2625   */\n      dup2\n        /* \"#utility.yul\":2606:2626   */\n      calldataload\n        /* \"#utility.yul\":2597:2626   */\n      swap1\n      pop\n        /* \"#utility.yul\":2635:2682   */\n      tag_178\n        /* \"#utility.yul\":2676:2681   */\n      dup2\n        /* \"#utility.yul\":2635:2682   */\n      tag_126\n      jump\t// in\n    tag_178:\n        /* \"#utility.yul\":2521:2688   */\n      swap3\n      swap2\n      pop\n      pop\n      jump\t// out\n        /* \"#utility.yul\":2694:3487   */\n    tag_20:\n        /* \"#utility.yul\":2794:2800   */\n      0x00\n        /* \"#utility.yul\":2802:2808   */\n      dup1\n        /* \"#utility.yul\":2810:2816   */\n      0x00\n        /* \"#utility.yul\":2818:2824   */\n      dup1\n        /* \"#utility.yul\":2867:2870   */\n      0x80\n        /* \"#utility.yul\":2855:2864   */\n      dup6\n        /* \"#utility.yul\":2846:2853   */\n      dup8\n        /* \"#utility.yul\":2842:2865   */\n      sub\n        /* \"#utility.yul\":2838:2871   */\n      slt\n        /* \"#utility.yul\":2835:2955   */\n      iszero\n      tag_180\n      jumpi\n        /* \"#utility.yul\":2874:2953   */\n      tag_181\n      tag_114\n      jump\t// in\n    tag_181:\n        /* \"#utility.yul\":2835:2955   */\n    tag_180:\n        /* \"#utility.yul\":2994:2995   */\n      0x00\n        /* \"#utility.yul\":3019:3072   */\n      tag_182\n        /* \"#utility.yul\":3064:3071   */\n      dup8\n        /* \"#utility.yul\":3055:3061   */\n      dup3\n        /* \"#utility.yul\":3044:3053   */\n      dup9\n        /* \"#utility.yul\":3040:3062   */\n      add\n        /* \"#utility.yul\":3019:3072   */\n      tag_119\n      jump\t// in\n    tag_182:\n        /* \"#utility.yul\":3009:3072   */\n      swap5\n      pop\n        /* \"#utility.yul\":2965:3082   */\n      pop\n        /* \"#utility.yul\":3121:3123   */\n      0x20\n        /* \"#utility.yul\":3147:3214   */\n      tag_183\n        /* \"#utility.yul\":3206:3213   */\n      dup8\n        /* \"#utility.yul\":3197:3203   */\n      dup3\n        /* \"#utility.yul\":3186:3195   */\n      dup9\n        /* \"#utility.yul\":3182:3204   */\n      add\n        /* \"#utility.yul\":3147:3214   */\n      tag_127\n      jump\t// in\n    tag_183:\n        /* \"#utility.yul\":3137:3214   */\n      swap4\n      pop\n        /* \"#utility.yul\":3092:3224   */\n      pop\n        /* \"#utility.yul\":3263:3265   */\n      0x40\n        /* \"#utility.yul\":3289:3342   */\n      tag_184\n        /* \"#utility.yul\":3334:3341   */\n      dup8\n        /* \"#utility.yul\":3325:3331   */\n      dup3\n        /* \"#utility.yul\":3314:3323   */\n      dup9\n        /* \"#utility.yul\":3310:3332   */\n      add\n        /* \"#utility.yul\":3289:3342   */\n      tag_119\n      jump\t// in\n    tag_184:\n        /* \"#utility.yul\":3279:3342   */\n      swap3\n      pop\n        /* \"#utility.yul\":3234:3352   */\n      pop\n        /* \"#utility.yul\":3391:3393   */\n      0x60\n        /* \"#utility.yul\":3417:3470   */\n      tag_185\n        /* \"#utility.yul\":3462:3469   */\n      dup8\n        /* \"#utility.yul\":3453:3459   */\n      dup3\n        /* \"#utility.yul\":3442:3451   */\n      dup9\n        /* \"#utility.yul\":3438:3460   */\n      add\n        /* \"#utility.yul\":3417:3470   */\n      tag_122\n      jump\t// in\n    tag_185:\n        /* \"#utility.yul\":3407:3470   */\n      swap2\n      pop\n        /* \"#utility.yul\":3362:3480   */\n      pop\n        /* \"#utility.yul\":2694:3487   */\n      swap3\n      swap6\n      swap2\n      swap5\n      pop\n      swap3\n      pop\n      jump\t// out\n        /* \"#utility.yul\":3493:3967   */\n    tag_26:\n        /* \"#utility.yul\":3561:3567   */\n      0x00\n        /* \"#utility.yul\":3569:3575   */\n      dup1\n        /* \"#utility.yul\":3618:3620   */\n      0x40\n        /* \"#utility.yul\":3606:3615   */\n      dup4\n        /* \"#utility.yul\":3597:3604   */\n      dup6\n        /* \"#utility.yul\":3593:3616   */\n      sub\n        /* \"#utility.yul\":3589:3621   */\n      slt\n        /* \"#utility.yul\":3586:3705   */\n      iszero\n      tag_187\n      jumpi\n        /* \"#utility.yul\":3624:3703   */\n      tag_188\n      tag_114\n      jump\t// in\n    tag_188:\n        /* \"#utility.yul\":3586:3705   */\n    tag_187:\n        /* \"#utility.yul\":3744:3745   */\n      0x00\n        /* \"#utility.yul\":3769:3822   */\n      tag_189\n        /* \"#utility.yul\":3814:3821   */\n      dup6\n        /* \"#utility.yul\":3805:3811   */\n      dup3\n        /* \"#utility.yul\":3794:3803   */\n      dup7\n        /* \"#utility.yul\":3790:3812   */\n      add\n        /* \"#utility.yul\":3769:3822   */\n      tag_119\n      jump\t// in\n    tag_189:\n        /* \"#utility.yul\":3759:3822   */\n      swap3\n      pop\n        /* \"#utility.yul\":3715:3832   */\n      pop\n        /* \"#utility.yul\":3871:3873   */\n      0x20\n        /* \"#utility.yul\":3897:3950   */\n      tag_190\n        /* \"#utility.yul\":3942:3949   */\n      dup6\n        /* \"#utility.yul\":3933:3939   */\n      dup3\n        /* \"#utility.yul\":3922:3931   */\n      dup7\n        /* \"#utility.yul\":3918:3940   */\n      add\n        /* \"#utility.yul\":3897:3950   */\n      tag_122\n      jump\t// in\n    tag_190:\n        /* \"#utility.yul\":3887:3950   */\n      swap2\n      pop\n        /* \"#utility.yul\":3842:3960   */\n      pop\n        /* \"#utility.yul\":3493:3967   */\n      swap3\n      pop\n      swap3\n      swap1\n      pop\n      jump\t// out\n        /* \"#utility.yul\":3973:4091   */\n    tag_128:\n        /* \"#utility.yul\":4060:4084   */\n      tag_192\n        /* \"#utility.yul\":4078:4083   */\n      dup2\n        /* \"#utility.yul\":4060:4084   */\n      tag_117\n      jump\t// in\n    tag_192:\n        /* \"#utility.yul\":4055:4058   */\n      dup3\n        /* \"#utility.yul\":4048:4085   */\n      mstore\n        /* \"#utility.yul\":3973:4091   */\n      pop\n      pop\n      jump\t// out\n        /* \"#utility.yul\":4097:4319   */\n    tag_32:\n        /* \"#utility.yul\":4190:4194   */\n      0x00\n        /* \"#utility.yul\":4228:4230   */\n      0x20\n        /* \"#utility.yul\":4217:4226   */\n      dup3\n        /* \"#utility.yul\":4213:4231   */\n      add\n        /* \"#utility.yul\":4205:4231   */\n      swap1\n      pop\n        /* \"#utility.yul\":4241:4312   */\n      tag_194\n        /* \"#utility.yul\":4309:4310   */\n      0x00\n        /* \"#utility.yul\":4298:4307   */\n      dup4\n        /* \"#utility.yul\":4294:4311   */\n      add\n        /* \"#utility.yul\":4285:4291   */\n      dup5\n        /* \"#utility.yul\":4241:4312   */\n      tag_128\n      jump\t// in\n    tag_194:\n        /* \"#utility.yul\":4097:4319   */\n      swap3\n      swap2\n      pop\n      pop\n      jump\t// out\n        /* \"#utility.yul\":4325:4654   */\n    tag_38:\n        /* \"#utility.yul\":4384:4390   */\n      0x00\n        /* \"#utility.yul\":4433:4435   */\n      0x20\n        /* \"#utility.yul\":4421:4430   */\n      dup3\n        /* \"#utility.yul\":4412:4419   */\n      dup5\n        /* \"#utility.yul\":4408:4431   */\n      sub\n        /* \"#utility.yul\":4404:4436   */\n      slt\n        /* \"#utility.yul\":4401:4520   */\n      iszero\n      tag_196\n      jumpi\n        /* \"#utility.yul\":4439:4518   */\n      tag_197\n      tag_114\n      jump\t// in\n    tag_197:\n        /* \"#utility.yul\":4401:4520   */\n    tag_196:\n        /* \"#utility.yul\":4559:4560   */\n      0x00\n        /* \"#utility.yul\":4584:4637   */\n      tag_198\n        /* \"#utility.yul\":4629:4636   */\n      dup5\n        /* \"#utility.yul\":4620:4626   */\n      dup3\n        /* \"#utility.yul\":4609:4618   */\n      dup6\n        /* \"#utility.yul\":4605:4627   */\n      add\n        /* \"#utility.yul\":4584:4637   */\n      tag_119\n      jump\t// in\n    tag_198:\n        /* \"#utility.yul\":4574:4637   */\n      swap2\n      pop\n        /* \"#utility.yul\":4530:4647   */\n      pop\n        /* \"#utility.yul\":4325:4654   */\n      swap3\n      swap2\n      pop\n      pop\n      jump\t// out\n        /* \"#utility.yul\":4660:5745   */\n    tag_42:\n        /* \"#utility.yul\":4778:4784   */\n      0x00\n        /* \"#utility.yul\":4786:4792   */\n      dup1\n        /* \"#utility.yul\":4794:4800   */\n      0x00\n        /* \"#utility.yul\":4802:4808   */\n      dup1\n        /* \"#utility.yul\":4810:4816   */\n      0x00\n        /* \"#utility.yul\":4818:4824   */\n      dup1\n        /* \"#utility.yul\":4867:4870   */\n      0xc0\n        /* \"#utility.yul\":4855:4864   */\n      dup8\n        /* \"#utility.yul\":4846:4853   */\n      dup10\n        /* \"#utility.yul\":4842:4865   */\n      sub\n        /* \"#utility.yul\":4838:4871   */\n      slt\n        /* \"#utility.yul\":4835:4955   */\n      iszero\n      tag_200\n      jumpi\n        /* \"#utility.yul\":4874:4953   */\n      tag_201\n      tag_114\n      jump\t// in\n    tag_201:\n        /* \"#utility.yul\":4835:4955   */\n    tag_200:\n        /* \"#utility.yul\":4994:4995   */\n      0x00\n        /* \"#utility.yul\":5019:5072   */\n      tag_202\n        /* \"#utility.yul\":5064:5071   */\n      dup10\n        /* \"#utility.yul\":5055:5061   */\n      dup3\n        /* \"#utility.yul\":5044:5053   */\n      dup11\n        /* \"#utility.yul\":5040:5062   */\n      add\n        /* \"#utility.yul\":5019:5072   */\n      tag_119\n      jump\t// in\n    tag_202:\n        /* \"#utility.yul\":5009:5072   */\n      swap7\n      pop\n        /* \"#utility.yul\":4965:5082   */\n      pop\n        /* \"#utility.yul\":5121:5123   */\n      0x20\n        /* \"#utility.yul\":5147:5200   */\n      tag_203\n        /* \"#utility.yul\":5192:5199   */\n      dup10\n        /* \"#utility.yul\":5183:5189   */\n      dup3\n        /* \"#utility.yul\":5172:5181   */\n      dup11\n        /* \"#utility.yul\":5168:5190   */\n      add\n        /* \"#utility.yul\":5147:5200   */\n      tag_119\n      jump\t// in\n    tag_203:\n        /* \"#utility.yul\":5137:5200   */\n      swap6\n      pop\n        /* \"#utility.yul\":5092:5210   */\n      pop\n        /* \"#utility.yul\":5249:5251   */\n      0x40\n        /* \"#utility.yul\":5275:5328   */\n      tag_204\n        /* \"#utility.yul\":5320:5327   */\n      dup10\n        /* \"#utility.yul\":5311:5317   */\n      dup3\n        /* \"#utility.yul\":5300:5309   */\n      dup11\n        /* \"#utility.yul\":5296:5318   */\n      add\n        /* \"#utility.yul\":5275:5328   */\n      tag_122\n      jump\t// in\n    tag_204:\n        /* \"#utility.yul\":5265:5328   */\n      swap5\n      pop\n        /* \"#utility.yul\":5220:5338   */\n      pop\n        /* \"#utility.yul\":5377:5379   */\n      0x60\n        /* \"#utility.yul\":5403:5470   */\n      tag_205\n        /* \"#utility.yul\":5462:5469   */\n      dup10\n        /* \"#utility.yul\":5453:5459   */\n      dup3\n        /* \"#utility.yul\":5442:5451   */\n      dup11\n        /* \"#utility.yul\":5438:5460   */\n      add\n        /* \"#utility.yul\":5403:5470   */\n      tag_127\n      jump\t// in\n    tag_205:\n        /* \"#utility.yul\":5393:5470   */\n      swap4\n      pop\n        /* \"#utility.yul\":5348:5480   */\n      pop\n        /* \"#utility.yul\":5519:5522   */\n      0x80\n        /* \"#utility.yul\":5546:5599   */\n      tag_206\n        /* \"#utility.yul\":5591:5598   */\n      dup10\n        /* \"#utility.yul\":5582:5588   */\n      dup3\n        /* \"#utility.yul\":5571:5580   */\n      dup11\n        /* \"#utility.yul\":5567:5589   */\n      add\n        /* \"#utility.yul\":5546:5599   */\n      tag_122\n      jump\t// in\n    tag_206:\n        /* \"#utility.yul\":5536:5599   */\n      swap3\n      pop\n        /* \"#utility.yul\":5490:5609   */\n      pop\n        /* \"#utility.yul\":5648:5651   */\n      0xa0\n        /* \"#utility.yul\":5675:5728   */\n      tag_207\n        /* \"#utility.yul\":5720:5727   */\n      dup10\n        /* \"#utility.yul\":5711:5717   */\n      dup3\n        /* \"#utility.yul\":5700:5709   */\n      dup11\n        /* \"#utility.yul\":5696:5718   */\n      add\n        /* \"#utility.yul\":5675:5728   */\n      tag_122\n      jump\t// in\n    tag_207:\n        /* \"#utility.yul\":5665:5728   */\n      swap2\n      pop\n        /* \"#utility.yul\":5619:5738   */\n      pop\n        /* \"#utility.yul\":4660:5745   */\n      swap3\n      swap6\n      pop\n      swap3\n      swap6\n      pop\n      swap3\n      swap6\n      jump\t// out\n        /* \"#utility.yul\":5751:5869   */\n    tag_129:\n        /* \"#utility.yul\":5838:5862   */\n      tag_209\n        /* \"#utility.yul\":5856:5861   */\n      dup2\n        /* \"#utility.yul\":5838:5862   */\n      tag_120\n      jump\t// in\n    tag_209:\n        /* \"#utility.yul\":5833:5836   */\n      dup3\n        /* \"#utility.yul\":5826:5863   */\n      mstore\n        /* \"#utility.yul\":5751:5869   */\n      pop\n      pop\n      jump\t// out\n        /* \"#utility.yul\":5875:6097   */\n    tag_45:\n        /* \"#utility.yul\":5968:5972   */\n      0x00\n        /* \"#utility.yul\":6006:6008   */\n      0x20\n        /* \"#utility.yul\":5995:6004   */\n      dup3\n        /* \"#utility.yul\":5991:6009   */\n      add\n        /* \"#utility.yul\":5983:6009   */\n      swap1\n      pop\n        /* \"#utility.yul\":6019:6090   */\n      tag_211\n        /* \"#utility.yul\":6087:6088   */\n      0x00\n        /* \"#utility.yul\":6076:6085   */\n      dup4\n        /* \"#utility.yul\":6072:6089   */\n      add\n        /* \"#utility.yul\":6063:6069   */\n      dup5\n        /* \"#utility.yul\":6019:6090   */\n      tag_129\n      jump\t// in\n    tag_211:\n        /* \"#utility.yul\":5875:6097   */\n      swap3\n      swap2\n      pop\n      pop\n      jump\t// out\n        /* \"#utility.yul\":6103:6272   */\n    tag_130:\n        /* \"#utility.yul\":6187:6198   */\n      0x00\n        /* \"#utility.yul\":6221:6227   */\n      dup3\n        /* \"#utility.yul\":6216:6219   */\n      dup3\n        /* \"#utility.yul\":6209:6228   */\n      mstore\n        /* \"#utility.yul\":6261:6265   */\n      0x20\n        /* \"#utility.yul\":6256:6259   */\n      dup3\n        /* \"#utility.yul\":6252:6266   */\n      add\n        /* \"#utility.yul\":6237:6266   */\n      swap1\n      pop\n        /* \"#utility.yul\":6103:6272   */\n      swap3\n      swap2\n      pop\n      pop\n      jump\t// out\n        /* \"#utility.yul\":6278:6460   */\n    tag_131:\n        /* \"#utility.yul\":6418:6452   */\n      0x4f776e61626c653a2063616c6c6572206973206e6f7420746865206f776e6572\n        /* \"#utility.yul\":6414:6415   */\n      0x00\n        /* \"#utility.yul\":6406:6412   */\n      dup3\n        /* \"#utility.yul\":6402:6416   */\n      add\n        /* \"#utility.yul\":6395:6453   */\n      mstore\n        /* \"#utility.yul\":6278:6460   */\n      pop\n      jump\t// out\n        /* \"#utility.yul\":6466:6832   */\n    tag_132:\n        /* \"#utility.yul\":6608:6611   */\n      0x00\n        /* \"#utility.yul\":6629:6696   */\n      tag_215\n        /* \"#utility.yul\":6693:6695   */\n      0x20\n        /* \"#utility.yul\":6688:6691   */\n      dup4\n        /* \"#utility.yul\":6629:6696   */\n      tag_130\n      jump\t// in\n    tag_215:\n        /* \"#utility.yul\":6622:6696   */\n      swap2\n      pop\n        /* \"#utility.yul\":6705:6798   */\n      tag_216\n        /* \"#utility.yul\":6794:6797   */\n      dup3\n        /* \"#utility.yul\":6705:6798   */\n      tag_131\n      jump\t// in\n    tag_216:\n        /* \"#utility.yul\":6823:6825   */\n      0x20\n        /* \"#utility.yul\":6818:6821   */\n      dup3\n        /* \"#utility.yul\":6814:6826   */\n      add\n        /* \"#utility.yul\":6807:6826   */\n      swap1\n      pop\n        /* \"#utility.yul\":6466:6832   */\n      swap2\n      swap1\n      pop\n      jump\t// out\n        /* \"#utility.yul\":6838:7257   */\n    tag_51:\n        /* \"#utility.yul\":7004:7008   */\n      0x00\n        /* \"#utility.yul\":7042:7044   */\n      0x20\n        /* \"#utility.yul\":7031:7040   */\n      dup3\n        /* \"#utility.yul\":7027:7045   */\n      add\n        /* \"#utility.yul\":7019:7045   */\n      swap1\n      pop\n        /* \"#utility.yul\":7091:7100   */\n      dup2\n        /* \"#utility.yul\":7085:7089   */\n      dup2\n        /* \"#utility.yul\":7081:7101   */\n      sub\n        /* \"#utility.yul\":7077:7078   */\n      0x00\n        /* \"#utility.yul\":7066:7075   */\n      dup4\n        /* \"#utility.yul\":7062:7079   */\n      add\n        /* \"#utility.yul\":7055:7102   */\n      mstore\n        /* \"#utility.yul\":7119:7250   */\n      tag_218\n        /* \"#utility.yul\":7245:7249   */\n      dup2\n        /* \"#utility.yul\":7119:7250   */\n      tag_132\n      jump\t// in\n    tag_218:\n        /* \"#utility.yul\":7111:7250   */\n      swap1\n      pop\n        /* \"#utility.yul\":6838:7257   */\n      swap2\n      swap1\n      pop\n      jump\t// out\n        /* \"#utility.yul\":7263:7595   */\n    tag_54:\n        /* \"#utility.yul\":7384:7388   */\n      0x00\n        /* \"#utility.yul\":7422:7424   */\n      0x40\n        /* \"#utility.yul\":7411:7420   */\n      dup3\n        /* \"#utility.yul\":7407:7425   */\n      add\n        /* \"#utility.yul\":7399:7425   */\n      swap1\n      pop\n        /* \"#utility.yul\":7435:7506   */\n      tag_220\n        /* \"#utility.yul\":7503:7504   */\n      0x00\n        /* \"#utility.yul\":7492:7501   */\n      dup4\n        /* \"#utility.yul\":7488:7505   */\n      add\n        /* \"#utility.yul\":7479:7485   */\n      dup6\n        /* \"#utility.yul\":7435:7506   */\n      tag_129\n      jump\t// in\n    tag_220:\n        /* \"#utility.yul\":7516:7588   */\n      tag_221\n        /* \"#utility.yul\":7584:7586   */\n      0x20\n        /* \"#utility.yul\":7573:7582   */\n      dup4\n        /* \"#utility.yul\":7569:7587   */\n      add\n        /* \"#utility.yul\":7560:7566   */\n      dup5\n        /* \"#utility.yul\":7516:7588   */\n      tag_129\n      jump\t// in\n    tag_221:\n        /* \"#utility.yul\":7263:7595   */\n      swap4\n      swap3\n      pop\n      pop\n      pop\n      jump\t// out\n        /* \"#utility.yul\":7601:7717   */\n    tag_133:\n        /* \"#utility.yul\":7671:7692   */\n      tag_223\n        /* \"#utility.yul\":7686:7691   */\n      dup2\n        /* \"#utility.yul\":7671:7692   */\n      tag_123\n      jump\t// in\n    tag_223:\n        /* \"#utility.yul\":7664:7669   */\n      dup2\n        /* \"#utility.yul\":7661:7693   */\n      eq\n        /* \"#utility.yul\":7651:7711   */\n      tag_224\n      jumpi\n        /* \"#utility.yul\":7707:7708   */\n      0x00\n        /* \"#utility.yul\":7704:7705   */\n      dup1\n        /* \"#utility.yul\":7697:7709   */\n      revert\n        /* \"#utility.yul\":7651:7711   */\n    tag_224:\n        /* \"#utility.yul\":7601:7717   */\n      pop\n      jump\t// out\n        /* \"#utility.yul\":7723:7860   */\n    tag_134:\n        /* \"#utility.yul\":7777:7782   */\n      0x00\n        /* \"#utility.yul\":7808:7814   */\n      dup2\n        /* \"#utility.yul\":7802:7815   */\n      mload\n        /* \"#utility.yul\":7793:7815   */\n      swap1\n      pop\n        /* \"#utility.yul\":7824:7854   */\n      tag_226\n        /* \"#utility.yul\":7848:7853   */\n      dup2\n        /* \"#utility.yul\":7824:7854   */\n      tag_133\n      jump\t// in\n    tag_226:\n        /* \"#utility.yul\":7723:7860   */\n      swap3\n      swap2\n      pop\n      pop\n      jump\t// out\n        /* \"#utility.yul\":7866:8211   */\n    tag_58:\n        /* \"#utility.yul\":7933:7939   */\n      0x00\n        /* \"#utility.yul\":7982:7984   */\n      0x20\n        /* \"#utility.yul\":7970:7979   */\n      dup3\n        /* \"#utility.yul\":7961:7968   */\n      dup5\n        /* \"#utility.yul\":7957:7980   */\n      sub\n        /* \"#utility.yul\":7953:7985   */\n      slt\n        /* \"#utility.yul\":7950:8069   */\n      iszero\n      tag_228\n      jumpi\n        /* \"#utility.yul\":7988:8067   */\n      tag_229\n      tag_114\n      jump\t// in\n    tag_229:\n        /* \"#utility.yul\":7950:8069   */\n    tag_228:\n        /* \"#utility.yul\":8108:8109   */\n      0x00\n        /* \"#utility.yul\":8133:8194   */\n      tag_230\n        /* \"#utility.yul\":8186:8193   */\n      dup5\n        /* \"#utility.yul\":8177:8183   */\n      dup3\n        /* \"#utility.yul\":8166:8175   */\n      dup6\n        /* \"#utility.yul\":8162:8184   */\n      add\n        /* \"#utility.yul\":8133:8194   */\n      tag_134\n      jump\t// in\n    tag_230:\n        /* \"#utility.yul\":8123:8194   */\n      swap2\n      pop\n        /* \"#utility.yul\":8079:8204   */\n      pop\n        /* \"#utility.yul\":7866:8211   */\n      swap3\n      swap2\n      pop\n      pop\n      jump\t// out\n        /* \"#utility.yul\":8217:8277   */\n    tag_135:\n        /* \"#utility.yul\":8245:8248   */\n      0x00\n        /* \"#utility.yul\":8266:8271   */\n      dup2\n        /* \"#utility.yul\":8259:8271   */\n      swap1\n      pop\n        /* \"#utility.yul\":8217:8277   */\n      swap2\n      swap1\n      pop\n      jump\t// out\n        /* \"#utility.yul\":8283:8425   */\n    tag_136:\n        /* \"#utility.yul\":8333:8342   */\n      0x00\n        /* \"#utility.yul\":8366:8419   */\n      tag_233\n        /* \"#utility.yul\":8384:8418   */\n      tag_234\n        /* \"#utility.yul\":8393:8417   */\n      tag_235\n        /* \"#utility.yul\":8411:8416   */\n      dup5\n        /* \"#utility.yul\":8393:8417   */\n      tag_116\n      jump\t// in\n    tag_235:\n        /* \"#utility.yul\":8384:8418   */\n      tag_135\n      jump\t// in\n    tag_234:\n        /* \"#utility.yul\":8366:8419   */\n      tag_116\n      jump\t// in\n    tag_233:\n        /* \"#utility.yul\":8353:8419   */\n      swap1\n      pop\n        /* \"#utility.yul\":8283:8425   */\n      swap2\n      swap1\n      pop\n      jump\t// out\n        /* \"#utility.yul\":8431:8557   */\n    tag_137:\n        /* \"#utility.yul\":8481:8490   */\n      0x00\n        /* \"#utility.yul\":8514:8551   */\n      tag_237\n        /* \"#utility.yul\":8545:8550   */\n      dup3\n        /* \"#utility.yul\":8514:8551   */\n      tag_136\n      jump\t// in\n    tag_237:\n        /* \"#utility.yul\":8501:8551   */\n      swap1\n      pop\n        /* \"#utility.yul\":8431:8557   */\n      swap2\n      swap1\n      pop\n      jump\t// out\n        /* \"#utility.yul\":8563:8703   */\n    tag_138:\n        /* \"#utility.yul\":8627:8636   */\n      0x00\n        /* \"#utility.yul\":8660:8697   */\n      tag_239\n        /* \"#utility.yul\":8691:8696   */\n      dup3\n        /* \"#utility.yul\":8660:8697   */\n      tag_137\n      jump\t// in\n    tag_239:\n        /* \"#utility.yul\":8647:8697   */\n      swap1\n      pop\n        /* \"#utility.yul\":8563:8703   */\n      swap2\n      swap1\n      pop\n      jump\t// out\n        /* \"#utility.yul\":8709:8868   */\n    tag_139:\n        /* \"#utility.yul\":8810:8861   */\n      tag_241\n        /* \"#utility.yul\":8855:8860   */\n      dup2\n        /* \"#utility.yul\":8810:8861   */\n      tag_138\n      jump\t// in\n    tag_241:\n        /* \"#utility.yul\":8805:8808   */\n      dup3\n        /* \"#utility.yul\":8798:8862   */\n      mstore\n        /* \"#utility.yul\":8709:8868   */\n      pop\n      pop\n      jump\t// out\n        /* \"#utility.yul\":8874:9344   */\n    tag_65:\n        /* \"#utility.yul\":9037:9041   */\n      0x00\n        /* \"#utility.yul\":9075:9077   */\n      0x60\n        /* \"#utility.yul\":9064:9073   */\n      dup3\n        /* \"#utility.yul\":9060:9078   */\n      add\n        /* \"#utility.yul\":9052:9078   */\n      swap1\n      pop\n        /* \"#utility.yul\":9088:9173   */\n      tag_243\n        /* \"#utility.yul\":9170:9171   */\n      0x00\n        /* \"#utility.yul\":9159:9168   */\n      dup4\n        /* \"#utility.yul\":9155:9172   */\n      add\n        /* \"#utility.yul\":9146:9152   */\n      dup7\n        /* \"#utility.yul\":9088:9173   */\n      tag_139\n      jump\t// in\n    tag_243:\n        /* \"#utility.yul\":9183:9255   */\n      tag_244\n        /* \"#utility.yul\":9251:9253   */\n      0x20\n        /* \"#utility.yul\":9240:9249   */\n      dup4\n        /* \"#utility.yul\":9236:9254   */\n      add\n        /* \"#utility.yul\":9227:9233   */\n      dup6\n        /* \"#utility.yul\":9183:9255   */\n      tag_128\n      jump\t// in\n    tag_244:\n        /* \"#utility.yul\":9265:9337   */\n      tag_245\n        /* \"#utility.yul\":9333:9335   */\n      0x40\n        /* \"#utility.yul\":9322:9331   */\n      dup4\n        /* \"#utility.yul\":9318:9336   */\n      add\n        /* \"#utility.yul\":9309:9315   */\n      dup5\n        /* \"#utility.yul\":9265:9337   */\n      tag_129\n      jump\t// in\n    tag_245:\n        /* \"#utility.yul\":8874:9344   */\n      swap5\n      swap4\n      pop\n      pop\n      pop\n      pop\n      jump\t// out\n        /* \"#utility.yul\":9350:9575   */\n    tag_140:\n        /* \"#utility.yul\":9490:9524   */\n      0x4f776e61626c653a206e6577206f776e657220697320746865207a65726f2061\n        /* \"#utility.yul\":9486:9487   */\n      0x00\n        /* \"#utility.yul\":9478:9484   */\n      dup3\n        /* \"#utility.yul\":9474:9488   */\n      add\n        /* \"#utility.yul\":9467:9525   */\n      mstore\n        /* \"#utility.yul\":9559:9567   */\n      0x6464726573730000000000000000000000000000000000000000000000000000\n        /* \"#utility.yul\":9554:9556   */\n      0x20\n        /* \"#utility.yul\":9546:9552   */\n      dup3\n        /* \"#utility.yul\":9542:9557   */\n      add\n        /* \"#utility.yul\":9535:9568   */\n      mstore\n        /* \"#utility.yul\":9350:9575   */\n      pop\n      jump\t// out\n        /* \"#utility.yul\":9581:9947   */\n    tag_141:\n        /* \"#utility.yul\":9723:9726   */\n      0x00\n        /* \"#utility.yul\":9744:9811   */\n      tag_248\n        /* \"#utility.yul\":9808:9810   */\n      0x26\n        /* \"#utility.yul\":9803:9806   */\n      dup4\n        /* \"#utility.yul\":9744:9811   */\n      tag_130\n      jump\t// in\n    tag_248:\n        /* \"#utility.yul\":9737:9811   */\n      swap2\n      pop\n        /* \"#utility.yul\":9820:9913   */\n      tag_249\n        /* \"#utility.yul\":9909:9912   */\n      dup3\n        /* \"#utility.yul\":9820:9913   */\n      tag_140\n      jump\t// in\n    tag_249:\n        /* \"#utility.yul\":9938:9940   */\n      0x40\n        /* \"#utility.yul\":9933:9936   */\n      dup3\n        /* \"#utility.yul\":9929:9941   */\n      add\n        /* \"#utility.yul\":9922:9941   */\n      swap1\n      pop\n        /* \"#utility.yul\":9581:9947   */\n      swap2\n      swap1\n      pop\n      jump\t// out\n        /* \"#utility.yul\":9953:10372   */\n    tag_100:\n        /* \"#utility.yul\":10119:10123   */\n      0x00\n        /* \"#utility.yul\":10157:10159   */\n      0x20\n        /* \"#utility.yul\":10146:10155   */\n      dup3\n        /* \"#utility.yul\":10142:10160   */\n      add\n        /* \"#utility.yul\":10134:10160   */\n      swap1\n      pop\n        /* \"#utility.yul\":10206:10215   */\n      dup2\n        /* \"#utility.yul\":10200:10204   */\n      dup2\n        /* \"#utility.yul\":10196:10216   */\n      sub\n        /* \"#utility.yul\":10192:10193   */\n      0x00\n        /* \"#utility.yul\":10181:10190   */\n      dup4\n        /* \"#utility.yul\":10177:10194   */\n      add\n        /* \"#utility.yul\":10170:10217   */\n      mstore\n        /* \"#utility.yul\":10234:10365   */\n      tag_251\n        /* \"#utility.yul\":10360:10364   */\n      dup2\n        /* \"#utility.yul\":10234:10365   */\n      tag_141\n      jump\t// in\n    tag_251:\n        /* \"#utility.yul\":10226:10365   */\n      swap1\n      pop\n        /* \"#utility.yul\":9953:10372   */\n      swap2\n      swap1\n      pop\n      jump\t// out\n        /* \"#utility.yul\":10378:11042   */\n    tag_107:\n        /* \"#utility.yul\":10583:10587   */\n      0x00\n        /* \"#utility.yul\":10621:10624   */\n      0xa0\n        /* \"#utility.yul\":10610:10619   */\n      dup3\n        /* \"#utility.yul\":10606:10625   */\n      add\n        /* \"#utility.yul\":10598:10625   */\n      swap1\n      pop\n        /* \"#utility.yul\":10635:10706   */\n      tag_253\n        /* \"#utility.yul\":10703:10704   */\n      0x00\n        /* \"#utility.yul\":10692:10701   */\n      dup4\n        /* \"#utility.yul\":10688:10705   */\n      add\n        /* \"#utility.yul\":10679:10685   */\n      dup9\n        /* \"#utility.yul\":10635:10706   */\n      tag_128\n      jump\t// in\n    tag_253:\n        /* \"#utility.yul\":10716:10788   */\n      tag_254\n        /* \"#utility.yul\":10784:10786   */\n      0x20\n        /* \"#utility.yul\":10773:10782   */\n      dup4\n        /* \"#utility.yul\":10769:10787   */\n      add\n        /* \"#utility.yul\":10760:10766   */\n      dup8\n        /* \"#utility.yul\":10716:10788   */\n      tag_129\n      jump\t// in\n    tag_254:\n        /* \"#utility.yul\":10798:10870   */\n      tag_255\n        /* \"#utility.yul\":10866:10868   */\n      0x40\n        /* \"#utility.yul\":10855:10864   */\n      dup4\n        /* \"#utility.yul\":10851:10869   */\n      add\n        /* \"#utility.yul\":10842:10848   */\n      dup7\n        /* \"#utility.yul\":10798:10870   */\n      tag_128\n      jump\t// in\n    tag_255:\n        /* \"#utility.yul\":10880:10952   */\n      tag_256\n        /* \"#utility.yul\":10948:10950   */\n      0x60\n        /* \"#utility.yul\":10937:10946   */\n      dup4\n        /* \"#utility.yul\":10933:10951   */\n      add\n        /* \"#utility.yul\":10924:10930   */\n      dup6\n        /* \"#utility.yul\":10880:10952   */\n      tag_129\n      jump\t// in\n    tag_256:\n        /* \"#utility.yul\":10962:11035   */\n      tag_257\n        /* \"#utility.yul\":11030:11033   */\n      0x80\n        /* \"#utility.yul\":11019:11028   */\n      dup4\n        /* \"#utility.yul\":11015:11034   */\n      add\n        /* \"#utility.yul\":11006:11012   */\n      dup5\n        /* \"#utility.yul\":10962:11035   */\n      tag_129\n      jump\t// in\n    tag_257:\n        /* \"#utility.yul\":10378:11042   */\n      swap7\n      swap6\n      pop\n      pop\n      pop\n      pop\n      pop\n      pop\n      jump\t// out\n        /* \"#utility.yul\":11048:11191   */\n    tag_142:\n        /* \"#utility.yul\":11105:11110   */\n      0x00\n        /* \"#utility.yul\":11136:11142   */\n      dup2\n        /* \"#utility.yul\":11130:11143   */\n      mload\n        /* \"#utility.yul\":11121:11143   */\n      swap1\n      pop\n        /* \"#utility.yul\":11152:11185   */\n      tag_259\n        /* \"#utility.yul\":11179:11184   */\n      dup2\n        /* \"#utility.yul\":11152:11185   */\n      tag_121\n      jump\t// in\n    tag_259:\n        /* \"#utility.yul\":11048:11191   */\n      swap3\n      swap2\n      pop\n      pop\n      jump\t// out\n        /* \"#utility.yul\":11197:11548   */\n    tag_111:\n        /* \"#utility.yul\":11267:11273   */\n      0x00\n        /* \"#utility.yul\":11316:11318   */\n      0x20\n        /* \"#utility.yul\":11304:11313   */\n      dup3\n        /* \"#utility.yul\":11295:11302   */\n      dup5\n        /* \"#utility.yul\":11291:11314   */\n      sub\n        /* \"#utility.yul\":11287:11319   */\n      slt\n        /* \"#utility.yul\":11284:11403   */\n      iszero\n      tag_261\n      jumpi\n        /* \"#utility.yul\":11322:11401   */\n      tag_262\n      tag_114\n      jump\t// in\n    tag_262:\n        /* \"#utility.yul\":11284:11403   */\n    tag_261:\n        /* \"#utility.yul\":11442:11443   */\n      0x00\n        /* \"#utility.yul\":11467:11531   */\n      tag_263\n        /* \"#utility.yul\":11523:11530   */\n      dup5\n        /* \"#utility.yul\":11514:11520   */\n      dup3\n        /* \"#utility.yul\":11503:11512   */\n      dup6\n        /* \"#utility.yul\":11499:11521   */\n      add\n        /* \"#utility.yul\":11467:11531   */\n      tag_142\n      jump\t// in\n    tag_263:\n        /* \"#utility.yul\":11457:11531   */\n      swap2\n      pop\n        /* \"#utility.yul\":11413:11541   */\n      pop\n        /* \"#utility.yul\":11197:11548   */\n      swap3\n      swap2\n      pop\n      pop\n      jump\t// out\n\n    auxdata: 0xa2646970667358221220115285e6e2400344b078b6d22a930e0a0b9fd5caeb061dbd03ec0a729367343b64736f6c634300081a0033\n}\n",
				"bytecode": {
					"linkReferences": {},
					"object": "608060405234801561000f575f80fd5b5060405161144c38038061144c83398181016040528101906100319190610319565b5f6100406100f160201b60201c565b9050805f806101000a81548173ffffffffffffffffffffffffffffffffffffffff021916908373ffffffffffffffffffffffffffffffffffffffff1602179055508073ffffffffffffffffffffffffffffffffffffffff165f73ffffffffffffffffffffffffffffffffffffffff167f8be0079c531659141344cd1fd0a4f28419497f9722a3daafe3b4186f6b6457e060405160405180910390a3506100eb816100f860201b60201c565b5061044a565b5f33905090565b6101066100f160201b60201c565b73ffffffffffffffffffffffffffffffffffffffff165f8054906101000a900473ffffffffffffffffffffffffffffffffffffffff1673ffffffffffffffffffffffffffffffffffffffff1614610192576040517f08c379a00000000000000000000000000000000000000000000000000000000081526004016101899061039e565b60405180910390fd5b5f73ffffffffffffffffffffffffffffffffffffffff168173ffffffffffffffffffffffffffffffffffffffff1603610200576040517f08c379a00000000000000000000000000000000000000000000000000000000081526004016101f79061042c565b60405180910390fd5b8073ffffffffffffffffffffffffffffffffffffffff165f8054906101000a900473ffffffffffffffffffffffffffffffffffffffff1673ffffffffffffffffffffffffffffffffffffffff167f8be0079c531659141344cd1fd0a4f28419497f9722a3daafe3b4186f6b6457e060405160405180910390a3805f806101000a81548173ffffffffffffffffffffffffffffffffffffffff021916908373ffffffffffffffffffffffffffffffffffffffff16021790555050565b5f80fd5b5f73ffffffffffffffffffffffffffffffffffffffff82169050919050565b5f6102e8826102bf565b9050919050565b6102f8816102de565b8114610302575f80fd5b50565b5f81519050610313816102ef565b92915050565b5f6020828403121561032e5761032d6102bb565b5b5f61033b84828501610305565b91505092915050565b5f82825260208201905092915050565b7f4f776e61626c653a2063616c6c6572206973206e6f7420746865206f776e65725f82015250565b5f610388602083610344565b915061039382610354565b602082019050919050565b5f6020820190508181035f8301526103b58161037c565b9050919050565b7f4f776e61626c653a206e6577206f776e657220697320746865207a65726f20615f8201527f6464726573730000000000000000000000000000000000000000000000000000602082015250565b5f610416602683610344565b9150610421826103bc565b604082019050919050565b5f6020820190508181035f8301526104438161040a565b9050919050565b610ff5806104575f395ff3fe608060405234801561000f575f80fd5b5060043610610086575f3560e01c80638da5cb5b116100595780638da5cb5b14610110578063f18d03cc1461012e578063f2fde38b1461014a578063fd59e1341461016657610086565b80632f436bfa1461008a57806359eba454146100ba578063715018a6146100d65780637dc14a8e146100e0575b5f80fd5b6100a4600480360381019061009f9190610ab9565b610196565b6040516100b19190610b23565b60405180910390f35b6100d460048036038101906100cf9190610b77565b6102af565b005b6100de6103b3565b005b6100fa60048036038101906100f59190610bdb565b610501565b6040516101079190610b23565b60405180910390f35b610118610617565b6040516101259190610c28565b60405180910390f35b61014860048036038101906101439190610b77565b61063e565b005b610164600480360381019061015f9190610c41565b610742565b005b610180600480360381019061017b9190610c6c565b6108ff565b60405161018d9190610d04565b60405180910390f35b5f61019f610a21565b73ffffffffffffffffffffffffffffffffffffffff165f8054906101000a900473ffffffffffffffffffffffffffffffffffffffff1673ffffffffffffffffffffffffffffffffffffffff161461022b576040517f08c379a000000000000000000000000000000000000000000000000000000000815260040161022290610d77565b60405180910390fd5b8373ffffffffffffffffffffffffffffffffffffffff16637a9b2c6c84846040518363ffffffff1660e01b8152600401610266929190610d95565b6020604051808303815f875af1158015610282573d5f803e3d5ffd5b505050506040513d601f19601f820116820180604052508101906102a69190610de6565b90509392505050565b6102b7610a21565b73ffffffffffffffffffffffffffffffffffffffff165f8054906101000a900473ffffffffffffffffffffffffffffffffffffffff1673ffffffffffffffffffffffffffffffffffffffff1614610343576040517f08c379a000000000000000000000000000000000000000000000000000000000815260040161033a90610d77565b60405180910390fd5b8373ffffffffffffffffffffffffffffffffffffffff1663e1f21c678484846040518463ffffffff1660e01b815260040161038093929190610e6c565b5f604051808303815f87803b158015610397575f80fd5b505af11580156103a9573d5f803e3d5ffd5b5050505050505050565b6103bb610a21565b73ffffffffffffffffffffffffffffffffffffffff165f8054906101000a900473ffffffffffffffffffffffffffffffffffffffff1673ffffffffffffffffffffffffffffffffffffffff1614610447576040517f08c379a000000000000000000000000000000000000000000000000000000000815260040161043e90610d77565b60405180910390fd5b5f73ffffffffffffffffffffffffffffffffffffffff165f8054906101000a900473ffffffffffffffffffffffffffffffffffffffff1673ffffffffffffffffffffffffffffffffffffffff167f8be0079c531659141344cd1fd0a4f28419497f9722a3daafe3b4186f6b6457e060405160405180910390a35f805f6101000a81548173ffffffffffffffffffffffffffffffffffffffff021916908373ffffffffffffffffffffffffffffffffffffffff160217905550565b5f61050a610a21565b73ffffffffffffffffffffffffffffffffffffffff165f8054906101000a900473ffffffffffffffffffffffffffffffffffffffff1673ffffffffffffffffffffffffffffffffffffffff1614610596576040517f08c379a000000000000000000000000000000000000000000000000000000000815260040161058d90610d77565b60405180910390fd5b8273ffffffffffffffffffffffffffffffffffffffff16636db9241b836040518263ffffffff1660e01b81526004016105cf9190610d04565b6020604051808303815f875af11580156105eb573d5f803e3d5ffd5b505050506040513d601f19601f8201168201806040525081019061060f9190610de6565b905092915050565b5f805f9054906101000a900473ffffffffffffffffffffffffffffffffffffffff16905090565b610646610a21565b73ffffffffffffffffffffffffffffffffffffffff165f8054906101000a900473ffffffffffffffffffffffffffffffffffffffff1673ffffffffffffffffffffffffffffffffffffffff16146106d2576040517f08c379a00000000000000000000000000000000000000000000000000000000081526004016106c990610d77565b60405180910390fd5b8373ffffffffffffffffffffffffffffffffffffffff1663beabacc88484846040518463ffffffff1660e01b815260040161070f93929190610e6c565b5f604051808303815f87803b158015610726575f80fd5b505af1158015610738573d5f803e3d5ffd5b5050505050505050565b61074a610a21565b73ffffffffffffffffffffffffffffffffffffffff165f8054906101000a900473ffffffffffffffffffffffffffffffffffffffff1673ffffffffffffffffffffffffffffffffffffffff16146107d6576040517f08c379a00000000000000000000000000000000000000000000000000000000081526004016107cd90610d77565b60405180910390fd5b5f73ffffffffffffffffffffffffffffffffffffffff168173ffffffffffffffffffffffffffffffffffffffff1603610844576040517f08c379a000000000000000000000000000000000000000000000000000000000815260040161083b90610f11565b60405180910390fd5b8073ffffffffffffffffffffffffffffffffffffffff165f8054906101000a900473ffffffffffffffffffffffffffffffffffffffff1673ffffffffffffffffffffffffffffffffffffffff167f8be0079c531659141344cd1fd0a4f28419497f9722a3daafe3b4186f6b6457e060405160405180910390a3805f806101000a81548173ffffffffffffffffffffffffffffffffffffffff021916908373ffffffffffffffffffffffffffffffffffffffff16021790555050565b5f610908610a21565b73ffffffffffffffffffffffffffffffffffffffff165f8054906101000a900473ffffffffffffffffffffffffffffffffffffffff1673ffffffffffffffffffffffffffffffffffffffff1614610994576040517f08c379a000000000000000000000000000000000000000000000000000000000815260040161098b90610d77565b60405180910390fd5b8673ffffffffffffffffffffffffffffffffffffffff1663cc1b4bf687878787876040518663ffffffff1660e01b81526004016109d5959493929190610f2f565b6020604051808303815f875af11580156109f1573d5f803e3d5ffd5b505050506040513d601f19601f82011682018060405250810190610a159190610f94565b90509695505050505050565b5f33905090565b5f80fd5b5f73ffffffffffffffffffffffffffffffffffffffff82169050919050565b5f610a5582610a2c565b9050919050565b610a6581610a4b565b8114610a6f575f80fd5b50565b5f81359050610a8081610a5c565b92915050565b5f819050919050565b610a9881610a86565b8114610aa2575f80fd5b50565b5f81359050610ab381610a8f565b92915050565b5f805f60608486031215610ad057610acf610a28565b5b5f610add86828701610a72565b9350506020610aee86828701610aa5565b9250506040610aff86828701610aa5565b9150509250925092565b5f8115159050919050565b610b1d81610b09565b82525050565b5f602082019050610b365f830184610b14565b92915050565b5f610b4682610a4b565b9050919050565b610b5681610b3c565b8114610b60575f80fd5b50565b5f81359050610b7181610b4d565b92915050565b5f805f8060808587031215610b8f57610b8e610a28565b5b5f610b9c87828801610a72565b9450506020610bad87828801610b63565b9350506040610bbe87828801610a72565b9250506060610bcf87828801610aa5565b91505092959194509250565b5f8060408385031215610bf157610bf0610a28565b5b5f610bfe85828601610a72565b9250506020610c0f85828601610aa5565b9150509250929050565b610c2281610a4b565b82525050565b5f602082019050610c3b5f830184610c19565b92915050565b5f60208284031215610c5657610c55610a28565b5b5f610c6384828501610a72565b91505092915050565b5f805f805f8060c08789031215610c8657610c85610a28565b5b5f610c9389828a01610a72565b9650506020610ca489828a01610a72565b9550506040610cb589828a01610aa5565b9450506060610cc689828a01610b63565b9350506080610cd789828a01610aa5565b92505060a0610ce889828a01610aa5565b9150509295509295509295565b610cfe81610a86565b82525050565b5f602082019050610d175f830184610cf5565b92915050565b5f82825260208201905092915050565b7f4f776e61626c653a2063616c6c6572206973206e6f7420746865206f776e65725f82015250565b5f610d61602083610d1d565b9150610d6c82610d2d565b602082019050919050565b5f6020820190508181035f830152610d8e81610d55565b9050919050565b5f604082019050610da85f830185610cf5565b610db56020830184610cf5565b9392505050565b610dc581610b09565b8114610dcf575f80fd5b50565b5f81519050610de081610dbc565b92915050565b5f60208284031215610dfb57610dfa610a28565b5b5f610e0884828501610dd2565b91505092915050565b5f819050919050565b5f610e34610e2f610e2a84610a2c565b610e11565b610a2c565b9050919050565b5f610e4582610e1a565b9050919050565b5f610e5682610e3b565b9050919050565b610e6681610e4c565b82525050565b5f606082019050610e7f5f830186610e5d565b610e8c6020830185610c19565b610e996040830184610cf5565b949350505050565b7f4f776e61626c653a206e6577206f776e657220697320746865207a65726f20615f8201527f6464726573730000000000000000000000000000000000000000000000000000602082015250565b5f610efb602683610d1d565b9150610f0682610ea1565b604082019050919050565b5f6020820190508181035f830152610f2881610eef565b9050919050565b5f60a082019050610f425f830188610c19565b610f4f6020830187610cf5565b610f5c6040830186610c19565b610f696060830185610cf5565b610f766080830184610cf5565b9695505050505050565b5f81519050610f8e81610a8f565b92915050565b5f60208284031215610fa957610fa8610a28565b5b5f610fb684828501610f80565b9150509291505056fea2646970667358221220115285e6e2400344b078b6d22a930e0a0b9fd5caeb061dbd03ec0a729367343b64736f6c634300081a0033",
					"opcodes": "PUSH1 0x80 PUSH1 0x40 MSTORE CALLVALUE DUP1 ISZERO PUSH2 0xF JUMPI PUSH0 DUP1 REVERT JUMPDEST POP PUSH1 0x40 MLOAD PUSH2 0x144C CODESIZE SUB DUP1 PUSH2 0x144C DUP4 CODECOPY DUP2 DUP2 ADD PUSH1 0x40 MSTORE DUP2 ADD SWAP1 PUSH2 0x31 SWAP2 SWAP1 PUSH2 0x319 JUMP JUMPDEST PUSH0 PUSH2 0x40 PUSH2 0xF1 PUSH1 0x20 SHL PUSH1 0x20 SHR JUMP JUMPDEST SWAP1 POP DUP1 PUSH0 DUP1 PUSH2 0x100 EXP DUP2 SLOAD DUP2 PUSH20 0xFFFFFFFFFFFFFFFFFFFFFFFFFFFFFFFFFFFFFFFF MUL NOT AND SWAP1 DUP4 PUSH20 0xFFFFFFFFFFFFFFFFFFFFFFFFFFFFFFFFFFFFFFFF AND MUL OR SWAP1 SSTORE POP DUP1 PUSH20 0xFFFFFFFFFFFFFFFFFFFFFFFFFFFFFFFFFFFFFFFF AND PUSH0 PUSH20 0xFFFFFFFFFFFFFFFFFFFFFFFFFFFFFFFFFFFFFFFF AND PUSH32 0x8BE0079C531659141344CD1FD0A4F28419497F9722A3DAAFE3B4186F6B6457E0 PUSH1 0x40 MLOAD PUSH1 0x40 MLOAD DUP1 SWAP2 SUB SWAP1 LOG3 POP PUSH2 0xEB DUP2 PUSH2 0xF8 PUSH1 0x20 SHL PUSH1 0x20 SHR JUMP JUMPDEST POP PUSH2 0x44A JUMP JUMPDEST PUSH0 CALLER SWAP1 POP SWAP1 JUMP JUMPDEST PUSH2 0x106 PUSH2 0xF1 PUSH1 0x20 SHL PUSH1 0x20 SHR JUMP JUMPDEST PUSH20 0xFFFFFFFFFFFFFFFFFFFFFFFFFFFFFFFFFFFFFFFF AND PUSH0 DUP1 SLOAD SWAP1 PUSH2 0x100 EXP SWAP1 DIV PUSH20 0xFFFFFFFFFFFFFFFFFFFFFFFFFFFFFFFFFFFFFFFF AND PUSH20 0xFFFFFFFFFFFFFFFFFFFFFFFFFFFFFFFFFFFFFFFF AND EQ PUSH2 0x192 JUMPI PUSH1 0x40 MLOAD PUSH32 0x8C379A000000000000000000000000000000000000000000000000000000000 DUP2 MSTORE PUSH1 0x4 ADD PUSH2 0x189 SWAP1 PUSH2 0x39E JUMP JUMPDEST PUSH1 0x40 MLOAD DUP1 SWAP2 SUB SWAP1 REVERT JUMPDEST PUSH0 PUSH20 0xFFFFFFFFFFFFFFFFFFFFFFFFFFFFFFFFFFFFFFFF AND DUP2 PUSH20 0xFFFFFFFFFFFFFFFFFFFFFFFFFFFFFFFFFFFFFFFF AND SUB PUSH2 0x200 JUMPI PUSH1 0x40 MLOAD PUSH32 0x8C379A000000000000000000000000000000000000000000000000000000000 DUP2 MSTORE PUSH1 0x4 ADD PUSH2 0x1F7 SWAP1 PUSH2 0x42C JUMP JUMPDEST PUSH1 0x40 MLOAD DUP1 SWAP2 SUB SWAP1 REVERT JUMPDEST DUP1 PUSH20 0xFFFFFFFFFFFFFFFFFFFFFFFFFFFFFFFFFFFFFFFF AND PUSH0 DUP1 SLOAD SWAP1 PUSH2 0x100 EXP SWAP1 DIV PUSH20 0xFFFFFFFFFFFFFFFFFFFFFFFFFFFFFFFFFFFFFFFF AND PUSH20 0xFFFFFFFFFFFFFFFFFFFFFFFFFFFFFFFFFFFFFFFF AND PUSH32 0x8BE0079C531659141344CD1FD0A4F28419497F9722A3DAAFE3B4186F6B6457E0 PUSH1 0x40 MLOAD PUSH1 0x40 MLOAD DUP1 SWAP2 SUB SWAP1 LOG3 DUP1 PUSH0 DUP1 PUSH2 0x100 EXP DUP2 SLOAD DUP2 PUSH20 0xFFFFFFFFFFFFFFFFFFFFFFFFFFFFFFFFFFFFFFFF MUL NOT AND SWAP1 DUP4 PUSH20 0xFFFFFFFFFFFFFFFFFFFFFFFFFFFFFFFFFFFFFFFF AND MUL OR SWAP1 SSTORE POP POP JUMP JUMPDEST PUSH0 DUP1 REVERT JUMPDEST PUSH0 PUSH20 0xFFFFFFFFFFFFFFFFFFFFFFFFFFFFFFFFFFFFFFFF DUP3 AND SWAP1 POP SWAP2 SWAP1 POP JUMP JUMPDEST PUSH0 PUSH2 0x2E8 DUP3 PUSH2 0x2BF JUMP JUMPDEST SWAP1 POP SWAP2 SWAP1 POP JUMP JUMPDEST PUSH2 0x2F8 DUP2 PUSH2 0x2DE JUMP JUMPDEST DUP2 EQ PUSH2 0x302 JUMPI PUSH0 DUP1 REVERT JUMPDEST POP JUMP JUMPDEST PUSH0 DUP2 MLOAD SWAP1 POP PUSH2 0x313 DUP2 PUSH2 0x2EF JUMP JUMPDEST SWAP3 SWAP2 POP POP JUMP JUMPDEST PUSH0 PUSH1 0x20 DUP3 DUP5 SUB SLT ISZERO PUSH2 0x32E JUMPI PUSH2 0x32D PUSH2 0x2BB JUMP JUMPDEST JUMPDEST PUSH0 PUSH2 0x33B DUP5 DUP3 DUP6 ADD PUSH2 0x305 JUMP JUMPDEST SWAP2 POP POP SWAP3 SWAP2 POP POP JUMP JUMPDEST PUSH0 DUP3 DUP3 MSTORE PUSH1 0x20 DUP3 ADD SWAP1 POP SWAP3 SWAP2 POP POP JUMP JUMPDEST PUSH32 0x4F776E61626C653A2063616C6C6572206973206E6F7420746865206F776E6572 PUSH0 DUP3 ADD MSTORE POP JUMP JUMPDEST PUSH0 PUSH2 0x388 PUSH1 0x20 DUP4 PUSH2 0x344 JUMP JUMPDEST SWAP2 POP PUSH2 0x393 DUP3 PUSH2 0x354 JUMP JUMPDEST PUSH1 0x20 DUP3 ADD SWAP1 POP SWAP2 SWAP1 POP JUMP JUMPDEST PUSH0 PUSH1 0x20 DUP3 ADD SWAP1 POP DUP2 DUP2 SUB PUSH0 DUP4 ADD MSTORE PUSH2 0x3B5 DUP2 PUSH2 0x37C JUMP JUMPDEST SWAP1 POP SWAP2 SWAP1 POP JUMP JUMPDEST PUSH32 0x4F776E61626C653A206E6577206F776E657220697320746865207A65726F2061 PUSH0 DUP3 ADD MSTORE PUSH32 0x6464726573730000000000000000000000000000000000000000000000000000 PUSH1 0x20 DUP3 ADD MSTORE POP JUMP JUMPDEST PUSH0 PUSH2 0x416 PUSH1 0x26 DUP4 PUSH2 0x344 JUMP JUMPDEST SWAP2 POP PUSH2 0x421 DUP3 PUSH2 0x3BC JUMP JUMPDEST PUSH1 0x40 DUP3 ADD SWAP1 POP SWAP2 SWAP1 POP JUMP JUMPDEST PUSH0 PUSH1 0x20 DUP3 ADD SWAP1 POP DUP2 DUP2 SUB PUSH0 DUP4 ADD MSTORE PUSH2 0x443 DUP2 PUSH2 0x40A JUMP JUMPDEST SWAP1 POP SWAP2 SWAP1 POP JUMP JUMPDEST PUSH2 0xFF5 DUP1 PUSH2 0x457 PUSH0 CODECOPY PUSH0 RETURN INVALID PUSH1 0x80 PUSH1 0x40 MSTORE CALLVALUE DUP1 ISZERO PUSH2 0xF JUMPI PUSH0 DUP1 REVERT JUMPDEST POP PUSH1 0x4 CALLDATASIZE LT PUSH2 0x86 JUMPI PUSH0 CALLDATALOAD PUSH1 0xE0 SHR DUP1 PUSH4 0x8DA5CB5B GT PUSH2 0x59 JUMPI DUP1 PUSH4 0x8DA5CB5B EQ PUSH2 0x110 JUMPI DUP1 PUSH4 0xF18D03CC EQ PUSH2 0x12E JUMPI DUP1 PUSH4 0xF2FDE38B EQ PUSH2 0x14A JUMPI DUP1 PUSH4 0xFD59E134 EQ PUSH2 0x166 JUMPI PUSH2 0x86 JUMP JUMPDEST DUP1 PUSH4 0x2F436BFA EQ PUSH2 0x8A JUMPI DUP1 PUSH4 0x59EBA454 EQ PUSH2 0xBA JUMPI DUP1 PUSH4 0x715018A6 EQ PUSH2 0xD6 JUMPI DUP1 PUSH4 0x7DC14A8E EQ PUSH2 0xE0 JUMPI JUMPDEST PUSH0 DUP1 REVERT JUMPDEST PUSH2 0xA4 PUSH1 0x4 DUP1 CALLDATASIZE SUB DUP2 ADD SWAP1 PUSH2 0x9F SWAP2 SWAP1 PUSH2 0xAB9 JUMP JUMPDEST PUSH2 0x196 JUMP JUMPDEST PUSH1 0x40 MLOAD PUSH2 0xB1 SWAP2 SWAP1 PUSH2 0xB23 JUMP JUMPDEST PUSH1 0x40 MLOAD DUP1 SWAP2 SUB SWAP1 RETURN JUMPDEST PUSH2 0xD4 PUSH1 0x4 DUP1 CALLDATASIZE SUB DUP2 ADD SWAP1 PUSH2 0xCF SWAP2 SWAP1 PUSH2 0xB77 JUMP JUMPDEST PUSH2 0x2AF JUMP JUMPDEST STOP JUMPDEST PUSH2 0xDE PUSH2 0x3B3 JUMP JUMPDEST STOP JUMPDEST PUSH2 0xFA PUSH1 0x4 DUP1 CALLDATASIZE SUB DUP2 ADD SWAP1 PUSH2 0xF5 SWAP2 SWAP1 PUSH2 0xBDB JUMP JUMPDEST PUSH2 0x501 JUMP JUMPDEST PUSH1 0x40 MLOAD PUSH2 0x107 SWAP2 SWAP1 PUSH2 0xB23 JUMP JUMPDEST PUSH1 0x40 MLOAD DUP1 SWAP2 SUB SWAP1 RETURN JUMPDEST PUSH2 0x118 PUSH2 0x617 JUMP JUMPDEST PUSH1 0x40 MLOAD PUSH2 0x125 SWAP2 SWAP1 PUSH2 0xC28 JUMP JUMPDEST PUSH1 0x40 MLOAD DUP1 SWAP2 SUB SWAP1 RETURN JUMPDEST PUSH2 0x148 PUSH1 0x4 DUP1 CALLDATASIZE SUB DUP2 ADD SWAP1 PUSH2 0x143 SWAP2 SWAP1 PUSH2 0xB77 JUMP JUMPDEST PUSH2 0x63E JUMP JUMPDEST STOP JUMPDEST PUSH2 0x164 PUSH1 0x4 DUP1 CALLDATASIZE SUB DUP2 ADD SWAP1 PUSH2 0x15F SWAP2 SWAP1 PUSH2 0xC41 JUMP JUMPDEST PUSH2 0x742 JUMP JUMPDEST STOP JUMPDEST PUSH2 0x180 PUSH1 0x4 DUP1 CALLDATASIZE SUB DUP2 ADD SWAP1 PUSH2 0x17B SWAP2 SWAP1 PUSH2 0xC6C JUMP JUMPDEST PUSH2 0x8FF JUMP JUMPDEST PUSH1 0x40 MLOAD PUSH2 0x18D SWAP2 SWAP1 PUSH2 0xD04 JUMP JUMPDEST PUSH1 0x40 MLOAD DUP1 SWAP2 SUB SWAP1 RETURN JUMPDEST PUSH0 PUSH2 0x19F PUSH2 0xA21 JUMP JUMPDEST PUSH20 0xFFFFFFFFFFFFFFFFFFFFFFFFFFFFFFFFFFFFFFFF AND PUSH0 DUP1 SLOAD SWAP1 PUSH2 0x100 EXP SWAP1 DIV PUSH20 0xFFFFFFFFFFFFFFFFFFFFFFFFFFFFFFFFFFFFFFFF AND PUSH20 0xFFFFFFFFFFFFFFFFFFFFFFFFFFFFFFFFFFFFFFFF AND EQ PUSH2 0x22B JUMPI PUSH1 0x40 MLOAD PUSH32 0x8C379A000000000000000000000000000000000000000000000000000000000 DUP2 MSTORE PUSH1 0x4 ADD PUSH2 0x222 SWAP1 PUSH2 0xD77 JUMP JUMPDEST PUSH1 0x40 MLOAD DUP1 SWAP2 SUB SWAP1 REVERT JUMPDEST DUP4 PUSH20 0xFFFFFFFFFFFFFFFFFFFFFFFFFFFFFFFFFFFFFFFF AND PUSH4 0x7A9B2C6C DUP5 DUP5 PUSH1 0x40 MLOAD DUP4 PUSH4 0xFFFFFFFF AND PUSH1 0xE0 SHL DUP2 MSTORE PUSH1 0x4 ADD PUSH2 0x266 SWAP3 SWAP2 SWAP1 PUSH2 0xD95 JUMP JUMPDEST PUSH1 0x20 PUSH1 0x40 MLOAD DUP1 DUP4 SUB DUP2 PUSH0 DUP8 GAS CALL ISZERO DUP1 ISZERO PUSH2 0x282 JUMPI RETURNDATASIZE PUSH0 DUP1 RETURNDATACOPY RETURNDATASIZE PUSH0 REVERT JUMPDEST POP POP POP POP PUSH1 0x40 MLOAD RETURNDATASIZE PUSH1 0x1F NOT PUSH1 0x1F DUP3 ADD AND DUP3 ADD DUP1 PUSH1 0x40 MSTORE POP DUP2 ADD SWAP1 PUSH2 0x2A6 SWAP2 SWAP1 PUSH2 0xDE6 JUMP JUMPDEST SWAP1 POP SWAP4 SWAP3 POP POP POP JUMP JUMPDEST PUSH2 0x2B7 PUSH2 0xA21 JUMP JUMPDEST PUSH20 0xFFFFFFFFFFFFFFFFFFFFFFFFFFFFFFFFFFFFFFFF AND PUSH0 DUP1 SLOAD SWAP1 PUSH2 0x100 EXP SWAP1 DIV PUSH20 0xFFFFFFFFFFFFFFFFFFFFFFFFFFFFFFFFFFFFFFFF AND PUSH20 0xFFFFFFFFFFFFFFFFFFFFFFFFFFFFFFFFFFFFFFFF AND EQ PUSH2 0x343 JUMPI PUSH1 0x40 MLOAD PUSH32 0x8C379A000000000000000000000000000000000000000000000000000000000 DUP2 MSTORE PUSH1 0x4 ADD PUSH2 0x33A SWAP1 PUSH2 0xD77 JUMP JUMPDEST PUSH1 0x40 MLOAD DUP1 SWAP2 SUB SWAP1 REVERT JUMPDEST DUP4 PUSH20 0xFFFFFFFFFFFFFFFFFFFFFFFFFFFFFFFFFFFFFFFF AND PUSH4 0xE1F21C67 DUP5 DUP5 DUP5 PUSH1 0x40 MLOAD DUP5 PUSH4 0xFFFFFFFF AND PUSH1 0xE0 SHL DUP2 MSTORE PUSH1 0x4 ADD PUSH2 0x380 SWAP4 SWAP3 SWAP2 SWAP1 PUSH2 0xE6C JUMP JUMPDEST PUSH0 PUSH1 0x40 MLOAD DUP1 DUP4 SUB DUP2 PUSH0 DUP8 DUP1 EXTCODESIZE ISZERO DUP1 ISZERO PUSH2 0x397 JUMPI PUSH0 DUP1 REVERT JUMPDEST POP GAS CALL ISZERO DUP1 ISZERO PUSH2 0x3A9 JUMPI RETURNDATASIZE PUSH0 DUP1 RETURNDATACOPY RETURNDATASIZE PUSH0 REVERT JUMPDEST POP POP POP POP POP POP POP POP JUMP JUMPDEST PUSH2 0x3BB PUSH2 0xA21 JUMP JUMPDEST PUSH20 0xFFFFFFFFFFFFFFFFFFFFFFFFFFFFFFFFFFFFFFFF AND PUSH0 DUP1 SLOAD SWAP1 PUSH2 0x100 EXP SWAP1 DIV PUSH20 0xFFFFFFFFFFFFFFFFFFFFFFFFFFFFFFFFFFFFFFFF AND PUSH20 0xFFFFFFFFFFFFFFFFFFFFFFFFFFFFFFFFFFFFFFFF AND EQ PUSH2 0x447 JUMPI PUSH1 0x40 MLOAD PUSH32 0x8C379A000000000000000000000000000000000000000000000000000000000 DUP2 MSTORE PUSH1 0x4 ADD PUSH2 0x43E SWAP1 PUSH2 0xD77 JUMP JUMPDEST PUSH1 0x40 MLOAD DUP1 SWAP2 SUB SWAP1 REVERT JUMPDEST PUSH0 PUSH20 0xFFFFFFFFFFFFFFFFFFFFFFFFFFFFFFFFFFFFFFFF AND PUSH0 DUP1 SLOAD SWAP1 PUSH2 0x100 EXP SWAP1 DIV PUSH20 0xFFFFFFFFFFFFFFFFFFFFFFFFFFFFFFFFFFFFFFFF AND PUSH20 0xFFFFFFFFFFFFFFFFFFFFFFFFFFFFFFFFFFFFFFFF AND PUSH32 0x8BE0079C531659141344CD1FD0A4F28419497F9722A3DAAFE3B4186F6B6457E0 PUSH1 0x40 MLOAD PUSH1 0x40 MLOAD DUP1 SWAP2 SUB SWAP1 LOG3 PUSH0 DUP1 PUSH0 PUSH2 0x100 EXP DUP2 SLOAD DUP2 PUSH20 0xFFFFFFFFFFFFFFFFFFFFFFFFFFFFFFFFFFFFFFFF MUL NOT AND SWAP1 DUP4 PUSH20 0xFFFFFFFFFFFFFFFFFFFFFFFFFFFFFFFFFFFFFFFF AND MUL OR SWAP1 SSTORE POP JUMP JUMPDEST PUSH0 PUSH2 0x50A PUSH2 0xA21 JUMP JUMPDEST PUSH20 0xFFFFFFFFFFFFFFFFFFFFFFFFFFFFFFFFFFFFFFFF AND PUSH0 DUP1 SLOAD SWAP1 PUSH2 0x100 EXP SWAP1 DIV PUSH20 0xFFFFFFFFFFFFFFFFFFFFFFFFFFFFFFFFFFFFFFFF AND PUSH20 0xFFFFFFFFFFFFFFFFFFFFFFFFFFFFFFFFFFFFFFFF AND EQ PUSH2 0x596 JUMPI PUSH1 0x40 MLOAD PUSH32 0x8C379A000000000000000000000000000000000000000000000000000000000 DUP2 MSTORE PUSH1 0x4 ADD PUSH2 0x58D SWAP1 PUSH2 0xD77 JUMP JUMPDEST PUSH1 0x40 MLOAD DUP1 SWAP2 SUB SWAP1 REVERT JUMPDEST DUP3 PUSH20 0xFFFFFFFFFFFFFFFFFFFFFFFFFFFFFFFFFFFFFFFF AND PUSH4 0x6DB9241B DUP4 PUSH1 0x40 MLOAD DUP3 PUSH4 0xFFFFFFFF AND PUSH1 0xE0 SHL DUP2 MSTORE PUSH1 0x4 ADD PUSH2 0x5CF SWAP2 SWAP1 PUSH2 0xD04 JUMP JUMPDEST PUSH1 0x20 PUSH1 0x40 MLOAD DUP1 DUP4 SUB DUP2 PUSH0 DUP8 GAS CALL ISZERO DUP1 ISZERO PUSH2 0x5EB JUMPI RETURNDATASIZE PUSH0 DUP1 RETURNDATACOPY RETURNDATASIZE PUSH0 REVERT JUMPDEST POP POP POP POP PUSH1 0x40 MLOAD RETURNDATASIZE PUSH1 0x1F NOT PUSH1 0x1F DUP3 ADD AND DUP3 ADD DUP1 PUSH1 0x40 MSTORE POP DUP2 ADD SWAP1 PUSH2 0x60F SWAP2 SWAP1 PUSH2 0xDE6 JUMP JUMPDEST SWAP1 POP SWAP3 SWAP2 POP POP JUMP JUMPDEST PUSH0 DUP1 PUSH0 SWAP1 SLOAD SWAP1 PUSH2 0x100 EXP SWAP1 DIV PUSH20 0xFFFFFFFFFFFFFFFFFFFFFFFFFFFFFFFFFFFFFFFF AND SWAP1 POP SWAP1 JUMP JUMPDEST PUSH2 0x646 PUSH2 0xA21 JUMP JUMPDEST PUSH20 0xFFFFFFFFFFFFFFFFFFFFFFFFFFFFFFFFFFFFFFFF AND PUSH0 DUP1 SLOAD SWAP1 PUSH2 0x100 EXP SWAP1 DIV PUSH20 0xFFFFFFFFFFFFFFFFFFFFFFFFFFFFFFFFFFFFFFFF AND PUSH20 0xFFFFFFFFFFFFFFFFFFFFFFFFFFFFFFFFFFFFFFFF AND EQ PUSH2 0x6D2 JUMPI PUSH1 0x40 MLOAD PUSH32 0x8C379A000000000000000000000000000000000000000000000000000000000 DUP2 MSTORE PUSH1 0x4 ADD PUSH2 0x6C9 SWAP1 PUSH2 0xD77 JUMP JUMPDEST PUSH1 0x40 MLOAD DUP1 SWAP2 SUB SWAP1 REVERT JUMPDEST DUP4 PUSH20 0xFFFFFFFFFFFFFFFFFFFFFFFFFFFFFFFFFFFFFFFF AND PUSH4 0xBEABACC8 DUP5 DUP5 DUP5 PUSH1 0x40 MLOAD DUP5 PUSH4 0xFFFFFFFF AND PUSH1 0xE0 SHL DUP2 MSTORE PUSH1 0x4 ADD PUSH2 0x70F SWAP4 SWAP3 SWAP2 SWAP1 PUSH2 0xE6C JUMP JUMPDEST PUSH0 PUSH1 0x40 MLOAD DUP1 DUP4 SUB DUP2 PUSH0 DUP8 DUP1 EXTCODESIZE ISZERO DUP1 ISZERO PUSH2 0x726 JUMPI PUSH0 DUP1 REVERT JUMPDEST POP GAS CALL ISZERO DUP1 ISZERO PUSH2 0x738 JUMPI RETURNDATASIZE PUSH0 DUP1 RETURNDATACOPY RETURNDATASIZE PUSH0 REVERT JUMPDEST POP POP POP POP POP POP POP POP JUMP JUMPDEST PUSH2 0x74A PUSH2 0xA21 JUMP JUMPDEST PUSH20 0xFFFFFFFFFFFFFFFFFFFFFFFFFFFFFFFFFFFFFFFF AND PUSH0 DUP1 SLOAD SWAP1 PUSH2 0x100 EXP SWAP1 DIV PUSH20 0xFFFFFFFFFFFFFFFFFFFFFFFFFFFFFFFFFFFFFFFF AND PUSH20 0xFFFFFFFFFFFFFFFFFFFFFFFFFFFFFFFFFFFFFFFF AND EQ PUSH2 0x7D6 JUMPI PUSH1 0x40 MLOAD PUSH32 0x8C379A000000000000000000000000000000000000000000000000000000000 DUP2 MSTORE PUSH1 0x4 ADD PUSH2 0x7CD SWAP1 PUSH2 0xD77 JUMP JUMPDEST PUSH1 0x40 MLOAD DUP1 SWAP2 SUB SWAP1 REVERT JUMPDEST PUSH0 PUSH20 0xFFFFFFFFFFFFFFFFFFFFFFFFFFFFFFFFFFFFFFFF AND DUP2 PUSH20 0xFFFFFFFFFFFFFFFFFFFFFFFFFFFFFFFFFFFFFFFF AND SUB PUSH2 0x844 JUMPI PUSH1 0x40 MLOAD PUSH32 0x8C379A000000000000000000000000000000000000000000000000000000000 DUP2 MSTORE PUSH1 0x4 ADD PUSH2 0x83B SWAP1 PUSH2 0xF11 JUMP JUMPDEST PUSH1 0x40 MLOAD DUP1 SWAP2 SUB SWAP1 REVERT JUMPDEST DUP1 PUSH20 0xFFFFFFFFFFFFFFFFFFFFFFFFFFFFFFFFFFFFFFFF AND PUSH0 DUP1 SLOAD SWAP1 PUSH2 0x100 EXP SWAP1 DIV PUSH20 0xFFFFFFFFFFFFFFFFFFFFFFFFFFFFFFFFFFFFFFFF AND PUSH20 0xFFFFFFFFFFFFFFFFFFFFFFFFFFFFFFFFFFFFFFFF AND PUSH32 0x8BE0079C531659141344CD1FD0A4F28419497F9722A3DAAFE3B4186F6B6457E0 PUSH1 0x40 MLOAD PUSH1 0x40 MLOAD DUP1 SWAP2 SUB SWAP1 LOG3 DUP1 PUSH0 DUP1 PUSH2 0x100 EXP DUP2 SLOAD DUP2 PUSH20 0xFFFFFFFFFFFFFFFFFFFFFFFFFFFFFFFFFFFFFFFF MUL NOT AND SWAP1 DUP4 PUSH20 0xFFFFFFFFFFFFFFFFFFFFFFFFFFFFFFFFFFFFFFFF AND MUL OR SWAP1 SSTORE POP POP JUMP JUMPDEST PUSH0 PUSH2 0x908 PUSH2 0xA21 JUMP JUMPDEST PUSH20 0xFFFFFFFFFFFFFFFFFFFFFFFFFFFFFFFFFFFFFFFF AND PUSH0 DUP1 SLOAD SWAP1 PUSH2 0x100 EXP SWAP1 DIV PUSH20 0xFFFFFFFFFFFFFFFFFFFFFFFFFFFFFFFFFFFFFFFF AND PUSH20 0xFFFFFFFFFFFFFFFFFFFFFFFFFFFFFFFFFFFFFFFF AND EQ PUSH2 0x994 JUMPI PUSH1 0x40 MLOAD PUSH32 0x8C379A000000000000000000000000000000000000000000000000000000000 DUP2 MSTORE PUSH1 0x4 ADD PUSH2 0x98B SWAP1 PUSH2 0xD77 JUMP JUMPDEST PUSH1 0x40 MLOAD DUP1 SWAP2 SUB SWAP1 REVERT JUMPDEST DUP7 PUSH20 0xFFFFFFFFFFFFFFFFFFFFFFFFFFFFFFFFFFFFFFFF AND PUSH4 0xCC1B4BF6 DUP8 DUP8 DUP8 DUP8 DUP8 PUSH1 0x40 MLOAD DUP7 PUSH4 0xFFFFFFFF AND PUSH1 0xE0 SHL DUP2 MSTORE PUSH1 0x4 ADD PUSH2 0x9D5 SWAP6 SWAP5 SWAP4 SWAP3 SWAP2 SWAP1 PUSH2 0xF2F JUMP JUMPDEST PUSH1 0x20 PUSH1 0x40 MLOAD DUP1 DUP4 SUB DUP2 PUSH0 DUP8 GAS CALL ISZERO DUP1 ISZERO PUSH2 0x9F1 JUMPI RETURNDATASIZE PUSH0 DUP1 RETURNDATACOPY RETURNDATASIZE PUSH0 REVERT JUMPDEST POP POP POP POP PUSH1 0x40 MLOAD RETURNDATASIZE PUSH1 0x1F NOT PUSH1 0x1F DUP3 ADD AND DUP3 ADD DUP1 PUSH1 0x40 MSTORE POP DUP2 ADD SWAP1 PUSH2 0xA15 SWAP2 SWAP1 PUSH2 0xF94 JUMP JUMPDEST SWAP1 POP SWAP7 SWAP6 POP POP POP POP POP POP JUMP JUMPDEST PUSH0 CALLER SWAP1 POP SWAP1 JUMP JUMPDEST PUSH0 DUP1 REVERT JUMPDEST PUSH0 PUSH20 0xFFFFFFFFFFFFFFFFFFFFFFFFFFFFFFFFFFFFFFFF DUP3 AND SWAP1 POP SWAP2 SWAP1 POP JUMP JUMPDEST PUSH0 PUSH2 0xA55 DUP3 PUSH2 0xA2C JUMP JUMPDEST SWAP1 POP SWAP2 SWAP1 POP JUMP JUMPDEST PUSH2 0xA65 DUP2 PUSH2 0xA4B JUMP JUMPDEST DUP2 EQ PUSH2 0xA6F JUMPI PUSH0 DUP1 REVERT JUMPDEST POP JUMP JUMPDEST PUSH0 DUP2 CALLDATALOAD SWAP1 POP PUSH2 0xA80 DUP2 PUSH2 0xA5C JUMP JUMPDEST SWAP3 SWAP2 POP POP JUMP JUMPDEST PUSH0 DUP2 SWAP1 POP SWAP2 SWAP1 POP JUMP JUMPDEST PUSH2 0xA98 DUP2 PUSH2 0xA86 JUMP JUMPDEST DUP2 EQ PUSH2 0xAA2 JUMPI PUSH0 DUP1 REVERT JUMPDEST POP JUMP JUMPDEST PUSH0 DUP2 CALLDATALOAD SWAP1 POP PUSH2 0xAB3 DUP2 PUSH2 0xA8F JUMP JUMPDEST SWAP3 SWAP2 POP POP JUMP JUMPDEST PUSH0 DUP1 PUSH0 PUSH1 0x60 DUP5 DUP7 SUB SLT ISZERO PUSH2 0xAD0 JUMPI PUSH2 0xACF PUSH2 0xA28 JUMP JUMPDEST JUMPDEST PUSH0 PUSH2 0xADD DUP7 DUP3 DUP8 ADD PUSH2 0xA72 JUMP JUMPDEST SWAP4 POP POP PUSH1 0x20 PUSH2 0xAEE DUP7 DUP3 DUP8 ADD PUSH2 0xAA5 JUMP JUMPDEST SWAP3 POP POP PUSH1 0x40 PUSH2 0xAFF DUP7 DUP3 DUP8 ADD PUSH2 0xAA5 JUMP JUMPDEST SWAP2 POP POP SWAP3 POP SWAP3 POP SWAP3 JUMP JUMPDEST PUSH0 DUP2 ISZERO ISZERO SWAP1 POP SWAP2 SWAP1 POP JUMP JUMPDEST PUSH2 0xB1D DUP2 PUSH2 0xB09 JUMP JUMPDEST DUP3 MSTORE POP POP JUMP JUMPDEST PUSH0 PUSH1 0x20 DUP3 ADD SWAP1 POP PUSH2 0xB36 PUSH0 DUP4 ADD DUP5 PUSH2 0xB14 JUMP JUMPDEST SWAP3 SWAP2 POP POP JUMP JUMPDEST PUSH0 PUSH2 0xB46 DUP3 PUSH2 0xA4B JUMP JUMPDEST SWAP1 POP SWAP2 SWAP1 POP JUMP JUMPDEST PUSH2 0xB56 DUP2 PUSH2 0xB3C JUMP JUMPDEST DUP2 EQ PUSH2 0xB60 JUMPI PUSH0 DUP1 REVERT JUMPDEST POP JUMP JUMPDEST PUSH0 DUP2 CALLDATALOAD SWAP1 POP PUSH2 0xB71 DUP2 PUSH2 0xB4D JUMP JUMPDEST SWAP3 SWAP2 POP POP JUMP JUMPDEST PUSH0 DUP1 PUSH0 DUP1 PUSH1 0x80 DUP6 DUP8 SUB SLT ISZERO PUSH2 0xB8F JUMPI PUSH2 0xB8E PUSH2 0xA28 JUMP JUMPDEST JUMPDEST PUSH0 PUSH2 0xB9C DUP8 DUP3 DUP9 ADD PUSH2 0xA72 JUMP JUMPDEST SWAP5 POP POP PUSH1 0x20 PUSH2 0xBAD DUP8 DUP3 DUP9 ADD PUSH2 0xB63 JUMP JUMPDEST SWAP4 POP POP PUSH1 0x40 PUSH2 0xBBE DUP8 DUP3 DUP9 ADD PUSH2 0xA72 JUMP JUMPDEST SWAP3 POP POP PUSH1 0x60 PUSH2 0xBCF DUP8 DUP3 DUP9 ADD PUSH2 0xAA5 JUMP JUMPDEST SWAP2 POP POP SWAP3 SWAP6 SWAP2 SWAP5 POP SWAP3 POP JUMP JUMPDEST PUSH0 DUP1 PUSH1 0x40 DUP4 DUP6 SUB SLT ISZERO PUSH2 0xBF1 JUMPI PUSH2 0xBF0 PUSH2 0xA28 JUMP JUMPDEST JUMPDEST PUSH0 PUSH2 0xBFE DUP6 DUP3 DUP7 ADD PUSH2 0xA72 JUMP JUMPDEST SWAP3 POP POP PUSH1 0x20 PUSH2 0xC0F DUP6 DUP3 DUP7 ADD PUSH2 0xAA5 JUMP JUMPDEST SWAP2 POP POP SWAP3 POP SWAP3 SWAP1 POP JUMP JUMPDEST PUSH2 0xC22 DUP2 PUSH2 0xA4B JUMP JUMPDEST DUP3 MSTORE POP POP JUMP JUMPDEST PUSH0 PUSH1 0x20 DUP3 ADD SWAP1 POP PUSH2 0xC3B PUSH0 DUP4 ADD DUP5 PUSH2 0xC19 JUMP JUMPDEST SWAP3 SWAP2 POP POP JUMP JUMPDEST PUSH0 PUSH1 0x20 DUP3 DUP5 SUB SLT ISZERO PUSH2 0xC56 JUMPI PUSH2 0xC55 PUSH2 0xA28 JUMP JUMPDEST JUMPDEST PUSH0 PUSH2 0xC63 DUP5 DUP3 DUP6 ADD PUSH2 0xA72 JUMP JUMPDEST SWAP2 POP POP SWAP3 SWAP2 POP POP JUMP JUMPDEST PUSH0 DUP1 PUSH0 DUP1 PUSH0 DUP1 PUSH1 0xC0 DUP8 DUP10 SUB SLT ISZERO PUSH2 0xC86 JUMPI PUSH2 0xC85 PUSH2 0xA28 JUMP JUMPDEST JUMPDEST PUSH0 PUSH2 0xC93 DUP10 DUP3 DUP11 ADD PUSH2 0xA72 JUMP JUMPDEST SWAP7 POP POP PUSH1 0x20 PUSH2 0xCA4 DUP10 DUP3 DUP11 ADD PUSH2 0xA72 JUMP JUMPDEST SWAP6 POP POP PUSH1 0x40 PUSH2 0xCB5 DUP10 DUP3 DUP11 ADD PUSH2 0xAA5 JUMP JUMPDEST SWAP5 POP POP PUSH1 0x60 PUSH2 0xCC6 DUP10 DUP3 DUP11 ADD PUSH2 0xB63 JUMP JUMPDEST SWAP4 POP POP PUSH1 0x80 PUSH2 0xCD7 DUP10 DUP3 DUP11 ADD PUSH2 0xAA5 JUMP JUMPDEST SWAP3 POP POP PUSH1 0xA0 PUSH2 0xCE8 DUP10 DUP3 DUP11 ADD PUSH2 0xAA5 JUMP JUMPDEST SWAP2 POP POP SWAP3 SWAP6 POP SWAP3 SWAP6 POP SWAP3 SWAP6 JUMP JUMPDEST PUSH2 0xCFE DUP2 PUSH2 0xA86 JUMP JUMPDEST DUP3 MSTORE POP POP JUMP JUMPDEST PUSH0 PUSH1 0x20 DUP3 ADD SWAP1 POP PUSH2 0xD17 PUSH0 DUP4 ADD DUP5 PUSH2 0xCF5 JUMP JUMPDEST SWAP3 SWAP2 POP POP JUMP JUMPDEST PUSH0 DUP3 DUP3 MSTORE PUSH1 0x20 DUP3 ADD SWAP1 POP SWAP3 SWAP2 POP POP JUMP JUMPDEST PUSH32 0x4F776E61626C653A2063616C6C6572206973206E6F7420746865206F776E6572 PUSH0 DUP3 ADD MSTORE POP JUMP JUMPDEST PUSH0 PUSH2 0xD61 PUSH1 0x20 DUP4 PUSH2 0xD1D JUMP JUMPDEST SWAP2 POP PUSH2 0xD6C DUP3 PUSH2 0xD2D JUMP JUMPDEST PUSH1 0x20 DUP3 ADD SWAP1 POP SWAP2 SWAP1 POP JUMP JUMPDEST PUSH0 PUSH1 0x20 DUP3 ADD SWAP1 POP DUP2 DUP2 SUB PUSH0 DUP4 ADD MSTORE PUSH2 0xD8E DUP2 PUSH2 0xD55 JUMP JUMPDEST SWAP1 POP SWAP2 SWAP1 POP JUMP JUMPDEST PUSH0 PUSH1 0x40 DUP3 ADD SWAP1 POP PUSH2 0xDA8 PUSH0 DUP4 ADD DUP6 PUSH2 0xCF5 JUMP JUMPDEST PUSH2 0xDB5 PUSH1 0x20 DUP4 ADD DUP5 PUSH2 0xCF5 JUMP JUMPDEST SWAP4 SWAP3 POP POP POP JUMP JUMPDEST PUSH2 0xDC5 DUP2 PUSH2 0xB09 JUMP JUMPDEST DUP2 EQ PUSH2 0xDCF JUMPI PUSH0 DUP1 REVERT JUMPDEST POP JUMP JUMPDEST PUSH0 DUP2 MLOAD SWAP1 POP PUSH2 0xDE0 DUP2 PUSH2 0xDBC JUMP JUMPDEST SWAP3 SWAP2 POP POP JUMP JUMPDEST PUSH0 PUSH1 0x20 DUP3 DUP5 SUB SLT ISZERO PUSH2 0xDFB JUMPI PUSH2 0xDFA PUSH2 0xA28 JUMP JUMPDEST JUMPDEST PUSH0 PUSH2 0xE08 DUP5 DUP3 DUP6 ADD PUSH2 0xDD2 JUMP JUMPDEST SWAP2 POP POP SWAP3 SWAP2 POP POP JUMP JUMPDEST PUSH0 DUP2 SWAP1 POP SWAP2 SWAP1 POP JUMP JUMPDEST PUSH0 PUSH2 0xE34 PUSH2 0xE2F PUSH2 0xE2A DUP5 PUSH2 0xA2C JUMP JUMPDEST PUSH2 0xE11 JUMP JUMPDEST PUSH2 0xA2C JUMP JUMPDEST SWAP1 POP SWAP2 SWAP1 POP JUMP JUMPDEST PUSH0 PUSH2 0xE45 DUP3 PUSH2 0xE1A JUMP JUMPDEST SWAP1 POP SWAP2 SWAP1 POP JUMP JUMPDEST PUSH0 PUSH2 0xE56 DUP3 PUSH2 0xE3B JUMP JUMPDEST SWAP1 POP SWAP2 SWAP1 POP JUMP JUMPDEST PUSH2 0xE66 DUP2 PUSH2 0xE4C JUMP JUMPDEST DUP3 MSTORE POP POP JUMP JUMPDEST PUSH0 PUSH1 0x60 DUP3 ADD SWAP1 POP PUSH2 0xE7F PUSH0 DUP4 ADD DUP7 PUSH2 0xE5D JUMP JUMPDEST PUSH2 0xE8C PUSH1 0x20 DUP4 ADD DUP6 PUSH2 0xC19 JUMP JUMPDEST PUSH2 0xE99 PUSH1 0x40 DUP4 ADD DUP5 PUSH2 0xCF5 JUMP JUMPDEST SWAP5 SWAP4 POP POP POP POP JUMP JUMPDEST PUSH32 0x4F776E61626C653A206E6577206F776E657220697320746865207A65726F2061 PUSH0 DUP3 ADD MSTORE PUSH32 0x6464726573730000000000000000000000000000000000000000000000000000 PUSH1 0x20 DUP3 ADD MSTORE POP JUMP JUMPDEST PUSH0 PUSH2 0xEFB PUSH1 0x26 DUP4 PUSH2 0xD1D JUMP JUMPDEST SWAP2 POP PUSH2 0xF06 DUP3 PUSH2 0xEA1 JUMP JUMPDEST PUSH1 0x40 DUP3 ADD SWAP1 POP SWAP2 SWAP1 POP JUMP JUMPDEST PUSH0 PUSH1 0x20 DUP3 ADD SWAP1 POP DUP2 DUP2 SUB PUSH0 DUP4 ADD MSTORE PUSH2 0xF28 DUP2 PUSH2 0xEEF JUMP JUMPDEST SWAP1 POP SWAP2 SWAP1 POP JUMP JUMPDEST PUSH0 PUSH1 0xA0 DUP3 ADD SWAP1 POP PUSH2 0xF42 PUSH0 DUP4 ADD DUP9 PUSH2 0xC19 JUMP JUMPDEST PUSH2 0xF4F PUSH1 0x20 DUP4 ADD DUP8 PUSH2 0xCF5 JUMP JUMPDEST PUSH2 0xF5C PUSH1 0x40 DUP4 ADD DUP7 PUSH2 0xC19 JUMP JUMPDEST PUSH2 0xF69 PUSH1 0x60 DUP4 ADD DUP6 PUSH2 0xCF5 JUMP JUMPDEST PUSH2 0xF76 PUSH1 0x80 DUP4 ADD DUP5 PUSH2 0xCF5 JUMP JUMPDEST SWAP7 SWAP6 POP POP POP POP POP POP JUMP JUMPDEST PUSH0 DUP2 MLOAD SWAP1 POP PUSH2 0xF8E DUP2 PUSH2 0xA8F JUMP JUMPDEST SWAP3 SWAP2 POP POP JUMP JUMPDEST PUSH0 PUSH1 0x20 DUP3 DUP5 SUB SLT ISZERO PUSH2 0xFA9 JUMPI PUSH2 0xFA8 PUSH2 0xA28 JUMP JUMPDEST JUMPDEST PUSH0 PUSH2 0xFB6 DUP5 DUP3 DUP6 ADD PUSH2 0xF80 JUMP JUMPDEST SWAP2 POP POP SWAP3 SWAP2 POP POP JUMP INVALID LOG2 PUSH5 0x6970667358 0x22 SLT KECCAK256 GT MSTORE DUP6 0xE6 0xE2 BLOCKHASH SUB PREVRANDAO 0xB0 PUSH25 0xB6D22A930E0A0B9FD5CAEB061DBD03EC0A729367343B64736F PUSH13 0x634300081A0033000000000000 "
				},
				"gasEstimates": {
					"creation": {
						"codeDepositCost": "817000",
						"executionCost": "infinite",
						"totalCost": "infinite"
					},
					"external": {
						"approve(address,address,address,uint256)": "infinite",
						"cancelStream(address,uint256)": "infinite",
						"createStream(address,address,uint256,address,uint256,uint256)": "infinite",
						"owner()": "2515",
						"renounceOwnership()": "30329",
						"transfer(address,address,address,uint256)": "infinite",
						"transferOwnership(address)": "30670",
						"withdrawFromStream(address,uint256,uint256)": "infinite"
					}
				},
				"methodIdentifiers": {
					"approve(address,address,address,uint256)": "59eba454",
					"cancelStream(address,uint256)": "7dc14a8e",
					"createStream(address,address,uint256,address,uint256,uint256)": "fd59e134",
					"owner()": "8da5cb5b",
					"renounceOwnership()": "715018a6",
					"transfer(address,address,address,uint256)": "f18d03cc",
					"transferOwnership(address)": "f2fde38b",
					"withdrawFromStream(address,uint256,uint256)": "2f436bfa"
				}
			},
			"storageLayout": {
				"storage": [
					{
						"astId": 111,
						"contract": "contracts/treasury/AaveEcosystemReserveController.sol:AaveEcosystemReserveController",
						"label": "_owner",
						"offset": 0,
						"slot": "0",
						"type": "t_address"
					}
				],
				"types": {
					"t_address": {
						"encoding": "inplace",
						"label": "address",
						"numberOfBytes": "20"
					}
				}
			},
			"userdoc": {
				"kind": "user",
				"methods": {
					"approve(address,address,address,uint256)": {
						"notice": "Proxy function for ERC20's approve(), pointing to a specific collector contract"
					},
					"cancelStream(address,uint256)": {
						"notice": "Proxy function to cancel a stream of token on a specific collector contract"
					},
					"constructor": {
						"notice": "Constructor."
					},
					"createStream(address,address,uint256,address,uint256,uint256)": {
						"notice": "Proxy function to create a stream of token on a specific collector contract"
					},
					"transfer(address,address,address,uint256)": {
						"notice": "Proxy function for ERC20's transfer(), pointing to a specific collector contract"
					},
					"withdrawFromStream(address,uint256,uint256)": {
						"notice": "Proxy function to withdraw from a stream of token on a specific collector contract"
					}
				},
				"version": 1
			}
		}
	}
}