{
	"data": {
		"bytecode": {
			"linkReferences": {},
			"object": "6080604052348015600e575f80fd5b50613e3a8061001c5f395ff3fe608060405234801561000f575f80fd5b506004361061003f575f3560e01c80634763753614610043578063799bdcf514610074578063976fafc5146100a4575b5f80fd5b61005d60048036038101906100589190612eb8565b6100d4565b60405161006b9291906135bb565b60405180910390f35b61008e60048036038101906100899190612eb8565b6100f5565b60405161009b91906135f0565b60405180910390f35b6100be60048036038101906100b99190613610565b610109565b6040516100cb919061363b565b60405180910390f35b6060806100e08461011b565b6100ea8585611676565b915091509250929050565b60606101018383611676565b905092915050565b60606101148261011b565b9050919050565b60605f8273ffffffffffffffffffffffffffffffffffffffff1663026b1d5f6040518163ffffffff1660e01b8152600401602060405180830381865afa158015610167573d5f803e3d5ffd5b505050506040513d601f19601f8201168201806040525081019061018b919061366f565b90505f8173ffffffffffffffffffffffffffffffffffffffff1663d1946dbc6040518163ffffffff1660e01b81526004015f60405180830381865afa1580156101d6573d5f803e3d5ffd5b505050506040513d5f823e3d601f19601f820116820180604052508101906101fe91906137da565b90505f815167ffffffffffffffff81111561021c5761021b61369e565b5b60405190808252806020026020018201604052801561025557816020015b610242612be9565b81526020019060019003908161023a5790505b5090505f5b825181101561166a575f82828151811061027757610276613821565b5b6020026020010151905083828151811061029457610293613821565b5b6020026020010151815f019073ffffffffffffffffffffffffffffffffffffffff16908173ffffffffffffffffffffffffffffffffffffffff16815250505f8573ffffffffffffffffffffffffffffffffffffffff166335ea6a7586858151811061030257610301613821565b5b60200260200101516040518263ffffffff1660e01b8152600401610326919061385d565b6101e060405180830381865afa158015610342573d5f803e3d5ffd5b505050506040513d601f19601f820116820180604052508101906103669190613af4565b90505f81610100015173ffffffffffffffffffffffffffffffffffffffff166375d264136040518163ffffffff1660e01b8152600401602060405180830381865afa1580156103b7573d5f803e3d5ffd5b505050506040513d601f19601f820116820180604052508101906103db9190613b5b565b905060605f73ffffffffffffffffffffffffffffffffffffffff168273ffffffffffffffffffffffffffffffffffffffff1614610963575f8273ffffffffffffffffffffffffffffffffffffffff16636657732f8561010001516040518263ffffffff1660e01b8152600401610451919061385d565b5f60405180830381865afa15801561046b573d5f803e3d5ffd5b505050506040513d5f823e3d601f19601f8201168201806040525081019061049391906137da565b9050805167ffffffffffffffff8111156104b0576104af61369e565b5b6040519080825280602002602001820160405280156104e957816020015b6104d6612c38565b8152602001906001900390816104ce5790505b5091505f5b8151811015610960576104ff612c38565b82828151811061051257610511613821565b5b6020026020010151816020019073ffffffffffffffffffffffffffffffffffffffff16908173ffffffffffffffffffffffffffffffffffffffff16815250508473ffffffffffffffffffffffffffffffffffffffff16637eff4ba887610100015183602001516040518363ffffffff1660e01b8152600401610595929190613b86565b608060405180830381865afa1580156105b0573d5f803e3d5ffd5b505050506040513d601f19601f820116820180604052508101906105d49190613bad565b8460a00185606001866080018760c00184815250848152508481525084815250505050508473ffffffffffffffffffffffffffffffffffffffff16639efd6f728761010001516040518263ffffffff1660e01b8152600401610636919061385d565b602060405180830381865afa158015610651573d5f803e3d5ffd5b505050506040513d601f19601f820116820180604052508101906106759190613c3b565b81610120019060ff16908160ff1681525050806020015173ffffffffffffffffffffffffffffffffffffffff1663313ce5676040518163ffffffff1660e01b8152600401602060405180830381865afa1580156106d4573d5f803e3d5ffd5b505050506040513d601f19601f820116820180604052508101906106f89190613c3b565b81610100019060ff16908160ff1681525050806020015173ffffffffffffffffffffffffffffffffffffffff166395d89b416040518163ffffffff1660e01b81526004015f60405180830381865afa158015610756573d5f803e3d5ffd5b505050506040513d5f823e3d601f19601f8201168201806040525081019061077e9190613d08565b815f01819052508473ffffffffffffffffffffffffffffffffffffffff16632a17bf6082602001516040518263ffffffff1660e01b81526004016107c2919061385d565b602060405180830381865afa1580156107dd573d5f803e3d5ffd5b505050506040513d601f19601f82011682018060405250810190610801919061366f565b816040019073ffffffffffffffffffffffffffffffffffffffff16908173ffffffffffffffffffffffffffffffffffffffff1681525050806040015173ffffffffffffffffffffffffffffffffffffffff1663313ce5676040518163ffffffff1660e01b8152600401602060405180830381865afa158015610885573d5f803e3d5ffd5b505050506040513d601f19601f820116820180604052508101906108a99190613c3b565b81610140019060ff16908160ff1681525050806040015173ffffffffffffffffffffffffffffffffffffffff166350d25bcd6040518163ffffffff1660e01b8152600401602060405180830381865afa158015610908573d5f803e3d5ffd5b505050506040513d601f19601f8201168201806040525081019061092c9190613d79565b8160e00181815250508084838151811061094957610948613821565b5b6020026020010181905250508060010190506104ee565b50505b604051806060016040528084610100015173ffffffffffffffffffffffffffffffffffffffff1681526020018373ffffffffffffffffffffffffffffffffffffffff1681526020018281525084602001819052505f83610140015173ffffffffffffffffffffffffffffffffffffffff166375d264136040518163ffffffff1660e01b8152600401602060405180830381865afa158015610a06573d5f803e3d5ffd5b505050506040513d601f19601f82011682018060405250810190610a2a9190613b5b565b905060605f73ffffffffffffffffffffffffffffffffffffffff168273ffffffffffffffffffffffffffffffffffffffff1614610fb2575f8273ffffffffffffffffffffffffffffffffffffffff16636657732f8761014001516040518263ffffffff1660e01b8152600401610aa0919061385d565b5f60405180830381865afa158015610aba573d5f803e3d5ffd5b505050506040513d5f823e3d601f19601f82011682018060405250810190610ae291906137da565b9050805167ffffffffffffffff811115610aff57610afe61369e565b5b604051908082528060200260200182016040528015610b3857816020015b610b25612c38565b815260200190600190039081610b1d5790505b5091505f5b8151811015610faf57610b4e612c38565b828281518110610b6157610b60613821565b5b6020026020010151816020019073ffffffffffffffffffffffffffffffffffffffff16908173ffffffffffffffffffffffffffffffffffffffff16815250508473ffffffffffffffffffffffffffffffffffffffff16637eff4ba889610140015183602001516040518363ffffffff1660e01b8152600401610be4929190613b86565b608060405180830381865afa158015610bff573d5f803e3d5ffd5b505050506040513d601f19601f82011682018060405250810190610c239190613bad565b8460a00185606001866080018760c00184815250848152508481525084815250505050508473ffffffffffffffffffffffffffffffffffffffff16639efd6f728961014001516040518263ffffffff1660e01b8152600401610c85919061385d565b602060405180830381865afa158015610ca0573d5f803e3d5ffd5b505050506040513d601f19601f82011682018060405250810190610cc49190613c3b565b81610120019060ff16908160ff1681525050806020015173ffffffffffffffffffffffffffffffffffffffff1663313ce5676040518163ffffffff1660e01b8152600401602060405180830381865afa158015610d23573d5f803e3d5ffd5b505050506040513d601f19601f82011682018060405250810190610d479190613c3b565b81610100019060ff16908160ff1681525050806020015173ffffffffffffffffffffffffffffffffffffffff166395d89b416040518163ffffffff1660e01b81526004015f60405180830381865afa158015610da5573d5f803e3d5ffd5b505050506040513d5f823e3d601f19601f82011682018060405250810190610dcd9190613d08565b815f01819052508473ffffffffffffffffffffffffffffffffffffffff16632a17bf6082602001516040518263ffffffff1660e01b8152600401610e11919061385d565b602060405180830381865afa158015610e2c573d5f803e3d5ffd5b505050506040513d601f19601f82011682018060405250810190610e50919061366f565b816040019073ffffffffffffffffffffffffffffffffffffffff16908173ffffffffffffffffffffffffffffffffffffffff1681525050806040015173ffffffffffffffffffffffffffffffffffffffff1663313ce5676040518163ffffffff1660e01b8152600401602060405180830381865afa158015610ed4573d5f803e3d5ffd5b505050506040513d601f19601f82011682018060405250810190610ef89190613c3b565b81610140019060ff16908160ff1681525050806040015173ffffffffffffffffffffffffffffffffffffffff166350d25bcd6040518163ffffffff1660e01b8152600401602060405180830381865afa158015610f57573d5f803e3d5ffd5b505050506040513d601f19601f82011682018060405250810190610f7b9190613d79565b8160e001818152505080848381518110610f9857610f97613821565b5b602002602001018190525050806001019050610b3d565b50505b604051806060016040528086610140015173ffffffffffffffffffffffffffffffffffffffff1681526020018373ffffffffffffffffffffffffffffffffffffffff1681526020018281525086604001819052505f85610120015173ffffffffffffffffffffffffffffffffffffffff166375d264136040518163ffffffff1660e01b8152600401602060405180830381865afa158015611055573d5f803e3d5ffd5b505050506040513d601f19601f820116820180604052508101906110799190613b5b565b905060605f73ffffffffffffffffffffffffffffffffffffffff168273ffffffffffffffffffffffffffffffffffffffff1614611601575f8273ffffffffffffffffffffffffffffffffffffffff16636657732f8961012001516040518263ffffffff1660e01b81526004016110ef919061385d565b5f60405180830381865afa158015611109573d5f803e3d5ffd5b505050506040513d5f823e3d601f19601f8201168201806040525081019061113191906137da565b9050805167ffffffffffffffff81111561114e5761114d61369e565b5b60405190808252806020026020018201604052801561118757816020015b611174612c38565b81526020019060019003908161116c5790505b5091505f5b81518110156115fe5761119d612c38565b8282815181106111b0576111af613821565b5b6020026020010151816020019073ffffffffffffffffffffffffffffffffffffffff16908173ffffffffffffffffffffffffffffffffffffffff16815250508473ffffffffffffffffffffffffffffffffffffffff16637eff4ba88b610120015183602001516040518363ffffffff1660e01b8152600401611233929190613b86565b608060405180830381865afa15801561124e573d5f803e3d5ffd5b505050506040513d601f19601f820116820180604052508101906112729190613bad565b8460a00185606001866080018760c00184815250848152508481525084815250505050508473ffffffffffffffffffffffffffffffffffffffff16639efd6f728b61012001516040518263ffffffff1660e01b81526004016112d4919061385d565b602060405180830381865afa1580156112ef573d5f803e3d5ffd5b505050506040513d601f19601f820116820180604052508101906113139190613c3b565b81610120019060ff16908160ff1681525050806020015173ffffffffffffffffffffffffffffffffffffffff1663313ce5676040518163ffffffff1660e01b8152600401602060405180830381865afa158015611372573d5f803e3d5ffd5b505050506040513d601f19601f820116820180604052508101906113969190613c3b565b81610100019060ff16908160ff1681525050806020015173ffffffffffffffffffffffffffffffffffffffff166395d89b416040518163ffffffff1660e01b81526004015f60405180830381865afa1580156113f4573d5f803e3d5ffd5b505050506040513d5f823e3d601f19601f8201168201806040525081019061141c9190613d08565b815f01819052508473ffffffffffffffffffffffffffffffffffffffff16632a17bf6082602001516040518263ffffffff1660e01b8152600401611460919061385d565b602060405180830381865afa15801561147b573d5f803e3d5ffd5b505050506040513d601f19601f8201168201806040525081019061149f919061366f565b816040019073ffffffffffffffffffffffffffffffffffffffff16908173ffffffffffffffffffffffffffffffffffffffff1681525050806040015173ffffffffffffffffffffffffffffffffffffffff1663313ce5676040518163ffffffff1660e01b8152600401602060405180830381865afa158015611523573d5f803e3d5ffd5b505050506040513d601f19601f820116820180604052508101906115479190613c3b565b81610140019060ff16908160ff1681525050806040015173ffffffffffffffffffffffffffffffffffffffff166350d25bcd6040518163ffffffff1660e01b8152600401602060405180830381865afa1580156115a6573d5f803e3d5ffd5b505050506040513d601f19601f820116820180604052508101906115ca9190613d79565b8160e0018181525050808483815181106115e7576115e6613821565b5b60200260200101819052505080600101905061118c565b50505b604051806060016040528088610120015173ffffffffffffffffffffffffffffffffffffffff1681526020018373ffffffffffffffffffffffffffffffffffffffff1681526020018281525088606001819052505050505050505050808060010191505061025a565b50809350505050919050565b60605f8373ffffffffffffffffffffffffffffffffffffffff1663026b1d5f6040518163ffffffff1660e01b8152600401602060405180830381865afa1580156116c2573d5f803e3d5ffd5b505050506040513d601f19601f820116820180604052508101906116e6919061366f565b90505f8173ffffffffffffffffffffffffffffffffffffffff1663d1946dbc6040518163ffffffff1660e01b81526004015f60405180830381865afa158015611731573d5f803e3d5ffd5b505050506040513d5f823e3d601f19601f8201168201806040525081019061175991906137da565b90505f8073ffffffffffffffffffffffffffffffffffffffff168573ffffffffffffffffffffffffffffffffffffffff1603611795575f611798565b81515b67ffffffffffffffff8111156117b1576117b061369e565b5b6040519080825280602002602001820160405280156117ea57816020015b6117d7612cbd565b8152602001906001900390816117cf5790505b5090505f5b8251811015612bdc575f8473ffffffffffffffffffffffffffffffffffffffff166335ea6a7585848151811061182857611827613821565b5b60200260200101516040518263ffffffff1660e01b815260040161184c919061385d565b6101e060405180830381865afa158015611868573d5f803e3d5ffd5b505050506040513d601f19601f8201168201806040525081019061188c9190613af4565b90508382815181106118a1576118a0613821565b5b60200260200101518383815181106118bc576118bb613821565b5b60200260200101515f019073ffffffffffffffffffffffffffffffffffffffff16908173ffffffffffffffffffffffffffffffffffffffff16815250505f81610100015173ffffffffffffffffffffffffffffffffffffffff166375d264136040518163ffffffff1660e01b8152600401602060405180830381865afa158015611948573d5f803e3d5ffd5b505050506040513d601f19601f8201168201806040525081019061196c9190613b5b565b90505f73ffffffffffffffffffffffffffffffffffffffff168173ffffffffffffffffffffffffffffffffffffffff1614611f3f575f8173ffffffffffffffffffffffffffffffffffffffff16636657732f8461010001516040518263ffffffff1660e01b81526004016119e0919061385d565b5f60405180830381865afa1580156119fa573d5f803e3d5ffd5b505050506040513d5f823e3d601f19601f82011682018060405250810190611a2291906137da565b90505f815167ffffffffffffffff811115611a4057611a3f61369e565b5b604051908082528060200260200182016040528015611a7957816020015b611a66612d0c565b815260200190600190039081611a5e5790505b5090505f5b8251811015611ecd57611a8f612d0c565b838281518110611aa257611aa1613821565b5b6020026020010151816040019073ffffffffffffffffffffffffffffffffffffffff16908173ffffffffffffffffffffffffffffffffffffffff16815250508473ffffffffffffffffffffffffffffffffffffffff1663533f542a8d88610100015184604001516040518463ffffffff1660e01b8152600401611b2793929190613da4565b602060405180830381865afa158015611b42573d5f803e3d5ffd5b505050506040513d601f19601f82011682018060405250810190611b669190613dd9565b8160800181815250508473ffffffffffffffffffffffffffffffffffffffff1663b022418c8d83604001516040518363ffffffff1660e01b8152600401611bae929190613b86565b602060405180830381865afa158015611bc9573d5f803e3d5ffd5b505050506040513d601f19601f82011682018060405250810190611bed9190613dd9565b816060018181525050806040015173ffffffffffffffffffffffffffffffffffffffff1663313ce5676040518163ffffffff1660e01b8152600401602060405180830381865afa158015611c43573d5f803e3d5ffd5b505050506040513d601f19601f82011682018060405250810190611c679190613c3b565b8160e0019060ff16908160ff1681525050806040015173ffffffffffffffffffffffffffffffffffffffff166395d89b416040518163ffffffff1660e01b81526004015f60405180830381865afa158015611cc4573d5f803e3d5ffd5b505050506040513d5f823e3d601f19601f82011682018060405250810190611cec9190613d08565b815f01819052508473ffffffffffffffffffffffffffffffffffffffff16632a17bf6082604001516040518263ffffffff1660e01b8152600401611d30919061385d565b602060405180830381865afa158015611d4b573d5f803e3d5ffd5b505050506040513d601f19601f82011682018060405250810190611d6f919061366f565b816020019073ffffffffffffffffffffffffffffffffffffffff16908173ffffffffffffffffffffffffffffffffffffffff1681525050806020015173ffffffffffffffffffffffffffffffffffffffff1663313ce5676040518163ffffffff1660e01b8152600401602060405180830381865afa158015611df3573d5f803e3d5ffd5b505050506040513d601f19601f82011682018060405250810190611e179190613c3b565b8160c0019060ff16908160ff1681525050806020015173ffffffffffffffffffffffffffffffffffffffff166350d25bcd6040518163ffffffff1660e01b8152600401602060405180830381865afa158015611e75573d5f803e3d5ffd5b505050506040513d601f19601f82011682018060405250810190611e999190613d79565b8160a001818152505080838381518110611eb657611eb5613821565b5b602002602001018190525050806001019050611a7e565b50604051806060016040528085610100015173ffffffffffffffffffffffffffffffffffffffff1681526020018473ffffffffffffffffffffffffffffffffffffffff16815260200182815250868681518110611f2d57611f2c613821565b5b60200260200101516020018190525050505b5f82610140015173ffffffffffffffffffffffffffffffffffffffff166375d264136040518163ffffffff1660e01b8152600401602060405180830381865afa158015611f8e573d5f803e3d5ffd5b505050506040513d601f19601f82011682018060405250810190611fb29190613b5b565b90505f73ffffffffffffffffffffffffffffffffffffffff168173ffffffffffffffffffffffffffffffffffffffff1614612585575f8173ffffffffffffffffffffffffffffffffffffffff16636657732f8561014001516040518263ffffffff1660e01b8152600401612026919061385d565b5f60405180830381865afa158015612040573d5f803e3d5ffd5b505050506040513d5f823e3d601f19601f8201168201806040525081019061206891906137da565b90505f815167ffffffffffffffff8111156120865761208561369e565b5b6040519080825280602002602001820160405280156120bf57816020015b6120ac612d0c565b8152602001906001900390816120a45790505b5090505f5b8251811015612513576120d5612d0c565b8382815181106120e8576120e7613821565b5b6020026020010151816040019073ffffffffffffffffffffffffffffffffffffffff16908173ffffffffffffffffffffffffffffffffffffffff16815250508473ffffffffffffffffffffffffffffffffffffffff1663533f542a8e89610140015184604001516040518463ffffffff1660e01b815260040161216d93929190613da4565b602060405180830381865afa158015612188573d5f803e3d5ffd5b505050506040513d601f19601f820116820180604052508101906121ac9190613dd9565b8160800181815250508473ffffffffffffffffffffffffffffffffffffffff1663b022418c8e83604001516040518363ffffffff1660e01b81526004016121f4929190613b86565b602060405180830381865afa15801561220f573d5f803e3d5ffd5b505050506040513d601f19601f820116820180604052508101906122339190613dd9565b816060018181525050806040015173ffffffffffffffffffffffffffffffffffffffff1663313ce5676040518163ffffffff1660e01b8152600401602060405180830381865afa158015612289573d5f803e3d5ffd5b505050506040513d601f19601f820116820180604052508101906122ad9190613c3b565b8160e0019060ff16908160ff1681525050806040015173ffffffffffffffffffffffffffffffffffffffff166395d89b416040518163ffffffff1660e01b81526004015f60405180830381865afa15801561230a573d5f803e3d5ffd5b505050506040513d5f823e3d601f19601f820116820180604052508101906123329190613d08565b815f01819052508473ffffffffffffffffffffffffffffffffffffffff16632a17bf6082604001516040518263ffffffff1660e01b8152600401612376919061385d565b602060405180830381865afa158015612391573d5f803e3d5ffd5b505050506040513d601f19601f820116820180604052508101906123b5919061366f565b816020019073ffffffffffffffffffffffffffffffffffffffff16908173ffffffffffffffffffffffffffffffffffffffff1681525050806020015173ffffffffffffffffffffffffffffffffffffffff1663313ce5676040518163ffffffff1660e01b8152600401602060405180830381865afa158015612439573d5f803e3d5ffd5b505050506040513d601f19601f8201168201806040525081019061245d9190613c3b565b8160c0019060ff16908160ff1681525050806020015173ffffffffffffffffffffffffffffffffffffffff166350d25bcd6040518163ffffffff1660e01b8152600401602060405180830381865afa1580156124bb573d5f803e3d5ffd5b505050506040513d601f19601f820116820180604052508101906124df9190613d79565b8160a0018181525050808383815181106124fc576124fb613821565b5b6020026020010181905250508060010190506120c4565b50604051806060016040528086610140015173ffffffffffffffffffffffffffffffffffffffff1681526020018573ffffffffffffffffffffffffffffffffffffffff1681526020018281525087878151811061257357612572613821565b5b60200260200101516040018190525050505b5f83610120015173ffffffffffffffffffffffffffffffffffffffff166375d264136040518163ffffffff1660e01b8152600401602060405180830381865afa1580156125d4573d5f803e3d5ffd5b505050506040513d601f19601f820116820180604052508101906125f89190613b5b565b90505f73ffffffffffffffffffffffffffffffffffffffff168173ffffffffffffffffffffffffffffffffffffffff1614612bcb575f8173ffffffffffffffffffffffffffffffffffffffff16636657732f8661012001516040518263ffffffff1660e01b815260040161266c919061385d565b5f60405180830381865afa158015612686573d5f803e3d5ffd5b505050506040513d5f823e3d601f19601f820116820180604052508101906126ae91906137da565b90505f815167ffffffffffffffff8111156126cc576126cb61369e565b5b60405190808252806020026020018201604052801561270557816020015b6126f2612d0c565b8152602001906001900390816126ea5790505b5090505f5b8251811015612b595761271b612d0c565b83828151811061272e5761272d613821565b5b6020026020010151816040019073ffffffffffffffffffffffffffffffffffffffff16908173ffffffffffffffffffffffffffffffffffffffff16815250508473ffffffffffffffffffffffffffffffffffffffff1663533f542a8f8a610120015184604001516040518463ffffffff1660e01b81526004016127b393929190613da4565b602060405180830381865afa1580156127ce573d5f803e3d5ffd5b505050506040513d601f19601f820116820180604052508101906127f29190613dd9565b8160800181815250508473ffffffffffffffffffffffffffffffffffffffff1663b022418c8f83604001516040518363ffffffff1660e01b815260040161283a929190613b86565b602060405180830381865afa158015612855573d5f803e3d5ffd5b505050506040513d601f19601f820116820180604052508101906128799190613dd9565b816060018181525050806040015173ffffffffffffffffffffffffffffffffffffffff1663313ce5676040518163ffffffff1660e01b8152600401602060405180830381865afa1580156128cf573d5f803e3d5ffd5b505050506040513d601f19601f820116820180604052508101906128f39190613c3b565b8160e0019060ff16908160ff1681525050806040015173ffffffffffffffffffffffffffffffffffffffff166395d89b416040518163ffffffff1660e01b81526004015f60405180830381865afa158015612950573d5f803e3d5ffd5b505050506040513d5f823e3d601f19601f820116820180604052508101906129789190613d08565b815f01819052508473ffffffffffffffffffffffffffffffffffffffff16632a17bf6082604001516040518263ffffffff1660e01b81526004016129bc919061385d565b602060405180830381865afa1580156129d7573d5f803e3d5ffd5b505050506040513d601f19601f820116820180604052508101906129fb919061366f565b816020019073ffffffffffffffffffffffffffffffffffffffff16908173ffffffffffffffffffffffffffffffffffffffff1681525050806020015173ffffffffffffffffffffffffffffffffffffffff1663313ce5676040518163ffffffff1660e01b8152600401602060405180830381865afa158015612a7f573d5f803e3d5ffd5b505050506040513d601f19601f82011682018060405250810190612aa39190613c3b565b8160c0019060ff16908160ff1681525050806020015173ffffffffffffffffffffffffffffffffffffffff166350d25bcd6040518163ffffffff1660e01b8152600401602060405180830381865afa158015612b01573d5f803e3d5ffd5b505050506040513d601f19601f82011682018060405250810190612b259190613d79565b8160a001818152505080838381518110612b4257612b41613821565b5b60200260200101819052505080600101905061270a565b50604051806060016040528087610120015173ffffffffffffffffffffffffffffffffffffffff1681526020018673ffffffffffffffffffffffffffffffffffffffff16815260200182815250888881518110612bb957612bb8613821565b5b60200260200101516060018190525050505b5050505080806001019150506117ef565b5080935050505092915050565b60405180608001604052805f73ffffffffffffffffffffffffffffffffffffffff168152602001612c18612d7c565b8152602001612c25612d7c565b8152602001612c32612d7c565b81525090565b604051806101600160405280606081526020015f73ffffffffffffffffffffffffffffffffffffffff1681526020015f73ffffffffffffffffffffffffffffffffffffffff1681526020015f81526020015f81526020015f81526020015f81526020015f81526020015f60ff1681526020015f60ff1681526020015f60ff1681525090565b60405180608001604052805f73ffffffffffffffffffffffffffffffffffffffff168152602001612cec612dc7565b8152602001612cf9612dc7565b8152602001612d06612dc7565b81525090565b604051806101000160405280606081526020015f73ffffffffffffffffffffffffffffffffffffffff1681526020015f73ffffffffffffffffffffffffffffffffffffffff1681526020015f81526020015f81526020015f81526020015f60ff1681526020015f60ff1681525090565b60405180606001604052805f73ffffffffffffffffffffffffffffffffffffffff1681526020015f73ffffffffffffffffffffffffffffffffffffffff168152602001606081525090565b60405180606001604052805f73ffffffffffffffffffffffffffffffffffffffff1681526020015f73ffffffffffffffffffffffffffffffffffffffff168152602001606081525090565b5f604051905090565b5f80fd5b5f80fd5b5f73ffffffffffffffffffffffffffffffffffffffff82169050919050565b5f612e4c82612e23565b9050919050565b5f612e5d82612e42565b9050919050565b612e6d81612e53565b8114612e77575f80fd5b50565b5f81359050612e8881612e64565b92915050565b612e9781612e42565b8114612ea1575f80fd5b50565b5f81359050612eb281612e8e565b92915050565b5f8060408385031215612ece57612ecd612e1b565b5b5f612edb85828601612e7a565b9250506020612eec85828601612ea4565b9150509250929050565b5f81519050919050565b5f82825260208201905092915050565b5f819050602082019050919050565b612f2881612e42565b82525050565b5f81519050919050565b5f82825260208201905092915050565b5f819050602082019050919050565b5f81519050919050565b5f82825260208201905092915050565b8281835e5f83830152505050565b5f601f19601f8301169050919050565b5f612f9982612f57565b612fa38185612f61565b9350612fb3818560208601612f71565b612fbc81612f7f565b840191505092915050565b5f819050919050565b612fd981612fc7565b82525050565b5f819050919050565b612ff181612fdf565b82525050565b5f60ff82169050919050565b61300c81612ff7565b82525050565b5f61016083015f8301518482035f86015261302d8282612f8f565b91505060208301516130426020860182612f1f565b5060408301516130556040860182612f1f565b5060608301516130686060860182612fd0565b50608083015161307b6080860182612fd0565b5060a083015161308e60a0860182612fd0565b5060c08301516130a160c0860182612fd0565b5060e08301516130b460e0860182612fe8565b506101008301516130c9610100860182613003565b506101208301516130de610120860182613003565b506101408301516130f3610140860182613003565b508091505092915050565b5f6131098383613012565b905092915050565b5f602082019050919050565b5f61312782612f2e565b6131318185612f38565b93508360208202850161314385612f48565b805f5b8581101561317e578484038952815161315f85826130fe565b945061316a83613111565b925060208a01995050600181019050613146565b50829750879550505050505092915050565b5f606083015f8301516131a55f860182612f1f565b5060208301516131b86020860182612f1f565b50604083015184820360408601526131d0828261311d565b9150508091505092915050565b5f608083015f8301516131f25f860182612f1f565b506020830151848203602086015261320a8282613190565b915050604083015184820360408601526132248282613190565b9150506060830151848203606086015261323e8282613190565b9150508091505092915050565b5f61325683836131dd565b905092915050565b5f602082019050919050565b5f61327482612ef6565b61327e8185612f00565b93508360208202850161329085612f10565b805f5b858110156132cb57848403895281516132ac858261324b565b94506132b78361325e565b925060208a01995050600181019050613293565b50829750879550505050505092915050565b5f81519050919050565b5f82825260208201905092915050565b5f819050602082019050919050565b5f81519050919050565b5f82825260208201905092915050565b5f819050602082019050919050565b5f61010083015f8301518482035f86015261334a8282612f8f565b915050602083015161335f6020860182612f1f565b5060408301516133726040860182612f1f565b5060608301516133856060860182612fd0565b5060808301516133986080860182612fd0565b5060a08301516133ab60a0860182612fe8565b5060c08301516133be60c0860182613003565b5060e08301516133d160e0860182613003565b508091505092915050565b5f6133e7838361332f565b905092915050565b5f602082019050919050565b5f61340582613306565b61340f8185613310565b93508360208202850161342185613320565b805f5b8581101561345c578484038952815161343d85826133dc565b9450613448836133ef565b925060208a01995050600181019050613424565b50829750879550505050505092915050565b5f606083015f8301516134835f860182612f1f565b5060208301516134966020860182612f1f565b50604083015184820360408601526134ae82826133fb565b9150508091505092915050565b5f608083015f8301516134d05f860182612f1f565b50602083015184820360208601526134e8828261346e565b91505060408301518482036040860152613502828261346e565b9150506060830151848203606086015261351c828261346e565b9150508091505092915050565b5f61353483836134bb565b905092915050565b5f602082019050919050565b5f613552826132dd565b61355c81856132e7565b93508360208202850161356e856132f7565b805f5b858110156135a9578484038952815161358a8582613529565b94506135958361353c565b925060208a01995050600181019050613571565b50829750879550505050505092915050565b5f6040820190508181035f8301526135d3818561326a565b905081810360208301526135e78184613548565b90509392505050565b5f6020820190508181035f8301526136088184613548565b905092915050565b5f6020828403121561362557613624612e1b565b5b5f61363284828501612e7a565b91505092915050565b5f6020820190508181035f830152613653818461326a565b905092915050565b5f8151905061366981612e8e565b92915050565b5f6020828403121561368457613683612e1b565b5b5f6136918482850161365b565b91505092915050565b5f80fd5b7f4e487b71000000000000000000000000000000000000000000000000000000005f52604160045260245ffd5b6136d482612f7f565b810181811067ffffffffffffffff821117156136f3576136f261369e565b5b80604052505050565b5f613705612e12565b905061371182826136cb565b919050565b5f67ffffffffffffffff8211156137305761372f61369e565b5b602082029050602081019050919050565b5f80fd5b5f61375761375284613716565b6136fc565b9050808382526020820190506020840283018581111561377a57613779613741565b5b835b818110156137a3578061378f888261365b565b84526020840193505060208101905061377c565b5050509392505050565b5f82601f8301126137c1576137c061369a565b5b81516137d1848260208601613745565b91505092915050565b5f602082840312156137ef576137ee612e1b565b5b5f82015167ffffffffffffffff81111561380c5761380b612e1f565b5b613818848285016137ad565b91505092915050565b7f4e487b71000000000000000000000000000000000000000000000000000000005f52603260045260245ffd5b61385781612e42565b82525050565b5f6020820190506138705f83018461384e565b92915050565b5f80fd5b61388381612fc7565b811461388d575f80fd5b50565b5f8151905061389e8161387a565b92915050565b5f602082840312156138b9576138b8613876565b5b6138c360206136fc565b90505f6138d284828501613890565b5f8301525092915050565b5f6fffffffffffffffffffffffffffffffff82169050919050565b613901816138dd565b811461390b575f80fd5b50565b5f8151905061391c816138f8565b92915050565b5f64ffffffffff82169050919050565b61393b81613922565b8114613945575f80fd5b50565b5f8151905061395681613932565b92915050565b5f61ffff82169050919050565b6139728161395c565b811461397c575f80fd5b50565b5f8151905061398d81613969565b92915050565b5f6101e082840312156139a9576139a8613876565b5b6139b46101e06136fc565b90505f6139c3848285016138a4565b5f8301525060206139d68482850161390e565b60208301525060406139ea8482850161390e565b60408301525060606139fe8482850161390e565b6060830152506080613a128482850161390e565b60808301525060a0613a268482850161390e565b60a08301525060c0613a3a84828501613948565b60c08301525060e0613a4e8482850161397f565b60e083015250610100613a638482850161365b565b61010083015250610120613a798482850161365b565b61012083015250610140613a8f8482850161365b565b61014083015250610160613aa58482850161365b565b61016083015250610180613abb8482850161390e565b610180830152506101a0613ad18482850161390e565b6101a0830152506101c0613ae78482850161390e565b6101c08301525092915050565b5f6101e08284031215613b0a57613b09612e1b565b5b5f613b1784828501613993565b91505092915050565b5f613b2a82612e42565b9050919050565b613b3a81613b20565b8114613b44575f80fd5b50565b5f81519050613b5581613b31565b92915050565b5f60208284031215613b7057613b6f612e1b565b5b5f613b7d84828501613b47565b91505092915050565b5f604082019050613b995f83018561384e565b613ba6602083018461384e565b9392505050565b5f805f8060808587031215613bc557613bc4612e1b565b5b5f613bd287828801613890565b9450506020613be387828801613890565b9350506040613bf487828801613890565b9250506060613c0587828801613890565b91505092959194509250565b613c1a81612ff7565b8114613c24575f80fd5b50565b5f81519050613c3581613c11565b92915050565b5f60208284031215613c5057613c4f612e1b565b5b5f613c5d84828501613c27565b91505092915050565b5f80fd5b5f67ffffffffffffffff821115613c8457613c8361369e565b5b613c8d82612f7f565b9050602081019050919050565b5f613cac613ca784613c6a565b6136fc565b905082815260208101848484011115613cc857613cc7613c66565b5b613cd3848285612f71565b509392505050565b5f82601f830112613cef57613cee61369a565b5b8151613cff848260208601613c9a565b91505092915050565b5f60208284031215613d1d57613d1c612e1b565b5b5f82015167ffffffffffffffff811115613d3a57613d39612e1f565b5b613d4684828501613cdb565b91505092915050565b613d5881612fdf565b8114613d62575f80fd5b50565b5f81519050613d7381613d4f565b92915050565b5f60208284031215613d8e57613d8d612e1b565b5b5f613d9b84828501613d65565b91505092915050565b5f606082019050613db75f83018661384e565b613dc4602083018561384e565b613dd1604083018461384e565b949350505050565b5f60208284031215613dee57613ded612e1b565b5b5f613dfb84828501613890565b9150509291505056fea2646970667358221220200e7b1fce4bd19110cca31a2fb45e17ab6bf9a347f7d88ed259bc70da02187664736f6c634300081a0033",
			"opcodes": "PUSH1 0x80 PUSH1 0x40 MSTORE CALLVALUE DUP1 ISZERO PUSH1 0xE JUMPI PUSH0 DUP1 REVERT JUMPDEST POP PUSH2 0x3E3A DUP1 PUSH2 0x1C PUSH0 CODECOPY PUSH0 RETURN INVALID PUSH1 0x80 PUSH1 0x40 MSTORE CALLVALUE DUP1 ISZERO PUSH2 0xF JUMPI PUSH0 DUP1 REVERT JUMPDEST POP PUSH1 0x4 CALLDATASIZE LT PUSH2 0x3F JUMPI PUSH0 CALLDATALOAD PUSH1 0xE0 SHR DUP1 PUSH4 0x47637536 EQ PUSH2 0x43 JUMPI DUP1 PUSH4 0x799BDCF5 EQ PUSH2 0x74 JUMPI DUP1 PUSH4 0x976FAFC5 EQ PUSH2 0xA4 JUMPI JUMPDEST PUSH0 DUP1 REVERT JUMPDEST PUSH2 0x5D PUSH1 0x4 DUP1 CALLDATASIZE SUB DUP2 ADD SWAP1 PUSH2 0x58 SWAP2 SWAP1 PUSH2 0x2EB8 JUMP JUMPDEST PUSH2 0xD4 JUMP JUMPDEST PUSH1 0x40 MLOAD PUSH2 0x6B SWAP3 SWAP2 SWAP1 PUSH2 0x35BB JUMP JUMPDEST PUSH1 0x40 MLOAD DUP1 SWAP2 SUB SWAP1 RETURN JUMPDEST PUSH2 0x8E PUSH1 0x4 DUP1 CALLDATASIZE SUB DUP2 ADD SWAP1 PUSH2 0x89 SWAP2 SWAP1 PUSH2 0x2EB8 JUMP JUMPDEST PUSH2 0xF5 JUMP JUMPDEST PUSH1 0x40 MLOAD PUSH2 0x9B SWAP2 SWAP1 PUSH2 0x35F0 JUMP JUMPDEST PUSH1 0x40 MLOAD DUP1 SWAP2 SUB SWAP1 RETURN JUMPDEST PUSH2 0xBE PUSH1 0x4 DUP1 CALLDATASIZE SUB DUP2 ADD SWAP1 PUSH2 0xB9 SWAP2 SWAP1 PUSH2 0x3610 JUMP JUMPDEST PUSH2 0x109 JUMP JUMPDEST PUSH1 0x40 MLOAD PUSH2 0xCB SWAP2 SWAP1 PUSH2 0x363B JUMP JUMPDEST PUSH1 0x40 MLOAD DUP1 SWAP2 SUB SWAP1 RETURN JUMPDEST PUSH1 0x60 DUP1 PUSH2 0xE0 DUP5 PUSH2 0x11B JUMP JUMPDEST PUSH2 0xEA DUP6 DUP6 PUSH2 0x1676 JUMP JUMPDEST SWAP2 POP SWAP2 POP SWAP3 POP SWAP3 SWAP1 POP JUMP JUMPDEST PUSH1 0x60 PUSH2 0x101 DUP4 DUP4 PUSH2 0x1676 JUMP JUMPDEST SWAP1 POP SWAP3 SWAP2 POP POP JUMP JUMPDEST PUSH1 0x60 PUSH2 0x114 DUP3 PUSH2 0x11B JUMP JUMPDEST SWAP1 POP SWAP2 SWAP1 POP JUMP JUMPDEST PUSH1 0x60 PUSH0 DUP3 PUSH20 0xFFFFFFFFFFFFFFFFFFFFFFFFFFFFFFFFFFFFFFFF AND PUSH4 0x26B1D5F PUSH1 0x40 MLOAD DUP2 PUSH4 0xFFFFFFFF AND PUSH1 0xE0 SHL DUP2 MSTORE PUSH1 0x4 ADD PUSH1 0x20 PUSH1 0x40 MLOAD DUP1 DUP4 SUB DUP2 DUP7 GAS STATICCALL ISZERO DUP1 ISZERO PUSH2 0x167 JUMPI RETURNDATASIZE PUSH0 DUP1 RETURNDATACOPY RETURNDATASIZE PUSH0 REVERT JUMPDEST POP POP POP POP PUSH1 0x40 MLOAD RETURNDATASIZE PUSH1 0x1F NOT PUSH1 0x1F DUP3 ADD AND DUP3 ADD DUP1 PUSH1 0x40 MSTORE POP DUP2 ADD SWAP1 PUSH2 0x18B SWAP2 SWAP1 PUSH2 0x366F JUMP JUMPDEST SWAP1 POP PUSH0 DUP2 PUSH20 0xFFFFFFFFFFFFFFFFFFFFFFFFFFFFFFFFFFFFFFFF AND PUSH4 0xD1946DBC PUSH1 0x40 MLOAD DUP2 PUSH4 0xFFFFFFFF AND PUSH1 0xE0 SHL DUP2 MSTORE PUSH1 0x4 ADD PUSH0 PUSH1 0x40 MLOAD DUP1 DUP4 SUB DUP2 DUP7 GAS STATICCALL ISZERO DUP1 ISZERO PUSH2 0x1D6 JUMPI RETURNDATASIZE PUSH0 DUP1 RETURNDATACOPY RETURNDATASIZE PUSH0 REVERT JUMPDEST POP POP POP POP PUSH1 0x40 MLOAD RETURNDATASIZE PUSH0 DUP3 RETURNDATACOPY RETURNDATASIZE PUSH1 0x1F NOT PUSH1 0x1F DUP3 ADD AND DUP3 ADD DUP1 PUSH1 0x40 MSTORE POP DUP2 ADD SWAP1 PUSH2 0x1FE SWAP2 SWAP1 PUSH2 0x37DA JUMP JUMPDEST SWAP1 POP PUSH0 DUP2 MLOAD PUSH8 0xFFFFFFFFFFFFFFFF DUP2 GT ISZERO PUSH2 0x21C JUMPI PUSH2 0x21B PUSH2 0x369E JUMP JUMPDEST JUMPDEST PUSH1 0x40 MLOAD SWAP1 DUP1 DUP3 MSTORE DUP1 PUSH1 0x20 MUL PUSH1 0x20 ADD DUP3 ADD PUSH1 0x40 MSTORE DUP1 ISZERO PUSH2 0x255 JUMPI DUP2 PUSH1 0x20 ADD JUMPDEST PUSH2 0x242 PUSH2 0x2BE9 JUMP JUMPDEST DUP2 MSTORE PUSH1 0x20 ADD SWAP1 PUSH1 0x1 SWAP1 SUB SWAP1 DUP2 PUSH2 0x23A JUMPI SWAP1 POP JUMPDEST POP SWAP1 POP PUSH0 JUMPDEST DUP3 MLOAD DUP2 LT ISZERO PUSH2 0x166A JUMPI PUSH0 DUP3 DUP3 DUP2 MLOAD DUP2 LT PUSH2 0x277 JUMPI PUSH2 0x276 PUSH2 0x3821 JUMP JUMPDEST JUMPDEST PUSH1 0x20 MUL PUSH1 0x20 ADD ADD MLOAD SWAP1 POP DUP4 DUP3 DUP2 MLOAD DUP2 LT PUSH2 0x294 JUMPI PUSH2 0x293 PUSH2 0x3821 JUMP JUMPDEST JUMPDEST PUSH1 0x20 MUL PUSH1 0x20 ADD ADD MLOAD DUP2 PUSH0 ADD SWAP1 PUSH20 0xFFFFFFFFFFFFFFFFFFFFFFFFFFFFFFFFFFFFFFFF AND SWAP1 DUP2 PUSH20 0xFFFFFFFFFFFFFFFFFFFFFFFFFFFFFFFFFFFFFFFF AND DUP2 MSTORE POP POP PUSH0 DUP6 PUSH20 0xFFFFFFFFFFFFFFFFFFFFFFFFFFFFFFFFFFFFFFFF AND PUSH4 0x35EA6A75 DUP7 DUP6 DUP2 MLOAD DUP2 LT PUSH2 0x302 JUMPI PUSH2 0x301 PUSH2 0x3821 JUMP JUMPDEST JUMPDEST PUSH1 0x20 MUL PUSH1 0x20 ADD ADD MLOAD PUSH1 0x40 MLOAD DUP3 PUSH4 0xFFFFFFFF AND PUSH1 0xE0 SHL DUP2 MSTORE PUSH1 0x4 ADD PUSH2 0x326 SWAP2 SWAP1 PUSH2 0x385D JUMP JUMPDEST PUSH2 0x1E0 PUSH1 0x40 MLOAD DUP1 DUP4 SUB DUP2 DUP7 GAS STATICCALL ISZERO DUP1 ISZERO PUSH2 0x342 JUMPI RETURNDATASIZE PUSH0 DUP1 RETURNDATACOPY RETURNDATASIZE PUSH0 REVERT JUMPDEST POP POP POP POP PUSH1 0x40 MLOAD RETURNDATASIZE PUSH1 0x1F NOT PUSH1 0x1F DUP3 ADD AND DUP3 ADD DUP1 PUSH1 0x40 MSTORE POP DUP2 ADD SWAP1 PUSH2 0x366 SWAP2 SWAP1 PUSH2 0x3AF4 JUMP JUMPDEST SWAP1 POP PUSH0 DUP2 PUSH2 0x100 ADD MLOAD PUSH20 0xFFFFFFFFFFFFFFFFFFFFFFFFFFFFFFFFFFFFFFFF AND PUSH4 0x75D26413 PUSH1 0x40 MLOAD DUP2 PUSH4 0xFFFFFFFF AND PUSH1 0xE0 SHL DUP2 MSTORE PUSH1 0x4 ADD PUSH1 0x20 PUSH1 0x40 MLOAD DUP1 DUP4 SUB DUP2 DUP7 GAS STATICCALL ISZERO DUP1 ISZERO PUSH2 0x3B7 JUMPI RETURNDATASIZE PUSH0 DUP1 RETURNDATACOPY RETURNDATASIZE PUSH0 REVERT JUMPDEST POP POP POP POP PUSH1 0x40 MLOAD RETURNDATASIZE PUSH1 0x1F NOT PUSH1 0x1F DUP3 ADD AND DUP3 ADD DUP1 PUSH1 0x40 MSTORE POP DUP2 ADD SWAP1 PUSH2 0x3DB SWAP2 SWAP1 PUSH2 0x3B5B JUMP JUMPDEST SWAP1 POP PUSH1 0x60 PUSH0 PUSH20 0xFFFFFFFFFFFFFFFFFFFFFFFFFFFFFFFFFFFFFFFF AND DUP3 PUSH20 0xFFFFFFFFFFFFFFFFFFFFFFFFFFFFFFFFFFFFFFFF AND EQ PUSH2 0x963 JUMPI PUSH0 DUP3 PUSH20 0xFFFFFFFFFFFFFFFFFFFFFFFFFFFFFFFFFFFFFFFF AND PUSH4 0x6657732F DUP6 PUSH2 0x100 ADD MLOAD PUSH1 0x40 MLOAD DUP3 PUSH4 0xFFFFFFFF AND PUSH1 0xE0 SHL DUP2 MSTORE PUSH1 0x4 ADD PUSH2 0x451 SWAP2 SWAP1 PUSH2 0x385D JUMP JUMPDEST PUSH0 PUSH1 0x40 MLOAD DUP1 DUP4 SUB DUP2 DUP7 GAS STATICCALL ISZERO DUP1 ISZERO PUSH2 0x46B JUMPI RETURNDATASIZE PUSH0 DUP1 RETURNDATACOPY RETURNDATASIZE PUSH0 REVERT JUMPDEST POP POP POP POP PUSH1 0x40 MLOAD RETURNDATASIZE PUSH0 DUP3 RETURNDATACOPY RETURNDATASIZE PUSH1 0x1F NOT PUSH1 0x1F DUP3 ADD AND DUP3 ADD DUP1 PUSH1 0x40 MSTORE POP DUP2 ADD SWAP1 PUSH2 0x493 SWAP2 SWAP1 PUSH2 0x37DA JUMP JUMPDEST SWAP1 POP DUP1 MLOAD PUSH8 0xFFFFFFFFFFFFFFFF DUP2 GT ISZERO PUSH2 0x4B0 JUMPI PUSH2 0x4AF PUSH2 0x369E JUMP JUMPDEST JUMPDEST PUSH1 0x40 MLOAD SWAP1 DUP1 DUP3 MSTORE DUP1 PUSH1 0x20 MUL PUSH1 0x20 ADD DUP3 ADD PUSH1 0x40 MSTORE DUP1 ISZERO PUSH2 0x4E9 JUMPI DUP2 PUSH1 0x20 ADD JUMPDEST PUSH2 0x4D6 PUSH2 0x2C38 JUMP JUMPDEST DUP2 MSTORE PUSH1 0x20 ADD SWAP1 PUSH1 0x1 SWAP1 SUB SWAP1 DUP2 PUSH2 0x4CE JUMPI SWAP1 POP JUMPDEST POP SWAP2 POP PUSH0 JUMPDEST DUP2 MLOAD DUP2 LT ISZERO PUSH2 0x960 JUMPI PUSH2 0x4FF PUSH2 0x2C38 JUMP JUMPDEST DUP3 DUP3 DUP2 MLOAD DUP2 LT PUSH2 0x512 JUMPI PUSH2 0x511 PUSH2 0x3821 JUMP JUMPDEST JUMPDEST PUSH1 0x20 MUL PUSH1 0x20 ADD ADD MLOAD DUP2 PUSH1 0x20 ADD SWAP1 PUSH20 0xFFFFFFFFFFFFFFFFFFFFFFFFFFFFFFFFFFFFFFFF AND SWAP1 DUP2 PUSH20 0xFFFFFFFFFFFFFFFFFFFFFFFFFFFFFFFFFFFFFFFF AND DUP2 MSTORE POP POP DUP5 PUSH20 0xFFFFFFFFFFFFFFFFFFFFFFFFFFFFFFFFFFFFFFFF AND PUSH4 0x7EFF4BA8 DUP8 PUSH2 0x100 ADD MLOAD DUP4 PUSH1 0x20 ADD MLOAD PUSH1 0x40 MLOAD DUP4 PUSH4 0xFFFFFFFF AND PUSH1 0xE0 SHL DUP2 MSTORE PUSH1 0x4 ADD PUSH2 0x595 SWAP3 SWAP2 SWAP1 PUSH2 0x3B86 JUMP JUMPDEST PUSH1 0x80 PUSH1 0x40 MLOAD DUP1 DUP4 SUB DUP2 DUP7 GAS STATICCALL ISZERO DUP1 ISZERO PUSH2 0x5B0 JUMPI RETURNDATASIZE PUSH0 DUP1 RETURNDATACOPY RETURNDATASIZE PUSH0 REVERT JUMPDEST POP POP POP POP PUSH1 0x40 MLOAD RETURNDATASIZE PUSH1 0x1F NOT PUSH1 0x1F DUP3 ADD AND DUP3 ADD DUP1 PUSH1 0x40 MSTORE POP DUP2 ADD SWAP1 PUSH2 0x5D4 SWAP2 SWAP1 PUSH2 0x3BAD JUMP JUMPDEST DUP5 PUSH1 0xA0 ADD DUP6 PUSH1 0x60 ADD DUP7 PUSH1 0x80 ADD DUP8 PUSH1 0xC0 ADD DUP5 DUP2 MSTORE POP DUP5 DUP2 MSTORE POP DUP5 DUP2 MSTORE POP DUP5 DUP2 MSTORE POP POP POP POP POP DUP5 PUSH20 0xFFFFFFFFFFFFFFFFFFFFFFFFFFFFFFFFFFFFFFFF AND PUSH4 0x9EFD6F72 DUP8 PUSH2 0x100 ADD MLOAD PUSH1 0x40 MLOAD DUP3 PUSH4 0xFFFFFFFF AND PUSH1 0xE0 SHL DUP2 MSTORE PUSH1 0x4 ADD PUSH2 0x636 SWAP2 SWAP1 PUSH2 0x385D JUMP JUMPDEST PUSH1 0x20 PUSH1 0x40 MLOAD DUP1 DUP4 SUB DUP2 DUP7 GAS STATICCALL ISZERO DUP1 ISZERO PUSH2 0x651 JUMPI RETURNDATASIZE PUSH0 DUP1 RETURNDATACOPY RETURNDATASIZE PUSH0 REVERT JUMPDEST POP POP POP POP PUSH1 0x40 MLOAD RETURNDATASIZE PUSH1 0x1F NOT PUSH1 0x1F DUP3 ADD AND DUP3 ADD DUP1 PUSH1 0x40 MSTORE POP DUP2 ADD SWAP1 PUSH2 0x675 SWAP2 SWAP1 PUSH2 0x3C3B JUMP JUMPDEST DUP2 PUSH2 0x120 ADD SWAP1 PUSH1 0xFF AND SWAP1 DUP2 PUSH1 0xFF AND DUP2 MSTORE POP POP DUP1 PUSH1 0x20 ADD MLOAD PUSH20 0xFFFFFFFFFFFFFFFFFFFFFFFFFFFFFFFFFFFFFFFF AND PUSH4 0x313CE567 PUSH1 0x40 MLOAD DUP2 PUSH4 0xFFFFFFFF AND PUSH1 0xE0 SHL DUP2 MSTORE PUSH1 0x4 ADD PUSH1 0x20 PUSH1 0x40 MLOAD DUP1 DUP4 SUB DUP2 DUP7 GAS STATICCALL ISZERO DUP1 ISZERO PUSH2 0x6D4 JUMPI RETURNDATASIZE PUSH0 DUP1 RETURNDATACOPY RETURNDATASIZE PUSH0 REVERT JUMPDEST POP POP POP POP PUSH1 0x40 MLOAD RETURNDATASIZE PUSH1 0x1F NOT PUSH1 0x1F DUP3 ADD AND DUP3 ADD DUP1 PUSH1 0x40 MSTORE POP DUP2 ADD SWAP1 PUSH2 0x6F8 SWAP2 SWAP1 PUSH2 0x3C3B JUMP JUMPDEST DUP2 PUSH2 0x100 ADD SWAP1 PUSH1 0xFF AND SWAP1 DUP2 PUSH1 0xFF AND DUP2 MSTORE POP POP DUP1 PUSH1 0x20 ADD MLOAD PUSH20 0xFFFFFFFFFFFFFFFFFFFFFFFFFFFFFFFFFFFFFFFF AND PUSH4 0x95D89B41 PUSH1 0x40 MLOAD DUP2 PUSH4 0xFFFFFFFF AND PUSH1 0xE0 SHL DUP2 MSTORE PUSH1 0x4 ADD PUSH0 PUSH1 0x40 MLOAD DUP1 DUP4 SUB DUP2 DUP7 GAS STATICCALL ISZERO DUP1 ISZERO PUSH2 0x756 JUMPI RETURNDATASIZE PUSH0 DUP1 RETURNDATACOPY RETURNDATASIZE PUSH0 REVERT JUMPDEST POP POP POP POP PUSH1 0x40 MLOAD RETURNDATASIZE PUSH0 DUP3 RETURNDATACOPY RETURNDATASIZE PUSH1 0x1F NOT PUSH1 0x1F DUP3 ADD AND DUP3 ADD DUP1 PUSH1 0x40 MSTORE POP DUP2 ADD SWAP1 PUSH2 0x77E SWAP2 SWAP1 PUSH2 0x3D08 JUMP JUMPDEST DUP2 PUSH0 ADD DUP2 SWAP1 MSTORE POP DUP5 PUSH20 0xFFFFFFFFFFFFFFFFFFFFFFFFFFFFFFFFFFFFFFFF AND PUSH4 0x2A17BF60 DUP3 PUSH1 0x20 ADD MLOAD PUSH1 0x40 MLOAD DUP3 PUSH4 0xFFFFFFFF AND PUSH1 0xE0 SHL DUP2 MSTORE PUSH1 0x4 ADD PUSH2 0x7C2 SWAP2 SWAP1 PUSH2 0x385D JUMP JUMPDEST PUSH1 0x20 PUSH1 0x40 MLOAD DUP1 DUP4 SUB DUP2 DUP7 GAS STATICCALL ISZERO DUP1 ISZERO PUSH2 0x7DD JUMPI RETURNDATASIZE PUSH0 DUP1 RETURNDATACOPY RETURNDATASIZE PUSH0 REVERT JUMPDEST POP POP POP POP PUSH1 0x40 MLOAD RETURNDATASIZE PUSH1 0x1F NOT PUSH1 0x1F DUP3 ADD AND DUP3 ADD DUP1 PUSH1 0x40 MSTORE POP DUP2 ADD SWAP1 PUSH2 0x801 SWAP2 SWAP1 PUSH2 0x366F JUMP JUMPDEST DUP2 PUSH1 0x40 ADD SWAP1 PUSH20 0xFFFFFFFFFFFFFFFFFFFFFFFFFFFFFFFFFFFFFFFF AND SWAP1 DUP2 PUSH20 0xFFFFFFFFFFFFFFFFFFFFFFFFFFFFFFFFFFFFFFFF AND DUP2 MSTORE POP POP DUP1 PUSH1 0x40 ADD MLOAD PUSH20 0xFFFFFFFFFFFFFFFFFFFFFFFFFFFFFFFFFFFFFFFF AND PUSH4 0x313CE567 PUSH1 0x40 MLOAD DUP2 PUSH4 0xFFFFFFFF AND PUSH1 0xE0 SHL DUP2 MSTORE PUSH1 0x4 ADD PUSH1 0x20 PUSH1 0x40 MLOAD DUP1 DUP4 SUB DUP2 DUP7 GAS STATICCALL ISZERO DUP1 ISZERO PUSH2 0x885 JUMPI RETURNDATASIZE PUSH0 DUP1 RETURNDATACOPY RETURNDATASIZE PUSH0 REVERT JUMPDEST POP POP POP POP PUSH1 0x40 MLOAD RETURNDATASIZE PUSH1 0x1F NOT PUSH1 0x1F DUP3 ADD AND DUP3 ADD DUP1 PUSH1 0x40 MSTORE POP DUP2 ADD SWAP1 PUSH2 0x8A9 SWAP2 SWAP1 PUSH2 0x3C3B JUMP JUMPDEST DUP2 PUSH2 0x140 ADD SWAP1 PUSH1 0xFF AND SWAP1 DUP2 PUSH1 0xFF AND DUP2 MSTORE POP POP DUP1 PUSH1 0x40 ADD MLOAD PUSH20 0xFFFFFFFFFFFFFFFFFFFFFFFFFFFFFFFFFFFFFFFF AND PUSH4 0x50D25BCD PUSH1 0x40 MLOAD DUP2 PUSH4 0xFFFFFFFF AND PUSH1 0xE0 SHL DUP2 MSTORE PUSH1 0x4 ADD PUSH1 0x20 PUSH1 0x40 MLOAD DUP1 DUP4 SUB DUP2 DUP7 GAS STATICCALL ISZERO DUP1 ISZERO PUSH2 0x908 JUMPI RETURNDATASIZE PUSH0 DUP1 RETURNDATACOPY RETURNDATASIZE PUSH0 REVERT JUMPDEST POP POP POP POP PUSH1 0x40 MLOAD RETURNDATASIZE PUSH1 0x1F NOT PUSH1 0x1F DUP3 ADD AND DUP3 ADD DUP1 PUSH1 0x40 MSTORE POP DUP2 ADD SWAP1 PUSH2 0x92C SWAP2 SWAP1 PUSH2 0x3D79 JUMP JUMPDEST DUP2 PUSH1 0xE0 ADD DUP2 DUP2 MSTORE POP POP DUP1 DUP5 DUP4 DUP2 MLOAD DUP2 LT PUSH2 0x949 JUMPI PUSH2 0x948 PUSH2 0x3821 JUMP JUMPDEST JUMPDEST PUSH1 0x20 MUL PUSH1 0x20 ADD ADD DUP2 SWAP1 MSTORE POP POP DUP1 PUSH1 0x1 ADD SWAP1 POP PUSH2 0x4EE JUMP JUMPDEST POP POP JUMPDEST PUSH1 0x40 MLOAD DUP1 PUSH1 0x60 ADD PUSH1 0x40 MSTORE DUP1 DUP5 PUSH2 0x100 ADD MLOAD PUSH20 0xFFFFFFFFFFFFFFFFFFFFFFFFFFFFFFFFFFFFFFFF AND DUP2 MSTORE PUSH1 0x20 ADD DUP4 PUSH20 0xFFFFFFFFFFFFFFFFFFFFFFFFFFFFFFFFFFFFFFFF AND DUP2 MSTORE PUSH1 0x20 ADD DUP3 DUP2 MSTORE POP DUP5 PUSH1 0x20 ADD DUP2 SWAP1 MSTORE POP PUSH0 DUP4 PUSH2 0x140 ADD MLOAD PUSH20 0xFFFFFFFFFFFFFFFFFFFFFFFFFFFFFFFFFFFFFFFF AND PUSH4 0x75D26413 PUSH1 0x40 MLOAD DUP2 PUSH4 0xFFFFFFFF AND PUSH1 0xE0 SHL DUP2 MSTORE PUSH1 0x4 ADD PUSH1 0x20 PUSH1 0x40 MLOAD DUP1 DUP4 SUB DUP2 DUP7 GAS STATICCALL ISZERO DUP1 ISZERO PUSH2 0xA06 JUMPI RETURNDATASIZE PUSH0 DUP1 RETURNDATACOPY RETURNDATASIZE PUSH0 REVERT JUMPDEST POP POP POP POP PUSH1 0x40 MLOAD RETURNDATASIZE PUSH1 0x1F NOT PUSH1 0x1F DUP3 ADD AND DUP3 ADD DUP1 PUSH1 0x40 MSTORE POP DUP2 ADD SWAP1 PUSH2 0xA2A SWAP2 SWAP1 PUSH2 0x3B5B JUMP JUMPDEST SWAP1 POP PUSH1 0x60 PUSH0 PUSH20 0xFFFFFFFFFFFFFFFFFFFFFFFFFFFFFFFFFFFFFFFF AND DUP3 PUSH20 0xFFFFFFFFFFFFFFFFFFFFFFFFFFFFFFFFFFFFFFFF AND EQ PUSH2 0xFB2 JUMPI PUSH0 DUP3 PUSH20 0xFFFFFFFFFFFFFFFFFFFFFFFFFFFFFFFFFFFFFFFF AND PUSH4 0x6657732F DUP8 PUSH2 0x140 ADD MLOAD PUSH1 0x40 MLOAD DUP3 PUSH4 0xFFFFFFFF AND PUSH1 0xE0 SHL DUP2 MSTORE PUSH1 0x4 ADD PUSH2 0xAA0 SWAP2 SWAP1 PUSH2 0x385D JUMP JUMPDEST PUSH0 PUSH1 0x40 MLOAD DUP1 DUP4 SUB DUP2 DUP7 GAS STATICCALL ISZERO DUP1 ISZERO PUSH2 0xABA JUMPI RETURNDATASIZE PUSH0 DUP1 RETURNDATACOPY RETURNDATASIZE PUSH0 REVERT JUMPDEST POP POP POP POP PUSH1 0x40 MLOAD RETURNDATASIZE PUSH0 DUP3 RETURNDATACOPY RETURNDATASIZE PUSH1 0x1F NOT PUSH1 0x1F DUP3 ADD AND DUP3 ADD DUP1 PUSH1 0x40 MSTORE POP DUP2 ADD SWAP1 PUSH2 0xAE2 SWAP2 SWAP1 PUSH2 0x37DA JUMP JUMPDEST SWAP1 POP DUP1 MLOAD PUSH8 0xFFFFFFFFFFFFFFFF DUP2 GT ISZERO PUSH2 0xAFF JUMPI PUSH2 0xAFE PUSH2 0x369E JUMP JUMPDEST JUMPDEST PUSH1 0x40 MLOAD SWAP1 DUP1 DUP3 MSTORE DUP1 PUSH1 0x20 MUL PUSH1 0x20 ADD DUP3 ADD PUSH1 0x40 MSTORE DUP1 ISZERO PUSH2 0xB38 JUMPI DUP2 PUSH1 0x20 ADD JUMPDEST PUSH2 0xB25 PUSH2 0x2C38 JUMP JUMPDEST DUP2 MSTORE PUSH1 0x20 ADD SWAP1 PUSH1 0x1 SWAP1 SUB SWAP1 DUP2 PUSH2 0xB1D JUMPI SWAP1 POP JUMPDEST POP SWAP2 POP PUSH0 JUMPDEST DUP2 MLOAD DUP2 LT ISZERO PUSH2 0xFAF JUMPI PUSH2 0xB4E PUSH2 0x2C38 JUMP JUMPDEST DUP3 DUP3 DUP2 MLOAD DUP2 LT PUSH2 0xB61 JUMPI PUSH2 0xB60 PUSH2 0x3821 JUMP JUMPDEST JUMPDEST PUSH1 0x20 MUL PUSH1 0x20 ADD ADD MLOAD DUP2 PUSH1 0x20 ADD SWAP1 PUSH20 0xFFFFFFFFFFFFFFFFFFFFFFFFFFFFFFFFFFFFFFFF AND SWAP1 DUP2 PUSH20 0xFFFFFFFFFFFFFFFFFFFFFFFFFFFFFFFFFFFFFFFF AND DUP2 MSTORE POP POP DUP5 PUSH20 0xFFFFFFFFFFFFFFFFFFFFFFFFFFFFFFFFFFFFFFFF AND PUSH4 0x7EFF4BA8 DUP10 PUSH2 0x140 ADD MLOAD DUP4 PUSH1 0x20 ADD MLOAD PUSH1 0x40 MLOAD DUP4 PUSH4 0xFFFFFFFF AND PUSH1 0xE0 SHL DUP2 MSTORE PUSH1 0x4 ADD PUSH2 0xBE4 SWAP3 SWAP2 SWAP1 PUSH2 0x3B86 JUMP JUMPDEST PUSH1 0x80 PUSH1 0x40 MLOAD DUP1 DUP4 SUB DUP2 DUP7 GAS STATICCALL ISZERO DUP1 ISZERO PUSH2 0xBFF JUMPI RETURNDATASIZE PUSH0 DUP1 RETURNDATACOPY RETURNDATASIZE PUSH0 REVERT JUMPDEST POP POP POP POP PUSH1 0x40 MLOAD RETURNDATASIZE PUSH1 0x1F NOT PUSH1 0x1F DUP3 ADD AND DUP3 ADD DUP1 PUSH1 0x40 MSTORE POP DUP2 ADD SWAP1 PUSH2 0xC23 SWAP2 SWAP1 PUSH2 0x3BAD JUMP JUMPDEST DUP5 PUSH1 0xA0 ADD DUP6 PUSH1 0x60 ADD DUP7 PUSH1 0x80 ADD DUP8 PUSH1 0xC0 ADD DUP5 DUP2 MSTORE POP DUP5 DUP2 MSTORE POP DUP5 DUP2 MSTORE POP DUP5 DUP2 MSTORE POP POP POP POP POP DUP5 PUSH20 0xFFFFFFFFFFFFFFFFFFFFFFFFFFFFFFFFFFFFFFFF AND PUSH4 0x9EFD6F72 DUP10 PUSH2 0x140 ADD MLOAD PUSH1 0x40 MLOAD DUP3 PUSH4 0xFFFFFFFF AND PUSH1 0xE0 SHL DUP2 MSTORE PUSH1 0x4 ADD PUSH2 0xC85 SWAP2 SWAP1 PUSH2 0x385D JUMP JUMPDEST PUSH1 0x20 PUSH1 0x40 MLOAD DUP1 DUP4 SUB DUP2 DUP7 GAS STATICCALL ISZERO DUP1 ISZERO PUSH2 0xCA0 JUMPI RETURNDATASIZE PUSH0 DUP1 RETURNDATACOPY RETURNDATASIZE PUSH0 REVERT JUMPDEST POP POP POP POP PUSH1 0x40 MLOAD RETURNDATASIZE PUSH1 0x1F NOT PUSH1 0x1F DUP3 ADD AND DUP3 ADD DUP1 PUSH1 0x40 MSTORE POP DUP2 ADD SWAP1 PUSH2 0xCC4 SWAP2 SWAP1 PUSH2 0x3C3B JUMP JUMPDEST DUP2 PUSH2 0x120 ADD SWAP1 PUSH1 0xFF AND SWAP1 DUP2 PUSH1 0xFF AND DUP2 MSTORE POP POP DUP1 PUSH1 0x20 ADD MLOAD PUSH20 0xFFFFFFFFFFFFFFFFFFFFFFFFFFFFFFFFFFFFFFFF AND PUSH4 0x313CE567 PUSH1 0x40 MLOAD DUP2 PUSH4 0xFFFFFFFF AND PUSH1 0xE0 SHL DUP2 MSTORE PUSH1 0x4 ADD PUSH1 0x20 PUSH1 0x40 MLOAD DUP1 DUP4 SUB DUP2 DUP7 GAS STATICCALL ISZERO DUP1 ISZERO PUSH2 0xD23 JUMPI RETURNDATASIZE PUSH0 DUP1 RETURNDATACOPY RETURNDATASIZE PUSH0 REVERT JUMPDEST POP POP POP POP PUSH1 0x40 MLOAD RETURNDATASIZE PUSH1 0x1F NOT PUSH1 0x1F DUP3 ADD AND DUP3 ADD DUP1 PUSH1 0x40 MSTORE POP DUP2 ADD SWAP1 PUSH2 0xD47 SWAP2 SWAP1 PUSH2 0x3C3B JUMP JUMPDEST DUP2 PUSH2 0x100 ADD SWAP1 PUSH1 0xFF AND SWAP1 DUP2 PUSH1 0xFF AND DUP2 MSTORE POP POP DUP1 PUSH1 0x20 ADD MLOAD PUSH20 0xFFFFFFFFFFFFFFFFFFFFFFFFFFFFFFFFFFFFFFFF AND PUSH4 0x95D89B41 PUSH1 0x40 MLOAD DUP2 PUSH4 0xFFFFFFFF AND PUSH1 0xE0 SHL DUP2 MSTORE PUSH1 0x4 ADD PUSH0 PUSH1 0x40 MLOAD DUP1 DUP4 SUB DUP2 DUP7 GAS STATICCALL ISZERO DUP1 ISZERO PUSH2 0xDA5 JUMPI RETURNDATASIZE PUSH0 DUP1 RETURNDATACOPY RETURNDATASIZE PUSH0 REVERT JUMPDEST POP POP POP POP PUSH1 0x40 MLOAD RETURNDATASIZE PUSH0 DUP3 RETURNDATACOPY RETURNDATASIZE PUSH1 0x1F NOT PUSH1 0x1F DUP3 ADD AND DUP3 ADD DUP1 PUSH1 0x40 MSTORE POP DUP2 ADD SWAP1 PUSH2 0xDCD SWAP2 SWAP1 PUSH2 0x3D08 JUMP JUMPDEST DUP2 PUSH0 ADD DUP2 SWAP1 MSTORE POP DUP5 PUSH20 0xFFFFFFFFFFFFFFFFFFFFFFFFFFFFFFFFFFFFFFFF AND PUSH4 0x2A17BF60 DUP3 PUSH1 0x20 ADD MLOAD PUSH1 0x40 MLOAD DUP3 PUSH4 0xFFFFFFFF AND PUSH1 0xE0 SHL DUP2 MSTORE PUSH1 0x4 ADD PUSH2 0xE11 SWAP2 SWAP1 PUSH2 0x385D JUMP JUMPDEST PUSH1 0x20 PUSH1 0x40 MLOAD DUP1 DUP4 SUB DUP2 DUP7 GAS STATICCALL ISZERO DUP1 ISZERO PUSH2 0xE2C JUMPI RETURNDATASIZE PUSH0 DUP1 RETURNDATACOPY RETURNDATASIZE PUSH0 REVERT JUMPDEST POP POP POP POP PUSH1 0x40 MLOAD RETURNDATASIZE PUSH1 0x1F NOT PUSH1 0x1F DUP3 ADD AND DUP3 ADD DUP1 PUSH1 0x40 MSTORE POP DUP2 ADD SWAP1 PUSH2 0xE50 SWAP2 SWAP1 PUSH2 0x366F JUMP JUMPDEST DUP2 PUSH1 0x40 ADD SWAP1 PUSH20 0xFFFFFFFFFFFFFFFFFFFFFFFFFFFFFFFFFFFFFFFF AND SWAP1 DUP2 PUSH20 0xFFFFFFFFFFFFFFFFFFFFFFFFFFFFFFFFFFFFFFFF AND DUP2 MSTORE POP POP DUP1 PUSH1 0x40 ADD MLOAD PUSH20 0xFFFFFFFFFFFFFFFFFFFFFFFFFFFFFFFFFFFFFFFF AND PUSH4 0x313CE567 PUSH1 0x40 MLOAD DUP2 PUSH4 0xFFFFFFFF AND PUSH1 0xE0 SHL DUP2 MSTORE PUSH1 0x4 ADD PUSH1 0x20 PUSH1 0x40 MLOAD DUP1 DUP4 SUB DUP2 DUP7 GAS STATICCALL ISZERO DUP1 ISZERO PUSH2 0xED4 JUMPI RETURNDATASIZE PUSH0 DUP1 RETURNDATACOPY RETURNDATASIZE PUSH0 REVERT JUMPDEST POP POP POP POP PUSH1 0x40 MLOAD RETURNDATASIZE PUSH1 0x1F NOT PUSH1 0x1F DUP3 ADD AND DUP3 ADD DUP1 PUSH1 0x40 MSTORE POP DUP2 ADD SWAP1 PUSH2 0xEF8 SWAP2 SWAP1 PUSH2 0x3C3B JUMP JUMPDEST DUP2 PUSH2 0x140 ADD SWAP1 PUSH1 0xFF AND SWAP1 DUP2 PUSH1 0xFF AND DUP2 MSTORE POP POP DUP1 PUSH1 0x40 ADD MLOAD PUSH20 0xFFFFFFFFFFFFFFFFFFFFFFFFFFFFFFFFFFFFFFFF AND PUSH4 0x50D25BCD PUSH1 0x40 MLOAD DUP2 PUSH4 0xFFFFFFFF AND PUSH1 0xE0 SHL DUP2 MSTORE PUSH1 0x4 ADD PUSH1 0x20 PUSH1 0x40 MLOAD DUP1 DUP4 SUB DUP2 DUP7 GAS STATICCALL ISZERO DUP1 ISZERO PUSH2 0xF57 JUMPI RETURNDATASIZE PUSH0 DUP1 RETURNDATACOPY RETURNDATASIZE PUSH0 REVERT JUMPDEST POP POP POP POP PUSH1 0x40 MLOAD RETURNDATASIZE PUSH1 0x1F NOT PUSH1 0x1F DUP3 ADD AND DUP3 ADD DUP1 PUSH1 0x40 MSTORE POP DUP2 ADD SWAP1 PUSH2 0xF7B SWAP2 SWAP1 PUSH2 0x3D79 JUMP JUMPDEST DUP2 PUSH1 0xE0 ADD DUP2 DUP2 MSTORE POP POP DUP1 DUP5 DUP4 DUP2 MLOAD DUP2 LT PUSH2 0xF98 JUMPI PUSH2 0xF97 PUSH2 0x3821 JUMP JUMPDEST JUMPDEST PUSH1 0x20 MUL PUSH1 0x20 ADD ADD DUP2 SWAP1 MSTORE POP POP DUP1 PUSH1 0x1 ADD SWAP1 POP PUSH2 0xB3D JUMP JUMPDEST POP POP JUMPDEST PUSH1 0x40 MLOAD DUP1 PUSH1 0x60 ADD PUSH1 0x40 MSTORE DUP1 DUP7 PUSH2 0x140 ADD MLOAD PUSH20 0xFFFFFFFFFFFFFFFFFFFFFFFFFFFFFFFFFFFFFFFF AND DUP2 MSTORE PUSH1 0x20 ADD DUP4 PUSH20 0xFFFFFFFFFFFFFFFFFFFFFFFFFFFFFFFFFFFFFFFF AND DUP2 MSTORE PUSH1 0x20 ADD DUP3 DUP2 MSTORE POP DUP7 PUSH1 0x40 ADD DUP2 SWAP1 MSTORE POP PUSH0 DUP6 PUSH2 0x120 ADD MLOAD PUSH20 0xFFFFFFFFFFFFFFFFFFFFFFFFFFFFFFFFFFFFFFFF AND PUSH4 0x75D26413 PUSH1 0x40 MLOAD DUP2 PUSH4 0xFFFFFFFF AND PUSH1 0xE0 SHL DUP2 MSTORE PUSH1 0x4 ADD PUSH1 0x20 PUSH1 0x40 MLOAD DUP1 DUP4 SUB DUP2 DUP7 GAS STATICCALL ISZERO DUP1 ISZERO PUSH2 0x1055 JUMPI RETURNDATASIZE PUSH0 DUP1 RETURNDATACOPY RETURNDATASIZE PUSH0 REVERT JUMPDEST POP POP POP POP PUSH1 0x40 MLOAD RETURNDATASIZE PUSH1 0x1F NOT PUSH1 0x1F DUP3 ADD AND DUP3 ADD DUP1 PUSH1 0x40 MSTORE POP DUP2 ADD SWAP1 PUSH2 0x1079 SWAP2 SWAP1 PUSH2 0x3B5B JUMP JUMPDEST SWAP1 POP PUSH1 0x60 PUSH0 PUSH20 0xFFFFFFFFFFFFFFFFFFFFFFFFFFFFFFFFFFFFFFFF AND DUP3 PUSH20 0xFFFFFFFFFFFFFFFFFFFFFFFFFFFFFFFFFFFFFFFF AND EQ PUSH2 0x1601 JUMPI PUSH0 DUP3 PUSH20 0xFFFFFFFFFFFFFFFFFFFFFFFFFFFFFFFFFFFFFFFF AND PUSH4 0x6657732F DUP10 PUSH2 0x120 ADD MLOAD PUSH1 0x40 MLOAD DUP3 PUSH4 0xFFFFFFFF AND PUSH1 0xE0 SHL DUP2 MSTORE PUSH1 0x4 ADD PUSH2 0x10EF SWAP2 SWAP1 PUSH2 0x385D JUMP JUMPDEST PUSH0 PUSH1 0x40 MLOAD DUP1 DUP4 SUB DUP2 DUP7 GAS STATICCALL ISZERO DUP1 ISZERO PUSH2 0x1109 JUMPI RETURNDATASIZE PUSH0 DUP1 RETURNDATACOPY RETURNDATASIZE PUSH0 REVERT JUMPDEST POP POP POP POP PUSH1 0x40 MLOAD RETURNDATASIZE PUSH0 DUP3 RETURNDATACOPY RETURNDATASIZE PUSH1 0x1F NOT PUSH1 0x1F DUP3 ADD AND DUP3 ADD DUP1 PUSH1 0x40 MSTORE POP DUP2 ADD SWAP1 PUSH2 0x1131 SWAP2 SWAP1 PUSH2 0x37DA JUMP JUMPDEST SWAP1 POP DUP1 MLOAD PUSH8 0xFFFFFFFFFFFFFFFF DUP2 GT ISZERO PUSH2 0x114E JUMPI PUSH2 0x114D PUSH2 0x369E JUMP JUMPDEST JUMPDEST PUSH1 0x40 MLOAD SWAP1 DUP1 DUP3 MSTORE DUP1 PUSH1 0x20 MUL PUSH1 0x20 ADD DUP3 ADD PUSH1 0x40 MSTORE DUP1 ISZERO PUSH2 0x1187 JUMPI DUP2 PUSH1 0x20 ADD JUMPDEST PUSH2 0x1174 PUSH2 0x2C38 JUMP JUMPDEST DUP2 MSTORE PUSH1 0x20 ADD SWAP1 PUSH1 0x1 SWAP1 SUB SWAP1 DUP2 PUSH2 0x116C JUMPI SWAP1 POP JUMPDEST POP SWAP2 POP PUSH0 JUMPDEST DUP2 MLOAD DUP2 LT ISZERO PUSH2 0x15FE JUMPI PUSH2 0x119D PUSH2 0x2C38 JUMP JUMPDEST DUP3 DUP3 DUP2 MLOAD DUP2 LT PUSH2 0x11B0 JUMPI PUSH2 0x11AF PUSH2 0x3821 JUMP JUMPDEST JUMPDEST PUSH1 0x20 MUL PUSH1 0x20 ADD ADD MLOAD DUP2 PUSH1 0x20 ADD SWAP1 PUSH20 0xFFFFFFFFFFFFFFFFFFFFFFFFFFFFFFFFFFFFFFFF AND SWAP1 DUP2 PUSH20 0xFFFFFFFFFFFFFFFFFFFFFFFFFFFFFFFFFFFFFFFF AND DUP2 MSTORE POP POP DUP5 PUSH20 0xFFFFFFFFFFFFFFFFFFFFFFFFFFFFFFFFFFFFFFFF AND PUSH4 0x7EFF4BA8 DUP12 PUSH2 0x120 ADD MLOAD DUP4 PUSH1 0x20 ADD MLOAD PUSH1 0x40 MLOAD DUP4 PUSH4 0xFFFFFFFF AND PUSH1 0xE0 SHL DUP2 MSTORE PUSH1 0x4 ADD PUSH2 0x1233 SWAP3 SWAP2 SWAP1 PUSH2 0x3B86 JUMP JUMPDEST PUSH1 0x80 PUSH1 0x40 MLOAD DUP1 DUP4 SUB DUP2 DUP7 GAS STATICCALL ISZERO DUP1 ISZERO PUSH2 0x124E JUMPI RETURNDATASIZE PUSH0 DUP1 RETURNDATACOPY RETURNDATASIZE PUSH0 REVERT JUMPDEST POP POP POP POP PUSH1 0x40 MLOAD RETURNDATASIZE PUSH1 0x1F NOT PUSH1 0x1F DUP3 ADD AND DUP3 ADD DUP1 PUSH1 0x40 MSTORE POP DUP2 ADD SWAP1 PUSH2 0x1272 SWAP2 SWAP1 PUSH2 0x3BAD JUMP JUMPDEST DUP5 PUSH1 0xA0 ADD DUP6 PUSH1 0x60 ADD DUP7 PUSH1 0x80 ADD DUP8 PUSH1 0xC0 ADD DUP5 DUP2 MSTORE POP DUP5 DUP2 MSTORE POP DUP5 DUP2 MSTORE POP DUP5 DUP2 MSTORE POP POP POP POP POP DUP5 PUSH20 0xFFFFFFFFFFFFFFFFFFFFFFFFFFFFFFFFFFFFFFFF AND PUSH4 0x9EFD6F72 DUP12 PUSH2 0x120 ADD MLOAD PUSH1 0x40 MLOAD DUP3 PUSH4 0xFFFFFFFF AND PUSH1 0xE0 SHL DUP2 MSTORE PUSH1 0x4 ADD PUSH2 0x12D4 SWAP2 SWAP1 PUSH2 0x385D JUMP JUMPDEST PUSH1 0x20 PUSH1 0x40 MLOAD DUP1 DUP4 SUB DUP2 DUP7 GAS STATICCALL ISZERO DUP1 ISZERO PUSH2 0x12EF JUMPI RETURNDATASIZE PUSH0 DUP1 RETURNDATACOPY RETURNDATASIZE PUSH0 REVERT JUMPDEST POP POP POP POP PUSH1 0x40 MLOAD RETURNDATASIZE PUSH1 0x1F NOT PUSH1 0x1F DUP3 ADD AND DUP3 ADD DUP1 PUSH1 0x40 MSTORE POP DUP2 ADD SWAP1 PUSH2 0x1313 SWAP2 SWAP1 PUSH2 0x3C3B JUMP JUMPDEST DUP2 PUSH2 0x120 ADD SWAP1 PUSH1 0xFF AND SWAP1 DUP2 PUSH1 0xFF AND DUP2 MSTORE POP POP DUP1 PUSH1 0x20 ADD MLOAD PUSH20 0xFFFFFFFFFFFFFFFFFFFFFFFFFFFFFFFFFFFFFFFF AND PUSH4 0x313CE567 PUSH1 0x40 MLOAD DUP2 PUSH4 0xFFFFFFFF AND PUSH1 0xE0 SHL DUP2 MSTORE PUSH1 0x4 ADD PUSH1 0x20 PUSH1 0x40 MLOAD DUP1 DUP4 SUB DUP2 DUP7 GAS STATICCALL ISZERO DUP1 ISZERO PUSH2 0x1372 JUMPI RETURNDATASIZE PUSH0 DUP1 RETURNDATACOPY RETURNDATASIZE PUSH0 REVERT JUMPDEST POP POP POP POP PUSH1 0x40 MLOAD RETURNDATASIZE PUSH1 0x1F NOT PUSH1 0x1F DUP3 ADD AND DUP3 ADD DUP1 PUSH1 0x40 MSTORE POP DUP2 ADD SWAP1 PUSH2 0x1396 SWAP2 SWAP1 PUSH2 0x3C3B JUMP JUMPDEST DUP2 PUSH2 0x100 ADD SWAP1 PUSH1 0xFF AND SWAP1 DUP2 PUSH1 0xFF AND DUP2 MSTORE POP POP DUP1 PUSH1 0x20 ADD MLOAD PUSH20 0xFFFFFFFFFFFFFFFFFFFFFFFFFFFFFFFFFFFFFFFF AND PUSH4 0x95D89B41 PUSH1 0x40 MLOAD DUP2 PUSH4 0xFFFFFFFF AND PUSH1 0xE0 SHL DUP2 MSTORE PUSH1 0x4 ADD PUSH0 PUSH1 0x40 MLOAD DUP1 DUP4 SUB DUP2 DUP7 GAS STATICCALL ISZERO DUP1 ISZERO PUSH2 0x13F4 JUMPI RETURNDATASIZE PUSH0 DUP1 RETURNDATACOPY RETURNDATASIZE PUSH0 REVERT JUMPDEST POP POP POP POP PUSH1 0x40 MLOAD RETURNDATASIZE PUSH0 DUP3 RETURNDATACOPY RETURNDATASIZE PUSH1 0x1F NOT PUSH1 0x1F DUP3 ADD AND DUP3 ADD DUP1 PUSH1 0x40 MSTORE POP DUP2 ADD SWAP1 PUSH2 0x141C SWAP2 SWAP1 PUSH2 0x3D08 JUMP JUMPDEST DUP2 PUSH0 ADD DUP2 SWAP1 MSTORE POP DUP5 PUSH20 0xFFFFFFFFFFFFFFFFFFFFFFFFFFFFFFFFFFFFFFFF AND PUSH4 0x2A17BF60 DUP3 PUSH1 0x20 ADD MLOAD PUSH1 0x40 MLOAD DUP3 PUSH4 0xFFFFFFFF AND PUSH1 0xE0 SHL DUP2 MSTORE PUSH1 0x4 ADD PUSH2 0x1460 SWAP2 SWAP1 PUSH2 0x385D JUMP JUMPDEST PUSH1 0x20 PUSH1 0x40 MLOAD DUP1 DUP4 SUB DUP2 DUP7 GAS STATICCALL ISZERO DUP1 ISZERO PUSH2 0x147B JUMPI RETURNDATASIZE PUSH0 DUP1 RETURNDATACOPY RETURNDATASIZE PUSH0 REVERT JUMPDEST POP POP POP POP PUSH1 0x40 MLOAD RETURNDATASIZE PUSH1 0x1F NOT PUSH1 0x1F DUP3 ADD AND DUP3 ADD DUP1 PUSH1 0x40 MSTORE POP DUP2 ADD SWAP1 PUSH2 0x149F SWAP2 SWAP1 PUSH2 0x366F JUMP JUMPDEST DUP2 PUSH1 0x40 ADD SWAP1 PUSH20 0xFFFFFFFFFFFFFFFFFFFFFFFFFFFFFFFFFFFFFFFF AND SWAP1 DUP2 PUSH20 0xFFFFFFFFFFFFFFFFFFFFFFFFFFFFFFFFFFFFFFFF AND DUP2 MSTORE POP POP DUP1 PUSH1 0x40 ADD MLOAD PUSH20 0xFFFFFFFFFFFFFFFFFFFFFFFFFFFFFFFFFFFFFFFF AND PUSH4 0x313CE567 PUSH1 0x40 MLOAD DUP2 PUSH4 0xFFFFFFFF AND PUSH1 0xE0 SHL DUP2 MSTORE PUSH1 0x4 ADD PUSH1 0x20 PUSH1 0x40 MLOAD DUP1 DUP4 SUB DUP2 DUP7 GAS STATICCALL ISZERO DUP1 ISZERO PUSH2 0x1523 JUMPI RETURNDATASIZE PUSH0 DUP1 RETURNDATACOPY RETURNDATASIZE PUSH0 REVERT JUMPDEST POP POP POP POP PUSH1 0x40 MLOAD RETURNDATASIZE PUSH1 0x1F NOT PUSH1 0x1F DUP3 ADD AND DUP3 ADD DUP1 PUSH1 0x40 MSTORE POP DUP2 ADD SWAP1 PUSH2 0x1547 SWAP2 SWAP1 PUSH2 0x3C3B JUMP JUMPDEST DUP2 PUSH2 0x140 ADD SWAP1 PUSH1 0xFF AND SWAP1 DUP2 PUSH1 0xFF AND DUP2 MSTORE POP POP DUP1 PUSH1 0x40 ADD MLOAD PUSH20 0xFFFFFFFFFFFFFFFFFFFFFFFFFFFFFFFFFFFFFFFF AND PUSH4 0x50D25BCD PUSH1 0x40 MLOAD DUP2 PUSH4 0xFFFFFFFF AND PUSH1 0xE0 SHL DUP2 MSTORE PUSH1 0x4 ADD PUSH1 0x20 PUSH1 0x40 MLOAD DUP1 DUP4 SUB DUP2 DUP7 GAS STATICCALL ISZERO DUP1 ISZERO PUSH2 0x15A6 JUMPI RETURNDATASIZE PUSH0 DUP1 RETURNDATACOPY RETURNDATASIZE PUSH0 REVERT JUMPDEST POP POP POP POP PUSH1 0x40 MLOAD RETURNDATASIZE PUSH1 0x1F NOT PUSH1 0x1F DUP3 ADD AND DUP3 ADD DUP1 PUSH1 0x40 MSTORE POP DUP2 ADD SWAP1 PUSH2 0x15CA SWAP2 SWAP1 PUSH2 0x3D79 JUMP JUMPDEST DUP2 PUSH1 0xE0 ADD DUP2 DUP2 MSTORE POP POP DUP1 DUP5 DUP4 DUP2 MLOAD DUP2 LT PUSH2 0x15E7 JUMPI PUSH2 0x15E6 PUSH2 0x3821 JUMP JUMPDEST JUMPDEST PUSH1 0x20 MUL PUSH1 0x20 ADD ADD DUP2 SWAP1 MSTORE POP POP DUP1 PUSH1 0x1 ADD SWAP1 POP PUSH2 0x118C JUMP JUMPDEST POP POP JUMPDEST PUSH1 0x40 MLOAD DUP1 PUSH1 0x60 ADD PUSH1 0x40 MSTORE DUP1 DUP9 PUSH2 0x120 ADD MLOAD PUSH20 0xFFFFFFFFFFFFFFFFFFFFFFFFFFFFFFFFFFFFFFFF AND DUP2 MSTORE PUSH1 0x20 ADD DUP4 PUSH20 0xFFFFFFFFFFFFFFFFFFFFFFFFFFFFFFFFFFFFFFFF AND DUP2 MSTORE PUSH1 0x20 ADD DUP3 DUP2 MSTORE POP DUP9 PUSH1 0x60 ADD DUP2 SWAP1 MSTORE POP POP POP POP POP POP POP POP POP DUP1 DUP1 PUSH1 0x1 ADD SWAP2 POP POP PUSH2 0x25A JUMP JUMPDEST POP DUP1 SWAP4 POP POP POP POP SWAP2 SWAP1 POP JUMP JUMPDEST PUSH1 0x60 PUSH0 DUP4 PUSH20 0xFFFFFFFFFFFFFFFFFFFFFFFFFFFFFFFFFFFFFFFF AND PUSH4 0x26B1D5F PUSH1 0x40 MLOAD DUP2 PUSH4 0xFFFFFFFF AND PUSH1 0xE0 SHL DUP2 MSTORE PUSH1 0x4 ADD PUSH1 0x20 PUSH1 0x40 MLOAD DUP1 DUP4 SUB DUP2 DUP7 GAS STATICCALL ISZERO DUP1 ISZERO PUSH2 0x16C2 JUMPI RETURNDATASIZE PUSH0 DUP1 RETURNDATACOPY RETURNDATASIZE PUSH0 REVERT JUMPDEST POP POP POP POP PUSH1 0x40 MLOAD RETURNDATASIZE PUSH1 0x1F NOT PUSH1 0x1F DUP3 ADD AND DUP3 ADD DUP1 PUSH1 0x40 MSTORE POP DUP2 ADD SWAP1 PUSH2 0x16E6 SWAP2 SWAP1 PUSH2 0x366F JUMP JUMPDEST SWAP1 POP PUSH0 DUP2 PUSH20 0xFFFFFFFFFFFFFFFFFFFFFFFFFFFFFFFFFFFFFFFF AND PUSH4 0xD1946DBC PUSH1 0x40 MLOAD DUP2 PUSH4 0xFFFFFFFF AND PUSH1 0xE0 SHL DUP2 MSTORE PUSH1 0x4 ADD PUSH0 PUSH1 0x40 MLOAD DUP1 DUP4 SUB DUP2 DUP7 GAS STATICCALL ISZERO DUP1 ISZERO PUSH2 0x1731 JUMPI RETURNDATASIZE PUSH0 DUP1 RETURNDATACOPY RETURNDATASIZE PUSH0 REVERT JUMPDEST POP POP POP POP PUSH1 0x40 MLOAD RETURNDATASIZE PUSH0 DUP3 RETURNDATACOPY RETURNDATASIZE PUSH1 0x1F NOT PUSH1 0x1F DUP3 ADD AND DUP3 ADD DUP1 PUSH1 0x40 MSTORE POP DUP2 ADD SWAP1 PUSH2 0x1759 SWAP2 SWAP1 PUSH2 0x37DA JUMP JUMPDEST SWAP1 POP PUSH0 DUP1 PUSH20 0xFFFFFFFFFFFFFFFFFFFFFFFFFFFFFFFFFFFFFFFF AND DUP6 PUSH20 0xFFFFFFFFFFFFFFFFFFFFFFFFFFFFFFFFFFFFFFFF AND SUB PUSH2 0x1795 JUMPI PUSH0 PUSH2 0x1798 JUMP JUMPDEST DUP2 MLOAD JUMPDEST PUSH8 0xFFFFFFFFFFFFFFFF DUP2 GT ISZERO PUSH2 0x17B1 JUMPI PUSH2 0x17B0 PUSH2 0x369E JUMP JUMPDEST JUMPDEST PUSH1 0x40 MLOAD SWAP1 DUP1 DUP3 MSTORE DUP1 PUSH1 0x20 MUL PUSH1 0x20 ADD DUP3 ADD PUSH1 0x40 MSTORE DUP1 ISZERO PUSH2 0x17EA JUMPI DUP2 PUSH1 0x20 ADD JUMPDEST PUSH2 0x17D7 PUSH2 0x2CBD JUMP JUMPDEST DUP2 MSTORE PUSH1 0x20 ADD SWAP1 PUSH1 0x1 SWAP1 SUB SWAP1 DUP2 PUSH2 0x17CF JUMPI SWAP1 POP JUMPDEST POP SWAP1 POP PUSH0 JUMPDEST DUP3 MLOAD DUP2 LT ISZERO PUSH2 0x2BDC JUMPI PUSH0 DUP5 PUSH20 0xFFFFFFFFFFFFFFFFFFFFFFFFFFFFFFFFFFFFFFFF AND PUSH4 0x35EA6A75 DUP6 DUP5 DUP2 MLOAD DUP2 LT PUSH2 0x1828 JUMPI PUSH2 0x1827 PUSH2 0x3821 JUMP JUMPDEST JUMPDEST PUSH1 0x20 MUL PUSH1 0x20 ADD ADD MLOAD PUSH1 0x40 MLOAD DUP3 PUSH4 0xFFFFFFFF AND PUSH1 0xE0 SHL DUP2 MSTORE PUSH1 0x4 ADD PUSH2 0x184C SWAP2 SWAP1 PUSH2 0x385D JUMP JUMPDEST PUSH2 0x1E0 PUSH1 0x40 MLOAD DUP1 DUP4 SUB DUP2 DUP7 GAS STATICCALL ISZERO DUP1 ISZERO PUSH2 0x1868 JUMPI RETURNDATASIZE PUSH0 DUP1 RETURNDATACOPY RETURNDATASIZE PUSH0 REVERT JUMPDEST POP POP POP POP PUSH1 0x40 MLOAD RETURNDATASIZE PUSH1 0x1F NOT PUSH1 0x1F DUP3 ADD AND DUP3 ADD DUP1 PUSH1 0x40 MSTORE POP DUP2 ADD SWAP1 PUSH2 0x188C SWAP2 SWAP1 PUSH2 0x3AF4 JUMP JUMPDEST SWAP1 POP DUP4 DUP3 DUP2 MLOAD DUP2 LT PUSH2 0x18A1 JUMPI PUSH2 0x18A0 PUSH2 0x3821 JUMP JUMPDEST JUMPDEST PUSH1 0x20 MUL PUSH1 0x20 ADD ADD MLOAD DUP4 DUP4 DUP2 MLOAD DUP2 LT PUSH2 0x18BC JUMPI PUSH2 0x18BB PUSH2 0x3821 JUMP JUMPDEST JUMPDEST PUSH1 0x20 MUL PUSH1 0x20 ADD ADD MLOAD PUSH0 ADD SWAP1 PUSH20 0xFFFFFFFFFFFFFFFFFFFFFFFFFFFFFFFFFFFFFFFF AND SWAP1 DUP2 PUSH20 0xFFFFFFFFFFFFFFFFFFFFFFFFFFFFFFFFFFFFFFFF AND DUP2 MSTORE POP POP PUSH0 DUP2 PUSH2 0x100 ADD MLOAD PUSH20 0xFFFFFFFFFFFFFFFFFFFFFFFFFFFFFFFFFFFFFFFF AND PUSH4 0x75D26413 PUSH1 0x40 MLOAD DUP2 PUSH4 0xFFFFFFFF AND PUSH1 0xE0 SHL DUP2 MSTORE PUSH1 0x4 ADD PUSH1 0x20 PUSH1 0x40 MLOAD DUP1 DUP4 SUB DUP2 DUP7 GAS STATICCALL ISZERO DUP1 ISZERO PUSH2 0x1948 JUMPI RETURNDATASIZE PUSH0 DUP1 RETURNDATACOPY RETURNDATASIZE PUSH0 REVERT JUMPDEST POP POP POP POP PUSH1 0x40 MLOAD RETURNDATASIZE PUSH1 0x1F NOT PUSH1 0x1F DUP3 ADD AND DUP3 ADD DUP1 PUSH1 0x40 MSTORE POP DUP2 ADD SWAP1 PUSH2 0x196C SWAP2 SWAP1 PUSH2 0x3B5B JUMP JUMPDEST SWAP1 POP PUSH0 PUSH20 0xFFFFFFFFFFFFFFFFFFFFFFFFFFFFFFFFFFFFFFFF AND DUP2 PUSH20 0xFFFFFFFFFFFFFFFFFFFFFFFFFFFFFFFFFFFFFFFF AND EQ PUSH2 0x1F3F JUMPI PUSH0 DUP2 PUSH20 0xFFFFFFFFFFFFFFFFFFFFFFFFFFFFFFFFFFFFFFFF AND PUSH4 0x6657732F DUP5 PUSH2 0x100 ADD MLOAD PUSH1 0x40 MLOAD DUP3 PUSH4 0xFFFFFFFF AND PUSH1 0xE0 SHL DUP2 MSTORE PUSH1 0x4 ADD PUSH2 0x19E0 SWAP2 SWAP1 PUSH2 0x385D JUMP JUMPDEST PUSH0 PUSH1 0x40 MLOAD DUP1 DUP4 SUB DUP2 DUP7 GAS STATICCALL ISZERO DUP1 ISZERO PUSH2 0x19FA JUMPI RETURNDATASIZE PUSH0 DUP1 RETURNDATACOPY RETURNDATASIZE PUSH0 REVERT JUMPDEST POP POP POP POP PUSH1 0x40 MLOAD RETURNDATASIZE PUSH0 DUP3 RETURNDATACOPY RETURNDATASIZE PUSH1 0x1F NOT PUSH1 0x1F DUP3 ADD AND DUP3 ADD DUP1 PUSH1 0x40 MSTORE POP DUP2 ADD SWAP1 PUSH2 0x1A22 SWAP2 SWAP1 PUSH2 0x37DA JUMP JUMPDEST SWAP1 POP PUSH0 DUP2 MLOAD PUSH8 0xFFFFFFFFFFFFFFFF DUP2 GT ISZERO PUSH2 0x1A40 JUMPI PUSH2 0x1A3F PUSH2 0x369E JUMP JUMPDEST JUMPDEST PUSH1 0x40 MLOAD SWAP1 DUP1 DUP3 MSTORE DUP1 PUSH1 0x20 MUL PUSH1 0x20 ADD DUP3 ADD PUSH1 0x40 MSTORE DUP1 ISZERO PUSH2 0x1A79 JUMPI DUP2 PUSH1 0x20 ADD JUMPDEST PUSH2 0x1A66 PUSH2 0x2D0C JUMP JUMPDEST DUP2 MSTORE PUSH1 0x20 ADD SWAP1 PUSH1 0x1 SWAP1 SUB SWAP1 DUP2 PUSH2 0x1A5E JUMPI SWAP1 POP JUMPDEST POP SWAP1 POP PUSH0 JUMPDEST DUP3 MLOAD DUP2 LT ISZERO PUSH2 0x1ECD JUMPI PUSH2 0x1A8F PUSH2 0x2D0C JUMP JUMPDEST DUP4 DUP3 DUP2 MLOAD DUP2 LT PUSH2 0x1AA2 JUMPI PUSH2 0x1AA1 PUSH2 0x3821 JUMP JUMPDEST JUMPDEST PUSH1 0x20 MUL PUSH1 0x20 ADD ADD MLOAD DUP2 PUSH1 0x40 ADD SWAP1 PUSH20 0xFFFFFFFFFFFFFFFFFFFFFFFFFFFFFFFFFFFFFFFF AND SWAP1 DUP2 PUSH20 0xFFFFFFFFFFFFFFFFFFFFFFFFFFFFFFFFFFFFFFFF AND DUP2 MSTORE POP POP DUP5 PUSH20 0xFFFFFFFFFFFFFFFFFFFFFFFFFFFFFFFFFFFFFFFF AND PUSH4 0x533F542A DUP14 DUP9 PUSH2 0x100 ADD MLOAD DUP5 PUSH1 0x40 ADD MLOAD PUSH1 0x40 MLOAD DUP5 PUSH4 0xFFFFFFFF AND PUSH1 0xE0 SHL DUP2 MSTORE PUSH1 0x4 ADD PUSH2 0x1B27 SWAP4 SWAP3 SWAP2 SWAP1 PUSH2 0x3DA4 JUMP JUMPDEST PUSH1 0x20 PUSH1 0x40 MLOAD DUP1 DUP4 SUB DUP2 DUP7 GAS STATICCALL ISZERO DUP1 ISZERO PUSH2 0x1B42 JUMPI RETURNDATASIZE PUSH0 DUP1 RETURNDATACOPY RETURNDATASIZE PUSH0 REVERT JUMPDEST POP POP POP POP PUSH1 0x40 MLOAD RETURNDATASIZE PUSH1 0x1F NOT PUSH1 0x1F DUP3 ADD AND DUP3 ADD DUP1 PUSH1 0x40 MSTORE POP DUP2 ADD SWAP1 PUSH2 0x1B66 SWAP2 SWAP1 PUSH2 0x3DD9 JUMP JUMPDEST DUP2 PUSH1 0x80 ADD DUP2 DUP2 MSTORE POP POP DUP5 PUSH20 0xFFFFFFFFFFFFFFFFFFFFFFFFFFFFFFFFFFFFFFFF AND PUSH4 0xB022418C DUP14 DUP4 PUSH1 0x40 ADD MLOAD PUSH1 0x40 MLOAD DUP4 PUSH4 0xFFFFFFFF AND PUSH1 0xE0 SHL DUP2 MSTORE PUSH1 0x4 ADD PUSH2 0x1BAE SWAP3 SWAP2 SWAP1 PUSH2 0x3B86 JUMP JUMPDEST PUSH1 0x20 PUSH1 0x40 MLOAD DUP1 DUP4 SUB DUP2 DUP7 GAS STATICCALL ISZERO DUP1 ISZERO PUSH2 0x1BC9 JUMPI RETURNDATASIZE PUSH0 DUP1 RETURNDATACOPY RETURNDATASIZE PUSH0 REVERT JUMPDEST POP POP POP POP PUSH1 0x40 MLOAD RETURNDATASIZE PUSH1 0x1F NOT PUSH1 0x1F DUP3 ADD AND DUP3 ADD DUP1 PUSH1 0x40 MSTORE POP DUP2 ADD SWAP1 PUSH2 0x1BED SWAP2 SWAP1 PUSH2 0x3DD9 JUMP JUMPDEST DUP2 PUSH1 0x60 ADD DUP2 DUP2 MSTORE POP POP DUP1 PUSH1 0x40 ADD MLOAD PUSH20 0xFFFFFFFFFFFFFFFFFFFFFFFFFFFFFFFFFFFFFFFF AND PUSH4 0x313CE567 PUSH1 0x40 MLOAD DUP2 PUSH4 0xFFFFFFFF AND PUSH1 0xE0 SHL DUP2 MSTORE PUSH1 0x4 ADD PUSH1 0x20 PUSH1 0x40 MLOAD DUP1 DUP4 SUB DUP2 DUP7 GAS STATICCALL ISZERO DUP1 ISZERO PUSH2 0x1C43 JUMPI RETURNDATASIZE PUSH0 DUP1 RETURNDATACOPY RETURNDATASIZE PUSH0 REVERT JUMPDEST POP POP POP POP PUSH1 0x40 MLOAD RETURNDATASIZE PUSH1 0x1F NOT PUSH1 0x1F DUP3 ADD AND DUP3 ADD DUP1 PUSH1 0x40 MSTORE POP DUP2 ADD SWAP1 PUSH2 0x1C67 SWAP2 SWAP1 PUSH2 0x3C3B JUMP JUMPDEST DUP2 PUSH1 0xE0 ADD SWAP1 PUSH1 0xFF AND SWAP1 DUP2 PUSH1 0xFF AND DUP2 MSTORE POP POP DUP1 PUSH1 0x40 ADD MLOAD PUSH20 0xFFFFFFFFFFFFFFFFFFFFFFFFFFFFFFFFFFFFFFFF AND PUSH4 0x95D89B41 PUSH1 0x40 MLOAD DUP2 PUSH4 0xFFFFFFFF AND PUSH1 0xE0 SHL DUP2 MSTORE PUSH1 0x4 ADD PUSH0 PUSH1 0x40 MLOAD DUP1 DUP4 SUB DUP2 DUP7 GAS STATICCALL ISZERO DUP1 ISZERO PUSH2 0x1CC4 JUMPI RETURNDATASIZE PUSH0 DUP1 RETURNDATACOPY RETURNDATASIZE PUSH0 REVERT JUMPDEST POP POP POP POP PUSH1 0x40 MLOAD RETURNDATASIZE PUSH0 DUP3 RETURNDATACOPY RETURNDATASIZE PUSH1 0x1F NOT PUSH1 0x1F DUP3 ADD AND DUP3 ADD DUP1 PUSH1 0x40 MSTORE POP DUP2 ADD SWAP1 PUSH2 0x1CEC SWAP2 SWAP1 PUSH2 0x3D08 JUMP JUMPDEST DUP2 PUSH0 ADD DUP2 SWAP1 MSTORE POP DUP5 PUSH20 0xFFFFFFFFFFFFFFFFFFFFFFFFFFFFFFFFFFFFFFFF AND PUSH4 0x2A17BF60 DUP3 PUSH1 0x40 ADD MLOAD PUSH1 0x40 MLOAD DUP3 PUSH4 0xFFFFFFFF AND PUSH1 0xE0 SHL DUP2 MSTORE PUSH1 0x4 ADD PUSH2 0x1D30 SWAP2 SWAP1 PUSH2 0x385D JUMP JUMPDEST PUSH1 0x20 PUSH1 0x40 MLOAD DUP1 DUP4 SUB DUP2 DUP7 GAS STATICCALL ISZERO DUP1 ISZERO PUSH2 0x1D4B JUMPI RETURNDATASIZE PUSH0 DUP1 RETURNDATACOPY RETURNDATASIZE PUSH0 REVERT JUMPDEST POP POP POP POP PUSH1 0x40 MLOAD RETURNDATASIZE PUSH1 0x1F NOT PUSH1 0x1F DUP3 ADD AND DUP3 ADD DUP1 PUSH1 0x40 MSTORE POP DUP2 ADD SWAP1 PUSH2 0x1D6F SWAP2 SWAP1 PUSH2 0x366F JUMP JUMPDEST DUP2 PUSH1 0x20 ADD SWAP1 PUSH20 0xFFFFFFFFFFFFFFFFFFFFFFFFFFFFFFFFFFFFFFFF AND SWAP1 DUP2 PUSH20 0xFFFFFFFFFFFFFFFFFFFFFFFFFFFFFFFFFFFFFFFF AND DUP2 MSTORE POP POP DUP1 PUSH1 0x20 ADD MLOAD PUSH20 0xFFFFFFFFFFFFFFFFFFFFFFFFFFFFFFFFFFFFFFFF AND PUSH4 0x313CE567 PUSH1 0x40 MLOAD DUP2 PUSH4 0xFFFFFFFF AND PUSH1 0xE0 SHL DUP2 MSTORE PUSH1 0x4 ADD PUSH1 0x20 PUSH1 0x40 MLOAD DUP1 DUP4 SUB DUP2 DUP7 GAS STATICCALL ISZERO DUP1 ISZERO PUSH2 0x1DF3 JUMPI RETURNDATASIZE PUSH0 DUP1 RETURNDATACOPY RETURNDATASIZE PUSH0 REVERT JUMPDEST POP POP POP POP PUSH1 0x40 MLOAD RETURNDATASIZE PUSH1 0x1F NOT PUSH1 0x1F DUP3 ADD AND DUP3 ADD DUP1 PUSH1 0x40 MSTORE POP DUP2 ADD SWAP1 PUSH2 0x1E17 SWAP2 SWAP1 PUSH2 0x3C3B JUMP JUMPDEST DUP2 PUSH1 0xC0 ADD SWAP1 PUSH1 0xFF AND SWAP1 DUP2 PUSH1 0xFF AND DUP2 MSTORE POP POP DUP1 PUSH1 0x20 ADD MLOAD PUSH20 0xFFFFFFFFFFFFFFFFFFFFFFFFFFFFFFFFFFFFFFFF AND PUSH4 0x50D25BCD PUSH1 0x40 MLOAD DUP2 PUSH4 0xFFFFFFFF AND PUSH1 0xE0 SHL DUP2 MSTORE PUSH1 0x4 ADD PUSH1 0x20 PUSH1 0x40 MLOAD DUP1 DUP4 SUB DUP2 DUP7 GAS STATICCALL ISZERO DUP1 ISZERO PUSH2 0x1E75 JUMPI RETURNDATASIZE PUSH0 DUP1 RETURNDATACOPY RETURNDATASIZE PUSH0 REVERT JUMPDEST POP POP POP POP PUSH1 0x40 MLOAD RETURNDATASIZE PUSH1 0x1F NOT PUSH1 0x1F DUP3 ADD AND DUP3 ADD DUP1 PUSH1 0x40 MSTORE POP DUP2 ADD SWAP1 PUSH2 0x1E99 SWAP2 SWAP1 PUSH2 0x3D79 JUMP JUMPDEST DUP2 PUSH1 0xA0 ADD DUP2 DUP2 MSTORE POP POP DUP1 DUP4 DUP4 DUP2 MLOAD DUP2 LT PUSH2 0x1EB6 JUMPI PUSH2 0x1EB5 PUSH2 0x3821 JUMP JUMPDEST JUMPDEST PUSH1 0x20 MUL PUSH1 0x20 ADD ADD DUP2 SWAP1 MSTORE POP POP DUP1 PUSH1 0x1 ADD SWAP1 POP PUSH2 0x1A7E JUMP JUMPDEST POP PUSH1 0x40 MLOAD DUP1 PUSH1 0x60 ADD PUSH1 0x40 MSTORE DUP1 DUP6 PUSH2 0x100 ADD MLOAD PUSH20 0xFFFFFFFFFFFFFFFFFFFFFFFFFFFFFFFFFFFFFFFF AND DUP2 MSTORE PUSH1 0x20 ADD DUP5 PUSH20 0xFFFFFFFFFFFFFFFFFFFFFFFFFFFFFFFFFFFFFFFF AND DUP2 MSTORE PUSH1 0x20 ADD DUP3 DUP2 MSTORE POP DUP7 DUP7 DUP2 MLOAD DUP2 LT PUSH2 0x1F2D JUMPI PUSH2 0x1F2C PUSH2 0x3821 JUMP JUMPDEST JUMPDEST PUSH1 0x20 MUL PUSH1 0x20 ADD ADD MLOAD PUSH1 0x20 ADD DUP2 SWAP1 MSTORE POP POP POP JUMPDEST PUSH0 DUP3 PUSH2 0x140 ADD MLOAD PUSH20 0xFFFFFFFFFFFFFFFFFFFFFFFFFFFFFFFFFFFFFFFF AND PUSH4 0x75D26413 PUSH1 0x40 MLOAD DUP2 PUSH4 0xFFFFFFFF AND PUSH1 0xE0 SHL DUP2 MSTORE PUSH1 0x4 ADD PUSH1 0x20 PUSH1 0x40 MLOAD DUP1 DUP4 SUB DUP2 DUP7 GAS STATICCALL ISZERO DUP1 ISZERO PUSH2 0x1F8E JUMPI RETURNDATASIZE PUSH0 DUP1 RETURNDATACOPY RETURNDATASIZE PUSH0 REVERT JUMPDEST POP POP POP POP PUSH1 0x40 MLOAD RETURNDATASIZE PUSH1 0x1F NOT PUSH1 0x1F DUP3 ADD AND DUP3 ADD DUP1 PUSH1 0x40 MSTORE POP DUP2 ADD SWAP1 PUSH2 0x1FB2 SWAP2 SWAP1 PUSH2 0x3B5B JUMP JUMPDEST SWAP1 POP PUSH0 PUSH20 0xFFFFFFFFFFFFFFFFFFFFFFFFFFFFFFFFFFFFFFFF AND DUP2 PUSH20 0xFFFFFFFFFFFFFFFFFFFFFFFFFFFFFFFFFFFFFFFF AND EQ PUSH2 0x2585 JUMPI PUSH0 DUP2 PUSH20 0xFFFFFFFFFFFFFFFFFFFFFFFFFFFFFFFFFFFFFFFF AND PUSH4 0x6657732F DUP6 PUSH2 0x140 ADD MLOAD PUSH1 0x40 MLOAD DUP3 PUSH4 0xFFFFFFFF AND PUSH1 0xE0 SHL DUP2 MSTORE PUSH1 0x4 ADD PUSH2 0x2026 SWAP2 SWAP1 PUSH2 0x385D JUMP JUMPDEST PUSH0 PUSH1 0x40 MLOAD DUP1 DUP4 SUB DUP2 DUP7 GAS STATICCALL ISZERO DUP1 ISZERO PUSH2 0x2040 JUMPI RETURNDATASIZE PUSH0 DUP1 RETURNDATACOPY RETURNDATASIZE PUSH0 REVERT JUMPDEST POP POP POP POP PUSH1 0x40 MLOAD RETURNDATASIZE PUSH0 DUP3 RETURNDATACOPY RETURNDATASIZE PUSH1 0x1F NOT PUSH1 0x1F DUP3 ADD AND DUP3 ADD DUP1 PUSH1 0x40 MSTORE POP DUP2 ADD SWAP1 PUSH2 0x2068 SWAP2 SWAP1 PUSH2 0x37DA JUMP JUMPDEST SWAP1 POP PUSH0 DUP2 MLOAD PUSH8 0xFFFFFFFFFFFFFFFF DUP2 GT ISZERO PUSH2 0x2086 JUMPI PUSH2 0x2085 PUSH2 0x369E JUMP JUMPDEST JUMPDEST PUSH1 0x40 MLOAD SWAP1 DUP1 DUP3 MSTORE DUP1 PUSH1 0x20 MUL PUSH1 0x20 ADD DUP3 ADD PUSH1 0x40 MSTORE DUP1 ISZERO PUSH2 0x20BF JUMPI DUP2 PUSH1 0x20 ADD JUMPDEST PUSH2 0x20AC PUSH2 0x2D0C JUMP JUMPDEST DUP2 MSTORE PUSH1 0x20 ADD SWAP1 PUSH1 0x1 SWAP1 SUB SWAP1 DUP2 PUSH2 0x20A4 JUMPI SWAP1 POP JUMPDEST POP SWAP1 POP PUSH0 JUMPDEST DUP3 MLOAD DUP2 LT ISZERO PUSH2 0x2513 JUMPI PUSH2 0x20D5 PUSH2 0x2D0C JUMP JUMPDEST DUP4 DUP3 DUP2 MLOAD DUP2 LT PUSH2 0x20E8 JUMPI PUSH2 0x20E7 PUSH2 0x3821 JUMP JUMPDEST JUMPDEST PUSH1 0x20 MUL PUSH1 0x20 ADD ADD MLOAD DUP2 PUSH1 0x40 ADD SWAP1 PUSH20 0xFFFFFFFFFFFFFFFFFFFFFFFFFFFFFFFFFFFFFFFF AND SWAP1 DUP2 PUSH20 0xFFFFFFFFFFFFFFFFFFFFFFFFFFFFFFFFFFFFFFFF AND DUP2 MSTORE POP POP DUP5 PUSH20 0xFFFFFFFFFFFFFFFFFFFFFFFFFFFFFFFFFFFFFFFF AND PUSH4 0x533F542A DUP15 DUP10 PUSH2 0x140 ADD MLOAD DUP5 PUSH1 0x40 ADD MLOAD PUSH1 0x40 MLOAD DUP5 PUSH4 0xFFFFFFFF AND PUSH1 0xE0 SHL DUP2 MSTORE PUSH1 0x4 ADD PUSH2 0x216D SWAP4 SWAP3 SWAP2 SWAP1 PUSH2 0x3DA4 JUMP JUMPDEST PUSH1 0x20 PUSH1 0x40 MLOAD DUP1 DUP4 SUB DUP2 DUP7 GAS STATICCALL ISZERO DUP1 ISZERO PUSH2 0x2188 JUMPI RETURNDATASIZE PUSH0 DUP1 RETURNDATACOPY RETURNDATASIZE PUSH0 REVERT JUMPDEST POP POP POP POP PUSH1 0x40 MLOAD RETURNDATASIZE PUSH1 0x1F NOT PUSH1 0x1F DUP3 ADD AND DUP3 ADD DUP1 PUSH1 0x40 MSTORE POP DUP2 ADD SWAP1 PUSH2 0x21AC SWAP2 SWAP1 PUSH2 0x3DD9 JUMP JUMPDEST DUP2 PUSH1 0x80 ADD DUP2 DUP2 MSTORE POP POP DUP5 PUSH20 0xFFFFFFFFFFFFFFFFFFFFFFFFFFFFFFFFFFFFFFFF AND PUSH4 0xB022418C DUP15 DUP4 PUSH1 0x40 ADD MLOAD PUSH1 0x40 MLOAD DUP4 PUSH4 0xFFFFFFFF AND PUSH1 0xE0 SHL DUP2 MSTORE PUSH1 0x4 ADD PUSH2 0x21F4 SWAP3 SWAP2 SWAP1 PUSH2 0x3B86 JUMP JUMPDEST PUSH1 0x20 PUSH1 0x40 MLOAD DUP1 DUP4 SUB DUP2 DUP7 GAS STATICCALL ISZERO DUP1 ISZERO PUSH2 0x220F JUMPI RETURNDATASIZE PUSH0 DUP1 RETURNDATACOPY RETURNDATASIZE PUSH0 REVERT JUMPDEST POP POP POP POP PUSH1 0x40 MLOAD RETURNDATASIZE PUSH1 0x1F NOT PUSH1 0x1F DUP3 ADD AND DUP3 ADD DUP1 PUSH1 0x40 MSTORE POP DUP2 ADD SWAP1 PUSH2 0x2233 SWAP2 SWAP1 PUSH2 0x3DD9 JUMP JUMPDEST DUP2 PUSH1 0x60 ADD DUP2 DUP2 MSTORE POP POP DUP1 PUSH1 0x40 ADD MLOAD PUSH20 0xFFFFFFFFFFFFFFFFFFFFFFFFFFFFFFFFFFFFFFFF AND PUSH4 0x313CE567 PUSH1 0x40 MLOAD DUP2 PUSH4 0xFFFFFFFF AND PUSH1 0xE0 SHL DUP2 MSTORE PUSH1 0x4 ADD PUSH1 0x20 PUSH1 0x40 MLOAD DUP1 DUP4 SUB DUP2 DUP7 GAS STATICCALL ISZERO DUP1 ISZERO PUSH2 0x2289 JUMPI RETURNDATASIZE PUSH0 DUP1 RETURNDATACOPY RETURNDATASIZE PUSH0 REVERT JUMPDEST POP POP POP POP PUSH1 0x40 MLOAD RETURNDATASIZE PUSH1 0x1F NOT PUSH1 0x1F DUP3 ADD AND DUP3 ADD DUP1 PUSH1 0x40 MSTORE POP DUP2 ADD SWAP1 PUSH2 0x22AD SWAP2 SWAP1 PUSH2 0x3C3B JUMP JUMPDEST DUP2 PUSH1 0xE0 ADD SWAP1 PUSH1 0xFF AND SWAP1 DUP2 PUSH1 0xFF AND DUP2 MSTORE POP POP DUP1 PUSH1 0x40 ADD MLOAD PUSH20 0xFFFFFFFFFFFFFFFFFFFFFFFFFFFFFFFFFFFFFFFF AND PUSH4 0x95D89B41 PUSH1 0x40 MLOAD DUP2 PUSH4 0xFFFFFFFF AND PUSH1 0xE0 SHL DUP2 MSTORE PUSH1 0x4 ADD PUSH0 PUSH1 0x40 MLOAD DUP1 DUP4 SUB DUP2 DUP7 GAS STATICCALL ISZERO DUP1 ISZERO PUSH2 0x230A JUMPI RETURNDATASIZE PUSH0 DUP1 RETURNDATACOPY RETURNDATASIZE PUSH0 REVERT JUMPDEST POP POP POP POP PUSH1 0x40 MLOAD RETURNDATASIZE PUSH0 DUP3 RETURNDATACOPY RETURNDATASIZE PUSH1 0x1F NOT PUSH1 0x1F DUP3 ADD AND DUP3 ADD DUP1 PUSH1 0x40 MSTORE POP DUP2 ADD SWAP1 PUSH2 0x2332 SWAP2 SWAP1 PUSH2 0x3D08 JUMP JUMPDEST DUP2 PUSH0 ADD DUP2 SWAP1 MSTORE POP DUP5 PUSH20 0xFFFFFFFFFFFFFFFFFFFFFFFFFFFFFFFFFFFFFFFF AND PUSH4 0x2A17BF60 DUP3 PUSH1 0x40 ADD MLOAD PUSH1 0x40 MLOAD DUP3 PUSH4 0xFFFFFFFF AND PUSH1 0xE0 SHL DUP2 MSTORE PUSH1 0x4 ADD PUSH2 0x2376 SWAP2 SWAP1 PUSH2 0x385D JUMP JUMPDEST PUSH1 0x20 PUSH1 0x40 MLOAD DUP1 DUP4 SUB DUP2 DUP7 GAS STATICCALL ISZERO DUP1 ISZERO PUSH2 0x2391 JUMPI RETURNDATASIZE PUSH0 DUP1 RETURNDATACOPY RETURNDATASIZE PUSH0 REVERT JUMPDEST POP POP POP POP PUSH1 0x40 MLOAD RETURNDATASIZE PUSH1 0x1F NOT PUSH1 0x1F DUP3 ADD AND DUP3 ADD DUP1 PUSH1 0x40 MSTORE POP DUP2 ADD SWAP1 PUSH2 0x23B5 SWAP2 SWAP1 PUSH2 0x366F JUMP JUMPDEST DUP2 PUSH1 0x20 ADD SWAP1 PUSH20 0xFFFFFFFFFFFFFFFFFFFFFFFFFFFFFFFFFFFFFFFF AND SWAP1 DUP2 PUSH20 0xFFFFFFFFFFFFFFFFFFFFFFFFFFFFFFFFFFFFFFFF AND DUP2 MSTORE POP POP DUP1 PUSH1 0x20 ADD MLOAD PUSH20 0xFFFFFFFFFFFFFFFFFFFFFFFFFFFFFFFFFFFFFFFF AND PUSH4 0x313CE567 PUSH1 0x40 MLOAD DUP2 PUSH4 0xFFFFFFFF AND PUSH1 0xE0 SHL DUP2 MSTORE PUSH1 0x4 ADD PUSH1 0x20 PUSH1 0x40 MLOAD DUP1 DUP4 SUB DUP2 DUP7 GAS STATICCALL ISZERO DUP1 ISZERO PUSH2 0x2439 JUMPI RETURNDATASIZE PUSH0 DUP1 RETURNDATACOPY RETURNDATASIZE PUSH0 REVERT JUMPDEST POP POP POP POP PUSH1 0x40 MLOAD RETURNDATASIZE PUSH1 0x1F NOT PUSH1 0x1F DUP3 ADD AND DUP3 ADD DUP1 PUSH1 0x40 MSTORE POP DUP2 ADD SWAP1 PUSH2 0x245D SWAP2 SWAP1 PUSH2 0x3C3B JUMP JUMPDEST DUP2 PUSH1 0xC0 ADD SWAP1 PUSH1 0xFF AND SWAP1 DUP2 PUSH1 0xFF AND DUP2 MSTORE POP POP DUP1 PUSH1 0x20 ADD MLOAD PUSH20 0xFFFFFFFFFFFFFFFFFFFFFFFFFFFFFFFFFFFFFFFF AND PUSH4 0x50D25BCD PUSH1 0x40 MLOAD DUP2 PUSH4 0xFFFFFFFF AND PUSH1 0xE0 SHL DUP2 MSTORE PUSH1 0x4 ADD PUSH1 0x20 PUSH1 0x40 MLOAD DUP1 DUP4 SUB DUP2 DUP7 GAS STATICCALL ISZERO DUP1 ISZERO PUSH2 0x24BB JUMPI RETURNDATASIZE PUSH0 DUP1 RETURNDATACOPY RETURNDATASIZE PUSH0 REVERT JUMPDEST POP POP POP POP PUSH1 0x40 MLOAD RETURNDATASIZE PUSH1 0x1F NOT PUSH1 0x1F DUP3 ADD AND DUP3 ADD DUP1 PUSH1 0x40 MSTORE POP DUP2 ADD SWAP1 PUSH2 0x24DF SWAP2 SWAP1 PUSH2 0x3D79 JUMP JUMPDEST DUP2 PUSH1 0xA0 ADD DUP2 DUP2 MSTORE POP POP DUP1 DUP4 DUP4 DUP2 MLOAD DUP2 LT PUSH2 0x24FC JUMPI PUSH2 0x24FB PUSH2 0x3821 JUMP JUMPDEST JUMPDEST PUSH1 0x20 MUL PUSH1 0x20 ADD ADD DUP2 SWAP1 MSTORE POP POP DUP1 PUSH1 0x1 ADD SWAP1 POP PUSH2 0x20C4 JUMP JUMPDEST POP PUSH1 0x40 MLOAD DUP1 PUSH1 0x60 ADD PUSH1 0x40 MSTORE DUP1 DUP7 PUSH2 0x140 ADD MLOAD PUSH20 0xFFFFFFFFFFFFFFFFFFFFFFFFFFFFFFFFFFFFFFFF AND DUP2 MSTORE PUSH1 0x20 ADD DUP6 PUSH20 0xFFFFFFFFFFFFFFFFFFFFFFFFFFFFFFFFFFFFFFFF AND DUP2 MSTORE PUSH1 0x20 ADD DUP3 DUP2 MSTORE POP DUP8 DUP8 DUP2 MLOAD DUP2 LT PUSH2 0x2573 JUMPI PUSH2 0x2572 PUSH2 0x3821 JUMP JUMPDEST JUMPDEST PUSH1 0x20 MUL PUSH1 0x20 ADD ADD MLOAD PUSH1 0x40 ADD DUP2 SWAP1 MSTORE POP POP POP JUMPDEST PUSH0 DUP4 PUSH2 0x120 ADD MLOAD PUSH20 0xFFFFFFFFFFFFFFFFFFFFFFFFFFFFFFFFFFFFFFFF AND PUSH4 0x75D26413 PUSH1 0x40 MLOAD DUP2 PUSH4 0xFFFFFFFF AND PUSH1 0xE0 SHL DUP2 MSTORE PUSH1 0x4 ADD PUSH1 0x20 PUSH1 0x40 MLOAD DUP1 DUP4 SUB DUP2 DUP7 GAS STATICCALL ISZERO DUP1 ISZERO PUSH2 0x25D4 JUMPI RETURNDATASIZE PUSH0 DUP1 RETURNDATACOPY RETURNDATASIZE PUSH0 REVERT JUMPDEST POP POP POP POP PUSH1 0x40 MLOAD RETURNDATASIZE PUSH1 0x1F NOT PUSH1 0x1F DUP3 ADD AND DUP3 ADD DUP1 PUSH1 0x40 MSTORE POP DUP2 ADD SWAP1 PUSH2 0x25F8 SWAP2 SWAP1 PUSH2 0x3B5B JUMP JUMPDEST SWAP1 POP PUSH0 PUSH20 0xFFFFFFFFFFFFFFFFFFFFFFFFFFFFFFFFFFFFFFFF AND DUP2 PUSH20 0xFFFFFFFFFFFFFFFFFFFFFFFFFFFFFFFFFFFFFFFF AND EQ PUSH2 0x2BCB JUMPI PUSH0 DUP2 PUSH20 0xFFFFFFFFFFFFFFFFFFFFFFFFFFFFFFFFFFFFFFFF AND PUSH4 0x6657732F DUP7 PUSH2 0x120 ADD MLOAD PUSH1 0x40 MLOAD DUP3 PUSH4 0xFFFFFFFF AND PUSH1 0xE0 SHL DUP2 MSTORE PUSH1 0x4 ADD PUSH2 0x266C SWAP2 SWAP1 PUSH2 0x385D JUMP JUMPDEST PUSH0 PUSH1 0x40 MLOAD DUP1 DUP4 SUB DUP2 DUP7 GAS STATICCALL ISZERO DUP1 ISZERO PUSH2 0x2686 JUMPI RETURNDATASIZE PUSH0 DUP1 RETURNDATACOPY RETURNDATASIZE PUSH0 REVERT JUMPDEST POP POP POP POP PUSH1 0x40 MLOAD RETURNDATASIZE PUSH0 DUP3 RETURNDATACOPY RETURNDATASIZE PUSH1 0x1F NOT PUSH1 0x1F DUP3 ADD AND DUP3 ADD DUP1 PUSH1 0x40 MSTORE POP DUP2 ADD SWAP1 PUSH2 0x26AE SWAP2 SWAP1 PUSH2 0x37DA JUMP JUMPDEST SWAP1 POP PUSH0 DUP2 MLOAD PUSH8 0xFFFFFFFFFFFFFFFF DUP2 GT ISZERO PUSH2 0x26CC JUMPI PUSH2 0x26CB PUSH2 0x369E JUMP JUMPDEST JUMPDEST PUSH1 0x40 MLOAD SWAP1 DUP1 DUP3 MSTORE DUP1 PUSH1 0x20 MUL PUSH1 0x20 ADD DUP3 ADD PUSH1 0x40 MSTORE DUP1 ISZERO PUSH2 0x2705 JUMPI DUP2 PUSH1 0x20 ADD JUMPDEST PUSH2 0x26F2 PUSH2 0x2D0C JUMP JUMPDEST DUP2 MSTORE PUSH1 0x20 ADD SWAP1 PUSH1 0x1 SWAP1 SUB SWAP1 DUP2 PUSH2 0x26EA JUMPI SWAP1 POP JUMPDEST POP SWAP1 POP PUSH0 JUMPDEST DUP3 MLOAD DUP2 LT ISZERO PUSH2 0x2B59 JUMPI PUSH2 0x271B PUSH2 0x2D0C JUMP JUMPDEST DUP4 DUP3 DUP2 MLOAD DUP2 LT PUSH2 0x272E JUMPI PUSH2 0x272D PUSH2 0x3821 JUMP JUMPDEST JUMPDEST PUSH1 0x20 MUL PUSH1 0x20 ADD ADD MLOAD DUP2 PUSH1 0x40 ADD SWAP1 PUSH20 0xFFFFFFFFFFFFFFFFFFFFFFFFFFFFFFFFFFFFFFFF AND SWAP1 DUP2 PUSH20 0xFFFFFFFFFFFFFFFFFFFFFFFFFFFFFFFFFFFFFFFF AND DUP2 MSTORE POP POP DUP5 PUSH20 0xFFFFFFFFFFFFFFFFFFFFFFFFFFFFFFFFFFFFFFFF AND PUSH4 0x533F542A DUP16 DUP11 PUSH2 0x120 ADD MLOAD DUP5 PUSH1 0x40 ADD MLOAD PUSH1 0x40 MLOAD DUP5 PUSH4 0xFFFFFFFF AND PUSH1 0xE0 SHL DUP2 MSTORE PUSH1 0x4 ADD PUSH2 0x27B3 SWAP4 SWAP3 SWAP2 SWAP1 PUSH2 0x3DA4 JUMP JUMPDEST PUSH1 0x20 PUSH1 0x40 MLOAD DUP1 DUP4 SUB DUP2 DUP7 GAS STATICCALL ISZERO DUP1 ISZERO PUSH2 0x27CE JUMPI RETURNDATASIZE PUSH0 DUP1 RETURNDATACOPY RETURNDATASIZE PUSH0 REVERT JUMPDEST POP POP POP POP PUSH1 0x40 MLOAD RETURNDATASIZE PUSH1 0x1F NOT PUSH1 0x1F DUP3 ADD AND DUP3 ADD DUP1 PUSH1 0x40 MSTORE POP DUP2 ADD SWAP1 PUSH2 0x27F2 SWAP2 SWAP1 PUSH2 0x3DD9 JUMP JUMPDEST DUP2 PUSH1 0x80 ADD DUP2 DUP2 MSTORE POP POP DUP5 PUSH20 0xFFFFFFFFFFFFFFFFFFFFFFFFFFFFFFFFFFFFFFFF AND PUSH4 0xB022418C DUP16 DUP4 PUSH1 0x40 ADD MLOAD PUSH1 0x40 MLOAD DUP4 PUSH4 0xFFFFFFFF AND PUSH1 0xE0 SHL DUP2 MSTORE PUSH1 0x4 ADD PUSH2 0x283A SWAP3 SWAP2 SWAP1 PUSH2 0x3B86 JUMP JUMPDEST PUSH1 0x20 PUSH1 0x40 MLOAD DUP1 DUP4 SUB DUP2 DUP7 GAS STATICCALL ISZERO DUP1 ISZERO PUSH2 0x2855 JUMPI RETURNDATASIZE PUSH0 DUP1 RETURNDATACOPY RETURNDATASIZE PUSH0 REVERT JUMPDEST POP POP POP POP PUSH1 0x40 MLOAD RETURNDATASIZE PUSH1 0x1F NOT PUSH1 0x1F DUP3 ADD AND DUP3 ADD DUP1 PUSH1 0x40 MSTORE POP DUP2 ADD SWAP1 PUSH2 0x2879 SWAP2 SWAP1 PUSH2 0x3DD9 JUMP JUMPDEST DUP2 PUSH1 0x60 ADD DUP2 DUP2 MSTORE POP POP DUP1 PUSH1 0x40 ADD MLOAD PUSH20 0xFFFFFFFFFFFFFFFFFFFFFFFFFFFFFFFFFFFFFFFF AND PUSH4 0x313CE567 PUSH1 0x40 MLOAD DUP2 PUSH4 0xFFFFFFFF AND PUSH1 0xE0 SHL DUP2 MSTORE PUSH1 0x4 ADD PUSH1 0x20 PUSH1 0x40 MLOAD DUP1 DUP4 SUB DUP2 DUP7 GAS STATICCALL ISZERO DUP1 ISZERO PUSH2 0x28CF JUMPI RETURNDATASIZE PUSH0 DUP1 RETURNDATACOPY RETURNDATASIZE PUSH0 REVERT JUMPDEST POP POP POP POP PUSH1 0x40 MLOAD RETURNDATASIZE PUSH1 0x1F NOT PUSH1 0x1F DUP3 ADD AND DUP3 ADD DUP1 PUSH1 0x40 MSTORE POP DUP2 ADD SWAP1 PUSH2 0x28F3 SWAP2 SWAP1 PUSH2 0x3C3B JUMP JUMPDEST DUP2 PUSH1 0xE0 ADD SWAP1 PUSH1 0xFF AND SWAP1 DUP2 PUSH1 0xFF AND DUP2 MSTORE POP POP DUP1 PUSH1 0x40 ADD MLOAD PUSH20 0xFFFFFFFFFFFFFFFFFFFFFFFFFFFFFFFFFFFFFFFF AND PUSH4 0x95D89B41 PUSH1 0x40 MLOAD DUP2 PUSH4 0xFFFFFFFF AND PUSH1 0xE0 SHL DUP2 MSTORE PUSH1 0x4 ADD PUSH0 PUSH1 0x40 MLOAD DUP1 DUP4 SUB DUP2 DUP7 GAS STATICCALL ISZERO DUP1 ISZERO PUSH2 0x2950 JUMPI RETURNDATASIZE PUSH0 DUP1 RETURNDATACOPY RETURNDATASIZE PUSH0 REVERT JUMPDEST POP POP POP POP PUSH1 0x40 MLOAD RETURNDATASIZE PUSH0 DUP3 RETURNDATACOPY RETURNDATASIZE PUSH1 0x1F NOT PUSH1 0x1F DUP3 ADD AND DUP3 ADD DUP1 PUSH1 0x40 MSTORE POP DUP2 ADD SWAP1 PUSH2 0x2978 SWAP2 SWAP1 PUSH2 0x3D08 JUMP JUMPDEST DUP2 PUSH0 ADD DUP2 SWAP1 MSTORE POP DUP5 PUSH20 0xFFFFFFFFFFFFFFFFFFFFFFFFFFFFFFFFFFFFFFFF AND PUSH4 0x2A17BF60 DUP3 PUSH1 0x40 ADD MLOAD PUSH1 0x40 MLOAD DUP3 PUSH4 0xFFFFFFFF AND PUSH1 0xE0 SHL DUP2 MSTORE PUSH1 0x4 ADD PUSH2 0x29BC SWAP2 SWAP1 PUSH2 0x385D JUMP JUMPDEST PUSH1 0x20 PUSH1 0x40 MLOAD DUP1 DUP4 SUB DUP2 DUP7 GAS STATICCALL ISZERO DUP1 ISZERO PUSH2 0x29D7 JUMPI RETURNDATASIZE PUSH0 DUP1 RETURNDATACOPY RETURNDATASIZE PUSH0 REVERT JUMPDEST POP POP POP POP PUSH1 0x40 MLOAD RETURNDATASIZE PUSH1 0x1F NOT PUSH1 0x1F DUP3 ADD AND DUP3 ADD DUP1 PUSH1 0x40 MSTORE POP DUP2 ADD SWAP1 PUSH2 0x29FB SWAP2 SWAP1 PUSH2 0x366F JUMP JUMPDEST DUP2 PUSH1 0x20 ADD SWAP1 PUSH20 0xFFFFFFFFFFFFFFFFFFFFFFFFFFFFFFFFFFFFFFFF AND SWAP1 DUP2 PUSH20 0xFFFFFFFFFFFFFFFFFFFFFFFFFFFFFFFFFFFFFFFF AND DUP2 MSTORE POP POP DUP1 PUSH1 0x20 ADD MLOAD PUSH20 0xFFFFFFFFFFFFFFFFFFFFFFFFFFFFFFFFFFFFFFFF AND PUSH4 0x313CE567 PUSH1 0x40 MLOAD DUP2 PUSH4 0xFFFFFFFF AND PUSH1 0xE0 SHL DUP2 MSTORE PUSH1 0x4 ADD PUSH1 0x20 PUSH1 0x40 MLOAD DUP1 DUP4 SUB DUP2 DUP7 GAS STATICCALL ISZERO DUP1 ISZERO PUSH2 0x2A7F JUMPI RETURNDATASIZE PUSH0 DUP1 RETURNDATACOPY RETURNDATASIZE PUSH0 REVERT JUMPDEST POP POP POP POP PUSH1 0x40 MLOAD RETURNDATASIZE PUSH1 0x1F NOT PUSH1 0x1F DUP3 ADD AND DUP3 ADD DUP1 PUSH1 0x40 MSTORE POP DUP2 ADD SWAP1 PUSH2 0x2AA3 SWAP2 SWAP1 PUSH2 0x3C3B JUMP JUMPDEST DUP2 PUSH1 0xC0 ADD SWAP1 PUSH1 0xFF AND SWAP1 DUP2 PUSH1 0xFF AND DUP2 MSTORE POP POP DUP1 PUSH1 0x20 ADD MLOAD PUSH20 0xFFFFFFFFFFFFFFFFFFFFFFFFFFFFFFFFFFFFFFFF AND PUSH4 0x50D25BCD PUSH1 0x40 MLOAD DUP2 PUSH4 0xFFFFFFFF AND PUSH1 0xE0 SHL DUP2 MSTORE PUSH1 0x4 ADD PUSH1 0x20 PUSH1 0x40 MLOAD DUP1 DUP4 SUB DUP2 DUP7 GAS STATICCALL ISZERO DUP1 ISZERO PUSH2 0x2B01 JUMPI RETURNDATASIZE PUSH0 DUP1 RETURNDATACOPY RETURNDATASIZE PUSH0 REVERT JUMPDEST POP POP POP POP PUSH1 0x40 MLOAD RETURNDATASIZE PUSH1 0x1F NOT PUSH1 0x1F DUP3 ADD AND DUP3 ADD DUP1 PUSH1 0x40 MSTORE POP DUP2 ADD SWAP1 PUSH2 0x2B25 SWAP2 SWAP1 PUSH2 0x3D79 JUMP JUMPDEST DUP2 PUSH1 0xA0 ADD DUP2 DUP2 MSTORE POP POP DUP1 DUP4 DUP4 DUP2 MLOAD DUP2 LT PUSH2 0x2B42 JUMPI PUSH2 0x2B41 PUSH2 0x3821 JUMP JUMPDEST JUMPDEST PUSH1 0x20 MUL PUSH1 0x20 ADD ADD DUP2 SWAP1 MSTORE POP POP DUP1 PUSH1 0x1 ADD SWAP1 POP PUSH2 0x270A JUMP JUMPDEST POP PUSH1 0x40 MLOAD DUP1 PUSH1 0x60 ADD PUSH1 0x40 MSTORE DUP1 DUP8 PUSH2 0x120 ADD MLOAD PUSH20 0xFFFFFFFFFFFFFFFFFFFFFFFFFFFFFFFFFFFFFFFF AND DUP2 MSTORE PUSH1 0x20 ADD DUP7 PUSH20 0xFFFFFFFFFFFFFFFFFFFFFFFFFFFFFFFFFFFFFFFF AND DUP2 MSTORE PUSH1 0x20 ADD DUP3 DUP2 MSTORE POP DUP9 DUP9 DUP2 MLOAD DUP2 LT PUSH2 0x2BB9 JUMPI PUSH2 0x2BB8 PUSH2 0x3821 JUMP JUMPDEST JUMPDEST PUSH1 0x20 MUL PUSH1 0x20 ADD ADD MLOAD PUSH1 0x60 ADD DUP2 SWAP1 MSTORE POP POP POP JUMPDEST POP POP POP POP DUP1 DUP1 PUSH1 0x1 ADD SWAP2 POP POP PUSH2 0x17EF JUMP JUMPDEST POP DUP1 SWAP4 POP POP POP POP SWAP3 SWAP2 POP POP JUMP JUMPDEST PUSH1 0x40 MLOAD DUP1 PUSH1 0x80 ADD PUSH1 0x40 MSTORE DUP1 PUSH0 PUSH20 0xFFFFFFFFFFFFFFFFFFFFFFFFFFFFFFFFFFFFFFFF AND DUP2 MSTORE PUSH1 0x20 ADD PUSH2 0x2C18 PUSH2 0x2D7C JUMP JUMPDEST DUP2 MSTORE PUSH1 0x20 ADD PUSH2 0x2C25 PUSH2 0x2D7C JUMP JUMPDEST DUP2 MSTORE PUSH1 0x20 ADD PUSH2 0x2C32 PUSH2 0x2D7C JUMP JUMPDEST DUP2 MSTORE POP SWAP1 JUMP JUMPDEST PUSH1 0x40 MLOAD DUP1 PUSH2 0x160 ADD PUSH1 0x40 MSTORE DUP1 PUSH1 0x60 DUP2 MSTORE PUSH1 0x20 ADD PUSH0 PUSH20 0xFFFFFFFFFFFFFFFFFFFFFFFFFFFFFFFFFFFFFFFF AND DUP2 MSTORE PUSH1 0x20 ADD PUSH0 PUSH20 0xFFFFFFFFFFFFFFFFFFFFFFFFFFFFFFFFFFFFFFFF AND DUP2 MSTORE PUSH1 0x20 ADD PUSH0 DUP2 MSTORE PUSH1 0x20 ADD PUSH0 DUP2 MSTORE PUSH1 0x20 ADD PUSH0 DUP2 MSTORE PUSH1 0x20 ADD PUSH0 DUP2 MSTORE PUSH1 0x20 ADD PUSH0 DUP2 MSTORE PUSH1 0x20 ADD PUSH0 PUSH1 0xFF AND DUP2 MSTORE PUSH1 0x20 ADD PUSH0 PUSH1 0xFF AND DUP2 MSTORE PUSH1 0x20 ADD PUSH0 PUSH1 0xFF AND DUP2 MSTORE POP SWAP1 JUMP JUMPDEST PUSH1 0x40 MLOAD DUP1 PUSH1 0x80 ADD PUSH1 0x40 MSTORE DUP1 PUSH0 PUSH20 0xFFFFFFFFFFFFFFFFFFFFFFFFFFFFFFFFFFFFFFFF AND DUP2 MSTORE PUSH1 0x20 ADD PUSH2 0x2CEC PUSH2 0x2DC7 JUMP JUMPDEST DUP2 MSTORE PUSH1 0x20 ADD PUSH2 0x2CF9 PUSH2 0x2DC7 JUMP JUMPDEST DUP2 MSTORE PUSH1 0x20 ADD PUSH2 0x2D06 PUSH2 0x2DC7 JUMP JUMPDEST DUP2 MSTORE POP SWAP1 JUMP JUMPDEST PUSH1 0x40 MLOAD DUP1 PUSH2 0x100 ADD PUSH1 0x40 MSTORE DUP1 PUSH1 0x60 DUP2 MSTORE PUSH1 0x20 ADD PUSH0 PUSH20 0xFFFFFFFFFFFFFFFFFFFFFFFFFFFFFFFFFFFFFFFF AND DUP2 MSTORE PUSH1 0x20 ADD PUSH0 PUSH20 0xFFFFFFFFFFFFFFFFFFFFFFFFFFFFFFFFFFFFFFFF AND DUP2 MSTORE PUSH1 0x20 ADD PUSH0 DUP2 MSTORE PUSH1 0x20 ADD PUSH0 DUP2 MSTORE PUSH1 0x20 ADD PUSH0 DUP2 MSTORE PUSH1 0x20 ADD PUSH0 PUSH1 0xFF AND DUP2 MSTORE PUSH1 0x20 ADD PUSH0 PUSH1 0xFF AND DUP2 MSTORE POP SWAP1 JUMP JUMPDEST PUSH1 0x40 MLOAD DUP1 PUSH1 0x60 ADD PUSH1 0x40 MSTORE DUP1 PUSH0 PUSH20 0xFFFFFFFFFFFFFFFFFFFFFFFFFFFFFFFFFFFFFFFF AND DUP2 MSTORE PUSH1 0x20 ADD PUSH0 PUSH20 0xFFFFFFFFFFFFFFFFFFFFFFFFFFFFFFFFFFFFFFFF AND DUP2 MSTORE PUSH1 0x20 ADD PUSH1 0x60 DUP2 MSTORE POP SWAP1 JUMP JUMPDEST PUSH1 0x40 MLOAD DUP1 PUSH1 0x60 ADD PUSH1 0x40 MSTORE DUP1 PUSH0 PUSH20 0xFFFFFFFFFFFFFFFFFFFFFFFFFFFFFFFFFFFFFFFF AND DUP2 MSTORE PUSH1 0x20 ADD PUSH0 PUSH20 0xFFFFFFFFFFFFFFFFFFFFFFFFFFFFFFFFFFFFFFFF AND DUP2 MSTORE PUSH1 0x20 ADD PUSH1 0x60 DUP2 MSTORE POP SWAP1 JUMP JUMPDEST PUSH0 PUSH1 0x40 MLOAD SWAP1 POP SWAP1 JUMP JUMPDEST PUSH0 DUP1 REVERT JUMPDEST PUSH0 DUP1 REVERT JUMPDEST PUSH0 PUSH20 0xFFFFFFFFFFFFFFFFFFFFFFFFFFFFFFFFFFFFFFFF DUP3 AND SWAP1 POP SWAP2 SWAP1 POP JUMP JUMPDEST PUSH0 PUSH2 0x2E4C DUP3 PUSH2 0x2E23 JUMP JUMPDEST SWAP1 POP SWAP2 SWAP1 POP JUMP JUMPDEST PUSH0 PUSH2 0x2E5D DUP3 PUSH2 0x2E42 JUMP JUMPDEST SWAP1 POP SWAP2 SWAP1 POP JUMP JUMPDEST PUSH2 0x2E6D DUP2 PUSH2 0x2E53 JUMP JUMPDEST DUP2 EQ PUSH2 0x2E77 JUMPI PUSH0 DUP1 REVERT JUMPDEST POP JUMP JUMPDEST PUSH0 DUP2 CALLDATALOAD SWAP1 POP PUSH2 0x2E88 DUP2 PUSH2 0x2E64 JUMP JUMPDEST SWAP3 SWAP2 POP POP JUMP JUMPDEST PUSH2 0x2E97 DUP2 PUSH2 0x2E42 JUMP JUMPDEST DUP2 EQ PUSH2 0x2EA1 JUMPI PUSH0 DUP1 REVERT JUMPDEST POP JUMP JUMPDEST PUSH0 DUP2 CALLDATALOAD SWAP1 POP PUSH2 0x2EB2 DUP2 PUSH2 0x2E8E JUMP JUMPDEST SWAP3 SWAP2 POP POP JUMP JUMPDEST PUSH0 DUP1 PUSH1 0x40 DUP4 DUP6 SUB SLT ISZERO PUSH2 0x2ECE JUMPI PUSH2 0x2ECD PUSH2 0x2E1B JUMP JUMPDEST JUMPDEST PUSH0 PUSH2 0x2EDB DUP6 DUP3 DUP7 ADD PUSH2 0x2E7A JUMP JUMPDEST SWAP3 POP POP PUSH1 0x20 PUSH2 0x2EEC DUP6 DUP3 DUP7 ADD PUSH2 0x2EA4 JUMP JUMPDEST SWAP2 POP POP SWAP3 POP SWAP3 SWAP1 POP JUMP JUMPDEST PUSH0 DUP2 MLOAD SWAP1 POP SWAP2 SWAP1 POP JUMP JUMPDEST PUSH0 DUP3 DUP3 MSTORE PUSH1 0x20 DUP3 ADD SWAP1 POP SWAP3 SWAP2 POP POP JUMP JUMPDEST PUSH0 DUP2 SWAP1 POP PUSH1 0x20 DUP3 ADD SWAP1 POP SWAP2 SWAP1 POP JUMP JUMPDEST PUSH2 0x2F28 DUP2 PUSH2 0x2E42 JUMP JUMPDEST DUP3 MSTORE POP POP JUMP JUMPDEST PUSH0 DUP2 MLOAD SWAP1 POP SWAP2 SWAP1 POP JUMP JUMPDEST PUSH0 DUP3 DUP3 MSTORE PUSH1 0x20 DUP3 ADD SWAP1 POP SWAP3 SWAP2 POP POP JUMP JUMPDEST PUSH0 DUP2 SWAP1 POP PUSH1 0x20 DUP3 ADD SWAP1 POP SWAP2 SWAP1 POP JUMP JUMPDEST PUSH0 DUP2 MLOAD SWAP1 POP SWAP2 SWAP1 POP JUMP JUMPDEST PUSH0 DUP3 DUP3 MSTORE PUSH1 0x20 DUP3 ADD SWAP1 POP SWAP3 SWAP2 POP POP JUMP JUMPDEST DUP3 DUP2 DUP4 MCOPY PUSH0 DUP4 DUP4 ADD MSTORE POP POP POP JUMP JUMPDEST PUSH0 PUSH1 0x1F NOT PUSH1 0x1F DUP4 ADD AND SWAP1 POP SWAP2 SWAP1 POP JUMP JUMPDEST PUSH0 PUSH2 0x2F99 DUP3 PUSH2 0x2F57 JUMP JUMPDEST PUSH2 0x2FA3 DUP2 DUP6 PUSH2 0x2F61 JUMP JUMPDEST SWAP4 POP PUSH2 0x2FB3 DUP2 DUP6 PUSH1 0x20 DUP7 ADD PUSH2 0x2F71 JUMP JUMPDEST PUSH2 0x2FBC DUP2 PUSH2 0x2F7F JUMP JUMPDEST DUP5 ADD SWAP2 POP POP SWAP3 SWAP2 POP POP JUMP JUMPDEST PUSH0 DUP2 SWAP1 POP SWAP2 SWAP1 POP JUMP JUMPDEST PUSH2 0x2FD9 DUP2 PUSH2 0x2FC7 JUMP JUMPDEST DUP3 MSTORE POP POP JUMP JUMPDEST PUSH0 DUP2 SWAP1 POP SWAP2 SWAP1 POP JUMP JUMPDEST PUSH2 0x2FF1 DUP2 PUSH2 0x2FDF JUMP JUMPDEST DUP3 MSTORE POP POP JUMP JUMPDEST PUSH0 PUSH1 0xFF DUP3 AND SWAP1 POP SWAP2 SWAP1 POP JUMP JUMPDEST PUSH2 0x300C DUP2 PUSH2 0x2FF7 JUMP JUMPDEST DUP3 MSTORE POP POP JUMP JUMPDEST PUSH0 PUSH2 0x160 DUP4 ADD PUSH0 DUP4 ADD MLOAD DUP5 DUP3 SUB PUSH0 DUP7 ADD MSTORE PUSH2 0x302D DUP3 DUP3 PUSH2 0x2F8F JUMP JUMPDEST SWAP2 POP POP PUSH1 0x20 DUP4 ADD MLOAD PUSH2 0x3042 PUSH1 0x20 DUP7 ADD DUP3 PUSH2 0x2F1F JUMP JUMPDEST POP PUSH1 0x40 DUP4 ADD MLOAD PUSH2 0x3055 PUSH1 0x40 DUP7 ADD DUP3 PUSH2 0x2F1F JUMP JUMPDEST POP PUSH1 0x60 DUP4 ADD MLOAD PUSH2 0x3068 PUSH1 0x60 DUP7 ADD DUP3 PUSH2 0x2FD0 JUMP JUMPDEST POP PUSH1 0x80 DUP4 ADD MLOAD PUSH2 0x307B PUSH1 0x80 DUP7 ADD DUP3 PUSH2 0x2FD0 JUMP JUMPDEST POP PUSH1 0xA0 DUP4 ADD MLOAD PUSH2 0x308E PUSH1 0xA0 DUP7 ADD DUP3 PUSH2 0x2FD0 JUMP JUMPDEST POP PUSH1 0xC0 DUP4 ADD MLOAD PUSH2 0x30A1 PUSH1 0xC0 DUP7 ADD DUP3 PUSH2 0x2FD0 JUMP JUMPDEST POP PUSH1 0xE0 DUP4 ADD MLOAD PUSH2 0x30B4 PUSH1 0xE0 DUP7 ADD DUP3 PUSH2 0x2FE8 JUMP JUMPDEST POP PUSH2 0x100 DUP4 ADD MLOAD PUSH2 0x30C9 PUSH2 0x100 DUP7 ADD DUP3 PUSH2 0x3003 JUMP JUMPDEST POP PUSH2 0x120 DUP4 ADD MLOAD PUSH2 0x30DE PUSH2 0x120 DUP7 ADD DUP3 PUSH2 0x3003 JUMP JUMPDEST POP PUSH2 0x140 DUP4 ADD MLOAD PUSH2 0x30F3 PUSH2 0x140 DUP7 ADD DUP3 PUSH2 0x3003 JUMP JUMPDEST POP DUP1 SWAP2 POP POP SWAP3 SWAP2 POP POP JUMP JUMPDEST PUSH0 PUSH2 0x3109 DUP4 DUP4 PUSH2 0x3012 JUMP JUMPDEST SWAP1 POP SWAP3 SWAP2 POP POP JUMP JUMPDEST PUSH0 PUSH1 0x20 DUP3 ADD SWAP1 POP SWAP2 SWAP1 POP JUMP JUMPDEST PUSH0 PUSH2 0x3127 DUP3 PUSH2 0x2F2E JUMP JUMPDEST PUSH2 0x3131 DUP2 DUP6 PUSH2 0x2F38 JUMP JUMPDEST SWAP4 POP DUP4 PUSH1 0x20 DUP3 MUL DUP6 ADD PUSH2 0x3143 DUP6 PUSH2 0x2F48 JUMP JUMPDEST DUP1 PUSH0 JUMPDEST DUP6 DUP2 LT ISZERO PUSH2 0x317E JUMPI DUP5 DUP5 SUB DUP10 MSTORE DUP2 MLOAD PUSH2 0x315F DUP6 DUP3 PUSH2 0x30FE JUMP JUMPDEST SWAP5 POP PUSH2 0x316A DUP4 PUSH2 0x3111 JUMP JUMPDEST SWAP3 POP PUSH1 0x20 DUP11 ADD SWAP10 POP POP PUSH1 0x1 DUP2 ADD SWAP1 POP PUSH2 0x3146 JUMP JUMPDEST POP DUP3 SWAP8 POP DUP8 SWAP6 POP POP POP POP POP POP SWAP3 SWAP2 POP POP JUMP JUMPDEST PUSH0 PUSH1 0x60 DUP4 ADD PUSH0 DUP4 ADD MLOAD PUSH2 0x31A5 PUSH0 DUP7 ADD DUP3 PUSH2 0x2F1F JUMP JUMPDEST POP PUSH1 0x20 DUP4 ADD MLOAD PUSH2 0x31B8 PUSH1 0x20 DUP7 ADD DUP3 PUSH2 0x2F1F JUMP JUMPDEST POP PUSH1 0x40 DUP4 ADD MLOAD DUP5 DUP3 SUB PUSH1 0x40 DUP7 ADD MSTORE PUSH2 0x31D0 DUP3 DUP3 PUSH2 0x311D JUMP JUMPDEST SWAP2 POP POP DUP1 SWAP2 POP POP SWAP3 SWAP2 POP POP JUMP JUMPDEST PUSH0 PUSH1 0x80 DUP4 ADD PUSH0 DUP4 ADD MLOAD PUSH2 0x31F2 PUSH0 DUP7 ADD DUP3 PUSH2 0x2F1F JUMP JUMPDEST POP PUSH1 0x20 DUP4 ADD MLOAD DUP5 DUP3 SUB PUSH1 0x20 DUP7 ADD MSTORE PUSH2 0x320A DUP3 DUP3 PUSH2 0x3190 JUMP JUMPDEST SWAP2 POP POP PUSH1 0x40 DUP4 ADD MLOAD DUP5 DUP3 SUB PUSH1 0x40 DUP7 ADD MSTORE PUSH2 0x3224 DUP3 DUP3 PUSH2 0x3190 JUMP JUMPDEST SWAP2 POP POP PUSH1 0x60 DUP4 ADD MLOAD DUP5 DUP3 SUB PUSH1 0x60 DUP7 ADD MSTORE PUSH2 0x323E DUP3 DUP3 PUSH2 0x3190 JUMP JUMPDEST SWAP2 POP POP DUP1 SWAP2 POP POP SWAP3 SWAP2 POP POP JUMP JUMPDEST PUSH0 PUSH2 0x3256 DUP4 DUP4 PUSH2 0x31DD JUMP JUMPDEST SWAP1 POP SWAP3 SWAP2 POP POP JUMP JUMPDEST PUSH0 PUSH1 0x20 DUP3 ADD SWAP1 POP SWAP2 SWAP1 POP JUMP JUMPDEST PUSH0 PUSH2 0x3274 DUP3 PUSH2 0x2EF6 JUMP JUMPDEST PUSH2 0x327E DUP2 DUP6 PUSH2 0x2F00 JUMP JUMPDEST SWAP4 POP DUP4 PUSH1 0x20 DUP3 MUL DUP6 ADD PUSH2 0x3290 DUP6 PUSH2 0x2F10 JUMP JUMPDEST DUP1 PUSH0 JUMPDEST DUP6 DUP2 LT ISZERO PUSH2 0x32CB JUMPI DUP5 DUP5 SUB DUP10 MSTORE DUP2 MLOAD PUSH2 0x32AC DUP6 DUP3 PUSH2 0x324B JUMP JUMPDEST SWAP5 POP PUSH2 0x32B7 DUP4 PUSH2 0x325E JUMP JUMPDEST SWAP3 POP PUSH1 0x20 DUP11 ADD SWAP10 POP POP PUSH1 0x1 DUP2 ADD SWAP1 POP PUSH2 0x3293 JUMP JUMPDEST POP DUP3 SWAP8 POP DUP8 SWAP6 POP POP POP POP POP POP SWAP3 SWAP2 POP POP JUMP JUMPDEST PUSH0 DUP2 MLOAD SWAP1 POP SWAP2 SWAP1 POP JUMP JUMPDEST PUSH0 DUP3 DUP3 MSTORE PUSH1 0x20 DUP3 ADD SWAP1 POP SWAP3 SWAP2 POP POP JUMP JUMPDEST PUSH0 DUP2 SWAP1 POP PUSH1 0x20 DUP3 ADD SWAP1 POP SWAP2 SWAP1 POP JUMP JUMPDEST PUSH0 DUP2 MLOAD SWAP1 POP SWAP2 SWAP1 POP JUMP JUMPDEST PUSH0 DUP3 DUP3 MSTORE PUSH1 0x20 DUP3 ADD SWAP1 POP SWAP3 SWAP2 POP POP JUMP JUMPDEST PUSH0 DUP2 SWAP1 POP PUSH1 0x20 DUP3 ADD SWAP1 POP SWAP2 SWAP1 POP JUMP JUMPDEST PUSH0 PUSH2 0x100 DUP4 ADD PUSH0 DUP4 ADD MLOAD DUP5 DUP3 SUB PUSH0 DUP7 ADD MSTORE PUSH2 0x334A DUP3 DUP3 PUSH2 0x2F8F JUMP JUMPDEST SWAP2 POP POP PUSH1 0x20 DUP4 ADD MLOAD PUSH2 0x335F PUSH1 0x20 DUP7 ADD DUP3 PUSH2 0x2F1F JUMP JUMPDEST POP PUSH1 0x40 DUP4 ADD MLOAD PUSH2 0x3372 PUSH1 0x40 DUP7 ADD DUP3 PUSH2 0x2F1F JUMP JUMPDEST POP PUSH1 0x60 DUP4 ADD MLOAD PUSH2 0x3385 PUSH1 0x60 DUP7 ADD DUP3 PUSH2 0x2FD0 JUMP JUMPDEST POP PUSH1 0x80 DUP4 ADD MLOAD PUSH2 0x3398 PUSH1 0x80 DUP7 ADD DUP3 PUSH2 0x2FD0 JUMP JUMPDEST POP PUSH1 0xA0 DUP4 ADD MLOAD PUSH2 0x33AB PUSH1 0xA0 DUP7 ADD DUP3 PUSH2 0x2FE8 JUMP JUMPDEST POP PUSH1 0xC0 DUP4 ADD MLOAD PUSH2 0x33BE PUSH1 0xC0 DUP7 ADD DUP3 PUSH2 0x3003 JUMP JUMPDEST POP PUSH1 0xE0 DUP4 ADD MLOAD PUSH2 0x33D1 PUSH1 0xE0 DUP7 ADD DUP3 PUSH2 0x3003 JUMP JUMPDEST POP DUP1 SWAP2 POP POP SWAP3 SWAP2 POP POP JUMP JUMPDEST PUSH0 PUSH2 0x33E7 DUP4 DUP4 PUSH2 0x332F JUMP JUMPDEST SWAP1 POP SWAP3 SWAP2 POP POP JUMP JUMPDEST PUSH0 PUSH1 0x20 DUP3 ADD SWAP1 POP SWAP2 SWAP1 POP JUMP JUMPDEST PUSH0 PUSH2 0x3405 DUP3 PUSH2 0x3306 JUMP JUMPDEST PUSH2 0x340F DUP2 DUP6 PUSH2 0x3310 JUMP JUMPDEST SWAP4 POP DUP4 PUSH1 0x20 DUP3 MUL DUP6 ADD PUSH2 0x3421 DUP6 PUSH2 0x3320 JUMP JUMPDEST DUP1 PUSH0 JUMPDEST DUP6 DUP2 LT ISZERO PUSH2 0x345C JUMPI DUP5 DUP5 SUB DUP10 MSTORE DUP2 MLOAD PUSH2 0x343D DUP6 DUP3 PUSH2 0x33DC JUMP JUMPDEST SWAP5 POP PUSH2 0x3448 DUP4 PUSH2 0x33EF JUMP JUMPDEST SWAP3 POP PUSH1 0x20 DUP11 ADD SWAP10 POP POP PUSH1 0x1 DUP2 ADD SWAP1 POP PUSH2 0x3424 JUMP JUMPDEST POP DUP3 SWAP8 POP DUP8 SWAP6 POP POP POP POP POP POP SWAP3 SWAP2 POP POP JUMP JUMPDEST PUSH0 PUSH1 0x60 DUP4 ADD PUSH0 DUP4 ADD MLOAD PUSH2 0x3483 PUSH0 DUP7 ADD DUP3 PUSH2 0x2F1F JUMP JUMPDEST POP PUSH1 0x20 DUP4 ADD MLOAD PUSH2 0x3496 PUSH1 0x20 DUP7 ADD DUP3 PUSH2 0x2F1F JUMP JUMPDEST POP PUSH1 0x40 DUP4 ADD MLOAD DUP5 DUP3 SUB PUSH1 0x40 DUP7 ADD MSTORE PUSH2 0x34AE DUP3 DUP3 PUSH2 0x33FB JUMP JUMPDEST SWAP2 POP POP DUP1 SWAP2 POP POP SWAP3 SWAP2 POP POP JUMP JUMPDEST PUSH0 PUSH1 0x80 DUP4 ADD PUSH0 DUP4 ADD MLOAD PUSH2 0x34D0 PUSH0 DUP7 ADD DUP3 PUSH2 0x2F1F JUMP JUMPDEST POP PUSH1 0x20 DUP4 ADD MLOAD DUP5 DUP3 SUB PUSH1 0x20 DUP7 ADD MSTORE PUSH2 0x34E8 DUP3 DUP3 PUSH2 0x346E JUMP JUMPDEST SWAP2 POP POP PUSH1 0x40 DUP4 ADD MLOAD DUP5 DUP3 SUB PUSH1 0x40 DUP7 ADD MSTORE PUSH2 0x3502 DUP3 DUP3 PUSH2 0x346E JUMP JUMPDEST SWAP2 POP POP PUSH1 0x60 DUP4 ADD MLOAD DUP5 DUP3 SUB PUSH1 0x60 DUP7 ADD MSTORE PUSH2 0x351C DUP3 DUP3 PUSH2 0x346E JUMP JUMPDEST SWAP2 POP POP DUP1 SWAP2 POP POP SWAP3 SWAP2 POP POP JUMP JUMPDEST PUSH0 PUSH2 0x3534 DUP4 DUP4 PUSH2 0x34BB JUMP JUMPDEST SWAP1 POP SWAP3 SWAP2 POP POP JUMP JUMPDEST PUSH0 PUSH1 0x20 DUP3 ADD SWAP1 POP SWAP2 SWAP1 POP JUMP JUMPDEST PUSH0 PUSH2 0x3552 DUP3 PUSH2 0x32DD JUMP JUMPDEST PUSH2 0x355C DUP2 DUP6 PUSH2 0x32E7 JUMP JUMPDEST SWAP4 POP DUP4 PUSH1 0x20 DUP3 MUL DUP6 ADD PUSH2 0x356E DUP6 PUSH2 0x32F7 JUMP JUMPDEST DUP1 PUSH0 JUMPDEST DUP6 DUP2 LT ISZERO PUSH2 0x35A9 JUMPI DUP5 DUP5 SUB DUP10 MSTORE DUP2 MLOAD PUSH2 0x358A DUP6 DUP3 PUSH2 0x3529 JUMP JUMPDEST SWAP5 POP PUSH2 0x3595 DUP4 PUSH2 0x353C JUMP JUMPDEST SWAP3 POP PUSH1 0x20 DUP11 ADD SWAP10 POP POP PUSH1 0x1 DUP2 ADD SWAP1 POP PUSH2 0x3571 JUMP JUMPDEST POP DUP3 SWAP8 POP DUP8 SWAP6 POP POP POP POP POP POP SWAP3 SWAP2 POP POP JUMP JUMPDEST PUSH0 PUSH1 0x40 DUP3 ADD SWAP1 POP DUP2 DUP2 SUB PUSH0 DUP4 ADD MSTORE PUSH2 0x35D3 DUP2 DUP6 PUSH2 0x326A JUMP JUMPDEST SWAP1 POP DUP2 DUP2 SUB PUSH1 0x20 DUP4 ADD MSTORE PUSH2 0x35E7 DUP2 DUP5 PUSH2 0x3548 JUMP JUMPDEST SWAP1 POP SWAP4 SWAP3 POP POP POP JUMP JUMPDEST PUSH0 PUSH1 0x20 DUP3 ADD SWAP1 POP DUP2 DUP2 SUB PUSH0 DUP4 ADD MSTORE PUSH2 0x3608 DUP2 DUP5 PUSH2 0x3548 JUMP JUMPDEST SWAP1 POP SWAP3 SWAP2 POP POP JUMP JUMPDEST PUSH0 PUSH1 0x20 DUP3 DUP5 SUB SLT ISZERO PUSH2 0x3625 JUMPI PUSH2 0x3624 PUSH2 0x2E1B JUMP JUMPDEST JUMPDEST PUSH0 PUSH2 0x3632 DUP5 DUP3 DUP6 ADD PUSH2 0x2E7A JUMP JUMPDEST SWAP2 POP POP SWAP3 SWAP2 POP POP JUMP JUMPDEST PUSH0 PUSH1 0x20 DUP3 ADD SWAP1 POP DUP2 DUP2 SUB PUSH0 DUP4 ADD MSTORE PUSH2 0x3653 DUP2 DUP5 PUSH2 0x326A JUMP JUMPDEST SWAP1 POP SWAP3 SWAP2 POP POP JUMP JUMPDEST PUSH0 DUP2 MLOAD SWAP1 POP PUSH2 0x3669 DUP2 PUSH2 0x2E8E JUMP JUMPDEST SWAP3 SWAP2 POP POP JUMP JUMPDEST PUSH0 PUSH1 0x20 DUP3 DUP5 SUB SLT ISZERO PUSH2 0x3684 JUMPI PUSH2 0x3683 PUSH2 0x2E1B JUMP JUMPDEST JUMPDEST PUSH0 PUSH2 0x3691 DUP5 DUP3 DUP6 ADD PUSH2 0x365B JUMP JUMPDEST SWAP2 POP POP SWAP3 SWAP2 POP POP JUMP JUMPDEST PUSH0 DUP1 REVERT JUMPDEST PUSH32 0x4E487B7100000000000000000000000000000000000000000000000000000000 PUSH0 MSTORE PUSH1 0x41 PUSH1 0x4 MSTORE PUSH1 0x24 PUSH0 REVERT JUMPDEST PUSH2 0x36D4 DUP3 PUSH2 0x2F7F JUMP JUMPDEST DUP2 ADD DUP2 DUP2 LT PUSH8 0xFFFFFFFFFFFFFFFF DUP3 GT OR ISZERO PUSH2 0x36F3 JUMPI PUSH2 0x36F2 PUSH2 0x369E JUMP JUMPDEST JUMPDEST DUP1 PUSH1 0x40 MSTORE POP POP POP JUMP JUMPDEST PUSH0 PUSH2 0x3705 PUSH2 0x2E12 JUMP JUMPDEST SWAP1 POP PUSH2 0x3711 DUP3 DUP3 PUSH2 0x36CB JUMP JUMPDEST SWAP2 SWAP1 POP JUMP JUMPDEST PUSH0 PUSH8 0xFFFFFFFFFFFFFFFF DUP3 GT ISZERO PUSH2 0x3730 JUMPI PUSH2 0x372F PUSH2 0x369E JUMP JUMPDEST JUMPDEST PUSH1 0x20 DUP3 MUL SWAP1 POP PUSH1 0x20 DUP2 ADD SWAP1 POP SWAP2 SWAP1 POP JUMP JUMPDEST PUSH0 DUP1 REVERT JUMPDEST PUSH0 PUSH2 0x3757 PUSH2 0x3752 DUP5 PUSH2 0x3716 JUMP JUMPDEST PUSH2 0x36FC JUMP JUMPDEST SWAP1 POP DUP1 DUP4 DUP3 MSTORE PUSH1 0x20 DUP3 ADD SWAP1 POP PUSH1 0x20 DUP5 MUL DUP4 ADD DUP6 DUP2 GT ISZERO PUSH2 0x377A JUMPI PUSH2 0x3779 PUSH2 0x3741 JUMP JUMPDEST JUMPDEST DUP4 JUMPDEST DUP2 DUP2 LT ISZERO PUSH2 0x37A3 JUMPI DUP1 PUSH2 0x378F DUP9 DUP3 PUSH2 0x365B JUMP JUMPDEST DUP5 MSTORE PUSH1 0x20 DUP5 ADD SWAP4 POP POP PUSH1 0x20 DUP2 ADD SWAP1 POP PUSH2 0x377C JUMP JUMPDEST POP POP POP SWAP4 SWAP3 POP POP POP JUMP JUMPDEST PUSH0 DUP3 PUSH1 0x1F DUP4 ADD SLT PUSH2 0x37C1 JUMPI PUSH2 0x37C0 PUSH2 0x369A JUMP JUMPDEST JUMPDEST DUP2 MLOAD PUSH2 0x37D1 DUP5 DUP3 PUSH1 0x20 DUP7 ADD PUSH2 0x3745 JUMP JUMPDEST SWAP2 POP POP SWAP3 SWAP2 POP POP JUMP JUMPDEST PUSH0 PUSH1 0x20 DUP3 DUP5 SUB SLT ISZERO PUSH2 0x37EF JUMPI PUSH2 0x37EE PUSH2 0x2E1B JUMP JUMPDEST JUMPDEST PUSH0 DUP3 ADD MLOAD PUSH8 0xFFFFFFFFFFFFFFFF DUP2 GT ISZERO PUSH2 0x380C JUMPI PUSH2 0x380B PUSH2 0x2E1F JUMP JUMPDEST JUMPDEST PUSH2 0x3818 DUP5 DUP3 DUP6 ADD PUSH2 0x37AD JUMP JUMPDEST SWAP2 POP POP SWAP3 SWAP2 POP POP JUMP JUMPDEST PUSH32 0x4E487B7100000000000000000000000000000000000000000000000000000000 PUSH0 MSTORE PUSH1 0x32 PUSH1 0x4 MSTORE PUSH1 0x24 PUSH0 REVERT JUMPDEST PUSH2 0x3857 DUP2 PUSH2 0x2E42 JUMP JUMPDEST DUP3 MSTORE POP POP JUMP JUMPDEST PUSH0 PUSH1 0x20 DUP3 ADD SWAP1 POP PUSH2 0x3870 PUSH0 DUP4 ADD DUP5 PUSH2 0x384E JUMP JUMPDEST SWAP3 SWAP2 POP POP JUMP JUMPDEST PUSH0 DUP1 REVERT JUMPDEST PUSH2 0x3883 DUP2 PUSH2 0x2FC7 JUMP JUMPDEST DUP2 EQ PUSH2 0x388D JUMPI PUSH0 DUP1 REVERT JUMPDEST POP JUMP JUMPDEST PUSH0 DUP2 MLOAD SWAP1 POP PUSH2 0x389E DUP2 PUSH2 0x387A JUMP JUMPDEST SWAP3 SWAP2 POP POP JUMP JUMPDEST PUSH0 PUSH1 0x20 DUP3 DUP5 SUB SLT ISZERO PUSH2 0x38B9 JUMPI PUSH2 0x38B8 PUSH2 0x3876 JUMP JUMPDEST JUMPDEST PUSH2 0x38C3 PUSH1 0x20 PUSH2 0x36FC JUMP JUMPDEST SWAP1 POP PUSH0 PUSH2 0x38D2 DUP5 DUP3 DUP6 ADD PUSH2 0x3890 JUMP JUMPDEST PUSH0 DUP4 ADD MSTORE POP SWAP3 SWAP2 POP POP JUMP JUMPDEST PUSH0 PUSH16 0xFFFFFFFFFFFFFFFFFFFFFFFFFFFFFFFF DUP3 AND SWAP1 POP SWAP2 SWAP1 POP JUMP JUMPDEST PUSH2 0x3901 DUP2 PUSH2 0x38DD JUMP JUMPDEST DUP2 EQ PUSH2 0x390B JUMPI PUSH0 DUP1 REVERT JUMPDEST POP JUMP JUMPDEST PUSH0 DUP2 MLOAD SWAP1 POP PUSH2 0x391C DUP2 PUSH2 0x38F8 JUMP JUMPDEST SWAP3 SWAP2 POP POP JUMP JUMPDEST PUSH0 PUSH5 0xFFFFFFFFFF DUP3 AND SWAP1 POP SWAP2 SWAP1 POP JUMP JUMPDEST PUSH2 0x393B DUP2 PUSH2 0x3922 JUMP JUMPDEST DUP2 EQ PUSH2 0x3945 JUMPI PUSH0 DUP1 REVERT JUMPDEST POP JUMP JUMPDEST PUSH0 DUP2 MLOAD SWAP1 POP PUSH2 0x3956 DUP2 PUSH2 0x3932 JUMP JUMPDEST SWAP3 SWAP2 POP POP JUMP JUMPDEST PUSH0 PUSH2 0xFFFF DUP3 AND SWAP1 POP SWAP2 SWAP1 POP JUMP JUMPDEST PUSH2 0x3972 DUP2 PUSH2 0x395C JUMP JUMPDEST DUP2 EQ PUSH2 0x397C JUMPI PUSH0 DUP1 REVERT JUMPDEST POP JUMP JUMPDEST PUSH0 DUP2 MLOAD SWAP1 POP PUSH2 0x398D DUP2 PUSH2 0x3969 JUMP JUMPDEST SWAP3 SWAP2 POP POP JUMP JUMPDEST PUSH0 PUSH2 0x1E0 DUP3 DUP5 SUB SLT ISZERO PUSH2 0x39A9 JUMPI PUSH2 0x39A8 PUSH2 0x3876 JUMP JUMPDEST JUMPDEST PUSH2 0x39B4 PUSH2 0x1E0 PUSH2 0x36FC JUMP JUMPDEST SWAP1 POP PUSH0 PUSH2 0x39C3 DUP5 DUP3 DUP6 ADD PUSH2 0x38A4 JUMP JUMPDEST PUSH0 DUP4 ADD MSTORE POP PUSH1 0x20 PUSH2 0x39D6 DUP5 DUP3 DUP6 ADD PUSH2 0x390E JUMP JUMPDEST PUSH1 0x20 DUP4 ADD MSTORE POP PUSH1 0x40 PUSH2 0x39EA DUP5 DUP3 DUP6 ADD PUSH2 0x390E JUMP JUMPDEST PUSH1 0x40 DUP4 ADD MSTORE POP PUSH1 0x60 PUSH2 0x39FE DUP5 DUP3 DUP6 ADD PUSH2 0x390E JUMP JUMPDEST PUSH1 0x60 DUP4 ADD MSTORE POP PUSH1 0x80 PUSH2 0x3A12 DUP5 DUP3 DUP6 ADD PUSH2 0x390E JUMP JUMPDEST PUSH1 0x80 DUP4 ADD MSTORE POP PUSH1 0xA0 PUSH2 0x3A26 DUP5 DUP3 DUP6 ADD PUSH2 0x390E JUMP JUMPDEST PUSH1 0xA0 DUP4 ADD MSTORE POP PUSH1 0xC0 PUSH2 0x3A3A DUP5 DUP3 DUP6 ADD PUSH2 0x3948 JUMP JUMPDEST PUSH1 0xC0 DUP4 ADD MSTORE POP PUSH1 0xE0 PUSH2 0x3A4E DUP5 DUP3 DUP6 ADD PUSH2 0x397F JUMP JUMPDEST PUSH1 0xE0 DUP4 ADD MSTORE POP PUSH2 0x100 PUSH2 0x3A63 DUP5 DUP3 DUP6 ADD PUSH2 0x365B JUMP JUMPDEST PUSH2 0x100 DUP4 ADD MSTORE POP PUSH2 0x120 PUSH2 0x3A79 DUP5 DUP3 DUP6 ADD PUSH2 0x365B JUMP JUMPDEST PUSH2 0x120 DUP4 ADD MSTORE POP PUSH2 0x140 PUSH2 0x3A8F DUP5 DUP3 DUP6 ADD PUSH2 0x365B JUMP JUMPDEST PUSH2 0x140 DUP4 ADD MSTORE POP PUSH2 0x160 PUSH2 0x3AA5 DUP5 DUP3 DUP6 ADD PUSH2 0x365B JUMP JUMPDEST PUSH2 0x160 DUP4 ADD MSTORE POP PUSH2 0x180 PUSH2 0x3ABB DUP5 DUP3 DUP6 ADD PUSH2 0x390E JUMP JUMPDEST PUSH2 0x180 DUP4 ADD MSTORE POP PUSH2 0x1A0 PUSH2 0x3AD1 DUP5 DUP3 DUP6 ADD PUSH2 0x390E JUMP JUMPDEST PUSH2 0x1A0 DUP4 ADD MSTORE POP PUSH2 0x1C0 PUSH2 0x3AE7 DUP5 DUP3 DUP6 ADD PUSH2 0x390E JUMP JUMPDEST PUSH2 0x1C0 DUP4 ADD MSTORE POP SWAP3 SWAP2 POP POP JUMP JUMPDEST PUSH0 PUSH2 0x1E0 DUP3 DUP5 SUB SLT ISZERO PUSH2 0x3B0A JUMPI PUSH2 0x3B09 PUSH2 0x2E1B JUMP JUMPDEST JUMPDEST PUSH0 PUSH2 0x3B17 DUP5 DUP3 DUP6 ADD PUSH2 0x3993 JUMP JUMPDEST SWAP2 POP POP SWAP3 SWAP2 POP POP JUMP JUMPDEST PUSH0 PUSH2 0x3B2A DUP3 PUSH2 0x2E42 JUMP JUMPDEST SWAP1 POP SWAP2 SWAP1 POP JUMP JUMPDEST PUSH2 0x3B3A DUP2 PUSH2 0x3B20 JUMP JUMPDEST DUP2 EQ PUSH2 0x3B44 JUMPI PUSH0 DUP1 REVERT JUMPDEST POP JUMP JUMPDEST PUSH0 DUP2 MLOAD SWAP1 POP PUSH2 0x3B55 DUP2 PUSH2 0x3B31 JUMP JUMPDEST SWAP3 SWAP2 POP POP JUMP JUMPDEST PUSH0 PUSH1 0x20 DUP3 DUP5 SUB SLT ISZERO PUSH2 0x3B70 JUMPI PUSH2 0x3B6F PUSH2 0x2E1B JUMP JUMPDEST JUMPDEST PUSH0 PUSH2 0x3B7D DUP5 DUP3 DUP6 ADD PUSH2 0x3B47 JUMP JUMPDEST SWAP2 POP POP SWAP3 SWAP2 POP POP JUMP JUMPDEST PUSH0 PUSH1 0x40 DUP3 ADD SWAP1 POP PUSH2 0x3B99 PUSH0 DUP4 ADD DUP6 PUSH2 0x384E JUMP JUMPDEST PUSH2 0x3BA6 PUSH1 0x20 DUP4 ADD DUP5 PUSH2 0x384E JUMP JUMPDEST SWAP4 SWAP3 POP POP POP JUMP JUMPDEST PUSH0 DUP1 PUSH0 DUP1 PUSH1 0x80 DUP6 DUP8 SUB SLT ISZERO PUSH2 0x3BC5 JUMPI PUSH2 0x3BC4 PUSH2 0x2E1B JUMP JUMPDEST JUMPDEST PUSH0 PUSH2 0x3BD2 DUP8 DUP3 DUP9 ADD PUSH2 0x3890 JUMP JUMPDEST SWAP5 POP POP PUSH1 0x20 PUSH2 0x3BE3 DUP8 DUP3 DUP9 ADD PUSH2 0x3890 JUMP JUMPDEST SWAP4 POP POP PUSH1 0x40 PUSH2 0x3BF4 DUP8 DUP3 DUP9 ADD PUSH2 0x3890 JUMP JUMPDEST SWAP3 POP POP PUSH1 0x60 PUSH2 0x3C05 DUP8 DUP3 DUP9 ADD PUSH2 0x3890 JUMP JUMPDEST SWAP2 POP POP SWAP3 SWAP6 SWAP2 SWAP5 POP SWAP3 POP JUMP JUMPDEST PUSH2 0x3C1A DUP2 PUSH2 0x2FF7 JUMP JUMPDEST DUP2 EQ PUSH2 0x3C24 JUMPI PUSH0 DUP1 REVERT JUMPDEST POP JUMP JUMPDEST PUSH0 DUP2 MLOAD SWAP1 POP PUSH2 0x3C35 DUP2 PUSH2 0x3C11 JUMP JUMPDEST SWAP3 SWAP2 POP POP JUMP JUMPDEST PUSH0 PUSH1 0x20 DUP3 DUP5 SUB SLT ISZERO PUSH2 0x3C50 JUMPI PUSH2 0x3C4F PUSH2 0x2E1B JUMP JUMPDEST JUMPDEST PUSH0 PUSH2 0x3C5D DUP5 DUP3 DUP6 ADD PUSH2 0x3C27 JUMP JUMPDEST SWAP2 POP POP SWAP3 SWAP2 POP POP JUMP JUMPDEST PUSH0 DUP1 REVERT JUMPDEST PUSH0 PUSH8 0xFFFFFFFFFFFFFFFF DUP3 GT ISZERO PUSH2 0x3C84 JUMPI PUSH2 0x3C83 PUSH2 0x369E JUMP JUMPDEST JUMPDEST PUSH2 0x3C8D DUP3 PUSH2 0x2F7F JUMP JUMPDEST SWAP1 POP PUSH1 0x20 DUP2 ADD SWAP1 POP SWAP2 SWAP1 POP JUMP JUMPDEST PUSH0 PUSH2 0x3CAC PUSH2 0x3CA7 DUP5 PUSH2 0x3C6A JUMP JUMPDEST PUSH2 0x36FC JUMP JUMPDEST SWAP1 POP DUP3 DUP2 MSTORE PUSH1 0x20 DUP2 ADD DUP5 DUP5 DUP5 ADD GT ISZERO PUSH2 0x3CC8 JUMPI PUSH2 0x3CC7 PUSH2 0x3C66 JUMP JUMPDEST JUMPDEST PUSH2 0x3CD3 DUP5 DUP3 DUP6 PUSH2 0x2F71 JUMP JUMPDEST POP SWAP4 SWAP3 POP POP POP JUMP JUMPDEST PUSH0 DUP3 PUSH1 0x1F DUP4 ADD SLT PUSH2 0x3CEF JUMPI PUSH2 0x3CEE PUSH2 0x369A JUMP JUMPDEST JUMPDEST DUP2 MLOAD PUSH2 0x3CFF DUP5 DUP3 PUSH1 0x20 DUP7 ADD PUSH2 0x3C9A JUMP JUMPDEST SWAP2 POP POP SWAP3 SWAP2 POP POP JUMP JUMPDEST PUSH0 PUSH1 0x20 DUP3 DUP5 SUB SLT ISZERO PUSH2 0x3D1D JUMPI PUSH2 0x3D1C PUSH2 0x2E1B JUMP JUMPDEST JUMPDEST PUSH0 DUP3 ADD MLOAD PUSH8 0xFFFFFFFFFFFFFFFF DUP2 GT ISZERO PUSH2 0x3D3A JUMPI PUSH2 0x3D39 PUSH2 0x2E1F JUMP JUMPDEST JUMPDEST PUSH2 0x3D46 DUP5 DUP3 DUP6 ADD PUSH2 0x3CDB JUMP JUMPDEST SWAP2 POP POP SWAP3 SWAP2 POP POP JUMP JUMPDEST PUSH2 0x3D58 DUP2 PUSH2 0x2FDF JUMP JUMPDEST DUP2 EQ PUSH2 0x3D62 JUMPI PUSH0 DUP1 REVERT JUMPDEST POP JUMP JUMPDEST PUSH0 DUP2 MLOAD SWAP1 POP PUSH2 0x3D73 DUP2 PUSH2 0x3D4F JUMP JUMPDEST SWAP3 SWAP2 POP POP JUMP JUMPDEST PUSH0 PUSH1 0x20 DUP3 DUP5 SUB SLT ISZERO PUSH2 0x3D8E JUMPI PUSH2 0x3D8D PUSH2 0x2E1B JUMP JUMPDEST JUMPDEST PUSH0 PUSH2 0x3D9B DUP5 DUP3 DUP6 ADD PUSH2 0x3D65 JUMP JUMPDEST SWAP2 POP POP SWAP3 SWAP2 POP POP JUMP JUMPDEST PUSH0 PUSH1 0x60 DUP3 ADD SWAP1 POP PUSH2 0x3DB7 PUSH0 DUP4 ADD DUP7 PUSH2 0x384E JUMP JUMPDEST PUSH2 0x3DC4 PUSH1 0x20 DUP4 ADD DUP6 PUSH2 0x384E JUMP JUMPDEST PUSH2 0x3DD1 PUSH1 0x40 DUP4 ADD DUP5 PUSH2 0x384E JUMP JUMPDEST SWAP5 SWAP4 POP POP POP POP JUMP JUMPDEST PUSH0 PUSH1 0x20 DUP3 DUP5 SUB SLT ISZERO PUSH2 0x3DEE JUMPI PUSH2 0x3DED PUSH2 0x2E1B JUMP JUMPDEST JUMPDEST PUSH0 PUSH2 0x3DFB DUP5 DUP3 DUP6 ADD PUSH2 0x3890 JUMP JUMPDEST SWAP2 POP POP SWAP3 SWAP2 POP POP JUMP INVALID LOG2 PUSH5 0x6970667358 0x22 SLT KECCAK256 KECCAK256 0xE PUSH28 0x1FCE4BD19110CCA31A2FB45E17AB6BF9A347F7D88ED259BC70DA0218 PUSH23 0x64736F6C634300081A0033000000000000000000000000 "
		},
		"gasEstimates": {
			"creation": {
				"codeDepositCost": "3186000",
				"executionCost": "3521",
				"totalCost": "3189521"
			},
			"external": {
				"getFullReservesIncentiveData(address,address)": "infinite",
				"getReservesIncentivesData(address)": "infinite",
				"getUserReservesIncentivesData(address,address)": "infinite"
			},
			"internal": {
				"_getReservesIncentivesData(contract IPoolAddressesProvider)": "infinite",
				"_getUserReservesIncentivesData(contract IPoolAddressesProvider,address)": "infinite"
			}
		},
		"methodIdentifiers": {
			"getFullReservesIncentiveData(address,address)": "47637536",
			"getReservesIncentivesData(address)": "976fafc5",
			"getUserReservesIncentivesData(address,address)": "799bdcf5"
		}
	},
	"abi": [
		{
			"inputs": [
				{
					"internalType": "contract IPoolAddressesProvider",
					"name": "provider",
					"type": "address"
				},
				{
					"internalType": "address",
					"name": "user",
					"type": "address"
				}
			],
			"name": "getFullReservesIncentiveData",
			"outputs": [
				{
					"components": [
						{
							"internalType": "address",
							"name": "underlyingAsset",
							"type": "address"
						},
						{
							"components": [
								{
									"internalType": "address",
									"name": "tokenAddress",
									"type": "address"
								},
								{
									"internalType": "address",
									"name": "incentiveControllerAddress",
									"type": "address"
								},
								{
									"components": [
										{
											"internalType": "string",
											"name": "rewardTokenSymbol",
											"type": "string"
										},
										{
											"internalType": "address",
											"name": "rewardTokenAddress",
											"type": "address"
										},
										{
											"internalType": "address",
											"name": "rewardOracleAddress",
											"type": "address"
										},
										{
											"internalType": "uint256",
											"name": "emissionPerSecond",
											"type": "uint256"
										},
										{
											"internalType": "uint256",
											"name": "incentivesLastUpdateTimestamp",
											"type": "uint256"
										},
										{
											"internalType": "uint256",
											"name": "tokenIncentivesIndex",
											"type": "uint256"
										},
										{
											"internalType": "uint256",
											"name": "emissionEndTimestamp",
											"type": "uint256"
										},
										{
											"internalType": "int256",
											"name": "rewardPriceFeed",
											"type": "int256"
										},
										{
											"internalType": "uint8",
											"name": "rewardTokenDecimals",
											"type": "uint8"
										},
										{
											"internalType": "uint8",
											"name": "precision",
											"type": "uint8"
										},
										{
											"internalType": "uint8",
											"name": "priceFeedDecimals",
											"type": "uint8"
										}
									],
									"internalType": "struct IUiIncentiveDataProviderV3.RewardInfo[]",
									"name": "rewardsTokenInformation",
									"type": "tuple[]"
								}
							],
							"internalType": "struct IUiIncentiveDataProviderV3.IncentiveData",
							"name": "aIncentiveData",
							"type": "tuple"
						},
						{
							"components": [
								{
									"internalType": "address",
									"name": "tokenAddress",
									"type": "address"
								},
								{
									"internalType": "address",
									"name": "incentiveControllerAddress",
									"type": "address"
								},
								{
									"components": [
										{
											"internalType": "string",
											"name": "rewardTokenSymbol",
											"type": "string"
										},
										{
											"internalType": "address",
											"name": "rewardTokenAddress",
											"type": "address"
										},
										{
											"internalType": "address",
											"name": "rewardOracleAddress",
											"type": "address"
										},
										{
											"internalType": "uint256",
											"name": "emissionPerSecond",
											"type": "uint256"
										},
										{
											"internalType": "uint256",
											"name": "incentivesLastUpdateTimestamp",
											"type": "uint256"
										},
										{
											"internalType": "uint256",
											"name": "tokenIncentivesIndex",
											"type": "uint256"
										},
										{
											"internalType": "uint256",
											"name": "emissionEndTimestamp",
											"type": "uint256"
										},
										{
											"internalType": "int256",
											"name": "rewardPriceFeed",
											"type": "int256"
										},
										{
											"internalType": "uint8",
											"name": "rewardTokenDecimals",
											"type": "uint8"
										},
										{
											"internalType": "uint8",
											"name": "precision",
											"type": "uint8"
										},
										{
											"internalType": "uint8",
											"name": "priceFeedDecimals",
											"type": "uint8"
										}
									],
									"internalType": "struct IUiIncentiveDataProviderV3.RewardInfo[]",
									"name": "rewardsTokenInformation",
									"type": "tuple[]"
								}
							],
							"internalType": "struct IUiIncentiveDataProviderV3.IncentiveData",
							"name": "vIncentiveData",
							"type": "tuple"
						},
						{
							"components": [
								{
									"internalType": "address",
									"name": "tokenAddress",
									"type": "address"
								},
								{
									"internalType": "address",
									"name": "incentiveControllerAddress",
									"type": "address"
								},
								{
									"components": [
										{
											"internalType": "string",
											"name": "rewardTokenSymbol",
											"type": "string"
										},
										{
											"internalType": "address",
											"name": "rewardTokenAddress",
											"type": "address"
										},
										{
											"internalType": "address",
											"name": "rewardOracleAddress",
											"type": "address"
										},
										{
											"internalType": "uint256",
											"name": "emissionPerSecond",
											"type": "uint256"
										},
										{
											"internalType": "uint256",
											"name": "incentivesLastUpdateTimestamp",
											"type": "uint256"
										},
										{
											"internalType": "uint256",
											"name": "tokenIncentivesIndex",
											"type": "uint256"
										},
										{
											"internalType": "uint256",
											"name": "emissionEndTimestamp",
											"type": "uint256"
										},
										{
											"internalType": "int256",
											"name": "rewardPriceFeed",
											"type": "int256"
										},
										{
											"internalType": "uint8",
											"name": "rewardTokenDecimals",
											"type": "uint8"
										},
										{
											"internalType": "uint8",
											"name": "precision",
											"type": "uint8"
										},
										{
											"internalType": "uint8",
											"name": "priceFeedDecimals",
											"type": "uint8"
										}
									],
									"internalType": "struct IUiIncentiveDataProviderV3.RewardInfo[]",
									"name": "rewardsTokenInformation",
									"type": "tuple[]"
								}
							],
							"internalType": "struct IUiIncentiveDataProviderV3.IncentiveData",
							"name": "sIncentiveData",
							"type": "tuple"
						}
					],
					"internalType": "struct IUiIncentiveDataProviderV3.AggregatedReserveIncentiveData[]",
					"name": "",
					"type": "tuple[]"
				},
				{
					"components": [
						{
							"internalType": "address",
							"name": "underlyingAsset",
							"type": "address"
						},
						{
							"components": [
								{
									"internalType": "address",
									"name": "tokenAddress",
									"type": "address"
								},
								{
									"internalType": "address",
									"name": "incentiveControllerAddress",
									"type": "address"
								},
								{
									"components": [
										{
											"internalType": "string",
											"name": "rewardTokenSymbol",
											"type": "string"
										},
										{
											"internalType": "address",
											"name": "rewardOracleAddress",
											"type": "address"
										},
										{
											"internalType": "address",
											"name": "rewardTokenAddress",
											"type": "address"
										},
										{
											"internalType": "uint256",
											"name": "userUnclaimedRewards",
											"type": "uint256"
										},
										{
											"internalType": "uint256",
											"name": "tokenIncentivesUserIndex",
											"type": "uint256"
										},
										{
											"internalType": "int256",
											"name": "rewardPriceFeed",
											"type": "int256"
										},
										{
											"internalType": "uint8",
											"name": "priceFeedDecimals",
											"type": "uint8"
										},
										{
											"internalType": "uint8",
											"name": "rewardTokenDecimals",
											"type": "uint8"
										}
									],
									"internalType": "struct IUiIncentiveDataProviderV3.UserRewardInfo[]",
									"name": "userRewardsInformation",
									"type": "tuple[]"
								}
							],
							"internalType": "struct IUiIncentiveDataProviderV3.UserIncentiveData",
							"name": "aTokenIncentivesUserData",
							"type": "tuple"
						},
						{
							"components": [
								{
									"internalType": "address",
									"name": "tokenAddress",
									"type": "address"
								},
								{
									"internalType": "address",
									"name": "incentiveControllerAddress",
									"type": "address"
								},
								{
									"components": [
										{
											"internalType": "string",
											"name": "rewardTokenSymbol",
											"type": "string"
										},
										{
											"internalType": "address",
											"name": "rewardOracleAddress",
											"type": "address"
										},
										{
											"internalType": "address",
											"name": "rewardTokenAddress",
											"type": "address"
										},
										{
											"internalType": "uint256",
											"name": "userUnclaimedRewards",
											"type": "uint256"
										},
										{
											"internalType": "uint256",
											"name": "tokenIncentivesUserIndex",
											"type": "uint256"
										},
										{
											"internalType": "int256",
											"name": "rewardPriceFeed",
											"type": "int256"
										},
										{
											"internalType": "uint8",
											"name": "priceFeedDecimals",
											"type": "uint8"
										},
										{
											"internalType": "uint8",
											"name": "rewardTokenDecimals",
											"type": "uint8"
										}
									],
									"internalType": "struct IUiIncentiveDataProviderV3.UserRewardInfo[]",
									"name": "userRewardsInformation",
									"type": "tuple[]"
								}
							],
							"internalType": "struct IUiIncentiveDataProviderV3.UserIncentiveData",
							"name": "vTokenIncentivesUserData",
							"type": "tuple"
						},
						{
							"components": [
								{
									"internalType": "address",
									"name": "tokenAddress",
									"type": "address"
								},
								{
									"internalType": "address",
									"name": "incentiveControllerAddress",
									"type": "address"
								},
								{
									"components": [
										{
											"internalType": "string",
											"name": "rewardTokenSymbol",
											"type": "string"
										},
										{
											"internalType": "address",
											"name": "rewardOracleAddress",
											"type": "address"
										},
										{
											"internalType": "address",
											"name": "rewardTokenAddress",
											"type": "address"
										},
										{
											"internalType": "uint256",
											"name": "userUnclaimedRewards",
											"type": "uint256"
										},
										{
											"internalType": "uint256",
											"name": "tokenIncentivesUserIndex",
											"type": "uint256"
										},
										{
											"internalType": "int256",
											"name": "rewardPriceFeed",
											"type": "int256"
										},
										{
											"internalType": "uint8",
											"name": "priceFeedDecimals",
											"type": "uint8"
										},
										{
											"internalType": "uint8",
											"name": "rewardTokenDecimals",
											"type": "uint8"
										}
									],
									"internalType": "struct IUiIncentiveDataProviderV3.UserRewardInfo[]",
									"name": "userRewardsInformation",
									"type": "tuple[]"
								}
							],
							"internalType": "struct IUiIncentiveDataProviderV3.UserIncentiveData",
							"name": "sTokenIncentivesUserData",
							"type": "tuple"
						}
					],
					"internalType": "struct IUiIncentiveDataProviderV3.UserReserveIncentiveData[]",
					"name": "",
					"type": "tuple[]"
				}
			],
			"stateMutability": "view",
			"type": "function"
		},
		{
			"inputs": [
				{
					"internalType": "contract IPoolAddressesProvider",
					"name": "provider",
					"type": "address"
				}
			],
			"name": "getReservesIncentivesData",
			"outputs": [
				{
					"components": [
						{
							"internalType": "address",
							"name": "underlyingAsset",
							"type": "address"
						},
						{
							"components": [
								{
									"internalType": "address",
									"name": "tokenAddress",
									"type": "address"
								},
								{
									"internalType": "address",
									"name": "incentiveControllerAddress",
									"type": "address"
								},
								{
									"components": [
										{
											"internalType": "string",
											"name": "rewardTokenSymbol",
											"type": "string"
										},
										{
											"internalType": "address",
											"name": "rewardTokenAddress",
											"type": "address"
										},
										{
											"internalType": "address",
											"name": "rewardOracleAddress",
											"type": "address"
										},
										{
											"internalType": "uint256",
											"name": "emissionPerSecond",
											"type": "uint256"
										},
										{
											"internalType": "uint256",
											"name": "incentivesLastUpdateTimestamp",
											"type": "uint256"
										},
										{
											"internalType": "uint256",
											"name": "tokenIncentivesIndex",
											"type": "uint256"
										},
										{
											"internalType": "uint256",
											"name": "emissionEndTimestamp",
											"type": "uint256"
										},
										{
											"internalType": "int256",
											"name": "rewardPriceFeed",
											"type": "int256"
										},
										{
											"internalType": "uint8",
											"name": "rewardTokenDecimals",
											"type": "uint8"
										},
										{
											"internalType": "uint8",
											"name": "precision",
											"type": "uint8"
										},
										{
											"internalType": "uint8",
											"name": "priceFeedDecimals",
											"type": "uint8"
										}
									],
									"internalType": "struct IUiIncentiveDataProviderV3.RewardInfo[]",
									"name": "rewardsTokenInformation",
									"type": "tuple[]"
								}
							],
							"internalType": "struct IUiIncentiveDataProviderV3.IncentiveData",
							"name": "aIncentiveData",
							"type": "tuple"
						},
						{
							"components": [
								{
									"internalType": "address",
									"name": "tokenAddress",
									"type": "address"
								},
								{
									"internalType": "address",
									"name": "incentiveControllerAddress",
									"type": "address"
								},
								{
									"components": [
										{
											"internalType": "string",
											"name": "rewardTokenSymbol",
											"type": "string"
										},
										{
											"internalType": "address",
											"name": "rewardTokenAddress",
											"type": "address"
										},
										{
											"internalType": "address",
											"name": "rewardOracleAddress",
											"type": "address"
										},
										{
											"internalType": "uint256",
											"name": "emissionPerSecond",
											"type": "uint256"
										},
										{
											"internalType": "uint256",
											"name": "incentivesLastUpdateTimestamp",
											"type": "uint256"
										},
										{
											"internalType": "uint256",
											"name": "tokenIncentivesIndex",
											"type": "uint256"
										},
										{
											"internalType": "uint256",
											"name": "emissionEndTimestamp",
											"type": "uint256"
										},
										{
											"internalType": "int256",
											"name": "rewardPriceFeed",
											"type": "int256"
										},
										{
											"internalType": "uint8",
											"name": "rewardTokenDecimals",
											"type": "uint8"
										},
										{
											"internalType": "uint8",
											"name": "precision",
											"type": "uint8"
										},
										{
											"internalType": "uint8",
											"name": "priceFeedDecimals",
											"type": "uint8"
										}
									],
									"internalType": "struct IUiIncentiveDataProviderV3.RewardInfo[]",
									"name": "rewardsTokenInformation",
									"type": "tuple[]"
								}
							],
							"internalType": "struct IUiIncentiveDataProviderV3.IncentiveData",
							"name": "vIncentiveData",
							"type": "tuple"
						},
						{
							"components": [
								{
									"internalType": "address",
									"name": "tokenAddress",
									"type": "address"
								},
								{
									"internalType": "address",
									"name": "incentiveControllerAddress",
									"type": "address"
								},
								{
									"components": [
										{
											"internalType": "string",
											"name": "rewardTokenSymbol",
											"type": "string"
										},
										{
											"internalType": "address",
											"name": "rewardTokenAddress",
											"type": "address"
										},
										{
											"internalType": "address",
											"name": "rewardOracleAddress",
											"type": "address"
										},
										{
											"internalType": "uint256",
											"name": "emissionPerSecond",
											"type": "uint256"
										},
										{
											"internalType": "uint256",
											"name": "incentivesLastUpdateTimestamp",
											"type": "uint256"
										},
										{
											"internalType": "uint256",
											"name": "tokenIncentivesIndex",
											"type": "uint256"
										},
										{
											"internalType": "uint256",
											"name": "emissionEndTimestamp",
											"type": "uint256"
										},
										{
											"internalType": "int256",
											"name": "rewardPriceFeed",
											"type": "int256"
										},
										{
											"internalType": "uint8",
											"name": "rewardTokenDecimals",
											"type": "uint8"
										},
										{
											"internalType": "uint8",
											"name": "precision",
											"type": "uint8"
										},
										{
											"internalType": "uint8",
											"name": "priceFeedDecimals",
											"type": "uint8"
										}
									],
									"internalType": "struct IUiIncentiveDataProviderV3.RewardInfo[]",
									"name": "rewardsTokenInformation",
									"type": "tuple[]"
								}
							],
							"internalType": "struct IUiIncentiveDataProviderV3.IncentiveData",
							"name": "sIncentiveData",
							"type": "tuple"
						}
					],
					"internalType": "struct IUiIncentiveDataProviderV3.AggregatedReserveIncentiveData[]",
					"name": "",
					"type": "tuple[]"
				}
			],
			"stateMutability": "view",
			"type": "function"
		},
		{
			"inputs": [
				{
					"internalType": "contract IPoolAddressesProvider",
					"name": "provider",
					"type": "address"
				},
				{
					"internalType": "address",
					"name": "user",
					"type": "address"
				}
			],
			"name": "getUserReservesIncentivesData",
			"outputs": [
				{
					"components": [
						{
							"internalType": "address",
							"name": "underlyingAsset",
							"type": "address"
						},
						{
							"components": [
								{
									"internalType": "address",
									"name": "tokenAddress",
									"type": "address"
								},
								{
									"internalType": "address",
									"name": "incentiveControllerAddress",
									"type": "address"
								},
								{
									"components": [
										{
											"internalType": "string",
											"name": "rewardTokenSymbol",
											"type": "string"
										},
										{
											"internalType": "address",
											"name": "rewardOracleAddress",
											"type": "address"
										},
										{
											"internalType": "address",
											"name": "rewardTokenAddress",
											"type": "address"
										},
										{
											"internalType": "uint256",
											"name": "userUnclaimedRewards",
											"type": "uint256"
										},
										{
											"internalType": "uint256",
											"name": "tokenIncentivesUserIndex",
											"type": "uint256"
										},
										{
											"internalType": "int256",
											"name": "rewardPriceFeed",
											"type": "int256"
										},
										{
											"internalType": "uint8",
											"name": "priceFeedDecimals",
											"type": "uint8"
										},
										{
											"internalType": "uint8",
											"name": "rewardTokenDecimals",
											"type": "uint8"
										}
									],
									"internalType": "struct IUiIncentiveDataProviderV3.UserRewardInfo[]",
									"name": "userRewardsInformation",
									"type": "tuple[]"
								}
							],
							"internalType": "struct IUiIncentiveDataProviderV3.UserIncentiveData",
							"name": "aTokenIncentivesUserData",
							"type": "tuple"
						},
						{
							"components": [
								{
									"internalType": "address",
									"name": "tokenAddress",
									"type": "address"
								},
								{
									"internalType": "address",
									"name": "incentiveControllerAddress",
									"type": "address"
								},
								{
									"components": [
										{
											"internalType": "string",
											"name": "rewardTokenSymbol",
											"type": "string"
										},
										{
											"internalType": "address",
											"name": "rewardOracleAddress",
											"type": "address"
										},
										{
											"internalType": "address",
											"name": "rewardTokenAddress",
											"type": "address"
										},
										{
											"internalType": "uint256",
											"name": "userUnclaimedRewards",
											"type": "uint256"
										},
										{
											"internalType": "uint256",
											"name": "tokenIncentivesUserIndex",
											"type": "uint256"
										},
										{
											"internalType": "int256",
											"name": "rewardPriceFeed",
											"type": "int256"
										},
										{
											"internalType": "uint8",
											"name": "priceFeedDecimals",
											"type": "uint8"
										},
										{
											"internalType": "uint8",
											"name": "rewardTokenDecimals",
											"type": "uint8"
										}
									],
									"internalType": "struct IUiIncentiveDataProviderV3.UserRewardInfo[]",
									"name": "userRewardsInformation",
									"type": "tuple[]"
								}
							],
							"internalType": "struct IUiIncentiveDataProviderV3.UserIncentiveData",
							"name": "vTokenIncentivesUserData",
							"type": "tuple"
						},
						{
							"components": [
								{
									"internalType": "address",
									"name": "tokenAddress",
									"type": "address"
								},
								{
									"internalType": "address",
									"name": "incentiveControllerAddress",
									"type": "address"
								},
								{
									"components": [
										{
											"internalType": "string",
											"name": "rewardTokenSymbol",
											"type": "string"
										},
										{
											"internalType": "address",
											"name": "rewardOracleAddress",
											"type": "address"
										},
										{
											"internalType": "address",
											"name": "rewardTokenAddress",
											"type": "address"
										},
										{
											"internalType": "uint256",
											"name": "userUnclaimedRewards",
											"type": "uint256"
										},
										{
											"internalType": "uint256",
											"name": "tokenIncentivesUserIndex",
											"type": "uint256"
										},
										{
											"internalType": "int256",
											"name": "rewardPriceFeed",
											"type": "int256"
										},
										{
											"internalType": "uint8",
											"name": "priceFeedDecimals",
											"type": "uint8"
										},
										{
											"internalType": "uint8",
											"name": "rewardTokenDecimals",
											"type": "uint8"
										}
									],
									"internalType": "struct IUiIncentiveDataProviderV3.UserRewardInfo[]",
									"name": "userRewardsInformation",
									"type": "tuple[]"
								}
							],
							"internalType": "struct IUiIncentiveDataProviderV3.UserIncentiveData",
							"name": "sTokenIncentivesUserData",
							"type": "tuple"
						}
					],
					"internalType": "struct IUiIncentiveDataProviderV3.UserReserveIncentiveData[]",
					"name": "",
					"type": "tuple[]"
				}
			],
			"stateMutability": "view",
			"type": "function"
		}
	]
}