{
	"data": {
		"bytecode": {
			"linkReferences": {},
			"object": "6080604052348015600e575f80fd5b506110f28061001c5f395ff3fe608060405260043610610037575f3560e01c806302405343146100a0578063b59b28ef146100dd578063f7888aec146101195761009c565b3661009c5761005b3373ffffffffffffffffffffffffffffffffffffffff16610155565b61009a576040517f08c379a00000000000000000000000000000000000000000000000000000000081526004016100919061090e565b60405180910390fd5b005b5f80fd5b3480156100ab575f80fd5b506100c660048036038101906100c19190610997565b610166565b6040516100d4929190610b4c565b60405180910390f35b3480156100e8575f80fd5b5061010360048036038101906100fe9190610be2565b610555565b6040516101109190610c60565b60405180910390f35b348015610124575f80fd5b5061013f600480360381019061013a9190610997565b610686565b60405161014c9190610c8f565b60405180910390f35b5f80823b90505f8111915050919050565b6060805f8473ffffffffffffffffffffffffffffffffffffffff1663026b1d5f6040518163ffffffff1660e01b8152600401602060405180830381865afa1580156101b3573d5f803e3d5ffd5b505050506040513d601f19601f820116820180604052508101906101d79190610cbc565b90505f8173ffffffffffffffffffffffffffffffffffffffff1663d1946dbc6040518163ffffffff1660e01b81526004015f60405180830381865afa158015610222573d5f803e3d5ffd5b505050506040513d5f823e3d601f19601f8201168201806040525081019061024a9190610e2f565b90505f6001825161025b9190610ea3565b67ffffffffffffffff81111561027457610273610cf7565b5b6040519080825280602002602001820160405280156102a25781602001602082028036833780820191505090505b5090505f5b8251811015610325578281815181106102c3576102c2610ed6565b5b60200260200101518282815181106102de576102dd610ed6565b5b602002602001019073ffffffffffffffffffffffffffffffffffffffff16908173ffffffffffffffffffffffffffffffffffffffff168152505080806001019150506102a7565b5073eeeeeeeeeeeeeeeeeeeeeeeeeeeeeeeeeeeeeeee8183518151811061034f5761034e610ed6565b5b602002602001019073ffffffffffffffffffffffffffffffffffffffff16908173ffffffffffffffffffffffffffffffffffffffff16815250505f815167ffffffffffffffff8111156103a5576103a4610cf7565b5b6040519080825280602002602001820160405280156103d35781602001602082028036833780820191505090505b5090505f5b8351811015610505575f8573ffffffffffffffffffffffffffffffffffffffff1663c44b11f785848151811061041157610410610ed6565b5b60200260200101516040518263ffffffff1660e01b81526004016104359190610f12565b602060405180830381865afa158015610450573d5f803e3d5ffd5b505050506040513d601f19601f820116820180604052508101906104749190610f92565b90505f610480826107d1565b505050509050806104b2575f84848151811061049f5761049e610ed6565b5b60200260200101818152505050506104f8565b6104d68a8685815181106104c9576104c8610ed6565b5b6020026020010151610686565b8484815181106104e9576104e8610ed6565b5b60200260200101818152505050505b80806001019150506103d8565b506105248773eeeeeeeeeeeeeeeeeeeeeeeeeeeeeeeeeeeeeeee610686565b8184518151811061053857610537610ed6565b5b602002602001018181525050818195509550505050509250929050565b60605f838390508686905061056a9190610fbd565b67ffffffffffffffff81111561058357610582610cf7565b5b6040519080825280602002602001820160405280156105b15781602001602082028036833780820191505090505b5090505f5b86869050811015610679575f5b8585905081101561066b576106268888848181106105e4576105e3610ed6565b5b90506020020160208101906105f99190610ffe565b87878481811061060c5761060b610ed6565b5b90506020020160208101906106219190610ffe565b610686565b838288889050856106379190610fbd565b6106419190610ea3565b8151811061065257610651610ed6565b5b60200260200101818152505080806001019150506105c3565b5080806001019150506105b6565b5080915050949350505050565b5f73eeeeeeeeeeeeeeeeeeeeeeeeeeeeeeeeeeeeeeee73ffffffffffffffffffffffffffffffffffffffff168273ffffffffffffffffffffffffffffffffffffffff16036106ed578273ffffffffffffffffffffffffffffffffffffffff163190506107cb565b61070c8273ffffffffffffffffffffffffffffffffffffffff16610155565b15610790578173ffffffffffffffffffffffffffffffffffffffff166370a08231846040518263ffffffff1660e01b815260040161074a9190610f12565b602060405180830381865afa158015610765573d5f803e3d5ffd5b505050506040513d601f19601f820116820180604052508101906107899190611029565b90506107cb565b6040517f08c379a00000000000000000000000000000000000000000000000000000000081526004016107c29061109e565b60405180910390fd5b92915050565b5f805f805f80865f015190505f7ffffffffffffffffffffffffffffffffffffffffffffffffffeffffffffffffff19821614155f7ffffffffffffffffffffffffffffffffffffffffffffffffffdffffffffffffff19831614155f7ffffffffffffffffffffffffffffffffffffffffffffffffffbffffffffffffff19841614155f7ffffffffffffffffffffffffffffffffffffffffffffffffff7ffffffffffffff19851614155f7fffffffffffffffffffffffffffffffffffffffffffffffffefffffffffffffff1986161415955095509550955095505091939590929450565b5f82825260208201905092915050565b7f32320000000000000000000000000000000000000000000000000000000000005f82015250565b5f6108f86002836108b4565b9150610903826108c4565b602082019050919050565b5f6020820190508181035f830152610925816108ec565b9050919050565b5f604051905090565b5f80fd5b5f80fd5b5f73ffffffffffffffffffffffffffffffffffffffff82169050919050565b5f6109668261093d565b9050919050565b6109768161095c565b8114610980575f80fd5b50565b5f813590506109918161096d565b92915050565b5f80604083850312156109ad576109ac610935565b5b5f6109ba85828601610983565b92505060206109cb85828601610983565b9150509250929050565b5f81519050919050565b5f82825260208201905092915050565b5f819050602082019050919050565b610a078161095c565b82525050565b5f610a1883836109fe565b60208301905092915050565b5f602082019050919050565b5f610a3a826109d5565b610a4481856109df565b9350610a4f836109ef565b805f5b83811015610a7f578151610a668882610a0d565b9750610a7183610a24565b925050600181019050610a52565b5085935050505092915050565b5f81519050919050565b5f82825260208201905092915050565b5f819050602082019050919050565b5f819050919050565b610ac781610ab5565b82525050565b5f610ad88383610abe565b60208301905092915050565b5f602082019050919050565b5f610afa82610a8c565b610b048185610a96565b9350610b0f83610aa6565b805f5b83811015610b3f578151610b268882610acd565b9750610b3183610ae4565b925050600181019050610b12565b5085935050505092915050565b5f6040820190508181035f830152610b648185610a30565b90508181036020830152610b788184610af0565b90509392505050565b5f80fd5b5f80fd5b5f80fd5b5f8083601f840112610ba257610ba1610b81565b5b8235905067ffffffffffffffff811115610bbf57610bbe610b85565b5b602083019150836020820283011115610bdb57610bda610b89565b5b9250929050565b5f805f8060408587031215610bfa57610bf9610935565b5b5f85013567ffffffffffffffff811115610c1757610c16610939565b5b610c2387828801610b8d565b9450945050602085013567ffffffffffffffff811115610c4657610c45610939565b5b610c5287828801610b8d565b925092505092959194509250565b5f6020820190508181035f830152610c788184610af0565b905092915050565b610c8981610ab5565b82525050565b5f602082019050610ca25f830184610c80565b92915050565b5f81519050610cb68161096d565b92915050565b5f60208284031215610cd157610cd0610935565b5b5f610cde84828501610ca8565b91505092915050565b5f601f19601f8301169050919050565b7f4e487b71000000000000000000000000000000000000000000000000000000005f52604160045260245ffd5b610d2d82610ce7565b810181811067ffffffffffffffff82111715610d4c57610d4b610cf7565b5b80604052505050565b5f610d5e61092c565b9050610d6a8282610d24565b919050565b5f67ffffffffffffffff821115610d8957610d88610cf7565b5b602082029050602081019050919050565b5f610dac610da784610d6f565b610d55565b90508083825260208201905060208402830185811115610dcf57610dce610b89565b5b835b81811015610df85780610de48882610ca8565b845260208401935050602081019050610dd1565b5050509392505050565b5f82601f830112610e1657610e15610b81565b5b8151610e26848260208601610d9a565b91505092915050565b5f60208284031215610e4457610e43610935565b5b5f82015167ffffffffffffffff811115610e6157610e60610939565b5b610e6d84828501610e02565b91505092915050565b7f4e487b71000000000000000000000000000000000000000000000000000000005f52601160045260245ffd5b5f610ead82610ab5565b9150610eb883610ab5565b9250828201905080821115610ed057610ecf610e76565b5b92915050565b7f4e487b71000000000000000000000000000000000000000000000000000000005f52603260045260245ffd5b610f0c8161095c565b82525050565b5f602082019050610f255f830184610f03565b92915050565b5f80fd5b610f3881610ab5565b8114610f42575f80fd5b50565b5f81519050610f5381610f2f565b92915050565b5f60208284031215610f6e57610f6d610f2b565b5b610f786020610d55565b90505f610f8784828501610f45565b5f8301525092915050565b5f60208284031215610fa757610fa6610935565b5b5f610fb484828501610f59565b91505092915050565b5f610fc782610ab5565b9150610fd283610ab5565b9250828202610fe081610ab5565b91508282048414831517610ff757610ff6610e76565b5b5092915050565b5f6020828403121561101357611012610935565b5b5f61102084828501610983565b91505092915050565b5f6020828403121561103e5761103d610935565b5b5f61104b84828501610f45565b91505092915050565b7f494e56414c49445f544f4b454e000000000000000000000000000000000000005f82015250565b5f611088600d836108b4565b915061109382611054565b602082019050919050565b5f6020820190508181035f8301526110b58161107c565b905091905056fea26469706673582212202ade1fa16cf49f62bab49ee1fc80ff6e2ecdaca4f776a865a4dfa9294ac0a7a664736f6c634300081a0033",
			"opcodes": "PUSH1 0x80 PUSH1 0x40 MSTORE CALLVALUE DUP1 ISZERO PUSH1 0xE JUMPI PUSH0 DUP1 REVERT JUMPDEST POP PUSH2 0x10F2 DUP1 PUSH2 0x1C PUSH0 CODECOPY PUSH0 RETURN INVALID PUSH1 0x80 PUSH1 0x40 MSTORE PUSH1 0x4 CALLDATASIZE LT PUSH2 0x37 JUMPI PUSH0 CALLDATALOAD PUSH1 0xE0 SHR DUP1 PUSH4 0x2405343 EQ PUSH2 0xA0 JUMPI DUP1 PUSH4 0xB59B28EF EQ PUSH2 0xDD JUMPI DUP1 PUSH4 0xF7888AEC EQ PUSH2 0x119 JUMPI PUSH2 0x9C JUMP JUMPDEST CALLDATASIZE PUSH2 0x9C JUMPI PUSH2 0x5B CALLER PUSH20 0xFFFFFFFFFFFFFFFFFFFFFFFFFFFFFFFFFFFFFFFF AND PUSH2 0x155 JUMP JUMPDEST PUSH2 0x9A JUMPI PUSH1 0x40 MLOAD PUSH32 0x8C379A000000000000000000000000000000000000000000000000000000000 DUP2 MSTORE PUSH1 0x4 ADD PUSH2 0x91 SWAP1 PUSH2 0x90E JUMP JUMPDEST PUSH1 0x40 MLOAD DUP1 SWAP2 SUB SWAP1 REVERT JUMPDEST STOP JUMPDEST PUSH0 DUP1 REVERT JUMPDEST CALLVALUE DUP1 ISZERO PUSH2 0xAB JUMPI PUSH0 DUP1 REVERT JUMPDEST POP PUSH2 0xC6 PUSH1 0x4 DUP1 CALLDATASIZE SUB DUP2 ADD SWAP1 PUSH2 0xC1 SWAP2 SWAP1 PUSH2 0x997 JUMP JUMPDEST PUSH2 0x166 JUMP JUMPDEST PUSH1 0x40 MLOAD PUSH2 0xD4 SWAP3 SWAP2 SWAP1 PUSH2 0xB4C JUMP JUMPDEST PUSH1 0x40 MLOAD DUP1 SWAP2 SUB SWAP1 RETURN JUMPDEST CALLVALUE DUP1 ISZERO PUSH2 0xE8 JUMPI PUSH0 DUP1 REVERT JUMPDEST POP PUSH2 0x103 PUSH1 0x4 DUP1 CALLDATASIZE SUB DUP2 ADD SWAP1 PUSH2 0xFE SWAP2 SWAP1 PUSH2 0xBE2 JUMP JUMPDEST PUSH2 0x555 JUMP JUMPDEST PUSH1 0x40 MLOAD PUSH2 0x110 SWAP2 SWAP1 PUSH2 0xC60 JUMP JUMPDEST PUSH1 0x40 MLOAD DUP1 SWAP2 SUB SWAP1 RETURN JUMPDEST CALLVALUE DUP1 ISZERO PUSH2 0x124 JUMPI PUSH0 DUP1 REVERT JUMPDEST POP PUSH2 0x13F PUSH1 0x4 DUP1 CALLDATASIZE SUB DUP2 ADD SWAP1 PUSH2 0x13A SWAP2 SWAP1 PUSH2 0x997 JUMP JUMPDEST PUSH2 0x686 JUMP JUMPDEST PUSH1 0x40 MLOAD PUSH2 0x14C SWAP2 SWAP1 PUSH2 0xC8F JUMP JUMPDEST PUSH1 0x40 MLOAD DUP1 SWAP2 SUB SWAP1 RETURN JUMPDEST PUSH0 DUP1 DUP3 EXTCODESIZE SWAP1 POP PUSH0 DUP2 GT SWAP2 POP POP SWAP2 SWAP1 POP JUMP JUMPDEST PUSH1 0x60 DUP1 PUSH0 DUP5 PUSH20 0xFFFFFFFFFFFFFFFFFFFFFFFFFFFFFFFFFFFFFFFF AND PUSH4 0x26B1D5F PUSH1 0x40 MLOAD DUP2 PUSH4 0xFFFFFFFF AND PUSH1 0xE0 SHL DUP2 MSTORE PUSH1 0x4 ADD PUSH1 0x20 PUSH1 0x40 MLOAD DUP1 DUP4 SUB DUP2 DUP7 GAS STATICCALL ISZERO DUP1 ISZERO PUSH2 0x1B3 JUMPI RETURNDATASIZE PUSH0 DUP1 RETURNDATACOPY RETURNDATASIZE PUSH0 REVERT JUMPDEST POP POP POP POP PUSH1 0x40 MLOAD RETURNDATASIZE PUSH1 0x1F NOT PUSH1 0x1F DUP3 ADD AND DUP3 ADD DUP1 PUSH1 0x40 MSTORE POP DUP2 ADD SWAP1 PUSH2 0x1D7 SWAP2 SWAP1 PUSH2 0xCBC JUMP JUMPDEST SWAP1 POP PUSH0 DUP2 PUSH20 0xFFFFFFFFFFFFFFFFFFFFFFFFFFFFFFFFFFFFFFFF AND PUSH4 0xD1946DBC PUSH1 0x40 MLOAD DUP2 PUSH4 0xFFFFFFFF AND PUSH1 0xE0 SHL DUP2 MSTORE PUSH1 0x4 ADD PUSH0 PUSH1 0x40 MLOAD DUP1 DUP4 SUB DUP2 DUP7 GAS STATICCALL ISZERO DUP1 ISZERO PUSH2 0x222 JUMPI RETURNDATASIZE PUSH0 DUP1 RETURNDATACOPY RETURNDATASIZE PUSH0 REVERT JUMPDEST POP POP POP POP PUSH1 0x40 MLOAD RETURNDATASIZE PUSH0 DUP3 RETURNDATACOPY RETURNDATASIZE PUSH1 0x1F NOT PUSH1 0x1F DUP3 ADD AND DUP3 ADD DUP1 PUSH1 0x40 MSTORE POP DUP2 ADD SWAP1 PUSH2 0x24A SWAP2 SWAP1 PUSH2 0xE2F JUMP JUMPDEST SWAP1 POP PUSH0 PUSH1 0x1 DUP3 MLOAD PUSH2 0x25B SWAP2 SWAP1 PUSH2 0xEA3 JUMP JUMPDEST PUSH8 0xFFFFFFFFFFFFFFFF DUP2 GT ISZERO PUSH2 0x274 JUMPI PUSH2 0x273 PUSH2 0xCF7 JUMP JUMPDEST JUMPDEST PUSH1 0x40 MLOAD SWAP1 DUP1 DUP3 MSTORE DUP1 PUSH1 0x20 MUL PUSH1 0x20 ADD DUP3 ADD PUSH1 0x40 MSTORE DUP1 ISZERO PUSH2 0x2A2 JUMPI DUP2 PUSH1 0x20 ADD PUSH1 0x20 DUP3 MUL DUP1 CALLDATASIZE DUP4 CALLDATACOPY DUP1 DUP3 ADD SWAP2 POP POP SWAP1 POP JUMPDEST POP SWAP1 POP PUSH0 JUMPDEST DUP3 MLOAD DUP2 LT ISZERO PUSH2 0x325 JUMPI DUP3 DUP2 DUP2 MLOAD DUP2 LT PUSH2 0x2C3 JUMPI PUSH2 0x2C2 PUSH2 0xED6 JUMP JUMPDEST JUMPDEST PUSH1 0x20 MUL PUSH1 0x20 ADD ADD MLOAD DUP3 DUP3 DUP2 MLOAD DUP2 LT PUSH2 0x2DE JUMPI PUSH2 0x2DD PUSH2 0xED6 JUMP JUMPDEST JUMPDEST PUSH1 0x20 MUL PUSH1 0x20 ADD ADD SWAP1 PUSH20 0xFFFFFFFFFFFFFFFFFFFFFFFFFFFFFFFFFFFFFFFF AND SWAP1 DUP2 PUSH20 0xFFFFFFFFFFFFFFFFFFFFFFFFFFFFFFFFFFFFFFFF AND DUP2 MSTORE POP POP DUP1 DUP1 PUSH1 0x1 ADD SWAP2 POP POP PUSH2 0x2A7 JUMP JUMPDEST POP PUSH20 0xEEEEEEEEEEEEEEEEEEEEEEEEEEEEEEEEEEEEEEEE DUP2 DUP4 MLOAD DUP2 MLOAD DUP2 LT PUSH2 0x34F JUMPI PUSH2 0x34E PUSH2 0xED6 JUMP JUMPDEST JUMPDEST PUSH1 0x20 MUL PUSH1 0x20 ADD ADD SWAP1 PUSH20 0xFFFFFFFFFFFFFFFFFFFFFFFFFFFFFFFFFFFFFFFF AND SWAP1 DUP2 PUSH20 0xFFFFFFFFFFFFFFFFFFFFFFFFFFFFFFFFFFFFFFFF AND DUP2 MSTORE POP POP PUSH0 DUP2 MLOAD PUSH8 0xFFFFFFFFFFFFFFFF DUP2 GT ISZERO PUSH2 0x3A5 JUMPI PUSH2 0x3A4 PUSH2 0xCF7 JUMP JUMPDEST JUMPDEST PUSH1 0x40 MLOAD SWAP1 DUP1 DUP3 MSTORE DUP1 PUSH1 0x20 MUL PUSH1 0x20 ADD DUP3 ADD PUSH1 0x40 MSTORE DUP1 ISZERO PUSH2 0x3D3 JUMPI DUP2 PUSH1 0x20 ADD PUSH1 0x20 DUP3 MUL DUP1 CALLDATASIZE DUP4 CALLDATACOPY DUP1 DUP3 ADD SWAP2 POP POP SWAP1 POP JUMPDEST POP SWAP1 POP PUSH0 JUMPDEST DUP4 MLOAD DUP2 LT ISZERO PUSH2 0x505 JUMPI PUSH0 DUP6 PUSH20 0xFFFFFFFFFFFFFFFFFFFFFFFFFFFFFFFFFFFFFFFF AND PUSH4 0xC44B11F7 DUP6 DUP5 DUP2 MLOAD DUP2 LT PUSH2 0x411 JUMPI PUSH2 0x410 PUSH2 0xED6 JUMP JUMPDEST JUMPDEST PUSH1 0x20 MUL PUSH1 0x20 ADD ADD MLOAD PUSH1 0x40 MLOAD DUP3 PUSH4 0xFFFFFFFF AND PUSH1 0xE0 SHL DUP2 MSTORE PUSH1 0x4 ADD PUSH2 0x435 SWAP2 SWAP1 PUSH2 0xF12 JUMP JUMPDEST PUSH1 0x20 PUSH1 0x40 MLOAD DUP1 DUP4 SUB DUP2 DUP7 GAS STATICCALL ISZERO DUP1 ISZERO PUSH2 0x450 JUMPI RETURNDATASIZE PUSH0 DUP1 RETURNDATACOPY RETURNDATASIZE PUSH0 REVERT JUMPDEST POP POP POP POP PUSH1 0x40 MLOAD RETURNDATASIZE PUSH1 0x1F NOT PUSH1 0x1F DUP3 ADD AND DUP3 ADD DUP1 PUSH1 0x40 MSTORE POP DUP2 ADD SWAP1 PUSH2 0x474 SWAP2 SWAP1 PUSH2 0xF92 JUMP JUMPDEST SWAP1 POP PUSH0 PUSH2 0x480 DUP3 PUSH2 0x7D1 JUMP JUMPDEST POP POP POP POP SWAP1 POP DUP1 PUSH2 0x4B2 JUMPI PUSH0 DUP5 DUP5 DUP2 MLOAD DUP2 LT PUSH2 0x49F JUMPI PUSH2 0x49E PUSH2 0xED6 JUMP JUMPDEST JUMPDEST PUSH1 0x20 MUL PUSH1 0x20 ADD ADD DUP2 DUP2 MSTORE POP POP POP POP PUSH2 0x4F8 JUMP JUMPDEST PUSH2 0x4D6 DUP11 DUP7 DUP6 DUP2 MLOAD DUP2 LT PUSH2 0x4C9 JUMPI PUSH2 0x4C8 PUSH2 0xED6 JUMP JUMPDEST JUMPDEST PUSH1 0x20 MUL PUSH1 0x20 ADD ADD MLOAD PUSH2 0x686 JUMP JUMPDEST DUP5 DUP5 DUP2 MLOAD DUP2 LT PUSH2 0x4E9 JUMPI PUSH2 0x4E8 PUSH2 0xED6 JUMP JUMPDEST JUMPDEST PUSH1 0x20 MUL PUSH1 0x20 ADD ADD DUP2 DUP2 MSTORE POP POP POP POP JUMPDEST DUP1 DUP1 PUSH1 0x1 ADD SWAP2 POP POP PUSH2 0x3D8 JUMP JUMPDEST POP PUSH2 0x524 DUP8 PUSH20 0xEEEEEEEEEEEEEEEEEEEEEEEEEEEEEEEEEEEEEEEE PUSH2 0x686 JUMP JUMPDEST DUP2 DUP5 MLOAD DUP2 MLOAD DUP2 LT PUSH2 0x538 JUMPI PUSH2 0x537 PUSH2 0xED6 JUMP JUMPDEST JUMPDEST PUSH1 0x20 MUL PUSH1 0x20 ADD ADD DUP2 DUP2 MSTORE POP POP DUP2 DUP2 SWAP6 POP SWAP6 POP POP POP POP POP SWAP3 POP SWAP3 SWAP1 POP JUMP JUMPDEST PUSH1 0x60 PUSH0 DUP4 DUP4 SWAP1 POP DUP7 DUP7 SWAP1 POP PUSH2 0x56A SWAP2 SWAP1 PUSH2 0xFBD JUMP JUMPDEST PUSH8 0xFFFFFFFFFFFFFFFF DUP2 GT ISZERO PUSH2 0x583 JUMPI PUSH2 0x582 PUSH2 0xCF7 JUMP JUMPDEST JUMPDEST PUSH1 0x40 MLOAD SWAP1 DUP1 DUP3 MSTORE DUP1 PUSH1 0x20 MUL PUSH1 0x20 ADD DUP3 ADD PUSH1 0x40 MSTORE DUP1 ISZERO PUSH2 0x5B1 JUMPI DUP2 PUSH1 0x20 ADD PUSH1 0x20 DUP3 MUL DUP1 CALLDATASIZE DUP4 CALLDATACOPY DUP1 DUP3 ADD SWAP2 POP POP SWAP1 POP JUMPDEST POP SWAP1 POP PUSH0 JUMPDEST DUP7 DUP7 SWAP1 POP DUP2 LT ISZERO PUSH2 0x679 JUMPI PUSH0 JUMPDEST DUP6 DUP6 SWAP1 POP DUP2 LT ISZERO PUSH2 0x66B JUMPI PUSH2 0x626 DUP9 DUP9 DUP5 DUP2 DUP2 LT PUSH2 0x5E4 JUMPI PUSH2 0x5E3 PUSH2 0xED6 JUMP JUMPDEST JUMPDEST SWAP1 POP PUSH1 0x20 MUL ADD PUSH1 0x20 DUP2 ADD SWAP1 PUSH2 0x5F9 SWAP2 SWAP1 PUSH2 0xFFE JUMP JUMPDEST DUP8 DUP8 DUP5 DUP2 DUP2 LT PUSH2 0x60C JUMPI PUSH2 0x60B PUSH2 0xED6 JUMP JUMPDEST JUMPDEST SWAP1 POP PUSH1 0x20 MUL ADD PUSH1 0x20 DUP2 ADD SWAP1 PUSH2 0x621 SWAP2 SWAP1 PUSH2 0xFFE JUMP JUMPDEST PUSH2 0x686 JUMP JUMPDEST DUP4 DUP3 DUP9 DUP9 SWAP1 POP DUP6 PUSH2 0x637 SWAP2 SWAP1 PUSH2 0xFBD JUMP JUMPDEST PUSH2 0x641 SWAP2 SWAP1 PUSH2 0xEA3 JUMP JUMPDEST DUP2 MLOAD DUP2 LT PUSH2 0x652 JUMPI PUSH2 0x651 PUSH2 0xED6 JUMP JUMPDEST JUMPDEST PUSH1 0x20 MUL PUSH1 0x20 ADD ADD DUP2 DUP2 MSTORE POP POP DUP1 DUP1 PUSH1 0x1 ADD SWAP2 POP POP PUSH2 0x5C3 JUMP JUMPDEST POP DUP1 DUP1 PUSH1 0x1 ADD SWAP2 POP POP PUSH2 0x5B6 JUMP JUMPDEST POP DUP1 SWAP2 POP POP SWAP5 SWAP4 POP POP POP POP JUMP JUMPDEST PUSH0 PUSH20 0xEEEEEEEEEEEEEEEEEEEEEEEEEEEEEEEEEEEEEEEE PUSH20 0xFFFFFFFFFFFFFFFFFFFFFFFFFFFFFFFFFFFFFFFF AND DUP3 PUSH20 0xFFFFFFFFFFFFFFFFFFFFFFFFFFFFFFFFFFFFFFFF AND SUB PUSH2 0x6ED JUMPI DUP3 PUSH20 0xFFFFFFFFFFFFFFFFFFFFFFFFFFFFFFFFFFFFFFFF AND BALANCE SWAP1 POP PUSH2 0x7CB JUMP JUMPDEST PUSH2 0x70C DUP3 PUSH20 0xFFFFFFFFFFFFFFFFFFFFFFFFFFFFFFFFFFFFFFFF AND PUSH2 0x155 JUMP JUMPDEST ISZERO PUSH2 0x790 JUMPI DUP2 PUSH20 0xFFFFFFFFFFFFFFFFFFFFFFFFFFFFFFFFFFFFFFFF AND PUSH4 0x70A08231 DUP5 PUSH1 0x40 MLOAD DUP3 PUSH4 0xFFFFFFFF AND PUSH1 0xE0 SHL DUP2 MSTORE PUSH1 0x4 ADD PUSH2 0x74A SWAP2 SWAP1 PUSH2 0xF12 JUMP JUMPDEST PUSH1 0x20 PUSH1 0x40 MLOAD DUP1 DUP4 SUB DUP2 DUP7 GAS STATICCALL ISZERO DUP1 ISZERO PUSH2 0x765 JUMPI RETURNDATASIZE PUSH0 DUP1 RETURNDATACOPY RETURNDATASIZE PUSH0 REVERT JUMPDEST POP POP POP POP PUSH1 0x40 MLOAD RETURNDATASIZE PUSH1 0x1F NOT PUSH1 0x1F DUP3 ADD AND DUP3 ADD DUP1 PUSH1 0x40 MSTORE POP DUP2 ADD SWAP1 PUSH2 0x789 SWAP2 SWAP1 PUSH2 0x1029 JUMP JUMPDEST SWAP1 POP PUSH2 0x7CB JUMP JUMPDEST PUSH1 0x40 MLOAD PUSH32 0x8C379A000000000000000000000000000000000000000000000000000000000 DUP2 MSTORE PUSH1 0x4 ADD PUSH2 0x7C2 SWAP1 PUSH2 0x109E JUMP JUMPDEST PUSH1 0x40 MLOAD DUP1 SWAP2 SUB SWAP1 REVERT JUMPDEST SWAP3 SWAP2 POP POP JUMP JUMPDEST PUSH0 DUP1 PUSH0 DUP1 PUSH0 DUP1 DUP7 PUSH0 ADD MLOAD SWAP1 POP PUSH0 PUSH32 0xFFFFFFFFFFFFFFFFFFFFFFFFFFFFFFFFFFFFFFFFFFFFFFFFFEFFFFFFFFFFFFFF NOT DUP3 AND EQ ISZERO PUSH0 PUSH32 0xFFFFFFFFFFFFFFFFFFFFFFFFFFFFFFFFFFFFFFFFFFFFFFFFFDFFFFFFFFFFFFFF NOT DUP4 AND EQ ISZERO PUSH0 PUSH32 0xFFFFFFFFFFFFFFFFFFFFFFFFFFFFFFFFFFFFFFFFFFFFFFFFFBFFFFFFFFFFFFFF NOT DUP5 AND EQ ISZERO PUSH0 PUSH32 0xFFFFFFFFFFFFFFFFFFFFFFFFFFFFFFFFFFFFFFFFFFFFFFFFF7FFFFFFFFFFFFFF NOT DUP6 AND EQ ISZERO PUSH0 PUSH32 0xFFFFFFFFFFFFFFFFFFFFFFFFFFFFFFFFFFFFFFFFFFFFFFFFEFFFFFFFFFFFFFFF NOT DUP7 AND EQ ISZERO SWAP6 POP SWAP6 POP SWAP6 POP SWAP6 POP SWAP6 POP POP SWAP2 SWAP4 SWAP6 SWAP1 SWAP3 SWAP5 POP JUMP JUMPDEST PUSH0 DUP3 DUP3 MSTORE PUSH1 0x20 DUP3 ADD SWAP1 POP SWAP3 SWAP2 POP POP JUMP JUMPDEST PUSH32 0x3232000000000000000000000000000000000000000000000000000000000000 PUSH0 DUP3 ADD MSTORE POP JUMP JUMPDEST PUSH0 PUSH2 0x8F8 PUSH1 0x2 DUP4 PUSH2 0x8B4 JUMP JUMPDEST SWAP2 POP PUSH2 0x903 DUP3 PUSH2 0x8C4 JUMP JUMPDEST PUSH1 0x20 DUP3 ADD SWAP1 POP SWAP2 SWAP1 POP JUMP JUMPDEST PUSH0 PUSH1 0x20 DUP3 ADD SWAP1 POP DUP2 DUP2 SUB PUSH0 DUP4 ADD MSTORE PUSH2 0x925 DUP2 PUSH2 0x8EC JUMP JUMPDEST SWAP1 POP SWAP2 SWAP1 POP JUMP JUMPDEST PUSH0 PUSH1 0x40 MLOAD SWAP1 POP SWAP1 JUMP JUMPDEST PUSH0 DUP1 REVERT JUMPDEST PUSH0 DUP1 REVERT JUMPDEST PUSH0 PUSH20 0xFFFFFFFFFFFFFFFFFFFFFFFFFFFFFFFFFFFFFFFF DUP3 AND SWAP1 POP SWAP2 SWAP1 POP JUMP JUMPDEST PUSH0 PUSH2 0x966 DUP3 PUSH2 0x93D JUMP JUMPDEST SWAP1 POP SWAP2 SWAP1 POP JUMP JUMPDEST PUSH2 0x976 DUP2 PUSH2 0x95C JUMP JUMPDEST DUP2 EQ PUSH2 0x980 JUMPI PUSH0 DUP1 REVERT JUMPDEST POP JUMP JUMPDEST PUSH0 DUP2 CALLDATALOAD SWAP1 POP PUSH2 0x991 DUP2 PUSH2 0x96D JUMP JUMPDEST SWAP3 SWAP2 POP POP JUMP JUMPDEST PUSH0 DUP1 PUSH1 0x40 DUP4 DUP6 SUB SLT ISZERO PUSH2 0x9AD JUMPI PUSH2 0x9AC PUSH2 0x935 JUMP JUMPDEST JUMPDEST PUSH0 PUSH2 0x9BA DUP6 DUP3 DUP7 ADD PUSH2 0x983 JUMP JUMPDEST SWAP3 POP POP PUSH1 0x20 PUSH2 0x9CB DUP6 DUP3 DUP7 ADD PUSH2 0x983 JUMP JUMPDEST SWAP2 POP POP SWAP3 POP SWAP3 SWAP1 POP JUMP JUMPDEST PUSH0 DUP2 MLOAD SWAP1 POP SWAP2 SWAP1 POP JUMP JUMPDEST PUSH0 DUP3 DUP3 MSTORE PUSH1 0x20 DUP3 ADD SWAP1 POP SWAP3 SWAP2 POP POP JUMP JUMPDEST PUSH0 DUP2 SWAP1 POP PUSH1 0x20 DUP3 ADD SWAP1 POP SWAP2 SWAP1 POP JUMP JUMPDEST PUSH2 0xA07 DUP2 PUSH2 0x95C JUMP JUMPDEST DUP3 MSTORE POP POP JUMP JUMPDEST PUSH0 PUSH2 0xA18 DUP4 DUP4 PUSH2 0x9FE JUMP JUMPDEST PUSH1 0x20 DUP4 ADD SWAP1 POP SWAP3 SWAP2 POP POP JUMP JUMPDEST PUSH0 PUSH1 0x20 DUP3 ADD SWAP1 POP SWAP2 SWAP1 POP JUMP JUMPDEST PUSH0 PUSH2 0xA3A DUP3 PUSH2 0x9D5 JUMP JUMPDEST PUSH2 0xA44 DUP2 DUP6 PUSH2 0x9DF JUMP JUMPDEST SWAP4 POP PUSH2 0xA4F DUP4 PUSH2 0x9EF JUMP JUMPDEST DUP1 PUSH0 JUMPDEST DUP4 DUP2 LT ISZERO PUSH2 0xA7F JUMPI DUP2 MLOAD PUSH2 0xA66 DUP9 DUP3 PUSH2 0xA0D JUMP JUMPDEST SWAP8 POP PUSH2 0xA71 DUP4 PUSH2 0xA24 JUMP JUMPDEST SWAP3 POP POP PUSH1 0x1 DUP2 ADD SWAP1 POP PUSH2 0xA52 JUMP JUMPDEST POP DUP6 SWAP4 POP POP POP POP SWAP3 SWAP2 POP POP JUMP JUMPDEST PUSH0 DUP2 MLOAD SWAP1 POP SWAP2 SWAP1 POP JUMP JUMPDEST PUSH0 DUP3 DUP3 MSTORE PUSH1 0x20 DUP3 ADD SWAP1 POP SWAP3 SWAP2 POP POP JUMP JUMPDEST PUSH0 DUP2 SWAP1 POP PUSH1 0x20 DUP3 ADD SWAP1 POP SWAP2 SWAP1 POP JUMP JUMPDEST PUSH0 DUP2 SWAP1 POP SWAP2 SWAP1 POP JUMP JUMPDEST PUSH2 0xAC7 DUP2 PUSH2 0xAB5 JUMP JUMPDEST DUP3 MSTORE POP POP JUMP JUMPDEST PUSH0 PUSH2 0xAD8 DUP4 DUP4 PUSH2 0xABE JUMP JUMPDEST PUSH1 0x20 DUP4 ADD SWAP1 POP SWAP3 SWAP2 POP POP JUMP JUMPDEST PUSH0 PUSH1 0x20 DUP3 ADD SWAP1 POP SWAP2 SWAP1 POP JUMP JUMPDEST PUSH0 PUSH2 0xAFA DUP3 PUSH2 0xA8C JUMP JUMPDEST PUSH2 0xB04 DUP2 DUP6 PUSH2 0xA96 JUMP JUMPDEST SWAP4 POP PUSH2 0xB0F DUP4 PUSH2 0xAA6 JUMP JUMPDEST DUP1 PUSH0 JUMPDEST DUP4 DUP2 LT ISZERO PUSH2 0xB3F JUMPI DUP2 MLOAD PUSH2 0xB26 DUP9 DUP3 PUSH2 0xACD JUMP JUMPDEST SWAP8 POP PUSH2 0xB31 DUP4 PUSH2 0xAE4 JUMP JUMPDEST SWAP3 POP POP PUSH1 0x1 DUP2 ADD SWAP1 POP PUSH2 0xB12 JUMP JUMPDEST POP DUP6 SWAP4 POP POP POP POP SWAP3 SWAP2 POP POP JUMP JUMPDEST PUSH0 PUSH1 0x40 DUP3 ADD SWAP1 POP DUP2 DUP2 SUB PUSH0 DUP4 ADD MSTORE PUSH2 0xB64 DUP2 DUP6 PUSH2 0xA30 JUMP JUMPDEST SWAP1 POP DUP2 DUP2 SUB PUSH1 0x20 DUP4 ADD MSTORE PUSH2 0xB78 DUP2 DUP5 PUSH2 0xAF0 JUMP JUMPDEST SWAP1 POP SWAP4 SWAP3 POP POP POP JUMP JUMPDEST PUSH0 DUP1 REVERT JUMPDEST PUSH0 DUP1 REVERT JUMPDEST PUSH0 DUP1 REVERT JUMPDEST PUSH0 DUP1 DUP4 PUSH1 0x1F DUP5 ADD SLT PUSH2 0xBA2 JUMPI PUSH2 0xBA1 PUSH2 0xB81 JUMP JUMPDEST JUMPDEST DUP3 CALLDATALOAD SWAP1 POP PUSH8 0xFFFFFFFFFFFFFFFF DUP2 GT ISZERO PUSH2 0xBBF JUMPI PUSH2 0xBBE PUSH2 0xB85 JUMP JUMPDEST JUMPDEST PUSH1 0x20 DUP4 ADD SWAP2 POP DUP4 PUSH1 0x20 DUP3 MUL DUP4 ADD GT ISZERO PUSH2 0xBDB JUMPI PUSH2 0xBDA PUSH2 0xB89 JUMP JUMPDEST JUMPDEST SWAP3 POP SWAP3 SWAP1 POP JUMP JUMPDEST PUSH0 DUP1 PUSH0 DUP1 PUSH1 0x40 DUP6 DUP8 SUB SLT ISZERO PUSH2 0xBFA JUMPI PUSH2 0xBF9 PUSH2 0x935 JUMP JUMPDEST JUMPDEST PUSH0 DUP6 ADD CALLDATALOAD PUSH8 0xFFFFFFFFFFFFFFFF DUP2 GT ISZERO PUSH2 0xC17 JUMPI PUSH2 0xC16 PUSH2 0x939 JUMP JUMPDEST JUMPDEST PUSH2 0xC23 DUP8 DUP3 DUP9 ADD PUSH2 0xB8D JUMP JUMPDEST SWAP5 POP SWAP5 POP POP PUSH1 0x20 DUP6 ADD CALLDATALOAD PUSH8 0xFFFFFFFFFFFFFFFF DUP2 GT ISZERO PUSH2 0xC46 JUMPI PUSH2 0xC45 PUSH2 0x939 JUMP JUMPDEST JUMPDEST PUSH2 0xC52 DUP8 DUP3 DUP9 ADD PUSH2 0xB8D JUMP JUMPDEST SWAP3 POP SWAP3 POP POP SWAP3 SWAP6 SWAP2 SWAP5 POP SWAP3 POP JUMP JUMPDEST PUSH0 PUSH1 0x20 DUP3 ADD SWAP1 POP DUP2 DUP2 SUB PUSH0 DUP4 ADD MSTORE PUSH2 0xC78 DUP2 DUP5 PUSH2 0xAF0 JUMP JUMPDEST SWAP1 POP SWAP3 SWAP2 POP POP JUMP JUMPDEST PUSH2 0xC89 DUP2 PUSH2 0xAB5 JUMP JUMPDEST DUP3 MSTORE POP POP JUMP JUMPDEST PUSH0 PUSH1 0x20 DUP3 ADD SWAP1 POP PUSH2 0xCA2 PUSH0 DUP4 ADD DUP5 PUSH2 0xC80 JUMP JUMPDEST SWAP3 SWAP2 POP POP JUMP JUMPDEST PUSH0 DUP2 MLOAD SWAP1 POP PUSH2 0xCB6 DUP2 PUSH2 0x96D JUMP JUMPDEST SWAP3 SWAP2 POP POP JUMP JUMPDEST PUSH0 PUSH1 0x20 DUP3 DUP5 SUB SLT ISZERO PUSH2 0xCD1 JUMPI PUSH2 0xCD0 PUSH2 0x935 JUMP JUMPDEST JUMPDEST PUSH0 PUSH2 0xCDE DUP5 DUP3 DUP6 ADD PUSH2 0xCA8 JUMP JUMPDEST SWAP2 POP POP SWAP3 SWAP2 POP POP JUMP JUMPDEST PUSH0 PUSH1 0x1F NOT PUSH1 0x1F DUP4 ADD AND SWAP1 POP SWAP2 SWAP1 POP JUMP JUMPDEST PUSH32 0x4E487B7100000000000000000000000000000000000000000000000000000000 PUSH0 MSTORE PUSH1 0x41 PUSH1 0x4 MSTORE PUSH1 0x24 PUSH0 REVERT JUMPDEST PUSH2 0xD2D DUP3 PUSH2 0xCE7 JUMP JUMPDEST DUP2 ADD DUP2 DUP2 LT PUSH8 0xFFFFFFFFFFFFFFFF DUP3 GT OR ISZERO PUSH2 0xD4C JUMPI PUSH2 0xD4B PUSH2 0xCF7 JUMP JUMPDEST JUMPDEST DUP1 PUSH1 0x40 MSTORE POP POP POP JUMP JUMPDEST PUSH0 PUSH2 0xD5E PUSH2 0x92C JUMP JUMPDEST SWAP1 POP PUSH2 0xD6A DUP3 DUP3 PUSH2 0xD24 JUMP JUMPDEST SWAP2 SWAP1 POP JUMP JUMPDEST PUSH0 PUSH8 0xFFFFFFFFFFFFFFFF DUP3 GT ISZERO PUSH2 0xD89 JUMPI PUSH2 0xD88 PUSH2 0xCF7 JUMP JUMPDEST JUMPDEST PUSH1 0x20 DUP3 MUL SWAP1 POP PUSH1 0x20 DUP2 ADD SWAP1 POP SWAP2 SWAP1 POP JUMP JUMPDEST PUSH0 PUSH2 0xDAC PUSH2 0xDA7 DUP5 PUSH2 0xD6F JUMP JUMPDEST PUSH2 0xD55 JUMP JUMPDEST SWAP1 POP DUP1 DUP4 DUP3 MSTORE PUSH1 0x20 DUP3 ADD SWAP1 POP PUSH1 0x20 DUP5 MUL DUP4 ADD DUP6 DUP2 GT ISZERO PUSH2 0xDCF JUMPI PUSH2 0xDCE PUSH2 0xB89 JUMP JUMPDEST JUMPDEST DUP4 JUMPDEST DUP2 DUP2 LT ISZERO PUSH2 0xDF8 JUMPI DUP1 PUSH2 0xDE4 DUP9 DUP3 PUSH2 0xCA8 JUMP JUMPDEST DUP5 MSTORE PUSH1 0x20 DUP5 ADD SWAP4 POP POP PUSH1 0x20 DUP2 ADD SWAP1 POP PUSH2 0xDD1 JUMP JUMPDEST POP POP POP SWAP4 SWAP3 POP POP POP JUMP JUMPDEST PUSH0 DUP3 PUSH1 0x1F DUP4 ADD SLT PUSH2 0xE16 JUMPI PUSH2 0xE15 PUSH2 0xB81 JUMP JUMPDEST JUMPDEST DUP2 MLOAD PUSH2 0xE26 DUP5 DUP3 PUSH1 0x20 DUP7 ADD PUSH2 0xD9A JUMP JUMPDEST SWAP2 POP POP SWAP3 SWAP2 POP POP JUMP JUMPDEST PUSH0 PUSH1 0x20 DUP3 DUP5 SUB SLT ISZERO PUSH2 0xE44 JUMPI PUSH2 0xE43 PUSH2 0x935 JUMP JUMPDEST JUMPDEST PUSH0 DUP3 ADD MLOAD PUSH8 0xFFFFFFFFFFFFFFFF DUP2 GT ISZERO PUSH2 0xE61 JUMPI PUSH2 0xE60 PUSH2 0x939 JUMP JUMPDEST JUMPDEST PUSH2 0xE6D DUP5 DUP3 DUP6 ADD PUSH2 0xE02 JUMP JUMPDEST SWAP2 POP POP SWAP3 SWAP2 POP POP JUMP JUMPDEST PUSH32 0x4E487B7100000000000000000000000000000000000000000000000000000000 PUSH0 MSTORE PUSH1 0x11 PUSH1 0x4 MSTORE PUSH1 0x24 PUSH0 REVERT JUMPDEST PUSH0 PUSH2 0xEAD DUP3 PUSH2 0xAB5 JUMP JUMPDEST SWAP2 POP PUSH2 0xEB8 DUP4 PUSH2 0xAB5 JUMP JUMPDEST SWAP3 POP DUP3 DUP3 ADD SWAP1 POP DUP1 DUP3 GT ISZERO PUSH2 0xED0 JUMPI PUSH2 0xECF PUSH2 0xE76 JUMP JUMPDEST JUMPDEST SWAP3 SWAP2 POP POP JUMP JUMPDEST PUSH32 0x4E487B7100000000000000000000000000000000000000000000000000000000 PUSH0 MSTORE PUSH1 0x32 PUSH1 0x4 MSTORE PUSH1 0x24 PUSH0 REVERT JUMPDEST PUSH2 0xF0C DUP2 PUSH2 0x95C JUMP JUMPDEST DUP3 MSTORE POP POP JUMP JUMPDEST PUSH0 PUSH1 0x20 DUP3 ADD SWAP1 POP PUSH2 0xF25 PUSH0 DUP4 ADD DUP5 PUSH2 0xF03 JUMP JUMPDEST SWAP3 SWAP2 POP POP JUMP JUMPDEST PUSH0 DUP1 REVERT JUMPDEST PUSH2 0xF38 DUP2 PUSH2 0xAB5 JUMP JUMPDEST DUP2 EQ PUSH2 0xF42 JUMPI PUSH0 DUP1 REVERT JUMPDEST POP JUMP JUMPDEST PUSH0 DUP2 MLOAD SWAP1 POP PUSH2 0xF53 DUP2 PUSH2 0xF2F JUMP JUMPDEST SWAP3 SWAP2 POP POP JUMP JUMPDEST PUSH0 PUSH1 0x20 DUP3 DUP5 SUB SLT ISZERO PUSH2 0xF6E JUMPI PUSH2 0xF6D PUSH2 0xF2B JUMP JUMPDEST JUMPDEST PUSH2 0xF78 PUSH1 0x20 PUSH2 0xD55 JUMP JUMPDEST SWAP1 POP PUSH0 PUSH2 0xF87 DUP5 DUP3 DUP6 ADD PUSH2 0xF45 JUMP JUMPDEST PUSH0 DUP4 ADD MSTORE POP SWAP3 SWAP2 POP POP JUMP JUMPDEST PUSH0 PUSH1 0x20 DUP3 DUP5 SUB SLT ISZERO PUSH2 0xFA7 JUMPI PUSH2 0xFA6 PUSH2 0x935 JUMP JUMPDEST JUMPDEST PUSH0 PUSH2 0xFB4 DUP5 DUP3 DUP6 ADD PUSH2 0xF59 JUMP JUMPDEST SWAP2 POP POP SWAP3 SWAP2 POP POP JUMP JUMPDEST PUSH0 PUSH2 0xFC7 DUP3 PUSH2 0xAB5 JUMP JUMPDEST SWAP2 POP PUSH2 0xFD2 DUP4 PUSH2 0xAB5 JUMP JUMPDEST SWAP3 POP DUP3 DUP3 MUL PUSH2 0xFE0 DUP2 PUSH2 0xAB5 JUMP JUMPDEST SWAP2 POP DUP3 DUP3 DIV DUP5 EQ DUP4 ISZERO OR PUSH2 0xFF7 JUMPI PUSH2 0xFF6 PUSH2 0xE76 JUMP JUMPDEST JUMPDEST POP SWAP3 SWAP2 POP POP JUMP JUMPDEST PUSH0 PUSH1 0x20 DUP3 DUP5 SUB SLT ISZERO PUSH2 0x1013 JUMPI PUSH2 0x1012 PUSH2 0x935 JUMP JUMPDEST JUMPDEST PUSH0 PUSH2 0x1020 DUP5 DUP3 DUP6 ADD PUSH2 0x983 JUMP JUMPDEST SWAP2 POP POP SWAP3 SWAP2 POP POP JUMP JUMPDEST PUSH0 PUSH1 0x20 DUP3 DUP5 SUB SLT ISZERO PUSH2 0x103E JUMPI PUSH2 0x103D PUSH2 0x935 JUMP JUMPDEST JUMPDEST PUSH0 PUSH2 0x104B DUP5 DUP3 DUP6 ADD PUSH2 0xF45 JUMP JUMPDEST SWAP2 POP POP SWAP3 SWAP2 POP POP JUMP JUMPDEST PUSH32 0x494E56414C49445F544F4B454E00000000000000000000000000000000000000 PUSH0 DUP3 ADD MSTORE POP JUMP JUMPDEST PUSH0 PUSH2 0x1088 PUSH1 0xD DUP4 PUSH2 0x8B4 JUMP JUMPDEST SWAP2 POP PUSH2 0x1093 DUP3 PUSH2 0x1054 JUMP JUMPDEST PUSH1 0x20 DUP3 ADD SWAP1 POP SWAP2 SWAP1 POP JUMP JUMPDEST PUSH0 PUSH1 0x20 DUP3 ADD SWAP1 POP DUP2 DUP2 SUB PUSH0 DUP4 ADD MSTORE PUSH2 0x10B5 DUP2 PUSH2 0x107C JUMP JUMPDEST SWAP1 POP SWAP2 SWAP1 POP JUMP INVALID LOG2 PUSH5 0x6970667358 0x22 SLT KECCAK256 0x2A 0xDE 0x1F LOG1 PUSH13 0xF49F62BAB49EE1FC80FF6E2ECD 0xAC LOG4 0xF7 PUSH23 0xA865A4DFA9294AC0A7A664736F6C634300081A00330000 "
		},
		"gasEstimates": {
			"creation": {
				"codeDepositCost": "867600",
				"executionCost": "901",
				"totalCost": "868501"
			},
			"external": {
				"balanceOf(address,address)": "infinite",
				"batchBalanceOf(address[],address[])": "infinite",
				"getUserWalletBalances(address,address)": "infinite"
			}
		},
		"methodIdentifiers": {
			"balanceOf(address,address)": "f7888aec",
			"batchBalanceOf(address[],address[])": "b59b28ef",
			"getUserWalletBalances(address,address)": "02405343"
		}
	},
	"abi": [
		{
			"inputs": [
				{
					"internalType": "address",
					"name": "user",
					"type": "address"
				},
				{
					"internalType": "address",
					"name": "token",
					"type": "address"
				}
			],
			"name": "balanceOf",
			"outputs": [
				{
					"internalType": "uint256",
					"name": "",
					"type": "uint256"
				}
			],
			"stateMutability": "view",
			"type": "function"
		},
		{
			"inputs": [
				{
					"internalType": "address[]",
					"name": "users",
					"type": "address[]"
				},
				{
					"internalType": "address[]",
					"name": "tokens",
					"type": "address[]"
				}
			],
			"name": "batchBalanceOf",
			"outputs": [
				{
					"internalType": "uint256[]",
					"name": "",
					"type": "uint256[]"
				}
			],
			"stateMutability": "view",
			"type": "function"
		},
		{
			"inputs": [
				{
					"internalType": "address",
					"name": "provider",
					"type": "address"
				},
				{
					"internalType": "address",
					"name": "user",
					"type": "address"
				}
			],
			"name": "getUserWalletBalances",
			"outputs": [
				{
					"internalType": "address[]",
					"name": "",
					"type": "address[]"
				},
				{
					"internalType": "uint256[]",
					"name": "",
					"type": "uint256[]"
				}
			],
			"stateMutability": "view",
			"type": "function"
		},
		{
			"stateMutability": "payable",
			"type": "receive"
		}
	]
}