{
	"contracts/protocol/libraries/helpers/Errors.sol": {
		"Errors": {
			"abi": [
				{
					"inputs": [],
					"name": "ACL_ADMIN_CANNOT_BE_ZERO",
					"outputs": [
						{
							"internalType": "string",
							"name": "",
							"type": "string"
						}
					],
					"stateMutability": "view",
					"type": "function"
				},
				{
					"inputs": [],
					"name": "ADDRESSES_PROVIDER_ALREADY_ADDED",
					"outputs": [
						{
							"internalType": "string",
							"name": "",
							"type": "string"
						}
					],
					"stateMutability": "view",
					"type": "function"
				},
				{
					"inputs": [],
					"name": "ADDRESSES_PROVIDER_NOT_REGISTERED",
					"outputs": [
						{
							"internalType": "string",
							"name": "",
							"type": "string"
						}
					],
					"stateMutability": "view",
					"type": "function"
				},
				{
					"inputs": [],
					"name": "AMOUNT_BIGGER_THAN_MAX_LOAN_SIZE_STABLE",
					"outputs": [
						{
							"internalType": "string",
							"name": "",
							"type": "string"
						}
					],
					"stateMutability": "view",
					"type": "function"
				},
				{
					"inputs": [],
					"name": "ASSET_NOT_BORROWABLE_IN_ISOLATION",
					"outputs": [
						{
							"internalType": "string",
							"name": "",
							"type": "string"
						}
					],
					"stateMutability": "view",
					"type": "function"
				},
				{
					"inputs": [],
					"name": "ASSET_NOT_LISTED",
					"outputs": [
						{
							"internalType": "string",
							"name": "",
							"type": "string"
						}
					],
					"stateMutability": "view",
					"type": "function"
				},
				{
					"inputs": [],
					"name": "BORROWING_NOT_ENABLED",
					"outputs": [
						{
							"internalType": "string",
							"name": "",
							"type": "string"
						}
					],
					"stateMutability": "view",
					"type": "function"
				},
				{
					"inputs": [],
					"name": "BORROW_CAP_EXCEEDED",
					"outputs": [
						{
							"internalType": "string",
							"name": "",
							"type": "string"
						}
					],
					"stateMutability": "view",
					"type": "function"
				},
				{
					"inputs": [],
					"name": "BRIDGE_PROTOCOL_FEE_INVALID",
					"outputs": [
						{
							"internalType": "string",
							"name": "",
							"type": "string"
						}
					],
					"stateMutability": "view",
					"type": "function"
				},
				{
					"inputs": [],
					"name": "CALLER_MUST_BE_POOL",
					"outputs": [
						{
							"internalType": "string",
							"name": "",
							"type": "string"
						}
					],
					"stateMutability": "view",
					"type": "function"
				},
				{
					"inputs": [],
					"name": "CALLER_NOT_ASSET_LISTING_OR_POOL_ADMIN",
					"outputs": [
						{
							"internalType": "string",
							"name": "",
							"type": "string"
						}
					],
					"stateMutability": "view",
					"type": "function"
				},
				{
					"inputs": [],
					"name": "CALLER_NOT_ATOKEN",
					"outputs": [
						{
							"internalType": "string",
							"name": "",
							"type": "string"
						}
					],
					"stateMutability": "view",
					"type": "function"
				},
				{
					"inputs": [],
					"name": "CALLER_NOT_BRIDGE",
					"outputs": [
						{
							"internalType": "string",
							"name": "",
							"type": "string"
						}
					],
					"stateMutability": "view",
					"type": "function"
				},
				{
					"inputs": [],
					"name": "CALLER_NOT_EMERGENCY_ADMIN",
					"outputs": [
						{
							"internalType": "string",
							"name": "",
							"type": "string"
						}
					],
					"stateMutability": "view",
					"type": "function"
				},
				{
					"inputs": [],
					"name": "CALLER_NOT_POOL_ADMIN",
					"outputs": [
						{
							"internalType": "string",
							"name": "",
							"type": "string"
						}
					],
					"stateMutability": "view",
					"type": "function"
				},
				{
					"inputs": [],
					"name": "CALLER_NOT_POOL_CONFIGURATOR",
					"outputs": [
						{
							"internalType": "string",
							"name": "",
							"type": "string"
						}
					],
					"stateMutability": "view",
					"type": "function"
				},
				{
					"inputs": [],
					"name": "CALLER_NOT_POOL_OR_EMERGENCY_ADMIN",
					"outputs": [
						{
							"internalType": "string",
							"name": "",
							"type": "string"
						}
					],
					"stateMutability": "view",
					"type": "function"
				},
				{
					"inputs": [],
					"name": "CALLER_NOT_RISK_OR_POOL_ADMIN",
					"outputs": [
						{
							"internalType": "string",
							"name": "",
							"type": "string"
						}
					],
					"stateMutability": "view",
					"type": "function"
				},
				{
					"inputs": [],
					"name": "COLLATERAL_BALANCE_IS_ZERO",
					"outputs": [
						{
							"internalType": "string",
							"name": "",
							"type": "string"
						}
					],
					"stateMutability": "view",
					"type": "function"
				},
				{
					"inputs": [],
					"name": "COLLATERAL_CANNOT_BE_LIQUIDATED",
					"outputs": [
						{
							"internalType": "string",
							"name": "",
							"type": "string"
						}
					],
					"stateMutability": "view",
					"type": "function"
				},
				{
					"inputs": [],
					"name": "COLLATERAL_CANNOT_COVER_NEW_BORROW",
					"outputs": [
						{
							"internalType": "string",
							"name": "",
							"type": "string"
						}
					],
					"stateMutability": "view",
					"type": "function"
				},
				{
					"inputs": [],
					"name": "COLLATERAL_SAME_AS_BORROWING_CURRENCY",
					"outputs": [
						{
							"internalType": "string",
							"name": "",
							"type": "string"
						}
					],
					"stateMutability": "view",
					"type": "function"
				},
				{
					"inputs": [],
					"name": "DEBT_CEILING_EXCEEDED",
					"outputs": [
						{
							"internalType": "string",
							"name": "",
							"type": "string"
						}
					],
					"stateMutability": "view",
					"type": "function"
				},
				{
					"inputs": [],
					"name": "DEBT_CEILING_NOT_ZERO",
					"outputs": [
						{
							"internalType": "string",
							"name": "",
							"type": "string"
						}
					],
					"stateMutability": "view",
					"type": "function"
				},
				{
					"inputs": [],
					"name": "EMODE_CATEGORY_RESERVED",
					"outputs": [
						{
							"internalType": "string",
							"name": "",
							"type": "string"
						}
					],
					"stateMutability": "view",
					"type": "function"
				},
				{
					"inputs": [],
					"name": "FLASHLOAN_DISABLED",
					"outputs": [
						{
							"internalType": "string",
							"name": "",
							"type": "string"
						}
					],
					"stateMutability": "view",
					"type": "function"
				},
				{
					"inputs": [],
					"name": "FLASHLOAN_PREMIUM_INVALID",
					"outputs": [
						{
							"internalType": "string",
							"name": "",
							"type": "string"
						}
					],
					"stateMutability": "view",
					"type": "function"
				},
				{
					"inputs": [],
					"name": "HEALTH_FACTOR_LOWER_THAN_LIQUIDATION_THRESHOLD",
					"outputs": [
						{
							"internalType": "string",
							"name": "",
							"type": "string"
						}
					],
					"stateMutability": "view",
					"type": "function"
				},
				{
					"inputs": [],
					"name": "HEALTH_FACTOR_NOT_BELOW_THRESHOLD",
					"outputs": [
						{
							"internalType": "string",
							"name": "",
							"type": "string"
						}
					],
					"stateMutability": "view",
					"type": "function"
				},
				{
					"inputs": [],
					"name": "INCONSISTENT_EMODE_CATEGORY",
					"outputs": [
						{
							"internalType": "string",
							"name": "",
							"type": "string"
						}
					],
					"stateMutability": "view",
					"type": "function"
				},
				{
					"inputs": [],
					"name": "INCONSISTENT_FLASHLOAN_PARAMS",
					"outputs": [
						{
							"internalType": "string",
							"name": "",
							"type": "string"
						}
					],
					"stateMutability": "view",
					"type": "function"
				},
				{
					"inputs": [],
					"name": "INCONSISTENT_PARAMS_LENGTH",
					"outputs": [
						{
							"internalType": "string",
							"name": "",
							"type": "string"
						}
					],
					"stateMutability": "view",
					"type": "function"
				},
				{
					"inputs": [],
					"name": "INTEREST_RATE_REBALANCE_CONDITIONS_NOT_MET",
					"outputs": [
						{
							"internalType": "string",
							"name": "",
							"type": "string"
						}
					],
					"stateMutability": "view",
					"type": "function"
				},
				{
					"inputs": [],
					"name": "INVALID_ADDRESSES_PROVIDER",
					"outputs": [
						{
							"internalType": "string",
							"name": "",
							"type": "string"
						}
					],
					"stateMutability": "view",
					"type": "function"
				},
				{
					"inputs": [],
					"name": "INVALID_ADDRESSES_PROVIDER_ID",
					"outputs": [
						{
							"internalType": "string",
							"name": "",
							"type": "string"
						}
					],
					"stateMutability": "view",
					"type": "function"
				},
				{
					"inputs": [],
					"name": "INVALID_AMOUNT",
					"outputs": [
						{
							"internalType": "string",
							"name": "",
							"type": "string"
						}
					],
					"stateMutability": "view",
					"type": "function"
				},
				{
					"inputs": [],
					"name": "INVALID_BORROW_CAP",
					"outputs": [
						{
							"internalType": "string",
							"name": "",
							"type": "string"
						}
					],
					"stateMutability": "view",
					"type": "function"
				},
				{
					"inputs": [],
					"name": "INVALID_BURN_AMOUNT",
					"outputs": [
						{
							"internalType": "string",
							"name": "",
							"type": "string"
						}
					],
					"stateMutability": "view",
					"type": "function"
				},
				{
					"inputs": [],
					"name": "INVALID_DEBT_CEILING",
					"outputs": [
						{
							"internalType": "string",
							"name": "",
							"type": "string"
						}
					],
					"stateMutability": "view",
					"type": "function"
				},
				{
					"inputs": [],
					"name": "INVALID_DECIMALS",
					"outputs": [
						{
							"internalType": "string",
							"name": "",
							"type": "string"
						}
					],
					"stateMutability": "view",
					"type": "function"
				},
				{
					"inputs": [],
					"name": "INVALID_EMODE_CATEGORY",
					"outputs": [
						{
							"internalType": "string",
							"name": "",
							"type": "string"
						}
					],
					"stateMutability": "view",
					"type": "function"
				},
				{
					"inputs": [],
					"name": "INVALID_EMODE_CATEGORY_ASSIGNMENT",
					"outputs": [
						{
							"internalType": "string",
							"name": "",
							"type": "string"
						}
					],
					"stateMutability": "view",
					"type": "function"
				},
				{
					"inputs": [],
					"name": "INVALID_EMODE_CATEGORY_PARAMS",
					"outputs": [
						{
							"internalType": "string",
							"name": "",
							"type": "string"
						}
					],
					"stateMutability": "view",
					"type": "function"
				},
				{
					"inputs": [],
					"name": "INVALID_EXPIRATION",
					"outputs": [
						{
							"internalType": "string",
							"name": "",
							"type": "string"
						}
					],
					"stateMutability": "view",
					"type": "function"
				},
				{
					"inputs": [],
					"name": "INVALID_FLASHLOAN_EXECUTOR_RETURN",
					"outputs": [
						{
							"internalType": "string",
							"name": "",
							"type": "string"
						}
					],
					"stateMutability": "view",
					"type": "function"
				},
				{
					"inputs": [],
					"name": "INVALID_INTEREST_RATE_MODE_SELECTED",
					"outputs": [
						{
							"internalType": "string",
							"name": "",
							"type": "string"
						}
					],
					"stateMutability": "view",
					"type": "function"
				},
				{
					"inputs": [],
					"name": "INVALID_LIQUIDATION_PROTOCOL_FEE",
					"outputs": [
						{
							"internalType": "string",
							"name": "",
							"type": "string"
						}
					],
					"stateMutability": "view",
					"type": "function"
				},
				{
					"inputs": [],
					"name": "INVALID_LIQ_BONUS",
					"outputs": [
						{
							"internalType": "string",
							"name": "",
							"type": "string"
						}
					],
					"stateMutability": "view",
					"type": "function"
				},
				{
					"inputs": [],
					"name": "INVALID_LIQ_THRESHOLD",
					"outputs": [
						{
							"internalType": "string",
							"name": "",
							"type": "string"
						}
					],
					"stateMutability": "view",
					"type": "function"
				},
				{
					"inputs": [],
					"name": "INVALID_LTV",
					"outputs": [
						{
							"internalType": "string",
							"name": "",
							"type": "string"
						}
					],
					"stateMutability": "view",
					"type": "function"
				},
				{
					"inputs": [],
					"name": "INVALID_MINT_AMOUNT",
					"outputs": [
						{
							"internalType": "string",
							"name": "",
							"type": "string"
						}
					],
					"stateMutability": "view",
					"type": "function"
				},
				{
					"inputs": [],
					"name": "INVALID_OPTIMAL_STABLE_TO_TOTAL_DEBT_RATIO",
					"outputs": [
						{
							"internalType": "string",
							"name": "",
							"type": "string"
						}
					],
					"stateMutability": "view",
					"type": "function"
				},
				{
					"inputs": [],
					"name": "INVALID_OPTIMAL_USAGE_RATIO",
					"outputs": [
						{
							"internalType": "string",
							"name": "",
							"type": "string"
						}
					],
					"stateMutability": "view",
					"type": "function"
				},
				{
					"inputs": [],
					"name": "INVALID_RESERVE_FACTOR",
					"outputs": [
						{
							"internalType": "string",
							"name": "",
							"type": "string"
						}
					],
					"stateMutability": "view",
					"type": "function"
				},
				{
					"inputs": [],
					"name": "INVALID_RESERVE_INDEX",
					"outputs": [
						{
							"internalType": "string",
							"name": "",
							"type": "string"
						}
					],
					"stateMutability": "view",
					"type": "function"
				},
				{
					"inputs": [],
					"name": "INVALID_RESERVE_PARAMS",
					"outputs": [
						{
							"internalType": "string",
							"name": "",
							"type": "string"
						}
					],
					"stateMutability": "view",
					"type": "function"
				},
				{
					"inputs": [],
					"name": "INVALID_SIGNATURE",
					"outputs": [
						{
							"internalType": "string",
							"name": "",
							"type": "string"
						}
					],
					"stateMutability": "view",
					"type": "function"
				},
				{
					"inputs": [],
					"name": "INVALID_SUPPLY_CAP",
					"outputs": [
						{
							"internalType": "string",
							"name": "",
							"type": "string"
						}
					],
					"stateMutability": "view",
					"type": "function"
				},
				{
					"inputs": [],
					"name": "INVALID_UNBACKED_MINT_CAP",
					"outputs": [
						{
							"internalType": "string",
							"name": "",
							"type": "string"
						}
					],
					"stateMutability": "view",
					"type": "function"
				},
				{
					"inputs": [],
					"name": "LTV_VALIDATION_FAILED",
					"outputs": [
						{
							"internalType": "string",
							"name": "",
							"type": "string"
						}
					],
					"stateMutability": "view",
					"type": "function"
				},
				{
					"inputs": [],
					"name": "NOT_CONTRACT",
					"outputs": [
						{
							"internalType": "string",
							"name": "",
							"type": "string"
						}
					],
					"stateMutability": "view",
					"type": "function"
				},
				{
					"inputs": [],
					"name": "NOT_ENOUGH_AVAILABLE_USER_BALANCE",
					"outputs": [
						{
							"internalType": "string",
							"name": "",
							"type": "string"
						}
					],
					"stateMutability": "view",
					"type": "function"
				},
				{
					"inputs": [],
					"name": "NO_DEBT_OF_SELECTED_TYPE",
					"outputs": [
						{
							"internalType": "string",
							"name": "",
							"type": "string"
						}
					],
					"stateMutability": "view",
					"type": "function"
				},
				{
					"inputs": [],
					"name": "NO_EXPLICIT_AMOUNT_TO_REPAY_ON_BEHALF",
					"outputs": [
						{
							"internalType": "string",
							"name": "",
							"type": "string"
						}
					],
					"stateMutability": "view",
					"type": "function"
				},
				{
					"inputs": [],
					"name": "NO_MORE_RESERVES_ALLOWED",
					"outputs": [
						{
							"internalType": "string",
							"name": "",
							"type": "string"
						}
					],
					"stateMutability": "view",
					"type": "function"
				},
				{
					"inputs": [],
					"name": "NO_OUTSTANDING_STABLE_DEBT",
					"outputs": [
						{
							"internalType": "string",
							"name": "",
							"type": "string"
						}
					],
					"stateMutability": "view",
					"type": "function"
				},
				{
					"inputs": [],
					"name": "NO_OUTSTANDING_VARIABLE_DEBT",
					"outputs": [
						{
							"internalType": "string",
							"name": "",
							"type": "string"
						}
					],
					"stateMutability": "view",
					"type": "function"
				},
				{
					"inputs": [],
					"name": "OPERATION_NOT_SUPPORTED",
					"outputs": [
						{
							"internalType": "string",
							"name": "",
							"type": "string"
						}
					],
					"stateMutability": "view",
					"type": "function"
				},
				{
					"inputs": [],
					"name": "POOL_ADDRESSES_DO_NOT_MATCH",
					"outputs": [
						{
							"internalType": "string",
							"name": "",
							"type": "string"
						}
					],
					"stateMutability": "view",
					"type": "function"
				},
				{
					"inputs": [],
					"name": "PRICE_ORACLE_SENTINEL_CHECK_FAILED",
					"outputs": [
						{
							"internalType": "string",
							"name": "",
							"type": "string"
						}
					],
					"stateMutability": "view",
					"type": "function"
				},
				{
					"inputs": [],
					"name": "RESERVE_ALREADY_ADDED",
					"outputs": [
						{
							"internalType": "string",
							"name": "",
							"type": "string"
						}
					],
					"stateMutability": "view",
					"type": "function"
				},
				{
					"inputs": [],
					"name": "RESERVE_ALREADY_INITIALIZED",
					"outputs": [
						{
							"internalType": "string",
							"name": "",
							"type": "string"
						}
					],
					"stateMutability": "view",
					"type": "function"
				},
				{
					"inputs": [],
					"name": "RESERVE_DEBT_NOT_ZERO",
					"outputs": [
						{
							"internalType": "string",
							"name": "",
							"type": "string"
						}
					],
					"stateMutability": "view",
					"type": "function"
				},
				{
					"inputs": [],
					"name": "RESERVE_FROZEN",
					"outputs": [
						{
							"internalType": "string",
							"name": "",
							"type": "string"
						}
					],
					"stateMutability": "view",
					"type": "function"
				},
				{
					"inputs": [],
					"name": "RESERVE_INACTIVE",
					"outputs": [
						{
							"internalType": "string",
							"name": "",
							"type": "string"
						}
					],
					"stateMutability": "view",
					"type": "function"
				},
				{
					"inputs": [],
					"name": "RESERVE_LIQUIDITY_NOT_ZERO",
					"outputs": [
						{
							"internalType": "string",
							"name": "",
							"type": "string"
						}
					],
					"stateMutability": "view",
					"type": "function"
				},
				{
					"inputs": [],
					"name": "RESERVE_PAUSED",
					"outputs": [
						{
							"internalType": "string",
							"name": "",
							"type": "string"
						}
					],
					"stateMutability": "view",
					"type": "function"
				},
				{
					"inputs": [],
					"name": "SILOED_BORROWING_VIOLATION",
					"outputs": [
						{
							"internalType": "string",
							"name": "",
							"type": "string"
						}
					],
					"stateMutability": "view",
					"type": "function"
				},
				{
					"inputs": [],
					"name": "SPECIFIED_CURRENCY_NOT_BORROWED_BY_USER",
					"outputs": [
						{
							"internalType": "string",
							"name": "",
							"type": "string"
						}
					],
					"stateMutability": "view",
					"type": "function"
				},
				{
					"inputs": [],
					"name": "STABLE_BORROWING_ENABLED",
					"outputs": [
						{
							"internalType": "string",
							"name": "",
							"type": "string"
						}
					],
					"stateMutability": "view",
					"type": "function"
				},
				{
					"inputs": [],
					"name": "STABLE_BORROWING_NOT_ENABLED",
					"outputs": [
						{
							"internalType": "string",
							"name": "",
							"type": "string"
						}
					],
					"stateMutability": "view",
					"type": "function"
				},
				{
					"inputs": [],
					"name": "STABLE_DEBT_NOT_ZERO",
					"outputs": [
						{
							"internalType": "string",
							"name": "",
							"type": "string"
						}
					],
					"stateMutability": "view",
					"type": "function"
				},
				{
					"inputs": [],
					"name": "SUPPLY_CAP_EXCEEDED",
					"outputs": [
						{
							"internalType": "string",
							"name": "",
							"type": "string"
						}
					],
					"stateMutability": "view",
					"type": "function"
				},
				{
					"inputs": [],
					"name": "UNBACKED_MINT_CAP_EXCEEDED",
					"outputs": [
						{
							"internalType": "string",
							"name": "",
							"type": "string"
						}
					],
					"stateMutability": "view",
					"type": "function"
				},
				{
					"inputs": [],
					"name": "UNDERLYING_BALANCE_ZERO",
					"outputs": [
						{
							"internalType": "string",
							"name": "",
							"type": "string"
						}
					],
					"stateMutability": "view",
					"type": "function"
				},
				{
					"inputs": [],
					"name": "UNDERLYING_CANNOT_BE_RESCUED",
					"outputs": [
						{
							"internalType": "string",
							"name": "",
							"type": "string"
						}
					],
					"stateMutability": "view",
					"type": "function"
				},
				{
					"inputs": [],
					"name": "UNDERLYING_CLAIMABLE_RIGHTS_NOT_ZERO",
					"outputs": [
						{
							"internalType": "string",
							"name": "",
							"type": "string"
						}
					],
					"stateMutability": "view",
					"type": "function"
				},
				{
					"inputs": [],
					"name": "USER_IN_ISOLATION_MODE_OR_LTV_ZERO",
					"outputs": [
						{
							"internalType": "string",
							"name": "",
							"type": "string"
						}
					],
					"stateMutability": "view",
					"type": "function"
				},
				{
					"inputs": [],
					"name": "VARIABLE_DEBT_SUPPLY_NOT_ZERO",
					"outputs": [
						{
							"internalType": "string",
							"name": "",
							"type": "string"
						}
					],
					"stateMutability": "view",
					"type": "function"
				},
				{
					"inputs": [],
					"name": "ZERO_ADDRESS_NOT_VALID",
					"outputs": [
						{
							"internalType": "string",
							"name": "",
							"type": "string"
						}
					],
					"stateMutability": "view",
					"type": "function"
				}
			],
			"devdoc": {
				"author": "Aave",
				"kind": "dev",
				"methods": {},
				"title": "Errors library",
				"version": 1
			},
			"evm": {
				"assembly": "    /* \"contracts/protocol/libraries/helpers/Errors.sol\":213:10008  library Errors {... */\n  dataSize(sub_0)\n  dataOffset(sub_0)\n  0x0b\n  dup3\n  dup3\n  dup3\n  codecopy\n  dup1\n  mload\n  0x00\n  byte\n  0x73\n  eq\n  tag_1\n  jumpi\n  mstore(0x00, 0x4e487b7100000000000000000000000000000000000000000000000000000000)\n  mstore(0x04, 0x00)\n  revert(0x00, 0x24)\ntag_1:\n  mstore(0x00, address)\n  0x73\n  dup2\n  mstore8\n  dup3\n  dup2\n  return\nstop\n\nsub_0: assembly {\n        /* \"contracts/protocol/libraries/helpers/Errors.sol\":213:10008  library Errors {... */\n      eq(address, deployTimeAddress())\n      mstore(0x40, 0x80)\n      jumpi(tag_1, lt(calldatasize, 0x04))\n      shr(0xe0, calldataload(0x00))\n      dup1\n      0x8aa3ca4c\n      gt\n      tag_92\n      jumpi\n      dup1\n      0xbad8308c\n      gt\n      tag_93\n      jumpi\n      dup1\n      0xdd1dd95f\n      gt\n      tag_94\n      jumpi\n      dup1\n      0xf07f6785\n      gt\n      tag_95\n      jumpi\n      dup1\n      0xf07f6785\n      eq\n      tag_86\n      jumpi\n      dup1\n      0xf10727db\n      eq\n      tag_87\n      jumpi\n      dup1\n      0xf479ea11\n      eq\n      tag_88\n      jumpi\n      dup1\n      0xfa163a83\n      eq\n      tag_89\n      jumpi\n      dup1\n      0xfae82791\n      eq\n      tag_90\n      jumpi\n      dup1\n      0xfd1828ff\n      eq\n      tag_91\n      jumpi\n      jump(tag_1)\n    tag_95:\n      dup1\n      0xdd1dd95f\n      eq\n      tag_80\n      jumpi\n      dup1\n      0xde24948c\n      eq\n      tag_81\n      jumpi\n      dup1\n      0xe02f07ee\n      eq\n      tag_82\n      jumpi\n      dup1\n      0xe3fa20f5\n      eq\n      tag_83\n      jumpi\n      dup1\n      0xe4dd8b74\n      eq\n      tag_84\n      jumpi\n      dup1\n      0xe981483a\n      eq\n      tag_85\n      jumpi\n      jump(tag_1)\n    tag_94:\n      dup1\n      0xd14bb17a\n      gt\n      tag_96\n      jumpi\n      dup1\n      0xd14bb17a\n      eq\n      tag_74\n      jumpi\n      dup1\n      0xd1cd8b1d\n      eq\n      tag_75\n      jumpi\n      dup1\n      0xd6f9fcde\n      eq\n      tag_76\n      jumpi\n      dup1\n      0xd9adda85\n      eq\n      tag_77\n      jumpi\n      dup1\n      0xdc191bd9\n      eq\n      tag_78\n      jumpi\n      dup1\n      0xdcc56db6\n      eq\n      tag_79\n      jumpi\n      jump(tag_1)\n    tag_96:\n      dup1\n      0xbad8308c\n      eq\n      tag_69\n      jumpi\n      dup1\n      0xc08a1146\n      eq\n      tag_70\n      jumpi\n      dup1\n      0xc8638082\n      eq\n      tag_71\n      jumpi\n      dup1\n      0xc899301a\n      eq\n      tag_72\n      jumpi\n      dup1\n      0xcd23367c\n      eq\n      tag_73\n      jumpi\n      jump(tag_1)\n    tag_93:\n      dup1\n      0xa4868dca\n      gt\n      tag_97\n      jumpi\n      dup1\n      0xb0510054\n      gt\n      tag_98\n      jumpi\n      dup1\n      0xb0510054\n      eq\n      tag_63\n      jumpi\n      dup1\n      0xb4a45730\n      eq\n      tag_64\n      jumpi\n      dup1\n      0xb5e79366\n      eq\n      tag_65\n      jumpi\n      dup1\n      0xb68774e9\n      eq\n      tag_66\n      jumpi\n      dup1\n      0xb7f5e224\n      eq\n      tag_67\n      jumpi\n      dup1\n      0xb87041c2\n      eq\n      tag_68\n      jumpi\n      jump(tag_1)\n    tag_98:\n      dup1\n      0xa4868dca\n      eq\n      tag_58\n      jumpi\n      dup1\n      0xa8c97853\n      eq\n      tag_59\n      jumpi\n      dup1\n      0xab883ca0\n      eq\n      tag_60\n      jumpi\n      dup1\n      0xabd351b1\n      eq\n      tag_61\n      jumpi\n      dup1\n      0xac753236\n      eq\n      tag_62\n      jumpi\n      jump(tag_1)\n    tag_97:\n      dup1\n      0x952633c5\n      gt\n      tag_99\n      jumpi\n      dup1\n      0x952633c5\n      eq\n      tag_52\n      jumpi\n      dup1\n      0x9527e9d9\n      eq\n      tag_53\n      jumpi\n      dup1\n      0x99ce53f3\n      eq\n      tag_54\n      jumpi\n      dup1\n      0xa2797c80\n      eq\n      tag_55\n      jumpi\n      dup1\n      0xa2e976c6\n      eq\n      tag_56\n      jumpi\n      dup1\n      0xa3402a38\n      eq\n      tag_57\n      jumpi\n      jump(tag_1)\n    tag_99:\n      dup1\n      0x8aa3ca4c\n      eq\n      tag_47\n      jumpi\n      dup1\n      0x8b8b98d7\n      eq\n      tag_48\n      jumpi\n      dup1\n      0x8eda46bd\n      eq\n      tag_49\n      jumpi\n      dup1\n      0x8f7722b2\n      eq\n      tag_50\n      jumpi\n      dup1\n      0x94f9fd8a\n      eq\n      tag_51\n      jumpi\n      jump(tag_1)\n    tag_92:\n      dup1\n      0x4e3aed37\n      gt\n      tag_100\n      jumpi\n      dup1\n      0x6cd3cfbc\n      gt\n      tag_101\n      jumpi\n      dup1\n      0x7aa0767e\n      gt\n      tag_102\n      jumpi\n      dup1\n      0x7aa0767e\n      eq\n      tag_41\n      jumpi\n      dup1\n      0x7fea6f36\n      eq\n      tag_42\n      jumpi\n      dup1\n      0x8596aad5\n      eq\n      tag_43\n      jumpi\n      dup1\n      0x895f7dc8\n      eq\n      tag_44\n      jumpi\n      dup1\n      0x89c5d45f\n      eq\n      tag_45\n      jumpi\n      dup1\n      0x8a344000\n      eq\n      tag_46\n      jumpi\n      jump(tag_1)\n    tag_102:\n      dup1\n      0x6cd3cfbc\n      eq\n      tag_35\n      jumpi\n      dup1\n      0x712f536a\n      eq\n      tag_36\n      jumpi\n      dup1\n      0x73dea5e3\n      eq\n      tag_37\n      jumpi\n      dup1\n      0x74459b14\n      eq\n      tag_38\n      jumpi\n      dup1\n      0x747fa556\n      eq\n      tag_39\n      jumpi\n      dup1\n      0x76ae8fca\n      eq\n      tag_40\n      jumpi\n      jump(tag_1)\n    tag_101:\n      dup1\n      0x5d9c76c0\n      gt\n      tag_103\n      jumpi\n      dup1\n      0x5d9c76c0\n      eq\n      tag_29\n      jumpi\n      dup1\n      0x60c3de80\n      eq\n      tag_30\n      jumpi\n      dup1\n      0x61c111d2\n      eq\n      tag_31\n      jumpi\n      dup1\n      0x65a83bab\n      eq\n      tag_32\n      jumpi\n      dup1\n      0x65e7ef4c\n      eq\n      tag_33\n      jumpi\n      dup1\n      0x6b3f7cc7\n      eq\n      tag_34\n      jumpi\n      jump(tag_1)\n    tag_103:\n      dup1\n      0x4e3aed37\n      eq\n      tag_24\n      jumpi\n      dup1\n      0x4ef999ff\n      eq\n      tag_25\n      jumpi\n      dup1\n      0x4f77647b\n      eq\n      tag_26\n      jumpi\n      dup1\n      0x51267450\n      eq\n      tag_27\n      jumpi\n      dup1\n      0x52ba9dbe\n      eq\n      tag_28\n      jumpi\n      jump(tag_1)\n    tag_100:\n      dup1\n      0x2eed17e8\n      gt\n      tag_104\n      jumpi\n      dup1\n      0x47ba93d8\n      gt\n      tag_105\n      jumpi\n      dup1\n      0x47ba93d8\n      eq\n      tag_18\n      jumpi\n      dup1\n      0x47cf1523\n      eq\n      tag_19\n      jumpi\n      dup1\n      0x480702ae\n      eq\n      tag_20\n      jumpi\n      dup1\n      0x485c8ff6\n      eq\n      tag_21\n      jumpi\n      dup1\n      0x4d86f393\n      eq\n      tag_22\n      jumpi\n      dup1\n      0x4e01e3c1\n      eq\n      tag_23\n      jumpi\n      jump(tag_1)\n    tag_105:\n      dup1\n      0x2eed17e8\n      eq\n      tag_13\n      jumpi\n      dup1\n      0x335763de\n      eq\n      tag_14\n      jumpi\n      dup1\n      0x366eb54d\n      eq\n      tag_15\n      jumpi\n      dup1\n      0x37930782\n      eq\n      tag_16\n      jumpi\n      dup1\n      0x471df685\n      eq\n      tag_17\n      jumpi\n      jump(tag_1)\n    tag_104:\n      dup1\n      0x1abbb001\n      gt\n      tag_106\n      jumpi\n      dup1\n      0x1abbb001\n      eq\n      tag_7\n      jumpi\n      dup1\n      0x22a73446\n      eq\n      tag_8\n      jumpi\n      dup1\n      0x26bbd053\n      eq\n      tag_9\n      jumpi\n      dup1\n      0x26e7b312\n      eq\n      tag_10\n      jumpi\n      dup1\n      0x2926c971\n      eq\n      tag_11\n      jumpi\n      dup1\n      0x2c8e3b4c\n      eq\n      tag_12\n      jumpi\n      jump(tag_1)\n    tag_106:\n      dup1\n      0x084dfa0d\n      eq\n      tag_2\n      jumpi\n      dup1\n      0x11d7b006\n      eq\n      tag_3\n      jumpi\n      dup1\n      0x12dcade8\n      eq\n      tag_4\n      jumpi\n      dup1\n      0x14dcfbbc\n      eq\n      tag_5\n      jumpi\n      dup1\n      0x198d6a6b\n      eq\n      tag_6\n      jumpi\n    tag_1:\n      0x00\n      dup1\n      revert\n        /* \"contracts/protocol/libraries/helpers/Errors.sol\":2195:2251  string public constant RESERVE_LIQUIDITY_NOT_ZERO = '18' */\n    tag_2:\n      tag_107\n      tag_108\n      jump\t// in\n    tag_107:\n      mload(0x40)\n      tag_109\n      swap2\n      swap1\n      tag_110\n      jump\t// in\n    tag_109:\n      mload(0x40)\n      dup1\n      swap2\n      sub\n      swap1\n      return\n        /* \"contracts/protocol/libraries/helpers/Errors.sol\":1180:1221  string public constant NOT_CONTRACT = '9' */\n    tag_3:\n      tag_111\n      tag_112\n      jump\t// in\n    tag_111:\n      mload(0x40)\n      tag_113\n      swap2\n      swap1\n      tag_110\n      jump\t// in\n    tag_113:\n      mload(0x40)\n      dup1\n      swap2\n      sub\n      swap1\n      return\n        /* \"contracts/protocol/libraries/helpers/Errors.sol\":1731:1782  string public constant RESERVE_ALREADY_ADDED = '14' */\n    tag_4:\n      tag_114\n      tag_115\n      jump\t// in\n    tag_114:\n      mload(0x40)\n      tag_116\n      swap2\n      swap1\n      tag_110\n      jump\t// in\n    tag_116:\n      mload(0x40)\n      dup1\n      swap2\n      sub\n      swap1\n      return\n        /* \"contracts/protocol/libraries/helpers/Errors.sol\":9296:9358  string public constant ADDRESSES_PROVIDER_ALREADY_ADDED = '86' */\n    tag_5:\n      tag_117\n      tag_118\n      jump\t// in\n    tag_117:\n      mload(0x40)\n      tag_119\n      swap2\n      swap1\n      tag_110\n      jump\t// in\n    tag_119:\n      mload(0x40)\n      dup1\n      swap2\n      sub\n      swap1\n      return\n        /* \"contracts/protocol/libraries/helpers/Errors.sol\":9588:9642  string public constant STABLE_BORROWING_ENABLED = '88' */\n    tag_6:\n      tag_120\n      tag_121\n      jump\t// in\n    tag_120:\n      mload(0x40)\n      tag_122\n      swap2\n      swap1\n      tag_110\n      jump\t// in\n    tag_122:\n      mload(0x40)\n      dup1\n      swap2\n      sub\n      swap1\n      return\n        /* \"contracts/protocol/libraries/helpers/Errors.sol\":9415:9472  string public constant POOL_ADDRESSES_DO_NOT_MATCH = '87' */\n    tag_7:\n      tag_123\n      tag_124\n      jump\t// in\n    tag_123:\n      mload(0x40)\n      tag_125\n      swap2\n      swap1\n      tag_110\n      jump\t// in\n    tag_125:\n      mload(0x40)\n      dup1\n      swap2\n      sub\n      swap1\n      return\n        /* \"contracts/protocol/libraries/helpers/Errors.sol\":5473:5542  string public constant SPECIFIED_CURRENCY_NOT_BORROWED_BY_USER = '47' */\n    tag_8:\n      tag_126\n      tag_127\n      jump\t// in\n    tag_126:\n      mload(0x40)\n      tag_128\n      swap2\n      swap1\n      tag_110\n      jump\t// in\n    tag_128:\n      mload(0x40)\n      dup1\n      swap2\n      sub\n      swap1\n      return\n        /* \"contracts/protocol/libraries/helpers/Errors.sol\":7655:7703  string public constant INVALID_SUPPLY_CAP = '69' */\n    tag_9:\n      tag_129\n      tag_130\n      jump\t// in\n    tag_129:\n      mload(0x40)\n      tag_131\n      swap2\n      swap1\n      tag_110\n      jump\t// in\n    tag_131:\n      mload(0x40)\n      dup1\n      swap2\n      sub\n      swap1\n      return\n        /* \"contracts/protocol/libraries/helpers/Errors.sol\":458:521  string public constant CALLER_NOT_POOL_OR_EMERGENCY_ADMIN = '3' */\n    tag_10:\n      tag_132\n      tag_133\n      jump\t// in\n    tag_132:\n      mload(0x40)\n      tag_134\n      swap2\n      swap1\n      tag_110\n      jump\t// in\n    tag_134:\n      mload(0x40)\n      dup1\n      swap2\n      sub\n      swap1\n      return\n        /* \"contracts/protocol/libraries/helpers/Errors.sol\":5115:5187  string public constant INTEREST_RATE_REBALANCE_CONDITIONS_NOT_MET = '44' */\n    tag_11:\n      tag_135\n      tag_136\n      jump\t// in\n    tag_135:\n      mload(0x40)\n      tag_137\n      swap2\n      swap1\n      tag_110\n      jump\t// in\n    tag_137:\n      mload(0x40)\n      dup1\n      swap2\n      sub\n      swap1\n      return\n        /* \"contracts/protocol/libraries/helpers/Errors.sol\":714:781  string public constant CALLER_NOT_ASSET_LISTING_OR_POOL_ADMIN = '5' */\n    tag_12:\n      tag_138\n      tag_139\n      jump\t// in\n    tag_138:\n      mload(0x40)\n      tag_140\n      swap2\n      swap1\n      tag_110\n      jump\t// in\n    tag_140:\n      mload(0x40)\n      dup1\n      swap2\n      sub\n      swap1\n      return\n        /* \"contracts/protocol/libraries/helpers/Errors.sol\":5698:5747  string public constant BORROW_CAP_EXCEEDED = '50' */\n    tag_13:\n      tag_141\n      tag_142\n      jump\t// in\n    tag_141:\n      mload(0x40)\n      tag_143\n      swap2\n      swap1\n      tag_110\n      jump\t// in\n    tag_143:\n      mload(0x40)\n      dup1\n      swap2\n      sub\n      swap1\n      return\n        /* \"contracts/protocol/libraries/helpers/Errors.sol\":2395:2447  string public constant INVALID_RESERVE_PARAMS = '20' */\n    tag_14:\n      tag_144\n      tag_145\n      jump\t// in\n    tag_144:\n      mload(0x40)\n      tag_146\n      swap2\n      swap1\n      tag_110\n      jump\t// in\n    tag_146:\n      mload(0x40)\n      dup1\n      swap2\n      sub\n      swap1\n      return\n        /* \"contracts/protocol/libraries/helpers/Errors.sol\":3887:3963  string public constant HEALTH_FACTOR_LOWER_THAN_LIQUIDATION_THRESHOLD = '35' */\n    tag_15:\n      tag_147\n      tag_148\n      jump\t// in\n    tag_147:\n      mload(0x40)\n      tag_149\n      swap2\n      swap1\n      tag_110\n      jump\t// in\n    tag_149:\n      mload(0x40)\n      dup1\n      swap2\n      sub\n      swap1\n      return\n        /* \"contracts/protocol/libraries/helpers/Errors.sol\":1482:1538  string public constant INVALID_ADDRESSES_PROVIDER = '12' */\n    tag_16:\n      tag_150\n      tag_151\n      jump\t// in\n    tag_150:\n      mload(0x40)\n      tag_152\n      swap2\n      swap1\n      tag_110\n      jump\t// in\n    tag_152:\n      mload(0x40)\n      dup1\n      swap2\n      sub\n      swap1\n      return\n        /* \"contracts/protocol/libraries/helpers/Errors.sol\":2708:2757  string public constant CALLER_MUST_BE_POOL = '23' */\n    tag_17:\n      tag_153\n      tag_154\n      jump\t// in\n    tag_153:\n      mload(0x40)\n      tag_155\n      swap2\n      swap1\n      tag_110\n      jump\t// in\n    tag_155:\n      mload(0x40)\n      dup1\n      swap2\n      sub\n      swap1\n      return\n        /* \"contracts/protocol/libraries/helpers/Errors.sol\":7970:8025  string public constant INVALID_UNBACKED_MINT_CAP = '72' */\n    tag_18:\n      tag_156\n      tag_157\n      jump\t// in\n    tag_156:\n      mload(0x40)\n      tag_158\n      swap2\n      swap1\n      tag_110\n      jump\t// in\n    tag_158:\n      mload(0x40)\n      dup1\n      swap2\n      sub\n      swap1\n      return\n        /* \"contracts/protocol/libraries/helpers/Errors.sol\":2497:2556  string public constant INVALID_EMODE_CATEGORY_PARAMS = '21' */\n    tag_19:\n      tag_159\n      tag_160\n      jump\t// in\n    tag_159:\n      mload(0x40)\n      tag_161\n      swap2\n      swap1\n      tag_110\n      jump\t// in\n    tag_161:\n      mload(0x40)\n      dup1\n      swap2\n      sub\n      swap1\n      return\n        /* \"contracts/protocol/libraries/helpers/Errors.sol\":6903:6967  string public constant USER_IN_ISOLATION_MODE_OR_LTV_ZERO = '62' */\n    tag_20:\n      tag_162\n      tag_163\n      jump\t// in\n    tag_162:\n      mload(0x40)\n      tag_164\n      swap2\n      swap1\n      tag_110\n      jump\t// in\n    tag_164:\n      mload(0x40)\n      dup1\n      swap2\n      sub\n      swap1\n      return\n        /* \"contracts/protocol/libraries/helpers/Errors.sol\":340:395  string public constant CALLER_NOT_EMERGENCY_ADMIN = '2' */\n    tag_21:\n      tag_165\n      tag_166\n      jump\t// in\n    tag_165:\n      mload(0x40)\n      tag_167\n      swap2\n      swap1\n      tag_110\n      jump\t// in\n    tag_167:\n      mload(0x40)\n      dup1\n      swap2\n      sub\n      swap1\n      return\n        /* \"contracts/protocol/libraries/helpers/Errors.sol\":3456:3514  string public constant STABLE_BORROWING_NOT_ENABLED = '31' */\n    tag_22:\n      tag_168\n      tag_169\n      jump\t// in\n    tag_168:\n      mload(0x40)\n      tag_170\n      swap2\n      swap1\n      tag_110\n      jump\t// in\n    tag_170:\n      mload(0x40)\n      dup1\n      swap2\n      sub\n      swap1\n      return\n        /* \"contracts/protocol/libraries/helpers/Errors.sol\":3793:3849  string public constant COLLATERAL_BALANCE_IS_ZERO = '34' */\n    tag_23:\n      tag_171\n      tag_172\n      jump\t// in\n    tag_171:\n      mload(0x40)\n      tag_173\n      swap2\n      swap1\n      tag_110\n      jump\t// in\n    tag_173:\n      mload(0x40)\n      dup1\n      swap2\n      sub\n      swap1\n      return\n        /* \"contracts/protocol/libraries/helpers/Errors.sol\":8969:9026  string public constant INVALID_OPTIMAL_USAGE_RATIO = '83' */\n    tag_24:\n      tag_174\n      tag_175\n      jump\t// in\n    tag_174:\n      mload(0x40)\n      tag_176\n      swap2\n      swap1\n      tag_110\n      jump\t// in\n    tag_176:\n      mload(0x40)\n      dup1\n      swap2\n      sub\n      swap1\n      return\n        /* \"contracts/protocol/libraries/helpers/Errors.sol\":3370:3421  string public constant BORROWING_NOT_ENABLED = '30' */\n    tag_25:\n      tag_177\n      tag_178\n      jump\t// in\n    tag_177:\n      mload(0x40)\n      tag_179\n      swap2\n      swap1\n      tag_110\n      jump\t// in\n    tag_179:\n      mload(0x40)\n      dup1\n      swap2\n      sub\n      swap1\n      return\n        /* \"contracts/protocol/libraries/helpers/Errors.sol\":856:902  string public constant CALLER_NOT_BRIDGE = '6' */\n    tag_26:\n      tag_180\n      tag_181\n      jump\t// in\n    tag_180:\n      mload(0x40)\n      tag_182\n      swap2\n      swap1\n      tag_110\n      jump\t// in\n    tag_182:\n      mload(0x40)\n      dup1\n      swap2\n      sub\n      swap1\n      return\n        /* \"contracts/protocol/libraries/helpers/Errors.sol\":2892:2941  string public constant INVALID_BURN_AMOUNT = '25' */\n    tag_27:\n      tag_183\n      tag_184\n      jump\t// in\n    tag_183:\n      mload(0x40)\n      tag_185\n      swap2\n      swap1\n      tag_110\n      jump\t// in\n    tag_185:\n      mload(0x40)\n      dup1\n      swap2\n      sub\n      swap1\n      return\n        /* \"contracts/protocol/libraries/helpers/Errors.sol\":3058:3104  string public constant RESERVE_INACTIVE = '27' */\n    tag_28:\n      tag_186\n      tag_187\n      jump\t// in\n    tag_186:\n      mload(0x40)\n      tag_188\n      swap2\n      swap1\n      tag_110\n      jump\t// in\n    tag_188:\n      mload(0x40)\n      dup1\n      swap2\n      sub\n      swap1\n      return\n        /* \"contracts/protocol/libraries/helpers/Errors.sol\":2079:2142  string public constant INVALID_EMODE_CATEGORY_ASSIGNMENT = '17' */\n    tag_29:\n      tag_189\n      tag_190\n      jump\t// in\n    tag_189:\n      mload(0x40)\n      tag_191\n      swap2\n      swap1\n      tag_110\n      jump\t// in\n    tag_191:\n      mload(0x40)\n      dup1\n      swap2\n      sub\n      swap1\n      return\n        /* \"contracts/protocol/libraries/helpers/Errors.sol\":1069:1127  string public constant INVALID_ADDRESSES_PROVIDER_ID = '8' */\n    tag_30:\n      tag_192\n      tag_193\n      jump\t// in\n    tag_192:\n      mload(0x40)\n      tag_194\n      swap2\n      swap1\n      tag_110\n      jump\t// in\n    tag_194:\n      mload(0x40)\n      dup1\n      swap2\n      sub\n      swap1\n      return\n        /* \"contracts/protocol/libraries/helpers/Errors.sol\":1257:1315  string public constant CALLER_NOT_POOL_CONFIGURATOR = '10' */\n    tag_31:\n      tag_195\n      tag_196\n      jump\t// in\n    tag_195:\n      mload(0x40)\n      tag_197\n      swap2\n      swap1\n      tag_110\n      jump\t// in\n    tag_197:\n      mload(0x40)\n      dup1\n      swap2\n      sub\n      swap1\n      return\n        /* \"contracts/protocol/libraries/helpers/Errors.sol\":5958:6009  string public constant DEBT_CEILING_EXCEEDED = '53' */\n    tag_32:\n      tag_198\n      tag_199\n      jump\t// in\n    tag_198:\n      mload(0x40)\n      tag_200\n      swap2\n      swap1\n      tag_110\n      jump\t// in\n    tag_200:\n      mload(0x40)\n      dup1\n      swap2\n      sub\n      swap1\n      return\n        /* \"contracts/protocol/libraries/helpers/Errors.sol\":6199:6249  string public constant STABLE_DEBT_NOT_ZERO = '55' */\n    tag_33:\n      tag_201\n      tag_202\n      jump\t// in\n    tag_201:\n      mload(0x40)\n      tag_203\n      swap2\n      swap1\n      tag_110\n      jump\t// in\n    tag_203:\n      mload(0x40)\n      dup1\n      swap2\n      sub\n      swap1\n      return\n        /* \"contracts/protocol/libraries/helpers/Errors.sol\":5862:5918  string public constant UNBACKED_MINT_CAP_EXCEEDED = '52' */\n    tag_34:\n      tag_204\n      tag_205\n      jump\t// in\n    tag_204:\n      mload(0x40)\n      tag_206\n      swap2\n      swap1\n      tag_110\n      jump\t// in\n    tag_206:\n      mload(0x40)\n      dup1\n      swap2\n      sub\n      swap1\n      return\n        /* \"contracts/protocol/libraries/helpers/Errors.sol\":3148:3192  string public constant RESERVE_FROZEN = '28' */\n    tag_35:\n      tag_207\n      tag_208\n      jump\t// in\n    tag_207:\n      mload(0x40)\n      tag_209\n      swap2\n      swap1\n      tag_110\n      jump\t// in\n    tag_209:\n      mload(0x40)\n      dup1\n      swap2\n      sub\n      swap1\n      return\n        /* \"contracts/protocol/libraries/helpers/Errors.sol\":4594:4661  string public constant NO_EXPLICIT_AMOUNT_TO_REPAY_ON_BEHALF = '40' */\n    tag_36:\n      tag_210\n      tag_211\n      jump\t// in\n    tag_210:\n      mload(0x40)\n      tag_212\n      swap2\n      swap1\n      tag_110\n      jump\t// in\n    tag_212:\n      mload(0x40)\n      dup1\n      swap2\n      sub\n      swap1\n      return\n        /* \"contracts/protocol/libraries/helpers/Errors.sol\":5595:5654  string public constant INCONSISTENT_FLASHLOAN_PARAMS = '49' */\n    tag_37:\n      tag_213\n      tag_214\n      jump\t// in\n    tag_213:\n      mload(0x40)\n      tag_215\n      swap2\n      swap1\n      tag_110\n      jump\t// in\n    tag_215:\n      mload(0x40)\n      dup1\n      swap2\n      sub\n      swap1\n      return\n        /* \"contracts/protocol/libraries/helpers/Errors.sol\":4738:4794  string public constant NO_OUTSTANDING_STABLE_DEBT = '41' */\n    tag_38:\n      tag_216\n      tag_217\n      jump\t// in\n    tag_216:\n      mload(0x40)\n      tag_218\n      swap2\n      swap1\n      tag_110\n      jump\t// in\n    tag_218:\n      mload(0x40)\n      dup1\n      swap2\n      sub\n      swap1\n      return\n        /* \"contracts/protocol/libraries/helpers/Errors.sol\":2304:2359  string public constant FLASHLOAN_PREMIUM_INVALID = '19' */\n    tag_39:\n      tag_219\n      tag_220\n      jump\t// in\n    tag_219:\n      mload(0x40)\n      tag_221\n      swap2\n      swap1\n      tag_110\n      jump\t// in\n    tag_221:\n      mload(0x40)\n      dup1\n      swap2\n      sub\n      swap1\n      return\n        /* \"contracts/protocol/libraries/helpers/Errors.sol\":1839:1893  string public constant NO_MORE_RESERVES_ALLOWED = '15' */\n    tag_40:\n      tag_222\n      tag_223\n      jump\t// in\n    tag_222:\n      mload(0x40)\n      tag_224\n      swap2\n      swap1\n      tag_110\n      jump\t// in\n    tag_224:\n      mload(0x40)\n      dup1\n      swap2\n      sub\n      swap1\n      return\n        /* \"contracts/protocol/libraries/helpers/Errors.sol\":2613:2670  string public constant BRIDGE_PROTOCOL_FEE_INVALID = '22' */\n    tag_41:\n      tag_225\n      tag_226\n      jump\t// in\n    tag_225:\n      mload(0x40)\n      tag_227\n      swap2\n      swap1\n      tag_110\n      jump\t// in\n    tag_227:\n      mload(0x40)\n      dup1\n      swap2\n      sub\n      swap1\n      return\n        /* \"contracts/protocol/libraries/helpers/Errors.sol\":1602:1665  string public constant INVALID_FLASHLOAN_EXECUTOR_RETURN = '13' */\n    tag_42:\n      tag_228\n      tag_229\n      jump\t// in\n    tag_228:\n      mload(0x40)\n      tag_230\n      swap2\n      swap1\n      tag_110\n      jump\t// in\n    tag_230:\n      mload(0x40)\n      dup1\n      swap2\n      sub\n      swap1\n      return\n        /* \"contracts/protocol/libraries/helpers/Errors.sol\":6684:6747  string public constant ASSET_NOT_BORROWABLE_IN_ISOLATION = '60' */\n    tag_43:\n      tag_231\n      tag_232\n      jump\t// in\n    tag_231:\n      mload(0x40)\n      tag_233\n      swap2\n      swap1\n      tag_110\n      jump\t// in\n    tag_233:\n      mload(0x40)\n      dup1\n      swap2\n      sub\n      swap1\n      return\n        /* \"contracts/protocol/libraries/helpers/Errors.sol\":5359:5420  string public constant COLLATERAL_CANNOT_BE_LIQUIDATED = '46' */\n    tag_44:\n      tag_234\n      tag_235\n      jump\t// in\n    tag_234:\n      mload(0x40)\n      tag_236\n      swap2\n      swap1\n      tag_110\n      jump\t// in\n    tag_236:\n      mload(0x40)\n      dup1\n      swap2\n      sub\n      swap1\n      return\n        /* \"contracts/protocol/libraries/helpers/Errors.sol\":3682:3747  string public constant INVALID_INTEREST_RATE_MODE_SELECTED = '33' */\n    tag_45:\n      tag_237\n      tag_238\n      jump\t// in\n    tag_237:\n      mload(0x40)\n      tag_239\n      swap2\n      swap1\n      tag_110\n      jump\t// in\n    tag_239:\n      mload(0x40)\n      dup1\n      swap2\n      sub\n      swap1\n      return\n        /* \"contracts/protocol/libraries/helpers/Errors.sol\":4155:4222  string public constant COLLATERAL_SAME_AS_BORROWING_CURRENCY = '37' */\n    tag_46:\n      tag_240\n      tag_241\n      jump\t// in\n    tag_240:\n      mload(0x40)\n      tag_242\n      swap2\n      swap1\n      tag_110\n      jump\t// in\n    tag_242:\n      mload(0x40)\n      dup1\n      swap2\n      sub\n      swap1\n      return\n        /* \"contracts/protocol/libraries/helpers/Errors.sol\":9913:9961  string public constant FLASHLOAN_DISABLED = '91' */\n    tag_47:\n      tag_243\n      tag_244\n      jump\t// in\n    tag_243:\n      mload(0x40)\n      tag_245\n      swap2\n      swap1\n      tag_110\n      jump\t// in\n    tag_245:\n      mload(0x40)\n      dup1\n      swap2\n      sub\n      swap1\n      return\n        /* \"contracts/protocol/libraries/helpers/Errors.sol\":8720:8773  string public constant OPERATION_NOT_SUPPORTED = '80' */\n    tag_48:\n      tag_246\n      tag_247\n      jump\t// in\n    tag_246:\n      mload(0x40)\n      tag_248\n      swap2\n      swap1\n      tag_110\n      jump\t// in\n    tag_248:\n      mload(0x40)\n      dup1\n      swap2\n      sub\n      swap1\n      return\n        /* \"contracts/protocol/libraries/helpers/Errors.sol\":7748:7810  string public constant INVALID_LIQUIDATION_PROTOCOL_FEE = '70' */\n    tag_49:\n      tag_249\n      tag_250\n      jump\t// in\n    tag_249:\n      mload(0x40)\n      tag_251\n      swap2\n      swap1\n      tag_110\n      jump\t// in\n    tag_251:\n      mload(0x40)\n      dup1\n      swap2\n      sub\n      swap1\n      return\n        /* \"contracts/protocol/libraries/helpers/Errors.sol\":6475:6532  string public constant INCONSISTENT_EMODE_CATEGORY = '58' */\n    tag_50:\n      tag_252\n      tag_253\n      jump\t// in\n    tag_252:\n      mload(0x40)\n      tag_254\n      swap2\n      swap1\n      tag_110\n      jump\t// in\n    tag_254:\n      mload(0x40)\n      dup1\n      swap2\n      sub\n      swap1\n      return\n        /* \"contracts/protocol/libraries/helpers/Errors.sol\":6044:6110  string public constant UNDERLYING_CLAIMABLE_RIGHTS_NOT_ZERO = '54' */\n    tag_51:\n      tag_255\n      tag_256\n      jump\t// in\n    tag_255:\n      mload(0x40)\n      tag_257\n      swap2\n      swap1\n      tag_110\n      jump\t// in\n    tag_257:\n      mload(0x40)\n      dup1\n      swap2\n      sub\n      swap1\n      return\n        /* \"contracts/protocol/libraries/helpers/Errors.sol\":5245:5308  string public constant HEALTH_FACTOR_NOT_BELOW_THRESHOLD = '45' */\n    tag_52:\n      tag_258\n      tag_259\n      jump\t// in\n    tag_258:\n      mload(0x40)\n      tag_260\n      swap2\n      swap1\n      tag_110\n      jump\t// in\n    tag_260:\n      mload(0x40)\n      dup1\n      swap2\n      sub\n      swap1\n      return\n        /* \"contracts/protocol/libraries/helpers/Errors.sol\":7222:7269  string public constant INVALID_LIQ_BONUS = '65' */\n    tag_53:\n      tag_261\n      tag_262\n      jump\t// in\n    tag_261:\n      mload(0x40)\n      tag_263\n      swap2\n      swap1\n      tag_110\n      jump\t// in\n    tag_263:\n      mload(0x40)\n      dup1\n      swap2\n      sub\n      swap1\n      return\n        /* \"contracts/protocol/libraries/helpers/Errors.sol\":7018:7059  string public constant INVALID_LTV = '63' */\n    tag_54:\n      tag_264\n      tag_265\n      jump\t// in\n    tag_264:\n      mload(0x40)\n      tag_266\n      swap2\n      swap1\n      tag_110\n      jump\t// in\n    tag_266:\n      mload(0x40)\n      dup1\n      swap2\n      sub\n      swap1\n      return\n        /* \"contracts/protocol/libraries/helpers/Errors.sol\":5002:5055  string public constant UNDERLYING_BALANCE_ZERO = '43' */\n    tag_55:\n      tag_267\n      tag_268\n      jump\t// in\n    tag_267:\n      mload(0x40)\n      tag_269\n      swap2\n      swap1\n      tag_110\n      jump\t// in\n    tag_269:\n      mload(0x40)\n      dup1\n      swap2\n      sub\n      swap1\n      return\n        /* \"contracts/protocol/libraries/helpers/Errors.sol\":1381:1428  string public constant CALLER_NOT_ATOKEN = '11' */\n    tag_56:\n      tag_270\n      tag_271\n      jump\t// in\n    tag_270:\n      mload(0x40)\n      tag_272\n      swap2\n      swap1\n      tag_110\n      jump\t// in\n    tag_272:\n      mload(0x40)\n      dup1\n      swap2\n      sub\n      swap1\n      return\n        /* \"contracts/protocol/libraries/helpers/Errors.sol\":8645:8692  string public constant INVALID_SIGNATURE = '79' */\n    tag_57:\n      tag_273\n      tag_274\n      jump\t// in\n    tag_273:\n      mload(0x40)\n      tag_275\n      swap2\n      swap1\n      tag_110\n      jump\t// in\n    tag_275:\n      mload(0x40)\n      dup1\n      swap2\n      sub\n      swap1\n      return\n        /* \"contracts/protocol/libraries/helpers/Errors.sol\":7451:7503  string public constant INVALID_RESERVE_FACTOR = '67' */\n    tag_58:\n      tag_276\n      tag_277\n      jump\t// in\n    tag_276:\n      mload(0x40)\n      tag_278\n      swap2\n      swap1\n      tag_110\n      jump\t// in\n    tag_278:\n      mload(0x40)\n      dup1\n      swap2\n      sub\n      swap1\n      return\n        /* \"contracts/protocol/libraries/helpers/Errors.sol\":7869:7921  string public constant INVALID_EMODE_CATEGORY = '71' */\n    tag_59:\n      tag_279\n      tag_280\n      jump\t// in\n    tag_279:\n      mload(0x40)\n      tag_281\n      swap2\n      swap1\n      tag_110\n      jump\t// in\n    tag_281:\n      mload(0x40)\n      dup1\n      swap2\n      sub\n      swap1\n      return\n        /* \"contracts/protocol/libraries/helpers/Errors.sol\":9189:9247  string public constant UNDERLYING_CANNOT_BE_RESCUED = '85' */\n    tag_60:\n      tag_282\n      tag_283\n      jump\t// in\n    tag_282:\n      mload(0x40)\n      tag_284\n      swap2\n      swap1\n      tag_110\n      jump\t// in\n    tag_284:\n      mload(0x40)\n      dup1\n      swap2\n      sub\n      swap1\n      return\n        /* \"contracts/protocol/libraries/helpers/Errors.sol\":2810:2859  string public constant INVALID_MINT_AMOUNT = '24' */\n    tag_61:\n      tag_285\n      tag_286\n      jump\t// in\n    tag_285:\n      mload(0x40)\n      tag_287\n      swap2\n      swap1\n      tag_110\n      jump\t// in\n    tag_287:\n      mload(0x40)\n      dup1\n      swap2\n      sub\n      swap1\n      return\n        /* \"contracts/protocol/libraries/helpers/Errors.sol\":233:283  string public constant CALLER_NOT_POOL_ADMIN = '1' */\n    tag_62:\n      tag_288\n      tag_289\n      jump\t// in\n    tag_288:\n      mload(0x40)\n      tag_290\n      swap2\n      swap1\n      tag_110\n      jump\t// in\n    tag_290:\n      mload(0x40)\n      dup1\n      swap2\n      sub\n      swap1\n      return\n        /* \"contracts/protocol/libraries/helpers/Errors.sol\":5780:5829  string public constant SUPPLY_CAP_EXCEEDED = '51' */\n    tag_63:\n      tag_291\n      tag_292\n      jump\t// in\n    tag_291:\n      mload(0x40)\n      tag_293\n      swap2\n      swap1\n      tag_110\n      jump\t// in\n    tag_293:\n      mload(0x40)\n      dup1\n      swap2\n      sub\n      swap1\n      return\n        /* \"contracts/protocol/libraries/helpers/Errors.sol\":4868:4926  string public constant NO_OUTSTANDING_VARIABLE_DEBT = '42' */\n    tag_64:\n      tag_294\n      tag_295\n      jump\t// in\n    tag_294:\n      mload(0x40)\n      tag_296\n      swap2\n      swap1\n      tag_110\n      jump\t// in\n    tag_296:\n      mload(0x40)\n      dup1\n      swap2\n      sub\n      swap1\n      return\n        /* \"contracts/protocol/libraries/helpers/Errors.sol\":591:649  string public constant CALLER_NOT_RISK_OR_POOL_ADMIN = '4' */\n    tag_65:\n      tag_297\n      tag_298\n      jump\t// in\n    tag_297:\n      mload(0x40)\n      tag_299\n      swap2\n      swap1\n      tag_110\n      jump\t// in\n    tag_299:\n      mload(0x40)\n      dup1\n      swap2\n      sub\n      swap1\n      return\n        /* \"contracts/protocol/libraries/helpers/Errors.sol\":3259:3303  string public constant RESERVE_PAUSED = '29' */\n    tag_66:\n      tag_300\n      tag_301\n      jump\t// in\n    tag_300:\n      mload(0x40)\n      tag_302\n      swap2\n      swap1\n      tag_110\n      jump\t// in\n    tag_302:\n      mload(0x40)\n      dup1\n      swap2\n      sub\n      swap1\n      return\n        /* \"contracts/protocol/libraries/helpers/Errors.sol\":3556:3619  string public constant NOT_ENOUGH_AVAILABLE_USER_BALANCE = '32' */\n    tag_67:\n      tag_303\n      tag_304\n      jump\t// in\n    tag_303:\n      mload(0x40)\n      tag_305\n      swap2\n      swap1\n      tag_110\n      jump\t// in\n    tag_305:\n      mload(0x40)\n      dup1\n      swap2\n      sub\n      swap1\n      return\n        /* \"contracts/protocol/libraries/helpers/Errors.sol\":6392:6443  string public constant LTV_VALIDATION_FAILED = '57' */\n    tag_68:\n      tag_306\n      tag_307\n      jump\t// in\n    tag_306:\n      mload(0x40)\n      tag_308\n      swap2\n      swap1\n      tag_110\n      jump\t// in\n    tag_308:\n      mload(0x40)\n      dup1\n      swap2\n      sub\n      swap1\n      return\n        /* \"contracts/protocol/libraries/helpers/Errors.sol\":8364:8420  string public constant INCONSISTENT_PARAMS_LENGTH = '76' */\n    tag_69:\n      tag_309\n      tag_310\n      jump\t// in\n    tag_309:\n      mload(0x40)\n      tag_311\n      swap2\n      swap1\n      tag_110\n      jump\t// in\n    tag_311:\n      mload(0x40)\n      dup1\n      swap2\n      sub\n      swap1\n      return\n        /* \"contracts/protocol/libraries/helpers/Errors.sol\":8568:8616  string public constant INVALID_EXPIRATION = '78' */\n    tag_70:\n      tag_312\n      tag_313\n      jump\t// in\n    tag_312:\n      mload(0x40)\n      tag_314\n      swap2\n      swap1\n      tag_110\n      jump\t// in\n    tag_314:\n      mload(0x40)\n      dup1\n      swap2\n      sub\n      swap1\n      return\n        /* \"contracts/protocol/libraries/helpers/Errors.sol\":6570:6634  string public constant PRICE_ORACLE_SENTINEL_CHECK_FAILED = '59' */\n    tag_71:\n      tag_315\n      tag_316\n      jump\t// in\n    tag_315:\n      mload(0x40)\n      tag_317\n      swap2\n      swap1\n      tag_110\n      jump\t// in\n    tag_317:\n      mload(0x40)\n      dup1\n      swap2\n      sub\n      swap1\n      return\n        /* \"contracts/protocol/libraries/helpers/Errors.sol\":9064:9136  string public constant INVALID_OPTIMAL_STABLE_TO_TOTAL_DEBT_RATIO = '84' */\n    tag_72:\n      tag_318\n      tag_319\n      jump\t// in\n    tag_318:\n      mload(0x40)\n      tag_320\n      swap2\n      swap1\n      tag_110\n      jump\t// in\n    tag_320:\n      mload(0x40)\n      dup1\n      swap2\n      sub\n      swap1\n      return\n        /* \"contracts/protocol/libraries/helpers/Errors.sol\":8893:8939  string public constant ASSET_NOT_LISTED = '82' */\n    tag_73:\n      tag_321\n      tag_322\n      jump\t// in\n    tag_321:\n      mload(0x40)\n      tag_323\n      swap2\n      swap1\n      tag_110\n      jump\t// in\n    tag_323:\n      mload(0x40)\n      dup1\n      swap2\n      sub\n      swap1\n      return\n        /* \"contracts/protocol/libraries/helpers/Errors.sol\":8483:8535  string public constant ZERO_ADDRESS_NOT_VALID = '77' */\n    tag_74:\n      tag_324\n      tag_325\n      jump\t// in\n    tag_324:\n      mload(0x40)\n      tag_326\n      swap2\n      swap1\n      tag_110\n      jump\t// in\n    tag_326:\n      mload(0x40)\n      dup1\n      swap2\n      sub\n      swap1\n      return\n        /* \"contracts/protocol/libraries/helpers/Errors.sol\":8173:8224  string public constant INVALID_RESERVE_INDEX = '74' */\n    tag_75:\n      tag_327\n      tag_328\n      jump\t// in\n    tag_327:\n      mload(0x40)\n      tag_329\n      swap2\n      swap1\n      tag_110\n      jump\t// in\n    tag_329:\n      mload(0x40)\n      dup1\n      swap2\n      sub\n      swap1\n      return\n        /* \"contracts/protocol/libraries/helpers/Errors.sol\":7562:7610  string public constant INVALID_BORROW_CAP = '68' */\n    tag_76:\n      tag_330\n      tag_331\n      jump\t// in\n    tag_330:\n      mload(0x40)\n      tag_332\n      swap2\n      swap1\n      tag_110\n      jump\t// in\n    tag_332:\n      mload(0x40)\n      dup1\n      swap2\n      sub\n      swap1\n      return\n        /* \"contracts/protocol/libraries/helpers/Errors.sol\":6799:6856  string public constant RESERVE_ALREADY_INITIALIZED = '61' */\n    tag_77:\n      tag_333\n      tag_334\n      jump\t// in\n    tag_333:\n      mload(0x40)\n      tag_335\n      swap2\n      swap1\n      tag_110\n      jump\t// in\n    tag_335:\n      mload(0x40)\n      dup1\n      swap2\n      sub\n      swap1\n      return\n        /* \"contracts/protocol/libraries/helpers/Errors.sol\":4450:4504  string public constant NO_DEBT_OF_SELECTED_TYPE = '39' */\n    tag_78:\n      tag_336\n      tag_337\n      jump\t// in\n    tag_336:\n      mload(0x40)\n      tag_338\n      swap2\n      swap1\n      tag_110\n      jump\t// in\n    tag_338:\n      mload(0x40)\n      dup1\n      swap2\n      sub\n      swap1\n      return\n        /* \"contracts/protocol/libraries/helpers/Errors.sol\":8077:8127  string public constant INVALID_DEBT_CEILING = '73' */\n    tag_79:\n      tag_339\n      tag_340\n      jump\t// in\n    tag_339:\n      mload(0x40)\n      tag_341\n      swap2\n      swap1\n      tag_110\n      jump\t// in\n    tag_341:\n      mload(0x40)\n      dup1\n      swap2\n      sub\n      swap1\n      return\n        /* \"contracts/protocol/libraries/helpers/Errors.sol\":7107:7158  string public constant INVALID_LIQ_THRESHOLD = '64' */\n    tag_80:\n      tag_342\n      tag_343\n      jump\t// in\n    tag_342:\n      mload(0x40)\n      tag_344\n      swap2\n      swap1\n      tag_110\n      jump\t// in\n    tag_344:\n      mload(0x40)\n      dup1\n      swap2\n      sub\n      swap1\n      return\n        /* \"contracts/protocol/libraries/helpers/Errors.sol\":9680:9736  string public constant SILOED_BORROWING_VIOLATION = '89' */\n    tag_81:\n      tag_345\n      tag_346\n      jump\t// in\n    tag_345:\n      mload(0x40)\n      tag_347\n      swap2\n      swap1\n      tag_110\n      jump\t// in\n    tag_347:\n      mload(0x40)\n      dup1\n      swap2\n      sub\n      swap1\n      return\n        /* \"contracts/protocol/libraries/helpers/Errors.sol\":955:1017  string public constant ADDRESSES_PROVIDER_NOT_REGISTERED = '7' */\n    tag_82:\n      tag_348\n      tag_349\n      jump\t// in\n    tag_348:\n      mload(0x40)\n      tag_350\n      swap2\n      swap1\n      tag_110\n      jump\t// in\n    tag_350:\n      mload(0x40)\n      dup1\n      swap2\n      sub\n      swap1\n      return\n        /* \"contracts/protocol/libraries/helpers/Errors.sol\":4028:4092  string public constant COLLATERAL_CANNOT_COVER_NEW_BORROW = '36' */\n    tag_83:\n      tag_351\n      tag_352\n      jump\t// in\n    tag_351:\n      mload(0x40)\n      tag_353\n      swap2\n      swap1\n      tag_110\n      jump\t// in\n    tag_353:\n      mload(0x40)\n      dup1\n      swap2\n      sub\n      swap1\n      return\n        /* \"contracts/protocol/libraries/helpers/Errors.sol\":8807:8858  string public constant DEBT_CEILING_NOT_ZERO = '81' */\n    tag_84:\n      tag_354\n      tag_355\n      jump\t// in\n    tag_354:\n      mload(0x40)\n      tag_356\n      swap2\n      swap1\n      tag_110\n      jump\t// in\n    tag_356:\n      mload(0x40)\n      dup1\n      swap2\n      sub\n      swap1\n      return\n        /* \"contracts/protocol/libraries/helpers/Errors.sol\":9810:9861  string public constant RESERVE_DEBT_NOT_ZERO = '90' */\n    tag_85:\n      tag_357\n      tag_358\n      jump\t// in\n    tag_357:\n      mload(0x40)\n      tag_359\n      swap2\n      swap1\n      tag_110\n      jump\t// in\n    tag_359:\n      mload(0x40)\n      dup1\n      swap2\n      sub\n      swap1\n      return\n        /* \"contracts/protocol/libraries/helpers/Errors.sol\":4296:4365  string public constant AMOUNT_BIGGER_THAN_MAX_LOAN_SIZE_STABLE = '38' */\n    tag_86:\n      tag_360\n      tag_361\n      jump\t// in\n    tag_360:\n      mload(0x40)\n      tag_362\n      swap2\n      swap1\n      tag_110\n      jump\t// in\n    tag_362:\n      mload(0x40)\n      dup1\n      swap2\n      sub\n      swap1\n      return\n        /* \"contracts/protocol/libraries/helpers/Errors.sol\":6290:6349  string public constant VARIABLE_DEBT_SUPPLY_NOT_ZERO = '56' */\n    tag_87:\n      tag_363\n      tag_364\n      jump\t// in\n    tag_363:\n      mload(0x40)\n      tag_365\n      swap2\n      swap1\n      tag_110\n      jump\t// in\n    tag_365:\n      mload(0x40)\n      dup1\n      swap2\n      sub\n      swap1\n      return\n        /* \"contracts/protocol/libraries/helpers/Errors.sol\":1950:2003  string public constant EMODE_CATEGORY_RESERVED = '16' */\n    tag_88:\n      tag_366\n      tag_367\n      jump\t// in\n    tag_366:\n      mload(0x40)\n      tag_368\n      swap2\n      swap1\n      tag_110\n      jump\t// in\n    tag_368:\n      mload(0x40)\n      dup1\n      swap2\n      sub\n      swap1\n      return\n        /* \"contracts/protocol/libraries/helpers/Errors.sol\":7329:7375  string public constant INVALID_DECIMALS = '66' */\n    tag_89:\n      tag_369\n      tag_370\n      jump\t// in\n    tag_369:\n      mload(0x40)\n      tag_371\n      swap2\n      swap1\n      tag_110\n      jump\t// in\n    tag_371:\n      mload(0x40)\n      dup1\n      swap2\n      sub\n      swap1\n      return\n        /* \"contracts/protocol/libraries/helpers/Errors.sol\":2974:3018  string public constant INVALID_AMOUNT = '26' */\n    tag_90:\n      tag_372\n      tag_373\n      jump\t// in\n    tag_372:\n      mload(0x40)\n      tag_374\n      swap2\n      swap1\n      tag_110\n      jump\t// in\n    tag_374:\n      mload(0x40)\n      dup1\n      swap2\n      sub\n      swap1\n      return\n        /* \"contracts/protocol/libraries/helpers/Errors.sol\":8256:8310  string public constant ACL_ADMIN_CANNOT_BE_ZERO = '75' */\n    tag_91:\n      tag_375\n      tag_376\n      jump\t// in\n    tag_375:\n      mload(0x40)\n      tag_377\n      swap2\n      swap1\n      tag_110\n      jump\t// in\n    tag_377:\n      mload(0x40)\n      dup1\n      swap2\n      sub\n      swap1\n      return\n        /* \"contracts/protocol/libraries/helpers/Errors.sol\":2195:2251  string public constant RESERVE_LIQUIDITY_NOT_ZERO = '18' */\n    tag_108:\n      mload(0x40)\n      dup1\n      0x40\n      add\n      0x40\n      mstore\n      dup1\n      0x02\n      dup2\n      mstore\n      0x20\n      add\n      0x3138000000000000000000000000000000000000000000000000000000000000\n      dup2\n      mstore\n      pop\n      dup2\n      jump\t// out\n        /* \"contracts/protocol/libraries/helpers/Errors.sol\":1180:1221  string public constant NOT_CONTRACT = '9' */\n    tag_112:\n      mload(0x40)\n      dup1\n      0x40\n      add\n      0x40\n      mstore\n      dup1\n      0x01\n      dup2\n      mstore\n      0x20\n      add\n      0x3900000000000000000000000000000000000000000000000000000000000000\n      dup2\n      mstore\n      pop\n      dup2\n      jump\t// out\n        /* \"contracts/protocol/libraries/helpers/Errors.sol\":1731:1782  string public constant RESERVE_ALREADY_ADDED = '14' */\n    tag_115:\n      mload(0x40)\n      dup1\n      0x40\n      add\n      0x40\n      mstore\n      dup1\n      0x02\n      dup2\n      mstore\n      0x20\n      add\n      0x3134000000000000000000000000000000000000000000000000000000000000\n      dup2\n      mstore\n      pop\n      dup2\n      jump\t// out\n        /* \"contracts/protocol/libraries/helpers/Errors.sol\":9296:9358  string public constant ADDRESSES_PROVIDER_ALREADY_ADDED = '86' */\n    tag_118:\n      mload(0x40)\n      dup1\n      0x40\n      add\n      0x40\n      mstore\n      dup1\n      0x02\n      dup2\n      mstore\n      0x20\n      add\n      0x3836000000000000000000000000000000000000000000000000000000000000\n      dup2\n      mstore\n      pop\n      dup2\n      jump\t// out\n        /* \"contracts/protocol/libraries/helpers/Errors.sol\":9588:9642  string public constant STABLE_BORROWING_ENABLED = '88' */\n    tag_121:\n      mload(0x40)\n      dup1\n      0x40\n      add\n      0x40\n      mstore\n      dup1\n      0x02\n      dup2\n      mstore\n      0x20\n      add\n      0x3838000000000000000000000000000000000000000000000000000000000000\n      dup2\n      mstore\n      pop\n      dup2\n      jump\t// out\n        /* \"contracts/protocol/libraries/helpers/Errors.sol\":9415:9472  string public constant POOL_ADDRESSES_DO_NOT_MATCH = '87' */\n    tag_124:\n      mload(0x40)\n      dup1\n      0x40\n      add\n      0x40\n      mstore\n      dup1\n      0x02\n      dup2\n      mstore\n      0x20\n      add\n      0x3837000000000000000000000000000000000000000000000000000000000000\n      dup2\n      mstore\n      pop\n      dup2\n      jump\t// out\n        /* \"contracts/protocol/libraries/helpers/Errors.sol\":5473:5542  string public constant SPECIFIED_CURRENCY_NOT_BORROWED_BY_USER = '47' */\n    tag_127:\n      mload(0x40)\n      dup1\n      0x40\n      add\n      0x40\n      mstore\n      dup1\n      0x02\n      dup2\n      mstore\n      0x20\n      add\n      0x3437000000000000000000000000000000000000000000000000000000000000\n      dup2\n      mstore\n      pop\n      dup2\n      jump\t// out\n        /* \"contracts/protocol/libraries/helpers/Errors.sol\":7655:7703  string public constant INVALID_SUPPLY_CAP = '69' */\n    tag_130:\n      mload(0x40)\n      dup1\n      0x40\n      add\n      0x40\n      mstore\n      dup1\n      0x02\n      dup2\n      mstore\n      0x20\n      add\n      0x3639000000000000000000000000000000000000000000000000000000000000\n      dup2\n      mstore\n      pop\n      dup2\n      jump\t// out\n        /* \"contracts/protocol/libraries/helpers/Errors.sol\":458:521  string public constant CALLER_NOT_POOL_OR_EMERGENCY_ADMIN = '3' */\n    tag_133:\n      mload(0x40)\n      dup1\n      0x40\n      add\n      0x40\n      mstore\n      dup1\n      0x01\n      dup2\n      mstore\n      0x20\n      add\n      0x3300000000000000000000000000000000000000000000000000000000000000\n      dup2\n      mstore\n      pop\n      dup2\n      jump\t// out\n        /* \"contracts/protocol/libraries/helpers/Errors.sol\":5115:5187  string public constant INTEREST_RATE_REBALANCE_CONDITIONS_NOT_MET = '44' */\n    tag_136:\n      mload(0x40)\n      dup1\n      0x40\n      add\n      0x40\n      mstore\n      dup1\n      0x02\n      dup2\n      mstore\n      0x20\n      add\n      0x3434000000000000000000000000000000000000000000000000000000000000\n      dup2\n      mstore\n      pop\n      dup2\n      jump\t// out\n        /* \"contracts/protocol/libraries/helpers/Errors.sol\":714:781  string public constant CALLER_NOT_ASSET_LISTING_OR_POOL_ADMIN = '5' */\n    tag_139:\n      mload(0x40)\n      dup1\n      0x40\n      add\n      0x40\n      mstore\n      dup1\n      0x01\n      dup2\n      mstore\n      0x20\n      add\n      0x3500000000000000000000000000000000000000000000000000000000000000\n      dup2\n      mstore\n      pop\n      dup2\n      jump\t// out\n        /* \"contracts/protocol/libraries/helpers/Errors.sol\":5698:5747  string public constant BORROW_CAP_EXCEEDED = '50' */\n    tag_142:\n      mload(0x40)\n      dup1\n      0x40\n      add\n      0x40\n      mstore\n      dup1\n      0x02\n      dup2\n      mstore\n      0x20\n      add\n      0x3530000000000000000000000000000000000000000000000000000000000000\n      dup2\n      mstore\n      pop\n      dup2\n      jump\t// out\n        /* \"contracts/protocol/libraries/helpers/Errors.sol\":2395:2447  string public constant INVALID_RESERVE_PARAMS = '20' */\n    tag_145:\n      mload(0x40)\n      dup1\n      0x40\n      add\n      0x40\n      mstore\n      dup1\n      0x02\n      dup2\n      mstore\n      0x20\n      add\n      0x3230000000000000000000000000000000000000000000000000000000000000\n      dup2\n      mstore\n      pop\n      dup2\n      jump\t// out\n        /* \"contracts/protocol/libraries/helpers/Errors.sol\":3887:3963  string public constant HEALTH_FACTOR_LOWER_THAN_LIQUIDATION_THRESHOLD = '35' */\n    tag_148:\n      mload(0x40)\n      dup1\n      0x40\n      add\n      0x40\n      mstore\n      dup1\n      0x02\n      dup2\n      mstore\n      0x20\n      add\n      0x3335000000000000000000000000000000000000000000000000000000000000\n      dup2\n      mstore\n      pop\n      dup2\n      jump\t// out\n        /* \"contracts/protocol/libraries/helpers/Errors.sol\":1482:1538  string public constant INVALID_ADDRESSES_PROVIDER = '12' */\n    tag_151:\n      mload(0x40)\n      dup1\n      0x40\n      add\n      0x40\n      mstore\n      dup1\n      0x02\n      dup2\n      mstore\n      0x20\n      add\n      0x3132000000000000000000000000000000000000000000000000000000000000\n      dup2\n      mstore\n      pop\n      dup2\n      jump\t// out\n        /* \"contracts/protocol/libraries/helpers/Errors.sol\":2708:2757  string public constant CALLER_MUST_BE_POOL = '23' */\n    tag_154:\n      mload(0x40)\n      dup1\n      0x40\n      add\n      0x40\n      mstore\n      dup1\n      0x02\n      dup2\n      mstore\n      0x20\n      add\n      0x3233000000000000000000000000000000000000000000000000000000000000\n      dup2\n      mstore\n      pop\n      dup2\n      jump\t// out\n        /* \"contracts/protocol/libraries/helpers/Errors.sol\":7970:8025  string public constant INVALID_UNBACKED_MINT_CAP = '72' */\n    tag_157:\n      mload(0x40)\n      dup1\n      0x40\n      add\n      0x40\n      mstore\n      dup1\n      0x02\n      dup2\n      mstore\n      0x20\n      add\n      0x3732000000000000000000000000000000000000000000000000000000000000\n      dup2\n      mstore\n      pop\n      dup2\n      jump\t// out\n        /* \"contracts/protocol/libraries/helpers/Errors.sol\":2497:2556  string public constant INVALID_EMODE_CATEGORY_PARAMS = '21' */\n    tag_160:\n      mload(0x40)\n      dup1\n      0x40\n      add\n      0x40\n      mstore\n      dup1\n      0x02\n      dup2\n      mstore\n      0x20\n      add\n      0x3231000000000000000000000000000000000000000000000000000000000000\n      dup2\n      mstore\n      pop\n      dup2\n      jump\t// out\n        /* \"contracts/protocol/libraries/helpers/Errors.sol\":6903:6967  string public constant USER_IN_ISOLATION_MODE_OR_LTV_ZERO = '62' */\n    tag_163:\n      mload(0x40)\n      dup1\n      0x40\n      add\n      0x40\n      mstore\n      dup1\n      0x02\n      dup2\n      mstore\n      0x20\n      add\n      0x3632000000000000000000000000000000000000000000000000000000000000\n      dup2\n      mstore\n      pop\n      dup2\n      jump\t// out\n        /* \"contracts/protocol/libraries/helpers/Errors.sol\":340:395  string public constant CALLER_NOT_EMERGENCY_ADMIN = '2' */\n    tag_166:\n      mload(0x40)\n      dup1\n      0x40\n      add\n      0x40\n      mstore\n      dup1\n      0x01\n      dup2\n      mstore\n      0x20\n      add\n      0x3200000000000000000000000000000000000000000000000000000000000000\n      dup2\n      mstore\n      pop\n      dup2\n      jump\t// out\n        /* \"contracts/protocol/libraries/helpers/Errors.sol\":3456:3514  string public constant STABLE_BORROWING_NOT_ENABLED = '31' */\n    tag_169:\n      mload(0x40)\n      dup1\n      0x40\n      add\n      0x40\n      mstore\n      dup1\n      0x02\n      dup2\n      mstore\n      0x20\n      add\n      0x3331000000000000000000000000000000000000000000000000000000000000\n      dup2\n      mstore\n      pop\n      dup2\n      jump\t// out\n        /* \"contracts/protocol/libraries/helpers/Errors.sol\":3793:3849  string public constant COLLATERAL_BALANCE_IS_ZERO = '34' */\n    tag_172:\n      mload(0x40)\n      dup1\n      0x40\n      add\n      0x40\n      mstore\n      dup1\n      0x02\n      dup2\n      mstore\n      0x20\n      add\n      0x3334000000000000000000000000000000000000000000000000000000000000\n      dup2\n      mstore\n      pop\n      dup2\n      jump\t// out\n        /* \"contracts/protocol/libraries/helpers/Errors.sol\":8969:9026  string public constant INVALID_OPTIMAL_USAGE_RATIO = '83' */\n    tag_175:\n      mload(0x40)\n      dup1\n      0x40\n      add\n      0x40\n      mstore\n      dup1\n      0x02\n      dup2\n      mstore\n      0x20\n      add\n      0x3833000000000000000000000000000000000000000000000000000000000000\n      dup2\n      mstore\n      pop\n      dup2\n      jump\t// out\n        /* \"contracts/protocol/libraries/helpers/Errors.sol\":3370:3421  string public constant BORROWING_NOT_ENABLED = '30' */\n    tag_178:\n      mload(0x40)\n      dup1\n      0x40\n      add\n      0x40\n      mstore\n      dup1\n      0x02\n      dup2\n      mstore\n      0x20\n      add\n      0x3330000000000000000000000000000000000000000000000000000000000000\n      dup2\n      mstore\n      pop\n      dup2\n      jump\t// out\n        /* \"contracts/protocol/libraries/helpers/Errors.sol\":856:902  string public constant CALLER_NOT_BRIDGE = '6' */\n    tag_181:\n      mload(0x40)\n      dup1\n      0x40\n      add\n      0x40\n      mstore\n      dup1\n      0x01\n      dup2\n      mstore\n      0x20\n      add\n      0x3600000000000000000000000000000000000000000000000000000000000000\n      dup2\n      mstore\n      pop\n      dup2\n      jump\t// out\n        /* \"contracts/protocol/libraries/helpers/Errors.sol\":2892:2941  string public constant INVALID_BURN_AMOUNT = '25' */\n    tag_184:\n      mload(0x40)\n      dup1\n      0x40\n      add\n      0x40\n      mstore\n      dup1\n      0x02\n      dup2\n      mstore\n      0x20\n      add\n      0x3235000000000000000000000000000000000000000000000000000000000000\n      dup2\n      mstore\n      pop\n      dup2\n      jump\t// out\n        /* \"contracts/protocol/libraries/helpers/Errors.sol\":3058:3104  string public constant RESERVE_INACTIVE = '27' */\n    tag_187:\n      mload(0x40)\n      dup1\n      0x40\n      add\n      0x40\n      mstore\n      dup1\n      0x02\n      dup2\n      mstore\n      0x20\n      add\n      0x3237000000000000000000000000000000000000000000000000000000000000\n      dup2\n      mstore\n      pop\n      dup2\n      jump\t// out\n        /* \"contracts/protocol/libraries/helpers/Errors.sol\":2079:2142  string public constant INVALID_EMODE_CATEGORY_ASSIGNMENT = '17' */\n    tag_190:\n      mload(0x40)\n      dup1\n      0x40\n      add\n      0x40\n      mstore\n      dup1\n      0x02\n      dup2\n      mstore\n      0x20\n      add\n      0x3137000000000000000000000000000000000000000000000000000000000000\n      dup2\n      mstore\n      pop\n      dup2\n      jump\t// out\n        /* \"contracts/protocol/libraries/helpers/Errors.sol\":1069:1127  string public constant INVALID_ADDRESSES_PROVIDER_ID = '8' */\n    tag_193:\n      mload(0x40)\n      dup1\n      0x40\n      add\n      0x40\n      mstore\n      dup1\n      0x01\n      dup2\n      mstore\n      0x20\n      add\n      0x3800000000000000000000000000000000000000000000000000000000000000\n      dup2\n      mstore\n      pop\n      dup2\n      jump\t// out\n        /* \"contracts/protocol/libraries/helpers/Errors.sol\":1257:1315  string public constant CALLER_NOT_POOL_CONFIGURATOR = '10' */\n    tag_196:\n      mload(0x40)\n      dup1\n      0x40\n      add\n      0x40\n      mstore\n      dup1\n      0x02\n      dup2\n      mstore\n      0x20\n      add\n      0x3130000000000000000000000000000000000000000000000000000000000000\n      dup2\n      mstore\n      pop\n      dup2\n      jump\t// out\n        /* \"contracts/protocol/libraries/helpers/Errors.sol\":5958:6009  string public constant DEBT_CEILING_EXCEEDED = '53' */\n    tag_199:\n      mload(0x40)\n      dup1\n      0x40\n      add\n      0x40\n      mstore\n      dup1\n      0x02\n      dup2\n      mstore\n      0x20\n      add\n      0x3533000000000000000000000000000000000000000000000000000000000000\n      dup2\n      mstore\n      pop\n      dup2\n      jump\t// out\n        /* \"contracts/protocol/libraries/helpers/Errors.sol\":6199:6249  string public constant STABLE_DEBT_NOT_ZERO = '55' */\n    tag_202:\n      mload(0x40)\n      dup1\n      0x40\n      add\n      0x40\n      mstore\n      dup1\n      0x02\n      dup2\n      mstore\n      0x20\n      add\n      0x3535000000000000000000000000000000000000000000000000000000000000\n      dup2\n      mstore\n      pop\n      dup2\n      jump\t// out\n        /* \"contracts/protocol/libraries/helpers/Errors.sol\":5862:5918  string public constant UNBACKED_MINT_CAP_EXCEEDED = '52' */\n    tag_205:\n      mload(0x40)\n      dup1\n      0x40\n      add\n      0x40\n      mstore\n      dup1\n      0x02\n      dup2\n      mstore\n      0x20\n      add\n      0x3532000000000000000000000000000000000000000000000000000000000000\n      dup2\n      mstore\n      pop\n      dup2\n      jump\t// out\n        /* \"contracts/protocol/libraries/helpers/Errors.sol\":3148:3192  string public constant RESERVE_FROZEN = '28' */\n    tag_208:\n      mload(0x40)\n      dup1\n      0x40\n      add\n      0x40\n      mstore\n      dup1\n      0x02\n      dup2\n      mstore\n      0x20\n      add\n      0x3238000000000000000000000000000000000000000000000000000000000000\n      dup2\n      mstore\n      pop\n      dup2\n      jump\t// out\n        /* \"contracts/protocol/libraries/helpers/Errors.sol\":4594:4661  string public constant NO_EXPLICIT_AMOUNT_TO_REPAY_ON_BEHALF = '40' */\n    tag_211:\n      mload(0x40)\n      dup1\n      0x40\n      add\n      0x40\n      mstore\n      dup1\n      0x02\n      dup2\n      mstore\n      0x20\n      add\n      0x3430000000000000000000000000000000000000000000000000000000000000\n      dup2\n      mstore\n      pop\n      dup2\n      jump\t// out\n        /* \"contracts/protocol/libraries/helpers/Errors.sol\":5595:5654  string public constant INCONSISTENT_FLASHLOAN_PARAMS = '49' */\n    tag_214:\n      mload(0x40)\n      dup1\n      0x40\n      add\n      0x40\n      mstore\n      dup1\n      0x02\n      dup2\n      mstore\n      0x20\n      add\n      0x3439000000000000000000000000000000000000000000000000000000000000\n      dup2\n      mstore\n      pop\n      dup2\n      jump\t// out\n        /* \"contracts/protocol/libraries/helpers/Errors.sol\":4738:4794  string public constant NO_OUTSTANDING_STABLE_DEBT = '41' */\n    tag_217:\n      mload(0x40)\n      dup1\n      0x40\n      add\n      0x40\n      mstore\n      dup1\n      0x02\n      dup2\n      mstore\n      0x20\n      add\n      0x3431000000000000000000000000000000000000000000000000000000000000\n      dup2\n      mstore\n      pop\n      dup2\n      jump\t// out\n        /* \"contracts/protocol/libraries/helpers/Errors.sol\":2304:2359  string public constant FLASHLOAN_PREMIUM_INVALID = '19' */\n    tag_220:\n      mload(0x40)\n      dup1\n      0x40\n      add\n      0x40\n      mstore\n      dup1\n      0x02\n      dup2\n      mstore\n      0x20\n      add\n      0x3139000000000000000000000000000000000000000000000000000000000000\n      dup2\n      mstore\n      pop\n      dup2\n      jump\t// out\n        /* \"contracts/protocol/libraries/helpers/Errors.sol\":1839:1893  string public constant NO_MORE_RESERVES_ALLOWED = '15' */\n    tag_223:\n      mload(0x40)\n      dup1\n      0x40\n      add\n      0x40\n      mstore\n      dup1\n      0x02\n      dup2\n      mstore\n      0x20\n      add\n      0x3135000000000000000000000000000000000000000000000000000000000000\n      dup2\n      mstore\n      pop\n      dup2\n      jump\t// out\n        /* \"contracts/protocol/libraries/helpers/Errors.sol\":2613:2670  string public constant BRIDGE_PROTOCOL_FEE_INVALID = '22' */\n    tag_226:\n      mload(0x40)\n      dup1\n      0x40\n      add\n      0x40\n      mstore\n      dup1\n      0x02\n      dup2\n      mstore\n      0x20\n      add\n      0x3232000000000000000000000000000000000000000000000000000000000000\n      dup2\n      mstore\n      pop\n      dup2\n      jump\t// out\n        /* \"contracts/protocol/libraries/helpers/Errors.sol\":1602:1665  string public constant INVALID_FLASHLOAN_EXECUTOR_RETURN = '13' */\n    tag_229:\n      mload(0x40)\n      dup1\n      0x40\n      add\n      0x40\n      mstore\n      dup1\n      0x02\n      dup2\n      mstore\n      0x20\n      add\n      0x3133000000000000000000000000000000000000000000000000000000000000\n      dup2\n      mstore\n      pop\n      dup2\n      jump\t// out\n        /* \"contracts/protocol/libraries/helpers/Errors.sol\":6684:6747  string public constant ASSET_NOT_BORROWABLE_IN_ISOLATION = '60' */\n    tag_232:\n      mload(0x40)\n      dup1\n      0x40\n      add\n      0x40\n      mstore\n      dup1\n      0x02\n      dup2\n      mstore\n      0x20\n      add\n      0x3630000000000000000000000000000000000000000000000000000000000000\n      dup2\n      mstore\n      pop\n      dup2\n      jump\t// out\n        /* \"contracts/protocol/libraries/helpers/Errors.sol\":5359:5420  string public constant COLLATERAL_CANNOT_BE_LIQUIDATED = '46' */\n    tag_235:\n      mload(0x40)\n      dup1\n      0x40\n      add\n      0x40\n      mstore\n      dup1\n      0x02\n      dup2\n      mstore\n      0x20\n      add\n      0x3436000000000000000000000000000000000000000000000000000000000000\n      dup2\n      mstore\n      pop\n      dup2\n      jump\t// out\n        /* \"contracts/protocol/libraries/helpers/Errors.sol\":3682:3747  string public constant INVALID_INTEREST_RATE_MODE_SELECTED = '33' */\n    tag_238:\n      mload(0x40)\n      dup1\n      0x40\n      add\n      0x40\n      mstore\n      dup1\n      0x02\n      dup2\n      mstore\n      0x20\n      add\n      0x3333000000000000000000000000000000000000000000000000000000000000\n      dup2\n      mstore\n      pop\n      dup2\n      jump\t// out\n        /* \"contracts/protocol/libraries/helpers/Errors.sol\":4155:4222  string public constant COLLATERAL_SAME_AS_BORROWING_CURRENCY = '37' */\n    tag_241:\n      mload(0x40)\n      dup1\n      0x40\n      add\n      0x40\n      mstore\n      dup1\n      0x02\n      dup2\n      mstore\n      0x20\n      add\n      0x3337000000000000000000000000000000000000000000000000000000000000\n      dup2\n      mstore\n      pop\n      dup2\n      jump\t// out\n        /* \"contracts/protocol/libraries/helpers/Errors.sol\":9913:9961  string public constant FLASHLOAN_DISABLED = '91' */\n    tag_244:\n      mload(0x40)\n      dup1\n      0x40\n      add\n      0x40\n      mstore\n      dup1\n      0x02\n      dup2\n      mstore\n      0x20\n      add\n      0x3931000000000000000000000000000000000000000000000000000000000000\n      dup2\n      mstore\n      pop\n      dup2\n      jump\t// out\n        /* \"contracts/protocol/libraries/helpers/Errors.sol\":8720:8773  string public constant OPERATION_NOT_SUPPORTED = '80' */\n    tag_247:\n      mload(0x40)\n      dup1\n      0x40\n      add\n      0x40\n      mstore\n      dup1\n      0x02\n      dup2\n      mstore\n      0x20\n      add\n      0x3830000000000000000000000000000000000000000000000000000000000000\n      dup2\n      mstore\n      pop\n      dup2\n      jump\t// out\n        /* \"contracts/protocol/libraries/helpers/Errors.sol\":7748:7810  string public constant INVALID_LIQUIDATION_PROTOCOL_FEE = '70' */\n    tag_250:\n      mload(0x40)\n      dup1\n      0x40\n      add\n      0x40\n      mstore\n      dup1\n      0x02\n      dup2\n      mstore\n      0x20\n      add\n      0x3730000000000000000000000000000000000000000000000000000000000000\n      dup2\n      mstore\n      pop\n      dup2\n      jump\t// out\n        /* \"contracts/protocol/libraries/helpers/Errors.sol\":6475:6532  string public constant INCONSISTENT_EMODE_CATEGORY = '58' */\n    tag_253:\n      mload(0x40)\n      dup1\n      0x40\n      add\n      0x40\n      mstore\n      dup1\n      0x02\n      dup2\n      mstore\n      0x20\n      add\n      0x3538000000000000000000000000000000000000000000000000000000000000\n      dup2\n      mstore\n      pop\n      dup2\n      jump\t// out\n        /* \"contracts/protocol/libraries/helpers/Errors.sol\":6044:6110  string public constant UNDERLYING_CLAIMABLE_RIGHTS_NOT_ZERO = '54' */\n    tag_256:\n      mload(0x40)\n      dup1\n      0x40\n      add\n      0x40\n      mstore\n      dup1\n      0x02\n      dup2\n      mstore\n      0x20\n      add\n      0x3534000000000000000000000000000000000000000000000000000000000000\n      dup2\n      mstore\n      pop\n      dup2\n      jump\t// out\n        /* \"contracts/protocol/libraries/helpers/Errors.sol\":5245:5308  string public constant HEALTH_FACTOR_NOT_BELOW_THRESHOLD = '45' */\n    tag_259:\n      mload(0x40)\n      dup1\n      0x40\n      add\n      0x40\n      mstore\n      dup1\n      0x02\n      dup2\n      mstore\n      0x20\n      add\n      0x3435000000000000000000000000000000000000000000000000000000000000\n      dup2\n      mstore\n      pop\n      dup2\n      jump\t// out\n        /* \"contracts/protocol/libraries/helpers/Errors.sol\":7222:7269  string public constant INVALID_LIQ_BONUS = '65' */\n    tag_262:\n      mload(0x40)\n      dup1\n      0x40\n      add\n      0x40\n      mstore\n      dup1\n      0x02\n      dup2\n      mstore\n      0x20\n      add\n      0x3635000000000000000000000000000000000000000000000000000000000000\n      dup2\n      mstore\n      pop\n      dup2\n      jump\t// out\n        /* \"contracts/protocol/libraries/helpers/Errors.sol\":7018:7059  string public constant INVALID_LTV = '63' */\n    tag_265:\n      mload(0x40)\n      dup1\n      0x40\n      add\n      0x40\n      mstore\n      dup1\n      0x02\n      dup2\n      mstore\n      0x20\n      add\n      0x3633000000000000000000000000000000000000000000000000000000000000\n      dup2\n      mstore\n      pop\n      dup2\n      jump\t// out\n        /* \"contracts/protocol/libraries/helpers/Errors.sol\":5002:5055  string public constant UNDERLYING_BALANCE_ZERO = '43' */\n    tag_268:\n      mload(0x40)\n      dup1\n      0x40\n      add\n      0x40\n      mstore\n      dup1\n      0x02\n      dup2\n      mstore\n      0x20\n      add\n      0x3433000000000000000000000000000000000000000000000000000000000000\n      dup2\n      mstore\n      pop\n      dup2\n      jump\t// out\n        /* \"contracts/protocol/libraries/helpers/Errors.sol\":1381:1428  string public constant CALLER_NOT_ATOKEN = '11' */\n    tag_271:\n      mload(0x40)\n      dup1\n      0x40\n      add\n      0x40\n      mstore\n      dup1\n      0x02\n      dup2\n      mstore\n      0x20\n      add\n      0x3131000000000000000000000000000000000000000000000000000000000000\n      dup2\n      mstore\n      pop\n      dup2\n      jump\t// out\n        /* \"contracts/protocol/libraries/helpers/Errors.sol\":8645:8692  string public constant INVALID_SIGNATURE = '79' */\n    tag_274:\n      mload(0x40)\n      dup1\n      0x40\n      add\n      0x40\n      mstore\n      dup1\n      0x02\n      dup2\n      mstore\n      0x20\n      add\n      0x3739000000000000000000000000000000000000000000000000000000000000\n      dup2\n      mstore\n      pop\n      dup2\n      jump\t// out\n        /* \"contracts/protocol/libraries/helpers/Errors.sol\":7451:7503  string public constant INVALID_RESERVE_FACTOR = '67' */\n    tag_277:\n      mload(0x40)\n      dup1\n      0x40\n      add\n      0x40\n      mstore\n      dup1\n      0x02\n      dup2\n      mstore\n      0x20\n      add\n      0x3637000000000000000000000000000000000000000000000000000000000000\n      dup2\n      mstore\n      pop\n      dup2\n      jump\t// out\n        /* \"contracts/protocol/libraries/helpers/Errors.sol\":7869:7921  string public constant INVALID_EMODE_CATEGORY = '71' */\n    tag_280:\n      mload(0x40)\n      dup1\n      0x40\n      add\n      0x40\n      mstore\n      dup1\n      0x02\n      dup2\n      mstore\n      0x20\n      add\n      0x3731000000000000000000000000000000000000000000000000000000000000\n      dup2\n      mstore\n      pop\n      dup2\n      jump\t// out\n        /* \"contracts/protocol/libraries/helpers/Errors.sol\":9189:9247  string public constant UNDERLYING_CANNOT_BE_RESCUED = '85' */\n    tag_283:\n      mload(0x40)\n      dup1\n      0x40\n      add\n      0x40\n      mstore\n      dup1\n      0x02\n      dup2\n      mstore\n      0x20\n      add\n      0x3835000000000000000000000000000000000000000000000000000000000000\n      dup2\n      mstore\n      pop\n      dup2\n      jump\t// out\n        /* \"contracts/protocol/libraries/helpers/Errors.sol\":2810:2859  string public constant INVALID_MINT_AMOUNT = '24' */\n    tag_286:\n      mload(0x40)\n      dup1\n      0x40\n      add\n      0x40\n      mstore\n      dup1\n      0x02\n      dup2\n      mstore\n      0x20\n      add\n      0x3234000000000000000000000000000000000000000000000000000000000000\n      dup2\n      mstore\n      pop\n      dup2\n      jump\t// out\n        /* \"contracts/protocol/libraries/helpers/Errors.sol\":233:283  string public constant CALLER_NOT_POOL_ADMIN = '1' */\n    tag_289:\n      mload(0x40)\n      dup1\n      0x40\n      add\n      0x40\n      mstore\n      dup1\n      0x01\n      dup2\n      mstore\n      0x20\n      add\n      0x3100000000000000000000000000000000000000000000000000000000000000\n      dup2\n      mstore\n      pop\n      dup2\n      jump\t// out\n        /* \"contracts/protocol/libraries/helpers/Errors.sol\":5780:5829  string public constant SUPPLY_CAP_EXCEEDED = '51' */\n    tag_292:\n      mload(0x40)\n      dup1\n      0x40\n      add\n      0x40\n      mstore\n      dup1\n      0x02\n      dup2\n      mstore\n      0x20\n      add\n      0x3531000000000000000000000000000000000000000000000000000000000000\n      dup2\n      mstore\n      pop\n      dup2\n      jump\t// out\n        /* \"contracts/protocol/libraries/helpers/Errors.sol\":4868:4926  string public constant NO_OUTSTANDING_VARIABLE_DEBT = '42' */\n    tag_295:\n      mload(0x40)\n      dup1\n      0x40\n      add\n      0x40\n      mstore\n      dup1\n      0x02\n      dup2\n      mstore\n      0x20\n      add\n      0x3432000000000000000000000000000000000000000000000000000000000000\n      dup2\n      mstore\n      pop\n      dup2\n      jump\t// out\n        /* \"contracts/protocol/libraries/helpers/Errors.sol\":591:649  string public constant CALLER_NOT_RISK_OR_POOL_ADMIN = '4' */\n    tag_298:\n      mload(0x40)\n      dup1\n      0x40\n      add\n      0x40\n      mstore\n      dup1\n      0x01\n      dup2\n      mstore\n      0x20\n      add\n      0x3400000000000000000000000000000000000000000000000000000000000000\n      dup2\n      mstore\n      pop\n      dup2\n      jump\t// out\n        /* \"contracts/protocol/libraries/helpers/Errors.sol\":3259:3303  string public constant RESERVE_PAUSED = '29' */\n    tag_301:\n      mload(0x40)\n      dup1\n      0x40\n      add\n      0x40\n      mstore\n      dup1\n      0x02\n      dup2\n      mstore\n      0x20\n      add\n      0x3239000000000000000000000000000000000000000000000000000000000000\n      dup2\n      mstore\n      pop\n      dup2\n      jump\t// out\n        /* \"contracts/protocol/libraries/helpers/Errors.sol\":3556:3619  string public constant NOT_ENOUGH_AVAILABLE_USER_BALANCE = '32' */\n    tag_304:\n      mload(0x40)\n      dup1\n      0x40\n      add\n      0x40\n      mstore\n      dup1\n      0x02\n      dup2\n      mstore\n      0x20\n      add\n      0x3332000000000000000000000000000000000000000000000000000000000000\n      dup2\n      mstore\n      pop\n      dup2\n      jump\t// out\n        /* \"contracts/protocol/libraries/helpers/Errors.sol\":6392:6443  string public constant LTV_VALIDATION_FAILED = '57' */\n    tag_307:\n      mload(0x40)\n      dup1\n      0x40\n      add\n      0x40\n      mstore\n      dup1\n      0x02\n      dup2\n      mstore\n      0x20\n      add\n      0x3537000000000000000000000000000000000000000000000000000000000000\n      dup2\n      mstore\n      pop\n      dup2\n      jump\t// out\n        /* \"contracts/protocol/libraries/helpers/Errors.sol\":8364:8420  string public constant INCONSISTENT_PARAMS_LENGTH = '76' */\n    tag_310:\n      mload(0x40)\n      dup1\n      0x40\n      add\n      0x40\n      mstore\n      dup1\n      0x02\n      dup2\n      mstore\n      0x20\n      add\n      0x3736000000000000000000000000000000000000000000000000000000000000\n      dup2\n      mstore\n      pop\n      dup2\n      jump\t// out\n        /* \"contracts/protocol/libraries/helpers/Errors.sol\":8568:8616  string public constant INVALID_EXPIRATION = '78' */\n    tag_313:\n      mload(0x40)\n      dup1\n      0x40\n      add\n      0x40\n      mstore\n      dup1\n      0x02\n      dup2\n      mstore\n      0x20\n      add\n      0x3738000000000000000000000000000000000000000000000000000000000000\n      dup2\n      mstore\n      pop\n      dup2\n      jump\t// out\n        /* \"contracts/protocol/libraries/helpers/Errors.sol\":6570:6634  string public constant PRICE_ORACLE_SENTINEL_CHECK_FAILED = '59' */\n    tag_316:\n      mload(0x40)\n      dup1\n      0x40\n      add\n      0x40\n      mstore\n      dup1\n      0x02\n      dup2\n      mstore\n      0x20\n      add\n      0x3539000000000000000000000000000000000000000000000000000000000000\n      dup2\n      mstore\n      pop\n      dup2\n      jump\t// out\n        /* \"contracts/protocol/libraries/helpers/Errors.sol\":9064:9136  string public constant INVALID_OPTIMAL_STABLE_TO_TOTAL_DEBT_RATIO = '84' */\n    tag_319:\n      mload(0x40)\n      dup1\n      0x40\n      add\n      0x40\n      mstore\n      dup1\n      0x02\n      dup2\n      mstore\n      0x20\n      add\n      0x3834000000000000000000000000000000000000000000000000000000000000\n      dup2\n      mstore\n      pop\n      dup2\n      jump\t// out\n        /* \"contracts/protocol/libraries/helpers/Errors.sol\":8893:8939  string public constant ASSET_NOT_LISTED = '82' */\n    tag_322:\n      mload(0x40)\n      dup1\n      0x40\n      add\n      0x40\n      mstore\n      dup1\n      0x02\n      dup2\n      mstore\n      0x20\n      add\n      0x3832000000000000000000000000000000000000000000000000000000000000\n      dup2\n      mstore\n      pop\n      dup2\n      jump\t// out\n        /* \"contracts/protocol/libraries/helpers/Errors.sol\":8483:8535  string public constant ZERO_ADDRESS_NOT_VALID = '77' */\n    tag_325:\n      mload(0x40)\n      dup1\n      0x40\n      add\n      0x40\n      mstore\n      dup1\n      0x02\n      dup2\n      mstore\n      0x20\n      add\n      0x3737000000000000000000000000000000000000000000000000000000000000\n      dup2\n      mstore\n      pop\n      dup2\n      jump\t// out\n        /* \"contracts/protocol/libraries/helpers/Errors.sol\":8173:8224  string public constant INVALID_RESERVE_INDEX = '74' */\n    tag_328:\n      mload(0x40)\n      dup1\n      0x40\n      add\n      0x40\n      mstore\n      dup1\n      0x02\n      dup2\n      mstore\n      0x20\n      add\n      0x3734000000000000000000000000000000000000000000000000000000000000\n      dup2\n      mstore\n      pop\n      dup2\n      jump\t// out\n        /* \"contracts/protocol/libraries/helpers/Errors.sol\":7562:7610  string public constant INVALID_BORROW_CAP = '68' */\n    tag_331:\n      mload(0x40)\n      dup1\n      0x40\n      add\n      0x40\n      mstore\n      dup1\n      0x02\n      dup2\n      mstore\n      0x20\n      add\n      0x3638000000000000000000000000000000000000000000000000000000000000\n      dup2\n      mstore\n      pop\n      dup2\n      jump\t// out\n        /* \"contracts/protocol/libraries/helpers/Errors.sol\":6799:6856  string public constant RESERVE_ALREADY_INITIALIZED = '61' */\n    tag_334:\n      mload(0x40)\n      dup1\n      0x40\n      add\n      0x40\n      mstore\n      dup1\n      0x02\n      dup2\n      mstore\n      0x20\n      add\n      0x3631000000000000000000000000000000000000000000000000000000000000\n      dup2\n      mstore\n      pop\n      dup2\n      jump\t// out\n        /* \"contracts/protocol/libraries/helpers/Errors.sol\":4450:4504  string public constant NO_DEBT_OF_SELECTED_TYPE = '39' */\n    tag_337:\n      mload(0x40)\n      dup1\n      0x40\n      add\n      0x40\n      mstore\n      dup1\n      0x02\n      dup2\n      mstore\n      0x20\n      add\n      0x3339000000000000000000000000000000000000000000000000000000000000\n      dup2\n      mstore\n      pop\n      dup2\n      jump\t// out\n        /* \"contracts/protocol/libraries/helpers/Errors.sol\":8077:8127  string public constant INVALID_DEBT_CEILING = '73' */\n    tag_340:\n      mload(0x40)\n      dup1\n      0x40\n      add\n      0x40\n      mstore\n      dup1\n      0x02\n      dup2\n      mstore\n      0x20\n      add\n      0x3733000000000000000000000000000000000000000000000000000000000000\n      dup2\n      mstore\n      pop\n      dup2\n      jump\t// out\n        /* \"contracts/protocol/libraries/helpers/Errors.sol\":7107:7158  string public constant INVALID_LIQ_THRESHOLD = '64' */\n    tag_343:\n      mload(0x40)\n      dup1\n      0x40\n      add\n      0x40\n      mstore\n      dup1\n      0x02\n      dup2\n      mstore\n      0x20\n      add\n      0x3634000000000000000000000000000000000000000000000000000000000000\n      dup2\n      mstore\n      pop\n      dup2\n      jump\t// out\n        /* \"contracts/protocol/libraries/helpers/Errors.sol\":9680:9736  string public constant SILOED_BORROWING_VIOLATION = '89' */\n    tag_346:\n      mload(0x40)\n      dup1\n      0x40\n      add\n      0x40\n      mstore\n      dup1\n      0x02\n      dup2\n      mstore\n      0x20\n      add\n      0x3839000000000000000000000000000000000000000000000000000000000000\n      dup2\n      mstore\n      pop\n      dup2\n      jump\t// out\n        /* \"contracts/protocol/libraries/helpers/Errors.sol\":955:1017  string public constant ADDRESSES_PROVIDER_NOT_REGISTERED = '7' */\n    tag_349:\n      mload(0x40)\n      dup1\n      0x40\n      add\n      0x40\n      mstore\n      dup1\n      0x01\n      dup2\n      mstore\n      0x20\n      add\n      0x3700000000000000000000000000000000000000000000000000000000000000\n      dup2\n      mstore\n      pop\n      dup2\n      jump\t// out\n        /* \"contracts/protocol/libraries/helpers/Errors.sol\":4028:4092  string public constant COLLATERAL_CANNOT_COVER_NEW_BORROW = '36' */\n    tag_352:\n      mload(0x40)\n      dup1\n      0x40\n      add\n      0x40\n      mstore\n      dup1\n      0x02\n      dup2\n      mstore\n      0x20\n      add\n      0x3336000000000000000000000000000000000000000000000000000000000000\n      dup2\n      mstore\n      pop\n      dup2\n      jump\t// out\n        /* \"contracts/protocol/libraries/helpers/Errors.sol\":8807:8858  string public constant DEBT_CEILING_NOT_ZERO = '81' */\n    tag_355:\n      mload(0x40)\n      dup1\n      0x40\n      add\n      0x40\n      mstore\n      dup1\n      0x02\n      dup2\n      mstore\n      0x20\n      add\n      0x3831000000000000000000000000000000000000000000000000000000000000\n      dup2\n      mstore\n      pop\n      dup2\n      jump\t// out\n        /* \"contracts/protocol/libraries/helpers/Errors.sol\":9810:9861  string public constant RESERVE_DEBT_NOT_ZERO = '90' */\n    tag_358:\n      mload(0x40)\n      dup1\n      0x40\n      add\n      0x40\n      mstore\n      dup1\n      0x02\n      dup2\n      mstore\n      0x20\n      add\n      0x3930000000000000000000000000000000000000000000000000000000000000\n      dup2\n      mstore\n      pop\n      dup2\n      jump\t// out\n        /* \"contracts/protocol/libraries/helpers/Errors.sol\":4296:4365  string public constant AMOUNT_BIGGER_THAN_MAX_LOAN_SIZE_STABLE = '38' */\n    tag_361:\n      mload(0x40)\n      dup1\n      0x40\n      add\n      0x40\n      mstore\n      dup1\n      0x02\n      dup2\n      mstore\n      0x20\n      add\n      0x3338000000000000000000000000000000000000000000000000000000000000\n      dup2\n      mstore\n      pop\n      dup2\n      jump\t// out\n        /* \"contracts/protocol/libraries/helpers/Errors.sol\":6290:6349  string public constant VARIABLE_DEBT_SUPPLY_NOT_ZERO = '56' */\n    tag_364:\n      mload(0x40)\n      dup1\n      0x40\n      add\n      0x40\n      mstore\n      dup1\n      0x02\n      dup2\n      mstore\n      0x20\n      add\n      0x3536000000000000000000000000000000000000000000000000000000000000\n      dup2\n      mstore\n      pop\n      dup2\n      jump\t// out\n        /* \"contracts/protocol/libraries/helpers/Errors.sol\":1950:2003  string public constant EMODE_CATEGORY_RESERVED = '16' */\n    tag_367:\n      mload(0x40)\n      dup1\n      0x40\n      add\n      0x40\n      mstore\n      dup1\n      0x02\n      dup2\n      mstore\n      0x20\n      add\n      0x3136000000000000000000000000000000000000000000000000000000000000\n      dup2\n      mstore\n      pop\n      dup2\n      jump\t// out\n        /* \"contracts/protocol/libraries/helpers/Errors.sol\":7329:7375  string public constant INVALID_DECIMALS = '66' */\n    tag_370:\n      mload(0x40)\n      dup1\n      0x40\n      add\n      0x40\n      mstore\n      dup1\n      0x02\n      dup2\n      mstore\n      0x20\n      add\n      0x3636000000000000000000000000000000000000000000000000000000000000\n      dup2\n      mstore\n      pop\n      dup2\n      jump\t// out\n        /* \"contracts/protocol/libraries/helpers/Errors.sol\":2974:3018  string public constant INVALID_AMOUNT = '26' */\n    tag_373:\n      mload(0x40)\n      dup1\n      0x40\n      add\n      0x40\n      mstore\n      dup1\n      0x02\n      dup2\n      mstore\n      0x20\n      add\n      0x3236000000000000000000000000000000000000000000000000000000000000\n      dup2\n      mstore\n      pop\n      dup2\n      jump\t// out\n        /* \"contracts/protocol/libraries/helpers/Errors.sol\":8256:8310  string public constant ACL_ADMIN_CANNOT_BE_ZERO = '75' */\n    tag_376:\n      mload(0x40)\n      dup1\n      0x40\n      add\n      0x40\n      mstore\n      dup1\n      0x02\n      dup2\n      mstore\n      0x20\n      add\n      0x3735000000000000000000000000000000000000000000000000000000000000\n      dup2\n      mstore\n      pop\n      dup2\n      jump\t// out\n        /* \"#utility.yul\":7:106   */\n    tag_378:\n        /* \"#utility.yul\":59:65   */\n      0x00\n        /* \"#utility.yul\":93:98   */\n      dup2\n        /* \"#utility.yul\":87:99   */\n      mload\n        /* \"#utility.yul\":77:99   */\n      swap1\n      pop\n        /* \"#utility.yul\":7:106   */\n      swap2\n      swap1\n      pop\n      jump\t// out\n        /* \"#utility.yul\":112:289   */\n    tag_379:\n        /* \"#utility.yul\":204:215   */\n      0x00\n        /* \"#utility.yul\":238:244   */\n      dup3\n        /* \"#utility.yul\":233:236   */\n      dup3\n        /* \"#utility.yul\":226:245   */\n      mstore\n        /* \"#utility.yul\":278:282   */\n      0x20\n        /* \"#utility.yul\":273:276   */\n      dup3\n        /* \"#utility.yul\":269:283   */\n      add\n        /* \"#utility.yul\":254:283   */\n      swap1\n      pop\n        /* \"#utility.yul\":112:289   */\n      swap3\n      swap2\n      pop\n      pop\n      jump\t// out\n        /* \"#utility.yul\":295:434   */\n    tag_380:\n        /* \"#utility.yul\":384:390   */\n      dup3\n        /* \"#utility.yul\":379:382   */\n      dup2\n        /* \"#utility.yul\":374:377   */\n      dup4\n        /* \"#utility.yul\":368:391   */\n      mcopy\n        /* \"#utility.yul\":425:426   */\n      0x00\n        /* \"#utility.yul\":416:422   */\n      dup4\n        /* \"#utility.yul\":411:414   */\n      dup4\n        /* \"#utility.yul\":407:423   */\n      add\n        /* \"#utility.yul\":400:427   */\n      mstore\n        /* \"#utility.yul\":295:434   */\n      pop\n      pop\n      pop\n      jump\t// out\n        /* \"#utility.yul\":440:542   */\n    tag_381:\n        /* \"#utility.yul\":481:487   */\n      0x00\n        /* \"#utility.yul\":532:534   */\n      0x1f\n        /* \"#utility.yul\":528:535   */\n      not\n        /* \"#utility.yul\":523:525   */\n      0x1f\n        /* \"#utility.yul\":516:521   */\n      dup4\n        /* \"#utility.yul\":512:526   */\n      add\n        /* \"#utility.yul\":508:536   */\n      and\n        /* \"#utility.yul\":498:536   */\n      swap1\n      pop\n        /* \"#utility.yul\":440:542   */\n      swap2\n      swap1\n      pop\n      jump\t// out\n        /* \"#utility.yul\":548:941   */\n    tag_382:\n        /* \"#utility.yul\":644:647   */\n      0x00\n        /* \"#utility.yul\":672:711   */\n      tag_389\n        /* \"#utility.yul\":705:710   */\n      dup3\n        /* \"#utility.yul\":672:711   */\n      tag_378\n      jump\t// in\n    tag_389:\n        /* \"#utility.yul\":727:806   */\n      tag_390\n        /* \"#utility.yul\":799:805   */\n      dup2\n        /* \"#utility.yul\":794:797   */\n      dup6\n        /* \"#utility.yul\":727:806   */\n      tag_379\n      jump\t// in\n    tag_390:\n        /* \"#utility.yul\":720:806   */\n      swap4\n      pop\n        /* \"#utility.yul\":815:880   */\n      tag_391\n        /* \"#utility.yul\":873:879   */\n      dup2\n        /* \"#utility.yul\":868:871   */\n      dup6\n        /* \"#utility.yul\":861:865   */\n      0x20\n        /* \"#utility.yul\":854:859   */\n      dup7\n        /* \"#utility.yul\":850:866   */\n      add\n        /* \"#utility.yul\":815:880   */\n      tag_380\n      jump\t// in\n    tag_391:\n        /* \"#utility.yul\":905:934   */\n      tag_392\n        /* \"#utility.yul\":927:933   */\n      dup2\n        /* \"#utility.yul\":905:934   */\n      tag_381\n      jump\t// in\n    tag_392:\n        /* \"#utility.yul\":900:903   */\n      dup5\n        /* \"#utility.yul\":896:935   */\n      add\n        /* \"#utility.yul\":889:935   */\n      swap2\n      pop\n        /* \"#utility.yul\":648:941   */\n      pop\n        /* \"#utility.yul\":548:941   */\n      swap3\n      swap2\n      pop\n      pop\n      jump\t// out\n        /* \"#utility.yul\":947:1276   */\n    tag_110:\n        /* \"#utility.yul\":1068:1072   */\n      0x00\n        /* \"#utility.yul\":1106:1108   */\n      0x20\n        /* \"#utility.yul\":1095:1104   */\n      dup3\n        /* \"#utility.yul\":1091:1109   */\n      add\n        /* \"#utility.yul\":1083:1109   */\n      swap1\n      pop\n        /* \"#utility.yul\":1155:1164   */\n      dup2\n        /* \"#utility.yul\":1149:1153   */\n      dup2\n        /* \"#utility.yul\":1145:1165   */\n      sub\n        /* \"#utility.yul\":1141:1142   */\n      0x00\n        /* \"#utility.yul\":1130:1139   */\n      dup4\n        /* \"#utility.yul\":1126:1143   */\n      add\n        /* \"#utility.yul\":1119:1166   */\n      mstore\n        /* \"#utility.yul\":1183:1269   */\n      tag_394\n        /* \"#utility.yul\":1264:1268   */\n      dup2\n        /* \"#utility.yul\":1255:1261   */\n      dup5\n        /* \"#utility.yul\":1183:1269   */\n      tag_382\n      jump\t// in\n    tag_394:\n        /* \"#utility.yul\":1175:1269   */\n      swap1\n      pop\n        /* \"#utility.yul\":947:1276   */\n      swap3\n      swap2\n      pop\n      pop\n      jump\t// out\n\n    auxdata: 0xa264697066735822122069e6e4f65b77eb415f3332366e90814a95f6d6c3395cad238b372aec9653830364736f6c634300081a0033\n}\n",
				"bytecode": {
					"linkReferences": {},
					"object": "61245761004d600b8282823980515f1a6073146041577f4e487b71000000000000000000000000000000000000000000000000000000005f525f60045260245ffd5b305f52607381538281f3fe73000000000000000000000000000000000000000030146080604052600436106104f7575f3560e01c80638aa3ca4c11610297578063bad8308c11610170578063dd1dd95f116100e2578063f07f67851161009b578063f07f678514610ed3578063f10727db14610ef1578063f479ea1114610f0f578063fa163a8314610f2d578063fae8279114610f4b578063fd1828ff14610f69576104f7565b8063dd1dd95f14610e1f578063de24948c14610e3d578063e02f07ee14610e5b578063e3fa20f514610e79578063e4dd8b7414610e97578063e981483a14610eb5576104f7565b8063d14bb17a11610134578063d14bb17a14610d6b578063d1cd8b1d14610d89578063d6f9fcde14610da7578063d9adda8514610dc5578063dc191bd914610de3578063dcc56db614610e01576104f7565b8063bad8308c14610cd5578063c08a114614610cf3578063c863808214610d11578063c899301a14610d2f578063cd23367c14610d4d576104f7565b8063a4868dca11610209578063b0510054116101cd578063b051005414610c21578063b4a4573014610c3f578063b5e7936614610c5d578063b68774e914610c7b578063b7f5e22414610c99578063b87041c214610cb7576104f7565b8063a4868dca14610b8b578063a8c9785314610ba9578063ab883ca014610bc7578063abd351b114610be5578063ac75323614610c03576104f7565b8063952633c51161025b578063952633c514610ad75780639527e9d914610af557806399ce53f314610b13578063a2797c8014610b31578063a2e976c614610b4f578063a3402a3814610b6d576104f7565b80638aa3ca4c14610a415780638b8b98d714610a5f5780638eda46bd14610a7d5780638f7722b214610a9b57806394f9fd8a14610ab9576104f7565b80634e3aed37116103d45780636cd3cfbc116103465780637aa0767e116102ff5780637aa0767e1461098d5780637fea6f36146109ab5780638596aad5146109c9578063895f7dc8146109e757806389c5d45f14610a055780638a34400014610a23576104f7565b80636cd3cfbc146108d9578063712f536a146108f757806373dea5e31461091557806374459b1414610933578063747fa5561461095157806376ae8fca1461096f576104f7565b80635d9c76c0116103985780635d9c76c01461082557806360c3de801461084357806361c111d21461086157806365a83bab1461087f57806365e7ef4c1461089d5780636b3f7cc7146108bb576104f7565b80634e3aed371461078f5780634ef999ff146107ad5780634f77647b146107cb57806351267450146107e957806352ba9dbe14610807576104f7565b80632eed17e81161046d57806347ba93d81161043157806347ba93d8146106db57806347cf1523146106f9578063480702ae14610717578063485c8ff6146107355780634d86f393146107535780634e01e3c114610771576104f7565b80632eed17e814610645578063335763de14610663578063366eb54d14610681578063379307821461069f578063471df685146106bd576104f7565b80631abbb001116104bf5780631abbb0011461059157806322a73446146105af57806326bbd053146105cd57806326e7b312146105eb5780632926c971146106095780632c8e3b4c14610627576104f7565b8063084dfa0d146104fb57806311d7b0061461051957806312dcade81461053757806314dcfbbc14610555578063198d6a6b14610573575b5f80fd5b610503610f87565b6040516105109190612401565b60405180910390f35b610521610fc0565b60405161052e9190612401565b60405180910390f35b61053f610ff9565b60405161054c9190612401565b60405180910390f35b61055d611032565b60405161056a9190612401565b60405180910390f35b61057b61106b565b6040516105889190612401565b60405180910390f35b6105996110a4565b6040516105a69190612401565b60405180910390f35b6105b76110dd565b6040516105c49190612401565b60405180910390f35b6105d5611116565b6040516105e29190612401565b60405180910390f35b6105f361114f565b6040516106009190612401565b60405180910390f35b610611611188565b60405161061e9190612401565b60405180910390f35b61062f6111c1565b60405161063c9190612401565b60405180910390f35b61064d6111fa565b60405161065a9190612401565b60405180910390f35b61066b611233565b6040516106789190612401565b60405180910390f35b61068961126c565b6040516106969190612401565b60405180910390f35b6106a76112a5565b6040516106b49190612401565b60405180910390f35b6106c56112de565b6040516106d29190612401565b60405180910390f35b6106e3611317565b6040516106f09190612401565b60405180910390f35b610701611350565b60405161070e9190612401565b60405180910390f35b61071f611389565b60405161072c9190612401565b60405180910390f35b61073d6113c2565b60405161074a9190612401565b60405180910390f35b61075b6113fb565b6040516107689190612401565b60405180910390f35b610779611434565b6040516107869190612401565b60405180910390f35b61079761146d565b6040516107a49190612401565b60405180910390f35b6107b56114a6565b6040516107c29190612401565b60405180910390f35b6107d36114df565b6040516107e09190612401565b60405180910390f35b6107f1611518565b6040516107fe9190612401565b60405180910390f35b61080f611551565b60405161081c9190612401565b60405180910390f35b61082d61158a565b60405161083a9190612401565b60405180910390f35b61084b6115c3565b6040516108589190612401565b60405180910390f35b6108696115fc565b6040516108769190612401565b60405180910390f35b610887611635565b6040516108949190612401565b60405180910390f35b6108a561166e565b6040516108b29190612401565b60405180910390f35b6108c36116a7565b6040516108d09190612401565b60405180910390f35b6108e16116e0565b6040516108ee9190612401565b60405180910390f35b6108ff611719565b60405161090c9190612401565b60405180910390f35b61091d611752565b60405161092a9190612401565b60405180910390f35b61093b61178b565b6040516109489190612401565b60405180910390f35b6109596117c4565b6040516109669190612401565b60405180910390f35b6109776117fd565b6040516109849190612401565b60405180910390f35b610995611836565b6040516109a29190612401565b60405180910390f35b6109b361186f565b6040516109c09190612401565b60405180910390f35b6109d16118a8565b6040516109de9190612401565b60405180910390f35b6109ef6118e1565b6040516109fc9190612401565b60405180910390f35b610a0d61191a565b604051610a1a9190612401565b60405180910390f35b610a2b611953565b604051610a389190612401565b60405180910390f35b610a4961198c565b604051610a569190612401565b60405180910390f35b610a676119c5565b604051610a749190612401565b60405180910390f35b610a856119fe565b604051610a929190612401565b60405180910390f35b610aa3611a37565b604051610ab09190612401565b60405180910390f35b610ac1611a70565b604051610ace9190612401565b60405180910390f35b610adf611aa9565b604051610aec9190612401565b60405180910390f35b610afd611ae2565b604051610b0a9190612401565b60405180910390f35b610b1b611b1b565b604051610b289190612401565b60405180910390f35b610b39611b54565b604051610b469190612401565b60405180910390f35b610b57611b8d565b604051610b649190612401565b60405180910390f35b610b75611bc6565b604051610b829190612401565b60405180910390f35b610b93611bff565b604051610ba09190612401565b60405180910390f35b610bb1611c38565b604051610bbe9190612401565b60405180910390f35b610bcf611c71565b604051610bdc9190612401565b60405180910390f35b610bed611caa565b604051610bfa9190612401565b60405180910390f35b610c0b611ce3565b604051610c189190612401565b60405180910390f35b610c29611d1c565b604051610c369190612401565b60405180910390f35b610c47611d55565b604051610c549190612401565b60405180910390f35b610c65611d8e565b604051610c729190612401565b60405180910390f35b610c83611dc7565b604051610c909190612401565b60405180910390f35b610ca1611e00565b604051610cae9190612401565b60405180910390f35b610cbf611e39565b604051610ccc9190612401565b60405180910390f35b610cdd611e72565b604051610cea9190612401565b60405180910390f35b610cfb611eab565b604051610d089190612401565b60405180910390f35b610d19611ee4565b604051610d269190612401565b60405180910390f35b610d37611f1d565b604051610d449190612401565b60405180910390f35b610d55611f56565b604051610d629190612401565b60405180910390f35b610d73611f8f565b604051610d809190612401565b60405180910390f35b610d91611fc8565b604051610d9e9190612401565b60405180910390f35b610daf612001565b604051610dbc9190612401565b60405180910390f35b610dcd61203a565b604051610dda9190612401565b60405180910390f35b610deb612073565b604051610df89190612401565b60405180910390f35b610e096120ac565b604051610e169190612401565b60405180910390f35b610e276120e5565b604051610e349190612401565b60405180910390f35b610e4561211e565b604051610e529190612401565b60405180910390f35b610e63612157565b604051610e709190612401565b60405180910390f35b610e81612190565b604051610e8e9190612401565b60405180910390f35b610e9f6121c9565b604051610eac9190612401565b60405180910390f35b610ebd612202565b604051610eca9190612401565b60405180910390f35b610edb61223b565b604051610ee89190612401565b60405180910390f35b610ef9612274565b604051610f069190612401565b60405180910390f35b610f176122ad565b604051610f249190612401565b60405180910390f35b610f356122e6565b604051610f429190612401565b60405180910390f35b610f5361231f565b604051610f609190612401565b60405180910390f35b610f71612358565b604051610f7e9190612401565b60405180910390f35b6040518060400160405280600281526020017f313800000000000000000000000000000000000000000000000000000000000081525081565b6040518060400160405280600181526020017f390000000000000000000000000000000000000000000000000000000000000081525081565b6040518060400160405280600281526020017f313400000000000000000000000000000000000000000000000000000000000081525081565b6040518060400160405280600281526020017f383600000000000000000000000000000000000000000000000000000000000081525081565b6040518060400160405280600281526020017f383800000000000000000000000000000000000000000000000000000000000081525081565b6040518060400160405280600281526020017f383700000000000000000000000000000000000000000000000000000000000081525081565b6040518060400160405280600281526020017f343700000000000000000000000000000000000000000000000000000000000081525081565b6040518060400160405280600281526020017f363900000000000000000000000000000000000000000000000000000000000081525081565b6040518060400160405280600181526020017f330000000000000000000000000000000000000000000000000000000000000081525081565b6040518060400160405280600281526020017f343400000000000000000000000000000000000000000000000000000000000081525081565b6040518060400160405280600181526020017f350000000000000000000000000000000000000000000000000000000000000081525081565b6040518060400160405280600281526020017f353000000000000000000000000000000000000000000000000000000000000081525081565b6040518060400160405280600281526020017f323000000000000000000000000000000000000000000000000000000000000081525081565b6040518060400160405280600281526020017f333500000000000000000000000000000000000000000000000000000000000081525081565b6040518060400160405280600281526020017f313200000000000000000000000000000000000000000000000000000000000081525081565b6040518060400160405280600281526020017f323300000000000000000000000000000000000000000000000000000000000081525081565b6040518060400160405280600281526020017f373200000000000000000000000000000000000000000000000000000000000081525081565b6040518060400160405280600281526020017f323100000000000000000000000000000000000000000000000000000000000081525081565b6040518060400160405280600281526020017f363200000000000000000000000000000000000000000000000000000000000081525081565b6040518060400160405280600181526020017f320000000000000000000000000000000000000000000000000000000000000081525081565b6040518060400160405280600281526020017f333100000000000000000000000000000000000000000000000000000000000081525081565b6040518060400160405280600281526020017f333400000000000000000000000000000000000000000000000000000000000081525081565b6040518060400160405280600281526020017f383300000000000000000000000000000000000000000000000000000000000081525081565b6040518060400160405280600281526020017f333000000000000000000000000000000000000000000000000000000000000081525081565b6040518060400160405280600181526020017f360000000000000000000000000000000000000000000000000000000000000081525081565b6040518060400160405280600281526020017f323500000000000000000000000000000000000000000000000000000000000081525081565b6040518060400160405280600281526020017f323700000000000000000000000000000000000000000000000000000000000081525081565b6040518060400160405280600281526020017f313700000000000000000000000000000000000000000000000000000000000081525081565b6040518060400160405280600181526020017f380000000000000000000000000000000000000000000000000000000000000081525081565b6040518060400160405280600281526020017f313000000000000000000000000000000000000000000000000000000000000081525081565b6040518060400160405280600281526020017f353300000000000000000000000000000000000000000000000000000000000081525081565b6040518060400160405280600281526020017f353500000000000000000000000000000000000000000000000000000000000081525081565b6040518060400160405280600281526020017f353200000000000000000000000000000000000000000000000000000000000081525081565b6040518060400160405280600281526020017f323800000000000000000000000000000000000000000000000000000000000081525081565b6040518060400160405280600281526020017f343000000000000000000000000000000000000000000000000000000000000081525081565b6040518060400160405280600281526020017f343900000000000000000000000000000000000000000000000000000000000081525081565b6040518060400160405280600281526020017f343100000000000000000000000000000000000000000000000000000000000081525081565b6040518060400160405280600281526020017f313900000000000000000000000000000000000000000000000000000000000081525081565b6040518060400160405280600281526020017f313500000000000000000000000000000000000000000000000000000000000081525081565b6040518060400160405280600281526020017f323200000000000000000000000000000000000000000000000000000000000081525081565b6040518060400160405280600281526020017f313300000000000000000000000000000000000000000000000000000000000081525081565b6040518060400160405280600281526020017f363000000000000000000000000000000000000000000000000000000000000081525081565b6040518060400160405280600281526020017f343600000000000000000000000000000000000000000000000000000000000081525081565b6040518060400160405280600281526020017f333300000000000000000000000000000000000000000000000000000000000081525081565b6040518060400160405280600281526020017f333700000000000000000000000000000000000000000000000000000000000081525081565b6040518060400160405280600281526020017f393100000000000000000000000000000000000000000000000000000000000081525081565b6040518060400160405280600281526020017f383000000000000000000000000000000000000000000000000000000000000081525081565b6040518060400160405280600281526020017f373000000000000000000000000000000000000000000000000000000000000081525081565b6040518060400160405280600281526020017f353800000000000000000000000000000000000000000000000000000000000081525081565b6040518060400160405280600281526020017f353400000000000000000000000000000000000000000000000000000000000081525081565b6040518060400160405280600281526020017f343500000000000000000000000000000000000000000000000000000000000081525081565b6040518060400160405280600281526020017f363500000000000000000000000000000000000000000000000000000000000081525081565b6040518060400160405280600281526020017f363300000000000000000000000000000000000000000000000000000000000081525081565b6040518060400160405280600281526020017f343300000000000000000000000000000000000000000000000000000000000081525081565b6040518060400160405280600281526020017f313100000000000000000000000000000000000000000000000000000000000081525081565b6040518060400160405280600281526020017f373900000000000000000000000000000000000000000000000000000000000081525081565b6040518060400160405280600281526020017f363700000000000000000000000000000000000000000000000000000000000081525081565b6040518060400160405280600281526020017f373100000000000000000000000000000000000000000000000000000000000081525081565b6040518060400160405280600281526020017f383500000000000000000000000000000000000000000000000000000000000081525081565b6040518060400160405280600281526020017f323400000000000000000000000000000000000000000000000000000000000081525081565b6040518060400160405280600181526020017f310000000000000000000000000000000000000000000000000000000000000081525081565b6040518060400160405280600281526020017f353100000000000000000000000000000000000000000000000000000000000081525081565b6040518060400160405280600281526020017f343200000000000000000000000000000000000000000000000000000000000081525081565b6040518060400160405280600181526020017f340000000000000000000000000000000000000000000000000000000000000081525081565b6040518060400160405280600281526020017f323900000000000000000000000000000000000000000000000000000000000081525081565b6040518060400160405280600281526020017f333200000000000000000000000000000000000000000000000000000000000081525081565b6040518060400160405280600281526020017f353700000000000000000000000000000000000000000000000000000000000081525081565b6040518060400160405280600281526020017f373600000000000000000000000000000000000000000000000000000000000081525081565b6040518060400160405280600281526020017f373800000000000000000000000000000000000000000000000000000000000081525081565b6040518060400160405280600281526020017f353900000000000000000000000000000000000000000000000000000000000081525081565b6040518060400160405280600281526020017f383400000000000000000000000000000000000000000000000000000000000081525081565b6040518060400160405280600281526020017f383200000000000000000000000000000000000000000000000000000000000081525081565b6040518060400160405280600281526020017f373700000000000000000000000000000000000000000000000000000000000081525081565b6040518060400160405280600281526020017f373400000000000000000000000000000000000000000000000000000000000081525081565b6040518060400160405280600281526020017f363800000000000000000000000000000000000000000000000000000000000081525081565b6040518060400160405280600281526020017f363100000000000000000000000000000000000000000000000000000000000081525081565b6040518060400160405280600281526020017f333900000000000000000000000000000000000000000000000000000000000081525081565b6040518060400160405280600281526020017f373300000000000000000000000000000000000000000000000000000000000081525081565b6040518060400160405280600281526020017f363400000000000000000000000000000000000000000000000000000000000081525081565b6040518060400160405280600281526020017f383900000000000000000000000000000000000000000000000000000000000081525081565b6040518060400160405280600181526020017f370000000000000000000000000000000000000000000000000000000000000081525081565b6040518060400160405280600281526020017f333600000000000000000000000000000000000000000000000000000000000081525081565b6040518060400160405280600281526020017f383100000000000000000000000000000000000000000000000000000000000081525081565b6040518060400160405280600281526020017f393000000000000000000000000000000000000000000000000000000000000081525081565b6040518060400160405280600281526020017f333800000000000000000000000000000000000000000000000000000000000081525081565b6040518060400160405280600281526020017f353600000000000000000000000000000000000000000000000000000000000081525081565b6040518060400160405280600281526020017f313600000000000000000000000000000000000000000000000000000000000081525081565b6040518060400160405280600281526020017f363600000000000000000000000000000000000000000000000000000000000081525081565b6040518060400160405280600281526020017f323600000000000000000000000000000000000000000000000000000000000081525081565b6040518060400160405280600281526020017f373500000000000000000000000000000000000000000000000000000000000081525081565b5f81519050919050565b5f82825260208201905092915050565b8281835e5f83830152505050565b5f601f19601f8301169050919050565b5f6123d382612391565b6123dd818561239b565b93506123ed8185602086016123ab565b6123f6816123b9565b840191505092915050565b5f6020820190508181035f83015261241981846123c9565b90509291505056fea264697066735822122069e6e4f65b77eb415f3332366e90814a95f6d6c3395cad238b372aec9653830364736f6c634300081a0033",
					"opcodes": "PUSH2 0x2457 PUSH2 0x4D PUSH1 0xB DUP3 DUP3 DUP3 CODECOPY DUP1 MLOAD PUSH0 BYTE PUSH1 0x73 EQ PUSH1 0x41 JUMPI PUSH32 0x4E487B7100000000000000000000000000000000000000000000000000000000 PUSH0 MSTORE PUSH0 PUSH1 0x4 MSTORE PUSH1 0x24 PUSH0 REVERT JUMPDEST ADDRESS PUSH0 MSTORE PUSH1 0x73 DUP2 MSTORE8 DUP3 DUP2 RETURN INVALID PUSH20 0x0 ADDRESS EQ PUSH1 0x80 PUSH1 0x40 MSTORE PUSH1 0x4 CALLDATASIZE LT PUSH2 0x4F7 JUMPI PUSH0 CALLDATALOAD PUSH1 0xE0 SHR DUP1 PUSH4 0x8AA3CA4C GT PUSH2 0x297 JUMPI DUP1 PUSH4 0xBAD8308C GT PUSH2 0x170 JUMPI DUP1 PUSH4 0xDD1DD95F GT PUSH2 0xE2 JUMPI DUP1 PUSH4 0xF07F6785 GT PUSH2 0x9B JUMPI DUP1 PUSH4 0xF07F6785 EQ PUSH2 0xED3 JUMPI DUP1 PUSH4 0xF10727DB EQ PUSH2 0xEF1 JUMPI DUP1 PUSH4 0xF479EA11 EQ PUSH2 0xF0F JUMPI DUP1 PUSH4 0xFA163A83 EQ PUSH2 0xF2D JUMPI DUP1 PUSH4 0xFAE82791 EQ PUSH2 0xF4B JUMPI DUP1 PUSH4 0xFD1828FF EQ PUSH2 0xF69 JUMPI PUSH2 0x4F7 JUMP JUMPDEST DUP1 PUSH4 0xDD1DD95F EQ PUSH2 0xE1F JUMPI DUP1 PUSH4 0xDE24948C EQ PUSH2 0xE3D JUMPI DUP1 PUSH4 0xE02F07EE EQ PUSH2 0xE5B JUMPI DUP1 PUSH4 0xE3FA20F5 EQ PUSH2 0xE79 JUMPI DUP1 PUSH4 0xE4DD8B74 EQ PUSH2 0xE97 JUMPI DUP1 PUSH4 0xE981483A EQ PUSH2 0xEB5 JUMPI PUSH2 0x4F7 JUMP JUMPDEST DUP1 PUSH4 0xD14BB17A GT PUSH2 0x134 JUMPI DUP1 PUSH4 0xD14BB17A EQ PUSH2 0xD6B JUMPI DUP1 PUSH4 0xD1CD8B1D EQ PUSH2 0xD89 JUMPI DUP1 PUSH4 0xD6F9FCDE EQ PUSH2 0xDA7 JUMPI DUP1 PUSH4 0xD9ADDA85 EQ PUSH2 0xDC5 JUMPI DUP1 PUSH4 0xDC191BD9 EQ PUSH2 0xDE3 JUMPI DUP1 PUSH4 0xDCC56DB6 EQ PUSH2 0xE01 JUMPI PUSH2 0x4F7 JUMP JUMPDEST DUP1 PUSH4 0xBAD8308C EQ PUSH2 0xCD5 JUMPI DUP1 PUSH4 0xC08A1146 EQ PUSH2 0xCF3 JUMPI DUP1 PUSH4 0xC8638082 EQ PUSH2 0xD11 JUMPI DUP1 PUSH4 0xC899301A EQ PUSH2 0xD2F JUMPI DUP1 PUSH4 0xCD23367C EQ PUSH2 0xD4D JUMPI PUSH2 0x4F7 JUMP JUMPDEST DUP1 PUSH4 0xA4868DCA GT PUSH2 0x209 JUMPI DUP1 PUSH4 0xB0510054 GT PUSH2 0x1CD JUMPI DUP1 PUSH4 0xB0510054 EQ PUSH2 0xC21 JUMPI DUP1 PUSH4 0xB4A45730 EQ PUSH2 0xC3F JUMPI DUP1 PUSH4 0xB5E79366 EQ PUSH2 0xC5D JUMPI DUP1 PUSH4 0xB68774E9 EQ PUSH2 0xC7B JUMPI DUP1 PUSH4 0xB7F5E224 EQ PUSH2 0xC99 JUMPI DUP1 PUSH4 0xB87041C2 EQ PUSH2 0xCB7 JUMPI PUSH2 0x4F7 JUMP JUMPDEST DUP1 PUSH4 0xA4868DCA EQ PUSH2 0xB8B JUMPI DUP1 PUSH4 0xA8C97853 EQ PUSH2 0xBA9 JUMPI DUP1 PUSH4 0xAB883CA0 EQ PUSH2 0xBC7 JUMPI DUP1 PUSH4 0xABD351B1 EQ PUSH2 0xBE5 JUMPI DUP1 PUSH4 0xAC753236 EQ PUSH2 0xC03 JUMPI PUSH2 0x4F7 JUMP JUMPDEST DUP1 PUSH4 0x952633C5 GT PUSH2 0x25B JUMPI DUP1 PUSH4 0x952633C5 EQ PUSH2 0xAD7 JUMPI DUP1 PUSH4 0x9527E9D9 EQ PUSH2 0xAF5 JUMPI DUP1 PUSH4 0x99CE53F3 EQ PUSH2 0xB13 JUMPI DUP1 PUSH4 0xA2797C80 EQ PUSH2 0xB31 JUMPI DUP1 PUSH4 0xA2E976C6 EQ PUSH2 0xB4F JUMPI DUP1 PUSH4 0xA3402A38 EQ PUSH2 0xB6D JUMPI PUSH2 0x4F7 JUMP JUMPDEST DUP1 PUSH4 0x8AA3CA4C EQ PUSH2 0xA41 JUMPI DUP1 PUSH4 0x8B8B98D7 EQ PUSH2 0xA5F JUMPI DUP1 PUSH4 0x8EDA46BD EQ PUSH2 0xA7D JUMPI DUP1 PUSH4 0x8F7722B2 EQ PUSH2 0xA9B JUMPI DUP1 PUSH4 0x94F9FD8A EQ PUSH2 0xAB9 JUMPI PUSH2 0x4F7 JUMP JUMPDEST DUP1 PUSH4 0x4E3AED37 GT PUSH2 0x3D4 JUMPI DUP1 PUSH4 0x6CD3CFBC GT PUSH2 0x346 JUMPI DUP1 PUSH4 0x7AA0767E GT PUSH2 0x2FF JUMPI DUP1 PUSH4 0x7AA0767E EQ PUSH2 0x98D JUMPI DUP1 PUSH4 0x7FEA6F36 EQ PUSH2 0x9AB JUMPI DUP1 PUSH4 0x8596AAD5 EQ PUSH2 0x9C9 JUMPI DUP1 PUSH4 0x895F7DC8 EQ PUSH2 0x9E7 JUMPI DUP1 PUSH4 0x89C5D45F EQ PUSH2 0xA05 JUMPI DUP1 PUSH4 0x8A344000 EQ PUSH2 0xA23 JUMPI PUSH2 0x4F7 JUMP JUMPDEST DUP1 PUSH4 0x6CD3CFBC EQ PUSH2 0x8D9 JUMPI DUP1 PUSH4 0x712F536A EQ PUSH2 0x8F7 JUMPI DUP1 PUSH4 0x73DEA5E3 EQ PUSH2 0x915 JUMPI DUP1 PUSH4 0x74459B14 EQ PUSH2 0x933 JUMPI DUP1 PUSH4 0x747FA556 EQ PUSH2 0x951 JUMPI DUP1 PUSH4 0x76AE8FCA EQ PUSH2 0x96F JUMPI PUSH2 0x4F7 JUMP JUMPDEST DUP1 PUSH4 0x5D9C76C0 GT PUSH2 0x398 JUMPI DUP1 PUSH4 0x5D9C76C0 EQ PUSH2 0x825 JUMPI DUP1 PUSH4 0x60C3DE80 EQ PUSH2 0x843 JUMPI DUP1 PUSH4 0x61C111D2 EQ PUSH2 0x861 JUMPI DUP1 PUSH4 0x65A83BAB EQ PUSH2 0x87F JUMPI DUP1 PUSH4 0x65E7EF4C EQ PUSH2 0x89D JUMPI DUP1 PUSH4 0x6B3F7CC7 EQ PUSH2 0x8BB JUMPI PUSH2 0x4F7 JUMP JUMPDEST DUP1 PUSH4 0x4E3AED37 EQ PUSH2 0x78F JUMPI DUP1 PUSH4 0x4EF999FF EQ PUSH2 0x7AD JUMPI DUP1 PUSH4 0x4F77647B EQ PUSH2 0x7CB JUMPI DUP1 PUSH4 0x51267450 EQ PUSH2 0x7E9 JUMPI DUP1 PUSH4 0x52BA9DBE EQ PUSH2 0x807 JUMPI PUSH2 0x4F7 JUMP JUMPDEST DUP1 PUSH4 0x2EED17E8 GT PUSH2 0x46D JUMPI DUP1 PUSH4 0x47BA93D8 GT PUSH2 0x431 JUMPI DUP1 PUSH4 0x47BA93D8 EQ PUSH2 0x6DB JUMPI DUP1 PUSH4 0x47CF1523 EQ PUSH2 0x6F9 JUMPI DUP1 PUSH4 0x480702AE EQ PUSH2 0x717 JUMPI DUP1 PUSH4 0x485C8FF6 EQ PUSH2 0x735 JUMPI DUP1 PUSH4 0x4D86F393 EQ PUSH2 0x753 JUMPI DUP1 PUSH4 0x4E01E3C1 EQ PUSH2 0x771 JUMPI PUSH2 0x4F7 JUMP JUMPDEST DUP1 PUSH4 0x2EED17E8 EQ PUSH2 0x645 JUMPI DUP1 PUSH4 0x335763DE EQ PUSH2 0x663 JUMPI DUP1 PUSH4 0x366EB54D EQ PUSH2 0x681 JUMPI DUP1 PUSH4 0x37930782 EQ PUSH2 0x69F JUMPI DUP1 PUSH4 0x471DF685 EQ PUSH2 0x6BD JUMPI PUSH2 0x4F7 JUMP JUMPDEST DUP1 PUSH4 0x1ABBB001 GT PUSH2 0x4BF JUMPI DUP1 PUSH4 0x1ABBB001 EQ PUSH2 0x591 JUMPI DUP1 PUSH4 0x22A73446 EQ PUSH2 0x5AF JUMPI DUP1 PUSH4 0x26BBD053 EQ PUSH2 0x5CD JUMPI DUP1 PUSH4 0x26E7B312 EQ PUSH2 0x5EB JUMPI DUP1 PUSH4 0x2926C971 EQ PUSH2 0x609 JUMPI DUP1 PUSH4 0x2C8E3B4C EQ PUSH2 0x627 JUMPI PUSH2 0x4F7 JUMP JUMPDEST DUP1 PUSH4 0x84DFA0D EQ PUSH2 0x4FB JUMPI DUP1 PUSH4 0x11D7B006 EQ PUSH2 0x519 JUMPI DUP1 PUSH4 0x12DCADE8 EQ PUSH2 0x537 JUMPI DUP1 PUSH4 0x14DCFBBC EQ PUSH2 0x555 JUMPI DUP1 PUSH4 0x198D6A6B EQ PUSH2 0x573 JUMPI JUMPDEST PUSH0 DUP1 REVERT JUMPDEST PUSH2 0x503 PUSH2 0xF87 JUMP JUMPDEST PUSH1 0x40 MLOAD PUSH2 0x510 SWAP2 SWAP1 PUSH2 0x2401 JUMP JUMPDEST PUSH1 0x40 MLOAD DUP1 SWAP2 SUB SWAP1 RETURN JUMPDEST PUSH2 0x521 PUSH2 0xFC0 JUMP JUMPDEST PUSH1 0x40 MLOAD PUSH2 0x52E SWAP2 SWAP1 PUSH2 0x2401 JUMP JUMPDEST PUSH1 0x40 MLOAD DUP1 SWAP2 SUB SWAP1 RETURN JUMPDEST PUSH2 0x53F PUSH2 0xFF9 JUMP JUMPDEST PUSH1 0x40 MLOAD PUSH2 0x54C SWAP2 SWAP1 PUSH2 0x2401 JUMP JUMPDEST PUSH1 0x40 MLOAD DUP1 SWAP2 SUB SWAP1 RETURN JUMPDEST PUSH2 0x55D PUSH2 0x1032 JUMP JUMPDEST PUSH1 0x40 MLOAD PUSH2 0x56A SWAP2 SWAP1 PUSH2 0x2401 JUMP JUMPDEST PUSH1 0x40 MLOAD DUP1 SWAP2 SUB SWAP1 RETURN JUMPDEST PUSH2 0x57B PUSH2 0x106B JUMP JUMPDEST PUSH1 0x40 MLOAD PUSH2 0x588 SWAP2 SWAP1 PUSH2 0x2401 JUMP JUMPDEST PUSH1 0x40 MLOAD DUP1 SWAP2 SUB SWAP1 RETURN JUMPDEST PUSH2 0x599 PUSH2 0x10A4 JUMP JUMPDEST PUSH1 0x40 MLOAD PUSH2 0x5A6 SWAP2 SWAP1 PUSH2 0x2401 JUMP JUMPDEST PUSH1 0x40 MLOAD DUP1 SWAP2 SUB SWAP1 RETURN JUMPDEST PUSH2 0x5B7 PUSH2 0x10DD JUMP JUMPDEST PUSH1 0x40 MLOAD PUSH2 0x5C4 SWAP2 SWAP1 PUSH2 0x2401 JUMP JUMPDEST PUSH1 0x40 MLOAD DUP1 SWAP2 SUB SWAP1 RETURN JUMPDEST PUSH2 0x5D5 PUSH2 0x1116 JUMP JUMPDEST PUSH1 0x40 MLOAD PUSH2 0x5E2 SWAP2 SWAP1 PUSH2 0x2401 JUMP JUMPDEST PUSH1 0x40 MLOAD DUP1 SWAP2 SUB SWAP1 RETURN JUMPDEST PUSH2 0x5F3 PUSH2 0x114F JUMP JUMPDEST PUSH1 0x40 MLOAD PUSH2 0x600 SWAP2 SWAP1 PUSH2 0x2401 JUMP JUMPDEST PUSH1 0x40 MLOAD DUP1 SWAP2 SUB SWAP1 RETURN JUMPDEST PUSH2 0x611 PUSH2 0x1188 JUMP JUMPDEST PUSH1 0x40 MLOAD PUSH2 0x61E SWAP2 SWAP1 PUSH2 0x2401 JUMP JUMPDEST PUSH1 0x40 MLOAD DUP1 SWAP2 SUB SWAP1 RETURN JUMPDEST PUSH2 0x62F PUSH2 0x11C1 JUMP JUMPDEST PUSH1 0x40 MLOAD PUSH2 0x63C SWAP2 SWAP1 PUSH2 0x2401 JUMP JUMPDEST PUSH1 0x40 MLOAD DUP1 SWAP2 SUB SWAP1 RETURN JUMPDEST PUSH2 0x64D PUSH2 0x11FA JUMP JUMPDEST PUSH1 0x40 MLOAD PUSH2 0x65A SWAP2 SWAP1 PUSH2 0x2401 JUMP JUMPDEST PUSH1 0x40 MLOAD DUP1 SWAP2 SUB SWAP1 RETURN JUMPDEST PUSH2 0x66B PUSH2 0x1233 JUMP JUMPDEST PUSH1 0x40 MLOAD PUSH2 0x678 SWAP2 SWAP1 PUSH2 0x2401 JUMP JUMPDEST PUSH1 0x40 MLOAD DUP1 SWAP2 SUB SWAP1 RETURN JUMPDEST PUSH2 0x689 PUSH2 0x126C JUMP JUMPDEST PUSH1 0x40 MLOAD PUSH2 0x696 SWAP2 SWAP1 PUSH2 0x2401 JUMP JUMPDEST PUSH1 0x40 MLOAD DUP1 SWAP2 SUB SWAP1 RETURN JUMPDEST PUSH2 0x6A7 PUSH2 0x12A5 JUMP JUMPDEST PUSH1 0x40 MLOAD PUSH2 0x6B4 SWAP2 SWAP1 PUSH2 0x2401 JUMP JUMPDEST PUSH1 0x40 MLOAD DUP1 SWAP2 SUB SWAP1 RETURN JUMPDEST PUSH2 0x6C5 PUSH2 0x12DE JUMP JUMPDEST PUSH1 0x40 MLOAD PUSH2 0x6D2 SWAP2 SWAP1 PUSH2 0x2401 JUMP JUMPDEST PUSH1 0x40 MLOAD DUP1 SWAP2 SUB SWAP1 RETURN JUMPDEST PUSH2 0x6E3 PUSH2 0x1317 JUMP JUMPDEST PUSH1 0x40 MLOAD PUSH2 0x6F0 SWAP2 SWAP1 PUSH2 0x2401 JUMP JUMPDEST PUSH1 0x40 MLOAD DUP1 SWAP2 SUB SWAP1 RETURN JUMPDEST PUSH2 0x701 PUSH2 0x1350 JUMP JUMPDEST PUSH1 0x40 MLOAD PUSH2 0x70E SWAP2 SWAP1 PUSH2 0x2401 JUMP JUMPDEST PUSH1 0x40 MLOAD DUP1 SWAP2 SUB SWAP1 RETURN JUMPDEST PUSH2 0x71F PUSH2 0x1389 JUMP JUMPDEST PUSH1 0x40 MLOAD PUSH2 0x72C SWAP2 SWAP1 PUSH2 0x2401 JUMP JUMPDEST PUSH1 0x40 MLOAD DUP1 SWAP2 SUB SWAP1 RETURN JUMPDEST PUSH2 0x73D PUSH2 0x13C2 JUMP JUMPDEST PUSH1 0x40 MLOAD PUSH2 0x74A SWAP2 SWAP1 PUSH2 0x2401 JUMP JUMPDEST PUSH1 0x40 MLOAD DUP1 SWAP2 SUB SWAP1 RETURN JUMPDEST PUSH2 0x75B PUSH2 0x13FB JUMP JUMPDEST PUSH1 0x40 MLOAD PUSH2 0x768 SWAP2 SWAP1 PUSH2 0x2401 JUMP JUMPDEST PUSH1 0x40 MLOAD DUP1 SWAP2 SUB SWAP1 RETURN JUMPDEST PUSH2 0x779 PUSH2 0x1434 JUMP JUMPDEST PUSH1 0x40 MLOAD PUSH2 0x786 SWAP2 SWAP1 PUSH2 0x2401 JUMP JUMPDEST PUSH1 0x40 MLOAD DUP1 SWAP2 SUB SWAP1 RETURN JUMPDEST PUSH2 0x797 PUSH2 0x146D JUMP JUMPDEST PUSH1 0x40 MLOAD PUSH2 0x7A4 SWAP2 SWAP1 PUSH2 0x2401 JUMP JUMPDEST PUSH1 0x40 MLOAD DUP1 SWAP2 SUB SWAP1 RETURN JUMPDEST PUSH2 0x7B5 PUSH2 0x14A6 JUMP JUMPDEST PUSH1 0x40 MLOAD PUSH2 0x7C2 SWAP2 SWAP1 PUSH2 0x2401 JUMP JUMPDEST PUSH1 0x40 MLOAD DUP1 SWAP2 SUB SWAP1 RETURN JUMPDEST PUSH2 0x7D3 PUSH2 0x14DF JUMP JUMPDEST PUSH1 0x40 MLOAD PUSH2 0x7E0 SWAP2 SWAP1 PUSH2 0x2401 JUMP JUMPDEST PUSH1 0x40 MLOAD DUP1 SWAP2 SUB SWAP1 RETURN JUMPDEST PUSH2 0x7F1 PUSH2 0x1518 JUMP JUMPDEST PUSH1 0x40 MLOAD PUSH2 0x7FE SWAP2 SWAP1 PUSH2 0x2401 JUMP JUMPDEST PUSH1 0x40 MLOAD DUP1 SWAP2 SUB SWAP1 RETURN JUMPDEST PUSH2 0x80F PUSH2 0x1551 JUMP JUMPDEST PUSH1 0x40 MLOAD PUSH2 0x81C SWAP2 SWAP1 PUSH2 0x2401 JUMP JUMPDEST PUSH1 0x40 MLOAD DUP1 SWAP2 SUB SWAP1 RETURN JUMPDEST PUSH2 0x82D PUSH2 0x158A JUMP JUMPDEST PUSH1 0x40 MLOAD PUSH2 0x83A SWAP2 SWAP1 PUSH2 0x2401 JUMP JUMPDEST PUSH1 0x40 MLOAD DUP1 SWAP2 SUB SWAP1 RETURN JUMPDEST PUSH2 0x84B PUSH2 0x15C3 JUMP JUMPDEST PUSH1 0x40 MLOAD PUSH2 0x858 SWAP2 SWAP1 PUSH2 0x2401 JUMP JUMPDEST PUSH1 0x40 MLOAD DUP1 SWAP2 SUB SWAP1 RETURN JUMPDEST PUSH2 0x869 PUSH2 0x15FC JUMP JUMPDEST PUSH1 0x40 MLOAD PUSH2 0x876 SWAP2 SWAP1 PUSH2 0x2401 JUMP JUMPDEST PUSH1 0x40 MLOAD DUP1 SWAP2 SUB SWAP1 RETURN JUMPDEST PUSH2 0x887 PUSH2 0x1635 JUMP JUMPDEST PUSH1 0x40 MLOAD PUSH2 0x894 SWAP2 SWAP1 PUSH2 0x2401 JUMP JUMPDEST PUSH1 0x40 MLOAD DUP1 SWAP2 SUB SWAP1 RETURN JUMPDEST PUSH2 0x8A5 PUSH2 0x166E JUMP JUMPDEST PUSH1 0x40 MLOAD PUSH2 0x8B2 SWAP2 SWAP1 PUSH2 0x2401 JUMP JUMPDEST PUSH1 0x40 MLOAD DUP1 SWAP2 SUB SWAP1 RETURN JUMPDEST PUSH2 0x8C3 PUSH2 0x16A7 JUMP JUMPDEST PUSH1 0x40 MLOAD PUSH2 0x8D0 SWAP2 SWAP1 PUSH2 0x2401 JUMP JUMPDEST PUSH1 0x40 MLOAD DUP1 SWAP2 SUB SWAP1 RETURN JUMPDEST PUSH2 0x8E1 PUSH2 0x16E0 JUMP JUMPDEST PUSH1 0x40 MLOAD PUSH2 0x8EE SWAP2 SWAP1 PUSH2 0x2401 JUMP JUMPDEST PUSH1 0x40 MLOAD DUP1 SWAP2 SUB SWAP1 RETURN JUMPDEST PUSH2 0x8FF PUSH2 0x1719 JUMP JUMPDEST PUSH1 0x40 MLOAD PUSH2 0x90C SWAP2 SWAP1 PUSH2 0x2401 JUMP JUMPDEST PUSH1 0x40 MLOAD DUP1 SWAP2 SUB SWAP1 RETURN JUMPDEST PUSH2 0x91D PUSH2 0x1752 JUMP JUMPDEST PUSH1 0x40 MLOAD PUSH2 0x92A SWAP2 SWAP1 PUSH2 0x2401 JUMP JUMPDEST PUSH1 0x40 MLOAD DUP1 SWAP2 SUB SWAP1 RETURN JUMPDEST PUSH2 0x93B PUSH2 0x178B JUMP JUMPDEST PUSH1 0x40 MLOAD PUSH2 0x948 SWAP2 SWAP1 PUSH2 0x2401 JUMP JUMPDEST PUSH1 0x40 MLOAD DUP1 SWAP2 SUB SWAP1 RETURN JUMPDEST PUSH2 0x959 PUSH2 0x17C4 JUMP JUMPDEST PUSH1 0x40 MLOAD PUSH2 0x966 SWAP2 SWAP1 PUSH2 0x2401 JUMP JUMPDEST PUSH1 0x40 MLOAD DUP1 SWAP2 SUB SWAP1 RETURN JUMPDEST PUSH2 0x977 PUSH2 0x17FD JUMP JUMPDEST PUSH1 0x40 MLOAD PUSH2 0x984 SWAP2 SWAP1 PUSH2 0x2401 JUMP JUMPDEST PUSH1 0x40 MLOAD DUP1 SWAP2 SUB SWAP1 RETURN JUMPDEST PUSH2 0x995 PUSH2 0x1836 JUMP JUMPDEST PUSH1 0x40 MLOAD PUSH2 0x9A2 SWAP2 SWAP1 PUSH2 0x2401 JUMP JUMPDEST PUSH1 0x40 MLOAD DUP1 SWAP2 SUB SWAP1 RETURN JUMPDEST PUSH2 0x9B3 PUSH2 0x186F JUMP JUMPDEST PUSH1 0x40 MLOAD PUSH2 0x9C0 SWAP2 SWAP1 PUSH2 0x2401 JUMP JUMPDEST PUSH1 0x40 MLOAD DUP1 SWAP2 SUB SWAP1 RETURN JUMPDEST PUSH2 0x9D1 PUSH2 0x18A8 JUMP JUMPDEST PUSH1 0x40 MLOAD PUSH2 0x9DE SWAP2 SWAP1 PUSH2 0x2401 JUMP JUMPDEST PUSH1 0x40 MLOAD DUP1 SWAP2 SUB SWAP1 RETURN JUMPDEST PUSH2 0x9EF PUSH2 0x18E1 JUMP JUMPDEST PUSH1 0x40 MLOAD PUSH2 0x9FC SWAP2 SWAP1 PUSH2 0x2401 JUMP JUMPDEST PUSH1 0x40 MLOAD DUP1 SWAP2 SUB SWAP1 RETURN JUMPDEST PUSH2 0xA0D PUSH2 0x191A JUMP JUMPDEST PUSH1 0x40 MLOAD PUSH2 0xA1A SWAP2 SWAP1 PUSH2 0x2401 JUMP JUMPDEST PUSH1 0x40 MLOAD DUP1 SWAP2 SUB SWAP1 RETURN JUMPDEST PUSH2 0xA2B PUSH2 0x1953 JUMP JUMPDEST PUSH1 0x40 MLOAD PUSH2 0xA38 SWAP2 SWAP1 PUSH2 0x2401 JUMP JUMPDEST PUSH1 0x40 MLOAD DUP1 SWAP2 SUB SWAP1 RETURN JUMPDEST PUSH2 0xA49 PUSH2 0x198C JUMP JUMPDEST PUSH1 0x40 MLOAD PUSH2 0xA56 SWAP2 SWAP1 PUSH2 0x2401 JUMP JUMPDEST PUSH1 0x40 MLOAD DUP1 SWAP2 SUB SWAP1 RETURN JUMPDEST PUSH2 0xA67 PUSH2 0x19C5 JUMP JUMPDEST PUSH1 0x40 MLOAD PUSH2 0xA74 SWAP2 SWAP1 PUSH2 0x2401 JUMP JUMPDEST PUSH1 0x40 MLOAD DUP1 SWAP2 SUB SWAP1 RETURN JUMPDEST PUSH2 0xA85 PUSH2 0x19FE JUMP JUMPDEST PUSH1 0x40 MLOAD PUSH2 0xA92 SWAP2 SWAP1 PUSH2 0x2401 JUMP JUMPDEST PUSH1 0x40 MLOAD DUP1 SWAP2 SUB SWAP1 RETURN JUMPDEST PUSH2 0xAA3 PUSH2 0x1A37 JUMP JUMPDEST PUSH1 0x40 MLOAD PUSH2 0xAB0 SWAP2 SWAP1 PUSH2 0x2401 JUMP JUMPDEST PUSH1 0x40 MLOAD DUP1 SWAP2 SUB SWAP1 RETURN JUMPDEST PUSH2 0xAC1 PUSH2 0x1A70 JUMP JUMPDEST PUSH1 0x40 MLOAD PUSH2 0xACE SWAP2 SWAP1 PUSH2 0x2401 JUMP JUMPDEST PUSH1 0x40 MLOAD DUP1 SWAP2 SUB SWAP1 RETURN JUMPDEST PUSH2 0xADF PUSH2 0x1AA9 JUMP JUMPDEST PUSH1 0x40 MLOAD PUSH2 0xAEC SWAP2 SWAP1 PUSH2 0x2401 JUMP JUMPDEST PUSH1 0x40 MLOAD DUP1 SWAP2 SUB SWAP1 RETURN JUMPDEST PUSH2 0xAFD PUSH2 0x1AE2 JUMP JUMPDEST PUSH1 0x40 MLOAD PUSH2 0xB0A SWAP2 SWAP1 PUSH2 0x2401 JUMP JUMPDEST PUSH1 0x40 MLOAD DUP1 SWAP2 SUB SWAP1 RETURN JUMPDEST PUSH2 0xB1B PUSH2 0x1B1B JUMP JUMPDEST PUSH1 0x40 MLOAD PUSH2 0xB28 SWAP2 SWAP1 PUSH2 0x2401 JUMP JUMPDEST PUSH1 0x40 MLOAD DUP1 SWAP2 SUB SWAP1 RETURN JUMPDEST PUSH2 0xB39 PUSH2 0x1B54 JUMP JUMPDEST PUSH1 0x40 MLOAD PUSH2 0xB46 SWAP2 SWAP1 PUSH2 0x2401 JUMP JUMPDEST PUSH1 0x40 MLOAD DUP1 SWAP2 SUB SWAP1 RETURN JUMPDEST PUSH2 0xB57 PUSH2 0x1B8D JUMP JUMPDEST PUSH1 0x40 MLOAD PUSH2 0xB64 SWAP2 SWAP1 PUSH2 0x2401 JUMP JUMPDEST PUSH1 0x40 MLOAD DUP1 SWAP2 SUB SWAP1 RETURN JUMPDEST PUSH2 0xB75 PUSH2 0x1BC6 JUMP JUMPDEST PUSH1 0x40 MLOAD PUSH2 0xB82 SWAP2 SWAP1 PUSH2 0x2401 JUMP JUMPDEST PUSH1 0x40 MLOAD DUP1 SWAP2 SUB SWAP1 RETURN JUMPDEST PUSH2 0xB93 PUSH2 0x1BFF JUMP JUMPDEST PUSH1 0x40 MLOAD PUSH2 0xBA0 SWAP2 SWAP1 PUSH2 0x2401 JUMP JUMPDEST PUSH1 0x40 MLOAD DUP1 SWAP2 SUB SWAP1 RETURN JUMPDEST PUSH2 0xBB1 PUSH2 0x1C38 JUMP JUMPDEST PUSH1 0x40 MLOAD PUSH2 0xBBE SWAP2 SWAP1 PUSH2 0x2401 JUMP JUMPDEST PUSH1 0x40 MLOAD DUP1 SWAP2 SUB SWAP1 RETURN JUMPDEST PUSH2 0xBCF PUSH2 0x1C71 JUMP JUMPDEST PUSH1 0x40 MLOAD PUSH2 0xBDC SWAP2 SWAP1 PUSH2 0x2401 JUMP JUMPDEST PUSH1 0x40 MLOAD DUP1 SWAP2 SUB SWAP1 RETURN JUMPDEST PUSH2 0xBED PUSH2 0x1CAA JUMP JUMPDEST PUSH1 0x40 MLOAD PUSH2 0xBFA SWAP2 SWAP1 PUSH2 0x2401 JUMP JUMPDEST PUSH1 0x40 MLOAD DUP1 SWAP2 SUB SWAP1 RETURN JUMPDEST PUSH2 0xC0B PUSH2 0x1CE3 JUMP JUMPDEST PUSH1 0x40 MLOAD PUSH2 0xC18 SWAP2 SWAP1 PUSH2 0x2401 JUMP JUMPDEST PUSH1 0x40 MLOAD DUP1 SWAP2 SUB SWAP1 RETURN JUMPDEST PUSH2 0xC29 PUSH2 0x1D1C JUMP JUMPDEST PUSH1 0x40 MLOAD PUSH2 0xC36 SWAP2 SWAP1 PUSH2 0x2401 JUMP JUMPDEST PUSH1 0x40 MLOAD DUP1 SWAP2 SUB SWAP1 RETURN JUMPDEST PUSH2 0xC47 PUSH2 0x1D55 JUMP JUMPDEST PUSH1 0x40 MLOAD PUSH2 0xC54 SWAP2 SWAP1 PUSH2 0x2401 JUMP JUMPDEST PUSH1 0x40 MLOAD DUP1 SWAP2 SUB SWAP1 RETURN JUMPDEST PUSH2 0xC65 PUSH2 0x1D8E JUMP JUMPDEST PUSH1 0x40 MLOAD PUSH2 0xC72 SWAP2 SWAP1 PUSH2 0x2401 JUMP JUMPDEST PUSH1 0x40 MLOAD DUP1 SWAP2 SUB SWAP1 RETURN JUMPDEST PUSH2 0xC83 PUSH2 0x1DC7 JUMP JUMPDEST PUSH1 0x40 MLOAD PUSH2 0xC90 SWAP2 SWAP1 PUSH2 0x2401 JUMP JUMPDEST PUSH1 0x40 MLOAD DUP1 SWAP2 SUB SWAP1 RETURN JUMPDEST PUSH2 0xCA1 PUSH2 0x1E00 JUMP JUMPDEST PUSH1 0x40 MLOAD PUSH2 0xCAE SWAP2 SWAP1 PUSH2 0x2401 JUMP JUMPDEST PUSH1 0x40 MLOAD DUP1 SWAP2 SUB SWAP1 RETURN JUMPDEST PUSH2 0xCBF PUSH2 0x1E39 JUMP JUMPDEST PUSH1 0x40 MLOAD PUSH2 0xCCC SWAP2 SWAP1 PUSH2 0x2401 JUMP JUMPDEST PUSH1 0x40 MLOAD DUP1 SWAP2 SUB SWAP1 RETURN JUMPDEST PUSH2 0xCDD PUSH2 0x1E72 JUMP JUMPDEST PUSH1 0x40 MLOAD PUSH2 0xCEA SWAP2 SWAP1 PUSH2 0x2401 JUMP JUMPDEST PUSH1 0x40 MLOAD DUP1 SWAP2 SUB SWAP1 RETURN JUMPDEST PUSH2 0xCFB PUSH2 0x1EAB JUMP JUMPDEST PUSH1 0x40 MLOAD PUSH2 0xD08 SWAP2 SWAP1 PUSH2 0x2401 JUMP JUMPDEST PUSH1 0x40 MLOAD DUP1 SWAP2 SUB SWAP1 RETURN JUMPDEST PUSH2 0xD19 PUSH2 0x1EE4 JUMP JUMPDEST PUSH1 0x40 MLOAD PUSH2 0xD26 SWAP2 SWAP1 PUSH2 0x2401 JUMP JUMPDEST PUSH1 0x40 MLOAD DUP1 SWAP2 SUB SWAP1 RETURN JUMPDEST PUSH2 0xD37 PUSH2 0x1F1D JUMP JUMPDEST PUSH1 0x40 MLOAD PUSH2 0xD44 SWAP2 SWAP1 PUSH2 0x2401 JUMP JUMPDEST PUSH1 0x40 MLOAD DUP1 SWAP2 SUB SWAP1 RETURN JUMPDEST PUSH2 0xD55 PUSH2 0x1F56 JUMP JUMPDEST PUSH1 0x40 MLOAD PUSH2 0xD62 SWAP2 SWAP1 PUSH2 0x2401 JUMP JUMPDEST PUSH1 0x40 MLOAD DUP1 SWAP2 SUB SWAP1 RETURN JUMPDEST PUSH2 0xD73 PUSH2 0x1F8F JUMP JUMPDEST PUSH1 0x40 MLOAD PUSH2 0xD80 SWAP2 SWAP1 PUSH2 0x2401 JUMP JUMPDEST PUSH1 0x40 MLOAD DUP1 SWAP2 SUB SWAP1 RETURN JUMPDEST PUSH2 0xD91 PUSH2 0x1FC8 JUMP JUMPDEST PUSH1 0x40 MLOAD PUSH2 0xD9E SWAP2 SWAP1 PUSH2 0x2401 JUMP JUMPDEST PUSH1 0x40 MLOAD DUP1 SWAP2 SUB SWAP1 RETURN JUMPDEST PUSH2 0xDAF PUSH2 0x2001 JUMP JUMPDEST PUSH1 0x40 MLOAD PUSH2 0xDBC SWAP2 SWAP1 PUSH2 0x2401 JUMP JUMPDEST PUSH1 0x40 MLOAD DUP1 SWAP2 SUB SWAP1 RETURN JUMPDEST PUSH2 0xDCD PUSH2 0x203A JUMP JUMPDEST PUSH1 0x40 MLOAD PUSH2 0xDDA SWAP2 SWAP1 PUSH2 0x2401 JUMP JUMPDEST PUSH1 0x40 MLOAD DUP1 SWAP2 SUB SWAP1 RETURN JUMPDEST PUSH2 0xDEB PUSH2 0x2073 JUMP JUMPDEST PUSH1 0x40 MLOAD PUSH2 0xDF8 SWAP2 SWAP1 PUSH2 0x2401 JUMP JUMPDEST PUSH1 0x40 MLOAD DUP1 SWAP2 SUB SWAP1 RETURN JUMPDEST PUSH2 0xE09 PUSH2 0x20AC JUMP JUMPDEST PUSH1 0x40 MLOAD PUSH2 0xE16 SWAP2 SWAP1 PUSH2 0x2401 JUMP JUMPDEST PUSH1 0x40 MLOAD DUP1 SWAP2 SUB SWAP1 RETURN JUMPDEST PUSH2 0xE27 PUSH2 0x20E5 JUMP JUMPDEST PUSH1 0x40 MLOAD PUSH2 0xE34 SWAP2 SWAP1 PUSH2 0x2401 JUMP JUMPDEST PUSH1 0x40 MLOAD DUP1 SWAP2 SUB SWAP1 RETURN JUMPDEST PUSH2 0xE45 PUSH2 0x211E JUMP JUMPDEST PUSH1 0x40 MLOAD PUSH2 0xE52 SWAP2 SWAP1 PUSH2 0x2401 JUMP JUMPDEST PUSH1 0x40 MLOAD DUP1 SWAP2 SUB SWAP1 RETURN JUMPDEST PUSH2 0xE63 PUSH2 0x2157 JUMP JUMPDEST PUSH1 0x40 MLOAD PUSH2 0xE70 SWAP2 SWAP1 PUSH2 0x2401 JUMP JUMPDEST PUSH1 0x40 MLOAD DUP1 SWAP2 SUB SWAP1 RETURN JUMPDEST PUSH2 0xE81 PUSH2 0x2190 JUMP JUMPDEST PUSH1 0x40 MLOAD PUSH2 0xE8E SWAP2 SWAP1 PUSH2 0x2401 JUMP JUMPDEST PUSH1 0x40 MLOAD DUP1 SWAP2 SUB SWAP1 RETURN JUMPDEST PUSH2 0xE9F PUSH2 0x21C9 JUMP JUMPDEST PUSH1 0x40 MLOAD PUSH2 0xEAC SWAP2 SWAP1 PUSH2 0x2401 JUMP JUMPDEST PUSH1 0x40 MLOAD DUP1 SWAP2 SUB SWAP1 RETURN JUMPDEST PUSH2 0xEBD PUSH2 0x2202 JUMP JUMPDEST PUSH1 0x40 MLOAD PUSH2 0xECA SWAP2 SWAP1 PUSH2 0x2401 JUMP JUMPDEST PUSH1 0x40 MLOAD DUP1 SWAP2 SUB SWAP1 RETURN JUMPDEST PUSH2 0xEDB PUSH2 0x223B JUMP JUMPDEST PUSH1 0x40 MLOAD PUSH2 0xEE8 SWAP2 SWAP1 PUSH2 0x2401 JUMP JUMPDEST PUSH1 0x40 MLOAD DUP1 SWAP2 SUB SWAP1 RETURN JUMPDEST PUSH2 0xEF9 PUSH2 0x2274 JUMP JUMPDEST PUSH1 0x40 MLOAD PUSH2 0xF06 SWAP2 SWAP1 PUSH2 0x2401 JUMP JUMPDEST PUSH1 0x40 MLOAD DUP1 SWAP2 SUB SWAP1 RETURN JUMPDEST PUSH2 0xF17 PUSH2 0x22AD JUMP JUMPDEST PUSH1 0x40 MLOAD PUSH2 0xF24 SWAP2 SWAP1 PUSH2 0x2401 JUMP JUMPDEST PUSH1 0x40 MLOAD DUP1 SWAP2 SUB SWAP1 RETURN JUMPDEST PUSH2 0xF35 PUSH2 0x22E6 JUMP JUMPDEST PUSH1 0x40 MLOAD PUSH2 0xF42 SWAP2 SWAP1 PUSH2 0x2401 JUMP JUMPDEST PUSH1 0x40 MLOAD DUP1 SWAP2 SUB SWAP1 RETURN JUMPDEST PUSH2 0xF53 PUSH2 0x231F JUMP JUMPDEST PUSH1 0x40 MLOAD PUSH2 0xF60 SWAP2 SWAP1 PUSH2 0x2401 JUMP JUMPDEST PUSH1 0x40 MLOAD DUP1 SWAP2 SUB SWAP1 RETURN JUMPDEST PUSH2 0xF71 PUSH2 0x2358 JUMP JUMPDEST PUSH1 0x40 MLOAD PUSH2 0xF7E SWAP2 SWAP1 PUSH2 0x2401 JUMP JUMPDEST PUSH1 0x40 MLOAD DUP1 SWAP2 SUB SWAP1 RETURN JUMPDEST PUSH1 0x40 MLOAD DUP1 PUSH1 0x40 ADD PUSH1 0x40 MSTORE DUP1 PUSH1 0x2 DUP2 MSTORE PUSH1 0x20 ADD PUSH32 0x3138000000000000000000000000000000000000000000000000000000000000 DUP2 MSTORE POP DUP2 JUMP JUMPDEST PUSH1 0x40 MLOAD DUP1 PUSH1 0x40 ADD PUSH1 0x40 MSTORE DUP1 PUSH1 0x1 DUP2 MSTORE PUSH1 0x20 ADD PUSH32 0x3900000000000000000000000000000000000000000000000000000000000000 DUP2 MSTORE POP DUP2 JUMP JUMPDEST PUSH1 0x40 MLOAD DUP1 PUSH1 0x40 ADD PUSH1 0x40 MSTORE DUP1 PUSH1 0x2 DUP2 MSTORE PUSH1 0x20 ADD PUSH32 0x3134000000000000000000000000000000000000000000000000000000000000 DUP2 MSTORE POP DUP2 JUMP JUMPDEST PUSH1 0x40 MLOAD DUP1 PUSH1 0x40 ADD PUSH1 0x40 MSTORE DUP1 PUSH1 0x2 DUP2 MSTORE PUSH1 0x20 ADD PUSH32 0x3836000000000000000000000000000000000000000000000000000000000000 DUP2 MSTORE POP DUP2 JUMP JUMPDEST PUSH1 0x40 MLOAD DUP1 PUSH1 0x40 ADD PUSH1 0x40 MSTORE DUP1 PUSH1 0x2 DUP2 MSTORE PUSH1 0x20 ADD PUSH32 0x3838000000000000000000000000000000000000000000000000000000000000 DUP2 MSTORE POP DUP2 JUMP JUMPDEST PUSH1 0x40 MLOAD DUP1 PUSH1 0x40 ADD PUSH1 0x40 MSTORE DUP1 PUSH1 0x2 DUP2 MSTORE PUSH1 0x20 ADD PUSH32 0x3837000000000000000000000000000000000000000000000000000000000000 DUP2 MSTORE POP DUP2 JUMP JUMPDEST PUSH1 0x40 MLOAD DUP1 PUSH1 0x40 ADD PUSH1 0x40 MSTORE DUP1 PUSH1 0x2 DUP2 MSTORE PUSH1 0x20 ADD PUSH32 0x3437000000000000000000000000000000000000000000000000000000000000 DUP2 MSTORE POP DUP2 JUMP JUMPDEST PUSH1 0x40 MLOAD DUP1 PUSH1 0x40 ADD PUSH1 0x40 MSTORE DUP1 PUSH1 0x2 DUP2 MSTORE PUSH1 0x20 ADD PUSH32 0x3639000000000000000000000000000000000000000000000000000000000000 DUP2 MSTORE POP DUP2 JUMP JUMPDEST PUSH1 0x40 MLOAD DUP1 PUSH1 0x40 ADD PUSH1 0x40 MSTORE DUP1 PUSH1 0x1 DUP2 MSTORE PUSH1 0x20 ADD PUSH32 0x3300000000000000000000000000000000000000000000000000000000000000 DUP2 MSTORE POP DUP2 JUMP JUMPDEST PUSH1 0x40 MLOAD DUP1 PUSH1 0x40 ADD PUSH1 0x40 MSTORE DUP1 PUSH1 0x2 DUP2 MSTORE PUSH1 0x20 ADD PUSH32 0x3434000000000000000000000000000000000000000000000000000000000000 DUP2 MSTORE POP DUP2 JUMP JUMPDEST PUSH1 0x40 MLOAD DUP1 PUSH1 0x40 ADD PUSH1 0x40 MSTORE DUP1 PUSH1 0x1 DUP2 MSTORE PUSH1 0x20 ADD PUSH32 0x3500000000000000000000000000000000000000000000000000000000000000 DUP2 MSTORE POP DUP2 JUMP JUMPDEST PUSH1 0x40 MLOAD DUP1 PUSH1 0x40 ADD PUSH1 0x40 MSTORE DUP1 PUSH1 0x2 DUP2 MSTORE PUSH1 0x20 ADD PUSH32 0x3530000000000000000000000000000000000000000000000000000000000000 DUP2 MSTORE POP DUP2 JUMP JUMPDEST PUSH1 0x40 MLOAD DUP1 PUSH1 0x40 ADD PUSH1 0x40 MSTORE DUP1 PUSH1 0x2 DUP2 MSTORE PUSH1 0x20 ADD PUSH32 0x3230000000000000000000000000000000000000000000000000000000000000 DUP2 MSTORE POP DUP2 JUMP JUMPDEST PUSH1 0x40 MLOAD DUP1 PUSH1 0x40 ADD PUSH1 0x40 MSTORE DUP1 PUSH1 0x2 DUP2 MSTORE PUSH1 0x20 ADD PUSH32 0x3335000000000000000000000000000000000000000000000000000000000000 DUP2 MSTORE POP DUP2 JUMP JUMPDEST PUSH1 0x40 MLOAD DUP1 PUSH1 0x40 ADD PUSH1 0x40 MSTORE DUP1 PUSH1 0x2 DUP2 MSTORE PUSH1 0x20 ADD PUSH32 0x3132000000000000000000000000000000000000000000000000000000000000 DUP2 MSTORE POP DUP2 JUMP JUMPDEST PUSH1 0x40 MLOAD DUP1 PUSH1 0x40 ADD PUSH1 0x40 MSTORE DUP1 PUSH1 0x2 DUP2 MSTORE PUSH1 0x20 ADD PUSH32 0x3233000000000000000000000000000000000000000000000000000000000000 DUP2 MSTORE POP DUP2 JUMP JUMPDEST PUSH1 0x40 MLOAD DUP1 PUSH1 0x40 ADD PUSH1 0x40 MSTORE DUP1 PUSH1 0x2 DUP2 MSTORE PUSH1 0x20 ADD PUSH32 0x3732000000000000000000000000000000000000000000000000000000000000 DUP2 MSTORE POP DUP2 JUMP JUMPDEST PUSH1 0x40 MLOAD DUP1 PUSH1 0x40 ADD PUSH1 0x40 MSTORE DUP1 PUSH1 0x2 DUP2 MSTORE PUSH1 0x20 ADD PUSH32 0x3231000000000000000000000000000000000000000000000000000000000000 DUP2 MSTORE POP DUP2 JUMP JUMPDEST PUSH1 0x40 MLOAD DUP1 PUSH1 0x40 ADD PUSH1 0x40 MSTORE DUP1 PUSH1 0x2 DUP2 MSTORE PUSH1 0x20 ADD PUSH32 0x3632000000000000000000000000000000000000000000000000000000000000 DUP2 MSTORE POP DUP2 JUMP JUMPDEST PUSH1 0x40 MLOAD DUP1 PUSH1 0x40 ADD PUSH1 0x40 MSTORE DUP1 PUSH1 0x1 DUP2 MSTORE PUSH1 0x20 ADD PUSH32 0x3200000000000000000000000000000000000000000000000000000000000000 DUP2 MSTORE POP DUP2 JUMP JUMPDEST PUSH1 0x40 MLOAD DUP1 PUSH1 0x40 ADD PUSH1 0x40 MSTORE DUP1 PUSH1 0x2 DUP2 MSTORE PUSH1 0x20 ADD PUSH32 0x3331000000000000000000000000000000000000000000000000000000000000 DUP2 MSTORE POP DUP2 JUMP JUMPDEST PUSH1 0x40 MLOAD DUP1 PUSH1 0x40 ADD PUSH1 0x40 MSTORE DUP1 PUSH1 0x2 DUP2 MSTORE PUSH1 0x20 ADD PUSH32 0x3334000000000000000000000000000000000000000000000000000000000000 DUP2 MSTORE POP DUP2 JUMP JUMPDEST PUSH1 0x40 MLOAD DUP1 PUSH1 0x40 ADD PUSH1 0x40 MSTORE DUP1 PUSH1 0x2 DUP2 MSTORE PUSH1 0x20 ADD PUSH32 0x3833000000000000000000000000000000000000000000000000000000000000 DUP2 MSTORE POP DUP2 JUMP JUMPDEST PUSH1 0x40 MLOAD DUP1 PUSH1 0x40 ADD PUSH1 0x40 MSTORE DUP1 PUSH1 0x2 DUP2 MSTORE PUSH1 0x20 ADD PUSH32 0x3330000000000000000000000000000000000000000000000000000000000000 DUP2 MSTORE POP DUP2 JUMP JUMPDEST PUSH1 0x40 MLOAD DUP1 PUSH1 0x40 ADD PUSH1 0x40 MSTORE DUP1 PUSH1 0x1 DUP2 MSTORE PUSH1 0x20 ADD PUSH32 0x3600000000000000000000000000000000000000000000000000000000000000 DUP2 MSTORE POP DUP2 JUMP JUMPDEST PUSH1 0x40 MLOAD DUP1 PUSH1 0x40 ADD PUSH1 0x40 MSTORE DUP1 PUSH1 0x2 DUP2 MSTORE PUSH1 0x20 ADD PUSH32 0x3235000000000000000000000000000000000000000000000000000000000000 DUP2 MSTORE POP DUP2 JUMP JUMPDEST PUSH1 0x40 MLOAD DUP1 PUSH1 0x40 ADD PUSH1 0x40 MSTORE DUP1 PUSH1 0x2 DUP2 MSTORE PUSH1 0x20 ADD PUSH32 0x3237000000000000000000000000000000000000000000000000000000000000 DUP2 MSTORE POP DUP2 JUMP JUMPDEST PUSH1 0x40 MLOAD DUP1 PUSH1 0x40 ADD PUSH1 0x40 MSTORE DUP1 PUSH1 0x2 DUP2 MSTORE PUSH1 0x20 ADD PUSH32 0x3137000000000000000000000000000000000000000000000000000000000000 DUP2 MSTORE POP DUP2 JUMP JUMPDEST PUSH1 0x40 MLOAD DUP1 PUSH1 0x40 ADD PUSH1 0x40 MSTORE DUP1 PUSH1 0x1 DUP2 MSTORE PUSH1 0x20 ADD PUSH32 0x3800000000000000000000000000000000000000000000000000000000000000 DUP2 MSTORE POP DUP2 JUMP JUMPDEST PUSH1 0x40 MLOAD DUP1 PUSH1 0x40 ADD PUSH1 0x40 MSTORE DUP1 PUSH1 0x2 DUP2 MSTORE PUSH1 0x20 ADD PUSH32 0x3130000000000000000000000000000000000000000000000000000000000000 DUP2 MSTORE POP DUP2 JUMP JUMPDEST PUSH1 0x40 MLOAD DUP1 PUSH1 0x40 ADD PUSH1 0x40 MSTORE DUP1 PUSH1 0x2 DUP2 MSTORE PUSH1 0x20 ADD PUSH32 0x3533000000000000000000000000000000000000000000000000000000000000 DUP2 MSTORE POP DUP2 JUMP JUMPDEST PUSH1 0x40 MLOAD DUP1 PUSH1 0x40 ADD PUSH1 0x40 MSTORE DUP1 PUSH1 0x2 DUP2 MSTORE PUSH1 0x20 ADD PUSH32 0x3535000000000000000000000000000000000000000000000000000000000000 DUP2 MSTORE POP DUP2 JUMP JUMPDEST PUSH1 0x40 MLOAD DUP1 PUSH1 0x40 ADD PUSH1 0x40 MSTORE DUP1 PUSH1 0x2 DUP2 MSTORE PUSH1 0x20 ADD PUSH32 0x3532000000000000000000000000000000000000000000000000000000000000 DUP2 MSTORE POP DUP2 JUMP JUMPDEST PUSH1 0x40 MLOAD DUP1 PUSH1 0x40 ADD PUSH1 0x40 MSTORE DUP1 PUSH1 0x2 DUP2 MSTORE PUSH1 0x20 ADD PUSH32 0x3238000000000000000000000000000000000000000000000000000000000000 DUP2 MSTORE POP DUP2 JUMP JUMPDEST PUSH1 0x40 MLOAD DUP1 PUSH1 0x40 ADD PUSH1 0x40 MSTORE DUP1 PUSH1 0x2 DUP2 MSTORE PUSH1 0x20 ADD PUSH32 0x3430000000000000000000000000000000000000000000000000000000000000 DUP2 MSTORE POP DUP2 JUMP JUMPDEST PUSH1 0x40 MLOAD DUP1 PUSH1 0x40 ADD PUSH1 0x40 MSTORE DUP1 PUSH1 0x2 DUP2 MSTORE PUSH1 0x20 ADD PUSH32 0x3439000000000000000000000000000000000000000000000000000000000000 DUP2 MSTORE POP DUP2 JUMP JUMPDEST PUSH1 0x40 MLOAD DUP1 PUSH1 0x40 ADD PUSH1 0x40 MSTORE DUP1 PUSH1 0x2 DUP2 MSTORE PUSH1 0x20 ADD PUSH32 0x3431000000000000000000000000000000000000000000000000000000000000 DUP2 MSTORE POP DUP2 JUMP JUMPDEST PUSH1 0x40 MLOAD DUP1 PUSH1 0x40 ADD PUSH1 0x40 MSTORE DUP1 PUSH1 0x2 DUP2 MSTORE PUSH1 0x20 ADD PUSH32 0x3139000000000000000000000000000000000000000000000000000000000000 DUP2 MSTORE POP DUP2 JUMP JUMPDEST PUSH1 0x40 MLOAD DUP1 PUSH1 0x40 ADD PUSH1 0x40 MSTORE DUP1 PUSH1 0x2 DUP2 MSTORE PUSH1 0x20 ADD PUSH32 0x3135000000000000000000000000000000000000000000000000000000000000 DUP2 MSTORE POP DUP2 JUMP JUMPDEST PUSH1 0x40 MLOAD DUP1 PUSH1 0x40 ADD PUSH1 0x40 MSTORE DUP1 PUSH1 0x2 DUP2 MSTORE PUSH1 0x20 ADD PUSH32 0x3232000000000000000000000000000000000000000000000000000000000000 DUP2 MSTORE POP DUP2 JUMP JUMPDEST PUSH1 0x40 MLOAD DUP1 PUSH1 0x40 ADD PUSH1 0x40 MSTORE DUP1 PUSH1 0x2 DUP2 MSTORE PUSH1 0x20 ADD PUSH32 0x3133000000000000000000000000000000000000000000000000000000000000 DUP2 MSTORE POP DUP2 JUMP JUMPDEST PUSH1 0x40 MLOAD DUP1 PUSH1 0x40 ADD PUSH1 0x40 MSTORE DUP1 PUSH1 0x2 DUP2 MSTORE PUSH1 0x20 ADD PUSH32 0x3630000000000000000000000000000000000000000000000000000000000000 DUP2 MSTORE POP DUP2 JUMP JUMPDEST PUSH1 0x40 MLOAD DUP1 PUSH1 0x40 ADD PUSH1 0x40 MSTORE DUP1 PUSH1 0x2 DUP2 MSTORE PUSH1 0x20 ADD PUSH32 0x3436000000000000000000000000000000000000000000000000000000000000 DUP2 MSTORE POP DUP2 JUMP JUMPDEST PUSH1 0x40 MLOAD DUP1 PUSH1 0x40 ADD PUSH1 0x40 MSTORE DUP1 PUSH1 0x2 DUP2 MSTORE PUSH1 0x20 ADD PUSH32 0x3333000000000000000000000000000000000000000000000000000000000000 DUP2 MSTORE POP DUP2 JUMP JUMPDEST PUSH1 0x40 MLOAD DUP1 PUSH1 0x40 ADD PUSH1 0x40 MSTORE DUP1 PUSH1 0x2 DUP2 MSTORE PUSH1 0x20 ADD PUSH32 0x3337000000000000000000000000000000000000000000000000000000000000 DUP2 MSTORE POP DUP2 JUMP JUMPDEST PUSH1 0x40 MLOAD DUP1 PUSH1 0x40 ADD PUSH1 0x40 MSTORE DUP1 PUSH1 0x2 DUP2 MSTORE PUSH1 0x20 ADD PUSH32 0x3931000000000000000000000000000000000000000000000000000000000000 DUP2 MSTORE POP DUP2 JUMP JUMPDEST PUSH1 0x40 MLOAD DUP1 PUSH1 0x40 ADD PUSH1 0x40 MSTORE DUP1 PUSH1 0x2 DUP2 MSTORE PUSH1 0x20 ADD PUSH32 0x3830000000000000000000000000000000000000000000000000000000000000 DUP2 MSTORE POP DUP2 JUMP JUMPDEST PUSH1 0x40 MLOAD DUP1 PUSH1 0x40 ADD PUSH1 0x40 MSTORE DUP1 PUSH1 0x2 DUP2 MSTORE PUSH1 0x20 ADD PUSH32 0x3730000000000000000000000000000000000000000000000000000000000000 DUP2 MSTORE POP DUP2 JUMP JUMPDEST PUSH1 0x40 MLOAD DUP1 PUSH1 0x40 ADD PUSH1 0x40 MSTORE DUP1 PUSH1 0x2 DUP2 MSTORE PUSH1 0x20 ADD PUSH32 0x3538000000000000000000000000000000000000000000000000000000000000 DUP2 MSTORE POP DUP2 JUMP JUMPDEST PUSH1 0x40 MLOAD DUP1 PUSH1 0x40 ADD PUSH1 0x40 MSTORE DUP1 PUSH1 0x2 DUP2 MSTORE PUSH1 0x20 ADD PUSH32 0x3534000000000000000000000000000000000000000000000000000000000000 DUP2 MSTORE POP DUP2 JUMP JUMPDEST PUSH1 0x40 MLOAD DUP1 PUSH1 0x40 ADD PUSH1 0x40 MSTORE DUP1 PUSH1 0x2 DUP2 MSTORE PUSH1 0x20 ADD PUSH32 0x3435000000000000000000000000000000000000000000000000000000000000 DUP2 MSTORE POP DUP2 JUMP JUMPDEST PUSH1 0x40 MLOAD DUP1 PUSH1 0x40 ADD PUSH1 0x40 MSTORE DUP1 PUSH1 0x2 DUP2 MSTORE PUSH1 0x20 ADD PUSH32 0x3635000000000000000000000000000000000000000000000000000000000000 DUP2 MSTORE POP DUP2 JUMP JUMPDEST PUSH1 0x40 MLOAD DUP1 PUSH1 0x40 ADD PUSH1 0x40 MSTORE DUP1 PUSH1 0x2 DUP2 MSTORE PUSH1 0x20 ADD PUSH32 0x3633000000000000000000000000000000000000000000000000000000000000 DUP2 MSTORE POP DUP2 JUMP JUMPDEST PUSH1 0x40 MLOAD DUP1 PUSH1 0x40 ADD PUSH1 0x40 MSTORE DUP1 PUSH1 0x2 DUP2 MSTORE PUSH1 0x20 ADD PUSH32 0x3433000000000000000000000000000000000000000000000000000000000000 DUP2 MSTORE POP DUP2 JUMP JUMPDEST PUSH1 0x40 MLOAD DUP1 PUSH1 0x40 ADD PUSH1 0x40 MSTORE DUP1 PUSH1 0x2 DUP2 MSTORE PUSH1 0x20 ADD PUSH32 0x3131000000000000000000000000000000000000000000000000000000000000 DUP2 MSTORE POP DUP2 JUMP JUMPDEST PUSH1 0x40 MLOAD DUP1 PUSH1 0x40 ADD PUSH1 0x40 MSTORE DUP1 PUSH1 0x2 DUP2 MSTORE PUSH1 0x20 ADD PUSH32 0x3739000000000000000000000000000000000000000000000000000000000000 DUP2 MSTORE POP DUP2 JUMP JUMPDEST PUSH1 0x40 MLOAD DUP1 PUSH1 0x40 ADD PUSH1 0x40 MSTORE DUP1 PUSH1 0x2 DUP2 MSTORE PUSH1 0x20 ADD PUSH32 0x3637000000000000000000000000000000000000000000000000000000000000 DUP2 MSTORE POP DUP2 JUMP JUMPDEST PUSH1 0x40 MLOAD DUP1 PUSH1 0x40 ADD PUSH1 0x40 MSTORE DUP1 PUSH1 0x2 DUP2 MSTORE PUSH1 0x20 ADD PUSH32 0x3731000000000000000000000000000000000000000000000000000000000000 DUP2 MSTORE POP DUP2 JUMP JUMPDEST PUSH1 0x40 MLOAD DUP1 PUSH1 0x40 ADD PUSH1 0x40 MSTORE DUP1 PUSH1 0x2 DUP2 MSTORE PUSH1 0x20 ADD PUSH32 0x3835000000000000000000000000000000000000000000000000000000000000 DUP2 MSTORE POP DUP2 JUMP JUMPDEST PUSH1 0x40 MLOAD DUP1 PUSH1 0x40 ADD PUSH1 0x40 MSTORE DUP1 PUSH1 0x2 DUP2 MSTORE PUSH1 0x20 ADD PUSH32 0x3234000000000000000000000000000000000000000000000000000000000000 DUP2 MSTORE POP DUP2 JUMP JUMPDEST PUSH1 0x40 MLOAD DUP1 PUSH1 0x40 ADD PUSH1 0x40 MSTORE DUP1 PUSH1 0x1 DUP2 MSTORE PUSH1 0x20 ADD PUSH32 0x3100000000000000000000000000000000000000000000000000000000000000 DUP2 MSTORE POP DUP2 JUMP JUMPDEST PUSH1 0x40 MLOAD DUP1 PUSH1 0x40 ADD PUSH1 0x40 MSTORE DUP1 PUSH1 0x2 DUP2 MSTORE PUSH1 0x20 ADD PUSH32 0x3531000000000000000000000000000000000000000000000000000000000000 DUP2 MSTORE POP DUP2 JUMP JUMPDEST PUSH1 0x40 MLOAD DUP1 PUSH1 0x40 ADD PUSH1 0x40 MSTORE DUP1 PUSH1 0x2 DUP2 MSTORE PUSH1 0x20 ADD PUSH32 0x3432000000000000000000000000000000000000000000000000000000000000 DUP2 MSTORE POP DUP2 JUMP JUMPDEST PUSH1 0x40 MLOAD DUP1 PUSH1 0x40 ADD PUSH1 0x40 MSTORE DUP1 PUSH1 0x1 DUP2 MSTORE PUSH1 0x20 ADD PUSH32 0x3400000000000000000000000000000000000000000000000000000000000000 DUP2 MSTORE POP DUP2 JUMP JUMPDEST PUSH1 0x40 MLOAD DUP1 PUSH1 0x40 ADD PUSH1 0x40 MSTORE DUP1 PUSH1 0x2 DUP2 MSTORE PUSH1 0x20 ADD PUSH32 0x3239000000000000000000000000000000000000000000000000000000000000 DUP2 MSTORE POP DUP2 JUMP JUMPDEST PUSH1 0x40 MLOAD DUP1 PUSH1 0x40 ADD PUSH1 0x40 MSTORE DUP1 PUSH1 0x2 DUP2 MSTORE PUSH1 0x20 ADD PUSH32 0x3332000000000000000000000000000000000000000000000000000000000000 DUP2 MSTORE POP DUP2 JUMP JUMPDEST PUSH1 0x40 MLOAD DUP1 PUSH1 0x40 ADD PUSH1 0x40 MSTORE DUP1 PUSH1 0x2 DUP2 MSTORE PUSH1 0x20 ADD PUSH32 0x3537000000000000000000000000000000000000000000000000000000000000 DUP2 MSTORE POP DUP2 JUMP JUMPDEST PUSH1 0x40 MLOAD DUP1 PUSH1 0x40 ADD PUSH1 0x40 MSTORE DUP1 PUSH1 0x2 DUP2 MSTORE PUSH1 0x20 ADD PUSH32 0x3736000000000000000000000000000000000000000000000000000000000000 DUP2 MSTORE POP DUP2 JUMP JUMPDEST PUSH1 0x40 MLOAD DUP1 PUSH1 0x40 ADD PUSH1 0x40 MSTORE DUP1 PUSH1 0x2 DUP2 MSTORE PUSH1 0x20 ADD PUSH32 0x3738000000000000000000000000000000000000000000000000000000000000 DUP2 MSTORE POP DUP2 JUMP JUMPDEST PUSH1 0x40 MLOAD DUP1 PUSH1 0x40 ADD PUSH1 0x40 MSTORE DUP1 PUSH1 0x2 DUP2 MSTORE PUSH1 0x20 ADD PUSH32 0x3539000000000000000000000000000000000000000000000000000000000000 DUP2 MSTORE POP DUP2 JUMP JUMPDEST PUSH1 0x40 MLOAD DUP1 PUSH1 0x40 ADD PUSH1 0x40 MSTORE DUP1 PUSH1 0x2 DUP2 MSTORE PUSH1 0x20 ADD PUSH32 0x3834000000000000000000000000000000000000000000000000000000000000 DUP2 MSTORE POP DUP2 JUMP JUMPDEST PUSH1 0x40 MLOAD DUP1 PUSH1 0x40 ADD PUSH1 0x40 MSTORE DUP1 PUSH1 0x2 DUP2 MSTORE PUSH1 0x20 ADD PUSH32 0x3832000000000000000000000000000000000000000000000000000000000000 DUP2 MSTORE POP DUP2 JUMP JUMPDEST PUSH1 0x40 MLOAD DUP1 PUSH1 0x40 ADD PUSH1 0x40 MSTORE DUP1 PUSH1 0x2 DUP2 MSTORE PUSH1 0x20 ADD PUSH32 0x3737000000000000000000000000000000000000000000000000000000000000 DUP2 MSTORE POP DUP2 JUMP JUMPDEST PUSH1 0x40 MLOAD DUP1 PUSH1 0x40 ADD PUSH1 0x40 MSTORE DUP1 PUSH1 0x2 DUP2 MSTORE PUSH1 0x20 ADD PUSH32 0x3734000000000000000000000000000000000000000000000000000000000000 DUP2 MSTORE POP DUP2 JUMP JUMPDEST PUSH1 0x40 MLOAD DUP1 PUSH1 0x40 ADD PUSH1 0x40 MSTORE DUP1 PUSH1 0x2 DUP2 MSTORE PUSH1 0x20 ADD PUSH32 0x3638000000000000000000000000000000000000000000000000000000000000 DUP2 MSTORE POP DUP2 JUMP JUMPDEST PUSH1 0x40 MLOAD DUP1 PUSH1 0x40 ADD PUSH1 0x40 MSTORE DUP1 PUSH1 0x2 DUP2 MSTORE PUSH1 0x20 ADD PUSH32 0x3631000000000000000000000000000000000000000000000000000000000000 DUP2 MSTORE POP DUP2 JUMP JUMPDEST PUSH1 0x40 MLOAD DUP1 PUSH1 0x40 ADD PUSH1 0x40 MSTORE DUP1 PUSH1 0x2 DUP2 MSTORE PUSH1 0x20 ADD PUSH32 0x3339000000000000000000000000000000000000000000000000000000000000 DUP2 MSTORE POP DUP2 JUMP JUMPDEST PUSH1 0x40 MLOAD DUP1 PUSH1 0x40 ADD PUSH1 0x40 MSTORE DUP1 PUSH1 0x2 DUP2 MSTORE PUSH1 0x20 ADD PUSH32 0x3733000000000000000000000000000000000000000000000000000000000000 DUP2 MSTORE POP DUP2 JUMP JUMPDEST PUSH1 0x40 MLOAD DUP1 PUSH1 0x40 ADD PUSH1 0x40 MSTORE DUP1 PUSH1 0x2 DUP2 MSTORE PUSH1 0x20 ADD PUSH32 0x3634000000000000000000000000000000000000000000000000000000000000 DUP2 MSTORE POP DUP2 JUMP JUMPDEST PUSH1 0x40 MLOAD DUP1 PUSH1 0x40 ADD PUSH1 0x40 MSTORE DUP1 PUSH1 0x2 DUP2 MSTORE PUSH1 0x20 ADD PUSH32 0x3839000000000000000000000000000000000000000000000000000000000000 DUP2 MSTORE POP DUP2 JUMP JUMPDEST PUSH1 0x40 MLOAD DUP1 PUSH1 0x40 ADD PUSH1 0x40 MSTORE DUP1 PUSH1 0x1 DUP2 MSTORE PUSH1 0x20 ADD PUSH32 0x3700000000000000000000000000000000000000000000000000000000000000 DUP2 MSTORE POP DUP2 JUMP JUMPDEST PUSH1 0x40 MLOAD DUP1 PUSH1 0x40 ADD PUSH1 0x40 MSTORE DUP1 PUSH1 0x2 DUP2 MSTORE PUSH1 0x20 ADD PUSH32 0x3336000000000000000000000000000000000000000000000000000000000000 DUP2 MSTORE POP DUP2 JUMP JUMPDEST PUSH1 0x40 MLOAD DUP1 PUSH1 0x40 ADD PUSH1 0x40 MSTORE DUP1 PUSH1 0x2 DUP2 MSTORE PUSH1 0x20 ADD PUSH32 0x3831000000000000000000000000000000000000000000000000000000000000 DUP2 MSTORE POP DUP2 JUMP JUMPDEST PUSH1 0x40 MLOAD DUP1 PUSH1 0x40 ADD PUSH1 0x40 MSTORE DUP1 PUSH1 0x2 DUP2 MSTORE PUSH1 0x20 ADD PUSH32 0x3930000000000000000000000000000000000000000000000000000000000000 DUP2 MSTORE POP DUP2 JUMP JUMPDEST PUSH1 0x40 MLOAD DUP1 PUSH1 0x40 ADD PUSH1 0x40 MSTORE DUP1 PUSH1 0x2 DUP2 MSTORE PUSH1 0x20 ADD PUSH32 0x3338000000000000000000000000000000000000000000000000000000000000 DUP2 MSTORE POP DUP2 JUMP JUMPDEST PUSH1 0x40 MLOAD DUP1 PUSH1 0x40 ADD PUSH1 0x40 MSTORE DUP1 PUSH1 0x2 DUP2 MSTORE PUSH1 0x20 ADD PUSH32 0x3536000000000000000000000000000000000000000000000000000000000000 DUP2 MSTORE POP DUP2 JUMP JUMPDEST PUSH1 0x40 MLOAD DUP1 PUSH1 0x40 ADD PUSH1 0x40 MSTORE DUP1 PUSH1 0x2 DUP2 MSTORE PUSH1 0x20 ADD PUSH32 0x3136000000000000000000000000000000000000000000000000000000000000 DUP2 MSTORE POP DUP2 JUMP JUMPDEST PUSH1 0x40 MLOAD DUP1 PUSH1 0x40 ADD PUSH1 0x40 MSTORE DUP1 PUSH1 0x2 DUP2 MSTORE PUSH1 0x20 ADD PUSH32 0x3636000000000000000000000000000000000000000000000000000000000000 DUP2 MSTORE POP DUP2 JUMP JUMPDEST PUSH1 0x40 MLOAD DUP1 PUSH1 0x40 ADD PUSH1 0x40 MSTORE DUP1 PUSH1 0x2 DUP2 MSTORE PUSH1 0x20 ADD PUSH32 0x3236000000000000000000000000000000000000000000000000000000000000 DUP2 MSTORE POP DUP2 JUMP JUMPDEST PUSH1 0x40 MLOAD DUP1 PUSH1 0x40 ADD PUSH1 0x40 MSTORE DUP1 PUSH1 0x2 DUP2 MSTORE PUSH1 0x20 ADD PUSH32 0x3735000000000000000000000000000000000000000000000000000000000000 DUP2 MSTORE POP DUP2 JUMP JUMPDEST PUSH0 DUP2 MLOAD SWAP1 POP SWAP2 SWAP1 POP JUMP JUMPDEST PUSH0 DUP3 DUP3 MSTORE PUSH1 0x20 DUP3 ADD SWAP1 POP SWAP3 SWAP2 POP POP JUMP JUMPDEST DUP3 DUP2 DUP4 MCOPY PUSH0 DUP4 DUP4 ADD MSTORE POP POP POP JUMP JUMPDEST PUSH0 PUSH1 0x1F NOT PUSH1 0x1F DUP4 ADD AND SWAP1 POP SWAP2 SWAP1 POP JUMP JUMPDEST PUSH0 PUSH2 0x23D3 DUP3 PUSH2 0x2391 JUMP JUMPDEST PUSH2 0x23DD DUP2 DUP6 PUSH2 0x239B JUMP JUMPDEST SWAP4 POP PUSH2 0x23ED DUP2 DUP6 PUSH1 0x20 DUP7 ADD PUSH2 0x23AB JUMP JUMPDEST PUSH2 0x23F6 DUP2 PUSH2 0x23B9 JUMP JUMPDEST DUP5 ADD SWAP2 POP POP SWAP3 SWAP2 POP POP JUMP JUMPDEST PUSH0 PUSH1 0x20 DUP3 ADD SWAP1 POP DUP2 DUP2 SUB PUSH0 DUP4 ADD MSTORE PUSH2 0x2419 DUP2 DUP5 PUSH2 0x23C9 JUMP JUMPDEST SWAP1 POP SWAP3 SWAP2 POP POP JUMP INVALID LOG2 PUSH5 0x6970667358 0x22 SLT KECCAK256 PUSH10 0xE6E4F65B77EB415F3332 CALLDATASIZE PUSH15 0x90814A95F6D6C3395CAD238B372AEC SWAP7 MSTORE8 DUP4 SUB PUSH5 0x736F6C6343 STOP ADDMOD BYTE STOP CALLER "
				},
				"gasEstimates": {
					"creation": {
						"codeDepositCost": "1860600",
						"executionCost": "1989",
						"totalCost": "1862589"
					},
					"external": {
						"ACL_ADMIN_CANNOT_BE_ZERO()": "infinite",
						"ADDRESSES_PROVIDER_ALREADY_ADDED()": "infinite",
						"ADDRESSES_PROVIDER_NOT_REGISTERED()": "infinite",
						"AMOUNT_BIGGER_THAN_MAX_LOAN_SIZE_STABLE()": "infinite",
						"ASSET_NOT_BORROWABLE_IN_ISOLATION()": "infinite",
						"ASSET_NOT_LISTED()": "infinite",
						"BORROWING_NOT_ENABLED()": "infinite",
						"BORROW_CAP_EXCEEDED()": "infinite",
						"BRIDGE_PROTOCOL_FEE_INVALID()": "infinite",
						"CALLER_MUST_BE_POOL()": "infinite",
						"CALLER_NOT_ASSET_LISTING_OR_POOL_ADMIN()": "infinite",
						"CALLER_NOT_ATOKEN()": "infinite",
						"CALLER_NOT_BRIDGE()": "infinite",
						"CALLER_NOT_EMERGENCY_ADMIN()": "infinite",
						"CALLER_NOT_POOL_ADMIN()": "infinite",
						"CALLER_NOT_POOL_CONFIGURATOR()": "infinite",
						"CALLER_NOT_POOL_OR_EMERGENCY_ADMIN()": "infinite",
						"CALLER_NOT_RISK_OR_POOL_ADMIN()": "infinite",
						"COLLATERAL_BALANCE_IS_ZERO()": "infinite",
						"COLLATERAL_CANNOT_BE_LIQUIDATED()": "infinite",
						"COLLATERAL_CANNOT_COVER_NEW_BORROW()": "infinite",
						"COLLATERAL_SAME_AS_BORROWING_CURRENCY()": "infinite",
						"DEBT_CEILING_EXCEEDED()": "infinite",
						"DEBT_CEILING_NOT_ZERO()": "infinite",
						"EMODE_CATEGORY_RESERVED()": "infinite",
						"FLASHLOAN_DISABLED()": "infinite",
						"FLASHLOAN_PREMIUM_INVALID()": "infinite",
						"HEALTH_FACTOR_LOWER_THAN_LIQUIDATION_THRESHOLD()": "infinite",
						"HEALTH_FACTOR_NOT_BELOW_THRESHOLD()": "infinite",
						"INCONSISTENT_EMODE_CATEGORY()": "infinite",
						"INCONSISTENT_FLASHLOAN_PARAMS()": "infinite",
						"INCONSISTENT_PARAMS_LENGTH()": "infinite",
						"INTEREST_RATE_REBALANCE_CONDITIONS_NOT_MET()": "infinite",
						"INVALID_ADDRESSES_PROVIDER()": "infinite",
						"INVALID_ADDRESSES_PROVIDER_ID()": "infinite",
						"INVALID_AMOUNT()": "infinite",
						"INVALID_BORROW_CAP()": "infinite",
						"INVALID_BURN_AMOUNT()": "infinite",
						"INVALID_DEBT_CEILING()": "infinite",
						"INVALID_DECIMALS()": "infinite",
						"INVALID_EMODE_CATEGORY()": "infinite",
						"INVALID_EMODE_CATEGORY_ASSIGNMENT()": "infinite",
						"INVALID_EMODE_CATEGORY_PARAMS()": "infinite",
						"INVALID_EXPIRATION()": "infinite",
						"INVALID_FLASHLOAN_EXECUTOR_RETURN()": "infinite",
						"INVALID_INTEREST_RATE_MODE_SELECTED()": "infinite",
						"INVALID_LIQUIDATION_PROTOCOL_FEE()": "infinite",
						"INVALID_LIQ_BONUS()": "infinite",
						"INVALID_LIQ_THRESHOLD()": "infinite",
						"INVALID_LTV()": "infinite",
						"INVALID_MINT_AMOUNT()": "infinite",
						"INVALID_OPTIMAL_STABLE_TO_TOTAL_DEBT_RATIO()": "infinite",
						"INVALID_OPTIMAL_USAGE_RATIO()": "infinite",
						"INVALID_RESERVE_FACTOR()": "infinite",
						"INVALID_RESERVE_INDEX()": "infinite",
						"INVALID_RESERVE_PARAMS()": "infinite",
						"INVALID_SIGNATURE()": "infinite",
						"INVALID_SUPPLY_CAP()": "infinite",
						"INVALID_UNBACKED_MINT_CAP()": "infinite",
						"LTV_VALIDATION_FAILED()": "infinite",
						"NOT_CONTRACT()": "infinite",
						"NOT_ENOUGH_AVAILABLE_USER_BALANCE()": "infinite",
						"NO_DEBT_OF_SELECTED_TYPE()": "infinite",
						"NO_EXPLICIT_AMOUNT_TO_REPAY_ON_BEHALF()": "infinite",
						"NO_MORE_RESERVES_ALLOWED()": "infinite",
						"NO_OUTSTANDING_STABLE_DEBT()": "infinite",
						"NO_OUTSTANDING_VARIABLE_DEBT()": "infinite",
						"OPERATION_NOT_SUPPORTED()": "infinite",
						"POOL_ADDRESSES_DO_NOT_MATCH()": "infinite",
						"PRICE_ORACLE_SENTINEL_CHECK_FAILED()": "infinite",
						"RESERVE_ALREADY_ADDED()": "infinite",
						"RESERVE_ALREADY_INITIALIZED()": "infinite",
						"RESERVE_DEBT_NOT_ZERO()": "infinite",
						"RESERVE_FROZEN()": "infinite",
						"RESERVE_INACTIVE()": "infinite",
						"RESERVE_LIQUIDITY_NOT_ZERO()": "infinite",
						"RESERVE_PAUSED()": "infinite",
						"SILOED_BORROWING_VIOLATION()": "infinite",
						"SPECIFIED_CURRENCY_NOT_BORROWED_BY_USER()": "infinite",
						"STABLE_BORROWING_ENABLED()": "infinite",
						"STABLE_BORROWING_NOT_ENABLED()": "infinite",
						"STABLE_DEBT_NOT_ZERO()": "infinite",
						"SUPPLY_CAP_EXCEEDED()": "infinite",
						"UNBACKED_MINT_CAP_EXCEEDED()": "infinite",
						"UNDERLYING_BALANCE_ZERO()": "infinite",
						"UNDERLYING_CANNOT_BE_RESCUED()": "infinite",
						"UNDERLYING_CLAIMABLE_RIGHTS_NOT_ZERO()": "infinite",
						"USER_IN_ISOLATION_MODE_OR_LTV_ZERO()": "infinite",
						"VARIABLE_DEBT_SUPPLY_NOT_ZERO()": "infinite",
						"ZERO_ADDRESS_NOT_VALID()": "infinite"
					}
				},
				"methodIdentifiers": {
					"ACL_ADMIN_CANNOT_BE_ZERO()": "fd1828ff",
					"ADDRESSES_PROVIDER_ALREADY_ADDED()": "14dcfbbc",
					"ADDRESSES_PROVIDER_NOT_REGISTERED()": "e02f07ee",
					"AMOUNT_BIGGER_THAN_MAX_LOAN_SIZE_STABLE()": "f07f6785",
					"ASSET_NOT_BORROWABLE_IN_ISOLATION()": "8596aad5",
					"ASSET_NOT_LISTED()": "cd23367c",
					"BORROWING_NOT_ENABLED()": "4ef999ff",
					"BORROW_CAP_EXCEEDED()": "2eed17e8",
					"BRIDGE_PROTOCOL_FEE_INVALID()": "7aa0767e",
					"CALLER_MUST_BE_POOL()": "471df685",
					"CALLER_NOT_ASSET_LISTING_OR_POOL_ADMIN()": "2c8e3b4c",
					"CALLER_NOT_ATOKEN()": "a2e976c6",
					"CALLER_NOT_BRIDGE()": "4f77647b",
					"CALLER_NOT_EMERGENCY_ADMIN()": "485c8ff6",
					"CALLER_NOT_POOL_ADMIN()": "ac753236",
					"CALLER_NOT_POOL_CONFIGURATOR()": "61c111d2",
					"CALLER_NOT_POOL_OR_EMERGENCY_ADMIN()": "26e7b312",
					"CALLER_NOT_RISK_OR_POOL_ADMIN()": "b5e79366",
					"COLLATERAL_BALANCE_IS_ZERO()": "4e01e3c1",
					"COLLATERAL_CANNOT_BE_LIQUIDATED()": "895f7dc8",
					"COLLATERAL_CANNOT_COVER_NEW_BORROW()": "e3fa20f5",
					"COLLATERAL_SAME_AS_BORROWING_CURRENCY()": "8a344000",
					"DEBT_CEILING_EXCEEDED()": "65a83bab",
					"DEBT_CEILING_NOT_ZERO()": "e4dd8b74",
					"EMODE_CATEGORY_RESERVED()": "f479ea11",
					"FLASHLOAN_DISABLED()": "8aa3ca4c",
					"FLASHLOAN_PREMIUM_INVALID()": "747fa556",
					"HEALTH_FACTOR_LOWER_THAN_LIQUIDATION_THRESHOLD()": "366eb54d",
					"HEALTH_FACTOR_NOT_BELOW_THRESHOLD()": "952633c5",
					"INCONSISTENT_EMODE_CATEGORY()": "8f7722b2",
					"INCONSISTENT_FLASHLOAN_PARAMS()": "73dea5e3",
					"INCONSISTENT_PARAMS_LENGTH()": "bad8308c",
					"INTEREST_RATE_REBALANCE_CONDITIONS_NOT_MET()": "2926c971",
					"INVALID_ADDRESSES_PROVIDER()": "37930782",
					"INVALID_ADDRESSES_PROVIDER_ID()": "60c3de80",
					"INVALID_AMOUNT()": "fae82791",
					"INVALID_BORROW_CAP()": "d6f9fcde",
					"INVALID_BURN_AMOUNT()": "51267450",
					"INVALID_DEBT_CEILING()": "dcc56db6",
					"INVALID_DECIMALS()": "fa163a83",
					"INVALID_EMODE_CATEGORY()": "a8c97853",
					"INVALID_EMODE_CATEGORY_ASSIGNMENT()": "5d9c76c0",
					"INVALID_EMODE_CATEGORY_PARAMS()": "47cf1523",
					"INVALID_EXPIRATION()": "c08a1146",
					"INVALID_FLASHLOAN_EXECUTOR_RETURN()": "7fea6f36",
					"INVALID_INTEREST_RATE_MODE_SELECTED()": "89c5d45f",
					"INVALID_LIQUIDATION_PROTOCOL_FEE()": "8eda46bd",
					"INVALID_LIQ_BONUS()": "9527e9d9",
					"INVALID_LIQ_THRESHOLD()": "dd1dd95f",
					"INVALID_LTV()": "99ce53f3",
					"INVALID_MINT_AMOUNT()": "abd351b1",
					"INVALID_OPTIMAL_STABLE_TO_TOTAL_DEBT_RATIO()": "c899301a",
					"INVALID_OPTIMAL_USAGE_RATIO()": "4e3aed37",
					"INVALID_RESERVE_FACTOR()": "a4868dca",
					"INVALID_RESERVE_INDEX()": "d1cd8b1d",
					"INVALID_RESERVE_PARAMS()": "335763de",
					"INVALID_SIGNATURE()": "a3402a38",
					"INVALID_SUPPLY_CAP()": "26bbd053",
					"INVALID_UNBACKED_MINT_CAP()": "47ba93d8",
					"LTV_VALIDATION_FAILED()": "b87041c2",
					"NOT_CONTRACT()": "11d7b006",
					"NOT_ENOUGH_AVAILABLE_USER_BALANCE()": "b7f5e224",
					"NO_DEBT_OF_SELECTED_TYPE()": "dc191bd9",
					"NO_EXPLICIT_AMOUNT_TO_REPAY_ON_BEHALF()": "712f536a",
					"NO_MORE_RESERVES_ALLOWED()": "76ae8fca",
					"NO_OUTSTANDING_STABLE_DEBT()": "74459b14",
					"NO_OUTSTANDING_VARIABLE_DEBT()": "b4a45730",
					"OPERATION_NOT_SUPPORTED()": "8b8b98d7",
					"POOL_ADDRESSES_DO_NOT_MATCH()": "1abbb001",
					"PRICE_ORACLE_SENTINEL_CHECK_FAILED()": "c8638082",
					"RESERVE_ALREADY_ADDED()": "12dcade8",
					"RESERVE_ALREADY_INITIALIZED()": "d9adda85",
					"RESERVE_DEBT_NOT_ZERO()": "e981483a",
					"RESERVE_FROZEN()": "6cd3cfbc",
					"RESERVE_INACTIVE()": "52ba9dbe",
					"RESERVE_LIQUIDITY_NOT_ZERO()": "084dfa0d",
					"RESERVE_PAUSED()": "b68774e9",
					"SILOED_BORROWING_VIOLATION()": "de24948c",
					"SPECIFIED_CURRENCY_NOT_BORROWED_BY_USER()": "22a73446",
					"STABLE_BORROWING_ENABLED()": "198d6a6b",
					"STABLE_BORROWING_NOT_ENABLED()": "4d86f393",
					"STABLE_DEBT_NOT_ZERO()": "65e7ef4c",
					"SUPPLY_CAP_EXCEEDED()": "b0510054",
					"UNBACKED_MINT_CAP_EXCEEDED()": "6b3f7cc7",
					"UNDERLYING_BALANCE_ZERO()": "a2797c80",
					"UNDERLYING_CANNOT_BE_RESCUED()": "ab883ca0",
					"UNDERLYING_CLAIMABLE_RIGHTS_NOT_ZERO()": "94f9fd8a",
					"USER_IN_ISOLATION_MODE_OR_LTV_ZERO()": "480702ae",
					"VARIABLE_DEBT_SUPPLY_NOT_ZERO()": "f10727db",
					"ZERO_ADDRESS_NOT_VALID()": "d14bb17a"
				}
			},
			"storageLayout": {
				"storage": [],
				"types": null
			},
			"userdoc": {
				"kind": "user",
				"methods": {},
				"notice": "Defines the error messages emitted by the different contracts of the Aave protocol",
				"version": 1
			}
		}
	}
}