{
	"contracts/rewards/EmissionManager.sol": {
		"EmissionManager": {
			"abi": [
				{
					"inputs": [
						{
							"internalType": "address",
							"name": "owner",
							"type": "address"
						}
					],
					"stateMutability": "nonpayable",
					"type": "constructor"
				},
				{
					"anonymous": false,
					"inputs": [
						{
							"indexed": true,
							"internalType": "address",
							"name": "reward",
							"type": "address"
						},
						{
							"indexed": true,
							"internalType": "address",
							"name": "oldAdmin",
							"type": "address"
						},
						{
							"indexed": true,
							"internalType": "address",
							"name": "newAdmin",
							"type": "address"
						}
					],
					"name": "EmissionAdminUpdated",
					"type": "event"
				},
				{
					"anonymous": false,
					"inputs": [
						{
							"indexed": true,
							"internalType": "address",
							"name": "previousOwner",
							"type": "address"
						},
						{
							"indexed": true,
							"internalType": "address",
							"name": "newOwner",
							"type": "address"
						}
					],
					"name": "OwnershipTransferred",
					"type": "event"
				},
				{
					"inputs": [
						{
							"components": [
								{
									"internalType": "uint88",
									"name": "emissionPerSecond",
									"type": "uint88"
								},
								{
									"internalType": "uint256",
									"name": "totalSupply",
									"type": "uint256"
								},
								{
									"internalType": "uint32",
									"name": "distributionEnd",
									"type": "uint32"
								},
								{
									"internalType": "address",
									"name": "asset",
									"type": "address"
								},
								{
									"internalType": "address",
									"name": "reward",
									"type": "address"
								},
								{
									"internalType": "contract ITransferStrategyBase",
									"name": "transferStrategy",
									"type": "address"
								},
								{
									"internalType": "contract IEACAggregatorProxy",
									"name": "rewardOracle",
									"type": "address"
								}
							],
							"internalType": "struct RewardsDataTypes.RewardsConfigInput[]",
							"name": "config",
							"type": "tuple[]"
						}
					],
					"name": "configureAssets",
					"outputs": [],
					"stateMutability": "nonpayable",
					"type": "function"
				},
				{
					"inputs": [
						{
							"internalType": "address",
							"name": "reward",
							"type": "address"
						}
					],
					"name": "getEmissionAdmin",
					"outputs": [
						{
							"internalType": "address",
							"name": "",
							"type": "address"
						}
					],
					"stateMutability": "view",
					"type": "function"
				},
				{
					"inputs": [],
					"name": "getRewardsController",
					"outputs": [
						{
							"internalType": "contract IRewardsController",
							"name": "",
							"type": "address"
						}
					],
					"stateMutability": "view",
					"type": "function"
				},
				{
					"inputs": [],
					"name": "owner",
					"outputs": [
						{
							"internalType": "address",
							"name": "",
							"type": "address"
						}
					],
					"stateMutability": "view",
					"type": "function"
				},
				{
					"inputs": [],
					"name": "renounceOwnership",
					"outputs": [],
					"stateMutability": "nonpayable",
					"type": "function"
				},
				{
					"inputs": [
						{
							"internalType": "address",
							"name": "user",
							"type": "address"
						},
						{
							"internalType": "address",
							"name": "claimer",
							"type": "address"
						}
					],
					"name": "setClaimer",
					"outputs": [],
					"stateMutability": "nonpayable",
					"type": "function"
				},
				{
					"inputs": [
						{
							"internalType": "address",
							"name": "asset",
							"type": "address"
						},
						{
							"internalType": "address",
							"name": "reward",
							"type": "address"
						},
						{
							"internalType": "uint32",
							"name": "newDistributionEnd",
							"type": "uint32"
						}
					],
					"name": "setDistributionEnd",
					"outputs": [],
					"stateMutability": "nonpayable",
					"type": "function"
				},
				{
					"inputs": [
						{
							"internalType": "address",
							"name": "reward",
							"type": "address"
						},
						{
							"internalType": "address",
							"name": "admin",
							"type": "address"
						}
					],
					"name": "setEmissionAdmin",
					"outputs": [],
					"stateMutability": "nonpayable",
					"type": "function"
				},
				{
					"inputs": [
						{
							"internalType": "address",
							"name": "asset",
							"type": "address"
						},
						{
							"internalType": "address[]",
							"name": "rewards",
							"type": "address[]"
						},
						{
							"internalType": "uint88[]",
							"name": "newEmissionsPerSecond",
							"type": "uint88[]"
						}
					],
					"name": "setEmissionPerSecond",
					"outputs": [],
					"stateMutability": "nonpayable",
					"type": "function"
				},
				{
					"inputs": [
						{
							"internalType": "address",
							"name": "reward",
							"type": "address"
						},
						{
							"internalType": "contract IEACAggregatorProxy",
							"name": "rewardOracle",
							"type": "address"
						}
					],
					"name": "setRewardOracle",
					"outputs": [],
					"stateMutability": "nonpayable",
					"type": "function"
				},
				{
					"inputs": [
						{
							"internalType": "address",
							"name": "controller",
							"type": "address"
						}
					],
					"name": "setRewardsController",
					"outputs": [],
					"stateMutability": "nonpayable",
					"type": "function"
				},
				{
					"inputs": [
						{
							"internalType": "address",
							"name": "reward",
							"type": "address"
						},
						{
							"internalType": "contract ITransferStrategyBase",
							"name": "transferStrategy",
							"type": "address"
						}
					],
					"name": "setTransferStrategy",
					"outputs": [],
					"stateMutability": "nonpayable",
					"type": "function"
				},
				{
					"inputs": [
						{
							"internalType": "address",
							"name": "newOwner",
							"type": "address"
						}
					],
					"name": "transferOwnership",
					"outputs": [],
					"stateMutability": "nonpayable",
					"type": "function"
				}
			],
			"devdoc": {
				"author": "Aave",
				"events": {
					"EmissionAdminUpdated(address,address,address)": {
						"details": "Emitted when the admin of a reward emission is updated.",
						"params": {
							"newAdmin": "The address of the new emission admin",
							"oldAdmin": "The address of the old emission admin",
							"reward": "The address of the rewarding token"
						}
					}
				},
				"kind": "dev",
				"methods": {
					"configureAssets((uint88,uint256,uint32,address,address,address,address)[])": {
						"details": "Configure assets to incentivize with an emission of rewards per second until the end of distribution.Only callable by the emission admin of the given rewards",
						"params": {
							"config": "The assets configuration input, the list of structs contains the following fields:   uint104 emissionPerSecond: The emission per second following rewards unit decimals.   uint256 totalSupply: The total supply of the asset to incentivize   uint40 distributionEnd: The end of the distribution of the incentives for an asset   address asset: The asset address to incentivize   address reward: The reward token address   ITransferStrategy transferStrategy: The TransferStrategy address with the install hook and claim logic.   IEACAggregatorProxy rewardOracle: The Price Oracle of a reward to visualize the incentives at the UI Frontend.                                     Must follow Chainlink Aggregator IEACAggregatorProxy interface to be compatible."
						}
					},
					"constructor": {
						"params": {
							"owner": "The address of the owner"
						}
					},
					"getEmissionAdmin(address)": {
						"details": "Returns the admin of the given reward emission",
						"params": {
							"reward": "The address of the reward token"
						},
						"returns": {
							"_0": "The address of the emission admin"
						}
					},
					"getRewardsController()": {
						"details": "Returns the rewards controller address",
						"returns": {
							"_0": "The address of the RewardsController contract"
						}
					},
					"owner()": {
						"details": "Returns the address of the current owner."
					},
					"renounceOwnership()": {
						"details": "Leaves the contract without owner. It will not be possible to call `onlyOwner` functions anymore. Can only be called by the current owner. NOTE: Renouncing ownership will leave the contract without an owner, thereby removing any functionality that is only available to the owner."
					},
					"setClaimer(address,address)": {
						"details": "Whitelists an address to claim the rewards on behalf of another addressOnly callable by the owner of the EmissionManager",
						"params": {
							"claimer": "The address of the claimer",
							"user": "The address of the user"
						}
					},
					"setDistributionEnd(address,address,uint32)": {
						"details": "Sets the end date for the distributionOnly callable by the emission admin of the given reward",
						"params": {
							"asset": "The asset to incentivize",
							"newDistributionEnd": "The end date of the incentivization, in unix time format*",
							"reward": "The reward token that incentives the asset"
						}
					},
					"setEmissionAdmin(address,address)": {
						"details": "Updates the admin of the reward emissionOnly callable by the owner of the EmissionManager",
						"params": {
							"admin": "The address of the new admin of the emission",
							"reward": "The address of the reward token"
						}
					},
					"setEmissionPerSecond(address,address[],uint88[])": {
						"details": "Sets the emission per second of a set of reward distributions",
						"params": {
							"asset": "The asset is being incentivized",
							"newEmissionsPerSecond": "List of new reward emissions per second",
							"rewards": "List of reward addresses are being distributed"
						}
					},
					"setRewardOracle(address,address)": {
						"details": "Sets an Aave Oracle contract to enforce rewards with a source of value.Only callable by the emission admin of the given reward",
						"params": {
							"reward": "The address of the reward to set the price aggregator",
							"rewardOracle": "The address of price aggregator that follows IEACAggregatorProxy interface"
						}
					},
					"setRewardsController(address)": {
						"details": "Updates the address of the rewards controllerOnly callable by the owner of the EmissionManager",
						"params": {
							"controller": "the address of the RewardsController contract"
						}
					},
					"setTransferStrategy(address,address)": {
						"details": "Sets a TransferStrategy logic contract that determines the logic of the rewards transferOnly callable by the emission admin of the given reward",
						"params": {
							"reward": "The address of the reward token",
							"transferStrategy": "The address of the TransferStrategy logic contract"
						}
					},
					"transferOwnership(address)": {
						"details": "Transfers ownership of the contract to a new account (`newOwner`). Can only be called by the current owner."
					}
				},
				"title": "EmissionManager",
				"version": 1
			},
			"evm": {
				"assembly": "    /* \"contracts/rewards/EmissionManager.sol\":704:3819  contract EmissionManager is Ownable, IEmissionManager {... */\n  mstore(0x40, 0x80)\n    /* \"contracts/rewards/EmissionManager.sol\":1231:1295  constructor(address owner) {... */\n  callvalue\n  dup1\n  iszero\n  tag_1\n  jumpi\n  0x00\n  dup1\n  revert\ntag_1:\n  pop\n  mload(0x40)\n  sub(codesize, bytecodeSize)\n  dup1\n  bytecodeSize\n  dup4\n  codecopy\n  dup2\n  dup2\n  add\n  0x40\n  mstore\n  dup2\n  add\n  swap1\n  tag_2\n  swap2\n  swap1\n  tag_3\n  jump\t// in\ntag_2:\n    /* \"@aave/core-v3/contracts/dependencies/openzeppelin/contracts/Ownable.sol\":835:852  address msgSender */\n  0x00\n    /* \"@aave/core-v3/contracts/dependencies/openzeppelin/contracts/Ownable.sol\":855:867  _msgSender() */\n  tag_7\n    /* \"@aave/core-v3/contracts/dependencies/openzeppelin/contracts/Ownable.sol\":855:865  _msgSender */\n  shl(0x20, tag_8)\n    /* \"@aave/core-v3/contracts/dependencies/openzeppelin/contracts/Ownable.sol\":855:867  _msgSender() */\n  0x20\n  shr\n  jump\t// in\ntag_7:\n    /* \"@aave/core-v3/contracts/dependencies/openzeppelin/contracts/Ownable.sol\":835:867  address msgSender = _msgSender() */\n  swap1\n  pop\n    /* \"@aave/core-v3/contracts/dependencies/openzeppelin/contracts/Ownable.sol\":882:891  msgSender */\n  dup1\n    /* \"@aave/core-v3/contracts/dependencies/openzeppelin/contracts/Ownable.sol\":873:879  _owner */\n  0x00\n  dup1\n    /* \"@aave/core-v3/contracts/dependencies/openzeppelin/contracts/Ownable.sol\":873:891  _owner = msgSender */\n  0x0100\n  exp\n  dup2\n  sload\n  dup2\n  0xffffffffffffffffffffffffffffffffffffffff\n  mul\n  not\n  and\n  swap1\n  dup4\n  0xffffffffffffffffffffffffffffffffffffffff\n  and\n  mul\n  or\n  swap1\n  sstore\n  pop\n    /* \"@aave/core-v3/contracts/dependencies/openzeppelin/contracts/Ownable.sol\":935:944  msgSender */\n  dup1\n    /* \"@aave/core-v3/contracts/dependencies/openzeppelin/contracts/Ownable.sol\":902:945  OwnershipTransferred(address(0), msgSender) */\n  0xffffffffffffffffffffffffffffffffffffffff\n  and\n    /* \"@aave/core-v3/contracts/dependencies/openzeppelin/contracts/Ownable.sol\":931:932  0 */\n  0x00\n    /* \"@aave/core-v3/contracts/dependencies/openzeppelin/contracts/Ownable.sol\":902:945  OwnershipTransferred(address(0), msgSender) */\n  0xffffffffffffffffffffffffffffffffffffffff\n  and\n  0x8be0079c531659141344cd1fd0a4f28419497f9722a3daafe3b4186f6b6457e0\n  mload(0x40)\n  mload(0x40)\n  dup1\n  swap2\n  sub\n  swap1\n  log3\n    /* \"@aave/core-v3/contracts/dependencies/openzeppelin/contracts/Ownable.sol\":829:950  {... */\n  pop\n    /* \"contracts/rewards/EmissionManager.sol\":1265:1289  transferOwnership(owner) */\n  tag_10\n    /* \"contracts/rewards/EmissionManager.sol\":1283:1288  owner */\n  dup2\n    /* \"contracts/rewards/EmissionManager.sol\":1265:1282  transferOwnership */\n  shl(0x20, tag_11)\n    /* \"contracts/rewards/EmissionManager.sol\":1265:1289  transferOwnership(owner) */\n  0x20\n  shr\n  jump\t// in\ntag_10:\n    /* \"contracts/rewards/EmissionManager.sol\":1231:1295  constructor(address owner) {... */\n  pop\n    /* \"contracts/rewards/EmissionManager.sol\":704:3819  contract EmissionManager is Ownable, IEmissionManager {... */\n  jump(tag_12)\n    /* \"@aave/core-v3/contracts/dependencies/openzeppelin/contracts/Context.sol\":587:694  function _msgSender() internal view virtual returns (address payable) {... */\ntag_8:\n    /* \"@aave/core-v3/contracts/dependencies/openzeppelin/contracts/Context.sol\":640:655  address payable */\n  0x00\n    /* \"@aave/core-v3/contracts/dependencies/openzeppelin/contracts/Context.sol\":678:688  msg.sender */\n  caller\n    /* \"@aave/core-v3/contracts/dependencies/openzeppelin/contracts/Context.sol\":663:689  return payable(msg.sender) */\n  swap1\n  pop\n    /* \"@aave/core-v3/contracts/dependencies/openzeppelin/contracts/Context.sol\":587:694  function _msgSender() internal view virtual returns (address payable) {... */\n  swap1\n  jump\t// out\n    /* \"@aave/core-v3/contracts/dependencies/openzeppelin/contracts/Ownable.sol\":1875:2101  function transferOwnership(address newOwner) public virtual onlyOwner {... */\ntag_11:\n    /* \"@aave/core-v3/contracts/dependencies/openzeppelin/contracts/Ownable.sol\":1214:1226  _msgSender() */\n  tag_15\n    /* \"@aave/core-v3/contracts/dependencies/openzeppelin/contracts/Ownable.sol\":1214:1224  _msgSender */\n  shl(0x20, tag_8)\n    /* \"@aave/core-v3/contracts/dependencies/openzeppelin/contracts/Ownable.sol\":1214:1226  _msgSender() */\n  0x20\n  shr\n  jump\t// in\ntag_15:\n    /* \"@aave/core-v3/contracts/dependencies/openzeppelin/contracts/Ownable.sol\":1204:1226  _owner == _msgSender() */\n  0xffffffffffffffffffffffffffffffffffffffff\n  and\n    /* \"@aave/core-v3/contracts/dependencies/openzeppelin/contracts/Ownable.sol\":1204:1210  _owner */\n  0x00\n  dup1\n  sload\n  swap1\n  0x0100\n  exp\n  swap1\n  div\n  0xffffffffffffffffffffffffffffffffffffffff\n  and\n    /* \"@aave/core-v3/contracts/dependencies/openzeppelin/contracts/Ownable.sol\":1204:1226  _owner == _msgSender() */\n  0xffffffffffffffffffffffffffffffffffffffff\n  and\n  eq\n    /* \"@aave/core-v3/contracts/dependencies/openzeppelin/contracts/Ownable.sol\":1196:1263  require(_owner == _msgSender(), 'Ownable: caller is not the owner') */\n  tag_16\n  jumpi\n  mload(0x40)\n  0x08c379a000000000000000000000000000000000000000000000000000000000\n  dup2\n  mstore\n  0x04\n  add\n  tag_17\n  swap1\n  tag_18\n  jump\t// in\ntag_17:\n  mload(0x40)\n  dup1\n  swap2\n  sub\n  swap1\n  revert\ntag_16:\n    /* \"@aave/core-v3/contracts/dependencies/openzeppelin/contracts/Ownable.sol\":1979:1980  0 */\n  0x00\n    /* \"@aave/core-v3/contracts/dependencies/openzeppelin/contracts/Ownable.sol\":1959:1981  newOwner != address(0) */\n  0xffffffffffffffffffffffffffffffffffffffff\n  and\n    /* \"@aave/core-v3/contracts/dependencies/openzeppelin/contracts/Ownable.sol\":1959:1967  newOwner */\n  dup2\n    /* \"@aave/core-v3/contracts/dependencies/openzeppelin/contracts/Ownable.sol\":1959:1981  newOwner != address(0) */\n  0xffffffffffffffffffffffffffffffffffffffff\n  and\n  sub\n    /* \"@aave/core-v3/contracts/dependencies/openzeppelin/contracts/Ownable.sol\":1951:2024  require(newOwner != address(0), 'Ownable: new owner is the zero address') */\n  tag_20\n  jumpi\n  mload(0x40)\n  0x08c379a000000000000000000000000000000000000000000000000000000000\n  dup2\n  mstore\n  0x04\n  add\n  tag_21\n  swap1\n  tag_22\n  jump\t// in\ntag_21:\n  mload(0x40)\n  dup1\n  swap2\n  sub\n  swap1\n  revert\ntag_20:\n    /* \"@aave/core-v3/contracts/dependencies/openzeppelin/contracts/Ownable.sol\":2064:2072  newOwner */\n  dup1\n    /* \"@aave/core-v3/contracts/dependencies/openzeppelin/contracts/Ownable.sol\":2035:2073  OwnershipTransferred(_owner, newOwner) */\n  0xffffffffffffffffffffffffffffffffffffffff\n  and\n    /* \"@aave/core-v3/contracts/dependencies/openzeppelin/contracts/Ownable.sol\":2056:2062  _owner */\n  0x00\n  dup1\n  sload\n  swap1\n  0x0100\n  exp\n  swap1\n  div\n  0xffffffffffffffffffffffffffffffffffffffff\n  and\n    /* \"@aave/core-v3/contracts/dependencies/openzeppelin/contracts/Ownable.sol\":2035:2073  OwnershipTransferred(_owner, newOwner) */\n  0xffffffffffffffffffffffffffffffffffffffff\n  and\n  0x8be0079c531659141344cd1fd0a4f28419497f9722a3daafe3b4186f6b6457e0\n  mload(0x40)\n  mload(0x40)\n  dup1\n  swap2\n  sub\n  swap1\n  log3\n    /* \"@aave/core-v3/contracts/dependencies/openzeppelin/contracts/Ownable.sol\":2088:2096  newOwner */\n  dup1\n    /* \"@aave/core-v3/contracts/dependencies/openzeppelin/contracts/Ownable.sol\":2079:2085  _owner */\n  0x00\n  dup1\n    /* \"@aave/core-v3/contracts/dependencies/openzeppelin/contracts/Ownable.sol\":2079:2096  _owner = newOwner */\n  0x0100\n  exp\n  dup2\n  sload\n  dup2\n  0xffffffffffffffffffffffffffffffffffffffff\n  mul\n  not\n  and\n  swap1\n  dup4\n  0xffffffffffffffffffffffffffffffffffffffff\n  and\n  mul\n  or\n  swap1\n  sstore\n  pop\n    /* \"@aave/core-v3/contracts/dependencies/openzeppelin/contracts/Ownable.sol\":1875:2101  function transferOwnership(address newOwner) public virtual onlyOwner {... */\n  pop\n  jump\t// out\n    /* \"#utility.yul\":88:205   */\ntag_24:\n    /* \"#utility.yul\":197:198   */\n  0x00\n    /* \"#utility.yul\":194:195   */\n  dup1\n    /* \"#utility.yul\":187:199   */\n  revert\n    /* \"#utility.yul\":334:460   */\ntag_26:\n    /* \"#utility.yul\":371:378   */\n  0x00\n    /* \"#utility.yul\":411:453   */\n  0xffffffffffffffffffffffffffffffffffffffff\n    /* \"#utility.yul\":404:409   */\n  dup3\n    /* \"#utility.yul\":400:454   */\n  and\n    /* \"#utility.yul\":389:454   */\n  swap1\n  pop\n    /* \"#utility.yul\":334:460   */\n  swap2\n  swap1\n  pop\n  jump\t// out\n    /* \"#utility.yul\":466:562   */\ntag_27:\n    /* \"#utility.yul\":503:510   */\n  0x00\n    /* \"#utility.yul\":532:556   */\n  tag_41\n    /* \"#utility.yul\":550:555   */\n  dup3\n    /* \"#utility.yul\":532:556   */\n  tag_26\n  jump\t// in\ntag_41:\n    /* \"#utility.yul\":521:556   */\n  swap1\n  pop\n    /* \"#utility.yul\":466:562   */\n  swap2\n  swap1\n  pop\n  jump\t// out\n    /* \"#utility.yul\":568:690   */\ntag_28:\n    /* \"#utility.yul\":641:665   */\n  tag_43\n    /* \"#utility.yul\":659:664   */\n  dup2\n    /* \"#utility.yul\":641:665   */\n  tag_27\n  jump\t// in\ntag_43:\n    /* \"#utility.yul\":634:639   */\n  dup2\n    /* \"#utility.yul\":631:666   */\n  eq\n    /* \"#utility.yul\":621:684   */\n  tag_44\n  jumpi\n    /* \"#utility.yul\":680:681   */\n  0x00\n    /* \"#utility.yul\":677:678   */\n  dup1\n    /* \"#utility.yul\":670:682   */\n  revert\n    /* \"#utility.yul\":621:684   */\ntag_44:\n    /* \"#utility.yul\":568:690   */\n  pop\n  jump\t// out\n    /* \"#utility.yul\":696:839   */\ntag_29:\n    /* \"#utility.yul\":753:758   */\n  0x00\n    /* \"#utility.yul\":784:790   */\n  dup2\n    /* \"#utility.yul\":778:791   */\n  mload\n    /* \"#utility.yul\":769:791   */\n  swap1\n  pop\n    /* \"#utility.yul\":800:833   */\n  tag_46\n    /* \"#utility.yul\":827:832   */\n  dup2\n    /* \"#utility.yul\":800:833   */\n  tag_28\n  jump\t// in\ntag_46:\n    /* \"#utility.yul\":696:839   */\n  swap3\n  swap2\n  pop\n  pop\n  jump\t// out\n    /* \"#utility.yul\":845:1196   */\ntag_3:\n    /* \"#utility.yul\":915:921   */\n  0x00\n    /* \"#utility.yul\":964:966   */\n  0x20\n    /* \"#utility.yul\":952:961   */\n  dup3\n    /* \"#utility.yul\":943:950   */\n  dup5\n    /* \"#utility.yul\":939:962   */\n  sub\n    /* \"#utility.yul\":935:967   */\n  slt\n    /* \"#utility.yul\":932:1051   */\n  iszero\n  tag_48\n  jumpi\n    /* \"#utility.yul\":970:1049   */\n  tag_49\n  tag_24\n  jump\t// in\ntag_49:\n    /* \"#utility.yul\":932:1051   */\ntag_48:\n    /* \"#utility.yul\":1090:1091   */\n  0x00\n    /* \"#utility.yul\":1115:1179   */\n  tag_50\n    /* \"#utility.yul\":1171:1178   */\n  dup5\n    /* \"#utility.yul\":1162:1168   */\n  dup3\n    /* \"#utility.yul\":1151:1160   */\n  dup6\n    /* \"#utility.yul\":1147:1169   */\n  add\n    /* \"#utility.yul\":1115:1179   */\n  tag_29\n  jump\t// in\ntag_50:\n    /* \"#utility.yul\":1105:1179   */\n  swap2\n  pop\n    /* \"#utility.yul\":1061:1189   */\n  pop\n    /* \"#utility.yul\":845:1196   */\n  swap3\n  swap2\n  pop\n  pop\n  jump\t// out\n    /* \"#utility.yul\":1202:1371   */\ntag_30:\n    /* \"#utility.yul\":1286:1297   */\n  0x00\n    /* \"#utility.yul\":1320:1326   */\n  dup3\n    /* \"#utility.yul\":1315:1318   */\n  dup3\n    /* \"#utility.yul\":1308:1327   */\n  mstore\n    /* \"#utility.yul\":1360:1364   */\n  0x20\n    /* \"#utility.yul\":1355:1358   */\n  dup3\n    /* \"#utility.yul\":1351:1365   */\n  add\n    /* \"#utility.yul\":1336:1365   */\n  swap1\n  pop\n    /* \"#utility.yul\":1202:1371   */\n  swap3\n  swap2\n  pop\n  pop\n  jump\t// out\n    /* \"#utility.yul\":1377:1559   */\ntag_31:\n    /* \"#utility.yul\":1517:1551   */\n  0x4f776e61626c653a2063616c6c6572206973206e6f7420746865206f776e6572\n    /* \"#utility.yul\":1513:1514   */\n  0x00\n    /* \"#utility.yul\":1505:1511   */\n  dup3\n    /* \"#utility.yul\":1501:1515   */\n  add\n    /* \"#utility.yul\":1494:1552   */\n  mstore\n    /* \"#utility.yul\":1377:1559   */\n  pop\n  jump\t// out\n    /* \"#utility.yul\":1565:1931   */\ntag_32:\n    /* \"#utility.yul\":1707:1710   */\n  0x00\n    /* \"#utility.yul\":1728:1795   */\n  tag_54\n    /* \"#utility.yul\":1792:1794   */\n  0x20\n    /* \"#utility.yul\":1787:1790   */\n  dup4\n    /* \"#utility.yul\":1728:1795   */\n  tag_30\n  jump\t// in\ntag_54:\n    /* \"#utility.yul\":1721:1795   */\n  swap2\n  pop\n    /* \"#utility.yul\":1804:1897   */\n  tag_55\n    /* \"#utility.yul\":1893:1896   */\n  dup3\n    /* \"#utility.yul\":1804:1897   */\n  tag_31\n  jump\t// in\ntag_55:\n    /* \"#utility.yul\":1922:1924   */\n  0x20\n    /* \"#utility.yul\":1917:1920   */\n  dup3\n    /* \"#utility.yul\":1913:1925   */\n  add\n    /* \"#utility.yul\":1906:1925   */\n  swap1\n  pop\n    /* \"#utility.yul\":1565:1931   */\n  swap2\n  swap1\n  pop\n  jump\t// out\n    /* \"#utility.yul\":1937:2356   */\ntag_18:\n    /* \"#utility.yul\":2103:2107   */\n  0x00\n    /* \"#utility.yul\":2141:2143   */\n  0x20\n    /* \"#utility.yul\":2130:2139   */\n  dup3\n    /* \"#utility.yul\":2126:2144   */\n  add\n    /* \"#utility.yul\":2118:2144   */\n  swap1\n  pop\n    /* \"#utility.yul\":2190:2199   */\n  dup2\n    /* \"#utility.yul\":2184:2188   */\n  dup2\n    /* \"#utility.yul\":2180:2200   */\n  sub\n    /* \"#utility.yul\":2176:2177   */\n  0x00\n    /* \"#utility.yul\":2165:2174   */\n  dup4\n    /* \"#utility.yul\":2161:2178   */\n  add\n    /* \"#utility.yul\":2154:2201   */\n  mstore\n    /* \"#utility.yul\":2218:2349   */\n  tag_57\n    /* \"#utility.yul\":2344:2348   */\n  dup2\n    /* \"#utility.yul\":2218:2349   */\n  tag_32\n  jump\t// in\ntag_57:\n    /* \"#utility.yul\":2210:2349   */\n  swap1\n  pop\n    /* \"#utility.yul\":1937:2356   */\n  swap2\n  swap1\n  pop\n  jump\t// out\n    /* \"#utility.yul\":2362:2587   */\ntag_33:\n    /* \"#utility.yul\":2502:2536   */\n  0x4f776e61626c653a206e6577206f776e657220697320746865207a65726f2061\n    /* \"#utility.yul\":2498:2499   */\n  0x00\n    /* \"#utility.yul\":2490:2496   */\n  dup3\n    /* \"#utility.yul\":2486:2500   */\n  add\n    /* \"#utility.yul\":2479:2537   */\n  mstore\n    /* \"#utility.yul\":2571:2579   */\n  0x6464726573730000000000000000000000000000000000000000000000000000\n    /* \"#utility.yul\":2566:2568   */\n  0x20\n    /* \"#utility.yul\":2558:2564   */\n  dup3\n    /* \"#utility.yul\":2554:2569   */\n  add\n    /* \"#utility.yul\":2547:2580   */\n  mstore\n    /* \"#utility.yul\":2362:2587   */\n  pop\n  jump\t// out\n    /* \"#utility.yul\":2593:2959   */\ntag_34:\n    /* \"#utility.yul\":2735:2738   */\n  0x00\n    /* \"#utility.yul\":2756:2823   */\n  tag_60\n    /* \"#utility.yul\":2820:2822   */\n  0x26\n    /* \"#utility.yul\":2815:2818   */\n  dup4\n    /* \"#utility.yul\":2756:2823   */\n  tag_30\n  jump\t// in\ntag_60:\n    /* \"#utility.yul\":2749:2823   */\n  swap2\n  pop\n    /* \"#utility.yul\":2832:2925   */\n  tag_61\n    /* \"#utility.yul\":2921:2924   */\n  dup3\n    /* \"#utility.yul\":2832:2925   */\n  tag_33\n  jump\t// in\ntag_61:\n    /* \"#utility.yul\":2950:2952   */\n  0x40\n    /* \"#utility.yul\":2945:2948   */\n  dup3\n    /* \"#utility.yul\":2941:2953   */\n  add\n    /* \"#utility.yul\":2934:2953   */\n  swap1\n  pop\n    /* \"#utility.yul\":2593:2959   */\n  swap2\n  swap1\n  pop\n  jump\t// out\n    /* \"#utility.yul\":2965:3384   */\ntag_22:\n    /* \"#utility.yul\":3131:3135   */\n  0x00\n    /* \"#utility.yul\":3169:3171   */\n  0x20\n    /* \"#utility.yul\":3158:3167   */\n  dup3\n    /* \"#utility.yul\":3154:3172   */\n  add\n    /* \"#utility.yul\":3146:3172   */\n  swap1\n  pop\n    /* \"#utility.yul\":3218:3227   */\n  dup2\n    /* \"#utility.yul\":3212:3216   */\n  dup2\n    /* \"#utility.yul\":3208:3228   */\n  sub\n    /* \"#utility.yul\":3204:3205   */\n  0x00\n    /* \"#utility.yul\":3193:3202   */\n  dup4\n    /* \"#utility.yul\":3189:3206   */\n  add\n    /* \"#utility.yul\":3182:3229   */\n  mstore\n    /* \"#utility.yul\":3246:3377   */\n  tag_63\n    /* \"#utility.yul\":3372:3376   */\n  dup2\n    /* \"#utility.yul\":3246:3377   */\n  tag_34\n  jump\t// in\ntag_63:\n    /* \"#utility.yul\":3238:3377   */\n  swap1\n  pop\n    /* \"#utility.yul\":2965:3384   */\n  swap2\n  swap1\n  pop\n  jump\t// out\n    /* \"contracts/rewards/EmissionManager.sol\":704:3819  contract EmissionManager is Ownable, IEmissionManager {... */\ntag_12:\n  dataSize(sub_0)\n  dup1\n  dataOffset(sub_0)\n  0x00\n  codecopy\n  0x00\n  return\nstop\n\nsub_0: assembly {\n        /* \"contracts/rewards/EmissionManager.sol\":704:3819  contract EmissionManager is Ownable, IEmissionManager {... */\n      mstore(0x40, 0x80)\n      callvalue\n      dup1\n      iszero\n      tag_1\n      jumpi\n      0x00\n      dup1\n      revert\n    tag_1:\n      pop\n      jumpi(tag_2, lt(calldatasize, 0x04))\n      shr(0xe0, calldataload(0x00))\n      dup1\n      0xbee36bb3\n      gt\n      tag_16\n      jumpi\n      dup1\n      0xe15ac623\n      gt\n      tag_17\n      jumpi\n      dup1\n      0xe15ac623\n      eq\n      tag_12\n      jumpi\n      dup1\n      0xf2fde38b\n      eq\n      tag_13\n      jumpi\n      dup1\n      0xf5cf673b\n      eq\n      tag_14\n      jumpi\n      dup1\n      0xf996868b\n      eq\n      tag_15\n      jumpi\n      jump(tag_2)\n    tag_17:\n      dup1\n      0xbee36bb3\n      eq\n      tag_9\n      jumpi\n      dup1\n      0xc5a7b538\n      eq\n      tag_10\n      jumpi\n      dup1\n      0xde262738\n      eq\n      tag_11\n      jumpi\n      jump(tag_2)\n    tag_16:\n      dup1\n      0x529b1e87\n      eq\n      tag_3\n      jumpi\n      dup1\n      0x5453ba10\n      eq\n      tag_4\n      jumpi\n      dup1\n      0x715018a6\n      eq\n      tag_5\n      jumpi\n      dup1\n      0x8da5cb5b\n      eq\n      tag_6\n      jumpi\n      dup1\n      0x955c2ad7\n      eq\n      tag_7\n      jumpi\n      dup1\n      0xa286c6b4\n      eq\n      tag_8\n      jumpi\n    tag_2:\n      0x00\n      dup1\n      revert\n        /* \"contracts/rewards/EmissionManager.sol\":3690:3816  function getEmissionAdmin(address reward) external view override returns (address) {... */\n    tag_3:\n      tag_18\n      0x04\n      dup1\n      calldatasize\n      sub\n      dup2\n      add\n      swap1\n      tag_19\n      swap2\n      swap1\n      tag_20\n      jump\t// in\n    tag_19:\n      tag_21\n      jump\t// in\n    tag_18:\n      mload(0x40)\n      tag_22\n      swap2\n      swap1\n      tag_23\n      jump\t// in\n    tag_22:\n      mload(0x40)\n      dup1\n      swap2\n      sub\n      swap1\n      return\n        /* \"contracts/rewards/EmissionManager.sol\":1939:2142  function setRewardOracle(... */\n    tag_4:\n      tag_24\n      0x04\n      dup1\n      calldatasize\n      sub\n      dup2\n      add\n      swap1\n      tag_25\n      swap2\n      swap1\n      tag_26\n      jump\t// in\n    tag_25:\n      tag_27\n      jump\t// in\n    tag_24:\n      stop\n        /* \"@aave/core-v3/contracts/dependencies/openzeppelin/contracts/Ownable.sol\":1601:1736  function renounceOwnership() public virtual onlyOwner {... */\n    tag_5:\n      tag_28\n      tag_29\n      jump\t// in\n    tag_28:\n      stop\n        /* \"@aave/core-v3/contracts/dependencies/openzeppelin/contracts/Ownable.sol\":1018:1089  function owner() public view returns (address) {... */\n    tag_6:\n      tag_30\n      tag_31\n      jump\t// in\n    tag_30:\n      mload(0x40)\n      tag_32\n      swap2\n      swap1\n      tag_23\n      jump\t// in\n    tag_32:\n      mload(0x40)\n      dup1\n      swap2\n      sub\n      swap1\n      return\n        /* \"contracts/rewards/EmissionManager.sol\":1337:1634  function configureAssets(RewardsDataTypes.RewardsConfigInput[] memory config) external override {... */\n    tag_7:\n      tag_33\n      0x04\n      dup1\n      calldatasize\n      sub\n      dup2\n      add\n      swap1\n      tag_34\n      swap2\n      swap1\n      tag_35\n      jump\t// in\n    tag_34:\n      tag_36\n      jump\t// in\n    tag_33:\n      stop\n        /* \"contracts/rewards/EmissionManager.sol\":3065:3300  function setEmissionAdmin(address reward, address admin) external override onlyOwner {... */\n    tag_8:\n      tag_37\n      0x04\n      dup1\n      calldatasize\n      sub\n      dup2\n      add\n      swap1\n      tag_38\n      swap2\n      swap1\n      tag_39\n      jump\t// in\n    tag_38:\n      tag_40\n      jump\t// in\n    tag_37:\n      stop\n        /* \"contracts/rewards/EmissionManager.sol\":3342:3484  function setRewardsController(address controller) external override onlyOwner {... */\n    tag_9:\n      tag_41\n      0x04\n      dup1\n      calldatasize\n      sub\n      dup2\n      add\n      swap1\n      tag_42\n      swap2\n      swap1\n      tag_20\n      jump\t// in\n    tag_42:\n      tag_43\n      jump\t// in\n    tag_41:\n      stop\n        /* \"contracts/rewards/EmissionManager.sol\":2184:2419  function setDistributionEnd(... */\n    tag_10:\n      tag_44\n      0x04\n      dup1\n      calldatasize\n      sub\n      dup2\n      add\n      swap1\n      tag_45\n      swap2\n      swap1\n      tag_46\n      jump\t// in\n    tag_45:\n      tag_47\n      jump\t// in\n    tag_44:\n      stop\n        /* \"contracts/rewards/EmissionManager.sol\":3526:3648  function getRewardsController() external view override returns (IRewardsController) {... */\n    tag_11:\n      tag_48\n      tag_49\n      jump\t// in\n    tag_48:\n      mload(0x40)\n      tag_50\n      swap2\n      swap1\n      tag_51\n      jump\t// in\n    tag_50:\n      mload(0x40)\n      dup1\n      swap2\n      sub\n      swap1\n      return\n        /* \"contracts/rewards/EmissionManager.sol\":1676:1897  function setTransferStrategy(... */\n    tag_12:\n      tag_52\n      0x04\n      dup1\n      calldatasize\n      sub\n      dup2\n      add\n      swap1\n      tag_53\n      swap2\n      swap1\n      tag_54\n      jump\t// in\n    tag_53:\n      tag_55\n      jump\t// in\n    tag_52:\n      stop\n        /* \"@aave/core-v3/contracts/dependencies/openzeppelin/contracts/Ownable.sol\":1875:2101  function transferOwnership(address newOwner) public virtual onlyOwner {... */\n    tag_13:\n      tag_56\n      0x04\n      dup1\n      calldatasize\n      sub\n      dup2\n      add\n      swap1\n      tag_57\n      swap2\n      swap1\n      tag_20\n      jump\t// in\n    tag_57:\n      tag_58\n      jump\t// in\n    tag_56:\n      stop\n        /* \"contracts/rewards/EmissionManager.sol\":2887:3023  function setClaimer(address user, address claimer) external override onlyOwner {... */\n    tag_14:\n      tag_59\n      0x04\n      dup1\n      calldatasize\n      sub\n      dup2\n      add\n      swap1\n      tag_60\n      swap2\n      swap1\n      tag_39\n      jump\t// in\n    tag_60:\n      tag_61\n      jump\t// in\n    tag_59:\n      stop\n        /* \"contracts/rewards/EmissionManager.sol\":2461:2845  function setEmissionPerSecond(... */\n    tag_15:\n      tag_62\n      0x04\n      dup1\n      calldatasize\n      sub\n      dup2\n      add\n      swap1\n      tag_63\n      swap2\n      swap1\n      tag_64\n      jump\t// in\n    tag_63:\n      tag_65\n      jump\t// in\n    tag_62:\n      stop\n        /* \"contracts/rewards/EmissionManager.sol\":3690:3816  function getEmissionAdmin(address reward) external view override returns (address) {... */\n    tag_21:\n        /* \"contracts/rewards/EmissionManager.sol\":3764:3771  address */\n      0x00\n        /* \"contracts/rewards/EmissionManager.sol\":3787:3802  _emissionAdmins */\n      0x01\n        /* \"contracts/rewards/EmissionManager.sol\":3787:3810  _emissionAdmins[reward] */\n      0x00\n        /* \"contracts/rewards/EmissionManager.sol\":3803:3809  reward */\n      dup4\n        /* \"contracts/rewards/EmissionManager.sol\":3787:3810  _emissionAdmins[reward] */\n      0xffffffffffffffffffffffffffffffffffffffff\n      and\n      0xffffffffffffffffffffffffffffffffffffffff\n      and\n      dup2\n      mstore\n      0x20\n      add\n      swap1\n      dup2\n      mstore\n      0x20\n      add\n      0x00\n      keccak256\n      0x00\n      swap1\n      sload\n      swap1\n      0x0100\n      exp\n      swap1\n      div\n      0xffffffffffffffffffffffffffffffffffffffff\n      and\n        /* \"contracts/rewards/EmissionManager.sol\":3780:3810  return _emissionAdmins[reward] */\n      swap1\n      pop\n        /* \"contracts/rewards/EmissionManager.sol\":3690:3816  function getEmissionAdmin(address reward) external view override returns (address) {... */\n      swap2\n      swap1\n      pop\n      jump\t// out\n        /* \"contracts/rewards/EmissionManager.sol\":1939:2142  function setRewardOracle(... */\n    tag_27:\n        /* \"contracts/rewards/EmissionManager.sol\":2065:2071  reward */\n      dup2\n        /* \"contracts/rewards/EmissionManager.sol\":1087:1102  _emissionAdmins */\n      0x01\n        /* \"contracts/rewards/EmissionManager.sol\":1087:1110  _emissionAdmins[reward] */\n      0x00\n        /* \"contracts/rewards/EmissionManager.sol\":1103:1109  reward */\n      dup3\n        /* \"contracts/rewards/EmissionManager.sol\":1087:1110  _emissionAdmins[reward] */\n      0xffffffffffffffffffffffffffffffffffffffff\n      and\n      0xffffffffffffffffffffffffffffffffffffffff\n      and\n      dup2\n      mstore\n      0x20\n      add\n      swap1\n      dup2\n      mstore\n      0x20\n      add\n      0x00\n      keccak256\n      0x00\n      swap1\n      sload\n      swap1\n      0x0100\n      exp\n      swap1\n      div\n      0xffffffffffffffffffffffffffffffffffffffff\n      and\n        /* \"contracts/rewards/EmissionManager.sol\":1073:1110  msg.sender == _emissionAdmins[reward] */\n      0xffffffffffffffffffffffffffffffffffffffff\n      and\n        /* \"contracts/rewards/EmissionManager.sol\":1073:1083  msg.sender */\n      caller\n        /* \"contracts/rewards/EmissionManager.sol\":1073:1110  msg.sender == _emissionAdmins[reward] */\n      0xffffffffffffffffffffffffffffffffffffffff\n      and\n      eq\n        /* \"contracts/rewards/EmissionManager.sol\":1065:1134  require(msg.sender == _emissionAdmins[reward], 'ONLY_EMISSION_ADMIN') */\n      tag_68\n      jumpi\n      mload(0x40)\n      0x08c379a000000000000000000000000000000000000000000000000000000000\n      dup2\n      mstore\n      0x04\n      add\n      tag_69\n      swap1\n      tag_70\n      jump\t// in\n    tag_69:\n      mload(0x40)\n      dup1\n      swap2\n      sub\n      swap1\n      revert\n    tag_68:\n        /* \"contracts/rewards/EmissionManager.sol\":2080:2098  _rewardsController */\n      0x02\n      0x00\n      swap1\n      sload\n      swap1\n      0x0100\n      exp\n      swap1\n      div\n      0xffffffffffffffffffffffffffffffffffffffff\n      and\n        /* \"contracts/rewards/EmissionManager.sol\":2080:2114  _rewardsController.setRewardOracle */\n      0xffffffffffffffffffffffffffffffffffffffff\n      and\n      0x5453ba10\n        /* \"contracts/rewards/EmissionManager.sol\":2115:2121  reward */\n      dup5\n        /* \"contracts/rewards/EmissionManager.sol\":2123:2135  rewardOracle */\n      dup5\n        /* \"contracts/rewards/EmissionManager.sol\":2080:2136  _rewardsController.setRewardOracle(reward, rewardOracle) */\n      mload(0x40)\n      dup4\n      0xffffffff\n      and\n      0xe0\n      shl\n      dup2\n      mstore\n      0x04\n      add\n      tag_72\n      swap3\n      swap2\n      swap1\n      tag_73\n      jump\t// in\n    tag_72:\n      0x00\n      mload(0x40)\n      dup1\n      dup4\n      sub\n      dup2\n      0x00\n      dup8\n      dup1\n      extcodesize\n      iszero\n      dup1\n      iszero\n      tag_74\n      jumpi\n      0x00\n      dup1\n      revert\n    tag_74:\n      pop\n      gas\n      call\n      iszero\n      dup1\n      iszero\n      tag_76\n      jumpi\n      returndatasize\n      0x00\n      dup1\n      returndatacopy\n      revert(0x00, returndatasize)\n    tag_76:\n      pop\n      pop\n      pop\n      pop\n        /* \"contracts/rewards/EmissionManager.sol\":1939:2142  function setRewardOracle(... */\n      pop\n      pop\n      pop\n      jump\t// out\n        /* \"@aave/core-v3/contracts/dependencies/openzeppelin/contracts/Ownable.sol\":1601:1736  function renounceOwnership() public virtual onlyOwner {... */\n    tag_29:\n        /* \"@aave/core-v3/contracts/dependencies/openzeppelin/contracts/Ownable.sol\":1214:1226  _msgSender() */\n      tag_78\n        /* \"@aave/core-v3/contracts/dependencies/openzeppelin/contracts/Ownable.sol\":1214:1224  _msgSender */\n      tag_79\n        /* \"@aave/core-v3/contracts/dependencies/openzeppelin/contracts/Ownable.sol\":1214:1226  _msgSender() */\n      jump\t// in\n    tag_78:\n        /* \"@aave/core-v3/contracts/dependencies/openzeppelin/contracts/Ownable.sol\":1204:1226  _owner == _msgSender() */\n      0xffffffffffffffffffffffffffffffffffffffff\n      and\n        /* \"@aave/core-v3/contracts/dependencies/openzeppelin/contracts/Ownable.sol\":1204:1210  _owner */\n      0x00\n      dup1\n      sload\n      swap1\n      0x0100\n      exp\n      swap1\n      div\n      0xffffffffffffffffffffffffffffffffffffffff\n      and\n        /* \"@aave/core-v3/contracts/dependencies/openzeppelin/contracts/Ownable.sol\":1204:1226  _owner == _msgSender() */\n      0xffffffffffffffffffffffffffffffffffffffff\n      and\n      eq\n        /* \"@aave/core-v3/contracts/dependencies/openzeppelin/contracts/Ownable.sol\":1196:1263  require(_owner == _msgSender(), 'Ownable: caller is not the owner') */\n      tag_80\n      jumpi\n      mload(0x40)\n      0x08c379a000000000000000000000000000000000000000000000000000000000\n      dup2\n      mstore\n      0x04\n      add\n      tag_81\n      swap1\n      tag_82\n      jump\t// in\n    tag_81:\n      mload(0x40)\n      dup1\n      swap2\n      sub\n      swap1\n      revert\n    tag_80:\n        /* \"@aave/core-v3/contracts/dependencies/openzeppelin/contracts/Ownable.sol\":1703:1704  0 */\n      0x00\n        /* \"@aave/core-v3/contracts/dependencies/openzeppelin/contracts/Ownable.sol\":1666:1706  OwnershipTransferred(_owner, address(0)) */\n      0xffffffffffffffffffffffffffffffffffffffff\n      and\n        /* \"@aave/core-v3/contracts/dependencies/openzeppelin/contracts/Ownable.sol\":1687:1693  _owner */\n      0x00\n      dup1\n      sload\n      swap1\n      0x0100\n      exp\n      swap1\n      div\n      0xffffffffffffffffffffffffffffffffffffffff\n      and\n        /* \"@aave/core-v3/contracts/dependencies/openzeppelin/contracts/Ownable.sol\":1666:1706  OwnershipTransferred(_owner, address(0)) */\n      0xffffffffffffffffffffffffffffffffffffffff\n      and\n      0x8be0079c531659141344cd1fd0a4f28419497f9722a3daafe3b4186f6b6457e0\n      mload(0x40)\n      mload(0x40)\n      dup1\n      swap2\n      sub\n      swap1\n      log3\n        /* \"@aave/core-v3/contracts/dependencies/openzeppelin/contracts/Ownable.sol\":1729:1730  0 */\n      0x00\n        /* \"@aave/core-v3/contracts/dependencies/openzeppelin/contracts/Ownable.sol\":1712:1718  _owner */\n      dup1\n      0x00\n        /* \"@aave/core-v3/contracts/dependencies/openzeppelin/contracts/Ownable.sol\":1712:1731  _owner = address(0) */\n      0x0100\n      exp\n      dup2\n      sload\n      dup2\n      0xffffffffffffffffffffffffffffffffffffffff\n      mul\n      not\n      and\n      swap1\n      dup4\n      0xffffffffffffffffffffffffffffffffffffffff\n      and\n      mul\n      or\n      swap1\n      sstore\n      pop\n        /* \"@aave/core-v3/contracts/dependencies/openzeppelin/contracts/Ownable.sol\":1601:1736  function renounceOwnership() public virtual onlyOwner {... */\n      jump\t// out\n        /* \"@aave/core-v3/contracts/dependencies/openzeppelin/contracts/Ownable.sol\":1018:1089  function owner() public view returns (address) {... */\n    tag_31:\n        /* \"@aave/core-v3/contracts/dependencies/openzeppelin/contracts/Ownable.sol\":1056:1063  address */\n      0x00\n        /* \"@aave/core-v3/contracts/dependencies/openzeppelin/contracts/Ownable.sol\":1078:1084  _owner */\n      dup1\n      0x00\n      swap1\n      sload\n      swap1\n      0x0100\n      exp\n      swap1\n      div\n      0xffffffffffffffffffffffffffffffffffffffff\n      and\n        /* \"@aave/core-v3/contracts/dependencies/openzeppelin/contracts/Ownable.sol\":1071:1084  return _owner */\n      swap1\n      pop\n        /* \"@aave/core-v3/contracts/dependencies/openzeppelin/contracts/Ownable.sol\":1018:1089  function owner() public view returns (address) {... */\n      swap1\n      jump\t// out\n        /* \"contracts/rewards/EmissionManager.sol\":1337:1634  function configureAssets(RewardsDataTypes.RewardsConfigInput[] memory config) external override {... */\n    tag_36:\n        /* \"contracts/rewards/EmissionManager.sol\":1445:1454  uint256 i */\n      0x00\n        /* \"contracts/rewards/EmissionManager.sol\":1440:1580  for (uint256 i = 0; i < config.length; i++) {... */\n    tag_86:\n        /* \"contracts/rewards/EmissionManager.sol\":1464:1470  config */\n      dup2\n        /* \"contracts/rewards/EmissionManager.sol\":1464:1477  config.length */\n      mload\n        /* \"contracts/rewards/EmissionManager.sol\":1460:1461  i */\n      dup2\n        /* \"contracts/rewards/EmissionManager.sol\":1460:1477  i < config.length */\n      lt\n        /* \"contracts/rewards/EmissionManager.sol\":1440:1580  for (uint256 i = 0; i < config.length; i++) {... */\n      iszero\n      tag_87\n      jumpi\n        /* \"contracts/rewards/EmissionManager.sol\":1538:1548  msg.sender */\n      caller\n        /* \"contracts/rewards/EmissionManager.sol\":1501:1548  _emissionAdmins[config[i].reward] == msg.sender */\n      0xffffffffffffffffffffffffffffffffffffffff\n      and\n        /* \"contracts/rewards/EmissionManager.sol\":1501:1516  _emissionAdmins */\n      0x01\n        /* \"contracts/rewards/EmissionManager.sol\":1501:1534  _emissionAdmins[config[i].reward] */\n      0x00\n        /* \"contracts/rewards/EmissionManager.sol\":1517:1523  config */\n      dup5\n        /* \"contracts/rewards/EmissionManager.sol\":1524:1525  i */\n      dup5\n        /* \"contracts/rewards/EmissionManager.sol\":1517:1526  config[i] */\n      dup2\n      mload\n      dup2\n      lt\n      tag_89\n      jumpi\n      tag_90\n      tag_91\n      jump\t// in\n    tag_90:\n    tag_89:\n      0x20\n      mul\n      0x20\n      add\n      add\n      mload\n        /* \"contracts/rewards/EmissionManager.sol\":1517:1533  config[i].reward */\n      0x80\n      add\n      mload\n        /* \"contracts/rewards/EmissionManager.sol\":1501:1534  _emissionAdmins[config[i].reward] */\n      0xffffffffffffffffffffffffffffffffffffffff\n      and\n      0xffffffffffffffffffffffffffffffffffffffff\n      and\n      dup2\n      mstore\n      0x20\n      add\n      swap1\n      dup2\n      mstore\n      0x20\n      add\n      0x00\n      keccak256\n      0x00\n      swap1\n      sload\n      swap1\n      0x0100\n      exp\n      swap1\n      div\n      0xffffffffffffffffffffffffffffffffffffffff\n      and\n        /* \"contracts/rewards/EmissionManager.sol\":1501:1548  _emissionAdmins[config[i].reward] == msg.sender */\n      0xffffffffffffffffffffffffffffffffffffffff\n      and\n      eq\n        /* \"contracts/rewards/EmissionManager.sol\":1493:1572  require(_emissionAdmins[config[i].reward] == msg.sender, 'ONLY_EMISSION_ADMIN') */\n      tag_92\n      jumpi\n      mload(0x40)\n      0x08c379a000000000000000000000000000000000000000000000000000000000\n      dup2\n      mstore\n      0x04\n      add\n      tag_93\n      swap1\n      tag_70\n      jump\t// in\n    tag_93:\n      mload(0x40)\n      dup1\n      swap2\n      sub\n      swap1\n      revert\n    tag_92:\n        /* \"contracts/rewards/EmissionManager.sol\":1479:1482  i++ */\n      dup1\n      dup1\n      0x01\n      add\n      swap2\n      pop\n      pop\n        /* \"contracts/rewards/EmissionManager.sol\":1440:1580  for (uint256 i = 0; i < config.length; i++) {... */\n      jump(tag_86)\n    tag_87:\n      pop\n        /* \"contracts/rewards/EmissionManager.sol\":1586:1604  _rewardsController */\n      0x02\n      0x00\n      swap1\n      sload\n      swap1\n      0x0100\n      exp\n      swap1\n      div\n      0xffffffffffffffffffffffffffffffffffffffff\n      and\n        /* \"contracts/rewards/EmissionManager.sol\":1586:1620  _rewardsController.configureAssets */\n      0xffffffffffffffffffffffffffffffffffffffff\n      and\n      0x955c2ad7\n        /* \"contracts/rewards/EmissionManager.sol\":1621:1627  config */\n      dup3\n        /* \"contracts/rewards/EmissionManager.sol\":1586:1628  _rewardsController.configureAssets(config) */\n      mload(0x40)\n      dup3\n      0xffffffff\n      and\n      0xe0\n      shl\n      dup2\n      mstore\n      0x04\n      add\n      tag_94\n      swap2\n      swap1\n      tag_95\n      jump\t// in\n    tag_94:\n      0x00\n      mload(0x40)\n      dup1\n      dup4\n      sub\n      dup2\n      0x00\n      dup8\n      dup1\n      extcodesize\n      iszero\n      dup1\n      iszero\n      tag_96\n      jumpi\n      0x00\n      dup1\n      revert\n    tag_96:\n      pop\n      gas\n      call\n      iszero\n      dup1\n      iszero\n      tag_98\n      jumpi\n      returndatasize\n      0x00\n      dup1\n      returndatacopy\n      revert(0x00, returndatasize)\n    tag_98:\n      pop\n      pop\n      pop\n      pop\n        /* \"contracts/rewards/EmissionManager.sol\":1337:1634  function configureAssets(RewardsDataTypes.RewardsConfigInput[] memory config) external override {... */\n      pop\n      jump\t// out\n        /* \"contracts/rewards/EmissionManager.sol\":3065:3300  function setEmissionAdmin(address reward, address admin) external override onlyOwner {... */\n    tag_40:\n        /* \"@aave/core-v3/contracts/dependencies/openzeppelin/contracts/Ownable.sol\":1214:1226  _msgSender() */\n      tag_100\n        /* \"@aave/core-v3/contracts/dependencies/openzeppelin/contracts/Ownable.sol\":1214:1224  _msgSender */\n      tag_79\n        /* \"@aave/core-v3/contracts/dependencies/openzeppelin/contracts/Ownable.sol\":1214:1226  _msgSender() */\n      jump\t// in\n    tag_100:\n        /* \"@aave/core-v3/contracts/dependencies/openzeppelin/contracts/Ownable.sol\":1204:1226  _owner == _msgSender() */\n      0xffffffffffffffffffffffffffffffffffffffff\n      and\n        /* \"@aave/core-v3/contracts/dependencies/openzeppelin/contracts/Ownable.sol\":1204:1210  _owner */\n      0x00\n      dup1\n      sload\n      swap1\n      0x0100\n      exp\n      swap1\n      div\n      0xffffffffffffffffffffffffffffffffffffffff\n      and\n        /* \"@aave/core-v3/contracts/dependencies/openzeppelin/contracts/Ownable.sol\":1204:1226  _owner == _msgSender() */\n      0xffffffffffffffffffffffffffffffffffffffff\n      and\n      eq\n        /* \"@aave/core-v3/contracts/dependencies/openzeppelin/contracts/Ownable.sol\":1196:1263  require(_owner == _msgSender(), 'Ownable: caller is not the owner') */\n      tag_101\n      jumpi\n      mload(0x40)\n      0x08c379a000000000000000000000000000000000000000000000000000000000\n      dup2\n      mstore\n      0x04\n      add\n      tag_102\n      swap1\n      tag_82\n      jump\t// in\n    tag_102:\n      mload(0x40)\n      dup1\n      swap2\n      sub\n      swap1\n      revert\n    tag_101:\n        /* \"contracts/rewards/EmissionManager.sol\":3157:3173  address oldAdmin */\n      0x00\n        /* \"contracts/rewards/EmissionManager.sol\":3176:3191  _emissionAdmins */\n      0x01\n        /* \"contracts/rewards/EmissionManager.sol\":3176:3199  _emissionAdmins[reward] */\n      0x00\n        /* \"contracts/rewards/EmissionManager.sol\":3192:3198  reward */\n      dup5\n        /* \"contracts/rewards/EmissionManager.sol\":3176:3199  _emissionAdmins[reward] */\n      0xffffffffffffffffffffffffffffffffffffffff\n      and\n      0xffffffffffffffffffffffffffffffffffffffff\n      and\n      dup2\n      mstore\n      0x20\n      add\n      swap1\n      dup2\n      mstore\n      0x20\n      add\n      0x00\n      keccak256\n      0x00\n      swap1\n      sload\n      swap1\n      0x0100\n      exp\n      swap1\n      div\n      0xffffffffffffffffffffffffffffffffffffffff\n      and\n        /* \"contracts/rewards/EmissionManager.sol\":3157:3199  address oldAdmin = _emissionAdmins[reward] */\n      swap1\n      pop\n        /* \"contracts/rewards/EmissionManager.sol\":3232:3237  admin */\n      dup2\n        /* \"contracts/rewards/EmissionManager.sol\":3206:3221  _emissionAdmins */\n      0x01\n        /* \"contracts/rewards/EmissionManager.sol\":3206:3229  _emissionAdmins[reward] */\n      0x00\n        /* \"contracts/rewards/EmissionManager.sol\":3222:3228  reward */\n      dup6\n        /* \"contracts/rewards/EmissionManager.sol\":3206:3229  _emissionAdmins[reward] */\n      0xffffffffffffffffffffffffffffffffffffffff\n      and\n      0xffffffffffffffffffffffffffffffffffffffff\n      and\n      dup2\n      mstore\n      0x20\n      add\n      swap1\n      dup2\n      mstore\n      0x20\n      add\n      0x00\n      keccak256\n      0x00\n        /* \"contracts/rewards/EmissionManager.sol\":3206:3237  _emissionAdmins[reward] = admin */\n      0x0100\n      exp\n      dup2\n      sload\n      dup2\n      0xffffffffffffffffffffffffffffffffffffffff\n      mul\n      not\n      and\n      swap1\n      dup4\n      0xffffffffffffffffffffffffffffffffffffffff\n      and\n      mul\n      or\n      swap1\n      sstore\n      pop\n        /* \"contracts/rewards/EmissionManager.sol\":3288:3293  admin */\n      dup2\n        /* \"contracts/rewards/EmissionManager.sol\":3249:3294  EmissionAdminUpdated(reward, oldAdmin, admin) */\n      0xffffffffffffffffffffffffffffffffffffffff\n      and\n        /* \"contracts/rewards/EmissionManager.sol\":3278:3286  oldAdmin */\n      dup2\n        /* \"contracts/rewards/EmissionManager.sol\":3249:3294  EmissionAdminUpdated(reward, oldAdmin, admin) */\n      0xffffffffffffffffffffffffffffffffffffffff\n      and\n        /* \"contracts/rewards/EmissionManager.sol\":3270:3276  reward */\n      dup5\n        /* \"contracts/rewards/EmissionManager.sol\":3249:3294  EmissionAdminUpdated(reward, oldAdmin, admin) */\n      0xffffffffffffffffffffffffffffffffffffffff\n      and\n      0xda40ea421dd7e42cf8be71255facac4fdc12a3f70f4d5fd373cb16cec4cb5384\n      mload(0x40)\n      mload(0x40)\n      dup1\n      swap2\n      sub\n      swap1\n      log4\n        /* \"contracts/rewards/EmissionManager.sol\":3150:3300  {... */\n      pop\n        /* \"contracts/rewards/EmissionManager.sol\":3065:3300  function setEmissionAdmin(address reward, address admin) external override onlyOwner {... */\n      pop\n      pop\n      jump\t// out\n        /* \"contracts/rewards/EmissionManager.sol\":3342:3484  function setRewardsController(address controller) external override onlyOwner {... */\n    tag_43:\n        /* \"@aave/core-v3/contracts/dependencies/openzeppelin/contracts/Ownable.sol\":1214:1226  _msgSender() */\n      tag_105\n        /* \"@aave/core-v3/contracts/dependencies/openzeppelin/contracts/Ownable.sol\":1214:1224  _msgSender */\n      tag_79\n        /* \"@aave/core-v3/contracts/dependencies/openzeppelin/contracts/Ownable.sol\":1214:1226  _msgSender() */\n      jump\t// in\n    tag_105:\n        /* \"@aave/core-v3/contracts/dependencies/openzeppelin/contracts/Ownable.sol\":1204:1226  _owner == _msgSender() */\n      0xffffffffffffffffffffffffffffffffffffffff\n      and\n        /* \"@aave/core-v3/contracts/dependencies/openzeppelin/contracts/Ownable.sol\":1204:1210  _owner */\n      0x00\n      dup1\n      sload\n      swap1\n      0x0100\n      exp\n      swap1\n      div\n      0xffffffffffffffffffffffffffffffffffffffff\n      and\n        /* \"@aave/core-v3/contracts/dependencies/openzeppelin/contracts/Ownable.sol\":1204:1226  _owner == _msgSender() */\n      0xffffffffffffffffffffffffffffffffffffffff\n      and\n      eq\n        /* \"@aave/core-v3/contracts/dependencies/openzeppelin/contracts/Ownable.sol\":1196:1263  require(_owner == _msgSender(), 'Ownable: caller is not the owner') */\n      tag_106\n      jumpi\n      mload(0x40)\n      0x08c379a000000000000000000000000000000000000000000000000000000000\n      dup2\n      mstore\n      0x04\n      add\n      tag_107\n      swap1\n      tag_82\n      jump\t// in\n    tag_107:\n      mload(0x40)\n      dup1\n      swap2\n      sub\n      swap1\n      revert\n    tag_106:\n        /* \"contracts/rewards/EmissionManager.sol\":3467:3477  controller */\n      dup1\n        /* \"contracts/rewards/EmissionManager.sol\":3427:3445  _rewardsController */\n      0x02\n      0x00\n        /* \"contracts/rewards/EmissionManager.sol\":3427:3478  _rewardsController = IRewardsController(controller) */\n      0x0100\n      exp\n      dup2\n      sload\n      dup2\n      0xffffffffffffffffffffffffffffffffffffffff\n      mul\n      not\n      and\n      swap1\n      dup4\n      0xffffffffffffffffffffffffffffffffffffffff\n      and\n      mul\n      or\n      swap1\n      sstore\n      pop\n        /* \"contracts/rewards/EmissionManager.sol\":3342:3484  function setRewardsController(address controller) external override onlyOwner {... */\n      pop\n      jump\t// out\n        /* \"contracts/rewards/EmissionManager.sol\":2184:2419  function setDistributionEnd(... */\n    tag_47:\n        /* \"contracts/rewards/EmissionManager.sol\":2326:2332  reward */\n      dup2\n        /* \"contracts/rewards/EmissionManager.sol\":1087:1102  _emissionAdmins */\n      0x01\n        /* \"contracts/rewards/EmissionManager.sol\":1087:1110  _emissionAdmins[reward] */\n      0x00\n        /* \"contracts/rewards/EmissionManager.sol\":1103:1109  reward */\n      dup3\n        /* \"contracts/rewards/EmissionManager.sol\":1087:1110  _emissionAdmins[reward] */\n      0xffffffffffffffffffffffffffffffffffffffff\n      and\n      0xffffffffffffffffffffffffffffffffffffffff\n      and\n      dup2\n      mstore\n      0x20\n      add\n      swap1\n      dup2\n      mstore\n      0x20\n      add\n      0x00\n      keccak256\n      0x00\n      swap1\n      sload\n      swap1\n      0x0100\n      exp\n      swap1\n      div\n      0xffffffffffffffffffffffffffffffffffffffff\n      and\n        /* \"contracts/rewards/EmissionManager.sol\":1073:1110  msg.sender == _emissionAdmins[reward] */\n      0xffffffffffffffffffffffffffffffffffffffff\n      and\n        /* \"contracts/rewards/EmissionManager.sol\":1073:1083  msg.sender */\n      caller\n        /* \"contracts/rewards/EmissionManager.sol\":1073:1110  msg.sender == _emissionAdmins[reward] */\n      0xffffffffffffffffffffffffffffffffffffffff\n      and\n      eq\n        /* \"contracts/rewards/EmissionManager.sol\":1065:1134  require(msg.sender == _emissionAdmins[reward], 'ONLY_EMISSION_ADMIN') */\n      tag_110\n      jumpi\n      mload(0x40)\n      0x08c379a000000000000000000000000000000000000000000000000000000000\n      dup2\n      mstore\n      0x04\n      add\n      tag_111\n      swap1\n      tag_70\n      jump\t// in\n    tag_111:\n      mload(0x40)\n      dup1\n      swap2\n      sub\n      swap1\n      revert\n    tag_110:\n        /* \"contracts/rewards/EmissionManager.sol\":2341:2359  _rewardsController */\n      0x02\n      0x00\n      swap1\n      sload\n      swap1\n      0x0100\n      exp\n      swap1\n      div\n      0xffffffffffffffffffffffffffffffffffffffff\n      and\n        /* \"contracts/rewards/EmissionManager.sol\":2341:2378  _rewardsController.setDistributionEnd */\n      0xffffffffffffffffffffffffffffffffffffffff\n      and\n      0xc5a7b538\n        /* \"contracts/rewards/EmissionManager.sol\":2379:2384  asset */\n      dup6\n        /* \"contracts/rewards/EmissionManager.sol\":2386:2392  reward */\n      dup6\n        /* \"contracts/rewards/EmissionManager.sol\":2394:2412  newDistributionEnd */\n      dup6\n        /* \"contracts/rewards/EmissionManager.sol\":2341:2413  _rewardsController.setDistributionEnd(asset, reward, newDistributionEnd) */\n      mload(0x40)\n      dup5\n      0xffffffff\n      and\n      0xe0\n      shl\n      dup2\n      mstore\n      0x04\n      add\n      tag_113\n      swap4\n      swap3\n      swap2\n      swap1\n      tag_114\n      jump\t// in\n    tag_113:\n      0x00\n      mload(0x40)\n      dup1\n      dup4\n      sub\n      dup2\n      0x00\n      dup8\n      dup1\n      extcodesize\n      iszero\n      dup1\n      iszero\n      tag_115\n      jumpi\n      0x00\n      dup1\n      revert\n    tag_115:\n      pop\n      gas\n      call\n      iszero\n      dup1\n      iszero\n      tag_117\n      jumpi\n      returndatasize\n      0x00\n      dup1\n      returndatacopy\n      revert(0x00, returndatasize)\n    tag_117:\n      pop\n      pop\n      pop\n      pop\n        /* \"contracts/rewards/EmissionManager.sol\":2184:2419  function setDistributionEnd(... */\n      pop\n      pop\n      pop\n      pop\n      jump\t// out\n        /* \"contracts/rewards/EmissionManager.sol\":3526:3648  function getRewardsController() external view override returns (IRewardsController) {... */\n    tag_49:\n        /* \"contracts/rewards/EmissionManager.sol\":3590:3608  IRewardsController */\n      0x00\n        /* \"contracts/rewards/EmissionManager.sol\":3624:3642  _rewardsController */\n      0x02\n      0x00\n      swap1\n      sload\n      swap1\n      0x0100\n      exp\n      swap1\n      div\n      0xffffffffffffffffffffffffffffffffffffffff\n      and\n        /* \"contracts/rewards/EmissionManager.sol\":3617:3642  return _rewardsController */\n      swap1\n      pop\n        /* \"contracts/rewards/EmissionManager.sol\":3526:3648  function getRewardsController() external view override returns (IRewardsController) {... */\n      swap1\n      jump\t// out\n        /* \"contracts/rewards/EmissionManager.sol\":1676:1897  function setTransferStrategy(... */\n    tag_55:\n        /* \"contracts/rewards/EmissionManager.sol\":1812:1818  reward */\n      dup2\n        /* \"contracts/rewards/EmissionManager.sol\":1087:1102  _emissionAdmins */\n      0x01\n        /* \"contracts/rewards/EmissionManager.sol\":1087:1110  _emissionAdmins[reward] */\n      0x00\n        /* \"contracts/rewards/EmissionManager.sol\":1103:1109  reward */\n      dup3\n        /* \"contracts/rewards/EmissionManager.sol\":1087:1110  _emissionAdmins[reward] */\n      0xffffffffffffffffffffffffffffffffffffffff\n      and\n      0xffffffffffffffffffffffffffffffffffffffff\n      and\n      dup2\n      mstore\n      0x20\n      add\n      swap1\n      dup2\n      mstore\n      0x20\n      add\n      0x00\n      keccak256\n      0x00\n      swap1\n      sload\n      swap1\n      0x0100\n      exp\n      swap1\n      div\n      0xffffffffffffffffffffffffffffffffffffffff\n      and\n        /* \"contracts/rewards/EmissionManager.sol\":1073:1110  msg.sender == _emissionAdmins[reward] */\n      0xffffffffffffffffffffffffffffffffffffffff\n      and\n        /* \"contracts/rewards/EmissionManager.sol\":1073:1083  msg.sender */\n      caller\n        /* \"contracts/rewards/EmissionManager.sol\":1073:1110  msg.sender == _emissionAdmins[reward] */\n      0xffffffffffffffffffffffffffffffffffffffff\n      and\n      eq\n        /* \"contracts/rewards/EmissionManager.sol\":1065:1134  require(msg.sender == _emissionAdmins[reward], 'ONLY_EMISSION_ADMIN') */\n      tag_120\n      jumpi\n      mload(0x40)\n      0x08c379a000000000000000000000000000000000000000000000000000000000\n      dup2\n      mstore\n      0x04\n      add\n      tag_121\n      swap1\n      tag_70\n      jump\t// in\n    tag_121:\n      mload(0x40)\n      dup1\n      swap2\n      sub\n      swap1\n      revert\n    tag_120:\n        /* \"contracts/rewards/EmissionManager.sol\":1827:1845  _rewardsController */\n      0x02\n      0x00\n      swap1\n      sload\n      swap1\n      0x0100\n      exp\n      swap1\n      div\n      0xffffffffffffffffffffffffffffffffffffffff\n      and\n        /* \"contracts/rewards/EmissionManager.sol\":1827:1865  _rewardsController.setTransferStrategy */\n      0xffffffffffffffffffffffffffffffffffffffff\n      and\n      0xe15ac623\n        /* \"contracts/rewards/EmissionManager.sol\":1866:1872  reward */\n      dup5\n        /* \"contracts/rewards/EmissionManager.sol\":1874:1890  transferStrategy */\n      dup5\n        /* \"contracts/rewards/EmissionManager.sol\":1827:1891  _rewardsController.setTransferStrategy(reward, transferStrategy) */\n      mload(0x40)\n      dup4\n      0xffffffff\n      and\n      0xe0\n      shl\n      dup2\n      mstore\n      0x04\n      add\n      tag_123\n      swap3\n      swap2\n      swap1\n      tag_124\n      jump\t// in\n    tag_123:\n      0x00\n      mload(0x40)\n      dup1\n      dup4\n      sub\n      dup2\n      0x00\n      dup8\n      dup1\n      extcodesize\n      iszero\n      dup1\n      iszero\n      tag_125\n      jumpi\n      0x00\n      dup1\n      revert\n    tag_125:\n      pop\n      gas\n      call\n      iszero\n      dup1\n      iszero\n      tag_127\n      jumpi\n      returndatasize\n      0x00\n      dup1\n      returndatacopy\n      revert(0x00, returndatasize)\n    tag_127:\n      pop\n      pop\n      pop\n      pop\n        /* \"contracts/rewards/EmissionManager.sol\":1676:1897  function setTransferStrategy(... */\n      pop\n      pop\n      pop\n      jump\t// out\n        /* \"@aave/core-v3/contracts/dependencies/openzeppelin/contracts/Ownable.sol\":1875:2101  function transferOwnership(address newOwner) public virtual onlyOwner {... */\n    tag_58:\n        /* \"@aave/core-v3/contracts/dependencies/openzeppelin/contracts/Ownable.sol\":1214:1226  _msgSender() */\n      tag_129\n        /* \"@aave/core-v3/contracts/dependencies/openzeppelin/contracts/Ownable.sol\":1214:1224  _msgSender */\n      tag_79\n        /* \"@aave/core-v3/contracts/dependencies/openzeppelin/contracts/Ownable.sol\":1214:1226  _msgSender() */\n      jump\t// in\n    tag_129:\n        /* \"@aave/core-v3/contracts/dependencies/openzeppelin/contracts/Ownable.sol\":1204:1226  _owner == _msgSender() */\n      0xffffffffffffffffffffffffffffffffffffffff\n      and\n        /* \"@aave/core-v3/contracts/dependencies/openzeppelin/contracts/Ownable.sol\":1204:1210  _owner */\n      0x00\n      dup1\n      sload\n      swap1\n      0x0100\n      exp\n      swap1\n      div\n      0xffffffffffffffffffffffffffffffffffffffff\n      and\n        /* \"@aave/core-v3/contracts/dependencies/openzeppelin/contracts/Ownable.sol\":1204:1226  _owner == _msgSender() */\n      0xffffffffffffffffffffffffffffffffffffffff\n      and\n      eq\n        /* \"@aave/core-v3/contracts/dependencies/openzeppelin/contracts/Ownable.sol\":1196:1263  require(_owner == _msgSender(), 'Ownable: caller is not the owner') */\n      tag_130\n      jumpi\n      mload(0x40)\n      0x08c379a000000000000000000000000000000000000000000000000000000000\n      dup2\n      mstore\n      0x04\n      add\n      tag_131\n      swap1\n      tag_82\n      jump\t// in\n    tag_131:\n      mload(0x40)\n      dup1\n      swap2\n      sub\n      swap1\n      revert\n    tag_130:\n        /* \"@aave/core-v3/contracts/dependencies/openzeppelin/contracts/Ownable.sol\":1979:1980  0 */\n      0x00\n        /* \"@aave/core-v3/contracts/dependencies/openzeppelin/contracts/Ownable.sol\":1959:1981  newOwner != address(0) */\n      0xffffffffffffffffffffffffffffffffffffffff\n      and\n        /* \"@aave/core-v3/contracts/dependencies/openzeppelin/contracts/Ownable.sol\":1959:1967  newOwner */\n      dup2\n        /* \"@aave/core-v3/contracts/dependencies/openzeppelin/contracts/Ownable.sol\":1959:1981  newOwner != address(0) */\n      0xffffffffffffffffffffffffffffffffffffffff\n      and\n      sub\n        /* \"@aave/core-v3/contracts/dependencies/openzeppelin/contracts/Ownable.sol\":1951:2024  require(newOwner != address(0), 'Ownable: new owner is the zero address') */\n      tag_133\n      jumpi\n      mload(0x40)\n      0x08c379a000000000000000000000000000000000000000000000000000000000\n      dup2\n      mstore\n      0x04\n      add\n      tag_134\n      swap1\n      tag_135\n      jump\t// in\n    tag_134:\n      mload(0x40)\n      dup1\n      swap2\n      sub\n      swap1\n      revert\n    tag_133:\n        /* \"@aave/core-v3/contracts/dependencies/openzeppelin/contracts/Ownable.sol\":2064:2072  newOwner */\n      dup1\n        /* \"@aave/core-v3/contracts/dependencies/openzeppelin/contracts/Ownable.sol\":2035:2073  OwnershipTransferred(_owner, newOwner) */\n      0xffffffffffffffffffffffffffffffffffffffff\n      and\n        /* \"@aave/core-v3/contracts/dependencies/openzeppelin/contracts/Ownable.sol\":2056:2062  _owner */\n      0x00\n      dup1\n      sload\n      swap1\n      0x0100\n      exp\n      swap1\n      div\n      0xffffffffffffffffffffffffffffffffffffffff\n      and\n        /* \"@aave/core-v3/contracts/dependencies/openzeppelin/contracts/Ownable.sol\":2035:2073  OwnershipTransferred(_owner, newOwner) */\n      0xffffffffffffffffffffffffffffffffffffffff\n      and\n      0x8be0079c531659141344cd1fd0a4f28419497f9722a3daafe3b4186f6b6457e0\n      mload(0x40)\n      mload(0x40)\n      dup1\n      swap2\n      sub\n      swap1\n      log3\n        /* \"@aave/core-v3/contracts/dependencies/openzeppelin/contracts/Ownable.sol\":2088:2096  newOwner */\n      dup1\n        /* \"@aave/core-v3/contracts/dependencies/openzeppelin/contracts/Ownable.sol\":2079:2085  _owner */\n      0x00\n      dup1\n        /* \"@aave/core-v3/contracts/dependencies/openzeppelin/contracts/Ownable.sol\":2079:2096  _owner = newOwner */\n      0x0100\n      exp\n      dup2\n      sload\n      dup2\n      0xffffffffffffffffffffffffffffffffffffffff\n      mul\n      not\n      and\n      swap1\n      dup4\n      0xffffffffffffffffffffffffffffffffffffffff\n      and\n      mul\n      or\n      swap1\n      sstore\n      pop\n        /* \"@aave/core-v3/contracts/dependencies/openzeppelin/contracts/Ownable.sol\":1875:2101  function transferOwnership(address newOwner) public virtual onlyOwner {... */\n      pop\n      jump\t// out\n        /* \"contracts/rewards/EmissionManager.sol\":2887:3023  function setClaimer(address user, address claimer) external override onlyOwner {... */\n    tag_61:\n        /* \"@aave/core-v3/contracts/dependencies/openzeppelin/contracts/Ownable.sol\":1214:1226  _msgSender() */\n      tag_137\n        /* \"@aave/core-v3/contracts/dependencies/openzeppelin/contracts/Ownable.sol\":1214:1224  _msgSender */\n      tag_79\n        /* \"@aave/core-v3/contracts/dependencies/openzeppelin/contracts/Ownable.sol\":1214:1226  _msgSender() */\n      jump\t// in\n    tag_137:\n        /* \"@aave/core-v3/contracts/dependencies/openzeppelin/contracts/Ownable.sol\":1204:1226  _owner == _msgSender() */\n      0xffffffffffffffffffffffffffffffffffffffff\n      and\n        /* \"@aave/core-v3/contracts/dependencies/openzeppelin/contracts/Ownable.sol\":1204:1210  _owner */\n      0x00\n      dup1\n      sload\n      swap1\n      0x0100\n      exp\n      swap1\n      div\n      0xffffffffffffffffffffffffffffffffffffffff\n      and\n        /* \"@aave/core-v3/contracts/dependencies/openzeppelin/contracts/Ownable.sol\":1204:1226  _owner == _msgSender() */\n      0xffffffffffffffffffffffffffffffffffffffff\n      and\n      eq\n        /* \"@aave/core-v3/contracts/dependencies/openzeppelin/contracts/Ownable.sol\":1196:1263  require(_owner == _msgSender(), 'Ownable: caller is not the owner') */\n      tag_138\n      jumpi\n      mload(0x40)\n      0x08c379a000000000000000000000000000000000000000000000000000000000\n      dup2\n      mstore\n      0x04\n      add\n      tag_139\n      swap1\n      tag_82\n      jump\t// in\n    tag_139:\n      mload(0x40)\n      dup1\n      swap2\n      sub\n      swap1\n      revert\n    tag_138:\n        /* \"contracts/rewards/EmissionManager.sol\":2973:2991  _rewardsController */\n      0x02\n      0x00\n      swap1\n      sload\n      swap1\n      0x0100\n      exp\n      swap1\n      div\n      0xffffffffffffffffffffffffffffffffffffffff\n      and\n        /* \"contracts/rewards/EmissionManager.sol\":2973:3002  _rewardsController.setClaimer */\n      0xffffffffffffffffffffffffffffffffffffffff\n      and\n      0xf5cf673b\n        /* \"contracts/rewards/EmissionManager.sol\":3003:3007  user */\n      dup4\n        /* \"contracts/rewards/EmissionManager.sol\":3009:3016  claimer */\n      dup4\n        /* \"contracts/rewards/EmissionManager.sol\":2973:3017  _rewardsController.setClaimer(user, claimer) */\n      mload(0x40)\n      dup4\n      0xffffffff\n      and\n      0xe0\n      shl\n      dup2\n      mstore\n      0x04\n      add\n      tag_141\n      swap3\n      swap2\n      swap1\n      tag_142\n      jump\t// in\n    tag_141:\n      0x00\n      mload(0x40)\n      dup1\n      dup4\n      sub\n      dup2\n      0x00\n      dup8\n      dup1\n      extcodesize\n      iszero\n      dup1\n      iszero\n      tag_143\n      jumpi\n      0x00\n      dup1\n      revert\n    tag_143:\n      pop\n      gas\n      call\n      iszero\n      dup1\n      iszero\n      tag_145\n      jumpi\n      returndatasize\n      0x00\n      dup1\n      returndatacopy\n      revert(0x00, returndatasize)\n    tag_145:\n      pop\n      pop\n      pop\n      pop\n        /* \"contracts/rewards/EmissionManager.sol\":2887:3023  function setClaimer(address user, address claimer) external override onlyOwner {... */\n      pop\n      pop\n      jump\t// out\n        /* \"contracts/rewards/EmissionManager.sol\":2461:2845  function setEmissionPerSecond(... */\n    tag_65:\n        /* \"contracts/rewards/EmissionManager.sol\":2625:2634  uint256 i */\n      0x00\n        /* \"contracts/rewards/EmissionManager.sol\":2620:2755  for (uint256 i = 0; i < rewards.length; i++) {... */\n    tag_147:\n        /* \"contracts/rewards/EmissionManager.sol\":2644:2651  rewards */\n      dup5\n      dup5\n        /* \"contracts/rewards/EmissionManager.sol\":2644:2658  rewards.length */\n      swap1\n      pop\n        /* \"contracts/rewards/EmissionManager.sol\":2640:2641  i */\n      dup2\n        /* \"contracts/rewards/EmissionManager.sol\":2640:2658  i < rewards.length */\n      lt\n        /* \"contracts/rewards/EmissionManager.sol\":2620:2755  for (uint256 i = 0; i < rewards.length; i++) {... */\n      iszero\n      tag_148\n      jumpi\n        /* \"contracts/rewards/EmissionManager.sol\":2713:2723  msg.sender */\n      caller\n        /* \"contracts/rewards/EmissionManager.sol\":2682:2723  _emissionAdmins[rewards[i]] == msg.sender */\n      0xffffffffffffffffffffffffffffffffffffffff\n      and\n        /* \"contracts/rewards/EmissionManager.sol\":2682:2697  _emissionAdmins */\n      0x01\n        /* \"contracts/rewards/EmissionManager.sol\":2682:2709  _emissionAdmins[rewards[i]] */\n      0x00\n        /* \"contracts/rewards/EmissionManager.sol\":2698:2705  rewards */\n      dup8\n      dup8\n        /* \"contracts/rewards/EmissionManager.sol\":2706:2707  i */\n      dup6\n        /* \"contracts/rewards/EmissionManager.sol\":2698:2708  rewards[i] */\n      dup2\n      dup2\n      lt\n      tag_150\n      jumpi\n      tag_151\n      tag_91\n      jump\t// in\n    tag_151:\n    tag_150:\n      swap1\n      pop\n      0x20\n      mul\n      add\n      0x20\n      dup2\n      add\n      swap1\n      tag_152\n      swap2\n      swap1\n      tag_20\n      jump\t// in\n    tag_152:\n        /* \"contracts/rewards/EmissionManager.sol\":2682:2709  _emissionAdmins[rewards[i]] */\n      0xffffffffffffffffffffffffffffffffffffffff\n      and\n      0xffffffffffffffffffffffffffffffffffffffff\n      and\n      dup2\n      mstore\n      0x20\n      add\n      swap1\n      dup2\n      mstore\n      0x20\n      add\n      0x00\n      keccak256\n      0x00\n      swap1\n      sload\n      swap1\n      0x0100\n      exp\n      swap1\n      div\n      0xffffffffffffffffffffffffffffffffffffffff\n      and\n        /* \"contracts/rewards/EmissionManager.sol\":2682:2723  _emissionAdmins[rewards[i]] == msg.sender */\n      0xffffffffffffffffffffffffffffffffffffffff\n      and\n      eq\n        /* \"contracts/rewards/EmissionManager.sol\":2674:2747  require(_emissionAdmins[rewards[i]] == msg.sender, 'ONLY_EMISSION_ADMIN') */\n      tag_153\n      jumpi\n      mload(0x40)\n      0x08c379a000000000000000000000000000000000000000000000000000000000\n      dup2\n      mstore\n      0x04\n      add\n      tag_154\n      swap1\n      tag_70\n      jump\t// in\n    tag_154:\n      mload(0x40)\n      dup1\n      swap2\n      sub\n      swap1\n      revert\n    tag_153:\n        /* \"contracts/rewards/EmissionManager.sol\":2660:2663  i++ */\n      dup1\n      dup1\n      0x01\n      add\n      swap2\n      pop\n      pop\n        /* \"contracts/rewards/EmissionManager.sol\":2620:2755  for (uint256 i = 0; i < rewards.length; i++) {... */\n      jump(tag_147)\n    tag_148:\n      pop\n        /* \"contracts/rewards/EmissionManager.sol\":2761:2779  _rewardsController */\n      0x02\n      0x00\n      swap1\n      sload\n      swap1\n      0x0100\n      exp\n      swap1\n      div\n      0xffffffffffffffffffffffffffffffffffffffff\n      and\n        /* \"contracts/rewards/EmissionManager.sol\":2761:2800  _rewardsController.setEmissionPerSecond */\n      0xffffffffffffffffffffffffffffffffffffffff\n      and\n      0xf996868b\n        /* \"contracts/rewards/EmissionManager.sol\":2801:2806  asset */\n      dup7\n        /* \"contracts/rewards/EmissionManager.sol\":2808:2815  rewards */\n      dup7\n      dup7\n        /* \"contracts/rewards/EmissionManager.sol\":2817:2838  newEmissionsPerSecond */\n      dup7\n      dup7\n        /* \"contracts/rewards/EmissionManager.sol\":2761:2839  _rewardsController.setEmissionPerSecond(asset, rewards, newEmissionsPerSecond) */\n      mload(0x40)\n      dup7\n      0xffffffff\n      and\n      0xe0\n      shl\n      dup2\n      mstore\n      0x04\n      add\n      tag_155\n      swap6\n      swap5\n      swap4\n      swap3\n      swap2\n      swap1\n      tag_156\n      jump\t// in\n    tag_155:\n      0x00\n      mload(0x40)\n      dup1\n      dup4\n      sub\n      dup2\n      0x00\n      dup8\n      dup1\n      extcodesize\n      iszero\n      dup1\n      iszero\n      tag_157\n      jumpi\n      0x00\n      dup1\n      revert\n    tag_157:\n      pop\n      gas\n      call\n      iszero\n      dup1\n      iszero\n      tag_159\n      jumpi\n      returndatasize\n      0x00\n      dup1\n      returndatacopy\n      revert(0x00, returndatasize)\n    tag_159:\n      pop\n      pop\n      pop\n      pop\n        /* \"contracts/rewards/EmissionManager.sol\":2461:2845  function setEmissionPerSecond(... */\n      pop\n      pop\n      pop\n      pop\n      pop\n      jump\t// out\n        /* \"@aave/core-v3/contracts/dependencies/openzeppelin/contracts/Context.sol\":587:694  function _msgSender() internal view virtual returns (address payable) {... */\n    tag_79:\n        /* \"@aave/core-v3/contracts/dependencies/openzeppelin/contracts/Context.sol\":640:655  address payable */\n      0x00\n        /* \"@aave/core-v3/contracts/dependencies/openzeppelin/contracts/Context.sol\":678:688  msg.sender */\n      caller\n        /* \"@aave/core-v3/contracts/dependencies/openzeppelin/contracts/Context.sol\":663:689  return payable(msg.sender) */\n      swap1\n      pop\n        /* \"@aave/core-v3/contracts/dependencies/openzeppelin/contracts/Context.sol\":587:694  function _msgSender() internal view virtual returns (address payable) {... */\n      swap1\n      jump\t// out\n        /* \"#utility.yul\":7:82   */\n    tag_161:\n        /* \"#utility.yul\":40:46   */\n      0x00\n        /* \"#utility.yul\":73:75   */\n      0x40\n        /* \"#utility.yul\":67:76   */\n      mload\n        /* \"#utility.yul\":57:76   */\n      swap1\n      pop\n        /* \"#utility.yul\":7:82   */\n      swap1\n      jump\t// out\n        /* \"#utility.yul\":88:205   */\n    tag_162:\n        /* \"#utility.yul\":197:198   */\n      0x00\n        /* \"#utility.yul\":194:195   */\n      dup1\n        /* \"#utility.yul\":187:199   */\n      revert\n        /* \"#utility.yul\":211:328   */\n    tag_163:\n        /* \"#utility.yul\":320:321   */\n      0x00\n        /* \"#utility.yul\":317:318   */\n      dup1\n        /* \"#utility.yul\":310:322   */\n      revert\n        /* \"#utility.yul\":334:460   */\n    tag_164:\n        /* \"#utility.yul\":371:378   */\n      0x00\n        /* \"#utility.yul\":411:453   */\n      0xffffffffffffffffffffffffffffffffffffffff\n        /* \"#utility.yul\":404:409   */\n      dup3\n        /* \"#utility.yul\":400:454   */\n      and\n        /* \"#utility.yul\":389:454   */\n      swap1\n      pop\n        /* \"#utility.yul\":334:460   */\n      swap2\n      swap1\n      pop\n      jump\t// out\n        /* \"#utility.yul\":466:562   */\n    tag_165:\n        /* \"#utility.yul\":503:510   */\n      0x00\n        /* \"#utility.yul\":532:556   */\n      tag_247\n        /* \"#utility.yul\":550:555   */\n      dup3\n        /* \"#utility.yul\":532:556   */\n      tag_164\n      jump\t// in\n    tag_247:\n        /* \"#utility.yul\":521:556   */\n      swap1\n      pop\n        /* \"#utility.yul\":466:562   */\n      swap2\n      swap1\n      pop\n      jump\t// out\n        /* \"#utility.yul\":568:690   */\n    tag_166:\n        /* \"#utility.yul\":641:665   */\n      tag_249\n        /* \"#utility.yul\":659:664   */\n      dup2\n        /* \"#utility.yul\":641:665   */\n      tag_165\n      jump\t// in\n    tag_249:\n        /* \"#utility.yul\":634:639   */\n      dup2\n        /* \"#utility.yul\":631:666   */\n      eq\n        /* \"#utility.yul\":621:684   */\n      tag_250\n      jumpi\n        /* \"#utility.yul\":680:681   */\n      0x00\n        /* \"#utility.yul\":677:678   */\n      dup1\n        /* \"#utility.yul\":670:682   */\n      revert\n        /* \"#utility.yul\":621:684   */\n    tag_250:\n        /* \"#utility.yul\":568:690   */\n      pop\n      jump\t// out\n        /* \"#utility.yul\":696:835   */\n    tag_167:\n        /* \"#utility.yul\":742:747   */\n      0x00\n        /* \"#utility.yul\":780:786   */\n      dup2\n        /* \"#utility.yul\":767:787   */\n      calldataload\n        /* \"#utility.yul\":758:787   */\n      swap1\n      pop\n        /* \"#utility.yul\":796:829   */\n      tag_252\n        /* \"#utility.yul\":823:828   */\n      dup2\n        /* \"#utility.yul\":796:829   */\n      tag_166\n      jump\t// in\n    tag_252:\n        /* \"#utility.yul\":696:835   */\n      swap3\n      swap2\n      pop\n      pop\n      jump\t// out\n        /* \"#utility.yul\":841:1170   */\n    tag_20:\n        /* \"#utility.yul\":900:906   */\n      0x00\n        /* \"#utility.yul\":949:951   */\n      0x20\n        /* \"#utility.yul\":937:946   */\n      dup3\n        /* \"#utility.yul\":928:935   */\n      dup5\n        /* \"#utility.yul\":924:947   */\n      sub\n        /* \"#utility.yul\":920:952   */\n      slt\n        /* \"#utility.yul\":917:1036   */\n      iszero\n      tag_254\n      jumpi\n        /* \"#utility.yul\":955:1034   */\n      tag_255\n      tag_162\n      jump\t// in\n    tag_255:\n        /* \"#utility.yul\":917:1036   */\n    tag_254:\n        /* \"#utility.yul\":1075:1076   */\n      0x00\n        /* \"#utility.yul\":1100:1153   */\n      tag_256\n        /* \"#utility.yul\":1145:1152   */\n      dup5\n        /* \"#utility.yul\":1136:1142   */\n      dup3\n        /* \"#utility.yul\":1125:1134   */\n      dup6\n        /* \"#utility.yul\":1121:1143   */\n      add\n        /* \"#utility.yul\":1100:1153   */\n      tag_167\n      jump\t// in\n    tag_256:\n        /* \"#utility.yul\":1090:1153   */\n      swap2\n      pop\n        /* \"#utility.yul\":1046:1163   */\n      pop\n        /* \"#utility.yul\":841:1170   */\n      swap3\n      swap2\n      pop\n      pop\n      jump\t// out\n        /* \"#utility.yul\":1176:1294   */\n    tag_168:\n        /* \"#utility.yul\":1263:1287   */\n      tag_258\n        /* \"#utility.yul\":1281:1286   */\n      dup2\n        /* \"#utility.yul\":1263:1287   */\n      tag_165\n      jump\t// in\n    tag_258:\n        /* \"#utility.yul\":1258:1261   */\n      dup3\n        /* \"#utility.yul\":1251:1288   */\n      mstore\n        /* \"#utility.yul\":1176:1294   */\n      pop\n      pop\n      jump\t// out\n        /* \"#utility.yul\":1300:1522   */\n    tag_23:\n        /* \"#utility.yul\":1393:1397   */\n      0x00\n        /* \"#utility.yul\":1431:1433   */\n      0x20\n        /* \"#utility.yul\":1420:1429   */\n      dup3\n        /* \"#utility.yul\":1416:1434   */\n      add\n        /* \"#utility.yul\":1408:1434   */\n      swap1\n      pop\n        /* \"#utility.yul\":1444:1515   */\n      tag_260\n        /* \"#utility.yul\":1512:1513   */\n      0x00\n        /* \"#utility.yul\":1501:1510   */\n      dup4\n        /* \"#utility.yul\":1497:1514   */\n      add\n        /* \"#utility.yul\":1488:1494   */\n      dup5\n        /* \"#utility.yul\":1444:1515   */\n      tag_168\n      jump\t// in\n    tag_260:\n        /* \"#utility.yul\":1300:1522   */\n      swap3\n      swap2\n      pop\n      pop\n      jump\t// out\n        /* \"#utility.yul\":1528:1651   */\n    tag_169:\n        /* \"#utility.yul\":1592:1599   */\n      0x00\n        /* \"#utility.yul\":1621:1645   */\n      tag_262\n        /* \"#utility.yul\":1639:1644   */\n      dup3\n        /* \"#utility.yul\":1621:1645   */\n      tag_165\n      jump\t// in\n    tag_262:\n        /* \"#utility.yul\":1610:1645   */\n      swap1\n      pop\n        /* \"#utility.yul\":1528:1651   */\n      swap2\n      swap1\n      pop\n      jump\t// out\n        /* \"#utility.yul\":1657:1833   */\n    tag_170:\n        /* \"#utility.yul\":1757:1808   */\n      tag_264\n        /* \"#utility.yul\":1802:1807   */\n      dup2\n        /* \"#utility.yul\":1757:1808   */\n      tag_169\n      jump\t// in\n    tag_264:\n        /* \"#utility.yul\":1750:1755   */\n      dup2\n        /* \"#utility.yul\":1747:1809   */\n      eq\n        /* \"#utility.yul\":1737:1827   */\n      tag_265\n      jumpi\n        /* \"#utility.yul\":1823:1824   */\n      0x00\n        /* \"#utility.yul\":1820:1821   */\n      dup1\n        /* \"#utility.yul\":1813:1825   */\n      revert\n        /* \"#utility.yul\":1737:1827   */\n    tag_265:\n        /* \"#utility.yul\":1657:1833   */\n      pop\n      jump\t// out\n        /* \"#utility.yul\":1839:2032   */\n    tag_171:\n        /* \"#utility.yul\":1912:1917   */\n      0x00\n        /* \"#utility.yul\":1950:1956   */\n      dup2\n        /* \"#utility.yul\":1937:1957   */\n      calldataload\n        /* \"#utility.yul\":1928:1957   */\n      swap1\n      pop\n        /* \"#utility.yul\":1966:2026   */\n      tag_267\n        /* \"#utility.yul\":2020:2025   */\n      dup2\n        /* \"#utility.yul\":1966:2026   */\n      tag_170\n      jump\t// in\n    tag_267:\n        /* \"#utility.yul\":1839:2032   */\n      swap3\n      swap2\n      pop\n      pop\n      jump\t// out\n        /* \"#utility.yul\":2038:2566   */\n    tag_26:\n        /* \"#utility.yul\":2133:2139   */\n      0x00\n        /* \"#utility.yul\":2141:2147   */\n      dup1\n        /* \"#utility.yul\":2190:2192   */\n      0x40\n        /* \"#utility.yul\":2178:2187   */\n      dup4\n        /* \"#utility.yul\":2169:2176   */\n      dup6\n        /* \"#utility.yul\":2165:2188   */\n      sub\n        /* \"#utility.yul\":2161:2193   */\n      slt\n        /* \"#utility.yul\":2158:2277   */\n      iszero\n      tag_269\n      jumpi\n        /* \"#utility.yul\":2196:2275   */\n      tag_270\n      tag_162\n      jump\t// in\n    tag_270:\n        /* \"#utility.yul\":2158:2277   */\n    tag_269:\n        /* \"#utility.yul\":2316:2317   */\n      0x00\n        /* \"#utility.yul\":2341:2394   */\n      tag_271\n        /* \"#utility.yul\":2386:2393   */\n      dup6\n        /* \"#utility.yul\":2377:2383   */\n      dup3\n        /* \"#utility.yul\":2366:2375   */\n      dup7\n        /* \"#utility.yul\":2362:2384   */\n      add\n        /* \"#utility.yul\":2341:2394   */\n      tag_167\n      jump\t// in\n    tag_271:\n        /* \"#utility.yul\":2331:2394   */\n      swap3\n      pop\n        /* \"#utility.yul\":2287:2404   */\n      pop\n        /* \"#utility.yul\":2443:2445   */\n      0x20\n        /* \"#utility.yul\":2469:2549   */\n      tag_272\n        /* \"#utility.yul\":2541:2548   */\n      dup6\n        /* \"#utility.yul\":2532:2538   */\n      dup3\n        /* \"#utility.yul\":2521:2530   */\n      dup7\n        /* \"#utility.yul\":2517:2539   */\n      add\n        /* \"#utility.yul\":2469:2549   */\n      tag_171\n      jump\t// in\n    tag_272:\n        /* \"#utility.yul\":2459:2549   */\n      swap2\n      pop\n        /* \"#utility.yul\":2414:2559   */\n      pop\n        /* \"#utility.yul\":2038:2566   */\n      swap3\n      pop\n      swap3\n      swap1\n      pop\n      jump\t// out\n        /* \"#utility.yul\":2572:2689   */\n    tag_172:\n        /* \"#utility.yul\":2681:2682   */\n      0x00\n        /* \"#utility.yul\":2678:2679   */\n      dup1\n        /* \"#utility.yul\":2671:2683   */\n      revert\n        /* \"#utility.yul\":2695:2797   */\n    tag_173:\n        /* \"#utility.yul\":2736:2742   */\n      0x00\n        /* \"#utility.yul\":2787:2789   */\n      0x1f\n        /* \"#utility.yul\":2783:2790   */\n      not\n        /* \"#utility.yul\":2778:2780   */\n      0x1f\n        /* \"#utility.yul\":2771:2776   */\n      dup4\n        /* \"#utility.yul\":2767:2781   */\n      add\n        /* \"#utility.yul\":2763:2791   */\n      and\n        /* \"#utility.yul\":2753:2791   */\n      swap1\n      pop\n        /* \"#utility.yul\":2695:2797   */\n      swap2\n      swap1\n      pop\n      jump\t// out\n        /* \"#utility.yul\":2803:2983   */\n    tag_174:\n        /* \"#utility.yul\":2851:2928   */\n      0x4e487b7100000000000000000000000000000000000000000000000000000000\n        /* \"#utility.yul\":2848:2849   */\n      0x00\n        /* \"#utility.yul\":2841:2929   */\n      mstore\n        /* \"#utility.yul\":2948:2952   */\n      0x41\n        /* \"#utility.yul\":2945:2946   */\n      0x04\n        /* \"#utility.yul\":2938:2953   */\n      mstore\n        /* \"#utility.yul\":2972:2976   */\n      0x24\n        /* \"#utility.yul\":2969:2970   */\n      0x00\n        /* \"#utility.yul\":2962:2977   */\n      revert\n        /* \"#utility.yul\":2989:3270   */\n    tag_175:\n        /* \"#utility.yul\":3072:3099   */\n      tag_277\n        /* \"#utility.yul\":3094:3098   */\n      dup3\n        /* \"#utility.yul\":3072:3099   */\n      tag_173\n      jump\t// in\n    tag_277:\n        /* \"#utility.yul\":3064:3070   */\n      dup2\n        /* \"#utility.yul\":3060:3100   */\n      add\n        /* \"#utility.yul\":3202:3208   */\n      dup2\n        /* \"#utility.yul\":3190:3200   */\n      dup2\n        /* \"#utility.yul\":3187:3209   */\n      lt\n        /* \"#utility.yul\":3166:3184   */\n      0xffffffffffffffff\n        /* \"#utility.yul\":3154:3164   */\n      dup3\n        /* \"#utility.yul\":3151:3185   */\n      gt\n        /* \"#utility.yul\":3148:3210   */\n      or\n        /* \"#utility.yul\":3145:3233   */\n      iszero\n      tag_278\n      jumpi\n        /* \"#utility.yul\":3213:3231   */\n      tag_279\n      tag_174\n      jump\t// in\n    tag_279:\n        /* \"#utility.yul\":3145:3233   */\n    tag_278:\n        /* \"#utility.yul\":3253:3263   */\n      dup1\n        /* \"#utility.yul\":3249:3251   */\n      0x40\n        /* \"#utility.yul\":3242:3264   */\n      mstore\n        /* \"#utility.yul\":3032:3270   */\n      pop\n        /* \"#utility.yul\":2989:3270   */\n      pop\n      pop\n      jump\t// out\n        /* \"#utility.yul\":3276:3405   */\n    tag_176:\n        /* \"#utility.yul\":3310:3316   */\n      0x00\n        /* \"#utility.yul\":3337:3357   */\n      tag_281\n      tag_161\n      jump\t// in\n    tag_281:\n        /* \"#utility.yul\":3327:3357   */\n      swap1\n      pop\n        /* \"#utility.yul\":3366:3399   */\n      tag_282\n        /* \"#utility.yul\":3394:3398   */\n      dup3\n        /* \"#utility.yul\":3386:3392   */\n      dup3\n        /* \"#utility.yul\":3366:3399   */\n      tag_175\n      jump\t// in\n    tag_282:\n        /* \"#utility.yul\":3276:3405   */\n      swap2\n      swap1\n      pop\n      jump\t// out\n        /* \"#utility.yul\":3411:3758   */\n    tag_177:\n        /* \"#utility.yul\":3524:3528   */\n      0x00\n        /* \"#utility.yul\":3614:3632   */\n      0xffffffffffffffff\n        /* \"#utility.yul\":3606:3612   */\n      dup3\n        /* \"#utility.yul\":3603:3633   */\n      gt\n        /* \"#utility.yul\":3600:3656   */\n      iszero\n      tag_284\n      jumpi\n        /* \"#utility.yul\":3636:3654   */\n      tag_285\n      tag_174\n      jump\t// in\n    tag_285:\n        /* \"#utility.yul\":3600:3656   */\n    tag_284:\n        /* \"#utility.yul\":3686:3690   */\n      0x20\n        /* \"#utility.yul\":3678:3684   */\n      dup3\n        /* \"#utility.yul\":3674:3691   */\n      mul\n        /* \"#utility.yul\":3666:3691   */\n      swap1\n      pop\n        /* \"#utility.yul\":3746:3750   */\n      0x20\n        /* \"#utility.yul\":3740:3744   */\n      dup2\n        /* \"#utility.yul\":3736:3751   */\n      add\n        /* \"#utility.yul\":3728:3751   */\n      swap1\n      pop\n        /* \"#utility.yul\":3411:3758   */\n      swap2\n      swap1\n      pop\n      jump\t// out\n        /* \"#utility.yul\":3764:3881   */\n    tag_178:\n        /* \"#utility.yul\":3873:3874   */\n      0x00\n        /* \"#utility.yul\":3870:3871   */\n      dup1\n        /* \"#utility.yul\":3863:3875   */\n      revert\n        /* \"#utility.yul\":3887:4004   */\n    tag_179:\n        /* \"#utility.yul\":3996:3997   */\n      0x00\n        /* \"#utility.yul\":3993:3994   */\n      dup1\n        /* \"#utility.yul\":3986:3998   */\n      revert\n        /* \"#utility.yul\":4133:4240   */\n    tag_181:\n        /* \"#utility.yul\":4169:4176   */\n      0x00\n        /* \"#utility.yul\":4209:4233   */\n      0xffffffffffffffffffffff\n        /* \"#utility.yul\":4202:4207   */\n      dup3\n        /* \"#utility.yul\":4198:4234   */\n      and\n        /* \"#utility.yul\":4187:4234   */\n      swap1\n      pop\n        /* \"#utility.yul\":4133:4240   */\n      swap2\n      swap1\n      pop\n      jump\t// out\n        /* \"#utility.yul\":4246:4366   */\n    tag_182:\n        /* \"#utility.yul\":4318:4341   */\n      tag_291\n        /* \"#utility.yul\":4335:4340   */\n      dup2\n        /* \"#utility.yul\":4318:4341   */\n      tag_181\n      jump\t// in\n    tag_291:\n        /* \"#utility.yul\":4311:4316   */\n      dup2\n        /* \"#utility.yul\":4308:4342   */\n      eq\n        /* \"#utility.yul\":4298:4360   */\n      tag_292\n      jumpi\n        /* \"#utility.yul\":4356:4357   */\n      0x00\n        /* \"#utility.yul\":4353:4354   */\n      dup1\n        /* \"#utility.yul\":4346:4358   */\n      revert\n        /* \"#utility.yul\":4298:4360   */\n    tag_292:\n        /* \"#utility.yul\":4246:4366   */\n      pop\n      jump\t// out\n        /* \"#utility.yul\":4372:4509   */\n    tag_183:\n        /* \"#utility.yul\":4417:4422   */\n      0x00\n        /* \"#utility.yul\":4455:4461   */\n      dup2\n        /* \"#utility.yul\":4442:4462   */\n      calldataload\n        /* \"#utility.yul\":4433:4462   */\n      swap1\n      pop\n        /* \"#utility.yul\":4471:4503   */\n      tag_294\n        /* \"#utility.yul\":4497:4502   */\n      dup2\n        /* \"#utility.yul\":4471:4503   */\n      tag_182\n      jump\t// in\n    tag_294:\n        /* \"#utility.yul\":4372:4509   */\n      swap3\n      swap2\n      pop\n      pop\n      jump\t// out\n        /* \"#utility.yul\":4515:4592   */\n    tag_184:\n        /* \"#utility.yul\":4552:4559   */\n      0x00\n        /* \"#utility.yul\":4581:4586   */\n      dup2\n        /* \"#utility.yul\":4570:4586   */\n      swap1\n      pop\n        /* \"#utility.yul\":4515:4592   */\n      swap2\n      swap1\n      pop\n      jump\t// out\n        /* \"#utility.yul\":4598:4720   */\n    tag_185:\n        /* \"#utility.yul\":4671:4695   */\n      tag_297\n        /* \"#utility.yul\":4689:4694   */\n      dup2\n        /* \"#utility.yul\":4671:4695   */\n      tag_184\n      jump\t// in\n    tag_297:\n        /* \"#utility.yul\":4664:4669   */\n      dup2\n        /* \"#utility.yul\":4661:4696   */\n      eq\n        /* \"#utility.yul\":4651:4714   */\n      tag_298\n      jumpi\n        /* \"#utility.yul\":4710:4711   */\n      0x00\n        /* \"#utility.yul\":4707:4708   */\n      dup1\n        /* \"#utility.yul\":4700:4712   */\n      revert\n        /* \"#utility.yul\":4651:4714   */\n    tag_298:\n        /* \"#utility.yul\":4598:4720   */\n      pop\n      jump\t// out\n        /* \"#utility.yul\":4726:4865   */\n    tag_186:\n        /* \"#utility.yul\":4772:4777   */\n      0x00\n        /* \"#utility.yul\":4810:4816   */\n      dup2\n        /* \"#utility.yul\":4797:4817   */\n      calldataload\n        /* \"#utility.yul\":4788:4817   */\n      swap1\n      pop\n        /* \"#utility.yul\":4826:4859   */\n      tag_300\n        /* \"#utility.yul\":4853:4858   */\n      dup2\n        /* \"#utility.yul\":4826:4859   */\n      tag_185\n      jump\t// in\n    tag_300:\n        /* \"#utility.yul\":4726:4865   */\n      swap3\n      swap2\n      pop\n      pop\n      jump\t// out\n        /* \"#utility.yul\":4871:4964   */\n    tag_187:\n        /* \"#utility.yul\":4907:4914   */\n      0x00\n        /* \"#utility.yul\":4947:4957   */\n      0xffffffff\n        /* \"#utility.yul\":4940:4945   */\n      dup3\n        /* \"#utility.yul\":4936:4958   */\n      and\n        /* \"#utility.yul\":4925:4958   */\n      swap1\n      pop\n        /* \"#utility.yul\":4871:4964   */\n      swap2\n      swap1\n      pop\n      jump\t// out\n        /* \"#utility.yul\":4970:5090   */\n    tag_188:\n        /* \"#utility.yul\":5042:5065   */\n      tag_303\n        /* \"#utility.yul\":5059:5064   */\n      dup2\n        /* \"#utility.yul\":5042:5065   */\n      tag_187\n      jump\t// in\n    tag_303:\n        /* \"#utility.yul\":5035:5040   */\n      dup2\n        /* \"#utility.yul\":5032:5066   */\n      eq\n        /* \"#utility.yul\":5022:5084   */\n      tag_304\n      jumpi\n        /* \"#utility.yul\":5080:5081   */\n      0x00\n        /* \"#utility.yul\":5077:5078   */\n      dup1\n        /* \"#utility.yul\":5070:5082   */\n      revert\n        /* \"#utility.yul\":5022:5084   */\n    tag_304:\n        /* \"#utility.yul\":4970:5090   */\n      pop\n      jump\t// out\n        /* \"#utility.yul\":5096:5233   */\n    tag_189:\n        /* \"#utility.yul\":5141:5146   */\n      0x00\n        /* \"#utility.yul\":5179:5185   */\n      dup2\n        /* \"#utility.yul\":5166:5186   */\n      calldataload\n        /* \"#utility.yul\":5157:5186   */\n      swap1\n      pop\n        /* \"#utility.yul\":5195:5227   */\n      tag_306\n        /* \"#utility.yul\":5221:5226   */\n      dup2\n        /* \"#utility.yul\":5195:5227   */\n      tag_188\n      jump\t// in\n    tag_306:\n        /* \"#utility.yul\":5096:5233   */\n      swap3\n      swap2\n      pop\n      pop\n      jump\t// out\n        /* \"#utility.yul\":5239:5365   */\n    tag_190:\n        /* \"#utility.yul\":5306:5313   */\n      0x00\n        /* \"#utility.yul\":5335:5359   */\n      tag_308\n        /* \"#utility.yul\":5353:5358   */\n      dup3\n        /* \"#utility.yul\":5335:5359   */\n      tag_165\n      jump\t// in\n    tag_308:\n        /* \"#utility.yul\":5324:5359   */\n      swap1\n      pop\n        /* \"#utility.yul\":5239:5365   */\n      swap2\n      swap1\n      pop\n      jump\t// out\n        /* \"#utility.yul\":5371:5553   */\n    tag_191:\n        /* \"#utility.yul\":5474:5528   */\n      tag_310\n        /* \"#utility.yul\":5522:5527   */\n      dup2\n        /* \"#utility.yul\":5474:5528   */\n      tag_190\n      jump\t// in\n    tag_310:\n        /* \"#utility.yul\":5467:5472   */\n      dup2\n        /* \"#utility.yul\":5464:5529   */\n      eq\n        /* \"#utility.yul\":5454:5547   */\n      tag_311\n      jumpi\n        /* \"#utility.yul\":5543:5544   */\n      0x00\n        /* \"#utility.yul\":5540:5541   */\n      dup1\n        /* \"#utility.yul\":5533:5545   */\n      revert\n        /* \"#utility.yul\":5454:5547   */\n    tag_311:\n        /* \"#utility.yul\":5371:5553   */\n      pop\n      jump\t// out\n        /* \"#utility.yul\":5559:5758   */\n    tag_192:\n        /* \"#utility.yul\":5635:5640   */\n      0x00\n        /* \"#utility.yul\":5673:5679   */\n      dup2\n        /* \"#utility.yul\":5660:5680   */\n      calldataload\n        /* \"#utility.yul\":5651:5680   */\n      swap1\n      pop\n        /* \"#utility.yul\":5689:5752   */\n      tag_313\n        /* \"#utility.yul\":5746:5751   */\n      dup2\n        /* \"#utility.yul\":5689:5752   */\n      tag_191\n      jump\t// in\n    tag_313:\n        /* \"#utility.yul\":5559:5758   */\n      swap3\n      swap2\n      pop\n      pop\n      jump\t// out\n        /* \"#utility.yul\":5814:7316   */\n    tag_193:\n        /* \"#utility.yul\":5899:5904   */\n      0x00\n        /* \"#utility.yul\":5943:5947   */\n      0xe0\n        /* \"#utility.yul\":5931:5940   */\n      dup3\n        /* \"#utility.yul\":5926:5929   */\n      dup5\n        /* \"#utility.yul\":5922:5941   */\n      sub\n        /* \"#utility.yul\":5918:5948   */\n      slt\n        /* \"#utility.yul\":5915:6032   */\n      iszero\n      tag_315\n      jumpi\n        /* \"#utility.yul\":5951:6030   */\n      tag_316\n      tag_179\n      jump\t// in\n    tag_316:\n        /* \"#utility.yul\":5915:6032   */\n    tag_315:\n        /* \"#utility.yul\":6050:6071   */\n      tag_317\n        /* \"#utility.yul\":6066:6070   */\n      0xe0\n        /* \"#utility.yul\":6050:6071   */\n      tag_176\n      jump\t// in\n    tag_317:\n        /* \"#utility.yul\":6041:6071   */\n      swap1\n      pop\n        /* \"#utility.yul\":6143:6144   */\n      0x00\n        /* \"#utility.yul\":6183:6231   */\n      tag_318\n        /* \"#utility.yul\":6227:6230   */\n      dup5\n        /* \"#utility.yul\":6218:6224   */\n      dup3\n        /* \"#utility.yul\":6207:6216   */\n      dup6\n        /* \"#utility.yul\":6203:6225   */\n      add\n        /* \"#utility.yul\":6183:6231   */\n      tag_183\n      jump\t// in\n    tag_318:\n        /* \"#utility.yul\":6176:6180   */\n      0x00\n        /* \"#utility.yul\":6169:6174   */\n      dup4\n        /* \"#utility.yul\":6165:6181   */\n      add\n        /* \"#utility.yul\":6158:6232   */\n      mstore\n        /* \"#utility.yul\":6081:6243   */\n      pop\n        /* \"#utility.yul\":6309:6311   */\n      0x20\n        /* \"#utility.yul\":6350:6399   */\n      tag_319\n        /* \"#utility.yul\":6395:6398   */\n      dup5\n        /* \"#utility.yul\":6386:6392   */\n      dup3\n        /* \"#utility.yul\":6375:6384   */\n      dup6\n        /* \"#utility.yul\":6371:6393   */\n      add\n        /* \"#utility.yul\":6350:6399   */\n      tag_186\n      jump\t// in\n    tag_319:\n        /* \"#utility.yul\":6343:6347   */\n      0x20\n        /* \"#utility.yul\":6336:6341   */\n      dup4\n        /* \"#utility.yul\":6332:6348   */\n      add\n        /* \"#utility.yul\":6325:6400   */\n      mstore\n        /* \"#utility.yul\":6253:6411   */\n      pop\n        /* \"#utility.yul\":6481:6483   */\n      0x40\n        /* \"#utility.yul\":6522:6570   */\n      tag_320\n        /* \"#utility.yul\":6566:6569   */\n      dup5\n        /* \"#utility.yul\":6557:6563   */\n      dup3\n        /* \"#utility.yul\":6546:6555   */\n      dup6\n        /* \"#utility.yul\":6542:6564   */\n      add\n        /* \"#utility.yul\":6522:6570   */\n      tag_189\n      jump\t// in\n    tag_320:\n        /* \"#utility.yul\":6515:6519   */\n      0x40\n        /* \"#utility.yul\":6508:6513   */\n      dup4\n        /* \"#utility.yul\":6504:6520   */\n      add\n        /* \"#utility.yul\":6497:6571   */\n      mstore\n        /* \"#utility.yul\":6421:6582   */\n      pop\n        /* \"#utility.yul\":6642:6644   */\n      0x60\n        /* \"#utility.yul\":6683:6732   */\n      tag_321\n        /* \"#utility.yul\":6728:6731   */\n      dup5\n        /* \"#utility.yul\":6719:6725   */\n      dup3\n        /* \"#utility.yul\":6708:6717   */\n      dup6\n        /* \"#utility.yul\":6704:6726   */\n      add\n        /* \"#utility.yul\":6683:6732   */\n      tag_167\n      jump\t// in\n    tag_321:\n        /* \"#utility.yul\":6676:6680   */\n      0x60\n        /* \"#utility.yul\":6669:6674   */\n      dup4\n        /* \"#utility.yul\":6665:6681   */\n      add\n        /* \"#utility.yul\":6658:6733   */\n      mstore\n        /* \"#utility.yul\":6592:6744   */\n      pop\n        /* \"#utility.yul\":6805:6808   */\n      0x80\n        /* \"#utility.yul\":6847:6896   */\n      tag_322\n        /* \"#utility.yul\":6892:6895   */\n      dup5\n        /* \"#utility.yul\":6883:6889   */\n      dup3\n        /* \"#utility.yul\":6872:6881   */\n      dup6\n        /* \"#utility.yul\":6868:6890   */\n      add\n        /* \"#utility.yul\":6847:6896   */\n      tag_167\n      jump\t// in\n    tag_322:\n        /* \"#utility.yul\":6840:6844   */\n      0x80\n        /* \"#utility.yul\":6833:6838   */\n      dup4\n        /* \"#utility.yul\":6829:6845   */\n      add\n        /* \"#utility.yul\":6822:6897   */\n      mstore\n        /* \"#utility.yul\":6754:6908   */\n      pop\n        /* \"#utility.yul\":6979:6982   */\n      0xa0\n        /* \"#utility.yul\":7021:7100   */\n      tag_323\n        /* \"#utility.yul\":7096:7099   */\n      dup5\n        /* \"#utility.yul\":7087:7093   */\n      dup3\n        /* \"#utility.yul\":7076:7085   */\n      dup6\n        /* \"#utility.yul\":7072:7094   */\n      add\n        /* \"#utility.yul\":7021:7100   */\n      tag_192\n      jump\t// in\n    tag_323:\n        /* \"#utility.yul\":7014:7018   */\n      0xa0\n        /* \"#utility.yul\":7007:7012   */\n      dup4\n        /* \"#utility.yul\":7003:7019   */\n      add\n        /* \"#utility.yul\":6996:7101   */\n      mstore\n        /* \"#utility.yul\":6918:7112   */\n      pop\n        /* \"#utility.yul\":7179:7182   */\n      0xc0\n        /* \"#utility.yul\":7221:7297   */\n      tag_324\n        /* \"#utility.yul\":7293:7296   */\n      dup5\n        /* \"#utility.yul\":7284:7290   */\n      dup3\n        /* \"#utility.yul\":7273:7282   */\n      dup6\n        /* \"#utility.yul\":7269:7291   */\n      add\n        /* \"#utility.yul\":7221:7297   */\n      tag_171\n      jump\t// in\n    tag_324:\n        /* \"#utility.yul\":7214:7218   */\n      0xc0\n        /* \"#utility.yul\":7207:7212   */\n      dup4\n        /* \"#utility.yul\":7203:7219   */\n      add\n        /* \"#utility.yul\":7196:7298   */\n      mstore\n        /* \"#utility.yul\":7122:7309   */\n      pop\n        /* \"#utility.yul\":5814:7316   */\n      swap3\n      swap2\n      pop\n      pop\n      jump\t// out\n        /* \"#utility.yul\":7374:8192   */\n    tag_194:\n        /* \"#utility.yul\":7506:7511   */\n      0x00\n        /* \"#utility.yul\":7531:7648   */\n      tag_326\n        /* \"#utility.yul\":7547:7647   */\n      tag_327\n        /* \"#utility.yul\":7640:7646   */\n      dup5\n        /* \"#utility.yul\":7547:7647   */\n      tag_177\n      jump\t// in\n    tag_327:\n        /* \"#utility.yul\":7531:7648   */\n      tag_176\n      jump\t// in\n    tag_326:\n        /* \"#utility.yul\":7522:7648   */\n      swap1\n      pop\n        /* \"#utility.yul\":7668:7673   */\n      dup1\n        /* \"#utility.yul\":7697:7703   */\n      dup4\n        /* \"#utility.yul\":7690:7695   */\n      dup3\n        /* \"#utility.yul\":7683:7704   */\n      mstore\n        /* \"#utility.yul\":7731:7735   */\n      0x20\n        /* \"#utility.yul\":7724:7729   */\n      dup3\n        /* \"#utility.yul\":7720:7736   */\n      add\n        /* \"#utility.yul\":7713:7736   */\n      swap1\n      pop\n        /* \"#utility.yul\":7784:7788   */\n      0xe0\n        /* \"#utility.yul\":7776:7782   */\n      dup5\n        /* \"#utility.yul\":7772:7789   */\n      mul\n        /* \"#utility.yul\":7764:7770   */\n      dup4\n        /* \"#utility.yul\":7760:7790   */\n      add\n        /* \"#utility.yul\":7813:7816   */\n      dup6\n        /* \"#utility.yul\":7805:7811   */\n      dup2\n        /* \"#utility.yul\":7802:7817   */\n      gt\n        /* \"#utility.yul\":7799:7921   */\n      iszero\n      tag_328\n      jumpi\n        /* \"#utility.yul\":7832:7911   */\n      tag_329\n      tag_178\n      jump\t// in\n    tag_329:\n        /* \"#utility.yul\":7799:7921   */\n    tag_328:\n        /* \"#utility.yul\":7947:7953   */\n      dup4\n        /* \"#utility.yul\":7930:8186   */\n    tag_330:\n        /* \"#utility.yul\":7964:7970   */\n      dup2\n        /* \"#utility.yul\":7959:7962   */\n      dup2\n        /* \"#utility.yul\":7956:7971   */\n      lt\n        /* \"#utility.yul\":7930:8186   */\n      iszero\n      tag_332\n      jumpi\n        /* \"#utility.yul\":8039:8042   */\n      dup1\n        /* \"#utility.yul\":8068:8141   */\n      tag_333\n        /* \"#utility.yul\":8137:8140   */\n      dup9\n        /* \"#utility.yul\":8125:8135   */\n      dup3\n        /* \"#utility.yul\":8068:8141   */\n      tag_193\n      jump\t// in\n    tag_333:\n        /* \"#utility.yul\":8063:8066   */\n      dup5\n        /* \"#utility.yul\":8056:8142   */\n      mstore\n        /* \"#utility.yul\":8171:8175   */\n      0x20\n        /* \"#utility.yul\":8166:8169   */\n      dup5\n        /* \"#utility.yul\":8162:8176   */\n      add\n        /* \"#utility.yul\":8155:8176   */\n      swap4\n      pop\n        /* \"#utility.yul\":8006:8186   */\n      pop\n        /* \"#utility.yul\":7990:7994   */\n      0xe0\n        /* \"#utility.yul\":7985:7988   */\n      dup2\n        /* \"#utility.yul\":7981:7995   */\n      add\n        /* \"#utility.yul\":7974:7995   */\n      swap1\n      pop\n        /* \"#utility.yul\":7930:8186   */\n      jump(tag_330)\n    tag_332:\n        /* \"#utility.yul\":7934:7955   */\n      pop\n        /* \"#utility.yul\":7512:8192   */\n      pop\n      pop\n        /* \"#utility.yul\":7374:8192   */\n      swap4\n      swap3\n      pop\n      pop\n      pop\n      jump\t// out\n        /* \"#utility.yul\":8250:8692   */\n    tag_195:\n        /* \"#utility.yul\":8357:8362   */\n      0x00\n        /* \"#utility.yul\":8406:8409   */\n      dup3\n        /* \"#utility.yul\":8399:8403   */\n      0x1f\n        /* \"#utility.yul\":8391:8397   */\n      dup4\n        /* \"#utility.yul\":8387:8404   */\n      add\n        /* \"#utility.yul\":8383:8410   */\n      slt\n        /* \"#utility.yul\":8373:8495   */\n      tag_335\n      jumpi\n        /* \"#utility.yul\":8414:8493   */\n      tag_336\n      tag_172\n      jump\t// in\n    tag_336:\n        /* \"#utility.yul\":8373:8495   */\n    tag_335:\n        /* \"#utility.yul\":8531:8537   */\n      dup2\n        /* \"#utility.yul\":8518:8538   */\n      calldataload\n        /* \"#utility.yul\":8556:8686   */\n      tag_337\n        /* \"#utility.yul\":8682:8685   */\n      dup5\n        /* \"#utility.yul\":8674:8680   */\n      dup3\n        /* \"#utility.yul\":8667:8671   */\n      0x20\n        /* \"#utility.yul\":8659:8665   */\n      dup7\n        /* \"#utility.yul\":8655:8672   */\n      add\n        /* \"#utility.yul\":8556:8686   */\n      tag_194\n      jump\t// in\n    tag_337:\n        /* \"#utility.yul\":8547:8686   */\n      swap2\n      pop\n        /* \"#utility.yul\":8363:8692   */\n      pop\n        /* \"#utility.yul\":8250:8692   */\n      swap3\n      swap2\n      pop\n      pop\n      jump\t// out\n        /* \"#utility.yul\":8698:9309   */\n    tag_35:\n        /* \"#utility.yul\":8818:8824   */\n      0x00\n        /* \"#utility.yul\":8867:8869   */\n      0x20\n        /* \"#utility.yul\":8855:8864   */\n      dup3\n        /* \"#utility.yul\":8846:8853   */\n      dup5\n        /* \"#utility.yul\":8842:8865   */\n      sub\n        /* \"#utility.yul\":8838:8870   */\n      slt\n        /* \"#utility.yul\":8835:8954   */\n      iszero\n      tag_339\n      jumpi\n        /* \"#utility.yul\":8873:8952   */\n      tag_340\n      tag_162\n      jump\t// in\n    tag_340:\n        /* \"#utility.yul\":8835:8954   */\n    tag_339:\n        /* \"#utility.yul\":9021:9022   */\n      0x00\n        /* \"#utility.yul\":9010:9019   */\n      dup3\n        /* \"#utility.yul\":9006:9023   */\n      add\n        /* \"#utility.yul\":8993:9024   */\n      calldataload\n        /* \"#utility.yul\":9051:9069   */\n      0xffffffffffffffff\n        /* \"#utility.yul\":9043:9049   */\n      dup2\n        /* \"#utility.yul\":9040:9070   */\n      gt\n        /* \"#utility.yul\":9037:9154   */\n      iszero\n      tag_341\n      jumpi\n        /* \"#utility.yul\":9073:9152   */\n      tag_342\n      tag_163\n      jump\t// in\n    tag_342:\n        /* \"#utility.yul\":9037:9154   */\n    tag_341:\n        /* \"#utility.yul\":9178:9292   */\n      tag_343\n        /* \"#utility.yul\":9284:9291   */\n      dup5\n        /* \"#utility.yul\":9275:9281   */\n      dup3\n        /* \"#utility.yul\":9264:9273   */\n      dup6\n        /* \"#utility.yul\":9260:9282   */\n      add\n        /* \"#utility.yul\":9178:9292   */\n      tag_195\n      jump\t// in\n    tag_343:\n        /* \"#utility.yul\":9168:9292   */\n      swap2\n      pop\n        /* \"#utility.yul\":8964:9302   */\n      pop\n        /* \"#utility.yul\":8698:9309   */\n      swap3\n      swap2\n      pop\n      pop\n      jump\t// out\n        /* \"#utility.yul\":9315:9789   */\n    tag_39:\n        /* \"#utility.yul\":9383:9389   */\n      0x00\n        /* \"#utility.yul\":9391:9397   */\n      dup1\n        /* \"#utility.yul\":9440:9442   */\n      0x40\n        /* \"#utility.yul\":9428:9437   */\n      dup4\n        /* \"#utility.yul\":9419:9426   */\n      dup6\n        /* \"#utility.yul\":9415:9438   */\n      sub\n        /* \"#utility.yul\":9411:9443   */\n      slt\n        /* \"#utility.yul\":9408:9527   */\n      iszero\n      tag_345\n      jumpi\n        /* \"#utility.yul\":9446:9525   */\n      tag_346\n      tag_162\n      jump\t// in\n    tag_346:\n        /* \"#utility.yul\":9408:9527   */\n    tag_345:\n        /* \"#utility.yul\":9566:9567   */\n      0x00\n        /* \"#utility.yul\":9591:9644   */\n      tag_347\n        /* \"#utility.yul\":9636:9643   */\n      dup6\n        /* \"#utility.yul\":9627:9633   */\n      dup3\n        /* \"#utility.yul\":9616:9625   */\n      dup7\n        /* \"#utility.yul\":9612:9634   */\n      add\n        /* \"#utility.yul\":9591:9644   */\n      tag_167\n      jump\t// in\n    tag_347:\n        /* \"#utility.yul\":9581:9644   */\n      swap3\n      pop\n        /* \"#utility.yul\":9537:9654   */\n      pop\n        /* \"#utility.yul\":9693:9695   */\n      0x20\n        /* \"#utility.yul\":9719:9772   */\n      tag_348\n        /* \"#utility.yul\":9764:9771   */\n      dup6\n        /* \"#utility.yul\":9755:9761   */\n      dup3\n        /* \"#utility.yul\":9744:9753   */\n      dup7\n        /* \"#utility.yul\":9740:9762   */\n      add\n        /* \"#utility.yul\":9719:9772   */\n      tag_167\n      jump\t// in\n    tag_348:\n        /* \"#utility.yul\":9709:9772   */\n      swap2\n      pop\n        /* \"#utility.yul\":9664:9782   */\n      pop\n        /* \"#utility.yul\":9315:9789   */\n      swap3\n      pop\n      swap3\n      swap1\n      pop\n      jump\t// out\n        /* \"#utility.yul\":9795:10412   */\n    tag_46:\n        /* \"#utility.yul\":9871:9877   */\n      0x00\n        /* \"#utility.yul\":9879:9885   */\n      dup1\n        /* \"#utility.yul\":9887:9893   */\n      0x00\n        /* \"#utility.yul\":9936:9938   */\n      0x60\n        /* \"#utility.yul\":9924:9933   */\n      dup5\n        /* \"#utility.yul\":9915:9922   */\n      dup7\n        /* \"#utility.yul\":9911:9934   */\n      sub\n        /* \"#utility.yul\":9907:9939   */\n      slt\n        /* \"#utility.yul\":9904:10023   */\n      iszero\n      tag_350\n      jumpi\n        /* \"#utility.yul\":9942:10021   */\n      tag_351\n      tag_162\n      jump\t// in\n    tag_351:\n        /* \"#utility.yul\":9904:10023   */\n    tag_350:\n        /* \"#utility.yul\":10062:10063   */\n      0x00\n        /* \"#utility.yul\":10087:10140   */\n      tag_352\n        /* \"#utility.yul\":10132:10139   */\n      dup7\n        /* \"#utility.yul\":10123:10129   */\n      dup3\n        /* \"#utility.yul\":10112:10121   */\n      dup8\n        /* \"#utility.yul\":10108:10130   */\n      add\n        /* \"#utility.yul\":10087:10140   */\n      tag_167\n      jump\t// in\n    tag_352:\n        /* \"#utility.yul\":10077:10140   */\n      swap4\n      pop\n        /* \"#utility.yul\":10033:10150   */\n      pop\n        /* \"#utility.yul\":10189:10191   */\n      0x20\n        /* \"#utility.yul\":10215:10268   */\n      tag_353\n        /* \"#utility.yul\":10260:10267   */\n      dup7\n        /* \"#utility.yul\":10251:10257   */\n      dup3\n        /* \"#utility.yul\":10240:10249   */\n      dup8\n        /* \"#utility.yul\":10236:10258   */\n      add\n        /* \"#utility.yul\":10215:10268   */\n      tag_167\n      jump\t// in\n    tag_353:\n        /* \"#utility.yul\":10205:10268   */\n      swap3\n      pop\n        /* \"#utility.yul\":10160:10278   */\n      pop\n        /* \"#utility.yul\":10317:10319   */\n      0x40\n        /* \"#utility.yul\":10343:10395   */\n      tag_354\n        /* \"#utility.yul\":10387:10394   */\n      dup7\n        /* \"#utility.yul\":10378:10384   */\n      dup3\n        /* \"#utility.yul\":10367:10376   */\n      dup8\n        /* \"#utility.yul\":10363:10385   */\n      add\n        /* \"#utility.yul\":10343:10395   */\n      tag_189\n      jump\t// in\n    tag_354:\n        /* \"#utility.yul\":10333:10395   */\n      swap2\n      pop\n        /* \"#utility.yul\":10288:10405   */\n      pop\n        /* \"#utility.yul\":9795:10412   */\n      swap3\n      pop\n      swap3\n      pop\n      swap3\n      jump\t// out\n        /* \"#utility.yul\":10418:10478   */\n    tag_196:\n        /* \"#utility.yul\":10446:10449   */\n      0x00\n        /* \"#utility.yul\":10467:10472   */\n      dup2\n        /* \"#utility.yul\":10460:10472   */\n      swap1\n      pop\n        /* \"#utility.yul\":10418:10478   */\n      swap2\n      swap1\n      pop\n      jump\t// out\n        /* \"#utility.yul\":10484:10626   */\n    tag_197:\n        /* \"#utility.yul\":10534:10543   */\n      0x00\n        /* \"#utility.yul\":10567:10620   */\n      tag_357\n        /* \"#utility.yul\":10585:10619   */\n      tag_358\n        /* \"#utility.yul\":10594:10618   */\n      tag_359\n        /* \"#utility.yul\":10612:10617   */\n      dup5\n        /* \"#utility.yul\":10594:10618   */\n      tag_164\n      jump\t// in\n    tag_359:\n        /* \"#utility.yul\":10585:10619   */\n      tag_196\n      jump\t// in\n    tag_358:\n        /* \"#utility.yul\":10567:10620   */\n      tag_164\n      jump\t// in\n    tag_357:\n        /* \"#utility.yul\":10554:10620   */\n      swap1\n      pop\n        /* \"#utility.yul\":10484:10626   */\n      swap2\n      swap1\n      pop\n      jump\t// out\n        /* \"#utility.yul\":10632:10758   */\n    tag_198:\n        /* \"#utility.yul\":10682:10691   */\n      0x00\n        /* \"#utility.yul\":10715:10752   */\n      tag_361\n        /* \"#utility.yul\":10746:10751   */\n      dup3\n        /* \"#utility.yul\":10715:10752   */\n      tag_197\n      jump\t// in\n    tag_361:\n        /* \"#utility.yul\":10702:10752   */\n      swap1\n      pop\n        /* \"#utility.yul\":10632:10758   */\n      swap2\n      swap1\n      pop\n      jump\t// out\n        /* \"#utility.yul\":10764:10916   */\n    tag_199:\n        /* \"#utility.yul\":10840:10849   */\n      0x00\n        /* \"#utility.yul\":10873:10910   */\n      tag_363\n        /* \"#utility.yul\":10904:10909   */\n      dup3\n        /* \"#utility.yul\":10873:10910   */\n      tag_198\n      jump\t// in\n    tag_363:\n        /* \"#utility.yul\":10860:10910   */\n      swap1\n      pop\n        /* \"#utility.yul\":10764:10916   */\n      swap2\n      swap1\n      pop\n      jump\t// out\n        /* \"#utility.yul\":10922:11105   */\n    tag_200:\n        /* \"#utility.yul\":11035:11098   */\n      tag_365\n        /* \"#utility.yul\":11092:11097   */\n      dup2\n        /* \"#utility.yul\":11035:11098   */\n      tag_199\n      jump\t// in\n    tag_365:\n        /* \"#utility.yul\":11030:11033   */\n      dup3\n        /* \"#utility.yul\":11023:11099   */\n      mstore\n        /* \"#utility.yul\":10922:11105   */\n      pop\n      pop\n      jump\t// out\n        /* \"#utility.yul\":11111:11385   */\n    tag_51:\n        /* \"#utility.yul\":11230:11234   */\n      0x00\n        /* \"#utility.yul\":11268:11270   */\n      0x20\n        /* \"#utility.yul\":11257:11266   */\n      dup3\n        /* \"#utility.yul\":11253:11271   */\n      add\n        /* \"#utility.yul\":11245:11271   */\n      swap1\n      pop\n        /* \"#utility.yul\":11281:11378   */\n      tag_367\n        /* \"#utility.yul\":11375:11376   */\n      0x00\n        /* \"#utility.yul\":11364:11373   */\n      dup4\n        /* \"#utility.yul\":11360:11377   */\n      add\n        /* \"#utility.yul\":11351:11357   */\n      dup5\n        /* \"#utility.yul\":11281:11378   */\n      tag_200\n      jump\t// in\n    tag_367:\n        /* \"#utility.yul\":11111:11385   */\n      swap3\n      swap2\n      pop\n      pop\n      jump\t// out\n        /* \"#utility.yul\":11391:11925   */\n    tag_54:\n        /* \"#utility.yul\":11489:11495   */\n      0x00\n        /* \"#utility.yul\":11497:11503   */\n      dup1\n        /* \"#utility.yul\":11546:11548   */\n      0x40\n        /* \"#utility.yul\":11534:11543   */\n      dup4\n        /* \"#utility.yul\":11525:11532   */\n      dup6\n        /* \"#utility.yul\":11521:11544   */\n      sub\n        /* \"#utility.yul\":11517:11549   */\n      slt\n        /* \"#utility.yul\":11514:11633   */\n      iszero\n      tag_369\n      jumpi\n        /* \"#utility.yul\":11552:11631   */\n      tag_370\n      tag_162\n      jump\t// in\n    tag_370:\n        /* \"#utility.yul\":11514:11633   */\n    tag_369:\n        /* \"#utility.yul\":11672:11673   */\n      0x00\n        /* \"#utility.yul\":11697:11750   */\n      tag_371\n        /* \"#utility.yul\":11742:11749   */\n      dup6\n        /* \"#utility.yul\":11733:11739   */\n      dup3\n        /* \"#utility.yul\":11722:11731   */\n      dup7\n        /* \"#utility.yul\":11718:11740   */\n      add\n        /* \"#utility.yul\":11697:11750   */\n      tag_167\n      jump\t// in\n    tag_371:\n        /* \"#utility.yul\":11687:11750   */\n      swap3\n      pop\n        /* \"#utility.yul\":11643:11760   */\n      pop\n        /* \"#utility.yul\":11799:11801   */\n      0x20\n        /* \"#utility.yul\":11825:11908   */\n      tag_372\n        /* \"#utility.yul\":11900:11907   */\n      dup6\n        /* \"#utility.yul\":11891:11897   */\n      dup3\n        /* \"#utility.yul\":11880:11889   */\n      dup7\n        /* \"#utility.yul\":11876:11898   */\n      add\n        /* \"#utility.yul\":11825:11908   */\n      tag_192\n      jump\t// in\n    tag_372:\n        /* \"#utility.yul\":11815:11908   */\n      swap2\n      pop\n        /* \"#utility.yul\":11770:11918   */\n      pop\n        /* \"#utility.yul\":11391:11925   */\n      swap3\n      pop\n      swap3\n      swap1\n      pop\n      jump\t// out\n        /* \"#utility.yul\":11931:12048   */\n    tag_201:\n        /* \"#utility.yul\":12040:12041   */\n      0x00\n        /* \"#utility.yul\":12037:12038   */\n      dup1\n        /* \"#utility.yul\":12030:12042   */\n      revert\n        /* \"#utility.yul\":12071:12639   */\n    tag_202:\n        /* \"#utility.yul\":12144:12152   */\n      0x00\n        /* \"#utility.yul\":12154:12160   */\n      dup1\n        /* \"#utility.yul\":12204:12207   */\n      dup4\n        /* \"#utility.yul\":12197:12201   */\n      0x1f\n        /* \"#utility.yul\":12189:12195   */\n      dup5\n        /* \"#utility.yul\":12185:12202   */\n      add\n        /* \"#utility.yul\":12181:12208   */\n      slt\n        /* \"#utility.yul\":12171:12293   */\n      tag_375\n      jumpi\n        /* \"#utility.yul\":12212:12291   */\n      tag_376\n      tag_172\n      jump\t// in\n    tag_376:\n        /* \"#utility.yul\":12171:12293   */\n    tag_375:\n        /* \"#utility.yul\":12325:12331   */\n      dup3\n        /* \"#utility.yul\":12312:12332   */\n      calldataload\n        /* \"#utility.yul\":12302:12332   */\n      swap1\n      pop\n        /* \"#utility.yul\":12355:12373   */\n      0xffffffffffffffff\n        /* \"#utility.yul\":12347:12353   */\n      dup2\n        /* \"#utility.yul\":12344:12374   */\n      gt\n        /* \"#utility.yul\":12341:12458   */\n      iszero\n      tag_377\n      jumpi\n        /* \"#utility.yul\":12377:12456   */\n      tag_378\n      tag_201\n      jump\t// in\n    tag_378:\n        /* \"#utility.yul\":12341:12458   */\n    tag_377:\n        /* \"#utility.yul\":12491:12495   */\n      0x20\n        /* \"#utility.yul\":12483:12489   */\n      dup4\n        /* \"#utility.yul\":12479:12496   */\n      add\n        /* \"#utility.yul\":12467:12496   */\n      swap2\n      pop\n        /* \"#utility.yul\":12545:12548   */\n      dup4\n        /* \"#utility.yul\":12537:12541   */\n      0x20\n        /* \"#utility.yul\":12529:12535   */\n      dup3\n        /* \"#utility.yul\":12525:12542   */\n      mul\n        /* \"#utility.yul\":12515:12523   */\n      dup4\n        /* \"#utility.yul\":12511:12543   */\n      add\n        /* \"#utility.yul\":12508:12549   */\n      gt\n        /* \"#utility.yul\":12505:12633   */\n      iszero\n      tag_379\n      jumpi\n        /* \"#utility.yul\":12552:12631   */\n      tag_380\n      tag_178\n      jump\t// in\n    tag_380:\n        /* \"#utility.yul\":12505:12633   */\n    tag_379:\n        /* \"#utility.yul\":12071:12639   */\n      swap3\n      pop\n      swap3\n      swap1\n      pop\n      jump\t// out\n        /* \"#utility.yul\":12661:13228   */\n    tag_203:\n        /* \"#utility.yul\":12733:12741   */\n      0x00\n        /* \"#utility.yul\":12743:12749   */\n      dup1\n        /* \"#utility.yul\":12793:12796   */\n      dup4\n        /* \"#utility.yul\":12786:12790   */\n      0x1f\n        /* \"#utility.yul\":12778:12784   */\n      dup5\n        /* \"#utility.yul\":12774:12791   */\n      add\n        /* \"#utility.yul\":12770:12797   */\n      slt\n        /* \"#utility.yul\":12760:12882   */\n      tag_382\n      jumpi\n        /* \"#utility.yul\":12801:12880   */\n      tag_383\n      tag_172\n      jump\t// in\n    tag_383:\n        /* \"#utility.yul\":12760:12882   */\n    tag_382:\n        /* \"#utility.yul\":12914:12920   */\n      dup3\n        /* \"#utility.yul\":12901:12921   */\n      calldataload\n        /* \"#utility.yul\":12891:12921   */\n      swap1\n      pop\n        /* \"#utility.yul\":12944:12962   */\n      0xffffffffffffffff\n        /* \"#utility.yul\":12936:12942   */\n      dup2\n        /* \"#utility.yul\":12933:12963   */\n      gt\n        /* \"#utility.yul\":12930:13047   */\n      iszero\n      tag_384\n      jumpi\n        /* \"#utility.yul\":12966:13045   */\n      tag_385\n      tag_201\n      jump\t// in\n    tag_385:\n        /* \"#utility.yul\":12930:13047   */\n    tag_384:\n        /* \"#utility.yul\":13080:13084   */\n      0x20\n        /* \"#utility.yul\":13072:13078   */\n      dup4\n        /* \"#utility.yul\":13068:13085   */\n      add\n        /* \"#utility.yul\":13056:13085   */\n      swap2\n      pop\n        /* \"#utility.yul\":13134:13137   */\n      dup4\n        /* \"#utility.yul\":13126:13130   */\n      0x20\n        /* \"#utility.yul\":13118:13124   */\n      dup3\n        /* \"#utility.yul\":13114:13131   */\n      mul\n        /* \"#utility.yul\":13104:13112   */\n      dup4\n        /* \"#utility.yul\":13100:13132   */\n      add\n        /* \"#utility.yul\":13097:13138   */\n      gt\n        /* \"#utility.yul\":13094:13222   */\n      iszero\n      tag_386\n      jumpi\n        /* \"#utility.yul\":13141:13220   */\n      tag_387\n      tag_178\n      jump\t// in\n    tag_387:\n        /* \"#utility.yul\":13094:13222   */\n    tag_386:\n        /* \"#utility.yul\":12661:13228   */\n      swap3\n      pop\n      swap3\n      swap1\n      pop\n      jump\t// out\n        /* \"#utility.yul\":13234:14311   */\n    tag_64:\n        /* \"#utility.yul\":13364:13370   */\n      0x00\n        /* \"#utility.yul\":13372:13378   */\n      dup1\n        /* \"#utility.yul\":13380:13386   */\n      0x00\n        /* \"#utility.yul\":13388:13394   */\n      dup1\n        /* \"#utility.yul\":13396:13402   */\n      0x00\n        /* \"#utility.yul\":13445:13447   */\n      0x60\n        /* \"#utility.yul\":13433:13442   */\n      dup7\n        /* \"#utility.yul\":13424:13431   */\n      dup9\n        /* \"#utility.yul\":13420:13443   */\n      sub\n        /* \"#utility.yul\":13416:13448   */\n      slt\n        /* \"#utility.yul\":13413:13532   */\n      iszero\n      tag_389\n      jumpi\n        /* \"#utility.yul\":13451:13530   */\n      tag_390\n      tag_162\n      jump\t// in\n    tag_390:\n        /* \"#utility.yul\":13413:13532   */\n    tag_389:\n        /* \"#utility.yul\":13571:13572   */\n      0x00\n        /* \"#utility.yul\":13596:13649   */\n      tag_391\n        /* \"#utility.yul\":13641:13648   */\n      dup9\n        /* \"#utility.yul\":13632:13638   */\n      dup3\n        /* \"#utility.yul\":13621:13630   */\n      dup10\n        /* \"#utility.yul\":13617:13639   */\n      add\n        /* \"#utility.yul\":13596:13649   */\n      tag_167\n      jump\t// in\n    tag_391:\n        /* \"#utility.yul\":13586:13649   */\n      swap6\n      pop\n        /* \"#utility.yul\":13542:13659   */\n      pop\n        /* \"#utility.yul\":13726:13728   */\n      0x20\n        /* \"#utility.yul\":13715:13724   */\n      dup7\n        /* \"#utility.yul\":13711:13729   */\n      add\n        /* \"#utility.yul\":13698:13730   */\n      calldataload\n        /* \"#utility.yul\":13757:13775   */\n      0xffffffffffffffff\n        /* \"#utility.yul\":13749:13755   */\n      dup2\n        /* \"#utility.yul\":13746:13776   */\n      gt\n        /* \"#utility.yul\":13743:13860   */\n      iszero\n      tag_392\n      jumpi\n        /* \"#utility.yul\":13779:13858   */\n      tag_393\n      tag_163\n      jump\t// in\n    tag_393:\n        /* \"#utility.yul\":13743:13860   */\n    tag_392:\n        /* \"#utility.yul\":13892:13972   */\n      tag_394\n        /* \"#utility.yul\":13964:13971   */\n      dup9\n        /* \"#utility.yul\":13955:13961   */\n      dup3\n        /* \"#utility.yul\":13944:13953   */\n      dup10\n        /* \"#utility.yul\":13940:13962   */\n      add\n        /* \"#utility.yul\":13892:13972   */\n      tag_202\n      jump\t// in\n    tag_394:\n        /* \"#utility.yul\":13874:13972   */\n      swap5\n      pop\n      swap5\n      pop\n        /* \"#utility.yul\":13669:13982   */\n      pop\n        /* \"#utility.yul\":14049:14051   */\n      0x40\n        /* \"#utility.yul\":14038:14047   */\n      dup7\n        /* \"#utility.yul\":14034:14052   */\n      add\n        /* \"#utility.yul\":14021:14053   */\n      calldataload\n        /* \"#utility.yul\":14080:14098   */\n      0xffffffffffffffff\n        /* \"#utility.yul\":14072:14078   */\n      dup2\n        /* \"#utility.yul\":14069:14099   */\n      gt\n        /* \"#utility.yul\":14066:14183   */\n      iszero\n      tag_395\n      jumpi\n        /* \"#utility.yul\":14102:14181   */\n      tag_396\n      tag_163\n      jump\t// in\n    tag_396:\n        /* \"#utility.yul\":14066:14183   */\n    tag_395:\n        /* \"#utility.yul\":14215:14294   */\n      tag_397\n        /* \"#utility.yul\":14286:14293   */\n      dup9\n        /* \"#utility.yul\":14277:14283   */\n      dup3\n        /* \"#utility.yul\":14266:14275   */\n      dup10\n        /* \"#utility.yul\":14262:14284   */\n      add\n        /* \"#utility.yul\":14215:14294   */\n      tag_203\n      jump\t// in\n    tag_397:\n        /* \"#utility.yul\":14197:14294   */\n      swap3\n      pop\n      swap3\n      pop\n        /* \"#utility.yul\":13992:14304   */\n      pop\n        /* \"#utility.yul\":13234:14311   */\n      swap3\n      swap6\n      pop\n      swap3\n      swap6\n      swap1\n      swap4\n      pop\n      jump\t// out\n        /* \"#utility.yul\":14317:14486   */\n    tag_204:\n        /* \"#utility.yul\":14401:14412   */\n      0x00\n        /* \"#utility.yul\":14435:14441   */\n      dup3\n        /* \"#utility.yul\":14430:14433   */\n      dup3\n        /* \"#utility.yul\":14423:14442   */\n      mstore\n        /* \"#utility.yul\":14475:14479   */\n      0x20\n        /* \"#utility.yul\":14470:14473   */\n      dup3\n        /* \"#utility.yul\":14466:14480   */\n      add\n        /* \"#utility.yul\":14451:14480   */\n      swap1\n      pop\n        /* \"#utility.yul\":14317:14486   */\n      swap3\n      swap2\n      pop\n      pop\n      jump\t// out\n        /* \"#utility.yul\":14492:14661   */\n    tag_205:\n        /* \"#utility.yul\":14632:14653   */\n      0x4f4e4c595f454d495353494f4e5f41444d494e00000000000000000000000000\n        /* \"#utility.yul\":14628:14629   */\n      0x00\n        /* \"#utility.yul\":14620:14626   */\n      dup3\n        /* \"#utility.yul\":14616:14630   */\n      add\n        /* \"#utility.yul\":14609:14654   */\n      mstore\n        /* \"#utility.yul\":14492:14661   */\n      pop\n      jump\t// out\n        /* \"#utility.yul\":14667:15033   */\n    tag_206:\n        /* \"#utility.yul\":14809:14812   */\n      0x00\n        /* \"#utility.yul\":14830:14897   */\n      tag_401\n        /* \"#utility.yul\":14894:14896   */\n      0x13\n        /* \"#utility.yul\":14889:14892   */\n      dup4\n        /* \"#utility.yul\":14830:14897   */\n      tag_204\n      jump\t// in\n    tag_401:\n        /* \"#utility.yul\":14823:14897   */\n      swap2\n      pop\n        /* \"#utility.yul\":14906:14999   */\n      tag_402\n        /* \"#utility.yul\":14995:14998   */\n      dup3\n        /* \"#utility.yul\":14906:14999   */\n      tag_205\n      jump\t// in\n    tag_402:\n        /* \"#utility.yul\":15024:15026   */\n      0x20\n        /* \"#utility.yul\":15019:15022   */\n      dup3\n        /* \"#utility.yul\":15015:15027   */\n      add\n        /* \"#utility.yul\":15008:15027   */\n      swap1\n      pop\n        /* \"#utility.yul\":14667:15033   */\n      swap2\n      swap1\n      pop\n      jump\t// out\n        /* \"#utility.yul\":15039:15458   */\n    tag_70:\n        /* \"#utility.yul\":15205:15209   */\n      0x00\n        /* \"#utility.yul\":15243:15245   */\n      0x20\n        /* \"#utility.yul\":15232:15241   */\n      dup3\n        /* \"#utility.yul\":15228:15246   */\n      add\n        /* \"#utility.yul\":15220:15246   */\n      swap1\n      pop\n        /* \"#utility.yul\":15292:15301   */\n      dup2\n        /* \"#utility.yul\":15286:15290   */\n      dup2\n        /* \"#utility.yul\":15282:15302   */\n      sub\n        /* \"#utility.yul\":15278:15279   */\n      0x00\n        /* \"#utility.yul\":15267:15276   */\n      dup4\n        /* \"#utility.yul\":15263:15280   */\n      add\n        /* \"#utility.yul\":15256:15303   */\n      mstore\n        /* \"#utility.yul\":15320:15451   */\n      tag_404\n        /* \"#utility.yul\":15446:15450   */\n      dup2\n        /* \"#utility.yul\":15320:15451   */\n      tag_206\n      jump\t// in\n    tag_404:\n        /* \"#utility.yul\":15312:15451   */\n      swap1\n      pop\n        /* \"#utility.yul\":15039:15458   */\n      swap2\n      swap1\n      pop\n      jump\t// out\n        /* \"#utility.yul\":15464:15617   */\n    tag_207:\n        /* \"#utility.yul\":15541:15550   */\n      0x00\n        /* \"#utility.yul\":15574:15611   */\n      tag_406\n        /* \"#utility.yul\":15605:15610   */\n      dup3\n        /* \"#utility.yul\":15574:15611   */\n      tag_198\n      jump\t// in\n    tag_406:\n        /* \"#utility.yul\":15561:15611   */\n      swap1\n      pop\n        /* \"#utility.yul\":15464:15617   */\n      swap2\n      swap1\n      pop\n      jump\t// out\n        /* \"#utility.yul\":15623:15808   */\n    tag_208:\n        /* \"#utility.yul\":15737:15801   */\n      tag_408\n        /* \"#utility.yul\":15795:15800   */\n      dup2\n        /* \"#utility.yul\":15737:15801   */\n      tag_207\n      jump\t// in\n    tag_408:\n        /* \"#utility.yul\":15732:15735   */\n      dup3\n        /* \"#utility.yul\":15725:15802   */\n      mstore\n        /* \"#utility.yul\":15623:15808   */\n      pop\n      pop\n      jump\t// out\n        /* \"#utility.yul\":15814:16200   */\n    tag_73:\n        /* \"#utility.yul\":15962:15966   */\n      0x00\n        /* \"#utility.yul\":16000:16002   */\n      0x40\n        /* \"#utility.yul\":15989:15998   */\n      dup3\n        /* \"#utility.yul\":15985:16003   */\n      add\n        /* \"#utility.yul\":15977:16003   */\n      swap1\n      pop\n        /* \"#utility.yul\":16013:16084   */\n      tag_410\n        /* \"#utility.yul\":16081:16082   */\n      0x00\n        /* \"#utility.yul\":16070:16079   */\n      dup4\n        /* \"#utility.yul\":16066:16083   */\n      add\n        /* \"#utility.yul\":16057:16063   */\n      dup6\n        /* \"#utility.yul\":16013:16084   */\n      tag_168\n      jump\t// in\n    tag_410:\n        /* \"#utility.yul\":16094:16193   */\n      tag_411\n        /* \"#utility.yul\":16189:16191   */\n      0x20\n        /* \"#utility.yul\":16178:16187   */\n      dup4\n        /* \"#utility.yul\":16174:16192   */\n      add\n        /* \"#utility.yul\":16165:16171   */\n      dup5\n        /* \"#utility.yul\":16094:16193   */\n      tag_208\n      jump\t// in\n    tag_411:\n        /* \"#utility.yul\":15814:16200   */\n      swap4\n      swap3\n      pop\n      pop\n      pop\n      jump\t// out\n        /* \"#utility.yul\":16206:16388   */\n    tag_209:\n        /* \"#utility.yul\":16346:16380   */\n      0x4f776e61626c653a2063616c6c6572206973206e6f7420746865206f776e6572\n        /* \"#utility.yul\":16342:16343   */\n      0x00\n        /* \"#utility.yul\":16334:16340   */\n      dup3\n        /* \"#utility.yul\":16330:16344   */\n      add\n        /* \"#utility.yul\":16323:16381   */\n      mstore\n        /* \"#utility.yul\":16206:16388   */\n      pop\n      jump\t// out\n        /* \"#utility.yul\":16394:16760   */\n    tag_210:\n        /* \"#utility.yul\":16536:16539   */\n      0x00\n        /* \"#utility.yul\":16557:16624   */\n      tag_414\n        /* \"#utility.yul\":16621:16623   */\n      0x20\n        /* \"#utility.yul\":16616:16619   */\n      dup4\n        /* \"#utility.yul\":16557:16624   */\n      tag_204\n      jump\t// in\n    tag_414:\n        /* \"#utility.yul\":16550:16624   */\n      swap2\n      pop\n        /* \"#utility.yul\":16633:16726   */\n      tag_415\n        /* \"#utility.yul\":16722:16725   */\n      dup3\n        /* \"#utility.yul\":16633:16726   */\n      tag_209\n      jump\t// in\n    tag_415:\n        /* \"#utility.yul\":16751:16753   */\n      0x20\n        /* \"#utility.yul\":16746:16749   */\n      dup3\n        /* \"#utility.yul\":16742:16754   */\n      add\n        /* \"#utility.yul\":16735:16754   */\n      swap1\n      pop\n        /* \"#utility.yul\":16394:16760   */\n      swap2\n      swap1\n      pop\n      jump\t// out\n        /* \"#utility.yul\":16766:17185   */\n    tag_82:\n        /* \"#utility.yul\":16932:16936   */\n      0x00\n        /* \"#utility.yul\":16970:16972   */\n      0x20\n        /* \"#utility.yul\":16959:16968   */\n      dup3\n        /* \"#utility.yul\":16955:16973   */\n      add\n        /* \"#utility.yul\":16947:16973   */\n      swap1\n      pop\n        /* \"#utility.yul\":17019:17028   */\n      dup2\n        /* \"#utility.yul\":17013:17017   */\n      dup2\n        /* \"#utility.yul\":17009:17029   */\n      sub\n        /* \"#utility.yul\":17005:17006   */\n      0x00\n        /* \"#utility.yul\":16994:17003   */\n      dup4\n        /* \"#utility.yul\":16990:17007   */\n      add\n        /* \"#utility.yul\":16983:17030   */\n      mstore\n        /* \"#utility.yul\":17047:17178   */\n      tag_417\n        /* \"#utility.yul\":17173:17177   */\n      dup2\n        /* \"#utility.yul\":17047:17178   */\n      tag_210\n      jump\t// in\n    tag_417:\n        /* \"#utility.yul\":17039:17178   */\n      swap1\n      pop\n        /* \"#utility.yul\":16766:17185   */\n      swap2\n      swap1\n      pop\n      jump\t// out\n        /* \"#utility.yul\":17191:17371   */\n    tag_91:\n        /* \"#utility.yul\":17239:17316   */\n      0x4e487b7100000000000000000000000000000000000000000000000000000000\n        /* \"#utility.yul\":17236:17237   */\n      0x00\n        /* \"#utility.yul\":17229:17317   */\n      mstore\n        /* \"#utility.yul\":17336:17340   */\n      0x32\n        /* \"#utility.yul\":17333:17334   */\n      0x04\n        /* \"#utility.yul\":17326:17341   */\n      mstore\n        /* \"#utility.yul\":17360:17364   */\n      0x24\n        /* \"#utility.yul\":17357:17358   */\n      0x00\n        /* \"#utility.yul\":17350:17365   */\n      revert\n        /* \"#utility.yul\":17377:17527   */\n    tag_211:\n        /* \"#utility.yul\":17480:17486   */\n      0x00\n        /* \"#utility.yul\":17514:17519   */\n      dup2\n        /* \"#utility.yul\":17508:17520   */\n      mload\n        /* \"#utility.yul\":17498:17520   */\n      swap1\n      pop\n        /* \"#utility.yul\":17377:17527   */\n      swap2\n      swap1\n      pop\n      jump\t// out\n        /* \"#utility.yul\":17533:17753   */\n    tag_212:\n        /* \"#utility.yul\":17668:17679   */\n      0x00\n        /* \"#utility.yul\":17702:17708   */\n      dup3\n        /* \"#utility.yul\":17697:17700   */\n      dup3\n        /* \"#utility.yul\":17690:17709   */\n      mstore\n        /* \"#utility.yul\":17742:17746   */\n      0x20\n        /* \"#utility.yul\":17737:17740   */\n      dup3\n        /* \"#utility.yul\":17733:17747   */\n      add\n        /* \"#utility.yul\":17718:17747   */\n      swap1\n      pop\n        /* \"#utility.yul\":17533:17753   */\n      swap3\n      swap2\n      pop\n      pop\n      jump\t// out\n        /* \"#utility.yul\":17759:17927   */\n    tag_213:\n        /* \"#utility.yul\":17862:17866   */\n      0x00\n        /* \"#utility.yul\":17885:17888   */\n      dup2\n        /* \"#utility.yul\":17877:17888   */\n      swap1\n      pop\n        /* \"#utility.yul\":17915:17919   */\n      0x20\n        /* \"#utility.yul\":17910:17913   */\n      dup3\n        /* \"#utility.yul\":17906:17920   */\n      add\n        /* \"#utility.yul\":17898:17920   */\n      swap1\n      pop\n        /* \"#utility.yul\":17759:17927   */\n      swap2\n      swap1\n      pop\n      jump\t// out\n        /* \"#utility.yul\":17933:18038   */\n    tag_214:\n        /* \"#utility.yul\":18008:18031   */\n      tag_423\n        /* \"#utility.yul\":18025:18030   */\n      dup2\n        /* \"#utility.yul\":18008:18031   */\n      tag_181\n      jump\t// in\n    tag_423:\n        /* \"#utility.yul\":18003:18006   */\n      dup3\n        /* \"#utility.yul\":17996:18032   */\n      mstore\n        /* \"#utility.yul\":17933:18038   */\n      pop\n      pop\n      jump\t// out\n        /* \"#utility.yul\":18044:18152   */\n    tag_215:\n        /* \"#utility.yul\":18121:18145   */\n      tag_425\n        /* \"#utility.yul\":18139:18144   */\n      dup2\n        /* \"#utility.yul\":18121:18145   */\n      tag_184\n      jump\t// in\n    tag_425:\n        /* \"#utility.yul\":18116:18119   */\n      dup3\n        /* \"#utility.yul\":18109:18146   */\n      mstore\n        /* \"#utility.yul\":18044:18152   */\n      pop\n      pop\n      jump\t// out\n        /* \"#utility.yul\":18158:18263   */\n    tag_216:\n        /* \"#utility.yul\":18233:18256   */\n      tag_427\n        /* \"#utility.yul\":18250:18255   */\n      dup2\n        /* \"#utility.yul\":18233:18256   */\n      tag_187\n      jump\t// in\n    tag_427:\n        /* \"#utility.yul\":18228:18231   */\n      dup3\n        /* \"#utility.yul\":18221:18257   */\n      mstore\n        /* \"#utility.yul\":18158:18263   */\n      pop\n      pop\n      jump\t// out\n        /* \"#utility.yul\":18269:18377   */\n    tag_217:\n        /* \"#utility.yul\":18346:18370   */\n      tag_429\n        /* \"#utility.yul\":18364:18369   */\n      dup2\n        /* \"#utility.yul\":18346:18370   */\n      tag_165\n      jump\t// in\n    tag_429:\n        /* \"#utility.yul\":18341:18344   */\n      dup3\n        /* \"#utility.yul\":18334:18371   */\n      mstore\n        /* \"#utility.yul\":18269:18377   */\n      pop\n      pop\n      jump\t// out\n        /* \"#utility.yul\":18383:18539   */\n    tag_218:\n        /* \"#utility.yul\":18463:18472   */\n      0x00\n        /* \"#utility.yul\":18496:18533   */\n      tag_431\n        /* \"#utility.yul\":18527:18532   */\n      dup3\n        /* \"#utility.yul\":18496:18533   */\n      tag_198\n      jump\t// in\n    tag_431:\n        /* \"#utility.yul\":18483:18533   */\n      swap1\n      pop\n        /* \"#utility.yul\":18383:18539   */\n      swap2\n      swap1\n      pop\n      jump\t// out\n        /* \"#utility.yul\":18545:18726   */\n    tag_219:\n        /* \"#utility.yul\":18652:18719   */\n      tag_433\n        /* \"#utility.yul\":18713:18718   */\n      dup2\n        /* \"#utility.yul\":18652:18719   */\n      tag_218\n      jump\t// in\n    tag_433:\n        /* \"#utility.yul\":18647:18650   */\n      dup3\n        /* \"#utility.yul\":18640:18720   */\n      mstore\n        /* \"#utility.yul\":18545:18726   */\n      pop\n      pop\n      jump\t// out\n        /* \"#utility.yul\":18732:18907   */\n    tag_220:\n        /* \"#utility.yul\":18836:18900   */\n      tag_435\n        /* \"#utility.yul\":18894:18899   */\n      dup2\n        /* \"#utility.yul\":18836:18900   */\n      tag_207\n      jump\t// in\n    tag_435:\n        /* \"#utility.yul\":18831:18834   */\n      dup3\n        /* \"#utility.yul\":18824:18901   */\n      mstore\n        /* \"#utility.yul\":18732:18907   */\n      pop\n      pop\n      jump\t// out\n        /* \"#utility.yul\":19009:20505   */\n    tag_221:\n        /* \"#utility.yul\":19168:19172   */\n      0xe0\n        /* \"#utility.yul\":19163:19166   */\n      dup3\n        /* \"#utility.yul\":19159:19173   */\n      add\n        /* \"#utility.yul\":19268:19272   */\n      0x00\n        /* \"#utility.yul\":19261:19266   */\n      dup3\n        /* \"#utility.yul\":19257:19273   */\n      add\n        /* \"#utility.yul\":19251:19274   */\n      mload\n        /* \"#utility.yul\":19287:19348   */\n      tag_437\n        /* \"#utility.yul\":19342:19346   */\n      0x00\n        /* \"#utility.yul\":19337:19340   */\n      dup6\n        /* \"#utility.yul\":19333:19347   */\n      add\n        /* \"#utility.yul\":19319:19331   */\n      dup3\n        /* \"#utility.yul\":19287:19348   */\n      tag_214\n      jump\t// in\n    tag_437:\n        /* \"#utility.yul\":19183:19358   */\n      pop\n        /* \"#utility.yul\":19447:19451   */\n      0x20\n        /* \"#utility.yul\":19440:19445   */\n      dup3\n        /* \"#utility.yul\":19436:19452   */\n      add\n        /* \"#utility.yul\":19430:19453   */\n      mload\n        /* \"#utility.yul\":19466:19529   */\n      tag_438\n        /* \"#utility.yul\":19523:19527   */\n      0x20\n        /* \"#utility.yul\":19518:19521   */\n      dup6\n        /* \"#utility.yul\":19514:19528   */\n      add\n        /* \"#utility.yul\":19500:19512   */\n      dup3\n        /* \"#utility.yul\":19466:19529   */\n      tag_215\n      jump\t// in\n    tag_438:\n        /* \"#utility.yul\":19368:19539   */\n      pop\n        /* \"#utility.yul\":19632:19636   */\n      0x40\n        /* \"#utility.yul\":19625:19630   */\n      dup3\n        /* \"#utility.yul\":19621:19637   */\n      add\n        /* \"#utility.yul\":19615:19638   */\n      mload\n        /* \"#utility.yul\":19651:19712   */\n      tag_439\n        /* \"#utility.yul\":19706:19710   */\n      0x40\n        /* \"#utility.yul\":19701:19704   */\n      dup6\n        /* \"#utility.yul\":19697:19711   */\n      add\n        /* \"#utility.yul\":19683:19695   */\n      dup3\n        /* \"#utility.yul\":19651:19712   */\n      tag_216\n      jump\t// in\n    tag_439:\n        /* \"#utility.yul\":19549:19722   */\n      pop\n        /* \"#utility.yul\":19805:19809   */\n      0x60\n        /* \"#utility.yul\":19798:19803   */\n      dup3\n        /* \"#utility.yul\":19794:19810   */\n      add\n        /* \"#utility.yul\":19788:19811   */\n      mload\n        /* \"#utility.yul\":19824:19887   */\n      tag_440\n        /* \"#utility.yul\":19881:19885   */\n      0x60\n        /* \"#utility.yul\":19876:19879   */\n      dup6\n        /* \"#utility.yul\":19872:19886   */\n      add\n        /* \"#utility.yul\":19858:19870   */\n      dup3\n        /* \"#utility.yul\":19824:19887   */\n      tag_217\n      jump\t// in\n    tag_440:\n        /* \"#utility.yul\":19732:19897   */\n      pop\n        /* \"#utility.yul\":19981:19985   */\n      0x80\n        /* \"#utility.yul\":19974:19979   */\n      dup3\n        /* \"#utility.yul\":19970:19986   */\n      add\n        /* \"#utility.yul\":19964:19987   */\n      mload\n        /* \"#utility.yul\":20000:20063   */\n      tag_441\n        /* \"#utility.yul\":20057:20061   */\n      0x80\n        /* \"#utility.yul\":20052:20055   */\n      dup6\n        /* \"#utility.yul\":20048:20062   */\n      add\n        /* \"#utility.yul\":20034:20046   */\n      dup3\n        /* \"#utility.yul\":20000:20063   */\n      tag_217\n      jump\t// in\n    tag_441:\n        /* \"#utility.yul\":19907:20073   */\n      pop\n        /* \"#utility.yul\":20167:20171   */\n      0xa0\n        /* \"#utility.yul\":20160:20165   */\n      dup3\n        /* \"#utility.yul\":20156:20172   */\n      add\n        /* \"#utility.yul\":20150:20173   */\n      mload\n        /* \"#utility.yul\":20186:20279   */\n      tag_442\n        /* \"#utility.yul\":20273:20277   */\n      0xa0\n        /* \"#utility.yul\":20268:20271   */\n      dup6\n        /* \"#utility.yul\":20264:20278   */\n      add\n        /* \"#utility.yul\":20250:20262   */\n      dup3\n        /* \"#utility.yul\":20186:20279   */\n      tag_219\n      jump\t// in\n    tag_442:\n        /* \"#utility.yul\":20083:20289   */\n      pop\n        /* \"#utility.yul\":20379:20383   */\n      0xc0\n        /* \"#utility.yul\":20372:20377   */\n      dup3\n        /* \"#utility.yul\":20368:20384   */\n      add\n        /* \"#utility.yul\":20362:20385   */\n      mload\n        /* \"#utility.yul\":20398:20488   */\n      tag_443\n        /* \"#utility.yul\":20482:20486   */\n      0xc0\n        /* \"#utility.yul\":20477:20480   */\n      dup6\n        /* \"#utility.yul\":20473:20487   */\n      add\n        /* \"#utility.yul\":20459:20471   */\n      dup3\n        /* \"#utility.yul\":20398:20488   */\n      tag_220\n      jump\t// in\n    tag_443:\n        /* \"#utility.yul\":20299:20498   */\n      pop\n        /* \"#utility.yul\":19137:20505   */\n      pop\n        /* \"#utility.yul\":19009:20505   */\n      pop\n      pop\n      jump\t// out\n        /* \"#utility.yul\":20511:20834   */\n    tag_222:\n        /* \"#utility.yul\":20652:20662   */\n      0x00\n        /* \"#utility.yul\":20673:20791   */\n      tag_445\n        /* \"#utility.yul\":20787:20790   */\n      dup4\n        /* \"#utility.yul\":20779:20785   */\n      dup4\n        /* \"#utility.yul\":20673:20791   */\n      tag_221\n      jump\t// in\n    tag_445:\n        /* \"#utility.yul\":20823:20827   */\n      0xe0\n        /* \"#utility.yul\":20818:20821   */\n      dup4\n        /* \"#utility.yul\":20814:20828   */\n      add\n        /* \"#utility.yul\":20800:20828   */\n      swap1\n      pop\n        /* \"#utility.yul\":20511:20834   */\n      swap3\n      swap2\n      pop\n      pop\n      jump\t// out\n        /* \"#utility.yul\":20840:20989   */\n    tag_223:\n        /* \"#utility.yul\":20946:20950   */\n      0x00\n        /* \"#utility.yul\":20978:20982   */\n      0x20\n        /* \"#utility.yul\":20973:20976   */\n      dup3\n        /* \"#utility.yul\":20969:20983   */\n      add\n        /* \"#utility.yul\":20961:20983   */\n      swap1\n      pop\n        /* \"#utility.yul\":20840:20989   */\n      swap2\n      swap1\n      pop\n      jump\t// out\n        /* \"#utility.yul\":21095:22115   */\n    tag_224:\n        /* \"#utility.yul\":21286:21289   */\n      0x00\n        /* \"#utility.yul\":21315:21405   */\n      tag_448\n        /* \"#utility.yul\":21399:21404   */\n      dup3\n        /* \"#utility.yul\":21315:21405   */\n      tag_211\n      jump\t// in\n    tag_448:\n        /* \"#utility.yul\":21421:21543   */\n      tag_449\n        /* \"#utility.yul\":21536:21542   */\n      dup2\n        /* \"#utility.yul\":21531:21534   */\n      dup6\n        /* \"#utility.yul\":21421:21543   */\n      tag_212\n      jump\t// in\n    tag_449:\n        /* \"#utility.yul\":21414:21543   */\n      swap4\n      pop\n        /* \"#utility.yul\":21567:21659   */\n      tag_450\n        /* \"#utility.yul\":21653:21658   */\n      dup4\n        /* \"#utility.yul\":21567:21659   */\n      tag_213\n      jump\t// in\n    tag_450:\n        /* \"#utility.yul\":21682:21689   */\n      dup1\n        /* \"#utility.yul\":21713:21714   */\n      0x00\n        /* \"#utility.yul\":21698:22090   */\n    tag_451:\n        /* \"#utility.yul\":21723:21729   */\n      dup4\n        /* \"#utility.yul\":21720:21721   */\n      dup2\n        /* \"#utility.yul\":21717:21730   */\n      lt\n        /* \"#utility.yul\":21698:22090   */\n      iszero\n      tag_453\n      jumpi\n        /* \"#utility.yul\":21799:21805   */\n      dup2\n        /* \"#utility.yul\":21793:21806   */\n      mload\n        /* \"#utility.yul\":21826:21961   */\n      tag_454\n        /* \"#utility.yul\":21957:21960   */\n      dup9\n        /* \"#utility.yul\":21942:21955   */\n      dup3\n        /* \"#utility.yul\":21826:21961   */\n      tag_222\n      jump\t// in\n    tag_454:\n        /* \"#utility.yul\":21819:21961   */\n      swap8\n      pop\n        /* \"#utility.yul\":21984:22080   */\n      tag_455\n        /* \"#utility.yul\":22073:22079   */\n      dup4\n        /* \"#utility.yul\":21984:22080   */\n      tag_223\n      jump\t// in\n    tag_455:\n        /* \"#utility.yul\":21974:22080   */\n      swap3\n      pop\n        /* \"#utility.yul\":21758:22090   */\n      pop\n        /* \"#utility.yul\":21745:21746   */\n      0x01\n        /* \"#utility.yul\":21742:21743   */\n      dup2\n        /* \"#utility.yul\":21738:21747   */\n      add\n        /* \"#utility.yul\":21733:21747   */\n      swap1\n      pop\n        /* \"#utility.yul\":21698:22090   */\n      jump(tag_451)\n    tag_453:\n        /* \"#utility.yul\":21702:21716   */\n      pop\n        /* \"#utility.yul\":22106:22109   */\n      dup6\n        /* \"#utility.yul\":22099:22109   */\n      swap4\n      pop\n        /* \"#utility.yul\":21291:22115   */\n      pop\n      pop\n      pop\n        /* \"#utility.yul\":21095:22115   */\n      swap3\n      swap2\n      pop\n      pop\n      jump\t// out\n        /* \"#utility.yul\":22121:22638   */\n    tag_95:\n        /* \"#utility.yul\":22336:22340   */\n      0x00\n        /* \"#utility.yul\":22374:22376   */\n      0x20\n        /* \"#utility.yul\":22363:22372   */\n      dup3\n        /* \"#utility.yul\":22359:22377   */\n      add\n        /* \"#utility.yul\":22351:22377   */\n      swap1\n      pop\n        /* \"#utility.yul\":22423:22432   */\n      dup2\n        /* \"#utility.yul\":22417:22421   */\n      dup2\n        /* \"#utility.yul\":22413:22433   */\n      sub\n        /* \"#utility.yul\":22409:22410   */\n      0x00\n        /* \"#utility.yul\":22398:22407   */\n      dup4\n        /* \"#utility.yul\":22394:22411   */\n      add\n        /* \"#utility.yul\":22387:22434   */\n      mstore\n        /* \"#utility.yul\":22451:22631   */\n      tag_457\n        /* \"#utility.yul\":22626:22630   */\n      dup2\n        /* \"#utility.yul\":22617:22623   */\n      dup5\n        /* \"#utility.yul\":22451:22631   */\n      tag_224\n      jump\t// in\n    tag_457:\n        /* \"#utility.yul\":22443:22631   */\n      swap1\n      pop\n        /* \"#utility.yul\":22121:22638   */\n      swap3\n      swap2\n      pop\n      pop\n      jump\t// out\n        /* \"#utility.yul\":22644:22759   */\n    tag_225:\n        /* \"#utility.yul\":22729:22752   */\n      tag_459\n        /* \"#utility.yul\":22746:22751   */\n      dup2\n        /* \"#utility.yul\":22729:22752   */\n      tag_187\n      jump\t// in\n    tag_459:\n        /* \"#utility.yul\":22724:22727   */\n      dup3\n        /* \"#utility.yul\":22717:22753   */\n      mstore\n        /* \"#utility.yul\":22644:22759   */\n      pop\n      pop\n      jump\t// out\n        /* \"#utility.yul\":22765:23203   */\n    tag_114:\n        /* \"#utility.yul\":22912:22916   */\n      0x00\n        /* \"#utility.yul\":22950:22952   */\n      0x60\n        /* \"#utility.yul\":22939:22948   */\n      dup3\n        /* \"#utility.yul\":22935:22953   */\n      add\n        /* \"#utility.yul\":22927:22953   */\n      swap1\n      pop\n        /* \"#utility.yul\":22963:23034   */\n      tag_461\n        /* \"#utility.yul\":23031:23032   */\n      0x00\n        /* \"#utility.yul\":23020:23029   */\n      dup4\n        /* \"#utility.yul\":23016:23033   */\n      add\n        /* \"#utility.yul\":23007:23013   */\n      dup7\n        /* \"#utility.yul\":22963:23034   */\n      tag_168\n      jump\t// in\n    tag_461:\n        /* \"#utility.yul\":23044:23116   */\n      tag_462\n        /* \"#utility.yul\":23112:23114   */\n      0x20\n        /* \"#utility.yul\":23101:23110   */\n      dup4\n        /* \"#utility.yul\":23097:23115   */\n      add\n        /* \"#utility.yul\":23088:23094   */\n      dup6\n        /* \"#utility.yul\":23044:23116   */\n      tag_168\n      jump\t// in\n    tag_462:\n        /* \"#utility.yul\":23126:23196   */\n      tag_463\n        /* \"#utility.yul\":23192:23194   */\n      0x40\n        /* \"#utility.yul\":23181:23190   */\n      dup4\n        /* \"#utility.yul\":23177:23195   */\n      add\n        /* \"#utility.yul\":23168:23174   */\n      dup5\n        /* \"#utility.yul\":23126:23196   */\n      tag_225\n      jump\t// in\n    tag_463:\n        /* \"#utility.yul\":22765:23203   */\n      swap5\n      swap4\n      pop\n      pop\n      pop\n      pop\n      jump\t// out\n        /* \"#utility.yul\":23209:23400   */\n    tag_226:\n        /* \"#utility.yul\":23326:23393   */\n      tag_465\n        /* \"#utility.yul\":23387:23392   */\n      dup2\n        /* \"#utility.yul\":23326:23393   */\n      tag_218\n      jump\t// in\n    tag_465:\n        /* \"#utility.yul\":23321:23324   */\n      dup3\n        /* \"#utility.yul\":23314:23394   */\n      mstore\n        /* \"#utility.yul\":23209:23400   */\n      pop\n      pop\n      jump\t// out\n        /* \"#utility.yul\":23406:23798   */\n    tag_124:\n        /* \"#utility.yul\":23557:23561   */\n      0x00\n        /* \"#utility.yul\":23595:23597   */\n      0x40\n        /* \"#utility.yul\":23584:23593   */\n      dup3\n        /* \"#utility.yul\":23580:23598   */\n      add\n        /* \"#utility.yul\":23572:23598   */\n      swap1\n      pop\n        /* \"#utility.yul\":23608:23679   */\n      tag_467\n        /* \"#utility.yul\":23676:23677   */\n      0x00\n        /* \"#utility.yul\":23665:23674   */\n      dup4\n        /* \"#utility.yul\":23661:23678   */\n      add\n        /* \"#utility.yul\":23652:23658   */\n      dup6\n        /* \"#utility.yul\":23608:23679   */\n      tag_168\n      jump\t// in\n    tag_467:\n        /* \"#utility.yul\":23689:23791   */\n      tag_468\n        /* \"#utility.yul\":23787:23789   */\n      0x20\n        /* \"#utility.yul\":23776:23785   */\n      dup4\n        /* \"#utility.yul\":23772:23790   */\n      add\n        /* \"#utility.yul\":23763:23769   */\n      dup5\n        /* \"#utility.yul\":23689:23791   */\n      tag_226\n      jump\t// in\n    tag_468:\n        /* \"#utility.yul\":23406:23798   */\n      swap4\n      swap3\n      pop\n      pop\n      pop\n      jump\t// out\n        /* \"#utility.yul\":23804:24029   */\n    tag_227:\n        /* \"#utility.yul\":23944:23978   */\n      0x4f776e61626c653a206e6577206f776e657220697320746865207a65726f2061\n        /* \"#utility.yul\":23940:23941   */\n      0x00\n        /* \"#utility.yul\":23932:23938   */\n      dup3\n        /* \"#utility.yul\":23928:23942   */\n      add\n        /* \"#utility.yul\":23921:23979   */\n      mstore\n        /* \"#utility.yul\":24013:24021   */\n      0x6464726573730000000000000000000000000000000000000000000000000000\n        /* \"#utility.yul\":24008:24010   */\n      0x20\n        /* \"#utility.yul\":24000:24006   */\n      dup3\n        /* \"#utility.yul\":23996:24011   */\n      add\n        /* \"#utility.yul\":23989:24022   */\n      mstore\n        /* \"#utility.yul\":23804:24029   */\n      pop\n      jump\t// out\n        /* \"#utility.yul\":24035:24401   */\n    tag_228:\n        /* \"#utility.yul\":24177:24180   */\n      0x00\n        /* \"#utility.yul\":24198:24265   */\n      tag_471\n        /* \"#utility.yul\":24262:24264   */\n      0x26\n        /* \"#utility.yul\":24257:24260   */\n      dup4\n        /* \"#utility.yul\":24198:24265   */\n      tag_204\n      jump\t// in\n    tag_471:\n        /* \"#utility.yul\":24191:24265   */\n      swap2\n      pop\n        /* \"#utility.yul\":24274:24367   */\n      tag_472\n        /* \"#utility.yul\":24363:24366   */\n      dup3\n        /* \"#utility.yul\":24274:24367   */\n      tag_227\n      jump\t// in\n    tag_472:\n        /* \"#utility.yul\":24392:24394   */\n      0x40\n        /* \"#utility.yul\":24387:24390   */\n      dup3\n        /* \"#utility.yul\":24383:24395   */\n      add\n        /* \"#utility.yul\":24376:24395   */\n      swap1\n      pop\n        /* \"#utility.yul\":24035:24401   */\n      swap2\n      swap1\n      pop\n      jump\t// out\n        /* \"#utility.yul\":24407:24826   */\n    tag_135:\n        /* \"#utility.yul\":24573:24577   */\n      0x00\n        /* \"#utility.yul\":24611:24613   */\n      0x20\n        /* \"#utility.yul\":24600:24609   */\n      dup3\n        /* \"#utility.yul\":24596:24614   */\n      add\n        /* \"#utility.yul\":24588:24614   */\n      swap1\n      pop\n        /* \"#utility.yul\":24660:24669   */\n      dup2\n        /* \"#utility.yul\":24654:24658   */\n      dup2\n        /* \"#utility.yul\":24650:24670   */\n      sub\n        /* \"#utility.yul\":24646:24647   */\n      0x00\n        /* \"#utility.yul\":24635:24644   */\n      dup4\n        /* \"#utility.yul\":24631:24648   */\n      add\n        /* \"#utility.yul\":24624:24671   */\n      mstore\n        /* \"#utility.yul\":24688:24819   */\n      tag_474\n        /* \"#utility.yul\":24814:24818   */\n      dup2\n        /* \"#utility.yul\":24688:24819   */\n      tag_228\n      jump\t// in\n    tag_474:\n        /* \"#utility.yul\":24680:24819   */\n      swap1\n      pop\n        /* \"#utility.yul\":24407:24826   */\n      swap2\n      swap1\n      pop\n      jump\t// out\n        /* \"#utility.yul\":24832:25164   */\n    tag_142:\n        /* \"#utility.yul\":24953:24957   */\n      0x00\n        /* \"#utility.yul\":24991:24993   */\n      0x40\n        /* \"#utility.yul\":24980:24989   */\n      dup3\n        /* \"#utility.yul\":24976:24994   */\n      add\n        /* \"#utility.yul\":24968:24994   */\n      swap1\n      pop\n        /* \"#utility.yul\":25004:25075   */\n      tag_476\n        /* \"#utility.yul\":25072:25073   */\n      0x00\n        /* \"#utility.yul\":25061:25070   */\n      dup4\n        /* \"#utility.yul\":25057:25074   */\n      add\n        /* \"#utility.yul\":25048:25054   */\n      dup6\n        /* \"#utility.yul\":25004:25075   */\n      tag_168\n      jump\t// in\n    tag_476:\n        /* \"#utility.yul\":25085:25157   */\n      tag_477\n        /* \"#utility.yul\":25153:25155   */\n      0x20\n        /* \"#utility.yul\":25142:25151   */\n      dup4\n        /* \"#utility.yul\":25138:25156   */\n      add\n        /* \"#utility.yul\":25129:25135   */\n      dup5\n        /* \"#utility.yul\":25085:25157   */\n      tag_168\n      jump\t// in\n    tag_477:\n        /* \"#utility.yul\":24832:25164   */\n      swap4\n      swap3\n      pop\n      pop\n      pop\n      jump\t// out\n        /* \"#utility.yul\":25170:25354   */\n    tag_229:\n        /* \"#utility.yul\":25269:25280   */\n      0x00\n        /* \"#utility.yul\":25303:25309   */\n      dup3\n        /* \"#utility.yul\":25298:25301   */\n      dup3\n        /* \"#utility.yul\":25291:25310   */\n      mstore\n        /* \"#utility.yul\":25343:25347   */\n      0x20\n        /* \"#utility.yul\":25338:25341   */\n      dup3\n        /* \"#utility.yul\":25334:25348   */\n      add\n        /* \"#utility.yul\":25319:25348   */\n      swap1\n      pop\n        /* \"#utility.yul\":25170:25354   */\n      swap3\n      swap2\n      pop\n      pop\n      jump\t// out\n        /* \"#utility.yul\":25360:25462   */\n    tag_230:\n        /* \"#utility.yul\":25429:25433   */\n      0x00\n        /* \"#utility.yul\":25452:25455   */\n      dup2\n        /* \"#utility.yul\":25444:25455   */\n      swap1\n      pop\n        /* \"#utility.yul\":25360:25462   */\n      swap2\n      swap1\n      pop\n      jump\t// out\n        /* \"#utility.yul\":25468:25647   */\n    tag_231:\n        /* \"#utility.yul\":25537:25547   */\n      0x00\n        /* \"#utility.yul\":25558:25604   */\n      tag_481\n        /* \"#utility.yul\":25600:25603   */\n      dup4\n        /* \"#utility.yul\":25592:25598   */\n      dup4\n        /* \"#utility.yul\":25558:25604   */\n      tag_217\n      jump\t// in\n    tag_481:\n        /* \"#utility.yul\":25636:25640   */\n      0x20\n        /* \"#utility.yul\":25631:25634   */\n      dup4\n        /* \"#utility.yul\":25627:25641   */\n      add\n        /* \"#utility.yul\":25613:25641   */\n      swap1\n      pop\n        /* \"#utility.yul\":25468:25647   */\n      swap3\n      swap2\n      pop\n      pop\n      jump\t// out\n        /* \"#utility.yul\":25653:25775   */\n    tag_232:\n        /* \"#utility.yul\":25705:25710   */\n      0x00\n        /* \"#utility.yul\":25730:25769   */\n      tag_483\n        /* \"#utility.yul\":25765:25767   */\n      0x20\n        /* \"#utility.yul\":25760:25763   */\n      dup5\n        /* \"#utility.yul\":25756:25768   */\n      add\n        /* \"#utility.yul\":25751:25754   */\n      dup5\n        /* \"#utility.yul\":25730:25769   */\n      tag_167\n      jump\t// in\n    tag_483:\n        /* \"#utility.yul\":25721:25769   */\n      swap1\n      pop\n        /* \"#utility.yul\":25653:25775   */\n      swap3\n      swap2\n      pop\n      pop\n      jump\t// out\n        /* \"#utility.yul\":25781:25896   */\n    tag_233:\n        /* \"#utility.yul\":25853:25857   */\n      0x00\n        /* \"#utility.yul\":25885:25889   */\n      0x20\n        /* \"#utility.yul\":25880:25883   */\n      dup3\n        /* \"#utility.yul\":25876:25890   */\n      add\n        /* \"#utility.yul\":25868:25890   */\n      swap1\n      pop\n        /* \"#utility.yul\":25781:25896   */\n      swap2\n      swap1\n      pop\n      jump\t// out\n        /* \"#utility.yul\":25932:26631   */\n    tag_234:\n        /* \"#utility.yul\":26061:26064   */\n      0x00\n        /* \"#utility.yul\":26084:26170   */\n      tag_486\n        /* \"#utility.yul\":26163:26169   */\n      dup4\n        /* \"#utility.yul\":26158:26161   */\n      dup6\n        /* \"#utility.yul\":26084:26170   */\n      tag_229\n      jump\t// in\n    tag_486:\n        /* \"#utility.yul\":26077:26170   */\n      swap4\n      pop\n        /* \"#utility.yul\":26194:26252   */\n      tag_487\n        /* \"#utility.yul\":26246:26251   */\n      dup3\n        /* \"#utility.yul\":26194:26252   */\n      tag_230\n      jump\t// in\n    tag_487:\n        /* \"#utility.yul\":26275:26282   */\n      dup1\n        /* \"#utility.yul\":26306:26307   */\n      0x00\n        /* \"#utility.yul\":26291:26606   */\n    tag_488:\n        /* \"#utility.yul\":26316:26322   */\n      dup6\n        /* \"#utility.yul\":26313:26314   */\n      dup2\n        /* \"#utility.yul\":26310:26323   */\n      lt\n        /* \"#utility.yul\":26291:26606   */\n      iszero\n      tag_490\n      jumpi\n        /* \"#utility.yul\":26386:26428   */\n      tag_491\n        /* \"#utility.yul\":26421:26427   */\n      dup3\n        /* \"#utility.yul\":26412:26419   */\n      dup5\n        /* \"#utility.yul\":26386:26428   */\n      tag_232\n      jump\t// in\n    tag_491:\n        /* \"#utility.yul\":26448:26511   */\n      tag_492\n        /* \"#utility.yul\":26507:26510   */\n      dup9\n        /* \"#utility.yul\":26492:26505   */\n      dup3\n        /* \"#utility.yul\":26448:26511   */\n      tag_231\n      jump\t// in\n    tag_492:\n        /* \"#utility.yul\":26441:26511   */\n      swap8\n      pop\n        /* \"#utility.yul\":26534:26596   */\n      tag_493\n        /* \"#utility.yul\":26589:26595   */\n      dup4\n        /* \"#utility.yul\":26534:26596   */\n      tag_233\n      jump\t// in\n    tag_493:\n        /* \"#utility.yul\":26524:26596   */\n      swap3\n      pop\n        /* \"#utility.yul\":26351:26606   */\n      pop\n        /* \"#utility.yul\":26338:26339   */\n      0x01\n        /* \"#utility.yul\":26335:26336   */\n      dup2\n        /* \"#utility.yul\":26331:26340   */\n      add\n        /* \"#utility.yul\":26326:26340   */\n      swap1\n      pop\n        /* \"#utility.yul\":26291:26606   */\n      jump(tag_488)\n    tag_490:\n        /* \"#utility.yul\":26295:26309   */\n      pop\n        /* \"#utility.yul\":26622:26625   */\n      dup6\n        /* \"#utility.yul\":26615:26625   */\n      swap3\n      pop\n        /* \"#utility.yul\":26066:26631   */\n      pop\n      pop\n        /* \"#utility.yul\":25932:26631   */\n      swap4\n      swap3\n      pop\n      pop\n      pop\n      jump\t// out\n        /* \"#utility.yul\":26637:26820   */\n    tag_235:\n        /* \"#utility.yul\":26735:26746   */\n      0x00\n        /* \"#utility.yul\":26769:26775   */\n      dup3\n        /* \"#utility.yul\":26764:26767   */\n      dup3\n        /* \"#utility.yul\":26757:26776   */\n      mstore\n        /* \"#utility.yul\":26809:26813   */\n      0x20\n        /* \"#utility.yul\":26804:26807   */\n      dup3\n        /* \"#utility.yul\":26800:26814   */\n      add\n        /* \"#utility.yul\":26785:26814   */\n      swap1\n      pop\n        /* \"#utility.yul\":26637:26820   */\n      swap3\n      swap2\n      pop\n      pop\n      jump\t// out\n        /* \"#utility.yul\":26826:26927   */\n    tag_236:\n        /* \"#utility.yul\":26894:26898   */\n      0x00\n        /* \"#utility.yul\":26917:26920   */\n      dup2\n        /* \"#utility.yul\":26909:26920   */\n      swap1\n      pop\n        /* \"#utility.yul\":26826:26927   */\n      swap2\n      swap1\n      pop\n      jump\t// out\n        /* \"#utility.yul\":26933:27108   */\n    tag_237:\n        /* \"#utility.yul\":27000:27010   */\n      0x00\n        /* \"#utility.yul\":27021:27065   */\n      tag_497\n        /* \"#utility.yul\":27061:27064   */\n      dup4\n        /* \"#utility.yul\":27053:27059   */\n      dup4\n        /* \"#utility.yul\":27021:27065   */\n      tag_214\n      jump\t// in\n    tag_497:\n        /* \"#utility.yul\":27097:27101   */\n      0x20\n        /* \"#utility.yul\":27092:27095   */\n      dup4\n        /* \"#utility.yul\":27088:27102   */\n      add\n        /* \"#utility.yul\":27074:27102   */\n      swap1\n      pop\n        /* \"#utility.yul\":26933:27108   */\n      swap3\n      swap2\n      pop\n      pop\n      jump\t// out\n        /* \"#utility.yul\":27114:27234   */\n    tag_238:\n        /* \"#utility.yul\":27165:27170   */\n      0x00\n        /* \"#utility.yul\":27190:27228   */\n      tag_499\n        /* \"#utility.yul\":27224:27226   */\n      0x20\n        /* \"#utility.yul\":27219:27222   */\n      dup5\n        /* \"#utility.yul\":27215:27227   */\n      add\n        /* \"#utility.yul\":27210:27213   */\n      dup5\n        /* \"#utility.yul\":27190:27228   */\n      tag_183\n      jump\t// in\n    tag_499:\n        /* \"#utility.yul\":27181:27228   */\n      swap1\n      pop\n        /* \"#utility.yul\":27114:27234   */\n      swap3\n      swap2\n      pop\n      pop\n      jump\t// out\n        /* \"#utility.yul\":27240:27354   */\n    tag_239:\n        /* \"#utility.yul\":27311:27315   */\n      0x00\n        /* \"#utility.yul\":27343:27347   */\n      0x20\n        /* \"#utility.yul\":27338:27341   */\n      dup3\n        /* \"#utility.yul\":27334:27348   */\n      add\n        /* \"#utility.yul\":27326:27348   */\n      swap1\n      pop\n        /* \"#utility.yul\":27240:27354   */\n      swap2\n      swap1\n      pop\n      jump\t// out\n        /* \"#utility.yul\":27388:28079   */\n    tag_240:\n        /* \"#utility.yul\":27515:27518   */\n      0x00\n        /* \"#utility.yul\":27538:27623   */\n      tag_502\n        /* \"#utility.yul\":27616:27622   */\n      dup4\n        /* \"#utility.yul\":27611:27614   */\n      dup6\n        /* \"#utility.yul\":27538:27623   */\n      tag_235\n      jump\t// in\n    tag_502:\n        /* \"#utility.yul\":27531:27623   */\n      swap4\n      pop\n        /* \"#utility.yul\":27647:27704   */\n      tag_503\n        /* \"#utility.yul\":27698:27703   */\n      dup3\n        /* \"#utility.yul\":27647:27704   */\n      tag_236\n      jump\t// in\n    tag_503:\n        /* \"#utility.yul\":27727:27734   */\n      dup1\n        /* \"#utility.yul\":27758:27759   */\n      0x00\n        /* \"#utility.yul\":27743:28054   */\n    tag_504:\n        /* \"#utility.yul\":27768:27774   */\n      dup6\n        /* \"#utility.yul\":27765:27766   */\n      dup2\n        /* \"#utility.yul\":27762:27775   */\n      lt\n        /* \"#utility.yul\":27743:28054   */\n      iszero\n      tag_506\n      jumpi\n        /* \"#utility.yul\":27838:27879   */\n      tag_507\n        /* \"#utility.yul\":27872:27878   */\n      dup3\n        /* \"#utility.yul\":27863:27870   */\n      dup5\n        /* \"#utility.yul\":27838:27879   */\n      tag_238\n      jump\t// in\n    tag_507:\n        /* \"#utility.yul\":27899:27960   */\n      tag_508\n        /* \"#utility.yul\":27956:27959   */\n      dup9\n        /* \"#utility.yul\":27941:27954   */\n      dup3\n        /* \"#utility.yul\":27899:27960   */\n      tag_237\n      jump\t// in\n    tag_508:\n        /* \"#utility.yul\":27892:27960   */\n      swap8\n      pop\n        /* \"#utility.yul\":27983:28044   */\n      tag_509\n        /* \"#utility.yul\":28037:28043   */\n      dup4\n        /* \"#utility.yul\":27983:28044   */\n      tag_239\n      jump\t// in\n    tag_509:\n        /* \"#utility.yul\":27973:28044   */\n      swap3\n      pop\n        /* \"#utility.yul\":27803:28054   */\n      pop\n        /* \"#utility.yul\":27790:27791   */\n      0x01\n        /* \"#utility.yul\":27787:27788   */\n      dup2\n        /* \"#utility.yul\":27783:27792   */\n      add\n        /* \"#utility.yul\":27778:27792   */\n      swap1\n      pop\n        /* \"#utility.yul\":27743:28054   */\n      jump(tag_504)\n    tag_506:\n        /* \"#utility.yul\":27747:27761   */\n      pop\n        /* \"#utility.yul\":28070:28073   */\n      dup6\n        /* \"#utility.yul\":28063:28073   */\n      swap3\n      pop\n        /* \"#utility.yul\":27520:28079   */\n      pop\n      pop\n        /* \"#utility.yul\":27388:28079   */\n      swap4\n      swap3\n      pop\n      pop\n      pop\n      jump\t// out\n        /* \"#utility.yul\":28085:28865   */\n    tag_156:\n        /* \"#utility.yul\":28352:28356   */\n      0x00\n        /* \"#utility.yul\":28390:28392   */\n      0x60\n        /* \"#utility.yul\":28379:28388   */\n      dup3\n        /* \"#utility.yul\":28375:28393   */\n      add\n        /* \"#utility.yul\":28367:28393   */\n      swap1\n      pop\n        /* \"#utility.yul\":28403:28474   */\n      tag_511\n        /* \"#utility.yul\":28471:28472   */\n      0x00\n        /* \"#utility.yul\":28460:28469   */\n      dup4\n        /* \"#utility.yul\":28456:28473   */\n      add\n        /* \"#utility.yul\":28447:28453   */\n      dup9\n        /* \"#utility.yul\":28403:28474   */\n      tag_168\n      jump\t// in\n    tag_511:\n        /* \"#utility.yul\":28521:28530   */\n      dup2\n        /* \"#utility.yul\":28515:28519   */\n      dup2\n        /* \"#utility.yul\":28511:28531   */\n      sub\n        /* \"#utility.yul\":28506:28508   */\n      0x20\n        /* \"#utility.yul\":28495:28504   */\n      dup4\n        /* \"#utility.yul\":28491:28509   */\n      add\n        /* \"#utility.yul\":28484:28532   */\n      mstore\n        /* \"#utility.yul\":28549:28667   */\n      tag_512\n        /* \"#utility.yul\":28662:28666   */\n      dup2\n        /* \"#utility.yul\":28653:28659   */\n      dup7\n        /* \"#utility.yul\":28645:28651   */\n      dup9\n        /* \"#utility.yul\":28549:28667   */\n      tag_234\n      jump\t// in\n    tag_512:\n        /* \"#utility.yul\":28541:28667   */\n      swap1\n      pop\n        /* \"#utility.yul\":28714:28723   */\n      dup2\n        /* \"#utility.yul\":28708:28712   */\n      dup2\n        /* \"#utility.yul\":28704:28724   */\n      sub\n        /* \"#utility.yul\":28699:28701   */\n      0x40\n        /* \"#utility.yul\":28688:28697   */\n      dup4\n        /* \"#utility.yul\":28684:28702   */\n      add\n        /* \"#utility.yul\":28677:28725   */\n      mstore\n        /* \"#utility.yul\":28742:28858   */\n      tag_513\n        /* \"#utility.yul\":28853:28857   */\n      dup2\n        /* \"#utility.yul\":28844:28850   */\n      dup5\n        /* \"#utility.yul\":28836:28842   */\n      dup7\n        /* \"#utility.yul\":28742:28858   */\n      tag_240\n      jump\t// in\n    tag_513:\n        /* \"#utility.yul\":28734:28858   */\n      swap1\n      pop\n        /* \"#utility.yul\":28085:28865   */\n      swap7\n      swap6\n      pop\n      pop\n      pop\n      pop\n      pop\n      pop\n      jump\t// out\n\n    auxdata: 0xa264697066735822122092072ccaf4bca59cd7a44db1017084ac3946eff9ee23387bab08038344dab6b264736f6c634300081a0033\n}\n",
				"bytecode": {
					"linkReferences": {},
					"object": "608060405234801561000f575f80fd5b5060405161227a38038061227a83398181016040528101906100319190610319565b5f6100406100f160201b60201c565b9050805f806101000a81548173ffffffffffffffffffffffffffffffffffffffff021916908373ffffffffffffffffffffffffffffffffffffffff1602179055508073ffffffffffffffffffffffffffffffffffffffff165f73ffffffffffffffffffffffffffffffffffffffff167f8be0079c531659141344cd1fd0a4f28419497f9722a3daafe3b4186f6b6457e060405160405180910390a3506100eb816100f860201b60201c565b5061044a565b5f33905090565b6101066100f160201b60201c565b73ffffffffffffffffffffffffffffffffffffffff165f8054906101000a900473ffffffffffffffffffffffffffffffffffffffff1673ffffffffffffffffffffffffffffffffffffffff1614610192576040517f08c379a00000000000000000000000000000000000000000000000000000000081526004016101899061039e565b60405180910390fd5b5f73ffffffffffffffffffffffffffffffffffffffff168173ffffffffffffffffffffffffffffffffffffffff1603610200576040517f08c379a00000000000000000000000000000000000000000000000000000000081526004016101f79061042c565b60405180910390fd5b8073ffffffffffffffffffffffffffffffffffffffff165f8054906101000a900473ffffffffffffffffffffffffffffffffffffffff1673ffffffffffffffffffffffffffffffffffffffff167f8be0079c531659141344cd1fd0a4f28419497f9722a3daafe3b4186f6b6457e060405160405180910390a3805f806101000a81548173ffffffffffffffffffffffffffffffffffffffff021916908373ffffffffffffffffffffffffffffffffffffffff16021790555050565b5f80fd5b5f73ffffffffffffffffffffffffffffffffffffffff82169050919050565b5f6102e8826102bf565b9050919050565b6102f8816102de565b8114610302575f80fd5b50565b5f81519050610313816102ef565b92915050565b5f6020828403121561032e5761032d6102bb565b5b5f61033b84828501610305565b91505092915050565b5f82825260208201905092915050565b7f4f776e61626c653a2063616c6c6572206973206e6f7420746865206f776e65725f82015250565b5f610388602083610344565b915061039382610354565b602082019050919050565b5f6020820190508181035f8301526103b58161037c565b9050919050565b7f4f776e61626c653a206e6577206f776e657220697320746865207a65726f20615f8201527f6464726573730000000000000000000000000000000000000000000000000000602082015250565b5f610416602683610344565b9150610421826103bc565b604082019050919050565b5f6020820190508181035f8301526104438161040a565b9050919050565b611e23806104575f395ff3fe608060405234801561000f575f80fd5b50600436106100cd575f3560e01c8063bee36bb31161008a578063e15ac62311610064578063e15ac623146101d3578063f2fde38b146101ef578063f5cf673b1461020b578063f996868b14610227576100cd565b8063bee36bb31461017d578063c5a7b53814610199578063de262738146101b5576100cd565b8063529b1e87146100d15780635453ba1014610101578063715018a61461011d5780638da5cb5b14610127578063955c2ad714610145578063a286c6b414610161575b5f80fd5b6100eb60048036038101906100e6919061118c565b610243565b6040516100f891906111c6565b60405180910390f35b61011b6004803603810190610116919061121a565b6102a8565b005b610125610401565b005b61012f61054f565b60405161013c91906111c6565b60405180910390f35b61015f600480360381019061015a9190611544565b610576565b005b61017b6004803603810190610176919061158b565b610701565b005b6101976004803603810190610192919061118c565b6108e6565b005b6101b360048036038101906101ae91906115c9565b6109bd565b005b6101bd610b19565b6040516101ca9190611674565b60405180910390f35b6101ed60048036038101906101e8919061168d565b610b41565b005b6102096004803603810190610204919061118c565b610c9a565b005b6102256004803603810190610220919061158b565b610e57565b005b610241600480360381019061023c9190611779565b610f78565b005b5f60015f8373ffffffffffffffffffffffffffffffffffffffff1673ffffffffffffffffffffffffffffffffffffffff1681526020019081526020015f205f9054906101000a900473ffffffffffffffffffffffffffffffffffffffff169050919050565b8160015f8273ffffffffffffffffffffffffffffffffffffffff1673ffffffffffffffffffffffffffffffffffffffff1681526020019081526020015f205f9054906101000a900473ffffffffffffffffffffffffffffffffffffffff1673ffffffffffffffffffffffffffffffffffffffff163373ffffffffffffffffffffffffffffffffffffffff1614610373576040517f08c379a000000000000000000000000000000000000000000000000000000000815260040161036a90611864565b60405180910390fd5b60025f9054906101000a900473ffffffffffffffffffffffffffffffffffffffff1673ffffffffffffffffffffffffffffffffffffffff16635453ba1084846040518363ffffffff1660e01b81526004016103cf9291906118a2565b5f604051808303815f87803b1580156103e6575f80fd5b505af11580156103f8573d5f803e3d5ffd5b50505050505050565b61040961111a565b73ffffffffffffffffffffffffffffffffffffffff165f8054906101000a900473ffffffffffffffffffffffffffffffffffffffff1673ffffffffffffffffffffffffffffffffffffffff1614610495576040517f08c379a000000000000000000000000000000000000000000000000000000000815260040161048c90611913565b60405180910390fd5b5f73ffffffffffffffffffffffffffffffffffffffff165f8054906101000a900473ffffffffffffffffffffffffffffffffffffffff1673ffffffffffffffffffffffffffffffffffffffff167f8be0079c531659141344cd1fd0a4f28419497f9722a3daafe3b4186f6b6457e060405160405180910390a35f805f6101000a81548173ffffffffffffffffffffffffffffffffffffffff021916908373ffffffffffffffffffffffffffffffffffffffff160217905550565b5f805f9054906101000a900473ffffffffffffffffffffffffffffffffffffffff16905090565b5f5b8151811015610676573373ffffffffffffffffffffffffffffffffffffffff1660015f8484815181106105ae576105ad611931565b5b60200260200101516080015173ffffffffffffffffffffffffffffffffffffffff1673ffffffffffffffffffffffffffffffffffffffff1681526020019081526020015f205f9054906101000a900473ffffffffffffffffffffffffffffffffffffffff1673ffffffffffffffffffffffffffffffffffffffff1614610669576040517f08c379a000000000000000000000000000000000000000000000000000000000815260040161066090611864565b60405180910390fd5b8080600101915050610578565b5060025f9054906101000a900473ffffffffffffffffffffffffffffffffffffffff1673ffffffffffffffffffffffffffffffffffffffff1663955c2ad7826040518263ffffffff1660e01b81526004016106d19190611afd565b5f604051808303815f87803b1580156106e8575f80fd5b505af11580156106fa573d5f803e3d5ffd5b5050505050565b61070961111a565b73ffffffffffffffffffffffffffffffffffffffff165f8054906101000a900473ffffffffffffffffffffffffffffffffffffffff1673ffffffffffffffffffffffffffffffffffffffff1614610795576040517f08c379a000000000000000000000000000000000000000000000000000000000815260040161078c90611913565b60405180910390fd5b5f60015f8473ffffffffffffffffffffffffffffffffffffffff1673ffffffffffffffffffffffffffffffffffffffff1681526020019081526020015f205f9054906101000a900473ffffffffffffffffffffffffffffffffffffffff1690508160015f8573ffffffffffffffffffffffffffffffffffffffff1673ffffffffffffffffffffffffffffffffffffffff1681526020019081526020015f205f6101000a81548173ffffffffffffffffffffffffffffffffffffffff021916908373ffffffffffffffffffffffffffffffffffffffff1602179055508173ffffffffffffffffffffffffffffffffffffffff168173ffffffffffffffffffffffffffffffffffffffff168473ffffffffffffffffffffffffffffffffffffffff167fda40ea421dd7e42cf8be71255facac4fdc12a3f70f4d5fd373cb16cec4cb538460405160405180910390a4505050565b6108ee61111a565b73ffffffffffffffffffffffffffffffffffffffff165f8054906101000a900473ffffffffffffffffffffffffffffffffffffffff1673ffffffffffffffffffffffffffffffffffffffff161461097a576040517f08c379a000000000000000000000000000000000000000000000000000000000815260040161097190611913565b60405180910390fd5b8060025f6101000a81548173ffffffffffffffffffffffffffffffffffffffff021916908373ffffffffffffffffffffffffffffffffffffffff16021790555050565b8160015f8273ffffffffffffffffffffffffffffffffffffffff1673ffffffffffffffffffffffffffffffffffffffff1681526020019081526020015f205f9054906101000a900473ffffffffffffffffffffffffffffffffffffffff1673ffffffffffffffffffffffffffffffffffffffff163373ffffffffffffffffffffffffffffffffffffffff1614610a88576040517f08c379a0000000000000000000000000000000000000000000000000000000008152600401610a7f90611864565b60405180910390fd5b60025f9054906101000a900473ffffffffffffffffffffffffffffffffffffffff1673ffffffffffffffffffffffffffffffffffffffff1663c5a7b5388585856040518463ffffffff1660e01b8152600401610ae693929190611b2c565b5f604051808303815f87803b158015610afd575f80fd5b505af1158015610b0f573d5f803e3d5ffd5b5050505050505050565b5f60025f9054906101000a900473ffffffffffffffffffffffffffffffffffffffff16905090565b8160015f8273ffffffffffffffffffffffffffffffffffffffff1673ffffffffffffffffffffffffffffffffffffffff1681526020019081526020015f205f9054906101000a900473ffffffffffffffffffffffffffffffffffffffff1673ffffffffffffffffffffffffffffffffffffffff163373ffffffffffffffffffffffffffffffffffffffff1614610c0c576040517f08c379a0000000000000000000000000000000000000000000000000000000008152600401610c0390611864565b60405180910390fd5b60025f9054906101000a900473ffffffffffffffffffffffffffffffffffffffff1673ffffffffffffffffffffffffffffffffffffffff1663e15ac62384846040518363ffffffff1660e01b8152600401610c68929190611b70565b5f604051808303815f87803b158015610c7f575f80fd5b505af1158015610c91573d5f803e3d5ffd5b50505050505050565b610ca261111a565b73ffffffffffffffffffffffffffffffffffffffff165f8054906101000a900473ffffffffffffffffffffffffffffffffffffffff1673ffffffffffffffffffffffffffffffffffffffff1614610d2e576040517f08c379a0000000000000000000000000000000000000000000000000000000008152600401610d2590611913565b60405180910390fd5b5f73ffffffffffffffffffffffffffffffffffffffff168173ffffffffffffffffffffffffffffffffffffffff1603610d9c576040517f08c379a0000000000000000000000000000000000000000000000000000000008152600401610d9390611c07565b60405180910390fd5b8073ffffffffffffffffffffffffffffffffffffffff165f8054906101000a900473ffffffffffffffffffffffffffffffffffffffff1673ffffffffffffffffffffffffffffffffffffffff167f8be0079c531659141344cd1fd0a4f28419497f9722a3daafe3b4186f6b6457e060405160405180910390a3805f806101000a81548173ffffffffffffffffffffffffffffffffffffffff021916908373ffffffffffffffffffffffffffffffffffffffff16021790555050565b610e5f61111a565b73ffffffffffffffffffffffffffffffffffffffff165f8054906101000a900473ffffffffffffffffffffffffffffffffffffffff1673ffffffffffffffffffffffffffffffffffffffff1614610eeb576040517f08c379a0000000000000000000000000000000000000000000000000000000008152600401610ee290611913565b60405180910390fd5b60025f9054906101000a900473ffffffffffffffffffffffffffffffffffffffff1673ffffffffffffffffffffffffffffffffffffffff1663f5cf673b83836040518363ffffffff1660e01b8152600401610f47929190611c25565b5f604051808303815f87803b158015610f5e575f80fd5b505af1158015610f70573d5f803e3d5ffd5b505050505050565b5f5b84849050811015611083573373ffffffffffffffffffffffffffffffffffffffff1660015f878785818110610fb257610fb1611931565b5b9050602002016020810190610fc7919061118c565b73ffffffffffffffffffffffffffffffffffffffff1673ffffffffffffffffffffffffffffffffffffffff1681526020019081526020015f205f9054906101000a900473ffffffffffffffffffffffffffffffffffffffff1673ffffffffffffffffffffffffffffffffffffffff1614611076576040517f08c379a000000000000000000000000000000000000000000000000000000000815260040161106d90611864565b60405180910390fd5b8080600101915050610f7a565b5060025f9054906101000a900473ffffffffffffffffffffffffffffffffffffffff1673ffffffffffffffffffffffffffffffffffffffff1663f996868b86868686866040518663ffffffff1660e01b81526004016110e6959493929190611da6565b5f604051808303815f87803b1580156110fd575f80fd5b505af115801561110f573d5f803e3d5ffd5b505050505050505050565b5f33905090565b5f604051905090565b5f80fd5b5f80fd5b5f73ffffffffffffffffffffffffffffffffffffffff82169050919050565b5f61115b82611132565b9050919050565b61116b81611151565b8114611175575f80fd5b50565b5f8135905061118681611162565b92915050565b5f602082840312156111a1576111a061112a565b5b5f6111ae84828501611178565b91505092915050565b6111c081611151565b82525050565b5f6020820190506111d95f8301846111b7565b92915050565b5f6111e982611151565b9050919050565b6111f9816111df565b8114611203575f80fd5b50565b5f81359050611214816111f0565b92915050565b5f80604083850312156112305761122f61112a565b5b5f61123d85828601611178565b925050602061124e85828601611206565b9150509250929050565b5f80fd5b5f601f19601f8301169050919050565b7f4e487b71000000000000000000000000000000000000000000000000000000005f52604160045260245ffd5b6112a28261125c565b810181811067ffffffffffffffff821117156112c1576112c061126c565b5b80604052505050565b5f6112d3611121565b90506112df8282611299565b919050565b5f67ffffffffffffffff8211156112fe576112fd61126c565b5b602082029050602081019050919050565b5f80fd5b5f80fd5b5f6affffffffffffffffffffff82169050919050565b61133681611317565b8114611340575f80fd5b50565b5f813590506113518161132d565b92915050565b5f819050919050565b61136981611357565b8114611373575f80fd5b50565b5f8135905061138481611360565b92915050565b5f63ffffffff82169050919050565b6113a28161138a565b81146113ac575f80fd5b50565b5f813590506113bd81611399565b92915050565b5f6113cd82611151565b9050919050565b6113dd816113c3565b81146113e7575f80fd5b50565b5f813590506113f8816113d4565b92915050565b5f60e0828403121561141357611412611313565b5b61141d60e06112ca565b90505f61142c84828501611343565b5f83015250602061143f84828501611376565b6020830152506040611453848285016113af565b604083015250606061146784828501611178565b606083015250608061147b84828501611178565b60808301525060a061148f848285016113ea565b60a08301525060c06114a384828501611206565b60c08301525092915050565b5f6114c16114bc846112e4565b6112ca565b90508083825260208201905060e084028301858111156114e4576114e361130f565b5b835b8181101561150d57806114f988826113fe565b84526020840193505060e0810190506114e6565b5050509392505050565b5f82601f83011261152b5761152a611258565b5b813561153b8482602086016114af565b91505092915050565b5f602082840312156115595761155861112a565b5b5f82013567ffffffffffffffff8111156115765761157561112e565b5b61158284828501611517565b91505092915050565b5f80604083850312156115a1576115a061112a565b5b5f6115ae85828601611178565b92505060206115bf85828601611178565b9150509250929050565b5f805f606084860312156115e0576115df61112a565b5b5f6115ed86828701611178565b93505060206115fe86828701611178565b925050604061160f868287016113af565b9150509250925092565b5f819050919050565b5f61163c61163761163284611132565b611619565b611132565b9050919050565b5f61164d82611622565b9050919050565b5f61165e82611643565b9050919050565b61166e81611654565b82525050565b5f6020820190506116875f830184611665565b92915050565b5f80604083850312156116a3576116a261112a565b5b5f6116b085828601611178565b92505060206116c1858286016113ea565b9150509250929050565b5f80fd5b5f8083601f8401126116e4576116e3611258565b5b8235905067ffffffffffffffff811115611701576117006116cb565b5b60208301915083602082028301111561171d5761171c61130f565b5b9250929050565b5f8083601f84011261173957611738611258565b5b8235905067ffffffffffffffff811115611756576117556116cb565b5b6020830191508360208202830111156117725761177161130f565b5b9250929050565b5f805f805f606086880312156117925761179161112a565b5b5f61179f88828901611178565b955050602086013567ffffffffffffffff8111156117c0576117bf61112e565b5b6117cc888289016116cf565b9450945050604086013567ffffffffffffffff8111156117ef576117ee61112e565b5b6117fb88828901611724565b92509250509295509295909350565b5f82825260208201905092915050565b7f4f4e4c595f454d495353494f4e5f41444d494e000000000000000000000000005f82015250565b5f61184e60138361180a565b91506118598261181a565b602082019050919050565b5f6020820190508181035f83015261187b81611842565b9050919050565b5f61188c82611643565b9050919050565b61189c81611882565b82525050565b5f6040820190506118b55f8301856111b7565b6118c26020830184611893565b9392505050565b7f4f776e61626c653a2063616c6c6572206973206e6f7420746865206f776e65725f82015250565b5f6118fd60208361180a565b9150611908826118c9565b602082019050919050565b5f6020820190508181035f83015261192a816118f1565b9050919050565b7f4e487b71000000000000000000000000000000000000000000000000000000005f52603260045260245ffd5b5f81519050919050565b5f82825260208201905092915050565b5f819050602082019050919050565b61199081611317565b82525050565b61199f81611357565b82525050565b6119ae8161138a565b82525050565b6119bd81611151565b82525050565b5f6119cd82611643565b9050919050565b6119dd816119c3565b82525050565b6119ec81611882565b82525050565b60e082015f820151611a065f850182611987565b506020820151611a196020850182611996565b506040820151611a2c60408501826119a5565b506060820151611a3f60608501826119b4565b506080820151611a5260808501826119b4565b5060a0820151611a6560a08501826119d4565b5060c0820151611a7860c08501826119e3565b50505050565b5f611a8983836119f2565b60e08301905092915050565b5f602082019050919050565b5f611aab8261195e565b611ab58185611968565b9350611ac083611978565b805f5b83811015611af0578151611ad78882611a7e565b9750611ae283611a95565b925050600181019050611ac3565b5085935050505092915050565b5f6020820190508181035f830152611b158184611aa1565b905092915050565b611b268161138a565b82525050565b5f606082019050611b3f5f8301866111b7565b611b4c60208301856111b7565b611b596040830184611b1d565b949350505050565b611b6a816119c3565b82525050565b5f604082019050611b835f8301856111b7565b611b906020830184611b61565b9392505050565b7f4f776e61626c653a206e6577206f776e657220697320746865207a65726f20615f8201527f6464726573730000000000000000000000000000000000000000000000000000602082015250565b5f611bf160268361180a565b9150611bfc82611b97565b604082019050919050565b5f6020820190508181035f830152611c1e81611be5565b9050919050565b5f604082019050611c385f8301856111b7565b611c4560208301846111b7565b9392505050565b5f82825260208201905092915050565b5f819050919050565b5f611c7083836119b4565b60208301905092915050565b5f611c8a6020840184611178565b905092915050565b5f602082019050919050565b5f611ca98385611c4c565b9350611cb482611c5c565b805f5b85811015611cec57611cc98284611c7c565b611cd38882611c65565b9750611cde83611c92565b925050600181019050611cb7565b5085925050509392505050565b5f82825260208201905092915050565b5f819050919050565b5f611d1d8383611987565b60208301905092915050565b5f611d376020840184611343565b905092915050565b5f602082019050919050565b5f611d568385611cf9565b9350611d6182611d09565b805f5b85811015611d9957611d768284611d29565b611d808882611d12565b9750611d8b83611d3f565b925050600181019050611d64565b5085925050509392505050565b5f606082019050611db95f8301886111b7565b8181036020830152611dcc818688611c9e565b90508181036040830152611de1818486611d4b565b9050969550505050505056fea264697066735822122092072ccaf4bca59cd7a44db1017084ac3946eff9ee23387bab08038344dab6b264736f6c634300081a0033",
					"opcodes": "PUSH1 0x80 PUSH1 0x40 MSTORE CALLVALUE DUP1 ISZERO PUSH2 0xF JUMPI PUSH0 DUP1 REVERT JUMPDEST POP PUSH1 0x40 MLOAD PUSH2 0x227A CODESIZE SUB DUP1 PUSH2 0x227A DUP4 CODECOPY DUP2 DUP2 ADD PUSH1 0x40 MSTORE DUP2 ADD SWAP1 PUSH2 0x31 SWAP2 SWAP1 PUSH2 0x319 JUMP JUMPDEST PUSH0 PUSH2 0x40 PUSH2 0xF1 PUSH1 0x20 SHL PUSH1 0x20 SHR JUMP JUMPDEST SWAP1 POP DUP1 PUSH0 DUP1 PUSH2 0x100 EXP DUP2 SLOAD DUP2 PUSH20 0xFFFFFFFFFFFFFFFFFFFFFFFFFFFFFFFFFFFFFFFF MUL NOT AND SWAP1 DUP4 PUSH20 0xFFFFFFFFFFFFFFFFFFFFFFFFFFFFFFFFFFFFFFFF AND MUL OR SWAP1 SSTORE POP DUP1 PUSH20 0xFFFFFFFFFFFFFFFFFFFFFFFFFFFFFFFFFFFFFFFF AND PUSH0 PUSH20 0xFFFFFFFFFFFFFFFFFFFFFFFFFFFFFFFFFFFFFFFF AND PUSH32 0x8BE0079C531659141344CD1FD0A4F28419497F9722A3DAAFE3B4186F6B6457E0 PUSH1 0x40 MLOAD PUSH1 0x40 MLOAD DUP1 SWAP2 SUB SWAP1 LOG3 POP PUSH2 0xEB DUP2 PUSH2 0xF8 PUSH1 0x20 SHL PUSH1 0x20 SHR JUMP JUMPDEST POP PUSH2 0x44A JUMP JUMPDEST PUSH0 CALLER SWAP1 POP SWAP1 JUMP JUMPDEST PUSH2 0x106 PUSH2 0xF1 PUSH1 0x20 SHL PUSH1 0x20 SHR JUMP JUMPDEST PUSH20 0xFFFFFFFFFFFFFFFFFFFFFFFFFFFFFFFFFFFFFFFF AND PUSH0 DUP1 SLOAD SWAP1 PUSH2 0x100 EXP SWAP1 DIV PUSH20 0xFFFFFFFFFFFFFFFFFFFFFFFFFFFFFFFFFFFFFFFF AND PUSH20 0xFFFFFFFFFFFFFFFFFFFFFFFFFFFFFFFFFFFFFFFF AND EQ PUSH2 0x192 JUMPI PUSH1 0x40 MLOAD PUSH32 0x8C379A000000000000000000000000000000000000000000000000000000000 DUP2 MSTORE PUSH1 0x4 ADD PUSH2 0x189 SWAP1 PUSH2 0x39E JUMP JUMPDEST PUSH1 0x40 MLOAD DUP1 SWAP2 SUB SWAP1 REVERT JUMPDEST PUSH0 PUSH20 0xFFFFFFFFFFFFFFFFFFFFFFFFFFFFFFFFFFFFFFFF AND DUP2 PUSH20 0xFFFFFFFFFFFFFFFFFFFFFFFFFFFFFFFFFFFFFFFF AND SUB PUSH2 0x200 JUMPI PUSH1 0x40 MLOAD PUSH32 0x8C379A000000000000000000000000000000000000000000000000000000000 DUP2 MSTORE PUSH1 0x4 ADD PUSH2 0x1F7 SWAP1 PUSH2 0x42C JUMP JUMPDEST PUSH1 0x40 MLOAD DUP1 SWAP2 SUB SWAP1 REVERT JUMPDEST DUP1 PUSH20 0xFFFFFFFFFFFFFFFFFFFFFFFFFFFFFFFFFFFFFFFF AND PUSH0 DUP1 SLOAD SWAP1 PUSH2 0x100 EXP SWAP1 DIV PUSH20 0xFFFFFFFFFFFFFFFFFFFFFFFFFFFFFFFFFFFFFFFF AND PUSH20 0xFFFFFFFFFFFFFFFFFFFFFFFFFFFFFFFFFFFFFFFF AND PUSH32 0x8BE0079C531659141344CD1FD0A4F28419497F9722A3DAAFE3B4186F6B6457E0 PUSH1 0x40 MLOAD PUSH1 0x40 MLOAD DUP1 SWAP2 SUB SWAP1 LOG3 DUP1 PUSH0 DUP1 PUSH2 0x100 EXP DUP2 SLOAD DUP2 PUSH20 0xFFFFFFFFFFFFFFFFFFFFFFFFFFFFFFFFFFFFFFFF MUL NOT AND SWAP1 DUP4 PUSH20 0xFFFFFFFFFFFFFFFFFFFFFFFFFFFFFFFFFFFFFFFF AND MUL OR SWAP1 SSTORE POP POP JUMP JUMPDEST PUSH0 DUP1 REVERT JUMPDEST PUSH0 PUSH20 0xFFFFFFFFFFFFFFFFFFFFFFFFFFFFFFFFFFFFFFFF DUP3 AND SWAP1 POP SWAP2 SWAP1 POP JUMP JUMPDEST PUSH0 PUSH2 0x2E8 DUP3 PUSH2 0x2BF JUMP JUMPDEST SWAP1 POP SWAP2 SWAP1 POP JUMP JUMPDEST PUSH2 0x2F8 DUP2 PUSH2 0x2DE JUMP JUMPDEST DUP2 EQ PUSH2 0x302 JUMPI PUSH0 DUP1 REVERT JUMPDEST POP JUMP JUMPDEST PUSH0 DUP2 MLOAD SWAP1 POP PUSH2 0x313 DUP2 PUSH2 0x2EF JUMP JUMPDEST SWAP3 SWAP2 POP POP JUMP JUMPDEST PUSH0 PUSH1 0x20 DUP3 DUP5 SUB SLT ISZERO PUSH2 0x32E JUMPI PUSH2 0x32D PUSH2 0x2BB JUMP JUMPDEST JUMPDEST PUSH0 PUSH2 0x33B DUP5 DUP3 DUP6 ADD PUSH2 0x305 JUMP JUMPDEST SWAP2 POP POP SWAP3 SWAP2 POP POP JUMP JUMPDEST PUSH0 DUP3 DUP3 MSTORE PUSH1 0x20 DUP3 ADD SWAP1 POP SWAP3 SWAP2 POP POP JUMP JUMPDEST PUSH32 0x4F776E61626C653A2063616C6C6572206973206E6F7420746865206F776E6572 PUSH0 DUP3 ADD MSTORE POP JUMP JUMPDEST PUSH0 PUSH2 0x388 PUSH1 0x20 DUP4 PUSH2 0x344 JUMP JUMPDEST SWAP2 POP PUSH2 0x393 DUP3 PUSH2 0x354 JUMP JUMPDEST PUSH1 0x20 DUP3 ADD SWAP1 POP SWAP2 SWAP1 POP JUMP JUMPDEST PUSH0 PUSH1 0x20 DUP3 ADD SWAP1 POP DUP2 DUP2 SUB PUSH0 DUP4 ADD MSTORE PUSH2 0x3B5 DUP2 PUSH2 0x37C JUMP JUMPDEST SWAP1 POP SWAP2 SWAP1 POP JUMP JUMPDEST PUSH32 0x4F776E61626C653A206E6577206F776E657220697320746865207A65726F2061 PUSH0 DUP3 ADD MSTORE PUSH32 0x6464726573730000000000000000000000000000000000000000000000000000 PUSH1 0x20 DUP3 ADD MSTORE POP JUMP JUMPDEST PUSH0 PUSH2 0x416 PUSH1 0x26 DUP4 PUSH2 0x344 JUMP JUMPDEST SWAP2 POP PUSH2 0x421 DUP3 PUSH2 0x3BC JUMP JUMPDEST PUSH1 0x40 DUP3 ADD SWAP1 POP SWAP2 SWAP1 POP JUMP JUMPDEST PUSH0 PUSH1 0x20 DUP3 ADD SWAP1 POP DUP2 DUP2 SUB PUSH0 DUP4 ADD MSTORE PUSH2 0x443 DUP2 PUSH2 0x40A JUMP JUMPDEST SWAP1 POP SWAP2 SWAP1 POP JUMP JUMPDEST PUSH2 0x1E23 DUP1 PUSH2 0x457 PUSH0 CODECOPY PUSH0 RETURN INVALID PUSH1 0x80 PUSH1 0x40 MSTORE CALLVALUE DUP1 ISZERO PUSH2 0xF JUMPI PUSH0 DUP1 REVERT JUMPDEST POP PUSH1 0x4 CALLDATASIZE LT PUSH2 0xCD JUMPI PUSH0 CALLDATALOAD PUSH1 0xE0 SHR DUP1 PUSH4 0xBEE36BB3 GT PUSH2 0x8A JUMPI DUP1 PUSH4 0xE15AC623 GT PUSH2 0x64 JUMPI DUP1 PUSH4 0xE15AC623 EQ PUSH2 0x1D3 JUMPI DUP1 PUSH4 0xF2FDE38B EQ PUSH2 0x1EF JUMPI DUP1 PUSH4 0xF5CF673B EQ PUSH2 0x20B JUMPI DUP1 PUSH4 0xF996868B EQ PUSH2 0x227 JUMPI PUSH2 0xCD JUMP JUMPDEST DUP1 PUSH4 0xBEE36BB3 EQ PUSH2 0x17D JUMPI DUP1 PUSH4 0xC5A7B538 EQ PUSH2 0x199 JUMPI DUP1 PUSH4 0xDE262738 EQ PUSH2 0x1B5 JUMPI PUSH2 0xCD JUMP JUMPDEST DUP1 PUSH4 0x529B1E87 EQ PUSH2 0xD1 JUMPI DUP1 PUSH4 0x5453BA10 EQ PUSH2 0x101 JUMPI DUP1 PUSH4 0x715018A6 EQ PUSH2 0x11D JUMPI DUP1 PUSH4 0x8DA5CB5B EQ PUSH2 0x127 JUMPI DUP1 PUSH4 0x955C2AD7 EQ PUSH2 0x145 JUMPI DUP1 PUSH4 0xA286C6B4 EQ PUSH2 0x161 JUMPI JUMPDEST PUSH0 DUP1 REVERT JUMPDEST PUSH2 0xEB PUSH1 0x4 DUP1 CALLDATASIZE SUB DUP2 ADD SWAP1 PUSH2 0xE6 SWAP2 SWAP1 PUSH2 0x118C JUMP JUMPDEST PUSH2 0x243 JUMP JUMPDEST PUSH1 0x40 MLOAD PUSH2 0xF8 SWAP2 SWAP1 PUSH2 0x11C6 JUMP JUMPDEST PUSH1 0x40 MLOAD DUP1 SWAP2 SUB SWAP1 RETURN JUMPDEST PUSH2 0x11B PUSH1 0x4 DUP1 CALLDATASIZE SUB DUP2 ADD SWAP1 PUSH2 0x116 SWAP2 SWAP1 PUSH2 0x121A JUMP JUMPDEST PUSH2 0x2A8 JUMP JUMPDEST STOP JUMPDEST PUSH2 0x125 PUSH2 0x401 JUMP JUMPDEST STOP JUMPDEST PUSH2 0x12F PUSH2 0x54F JUMP JUMPDEST PUSH1 0x40 MLOAD PUSH2 0x13C SWAP2 SWAP1 PUSH2 0x11C6 JUMP JUMPDEST PUSH1 0x40 MLOAD DUP1 SWAP2 SUB SWAP1 RETURN JUMPDEST PUSH2 0x15F PUSH1 0x4 DUP1 CALLDATASIZE SUB DUP2 ADD SWAP1 PUSH2 0x15A SWAP2 SWAP1 PUSH2 0x1544 JUMP JUMPDEST PUSH2 0x576 JUMP JUMPDEST STOP JUMPDEST PUSH2 0x17B PUSH1 0x4 DUP1 CALLDATASIZE SUB DUP2 ADD SWAP1 PUSH2 0x176 SWAP2 SWAP1 PUSH2 0x158B JUMP JUMPDEST PUSH2 0x701 JUMP JUMPDEST STOP JUMPDEST PUSH2 0x197 PUSH1 0x4 DUP1 CALLDATASIZE SUB DUP2 ADD SWAP1 PUSH2 0x192 SWAP2 SWAP1 PUSH2 0x118C JUMP JUMPDEST PUSH2 0x8E6 JUMP JUMPDEST STOP JUMPDEST PUSH2 0x1B3 PUSH1 0x4 DUP1 CALLDATASIZE SUB DUP2 ADD SWAP1 PUSH2 0x1AE SWAP2 SWAP1 PUSH2 0x15C9 JUMP JUMPDEST PUSH2 0x9BD JUMP JUMPDEST STOP JUMPDEST PUSH2 0x1BD PUSH2 0xB19 JUMP JUMPDEST PUSH1 0x40 MLOAD PUSH2 0x1CA SWAP2 SWAP1 PUSH2 0x1674 JUMP JUMPDEST PUSH1 0x40 MLOAD DUP1 SWAP2 SUB SWAP1 RETURN JUMPDEST PUSH2 0x1ED PUSH1 0x4 DUP1 CALLDATASIZE SUB DUP2 ADD SWAP1 PUSH2 0x1E8 SWAP2 SWAP1 PUSH2 0x168D JUMP JUMPDEST PUSH2 0xB41 JUMP JUMPDEST STOP JUMPDEST PUSH2 0x209 PUSH1 0x4 DUP1 CALLDATASIZE SUB DUP2 ADD SWAP1 PUSH2 0x204 SWAP2 SWAP1 PUSH2 0x118C JUMP JUMPDEST PUSH2 0xC9A JUMP JUMPDEST STOP JUMPDEST PUSH2 0x225 PUSH1 0x4 DUP1 CALLDATASIZE SUB DUP2 ADD SWAP1 PUSH2 0x220 SWAP2 SWAP1 PUSH2 0x158B JUMP JUMPDEST PUSH2 0xE57 JUMP JUMPDEST STOP JUMPDEST PUSH2 0x241 PUSH1 0x4 DUP1 CALLDATASIZE SUB DUP2 ADD SWAP1 PUSH2 0x23C SWAP2 SWAP1 PUSH2 0x1779 JUMP JUMPDEST PUSH2 0xF78 JUMP JUMPDEST STOP JUMPDEST PUSH0 PUSH1 0x1 PUSH0 DUP4 PUSH20 0xFFFFFFFFFFFFFFFFFFFFFFFFFFFFFFFFFFFFFFFF AND PUSH20 0xFFFFFFFFFFFFFFFFFFFFFFFFFFFFFFFFFFFFFFFF AND DUP2 MSTORE PUSH1 0x20 ADD SWAP1 DUP2 MSTORE PUSH1 0x20 ADD PUSH0 KECCAK256 PUSH0 SWAP1 SLOAD SWAP1 PUSH2 0x100 EXP SWAP1 DIV PUSH20 0xFFFFFFFFFFFFFFFFFFFFFFFFFFFFFFFFFFFFFFFF AND SWAP1 POP SWAP2 SWAP1 POP JUMP JUMPDEST DUP2 PUSH1 0x1 PUSH0 DUP3 PUSH20 0xFFFFFFFFFFFFFFFFFFFFFFFFFFFFFFFFFFFFFFFF AND PUSH20 0xFFFFFFFFFFFFFFFFFFFFFFFFFFFFFFFFFFFFFFFF AND DUP2 MSTORE PUSH1 0x20 ADD SWAP1 DUP2 MSTORE PUSH1 0x20 ADD PUSH0 KECCAK256 PUSH0 SWAP1 SLOAD SWAP1 PUSH2 0x100 EXP SWAP1 DIV PUSH20 0xFFFFFFFFFFFFFFFFFFFFFFFFFFFFFFFFFFFFFFFF AND PUSH20 0xFFFFFFFFFFFFFFFFFFFFFFFFFFFFFFFFFFFFFFFF AND CALLER PUSH20 0xFFFFFFFFFFFFFFFFFFFFFFFFFFFFFFFFFFFFFFFF AND EQ PUSH2 0x373 JUMPI PUSH1 0x40 MLOAD PUSH32 0x8C379A000000000000000000000000000000000000000000000000000000000 DUP2 MSTORE PUSH1 0x4 ADD PUSH2 0x36A SWAP1 PUSH2 0x1864 JUMP JUMPDEST PUSH1 0x40 MLOAD DUP1 SWAP2 SUB SWAP1 REVERT JUMPDEST PUSH1 0x2 PUSH0 SWAP1 SLOAD SWAP1 PUSH2 0x100 EXP SWAP1 DIV PUSH20 0xFFFFFFFFFFFFFFFFFFFFFFFFFFFFFFFFFFFFFFFF AND PUSH20 0xFFFFFFFFFFFFFFFFFFFFFFFFFFFFFFFFFFFFFFFF AND PUSH4 0x5453BA10 DUP5 DUP5 PUSH1 0x40 MLOAD DUP4 PUSH4 0xFFFFFFFF AND PUSH1 0xE0 SHL DUP2 MSTORE PUSH1 0x4 ADD PUSH2 0x3CF SWAP3 SWAP2 SWAP1 PUSH2 0x18A2 JUMP JUMPDEST PUSH0 PUSH1 0x40 MLOAD DUP1 DUP4 SUB DUP2 PUSH0 DUP8 DUP1 EXTCODESIZE ISZERO DUP1 ISZERO PUSH2 0x3E6 JUMPI PUSH0 DUP1 REVERT JUMPDEST POP GAS CALL ISZERO DUP1 ISZERO PUSH2 0x3F8 JUMPI RETURNDATASIZE PUSH0 DUP1 RETURNDATACOPY RETURNDATASIZE PUSH0 REVERT JUMPDEST POP POP POP POP POP POP POP JUMP JUMPDEST PUSH2 0x409 PUSH2 0x111A JUMP JUMPDEST PUSH20 0xFFFFFFFFFFFFFFFFFFFFFFFFFFFFFFFFFFFFFFFF AND PUSH0 DUP1 SLOAD SWAP1 PUSH2 0x100 EXP SWAP1 DIV PUSH20 0xFFFFFFFFFFFFFFFFFFFFFFFFFFFFFFFFFFFFFFFF AND PUSH20 0xFFFFFFFFFFFFFFFFFFFFFFFFFFFFFFFFFFFFFFFF AND EQ PUSH2 0x495 JUMPI PUSH1 0x40 MLOAD PUSH32 0x8C379A000000000000000000000000000000000000000000000000000000000 DUP2 MSTORE PUSH1 0x4 ADD PUSH2 0x48C SWAP1 PUSH2 0x1913 JUMP JUMPDEST PUSH1 0x40 MLOAD DUP1 SWAP2 SUB SWAP1 REVERT JUMPDEST PUSH0 PUSH20 0xFFFFFFFFFFFFFFFFFFFFFFFFFFFFFFFFFFFFFFFF AND PUSH0 DUP1 SLOAD SWAP1 PUSH2 0x100 EXP SWAP1 DIV PUSH20 0xFFFFFFFFFFFFFFFFFFFFFFFFFFFFFFFFFFFFFFFF AND PUSH20 0xFFFFFFFFFFFFFFFFFFFFFFFFFFFFFFFFFFFFFFFF AND PUSH32 0x8BE0079C531659141344CD1FD0A4F28419497F9722A3DAAFE3B4186F6B6457E0 PUSH1 0x40 MLOAD PUSH1 0x40 MLOAD DUP1 SWAP2 SUB SWAP1 LOG3 PUSH0 DUP1 PUSH0 PUSH2 0x100 EXP DUP2 SLOAD DUP2 PUSH20 0xFFFFFFFFFFFFFFFFFFFFFFFFFFFFFFFFFFFFFFFF MUL NOT AND SWAP1 DUP4 PUSH20 0xFFFFFFFFFFFFFFFFFFFFFFFFFFFFFFFFFFFFFFFF AND MUL OR SWAP1 SSTORE POP JUMP JUMPDEST PUSH0 DUP1 PUSH0 SWAP1 SLOAD SWAP1 PUSH2 0x100 EXP SWAP1 DIV PUSH20 0xFFFFFFFFFFFFFFFFFFFFFFFFFFFFFFFFFFFFFFFF AND SWAP1 POP SWAP1 JUMP JUMPDEST PUSH0 JUMPDEST DUP2 MLOAD DUP2 LT ISZERO PUSH2 0x676 JUMPI CALLER PUSH20 0xFFFFFFFFFFFFFFFFFFFFFFFFFFFFFFFFFFFFFFFF AND PUSH1 0x1 PUSH0 DUP5 DUP5 DUP2 MLOAD DUP2 LT PUSH2 0x5AE JUMPI PUSH2 0x5AD PUSH2 0x1931 JUMP JUMPDEST JUMPDEST PUSH1 0x20 MUL PUSH1 0x20 ADD ADD MLOAD PUSH1 0x80 ADD MLOAD PUSH20 0xFFFFFFFFFFFFFFFFFFFFFFFFFFFFFFFFFFFFFFFF AND PUSH20 0xFFFFFFFFFFFFFFFFFFFFFFFFFFFFFFFFFFFFFFFF AND DUP2 MSTORE PUSH1 0x20 ADD SWAP1 DUP2 MSTORE PUSH1 0x20 ADD PUSH0 KECCAK256 PUSH0 SWAP1 SLOAD SWAP1 PUSH2 0x100 EXP SWAP1 DIV PUSH20 0xFFFFFFFFFFFFFFFFFFFFFFFFFFFFFFFFFFFFFFFF AND PUSH20 0xFFFFFFFFFFFFFFFFFFFFFFFFFFFFFFFFFFFFFFFF AND EQ PUSH2 0x669 JUMPI PUSH1 0x40 MLOAD PUSH32 0x8C379A000000000000000000000000000000000000000000000000000000000 DUP2 MSTORE PUSH1 0x4 ADD PUSH2 0x660 SWAP1 PUSH2 0x1864 JUMP JUMPDEST PUSH1 0x40 MLOAD DUP1 SWAP2 SUB SWAP1 REVERT JUMPDEST DUP1 DUP1 PUSH1 0x1 ADD SWAP2 POP POP PUSH2 0x578 JUMP JUMPDEST POP PUSH1 0x2 PUSH0 SWAP1 SLOAD SWAP1 PUSH2 0x100 EXP SWAP1 DIV PUSH20 0xFFFFFFFFFFFFFFFFFFFFFFFFFFFFFFFFFFFFFFFF AND PUSH20 0xFFFFFFFFFFFFFFFFFFFFFFFFFFFFFFFFFFFFFFFF AND PUSH4 0x955C2AD7 DUP3 PUSH1 0x40 MLOAD DUP3 PUSH4 0xFFFFFFFF AND PUSH1 0xE0 SHL DUP2 MSTORE PUSH1 0x4 ADD PUSH2 0x6D1 SWAP2 SWAP1 PUSH2 0x1AFD JUMP JUMPDEST PUSH0 PUSH1 0x40 MLOAD DUP1 DUP4 SUB DUP2 PUSH0 DUP8 DUP1 EXTCODESIZE ISZERO DUP1 ISZERO PUSH2 0x6E8 JUMPI PUSH0 DUP1 REVERT JUMPDEST POP GAS CALL ISZERO DUP1 ISZERO PUSH2 0x6FA JUMPI RETURNDATASIZE PUSH0 DUP1 RETURNDATACOPY RETURNDATASIZE PUSH0 REVERT JUMPDEST POP POP POP POP POP JUMP JUMPDEST PUSH2 0x709 PUSH2 0x111A JUMP JUMPDEST PUSH20 0xFFFFFFFFFFFFFFFFFFFFFFFFFFFFFFFFFFFFFFFF AND PUSH0 DUP1 SLOAD SWAP1 PUSH2 0x100 EXP SWAP1 DIV PUSH20 0xFFFFFFFFFFFFFFFFFFFFFFFFFFFFFFFFFFFFFFFF AND PUSH20 0xFFFFFFFFFFFFFFFFFFFFFFFFFFFFFFFFFFFFFFFF AND EQ PUSH2 0x795 JUMPI PUSH1 0x40 MLOAD PUSH32 0x8C379A000000000000000000000000000000000000000000000000000000000 DUP2 MSTORE PUSH1 0x4 ADD PUSH2 0x78C SWAP1 PUSH2 0x1913 JUMP JUMPDEST PUSH1 0x40 MLOAD DUP1 SWAP2 SUB SWAP1 REVERT JUMPDEST PUSH0 PUSH1 0x1 PUSH0 DUP5 PUSH20 0xFFFFFFFFFFFFFFFFFFFFFFFFFFFFFFFFFFFFFFFF AND PUSH20 0xFFFFFFFFFFFFFFFFFFFFFFFFFFFFFFFFFFFFFFFF AND DUP2 MSTORE PUSH1 0x20 ADD SWAP1 DUP2 MSTORE PUSH1 0x20 ADD PUSH0 KECCAK256 PUSH0 SWAP1 SLOAD SWAP1 PUSH2 0x100 EXP SWAP1 DIV PUSH20 0xFFFFFFFFFFFFFFFFFFFFFFFFFFFFFFFFFFFFFFFF AND SWAP1 POP DUP2 PUSH1 0x1 PUSH0 DUP6 PUSH20 0xFFFFFFFFFFFFFFFFFFFFFFFFFFFFFFFFFFFFFFFF AND PUSH20 0xFFFFFFFFFFFFFFFFFFFFFFFFFFFFFFFFFFFFFFFF AND DUP2 MSTORE PUSH1 0x20 ADD SWAP1 DUP2 MSTORE PUSH1 0x20 ADD PUSH0 KECCAK256 PUSH0 PUSH2 0x100 EXP DUP2 SLOAD DUP2 PUSH20 0xFFFFFFFFFFFFFFFFFFFFFFFFFFFFFFFFFFFFFFFF MUL NOT AND SWAP1 DUP4 PUSH20 0xFFFFFFFFFFFFFFFFFFFFFFFFFFFFFFFFFFFFFFFF AND MUL OR SWAP1 SSTORE POP DUP2 PUSH20 0xFFFFFFFFFFFFFFFFFFFFFFFFFFFFFFFFFFFFFFFF AND DUP2 PUSH20 0xFFFFFFFFFFFFFFFFFFFFFFFFFFFFFFFFFFFFFFFF AND DUP5 PUSH20 0xFFFFFFFFFFFFFFFFFFFFFFFFFFFFFFFFFFFFFFFF AND PUSH32 0xDA40EA421DD7E42CF8BE71255FACAC4FDC12A3F70F4D5FD373CB16CEC4CB5384 PUSH1 0x40 MLOAD PUSH1 0x40 MLOAD DUP1 SWAP2 SUB SWAP1 LOG4 POP POP POP JUMP JUMPDEST PUSH2 0x8EE PUSH2 0x111A JUMP JUMPDEST PUSH20 0xFFFFFFFFFFFFFFFFFFFFFFFFFFFFFFFFFFFFFFFF AND PUSH0 DUP1 SLOAD SWAP1 PUSH2 0x100 EXP SWAP1 DIV PUSH20 0xFFFFFFFFFFFFFFFFFFFFFFFFFFFFFFFFFFFFFFFF AND PUSH20 0xFFFFFFFFFFFFFFFFFFFFFFFFFFFFFFFFFFFFFFFF AND EQ PUSH2 0x97A JUMPI PUSH1 0x40 MLOAD PUSH32 0x8C379A000000000000000000000000000000000000000000000000000000000 DUP2 MSTORE PUSH1 0x4 ADD PUSH2 0x971 SWAP1 PUSH2 0x1913 JUMP JUMPDEST PUSH1 0x40 MLOAD DUP1 SWAP2 SUB SWAP1 REVERT JUMPDEST DUP1 PUSH1 0x2 PUSH0 PUSH2 0x100 EXP DUP2 SLOAD DUP2 PUSH20 0xFFFFFFFFFFFFFFFFFFFFFFFFFFFFFFFFFFFFFFFF MUL NOT AND SWAP1 DUP4 PUSH20 0xFFFFFFFFFFFFFFFFFFFFFFFFFFFFFFFFFFFFFFFF AND MUL OR SWAP1 SSTORE POP POP JUMP JUMPDEST DUP2 PUSH1 0x1 PUSH0 DUP3 PUSH20 0xFFFFFFFFFFFFFFFFFFFFFFFFFFFFFFFFFFFFFFFF AND PUSH20 0xFFFFFFFFFFFFFFFFFFFFFFFFFFFFFFFFFFFFFFFF AND DUP2 MSTORE PUSH1 0x20 ADD SWAP1 DUP2 MSTORE PUSH1 0x20 ADD PUSH0 KECCAK256 PUSH0 SWAP1 SLOAD SWAP1 PUSH2 0x100 EXP SWAP1 DIV PUSH20 0xFFFFFFFFFFFFFFFFFFFFFFFFFFFFFFFFFFFFFFFF AND PUSH20 0xFFFFFFFFFFFFFFFFFFFFFFFFFFFFFFFFFFFFFFFF AND CALLER PUSH20 0xFFFFFFFFFFFFFFFFFFFFFFFFFFFFFFFFFFFFFFFF AND EQ PUSH2 0xA88 JUMPI PUSH1 0x40 MLOAD PUSH32 0x8C379A000000000000000000000000000000000000000000000000000000000 DUP2 MSTORE PUSH1 0x4 ADD PUSH2 0xA7F SWAP1 PUSH2 0x1864 JUMP JUMPDEST PUSH1 0x40 MLOAD DUP1 SWAP2 SUB SWAP1 REVERT JUMPDEST PUSH1 0x2 PUSH0 SWAP1 SLOAD SWAP1 PUSH2 0x100 EXP SWAP1 DIV PUSH20 0xFFFFFFFFFFFFFFFFFFFFFFFFFFFFFFFFFFFFFFFF AND PUSH20 0xFFFFFFFFFFFFFFFFFFFFFFFFFFFFFFFFFFFFFFFF AND PUSH4 0xC5A7B538 DUP6 DUP6 DUP6 PUSH1 0x40 MLOAD DUP5 PUSH4 0xFFFFFFFF AND PUSH1 0xE0 SHL DUP2 MSTORE PUSH1 0x4 ADD PUSH2 0xAE6 SWAP4 SWAP3 SWAP2 SWAP1 PUSH2 0x1B2C JUMP JUMPDEST PUSH0 PUSH1 0x40 MLOAD DUP1 DUP4 SUB DUP2 PUSH0 DUP8 DUP1 EXTCODESIZE ISZERO DUP1 ISZERO PUSH2 0xAFD JUMPI PUSH0 DUP1 REVERT JUMPDEST POP GAS CALL ISZERO DUP1 ISZERO PUSH2 0xB0F JUMPI RETURNDATASIZE PUSH0 DUP1 RETURNDATACOPY RETURNDATASIZE PUSH0 REVERT JUMPDEST POP POP POP POP POP POP POP POP JUMP JUMPDEST PUSH0 PUSH1 0x2 PUSH0 SWAP1 SLOAD SWAP1 PUSH2 0x100 EXP SWAP1 DIV PUSH20 0xFFFFFFFFFFFFFFFFFFFFFFFFFFFFFFFFFFFFFFFF AND SWAP1 POP SWAP1 JUMP JUMPDEST DUP2 PUSH1 0x1 PUSH0 DUP3 PUSH20 0xFFFFFFFFFFFFFFFFFFFFFFFFFFFFFFFFFFFFFFFF AND PUSH20 0xFFFFFFFFFFFFFFFFFFFFFFFFFFFFFFFFFFFFFFFF AND DUP2 MSTORE PUSH1 0x20 ADD SWAP1 DUP2 MSTORE PUSH1 0x20 ADD PUSH0 KECCAK256 PUSH0 SWAP1 SLOAD SWAP1 PUSH2 0x100 EXP SWAP1 DIV PUSH20 0xFFFFFFFFFFFFFFFFFFFFFFFFFFFFFFFFFFFFFFFF AND PUSH20 0xFFFFFFFFFFFFFFFFFFFFFFFFFFFFFFFFFFFFFFFF AND CALLER PUSH20 0xFFFFFFFFFFFFFFFFFFFFFFFFFFFFFFFFFFFFFFFF AND EQ PUSH2 0xC0C JUMPI PUSH1 0x40 MLOAD PUSH32 0x8C379A000000000000000000000000000000000000000000000000000000000 DUP2 MSTORE PUSH1 0x4 ADD PUSH2 0xC03 SWAP1 PUSH2 0x1864 JUMP JUMPDEST PUSH1 0x40 MLOAD DUP1 SWAP2 SUB SWAP1 REVERT JUMPDEST PUSH1 0x2 PUSH0 SWAP1 SLOAD SWAP1 PUSH2 0x100 EXP SWAP1 DIV PUSH20 0xFFFFFFFFFFFFFFFFFFFFFFFFFFFFFFFFFFFFFFFF AND PUSH20 0xFFFFFFFFFFFFFFFFFFFFFFFFFFFFFFFFFFFFFFFF AND PUSH4 0xE15AC623 DUP5 DUP5 PUSH1 0x40 MLOAD DUP4 PUSH4 0xFFFFFFFF AND PUSH1 0xE0 SHL DUP2 MSTORE PUSH1 0x4 ADD PUSH2 0xC68 SWAP3 SWAP2 SWAP1 PUSH2 0x1B70 JUMP JUMPDEST PUSH0 PUSH1 0x40 MLOAD DUP1 DUP4 SUB DUP2 PUSH0 DUP8 DUP1 EXTCODESIZE ISZERO DUP1 ISZERO PUSH2 0xC7F JUMPI PUSH0 DUP1 REVERT JUMPDEST POP GAS CALL ISZERO DUP1 ISZERO PUSH2 0xC91 JUMPI RETURNDATASIZE PUSH0 DUP1 RETURNDATACOPY RETURNDATASIZE PUSH0 REVERT JUMPDEST POP POP POP POP POP POP POP JUMP JUMPDEST PUSH2 0xCA2 PUSH2 0x111A JUMP JUMPDEST PUSH20 0xFFFFFFFFFFFFFFFFFFFFFFFFFFFFFFFFFFFFFFFF AND PUSH0 DUP1 SLOAD SWAP1 PUSH2 0x100 EXP SWAP1 DIV PUSH20 0xFFFFFFFFFFFFFFFFFFFFFFFFFFFFFFFFFFFFFFFF AND PUSH20 0xFFFFFFFFFFFFFFFFFFFFFFFFFFFFFFFFFFFFFFFF AND EQ PUSH2 0xD2E JUMPI PUSH1 0x40 MLOAD PUSH32 0x8C379A000000000000000000000000000000000000000000000000000000000 DUP2 MSTORE PUSH1 0x4 ADD PUSH2 0xD25 SWAP1 PUSH2 0x1913 JUMP JUMPDEST PUSH1 0x40 MLOAD DUP1 SWAP2 SUB SWAP1 REVERT JUMPDEST PUSH0 PUSH20 0xFFFFFFFFFFFFFFFFFFFFFFFFFFFFFFFFFFFFFFFF AND DUP2 PUSH20 0xFFFFFFFFFFFFFFFFFFFFFFFFFFFFFFFFFFFFFFFF AND SUB PUSH2 0xD9C JUMPI PUSH1 0x40 MLOAD PUSH32 0x8C379A000000000000000000000000000000000000000000000000000000000 DUP2 MSTORE PUSH1 0x4 ADD PUSH2 0xD93 SWAP1 PUSH2 0x1C07 JUMP JUMPDEST PUSH1 0x40 MLOAD DUP1 SWAP2 SUB SWAP1 REVERT JUMPDEST DUP1 PUSH20 0xFFFFFFFFFFFFFFFFFFFFFFFFFFFFFFFFFFFFFFFF AND PUSH0 DUP1 SLOAD SWAP1 PUSH2 0x100 EXP SWAP1 DIV PUSH20 0xFFFFFFFFFFFFFFFFFFFFFFFFFFFFFFFFFFFFFFFF AND PUSH20 0xFFFFFFFFFFFFFFFFFFFFFFFFFFFFFFFFFFFFFFFF AND PUSH32 0x8BE0079C531659141344CD1FD0A4F28419497F9722A3DAAFE3B4186F6B6457E0 PUSH1 0x40 MLOAD PUSH1 0x40 MLOAD DUP1 SWAP2 SUB SWAP1 LOG3 DUP1 PUSH0 DUP1 PUSH2 0x100 EXP DUP2 SLOAD DUP2 PUSH20 0xFFFFFFFFFFFFFFFFFFFFFFFFFFFFFFFFFFFFFFFF MUL NOT AND SWAP1 DUP4 PUSH20 0xFFFFFFFFFFFFFFFFFFFFFFFFFFFFFFFFFFFFFFFF AND MUL OR SWAP1 SSTORE POP POP JUMP JUMPDEST PUSH2 0xE5F PUSH2 0x111A JUMP JUMPDEST PUSH20 0xFFFFFFFFFFFFFFFFFFFFFFFFFFFFFFFFFFFFFFFF AND PUSH0 DUP1 SLOAD SWAP1 PUSH2 0x100 EXP SWAP1 DIV PUSH20 0xFFFFFFFFFFFFFFFFFFFFFFFFFFFFFFFFFFFFFFFF AND PUSH20 0xFFFFFFFFFFFFFFFFFFFFFFFFFFFFFFFFFFFFFFFF AND EQ PUSH2 0xEEB JUMPI PUSH1 0x40 MLOAD PUSH32 0x8C379A000000000000000000000000000000000000000000000000000000000 DUP2 MSTORE PUSH1 0x4 ADD PUSH2 0xEE2 SWAP1 PUSH2 0x1913 JUMP JUMPDEST PUSH1 0x40 MLOAD DUP1 SWAP2 SUB SWAP1 REVERT JUMPDEST PUSH1 0x2 PUSH0 SWAP1 SLOAD SWAP1 PUSH2 0x100 EXP SWAP1 DIV PUSH20 0xFFFFFFFFFFFFFFFFFFFFFFFFFFFFFFFFFFFFFFFF AND PUSH20 0xFFFFFFFFFFFFFFFFFFFFFFFFFFFFFFFFFFFFFFFF AND PUSH4 0xF5CF673B DUP4 DUP4 PUSH1 0x40 MLOAD DUP4 PUSH4 0xFFFFFFFF AND PUSH1 0xE0 SHL DUP2 MSTORE PUSH1 0x4 ADD PUSH2 0xF47 SWAP3 SWAP2 SWAP1 PUSH2 0x1C25 JUMP JUMPDEST PUSH0 PUSH1 0x40 MLOAD DUP1 DUP4 SUB DUP2 PUSH0 DUP8 DUP1 EXTCODESIZE ISZERO DUP1 ISZERO PUSH2 0xF5E JUMPI PUSH0 DUP1 REVERT JUMPDEST POP GAS CALL ISZERO DUP1 ISZERO PUSH2 0xF70 JUMPI RETURNDATASIZE PUSH0 DUP1 RETURNDATACOPY RETURNDATASIZE PUSH0 REVERT JUMPDEST POP POP POP POP POP POP JUMP JUMPDEST PUSH0 JUMPDEST DUP5 DUP5 SWAP1 POP DUP2 LT ISZERO PUSH2 0x1083 JUMPI CALLER PUSH20 0xFFFFFFFFFFFFFFFFFFFFFFFFFFFFFFFFFFFFFFFF AND PUSH1 0x1 PUSH0 DUP8 DUP8 DUP6 DUP2 DUP2 LT PUSH2 0xFB2 JUMPI PUSH2 0xFB1 PUSH2 0x1931 JUMP JUMPDEST JUMPDEST SWAP1 POP PUSH1 0x20 MUL ADD PUSH1 0x20 DUP2 ADD SWAP1 PUSH2 0xFC7 SWAP2 SWAP1 PUSH2 0x118C JUMP JUMPDEST PUSH20 0xFFFFFFFFFFFFFFFFFFFFFFFFFFFFFFFFFFFFFFFF AND PUSH20 0xFFFFFFFFFFFFFFFFFFFFFFFFFFFFFFFFFFFFFFFF AND DUP2 MSTORE PUSH1 0x20 ADD SWAP1 DUP2 MSTORE PUSH1 0x20 ADD PUSH0 KECCAK256 PUSH0 SWAP1 SLOAD SWAP1 PUSH2 0x100 EXP SWAP1 DIV PUSH20 0xFFFFFFFFFFFFFFFFFFFFFFFFFFFFFFFFFFFFFFFF AND PUSH20 0xFFFFFFFFFFFFFFFFFFFFFFFFFFFFFFFFFFFFFFFF AND EQ PUSH2 0x1076 JUMPI PUSH1 0x40 MLOAD PUSH32 0x8C379A000000000000000000000000000000000000000000000000000000000 DUP2 MSTORE PUSH1 0x4 ADD PUSH2 0x106D SWAP1 PUSH2 0x1864 JUMP JUMPDEST PUSH1 0x40 MLOAD DUP1 SWAP2 SUB SWAP1 REVERT JUMPDEST DUP1 DUP1 PUSH1 0x1 ADD SWAP2 POP POP PUSH2 0xF7A JUMP JUMPDEST POP PUSH1 0x2 PUSH0 SWAP1 SLOAD SWAP1 PUSH2 0x100 EXP SWAP1 DIV PUSH20 0xFFFFFFFFFFFFFFFFFFFFFFFFFFFFFFFFFFFFFFFF AND PUSH20 0xFFFFFFFFFFFFFFFFFFFFFFFFFFFFFFFFFFFFFFFF AND PUSH4 0xF996868B DUP7 DUP7 DUP7 DUP7 DUP7 PUSH1 0x40 MLOAD DUP7 PUSH4 0xFFFFFFFF AND PUSH1 0xE0 SHL DUP2 MSTORE PUSH1 0x4 ADD PUSH2 0x10E6 SWAP6 SWAP5 SWAP4 SWAP3 SWAP2 SWAP1 PUSH2 0x1DA6 JUMP JUMPDEST PUSH0 PUSH1 0x40 MLOAD DUP1 DUP4 SUB DUP2 PUSH0 DUP8 DUP1 EXTCODESIZE ISZERO DUP1 ISZERO PUSH2 0x10FD JUMPI PUSH0 DUP1 REVERT JUMPDEST POP GAS CALL ISZERO DUP1 ISZERO PUSH2 0x110F JUMPI RETURNDATASIZE PUSH0 DUP1 RETURNDATACOPY RETURNDATASIZE PUSH0 REVERT JUMPDEST POP POP POP POP POP POP POP POP POP JUMP JUMPDEST PUSH0 CALLER SWAP1 POP SWAP1 JUMP JUMPDEST PUSH0 PUSH1 0x40 MLOAD SWAP1 POP SWAP1 JUMP JUMPDEST PUSH0 DUP1 REVERT JUMPDEST PUSH0 DUP1 REVERT JUMPDEST PUSH0 PUSH20 0xFFFFFFFFFFFFFFFFFFFFFFFFFFFFFFFFFFFFFFFF DUP3 AND SWAP1 POP SWAP2 SWAP1 POP JUMP JUMPDEST PUSH0 PUSH2 0x115B DUP3 PUSH2 0x1132 JUMP JUMPDEST SWAP1 POP SWAP2 SWAP1 POP JUMP JUMPDEST PUSH2 0x116B DUP2 PUSH2 0x1151 JUMP JUMPDEST DUP2 EQ PUSH2 0x1175 JUMPI PUSH0 DUP1 REVERT JUMPDEST POP JUMP JUMPDEST PUSH0 DUP2 CALLDATALOAD SWAP1 POP PUSH2 0x1186 DUP2 PUSH2 0x1162 JUMP JUMPDEST SWAP3 SWAP2 POP POP JUMP JUMPDEST PUSH0 PUSH1 0x20 DUP3 DUP5 SUB SLT ISZERO PUSH2 0x11A1 JUMPI PUSH2 0x11A0 PUSH2 0x112A JUMP JUMPDEST JUMPDEST PUSH0 PUSH2 0x11AE DUP5 DUP3 DUP6 ADD PUSH2 0x1178 JUMP JUMPDEST SWAP2 POP POP SWAP3 SWAP2 POP POP JUMP JUMPDEST PUSH2 0x11C0 DUP2 PUSH2 0x1151 JUMP JUMPDEST DUP3 MSTORE POP POP JUMP JUMPDEST PUSH0 PUSH1 0x20 DUP3 ADD SWAP1 POP PUSH2 0x11D9 PUSH0 DUP4 ADD DUP5 PUSH2 0x11B7 JUMP JUMPDEST SWAP3 SWAP2 POP POP JUMP JUMPDEST PUSH0 PUSH2 0x11E9 DUP3 PUSH2 0x1151 JUMP JUMPDEST SWAP1 POP SWAP2 SWAP1 POP JUMP JUMPDEST PUSH2 0x11F9 DUP2 PUSH2 0x11DF JUMP JUMPDEST DUP2 EQ PUSH2 0x1203 JUMPI PUSH0 DUP1 REVERT JUMPDEST POP JUMP JUMPDEST PUSH0 DUP2 CALLDATALOAD SWAP1 POP PUSH2 0x1214 DUP2 PUSH2 0x11F0 JUMP JUMPDEST SWAP3 SWAP2 POP POP JUMP JUMPDEST PUSH0 DUP1 PUSH1 0x40 DUP4 DUP6 SUB SLT ISZERO PUSH2 0x1230 JUMPI PUSH2 0x122F PUSH2 0x112A JUMP JUMPDEST JUMPDEST PUSH0 PUSH2 0x123D DUP6 DUP3 DUP7 ADD PUSH2 0x1178 JUMP JUMPDEST SWAP3 POP POP PUSH1 0x20 PUSH2 0x124E DUP6 DUP3 DUP7 ADD PUSH2 0x1206 JUMP JUMPDEST SWAP2 POP POP SWAP3 POP SWAP3 SWAP1 POP JUMP JUMPDEST PUSH0 DUP1 REVERT JUMPDEST PUSH0 PUSH1 0x1F NOT PUSH1 0x1F DUP4 ADD AND SWAP1 POP SWAP2 SWAP1 POP JUMP JUMPDEST PUSH32 0x4E487B7100000000000000000000000000000000000000000000000000000000 PUSH0 MSTORE PUSH1 0x41 PUSH1 0x4 MSTORE PUSH1 0x24 PUSH0 REVERT JUMPDEST PUSH2 0x12A2 DUP3 PUSH2 0x125C JUMP JUMPDEST DUP2 ADD DUP2 DUP2 LT PUSH8 0xFFFFFFFFFFFFFFFF DUP3 GT OR ISZERO PUSH2 0x12C1 JUMPI PUSH2 0x12C0 PUSH2 0x126C JUMP JUMPDEST JUMPDEST DUP1 PUSH1 0x40 MSTORE POP POP POP JUMP JUMPDEST PUSH0 PUSH2 0x12D3 PUSH2 0x1121 JUMP JUMPDEST SWAP1 POP PUSH2 0x12DF DUP3 DUP3 PUSH2 0x1299 JUMP JUMPDEST SWAP2 SWAP1 POP JUMP JUMPDEST PUSH0 PUSH8 0xFFFFFFFFFFFFFFFF DUP3 GT ISZERO PUSH2 0x12FE JUMPI PUSH2 0x12FD PUSH2 0x126C JUMP JUMPDEST JUMPDEST PUSH1 0x20 DUP3 MUL SWAP1 POP PUSH1 0x20 DUP2 ADD SWAP1 POP SWAP2 SWAP1 POP JUMP JUMPDEST PUSH0 DUP1 REVERT JUMPDEST PUSH0 DUP1 REVERT JUMPDEST PUSH0 PUSH11 0xFFFFFFFFFFFFFFFFFFFFFF DUP3 AND SWAP1 POP SWAP2 SWAP1 POP JUMP JUMPDEST PUSH2 0x1336 DUP2 PUSH2 0x1317 JUMP JUMPDEST DUP2 EQ PUSH2 0x1340 JUMPI PUSH0 DUP1 REVERT JUMPDEST POP JUMP JUMPDEST PUSH0 DUP2 CALLDATALOAD SWAP1 POP PUSH2 0x1351 DUP2 PUSH2 0x132D JUMP JUMPDEST SWAP3 SWAP2 POP POP JUMP JUMPDEST PUSH0 DUP2 SWAP1 POP SWAP2 SWAP1 POP JUMP JUMPDEST PUSH2 0x1369 DUP2 PUSH2 0x1357 JUMP JUMPDEST DUP2 EQ PUSH2 0x1373 JUMPI PUSH0 DUP1 REVERT JUMPDEST POP JUMP JUMPDEST PUSH0 DUP2 CALLDATALOAD SWAP1 POP PUSH2 0x1384 DUP2 PUSH2 0x1360 JUMP JUMPDEST SWAP3 SWAP2 POP POP JUMP JUMPDEST PUSH0 PUSH4 0xFFFFFFFF DUP3 AND SWAP1 POP SWAP2 SWAP1 POP JUMP JUMPDEST PUSH2 0x13A2 DUP2 PUSH2 0x138A JUMP JUMPDEST DUP2 EQ PUSH2 0x13AC JUMPI PUSH0 DUP1 REVERT JUMPDEST POP JUMP JUMPDEST PUSH0 DUP2 CALLDATALOAD SWAP1 POP PUSH2 0x13BD DUP2 PUSH2 0x1399 JUMP JUMPDEST SWAP3 SWAP2 POP POP JUMP JUMPDEST PUSH0 PUSH2 0x13CD DUP3 PUSH2 0x1151 JUMP JUMPDEST SWAP1 POP SWAP2 SWAP1 POP JUMP JUMPDEST PUSH2 0x13DD DUP2 PUSH2 0x13C3 JUMP JUMPDEST DUP2 EQ PUSH2 0x13E7 JUMPI PUSH0 DUP1 REVERT JUMPDEST POP JUMP JUMPDEST PUSH0 DUP2 CALLDATALOAD SWAP1 POP PUSH2 0x13F8 DUP2 PUSH2 0x13D4 JUMP JUMPDEST SWAP3 SWAP2 POP POP JUMP JUMPDEST PUSH0 PUSH1 0xE0 DUP3 DUP5 SUB SLT ISZERO PUSH2 0x1413 JUMPI PUSH2 0x1412 PUSH2 0x1313 JUMP JUMPDEST JUMPDEST PUSH2 0x141D PUSH1 0xE0 PUSH2 0x12CA JUMP JUMPDEST SWAP1 POP PUSH0 PUSH2 0x142C DUP5 DUP3 DUP6 ADD PUSH2 0x1343 JUMP JUMPDEST PUSH0 DUP4 ADD MSTORE POP PUSH1 0x20 PUSH2 0x143F DUP5 DUP3 DUP6 ADD PUSH2 0x1376 JUMP JUMPDEST PUSH1 0x20 DUP4 ADD MSTORE POP PUSH1 0x40 PUSH2 0x1453 DUP5 DUP3 DUP6 ADD PUSH2 0x13AF JUMP JUMPDEST PUSH1 0x40 DUP4 ADD MSTORE POP PUSH1 0x60 PUSH2 0x1467 DUP5 DUP3 DUP6 ADD PUSH2 0x1178 JUMP JUMPDEST PUSH1 0x60 DUP4 ADD MSTORE POP PUSH1 0x80 PUSH2 0x147B DUP5 DUP3 DUP6 ADD PUSH2 0x1178 JUMP JUMPDEST PUSH1 0x80 DUP4 ADD MSTORE POP PUSH1 0xA0 PUSH2 0x148F DUP5 DUP3 DUP6 ADD PUSH2 0x13EA JUMP JUMPDEST PUSH1 0xA0 DUP4 ADD MSTORE POP PUSH1 0xC0 PUSH2 0x14A3 DUP5 DUP3 DUP6 ADD PUSH2 0x1206 JUMP JUMPDEST PUSH1 0xC0 DUP4 ADD MSTORE POP SWAP3 SWAP2 POP POP JUMP JUMPDEST PUSH0 PUSH2 0x14C1 PUSH2 0x14BC DUP5 PUSH2 0x12E4 JUMP JUMPDEST PUSH2 0x12CA JUMP JUMPDEST SWAP1 POP DUP1 DUP4 DUP3 MSTORE PUSH1 0x20 DUP3 ADD SWAP1 POP PUSH1 0xE0 DUP5 MUL DUP4 ADD DUP6 DUP2 GT ISZERO PUSH2 0x14E4 JUMPI PUSH2 0x14E3 PUSH2 0x130F JUMP JUMPDEST JUMPDEST DUP4 JUMPDEST DUP2 DUP2 LT ISZERO PUSH2 0x150D JUMPI DUP1 PUSH2 0x14F9 DUP9 DUP3 PUSH2 0x13FE JUMP JUMPDEST DUP5 MSTORE PUSH1 0x20 DUP5 ADD SWAP4 POP POP PUSH1 0xE0 DUP2 ADD SWAP1 POP PUSH2 0x14E6 JUMP JUMPDEST POP POP POP SWAP4 SWAP3 POP POP POP JUMP JUMPDEST PUSH0 DUP3 PUSH1 0x1F DUP4 ADD SLT PUSH2 0x152B JUMPI PUSH2 0x152A PUSH2 0x1258 JUMP JUMPDEST JUMPDEST DUP2 CALLDATALOAD PUSH2 0x153B DUP5 DUP3 PUSH1 0x20 DUP7 ADD PUSH2 0x14AF JUMP JUMPDEST SWAP2 POP POP SWAP3 SWAP2 POP POP JUMP JUMPDEST PUSH0 PUSH1 0x20 DUP3 DUP5 SUB SLT ISZERO PUSH2 0x1559 JUMPI PUSH2 0x1558 PUSH2 0x112A JUMP JUMPDEST JUMPDEST PUSH0 DUP3 ADD CALLDATALOAD PUSH8 0xFFFFFFFFFFFFFFFF DUP2 GT ISZERO PUSH2 0x1576 JUMPI PUSH2 0x1575 PUSH2 0x112E JUMP JUMPDEST JUMPDEST PUSH2 0x1582 DUP5 DUP3 DUP6 ADD PUSH2 0x1517 JUMP JUMPDEST SWAP2 POP POP SWAP3 SWAP2 POP POP JUMP JUMPDEST PUSH0 DUP1 PUSH1 0x40 DUP4 DUP6 SUB SLT ISZERO PUSH2 0x15A1 JUMPI PUSH2 0x15A0 PUSH2 0x112A JUMP JUMPDEST JUMPDEST PUSH0 PUSH2 0x15AE DUP6 DUP3 DUP7 ADD PUSH2 0x1178 JUMP JUMPDEST SWAP3 POP POP PUSH1 0x20 PUSH2 0x15BF DUP6 DUP3 DUP7 ADD PUSH2 0x1178 JUMP JUMPDEST SWAP2 POP POP SWAP3 POP SWAP3 SWAP1 POP JUMP JUMPDEST PUSH0 DUP1 PUSH0 PUSH1 0x60 DUP5 DUP7 SUB SLT ISZERO PUSH2 0x15E0 JUMPI PUSH2 0x15DF PUSH2 0x112A JUMP JUMPDEST JUMPDEST PUSH0 PUSH2 0x15ED DUP7 DUP3 DUP8 ADD PUSH2 0x1178 JUMP JUMPDEST SWAP4 POP POP PUSH1 0x20 PUSH2 0x15FE DUP7 DUP3 DUP8 ADD PUSH2 0x1178 JUMP JUMPDEST SWAP3 POP POP PUSH1 0x40 PUSH2 0x160F DUP7 DUP3 DUP8 ADD PUSH2 0x13AF JUMP JUMPDEST SWAP2 POP POP SWAP3 POP SWAP3 POP SWAP3 JUMP JUMPDEST PUSH0 DUP2 SWAP1 POP SWAP2 SWAP1 POP JUMP JUMPDEST PUSH0 PUSH2 0x163C PUSH2 0x1637 PUSH2 0x1632 DUP5 PUSH2 0x1132 JUMP JUMPDEST PUSH2 0x1619 JUMP JUMPDEST PUSH2 0x1132 JUMP JUMPDEST SWAP1 POP SWAP2 SWAP1 POP JUMP JUMPDEST PUSH0 PUSH2 0x164D DUP3 PUSH2 0x1622 JUMP JUMPDEST SWAP1 POP SWAP2 SWAP1 POP JUMP JUMPDEST PUSH0 PUSH2 0x165E DUP3 PUSH2 0x1643 JUMP JUMPDEST SWAP1 POP SWAP2 SWAP1 POP JUMP JUMPDEST PUSH2 0x166E DUP2 PUSH2 0x1654 JUMP JUMPDEST DUP3 MSTORE POP POP JUMP JUMPDEST PUSH0 PUSH1 0x20 DUP3 ADD SWAP1 POP PUSH2 0x1687 PUSH0 DUP4 ADD DUP5 PUSH2 0x1665 JUMP JUMPDEST SWAP3 SWAP2 POP POP JUMP JUMPDEST PUSH0 DUP1 PUSH1 0x40 DUP4 DUP6 SUB SLT ISZERO PUSH2 0x16A3 JUMPI PUSH2 0x16A2 PUSH2 0x112A JUMP JUMPDEST JUMPDEST PUSH0 PUSH2 0x16B0 DUP6 DUP3 DUP7 ADD PUSH2 0x1178 JUMP JUMPDEST SWAP3 POP POP PUSH1 0x20 PUSH2 0x16C1 DUP6 DUP3 DUP7 ADD PUSH2 0x13EA JUMP JUMPDEST SWAP2 POP POP SWAP3 POP SWAP3 SWAP1 POP JUMP JUMPDEST PUSH0 DUP1 REVERT JUMPDEST PUSH0 DUP1 DUP4 PUSH1 0x1F DUP5 ADD SLT PUSH2 0x16E4 JUMPI PUSH2 0x16E3 PUSH2 0x1258 JUMP JUMPDEST JUMPDEST DUP3 CALLDATALOAD SWAP1 POP PUSH8 0xFFFFFFFFFFFFFFFF DUP2 GT ISZERO PUSH2 0x1701 JUMPI PUSH2 0x1700 PUSH2 0x16CB JUMP JUMPDEST JUMPDEST PUSH1 0x20 DUP4 ADD SWAP2 POP DUP4 PUSH1 0x20 DUP3 MUL DUP4 ADD GT ISZERO PUSH2 0x171D JUMPI PUSH2 0x171C PUSH2 0x130F JUMP JUMPDEST JUMPDEST SWAP3 POP SWAP3 SWAP1 POP JUMP JUMPDEST PUSH0 DUP1 DUP4 PUSH1 0x1F DUP5 ADD SLT PUSH2 0x1739 JUMPI PUSH2 0x1738 PUSH2 0x1258 JUMP JUMPDEST JUMPDEST DUP3 CALLDATALOAD SWAP1 POP PUSH8 0xFFFFFFFFFFFFFFFF DUP2 GT ISZERO PUSH2 0x1756 JUMPI PUSH2 0x1755 PUSH2 0x16CB JUMP JUMPDEST JUMPDEST PUSH1 0x20 DUP4 ADD SWAP2 POP DUP4 PUSH1 0x20 DUP3 MUL DUP4 ADD GT ISZERO PUSH2 0x1772 JUMPI PUSH2 0x1771 PUSH2 0x130F JUMP JUMPDEST JUMPDEST SWAP3 POP SWAP3 SWAP1 POP JUMP JUMPDEST PUSH0 DUP1 PUSH0 DUP1 PUSH0 PUSH1 0x60 DUP7 DUP9 SUB SLT ISZERO PUSH2 0x1792 JUMPI PUSH2 0x1791 PUSH2 0x112A JUMP JUMPDEST JUMPDEST PUSH0 PUSH2 0x179F DUP9 DUP3 DUP10 ADD PUSH2 0x1178 JUMP JUMPDEST SWAP6 POP POP PUSH1 0x20 DUP7 ADD CALLDATALOAD PUSH8 0xFFFFFFFFFFFFFFFF DUP2 GT ISZERO PUSH2 0x17C0 JUMPI PUSH2 0x17BF PUSH2 0x112E JUMP JUMPDEST JUMPDEST PUSH2 0x17CC DUP9 DUP3 DUP10 ADD PUSH2 0x16CF JUMP JUMPDEST SWAP5 POP SWAP5 POP POP PUSH1 0x40 DUP7 ADD CALLDATALOAD PUSH8 0xFFFFFFFFFFFFFFFF DUP2 GT ISZERO PUSH2 0x17EF JUMPI PUSH2 0x17EE PUSH2 0x112E JUMP JUMPDEST JUMPDEST PUSH2 0x17FB DUP9 DUP3 DUP10 ADD PUSH2 0x1724 JUMP JUMPDEST SWAP3 POP SWAP3 POP POP SWAP3 SWAP6 POP SWAP3 SWAP6 SWAP1 SWAP4 POP JUMP JUMPDEST PUSH0 DUP3 DUP3 MSTORE PUSH1 0x20 DUP3 ADD SWAP1 POP SWAP3 SWAP2 POP POP JUMP JUMPDEST PUSH32 0x4F4E4C595F454D495353494F4E5F41444D494E00000000000000000000000000 PUSH0 DUP3 ADD MSTORE POP JUMP JUMPDEST PUSH0 PUSH2 0x184E PUSH1 0x13 DUP4 PUSH2 0x180A JUMP JUMPDEST SWAP2 POP PUSH2 0x1859 DUP3 PUSH2 0x181A JUMP JUMPDEST PUSH1 0x20 DUP3 ADD SWAP1 POP SWAP2 SWAP1 POP JUMP JUMPDEST PUSH0 PUSH1 0x20 DUP3 ADD SWAP1 POP DUP2 DUP2 SUB PUSH0 DUP4 ADD MSTORE PUSH2 0x187B DUP2 PUSH2 0x1842 JUMP JUMPDEST SWAP1 POP SWAP2 SWAP1 POP JUMP JUMPDEST PUSH0 PUSH2 0x188C DUP3 PUSH2 0x1643 JUMP JUMPDEST SWAP1 POP SWAP2 SWAP1 POP JUMP JUMPDEST PUSH2 0x189C DUP2 PUSH2 0x1882 JUMP JUMPDEST DUP3 MSTORE POP POP JUMP JUMPDEST PUSH0 PUSH1 0x40 DUP3 ADD SWAP1 POP PUSH2 0x18B5 PUSH0 DUP4 ADD DUP6 PUSH2 0x11B7 JUMP JUMPDEST PUSH2 0x18C2 PUSH1 0x20 DUP4 ADD DUP5 PUSH2 0x1893 JUMP JUMPDEST SWAP4 SWAP3 POP POP POP JUMP JUMPDEST PUSH32 0x4F776E61626C653A2063616C6C6572206973206E6F7420746865206F776E6572 PUSH0 DUP3 ADD MSTORE POP JUMP JUMPDEST PUSH0 PUSH2 0x18FD PUSH1 0x20 DUP4 PUSH2 0x180A JUMP JUMPDEST SWAP2 POP PUSH2 0x1908 DUP3 PUSH2 0x18C9 JUMP JUMPDEST PUSH1 0x20 DUP3 ADD SWAP1 POP SWAP2 SWAP1 POP JUMP JUMPDEST PUSH0 PUSH1 0x20 DUP3 ADD SWAP1 POP DUP2 DUP2 SUB PUSH0 DUP4 ADD MSTORE PUSH2 0x192A DUP2 PUSH2 0x18F1 JUMP JUMPDEST SWAP1 POP SWAP2 SWAP1 POP JUMP JUMPDEST PUSH32 0x4E487B7100000000000000000000000000000000000000000000000000000000 PUSH0 MSTORE PUSH1 0x32 PUSH1 0x4 MSTORE PUSH1 0x24 PUSH0 REVERT JUMPDEST PUSH0 DUP2 MLOAD SWAP1 POP SWAP2 SWAP1 POP JUMP JUMPDEST PUSH0 DUP3 DUP3 MSTORE PUSH1 0x20 DUP3 ADD SWAP1 POP SWAP3 SWAP2 POP POP JUMP JUMPDEST PUSH0 DUP2 SWAP1 POP PUSH1 0x20 DUP3 ADD SWAP1 POP SWAP2 SWAP1 POP JUMP JUMPDEST PUSH2 0x1990 DUP2 PUSH2 0x1317 JUMP JUMPDEST DUP3 MSTORE POP POP JUMP JUMPDEST PUSH2 0x199F DUP2 PUSH2 0x1357 JUMP JUMPDEST DUP3 MSTORE POP POP JUMP JUMPDEST PUSH2 0x19AE DUP2 PUSH2 0x138A JUMP JUMPDEST DUP3 MSTORE POP POP JUMP JUMPDEST PUSH2 0x19BD DUP2 PUSH2 0x1151 JUMP JUMPDEST DUP3 MSTORE POP POP JUMP JUMPDEST PUSH0 PUSH2 0x19CD DUP3 PUSH2 0x1643 JUMP JUMPDEST SWAP1 POP SWAP2 SWAP1 POP JUMP JUMPDEST PUSH2 0x19DD DUP2 PUSH2 0x19C3 JUMP JUMPDEST DUP3 MSTORE POP POP JUMP JUMPDEST PUSH2 0x19EC DUP2 PUSH2 0x1882 JUMP JUMPDEST DUP3 MSTORE POP POP JUMP JUMPDEST PUSH1 0xE0 DUP3 ADD PUSH0 DUP3 ADD MLOAD PUSH2 0x1A06 PUSH0 DUP6 ADD DUP3 PUSH2 0x1987 JUMP JUMPDEST POP PUSH1 0x20 DUP3 ADD MLOAD PUSH2 0x1A19 PUSH1 0x20 DUP6 ADD DUP3 PUSH2 0x1996 JUMP JUMPDEST POP PUSH1 0x40 DUP3 ADD MLOAD PUSH2 0x1A2C PUSH1 0x40 DUP6 ADD DUP3 PUSH2 0x19A5 JUMP JUMPDEST POP PUSH1 0x60 DUP3 ADD MLOAD PUSH2 0x1A3F PUSH1 0x60 DUP6 ADD DUP3 PUSH2 0x19B4 JUMP JUMPDEST POP PUSH1 0x80 DUP3 ADD MLOAD PUSH2 0x1A52 PUSH1 0x80 DUP6 ADD DUP3 PUSH2 0x19B4 JUMP JUMPDEST POP PUSH1 0xA0 DUP3 ADD MLOAD PUSH2 0x1A65 PUSH1 0xA0 DUP6 ADD DUP3 PUSH2 0x19D4 JUMP JUMPDEST POP PUSH1 0xC0 DUP3 ADD MLOAD PUSH2 0x1A78 PUSH1 0xC0 DUP6 ADD DUP3 PUSH2 0x19E3 JUMP JUMPDEST POP POP POP POP JUMP JUMPDEST PUSH0 PUSH2 0x1A89 DUP4 DUP4 PUSH2 0x19F2 JUMP JUMPDEST PUSH1 0xE0 DUP4 ADD SWAP1 POP SWAP3 SWAP2 POP POP JUMP JUMPDEST PUSH0 PUSH1 0x20 DUP3 ADD SWAP1 POP SWAP2 SWAP1 POP JUMP JUMPDEST PUSH0 PUSH2 0x1AAB DUP3 PUSH2 0x195E JUMP JUMPDEST PUSH2 0x1AB5 DUP2 DUP6 PUSH2 0x1968 JUMP JUMPDEST SWAP4 POP PUSH2 0x1AC0 DUP4 PUSH2 0x1978 JUMP JUMPDEST DUP1 PUSH0 JUMPDEST DUP4 DUP2 LT ISZERO PUSH2 0x1AF0 JUMPI DUP2 MLOAD PUSH2 0x1AD7 DUP9 DUP3 PUSH2 0x1A7E JUMP JUMPDEST SWAP8 POP PUSH2 0x1AE2 DUP4 PUSH2 0x1A95 JUMP JUMPDEST SWAP3 POP POP PUSH1 0x1 DUP2 ADD SWAP1 POP PUSH2 0x1AC3 JUMP JUMPDEST POP DUP6 SWAP4 POP POP POP POP SWAP3 SWAP2 POP POP JUMP JUMPDEST PUSH0 PUSH1 0x20 DUP3 ADD SWAP1 POP DUP2 DUP2 SUB PUSH0 DUP4 ADD MSTORE PUSH2 0x1B15 DUP2 DUP5 PUSH2 0x1AA1 JUMP JUMPDEST SWAP1 POP SWAP3 SWAP2 POP POP JUMP JUMPDEST PUSH2 0x1B26 DUP2 PUSH2 0x138A JUMP JUMPDEST DUP3 MSTORE POP POP JUMP JUMPDEST PUSH0 PUSH1 0x60 DUP3 ADD SWAP1 POP PUSH2 0x1B3F PUSH0 DUP4 ADD DUP7 PUSH2 0x11B7 JUMP JUMPDEST PUSH2 0x1B4C PUSH1 0x20 DUP4 ADD DUP6 PUSH2 0x11B7 JUMP JUMPDEST PUSH2 0x1B59 PUSH1 0x40 DUP4 ADD DUP5 PUSH2 0x1B1D JUMP JUMPDEST SWAP5 SWAP4 POP POP POP POP JUMP JUMPDEST PUSH2 0x1B6A DUP2 PUSH2 0x19C3 JUMP JUMPDEST DUP3 MSTORE POP POP JUMP JUMPDEST PUSH0 PUSH1 0x40 DUP3 ADD SWAP1 POP PUSH2 0x1B83 PUSH0 DUP4 ADD DUP6 PUSH2 0x11B7 JUMP JUMPDEST PUSH2 0x1B90 PUSH1 0x20 DUP4 ADD DUP5 PUSH2 0x1B61 JUMP JUMPDEST SWAP4 SWAP3 POP POP POP JUMP JUMPDEST PUSH32 0x4F776E61626C653A206E6577206F776E657220697320746865207A65726F2061 PUSH0 DUP3 ADD MSTORE PUSH32 0x6464726573730000000000000000000000000000000000000000000000000000 PUSH1 0x20 DUP3 ADD MSTORE POP JUMP JUMPDEST PUSH0 PUSH2 0x1BF1 PUSH1 0x26 DUP4 PUSH2 0x180A JUMP JUMPDEST SWAP2 POP PUSH2 0x1BFC DUP3 PUSH2 0x1B97 JUMP JUMPDEST PUSH1 0x40 DUP3 ADD SWAP1 POP SWAP2 SWAP1 POP JUMP JUMPDEST PUSH0 PUSH1 0x20 DUP3 ADD SWAP1 POP DUP2 DUP2 SUB PUSH0 DUP4 ADD MSTORE PUSH2 0x1C1E DUP2 PUSH2 0x1BE5 JUMP JUMPDEST SWAP1 POP SWAP2 SWAP1 POP JUMP JUMPDEST PUSH0 PUSH1 0x40 DUP3 ADD SWAP1 POP PUSH2 0x1C38 PUSH0 DUP4 ADD DUP6 PUSH2 0x11B7 JUMP JUMPDEST PUSH2 0x1C45 PUSH1 0x20 DUP4 ADD DUP5 PUSH2 0x11B7 JUMP JUMPDEST SWAP4 SWAP3 POP POP POP JUMP JUMPDEST PUSH0 DUP3 DUP3 MSTORE PUSH1 0x20 DUP3 ADD SWAP1 POP SWAP3 SWAP2 POP POP JUMP JUMPDEST PUSH0 DUP2 SWAP1 POP SWAP2 SWAP1 POP JUMP JUMPDEST PUSH0 PUSH2 0x1C70 DUP4 DUP4 PUSH2 0x19B4 JUMP JUMPDEST PUSH1 0x20 DUP4 ADD SWAP1 POP SWAP3 SWAP2 POP POP JUMP JUMPDEST PUSH0 PUSH2 0x1C8A PUSH1 0x20 DUP5 ADD DUP5 PUSH2 0x1178 JUMP JUMPDEST SWAP1 POP SWAP3 SWAP2 POP POP JUMP JUMPDEST PUSH0 PUSH1 0x20 DUP3 ADD SWAP1 POP SWAP2 SWAP1 POP JUMP JUMPDEST PUSH0 PUSH2 0x1CA9 DUP4 DUP6 PUSH2 0x1C4C JUMP JUMPDEST SWAP4 POP PUSH2 0x1CB4 DUP3 PUSH2 0x1C5C JUMP JUMPDEST DUP1 PUSH0 JUMPDEST DUP6 DUP2 LT ISZERO PUSH2 0x1CEC JUMPI PUSH2 0x1CC9 DUP3 DUP5 PUSH2 0x1C7C JUMP JUMPDEST PUSH2 0x1CD3 DUP9 DUP3 PUSH2 0x1C65 JUMP JUMPDEST SWAP8 POP PUSH2 0x1CDE DUP4 PUSH2 0x1C92 JUMP JUMPDEST SWAP3 POP POP PUSH1 0x1 DUP2 ADD SWAP1 POP PUSH2 0x1CB7 JUMP JUMPDEST POP DUP6 SWAP3 POP POP POP SWAP4 SWAP3 POP POP POP JUMP JUMPDEST PUSH0 DUP3 DUP3 MSTORE PUSH1 0x20 DUP3 ADD SWAP1 POP SWAP3 SWAP2 POP POP JUMP JUMPDEST PUSH0 DUP2 SWAP1 POP SWAP2 SWAP1 POP JUMP JUMPDEST PUSH0 PUSH2 0x1D1D DUP4 DUP4 PUSH2 0x1987 JUMP JUMPDEST PUSH1 0x20 DUP4 ADD SWAP1 POP SWAP3 SWAP2 POP POP JUMP JUMPDEST PUSH0 PUSH2 0x1D37 PUSH1 0x20 DUP5 ADD DUP5 PUSH2 0x1343 JUMP JUMPDEST SWAP1 POP SWAP3 SWAP2 POP POP JUMP JUMPDEST PUSH0 PUSH1 0x20 DUP3 ADD SWAP1 POP SWAP2 SWAP1 POP JUMP JUMPDEST PUSH0 PUSH2 0x1D56 DUP4 DUP6 PUSH2 0x1CF9 JUMP JUMPDEST SWAP4 POP PUSH2 0x1D61 DUP3 PUSH2 0x1D09 JUMP JUMPDEST DUP1 PUSH0 JUMPDEST DUP6 DUP2 LT ISZERO PUSH2 0x1D99 JUMPI PUSH2 0x1D76 DUP3 DUP5 PUSH2 0x1D29 JUMP JUMPDEST PUSH2 0x1D80 DUP9 DUP3 PUSH2 0x1D12 JUMP JUMPDEST SWAP8 POP PUSH2 0x1D8B DUP4 PUSH2 0x1D3F JUMP JUMPDEST SWAP3 POP POP PUSH1 0x1 DUP2 ADD SWAP1 POP PUSH2 0x1D64 JUMP JUMPDEST POP DUP6 SWAP3 POP POP POP SWAP4 SWAP3 POP POP POP JUMP JUMPDEST PUSH0 PUSH1 0x60 DUP3 ADD SWAP1 POP PUSH2 0x1DB9 PUSH0 DUP4 ADD DUP9 PUSH2 0x11B7 JUMP JUMPDEST DUP2 DUP2 SUB PUSH1 0x20 DUP4 ADD MSTORE PUSH2 0x1DCC DUP2 DUP7 DUP9 PUSH2 0x1C9E JUMP JUMPDEST SWAP1 POP DUP2 DUP2 SUB PUSH1 0x40 DUP4 ADD MSTORE PUSH2 0x1DE1 DUP2 DUP5 DUP7 PUSH2 0x1D4B JUMP JUMPDEST SWAP1 POP SWAP7 SWAP6 POP POP POP POP POP POP JUMP INVALID LOG2 PUSH5 0x6970667358 0x22 SLT KECCAK256 SWAP3 SMOD 0x2C 0xCA DELEGATECALL 0xBC 0xA5 SWAP13 0xD7 LOG4 0x4D 0xB1 ADD PUSH17 0x84AC3946EFF9EE23387BAB08038344DAB6 0xB2 PUSH5 0x736F6C6343 STOP ADDMOD BYTE STOP CALLER "
				},
				"gasEstimates": {
					"creation": {
						"codeDepositCost": "1543000",
						"executionCost": "infinite",
						"totalCost": "infinite"
					},
					"external": {
						"configureAssets((uint88,uint256,uint32,address,address,address,address)[])": "infinite",
						"getEmissionAdmin(address)": "infinite",
						"getRewardsController()": "infinite",
						"owner()": "2582",
						"renounceOwnership()": "30329",
						"setClaimer(address,address)": "infinite",
						"setDistributionEnd(address,address,uint32)": "infinite",
						"setEmissionAdmin(address,address)": "infinite",
						"setEmissionPerSecond(address,address[],uint88[])": "infinite",
						"setRewardOracle(address,address)": "infinite",
						"setRewardsController(address)": "26938",
						"setTransferStrategy(address,address)": "infinite",
						"transferOwnership(address)": "30670"
					}
				},
				"methodIdentifiers": {
					"configureAssets((uint88,uint256,uint32,address,address,address,address)[])": "955c2ad7",
					"getEmissionAdmin(address)": "529b1e87",
					"getRewardsController()": "de262738",
					"owner()": "8da5cb5b",
					"renounceOwnership()": "715018a6",
					"setClaimer(address,address)": "f5cf673b",
					"setDistributionEnd(address,address,uint32)": "c5a7b538",
					"setEmissionAdmin(address,address)": "a286c6b4",
					"setEmissionPerSecond(address,address[],uint88[])": "f996868b",
					"setRewardOracle(address,address)": "5453ba10",
					"setRewardsController(address)": "bee36bb3",
					"setTransferStrategy(address,address)": "e15ac623",
					"transferOwnership(address)": "f2fde38b"
				}
			},
			"storageLayout": {
				"storage": [
					{
						"astId": 33,
						"contract": "contracts/rewards/EmissionManager.sol:EmissionManager",
						"label": "_owner",
						"offset": 0,
						"slot": "0",
						"type": "t_address"
					},
					{
						"astId": 208,
						"contract": "contracts/rewards/EmissionManager.sol:EmissionManager",
						"label": "_emissionAdmins",
						"offset": 0,
						"slot": "1",
						"type": "t_mapping(t_address,t_address)"
					},
					{
						"astId": 211,
						"contract": "contracts/rewards/EmissionManager.sol:EmissionManager",
						"label": "_rewardsController",
						"offset": 0,
						"slot": "2",
						"type": "t_contract(IRewardsController)796"
					}
				],
				"types": {
					"t_address": {
						"encoding": "inplace",
						"label": "address",
						"numberOfBytes": "20"
					},
					"t_contract(IRewardsController)796": {
						"encoding": "inplace",
						"label": "contract IRewardsController",
						"numberOfBytes": "20"
					},
					"t_mapping(t_address,t_address)": {
						"encoding": "mapping",
						"key": "t_address",
						"label": "mapping(address => address)",
						"numberOfBytes": "32",
						"value": "t_address"
					}
				}
			},
			"userdoc": {
				"kind": "user",
				"methods": {
					"constructor": {
						"notice": "Constructor."
					},
					"setRewardOracle(address,address)": {
						"notice": "At the moment of reward configuration, the Incentives Controller performs a check to see if the reward asset oracle is compatible with IEACAggregator proxy. This check is enforced for integrators to be able to show incentives at the current Aave UI without the need to setup an external price registry"
					}
				},
				"notice": "It manages the list of admins of reward emissions and provides functions to control reward emissions.",
				"version": 1
			}
		}
	}
}