{
	"contracts/protocol/configuration/PoolAddressesProviderRegistry.sol": {
		"PoolAddressesProviderRegistry": {
			"abi": [
				{
					"inputs": [
						{
							"internalType": "address",
							"name": "owner",
							"type": "address"
						}
					],
					"stateMutability": "nonpayable",
					"type": "constructor"
				},
				{
					"anonymous": false,
					"inputs": [
						{
							"indexed": true,
							"internalType": "address",
							"name": "addressesProvider",
							"type": "address"
						},
						{
							"indexed": true,
							"internalType": "uint256",
							"name": "id",
							"type": "uint256"
						}
					],
					"name": "AddressesProviderRegistered",
					"type": "event"
				},
				{
					"anonymous": false,
					"inputs": [
						{
							"indexed": true,
							"internalType": "address",
							"name": "addressesProvider",
							"type": "address"
						},
						{
							"indexed": true,
							"internalType": "uint256",
							"name": "id",
							"type": "uint256"
						}
					],
					"name": "AddressesProviderUnregistered",
					"type": "event"
				},
				{
					"anonymous": false,
					"inputs": [
						{
							"indexed": true,
							"internalType": "address",
							"name": "previousOwner",
							"type": "address"
						},
						{
							"indexed": true,
							"internalType": "address",
							"name": "newOwner",
							"type": "address"
						}
					],
					"name": "OwnershipTransferred",
					"type": "event"
				},
				{
					"inputs": [
						{
							"internalType": "uint256",
							"name": "id",
							"type": "uint256"
						}
					],
					"name": "getAddressesProviderAddressById",
					"outputs": [
						{
							"internalType": "address",
							"name": "",
							"type": "address"
						}
					],
					"stateMutability": "view",
					"type": "function"
				},
				{
					"inputs": [
						{
							"internalType": "address",
							"name": "addressesProvider",
							"type": "address"
						}
					],
					"name": "getAddressesProviderIdByAddress",
					"outputs": [
						{
							"internalType": "uint256",
							"name": "",
							"type": "uint256"
						}
					],
					"stateMutability": "view",
					"type": "function"
				},
				{
					"inputs": [],
					"name": "getAddressesProvidersList",
					"outputs": [
						{
							"internalType": "address[]",
							"name": "",
							"type": "address[]"
						}
					],
					"stateMutability": "view",
					"type": "function"
				},
				{
					"inputs": [],
					"name": "owner",
					"outputs": [
						{
							"internalType": "address",
							"name": "",
							"type": "address"
						}
					],
					"stateMutability": "view",
					"type": "function"
				},
				{
					"inputs": [
						{
							"internalType": "address",
							"name": "provider",
							"type": "address"
						},
						{
							"internalType": "uint256",
							"name": "id",
							"type": "uint256"
						}
					],
					"name": "registerAddressesProvider",
					"outputs": [],
					"stateMutability": "nonpayable",
					"type": "function"
				},
				{
					"inputs": [],
					"name": "renounceOwnership",
					"outputs": [],
					"stateMutability": "nonpayable",
					"type": "function"
				},
				{
					"inputs": [
						{
							"internalType": "address",
							"name": "newOwner",
							"type": "address"
						}
					],
					"name": "transferOwnership",
					"outputs": [],
					"stateMutability": "nonpayable",
					"type": "function"
				},
				{
					"inputs": [
						{
							"internalType": "address",
							"name": "provider",
							"type": "address"
						}
					],
					"name": "unregisterAddressesProvider",
					"outputs": [],
					"stateMutability": "nonpayable",
					"type": "function"
				}
			],
			"devdoc": {
				"author": "Aave",
				"details": "Used for indexing purposes of Aave protocol's markets. The id assigned to a PoolAddressesProvider refers to the market it is connected with, for example with `1` for the Aave main market and `2` for the next created.",
				"events": {
					"AddressesProviderRegistered(address,uint256)": {
						"details": "Emitted when a new AddressesProvider is registered.",
						"params": {
							"addressesProvider": "The address of the registered PoolAddressesProvider",
							"id": "The id of the registered PoolAddressesProvider"
						}
					},
					"AddressesProviderUnregistered(address,uint256)": {
						"details": "Emitted when an AddressesProvider is unregistered.",
						"params": {
							"addressesProvider": "The address of the unregistered PoolAddressesProvider",
							"id": "The id of the unregistered PoolAddressesProvider"
						}
					}
				},
				"kind": "dev",
				"methods": {
					"constructor": {
						"details": "Constructor.",
						"params": {
							"owner": "The owner address of this contract."
						}
					},
					"getAddressesProviderAddressById(uint256)": {
						"params": {
							"id": "The id of the market"
						},
						"returns": {
							"_0": "The address of the PoolAddressesProvider with the given id or zero address if it is not registered"
						}
					},
					"getAddressesProviderIdByAddress(address)": {
						"params": {
							"addressesProvider": "The address of the PoolAddressesProvider"
						},
						"returns": {
							"_0": "The id of the PoolAddressesProvider or 0 if is not registered"
						}
					},
					"getAddressesProvidersList()": {
						"returns": {
							"_0": "The list of addresses providers"
						}
					},
					"owner()": {
						"details": "Returns the address of the current owner."
					},
					"registerAddressesProvider(address,uint256)": {
						"details": "The PoolAddressesProvider must not already be registered in the registryThe id must not be used by an already registered PoolAddressesProvider",
						"params": {
							"id": "The id for the new PoolAddressesProvider, referring to the market it belongs to",
							"provider": "The address of the new PoolAddressesProvider"
						}
					},
					"renounceOwnership()": {
						"details": "Leaves the contract without owner. It will not be possible to call `onlyOwner` functions anymore. Can only be called by the current owner. NOTE: Renouncing ownership will leave the contract without an owner, thereby removing any functionality that is only available to the owner."
					},
					"transferOwnership(address)": {
						"details": "Transfers ownership of the contract to a new account (`newOwner`). Can only be called by the current owner."
					},
					"unregisterAddressesProvider(address)": {
						"params": {
							"provider": "The PoolAddressesProvider address"
						}
					}
				},
				"title": "PoolAddressesProviderRegistry",
				"version": 1
			},
			"evm": {
				"assembly": "    /* \"contracts/protocol/configuration/PoolAddressesProviderRegistry.sol\":672:4198  contract PoolAddressesProviderRegistry is Ownable, IPoolAddressesProviderRegistry {... */\n  mstore(0x40, 0x80)\n    /* \"contracts/protocol/configuration/PoolAddressesProviderRegistry.sol\":1327:1391  constructor(address owner) {... */\n  callvalue\n  dup1\n  iszero\n  tag_1\n  jumpi\n  0x00\n  dup1\n  revert\ntag_1:\n  pop\n  mload(0x40)\n  sub(codesize, bytecodeSize)\n  dup1\n  bytecodeSize\n  dup4\n  codecopy\n  dup2\n  dup2\n  add\n  0x40\n  mstore\n  dup2\n  add\n  swap1\n  tag_2\n  swap2\n  swap1\n  tag_3\n  jump\t// in\ntag_2:\n    /* \"contracts/dependencies/openzeppelin/contracts/Ownable.sol\":862:879  address msgSender */\n  0x00\n    /* \"contracts/dependencies/openzeppelin/contracts/Ownable.sol\":882:894  _msgSender() */\n  tag_7\n    /* \"contracts/dependencies/openzeppelin/contracts/Ownable.sol\":882:892  _msgSender */\n  shl(0x20, tag_8)\n    /* \"contracts/dependencies/openzeppelin/contracts/Ownable.sol\":882:894  _msgSender() */\n  0x20\n  shr\n  jump\t// in\ntag_7:\n    /* \"contracts/dependencies/openzeppelin/contracts/Ownable.sol\":862:894  address msgSender = _msgSender() */\n  swap1\n  pop\n    /* \"contracts/dependencies/openzeppelin/contracts/Ownable.sol\":910:919  msgSender */\n  dup1\n    /* \"contracts/dependencies/openzeppelin/contracts/Ownable.sol\":901:907  _owner */\n  0x00\n  dup1\n    /* \"contracts/dependencies/openzeppelin/contracts/Ownable.sol\":901:919  _owner = msgSender */\n  0x0100\n  exp\n  dup2\n  sload\n  dup2\n  0xffffffffffffffffffffffffffffffffffffffff\n  mul\n  not\n  and\n  swap1\n  dup4\n  0xffffffffffffffffffffffffffffffffffffffff\n  and\n  mul\n  or\n  swap1\n  sstore\n  pop\n    /* \"contracts/dependencies/openzeppelin/contracts/Ownable.sol\":964:973  msgSender */\n  dup1\n    /* \"contracts/dependencies/openzeppelin/contracts/Ownable.sol\":931:974  OwnershipTransferred(address(0), msgSender) */\n  0xffffffffffffffffffffffffffffffffffffffff\n  and\n    /* \"contracts/dependencies/openzeppelin/contracts/Ownable.sol\":960:961  0 */\n  0x00\n    /* \"contracts/dependencies/openzeppelin/contracts/Ownable.sol\":931:974  OwnershipTransferred(address(0), msgSender) */\n  0xffffffffffffffffffffffffffffffffffffffff\n  and\n  0x8be0079c531659141344cd1fd0a4f28419497f9722a3daafe3b4186f6b6457e0\n  mload(0x40)\n  mload(0x40)\n  dup1\n  swap2\n  sub\n  swap1\n  log3\n    /* \"contracts/dependencies/openzeppelin/contracts/Ownable.sol\":855:980  {... */\n  pop\n    /* \"contracts/protocol/configuration/PoolAddressesProviderRegistry.sol\":1361:1385  transferOwnership(owner) */\n  tag_10\n    /* \"contracts/protocol/configuration/PoolAddressesProviderRegistry.sol\":1379:1384  owner */\n  dup2\n    /* \"contracts/protocol/configuration/PoolAddressesProviderRegistry.sol\":1361:1378  transferOwnership */\n  shl(0x20, tag_11)\n    /* \"contracts/protocol/configuration/PoolAddressesProviderRegistry.sol\":1361:1385  transferOwnership(owner) */\n  0x20\n  shr\n  jump\t// in\ntag_10:\n    /* \"contracts/protocol/configuration/PoolAddressesProviderRegistry.sol\":1327:1391  constructor(address owner) {... */\n  pop\n    /* \"contracts/protocol/configuration/PoolAddressesProviderRegistry.sol\":672:4198  contract PoolAddressesProviderRegistry is Ownable, IPoolAddressesProviderRegistry {... */\n  jump(tag_12)\n    /* \"contracts/dependencies/openzeppelin/contracts/Context.sol\":601:710  function _msgSender() internal view virtual returns (address payable) {... */\ntag_8:\n    /* \"contracts/dependencies/openzeppelin/contracts/Context.sol\":654:669  address payable */\n  0x00\n    /* \"contracts/dependencies/openzeppelin/contracts/Context.sol\":693:703  msg.sender */\n  caller\n    /* \"contracts/dependencies/openzeppelin/contracts/Context.sol\":678:704  return payable(msg.sender) */\n  swap1\n  pop\n    /* \"contracts/dependencies/openzeppelin/contracts/Context.sol\":601:710  function _msgSender() internal view virtual returns (address payable) {... */\n  swap1\n  jump\t// out\n    /* \"contracts/dependencies/openzeppelin/contracts/Ownable.sol\":1938:2168  function transferOwnership(address newOwner) public virtual onlyOwner {... */\ntag_11:\n    /* \"contracts/dependencies/openzeppelin/contracts/Ownable.sol\":1257:1269  _msgSender() */\n  tag_15\n    /* \"contracts/dependencies/openzeppelin/contracts/Ownable.sol\":1257:1267  _msgSender */\n  shl(0x20, tag_8)\n    /* \"contracts/dependencies/openzeppelin/contracts/Ownable.sol\":1257:1269  _msgSender() */\n  0x20\n  shr\n  jump\t// in\ntag_15:\n    /* \"contracts/dependencies/openzeppelin/contracts/Ownable.sol\":1247:1269  _owner == _msgSender() */\n  0xffffffffffffffffffffffffffffffffffffffff\n  and\n    /* \"contracts/dependencies/openzeppelin/contracts/Ownable.sol\":1247:1253  _owner */\n  0x00\n  dup1\n  sload\n  swap1\n  0x0100\n  exp\n  swap1\n  div\n  0xffffffffffffffffffffffffffffffffffffffff\n  and\n    /* \"contracts/dependencies/openzeppelin/contracts/Ownable.sol\":1247:1269  _owner == _msgSender() */\n  0xffffffffffffffffffffffffffffffffffffffff\n  and\n  eq\n    /* \"contracts/dependencies/openzeppelin/contracts/Ownable.sol\":1239:1306  require(_owner == _msgSender(), 'Ownable: caller is not the owner') */\n  tag_16\n  jumpi\n  mload(0x40)\n  0x08c379a000000000000000000000000000000000000000000000000000000000\n  dup2\n  mstore\n  0x04\n  add\n  tag_17\n  swap1\n  tag_18\n  jump\t// in\ntag_17:\n  mload(0x40)\n  dup1\n  swap2\n  sub\n  swap1\n  revert\ntag_16:\n    /* \"contracts/dependencies/openzeppelin/contracts/Ownable.sol\":2043:2044  0 */\n  0x00\n    /* \"contracts/dependencies/openzeppelin/contracts/Ownable.sol\":2023:2045  newOwner != address(0) */\n  0xffffffffffffffffffffffffffffffffffffffff\n  and\n    /* \"contracts/dependencies/openzeppelin/contracts/Ownable.sol\":2023:2031  newOwner */\n  dup2\n    /* \"contracts/dependencies/openzeppelin/contracts/Ownable.sol\":2023:2045  newOwner != address(0) */\n  0xffffffffffffffffffffffffffffffffffffffff\n  and\n  sub\n    /* \"contracts/dependencies/openzeppelin/contracts/Ownable.sol\":2015:2088  require(newOwner != address(0), 'Ownable: new owner is the zero address') */\n  tag_20\n  jumpi\n  mload(0x40)\n  0x08c379a000000000000000000000000000000000000000000000000000000000\n  dup2\n  mstore\n  0x04\n  add\n  tag_21\n  swap1\n  tag_22\n  jump\t// in\ntag_21:\n  mload(0x40)\n  dup1\n  swap2\n  sub\n  swap1\n  revert\ntag_20:\n    /* \"contracts/dependencies/openzeppelin/contracts/Ownable.sol\":2129:2137  newOwner */\n  dup1\n    /* \"contracts/dependencies/openzeppelin/contracts/Ownable.sol\":2100:2138  OwnershipTransferred(_owner, newOwner) */\n  0xffffffffffffffffffffffffffffffffffffffff\n  and\n    /* \"contracts/dependencies/openzeppelin/contracts/Ownable.sol\":2121:2127  _owner */\n  0x00\n  dup1\n  sload\n  swap1\n  0x0100\n  exp\n  swap1\n  div\n  0xffffffffffffffffffffffffffffffffffffffff\n  and\n    /* \"contracts/dependencies/openzeppelin/contracts/Ownable.sol\":2100:2138  OwnershipTransferred(_owner, newOwner) */\n  0xffffffffffffffffffffffffffffffffffffffff\n  and\n  0x8be0079c531659141344cd1fd0a4f28419497f9722a3daafe3b4186f6b6457e0\n  mload(0x40)\n  mload(0x40)\n  dup1\n  swap2\n  sub\n  swap1\n  log3\n    /* \"contracts/dependencies/openzeppelin/contracts/Ownable.sol\":2154:2162  newOwner */\n  dup1\n    /* \"contracts/dependencies/openzeppelin/contracts/Ownable.sol\":2145:2151  _owner */\n  0x00\n  dup1\n    /* \"contracts/dependencies/openzeppelin/contracts/Ownable.sol\":2145:2162  _owner = newOwner */\n  0x0100\n  exp\n  dup2\n  sload\n  dup2\n  0xffffffffffffffffffffffffffffffffffffffff\n  mul\n  not\n  and\n  swap1\n  dup4\n  0xffffffffffffffffffffffffffffffffffffffff\n  and\n  mul\n  or\n  swap1\n  sstore\n  pop\n    /* \"contracts/dependencies/openzeppelin/contracts/Ownable.sol\":1938:2168  function transferOwnership(address newOwner) public virtual onlyOwner {... */\n  pop\n  jump\t// out\n    /* \"#utility.yul\":88:205   */\ntag_24:\n    /* \"#utility.yul\":197:198   */\n  0x00\n    /* \"#utility.yul\":194:195   */\n  dup1\n    /* \"#utility.yul\":187:199   */\n  revert\n    /* \"#utility.yul\":334:460   */\ntag_26:\n    /* \"#utility.yul\":371:378   */\n  0x00\n    /* \"#utility.yul\":411:453   */\n  0xffffffffffffffffffffffffffffffffffffffff\n    /* \"#utility.yul\":404:409   */\n  dup3\n    /* \"#utility.yul\":400:454   */\n  and\n    /* \"#utility.yul\":389:454   */\n  swap1\n  pop\n    /* \"#utility.yul\":334:460   */\n  swap2\n  swap1\n  pop\n  jump\t// out\n    /* \"#utility.yul\":466:562   */\ntag_27:\n    /* \"#utility.yul\":503:510   */\n  0x00\n    /* \"#utility.yul\":532:556   */\n  tag_41\n    /* \"#utility.yul\":550:555   */\n  dup3\n    /* \"#utility.yul\":532:556   */\n  tag_26\n  jump\t// in\ntag_41:\n    /* \"#utility.yul\":521:556   */\n  swap1\n  pop\n    /* \"#utility.yul\":466:562   */\n  swap2\n  swap1\n  pop\n  jump\t// out\n    /* \"#utility.yul\":568:690   */\ntag_28:\n    /* \"#utility.yul\":641:665   */\n  tag_43\n    /* \"#utility.yul\":659:664   */\n  dup2\n    /* \"#utility.yul\":641:665   */\n  tag_27\n  jump\t// in\ntag_43:\n    /* \"#utility.yul\":634:639   */\n  dup2\n    /* \"#utility.yul\":631:666   */\n  eq\n    /* \"#utility.yul\":621:684   */\n  tag_44\n  jumpi\n    /* \"#utility.yul\":680:681   */\n  0x00\n    /* \"#utility.yul\":677:678   */\n  dup1\n    /* \"#utility.yul\":670:682   */\n  revert\n    /* \"#utility.yul\":621:684   */\ntag_44:\n    /* \"#utility.yul\":568:690   */\n  pop\n  jump\t// out\n    /* \"#utility.yul\":696:839   */\ntag_29:\n    /* \"#utility.yul\":753:758   */\n  0x00\n    /* \"#utility.yul\":784:790   */\n  dup2\n    /* \"#utility.yul\":778:791   */\n  mload\n    /* \"#utility.yul\":769:791   */\n  swap1\n  pop\n    /* \"#utility.yul\":800:833   */\n  tag_46\n    /* \"#utility.yul\":827:832   */\n  dup2\n    /* \"#utility.yul\":800:833   */\n  tag_28\n  jump\t// in\ntag_46:\n    /* \"#utility.yul\":696:839   */\n  swap3\n  swap2\n  pop\n  pop\n  jump\t// out\n    /* \"#utility.yul\":845:1196   */\ntag_3:\n    /* \"#utility.yul\":915:921   */\n  0x00\n    /* \"#utility.yul\":964:966   */\n  0x20\n    /* \"#utility.yul\":952:961   */\n  dup3\n    /* \"#utility.yul\":943:950   */\n  dup5\n    /* \"#utility.yul\":939:962   */\n  sub\n    /* \"#utility.yul\":935:967   */\n  slt\n    /* \"#utility.yul\":932:1051   */\n  iszero\n  tag_48\n  jumpi\n    /* \"#utility.yul\":970:1049   */\n  tag_49\n  tag_24\n  jump\t// in\ntag_49:\n    /* \"#utility.yul\":932:1051   */\ntag_48:\n    /* \"#utility.yul\":1090:1091   */\n  0x00\n    /* \"#utility.yul\":1115:1179   */\n  tag_50\n    /* \"#utility.yul\":1171:1178   */\n  dup5\n    /* \"#utility.yul\":1162:1168   */\n  dup3\n    /* \"#utility.yul\":1151:1160   */\n  dup6\n    /* \"#utility.yul\":1147:1169   */\n  add\n    /* \"#utility.yul\":1115:1179   */\n  tag_29\n  jump\t// in\ntag_50:\n    /* \"#utility.yul\":1105:1179   */\n  swap2\n  pop\n    /* \"#utility.yul\":1061:1189   */\n  pop\n    /* \"#utility.yul\":845:1196   */\n  swap3\n  swap2\n  pop\n  pop\n  jump\t// out\n    /* \"#utility.yul\":1202:1371   */\ntag_30:\n    /* \"#utility.yul\":1286:1297   */\n  0x00\n    /* \"#utility.yul\":1320:1326   */\n  dup3\n    /* \"#utility.yul\":1315:1318   */\n  dup3\n    /* \"#utility.yul\":1308:1327   */\n  mstore\n    /* \"#utility.yul\":1360:1364   */\n  0x20\n    /* \"#utility.yul\":1355:1358   */\n  dup3\n    /* \"#utility.yul\":1351:1365   */\n  add\n    /* \"#utility.yul\":1336:1365   */\n  swap1\n  pop\n    /* \"#utility.yul\":1202:1371   */\n  swap3\n  swap2\n  pop\n  pop\n  jump\t// out\n    /* \"#utility.yul\":1377:1559   */\ntag_31:\n    /* \"#utility.yul\":1517:1551   */\n  0x4f776e61626c653a2063616c6c6572206973206e6f7420746865206f776e6572\n    /* \"#utility.yul\":1513:1514   */\n  0x00\n    /* \"#utility.yul\":1505:1511   */\n  dup3\n    /* \"#utility.yul\":1501:1515   */\n  add\n    /* \"#utility.yul\":1494:1552   */\n  mstore\n    /* \"#utility.yul\":1377:1559   */\n  pop\n  jump\t// out\n    /* \"#utility.yul\":1565:1931   */\ntag_32:\n    /* \"#utility.yul\":1707:1710   */\n  0x00\n    /* \"#utility.yul\":1728:1795   */\n  tag_54\n    /* \"#utility.yul\":1792:1794   */\n  0x20\n    /* \"#utility.yul\":1787:1790   */\n  dup4\n    /* \"#utility.yul\":1728:1795   */\n  tag_30\n  jump\t// in\ntag_54:\n    /* \"#utility.yul\":1721:1795   */\n  swap2\n  pop\n    /* \"#utility.yul\":1804:1897   */\n  tag_55\n    /* \"#utility.yul\":1893:1896   */\n  dup3\n    /* \"#utility.yul\":1804:1897   */\n  tag_31\n  jump\t// in\ntag_55:\n    /* \"#utility.yul\":1922:1924   */\n  0x20\n    /* \"#utility.yul\":1917:1920   */\n  dup3\n    /* \"#utility.yul\":1913:1925   */\n  add\n    /* \"#utility.yul\":1906:1925   */\n  swap1\n  pop\n    /* \"#utility.yul\":1565:1931   */\n  swap2\n  swap1\n  pop\n  jump\t// out\n    /* \"#utility.yul\":1937:2356   */\ntag_18:\n    /* \"#utility.yul\":2103:2107   */\n  0x00\n    /* \"#utility.yul\":2141:2143   */\n  0x20\n    /* \"#utility.yul\":2130:2139   */\n  dup3\n    /* \"#utility.yul\":2126:2144   */\n  add\n    /* \"#utility.yul\":2118:2144   */\n  swap1\n  pop\n    /* \"#utility.yul\":2190:2199   */\n  dup2\n    /* \"#utility.yul\":2184:2188   */\n  dup2\n    /* \"#utility.yul\":2180:2200   */\n  sub\n    /* \"#utility.yul\":2176:2177   */\n  0x00\n    /* \"#utility.yul\":2165:2174   */\n  dup4\n    /* \"#utility.yul\":2161:2178   */\n  add\n    /* \"#utility.yul\":2154:2201   */\n  mstore\n    /* \"#utility.yul\":2218:2349   */\n  tag_57\n    /* \"#utility.yul\":2344:2348   */\n  dup2\n    /* \"#utility.yul\":2218:2349   */\n  tag_32\n  jump\t// in\ntag_57:\n    /* \"#utility.yul\":2210:2349   */\n  swap1\n  pop\n    /* \"#utility.yul\":1937:2356   */\n  swap2\n  swap1\n  pop\n  jump\t// out\n    /* \"#utility.yul\":2362:2587   */\ntag_33:\n    /* \"#utility.yul\":2502:2536   */\n  0x4f776e61626c653a206e6577206f776e657220697320746865207a65726f2061\n    /* \"#utility.yul\":2498:2499   */\n  0x00\n    /* \"#utility.yul\":2490:2496   */\n  dup3\n    /* \"#utility.yul\":2486:2500   */\n  add\n    /* \"#utility.yul\":2479:2537   */\n  mstore\n    /* \"#utility.yul\":2571:2579   */\n  0x6464726573730000000000000000000000000000000000000000000000000000\n    /* \"#utility.yul\":2566:2568   */\n  0x20\n    /* \"#utility.yul\":2558:2564   */\n  dup3\n    /* \"#utility.yul\":2554:2569   */\n  add\n    /* \"#utility.yul\":2547:2580   */\n  mstore\n    /* \"#utility.yul\":2362:2587   */\n  pop\n  jump\t// out\n    /* \"#utility.yul\":2593:2959   */\ntag_34:\n    /* \"#utility.yul\":2735:2738   */\n  0x00\n    /* \"#utility.yul\":2756:2823   */\n  tag_60\n    /* \"#utility.yul\":2820:2822   */\n  0x26\n    /* \"#utility.yul\":2815:2818   */\n  dup4\n    /* \"#utility.yul\":2756:2823   */\n  tag_30\n  jump\t// in\ntag_60:\n    /* \"#utility.yul\":2749:2823   */\n  swap2\n  pop\n    /* \"#utility.yul\":2832:2925   */\n  tag_61\n    /* \"#utility.yul\":2921:2924   */\n  dup3\n    /* \"#utility.yul\":2832:2925   */\n  tag_33\n  jump\t// in\ntag_61:\n    /* \"#utility.yul\":2950:2952   */\n  0x40\n    /* \"#utility.yul\":2945:2948   */\n  dup3\n    /* \"#utility.yul\":2941:2953   */\n  add\n    /* \"#utility.yul\":2934:2953   */\n  swap1\n  pop\n    /* \"#utility.yul\":2593:2959   */\n  swap2\n  swap1\n  pop\n  jump\t// out\n    /* \"#utility.yul\":2965:3384   */\ntag_22:\n    /* \"#utility.yul\":3131:3135   */\n  0x00\n    /* \"#utility.yul\":3169:3171   */\n  0x20\n    /* \"#utility.yul\":3158:3167   */\n  dup3\n    /* \"#utility.yul\":3154:3172   */\n  add\n    /* \"#utility.yul\":3146:3172   */\n  swap1\n  pop\n    /* \"#utility.yul\":3218:3227   */\n  dup2\n    /* \"#utility.yul\":3212:3216   */\n  dup2\n    /* \"#utility.yul\":3208:3228   */\n  sub\n    /* \"#utility.yul\":3204:3205   */\n  0x00\n    /* \"#utility.yul\":3193:3202   */\n  dup4\n    /* \"#utility.yul\":3189:3206   */\n  add\n    /* \"#utility.yul\":3182:3229   */\n  mstore\n    /* \"#utility.yul\":3246:3377   */\n  tag_63\n    /* \"#utility.yul\":3372:3376   */\n  dup2\n    /* \"#utility.yul\":3246:3377   */\n  tag_34\n  jump\t// in\ntag_63:\n    /* \"#utility.yul\":3238:3377   */\n  swap1\n  pop\n    /* \"#utility.yul\":2965:3384   */\n  swap2\n  swap1\n  pop\n  jump\t// out\n    /* \"contracts/protocol/configuration/PoolAddressesProviderRegistry.sol\":672:4198  contract PoolAddressesProviderRegistry is Ownable, IPoolAddressesProviderRegistry {... */\ntag_12:\n  dataSize(sub_0)\n  dup1\n  dataOffset(sub_0)\n  0x00\n  codecopy\n  0x00\n  return\nstop\n\nsub_0: assembly {\n        /* \"contracts/protocol/configuration/PoolAddressesProviderRegistry.sol\":672:4198  contract PoolAddressesProviderRegistry is Ownable, IPoolAddressesProviderRegistry {... */\n      mstore(0x40, 0x80)\n      callvalue\n      dup1\n      iszero\n      tag_1\n      jumpi\n      0x00\n      dup1\n      revert\n    tag_1:\n      pop\n      jumpi(tag_2, lt(calldatasize, 0x04))\n      shr(0xe0, calldataload(0x00))\n      dup1\n      0x8da5cb5b\n      gt\n      tag_11\n      jumpi\n      dup1\n      0x8da5cb5b\n      eq\n      tag_7\n      jumpi\n      dup1\n      0xd0267be7\n      eq\n      tag_8\n      jumpi\n      dup1\n      0xd258191e\n      eq\n      tag_9\n      jumpi\n      dup1\n      0xf2fde38b\n      eq\n      tag_10\n      jumpi\n      jump(tag_2)\n    tag_11:\n      dup1\n      0x0de26707\n      eq\n      tag_3\n      jumpi\n      dup1\n      0x365ccbbf\n      eq\n      tag_4\n      jumpi\n      dup1\n      0x57dc0566\n      eq\n      tag_5\n      jumpi\n      dup1\n      0x715018a6\n      eq\n      tag_6\n      jumpi\n    tag_2:\n      0x00\n      dup1\n      revert\n        /* \"contracts/protocol/configuration/PoolAddressesProviderRegistry.sol\":2227:2670  function unregisterAddressesProvider(address provider) external override onlyOwner {... */\n    tag_3:\n      tag_12\n      0x04\n      dup1\n      calldatasize\n      sub\n      dup2\n      add\n      swap1\n      tag_13\n      swap2\n      swap1\n      tag_14\n      jump\t// in\n    tag_13:\n      tag_15\n      jump\t// in\n    tag_12:\n      stop\n        /* \"contracts/protocol/configuration/PoolAddressesProviderRegistry.sol\":1447:1577  function getAddressesProvidersList() external view override returns (address[] memory) {... */\n    tag_4:\n      tag_16\n      tag_17\n      jump\t// in\n    tag_16:\n      mload(0x40)\n      tag_18\n      swap2\n      swap1\n      tag_19\n      jump\t// in\n    tag_18:\n      mload(0x40)\n      dup1\n      swap2\n      sub\n      swap1\n      return\n        /* \"contracts/protocol/configuration/PoolAddressesProviderRegistry.sol\":2962:3102  function getAddressesProviderAddressById(uint256 id) external view override returns (address) {... */\n    tag_5:\n      tag_20\n      0x04\n      dup1\n      calldatasize\n      sub\n      dup2\n      add\n      swap1\n      tag_21\n      swap2\n      swap1\n      tag_22\n      jump\t// in\n    tag_21:\n      tag_23\n      jump\t// in\n    tag_20:\n      mload(0x40)\n      tag_24\n      swap2\n      swap1\n      tag_25\n      jump\t// in\n    tag_24:\n      mload(0x40)\n      dup1\n      swap2\n      sub\n      swap1\n      return\n        /* \"contracts/dependencies/openzeppelin/contracts/Ownable.sol\":1655:1793  function renounceOwnership() public virtual onlyOwner {... */\n    tag_6:\n      tag_26\n      tag_27\n      jump\t// in\n    tag_26:\n      stop\n        /* \"contracts/dependencies/openzeppelin/contracts/Ownable.sol\":1053:1126  function owner() public view returns (address) {... */\n    tag_7:\n      tag_28\n      tag_29\n      jump\t// in\n    tag_28:\n      mload(0x40)\n      tag_30\n      swap2\n      swap1\n      tag_25\n      jump\t// in\n    tag_30:\n      mload(0x40)\n      dup1\n      swap2\n      sub\n      swap1\n      return\n        /* \"contracts/protocol/configuration/PoolAddressesProviderRegistry.sol\":2726:2906  function getAddressesProviderIdByAddress(... */\n    tag_8:\n      tag_31\n      0x04\n      dup1\n      calldatasize\n      sub\n      dup2\n      add\n      swap1\n      tag_32\n      swap2\n      swap1\n      tag_14\n      jump\t// in\n    tag_32:\n      tag_33\n      jump\t// in\n    tag_31:\n      mload(0x40)\n      tag_34\n      swap2\n      swap1\n      tag_35\n      jump\t// in\n    tag_34:\n      mload(0x40)\n      dup1\n      swap2\n      sub\n      swap1\n      return\n        /* \"contracts/protocol/configuration/PoolAddressesProviderRegistry.sol\":1633:2171  function registerAddressesProvider(address provider, uint256 id) external override onlyOwner {... */\n    tag_9:\n      tag_36\n      0x04\n      dup1\n      calldatasize\n      sub\n      dup2\n      add\n      swap1\n      tag_37\n      swap2\n      swap1\n      tag_38\n      jump\t// in\n    tag_37:\n      tag_39\n      jump\t// in\n    tag_36:\n      stop\n        /* \"contracts/dependencies/openzeppelin/contracts/Ownable.sol\":1938:2168  function transferOwnership(address newOwner) public virtual onlyOwner {... */\n    tag_10:\n      tag_40\n      0x04\n      dup1\n      calldatasize\n      sub\n      dup2\n      add\n      swap1\n      tag_41\n      swap2\n      swap1\n      tag_14\n      jump\t// in\n    tag_41:\n      tag_42\n      jump\t// in\n    tag_40:\n      stop\n        /* \"contracts/protocol/configuration/PoolAddressesProviderRegistry.sol\":2227:2670  function unregisterAddressesProvider(address provider) external override onlyOwner {... */\n    tag_15:\n        /* \"contracts/dependencies/openzeppelin/contracts/Ownable.sol\":1257:1269  _msgSender() */\n      tag_44\n        /* \"contracts/dependencies/openzeppelin/contracts/Ownable.sol\":1257:1267  _msgSender */\n      tag_45\n        /* \"contracts/dependencies/openzeppelin/contracts/Ownable.sol\":1257:1269  _msgSender() */\n      jump\t// in\n    tag_44:\n        /* \"contracts/dependencies/openzeppelin/contracts/Ownable.sol\":1247:1269  _owner == _msgSender() */\n      0xffffffffffffffffffffffffffffffffffffffff\n      and\n        /* \"contracts/dependencies/openzeppelin/contracts/Ownable.sol\":1247:1253  _owner */\n      0x00\n      dup1\n      sload\n      swap1\n      0x0100\n      exp\n      swap1\n      div\n      0xffffffffffffffffffffffffffffffffffffffff\n      and\n        /* \"contracts/dependencies/openzeppelin/contracts/Ownable.sol\":1247:1269  _owner == _msgSender() */\n      0xffffffffffffffffffffffffffffffffffffffff\n      and\n      eq\n        /* \"contracts/dependencies/openzeppelin/contracts/Ownable.sol\":1239:1306  require(_owner == _msgSender(), 'Ownable: caller is not the owner') */\n      tag_46\n      jumpi\n      mload(0x40)\n      0x08c379a000000000000000000000000000000000000000000000000000000000\n      dup2\n      mstore\n      0x04\n      add\n      tag_47\n      swap1\n      tag_48\n      jump\t// in\n    tag_47:\n      mload(0x40)\n      dup1\n      swap2\n      sub\n      swap1\n      revert\n    tag_46:\n        /* \"contracts/protocol/configuration/PoolAddressesProviderRegistry.sol\":2361:2362  0 */\n      0x00\n        /* \"contracts/protocol/configuration/PoolAddressesProviderRegistry.sol\":2325:2347  _addressesProviderToId */\n      0x01\n        /* \"contracts/protocol/configuration/PoolAddressesProviderRegistry.sol\":2325:2357  _addressesProviderToId[provider] */\n      0x00\n        /* \"contracts/protocol/configuration/PoolAddressesProviderRegistry.sol\":2348:2356  provider */\n      dup4\n        /* \"contracts/protocol/configuration/PoolAddressesProviderRegistry.sol\":2325:2357  _addressesProviderToId[provider] */\n      0xffffffffffffffffffffffffffffffffffffffff\n      and\n      0xffffffffffffffffffffffffffffffffffffffff\n      and\n      dup2\n      mstore\n      0x20\n      add\n      swap1\n      dup2\n      mstore\n      0x20\n      add\n      0x00\n      keccak256\n      sload\n        /* \"contracts/protocol/configuration/PoolAddressesProviderRegistry.sol\":2325:2362  _addressesProviderToId[provider] != 0 */\n      eq\n      iszero\n        /* \"contracts/protocol/configuration/PoolAddressesProviderRegistry.sol\":2364:2404  Errors.ADDRESSES_PROVIDER_NOT_REGISTERED */\n      mload(0x40)\n      dup1\n      0x40\n      add\n      0x40\n      mstore\n      dup1\n      0x01\n      dup2\n      mstore\n      0x20\n      add\n      0x3700000000000000000000000000000000000000000000000000000000000000\n      dup2\n      mstore\n      pop\n        /* \"contracts/protocol/configuration/PoolAddressesProviderRegistry.sol\":2317:2405  require(_addressesProviderToId[provider] != 0, Errors.ADDRESSES_PROVIDER_NOT_REGISTERED) */\n      swap1\n      tag_50\n      jumpi\n      mload(0x40)\n      0x08c379a000000000000000000000000000000000000000000000000000000000\n      dup2\n      mstore\n      0x04\n      add\n      tag_51\n      swap2\n      swap1\n      tag_52\n      jump\t// in\n    tag_51:\n      mload(0x40)\n      dup1\n      swap2\n      sub\n      swap1\n      revert\n    tag_50:\n      pop\n        /* \"contracts/protocol/configuration/PoolAddressesProviderRegistry.sol\":2412:2425  uint256 oldId */\n      0x00\n        /* \"contracts/protocol/configuration/PoolAddressesProviderRegistry.sol\":2428:2450  _addressesProviderToId */\n      0x01\n        /* \"contracts/protocol/configuration/PoolAddressesProviderRegistry.sol\":2428:2460  _addressesProviderToId[provider] */\n      0x00\n        /* \"contracts/protocol/configuration/PoolAddressesProviderRegistry.sol\":2451:2459  provider */\n      dup4\n        /* \"contracts/protocol/configuration/PoolAddressesProviderRegistry.sol\":2428:2460  _addressesProviderToId[provider] */\n      0xffffffffffffffffffffffffffffffffffffffff\n      and\n      0xffffffffffffffffffffffffffffffffffffffff\n      and\n      dup2\n      mstore\n      0x20\n      add\n      swap1\n      dup2\n      mstore\n      0x20\n      add\n      0x00\n      keccak256\n      sload\n        /* \"contracts/protocol/configuration/PoolAddressesProviderRegistry.sol\":2412:2460  uint256 oldId = _addressesProviderToId[provider] */\n      swap1\n      pop\n        /* \"contracts/protocol/configuration/PoolAddressesProviderRegistry.sol\":2507:2508  0 */\n      0x00\n        /* \"contracts/protocol/configuration/PoolAddressesProviderRegistry.sol\":2467:2489  _idToAddressesProvider */\n      0x02\n        /* \"contracts/protocol/configuration/PoolAddressesProviderRegistry.sol\":2467:2496  _idToAddressesProvider[oldId] */\n      0x00\n        /* \"contracts/protocol/configuration/PoolAddressesProviderRegistry.sol\":2490:2495  oldId */\n      dup4\n        /* \"contracts/protocol/configuration/PoolAddressesProviderRegistry.sol\":2467:2496  _idToAddressesProvider[oldId] */\n      dup2\n      mstore\n      0x20\n      add\n      swap1\n      dup2\n      mstore\n      0x20\n      add\n      0x00\n      keccak256\n      0x00\n        /* \"contracts/protocol/configuration/PoolAddressesProviderRegistry.sol\":2467:2509  _idToAddressesProvider[oldId] = address(0) */\n      0x0100\n      exp\n      dup2\n      sload\n      dup2\n      0xffffffffffffffffffffffffffffffffffffffff\n      mul\n      not\n      and\n      swap1\n      dup4\n      0xffffffffffffffffffffffffffffffffffffffff\n      and\n      mul\n      or\n      swap1\n      sstore\n      pop\n        /* \"contracts/protocol/configuration/PoolAddressesProviderRegistry.sol\":2551:2552  0 */\n      0x00\n        /* \"contracts/protocol/configuration/PoolAddressesProviderRegistry.sol\":2516:2538  _addressesProviderToId */\n      0x01\n        /* \"contracts/protocol/configuration/PoolAddressesProviderRegistry.sol\":2516:2548  _addressesProviderToId[provider] */\n      0x00\n        /* \"contracts/protocol/configuration/PoolAddressesProviderRegistry.sol\":2539:2547  provider */\n      dup5\n        /* \"contracts/protocol/configuration/PoolAddressesProviderRegistry.sol\":2516:2548  _addressesProviderToId[provider] */\n      0xffffffffffffffffffffffffffffffffffffffff\n      and\n      0xffffffffffffffffffffffffffffffffffffffff\n      and\n      dup2\n      mstore\n      0x20\n      add\n      swap1\n      dup2\n      mstore\n      0x20\n      add\n      0x00\n      keccak256\n        /* \"contracts/protocol/configuration/PoolAddressesProviderRegistry.sol\":2516:2552  _addressesProviderToId[provider] = 0 */\n      dup2\n      swap1\n      sstore\n      pop\n        /* \"contracts/protocol/configuration/PoolAddressesProviderRegistry.sol\":2561:2604  _removeFromAddressesProvidersList(provider) */\n      tag_53\n        /* \"contracts/protocol/configuration/PoolAddressesProviderRegistry.sol\":2595:2603  provider */\n      dup3\n        /* \"contracts/protocol/configuration/PoolAddressesProviderRegistry.sol\":2561:2594  _removeFromAddressesProvidersList */\n      tag_54\n        /* \"contracts/protocol/configuration/PoolAddressesProviderRegistry.sol\":2561:2604  _removeFromAddressesProvidersList(provider) */\n      jump\t// in\n    tag_53:\n        /* \"contracts/protocol/configuration/PoolAddressesProviderRegistry.sol\":2658:2663  oldId */\n      dup1\n        /* \"contracts/protocol/configuration/PoolAddressesProviderRegistry.sol\":2648:2656  provider */\n      dup3\n        /* \"contracts/protocol/configuration/PoolAddressesProviderRegistry.sol\":2618:2664  AddressesProviderUnregistered(provider, oldId) */\n      0xffffffffffffffffffffffffffffffffffffffff\n      and\n      0x254723080701bde71d562cad0e967cef23d86bb27ee842c190a2596820f3b241\n      mload(0x40)\n      mload(0x40)\n      dup1\n      swap2\n      sub\n      swap1\n      log3\n        /* \"contracts/protocol/configuration/PoolAddressesProviderRegistry.sol\":2310:2670  {... */\n      pop\n        /* \"contracts/protocol/configuration/PoolAddressesProviderRegistry.sol\":2227:2670  function unregisterAddressesProvider(address provider) external override onlyOwner {... */\n      pop\n      jump\t// out\n        /* \"contracts/protocol/configuration/PoolAddressesProviderRegistry.sol\":1447:1577  function getAddressesProvidersList() external view override returns (address[] memory) {... */\n    tag_17:\n        /* \"contracts/protocol/configuration/PoolAddressesProviderRegistry.sol\":1516:1532  address[] memory */\n      0x60\n        /* \"contracts/protocol/configuration/PoolAddressesProviderRegistry.sol\":1548:1571  _addressesProvidersList */\n      0x03\n        /* \"contracts/protocol/configuration/PoolAddressesProviderRegistry.sol\":1541:1571  return _addressesProvidersList */\n      dup1\n      sload\n      dup1\n      0x20\n      mul\n      0x20\n      add\n      mload(0x40)\n      swap1\n      dup2\n      add\n      0x40\n      mstore\n      dup1\n      swap3\n      swap2\n      swap1\n      dup2\n      dup2\n      mstore\n      0x20\n      add\n      dup3\n      dup1\n      sload\n      dup1\n      iszero\n      tag_56\n      jumpi\n      0x20\n      mul\n      dup3\n      add\n      swap2\n      swap1\n      0x00\n      mstore\n      keccak256(0x00, 0x20)\n      swap1\n    tag_57:\n      dup2\n      0x00\n      swap1\n      sload\n      swap1\n      0x0100\n      exp\n      swap1\n      div\n      0xffffffffffffffffffffffffffffffffffffffff\n      and\n      0xffffffffffffffffffffffffffffffffffffffff\n      and\n      dup2\n      mstore\n      0x20\n      add\n      swap1\n      0x01\n      add\n      swap1\n      dup1\n      dup4\n      gt\n      tag_57\n      jumpi\n    tag_56:\n      pop\n      pop\n      pop\n      pop\n      pop\n      swap1\n      pop\n        /* \"contracts/protocol/configuration/PoolAddressesProviderRegistry.sol\":1447:1577  function getAddressesProvidersList() external view override returns (address[] memory) {... */\n      swap1\n      jump\t// out\n        /* \"contracts/protocol/configuration/PoolAddressesProviderRegistry.sol\":2962:3102  function getAddressesProviderAddressById(uint256 id) external view override returns (address) {... */\n    tag_23:\n        /* \"contracts/protocol/configuration/PoolAddressesProviderRegistry.sol\":3047:3054  address */\n      0x00\n        /* \"contracts/protocol/configuration/PoolAddressesProviderRegistry.sol\":3070:3092  _idToAddressesProvider */\n      0x02\n        /* \"contracts/protocol/configuration/PoolAddressesProviderRegistry.sol\":3070:3096  _idToAddressesProvider[id] */\n      0x00\n        /* \"contracts/protocol/configuration/PoolAddressesProviderRegistry.sol\":3093:3095  id */\n      dup4\n        /* \"contracts/protocol/configuration/PoolAddressesProviderRegistry.sol\":3070:3096  _idToAddressesProvider[id] */\n      dup2\n      mstore\n      0x20\n      add\n      swap1\n      dup2\n      mstore\n      0x20\n      add\n      0x00\n      keccak256\n      0x00\n      swap1\n      sload\n      swap1\n      0x0100\n      exp\n      swap1\n      div\n      0xffffffffffffffffffffffffffffffffffffffff\n      and\n        /* \"contracts/protocol/configuration/PoolAddressesProviderRegistry.sol\":3063:3096  return _idToAddressesProvider[id] */\n      swap1\n      pop\n        /* \"contracts/protocol/configuration/PoolAddressesProviderRegistry.sol\":2962:3102  function getAddressesProviderAddressById(uint256 id) external view override returns (address) {... */\n      swap2\n      swap1\n      pop\n      jump\t// out\n        /* \"contracts/dependencies/openzeppelin/contracts/Ownable.sol\":1655:1793  function renounceOwnership() public virtual onlyOwner {... */\n    tag_27:\n        /* \"contracts/dependencies/openzeppelin/contracts/Ownable.sol\":1257:1269  _msgSender() */\n      tag_60\n        /* \"contracts/dependencies/openzeppelin/contracts/Ownable.sol\":1257:1267  _msgSender */\n      tag_45\n        /* \"contracts/dependencies/openzeppelin/contracts/Ownable.sol\":1257:1269  _msgSender() */\n      jump\t// in\n    tag_60:\n        /* \"contracts/dependencies/openzeppelin/contracts/Ownable.sol\":1247:1269  _owner == _msgSender() */\n      0xffffffffffffffffffffffffffffffffffffffff\n      and\n        /* \"contracts/dependencies/openzeppelin/contracts/Ownable.sol\":1247:1253  _owner */\n      0x00\n      dup1\n      sload\n      swap1\n      0x0100\n      exp\n      swap1\n      div\n      0xffffffffffffffffffffffffffffffffffffffff\n      and\n        /* \"contracts/dependencies/openzeppelin/contracts/Ownable.sol\":1247:1269  _owner == _msgSender() */\n      0xffffffffffffffffffffffffffffffffffffffff\n      and\n      eq\n        /* \"contracts/dependencies/openzeppelin/contracts/Ownable.sol\":1239:1306  require(_owner == _msgSender(), 'Ownable: caller is not the owner') */\n      tag_61\n      jumpi\n      mload(0x40)\n      0x08c379a000000000000000000000000000000000000000000000000000000000\n      dup2\n      mstore\n      0x04\n      add\n      tag_62\n      swap1\n      tag_48\n      jump\t// in\n    tag_62:\n      mload(0x40)\n      dup1\n      swap2\n      sub\n      swap1\n      revert\n    tag_61:\n        /* \"contracts/dependencies/openzeppelin/contracts/Ownable.sol\":1758:1759  0 */\n      0x00\n        /* \"contracts/dependencies/openzeppelin/contracts/Ownable.sol\":1721:1761  OwnershipTransferred(_owner, address(0)) */\n      0xffffffffffffffffffffffffffffffffffffffff\n      and\n        /* \"contracts/dependencies/openzeppelin/contracts/Ownable.sol\":1742:1748  _owner */\n      0x00\n      dup1\n      sload\n      swap1\n      0x0100\n      exp\n      swap1\n      div\n      0xffffffffffffffffffffffffffffffffffffffff\n      and\n        /* \"contracts/dependencies/openzeppelin/contracts/Ownable.sol\":1721:1761  OwnershipTransferred(_owner, address(0)) */\n      0xffffffffffffffffffffffffffffffffffffffff\n      and\n      0x8be0079c531659141344cd1fd0a4f28419497f9722a3daafe3b4186f6b6457e0\n      mload(0x40)\n      mload(0x40)\n      dup1\n      swap2\n      sub\n      swap1\n      log3\n        /* \"contracts/dependencies/openzeppelin/contracts/Ownable.sol\":1785:1786  0 */\n      0x00\n        /* \"contracts/dependencies/openzeppelin/contracts/Ownable.sol\":1768:1774  _owner */\n      dup1\n      0x00\n        /* \"contracts/dependencies/openzeppelin/contracts/Ownable.sol\":1768:1787  _owner = address(0) */\n      0x0100\n      exp\n      dup2\n      sload\n      dup2\n      0xffffffffffffffffffffffffffffffffffffffff\n      mul\n      not\n      and\n      swap1\n      dup4\n      0xffffffffffffffffffffffffffffffffffffffff\n      and\n      mul\n      or\n      swap1\n      sstore\n      pop\n        /* \"contracts/dependencies/openzeppelin/contracts/Ownable.sol\":1655:1793  function renounceOwnership() public virtual onlyOwner {... */\n      jump\t// out\n        /* \"contracts/dependencies/openzeppelin/contracts/Ownable.sol\":1053:1126  function owner() public view returns (address) {... */\n    tag_29:\n        /* \"contracts/dependencies/openzeppelin/contracts/Ownable.sol\":1091:1098  address */\n      0x00\n        /* \"contracts/dependencies/openzeppelin/contracts/Ownable.sol\":1114:1120  _owner */\n      dup1\n      0x00\n      swap1\n      sload\n      swap1\n      0x0100\n      exp\n      swap1\n      div\n      0xffffffffffffffffffffffffffffffffffffffff\n      and\n        /* \"contracts/dependencies/openzeppelin/contracts/Ownable.sol\":1107:1120  return _owner */\n      swap1\n      pop\n        /* \"contracts/dependencies/openzeppelin/contracts/Ownable.sol\":1053:1126  function owner() public view returns (address) {... */\n      swap1\n      jump\t// out\n        /* \"contracts/protocol/configuration/PoolAddressesProviderRegistry.sol\":2726:2906  function getAddressesProviderIdByAddress(... */\n    tag_33:\n        /* \"contracts/protocol/configuration/PoolAddressesProviderRegistry.sol\":2836:2843  uint256 */\n      0x00\n        /* \"contracts/protocol/configuration/PoolAddressesProviderRegistry.sol\":2859:2881  _addressesProviderToId */\n      0x01\n        /* \"contracts/protocol/configuration/PoolAddressesProviderRegistry.sol\":2859:2900  _addressesProviderToId[addressesProvider] */\n      0x00\n        /* \"contracts/protocol/configuration/PoolAddressesProviderRegistry.sol\":2882:2899  addressesProvider */\n      dup4\n        /* \"contracts/protocol/configuration/PoolAddressesProviderRegistry.sol\":2859:2900  _addressesProviderToId[addressesProvider] */\n      0xffffffffffffffffffffffffffffffffffffffff\n      and\n      0xffffffffffffffffffffffffffffffffffffffff\n      and\n      dup2\n      mstore\n      0x20\n      add\n      swap1\n      dup2\n      mstore\n      0x20\n      add\n      0x00\n      keccak256\n      sload\n        /* \"contracts/protocol/configuration/PoolAddressesProviderRegistry.sol\":2852:2900  return _addressesProviderToId[addressesProvider] */\n      swap1\n      pop\n        /* \"contracts/protocol/configuration/PoolAddressesProviderRegistry.sol\":2726:2906  function getAddressesProviderIdByAddress(... */\n      swap2\n      swap1\n      pop\n      jump\t// out\n        /* \"contracts/protocol/configuration/PoolAddressesProviderRegistry.sol\":1633:2171  function registerAddressesProvider(address provider, uint256 id) external override onlyOwner {... */\n    tag_39:\n        /* \"contracts/dependencies/openzeppelin/contracts/Ownable.sol\":1257:1269  _msgSender() */\n      tag_67\n        /* \"contracts/dependencies/openzeppelin/contracts/Ownable.sol\":1257:1267  _msgSender */\n      tag_45\n        /* \"contracts/dependencies/openzeppelin/contracts/Ownable.sol\":1257:1269  _msgSender() */\n      jump\t// in\n    tag_67:\n        /* \"contracts/dependencies/openzeppelin/contracts/Ownable.sol\":1247:1269  _owner == _msgSender() */\n      0xffffffffffffffffffffffffffffffffffffffff\n      and\n        /* \"contracts/dependencies/openzeppelin/contracts/Ownable.sol\":1247:1253  _owner */\n      0x00\n      dup1\n      sload\n      swap1\n      0x0100\n      exp\n      swap1\n      div\n      0xffffffffffffffffffffffffffffffffffffffff\n      and\n        /* \"contracts/dependencies/openzeppelin/contracts/Ownable.sol\":1247:1269  _owner == _msgSender() */\n      0xffffffffffffffffffffffffffffffffffffffff\n      and\n      eq\n        /* \"contracts/dependencies/openzeppelin/contracts/Ownable.sol\":1239:1306  require(_owner == _msgSender(), 'Ownable: caller is not the owner') */\n      tag_68\n      jumpi\n      mload(0x40)\n      0x08c379a000000000000000000000000000000000000000000000000000000000\n      dup2\n      mstore\n      0x04\n      add\n      tag_69\n      swap1\n      tag_48\n      jump\t// in\n    tag_69:\n      mload(0x40)\n      dup1\n      swap2\n      sub\n      swap1\n      revert\n    tag_68:\n        /* \"contracts/protocol/configuration/PoolAddressesProviderRegistry.sol\":1747:1748  0 */\n      0x00\n        /* \"contracts/protocol/configuration/PoolAddressesProviderRegistry.sol\":1741:1743  id */\n      dup2\n        /* \"contracts/protocol/configuration/PoolAddressesProviderRegistry.sol\":1741:1748  id != 0 */\n      eq\n      iszero\n        /* \"contracts/protocol/configuration/PoolAddressesProviderRegistry.sol\":1750:1786  Errors.INVALID_ADDRESSES_PROVIDER_ID */\n      mload(0x40)\n      dup1\n      0x40\n      add\n      0x40\n      mstore\n      dup1\n      0x01\n      dup2\n      mstore\n      0x20\n      add\n      0x3800000000000000000000000000000000000000000000000000000000000000\n      dup2\n      mstore\n      pop\n        /* \"contracts/protocol/configuration/PoolAddressesProviderRegistry.sol\":1733:1787  require(id != 0, Errors.INVALID_ADDRESSES_PROVIDER_ID) */\n      swap1\n      tag_71\n      jumpi\n      mload(0x40)\n      0x08c379a000000000000000000000000000000000000000000000000000000000\n      dup2\n      mstore\n      0x04\n      add\n      tag_72\n      swap2\n      swap1\n      tag_52\n      jump\t// in\n    tag_72:\n      mload(0x40)\n      dup1\n      swap2\n      sub\n      swap1\n      revert\n    tag_71:\n      pop\n        /* \"contracts/protocol/configuration/PoolAddressesProviderRegistry.sol\":1840:1841  0 */\n      0x00\n        /* \"contracts/protocol/configuration/PoolAddressesProviderRegistry.sol\":1802:1842  _idToAddressesProvider[id] == address(0) */\n      0xffffffffffffffffffffffffffffffffffffffff\n      and\n        /* \"contracts/protocol/configuration/PoolAddressesProviderRegistry.sol\":1802:1824  _idToAddressesProvider */\n      0x02\n        /* \"contracts/protocol/configuration/PoolAddressesProviderRegistry.sol\":1802:1828  _idToAddressesProvider[id] */\n      0x00\n        /* \"contracts/protocol/configuration/PoolAddressesProviderRegistry.sol\":1825:1827  id */\n      dup4\n        /* \"contracts/protocol/configuration/PoolAddressesProviderRegistry.sol\":1802:1828  _idToAddressesProvider[id] */\n      dup2\n      mstore\n      0x20\n      add\n      swap1\n      dup2\n      mstore\n      0x20\n      add\n      0x00\n      keccak256\n      0x00\n      swap1\n      sload\n      swap1\n      0x0100\n      exp\n      swap1\n      div\n      0xffffffffffffffffffffffffffffffffffffffff\n      and\n        /* \"contracts/protocol/configuration/PoolAddressesProviderRegistry.sol\":1802:1842  _idToAddressesProvider[id] == address(0) */\n      0xffffffffffffffffffffffffffffffffffffffff\n      and\n      eq\n        /* \"contracts/protocol/configuration/PoolAddressesProviderRegistry.sol\":1844:1880  Errors.INVALID_ADDRESSES_PROVIDER_ID */\n      mload(0x40)\n      dup1\n      0x40\n      add\n      0x40\n      mstore\n      dup1\n      0x01\n      dup2\n      mstore\n      0x20\n      add\n      0x3800000000000000000000000000000000000000000000000000000000000000\n      dup2\n      mstore\n      pop\n        /* \"contracts/protocol/configuration/PoolAddressesProviderRegistry.sol\":1794:1881  require(_idToAddressesProvider[id] == address(0), Errors.INVALID_ADDRESSES_PROVIDER_ID) */\n      swap1\n      tag_73\n      jumpi\n      mload(0x40)\n      0x08c379a000000000000000000000000000000000000000000000000000000000\n      dup2\n      mstore\n      0x04\n      add\n      tag_74\n      swap2\n      swap1\n      tag_52\n      jump\t// in\n    tag_74:\n      mload(0x40)\n      dup1\n      swap2\n      sub\n      swap1\n      revert\n    tag_73:\n      pop\n        /* \"contracts/protocol/configuration/PoolAddressesProviderRegistry.sol\":1932:1933  0 */\n      0x00\n        /* \"contracts/protocol/configuration/PoolAddressesProviderRegistry.sol\":1896:1918  _addressesProviderToId */\n      0x01\n        /* \"contracts/protocol/configuration/PoolAddressesProviderRegistry.sol\":1896:1928  _addressesProviderToId[provider] */\n      0x00\n        /* \"contracts/protocol/configuration/PoolAddressesProviderRegistry.sol\":1919:1927  provider */\n      dup5\n        /* \"contracts/protocol/configuration/PoolAddressesProviderRegistry.sol\":1896:1928  _addressesProviderToId[provider] */\n      0xffffffffffffffffffffffffffffffffffffffff\n      and\n      0xffffffffffffffffffffffffffffffffffffffff\n      and\n      dup2\n      mstore\n      0x20\n      add\n      swap1\n      dup2\n      mstore\n      0x20\n      add\n      0x00\n      keccak256\n      sload\n        /* \"contracts/protocol/configuration/PoolAddressesProviderRegistry.sol\":1896:1933  _addressesProviderToId[provider] == 0 */\n      eq\n        /* \"contracts/protocol/configuration/PoolAddressesProviderRegistry.sol\":1935:1974  Errors.ADDRESSES_PROVIDER_ALREADY_ADDED */\n      mload(0x40)\n      dup1\n      0x40\n      add\n      0x40\n      mstore\n      dup1\n      0x02\n      dup2\n      mstore\n      0x20\n      add\n      0x3836000000000000000000000000000000000000000000000000000000000000\n      dup2\n      mstore\n      pop\n        /* \"contracts/protocol/configuration/PoolAddressesProviderRegistry.sol\":1888:1975  require(_addressesProviderToId[provider] == 0, Errors.ADDRESSES_PROVIDER_ALREADY_ADDED) */\n      swap1\n      tag_75\n      jumpi\n      mload(0x40)\n      0x08c379a000000000000000000000000000000000000000000000000000000000\n      dup2\n      mstore\n      0x04\n      add\n      tag_76\n      swap2\n      swap1\n      tag_52\n      jump\t// in\n    tag_76:\n      mload(0x40)\n      dup1\n      swap2\n      sub\n      swap1\n      revert\n    tag_75:\n      pop\n        /* \"contracts/protocol/configuration/PoolAddressesProviderRegistry.sol\":2019:2021  id */\n      dup1\n        /* \"contracts/protocol/configuration/PoolAddressesProviderRegistry.sol\":1984:2006  _addressesProviderToId */\n      0x01\n        /* \"contracts/protocol/configuration/PoolAddressesProviderRegistry.sol\":1984:2016  _addressesProviderToId[provider] */\n      0x00\n        /* \"contracts/protocol/configuration/PoolAddressesProviderRegistry.sol\":2007:2015  provider */\n      dup5\n        /* \"contracts/protocol/configuration/PoolAddressesProviderRegistry.sol\":1984:2016  _addressesProviderToId[provider] */\n      0xffffffffffffffffffffffffffffffffffffffff\n      and\n      0xffffffffffffffffffffffffffffffffffffffff\n      and\n      dup2\n      mstore\n      0x20\n      add\n      swap1\n      dup2\n      mstore\n      0x20\n      add\n      0x00\n      keccak256\n        /* \"contracts/protocol/configuration/PoolAddressesProviderRegistry.sol\":1984:2021  _addressesProviderToId[provider] = id */\n      dup2\n      swap1\n      sstore\n      pop\n        /* \"contracts/protocol/configuration/PoolAddressesProviderRegistry.sol\":2057:2065  provider */\n      dup2\n        /* \"contracts/protocol/configuration/PoolAddressesProviderRegistry.sol\":2028:2050  _idToAddressesProvider */\n      0x02\n        /* \"contracts/protocol/configuration/PoolAddressesProviderRegistry.sol\":2028:2054  _idToAddressesProvider[id] */\n      0x00\n        /* \"contracts/protocol/configuration/PoolAddressesProviderRegistry.sol\":2051:2053  id */\n      dup4\n        /* \"contracts/protocol/configuration/PoolAddressesProviderRegistry.sol\":2028:2054  _idToAddressesProvider[id] */\n      dup2\n      mstore\n      0x20\n      add\n      swap1\n      dup2\n      mstore\n      0x20\n      add\n      0x00\n      keccak256\n      0x00\n        /* \"contracts/protocol/configuration/PoolAddressesProviderRegistry.sol\":2028:2065  _idToAddressesProvider[id] = provider */\n      0x0100\n      exp\n      dup2\n      sload\n      dup2\n      0xffffffffffffffffffffffffffffffffffffffff\n      mul\n      not\n      and\n      swap1\n      dup4\n      0xffffffffffffffffffffffffffffffffffffffff\n      and\n      mul\n      or\n      swap1\n      sstore\n      pop\n        /* \"contracts/protocol/configuration/PoolAddressesProviderRegistry.sol\":2074:2112  _addToAddressesProvidersList(provider) */\n      tag_77\n        /* \"contracts/protocol/configuration/PoolAddressesProviderRegistry.sol\":2103:2111  provider */\n      dup3\n        /* \"contracts/protocol/configuration/PoolAddressesProviderRegistry.sol\":2074:2102  _addToAddressesProvidersList */\n      tag_78\n        /* \"contracts/protocol/configuration/PoolAddressesProviderRegistry.sol\":2074:2112  _addToAddressesProvidersList(provider) */\n      jump\t// in\n    tag_77:\n        /* \"contracts/protocol/configuration/PoolAddressesProviderRegistry.sol\":2162:2164  id */\n      dup1\n        /* \"contracts/protocol/configuration/PoolAddressesProviderRegistry.sol\":2152:2160  provider */\n      dup3\n        /* \"contracts/protocol/configuration/PoolAddressesProviderRegistry.sol\":2124:2165  AddressesProviderRegistered(provider, id) */\n      0xffffffffffffffffffffffffffffffffffffffff\n      and\n      0xc2e7cc813550ef0e7126cc0571281850ce5df2e9c400acf3589c38e4627f85f1\n      mload(0x40)\n      mload(0x40)\n      dup1\n      swap2\n      sub\n      swap1\n      log3\n        /* \"contracts/protocol/configuration/PoolAddressesProviderRegistry.sol\":1633:2171  function registerAddressesProvider(address provider, uint256 id) external override onlyOwner {... */\n      pop\n      pop\n      jump\t// out\n        /* \"contracts/dependencies/openzeppelin/contracts/Ownable.sol\":1938:2168  function transferOwnership(address newOwner) public virtual onlyOwner {... */\n    tag_42:\n        /* \"contracts/dependencies/openzeppelin/contracts/Ownable.sol\":1257:1269  _msgSender() */\n      tag_80\n        /* \"contracts/dependencies/openzeppelin/contracts/Ownable.sol\":1257:1267  _msgSender */\n      tag_45\n        /* \"contracts/dependencies/openzeppelin/contracts/Ownable.sol\":1257:1269  _msgSender() */\n      jump\t// in\n    tag_80:\n        /* \"contracts/dependencies/openzeppelin/contracts/Ownable.sol\":1247:1269  _owner == _msgSender() */\n      0xffffffffffffffffffffffffffffffffffffffff\n      and\n        /* \"contracts/dependencies/openzeppelin/contracts/Ownable.sol\":1247:1253  _owner */\n      0x00\n      dup1\n      sload\n      swap1\n      0x0100\n      exp\n      swap1\n      div\n      0xffffffffffffffffffffffffffffffffffffffff\n      and\n        /* \"contracts/dependencies/openzeppelin/contracts/Ownable.sol\":1247:1269  _owner == _msgSender() */\n      0xffffffffffffffffffffffffffffffffffffffff\n      and\n      eq\n        /* \"contracts/dependencies/openzeppelin/contracts/Ownable.sol\":1239:1306  require(_owner == _msgSender(), 'Ownable: caller is not the owner') */\n      tag_81\n      jumpi\n      mload(0x40)\n      0x08c379a000000000000000000000000000000000000000000000000000000000\n      dup2\n      mstore\n      0x04\n      add\n      tag_82\n      swap1\n      tag_48\n      jump\t// in\n    tag_82:\n      mload(0x40)\n      dup1\n      swap2\n      sub\n      swap1\n      revert\n    tag_81:\n        /* \"contracts/dependencies/openzeppelin/contracts/Ownable.sol\":2043:2044  0 */\n      0x00\n        /* \"contracts/dependencies/openzeppelin/contracts/Ownable.sol\":2023:2045  newOwner != address(0) */\n      0xffffffffffffffffffffffffffffffffffffffff\n      and\n        /* \"contracts/dependencies/openzeppelin/contracts/Ownable.sol\":2023:2031  newOwner */\n      dup2\n        /* \"contracts/dependencies/openzeppelin/contracts/Ownable.sol\":2023:2045  newOwner != address(0) */\n      0xffffffffffffffffffffffffffffffffffffffff\n      and\n      sub\n        /* \"contracts/dependencies/openzeppelin/contracts/Ownable.sol\":2015:2088  require(newOwner != address(0), 'Ownable: new owner is the zero address') */\n      tag_84\n      jumpi\n      mload(0x40)\n      0x08c379a000000000000000000000000000000000000000000000000000000000\n      dup2\n      mstore\n      0x04\n      add\n      tag_85\n      swap1\n      tag_86\n      jump\t// in\n    tag_85:\n      mload(0x40)\n      dup1\n      swap2\n      sub\n      swap1\n      revert\n    tag_84:\n        /* \"contracts/dependencies/openzeppelin/contracts/Ownable.sol\":2129:2137  newOwner */\n      dup1\n        /* \"contracts/dependencies/openzeppelin/contracts/Ownable.sol\":2100:2138  OwnershipTransferred(_owner, newOwner) */\n      0xffffffffffffffffffffffffffffffffffffffff\n      and\n        /* \"contracts/dependencies/openzeppelin/contracts/Ownable.sol\":2121:2127  _owner */\n      0x00\n      dup1\n      sload\n      swap1\n      0x0100\n      exp\n      swap1\n      div\n      0xffffffffffffffffffffffffffffffffffffffff\n      and\n        /* \"contracts/dependencies/openzeppelin/contracts/Ownable.sol\":2100:2138  OwnershipTransferred(_owner, newOwner) */\n      0xffffffffffffffffffffffffffffffffffffffff\n      and\n      0x8be0079c531659141344cd1fd0a4f28419497f9722a3daafe3b4186f6b6457e0\n      mload(0x40)\n      mload(0x40)\n      dup1\n      swap2\n      sub\n      swap1\n      log3\n        /* \"contracts/dependencies/openzeppelin/contracts/Ownable.sol\":2154:2162  newOwner */\n      dup1\n        /* \"contracts/dependencies/openzeppelin/contracts/Ownable.sol\":2145:2151  _owner */\n      0x00\n      dup1\n        /* \"contracts/dependencies/openzeppelin/contracts/Ownable.sol\":2145:2162  _owner = newOwner */\n      0x0100\n      exp\n      dup2\n      sload\n      dup2\n      0xffffffffffffffffffffffffffffffffffffffff\n      mul\n      not\n      and\n      swap1\n      dup4\n      0xffffffffffffffffffffffffffffffffffffffff\n      and\n      mul\n      or\n      swap1\n      sstore\n      pop\n        /* \"contracts/dependencies/openzeppelin/contracts/Ownable.sol\":1938:2168  function transferOwnership(address newOwner) public virtual onlyOwner {... */\n      pop\n      jump\t// out\n        /* \"contracts/dependencies/openzeppelin/contracts/Context.sol\":601:710  function _msgSender() internal view virtual returns (address payable) {... */\n    tag_45:\n        /* \"contracts/dependencies/openzeppelin/contracts/Context.sol\":654:669  address payable */\n      0x00\n        /* \"contracts/dependencies/openzeppelin/contracts/Context.sol\":693:703  msg.sender */\n      caller\n        /* \"contracts/dependencies/openzeppelin/contracts/Context.sol\":678:704  return payable(msg.sender) */\n      swap1\n      pop\n        /* \"contracts/dependencies/openzeppelin/contracts/Context.sol\":601:710  function _msgSender() internal view virtual returns (address payable) {... */\n      swap1\n      jump\t// out\n        /* \"contracts/protocol/configuration/PoolAddressesProviderRegistry.sol\":3591:4195  function _removeFromAddressesProvidersList(address provider) internal {... */\n    tag_54:\n        /* \"contracts/protocol/configuration/PoolAddressesProviderRegistry.sol\":3668:3681  uint256 index */\n      0x00\n        /* \"contracts/protocol/configuration/PoolAddressesProviderRegistry.sol\":3684:3710  _addressesProvidersIndexes */\n      0x04\n        /* \"contracts/protocol/configuration/PoolAddressesProviderRegistry.sol\":3684:3720  _addressesProvidersIndexes[provider] */\n      0x00\n        /* \"contracts/protocol/configuration/PoolAddressesProviderRegistry.sol\":3711:3719  provider */\n      dup4\n        /* \"contracts/protocol/configuration/PoolAddressesProviderRegistry.sol\":3684:3720  _addressesProvidersIndexes[provider] */\n      0xffffffffffffffffffffffffffffffffffffffff\n      and\n      0xffffffffffffffffffffffffffffffffffffffff\n      and\n      dup2\n      mstore\n      0x20\n      add\n      swap1\n      dup2\n      mstore\n      0x20\n      add\n      0x00\n      keccak256\n      sload\n        /* \"contracts/protocol/configuration/PoolAddressesProviderRegistry.sol\":3668:3720  uint256 index = _addressesProvidersIndexes[provider] */\n      swap1\n      pop\n        /* \"contracts/protocol/configuration/PoolAddressesProviderRegistry.sol\":3768:3769  0 */\n      0x00\n        /* \"contracts/protocol/configuration/PoolAddressesProviderRegistry.sol\":3729:3755  _addressesProvidersIndexes */\n      0x04\n        /* \"contracts/protocol/configuration/PoolAddressesProviderRegistry.sol\":3729:3765  _addressesProvidersIndexes[provider] */\n      0x00\n        /* \"contracts/protocol/configuration/PoolAddressesProviderRegistry.sol\":3756:3764  provider */\n      dup5\n        /* \"contracts/protocol/configuration/PoolAddressesProviderRegistry.sol\":3729:3765  _addressesProvidersIndexes[provider] */\n      0xffffffffffffffffffffffffffffffffffffffff\n      and\n      0xffffffffffffffffffffffffffffffffffffffff\n      and\n      dup2\n      mstore\n      0x20\n      add\n      swap1\n      dup2\n      mstore\n      0x20\n      add\n      0x00\n      keccak256\n        /* \"contracts/protocol/configuration/PoolAddressesProviderRegistry.sol\":3729:3769  _addressesProvidersIndexes[provider] = 0 */\n      dup2\n      swap1\n      sstore\n      pop\n        /* \"contracts/protocol/configuration/PoolAddressesProviderRegistry.sol\":3885:3902  uint256 lastIndex */\n      0x00\n        /* \"contracts/protocol/configuration/PoolAddressesProviderRegistry.sol\":3938:3939  1 */\n      0x01\n        /* \"contracts/protocol/configuration/PoolAddressesProviderRegistry.sol\":3905:3928  _addressesProvidersList */\n      0x03\n        /* \"contracts/protocol/configuration/PoolAddressesProviderRegistry.sol\":3905:3935  _addressesProvidersList.length */\n      dup1\n      sload\n      swap1\n      pop\n        /* \"contracts/protocol/configuration/PoolAddressesProviderRegistry.sol\":3905:3939  _addressesProvidersList.length - 1 */\n      tag_89\n      swap2\n      swap1\n      tag_90\n      jump\t// in\n    tag_89:\n        /* \"contracts/protocol/configuration/PoolAddressesProviderRegistry.sol\":3885:3939  uint256 lastIndex = _addressesProvidersList.length - 1 */\n      swap1\n      pop\n        /* \"contracts/protocol/configuration/PoolAddressesProviderRegistry.sol\":3958:3967  lastIndex */\n      dup1\n        /* \"contracts/protocol/configuration/PoolAddressesProviderRegistry.sol\":3950:3955  index */\n      dup3\n        /* \"contracts/protocol/configuration/PoolAddressesProviderRegistry.sol\":3950:3967  index < lastIndex */\n      lt\n        /* \"contracts/protocol/configuration/PoolAddressesProviderRegistry.sol\":3946:4154  if (index < lastIndex) {... */\n      iszero\n      tag_91\n      jumpi\n        /* \"contracts/protocol/configuration/PoolAddressesProviderRegistry.sol\":3978:3998  address lastProvider */\n      0x00\n        /* \"contracts/protocol/configuration/PoolAddressesProviderRegistry.sol\":4001:4024  _addressesProvidersList */\n      0x03\n        /* \"contracts/protocol/configuration/PoolAddressesProviderRegistry.sol\":4025:4034  lastIndex */\n      dup3\n        /* \"contracts/protocol/configuration/PoolAddressesProviderRegistry.sol\":4001:4035  _addressesProvidersList[lastIndex] */\n      dup2\n      sload\n      dup2\n      lt\n      tag_92\n      jumpi\n      tag_93\n      tag_94\n      jump\t// in\n    tag_93:\n    tag_92:\n      swap1\n      0x00\n      mstore\n      keccak256(0x00, 0x20)\n      add\n      0x00\n      swap1\n      sload\n      swap1\n      0x0100\n      exp\n      swap1\n      div\n      0xffffffffffffffffffffffffffffffffffffffff\n      and\n        /* \"contracts/protocol/configuration/PoolAddressesProviderRegistry.sol\":3978:4035  address lastProvider = _addressesProvidersList[lastIndex] */\n      swap1\n      pop\n        /* \"contracts/protocol/configuration/PoolAddressesProviderRegistry.sol\":4077:4089  lastProvider */\n      dup1\n        /* \"contracts/protocol/configuration/PoolAddressesProviderRegistry.sol\":4044:4067  _addressesProvidersList */\n      0x03\n        /* \"contracts/protocol/configuration/PoolAddressesProviderRegistry.sol\":4068:4073  index */\n      dup5\n        /* \"contracts/protocol/configuration/PoolAddressesProviderRegistry.sol\":4044:4074  _addressesProvidersList[index] */\n      dup2\n      sload\n      dup2\n      lt\n      tag_96\n      jumpi\n      tag_97\n      tag_94\n      jump\t// in\n    tag_97:\n    tag_96:\n      swap1\n      0x00\n      mstore\n      keccak256(0x00, 0x20)\n      add\n      0x00\n        /* \"contracts/protocol/configuration/PoolAddressesProviderRegistry.sol\":4044:4089  _addressesProvidersList[index] = lastProvider */\n      0x0100\n      exp\n      dup2\n      sload\n      dup2\n      0xffffffffffffffffffffffffffffffffffffffff\n      mul\n      not\n      and\n      swap1\n      dup4\n      0xffffffffffffffffffffffffffffffffffffffff\n      and\n      mul\n      or\n      swap1\n      sstore\n      pop\n        /* \"contracts/protocol/configuration/PoolAddressesProviderRegistry.sol\":4141:4146  index */\n      dup3\n        /* \"contracts/protocol/configuration/PoolAddressesProviderRegistry.sol\":4098:4124  _addressesProvidersIndexes */\n      0x04\n        /* \"contracts/protocol/configuration/PoolAddressesProviderRegistry.sol\":4098:4138  _addressesProvidersIndexes[lastProvider] */\n      0x00\n        /* \"contracts/protocol/configuration/PoolAddressesProviderRegistry.sol\":4125:4137  lastProvider */\n      dup4\n        /* \"contracts/protocol/configuration/PoolAddressesProviderRegistry.sol\":4098:4138  _addressesProvidersIndexes[lastProvider] */\n      0xffffffffffffffffffffffffffffffffffffffff\n      and\n      0xffffffffffffffffffffffffffffffffffffffff\n      and\n      dup2\n      mstore\n      0x20\n      add\n      swap1\n      dup2\n      mstore\n      0x20\n      add\n      0x00\n      keccak256\n        /* \"contracts/protocol/configuration/PoolAddressesProviderRegistry.sol\":4098:4146  _addressesProvidersIndexes[lastProvider] = index */\n      dup2\n      swap1\n      sstore\n      pop\n        /* \"contracts/protocol/configuration/PoolAddressesProviderRegistry.sol\":3969:4154  {... */\n      pop\n        /* \"contracts/protocol/configuration/PoolAddressesProviderRegistry.sol\":3946:4154  if (index < lastIndex) {... */\n    tag_91:\n        /* \"contracts/protocol/configuration/PoolAddressesProviderRegistry.sol\":4160:4183  _addressesProvidersList */\n      0x03\n        /* \"contracts/protocol/configuration/PoolAddressesProviderRegistry.sol\":4160:4189  _addressesProvidersList.pop() */\n      dup1\n      sload\n      dup1\n      tag_99\n      jumpi\n      tag_100\n      tag_101\n      jump\t// in\n    tag_100:\n    tag_99:\n      0x01\n      swap1\n      sub\n      dup2\n      dup2\n      swap1\n      0x00\n      mstore\n      keccak256(0x00, 0x20)\n      add\n      exp(0x0100, 0x00)\n      dup2\n      sload\n      swap1\n      0xffffffffffffffffffffffffffffffffffffffff\n      mul\n      not\n      and\n      swap1\n      sstore\n      swap1\n      sstore\n        /* \"contracts/protocol/configuration/PoolAddressesProviderRegistry.sol\":3661:4195  {... */\n      pop\n      pop\n        /* \"contracts/protocol/configuration/PoolAddressesProviderRegistry.sol\":3591:4195  function _removeFromAddressesProvidersList(address provider) internal {... */\n      pop\n      jump\t// out\n        /* \"contracts/protocol/configuration/PoolAddressesProviderRegistry.sol\":3248:3440  function _addToAddressesProvidersList(address provider) internal {... */\n    tag_78:\n        /* \"contracts/protocol/configuration/PoolAddressesProviderRegistry.sol\":3359:3382  _addressesProvidersList */\n      0x03\n        /* \"contracts/protocol/configuration/PoolAddressesProviderRegistry.sol\":3359:3389  _addressesProvidersList.length */\n      dup1\n      sload\n      swap1\n      pop\n        /* \"contracts/protocol/configuration/PoolAddressesProviderRegistry.sol\":3320:3346  _addressesProvidersIndexes */\n      0x04\n        /* \"contracts/protocol/configuration/PoolAddressesProviderRegistry.sol\":3320:3356  _addressesProvidersIndexes[provider] */\n      0x00\n        /* \"contracts/protocol/configuration/PoolAddressesProviderRegistry.sol\":3347:3355  provider */\n      dup4\n        /* \"contracts/protocol/configuration/PoolAddressesProviderRegistry.sol\":3320:3356  _addressesProvidersIndexes[provider] */\n      0xffffffffffffffffffffffffffffffffffffffff\n      and\n      0xffffffffffffffffffffffffffffffffffffffff\n      and\n      dup2\n      mstore\n      0x20\n      add\n      swap1\n      dup2\n      mstore\n      0x20\n      add\n      0x00\n      keccak256\n        /* \"contracts/protocol/configuration/PoolAddressesProviderRegistry.sol\":3320:3389  _addressesProvidersIndexes[provider] = _addressesProvidersList.length */\n      dup2\n      swap1\n      sstore\n      pop\n        /* \"contracts/protocol/configuration/PoolAddressesProviderRegistry.sol\":3396:3419  _addressesProvidersList */\n      0x03\n        /* \"contracts/protocol/configuration/PoolAddressesProviderRegistry.sol\":3425:3433  provider */\n      dup2\n        /* \"contracts/protocol/configuration/PoolAddressesProviderRegistry.sol\":3396:3434  _addressesProvidersList.push(provider) */\n      swap1\n      dup1\n      0x01\n      dup2\n      sload\n      add\n      dup1\n      dup3\n      sstore\n      dup1\n      swap2\n      pop\n      pop\n      0x01\n      swap1\n      sub\n      swap1\n      0x00\n      mstore\n      keccak256(0x00, 0x20)\n      add\n      0x00\n      swap1\n      swap2\n      swap1\n      swap2\n      swap1\n      swap2\n      0x0100\n      exp\n      dup2\n      sload\n      dup2\n      0xffffffffffffffffffffffffffffffffffffffff\n      mul\n      not\n      and\n      swap1\n      dup4\n      0xffffffffffffffffffffffffffffffffffffffff\n      and\n      mul\n      or\n      swap1\n      sstore\n      pop\n        /* \"contracts/protocol/configuration/PoolAddressesProviderRegistry.sol\":3248:3440  function _addToAddressesProvidersList(address provider) internal {... */\n      pop\n      jump\t// out\n        /* \"#utility.yul\":88:205   */\n    tag_106:\n        /* \"#utility.yul\":197:198   */\n      0x00\n        /* \"#utility.yul\":194:195   */\n      dup1\n        /* \"#utility.yul\":187:199   */\n      revert\n        /* \"#utility.yul\":334:460   */\n    tag_108:\n        /* \"#utility.yul\":371:378   */\n      0x00\n        /* \"#utility.yul\":411:453   */\n      0xffffffffffffffffffffffffffffffffffffffff\n        /* \"#utility.yul\":404:409   */\n      dup3\n        /* \"#utility.yul\":400:454   */\n      and\n        /* \"#utility.yul\":389:454   */\n      swap1\n      pop\n        /* \"#utility.yul\":334:460   */\n      swap2\n      swap1\n      pop\n      jump\t// out\n        /* \"#utility.yul\":466:562   */\n    tag_109:\n        /* \"#utility.yul\":503:510   */\n      0x00\n        /* \"#utility.yul\":532:556   */\n      tag_140\n        /* \"#utility.yul\":550:555   */\n      dup3\n        /* \"#utility.yul\":532:556   */\n      tag_108\n      jump\t// in\n    tag_140:\n        /* \"#utility.yul\":521:556   */\n      swap1\n      pop\n        /* \"#utility.yul\":466:562   */\n      swap2\n      swap1\n      pop\n      jump\t// out\n        /* \"#utility.yul\":568:690   */\n    tag_110:\n        /* \"#utility.yul\":641:665   */\n      tag_142\n        /* \"#utility.yul\":659:664   */\n      dup2\n        /* \"#utility.yul\":641:665   */\n      tag_109\n      jump\t// in\n    tag_142:\n        /* \"#utility.yul\":634:639   */\n      dup2\n        /* \"#utility.yul\":631:666   */\n      eq\n        /* \"#utility.yul\":621:684   */\n      tag_143\n      jumpi\n        /* \"#utility.yul\":680:681   */\n      0x00\n        /* \"#utility.yul\":677:678   */\n      dup1\n        /* \"#utility.yul\":670:682   */\n      revert\n        /* \"#utility.yul\":621:684   */\n    tag_143:\n        /* \"#utility.yul\":568:690   */\n      pop\n      jump\t// out\n        /* \"#utility.yul\":696:835   */\n    tag_111:\n        /* \"#utility.yul\":742:747   */\n      0x00\n        /* \"#utility.yul\":780:786   */\n      dup2\n        /* \"#utility.yul\":767:787   */\n      calldataload\n        /* \"#utility.yul\":758:787   */\n      swap1\n      pop\n        /* \"#utility.yul\":796:829   */\n      tag_145\n        /* \"#utility.yul\":823:828   */\n      dup2\n        /* \"#utility.yul\":796:829   */\n      tag_110\n      jump\t// in\n    tag_145:\n        /* \"#utility.yul\":696:835   */\n      swap3\n      swap2\n      pop\n      pop\n      jump\t// out\n        /* \"#utility.yul\":841:1170   */\n    tag_14:\n        /* \"#utility.yul\":900:906   */\n      0x00\n        /* \"#utility.yul\":949:951   */\n      0x20\n        /* \"#utility.yul\":937:946   */\n      dup3\n        /* \"#utility.yul\":928:935   */\n      dup5\n        /* \"#utility.yul\":924:947   */\n      sub\n        /* \"#utility.yul\":920:952   */\n      slt\n        /* \"#utility.yul\":917:1036   */\n      iszero\n      tag_147\n      jumpi\n        /* \"#utility.yul\":955:1034   */\n      tag_148\n      tag_106\n      jump\t// in\n    tag_148:\n        /* \"#utility.yul\":917:1036   */\n    tag_147:\n        /* \"#utility.yul\":1075:1076   */\n      0x00\n        /* \"#utility.yul\":1100:1153   */\n      tag_149\n        /* \"#utility.yul\":1145:1152   */\n      dup5\n        /* \"#utility.yul\":1136:1142   */\n      dup3\n        /* \"#utility.yul\":1125:1134   */\n      dup6\n        /* \"#utility.yul\":1121:1143   */\n      add\n        /* \"#utility.yul\":1100:1153   */\n      tag_111\n      jump\t// in\n    tag_149:\n        /* \"#utility.yul\":1090:1153   */\n      swap2\n      pop\n        /* \"#utility.yul\":1046:1163   */\n      pop\n        /* \"#utility.yul\":841:1170   */\n      swap3\n      swap2\n      pop\n      pop\n      jump\t// out\n        /* \"#utility.yul\":1176:1290   */\n    tag_112:\n        /* \"#utility.yul\":1243:1249   */\n      0x00\n        /* \"#utility.yul\":1277:1282   */\n      dup2\n        /* \"#utility.yul\":1271:1283   */\n      mload\n        /* \"#utility.yul\":1261:1283   */\n      swap1\n      pop\n        /* \"#utility.yul\":1176:1290   */\n      swap2\n      swap1\n      pop\n      jump\t// out\n        /* \"#utility.yul\":1296:1480   */\n    tag_113:\n        /* \"#utility.yul\":1395:1406   */\n      0x00\n        /* \"#utility.yul\":1429:1435   */\n      dup3\n        /* \"#utility.yul\":1424:1427   */\n      dup3\n        /* \"#utility.yul\":1417:1436   */\n      mstore\n        /* \"#utility.yul\":1469:1473   */\n      0x20\n        /* \"#utility.yul\":1464:1467   */\n      dup3\n        /* \"#utility.yul\":1460:1474   */\n      add\n        /* \"#utility.yul\":1445:1474   */\n      swap1\n      pop\n        /* \"#utility.yul\":1296:1480   */\n      swap3\n      swap2\n      pop\n      pop\n      jump\t// out\n        /* \"#utility.yul\":1486:1618   */\n    tag_114:\n        /* \"#utility.yul\":1553:1557   */\n      0x00\n        /* \"#utility.yul\":1576:1579   */\n      dup2\n        /* \"#utility.yul\":1568:1579   */\n      swap1\n      pop\n        /* \"#utility.yul\":1606:1610   */\n      0x20\n        /* \"#utility.yul\":1601:1604   */\n      dup3\n        /* \"#utility.yul\":1597:1611   */\n      add\n        /* \"#utility.yul\":1589:1611   */\n      swap1\n      pop\n        /* \"#utility.yul\":1486:1618   */\n      swap2\n      swap1\n      pop\n      jump\t// out\n        /* \"#utility.yul\":1624:1732   */\n    tag_115:\n        /* \"#utility.yul\":1701:1725   */\n      tag_154\n        /* \"#utility.yul\":1719:1724   */\n      dup2\n        /* \"#utility.yul\":1701:1725   */\n      tag_109\n      jump\t// in\n    tag_154:\n        /* \"#utility.yul\":1696:1699   */\n      dup3\n        /* \"#utility.yul\":1689:1726   */\n      mstore\n        /* \"#utility.yul\":1624:1732   */\n      pop\n      pop\n      jump\t// out\n        /* \"#utility.yul\":1738:1917   */\n    tag_116:\n        /* \"#utility.yul\":1807:1817   */\n      0x00\n        /* \"#utility.yul\":1828:1874   */\n      tag_156\n        /* \"#utility.yul\":1870:1873   */\n      dup4\n        /* \"#utility.yul\":1862:1868   */\n      dup4\n        /* \"#utility.yul\":1828:1874   */\n      tag_115\n      jump\t// in\n    tag_156:\n        /* \"#utility.yul\":1906:1910   */\n      0x20\n        /* \"#utility.yul\":1901:1904   */\n      dup4\n        /* \"#utility.yul\":1897:1911   */\n      add\n        /* \"#utility.yul\":1883:1911   */\n      swap1\n      pop\n        /* \"#utility.yul\":1738:1917   */\n      swap3\n      swap2\n      pop\n      pop\n      jump\t// out\n        /* \"#utility.yul\":1923:2036   */\n    tag_117:\n        /* \"#utility.yul\":1993:1997   */\n      0x00\n        /* \"#utility.yul\":2025:2029   */\n      0x20\n        /* \"#utility.yul\":2020:2023   */\n      dup3\n        /* \"#utility.yul\":2016:2030   */\n      add\n        /* \"#utility.yul\":2008:2030   */\n      swap1\n      pop\n        /* \"#utility.yul\":1923:2036   */\n      swap2\n      swap1\n      pop\n      jump\t// out\n        /* \"#utility.yul\":2072:2804   */\n    tag_118:\n        /* \"#utility.yul\":2191:2194   */\n      0x00\n        /* \"#utility.yul\":2220:2274   */\n      tag_159\n        /* \"#utility.yul\":2268:2273   */\n      dup3\n        /* \"#utility.yul\":2220:2274   */\n      tag_112\n      jump\t// in\n    tag_159:\n        /* \"#utility.yul\":2290:2376   */\n      tag_160\n        /* \"#utility.yul\":2369:2375   */\n      dup2\n        /* \"#utility.yul\":2364:2367   */\n      dup6\n        /* \"#utility.yul\":2290:2376   */\n      tag_113\n      jump\t// in\n    tag_160:\n        /* \"#utility.yul\":2283:2376   */\n      swap4\n      pop\n        /* \"#utility.yul\":2400:2456   */\n      tag_161\n        /* \"#utility.yul\":2450:2455   */\n      dup4\n        /* \"#utility.yul\":2400:2456   */\n      tag_114\n      jump\t// in\n    tag_161:\n        /* \"#utility.yul\":2479:2486   */\n      dup1\n        /* \"#utility.yul\":2510:2511   */\n      0x00\n        /* \"#utility.yul\":2495:2779   */\n    tag_162:\n        /* \"#utility.yul\":2520:2526   */\n      dup4\n        /* \"#utility.yul\":2517:2518   */\n      dup2\n        /* \"#utility.yul\":2514:2527   */\n      lt\n        /* \"#utility.yul\":2495:2779   */\n      iszero\n      tag_164\n      jumpi\n        /* \"#utility.yul\":2596:2602   */\n      dup2\n        /* \"#utility.yul\":2590:2603   */\n      mload\n        /* \"#utility.yul\":2623:2686   */\n      tag_165\n        /* \"#utility.yul\":2682:2685   */\n      dup9\n        /* \"#utility.yul\":2667:2680   */\n      dup3\n        /* \"#utility.yul\":2623:2686   */\n      tag_116\n      jump\t// in\n    tag_165:\n        /* \"#utility.yul\":2616:2686   */\n      swap8\n      pop\n        /* \"#utility.yul\":2709:2769   */\n      tag_166\n        /* \"#utility.yul\":2762:2768   */\n      dup4\n        /* \"#utility.yul\":2709:2769   */\n      tag_117\n      jump\t// in\n    tag_166:\n        /* \"#utility.yul\":2699:2769   */\n      swap3\n      pop\n        /* \"#utility.yul\":2555:2779   */\n      pop\n        /* \"#utility.yul\":2542:2543   */\n      0x01\n        /* \"#utility.yul\":2539:2540   */\n      dup2\n        /* \"#utility.yul\":2535:2544   */\n      add\n        /* \"#utility.yul\":2530:2544   */\n      swap1\n      pop\n        /* \"#utility.yul\":2495:2779   */\n      jump(tag_162)\n    tag_164:\n        /* \"#utility.yul\":2499:2513   */\n      pop\n        /* \"#utility.yul\":2795:2798   */\n      dup6\n        /* \"#utility.yul\":2788:2798   */\n      swap4\n      pop\n        /* \"#utility.yul\":2196:2804   */\n      pop\n      pop\n      pop\n        /* \"#utility.yul\":2072:2804   */\n      swap3\n      swap2\n      pop\n      pop\n      jump\t// out\n        /* \"#utility.yul\":2810:3183   */\n    tag_19:\n        /* \"#utility.yul\":2953:2957   */\n      0x00\n        /* \"#utility.yul\":2991:2993   */\n      0x20\n        /* \"#utility.yul\":2980:2989   */\n      dup3\n        /* \"#utility.yul\":2976:2994   */\n      add\n        /* \"#utility.yul\":2968:2994   */\n      swap1\n      pop\n        /* \"#utility.yul\":3040:3049   */\n      dup2\n        /* \"#utility.yul\":3034:3038   */\n      dup2\n        /* \"#utility.yul\":3030:3050   */\n      sub\n        /* \"#utility.yul\":3026:3027   */\n      0x00\n        /* \"#utility.yul\":3015:3024   */\n      dup4\n        /* \"#utility.yul\":3011:3028   */\n      add\n        /* \"#utility.yul\":3004:3051   */\n      mstore\n        /* \"#utility.yul\":3068:3176   */\n      tag_168\n        /* \"#utility.yul\":3171:3175   */\n      dup2\n        /* \"#utility.yul\":3162:3168   */\n      dup5\n        /* \"#utility.yul\":3068:3176   */\n      tag_118\n      jump\t// in\n    tag_168:\n        /* \"#utility.yul\":3060:3176   */\n      swap1\n      pop\n        /* \"#utility.yul\":2810:3183   */\n      swap3\n      swap2\n      pop\n      pop\n      jump\t// out\n        /* \"#utility.yul\":3189:3266   */\n    tag_119:\n        /* \"#utility.yul\":3226:3233   */\n      0x00\n        /* \"#utility.yul\":3255:3260   */\n      dup2\n        /* \"#utility.yul\":3244:3260   */\n      swap1\n      pop\n        /* \"#utility.yul\":3189:3266   */\n      swap2\n      swap1\n      pop\n      jump\t// out\n        /* \"#utility.yul\":3272:3394   */\n    tag_120:\n        /* \"#utility.yul\":3345:3369   */\n      tag_171\n        /* \"#utility.yul\":3363:3368   */\n      dup2\n        /* \"#utility.yul\":3345:3369   */\n      tag_119\n      jump\t// in\n    tag_171:\n        /* \"#utility.yul\":3338:3343   */\n      dup2\n        /* \"#utility.yul\":3335:3370   */\n      eq\n        /* \"#utility.yul\":3325:3388   */\n      tag_172\n      jumpi\n        /* \"#utility.yul\":3384:3385   */\n      0x00\n        /* \"#utility.yul\":3381:3382   */\n      dup1\n        /* \"#utility.yul\":3374:3386   */\n      revert\n        /* \"#utility.yul\":3325:3388   */\n    tag_172:\n        /* \"#utility.yul\":3272:3394   */\n      pop\n      jump\t// out\n        /* \"#utility.yul\":3400:3539   */\n    tag_121:\n        /* \"#utility.yul\":3446:3451   */\n      0x00\n        /* \"#utility.yul\":3484:3490   */\n      dup2\n        /* \"#utility.yul\":3471:3491   */\n      calldataload\n        /* \"#utility.yul\":3462:3491   */\n      swap1\n      pop\n        /* \"#utility.yul\":3500:3533   */\n      tag_174\n        /* \"#utility.yul\":3527:3532   */\n      dup2\n        /* \"#utility.yul\":3500:3533   */\n      tag_120\n      jump\t// in\n    tag_174:\n        /* \"#utility.yul\":3400:3539   */\n      swap3\n      swap2\n      pop\n      pop\n      jump\t// out\n        /* \"#utility.yul\":3545:3874   */\n    tag_22:\n        /* \"#utility.yul\":3604:3610   */\n      0x00\n        /* \"#utility.yul\":3653:3655   */\n      0x20\n        /* \"#utility.yul\":3641:3650   */\n      dup3\n        /* \"#utility.yul\":3632:3639   */\n      dup5\n        /* \"#utility.yul\":3628:3651   */\n      sub\n        /* \"#utility.yul\":3624:3656   */\n      slt\n        /* \"#utility.yul\":3621:3740   */\n      iszero\n      tag_176\n      jumpi\n        /* \"#utility.yul\":3659:3738   */\n      tag_177\n      tag_106\n      jump\t// in\n    tag_177:\n        /* \"#utility.yul\":3621:3740   */\n    tag_176:\n        /* \"#utility.yul\":3779:3780   */\n      0x00\n        /* \"#utility.yul\":3804:3857   */\n      tag_178\n        /* \"#utility.yul\":3849:3856   */\n      dup5\n        /* \"#utility.yul\":3840:3846   */\n      dup3\n        /* \"#utility.yul\":3829:3838   */\n      dup6\n        /* \"#utility.yul\":3825:3847   */\n      add\n        /* \"#utility.yul\":3804:3857   */\n      tag_121\n      jump\t// in\n    tag_178:\n        /* \"#utility.yul\":3794:3857   */\n      swap2\n      pop\n        /* \"#utility.yul\":3750:3867   */\n      pop\n        /* \"#utility.yul\":3545:3874   */\n      swap3\n      swap2\n      pop\n      pop\n      jump\t// out\n        /* \"#utility.yul\":3880:3998   */\n    tag_122:\n        /* \"#utility.yul\":3967:3991   */\n      tag_180\n        /* \"#utility.yul\":3985:3990   */\n      dup2\n        /* \"#utility.yul\":3967:3991   */\n      tag_109\n      jump\t// in\n    tag_180:\n        /* \"#utility.yul\":3962:3965   */\n      dup3\n        /* \"#utility.yul\":3955:3992   */\n      mstore\n        /* \"#utility.yul\":3880:3998   */\n      pop\n      pop\n      jump\t// out\n        /* \"#utility.yul\":4004:4226   */\n    tag_25:\n        /* \"#utility.yul\":4097:4101   */\n      0x00\n        /* \"#utility.yul\":4135:4137   */\n      0x20\n        /* \"#utility.yul\":4124:4133   */\n      dup3\n        /* \"#utility.yul\":4120:4138   */\n      add\n        /* \"#utility.yul\":4112:4138   */\n      swap1\n      pop\n        /* \"#utility.yul\":4148:4219   */\n      tag_182\n        /* \"#utility.yul\":4216:4217   */\n      0x00\n        /* \"#utility.yul\":4205:4214   */\n      dup4\n        /* \"#utility.yul\":4201:4218   */\n      add\n        /* \"#utility.yul\":4192:4198   */\n      dup5\n        /* \"#utility.yul\":4148:4219   */\n      tag_122\n      jump\t// in\n    tag_182:\n        /* \"#utility.yul\":4004:4226   */\n      swap3\n      swap2\n      pop\n      pop\n      jump\t// out\n        /* \"#utility.yul\":4232:4350   */\n    tag_123:\n        /* \"#utility.yul\":4319:4343   */\n      tag_184\n        /* \"#utility.yul\":4337:4342   */\n      dup2\n        /* \"#utility.yul\":4319:4343   */\n      tag_119\n      jump\t// in\n    tag_184:\n        /* \"#utility.yul\":4314:4317   */\n      dup3\n        /* \"#utility.yul\":4307:4344   */\n      mstore\n        /* \"#utility.yul\":4232:4350   */\n      pop\n      pop\n      jump\t// out\n        /* \"#utility.yul\":4356:4578   */\n    tag_35:\n        /* \"#utility.yul\":4449:4453   */\n      0x00\n        /* \"#utility.yul\":4487:4489   */\n      0x20\n        /* \"#utility.yul\":4476:4485   */\n      dup3\n        /* \"#utility.yul\":4472:4490   */\n      add\n        /* \"#utility.yul\":4464:4490   */\n      swap1\n      pop\n        /* \"#utility.yul\":4500:4571   */\n      tag_186\n        /* \"#utility.yul\":4568:4569   */\n      0x00\n        /* \"#utility.yul\":4557:4566   */\n      dup4\n        /* \"#utility.yul\":4553:4570   */\n      add\n        /* \"#utility.yul\":4544:4550   */\n      dup5\n        /* \"#utility.yul\":4500:4571   */\n      tag_123\n      jump\t// in\n    tag_186:\n        /* \"#utility.yul\":4356:4578   */\n      swap3\n      swap2\n      pop\n      pop\n      jump\t// out\n        /* \"#utility.yul\":4584:5058   */\n    tag_38:\n        /* \"#utility.yul\":4652:4658   */\n      0x00\n        /* \"#utility.yul\":4660:4666   */\n      dup1\n        /* \"#utility.yul\":4709:4711   */\n      0x40\n        /* \"#utility.yul\":4697:4706   */\n      dup4\n        /* \"#utility.yul\":4688:4695   */\n      dup6\n        /* \"#utility.yul\":4684:4707   */\n      sub\n        /* \"#utility.yul\":4680:4712   */\n      slt\n        /* \"#utility.yul\":4677:4796   */\n      iszero\n      tag_188\n      jumpi\n        /* \"#utility.yul\":4715:4794   */\n      tag_189\n      tag_106\n      jump\t// in\n    tag_189:\n        /* \"#utility.yul\":4677:4796   */\n    tag_188:\n        /* \"#utility.yul\":4835:4836   */\n      0x00\n        /* \"#utility.yul\":4860:4913   */\n      tag_190\n        /* \"#utility.yul\":4905:4912   */\n      dup6\n        /* \"#utility.yul\":4896:4902   */\n      dup3\n        /* \"#utility.yul\":4885:4894   */\n      dup7\n        /* \"#utility.yul\":4881:4903   */\n      add\n        /* \"#utility.yul\":4860:4913   */\n      tag_111\n      jump\t// in\n    tag_190:\n        /* \"#utility.yul\":4850:4913   */\n      swap3\n      pop\n        /* \"#utility.yul\":4806:4923   */\n      pop\n        /* \"#utility.yul\":4962:4964   */\n      0x20\n        /* \"#utility.yul\":4988:5041   */\n      tag_191\n        /* \"#utility.yul\":5033:5040   */\n      dup6\n        /* \"#utility.yul\":5024:5030   */\n      dup3\n        /* \"#utility.yul\":5013:5022   */\n      dup7\n        /* \"#utility.yul\":5009:5031   */\n      add\n        /* \"#utility.yul\":4988:5041   */\n      tag_121\n      jump\t// in\n    tag_191:\n        /* \"#utility.yul\":4978:5041   */\n      swap2\n      pop\n        /* \"#utility.yul\":4933:5051   */\n      pop\n        /* \"#utility.yul\":4584:5058   */\n      swap3\n      pop\n      swap3\n      swap1\n      pop\n      jump\t// out\n        /* \"#utility.yul\":5064:5233   */\n    tag_124:\n        /* \"#utility.yul\":5148:5159   */\n      0x00\n        /* \"#utility.yul\":5182:5188   */\n      dup3\n        /* \"#utility.yul\":5177:5180   */\n      dup3\n        /* \"#utility.yul\":5170:5189   */\n      mstore\n        /* \"#utility.yul\":5222:5226   */\n      0x20\n        /* \"#utility.yul\":5217:5220   */\n      dup3\n        /* \"#utility.yul\":5213:5227   */\n      add\n        /* \"#utility.yul\":5198:5227   */\n      swap1\n      pop\n        /* \"#utility.yul\":5064:5233   */\n      swap3\n      swap2\n      pop\n      pop\n      jump\t// out\n        /* \"#utility.yul\":5239:5421   */\n    tag_125:\n        /* \"#utility.yul\":5379:5413   */\n      0x4f776e61626c653a2063616c6c6572206973206e6f7420746865206f776e6572\n        /* \"#utility.yul\":5375:5376   */\n      0x00\n        /* \"#utility.yul\":5367:5373   */\n      dup3\n        /* \"#utility.yul\":5363:5377   */\n      add\n        /* \"#utility.yul\":5356:5414   */\n      mstore\n        /* \"#utility.yul\":5239:5421   */\n      pop\n      jump\t// out\n        /* \"#utility.yul\":5427:5793   */\n    tag_126:\n        /* \"#utility.yul\":5569:5572   */\n      0x00\n        /* \"#utility.yul\":5590:5657   */\n      tag_195\n        /* \"#utility.yul\":5654:5656   */\n      0x20\n        /* \"#utility.yul\":5649:5652   */\n      dup4\n        /* \"#utility.yul\":5590:5657   */\n      tag_124\n      jump\t// in\n    tag_195:\n        /* \"#utility.yul\":5583:5657   */\n      swap2\n      pop\n        /* \"#utility.yul\":5666:5759   */\n      tag_196\n        /* \"#utility.yul\":5755:5758   */\n      dup3\n        /* \"#utility.yul\":5666:5759   */\n      tag_125\n      jump\t// in\n    tag_196:\n        /* \"#utility.yul\":5784:5786   */\n      0x20\n        /* \"#utility.yul\":5779:5782   */\n      dup3\n        /* \"#utility.yul\":5775:5787   */\n      add\n        /* \"#utility.yul\":5768:5787   */\n      swap1\n      pop\n        /* \"#utility.yul\":5427:5793   */\n      swap2\n      swap1\n      pop\n      jump\t// out\n        /* \"#utility.yul\":5799:6218   */\n    tag_48:\n        /* \"#utility.yul\":5965:5969   */\n      0x00\n        /* \"#utility.yul\":6003:6005   */\n      0x20\n        /* \"#utility.yul\":5992:6001   */\n      dup3\n        /* \"#utility.yul\":5988:6006   */\n      add\n        /* \"#utility.yul\":5980:6006   */\n      swap1\n      pop\n        /* \"#utility.yul\":6052:6061   */\n      dup2\n        /* \"#utility.yul\":6046:6050   */\n      dup2\n        /* \"#utility.yul\":6042:6062   */\n      sub\n        /* \"#utility.yul\":6038:6039   */\n      0x00\n        /* \"#utility.yul\":6027:6036   */\n      dup4\n        /* \"#utility.yul\":6023:6040   */\n      add\n        /* \"#utility.yul\":6016:6063   */\n      mstore\n        /* \"#utility.yul\":6080:6211   */\n      tag_198\n        /* \"#utility.yul\":6206:6210   */\n      dup2\n        /* \"#utility.yul\":6080:6211   */\n      tag_126\n      jump\t// in\n    tag_198:\n        /* \"#utility.yul\":6072:6211   */\n      swap1\n      pop\n        /* \"#utility.yul\":5799:6218   */\n      swap2\n      swap1\n      pop\n      jump\t// out\n        /* \"#utility.yul\":6224:6323   */\n    tag_127:\n        /* \"#utility.yul\":6276:6282   */\n      0x00\n        /* \"#utility.yul\":6310:6315   */\n      dup2\n        /* \"#utility.yul\":6304:6316   */\n      mload\n        /* \"#utility.yul\":6294:6316   */\n      swap1\n      pop\n        /* \"#utility.yul\":6224:6323   */\n      swap2\n      swap1\n      pop\n      jump\t// out\n        /* \"#utility.yul\":6329:6468   */\n    tag_128:\n        /* \"#utility.yul\":6418:6424   */\n      dup3\n        /* \"#utility.yul\":6413:6416   */\n      dup2\n        /* \"#utility.yul\":6408:6411   */\n      dup4\n        /* \"#utility.yul\":6402:6425   */\n      mcopy\n        /* \"#utility.yul\":6459:6460   */\n      0x00\n        /* \"#utility.yul\":6450:6456   */\n      dup4\n        /* \"#utility.yul\":6445:6448   */\n      dup4\n        /* \"#utility.yul\":6441:6457   */\n      add\n        /* \"#utility.yul\":6434:6461   */\n      mstore\n        /* \"#utility.yul\":6329:6468   */\n      pop\n      pop\n      pop\n      jump\t// out\n        /* \"#utility.yul\":6474:6576   */\n    tag_129:\n        /* \"#utility.yul\":6515:6521   */\n      0x00\n        /* \"#utility.yul\":6566:6568   */\n      0x1f\n        /* \"#utility.yul\":6562:6569   */\n      not\n        /* \"#utility.yul\":6557:6559   */\n      0x1f\n        /* \"#utility.yul\":6550:6555   */\n      dup4\n        /* \"#utility.yul\":6546:6560   */\n      add\n        /* \"#utility.yul\":6542:6570   */\n      and\n        /* \"#utility.yul\":6532:6570   */\n      swap1\n      pop\n        /* \"#utility.yul\":6474:6576   */\n      swap2\n      swap1\n      pop\n      jump\t// out\n        /* \"#utility.yul\":6582:6959   */\n    tag_130:\n        /* \"#utility.yul\":6670:6673   */\n      0x00\n        /* \"#utility.yul\":6698:6737   */\n      tag_203\n        /* \"#utility.yul\":6731:6736   */\n      dup3\n        /* \"#utility.yul\":6698:6737   */\n      tag_127\n      jump\t// in\n    tag_203:\n        /* \"#utility.yul\":6753:6824   */\n      tag_204\n        /* \"#utility.yul\":6817:6823   */\n      dup2\n        /* \"#utility.yul\":6812:6815   */\n      dup6\n        /* \"#utility.yul\":6753:6824   */\n      tag_124\n      jump\t// in\n    tag_204:\n        /* \"#utility.yul\":6746:6824   */\n      swap4\n      pop\n        /* \"#utility.yul\":6833:6898   */\n      tag_205\n        /* \"#utility.yul\":6891:6897   */\n      dup2\n        /* \"#utility.yul\":6886:6889   */\n      dup6\n        /* \"#utility.yul\":6879:6883   */\n      0x20\n        /* \"#utility.yul\":6872:6877   */\n      dup7\n        /* \"#utility.yul\":6868:6884   */\n      add\n        /* \"#utility.yul\":6833:6898   */\n      tag_128\n      jump\t// in\n    tag_205:\n        /* \"#utility.yul\":6923:6952   */\n      tag_206\n        /* \"#utility.yul\":6945:6951   */\n      dup2\n        /* \"#utility.yul\":6923:6952   */\n      tag_129\n      jump\t// in\n    tag_206:\n        /* \"#utility.yul\":6918:6921   */\n      dup5\n        /* \"#utility.yul\":6914:6953   */\n      add\n        /* \"#utility.yul\":6907:6953   */\n      swap2\n      pop\n        /* \"#utility.yul\":6674:6959   */\n      pop\n        /* \"#utility.yul\":6582:6959   */\n      swap3\n      swap2\n      pop\n      pop\n      jump\t// out\n        /* \"#utility.yul\":6965:7278   */\n    tag_52:\n        /* \"#utility.yul\":7078:7082   */\n      0x00\n        /* \"#utility.yul\":7116:7118   */\n      0x20\n        /* \"#utility.yul\":7105:7114   */\n      dup3\n        /* \"#utility.yul\":7101:7119   */\n      add\n        /* \"#utility.yul\":7093:7119   */\n      swap1\n      pop\n        /* \"#utility.yul\":7165:7174   */\n      dup2\n        /* \"#utility.yul\":7159:7163   */\n      dup2\n        /* \"#utility.yul\":7155:7175   */\n      sub\n        /* \"#utility.yul\":7151:7152   */\n      0x00\n        /* \"#utility.yul\":7140:7149   */\n      dup4\n        /* \"#utility.yul\":7136:7153   */\n      add\n        /* \"#utility.yul\":7129:7176   */\n      mstore\n        /* \"#utility.yul\":7193:7271   */\n      tag_208\n        /* \"#utility.yul\":7266:7270   */\n      dup2\n        /* \"#utility.yul\":7257:7263   */\n      dup5\n        /* \"#utility.yul\":7193:7271   */\n      tag_130\n      jump\t// in\n    tag_208:\n        /* \"#utility.yul\":7185:7271   */\n      swap1\n      pop\n        /* \"#utility.yul\":6965:7278   */\n      swap3\n      swap2\n      pop\n      pop\n      jump\t// out\n        /* \"#utility.yul\":7284:7509   */\n    tag_131:\n        /* \"#utility.yul\":7424:7458   */\n      0x4f776e61626c653a206e6577206f776e657220697320746865207a65726f2061\n        /* \"#utility.yul\":7420:7421   */\n      0x00\n        /* \"#utility.yul\":7412:7418   */\n      dup3\n        /* \"#utility.yul\":7408:7422   */\n      add\n        /* \"#utility.yul\":7401:7459   */\n      mstore\n        /* \"#utility.yul\":7493:7501   */\n      0x6464726573730000000000000000000000000000000000000000000000000000\n        /* \"#utility.yul\":7488:7490   */\n      0x20\n        /* \"#utility.yul\":7480:7486   */\n      dup3\n        /* \"#utility.yul\":7476:7491   */\n      add\n        /* \"#utility.yul\":7469:7502   */\n      mstore\n        /* \"#utility.yul\":7284:7509   */\n      pop\n      jump\t// out\n        /* \"#utility.yul\":7515:7881   */\n    tag_132:\n        /* \"#utility.yul\":7657:7660   */\n      0x00\n        /* \"#utility.yul\":7678:7745   */\n      tag_211\n        /* \"#utility.yul\":7742:7744   */\n      0x26\n        /* \"#utility.yul\":7737:7740   */\n      dup4\n        /* \"#utility.yul\":7678:7745   */\n      tag_124\n      jump\t// in\n    tag_211:\n        /* \"#utility.yul\":7671:7745   */\n      swap2\n      pop\n        /* \"#utility.yul\":7754:7847   */\n      tag_212\n        /* \"#utility.yul\":7843:7846   */\n      dup3\n        /* \"#utility.yul\":7754:7847   */\n      tag_131\n      jump\t// in\n    tag_212:\n        /* \"#utility.yul\":7872:7874   */\n      0x40\n        /* \"#utility.yul\":7867:7870   */\n      dup3\n        /* \"#utility.yul\":7863:7875   */\n      add\n        /* \"#utility.yul\":7856:7875   */\n      swap1\n      pop\n        /* \"#utility.yul\":7515:7881   */\n      swap2\n      swap1\n      pop\n      jump\t// out\n        /* \"#utility.yul\":7887:8306   */\n    tag_86:\n        /* \"#utility.yul\":8053:8057   */\n      0x00\n        /* \"#utility.yul\":8091:8093   */\n      0x20\n        /* \"#utility.yul\":8080:8089   */\n      dup3\n        /* \"#utility.yul\":8076:8094   */\n      add\n        /* \"#utility.yul\":8068:8094   */\n      swap1\n      pop\n        /* \"#utility.yul\":8140:8149   */\n      dup2\n        /* \"#utility.yul\":8134:8138   */\n      dup2\n        /* \"#utility.yul\":8130:8150   */\n      sub\n        /* \"#utility.yul\":8126:8127   */\n      0x00\n        /* \"#utility.yul\":8115:8124   */\n      dup4\n        /* \"#utility.yul\":8111:8128   */\n      add\n        /* \"#utility.yul\":8104:8151   */\n      mstore\n        /* \"#utility.yul\":8168:8299   */\n      tag_214\n        /* \"#utility.yul\":8294:8298   */\n      dup2\n        /* \"#utility.yul\":8168:8299   */\n      tag_132\n      jump\t// in\n    tag_214:\n        /* \"#utility.yul\":8160:8299   */\n      swap1\n      pop\n        /* \"#utility.yul\":7887:8306   */\n      swap2\n      swap1\n      pop\n      jump\t// out\n        /* \"#utility.yul\":8312:8492   */\n    tag_133:\n        /* \"#utility.yul\":8360:8437   */\n      0x4e487b7100000000000000000000000000000000000000000000000000000000\n        /* \"#utility.yul\":8357:8358   */\n      0x00\n        /* \"#utility.yul\":8350:8438   */\n      mstore\n        /* \"#utility.yul\":8457:8461   */\n      0x11\n        /* \"#utility.yul\":8454:8455   */\n      0x04\n        /* \"#utility.yul\":8447:8462   */\n      mstore\n        /* \"#utility.yul\":8481:8485   */\n      0x24\n        /* \"#utility.yul\":8478:8479   */\n      0x00\n        /* \"#utility.yul\":8471:8486   */\n      revert\n        /* \"#utility.yul\":8498:8692   */\n    tag_90:\n        /* \"#utility.yul\":8538:8542   */\n      0x00\n        /* \"#utility.yul\":8558:8578   */\n      tag_217\n        /* \"#utility.yul\":8576:8577   */\n      dup3\n        /* \"#utility.yul\":8558:8578   */\n      tag_119\n      jump\t// in\n    tag_217:\n        /* \"#utility.yul\":8553:8578   */\n      swap2\n      pop\n        /* \"#utility.yul\":8592:8612   */\n      tag_218\n        /* \"#utility.yul\":8610:8611   */\n      dup4\n        /* \"#utility.yul\":8592:8612   */\n      tag_119\n      jump\t// in\n    tag_218:\n        /* \"#utility.yul\":8587:8612   */\n      swap3\n      pop\n        /* \"#utility.yul\":8636:8637   */\n      dup3\n        /* \"#utility.yul\":8633:8634   */\n      dup3\n        /* \"#utility.yul\":8629:8638   */\n      sub\n        /* \"#utility.yul\":8621:8638   */\n      swap1\n      pop\n        /* \"#utility.yul\":8660:8661   */\n      dup2\n        /* \"#utility.yul\":8654:8658   */\n      dup2\n        /* \"#utility.yul\":8651:8662   */\n      gt\n        /* \"#utility.yul\":8648:8685   */\n      iszero\n      tag_219\n      jumpi\n        /* \"#utility.yul\":8665:8683   */\n      tag_220\n      tag_133\n      jump\t// in\n    tag_220:\n        /* \"#utility.yul\":8648:8685   */\n    tag_219:\n        /* \"#utility.yul\":8498:8692   */\n      swap3\n      swap2\n      pop\n      pop\n      jump\t// out\n        /* \"#utility.yul\":8698:8878   */\n    tag_94:\n        /* \"#utility.yul\":8746:8823   */\n      0x4e487b7100000000000000000000000000000000000000000000000000000000\n        /* \"#utility.yul\":8743:8744   */\n      0x00\n        /* \"#utility.yul\":8736:8824   */\n      mstore\n        /* \"#utility.yul\":8843:8847   */\n      0x32\n        /* \"#utility.yul\":8840:8841   */\n      0x04\n        /* \"#utility.yul\":8833:8848   */\n      mstore\n        /* \"#utility.yul\":8867:8871   */\n      0x24\n        /* \"#utility.yul\":8864:8865   */\n      0x00\n        /* \"#utility.yul\":8857:8872   */\n      revert\n        /* \"#utility.yul\":8884:9064   */\n    tag_101:\n        /* \"#utility.yul\":8932:9009   */\n      0x4e487b7100000000000000000000000000000000000000000000000000000000\n        /* \"#utility.yul\":8929:8930   */\n      0x00\n        /* \"#utility.yul\":8922:9010   */\n      mstore\n        /* \"#utility.yul\":9029:9033   */\n      0x31\n        /* \"#utility.yul\":9026:9027   */\n      0x04\n        /* \"#utility.yul\":9019:9034   */\n      mstore\n        /* \"#utility.yul\":9053:9057   */\n      0x24\n        /* \"#utility.yul\":9050:9051   */\n      0x00\n        /* \"#utility.yul\":9043:9058   */\n      revert\n\n    auxdata: 0xa26469706673582212208a8166046b397f7228ac4b6ebed8e5247f24e26e8457e588fe8cbfce04224c9764736f6c634300081a0033\n}\n",
				"bytecode": {
					"linkReferences": {},
					"object": "608060405234801561000f575f80fd5b5060405161174138038061174183398181016040528101906100319190610319565b5f6100406100f160201b60201c565b9050805f806101000a81548173ffffffffffffffffffffffffffffffffffffffff021916908373ffffffffffffffffffffffffffffffffffffffff1602179055508073ffffffffffffffffffffffffffffffffffffffff165f73ffffffffffffffffffffffffffffffffffffffff167f8be0079c531659141344cd1fd0a4f28419497f9722a3daafe3b4186f6b6457e060405160405180910390a3506100eb816100f860201b60201c565b5061044a565b5f33905090565b6101066100f160201b60201c565b73ffffffffffffffffffffffffffffffffffffffff165f8054906101000a900473ffffffffffffffffffffffffffffffffffffffff1673ffffffffffffffffffffffffffffffffffffffff1614610192576040517f08c379a00000000000000000000000000000000000000000000000000000000081526004016101899061039e565b60405180910390fd5b5f73ffffffffffffffffffffffffffffffffffffffff168173ffffffffffffffffffffffffffffffffffffffff1603610200576040517f08c379a00000000000000000000000000000000000000000000000000000000081526004016101f79061042c565b60405180910390fd5b8073ffffffffffffffffffffffffffffffffffffffff165f8054906101000a900473ffffffffffffffffffffffffffffffffffffffff1673ffffffffffffffffffffffffffffffffffffffff167f8be0079c531659141344cd1fd0a4f28419497f9722a3daafe3b4186f6b6457e060405160405180910390a3805f806101000a81548173ffffffffffffffffffffffffffffffffffffffff021916908373ffffffffffffffffffffffffffffffffffffffff16021790555050565b5f80fd5b5f73ffffffffffffffffffffffffffffffffffffffff82169050919050565b5f6102e8826102bf565b9050919050565b6102f8816102de565b8114610302575f80fd5b50565b5f81519050610313816102ef565b92915050565b5f6020828403121561032e5761032d6102bb565b5b5f61033b84828501610305565b91505092915050565b5f82825260208201905092915050565b7f4f776e61626c653a2063616c6c6572206973206e6f7420746865206f776e65725f82015250565b5f610388602083610344565b915061039382610354565b602082019050919050565b5f6020820190508181035f8301526103b58161037c565b9050919050565b7f4f776e61626c653a206e6577206f776e657220697320746865207a65726f20615f8201527f6464726573730000000000000000000000000000000000000000000000000000602082015250565b5f610416602683610344565b9150610421826103bc565b604082019050919050565b5f6020820190508181035f8301526104438161040a565b9050919050565b6112ea806104575f395ff3fe608060405234801561000f575f80fd5b5060043610610086575f3560e01c80638da5cb5b116100595780638da5cb5b146100fe578063d0267be71461011c578063d258191e1461014c578063f2fde38b1461016857610086565b80630de267071461008a578063365ccbbf146100a657806357dc0566146100c4578063715018a6146100f4575b5f80fd5b6100a4600480360381019061009f9190610e86565b610184565b005b6100ae6103f4565b6040516100bb9190610f68565b60405180910390f35b6100de60048036038101906100d99190610fbb565b61047f565b6040516100eb9190610ff5565b60405180910390f35b6100fc6104b8565b005b610106610606565b6040516101139190610ff5565b60405180910390f35b61013660048036038101906101319190610e86565b61062d565b604051610143919061101d565b60405180910390f35b61016660048036038101906101619190611036565b610673565b005b610182600480360381019061017d9190610e86565b6109f4565b005b61018c610bb1565b73ffffffffffffffffffffffffffffffffffffffff165f8054906101000a900473ffffffffffffffffffffffffffffffffffffffff1673ffffffffffffffffffffffffffffffffffffffff1614610218576040517f08c379a000000000000000000000000000000000000000000000000000000000815260040161020f906110ce565b60405180910390fd5b5f60015f8373ffffffffffffffffffffffffffffffffffffffff1673ffffffffffffffffffffffffffffffffffffffff1681526020019081526020015f205414156040518060400160405280600181526020017f3700000000000000000000000000000000000000000000000000000000000000815250906102d0576040517f08c379a00000000000000000000000000000000000000000000000000000000081526004016102c7919061114c565b60405180910390fd5b505f60015f8373ffffffffffffffffffffffffffffffffffffffff1673ffffffffffffffffffffffffffffffffffffffff1681526020019081526020015f205490505f60025f8381526020019081526020015f205f6101000a81548173ffffffffffffffffffffffffffffffffffffffff021916908373ffffffffffffffffffffffffffffffffffffffff1602179055505f60015f8473ffffffffffffffffffffffffffffffffffffffff1673ffffffffffffffffffffffffffffffffffffffff1681526020019081526020015f20819055506103ac82610bb8565b808273ffffffffffffffffffffffffffffffffffffffff167f254723080701bde71d562cad0e967cef23d86bb27ee842c190a2596820f3b24160405160405180910390a35050565b6060600380548060200260200160405190810160405280929190818152602001828054801561047557602002820191905f5260205f20905b815f9054906101000a900473ffffffffffffffffffffffffffffffffffffffff1673ffffffffffffffffffffffffffffffffffffffff168152602001906001019080831161042c575b5050505050905090565b5f60025f8381526020019081526020015f205f9054906101000a900473ffffffffffffffffffffffffffffffffffffffff169050919050565b6104c0610bb1565b73ffffffffffffffffffffffffffffffffffffffff165f8054906101000a900473ffffffffffffffffffffffffffffffffffffffff1673ffffffffffffffffffffffffffffffffffffffff161461054c576040517f08c379a0000000000000000000000000000000000000000000000000000000008152600401610543906110ce565b60405180910390fd5b5f73ffffffffffffffffffffffffffffffffffffffff165f8054906101000a900473ffffffffffffffffffffffffffffffffffffffff1673ffffffffffffffffffffffffffffffffffffffff167f8be0079c531659141344cd1fd0a4f28419497f9722a3daafe3b4186f6b6457e060405160405180910390a35f805f6101000a81548173ffffffffffffffffffffffffffffffffffffffff021916908373ffffffffffffffffffffffffffffffffffffffff160217905550565b5f805f9054906101000a900473ffffffffffffffffffffffffffffffffffffffff16905090565b5f60015f8373ffffffffffffffffffffffffffffffffffffffff1673ffffffffffffffffffffffffffffffffffffffff1681526020019081526020015f20549050919050565b61067b610bb1565b73ffffffffffffffffffffffffffffffffffffffff165f8054906101000a900473ffffffffffffffffffffffffffffffffffffffff1673ffffffffffffffffffffffffffffffffffffffff1614610707576040517f08c379a00000000000000000000000000000000000000000000000000000000081526004016106fe906110ce565b60405180910390fd5b5f8114156040518060400160405280600181526020017f380000000000000000000000000000000000000000000000000000000000000081525090610782576040517f08c379a0000000000000000000000000000000000000000000000000000000008152600401610779919061114c565b60405180910390fd5b505f73ffffffffffffffffffffffffffffffffffffffff1660025f8381526020019081526020015f205f9054906101000a900473ffffffffffffffffffffffffffffffffffffffff1673ffffffffffffffffffffffffffffffffffffffff16146040518060400160405280600181526020017f380000000000000000000000000000000000000000000000000000000000000081525090610859576040517f08c379a0000000000000000000000000000000000000000000000000000000008152600401610850919061114c565b60405180910390fd5b505f60015f8473ffffffffffffffffffffffffffffffffffffffff1673ffffffffffffffffffffffffffffffffffffffff1681526020019081526020015f2054146040518060400160405280600281526020017f383600000000000000000000000000000000000000000000000000000000000081525090610911576040517f08c379a0000000000000000000000000000000000000000000000000000000008152600401610908919061114c565b60405180910390fd5b508060015f8473ffffffffffffffffffffffffffffffffffffffff1673ffffffffffffffffffffffffffffffffffffffff1681526020019081526020015f20819055508160025f8381526020019081526020015f205f6101000a81548173ffffffffffffffffffffffffffffffffffffffff021916908373ffffffffffffffffffffffffffffffffffffffff1602179055506109ac82610d7e565b808273ffffffffffffffffffffffffffffffffffffffff167fc2e7cc813550ef0e7126cc0571281850ce5df2e9c400acf3589c38e4627f85f160405160405180910390a35050565b6109fc610bb1565b73ffffffffffffffffffffffffffffffffffffffff165f8054906101000a900473ffffffffffffffffffffffffffffffffffffffff1673ffffffffffffffffffffffffffffffffffffffff1614610a88576040517f08c379a0000000000000000000000000000000000000000000000000000000008152600401610a7f906110ce565b60405180910390fd5b5f73ffffffffffffffffffffffffffffffffffffffff168173ffffffffffffffffffffffffffffffffffffffff1603610af6576040517f08c379a0000000000000000000000000000000000000000000000000000000008152600401610aed906111dc565b60405180910390fd5b8073ffffffffffffffffffffffffffffffffffffffff165f8054906101000a900473ffffffffffffffffffffffffffffffffffffffff1673ffffffffffffffffffffffffffffffffffffffff167f8be0079c531659141344cd1fd0a4f28419497f9722a3daafe3b4186f6b6457e060405160405180910390a3805f806101000a81548173ffffffffffffffffffffffffffffffffffffffff021916908373ffffffffffffffffffffffffffffffffffffffff16021790555050565b5f33905090565b5f60045f8373ffffffffffffffffffffffffffffffffffffffff1673ffffffffffffffffffffffffffffffffffffffff1681526020019081526020015f205490505f60045f8473ffffffffffffffffffffffffffffffffffffffff1673ffffffffffffffffffffffffffffffffffffffff1681526020019081526020015f20819055505f6001600380549050610c4e9190611227565b905080821015610d35575f60038281548110610c6d57610c6c61125a565b5b905f5260205f20015f9054906101000a900473ffffffffffffffffffffffffffffffffffffffff1690508060038481548110610cac57610cab61125a565b5b905f5260205f20015f6101000a81548173ffffffffffffffffffffffffffffffffffffffff021916908373ffffffffffffffffffffffffffffffffffffffff1602179055508260045f8373ffffffffffffffffffffffffffffffffffffffff1673ffffffffffffffffffffffffffffffffffffffff1681526020019081526020015f2081905550505b6003805480610d4757610d46611287565b5b600190038181905f5260205f20015f6101000a81549073ffffffffffffffffffffffffffffffffffffffff02191690559055505050565b60038054905060045f8373ffffffffffffffffffffffffffffffffffffffff1673ffffffffffffffffffffffffffffffffffffffff1681526020019081526020015f2081905550600381908060018154018082558091505060019003905f5260205f20015f9091909190916101000a81548173ffffffffffffffffffffffffffffffffffffffff021916908373ffffffffffffffffffffffffffffffffffffffff16021790555050565b5f80fd5b5f73ffffffffffffffffffffffffffffffffffffffff82169050919050565b5f610e5582610e2c565b9050919050565b610e6581610e4b565b8114610e6f575f80fd5b50565b5f81359050610e8081610e5c565b92915050565b5f60208284031215610e9b57610e9a610e28565b5b5f610ea884828501610e72565b91505092915050565b5f81519050919050565b5f82825260208201905092915050565b5f819050602082019050919050565b610ee381610e4b565b82525050565b5f610ef48383610eda565b60208301905092915050565b5f602082019050919050565b5f610f1682610eb1565b610f208185610ebb565b9350610f2b83610ecb565b805f5b83811015610f5b578151610f428882610ee9565b9750610f4d83610f00565b925050600181019050610f2e565b5085935050505092915050565b5f6020820190508181035f830152610f808184610f0c565b905092915050565b5f819050919050565b610f9a81610f88565b8114610fa4575f80fd5b50565b5f81359050610fb581610f91565b92915050565b5f60208284031215610fd057610fcf610e28565b5b5f610fdd84828501610fa7565b91505092915050565b610fef81610e4b565b82525050565b5f6020820190506110085f830184610fe6565b92915050565b61101781610f88565b82525050565b5f6020820190506110305f83018461100e565b92915050565b5f806040838503121561104c5761104b610e28565b5b5f61105985828601610e72565b925050602061106a85828601610fa7565b9150509250929050565b5f82825260208201905092915050565b7f4f776e61626c653a2063616c6c6572206973206e6f7420746865206f776e65725f82015250565b5f6110b8602083611074565b91506110c382611084565b602082019050919050565b5f6020820190508181035f8301526110e5816110ac565b9050919050565b5f81519050919050565b8281835e5f83830152505050565b5f601f19601f8301169050919050565b5f61111e826110ec565b6111288185611074565b93506111388185602086016110f6565b61114181611104565b840191505092915050565b5f6020820190508181035f8301526111648184611114565b905092915050565b7f4f776e61626c653a206e6577206f776e657220697320746865207a65726f20615f8201527f6464726573730000000000000000000000000000000000000000000000000000602082015250565b5f6111c6602683611074565b91506111d18261116c565b604082019050919050565b5f6020820190508181035f8301526111f3816111ba565b9050919050565b7f4e487b71000000000000000000000000000000000000000000000000000000005f52601160045260245ffd5b5f61123182610f88565b915061123c83610f88565b9250828203905081811115611254576112536111fa565b5b92915050565b7f4e487b71000000000000000000000000000000000000000000000000000000005f52603260045260245ffd5b7f4e487b71000000000000000000000000000000000000000000000000000000005f52603160045260245ffdfea26469706673582212208a8166046b397f7228ac4b6ebed8e5247f24e26e8457e588fe8cbfce04224c9764736f6c634300081a0033",
					"opcodes": "PUSH1 0x80 PUSH1 0x40 MSTORE CALLVALUE DUP1 ISZERO PUSH2 0xF JUMPI PUSH0 DUP1 REVERT JUMPDEST POP PUSH1 0x40 MLOAD PUSH2 0x1741 CODESIZE SUB DUP1 PUSH2 0x1741 DUP4 CODECOPY DUP2 DUP2 ADD PUSH1 0x40 MSTORE DUP2 ADD SWAP1 PUSH2 0x31 SWAP2 SWAP1 PUSH2 0x319 JUMP JUMPDEST PUSH0 PUSH2 0x40 PUSH2 0xF1 PUSH1 0x20 SHL PUSH1 0x20 SHR JUMP JUMPDEST SWAP1 POP DUP1 PUSH0 DUP1 PUSH2 0x100 EXP DUP2 SLOAD DUP2 PUSH20 0xFFFFFFFFFFFFFFFFFFFFFFFFFFFFFFFFFFFFFFFF MUL NOT AND SWAP1 DUP4 PUSH20 0xFFFFFFFFFFFFFFFFFFFFFFFFFFFFFFFFFFFFFFFF AND MUL OR SWAP1 SSTORE POP DUP1 PUSH20 0xFFFFFFFFFFFFFFFFFFFFFFFFFFFFFFFFFFFFFFFF AND PUSH0 PUSH20 0xFFFFFFFFFFFFFFFFFFFFFFFFFFFFFFFFFFFFFFFF AND PUSH32 0x8BE0079C531659141344CD1FD0A4F28419497F9722A3DAAFE3B4186F6B6457E0 PUSH1 0x40 MLOAD PUSH1 0x40 MLOAD DUP1 SWAP2 SUB SWAP1 LOG3 POP PUSH2 0xEB DUP2 PUSH2 0xF8 PUSH1 0x20 SHL PUSH1 0x20 SHR JUMP JUMPDEST POP PUSH2 0x44A JUMP JUMPDEST PUSH0 CALLER SWAP1 POP SWAP1 JUMP JUMPDEST PUSH2 0x106 PUSH2 0xF1 PUSH1 0x20 SHL PUSH1 0x20 SHR JUMP JUMPDEST PUSH20 0xFFFFFFFFFFFFFFFFFFFFFFFFFFFFFFFFFFFFFFFF AND PUSH0 DUP1 SLOAD SWAP1 PUSH2 0x100 EXP SWAP1 DIV PUSH20 0xFFFFFFFFFFFFFFFFFFFFFFFFFFFFFFFFFFFFFFFF AND PUSH20 0xFFFFFFFFFFFFFFFFFFFFFFFFFFFFFFFFFFFFFFFF AND EQ PUSH2 0x192 JUMPI PUSH1 0x40 MLOAD PUSH32 0x8C379A000000000000000000000000000000000000000000000000000000000 DUP2 MSTORE PUSH1 0x4 ADD PUSH2 0x189 SWAP1 PUSH2 0x39E JUMP JUMPDEST PUSH1 0x40 MLOAD DUP1 SWAP2 SUB SWAP1 REVERT JUMPDEST PUSH0 PUSH20 0xFFFFFFFFFFFFFFFFFFFFFFFFFFFFFFFFFFFFFFFF AND DUP2 PUSH20 0xFFFFFFFFFFFFFFFFFFFFFFFFFFFFFFFFFFFFFFFF AND SUB PUSH2 0x200 JUMPI PUSH1 0x40 MLOAD PUSH32 0x8C379A000000000000000000000000000000000000000000000000000000000 DUP2 MSTORE PUSH1 0x4 ADD PUSH2 0x1F7 SWAP1 PUSH2 0x42C JUMP JUMPDEST PUSH1 0x40 MLOAD DUP1 SWAP2 SUB SWAP1 REVERT JUMPDEST DUP1 PUSH20 0xFFFFFFFFFFFFFFFFFFFFFFFFFFFFFFFFFFFFFFFF AND PUSH0 DUP1 SLOAD SWAP1 PUSH2 0x100 EXP SWAP1 DIV PUSH20 0xFFFFFFFFFFFFFFFFFFFFFFFFFFFFFFFFFFFFFFFF AND PUSH20 0xFFFFFFFFFFFFFFFFFFFFFFFFFFFFFFFFFFFFFFFF AND PUSH32 0x8BE0079C531659141344CD1FD0A4F28419497F9722A3DAAFE3B4186F6B6457E0 PUSH1 0x40 MLOAD PUSH1 0x40 MLOAD DUP1 SWAP2 SUB SWAP1 LOG3 DUP1 PUSH0 DUP1 PUSH2 0x100 EXP DUP2 SLOAD DUP2 PUSH20 0xFFFFFFFFFFFFFFFFFFFFFFFFFFFFFFFFFFFFFFFF MUL NOT AND SWAP1 DUP4 PUSH20 0xFFFFFFFFFFFFFFFFFFFFFFFFFFFFFFFFFFFFFFFF AND MUL OR SWAP1 SSTORE POP POP JUMP JUMPDEST PUSH0 DUP1 REVERT JUMPDEST PUSH0 PUSH20 0xFFFFFFFFFFFFFFFFFFFFFFFFFFFFFFFFFFFFFFFF DUP3 AND SWAP1 POP SWAP2 SWAP1 POP JUMP JUMPDEST PUSH0 PUSH2 0x2E8 DUP3 PUSH2 0x2BF JUMP JUMPDEST SWAP1 POP SWAP2 SWAP1 POP JUMP JUMPDEST PUSH2 0x2F8 DUP2 PUSH2 0x2DE JUMP JUMPDEST DUP2 EQ PUSH2 0x302 JUMPI PUSH0 DUP1 REVERT JUMPDEST POP JUMP JUMPDEST PUSH0 DUP2 MLOAD SWAP1 POP PUSH2 0x313 DUP2 PUSH2 0x2EF JUMP JUMPDEST SWAP3 SWAP2 POP POP JUMP JUMPDEST PUSH0 PUSH1 0x20 DUP3 DUP5 SUB SLT ISZERO PUSH2 0x32E JUMPI PUSH2 0x32D PUSH2 0x2BB JUMP JUMPDEST JUMPDEST PUSH0 PUSH2 0x33B DUP5 DUP3 DUP6 ADD PUSH2 0x305 JUMP JUMPDEST SWAP2 POP POP SWAP3 SWAP2 POP POP JUMP JUMPDEST PUSH0 DUP3 DUP3 MSTORE PUSH1 0x20 DUP3 ADD SWAP1 POP SWAP3 SWAP2 POP POP JUMP JUMPDEST PUSH32 0x4F776E61626C653A2063616C6C6572206973206E6F7420746865206F776E6572 PUSH0 DUP3 ADD MSTORE POP JUMP JUMPDEST PUSH0 PUSH2 0x388 PUSH1 0x20 DUP4 PUSH2 0x344 JUMP JUMPDEST SWAP2 POP PUSH2 0x393 DUP3 PUSH2 0x354 JUMP JUMPDEST PUSH1 0x20 DUP3 ADD SWAP1 POP SWAP2 SWAP1 POP JUMP JUMPDEST PUSH0 PUSH1 0x20 DUP3 ADD SWAP1 POP DUP2 DUP2 SUB PUSH0 DUP4 ADD MSTORE PUSH2 0x3B5 DUP2 PUSH2 0x37C JUMP JUMPDEST SWAP1 POP SWAP2 SWAP1 POP JUMP JUMPDEST PUSH32 0x4F776E61626C653A206E6577206F776E657220697320746865207A65726F2061 PUSH0 DUP3 ADD MSTORE PUSH32 0x6464726573730000000000000000000000000000000000000000000000000000 PUSH1 0x20 DUP3 ADD MSTORE POP JUMP JUMPDEST PUSH0 PUSH2 0x416 PUSH1 0x26 DUP4 PUSH2 0x344 JUMP JUMPDEST SWAP2 POP PUSH2 0x421 DUP3 PUSH2 0x3BC JUMP JUMPDEST PUSH1 0x40 DUP3 ADD SWAP1 POP SWAP2 SWAP1 POP JUMP JUMPDEST PUSH0 PUSH1 0x20 DUP3 ADD SWAP1 POP DUP2 DUP2 SUB PUSH0 DUP4 ADD MSTORE PUSH2 0x443 DUP2 PUSH2 0x40A JUMP JUMPDEST SWAP1 POP SWAP2 SWAP1 POP JUMP JUMPDEST PUSH2 0x12EA DUP1 PUSH2 0x457 PUSH0 CODECOPY PUSH0 RETURN INVALID PUSH1 0x80 PUSH1 0x40 MSTORE CALLVALUE DUP1 ISZERO PUSH2 0xF JUMPI PUSH0 DUP1 REVERT JUMPDEST POP PUSH1 0x4 CALLDATASIZE LT PUSH2 0x86 JUMPI PUSH0 CALLDATALOAD PUSH1 0xE0 SHR DUP1 PUSH4 0x8DA5CB5B GT PUSH2 0x59 JUMPI DUP1 PUSH4 0x8DA5CB5B EQ PUSH2 0xFE JUMPI DUP1 PUSH4 0xD0267BE7 EQ PUSH2 0x11C JUMPI DUP1 PUSH4 0xD258191E EQ PUSH2 0x14C JUMPI DUP1 PUSH4 0xF2FDE38B EQ PUSH2 0x168 JUMPI PUSH2 0x86 JUMP JUMPDEST DUP1 PUSH4 0xDE26707 EQ PUSH2 0x8A JUMPI DUP1 PUSH4 0x365CCBBF EQ PUSH2 0xA6 JUMPI DUP1 PUSH4 0x57DC0566 EQ PUSH2 0xC4 JUMPI DUP1 PUSH4 0x715018A6 EQ PUSH2 0xF4 JUMPI JUMPDEST PUSH0 DUP1 REVERT JUMPDEST PUSH2 0xA4 PUSH1 0x4 DUP1 CALLDATASIZE SUB DUP2 ADD SWAP1 PUSH2 0x9F SWAP2 SWAP1 PUSH2 0xE86 JUMP JUMPDEST PUSH2 0x184 JUMP JUMPDEST STOP JUMPDEST PUSH2 0xAE PUSH2 0x3F4 JUMP JUMPDEST PUSH1 0x40 MLOAD PUSH2 0xBB SWAP2 SWAP1 PUSH2 0xF68 JUMP JUMPDEST PUSH1 0x40 MLOAD DUP1 SWAP2 SUB SWAP1 RETURN JUMPDEST PUSH2 0xDE PUSH1 0x4 DUP1 CALLDATASIZE SUB DUP2 ADD SWAP1 PUSH2 0xD9 SWAP2 SWAP1 PUSH2 0xFBB JUMP JUMPDEST PUSH2 0x47F JUMP JUMPDEST PUSH1 0x40 MLOAD PUSH2 0xEB SWAP2 SWAP1 PUSH2 0xFF5 JUMP JUMPDEST PUSH1 0x40 MLOAD DUP1 SWAP2 SUB SWAP1 RETURN JUMPDEST PUSH2 0xFC PUSH2 0x4B8 JUMP JUMPDEST STOP JUMPDEST PUSH2 0x106 PUSH2 0x606 JUMP JUMPDEST PUSH1 0x40 MLOAD PUSH2 0x113 SWAP2 SWAP1 PUSH2 0xFF5 JUMP JUMPDEST PUSH1 0x40 MLOAD DUP1 SWAP2 SUB SWAP1 RETURN JUMPDEST PUSH2 0x136 PUSH1 0x4 DUP1 CALLDATASIZE SUB DUP2 ADD SWAP1 PUSH2 0x131 SWAP2 SWAP1 PUSH2 0xE86 JUMP JUMPDEST PUSH2 0x62D JUMP JUMPDEST PUSH1 0x40 MLOAD PUSH2 0x143 SWAP2 SWAP1 PUSH2 0x101D JUMP JUMPDEST PUSH1 0x40 MLOAD DUP1 SWAP2 SUB SWAP1 RETURN JUMPDEST PUSH2 0x166 PUSH1 0x4 DUP1 CALLDATASIZE SUB DUP2 ADD SWAP1 PUSH2 0x161 SWAP2 SWAP1 PUSH2 0x1036 JUMP JUMPDEST PUSH2 0x673 JUMP JUMPDEST STOP JUMPDEST PUSH2 0x182 PUSH1 0x4 DUP1 CALLDATASIZE SUB DUP2 ADD SWAP1 PUSH2 0x17D SWAP2 SWAP1 PUSH2 0xE86 JUMP JUMPDEST PUSH2 0x9F4 JUMP JUMPDEST STOP JUMPDEST PUSH2 0x18C PUSH2 0xBB1 JUMP JUMPDEST PUSH20 0xFFFFFFFFFFFFFFFFFFFFFFFFFFFFFFFFFFFFFFFF AND PUSH0 DUP1 SLOAD SWAP1 PUSH2 0x100 EXP SWAP1 DIV PUSH20 0xFFFFFFFFFFFFFFFFFFFFFFFFFFFFFFFFFFFFFFFF AND PUSH20 0xFFFFFFFFFFFFFFFFFFFFFFFFFFFFFFFFFFFFFFFF AND EQ PUSH2 0x218 JUMPI PUSH1 0x40 MLOAD PUSH32 0x8C379A000000000000000000000000000000000000000000000000000000000 DUP2 MSTORE PUSH1 0x4 ADD PUSH2 0x20F SWAP1 PUSH2 0x10CE JUMP JUMPDEST PUSH1 0x40 MLOAD DUP1 SWAP2 SUB SWAP1 REVERT JUMPDEST PUSH0 PUSH1 0x1 PUSH0 DUP4 PUSH20 0xFFFFFFFFFFFFFFFFFFFFFFFFFFFFFFFFFFFFFFFF AND PUSH20 0xFFFFFFFFFFFFFFFFFFFFFFFFFFFFFFFFFFFFFFFF AND DUP2 MSTORE PUSH1 0x20 ADD SWAP1 DUP2 MSTORE PUSH1 0x20 ADD PUSH0 KECCAK256 SLOAD EQ ISZERO PUSH1 0x40 MLOAD DUP1 PUSH1 0x40 ADD PUSH1 0x40 MSTORE DUP1 PUSH1 0x1 DUP2 MSTORE PUSH1 0x20 ADD PUSH32 0x3700000000000000000000000000000000000000000000000000000000000000 DUP2 MSTORE POP SWAP1 PUSH2 0x2D0 JUMPI PUSH1 0x40 MLOAD PUSH32 0x8C379A000000000000000000000000000000000000000000000000000000000 DUP2 MSTORE PUSH1 0x4 ADD PUSH2 0x2C7 SWAP2 SWAP1 PUSH2 0x114C JUMP JUMPDEST PUSH1 0x40 MLOAD DUP1 SWAP2 SUB SWAP1 REVERT JUMPDEST POP PUSH0 PUSH1 0x1 PUSH0 DUP4 PUSH20 0xFFFFFFFFFFFFFFFFFFFFFFFFFFFFFFFFFFFFFFFF AND PUSH20 0xFFFFFFFFFFFFFFFFFFFFFFFFFFFFFFFFFFFFFFFF AND DUP2 MSTORE PUSH1 0x20 ADD SWAP1 DUP2 MSTORE PUSH1 0x20 ADD PUSH0 KECCAK256 SLOAD SWAP1 POP PUSH0 PUSH1 0x2 PUSH0 DUP4 DUP2 MSTORE PUSH1 0x20 ADD SWAP1 DUP2 MSTORE PUSH1 0x20 ADD PUSH0 KECCAK256 PUSH0 PUSH2 0x100 EXP DUP2 SLOAD DUP2 PUSH20 0xFFFFFFFFFFFFFFFFFFFFFFFFFFFFFFFFFFFFFFFF MUL NOT AND SWAP1 DUP4 PUSH20 0xFFFFFFFFFFFFFFFFFFFFFFFFFFFFFFFFFFFFFFFF AND MUL OR SWAP1 SSTORE POP PUSH0 PUSH1 0x1 PUSH0 DUP5 PUSH20 0xFFFFFFFFFFFFFFFFFFFFFFFFFFFFFFFFFFFFFFFF AND PUSH20 0xFFFFFFFFFFFFFFFFFFFFFFFFFFFFFFFFFFFFFFFF AND DUP2 MSTORE PUSH1 0x20 ADD SWAP1 DUP2 MSTORE PUSH1 0x20 ADD PUSH0 KECCAK256 DUP2 SWAP1 SSTORE POP PUSH2 0x3AC DUP3 PUSH2 0xBB8 JUMP JUMPDEST DUP1 DUP3 PUSH20 0xFFFFFFFFFFFFFFFFFFFFFFFFFFFFFFFFFFFFFFFF AND PUSH32 0x254723080701BDE71D562CAD0E967CEF23D86BB27EE842C190A2596820F3B241 PUSH1 0x40 MLOAD PUSH1 0x40 MLOAD DUP1 SWAP2 SUB SWAP1 LOG3 POP POP JUMP JUMPDEST PUSH1 0x60 PUSH1 0x3 DUP1 SLOAD DUP1 PUSH1 0x20 MUL PUSH1 0x20 ADD PUSH1 0x40 MLOAD SWAP1 DUP2 ADD PUSH1 0x40 MSTORE DUP1 SWAP3 SWAP2 SWAP1 DUP2 DUP2 MSTORE PUSH1 0x20 ADD DUP3 DUP1 SLOAD DUP1 ISZERO PUSH2 0x475 JUMPI PUSH1 0x20 MUL DUP3 ADD SWAP2 SWAP1 PUSH0 MSTORE PUSH1 0x20 PUSH0 KECCAK256 SWAP1 JUMPDEST DUP2 PUSH0 SWAP1 SLOAD SWAP1 PUSH2 0x100 EXP SWAP1 DIV PUSH20 0xFFFFFFFFFFFFFFFFFFFFFFFFFFFFFFFFFFFFFFFF AND PUSH20 0xFFFFFFFFFFFFFFFFFFFFFFFFFFFFFFFFFFFFFFFF AND DUP2 MSTORE PUSH1 0x20 ADD SWAP1 PUSH1 0x1 ADD SWAP1 DUP1 DUP4 GT PUSH2 0x42C JUMPI JUMPDEST POP POP POP POP POP SWAP1 POP SWAP1 JUMP JUMPDEST PUSH0 PUSH1 0x2 PUSH0 DUP4 DUP2 MSTORE PUSH1 0x20 ADD SWAP1 DUP2 MSTORE PUSH1 0x20 ADD PUSH0 KECCAK256 PUSH0 SWAP1 SLOAD SWAP1 PUSH2 0x100 EXP SWAP1 DIV PUSH20 0xFFFFFFFFFFFFFFFFFFFFFFFFFFFFFFFFFFFFFFFF AND SWAP1 POP SWAP2 SWAP1 POP JUMP JUMPDEST PUSH2 0x4C0 PUSH2 0xBB1 JUMP JUMPDEST PUSH20 0xFFFFFFFFFFFFFFFFFFFFFFFFFFFFFFFFFFFFFFFF AND PUSH0 DUP1 SLOAD SWAP1 PUSH2 0x100 EXP SWAP1 DIV PUSH20 0xFFFFFFFFFFFFFFFFFFFFFFFFFFFFFFFFFFFFFFFF AND PUSH20 0xFFFFFFFFFFFFFFFFFFFFFFFFFFFFFFFFFFFFFFFF AND EQ PUSH2 0x54C JUMPI PUSH1 0x40 MLOAD PUSH32 0x8C379A000000000000000000000000000000000000000000000000000000000 DUP2 MSTORE PUSH1 0x4 ADD PUSH2 0x543 SWAP1 PUSH2 0x10CE JUMP JUMPDEST PUSH1 0x40 MLOAD DUP1 SWAP2 SUB SWAP1 REVERT JUMPDEST PUSH0 PUSH20 0xFFFFFFFFFFFFFFFFFFFFFFFFFFFFFFFFFFFFFFFF AND PUSH0 DUP1 SLOAD SWAP1 PUSH2 0x100 EXP SWAP1 DIV PUSH20 0xFFFFFFFFFFFFFFFFFFFFFFFFFFFFFFFFFFFFFFFF AND PUSH20 0xFFFFFFFFFFFFFFFFFFFFFFFFFFFFFFFFFFFFFFFF AND PUSH32 0x8BE0079C531659141344CD1FD0A4F28419497F9722A3DAAFE3B4186F6B6457E0 PUSH1 0x40 MLOAD PUSH1 0x40 MLOAD DUP1 SWAP2 SUB SWAP1 LOG3 PUSH0 DUP1 PUSH0 PUSH2 0x100 EXP DUP2 SLOAD DUP2 PUSH20 0xFFFFFFFFFFFFFFFFFFFFFFFFFFFFFFFFFFFFFFFF MUL NOT AND SWAP1 DUP4 PUSH20 0xFFFFFFFFFFFFFFFFFFFFFFFFFFFFFFFFFFFFFFFF AND MUL OR SWAP1 SSTORE POP JUMP JUMPDEST PUSH0 DUP1 PUSH0 SWAP1 SLOAD SWAP1 PUSH2 0x100 EXP SWAP1 DIV PUSH20 0xFFFFFFFFFFFFFFFFFFFFFFFFFFFFFFFFFFFFFFFF AND SWAP1 POP SWAP1 JUMP JUMPDEST PUSH0 PUSH1 0x1 PUSH0 DUP4 PUSH20 0xFFFFFFFFFFFFFFFFFFFFFFFFFFFFFFFFFFFFFFFF AND PUSH20 0xFFFFFFFFFFFFFFFFFFFFFFFFFFFFFFFFFFFFFFFF AND DUP2 MSTORE PUSH1 0x20 ADD SWAP1 DUP2 MSTORE PUSH1 0x20 ADD PUSH0 KECCAK256 SLOAD SWAP1 POP SWAP2 SWAP1 POP JUMP JUMPDEST PUSH2 0x67B PUSH2 0xBB1 JUMP JUMPDEST PUSH20 0xFFFFFFFFFFFFFFFFFFFFFFFFFFFFFFFFFFFFFFFF AND PUSH0 DUP1 SLOAD SWAP1 PUSH2 0x100 EXP SWAP1 DIV PUSH20 0xFFFFFFFFFFFFFFFFFFFFFFFFFFFFFFFFFFFFFFFF AND PUSH20 0xFFFFFFFFFFFFFFFFFFFFFFFFFFFFFFFFFFFFFFFF AND EQ PUSH2 0x707 JUMPI PUSH1 0x40 MLOAD PUSH32 0x8C379A000000000000000000000000000000000000000000000000000000000 DUP2 MSTORE PUSH1 0x4 ADD PUSH2 0x6FE SWAP1 PUSH2 0x10CE JUMP JUMPDEST PUSH1 0x40 MLOAD DUP1 SWAP2 SUB SWAP1 REVERT JUMPDEST PUSH0 DUP2 EQ ISZERO PUSH1 0x40 MLOAD DUP1 PUSH1 0x40 ADD PUSH1 0x40 MSTORE DUP1 PUSH1 0x1 DUP2 MSTORE PUSH1 0x20 ADD PUSH32 0x3800000000000000000000000000000000000000000000000000000000000000 DUP2 MSTORE POP SWAP1 PUSH2 0x782 JUMPI PUSH1 0x40 MLOAD PUSH32 0x8C379A000000000000000000000000000000000000000000000000000000000 DUP2 MSTORE PUSH1 0x4 ADD PUSH2 0x779 SWAP2 SWAP1 PUSH2 0x114C JUMP JUMPDEST PUSH1 0x40 MLOAD DUP1 SWAP2 SUB SWAP1 REVERT JUMPDEST POP PUSH0 PUSH20 0xFFFFFFFFFFFFFFFFFFFFFFFFFFFFFFFFFFFFFFFF AND PUSH1 0x2 PUSH0 DUP4 DUP2 MSTORE PUSH1 0x20 ADD SWAP1 DUP2 MSTORE PUSH1 0x20 ADD PUSH0 KECCAK256 PUSH0 SWAP1 SLOAD SWAP1 PUSH2 0x100 EXP SWAP1 DIV PUSH20 0xFFFFFFFFFFFFFFFFFFFFFFFFFFFFFFFFFFFFFFFF AND PUSH20 0xFFFFFFFFFFFFFFFFFFFFFFFFFFFFFFFFFFFFFFFF AND EQ PUSH1 0x40 MLOAD DUP1 PUSH1 0x40 ADD PUSH1 0x40 MSTORE DUP1 PUSH1 0x1 DUP2 MSTORE PUSH1 0x20 ADD PUSH32 0x3800000000000000000000000000000000000000000000000000000000000000 DUP2 MSTORE POP SWAP1 PUSH2 0x859 JUMPI PUSH1 0x40 MLOAD PUSH32 0x8C379A000000000000000000000000000000000000000000000000000000000 DUP2 MSTORE PUSH1 0x4 ADD PUSH2 0x850 SWAP2 SWAP1 PUSH2 0x114C JUMP JUMPDEST PUSH1 0x40 MLOAD DUP1 SWAP2 SUB SWAP1 REVERT JUMPDEST POP PUSH0 PUSH1 0x1 PUSH0 DUP5 PUSH20 0xFFFFFFFFFFFFFFFFFFFFFFFFFFFFFFFFFFFFFFFF AND PUSH20 0xFFFFFFFFFFFFFFFFFFFFFFFFFFFFFFFFFFFFFFFF AND DUP2 MSTORE PUSH1 0x20 ADD SWAP1 DUP2 MSTORE PUSH1 0x20 ADD PUSH0 KECCAK256 SLOAD EQ PUSH1 0x40 MLOAD DUP1 PUSH1 0x40 ADD PUSH1 0x40 MSTORE DUP1 PUSH1 0x2 DUP2 MSTORE PUSH1 0x20 ADD PUSH32 0x3836000000000000000000000000000000000000000000000000000000000000 DUP2 MSTORE POP SWAP1 PUSH2 0x911 JUMPI PUSH1 0x40 MLOAD PUSH32 0x8C379A000000000000000000000000000000000000000000000000000000000 DUP2 MSTORE PUSH1 0x4 ADD PUSH2 0x908 SWAP2 SWAP1 PUSH2 0x114C JUMP JUMPDEST PUSH1 0x40 MLOAD DUP1 SWAP2 SUB SWAP1 REVERT JUMPDEST POP DUP1 PUSH1 0x1 PUSH0 DUP5 PUSH20 0xFFFFFFFFFFFFFFFFFFFFFFFFFFFFFFFFFFFFFFFF AND PUSH20 0xFFFFFFFFFFFFFFFFFFFFFFFFFFFFFFFFFFFFFFFF AND DUP2 MSTORE PUSH1 0x20 ADD SWAP1 DUP2 MSTORE PUSH1 0x20 ADD PUSH0 KECCAK256 DUP2 SWAP1 SSTORE POP DUP2 PUSH1 0x2 PUSH0 DUP4 DUP2 MSTORE PUSH1 0x20 ADD SWAP1 DUP2 MSTORE PUSH1 0x20 ADD PUSH0 KECCAK256 PUSH0 PUSH2 0x100 EXP DUP2 SLOAD DUP2 PUSH20 0xFFFFFFFFFFFFFFFFFFFFFFFFFFFFFFFFFFFFFFFF MUL NOT AND SWAP1 DUP4 PUSH20 0xFFFFFFFFFFFFFFFFFFFFFFFFFFFFFFFFFFFFFFFF AND MUL OR SWAP1 SSTORE POP PUSH2 0x9AC DUP3 PUSH2 0xD7E JUMP JUMPDEST DUP1 DUP3 PUSH20 0xFFFFFFFFFFFFFFFFFFFFFFFFFFFFFFFFFFFFFFFF AND PUSH32 0xC2E7CC813550EF0E7126CC0571281850CE5DF2E9C400ACF3589C38E4627F85F1 PUSH1 0x40 MLOAD PUSH1 0x40 MLOAD DUP1 SWAP2 SUB SWAP1 LOG3 POP POP JUMP JUMPDEST PUSH2 0x9FC PUSH2 0xBB1 JUMP JUMPDEST PUSH20 0xFFFFFFFFFFFFFFFFFFFFFFFFFFFFFFFFFFFFFFFF AND PUSH0 DUP1 SLOAD SWAP1 PUSH2 0x100 EXP SWAP1 DIV PUSH20 0xFFFFFFFFFFFFFFFFFFFFFFFFFFFFFFFFFFFFFFFF AND PUSH20 0xFFFFFFFFFFFFFFFFFFFFFFFFFFFFFFFFFFFFFFFF AND EQ PUSH2 0xA88 JUMPI PUSH1 0x40 MLOAD PUSH32 0x8C379A000000000000000000000000000000000000000000000000000000000 DUP2 MSTORE PUSH1 0x4 ADD PUSH2 0xA7F SWAP1 PUSH2 0x10CE JUMP JUMPDEST PUSH1 0x40 MLOAD DUP1 SWAP2 SUB SWAP1 REVERT JUMPDEST PUSH0 PUSH20 0xFFFFFFFFFFFFFFFFFFFFFFFFFFFFFFFFFFFFFFFF AND DUP2 PUSH20 0xFFFFFFFFFFFFFFFFFFFFFFFFFFFFFFFFFFFFFFFF AND SUB PUSH2 0xAF6 JUMPI PUSH1 0x40 MLOAD PUSH32 0x8C379A000000000000000000000000000000000000000000000000000000000 DUP2 MSTORE PUSH1 0x4 ADD PUSH2 0xAED SWAP1 PUSH2 0x11DC JUMP JUMPDEST PUSH1 0x40 MLOAD DUP1 SWAP2 SUB SWAP1 REVERT JUMPDEST DUP1 PUSH20 0xFFFFFFFFFFFFFFFFFFFFFFFFFFFFFFFFFFFFFFFF AND PUSH0 DUP1 SLOAD SWAP1 PUSH2 0x100 EXP SWAP1 DIV PUSH20 0xFFFFFFFFFFFFFFFFFFFFFFFFFFFFFFFFFFFFFFFF AND PUSH20 0xFFFFFFFFFFFFFFFFFFFFFFFFFFFFFFFFFFFFFFFF AND PUSH32 0x8BE0079C531659141344CD1FD0A4F28419497F9722A3DAAFE3B4186F6B6457E0 PUSH1 0x40 MLOAD PUSH1 0x40 MLOAD DUP1 SWAP2 SUB SWAP1 LOG3 DUP1 PUSH0 DUP1 PUSH2 0x100 EXP DUP2 SLOAD DUP2 PUSH20 0xFFFFFFFFFFFFFFFFFFFFFFFFFFFFFFFFFFFFFFFF MUL NOT AND SWAP1 DUP4 PUSH20 0xFFFFFFFFFFFFFFFFFFFFFFFFFFFFFFFFFFFFFFFF AND MUL OR SWAP1 SSTORE POP POP JUMP JUMPDEST PUSH0 CALLER SWAP1 POP SWAP1 JUMP JUMPDEST PUSH0 PUSH1 0x4 PUSH0 DUP4 PUSH20 0xFFFFFFFFFFFFFFFFFFFFFFFFFFFFFFFFFFFFFFFF AND PUSH20 0xFFFFFFFFFFFFFFFFFFFFFFFFFFFFFFFFFFFFFFFF AND DUP2 MSTORE PUSH1 0x20 ADD SWAP1 DUP2 MSTORE PUSH1 0x20 ADD PUSH0 KECCAK256 SLOAD SWAP1 POP PUSH0 PUSH1 0x4 PUSH0 DUP5 PUSH20 0xFFFFFFFFFFFFFFFFFFFFFFFFFFFFFFFFFFFFFFFF AND PUSH20 0xFFFFFFFFFFFFFFFFFFFFFFFFFFFFFFFFFFFFFFFF AND DUP2 MSTORE PUSH1 0x20 ADD SWAP1 DUP2 MSTORE PUSH1 0x20 ADD PUSH0 KECCAK256 DUP2 SWAP1 SSTORE POP PUSH0 PUSH1 0x1 PUSH1 0x3 DUP1 SLOAD SWAP1 POP PUSH2 0xC4E SWAP2 SWAP1 PUSH2 0x1227 JUMP JUMPDEST SWAP1 POP DUP1 DUP3 LT ISZERO PUSH2 0xD35 JUMPI PUSH0 PUSH1 0x3 DUP3 DUP2 SLOAD DUP2 LT PUSH2 0xC6D JUMPI PUSH2 0xC6C PUSH2 0x125A JUMP JUMPDEST JUMPDEST SWAP1 PUSH0 MSTORE PUSH1 0x20 PUSH0 KECCAK256 ADD PUSH0 SWAP1 SLOAD SWAP1 PUSH2 0x100 EXP SWAP1 DIV PUSH20 0xFFFFFFFFFFFFFFFFFFFFFFFFFFFFFFFFFFFFFFFF AND SWAP1 POP DUP1 PUSH1 0x3 DUP5 DUP2 SLOAD DUP2 LT PUSH2 0xCAC JUMPI PUSH2 0xCAB PUSH2 0x125A JUMP JUMPDEST JUMPDEST SWAP1 PUSH0 MSTORE PUSH1 0x20 PUSH0 KECCAK256 ADD PUSH0 PUSH2 0x100 EXP DUP2 SLOAD DUP2 PUSH20 0xFFFFFFFFFFFFFFFFFFFFFFFFFFFFFFFFFFFFFFFF MUL NOT AND SWAP1 DUP4 PUSH20 0xFFFFFFFFFFFFFFFFFFFFFFFFFFFFFFFFFFFFFFFF AND MUL OR SWAP1 SSTORE POP DUP3 PUSH1 0x4 PUSH0 DUP4 PUSH20 0xFFFFFFFFFFFFFFFFFFFFFFFFFFFFFFFFFFFFFFFF AND PUSH20 0xFFFFFFFFFFFFFFFFFFFFFFFFFFFFFFFFFFFFFFFF AND DUP2 MSTORE PUSH1 0x20 ADD SWAP1 DUP2 MSTORE PUSH1 0x20 ADD PUSH0 KECCAK256 DUP2 SWAP1 SSTORE POP POP JUMPDEST PUSH1 0x3 DUP1 SLOAD DUP1 PUSH2 0xD47 JUMPI PUSH2 0xD46 PUSH2 0x1287 JUMP JUMPDEST JUMPDEST PUSH1 0x1 SWAP1 SUB DUP2 DUP2 SWAP1 PUSH0 MSTORE PUSH1 0x20 PUSH0 KECCAK256 ADD PUSH0 PUSH2 0x100 EXP DUP2 SLOAD SWAP1 PUSH20 0xFFFFFFFFFFFFFFFFFFFFFFFFFFFFFFFFFFFFFFFF MUL NOT AND SWAP1 SSTORE SWAP1 SSTORE POP POP POP JUMP JUMPDEST PUSH1 0x3 DUP1 SLOAD SWAP1 POP PUSH1 0x4 PUSH0 DUP4 PUSH20 0xFFFFFFFFFFFFFFFFFFFFFFFFFFFFFFFFFFFFFFFF AND PUSH20 0xFFFFFFFFFFFFFFFFFFFFFFFFFFFFFFFFFFFFFFFF AND DUP2 MSTORE PUSH1 0x20 ADD SWAP1 DUP2 MSTORE PUSH1 0x20 ADD PUSH0 KECCAK256 DUP2 SWAP1 SSTORE POP PUSH1 0x3 DUP2 SWAP1 DUP1 PUSH1 0x1 DUP2 SLOAD ADD DUP1 DUP3 SSTORE DUP1 SWAP2 POP POP PUSH1 0x1 SWAP1 SUB SWAP1 PUSH0 MSTORE PUSH1 0x20 PUSH0 KECCAK256 ADD PUSH0 SWAP1 SWAP2 SWAP1 SWAP2 SWAP1 SWAP2 PUSH2 0x100 EXP DUP2 SLOAD DUP2 PUSH20 0xFFFFFFFFFFFFFFFFFFFFFFFFFFFFFFFFFFFFFFFF MUL NOT AND SWAP1 DUP4 PUSH20 0xFFFFFFFFFFFFFFFFFFFFFFFFFFFFFFFFFFFFFFFF AND MUL OR SWAP1 SSTORE POP POP JUMP JUMPDEST PUSH0 DUP1 REVERT JUMPDEST PUSH0 PUSH20 0xFFFFFFFFFFFFFFFFFFFFFFFFFFFFFFFFFFFFFFFF DUP3 AND SWAP1 POP SWAP2 SWAP1 POP JUMP JUMPDEST PUSH0 PUSH2 0xE55 DUP3 PUSH2 0xE2C JUMP JUMPDEST SWAP1 POP SWAP2 SWAP1 POP JUMP JUMPDEST PUSH2 0xE65 DUP2 PUSH2 0xE4B JUMP JUMPDEST DUP2 EQ PUSH2 0xE6F JUMPI PUSH0 DUP1 REVERT JUMPDEST POP JUMP JUMPDEST PUSH0 DUP2 CALLDATALOAD SWAP1 POP PUSH2 0xE80 DUP2 PUSH2 0xE5C JUMP JUMPDEST SWAP3 SWAP2 POP POP JUMP JUMPDEST PUSH0 PUSH1 0x20 DUP3 DUP5 SUB SLT ISZERO PUSH2 0xE9B JUMPI PUSH2 0xE9A PUSH2 0xE28 JUMP JUMPDEST JUMPDEST PUSH0 PUSH2 0xEA8 DUP5 DUP3 DUP6 ADD PUSH2 0xE72 JUMP JUMPDEST SWAP2 POP POP SWAP3 SWAP2 POP POP JUMP JUMPDEST PUSH0 DUP2 MLOAD SWAP1 POP SWAP2 SWAP1 POP JUMP JUMPDEST PUSH0 DUP3 DUP3 MSTORE PUSH1 0x20 DUP3 ADD SWAP1 POP SWAP3 SWAP2 POP POP JUMP JUMPDEST PUSH0 DUP2 SWAP1 POP PUSH1 0x20 DUP3 ADD SWAP1 POP SWAP2 SWAP1 POP JUMP JUMPDEST PUSH2 0xEE3 DUP2 PUSH2 0xE4B JUMP JUMPDEST DUP3 MSTORE POP POP JUMP JUMPDEST PUSH0 PUSH2 0xEF4 DUP4 DUP4 PUSH2 0xEDA JUMP JUMPDEST PUSH1 0x20 DUP4 ADD SWAP1 POP SWAP3 SWAP2 POP POP JUMP JUMPDEST PUSH0 PUSH1 0x20 DUP3 ADD SWAP1 POP SWAP2 SWAP1 POP JUMP JUMPDEST PUSH0 PUSH2 0xF16 DUP3 PUSH2 0xEB1 JUMP JUMPDEST PUSH2 0xF20 DUP2 DUP6 PUSH2 0xEBB JUMP JUMPDEST SWAP4 POP PUSH2 0xF2B DUP4 PUSH2 0xECB JUMP JUMPDEST DUP1 PUSH0 JUMPDEST DUP4 DUP2 LT ISZERO PUSH2 0xF5B JUMPI DUP2 MLOAD PUSH2 0xF42 DUP9 DUP3 PUSH2 0xEE9 JUMP JUMPDEST SWAP8 POP PUSH2 0xF4D DUP4 PUSH2 0xF00 JUMP JUMPDEST SWAP3 POP POP PUSH1 0x1 DUP2 ADD SWAP1 POP PUSH2 0xF2E JUMP JUMPDEST POP DUP6 SWAP4 POP POP POP POP SWAP3 SWAP2 POP POP JUMP JUMPDEST PUSH0 PUSH1 0x20 DUP3 ADD SWAP1 POP DUP2 DUP2 SUB PUSH0 DUP4 ADD MSTORE PUSH2 0xF80 DUP2 DUP5 PUSH2 0xF0C JUMP JUMPDEST SWAP1 POP SWAP3 SWAP2 POP POP JUMP JUMPDEST PUSH0 DUP2 SWAP1 POP SWAP2 SWAP1 POP JUMP JUMPDEST PUSH2 0xF9A DUP2 PUSH2 0xF88 JUMP JUMPDEST DUP2 EQ PUSH2 0xFA4 JUMPI PUSH0 DUP1 REVERT JUMPDEST POP JUMP JUMPDEST PUSH0 DUP2 CALLDATALOAD SWAP1 POP PUSH2 0xFB5 DUP2 PUSH2 0xF91 JUMP JUMPDEST SWAP3 SWAP2 POP POP JUMP JUMPDEST PUSH0 PUSH1 0x20 DUP3 DUP5 SUB SLT ISZERO PUSH2 0xFD0 JUMPI PUSH2 0xFCF PUSH2 0xE28 JUMP JUMPDEST JUMPDEST PUSH0 PUSH2 0xFDD DUP5 DUP3 DUP6 ADD PUSH2 0xFA7 JUMP JUMPDEST SWAP2 POP POP SWAP3 SWAP2 POP POP JUMP JUMPDEST PUSH2 0xFEF DUP2 PUSH2 0xE4B JUMP JUMPDEST DUP3 MSTORE POP POP JUMP JUMPDEST PUSH0 PUSH1 0x20 DUP3 ADD SWAP1 POP PUSH2 0x1008 PUSH0 DUP4 ADD DUP5 PUSH2 0xFE6 JUMP JUMPDEST SWAP3 SWAP2 POP POP JUMP JUMPDEST PUSH2 0x1017 DUP2 PUSH2 0xF88 JUMP JUMPDEST DUP3 MSTORE POP POP JUMP JUMPDEST PUSH0 PUSH1 0x20 DUP3 ADD SWAP1 POP PUSH2 0x1030 PUSH0 DUP4 ADD DUP5 PUSH2 0x100E JUMP JUMPDEST SWAP3 SWAP2 POP POP JUMP JUMPDEST PUSH0 DUP1 PUSH1 0x40 DUP4 DUP6 SUB SLT ISZERO PUSH2 0x104C JUMPI PUSH2 0x104B PUSH2 0xE28 JUMP JUMPDEST JUMPDEST PUSH0 PUSH2 0x1059 DUP6 DUP3 DUP7 ADD PUSH2 0xE72 JUMP JUMPDEST SWAP3 POP POP PUSH1 0x20 PUSH2 0x106A DUP6 DUP3 DUP7 ADD PUSH2 0xFA7 JUMP JUMPDEST SWAP2 POP POP SWAP3 POP SWAP3 SWAP1 POP JUMP JUMPDEST PUSH0 DUP3 DUP3 MSTORE PUSH1 0x20 DUP3 ADD SWAP1 POP SWAP3 SWAP2 POP POP JUMP JUMPDEST PUSH32 0x4F776E61626C653A2063616C6C6572206973206E6F7420746865206F776E6572 PUSH0 DUP3 ADD MSTORE POP JUMP JUMPDEST PUSH0 PUSH2 0x10B8 PUSH1 0x20 DUP4 PUSH2 0x1074 JUMP JUMPDEST SWAP2 POP PUSH2 0x10C3 DUP3 PUSH2 0x1084 JUMP JUMPDEST PUSH1 0x20 DUP3 ADD SWAP1 POP SWAP2 SWAP1 POP JUMP JUMPDEST PUSH0 PUSH1 0x20 DUP3 ADD SWAP1 POP DUP2 DUP2 SUB PUSH0 DUP4 ADD MSTORE PUSH2 0x10E5 DUP2 PUSH2 0x10AC JUMP JUMPDEST SWAP1 POP SWAP2 SWAP1 POP JUMP JUMPDEST PUSH0 DUP2 MLOAD SWAP1 POP SWAP2 SWAP1 POP JUMP JUMPDEST DUP3 DUP2 DUP4 MCOPY PUSH0 DUP4 DUP4 ADD MSTORE POP POP POP JUMP JUMPDEST PUSH0 PUSH1 0x1F NOT PUSH1 0x1F DUP4 ADD AND SWAP1 POP SWAP2 SWAP1 POP JUMP JUMPDEST PUSH0 PUSH2 0x111E DUP3 PUSH2 0x10EC JUMP JUMPDEST PUSH2 0x1128 DUP2 DUP6 PUSH2 0x1074 JUMP JUMPDEST SWAP4 POP PUSH2 0x1138 DUP2 DUP6 PUSH1 0x20 DUP7 ADD PUSH2 0x10F6 JUMP JUMPDEST PUSH2 0x1141 DUP2 PUSH2 0x1104 JUMP JUMPDEST DUP5 ADD SWAP2 POP POP SWAP3 SWAP2 POP POP JUMP JUMPDEST PUSH0 PUSH1 0x20 DUP3 ADD SWAP1 POP DUP2 DUP2 SUB PUSH0 DUP4 ADD MSTORE PUSH2 0x1164 DUP2 DUP5 PUSH2 0x1114 JUMP JUMPDEST SWAP1 POP SWAP3 SWAP2 POP POP JUMP JUMPDEST PUSH32 0x4F776E61626C653A206E6577206F776E657220697320746865207A65726F2061 PUSH0 DUP3 ADD MSTORE PUSH32 0x6464726573730000000000000000000000000000000000000000000000000000 PUSH1 0x20 DUP3 ADD MSTORE POP JUMP JUMPDEST PUSH0 PUSH2 0x11C6 PUSH1 0x26 DUP4 PUSH2 0x1074 JUMP JUMPDEST SWAP2 POP PUSH2 0x11D1 DUP3 PUSH2 0x116C JUMP JUMPDEST PUSH1 0x40 DUP3 ADD SWAP1 POP SWAP2 SWAP1 POP JUMP JUMPDEST PUSH0 PUSH1 0x20 DUP3 ADD SWAP1 POP DUP2 DUP2 SUB PUSH0 DUP4 ADD MSTORE PUSH2 0x11F3 DUP2 PUSH2 0x11BA JUMP JUMPDEST SWAP1 POP SWAP2 SWAP1 POP JUMP JUMPDEST PUSH32 0x4E487B7100000000000000000000000000000000000000000000000000000000 PUSH0 MSTORE PUSH1 0x11 PUSH1 0x4 MSTORE PUSH1 0x24 PUSH0 REVERT JUMPDEST PUSH0 PUSH2 0x1231 DUP3 PUSH2 0xF88 JUMP JUMPDEST SWAP2 POP PUSH2 0x123C DUP4 PUSH2 0xF88 JUMP JUMPDEST SWAP3 POP DUP3 DUP3 SUB SWAP1 POP DUP2 DUP2 GT ISZERO PUSH2 0x1254 JUMPI PUSH2 0x1253 PUSH2 0x11FA JUMP JUMPDEST JUMPDEST SWAP3 SWAP2 POP POP JUMP JUMPDEST PUSH32 0x4E487B7100000000000000000000000000000000000000000000000000000000 PUSH0 MSTORE PUSH1 0x32 PUSH1 0x4 MSTORE PUSH1 0x24 PUSH0 REVERT JUMPDEST PUSH32 0x4E487B7100000000000000000000000000000000000000000000000000000000 PUSH0 MSTORE PUSH1 0x31 PUSH1 0x4 MSTORE PUSH1 0x24 PUSH0 REVERT INVALID LOG2 PUSH5 0x6970667358 0x22 SLT KECCAK256 DUP11 DUP2 PUSH7 0x46B397F7228AC 0x4B PUSH15 0xBED8E5247F24E26E8457E588FE8CBF 0xCE DIV 0x22 0x4C SWAP8 PUSH5 0x736F6C6343 STOP ADDMOD BYTE STOP CALLER "
				},
				"gasEstimates": {
					"creation": {
						"codeDepositCost": "968400",
						"executionCost": "infinite",
						"totalCost": "infinite"
					},
					"external": {
						"getAddressesProviderAddressById(uint256)": "2897",
						"getAddressesProviderIdByAddress(address)": "2851",
						"getAddressesProvidersList()": "infinite",
						"owner()": "2515",
						"registerAddressesProvider(address,uint256)": "infinite",
						"renounceOwnership()": "30351",
						"transferOwnership(address)": "30692",
						"unregisterAddressesProvider(address)": "infinite"
					},
					"internal": {
						"_addToAddressesProvidersList(address)": "72903",
						"_removeFromAddressesProvidersList(address)": "infinite"
					}
				},
				"methodIdentifiers": {
					"getAddressesProviderAddressById(uint256)": "57dc0566",
					"getAddressesProviderIdByAddress(address)": "d0267be7",
					"getAddressesProvidersList()": "365ccbbf",
					"owner()": "8da5cb5b",
					"registerAddressesProvider(address,uint256)": "d258191e",
					"renounceOwnership()": "715018a6",
					"transferOwnership(address)": "f2fde38b",
					"unregisterAddressesProvider(address)": "0de26707"
				}
			},
			"storageLayout": {
				"storage": [
					{
						"astId": 33,
						"contract": "contracts/protocol/configuration/PoolAddressesProviderRegistry.sol:PoolAddressesProviderRegistry",
						"label": "_owner",
						"offset": 0,
						"slot": "0",
						"type": "t_address"
					},
					{
						"astId": 206,
						"contract": "contracts/protocol/configuration/PoolAddressesProviderRegistry.sol:PoolAddressesProviderRegistry",
						"label": "_addressesProviderToId",
						"offset": 0,
						"slot": "1",
						"type": "t_mapping(t_address,t_uint256)"
					},
					{
						"astId": 210,
						"contract": "contracts/protocol/configuration/PoolAddressesProviderRegistry.sol:PoolAddressesProviderRegistry",
						"label": "_idToAddressesProvider",
						"offset": 0,
						"slot": "2",
						"type": "t_mapping(t_uint256,t_address)"
					},
					{
						"astId": 213,
						"contract": "contracts/protocol/configuration/PoolAddressesProviderRegistry.sol:PoolAddressesProviderRegistry",
						"label": "_addressesProvidersList",
						"offset": 0,
						"slot": "3",
						"type": "t_array(t_address)dyn_storage"
					},
					{
						"astId": 217,
						"contract": "contracts/protocol/configuration/PoolAddressesProviderRegistry.sol:PoolAddressesProviderRegistry",
						"label": "_addressesProvidersIndexes",
						"offset": 0,
						"slot": "4",
						"type": "t_mapping(t_address,t_uint256)"
					}
				],
				"types": {
					"t_address": {
						"encoding": "inplace",
						"label": "address",
						"numberOfBytes": "20"
					},
					"t_array(t_address)dyn_storage": {
						"base": "t_address",
						"encoding": "dynamic_array",
						"label": "address[]",
						"numberOfBytes": "32"
					},
					"t_mapping(t_address,t_uint256)": {
						"encoding": "mapping",
						"key": "t_address",
						"label": "mapping(address => uint256)",
						"numberOfBytes": "32",
						"value": "t_uint256"
					},
					"t_mapping(t_uint256,t_address)": {
						"encoding": "mapping",
						"key": "t_uint256",
						"label": "mapping(uint256 => address)",
						"numberOfBytes": "32",
						"value": "t_address"
					},
					"t_uint256": {
						"encoding": "inplace",
						"label": "uint256",
						"numberOfBytes": "32"
					}
				}
			},
			"userdoc": {
				"kind": "user",
				"methods": {
					"getAddressesProviderAddressById(uint256)": {
						"notice": "Returns the address of a registered PoolAddressesProvider"
					},
					"getAddressesProviderIdByAddress(address)": {
						"notice": "Returns the id of a registered PoolAddressesProvider"
					},
					"getAddressesProvidersList()": {
						"notice": "Returns the list of registered addresses providers"
					},
					"registerAddressesProvider(address,uint256)": {
						"notice": "Registers an addresses provider"
					},
					"unregisterAddressesProvider(address)": {
						"notice": "Removes an addresses provider from the list of registered addresses providers"
					}
				},
				"notice": "Main registry of PoolAddressesProvider of Aave markets.",
				"version": 1
			}
		}
	}
}