{
	"contracts/protocol/configuration/PriceOracleSentinel.sol": {
		"PriceOracleSentinel": {
			"abi": [
				{
					"inputs": [
						{
							"internalType": "contract IPoolAddressesProvider",
							"name": "provider",
							"type": "address"
						},
						{
							"internalType": "contract ISequencerOracle",
							"name": "oracle",
							"type": "address"
						},
						{
							"internalType": "uint256",
							"name": "gracePeriod",
							"type": "uint256"
						}
					],
					"stateMutability": "nonpayable",
					"type": "constructor"
				},
				{
					"anonymous": false,
					"inputs": [
						{
							"indexed": false,
							"internalType": "uint256",
							"name": "newGracePeriod",
							"type": "uint256"
						}
					],
					"name": "GracePeriodUpdated",
					"type": "event"
				},
				{
					"anonymous": false,
					"inputs": [
						{
							"indexed": false,
							"internalType": "address",
							"name": "newSequencerOracle",
							"type": "address"
						}
					],
					"name": "SequencerOracleUpdated",
					"type": "event"
				},
				{
					"inputs": [],
					"name": "ADDRESSES_PROVIDER",
					"outputs": [
						{
							"internalType": "contract IPoolAddressesProvider",
							"name": "",
							"type": "address"
						}
					],
					"stateMutability": "view",
					"type": "function"
				},
				{
					"inputs": [],
					"name": "getGracePeriod",
					"outputs": [
						{
							"internalType": "uint256",
							"name": "",
							"type": "uint256"
						}
					],
					"stateMutability": "view",
					"type": "function"
				},
				{
					"inputs": [],
					"name": "getSequencerOracle",
					"outputs": [
						{
							"internalType": "address",
							"name": "",
							"type": "address"
						}
					],
					"stateMutability": "view",
					"type": "function"
				},
				{
					"inputs": [],
					"name": "isBorrowAllowed",
					"outputs": [
						{
							"internalType": "bool",
							"name": "",
							"type": "bool"
						}
					],
					"stateMutability": "view",
					"type": "function"
				},
				{
					"inputs": [],
					"name": "isLiquidationAllowed",
					"outputs": [
						{
							"internalType": "bool",
							"name": "",
							"type": "bool"
						}
					],
					"stateMutability": "view",
					"type": "function"
				},
				{
					"inputs": [
						{
							"internalType": "uint256",
							"name": "newGracePeriod",
							"type": "uint256"
						}
					],
					"name": "setGracePeriod",
					"outputs": [],
					"stateMutability": "nonpayable",
					"type": "function"
				},
				{
					"inputs": [
						{
							"internalType": "address",
							"name": "newSequencerOracle",
							"type": "address"
						}
					],
					"name": "setSequencerOracle",
					"outputs": [],
					"stateMutability": "nonpayable",
					"type": "function"
				}
			],
			"devdoc": {
				"author": "Aave",
				"details": "Once the PriceOracle gets up after an outage/downtime, users can make their positions healthy during a grace  period. So the PriceOracle is considered completely up once its up and the grace period passed.",
				"events": {
					"GracePeriodUpdated(uint256)": {
						"details": "Emitted after the grace period is updated",
						"params": {
							"newGracePeriod": "The new grace period value"
						}
					},
					"SequencerOracleUpdated(address)": {
						"details": "Emitted after the sequencer oracle is updated",
						"params": {
							"newSequencerOracle": "The new sequencer oracle"
						}
					}
				},
				"kind": "dev",
				"methods": {
					"constructor": {
						"details": "Constructor",
						"params": {
							"gracePeriod": "The duration of the grace period in seconds",
							"oracle": "The address of the SequencerOracle",
							"provider": "The address of the PoolAddressesProvider"
						}
					},
					"getGracePeriod()": {
						"returns": {
							"_0": "The duration of the grace period"
						}
					},
					"getSequencerOracle()": {
						"returns": {
							"_0": "The address of the sequencer oracle contract"
						}
					},
					"isBorrowAllowed()": {
						"details": "Operation not allowed when PriceOracle is down or grace period not passed.",
						"returns": {
							"_0": "True if the `borrow` operation is allowed, false otherwise."
						}
					},
					"isLiquidationAllowed()": {
						"details": "Operation not allowed when PriceOracle is down or grace period not passed.",
						"returns": {
							"_0": "True if the `liquidation` operation is allowed, false otherwise."
						}
					},
					"setGracePeriod(uint256)": {
						"params": {
							"newGracePeriod": "The value of the new grace period duration"
						}
					},
					"setSequencerOracle(address)": {
						"params": {
							"newSequencerOracle": "The address of the new Sequencer Oracle to use"
						}
					}
				},
				"stateVariables": {
					"ADDRESSES_PROVIDER": {
						"return": "The address of the PoolAddressesProvider contract",
						"returns": {
							"_0": "The address of the PoolAddressesProvider contract"
						}
					}
				},
				"title": "PriceOracleSentinel",
				"version": 1
			},
			"evm": {
				"assembly": "    /* \"contracts/protocol/configuration/PriceOracleSentinel.sol\":792:3596  contract PriceOracleSentinel is IPriceOracleSentinel {... */\n  mstore(0x40, 0xa0)\n    /* \"contracts/protocol/configuration/PriceOracleSentinel.sol\":1893:2091  constructor(IPoolAddressesProvider provider, ISequencerOracle oracle, uint256 gracePeriod) {... */\n  callvalue\n  dup1\n  iszero\n  tag_1\n  jumpi\n  0x00\n  dup1\n  revert\ntag_1:\n  pop\n  mload(0x40)\n  sub(codesize, bytecodeSize)\n  dup1\n  bytecodeSize\n  dup4\n  codecopy\n  dup2\n  dup2\n  add\n  0x40\n  mstore\n  dup2\n  add\n  swap1\n  tag_2\n  swap2\n  swap1\n  tag_3\n  jump\t// in\ntag_2:\n    /* \"contracts/protocol/configuration/PriceOracleSentinel.sol\":2012:2020  provider */\n  dup3\n    /* \"contracts/protocol/configuration/PriceOracleSentinel.sol\":1991:2020  ADDRESSES_PROVIDER = provider */\n  0xffffffffffffffffffffffffffffffffffffffff\n  and\n  0x80\n  dup2\n  0xffffffffffffffffffffffffffffffffffffffff\n  and\n  dup2\n  mstore\n  pop\n  pop\n    /* \"contracts/protocol/configuration/PriceOracleSentinel.sol\":2046:2052  oracle */\n  dup2\n    /* \"contracts/protocol/configuration/PriceOracleSentinel.sol\":2027:2043  _sequencerOracle */\n  0x00\n  dup1\n    /* \"contracts/protocol/configuration/PriceOracleSentinel.sol\":2027:2052  _sequencerOracle = oracle */\n  0x0100\n  exp\n  dup2\n  sload\n  dup2\n  0xffffffffffffffffffffffffffffffffffffffff\n  mul\n  not\n  and\n  swap1\n  dup4\n  0xffffffffffffffffffffffffffffffffffffffff\n  and\n  mul\n  or\n  swap1\n  sstore\n  pop\n    /* \"contracts/protocol/configuration/PriceOracleSentinel.sol\":2074:2085  gracePeriod */\n  dup1\n    /* \"contracts/protocol/configuration/PriceOracleSentinel.sol\":2059:2071  _gracePeriod */\n  0x01\n    /* \"contracts/protocol/configuration/PriceOracleSentinel.sol\":2059:2085  _gracePeriod = gracePeriod */\n  dup2\n  swap1\n  sstore\n  pop\n    /* \"contracts/protocol/configuration/PriceOracleSentinel.sol\":1893:2091  constructor(IPoolAddressesProvider provider, ISequencerOracle oracle, uint256 gracePeriod) {... */\n  pop\n  pop\n  pop\n    /* \"contracts/protocol/configuration/PriceOracleSentinel.sol\":792:3596  contract PriceOracleSentinel is IPriceOracleSentinel {... */\n  jump(tag_6)\n    /* \"#utility.yul\":88:205   */\ntag_8:\n    /* \"#utility.yul\":197:198   */\n  0x00\n    /* \"#utility.yul\":194:195   */\n  dup1\n    /* \"#utility.yul\":187:199   */\n  revert\n    /* \"#utility.yul\":334:460   */\ntag_10:\n    /* \"#utility.yul\":371:378   */\n  0x00\n    /* \"#utility.yul\":411:453   */\n  0xffffffffffffffffffffffffffffffffffffffff\n    /* \"#utility.yul\":404:409   */\n  dup3\n    /* \"#utility.yul\":400:454   */\n  and\n    /* \"#utility.yul\":389:454   */\n  swap1\n  pop\n    /* \"#utility.yul\":334:460   */\n  swap2\n  swap1\n  pop\n  jump\t// out\n    /* \"#utility.yul\":466:562   */\ntag_11:\n    /* \"#utility.yul\":503:510   */\n  0x00\n    /* \"#utility.yul\":532:556   */\n  tag_27\n    /* \"#utility.yul\":550:555   */\n  dup3\n    /* \"#utility.yul\":532:556   */\n  tag_10\n  jump\t// in\ntag_27:\n    /* \"#utility.yul\":521:556   */\n  swap1\n  pop\n    /* \"#utility.yul\":466:562   */\n  swap2\n  swap1\n  pop\n  jump\t// out\n    /* \"#utility.yul\":568:694   */\ntag_12:\n    /* \"#utility.yul\":635:642   */\n  0x00\n    /* \"#utility.yul\":664:688   */\n  tag_29\n    /* \"#utility.yul\":682:687   */\n  dup3\n    /* \"#utility.yul\":664:688   */\n  tag_11\n  jump\t// in\ntag_29:\n    /* \"#utility.yul\":653:688   */\n  swap1\n  pop\n    /* \"#utility.yul\":568:694   */\n  swap2\n  swap1\n  pop\n  jump\t// out\n    /* \"#utility.yul\":700:882   */\ntag_13:\n    /* \"#utility.yul\":803:857   */\n  tag_31\n    /* \"#utility.yul\":851:856   */\n  dup2\n    /* \"#utility.yul\":803:857   */\n  tag_12\n  jump\t// in\ntag_31:\n    /* \"#utility.yul\":796:801   */\n  dup2\n    /* \"#utility.yul\":793:858   */\n  eq\n    /* \"#utility.yul\":783:876   */\n  tag_32\n  jumpi\n    /* \"#utility.yul\":872:873   */\n  0x00\n    /* \"#utility.yul\":869:870   */\n  dup1\n    /* \"#utility.yul\":862:874   */\n  revert\n    /* \"#utility.yul\":783:876   */\ntag_32:\n    /* \"#utility.yul\":700:882   */\n  pop\n  jump\t// out\n    /* \"#utility.yul\":888:1091   */\ntag_14:\n    /* \"#utility.yul\":975:980   */\n  0x00\n    /* \"#utility.yul\":1006:1012   */\n  dup2\n    /* \"#utility.yul\":1000:1013   */\n  mload\n    /* \"#utility.yul\":991:1013   */\n  swap1\n  pop\n    /* \"#utility.yul\":1022:1085   */\n  tag_34\n    /* \"#utility.yul\":1079:1084   */\n  dup2\n    /* \"#utility.yul\":1022:1085   */\n  tag_13\n  jump\t// in\ntag_34:\n    /* \"#utility.yul\":888:1091   */\n  swap3\n  swap2\n  pop\n  pop\n  jump\t// out\n    /* \"#utility.yul\":1097:1217   */\ntag_15:\n    /* \"#utility.yul\":1158:1165   */\n  0x00\n    /* \"#utility.yul\":1187:1211   */\n  tag_36\n    /* \"#utility.yul\":1205:1210   */\n  dup3\n    /* \"#utility.yul\":1187:1211   */\n  tag_11\n  jump\t// in\ntag_36:\n    /* \"#utility.yul\":1176:1211   */\n  swap1\n  pop\n    /* \"#utility.yul\":1097:1217   */\n  swap2\n  swap1\n  pop\n  jump\t// out\n    /* \"#utility.yul\":1223:1393   */\ntag_16:\n    /* \"#utility.yul\":1320:1368   */\n  tag_38\n    /* \"#utility.yul\":1362:1367   */\n  dup2\n    /* \"#utility.yul\":1320:1368   */\n  tag_15\n  jump\t// in\ntag_38:\n    /* \"#utility.yul\":1313:1318   */\n  dup2\n    /* \"#utility.yul\":1310:1369   */\n  eq\n    /* \"#utility.yul\":1300:1387   */\n  tag_39\n  jumpi\n    /* \"#utility.yul\":1383:1384   */\n  0x00\n    /* \"#utility.yul\":1380:1381   */\n  dup1\n    /* \"#utility.yul\":1373:1385   */\n  revert\n    /* \"#utility.yul\":1300:1387   */\ntag_39:\n    /* \"#utility.yul\":1223:1393   */\n  pop\n  jump\t// out\n    /* \"#utility.yul\":1399:1590   */\ntag_17:\n    /* \"#utility.yul\":1480:1485   */\n  0x00\n    /* \"#utility.yul\":1511:1517   */\n  dup2\n    /* \"#utility.yul\":1505:1518   */\n  mload\n    /* \"#utility.yul\":1496:1518   */\n  swap1\n  pop\n    /* \"#utility.yul\":1527:1584   */\n  tag_41\n    /* \"#utility.yul\":1578:1583   */\n  dup2\n    /* \"#utility.yul\":1527:1584   */\n  tag_16\n  jump\t// in\ntag_41:\n    /* \"#utility.yul\":1399:1590   */\n  swap3\n  swap2\n  pop\n  pop\n  jump\t// out\n    /* \"#utility.yul\":1596:1673   */\ntag_18:\n    /* \"#utility.yul\":1633:1640   */\n  0x00\n    /* \"#utility.yul\":1662:1667   */\n  dup2\n    /* \"#utility.yul\":1651:1667   */\n  swap1\n  pop\n    /* \"#utility.yul\":1596:1673   */\n  swap2\n  swap1\n  pop\n  jump\t// out\n    /* \"#utility.yul\":1679:1801   */\ntag_19:\n    /* \"#utility.yul\":1752:1776   */\n  tag_44\n    /* \"#utility.yul\":1770:1775   */\n  dup2\n    /* \"#utility.yul\":1752:1776   */\n  tag_18\n  jump\t// in\ntag_44:\n    /* \"#utility.yul\":1745:1750   */\n  dup2\n    /* \"#utility.yul\":1742:1777   */\n  eq\n    /* \"#utility.yul\":1732:1795   */\n  tag_45\n  jumpi\n    /* \"#utility.yul\":1791:1792   */\n  0x00\n    /* \"#utility.yul\":1788:1789   */\n  dup1\n    /* \"#utility.yul\":1781:1793   */\n  revert\n    /* \"#utility.yul\":1732:1795   */\ntag_45:\n    /* \"#utility.yul\":1679:1801   */\n  pop\n  jump\t// out\n    /* \"#utility.yul\":1807:1950   */\ntag_20:\n    /* \"#utility.yul\":1864:1869   */\n  0x00\n    /* \"#utility.yul\":1895:1901   */\n  dup2\n    /* \"#utility.yul\":1889:1902   */\n  mload\n    /* \"#utility.yul\":1880:1902   */\n  swap1\n  pop\n    /* \"#utility.yul\":1911:1944   */\n  tag_47\n    /* \"#utility.yul\":1938:1943   */\n  dup2\n    /* \"#utility.yul\":1911:1944   */\n  tag_19\n  jump\t// in\ntag_47:\n    /* \"#utility.yul\":1807:1950   */\n  swap3\n  swap2\n  pop\n  pop\n  jump\t// out\n    /* \"#utility.yul\":1956:2727   */\ntag_3:\n    /* \"#utility.yul\":2098:2104   */\n  0x00\n    /* \"#utility.yul\":2106:2112   */\n  dup1\n    /* \"#utility.yul\":2114:2120   */\n  0x00\n    /* \"#utility.yul\":2163:2165   */\n  0x60\n    /* \"#utility.yul\":2151:2160   */\n  dup5\n    /* \"#utility.yul\":2142:2149   */\n  dup7\n    /* \"#utility.yul\":2138:2161   */\n  sub\n    /* \"#utility.yul\":2134:2166   */\n  slt\n    /* \"#utility.yul\":2131:2250   */\n  iszero\n  tag_49\n  jumpi\n    /* \"#utility.yul\":2169:2248   */\n  tag_50\n  tag_8\n  jump\t// in\ntag_50:\n    /* \"#utility.yul\":2131:2250   */\ntag_49:\n    /* \"#utility.yul\":2289:2290   */\n  0x00\n    /* \"#utility.yul\":2314:2408   */\n  tag_51\n    /* \"#utility.yul\":2400:2407   */\n  dup7\n    /* \"#utility.yul\":2391:2397   */\n  dup3\n    /* \"#utility.yul\":2380:2389   */\n  dup8\n    /* \"#utility.yul\":2376:2398   */\n  add\n    /* \"#utility.yul\":2314:2408   */\n  tag_14\n  jump\t// in\ntag_51:\n    /* \"#utility.yul\":2304:2408   */\n  swap4\n  pop\n    /* \"#utility.yul\":2260:2418   */\n  pop\n    /* \"#utility.yul\":2457:2459   */\n  0x20\n    /* \"#utility.yul\":2483:2571   */\n  tag_52\n    /* \"#utility.yul\":2563:2570   */\n  dup7\n    /* \"#utility.yul\":2554:2560   */\n  dup3\n    /* \"#utility.yul\":2543:2552   */\n  dup8\n    /* \"#utility.yul\":2539:2561   */\n  add\n    /* \"#utility.yul\":2483:2571   */\n  tag_17\n  jump\t// in\ntag_52:\n    /* \"#utility.yul\":2473:2571   */\n  swap3\n  pop\n    /* \"#utility.yul\":2428:2581   */\n  pop\n    /* \"#utility.yul\":2620:2622   */\n  0x40\n    /* \"#utility.yul\":2646:2710   */\n  tag_53\n    /* \"#utility.yul\":2702:2709   */\n  dup7\n    /* \"#utility.yul\":2693:2699   */\n  dup3\n    /* \"#utility.yul\":2682:2691   */\n  dup8\n    /* \"#utility.yul\":2678:2700   */\n  add\n    /* \"#utility.yul\":2646:2710   */\n  tag_20\n  jump\t// in\ntag_53:\n    /* \"#utility.yul\":2636:2710   */\n  swap2\n  pop\n    /* \"#utility.yul\":2591:2720   */\n  pop\n    /* \"#utility.yul\":1956:2727   */\n  swap3\n  pop\n  swap3\n  pop\n  swap3\n  jump\t// out\n    /* \"contracts/protocol/configuration/PriceOracleSentinel.sol\":792:3596  contract PriceOracleSentinel is IPriceOracleSentinel {... */\ntag_6:\n  mload(0x80)\n  codecopy(0x00, dataOffset(sub_0), dataSize(sub_0))\n  0x00\n  assignImmutable(\"0x3adc96bbab16c54ecfb5bdce5075df891153ca3c76b041851d8b98842fb8b958\")\n  return(0x00, dataSize(sub_0))\nstop\n\nsub_0: assembly {\n        /* \"contracts/protocol/configuration/PriceOracleSentinel.sol\":792:3596  contract PriceOracleSentinel is IPriceOracleSentinel {... */\n      mstore(0x40, 0x80)\n      callvalue\n      dup1\n      iszero\n      tag_1\n      jumpi\n      0x00\n      dup1\n      revert\n    tag_1:\n      pop\n      jumpi(tag_2, lt(calldatasize, 0x04))\n      shr(0xe0, calldataload(0x00))\n      dup1\n      0x7a5d20ea\n      gt\n      tag_10\n      jumpi\n      dup1\n      0x7a5d20ea\n      eq\n      tag_6\n      jumpi\n      dup1\n      0xdbd18388\n      eq\n      tag_7\n      jumpi\n      dup1\n      0xf0aef31c\n      eq\n      tag_8\n      jumpi\n      dup1\n      0xf2f65960\n      eq\n      tag_9\n      jumpi\n      jump(tag_2)\n    tag_10:\n      dup1\n      0x0542975c\n      eq\n      tag_3\n      jumpi\n      dup1\n      0x12168dc2\n      eq\n      tag_4\n      jumpi\n      dup1\n      0x49aa2e81\n      eq\n      tag_5\n      jumpi\n    tag_2:\n      0x00\n      dup1\n      revert\n        /* \"contracts/protocol/configuration/PriceOracleSentinel.sol\":1510:1577  IPoolAddressesProvider public immutable override ADDRESSES_PROVIDER */\n    tag_3:\n      tag_11\n      tag_12\n      jump\t// in\n    tag_11:\n      mload(0x40)\n      tag_13\n      swap2\n      swap1\n      tag_14\n      jump\t// in\n    tag_13:\n      mload(0x40)\n      dup1\n      swap2\n      sub\n      swap1\n      return\n        /* \"contracts/protocol/configuration/PriceOracleSentinel.sol\":3354:3459  function getSequencerOracle() public view returns (address) {... */\n    tag_4:\n      tag_15\n      tag_16\n      jump\t// in\n    tag_15:\n      mload(0x40)\n      tag_17\n      swap2\n      swap1\n      tag_18\n      jump\t// in\n    tag_17:\n      mload(0x40)\n      dup1\n      swap2\n      sub\n      swap1\n      return\n        /* \"contracts/protocol/configuration/PriceOracleSentinel.sol\":2137:2247  function isBorrowAllowed() public view override returns (bool) {... */\n    tag_5:\n      tag_19\n      tag_20\n      jump\t// in\n    tag_19:\n      mload(0x40)\n      tag_21\n      swap2\n      swap1\n      tag_22\n      jump\t// in\n    tag_21:\n      mload(0x40)\n      dup1\n      swap2\n      sub\n      swap1\n      return\n        /* \"contracts/protocol/configuration/PriceOracleSentinel.sol\":2293:2408  function isLiquidationAllowed() public view override returns (bool) {... */\n    tag_6:\n      tag_23\n      tag_24\n      jump\t// in\n    tag_23:\n      mload(0x40)\n      tag_25\n      swap2\n      swap1\n      tag_22\n      jump\t// in\n    tag_25:\n      mload(0x40)\n      dup1\n      swap2\n      sub\n      swap1\n      return\n        /* \"contracts/protocol/configuration/PriceOracleSentinel.sol\":3505:3593  function getGracePeriod() public view returns (uint256) {... */\n    tag_7:\n      tag_26\n      tag_27\n      jump\t// in\n    tag_26:\n      mload(0x40)\n      tag_28\n      swap2\n      swap1\n      tag_29\n      jump\t// in\n    tag_28:\n      mload(0x40)\n      dup1\n      swap2\n      sub\n      swap1\n      return\n        /* \"contracts/protocol/configuration/PriceOracleSentinel.sol\":2899:3098  function setSequencerOracle(address newSequencerOracle) public onlyPoolAdmin {... */\n    tag_8:\n      tag_30\n      0x04\n      dup1\n      calldatasize\n      sub\n      dup2\n      add\n      swap1\n      tag_31\n      swap2\n      swap1\n      tag_32\n      jump\t// in\n    tag_31:\n      tag_33\n      jump\t// in\n    tag_30:\n      stop\n        /* \"contracts/protocol/configuration/PriceOracleSentinel.sol\":3144:3308  function setGracePeriod(uint256 newGracePeriod) public onlyRiskOrPoolAdmins {... */\n    tag_9:\n      tag_34\n      0x04\n      dup1\n      calldatasize\n      sub\n      dup2\n      add\n      swap1\n      tag_35\n      swap2\n      swap1\n      tag_36\n      jump\t// in\n    tag_35:\n      tag_37\n      jump\t// in\n    tag_34:\n      stop\n        /* \"contracts/protocol/configuration/PriceOracleSentinel.sol\":1510:1577  IPoolAddressesProvider public immutable override ADDRESSES_PROVIDER */\n    tag_12:\n      immutable(\"0x3adc96bbab16c54ecfb5bdce5075df891153ca3c76b041851d8b98842fb8b958\")\n      dup2\n      jump\t// out\n        /* \"contracts/protocol/configuration/PriceOracleSentinel.sol\":3354:3459  function getSequencerOracle() public view returns (address) {... */\n    tag_16:\n        /* \"contracts/protocol/configuration/PriceOracleSentinel.sol\":3405:3412  address */\n      0x00\n        /* \"contracts/protocol/configuration/PriceOracleSentinel.sol\":3436:3452  _sequencerOracle */\n      dup1\n      0x00\n      swap1\n      sload\n      swap1\n      0x0100\n      exp\n      swap1\n      div\n      0xffffffffffffffffffffffffffffffffffffffff\n      and\n        /* \"contracts/protocol/configuration/PriceOracleSentinel.sol\":3421:3453  return address(_sequencerOracle) */\n      swap1\n      pop\n        /* \"contracts/protocol/configuration/PriceOracleSentinel.sol\":3354:3459  function getSequencerOracle() public view returns (address) {... */\n      swap1\n      jump\t// out\n        /* \"contracts/protocol/configuration/PriceOracleSentinel.sol\":2137:2247  function isBorrowAllowed() public view override returns (bool) {... */\n    tag_20:\n        /* \"contracts/protocol/configuration/PriceOracleSentinel.sol\":2194:2198  bool */\n      0x00\n        /* \"contracts/protocol/configuration/PriceOracleSentinel.sol\":2214:2241  _isUpAndGracePeriodPassed() */\n      tag_40\n        /* \"contracts/protocol/configuration/PriceOracleSentinel.sol\":2214:2239  _isUpAndGracePeriodPassed */\n      tag_41\n        /* \"contracts/protocol/configuration/PriceOracleSentinel.sol\":2214:2241  _isUpAndGracePeriodPassed() */\n      jump\t// in\n    tag_40:\n        /* \"contracts/protocol/configuration/PriceOracleSentinel.sol\":2207:2241  return _isUpAndGracePeriodPassed() */\n      swap1\n      pop\n        /* \"contracts/protocol/configuration/PriceOracleSentinel.sol\":2137:2247  function isBorrowAllowed() public view override returns (bool) {... */\n      swap1\n      jump\t// out\n        /* \"contracts/protocol/configuration/PriceOracleSentinel.sol\":2293:2408  function isLiquidationAllowed() public view override returns (bool) {... */\n    tag_24:\n        /* \"contracts/protocol/configuration/PriceOracleSentinel.sol\":2355:2359  bool */\n      0x00\n        /* \"contracts/protocol/configuration/PriceOracleSentinel.sol\":2375:2402  _isUpAndGracePeriodPassed() */\n      tag_43\n        /* \"contracts/protocol/configuration/PriceOracleSentinel.sol\":2375:2400  _isUpAndGracePeriodPassed */\n      tag_41\n        /* \"contracts/protocol/configuration/PriceOracleSentinel.sol\":2375:2402  _isUpAndGracePeriodPassed() */\n      jump\t// in\n    tag_43:\n        /* \"contracts/protocol/configuration/PriceOracleSentinel.sol\":2368:2402  return _isUpAndGracePeriodPassed() */\n      swap1\n      pop\n        /* \"contracts/protocol/configuration/PriceOracleSentinel.sol\":2293:2408  function isLiquidationAllowed() public view override returns (bool) {... */\n      swap1\n      jump\t// out\n        /* \"contracts/protocol/configuration/PriceOracleSentinel.sol\":3505:3593  function getGracePeriod() public view returns (uint256) {... */\n    tag_27:\n        /* \"contracts/protocol/configuration/PriceOracleSentinel.sol\":3552:3559  uint256 */\n      0x00\n        /* \"contracts/protocol/configuration/PriceOracleSentinel.sol\":3575:3587  _gracePeriod */\n      sload(0x01)\n        /* \"contracts/protocol/configuration/PriceOracleSentinel.sol\":3568:3587  return _gracePeriod */\n      swap1\n      pop\n        /* \"contracts/protocol/configuration/PriceOracleSentinel.sol\":3505:3593  function getGracePeriod() public view returns (uint256) {... */\n      swap1\n      jump\t// out\n        /* \"contracts/protocol/configuration/PriceOracleSentinel.sol\":2899:3098  function setSequencerOracle(address newSequencerOracle) public onlyPoolAdmin {... */\n    tag_33:\n        /* \"contracts/protocol/configuration/PriceOracleSentinel.sol\":967:989  IACLManager aclManager */\n      0x00\n        /* \"contracts/protocol/configuration/PriceOracleSentinel.sol\":1004:1022  ADDRESSES_PROVIDER */\n      immutable(\"0x3adc96bbab16c54ecfb5bdce5075df891153ca3c76b041851d8b98842fb8b958\")\n        /* \"contracts/protocol/configuration/PriceOracleSentinel.sol\":1004:1036  ADDRESSES_PROVIDER.getACLManager */\n      0xffffffffffffffffffffffffffffffffffffffff\n      and\n      0x707cd716\n        /* \"contracts/protocol/configuration/PriceOracleSentinel.sol\":1004:1038  ADDRESSES_PROVIDER.getACLManager() */\n      mload(0x40)\n      dup2\n      0xffffffff\n      and\n      0xe0\n      shl\n      dup2\n      mstore\n      0x04\n      add\n      0x20\n      mload(0x40)\n      dup1\n      dup4\n      sub\n      dup2\n      dup7\n      gas\n      staticcall\n      iszero\n      dup1\n      iszero\n      tag_47\n      jumpi\n      returndatasize\n      0x00\n      dup1\n      returndatacopy\n      revert(0x00, returndatasize)\n    tag_47:\n      pop\n      pop\n      pop\n      pop\n      mload(0x40)\n      returndatasize\n      not(0x1f)\n      0x1f\n      dup3\n      add\n      and\n      dup3\n      add\n      dup1\n      0x40\n      mstore\n      pop\n      dup2\n      add\n      swap1\n      tag_48\n      swap2\n      swap1\n      tag_49\n      jump\t// in\n    tag_48:\n        /* \"contracts/protocol/configuration/PriceOracleSentinel.sol\":967:1039  IACLManager aclManager = IACLManager(ADDRESSES_PROVIDER.getACLManager()) */\n      swap1\n      pop\n        /* \"contracts/protocol/configuration/PriceOracleSentinel.sol\":1054:1064  aclManager */\n      dup1\n        /* \"contracts/protocol/configuration/PriceOracleSentinel.sol\":1054:1076  aclManager.isPoolAdmin */\n      0xffffffffffffffffffffffffffffffffffffffff\n      and\n      0x7be53ca1\n        /* \"contracts/protocol/configuration/PriceOracleSentinel.sol\":1077:1087  msg.sender */\n      caller\n        /* \"contracts/protocol/configuration/PriceOracleSentinel.sol\":1054:1088  aclManager.isPoolAdmin(msg.sender) */\n      mload(0x40)\n      dup3\n      0xffffffff\n      and\n      0xe0\n      shl\n      dup2\n      mstore\n      0x04\n      add\n      tag_50\n      swap2\n      swap1\n      tag_18\n      jump\t// in\n    tag_50:\n      0x20\n      mload(0x40)\n      dup1\n      dup4\n      sub\n      dup2\n      dup7\n      gas\n      staticcall\n      iszero\n      dup1\n      iszero\n      tag_52\n      jumpi\n      returndatasize\n      0x00\n      dup1\n      returndatacopy\n      revert(0x00, returndatasize)\n    tag_52:\n      pop\n      pop\n      pop\n      pop\n      mload(0x40)\n      returndatasize\n      not(0x1f)\n      0x1f\n      dup3\n      add\n      and\n      dup3\n      add\n      dup1\n      0x40\n      mstore\n      pop\n      dup2\n      add\n      swap1\n      tag_53\n      swap2\n      swap1\n      tag_54\n      jump\t// in\n    tag_53:\n        /* \"contracts/protocol/configuration/PriceOracleSentinel.sol\":1090:1118  Errors.CALLER_NOT_POOL_ADMIN */\n      mload(0x40)\n      dup1\n      0x40\n      add\n      0x40\n      mstore\n      dup1\n      0x01\n      dup2\n      mstore\n      0x20\n      add\n      0x3100000000000000000000000000000000000000000000000000000000000000\n      dup2\n      mstore\n      pop\n        /* \"contracts/protocol/configuration/PriceOracleSentinel.sol\":1046:1119  require(aclManager.isPoolAdmin(msg.sender), Errors.CALLER_NOT_POOL_ADMIN) */\n      swap1\n      tag_55\n      jumpi\n      mload(0x40)\n      0x08c379a000000000000000000000000000000000000000000000000000000000\n      dup2\n      mstore\n      0x04\n      add\n      tag_56\n      swap2\n      swap1\n      tag_57\n      jump\t// in\n    tag_56:\n      mload(0x40)\n      dup1\n      swap2\n      sub\n      swap1\n      revert\n    tag_55:\n      pop\n        /* \"contracts/protocol/configuration/PriceOracleSentinel.sol\":3019:3037  newSequencerOracle */\n      dup2\n        /* \"contracts/protocol/configuration/PriceOracleSentinel.sol\":2983:2999  _sequencerOracle */\n      0x00\n      dup1\n        /* \"contracts/protocol/configuration/PriceOracleSentinel.sol\":2983:3038  _sequencerOracle = ISequencerOracle(newSequencerOracle) */\n      0x0100\n      exp\n      dup2\n      sload\n      dup2\n      0xffffffffffffffffffffffffffffffffffffffff\n      mul\n      not\n      and\n      swap1\n      dup4\n      0xffffffffffffffffffffffffffffffffffffffff\n      and\n      mul\n      or\n      swap1\n      sstore\n      pop\n        /* \"contracts/protocol/configuration/PriceOracleSentinel.sol\":3050:3092  SequencerOracleUpdated(newSequencerOracle) */\n      0x95cbf1d8f44ec81ff345ed9cf2fe53b6a6473e072bf046ee412f198c54dba449\n        /* \"contracts/protocol/configuration/PriceOracleSentinel.sol\":3073:3091  newSequencerOracle */\n      dup3\n        /* \"contracts/protocol/configuration/PriceOracleSentinel.sol\":3050:3092  SequencerOracleUpdated(newSequencerOracle) */\n      mload(0x40)\n      tag_59\n      swap2\n      swap1\n      tag_18\n      jump\t// in\n    tag_59:\n      mload(0x40)\n      dup1\n      swap2\n      sub\n      swap1\n      log1\n        /* \"contracts/protocol/configuration/PriceOracleSentinel.sol\":960:1133  {... */\n      pop\n        /* \"contracts/protocol/configuration/PriceOracleSentinel.sol\":2899:3098  function setSequencerOracle(address newSequencerOracle) public onlyPoolAdmin {... */\n      pop\n      jump\t// out\n        /* \"contracts/protocol/configuration/PriceOracleSentinel.sol\":3144:3308  function setGracePeriod(uint256 newGracePeriod) public onlyRiskOrPoolAdmins {... */\n    tag_37:\n        /* \"contracts/protocol/configuration/PriceOracleSentinel.sol\":1271:1293  IACLManager aclManager */\n      0x00\n        /* \"contracts/protocol/configuration/PriceOracleSentinel.sol\":1308:1326  ADDRESSES_PROVIDER */\n      immutable(\"0x3adc96bbab16c54ecfb5bdce5075df891153ca3c76b041851d8b98842fb8b958\")\n        /* \"contracts/protocol/configuration/PriceOracleSentinel.sol\":1308:1340  ADDRESSES_PROVIDER.getACLManager */\n      0xffffffffffffffffffffffffffffffffffffffff\n      and\n      0x707cd716\n        /* \"contracts/protocol/configuration/PriceOracleSentinel.sol\":1308:1342  ADDRESSES_PROVIDER.getACLManager() */\n      mload(0x40)\n      dup2\n      0xffffffff\n      and\n      0xe0\n      shl\n      dup2\n      mstore\n      0x04\n      add\n      0x20\n      mload(0x40)\n      dup1\n      dup4\n      sub\n      dup2\n      dup7\n      gas\n      staticcall\n      iszero\n      dup1\n      iszero\n      tag_62\n      jumpi\n      returndatasize\n      0x00\n      dup1\n      returndatacopy\n      revert(0x00, returndatasize)\n    tag_62:\n      pop\n      pop\n      pop\n      pop\n      mload(0x40)\n      returndatasize\n      not(0x1f)\n      0x1f\n      dup3\n      add\n      and\n      dup3\n      add\n      dup1\n      0x40\n      mstore\n      pop\n      dup2\n      add\n      swap1\n      tag_63\n      swap2\n      swap1\n      tag_49\n      jump\t// in\n    tag_63:\n        /* \"contracts/protocol/configuration/PriceOracleSentinel.sol\":1271:1343  IACLManager aclManager = IACLManager(ADDRESSES_PROVIDER.getACLManager()) */\n      swap1\n      pop\n        /* \"contracts/protocol/configuration/PriceOracleSentinel.sol\":1366:1376  aclManager */\n      dup1\n        /* \"contracts/protocol/configuration/PriceOracleSentinel.sol\":1366:1388  aclManager.isRiskAdmin */\n      0xffffffffffffffffffffffffffffffffffffffff\n      and\n      0x674b5e4d\n        /* \"contracts/protocol/configuration/PriceOracleSentinel.sol\":1389:1399  msg.sender */\n      caller\n        /* \"contracts/protocol/configuration/PriceOracleSentinel.sol\":1366:1400  aclManager.isRiskAdmin(msg.sender) */\n      mload(0x40)\n      dup3\n      0xffffffff\n      and\n      0xe0\n      shl\n      dup2\n      mstore\n      0x04\n      add\n      tag_64\n      swap2\n      swap1\n      tag_18\n      jump\t// in\n    tag_64:\n      0x20\n      mload(0x40)\n      dup1\n      dup4\n      sub\n      dup2\n      dup7\n      gas\n      staticcall\n      iszero\n      dup1\n      iszero\n      tag_66\n      jumpi\n      returndatasize\n      0x00\n      dup1\n      returndatacopy\n      revert(0x00, returndatasize)\n    tag_66:\n      pop\n      pop\n      pop\n      pop\n      mload(0x40)\n      returndatasize\n      not(0x1f)\n      0x1f\n      dup3\n      add\n      and\n      dup3\n      add\n      dup1\n      0x40\n      mstore\n      pop\n      dup2\n      add\n      swap1\n      tag_67\n      swap2\n      swap1\n      tag_54\n      jump\t// in\n    tag_67:\n        /* \"contracts/protocol/configuration/PriceOracleSentinel.sol\":1366:1438  aclManager.isRiskAdmin(msg.sender) || aclManager.isPoolAdmin(msg.sender) */\n      dup1\n      tag_68\n      jumpi\n      pop\n        /* \"contracts/protocol/configuration/PriceOracleSentinel.sol\":1404:1414  aclManager */\n      dup1\n        /* \"contracts/protocol/configuration/PriceOracleSentinel.sol\":1404:1426  aclManager.isPoolAdmin */\n      0xffffffffffffffffffffffffffffffffffffffff\n      and\n      0x7be53ca1\n        /* \"contracts/protocol/configuration/PriceOracleSentinel.sol\":1427:1437  msg.sender */\n      caller\n        /* \"contracts/protocol/configuration/PriceOracleSentinel.sol\":1404:1438  aclManager.isPoolAdmin(msg.sender) */\n      mload(0x40)\n      dup3\n      0xffffffff\n      and\n      0xe0\n      shl\n      dup2\n      mstore\n      0x04\n      add\n      tag_69\n      swap2\n      swap1\n      tag_18\n      jump\t// in\n    tag_69:\n      0x20\n      mload(0x40)\n      dup1\n      dup4\n      sub\n      dup2\n      dup7\n      gas\n      staticcall\n      iszero\n      dup1\n      iszero\n      tag_71\n      jumpi\n      returndatasize\n      0x00\n      dup1\n      returndatacopy\n      revert(0x00, returndatasize)\n    tag_71:\n      pop\n      pop\n      pop\n      pop\n      mload(0x40)\n      returndatasize\n      not(0x1f)\n      0x1f\n      dup3\n      add\n      and\n      dup3\n      add\n      dup1\n      0x40\n      mstore\n      pop\n      dup2\n      add\n      swap1\n      tag_72\n      swap2\n      swap1\n      tag_54\n      jump\t// in\n    tag_72:\n        /* \"contracts/protocol/configuration/PriceOracleSentinel.sol\":1366:1438  aclManager.isRiskAdmin(msg.sender) || aclManager.isPoolAdmin(msg.sender) */\n    tag_68:\n        /* \"contracts/protocol/configuration/PriceOracleSentinel.sol\":1447:1483  Errors.CALLER_NOT_RISK_OR_POOL_ADMIN */\n      mload(0x40)\n      dup1\n      0x40\n      add\n      0x40\n      mstore\n      dup1\n      0x01\n      dup2\n      mstore\n      0x20\n      add\n      0x3400000000000000000000000000000000000000000000000000000000000000\n      dup2\n      mstore\n      pop\n        /* \"contracts/protocol/configuration/PriceOracleSentinel.sol\":1350:1490  require(... */\n      swap1\n      tag_73\n      jumpi\n      mload(0x40)\n      0x08c379a000000000000000000000000000000000000000000000000000000000\n      dup2\n      mstore\n      0x04\n      add\n      tag_74\n      swap2\n      swap1\n      tag_57\n      jump\t// in\n    tag_74:\n      mload(0x40)\n      dup1\n      swap2\n      sub\n      swap1\n      revert\n    tag_73:\n      pop\n        /* \"contracts/protocol/configuration/PriceOracleSentinel.sol\":3242:3256  newGracePeriod */\n      dup2\n        /* \"contracts/protocol/configuration/PriceOracleSentinel.sol\":3227:3239  _gracePeriod */\n      0x01\n        /* \"contracts/protocol/configuration/PriceOracleSentinel.sol\":3227:3256  _gracePeriod = newGracePeriod */\n      dup2\n      swap1\n      sstore\n      pop\n        /* \"contracts/protocol/configuration/PriceOracleSentinel.sol\":3268:3302  GracePeriodUpdated(newGracePeriod) */\n      0x33d1191f5a3abfe19d468d51bb5ece97489f1277a912a5b5c65992fc279ad3d4\n        /* \"contracts/protocol/configuration/PriceOracleSentinel.sol\":3287:3301  newGracePeriod */\n      dup3\n        /* \"contracts/protocol/configuration/PriceOracleSentinel.sol\":3268:3302  GracePeriodUpdated(newGracePeriod) */\n      mload(0x40)\n      tag_76\n      swap2\n      swap1\n      tag_29\n      jump\t// in\n    tag_76:\n      mload(0x40)\n      dup1\n      swap2\n      sub\n      swap1\n      log1\n        /* \"contracts/protocol/configuration/PriceOracleSentinel.sol\":1264:1504  {... */\n      pop\n        /* \"contracts/protocol/configuration/PriceOracleSentinel.sol\":3144:3308  function setGracePeriod(uint256 newGracePeriod) public onlyRiskOrPoolAdmins {... */\n      pop\n      jump\t// out\n        /* \"contracts/protocol/configuration/PriceOracleSentinel.sol\":2606:2853  function _isUpAndGracePeriodPassed() internal view returns (bool) {... */\n    tag_41:\n        /* \"contracts/protocol/configuration/PriceOracleSentinel.sol\":2666:2670  bool */\n      0x00\n        /* \"contracts/protocol/configuration/PriceOracleSentinel.sol\":2682:2695  int256 answer */\n      dup1\n        /* \"contracts/protocol/configuration/PriceOracleSentinel.sol\":2699:2726  uint256 lastUpdateTimestamp */\n      0x00\n        /* \"contracts/protocol/configuration/PriceOracleSentinel.sol\":2732:2748  _sequencerOracle */\n      dup1\n      0x00\n      swap1\n      sload\n      swap1\n      0x0100\n      exp\n      swap1\n      div\n      0xffffffffffffffffffffffffffffffffffffffff\n      and\n        /* \"contracts/protocol/configuration/PriceOracleSentinel.sol\":2732:2764  _sequencerOracle.latestRoundData */\n      0xffffffffffffffffffffffffffffffffffffffff\n      and\n      0xfeaf968c\n        /* \"contracts/protocol/configuration/PriceOracleSentinel.sol\":2732:2766  _sequencerOracle.latestRoundData() */\n      mload(0x40)\n      dup2\n      0xffffffff\n      and\n      0xe0\n      shl\n      dup2\n      mstore\n      0x04\n      add\n      0xa0\n      mload(0x40)\n      dup1\n      dup4\n      sub\n      dup2\n      dup7\n      gas\n      staticcall\n      iszero\n      dup1\n      iszero\n      tag_79\n      jumpi\n      returndatasize\n      0x00\n      dup1\n      returndatacopy\n      revert(0x00, returndatasize)\n    tag_79:\n      pop\n      pop\n      pop\n      pop\n      mload(0x40)\n      returndatasize\n      not(0x1f)\n      0x1f\n      dup3\n      add\n      and\n      dup3\n      add\n      dup1\n      0x40\n      mstore\n      pop\n      dup2\n      add\n      swap1\n      tag_80\n      swap2\n      swap1\n      tag_81\n      jump\t// in\n    tag_80:\n        /* \"contracts/protocol/configuration/PriceOracleSentinel.sol\":2679:2766  (, int256 answer, , uint256 lastUpdateTimestamp, ) = _sequencerOracle.latestRoundData() */\n      pop\n      swap4\n      pop\n      pop\n      swap3\n      pop\n      pop\n        /* \"contracts/protocol/configuration/PriceOracleSentinel.sol\":2790:2791  0 */\n      0x00\n        /* \"contracts/protocol/configuration/PriceOracleSentinel.sol\":2780:2786  answer */\n      dup3\n        /* \"contracts/protocol/configuration/PriceOracleSentinel.sol\":2780:2791  answer == 0 */\n      eq\n        /* \"contracts/protocol/configuration/PriceOracleSentinel.sol\":2780:2847  answer == 0 && block.timestamp - lastUpdateTimestamp > _gracePeriod */\n      dup1\n      iszero\n      tag_82\n      jumpi\n      pop\n        /* \"contracts/protocol/configuration/PriceOracleSentinel.sol\":2835:2847  _gracePeriod */\n      sload(0x01)\n        /* \"contracts/protocol/configuration/PriceOracleSentinel.sol\":2813:2832  lastUpdateTimestamp */\n      dup2\n        /* \"contracts/protocol/configuration/PriceOracleSentinel.sol\":2795:2810  block.timestamp */\n      timestamp\n        /* \"contracts/protocol/configuration/PriceOracleSentinel.sol\":2795:2832  block.timestamp - lastUpdateTimestamp */\n      tag_83\n      swap2\n      swap1\n      tag_84\n      jump\t// in\n    tag_83:\n        /* \"contracts/protocol/configuration/PriceOracleSentinel.sol\":2795:2847  block.timestamp - lastUpdateTimestamp > _gracePeriod */\n      gt\n        /* \"contracts/protocol/configuration/PriceOracleSentinel.sol\":2780:2847  answer == 0 && block.timestamp - lastUpdateTimestamp > _gracePeriod */\n    tag_82:\n        /* \"contracts/protocol/configuration/PriceOracleSentinel.sol\":2773:2847  return answer == 0 && block.timestamp - lastUpdateTimestamp > _gracePeriod */\n      swap3\n      pop\n      pop\n      pop\n        /* \"contracts/protocol/configuration/PriceOracleSentinel.sol\":2606:2853  function _isUpAndGracePeriodPassed() internal view returns (bool) {... */\n      swap1\n      jump\t// out\n        /* \"#utility.yul\":7:133   */\n    tag_85:\n        /* \"#utility.yul\":44:51   */\n      0x00\n        /* \"#utility.yul\":84:126   */\n      0xffffffffffffffffffffffffffffffffffffffff\n        /* \"#utility.yul\":77:82   */\n      dup3\n        /* \"#utility.yul\":73:127   */\n      and\n        /* \"#utility.yul\":62:127   */\n      swap1\n      pop\n        /* \"#utility.yul\":7:133   */\n      swap2\n      swap1\n      pop\n      jump\t// out\n        /* \"#utility.yul\":139:199   */\n    tag_86:\n        /* \"#utility.yul\":167:170   */\n      0x00\n        /* \"#utility.yul\":188:193   */\n      dup2\n        /* \"#utility.yul\":181:193   */\n      swap1\n      pop\n        /* \"#utility.yul\":139:199   */\n      swap2\n      swap1\n      pop\n      jump\t// out\n        /* \"#utility.yul\":205:347   */\n    tag_87:\n        /* \"#utility.yul\":255:264   */\n      0x00\n        /* \"#utility.yul\":288:341   */\n      tag_124\n        /* \"#utility.yul\":306:340   */\n      tag_125\n        /* \"#utility.yul\":315:339   */\n      tag_126\n        /* \"#utility.yul\":333:338   */\n      dup5\n        /* \"#utility.yul\":315:339   */\n      tag_85\n      jump\t// in\n    tag_126:\n        /* \"#utility.yul\":306:340   */\n      tag_86\n      jump\t// in\n    tag_125:\n        /* \"#utility.yul\":288:341   */\n      tag_85\n      jump\t// in\n    tag_124:\n        /* \"#utility.yul\":275:341   */\n      swap1\n      pop\n        /* \"#utility.yul\":205:347   */\n      swap2\n      swap1\n      pop\n      jump\t// out\n        /* \"#utility.yul\":353:479   */\n    tag_88:\n        /* \"#utility.yul\":403:412   */\n      0x00\n        /* \"#utility.yul\":436:473   */\n      tag_128\n        /* \"#utility.yul\":467:472   */\n      dup3\n        /* \"#utility.yul\":436:473   */\n      tag_87\n      jump\t// in\n    tag_128:\n        /* \"#utility.yul\":423:473   */\n      swap1\n      pop\n        /* \"#utility.yul\":353:479   */\n      swap2\n      swap1\n      pop\n      jump\t// out\n        /* \"#utility.yul\":485:641   */\n    tag_89:\n        /* \"#utility.yul\":565:574   */\n      0x00\n        /* \"#utility.yul\":598:635   */\n      tag_130\n        /* \"#utility.yul\":629:634   */\n      dup3\n        /* \"#utility.yul\":598:635   */\n      tag_88\n      jump\t// in\n    tag_130:\n        /* \"#utility.yul\":585:635   */\n      swap1\n      pop\n        /* \"#utility.yul\":485:641   */\n      swap2\n      swap1\n      pop\n      jump\t// out\n        /* \"#utility.yul\":647:838   */\n    tag_90:\n        /* \"#utility.yul\":764:831   */\n      tag_132\n        /* \"#utility.yul\":825:830   */\n      dup2\n        /* \"#utility.yul\":764:831   */\n      tag_89\n      jump\t// in\n    tag_132:\n        /* \"#utility.yul\":759:762   */\n      dup3\n        /* \"#utility.yul\":752:832   */\n      mstore\n        /* \"#utility.yul\":647:838   */\n      pop\n      pop\n      jump\t// out\n        /* \"#utility.yul\":844:1126   */\n    tag_14:\n        /* \"#utility.yul\":967:971   */\n      0x00\n        /* \"#utility.yul\":1005:1007   */\n      0x20\n        /* \"#utility.yul\":994:1003   */\n      dup3\n        /* \"#utility.yul\":990:1008   */\n      add\n        /* \"#utility.yul\":982:1008   */\n      swap1\n      pop\n        /* \"#utility.yul\":1018:1119   */\n      tag_134\n        /* \"#utility.yul\":1116:1117   */\n      0x00\n        /* \"#utility.yul\":1105:1114   */\n      dup4\n        /* \"#utility.yul\":1101:1118   */\n      add\n        /* \"#utility.yul\":1092:1098   */\n      dup5\n        /* \"#utility.yul\":1018:1119   */\n      tag_90\n      jump\t// in\n    tag_134:\n        /* \"#utility.yul\":844:1126   */\n      swap3\n      swap2\n      pop\n      pop\n      jump\t// out\n        /* \"#utility.yul\":1132:1228   */\n    tag_91:\n        /* \"#utility.yul\":1169:1176   */\n      0x00\n        /* \"#utility.yul\":1198:1222   */\n      tag_136\n        /* \"#utility.yul\":1216:1221   */\n      dup3\n        /* \"#utility.yul\":1198:1222   */\n      tag_85\n      jump\t// in\n    tag_136:\n        /* \"#utility.yul\":1187:1222   */\n      swap1\n      pop\n        /* \"#utility.yul\":1132:1228   */\n      swap2\n      swap1\n      pop\n      jump\t// out\n        /* \"#utility.yul\":1234:1352   */\n    tag_92:\n        /* \"#utility.yul\":1321:1345   */\n      tag_138\n        /* \"#utility.yul\":1339:1344   */\n      dup2\n        /* \"#utility.yul\":1321:1345   */\n      tag_91\n      jump\t// in\n    tag_138:\n        /* \"#utility.yul\":1316:1319   */\n      dup3\n        /* \"#utility.yul\":1309:1346   */\n      mstore\n        /* \"#utility.yul\":1234:1352   */\n      pop\n      pop\n      jump\t// out\n        /* \"#utility.yul\":1358:1580   */\n    tag_18:\n        /* \"#utility.yul\":1451:1455   */\n      0x00\n        /* \"#utility.yul\":1489:1491   */\n      0x20\n        /* \"#utility.yul\":1478:1487   */\n      dup3\n        /* \"#utility.yul\":1474:1492   */\n      add\n        /* \"#utility.yul\":1466:1492   */\n      swap1\n      pop\n        /* \"#utility.yul\":1502:1573   */\n      tag_140\n        /* \"#utility.yul\":1570:1571   */\n      0x00\n        /* \"#utility.yul\":1559:1568   */\n      dup4\n        /* \"#utility.yul\":1555:1572   */\n      add\n        /* \"#utility.yul\":1546:1552   */\n      dup5\n        /* \"#utility.yul\":1502:1573   */\n      tag_92\n      jump\t// in\n    tag_140:\n        /* \"#utility.yul\":1358:1580   */\n      swap3\n      swap2\n      pop\n      pop\n      jump\t// out\n        /* \"#utility.yul\":1586:1676   */\n    tag_93:\n        /* \"#utility.yul\":1620:1627   */\n      0x00\n        /* \"#utility.yul\":1663:1668   */\n      dup2\n        /* \"#utility.yul\":1656:1669   */\n      iszero\n        /* \"#utility.yul\":1649:1670   */\n      iszero\n        /* \"#utility.yul\":1638:1670   */\n      swap1\n      pop\n        /* \"#utility.yul\":1586:1676   */\n      swap2\n      swap1\n      pop\n      jump\t// out\n        /* \"#utility.yul\":1682:1791   */\n    tag_94:\n        /* \"#utility.yul\":1763:1784   */\n      tag_143\n        /* \"#utility.yul\":1778:1783   */\n      dup2\n        /* \"#utility.yul\":1763:1784   */\n      tag_93\n      jump\t// in\n    tag_143:\n        /* \"#utility.yul\":1758:1761   */\n      dup3\n        /* \"#utility.yul\":1751:1785   */\n      mstore\n        /* \"#utility.yul\":1682:1791   */\n      pop\n      pop\n      jump\t// out\n        /* \"#utility.yul\":1797:2007   */\n    tag_22:\n        /* \"#utility.yul\":1884:1888   */\n      0x00\n        /* \"#utility.yul\":1922:1924   */\n      0x20\n        /* \"#utility.yul\":1911:1920   */\n      dup3\n        /* \"#utility.yul\":1907:1925   */\n      add\n        /* \"#utility.yul\":1899:1925   */\n      swap1\n      pop\n        /* \"#utility.yul\":1935:2000   */\n      tag_145\n        /* \"#utility.yul\":1997:1998   */\n      0x00\n        /* \"#utility.yul\":1986:1995   */\n      dup4\n        /* \"#utility.yul\":1982:1999   */\n      add\n        /* \"#utility.yul\":1973:1979   */\n      dup5\n        /* \"#utility.yul\":1935:2000   */\n      tag_94\n      jump\t// in\n    tag_145:\n        /* \"#utility.yul\":1797:2007   */\n      swap3\n      swap2\n      pop\n      pop\n      jump\t// out\n        /* \"#utility.yul\":2013:2090   */\n    tag_95:\n        /* \"#utility.yul\":2050:2057   */\n      0x00\n        /* \"#utility.yul\":2079:2084   */\n      dup2\n        /* \"#utility.yul\":2068:2084   */\n      swap1\n      pop\n        /* \"#utility.yul\":2013:2090   */\n      swap2\n      swap1\n      pop\n      jump\t// out\n        /* \"#utility.yul\":2096:2214   */\n    tag_96:\n        /* \"#utility.yul\":2183:2207   */\n      tag_148\n        /* \"#utility.yul\":2201:2206   */\n      dup2\n        /* \"#utility.yul\":2183:2207   */\n      tag_95\n      jump\t// in\n    tag_148:\n        /* \"#utility.yul\":2178:2181   */\n      dup3\n        /* \"#utility.yul\":2171:2208   */\n      mstore\n        /* \"#utility.yul\":2096:2214   */\n      pop\n      pop\n      jump\t// out\n        /* \"#utility.yul\":2220:2442   */\n    tag_29:\n        /* \"#utility.yul\":2313:2317   */\n      0x00\n        /* \"#utility.yul\":2351:2353   */\n      0x20\n        /* \"#utility.yul\":2340:2349   */\n      dup3\n        /* \"#utility.yul\":2336:2354   */\n      add\n        /* \"#utility.yul\":2328:2354   */\n      swap1\n      pop\n        /* \"#utility.yul\":2364:2435   */\n      tag_150\n        /* \"#utility.yul\":2432:2433   */\n      0x00\n        /* \"#utility.yul\":2421:2430   */\n      dup4\n        /* \"#utility.yul\":2417:2434   */\n      add\n        /* \"#utility.yul\":2408:2414   */\n      dup5\n        /* \"#utility.yul\":2364:2435   */\n      tag_96\n      jump\t// in\n    tag_150:\n        /* \"#utility.yul\":2220:2442   */\n      swap3\n      swap2\n      pop\n      pop\n      jump\t// out\n        /* \"#utility.yul\":2529:2646   */\n    tag_98:\n        /* \"#utility.yul\":2638:2639   */\n      0x00\n        /* \"#utility.yul\":2635:2636   */\n      dup1\n        /* \"#utility.yul\":2628:2640   */\n      revert\n        /* \"#utility.yul\":2775:2897   */\n    tag_100:\n        /* \"#utility.yul\":2848:2872   */\n      tag_155\n        /* \"#utility.yul\":2866:2871   */\n      dup2\n        /* \"#utility.yul\":2848:2872   */\n      tag_91\n      jump\t// in\n    tag_155:\n        /* \"#utility.yul\":2841:2846   */\n      dup2\n        /* \"#utility.yul\":2838:2873   */\n      eq\n        /* \"#utility.yul\":2828:2891   */\n      tag_156\n      jumpi\n        /* \"#utility.yul\":2887:2888   */\n      0x00\n        /* \"#utility.yul\":2884:2885   */\n      dup1\n        /* \"#utility.yul\":2877:2889   */\n      revert\n        /* \"#utility.yul\":2828:2891   */\n    tag_156:\n        /* \"#utility.yul\":2775:2897   */\n      pop\n      jump\t// out\n        /* \"#utility.yul\":2903:3042   */\n    tag_101:\n        /* \"#utility.yul\":2949:2954   */\n      0x00\n        /* \"#utility.yul\":2987:2993   */\n      dup2\n        /* \"#utility.yul\":2974:2994   */\n      calldataload\n        /* \"#utility.yul\":2965:2994   */\n      swap1\n      pop\n        /* \"#utility.yul\":3003:3036   */\n      tag_158\n        /* \"#utility.yul\":3030:3035   */\n      dup2\n        /* \"#utility.yul\":3003:3036   */\n      tag_100\n      jump\t// in\n    tag_158:\n        /* \"#utility.yul\":2903:3042   */\n      swap3\n      swap2\n      pop\n      pop\n      jump\t// out\n        /* \"#utility.yul\":3048:3377   */\n    tag_32:\n        /* \"#utility.yul\":3107:3113   */\n      0x00\n        /* \"#utility.yul\":3156:3158   */\n      0x20\n        /* \"#utility.yul\":3144:3153   */\n      dup3\n        /* \"#utility.yul\":3135:3142   */\n      dup5\n        /* \"#utility.yul\":3131:3154   */\n      sub\n        /* \"#utility.yul\":3127:3159   */\n      slt\n        /* \"#utility.yul\":3124:3243   */\n      iszero\n      tag_160\n      jumpi\n        /* \"#utility.yul\":3162:3241   */\n      tag_161\n      tag_98\n      jump\t// in\n    tag_161:\n        /* \"#utility.yul\":3124:3243   */\n    tag_160:\n        /* \"#utility.yul\":3282:3283   */\n      0x00\n        /* \"#utility.yul\":3307:3360   */\n      tag_162\n        /* \"#utility.yul\":3352:3359   */\n      dup5\n        /* \"#utility.yul\":3343:3349   */\n      dup3\n        /* \"#utility.yul\":3332:3341   */\n      dup6\n        /* \"#utility.yul\":3328:3350   */\n      add\n        /* \"#utility.yul\":3307:3360   */\n      tag_101\n      jump\t// in\n    tag_162:\n        /* \"#utility.yul\":3297:3360   */\n      swap2\n      pop\n        /* \"#utility.yul\":3253:3370   */\n      pop\n        /* \"#utility.yul\":3048:3377   */\n      swap3\n      swap2\n      pop\n      pop\n      jump\t// out\n        /* \"#utility.yul\":3383:3505   */\n    tag_102:\n        /* \"#utility.yul\":3456:3480   */\n      tag_164\n        /* \"#utility.yul\":3474:3479   */\n      dup2\n        /* \"#utility.yul\":3456:3480   */\n      tag_95\n      jump\t// in\n    tag_164:\n        /* \"#utility.yul\":3449:3454   */\n      dup2\n        /* \"#utility.yul\":3446:3481   */\n      eq\n        /* \"#utility.yul\":3436:3499   */\n      tag_165\n      jumpi\n        /* \"#utility.yul\":3495:3496   */\n      0x00\n        /* \"#utility.yul\":3492:3493   */\n      dup1\n        /* \"#utility.yul\":3485:3497   */\n      revert\n        /* \"#utility.yul\":3436:3499   */\n    tag_165:\n        /* \"#utility.yul\":3383:3505   */\n      pop\n      jump\t// out\n        /* \"#utility.yul\":3511:3650   */\n    tag_103:\n        /* \"#utility.yul\":3557:3562   */\n      0x00\n        /* \"#utility.yul\":3595:3601   */\n      dup2\n        /* \"#utility.yul\":3582:3602   */\n      calldataload\n        /* \"#utility.yul\":3573:3602   */\n      swap1\n      pop\n        /* \"#utility.yul\":3611:3644   */\n      tag_167\n        /* \"#utility.yul\":3638:3643   */\n      dup2\n        /* \"#utility.yul\":3611:3644   */\n      tag_102\n      jump\t// in\n    tag_167:\n        /* \"#utility.yul\":3511:3650   */\n      swap3\n      swap2\n      pop\n      pop\n      jump\t// out\n        /* \"#utility.yul\":3656:3985   */\n    tag_36:\n        /* \"#utility.yul\":3715:3721   */\n      0x00\n        /* \"#utility.yul\":3764:3766   */\n      0x20\n        /* \"#utility.yul\":3752:3761   */\n      dup3\n        /* \"#utility.yul\":3743:3750   */\n      dup5\n        /* \"#utility.yul\":3739:3762   */\n      sub\n        /* \"#utility.yul\":3735:3767   */\n      slt\n        /* \"#utility.yul\":3732:3851   */\n      iszero\n      tag_169\n      jumpi\n        /* \"#utility.yul\":3770:3849   */\n      tag_170\n      tag_98\n      jump\t// in\n    tag_170:\n        /* \"#utility.yul\":3732:3851   */\n    tag_169:\n        /* \"#utility.yul\":3890:3891   */\n      0x00\n        /* \"#utility.yul\":3915:3968   */\n      tag_171\n        /* \"#utility.yul\":3960:3967   */\n      dup5\n        /* \"#utility.yul\":3951:3957   */\n      dup3\n        /* \"#utility.yul\":3940:3949   */\n      dup6\n        /* \"#utility.yul\":3936:3958   */\n      add\n        /* \"#utility.yul\":3915:3968   */\n      tag_103\n      jump\t// in\n    tag_171:\n        /* \"#utility.yul\":3905:3968   */\n      swap2\n      pop\n        /* \"#utility.yul\":3861:3978   */\n      pop\n        /* \"#utility.yul\":3656:3985   */\n      swap3\n      swap2\n      pop\n      pop\n      jump\t// out\n        /* \"#utility.yul\":3991:4134   */\n    tag_104:\n        /* \"#utility.yul\":4048:4053   */\n      0x00\n        /* \"#utility.yul\":4079:4085   */\n      dup2\n        /* \"#utility.yul\":4073:4086   */\n      mload\n        /* \"#utility.yul\":4064:4086   */\n      swap1\n      pop\n        /* \"#utility.yul\":4095:4128   */\n      tag_173\n        /* \"#utility.yul\":4122:4127   */\n      dup2\n        /* \"#utility.yul\":4095:4128   */\n      tag_100\n      jump\t// in\n    tag_173:\n        /* \"#utility.yul\":3991:4134   */\n      swap3\n      swap2\n      pop\n      pop\n      jump\t// out\n        /* \"#utility.yul\":4140:4491   */\n    tag_49:\n        /* \"#utility.yul\":4210:4216   */\n      0x00\n        /* \"#utility.yul\":4259:4261   */\n      0x20\n        /* \"#utility.yul\":4247:4256   */\n      dup3\n        /* \"#utility.yul\":4238:4245   */\n      dup5\n        /* \"#utility.yul\":4234:4257   */\n      sub\n        /* \"#utility.yul\":4230:4262   */\n      slt\n        /* \"#utility.yul\":4227:4346   */\n      iszero\n      tag_175\n      jumpi\n        /* \"#utility.yul\":4265:4344   */\n      tag_176\n      tag_98\n      jump\t// in\n    tag_176:\n        /* \"#utility.yul\":4227:4346   */\n    tag_175:\n        /* \"#utility.yul\":4385:4386   */\n      0x00\n        /* \"#utility.yul\":4410:4474   */\n      tag_177\n        /* \"#utility.yul\":4466:4473   */\n      dup5\n        /* \"#utility.yul\":4457:4463   */\n      dup3\n        /* \"#utility.yul\":4446:4455   */\n      dup6\n        /* \"#utility.yul\":4442:4464   */\n      add\n        /* \"#utility.yul\":4410:4474   */\n      tag_104\n      jump\t// in\n    tag_177:\n        /* \"#utility.yul\":4400:4474   */\n      swap2\n      pop\n        /* \"#utility.yul\":4356:4484   */\n      pop\n        /* \"#utility.yul\":4140:4491   */\n      swap3\n      swap2\n      pop\n      pop\n      jump\t// out\n        /* \"#utility.yul\":4497:4613   */\n    tag_105:\n        /* \"#utility.yul\":4567:4588   */\n      tag_179\n        /* \"#utility.yul\":4582:4587   */\n      dup2\n        /* \"#utility.yul\":4567:4588   */\n      tag_93\n      jump\t// in\n    tag_179:\n        /* \"#utility.yul\":4560:4565   */\n      dup2\n        /* \"#utility.yul\":4557:4589   */\n      eq\n        /* \"#utility.yul\":4547:4607   */\n      tag_180\n      jumpi\n        /* \"#utility.yul\":4603:4604   */\n      0x00\n        /* \"#utility.yul\":4600:4601   */\n      dup1\n        /* \"#utility.yul\":4593:4605   */\n      revert\n        /* \"#utility.yul\":4547:4607   */\n    tag_180:\n        /* \"#utility.yul\":4497:4613   */\n      pop\n      jump\t// out\n        /* \"#utility.yul\":4619:4756   */\n    tag_106:\n        /* \"#utility.yul\":4673:4678   */\n      0x00\n        /* \"#utility.yul\":4704:4710   */\n      dup2\n        /* \"#utility.yul\":4698:4711   */\n      mload\n        /* \"#utility.yul\":4689:4711   */\n      swap1\n      pop\n        /* \"#utility.yul\":4720:4750   */\n      tag_182\n        /* \"#utility.yul\":4744:4749   */\n      dup2\n        /* \"#utility.yul\":4720:4750   */\n      tag_105\n      jump\t// in\n    tag_182:\n        /* \"#utility.yul\":4619:4756   */\n      swap3\n      swap2\n      pop\n      pop\n      jump\t// out\n        /* \"#utility.yul\":4762:5107   */\n    tag_54:\n        /* \"#utility.yul\":4829:4835   */\n      0x00\n        /* \"#utility.yul\":4878:4880   */\n      0x20\n        /* \"#utility.yul\":4866:4875   */\n      dup3\n        /* \"#utility.yul\":4857:4864   */\n      dup5\n        /* \"#utility.yul\":4853:4876   */\n      sub\n        /* \"#utility.yul\":4849:4881   */\n      slt\n        /* \"#utility.yul\":4846:4965   */\n      iszero\n      tag_184\n      jumpi\n        /* \"#utility.yul\":4884:4963   */\n      tag_185\n      tag_98\n      jump\t// in\n    tag_185:\n        /* \"#utility.yul\":4846:4965   */\n    tag_184:\n        /* \"#utility.yul\":5004:5005   */\n      0x00\n        /* \"#utility.yul\":5029:5090   */\n      tag_186\n        /* \"#utility.yul\":5082:5089   */\n      dup5\n        /* \"#utility.yul\":5073:5079   */\n      dup3\n        /* \"#utility.yul\":5062:5071   */\n      dup6\n        /* \"#utility.yul\":5058:5080   */\n      add\n        /* \"#utility.yul\":5029:5090   */\n      tag_106\n      jump\t// in\n    tag_186:\n        /* \"#utility.yul\":5019:5090   */\n      swap2\n      pop\n        /* \"#utility.yul\":4975:5100   */\n      pop\n        /* \"#utility.yul\":4762:5107   */\n      swap3\n      swap2\n      pop\n      pop\n      jump\t// out\n        /* \"#utility.yul\":5113:5212   */\n    tag_107:\n        /* \"#utility.yul\":5165:5171   */\n      0x00\n        /* \"#utility.yul\":5199:5204   */\n      dup2\n        /* \"#utility.yul\":5193:5205   */\n      mload\n        /* \"#utility.yul\":5183:5205   */\n      swap1\n      pop\n        /* \"#utility.yul\":5113:5212   */\n      swap2\n      swap1\n      pop\n      jump\t// out\n        /* \"#utility.yul\":5218:5387   */\n    tag_108:\n        /* \"#utility.yul\":5302:5313   */\n      0x00\n        /* \"#utility.yul\":5336:5342   */\n      dup3\n        /* \"#utility.yul\":5331:5334   */\n      dup3\n        /* \"#utility.yul\":5324:5343   */\n      mstore\n        /* \"#utility.yul\":5376:5380   */\n      0x20\n        /* \"#utility.yul\":5371:5374   */\n      dup3\n        /* \"#utility.yul\":5367:5381   */\n      add\n        /* \"#utility.yul\":5352:5381   */\n      swap1\n      pop\n        /* \"#utility.yul\":5218:5387   */\n      swap3\n      swap2\n      pop\n      pop\n      jump\t// out\n        /* \"#utility.yul\":5393:5532   */\n    tag_109:\n        /* \"#utility.yul\":5482:5488   */\n      dup3\n        /* \"#utility.yul\":5477:5480   */\n      dup2\n        /* \"#utility.yul\":5472:5475   */\n      dup4\n        /* \"#utility.yul\":5466:5489   */\n      mcopy\n        /* \"#utility.yul\":5523:5524   */\n      0x00\n        /* \"#utility.yul\":5514:5520   */\n      dup4\n        /* \"#utility.yul\":5509:5512   */\n      dup4\n        /* \"#utility.yul\":5505:5521   */\n      add\n        /* \"#utility.yul\":5498:5525   */\n      mstore\n        /* \"#utility.yul\":5393:5532   */\n      pop\n      pop\n      pop\n      jump\t// out\n        /* \"#utility.yul\":5538:5640   */\n    tag_110:\n        /* \"#utility.yul\":5579:5585   */\n      0x00\n        /* \"#utility.yul\":5630:5632   */\n      0x1f\n        /* \"#utility.yul\":5626:5633   */\n      not\n        /* \"#utility.yul\":5621:5623   */\n      0x1f\n        /* \"#utility.yul\":5614:5619   */\n      dup4\n        /* \"#utility.yul\":5610:5624   */\n      add\n        /* \"#utility.yul\":5606:5634   */\n      and\n        /* \"#utility.yul\":5596:5634   */\n      swap1\n      pop\n        /* \"#utility.yul\":5538:5640   */\n      swap2\n      swap1\n      pop\n      jump\t// out\n        /* \"#utility.yul\":5646:6023   */\n    tag_111:\n        /* \"#utility.yul\":5734:5737   */\n      0x00\n        /* \"#utility.yul\":5762:5801   */\n      tag_192\n        /* \"#utility.yul\":5795:5800   */\n      dup3\n        /* \"#utility.yul\":5762:5801   */\n      tag_107\n      jump\t// in\n    tag_192:\n        /* \"#utility.yul\":5817:5888   */\n      tag_193\n        /* \"#utility.yul\":5881:5887   */\n      dup2\n        /* \"#utility.yul\":5876:5879   */\n      dup6\n        /* \"#utility.yul\":5817:5888   */\n      tag_108\n      jump\t// in\n    tag_193:\n        /* \"#utility.yul\":5810:5888   */\n      swap4\n      pop\n        /* \"#utility.yul\":5897:5962   */\n      tag_194\n        /* \"#utility.yul\":5955:5961   */\n      dup2\n        /* \"#utility.yul\":5950:5953   */\n      dup6\n        /* \"#utility.yul\":5943:5947   */\n      0x20\n        /* \"#utility.yul\":5936:5941   */\n      dup7\n        /* \"#utility.yul\":5932:5948   */\n      add\n        /* \"#utility.yul\":5897:5962   */\n      tag_109\n      jump\t// in\n    tag_194:\n        /* \"#utility.yul\":5987:6016   */\n      tag_195\n        /* \"#utility.yul\":6009:6015   */\n      dup2\n        /* \"#utility.yul\":5987:6016   */\n      tag_110\n      jump\t// in\n    tag_195:\n        /* \"#utility.yul\":5982:5985   */\n      dup5\n        /* \"#utility.yul\":5978:6017   */\n      add\n        /* \"#utility.yul\":5971:6017   */\n      swap2\n      pop\n        /* \"#utility.yul\":5738:6023   */\n      pop\n        /* \"#utility.yul\":5646:6023   */\n      swap3\n      swap2\n      pop\n      pop\n      jump\t// out\n        /* \"#utility.yul\":6029:6342   */\n    tag_57:\n        /* \"#utility.yul\":6142:6146   */\n      0x00\n        /* \"#utility.yul\":6180:6182   */\n      0x20\n        /* \"#utility.yul\":6169:6178   */\n      dup3\n        /* \"#utility.yul\":6165:6183   */\n      add\n        /* \"#utility.yul\":6157:6183   */\n      swap1\n      pop\n        /* \"#utility.yul\":6229:6238   */\n      dup2\n        /* \"#utility.yul\":6223:6227   */\n      dup2\n        /* \"#utility.yul\":6219:6239   */\n      sub\n        /* \"#utility.yul\":6215:6216   */\n      0x00\n        /* \"#utility.yul\":6204:6213   */\n      dup4\n        /* \"#utility.yul\":6200:6217   */\n      add\n        /* \"#utility.yul\":6193:6240   */\n      mstore\n        /* \"#utility.yul\":6257:6335   */\n      tag_197\n        /* \"#utility.yul\":6330:6334   */\n      dup2\n        /* \"#utility.yul\":6321:6327   */\n      dup5\n        /* \"#utility.yul\":6257:6335   */\n      tag_111\n      jump\t// in\n    tag_197:\n        /* \"#utility.yul\":6249:6335   */\n      swap1\n      pop\n        /* \"#utility.yul\":6029:6342   */\n      swap3\n      swap2\n      pop\n      pop\n      jump\t// out\n        /* \"#utility.yul\":6348:6453   */\n    tag_112:\n        /* \"#utility.yul\":6384:6391   */\n      0x00\n        /* \"#utility.yul\":6424:6446   */\n      0xffffffffffffffffffff\n        /* \"#utility.yul\":6417:6422   */\n      dup3\n        /* \"#utility.yul\":6413:6447   */\n      and\n        /* \"#utility.yul\":6402:6447   */\n      swap1\n      pop\n        /* \"#utility.yul\":6348:6453   */\n      swap2\n      swap1\n      pop\n      jump\t// out\n        /* \"#utility.yul\":6459:6579   */\n    tag_113:\n        /* \"#utility.yul\":6531:6554   */\n      tag_200\n        /* \"#utility.yul\":6548:6553   */\n      dup2\n        /* \"#utility.yul\":6531:6554   */\n      tag_112\n      jump\t// in\n    tag_200:\n        /* \"#utility.yul\":6524:6529   */\n      dup2\n        /* \"#utility.yul\":6521:6555   */\n      eq\n        /* \"#utility.yul\":6511:6573   */\n      tag_201\n      jumpi\n        /* \"#utility.yul\":6569:6570   */\n      0x00\n        /* \"#utility.yul\":6566:6567   */\n      dup1\n        /* \"#utility.yul\":6559:6571   */\n      revert\n        /* \"#utility.yul\":6511:6573   */\n    tag_201:\n        /* \"#utility.yul\":6459:6579   */\n      pop\n      jump\t// out\n        /* \"#utility.yul\":6585:6726   */\n    tag_114:\n        /* \"#utility.yul\":6641:6646   */\n      0x00\n        /* \"#utility.yul\":6672:6678   */\n      dup2\n        /* \"#utility.yul\":6666:6679   */\n      mload\n        /* \"#utility.yul\":6657:6679   */\n      swap1\n      pop\n        /* \"#utility.yul\":6688:6720   */\n      tag_203\n        /* \"#utility.yul\":6714:6719   */\n      dup2\n        /* \"#utility.yul\":6688:6720   */\n      tag_113\n      jump\t// in\n    tag_203:\n        /* \"#utility.yul\":6585:6726   */\n      swap3\n      swap2\n      pop\n      pop\n      jump\t// out\n        /* \"#utility.yul\":6732:6808   */\n    tag_115:\n        /* \"#utility.yul\":6768:6775   */\n      0x00\n        /* \"#utility.yul\":6797:6802   */\n      dup2\n        /* \"#utility.yul\":6786:6802   */\n      swap1\n      pop\n        /* \"#utility.yul\":6732:6808   */\n      swap2\n      swap1\n      pop\n      jump\t// out\n        /* \"#utility.yul\":6814:6934   */\n    tag_116:\n        /* \"#utility.yul\":6886:6909   */\n      tag_206\n        /* \"#utility.yul\":6903:6908   */\n      dup2\n        /* \"#utility.yul\":6886:6909   */\n      tag_115\n      jump\t// in\n    tag_206:\n        /* \"#utility.yul\":6879:6884   */\n      dup2\n        /* \"#utility.yul\":6876:6910   */\n      eq\n        /* \"#utility.yul\":6866:6928   */\n      tag_207\n      jumpi\n        /* \"#utility.yul\":6924:6925   */\n      0x00\n        /* \"#utility.yul\":6921:6922   */\n      dup1\n        /* \"#utility.yul\":6914:6926   */\n      revert\n        /* \"#utility.yul\":6866:6928   */\n    tag_207:\n        /* \"#utility.yul\":6814:6934   */\n      pop\n      jump\t// out\n        /* \"#utility.yul\":6940:7081   */\n    tag_117:\n        /* \"#utility.yul\":6996:7001   */\n      0x00\n        /* \"#utility.yul\":7027:7033   */\n      dup2\n        /* \"#utility.yul\":7021:7034   */\n      mload\n        /* \"#utility.yul\":7012:7034   */\n      swap1\n      pop\n        /* \"#utility.yul\":7043:7075   */\n      tag_209\n        /* \"#utility.yul\":7069:7074   */\n      dup2\n        /* \"#utility.yul\":7043:7075   */\n      tag_116\n      jump\t// in\n    tag_209:\n        /* \"#utility.yul\":6940:7081   */\n      swap3\n      swap2\n      pop\n      pop\n      jump\t// out\n        /* \"#utility.yul\":7087:7230   */\n    tag_118:\n        /* \"#utility.yul\":7144:7149   */\n      0x00\n        /* \"#utility.yul\":7175:7181   */\n      dup2\n        /* \"#utility.yul\":7169:7182   */\n      mload\n        /* \"#utility.yul\":7160:7182   */\n      swap1\n      pop\n        /* \"#utility.yul\":7191:7224   */\n      tag_211\n        /* \"#utility.yul\":7218:7223   */\n      dup2\n        /* \"#utility.yul\":7191:7224   */\n      tag_102\n      jump\t// in\n    tag_211:\n        /* \"#utility.yul\":7087:7230   */\n      swap3\n      swap2\n      pop\n      pop\n      jump\t// out\n        /* \"#utility.yul\":7236:8207   */\n    tag_81:\n        /* \"#utility.yul\":7339:7345   */\n      0x00\n        /* \"#utility.yul\":7347:7353   */\n      dup1\n        /* \"#utility.yul\":7355:7361   */\n      0x00\n        /* \"#utility.yul\":7363:7369   */\n      dup1\n        /* \"#utility.yul\":7371:7377   */\n      0x00\n        /* \"#utility.yul\":7420:7423   */\n      0xa0\n        /* \"#utility.yul\":7408:7417   */\n      dup7\n        /* \"#utility.yul\":7399:7406   */\n      dup9\n        /* \"#utility.yul\":7395:7418   */\n      sub\n        /* \"#utility.yul\":7391:7424   */\n      slt\n        /* \"#utility.yul\":7388:7508   */\n      iszero\n      tag_213\n      jumpi\n        /* \"#utility.yul\":7427:7506   */\n      tag_214\n      tag_98\n      jump\t// in\n    tag_214:\n        /* \"#utility.yul\":7388:7508   */\n    tag_213:\n        /* \"#utility.yul\":7547:7548   */\n      0x00\n        /* \"#utility.yul\":7572:7635   */\n      tag_215\n        /* \"#utility.yul\":7627:7634   */\n      dup9\n        /* \"#utility.yul\":7618:7624   */\n      dup3\n        /* \"#utility.yul\":7607:7616   */\n      dup10\n        /* \"#utility.yul\":7603:7625   */\n      add\n        /* \"#utility.yul\":7572:7635   */\n      tag_114\n      jump\t// in\n    tag_215:\n        /* \"#utility.yul\":7562:7635   */\n      swap6\n      pop\n        /* \"#utility.yul\":7518:7645   */\n      pop\n        /* \"#utility.yul\":7684:7686   */\n      0x20\n        /* \"#utility.yul\":7710:7773   */\n      tag_216\n        /* \"#utility.yul\":7765:7772   */\n      dup9\n        /* \"#utility.yul\":7756:7762   */\n      dup3\n        /* \"#utility.yul\":7745:7754   */\n      dup10\n        /* \"#utility.yul\":7741:7763   */\n      add\n        /* \"#utility.yul\":7710:7773   */\n      tag_117\n      jump\t// in\n    tag_216:\n        /* \"#utility.yul\":7700:7773   */\n      swap5\n      pop\n        /* \"#utility.yul\":7655:7783   */\n      pop\n        /* \"#utility.yul\":7822:7824   */\n      0x40\n        /* \"#utility.yul\":7848:7912   */\n      tag_217\n        /* \"#utility.yul\":7904:7911   */\n      dup9\n        /* \"#utility.yul\":7895:7901   */\n      dup3\n        /* \"#utility.yul\":7884:7893   */\n      dup10\n        /* \"#utility.yul\":7880:7902   */\n      add\n        /* \"#utility.yul\":7848:7912   */\n      tag_118\n      jump\t// in\n    tag_217:\n        /* \"#utility.yul\":7838:7912   */\n      swap4\n      pop\n        /* \"#utility.yul\":7793:7922   */\n      pop\n        /* \"#utility.yul\":7961:7963   */\n      0x60\n        /* \"#utility.yul\":7987:8051   */\n      tag_218\n        /* \"#utility.yul\":8043:8050   */\n      dup9\n        /* \"#utility.yul\":8034:8040   */\n      dup3\n        /* \"#utility.yul\":8023:8032   */\n      dup10\n        /* \"#utility.yul\":8019:8041   */\n      add\n        /* \"#utility.yul\":7987:8051   */\n      tag_118\n      jump\t// in\n    tag_218:\n        /* \"#utility.yul\":7977:8051   */\n      swap3\n      pop\n        /* \"#utility.yul\":7932:8061   */\n      pop\n        /* \"#utility.yul\":8100:8103   */\n      0x80\n        /* \"#utility.yul\":8127:8190   */\n      tag_219\n        /* \"#utility.yul\":8182:8189   */\n      dup9\n        /* \"#utility.yul\":8173:8179   */\n      dup3\n        /* \"#utility.yul\":8162:8171   */\n      dup10\n        /* \"#utility.yul\":8158:8180   */\n      add\n        /* \"#utility.yul\":8127:8190   */\n      tag_114\n      jump\t// in\n    tag_219:\n        /* \"#utility.yul\":8117:8190   */\n      swap2\n      pop\n        /* \"#utility.yul\":8071:8200   */\n      pop\n        /* \"#utility.yul\":7236:8207   */\n      swap3\n      swap6\n      pop\n      swap3\n      swap6\n      swap1\n      swap4\n      pop\n      jump\t// out\n        /* \"#utility.yul\":8213:8393   */\n    tag_119:\n        /* \"#utility.yul\":8261:8338   */\n      0x4e487b7100000000000000000000000000000000000000000000000000000000\n        /* \"#utility.yul\":8258:8259   */\n      0x00\n        /* \"#utility.yul\":8251:8339   */\n      mstore\n        /* \"#utility.yul\":8358:8362   */\n      0x11\n        /* \"#utility.yul\":8355:8356   */\n      0x04\n        /* \"#utility.yul\":8348:8363   */\n      mstore\n        /* \"#utility.yul\":8382:8386   */\n      0x24\n        /* \"#utility.yul\":8379:8380   */\n      0x00\n        /* \"#utility.yul\":8372:8387   */\n      revert\n        /* \"#utility.yul\":8399:8593   */\n    tag_84:\n        /* \"#utility.yul\":8439:8443   */\n      0x00\n        /* \"#utility.yul\":8459:8479   */\n      tag_222\n        /* \"#utility.yul\":8477:8478   */\n      dup3\n        /* \"#utility.yul\":8459:8479   */\n      tag_95\n      jump\t// in\n    tag_222:\n        /* \"#utility.yul\":8454:8479   */\n      swap2\n      pop\n        /* \"#utility.yul\":8493:8513   */\n      tag_223\n        /* \"#utility.yul\":8511:8512   */\n      dup4\n        /* \"#utility.yul\":8493:8513   */\n      tag_95\n      jump\t// in\n    tag_223:\n        /* \"#utility.yul\":8488:8513   */\n      swap3\n      pop\n        /* \"#utility.yul\":8537:8538   */\n      dup3\n        /* \"#utility.yul\":8534:8535   */\n      dup3\n        /* \"#utility.yul\":8530:8539   */\n      sub\n        /* \"#utility.yul\":8522:8539   */\n      swap1\n      pop\n        /* \"#utility.yul\":8561:8562   */\n      dup2\n        /* \"#utility.yul\":8555:8559   */\n      dup2\n        /* \"#utility.yul\":8552:8563   */\n      gt\n        /* \"#utility.yul\":8549:8586   */\n      iszero\n      tag_224\n      jumpi\n        /* \"#utility.yul\":8566:8584   */\n      tag_225\n      tag_119\n      jump\t// in\n    tag_225:\n        /* \"#utility.yul\":8549:8586   */\n    tag_224:\n        /* \"#utility.yul\":8399:8593   */\n      swap3\n      swap2\n      pop\n      pop\n      jump\t// out\n\n    auxdata: 0xa2646970667358221220a8ecad1ff4042cba21f021ea858308b721c58942176cd8340b6f903208b4b32e64736f6c634300081a0033\n}\n",
				"bytecode": {
					"linkReferences": {},
					"object": "60a060405234801561000f575f80fd5b50604051610d4c380380610d4c83398181016040528101906100319190610190565b8273ffffffffffffffffffffffffffffffffffffffff1660808173ffffffffffffffffffffffffffffffffffffffff1681525050815f806101000a81548173ffffffffffffffffffffffffffffffffffffffff021916908373ffffffffffffffffffffffffffffffffffffffff160217905550806001819055505050506101e0565b5f80fd5b5f73ffffffffffffffffffffffffffffffffffffffff82169050919050565b5f6100e0826100b7565b9050919050565b5f6100f1826100d6565b9050919050565b610101816100e7565b811461010b575f80fd5b50565b5f8151905061011c816100f8565b92915050565b5f61012c826100d6565b9050919050565b61013c81610122565b8114610146575f80fd5b50565b5f8151905061015781610133565b92915050565b5f819050919050565b61016f8161015d565b8114610179575f80fd5b50565b5f8151905061018a81610166565b92915050565b5f805f606084860312156101a7576101a66100b3565b5b5f6101b48682870161010e565b93505060206101c586828701610149565b92505060406101d68682870161017c565b9150509250925092565b608051610b466102065f395f818161014f015281816101c001526103ba0152610b465ff3fe608060405234801561000f575f80fd5b506004361061007b575f3560e01c80637a5d20ea116100595780637a5d20ea146100d9578063dbd18388146100f7578063f0aef31c14610115578063f2f65960146101315761007b565b80630542975c1461007f57806312168dc21461009d57806349aa2e81146100bb575b5f80fd5b61008761014d565b604051610094919061072b565b60405180910390f35b6100a5610171565b6040516100b29190610764565b60405180910390f35b6100c3610198565b6040516100d09190610797565b60405180910390f35b6100e16101a6565b6040516100ee9190610797565b60405180910390f35b6100ff6101b4565b60405161010c91906107c8565b60405180910390f35b61012f600480360381019061012a919061080f565b6101bd565b005b61014b60048036038101906101469190610864565b6103b7565b005b7f000000000000000000000000000000000000000000000000000000000000000081565b5f805f9054906101000a900473ffffffffffffffffffffffffffffffffffffffff16905090565b5f6101a16105f8565b905090565b5f6101af6105f8565b905090565b5f600154905090565b5f7f000000000000000000000000000000000000000000000000000000000000000073ffffffffffffffffffffffffffffffffffffffff1663707cd7166040518163ffffffff1660e01b8152600401602060405180830381865afa158015610227573d5f803e3d5ffd5b505050506040513d601f19601f8201168201806040525081019061024b91906108a3565b90508073ffffffffffffffffffffffffffffffffffffffff16637be53ca1336040518263ffffffff1660e01b81526004016102869190610764565b602060405180830381865afa1580156102a1573d5f803e3d5ffd5b505050506040513d601f19601f820116820180604052508101906102c591906108f8565b6040518060400160405280600181526020017f31000000000000000000000000000000000000000000000000000000000000008152509061033c576040517f08c379a00000000000000000000000000000000000000000000000000000000081526004016103339190610993565b60405180910390fd5b50815f806101000a81548173ffffffffffffffffffffffffffffffffffffffff021916908373ffffffffffffffffffffffffffffffffffffffff1602179055507f95cbf1d8f44ec81ff345ed9cf2fe53b6a6473e072bf046ee412f198c54dba449826040516103ab9190610764565b60405180910390a15050565b5f7f000000000000000000000000000000000000000000000000000000000000000073ffffffffffffffffffffffffffffffffffffffff1663707cd7166040518163ffffffff1660e01b8152600401602060405180830381865afa158015610421573d5f803e3d5ffd5b505050506040513d601f19601f8201168201806040525081019061044591906108a3565b90508073ffffffffffffffffffffffffffffffffffffffff1663674b5e4d336040518263ffffffff1660e01b81526004016104809190610764565b602060405180830381865afa15801561049b573d5f803e3d5ffd5b505050506040513d601f19601f820116820180604052508101906104bf91906108f8565b8061053e57508073ffffffffffffffffffffffffffffffffffffffff16637be53ca1336040518263ffffffff1660e01b81526004016104fe9190610764565b602060405180830381865afa158015610519573d5f803e3d5ffd5b505050506040513d601f19601f8201168201806040525081019061053d91906108f8565b5b6040518060400160405280600181526020017f3400000000000000000000000000000000000000000000000000000000000000815250906105b5576040517f08c379a00000000000000000000000000000000000000000000000000000000081526004016105ac9190610993565b60405180910390fd5b50816001819055507f33d1191f5a3abfe19d468d51bb5ece97489f1277a912a5b5c65992fc279ad3d4826040516105ec91906107c8565b60405180910390a15050565b5f805f805f9054906101000a900473ffffffffffffffffffffffffffffffffffffffff1673ffffffffffffffffffffffffffffffffffffffff1663feaf968c6040518163ffffffff1660e01b815260040160a060405180830381865afa158015610664573d5f803e3d5ffd5b505050506040513d601f19601f820116820180604052508101906106889190610a39565b509350509250505f821480156106aa575060015481426106a89190610add565b115b9250505090565b5f73ffffffffffffffffffffffffffffffffffffffff82169050919050565b5f819050919050565b5f6106f36106ee6106e9846106b1565b6106d0565b6106b1565b9050919050565b5f610704826106d9565b9050919050565b5f610715826106fa565b9050919050565b6107258161070b565b82525050565b5f60208201905061073e5f83018461071c565b92915050565b5f61074e826106b1565b9050919050565b61075e81610744565b82525050565b5f6020820190506107775f830184610755565b92915050565b5f8115159050919050565b6107918161077d565b82525050565b5f6020820190506107aa5f830184610788565b92915050565b5f819050919050565b6107c2816107b0565b82525050565b5f6020820190506107db5f8301846107b9565b92915050565b5f80fd5b6107ee81610744565b81146107f8575f80fd5b50565b5f81359050610809816107e5565b92915050565b5f60208284031215610824576108236107e1565b5b5f610831848285016107fb565b91505092915050565b610843816107b0565b811461084d575f80fd5b50565b5f8135905061085e8161083a565b92915050565b5f60208284031215610879576108786107e1565b5b5f61088684828501610850565b91505092915050565b5f8151905061089d816107e5565b92915050565b5f602082840312156108b8576108b76107e1565b5b5f6108c58482850161088f565b91505092915050565b6108d78161077d565b81146108e1575f80fd5b50565b5f815190506108f2816108ce565b92915050565b5f6020828403121561090d5761090c6107e1565b5b5f61091a848285016108e4565b91505092915050565b5f81519050919050565b5f82825260208201905092915050565b8281835e5f83830152505050565b5f601f19601f8301169050919050565b5f61096582610923565b61096f818561092d565b935061097f81856020860161093d565b6109888161094b565b840191505092915050565b5f6020820190508181035f8301526109ab818461095b565b905092915050565b5f69ffffffffffffffffffff82169050919050565b6109d1816109b3565b81146109db575f80fd5b50565b5f815190506109ec816109c8565b92915050565b5f819050919050565b610a04816109f2565b8114610a0e575f80fd5b50565b5f81519050610a1f816109fb565b92915050565b5f81519050610a338161083a565b92915050565b5f805f805f60a08688031215610a5257610a516107e1565b5b5f610a5f888289016109de565b9550506020610a7088828901610a11565b9450506040610a8188828901610a25565b9350506060610a9288828901610a25565b9250506080610aa3888289016109de565b9150509295509295909350565b7f4e487b71000000000000000000000000000000000000000000000000000000005f52601160045260245ffd5b5f610ae7826107b0565b9150610af2836107b0565b9250828203905081811115610b0a57610b09610ab0565b5b9291505056fea2646970667358221220a8ecad1ff4042cba21f021ea858308b721c58942176cd8340b6f903208b4b32e64736f6c634300081a0033",
					"opcodes": "PUSH1 0xA0 PUSH1 0x40 MSTORE CALLVALUE DUP1 ISZERO PUSH2 0xF JUMPI PUSH0 DUP1 REVERT JUMPDEST POP PUSH1 0x40 MLOAD PUSH2 0xD4C CODESIZE SUB DUP1 PUSH2 0xD4C DUP4 CODECOPY DUP2 DUP2 ADD PUSH1 0x40 MSTORE DUP2 ADD SWAP1 PUSH2 0x31 SWAP2 SWAP1 PUSH2 0x190 JUMP JUMPDEST DUP3 PUSH20 0xFFFFFFFFFFFFFFFFFFFFFFFFFFFFFFFFFFFFFFFF AND PUSH1 0x80 DUP2 PUSH20 0xFFFFFFFFFFFFFFFFFFFFFFFFFFFFFFFFFFFFFFFF AND DUP2 MSTORE POP POP DUP2 PUSH0 DUP1 PUSH2 0x100 EXP DUP2 SLOAD DUP2 PUSH20 0xFFFFFFFFFFFFFFFFFFFFFFFFFFFFFFFFFFFFFFFF MUL NOT AND SWAP1 DUP4 PUSH20 0xFFFFFFFFFFFFFFFFFFFFFFFFFFFFFFFFFFFFFFFF AND MUL OR SWAP1 SSTORE POP DUP1 PUSH1 0x1 DUP2 SWAP1 SSTORE POP POP POP POP PUSH2 0x1E0 JUMP JUMPDEST PUSH0 DUP1 REVERT JUMPDEST PUSH0 PUSH20 0xFFFFFFFFFFFFFFFFFFFFFFFFFFFFFFFFFFFFFFFF DUP3 AND SWAP1 POP SWAP2 SWAP1 POP JUMP JUMPDEST PUSH0 PUSH2 0xE0 DUP3 PUSH2 0xB7 JUMP JUMPDEST SWAP1 POP SWAP2 SWAP1 POP JUMP JUMPDEST PUSH0 PUSH2 0xF1 DUP3 PUSH2 0xD6 JUMP JUMPDEST SWAP1 POP SWAP2 SWAP1 POP JUMP JUMPDEST PUSH2 0x101 DUP2 PUSH2 0xE7 JUMP JUMPDEST DUP2 EQ PUSH2 0x10B JUMPI PUSH0 DUP1 REVERT JUMPDEST POP JUMP JUMPDEST PUSH0 DUP2 MLOAD SWAP1 POP PUSH2 0x11C DUP2 PUSH2 0xF8 JUMP JUMPDEST SWAP3 SWAP2 POP POP JUMP JUMPDEST PUSH0 PUSH2 0x12C DUP3 PUSH2 0xD6 JUMP JUMPDEST SWAP1 POP SWAP2 SWAP1 POP JUMP JUMPDEST PUSH2 0x13C DUP2 PUSH2 0x122 JUMP JUMPDEST DUP2 EQ PUSH2 0x146 JUMPI PUSH0 DUP1 REVERT JUMPDEST POP JUMP JUMPDEST PUSH0 DUP2 MLOAD SWAP1 POP PUSH2 0x157 DUP2 PUSH2 0x133 JUMP JUMPDEST SWAP3 SWAP2 POP POP JUMP JUMPDEST PUSH0 DUP2 SWAP1 POP SWAP2 SWAP1 POP JUMP JUMPDEST PUSH2 0x16F DUP2 PUSH2 0x15D JUMP JUMPDEST DUP2 EQ PUSH2 0x179 JUMPI PUSH0 DUP1 REVERT JUMPDEST POP JUMP JUMPDEST PUSH0 DUP2 MLOAD SWAP1 POP PUSH2 0x18A DUP2 PUSH2 0x166 JUMP JUMPDEST SWAP3 SWAP2 POP POP JUMP JUMPDEST PUSH0 DUP1 PUSH0 PUSH1 0x60 DUP5 DUP7 SUB SLT ISZERO PUSH2 0x1A7 JUMPI PUSH2 0x1A6 PUSH2 0xB3 JUMP JUMPDEST JUMPDEST PUSH0 PUSH2 0x1B4 DUP7 DUP3 DUP8 ADD PUSH2 0x10E JUMP JUMPDEST SWAP4 POP POP PUSH1 0x20 PUSH2 0x1C5 DUP7 DUP3 DUP8 ADD PUSH2 0x149 JUMP JUMPDEST SWAP3 POP POP PUSH1 0x40 PUSH2 0x1D6 DUP7 DUP3 DUP8 ADD PUSH2 0x17C JUMP JUMPDEST SWAP2 POP POP SWAP3 POP SWAP3 POP SWAP3 JUMP JUMPDEST PUSH1 0x80 MLOAD PUSH2 0xB46 PUSH2 0x206 PUSH0 CODECOPY PUSH0 DUP2 DUP2 PUSH2 0x14F ADD MSTORE DUP2 DUP2 PUSH2 0x1C0 ADD MSTORE PUSH2 0x3BA ADD MSTORE PUSH2 0xB46 PUSH0 RETURN INVALID PUSH1 0x80 PUSH1 0x40 MSTORE CALLVALUE DUP1 ISZERO PUSH2 0xF JUMPI PUSH0 DUP1 REVERT JUMPDEST POP PUSH1 0x4 CALLDATASIZE LT PUSH2 0x7B JUMPI PUSH0 CALLDATALOAD PUSH1 0xE0 SHR DUP1 PUSH4 0x7A5D20EA GT PUSH2 0x59 JUMPI DUP1 PUSH4 0x7A5D20EA EQ PUSH2 0xD9 JUMPI DUP1 PUSH4 0xDBD18388 EQ PUSH2 0xF7 JUMPI DUP1 PUSH4 0xF0AEF31C EQ PUSH2 0x115 JUMPI DUP1 PUSH4 0xF2F65960 EQ PUSH2 0x131 JUMPI PUSH2 0x7B JUMP JUMPDEST DUP1 PUSH4 0x542975C EQ PUSH2 0x7F JUMPI DUP1 PUSH4 0x12168DC2 EQ PUSH2 0x9D JUMPI DUP1 PUSH4 0x49AA2E81 EQ PUSH2 0xBB JUMPI JUMPDEST PUSH0 DUP1 REVERT JUMPDEST PUSH2 0x87 PUSH2 0x14D JUMP JUMPDEST PUSH1 0x40 MLOAD PUSH2 0x94 SWAP2 SWAP1 PUSH2 0x72B JUMP JUMPDEST PUSH1 0x40 MLOAD DUP1 SWAP2 SUB SWAP1 RETURN JUMPDEST PUSH2 0xA5 PUSH2 0x171 JUMP JUMPDEST PUSH1 0x40 MLOAD PUSH2 0xB2 SWAP2 SWAP1 PUSH2 0x764 JUMP JUMPDEST PUSH1 0x40 MLOAD DUP1 SWAP2 SUB SWAP1 RETURN JUMPDEST PUSH2 0xC3 PUSH2 0x198 JUMP JUMPDEST PUSH1 0x40 MLOAD PUSH2 0xD0 SWAP2 SWAP1 PUSH2 0x797 JUMP JUMPDEST PUSH1 0x40 MLOAD DUP1 SWAP2 SUB SWAP1 RETURN JUMPDEST PUSH2 0xE1 PUSH2 0x1A6 JUMP JUMPDEST PUSH1 0x40 MLOAD PUSH2 0xEE SWAP2 SWAP1 PUSH2 0x797 JUMP JUMPDEST PUSH1 0x40 MLOAD DUP1 SWAP2 SUB SWAP1 RETURN JUMPDEST PUSH2 0xFF PUSH2 0x1B4 JUMP JUMPDEST PUSH1 0x40 MLOAD PUSH2 0x10C SWAP2 SWAP1 PUSH2 0x7C8 JUMP JUMPDEST PUSH1 0x40 MLOAD DUP1 SWAP2 SUB SWAP1 RETURN JUMPDEST PUSH2 0x12F PUSH1 0x4 DUP1 CALLDATASIZE SUB DUP2 ADD SWAP1 PUSH2 0x12A SWAP2 SWAP1 PUSH2 0x80F JUMP JUMPDEST PUSH2 0x1BD JUMP JUMPDEST STOP JUMPDEST PUSH2 0x14B PUSH1 0x4 DUP1 CALLDATASIZE SUB DUP2 ADD SWAP1 PUSH2 0x146 SWAP2 SWAP1 PUSH2 0x864 JUMP JUMPDEST PUSH2 0x3B7 JUMP JUMPDEST STOP JUMPDEST PUSH32 0x0 DUP2 JUMP JUMPDEST PUSH0 DUP1 PUSH0 SWAP1 SLOAD SWAP1 PUSH2 0x100 EXP SWAP1 DIV PUSH20 0xFFFFFFFFFFFFFFFFFFFFFFFFFFFFFFFFFFFFFFFF AND SWAP1 POP SWAP1 JUMP JUMPDEST PUSH0 PUSH2 0x1A1 PUSH2 0x5F8 JUMP JUMPDEST SWAP1 POP SWAP1 JUMP JUMPDEST PUSH0 PUSH2 0x1AF PUSH2 0x5F8 JUMP JUMPDEST SWAP1 POP SWAP1 JUMP JUMPDEST PUSH0 PUSH1 0x1 SLOAD SWAP1 POP SWAP1 JUMP JUMPDEST PUSH0 PUSH32 0x0 PUSH20 0xFFFFFFFFFFFFFFFFFFFFFFFFFFFFFFFFFFFFFFFF AND PUSH4 0x707CD716 PUSH1 0x40 MLOAD DUP2 PUSH4 0xFFFFFFFF AND PUSH1 0xE0 SHL DUP2 MSTORE PUSH1 0x4 ADD PUSH1 0x20 PUSH1 0x40 MLOAD DUP1 DUP4 SUB DUP2 DUP7 GAS STATICCALL ISZERO DUP1 ISZERO PUSH2 0x227 JUMPI RETURNDATASIZE PUSH0 DUP1 RETURNDATACOPY RETURNDATASIZE PUSH0 REVERT JUMPDEST POP POP POP POP PUSH1 0x40 MLOAD RETURNDATASIZE PUSH1 0x1F NOT PUSH1 0x1F DUP3 ADD AND DUP3 ADD DUP1 PUSH1 0x40 MSTORE POP DUP2 ADD SWAP1 PUSH2 0x24B SWAP2 SWAP1 PUSH2 0x8A3 JUMP JUMPDEST SWAP1 POP DUP1 PUSH20 0xFFFFFFFFFFFFFFFFFFFFFFFFFFFFFFFFFFFFFFFF AND PUSH4 0x7BE53CA1 CALLER PUSH1 0x40 MLOAD DUP3 PUSH4 0xFFFFFFFF AND PUSH1 0xE0 SHL DUP2 MSTORE PUSH1 0x4 ADD PUSH2 0x286 SWAP2 SWAP1 PUSH2 0x764 JUMP JUMPDEST PUSH1 0x20 PUSH1 0x40 MLOAD DUP1 DUP4 SUB DUP2 DUP7 GAS STATICCALL ISZERO DUP1 ISZERO PUSH2 0x2A1 JUMPI RETURNDATASIZE PUSH0 DUP1 RETURNDATACOPY RETURNDATASIZE PUSH0 REVERT JUMPDEST POP POP POP POP PUSH1 0x40 MLOAD RETURNDATASIZE PUSH1 0x1F NOT PUSH1 0x1F DUP3 ADD AND DUP3 ADD DUP1 PUSH1 0x40 MSTORE POP DUP2 ADD SWAP1 PUSH2 0x2C5 SWAP2 SWAP1 PUSH2 0x8F8 JUMP JUMPDEST PUSH1 0x40 MLOAD DUP1 PUSH1 0x40 ADD PUSH1 0x40 MSTORE DUP1 PUSH1 0x1 DUP2 MSTORE PUSH1 0x20 ADD PUSH32 0x3100000000000000000000000000000000000000000000000000000000000000 DUP2 MSTORE POP SWAP1 PUSH2 0x33C JUMPI PUSH1 0x40 MLOAD PUSH32 0x8C379A000000000000000000000000000000000000000000000000000000000 DUP2 MSTORE PUSH1 0x4 ADD PUSH2 0x333 SWAP2 SWAP1 PUSH2 0x993 JUMP JUMPDEST PUSH1 0x40 MLOAD DUP1 SWAP2 SUB SWAP1 REVERT JUMPDEST POP DUP2 PUSH0 DUP1 PUSH2 0x100 EXP DUP2 SLOAD DUP2 PUSH20 0xFFFFFFFFFFFFFFFFFFFFFFFFFFFFFFFFFFFFFFFF MUL NOT AND SWAP1 DUP4 PUSH20 0xFFFFFFFFFFFFFFFFFFFFFFFFFFFFFFFFFFFFFFFF AND MUL OR SWAP1 SSTORE POP PUSH32 0x95CBF1D8F44EC81FF345ED9CF2FE53B6A6473E072BF046EE412F198C54DBA449 DUP3 PUSH1 0x40 MLOAD PUSH2 0x3AB SWAP2 SWAP1 PUSH2 0x764 JUMP JUMPDEST PUSH1 0x40 MLOAD DUP1 SWAP2 SUB SWAP1 LOG1 POP POP JUMP JUMPDEST PUSH0 PUSH32 0x0 PUSH20 0xFFFFFFFFFFFFFFFFFFFFFFFFFFFFFFFFFFFFFFFF AND PUSH4 0x707CD716 PUSH1 0x40 MLOAD DUP2 PUSH4 0xFFFFFFFF AND PUSH1 0xE0 SHL DUP2 MSTORE PUSH1 0x4 ADD PUSH1 0x20 PUSH1 0x40 MLOAD DUP1 DUP4 SUB DUP2 DUP7 GAS STATICCALL ISZERO DUP1 ISZERO PUSH2 0x421 JUMPI RETURNDATASIZE PUSH0 DUP1 RETURNDATACOPY RETURNDATASIZE PUSH0 REVERT JUMPDEST POP POP POP POP PUSH1 0x40 MLOAD RETURNDATASIZE PUSH1 0x1F NOT PUSH1 0x1F DUP3 ADD AND DUP3 ADD DUP1 PUSH1 0x40 MSTORE POP DUP2 ADD SWAP1 PUSH2 0x445 SWAP2 SWAP1 PUSH2 0x8A3 JUMP JUMPDEST SWAP1 POP DUP1 PUSH20 0xFFFFFFFFFFFFFFFFFFFFFFFFFFFFFFFFFFFFFFFF AND PUSH4 0x674B5E4D CALLER PUSH1 0x40 MLOAD DUP3 PUSH4 0xFFFFFFFF AND PUSH1 0xE0 SHL DUP2 MSTORE PUSH1 0x4 ADD PUSH2 0x480 SWAP2 SWAP1 PUSH2 0x764 JUMP JUMPDEST PUSH1 0x20 PUSH1 0x40 MLOAD DUP1 DUP4 SUB DUP2 DUP7 GAS STATICCALL ISZERO DUP1 ISZERO PUSH2 0x49B JUMPI RETURNDATASIZE PUSH0 DUP1 RETURNDATACOPY RETURNDATASIZE PUSH0 REVERT JUMPDEST POP POP POP POP PUSH1 0x40 MLOAD RETURNDATASIZE PUSH1 0x1F NOT PUSH1 0x1F DUP3 ADD AND DUP3 ADD DUP1 PUSH1 0x40 MSTORE POP DUP2 ADD SWAP1 PUSH2 0x4BF SWAP2 SWAP1 PUSH2 0x8F8 JUMP JUMPDEST DUP1 PUSH2 0x53E JUMPI POP DUP1 PUSH20 0xFFFFFFFFFFFFFFFFFFFFFFFFFFFFFFFFFFFFFFFF AND PUSH4 0x7BE53CA1 CALLER PUSH1 0x40 MLOAD DUP3 PUSH4 0xFFFFFFFF AND PUSH1 0xE0 SHL DUP2 MSTORE PUSH1 0x4 ADD PUSH2 0x4FE SWAP2 SWAP1 PUSH2 0x764 JUMP JUMPDEST PUSH1 0x20 PUSH1 0x40 MLOAD DUP1 DUP4 SUB DUP2 DUP7 GAS STATICCALL ISZERO DUP1 ISZERO PUSH2 0x519 JUMPI RETURNDATASIZE PUSH0 DUP1 RETURNDATACOPY RETURNDATASIZE PUSH0 REVERT JUMPDEST POP POP POP POP PUSH1 0x40 MLOAD RETURNDATASIZE PUSH1 0x1F NOT PUSH1 0x1F DUP3 ADD AND DUP3 ADD DUP1 PUSH1 0x40 MSTORE POP DUP2 ADD SWAP1 PUSH2 0x53D SWAP2 SWAP1 PUSH2 0x8F8 JUMP JUMPDEST JUMPDEST PUSH1 0x40 MLOAD DUP1 PUSH1 0x40 ADD PUSH1 0x40 MSTORE DUP1 PUSH1 0x1 DUP2 MSTORE PUSH1 0x20 ADD PUSH32 0x3400000000000000000000000000000000000000000000000000000000000000 DUP2 MSTORE POP SWAP1 PUSH2 0x5B5 JUMPI PUSH1 0x40 MLOAD PUSH32 0x8C379A000000000000000000000000000000000000000000000000000000000 DUP2 MSTORE PUSH1 0x4 ADD PUSH2 0x5AC SWAP2 SWAP1 PUSH2 0x993 JUMP JUMPDEST PUSH1 0x40 MLOAD DUP1 SWAP2 SUB SWAP1 REVERT JUMPDEST POP DUP2 PUSH1 0x1 DUP2 SWAP1 SSTORE POP PUSH32 0x33D1191F5A3ABFE19D468D51BB5ECE97489F1277A912A5B5C65992FC279AD3D4 DUP3 PUSH1 0x40 MLOAD PUSH2 0x5EC SWAP2 SWAP1 PUSH2 0x7C8 JUMP JUMPDEST PUSH1 0x40 MLOAD DUP1 SWAP2 SUB SWAP1 LOG1 POP POP JUMP JUMPDEST PUSH0 DUP1 PUSH0 DUP1 PUSH0 SWAP1 SLOAD SWAP1 PUSH2 0x100 EXP SWAP1 DIV PUSH20 0xFFFFFFFFFFFFFFFFFFFFFFFFFFFFFFFFFFFFFFFF AND PUSH20 0xFFFFFFFFFFFFFFFFFFFFFFFFFFFFFFFFFFFFFFFF AND PUSH4 0xFEAF968C PUSH1 0x40 MLOAD DUP2 PUSH4 0xFFFFFFFF AND PUSH1 0xE0 SHL DUP2 MSTORE PUSH1 0x4 ADD PUSH1 0xA0 PUSH1 0x40 MLOAD DUP1 DUP4 SUB DUP2 DUP7 GAS STATICCALL ISZERO DUP1 ISZERO PUSH2 0x664 JUMPI RETURNDATASIZE PUSH0 DUP1 RETURNDATACOPY RETURNDATASIZE PUSH0 REVERT JUMPDEST POP POP POP POP PUSH1 0x40 MLOAD RETURNDATASIZE PUSH1 0x1F NOT PUSH1 0x1F DUP3 ADD AND DUP3 ADD DUP1 PUSH1 0x40 MSTORE POP DUP2 ADD SWAP1 PUSH2 0x688 SWAP2 SWAP1 PUSH2 0xA39 JUMP JUMPDEST POP SWAP4 POP POP SWAP3 POP POP PUSH0 DUP3 EQ DUP1 ISZERO PUSH2 0x6AA JUMPI POP PUSH1 0x1 SLOAD DUP2 TIMESTAMP PUSH2 0x6A8 SWAP2 SWAP1 PUSH2 0xADD JUMP JUMPDEST GT JUMPDEST SWAP3 POP POP POP SWAP1 JUMP JUMPDEST PUSH0 PUSH20 0xFFFFFFFFFFFFFFFFFFFFFFFFFFFFFFFFFFFFFFFF DUP3 AND SWAP1 POP SWAP2 SWAP1 POP JUMP JUMPDEST PUSH0 DUP2 SWAP1 POP SWAP2 SWAP1 POP JUMP JUMPDEST PUSH0 PUSH2 0x6F3 PUSH2 0x6EE PUSH2 0x6E9 DUP5 PUSH2 0x6B1 JUMP JUMPDEST PUSH2 0x6D0 JUMP JUMPDEST PUSH2 0x6B1 JUMP JUMPDEST SWAP1 POP SWAP2 SWAP1 POP JUMP JUMPDEST PUSH0 PUSH2 0x704 DUP3 PUSH2 0x6D9 JUMP JUMPDEST SWAP1 POP SWAP2 SWAP1 POP JUMP JUMPDEST PUSH0 PUSH2 0x715 DUP3 PUSH2 0x6FA JUMP JUMPDEST SWAP1 POP SWAP2 SWAP1 POP JUMP JUMPDEST PUSH2 0x725 DUP2 PUSH2 0x70B JUMP JUMPDEST DUP3 MSTORE POP POP JUMP JUMPDEST PUSH0 PUSH1 0x20 DUP3 ADD SWAP1 POP PUSH2 0x73E PUSH0 DUP4 ADD DUP5 PUSH2 0x71C JUMP JUMPDEST SWAP3 SWAP2 POP POP JUMP JUMPDEST PUSH0 PUSH2 0x74E DUP3 PUSH2 0x6B1 JUMP JUMPDEST SWAP1 POP SWAP2 SWAP1 POP JUMP JUMPDEST PUSH2 0x75E DUP2 PUSH2 0x744 JUMP JUMPDEST DUP3 MSTORE POP POP JUMP JUMPDEST PUSH0 PUSH1 0x20 DUP3 ADD SWAP1 POP PUSH2 0x777 PUSH0 DUP4 ADD DUP5 PUSH2 0x755 JUMP JUMPDEST SWAP3 SWAP2 POP POP JUMP JUMPDEST PUSH0 DUP2 ISZERO ISZERO SWAP1 POP SWAP2 SWAP1 POP JUMP JUMPDEST PUSH2 0x791 DUP2 PUSH2 0x77D JUMP JUMPDEST DUP3 MSTORE POP POP JUMP JUMPDEST PUSH0 PUSH1 0x20 DUP3 ADD SWAP1 POP PUSH2 0x7AA PUSH0 DUP4 ADD DUP5 PUSH2 0x788 JUMP JUMPDEST SWAP3 SWAP2 POP POP JUMP JUMPDEST PUSH0 DUP2 SWAP1 POP SWAP2 SWAP1 POP JUMP JUMPDEST PUSH2 0x7C2 DUP2 PUSH2 0x7B0 JUMP JUMPDEST DUP3 MSTORE POP POP JUMP JUMPDEST PUSH0 PUSH1 0x20 DUP3 ADD SWAP1 POP PUSH2 0x7DB PUSH0 DUP4 ADD DUP5 PUSH2 0x7B9 JUMP JUMPDEST SWAP3 SWAP2 POP POP JUMP JUMPDEST PUSH0 DUP1 REVERT JUMPDEST PUSH2 0x7EE DUP2 PUSH2 0x744 JUMP JUMPDEST DUP2 EQ PUSH2 0x7F8 JUMPI PUSH0 DUP1 REVERT JUMPDEST POP JUMP JUMPDEST PUSH0 DUP2 CALLDATALOAD SWAP1 POP PUSH2 0x809 DUP2 PUSH2 0x7E5 JUMP JUMPDEST SWAP3 SWAP2 POP POP JUMP JUMPDEST PUSH0 PUSH1 0x20 DUP3 DUP5 SUB SLT ISZERO PUSH2 0x824 JUMPI PUSH2 0x823 PUSH2 0x7E1 JUMP JUMPDEST JUMPDEST PUSH0 PUSH2 0x831 DUP5 DUP3 DUP6 ADD PUSH2 0x7FB JUMP JUMPDEST SWAP2 POP POP SWAP3 SWAP2 POP POP JUMP JUMPDEST PUSH2 0x843 DUP2 PUSH2 0x7B0 JUMP JUMPDEST DUP2 EQ PUSH2 0x84D JUMPI PUSH0 DUP1 REVERT JUMPDEST POP JUMP JUMPDEST PUSH0 DUP2 CALLDATALOAD SWAP1 POP PUSH2 0x85E DUP2 PUSH2 0x83A JUMP JUMPDEST SWAP3 SWAP2 POP POP JUMP JUMPDEST PUSH0 PUSH1 0x20 DUP3 DUP5 SUB SLT ISZERO PUSH2 0x879 JUMPI PUSH2 0x878 PUSH2 0x7E1 JUMP JUMPDEST JUMPDEST PUSH0 PUSH2 0x886 DUP5 DUP3 DUP6 ADD PUSH2 0x850 JUMP JUMPDEST SWAP2 POP POP SWAP3 SWAP2 POP POP JUMP JUMPDEST PUSH0 DUP2 MLOAD SWAP1 POP PUSH2 0x89D DUP2 PUSH2 0x7E5 JUMP JUMPDEST SWAP3 SWAP2 POP POP JUMP JUMPDEST PUSH0 PUSH1 0x20 DUP3 DUP5 SUB SLT ISZERO PUSH2 0x8B8 JUMPI PUSH2 0x8B7 PUSH2 0x7E1 JUMP JUMPDEST JUMPDEST PUSH0 PUSH2 0x8C5 DUP5 DUP3 DUP6 ADD PUSH2 0x88F JUMP JUMPDEST SWAP2 POP POP SWAP3 SWAP2 POP POP JUMP JUMPDEST PUSH2 0x8D7 DUP2 PUSH2 0x77D JUMP JUMPDEST DUP2 EQ PUSH2 0x8E1 JUMPI PUSH0 DUP1 REVERT JUMPDEST POP JUMP JUMPDEST PUSH0 DUP2 MLOAD SWAP1 POP PUSH2 0x8F2 DUP2 PUSH2 0x8CE JUMP JUMPDEST SWAP3 SWAP2 POP POP JUMP JUMPDEST PUSH0 PUSH1 0x20 DUP3 DUP5 SUB SLT ISZERO PUSH2 0x90D JUMPI PUSH2 0x90C PUSH2 0x7E1 JUMP JUMPDEST JUMPDEST PUSH0 PUSH2 0x91A DUP5 DUP3 DUP6 ADD PUSH2 0x8E4 JUMP JUMPDEST SWAP2 POP POP SWAP3 SWAP2 POP POP JUMP JUMPDEST PUSH0 DUP2 MLOAD SWAP1 POP SWAP2 SWAP1 POP JUMP JUMPDEST PUSH0 DUP3 DUP3 MSTORE PUSH1 0x20 DUP3 ADD SWAP1 POP SWAP3 SWAP2 POP POP JUMP JUMPDEST DUP3 DUP2 DUP4 MCOPY PUSH0 DUP4 DUP4 ADD MSTORE POP POP POP JUMP JUMPDEST PUSH0 PUSH1 0x1F NOT PUSH1 0x1F DUP4 ADD AND SWAP1 POP SWAP2 SWAP1 POP JUMP JUMPDEST PUSH0 PUSH2 0x965 DUP3 PUSH2 0x923 JUMP JUMPDEST PUSH2 0x96F DUP2 DUP6 PUSH2 0x92D JUMP JUMPDEST SWAP4 POP PUSH2 0x97F DUP2 DUP6 PUSH1 0x20 DUP7 ADD PUSH2 0x93D JUMP JUMPDEST PUSH2 0x988 DUP2 PUSH2 0x94B JUMP JUMPDEST DUP5 ADD SWAP2 POP POP SWAP3 SWAP2 POP POP JUMP JUMPDEST PUSH0 PUSH1 0x20 DUP3 ADD SWAP1 POP DUP2 DUP2 SUB PUSH0 DUP4 ADD MSTORE PUSH2 0x9AB DUP2 DUP5 PUSH2 0x95B JUMP JUMPDEST SWAP1 POP SWAP3 SWAP2 POP POP JUMP JUMPDEST PUSH0 PUSH10 0xFFFFFFFFFFFFFFFFFFFF DUP3 AND SWAP1 POP SWAP2 SWAP1 POP JUMP JUMPDEST PUSH2 0x9D1 DUP2 PUSH2 0x9B3 JUMP JUMPDEST DUP2 EQ PUSH2 0x9DB JUMPI PUSH0 DUP1 REVERT JUMPDEST POP JUMP JUMPDEST PUSH0 DUP2 MLOAD SWAP1 POP PUSH2 0x9EC DUP2 PUSH2 0x9C8 JUMP JUMPDEST SWAP3 SWAP2 POP POP JUMP JUMPDEST PUSH0 DUP2 SWAP1 POP SWAP2 SWAP1 POP JUMP JUMPDEST PUSH2 0xA04 DUP2 PUSH2 0x9F2 JUMP JUMPDEST DUP2 EQ PUSH2 0xA0E JUMPI PUSH0 DUP1 REVERT JUMPDEST POP JUMP JUMPDEST PUSH0 DUP2 MLOAD SWAP1 POP PUSH2 0xA1F DUP2 PUSH2 0x9FB JUMP JUMPDEST SWAP3 SWAP2 POP POP JUMP JUMPDEST PUSH0 DUP2 MLOAD SWAP1 POP PUSH2 0xA33 DUP2 PUSH2 0x83A JUMP JUMPDEST SWAP3 SWAP2 POP POP JUMP JUMPDEST PUSH0 DUP1 PUSH0 DUP1 PUSH0 PUSH1 0xA0 DUP7 DUP9 SUB SLT ISZERO PUSH2 0xA52 JUMPI PUSH2 0xA51 PUSH2 0x7E1 JUMP JUMPDEST JUMPDEST PUSH0 PUSH2 0xA5F DUP9 DUP3 DUP10 ADD PUSH2 0x9DE JUMP JUMPDEST SWAP6 POP POP PUSH1 0x20 PUSH2 0xA70 DUP9 DUP3 DUP10 ADD PUSH2 0xA11 JUMP JUMPDEST SWAP5 POP POP PUSH1 0x40 PUSH2 0xA81 DUP9 DUP3 DUP10 ADD PUSH2 0xA25 JUMP JUMPDEST SWAP4 POP POP PUSH1 0x60 PUSH2 0xA92 DUP9 DUP3 DUP10 ADD PUSH2 0xA25 JUMP JUMPDEST SWAP3 POP POP PUSH1 0x80 PUSH2 0xAA3 DUP9 DUP3 DUP10 ADD PUSH2 0x9DE JUMP JUMPDEST SWAP2 POP POP SWAP3 SWAP6 POP SWAP3 SWAP6 SWAP1 SWAP4 POP JUMP JUMPDEST PUSH32 0x4E487B7100000000000000000000000000000000000000000000000000000000 PUSH0 MSTORE PUSH1 0x11 PUSH1 0x4 MSTORE PUSH1 0x24 PUSH0 REVERT JUMPDEST PUSH0 PUSH2 0xAE7 DUP3 PUSH2 0x7B0 JUMP JUMPDEST SWAP2 POP PUSH2 0xAF2 DUP4 PUSH2 0x7B0 JUMP JUMPDEST SWAP3 POP DUP3 DUP3 SUB SWAP1 POP DUP2 DUP2 GT ISZERO PUSH2 0xB0A JUMPI PUSH2 0xB09 PUSH2 0xAB0 JUMP JUMPDEST JUMPDEST SWAP3 SWAP2 POP POP JUMP INVALID LOG2 PUSH5 0x6970667358 0x22 SLT KECCAK256 0xA8 0xEC 0xAD 0x1F DELEGATECALL DIV 0x2C 0xBA 0x21 CREATE 0x21 0xEA DUP6 DUP4 ADDMOD 0xB7 0x21 0xC5 DUP10 TIMESTAMP OR PUSH13 0xD8340B6F903208B4B32E64736F PUSH13 0x634300081A0033000000000000 "
				},
				"gasEstimates": {
					"creation": {
						"codeDepositCost": "577200",
						"executionCost": "infinite",
						"totalCost": "infinite"
					},
					"external": {
						"ADDRESSES_PROVIDER()": "infinite",
						"getGracePeriod()": "2454",
						"getSequencerOracle()": "2538",
						"isBorrowAllowed()": "infinite",
						"isLiquidationAllowed()": "infinite",
						"setGracePeriod(uint256)": "infinite",
						"setSequencerOracle(address)": "infinite"
					},
					"internal": {
						"_isUpAndGracePeriodPassed()": "infinite"
					}
				},
				"methodIdentifiers": {
					"ADDRESSES_PROVIDER()": "0542975c",
					"getGracePeriod()": "dbd18388",
					"getSequencerOracle()": "12168dc2",
					"isBorrowAllowed()": "49aa2e81",
					"isLiquidationAllowed()": "7a5d20ea",
					"setGracePeriod(uint256)": "f2f65960",
					"setSequencerOracle(address)": "f0aef31c"
				}
			},
			"storageLayout": {
				"storage": [
					{
						"astId": 538,
						"contract": "contracts/protocol/configuration/PriceOracleSentinel.sol:PriceOracleSentinel",
						"label": "_sequencerOracle",
						"offset": 0,
						"slot": "0",
						"type": "t_contract(ISequencerOracle)462"
					},
					{
						"astId": 540,
						"contract": "contracts/protocol/configuration/PriceOracleSentinel.sol:PriceOracleSentinel",
						"label": "_gracePeriod",
						"offset": 0,
						"slot": "1",
						"type": "t_uint256"
					}
				],
				"types": {
					"t_contract(ISequencerOracle)462": {
						"encoding": "inplace",
						"label": "contract ISequencerOracle",
						"numberOfBytes": "20"
					},
					"t_uint256": {
						"encoding": "inplace",
						"label": "uint256",
						"numberOfBytes": "32"
					}
				}
			},
			"userdoc": {
				"kind": "user",
				"methods": {
					"ADDRESSES_PROVIDER()": {
						"notice": "Returns the PoolAddressesProvider"
					},
					"getGracePeriod()": {
						"notice": "Returns the grace period"
					},
					"getSequencerOracle()": {
						"notice": "Returns the SequencerOracle"
					},
					"isBorrowAllowed()": {
						"notice": "Returns true if the `borrow` operation is allowed."
					},
					"isLiquidationAllowed()": {
						"notice": "Returns true if the `liquidation` operation is allowed."
					},
					"setGracePeriod(uint256)": {
						"notice": "Updates the duration of the grace period"
					},
					"setSequencerOracle(address)": {
						"notice": "Updates the address of the sequencer oracle"
					}
				},
				"notice": "It validates if operations are allowed depending on the PriceOracle health.",
				"version": 1
			}
		}
	}
}