{
	"contracts/protocol/configuration/ACLManager.sol": {
		"ACLManager": {
			"abi": [
				{
					"inputs": [
						{
							"internalType": "contract IPoolAddressesProvider",
							"name": "provider",
							"type": "address"
						}
					],
					"stateMutability": "nonpayable",
					"type": "constructor"
				},
				{
					"anonymous": false,
					"inputs": [
						{
							"indexed": true,
							"internalType": "bytes32",
							"name": "role",
							"type": "bytes32"
						},
						{
							"indexed": true,
							"internalType": "bytes32",
							"name": "previousAdminRole",
							"type": "bytes32"
						},
						{
							"indexed": true,
							"internalType": "bytes32",
							"name": "newAdminRole",
							"type": "bytes32"
						}
					],
					"name": "RoleAdminChanged",
					"type": "event"
				},
				{
					"anonymous": false,
					"inputs": [
						{
							"indexed": true,
							"internalType": "bytes32",
							"name": "role",
							"type": "bytes32"
						},
						{
							"indexed": true,
							"internalType": "address",
							"name": "account",
							"type": "address"
						},
						{
							"indexed": true,
							"internalType": "address",
							"name": "sender",
							"type": "address"
						}
					],
					"name": "RoleGranted",
					"type": "event"
				},
				{
					"anonymous": false,
					"inputs": [
						{
							"indexed": true,
							"internalType": "bytes32",
							"name": "role",
							"type": "bytes32"
						},
						{
							"indexed": true,
							"internalType": "address",
							"name": "account",
							"type": "address"
						},
						{
							"indexed": true,
							"internalType": "address",
							"name": "sender",
							"type": "address"
						}
					],
					"name": "RoleRevoked",
					"type": "event"
				},
				{
					"inputs": [],
					"name": "ADDRESSES_PROVIDER",
					"outputs": [
						{
							"internalType": "contract IPoolAddressesProvider",
							"name": "",
							"type": "address"
						}
					],
					"stateMutability": "view",
					"type": "function"
				},
				{
					"inputs": [],
					"name": "ASSET_LISTING_ADMIN_ROLE",
					"outputs": [
						{
							"internalType": "bytes32",
							"name": "",
							"type": "bytes32"
						}
					],
					"stateMutability": "view",
					"type": "function"
				},
				{
					"inputs": [],
					"name": "BRIDGE_ROLE",
					"outputs": [
						{
							"internalType": "bytes32",
							"name": "",
							"type": "bytes32"
						}
					],
					"stateMutability": "view",
					"type": "function"
				},
				{
					"inputs": [],
					"name": "DEFAULT_ADMIN_ROLE",
					"outputs": [
						{
							"internalType": "bytes32",
							"name": "",
							"type": "bytes32"
						}
					],
					"stateMutability": "view",
					"type": "function"
				},
				{
					"inputs": [],
					"name": "EMERGENCY_ADMIN_ROLE",
					"outputs": [
						{
							"internalType": "bytes32",
							"name": "",
							"type": "bytes32"
						}
					],
					"stateMutability": "view",
					"type": "function"
				},
				{
					"inputs": [],
					"name": "FLASH_BORROWER_ROLE",
					"outputs": [
						{
							"internalType": "bytes32",
							"name": "",
							"type": "bytes32"
						}
					],
					"stateMutability": "view",
					"type": "function"
				},
				{
					"inputs": [],
					"name": "POOL_ADMIN_ROLE",
					"outputs": [
						{
							"internalType": "bytes32",
							"name": "",
							"type": "bytes32"
						}
					],
					"stateMutability": "view",
					"type": "function"
				},
				{
					"inputs": [],
					"name": "RISK_ADMIN_ROLE",
					"outputs": [
						{
							"internalType": "bytes32",
							"name": "",
							"type": "bytes32"
						}
					],
					"stateMutability": "view",
					"type": "function"
				},
				{
					"inputs": [
						{
							"internalType": "address",
							"name": "admin",
							"type": "address"
						}
					],
					"name": "addAssetListingAdmin",
					"outputs": [],
					"stateMutability": "nonpayable",
					"type": "function"
				},
				{
					"inputs": [
						{
							"internalType": "address",
							"name": "bridge",
							"type": "address"
						}
					],
					"name": "addBridge",
					"outputs": [],
					"stateMutability": "nonpayable",
					"type": "function"
				},
				{
					"inputs": [
						{
							"internalType": "address",
							"name": "admin",
							"type": "address"
						}
					],
					"name": "addEmergencyAdmin",
					"outputs": [],
					"stateMutability": "nonpayable",
					"type": "function"
				},
				{
					"inputs": [
						{
							"internalType": "address",
							"name": "borrower",
							"type": "address"
						}
					],
					"name": "addFlashBorrower",
					"outputs": [],
					"stateMutability": "nonpayable",
					"type": "function"
				},
				{
					"inputs": [
						{
							"internalType": "address",
							"name": "admin",
							"type": "address"
						}
					],
					"name": "addPoolAdmin",
					"outputs": [],
					"stateMutability": "nonpayable",
					"type": "function"
				},
				{
					"inputs": [
						{
							"internalType": "address",
							"name": "admin",
							"type": "address"
						}
					],
					"name": "addRiskAdmin",
					"outputs": [],
					"stateMutability": "nonpayable",
					"type": "function"
				},
				{
					"inputs": [
						{
							"internalType": "bytes32",
							"name": "role",
							"type": "bytes32"
						}
					],
					"name": "getRoleAdmin",
					"outputs": [
						{
							"internalType": "bytes32",
							"name": "",
							"type": "bytes32"
						}
					],
					"stateMutability": "view",
					"type": "function"
				},
				{
					"inputs": [
						{
							"internalType": "bytes32",
							"name": "role",
							"type": "bytes32"
						},
						{
							"internalType": "address",
							"name": "account",
							"type": "address"
						}
					],
					"name": "grantRole",
					"outputs": [],
					"stateMutability": "nonpayable",
					"type": "function"
				},
				{
					"inputs": [
						{
							"internalType": "bytes32",
							"name": "role",
							"type": "bytes32"
						},
						{
							"internalType": "address",
							"name": "account",
							"type": "address"
						}
					],
					"name": "hasRole",
					"outputs": [
						{
							"internalType": "bool",
							"name": "",
							"type": "bool"
						}
					],
					"stateMutability": "view",
					"type": "function"
				},
				{
					"inputs": [
						{
							"internalType": "address",
							"name": "admin",
							"type": "address"
						}
					],
					"name": "isAssetListingAdmin",
					"outputs": [
						{
							"internalType": "bool",
							"name": "",
							"type": "bool"
						}
					],
					"stateMutability": "view",
					"type": "function"
				},
				{
					"inputs": [
						{
							"internalType": "address",
							"name": "bridge",
							"type": "address"
						}
					],
					"name": "isBridge",
					"outputs": [
						{
							"internalType": "bool",
							"name": "",
							"type": "bool"
						}
					],
					"stateMutability": "view",
					"type": "function"
				},
				{
					"inputs": [
						{
							"internalType": "address",
							"name": "admin",
							"type": "address"
						}
					],
					"name": "isEmergencyAdmin",
					"outputs": [
						{
							"internalType": "bool",
							"name": "",
							"type": "bool"
						}
					],
					"stateMutability": "view",
					"type": "function"
				},
				{
					"inputs": [
						{
							"internalType": "address",
							"name": "borrower",
							"type": "address"
						}
					],
					"name": "isFlashBorrower",
					"outputs": [
						{
							"internalType": "bool",
							"name": "",
							"type": "bool"
						}
					],
					"stateMutability": "view",
					"type": "function"
				},
				{
					"inputs": [
						{
							"internalType": "address",
							"name": "admin",
							"type": "address"
						}
					],
					"name": "isPoolAdmin",
					"outputs": [
						{
							"internalType": "bool",
							"name": "",
							"type": "bool"
						}
					],
					"stateMutability": "view",
					"type": "function"
				},
				{
					"inputs": [
						{
							"internalType": "address",
							"name": "admin",
							"type": "address"
						}
					],
					"name": "isRiskAdmin",
					"outputs": [
						{
							"internalType": "bool",
							"name": "",
							"type": "bool"
						}
					],
					"stateMutability": "view",
					"type": "function"
				},
				{
					"inputs": [
						{
							"internalType": "address",
							"name": "admin",
							"type": "address"
						}
					],
					"name": "removeAssetListingAdmin",
					"outputs": [],
					"stateMutability": "nonpayable",
					"type": "function"
				},
				{
					"inputs": [
						{
							"internalType": "address",
							"name": "bridge",
							"type": "address"
						}
					],
					"name": "removeBridge",
					"outputs": [],
					"stateMutability": "nonpayable",
					"type": "function"
				},
				{
					"inputs": [
						{
							"internalType": "address",
							"name": "admin",
							"type": "address"
						}
					],
					"name": "removeEmergencyAdmin",
					"outputs": [],
					"stateMutability": "nonpayable",
					"type": "function"
				},
				{
					"inputs": [
						{
							"internalType": "address",
							"name": "borrower",
							"type": "address"
						}
					],
					"name": "removeFlashBorrower",
					"outputs": [],
					"stateMutability": "nonpayable",
					"type": "function"
				},
				{
					"inputs": [
						{
							"internalType": "address",
							"name": "admin",
							"type": "address"
						}
					],
					"name": "removePoolAdmin",
					"outputs": [],
					"stateMutability": "nonpayable",
					"type": "function"
				},
				{
					"inputs": [
						{
							"internalType": "address",
							"name": "admin",
							"type": "address"
						}
					],
					"name": "removeRiskAdmin",
					"outputs": [],
					"stateMutability": "nonpayable",
					"type": "function"
				},
				{
					"inputs": [
						{
							"internalType": "bytes32",
							"name": "role",
							"type": "bytes32"
						},
						{
							"internalType": "address",
							"name": "account",
							"type": "address"
						}
					],
					"name": "renounceRole",
					"outputs": [],
					"stateMutability": "nonpayable",
					"type": "function"
				},
				{
					"inputs": [
						{
							"internalType": "bytes32",
							"name": "role",
							"type": "bytes32"
						},
						{
							"internalType": "address",
							"name": "account",
							"type": "address"
						}
					],
					"name": "revokeRole",
					"outputs": [],
					"stateMutability": "nonpayable",
					"type": "function"
				},
				{
					"inputs": [
						{
							"internalType": "bytes32",
							"name": "role",
							"type": "bytes32"
						},
						{
							"internalType": "bytes32",
							"name": "adminRole",
							"type": "bytes32"
						}
					],
					"name": "setRoleAdmin",
					"outputs": [],
					"stateMutability": "nonpayable",
					"type": "function"
				},
				{
					"inputs": [
						{
							"internalType": "bytes4",
							"name": "interfaceId",
							"type": "bytes4"
						}
					],
					"name": "supportsInterface",
					"outputs": [
						{
							"internalType": "bool",
							"name": "",
							"type": "bool"
						}
					],
					"stateMutability": "view",
					"type": "function"
				}
			],
			"devdoc": {
				"author": "Aave",
				"events": {
					"RoleAdminChanged(bytes32,bytes32,bytes32)": {
						"details": "Emitted when `newAdminRole` is set as ``role``'s admin role, replacing `previousAdminRole` `DEFAULT_ADMIN_ROLE` is the starting admin for all roles, despite {RoleAdminChanged} not being emitted signaling this. _Available since v3.1._"
					},
					"RoleGranted(bytes32,address,address)": {
						"details": "Emitted when `account` is granted `role`. `sender` is the account that originated the contract call, an admin role bearer except when using {AccessControl-_setupRole}."
					},
					"RoleRevoked(bytes32,address,address)": {
						"details": "Emitted when `account` is revoked `role`. `sender` is the account that originated the contract call:   - if using `revokeRole`, it is the admin role bearer   - if using `renounceRole`, it is the role bearer (i.e. `account`)"
					}
				},
				"kind": "dev",
				"methods": {
					"addAssetListingAdmin(address)": {
						"params": {
							"admin": "The address of the new admin"
						}
					},
					"addBridge(address)": {
						"params": {
							"bridge": "The address of the new Bridge"
						}
					},
					"addEmergencyAdmin(address)": {
						"params": {
							"admin": "The address of the new admin"
						}
					},
					"addFlashBorrower(address)": {
						"params": {
							"borrower": "The address of the new FlashBorrower"
						}
					},
					"addPoolAdmin(address)": {
						"params": {
							"admin": "The address of the new admin"
						}
					},
					"addRiskAdmin(address)": {
						"params": {
							"admin": "The address of the new admin"
						}
					},
					"constructor": {
						"details": "ConstructorThe ACL admin should be initialized at the addressesProvider beforehand",
						"params": {
							"provider": "The address of the PoolAddressesProvider"
						}
					},
					"getRoleAdmin(bytes32)": {
						"details": "Returns the admin role that controls `role`. See {grantRole} and {revokeRole}. To change a role's admin, use {_setRoleAdmin}."
					},
					"grantRole(bytes32,address)": {
						"details": "Grants `role` to `account`. If `account` had not been already granted `role`, emits a {RoleGranted} event. Requirements: - the caller must have ``role``'s admin role."
					},
					"hasRole(bytes32,address)": {
						"details": "Returns `true` if `account` has been granted `role`."
					},
					"isAssetListingAdmin(address)": {
						"params": {
							"admin": "The address to check"
						},
						"returns": {
							"_0": "True if the given address is AssetListingAdmin, false otherwise"
						}
					},
					"isBridge(address)": {
						"params": {
							"bridge": "The address to check"
						},
						"returns": {
							"_0": "True if the given address is Bridge, false otherwise"
						}
					},
					"isEmergencyAdmin(address)": {
						"params": {
							"admin": "The address to check"
						},
						"returns": {
							"_0": "True if the given address is EmergencyAdmin, false otherwise"
						}
					},
					"isFlashBorrower(address)": {
						"params": {
							"borrower": "The address to check"
						},
						"returns": {
							"_0": "True if the given address is FlashBorrower, false otherwise"
						}
					},
					"isPoolAdmin(address)": {
						"params": {
							"admin": "The address to check"
						},
						"returns": {
							"_0": "True if the given address is PoolAdmin, false otherwise"
						}
					},
					"isRiskAdmin(address)": {
						"params": {
							"admin": "The address to check"
						},
						"returns": {
							"_0": "True if the given address is RiskAdmin, false otherwise"
						}
					},
					"removeAssetListingAdmin(address)": {
						"params": {
							"admin": "The address of the admin to remove"
						}
					},
					"removeBridge(address)": {
						"params": {
							"bridge": "The address of the bridge to remove"
						}
					},
					"removeEmergencyAdmin(address)": {
						"params": {
							"admin": "The address of the admin to remove"
						}
					},
					"removeFlashBorrower(address)": {
						"params": {
							"borrower": "The address of the FlashBorrower to remove"
						}
					},
					"removePoolAdmin(address)": {
						"params": {
							"admin": "The address of the admin to remove"
						}
					},
					"removeRiskAdmin(address)": {
						"params": {
							"admin": "The address of the admin to remove"
						}
					},
					"renounceRole(bytes32,address)": {
						"details": "Revokes `role` from the calling account. Roles are often managed via {grantRole} and {revokeRole}: this function's purpose is to provide a mechanism for accounts to lose their privileges if they are compromised (such as when a trusted device is misplaced). If the calling account had been granted `role`, emits a {RoleRevoked} event. Requirements: - the caller must be `account`."
					},
					"revokeRole(bytes32,address)": {
						"details": "Revokes `role` from `account`. If `account` had been granted `role`, emits a {RoleRevoked} event. Requirements: - the caller must have ``role``'s admin role."
					},
					"setRoleAdmin(bytes32,bytes32)": {
						"details": "By default the admin role for all roles is `DEFAULT_ADMIN_ROLE`.",
						"params": {
							"adminRole": "The admin role",
							"role": "The role to be managed by the admin role"
						}
					},
					"supportsInterface(bytes4)": {
						"details": "See {IERC165-supportsInterface}."
					}
				},
				"stateVariables": {
					"ADDRESSES_PROVIDER": {
						"return": "The address of the PoolAddressesProvider",
						"returns": {
							"_0": "The address of the PoolAddressesProvider"
						}
					},
					"ASSET_LISTING_ADMIN_ROLE": {
						"return": "The id of the AssetListingAdmin role",
						"returns": {
							"_0": "The id of the AssetListingAdmin role"
						}
					},
					"BRIDGE_ROLE": {
						"return": "The id of the Bridge role",
						"returns": {
							"_0": "The id of the Bridge role"
						}
					},
					"EMERGENCY_ADMIN_ROLE": {
						"return": "The id of the EmergencyAdmin role",
						"returns": {
							"_0": "The id of the EmergencyAdmin role"
						}
					},
					"FLASH_BORROWER_ROLE": {
						"return": "The id of the FlashBorrower role",
						"returns": {
							"_0": "The id of the FlashBorrower role"
						}
					},
					"POOL_ADMIN_ROLE": {
						"return": "The id of the PoolAdmin role",
						"returns": {
							"_0": "The id of the PoolAdmin role"
						}
					},
					"RISK_ADMIN_ROLE": {
						"return": "The id of the RiskAdmin role",
						"returns": {
							"_0": "The id of the RiskAdmin role"
						}
					}
				},
				"title": "ACLManager",
				"version": 1
			},
			"evm": {
				"assembly": "    /* \"contracts/protocol/configuration/ACLManager.sol\":502:4522  contract ACLManager is AccessControl, IACLManager {... */\n  mstore(0x40, 0xa0)\n    /* \"contracts/protocol/configuration/ACLManager.sol\":1309:1562  constructor(IPoolAddressesProvider provider) {... */\n  callvalue\n  dup1\n  iszero\n  tag_1\n  jumpi\n  0x00\n  dup1\n  revert\ntag_1:\n  pop\n  mload(0x40)\n  sub(codesize, bytecodeSize)\n  dup1\n  bytecodeSize\n  dup4\n  codecopy\n  dup2\n  dup2\n  add\n  0x40\n  mstore\n  dup2\n  add\n  swap1\n  tag_2\n  swap2\n  swap1\n  tag_3\n  jump\t// in\ntag_2:\n    /* \"contracts/protocol/configuration/ACLManager.sol\":1382:1390  provider */\n  dup1\n    /* \"contracts/protocol/configuration/ACLManager.sol\":1361:1390  ADDRESSES_PROVIDER = provider */\n  0xffffffffffffffffffffffffffffffffffffffff\n  and\n  0x80\n  dup2\n  0xffffffffffffffffffffffffffffffffffffffff\n  and\n  dup2\n  mstore\n  pop\n  pop\n    /* \"contracts/protocol/configuration/ACLManager.sol\":1397:1413  address aclAdmin */\n  0x00\n    /* \"contracts/protocol/configuration/ACLManager.sol\":1416:1424  provider */\n  dup2\n    /* \"contracts/protocol/configuration/ACLManager.sol\":1416:1436  provider.getACLAdmin */\n  0xffffffffffffffffffffffffffffffffffffffff\n  and\n  0x0e67178c\n    /* \"contracts/protocol/configuration/ACLManager.sol\":1416:1438  provider.getACLAdmin() */\n  mload(0x40)\n  dup2\n  0xffffffff\n  and\n  0xe0\n  shl\n  dup2\n  mstore\n  0x04\n  add\n  0x20\n  mload(0x40)\n  dup1\n  dup4\n  sub\n  dup2\n  dup7\n  gas\n  staticcall\n  iszero\n  dup1\n  iszero\n  tag_7\n  jumpi\n  returndatasize\n  0x00\n  dup1\n  returndatacopy\n  revert(0x00, returndatasize)\ntag_7:\n  pop\n  pop\n  pop\n  pop\n  mload(0x40)\n  returndatasize\n  not(0x1f)\n  0x1f\n  dup3\n  add\n  and\n  dup3\n  add\n  dup1\n  0x40\n  mstore\n  pop\n  dup2\n  add\n  swap1\n  tag_8\n  swap2\n  swap1\n  tag_9\n  jump\t// in\ntag_8:\n    /* \"contracts/protocol/configuration/ACLManager.sol\":1397:1438  address aclAdmin = provider.getACLAdmin() */\n  swap1\n  pop\n    /* \"contracts/protocol/configuration/ACLManager.sol\":1473:1474  0 */\n  0x00\n    /* \"contracts/protocol/configuration/ACLManager.sol\":1453:1475  aclAdmin != address(0) */\n  0xffffffffffffffffffffffffffffffffffffffff\n  and\n    /* \"contracts/protocol/configuration/ACLManager.sol\":1453:1461  aclAdmin */\n  dup2\n    /* \"contracts/protocol/configuration/ACLManager.sol\":1453:1475  aclAdmin != address(0) */\n  0xffffffffffffffffffffffffffffffffffffffff\n  and\n  eq\n  iszero\n    /* \"contracts/protocol/configuration/ACLManager.sol\":1477:1508  Errors.ACL_ADMIN_CANNOT_BE_ZERO */\n  mload(0x40)\n  dup1\n  0x40\n  add\n  0x40\n  mstore\n  dup1\n  0x02\n  dup2\n  mstore\n  0x20\n  add\n  0x3735000000000000000000000000000000000000000000000000000000000000\n  dup2\n  mstore\n  pop\n    /* \"contracts/protocol/configuration/ACLManager.sol\":1445:1509  require(aclAdmin != address(0), Errors.ACL_ADMIN_CANNOT_BE_ZERO) */\n  swap1\n  tag_10\n  jumpi\n  mload(0x40)\n  0x08c379a000000000000000000000000000000000000000000000000000000000\n  dup2\n  mstore\n  0x04\n  add\n  tag_11\n  swap2\n  swap1\n  tag_12\n  jump\t// in\ntag_11:\n  mload(0x40)\n  dup1\n  swap2\n  sub\n  swap1\n  revert\ntag_10:\n  pop\n    /* \"contracts/protocol/configuration/ACLManager.sol\":1516:1556  _setupRole(DEFAULT_ADMIN_ROLE, aclAdmin) */\n  tag_13\n    /* \"contracts/dependencies/openzeppelin/contracts/AccessControl.sol\":2001:2005  0x00 */\n  0x00\n    /* \"contracts/protocol/configuration/ACLManager.sol\":1527:1545  DEFAULT_ADMIN_ROLE */\n  dup1\n  shl\n    /* \"contracts/protocol/configuration/ACLManager.sol\":1547:1555  aclAdmin */\n  dup3\n    /* \"contracts/protocol/configuration/ACLManager.sol\":1516:1526  _setupRole */\n  shl(0x20, tag_14)\n    /* \"contracts/protocol/configuration/ACLManager.sol\":1516:1556  _setupRole(DEFAULT_ADMIN_ROLE, aclAdmin) */\n  0x20\n  shr\n  jump\t// in\ntag_13:\n    /* \"contracts/protocol/configuration/ACLManager.sol\":1354:1562  {... */\n  pop\n    /* \"contracts/protocol/configuration/ACLManager.sol\":1309:1562  constructor(IPoolAddressesProvider provider) {... */\n  pop\n    /* \"contracts/protocol/configuration/ACLManager.sol\":502:4522  contract ACLManager is AccessControl, IACLManager {... */\n  jump(tag_15)\n    /* \"contracts/dependencies/openzeppelin/contracts/AccessControl.sol\":5914:6020  function _setupRole(bytes32 role, address account) internal virtual {... */\ntag_14:\n    /* \"contracts/dependencies/openzeppelin/contracts/AccessControl.sol\":5989:6014  _grantRole(role, account) */\n  tag_17\n    /* \"contracts/dependencies/openzeppelin/contracts/AccessControl.sol\":6000:6004  role */\n  dup3\n    /* \"contracts/dependencies/openzeppelin/contracts/AccessControl.sol\":6006:6013  account */\n  dup3\n    /* \"contracts/dependencies/openzeppelin/contracts/AccessControl.sol\":5989:5999  _grantRole */\n  shl(0x20, tag_18)\n    /* \"contracts/dependencies/openzeppelin/contracts/AccessControl.sol\":5989:6014  _grantRole(role, account) */\n  0x20\n  shr\n  jump\t// in\ntag_17:\n    /* \"contracts/dependencies/openzeppelin/contracts/AccessControl.sol\":5914:6020  function _setupRole(bytes32 role, address account) internal virtual {... */\n  pop\n  pop\n  jump\t// out\n    /* \"contracts/dependencies/openzeppelin/contracts/AccessControl.sol\":6383:6590  function _grantRole(bytes32 role, address account) private {... */\ntag_18:\n    /* \"contracts/dependencies/openzeppelin/contracts/AccessControl.sol\":6454:6476  hasRole(role, account) */\n  tag_20\n    /* \"contracts/dependencies/openzeppelin/contracts/AccessControl.sol\":6462:6466  role */\n  dup3\n    /* \"contracts/dependencies/openzeppelin/contracts/AccessControl.sol\":6468:6475  account */\n  dup3\n    /* \"contracts/dependencies/openzeppelin/contracts/AccessControl.sol\":6454:6461  hasRole */\n  shl(0x20, tag_21)\n    /* \"contracts/dependencies/openzeppelin/contracts/AccessControl.sol\":6454:6476  hasRole(role, account) */\n  0x20\n  shr\n  jump\t// in\ntag_20:\n    /* \"contracts/dependencies/openzeppelin/contracts/AccessControl.sol\":6449:6585  if (!hasRole(role, account)) {... */\n  tag_22\n  jumpi\n    /* \"contracts/dependencies/openzeppelin/contracts/AccessControl.sol\":6519:6523  true */\n  0x01\n    /* \"contracts/dependencies/openzeppelin/contracts/AccessControl.sol\":6487:6493  _roles */\n  0x00\n    /* \"contracts/dependencies/openzeppelin/contracts/AccessControl.sol\":6487:6499  _roles[role] */\n  dup1\n    /* \"contracts/dependencies/openzeppelin/contracts/AccessControl.sol\":6494:6498  role */\n  dup5\n    /* \"contracts/dependencies/openzeppelin/contracts/AccessControl.sol\":6487:6499  _roles[role] */\n  dup2\n  mstore\n  0x20\n  add\n  swap1\n  dup2\n  mstore\n  0x20\n  add\n  0x00\n  keccak256\n    /* \"contracts/dependencies/openzeppelin/contracts/AccessControl.sol\":6487:6507  _roles[role].members */\n  0x00\n  add\n    /* \"contracts/dependencies/openzeppelin/contracts/AccessControl.sol\":6487:6516  _roles[role].members[account] */\n  0x00\n    /* \"contracts/dependencies/openzeppelin/contracts/AccessControl.sol\":6508:6515  account */\n  dup4\n    /* \"contracts/dependencies/openzeppelin/contracts/AccessControl.sol\":6487:6516  _roles[role].members[account] */\n  0xffffffffffffffffffffffffffffffffffffffff\n  and\n  0xffffffffffffffffffffffffffffffffffffffff\n  and\n  dup2\n  mstore\n  0x20\n  add\n  swap1\n  dup2\n  mstore\n  0x20\n  add\n  0x00\n  keccak256\n  0x00\n    /* \"contracts/dependencies/openzeppelin/contracts/AccessControl.sol\":6487:6523  _roles[role].members[account] = true */\n  0x0100\n  exp\n  dup2\n  sload\n  dup2\n  0xff\n  mul\n  not\n  and\n  swap1\n  dup4\n  iszero\n  iszero\n  mul\n  or\n  swap1\n  sstore\n  pop\n    /* \"contracts/dependencies/openzeppelin/contracts/AccessControl.sol\":6564:6576  _msgSender() */\n  tag_23\n    /* \"contracts/dependencies/openzeppelin/contracts/AccessControl.sol\":6564:6574  _msgSender */\n  shl(0x20, tag_24)\n    /* \"contracts/dependencies/openzeppelin/contracts/AccessControl.sol\":6564:6576  _msgSender() */\n  0x20\n  shr\n  jump\t// in\ntag_23:\n    /* \"contracts/dependencies/openzeppelin/contracts/AccessControl.sol\":6537:6577  RoleGranted(role, account, _msgSender()) */\n  0xffffffffffffffffffffffffffffffffffffffff\n  and\n    /* \"contracts/dependencies/openzeppelin/contracts/AccessControl.sol\":6555:6562  account */\n  dup2\n    /* \"contracts/dependencies/openzeppelin/contracts/AccessControl.sol\":6537:6577  RoleGranted(role, account, _msgSender()) */\n  0xffffffffffffffffffffffffffffffffffffffff\n  and\n    /* \"contracts/dependencies/openzeppelin/contracts/AccessControl.sol\":6549:6553  role */\n  dup4\n    /* \"contracts/dependencies/openzeppelin/contracts/AccessControl.sol\":6537:6577  RoleGranted(role, account, _msgSender()) */\n  0x2f8788117e7eff1d82e926ec794901d17c78024a50270940304540a733656f0d\n  mload(0x40)\n  mload(0x40)\n  dup1\n  swap2\n  sub\n  swap1\n  log4\n    /* \"contracts/dependencies/openzeppelin/contracts/AccessControl.sol\":6449:6585  if (!hasRole(role, account)) {... */\ntag_22:\n    /* \"contracts/dependencies/openzeppelin/contracts/AccessControl.sol\":6383:6590  function _grantRole(bytes32 role, address account) private {... */\n  pop\n  pop\n  jump\t// out\n    /* \"contracts/dependencies/openzeppelin/contracts/AccessControl.sol\":2811:2944  function hasRole(bytes32 role, address account) public view override returns (bool) {... */\ntag_21:\n    /* \"contracts/dependencies/openzeppelin/contracts/AccessControl.sol\":2889:2893  bool */\n  0x00\n    /* \"contracts/dependencies/openzeppelin/contracts/AccessControl.sol\":2909:2915  _roles */\n  dup1\n    /* \"contracts/dependencies/openzeppelin/contracts/AccessControl.sol\":2909:2921  _roles[role] */\n  0x00\n    /* \"contracts/dependencies/openzeppelin/contracts/AccessControl.sol\":2916:2920  role */\n  dup5\n    /* \"contracts/dependencies/openzeppelin/contracts/AccessControl.sol\":2909:2921  _roles[role] */\n  dup2\n  mstore\n  0x20\n  add\n  swap1\n  dup2\n  mstore\n  0x20\n  add\n  0x00\n  keccak256\n    /* \"contracts/dependencies/openzeppelin/contracts/AccessControl.sol\":2909:2929  _roles[role].members */\n  0x00\n  add\n    /* \"contracts/dependencies/openzeppelin/contracts/AccessControl.sol\":2909:2938  _roles[role].members[account] */\n  0x00\n    /* \"contracts/dependencies/openzeppelin/contracts/AccessControl.sol\":2930:2937  account */\n  dup4\n    /* \"contracts/dependencies/openzeppelin/contracts/AccessControl.sol\":2909:2938  _roles[role].members[account] */\n  0xffffffffffffffffffffffffffffffffffffffff\n  and\n  0xffffffffffffffffffffffffffffffffffffffff\n  and\n  dup2\n  mstore\n  0x20\n  add\n  swap1\n  dup2\n  mstore\n  0x20\n  add\n  0x00\n  keccak256\n  0x00\n  swap1\n  sload\n  swap1\n  0x0100\n  exp\n  swap1\n  div\n  0xff\n  and\n    /* \"contracts/dependencies/openzeppelin/contracts/AccessControl.sol\":2902:2938  return _roles[role].members[account] */\n  swap1\n  pop\n    /* \"contracts/dependencies/openzeppelin/contracts/AccessControl.sol\":2811:2944  function hasRole(bytes32 role, address account) public view override returns (bool) {... */\n  swap3\n  swap2\n  pop\n  pop\n  jump\t// out\n    /* \"contracts/dependencies/openzeppelin/contracts/Context.sol\":601:710  function _msgSender() internal view virtual returns (address payable) {... */\ntag_24:\n    /* \"contracts/dependencies/openzeppelin/contracts/Context.sol\":654:669  address payable */\n  0x00\n    /* \"contracts/dependencies/openzeppelin/contracts/Context.sol\":693:703  msg.sender */\n  caller\n    /* \"contracts/dependencies/openzeppelin/contracts/Context.sol\":678:704  return payable(msg.sender) */\n  swap1\n  pop\n    /* \"contracts/dependencies/openzeppelin/contracts/Context.sol\":601:710  function _msgSender() internal view virtual returns (address payable) {... */\n  swap1\n  jump\t// out\n    /* \"#utility.yul\":88:205   */\ntag_28:\n    /* \"#utility.yul\":197:198   */\n  0x00\n    /* \"#utility.yul\":194:195   */\n  dup1\n    /* \"#utility.yul\":187:199   */\n  revert\n    /* \"#utility.yul\":334:460   */\ntag_30:\n    /* \"#utility.yul\":371:378   */\n  0x00\n    /* \"#utility.yul\":411:453   */\n  0xffffffffffffffffffffffffffffffffffffffff\n    /* \"#utility.yul\":404:409   */\n  dup3\n    /* \"#utility.yul\":400:454   */\n  and\n    /* \"#utility.yul\":389:454   */\n  swap1\n  pop\n    /* \"#utility.yul\":334:460   */\n  swap2\n  swap1\n  pop\n  jump\t// out\n    /* \"#utility.yul\":466:562   */\ntag_31:\n    /* \"#utility.yul\":503:510   */\n  0x00\n    /* \"#utility.yul\":532:556   */\n  tag_48\n    /* \"#utility.yul\":550:555   */\n  dup3\n    /* \"#utility.yul\":532:556   */\n  tag_30\n  jump\t// in\ntag_48:\n    /* \"#utility.yul\":521:556   */\n  swap1\n  pop\n    /* \"#utility.yul\":466:562   */\n  swap2\n  swap1\n  pop\n  jump\t// out\n    /* \"#utility.yul\":568:695   */\ntag_32:\n    /* \"#utility.yul\":636:643   */\n  0x00\n    /* \"#utility.yul\":665:689   */\n  tag_50\n    /* \"#utility.yul\":683:688   */\n  dup3\n    /* \"#utility.yul\":665:689   */\n  tag_31\n  jump\t// in\ntag_50:\n    /* \"#utility.yul\":654:689   */\n  swap1\n  pop\n    /* \"#utility.yul\":568:695   */\n  swap2\n  swap1\n  pop\n  jump\t// out\n    /* \"#utility.yul\":701:885   */\ntag_33:\n    /* \"#utility.yul\":805:860   */\n  tag_52\n    /* \"#utility.yul\":854:859   */\n  dup2\n    /* \"#utility.yul\":805:860   */\n  tag_32\n  jump\t// in\ntag_52:\n    /* \"#utility.yul\":798:803   */\n  dup2\n    /* \"#utility.yul\":795:861   */\n  eq\n    /* \"#utility.yul\":785:879   */\n  tag_53\n  jumpi\n    /* \"#utility.yul\":875:876   */\n  0x00\n    /* \"#utility.yul\":872:873   */\n  dup1\n    /* \"#utility.yul\":865:877   */\n  revert\n    /* \"#utility.yul\":785:879   */\ntag_53:\n    /* \"#utility.yul\":701:885   */\n  pop\n  jump\t// out\n    /* \"#utility.yul\":891:1096   */\ntag_34:\n    /* \"#utility.yul\":979:984   */\n  0x00\n    /* \"#utility.yul\":1010:1016   */\n  dup2\n    /* \"#utility.yul\":1004:1017   */\n  mload\n    /* \"#utility.yul\":995:1017   */\n  swap1\n  pop\n    /* \"#utility.yul\":1026:1090   */\n  tag_55\n    /* \"#utility.yul\":1084:1089   */\n  dup2\n    /* \"#utility.yul\":1026:1090   */\n  tag_33\n  jump\t// in\ntag_55:\n    /* \"#utility.yul\":891:1096   */\n  swap3\n  swap2\n  pop\n  pop\n  jump\t// out\n    /* \"#utility.yul\":1102:1515   */\ntag_3:\n    /* \"#utility.yul\":1203:1209   */\n  0x00\n    /* \"#utility.yul\":1252:1254   */\n  0x20\n    /* \"#utility.yul\":1240:1249   */\n  dup3\n    /* \"#utility.yul\":1231:1238   */\n  dup5\n    /* \"#utility.yul\":1227:1250   */\n  sub\n    /* \"#utility.yul\":1223:1255   */\n  slt\n    /* \"#utility.yul\":1220:1339   */\n  iszero\n  tag_57\n  jumpi\n    /* \"#utility.yul\":1258:1337   */\n  tag_58\n  tag_28\n  jump\t// in\ntag_58:\n    /* \"#utility.yul\":1220:1339   */\ntag_57:\n    /* \"#utility.yul\":1378:1379   */\n  0x00\n    /* \"#utility.yul\":1403:1498   */\n  tag_59\n    /* \"#utility.yul\":1490:1497   */\n  dup5\n    /* \"#utility.yul\":1481:1487   */\n  dup3\n    /* \"#utility.yul\":1470:1479   */\n  dup6\n    /* \"#utility.yul\":1466:1488   */\n  add\n    /* \"#utility.yul\":1403:1498   */\n  tag_34\n  jump\t// in\ntag_59:\n    /* \"#utility.yul\":1393:1498   */\n  swap2\n  pop\n    /* \"#utility.yul\":1349:1508   */\n  pop\n    /* \"#utility.yul\":1102:1515   */\n  swap3\n  swap2\n  pop\n  pop\n  jump\t// out\n    /* \"#utility.yul\":1521:1643   */\ntag_35:\n    /* \"#utility.yul\":1594:1618   */\n  tag_61\n    /* \"#utility.yul\":1612:1617   */\n  dup2\n    /* \"#utility.yul\":1594:1618   */\n  tag_31\n  jump\t// in\ntag_61:\n    /* \"#utility.yul\":1587:1592   */\n  dup2\n    /* \"#utility.yul\":1584:1619   */\n  eq\n    /* \"#utility.yul\":1574:1637   */\n  tag_62\n  jumpi\n    /* \"#utility.yul\":1633:1634   */\n  0x00\n    /* \"#utility.yul\":1630:1631   */\n  dup1\n    /* \"#utility.yul\":1623:1635   */\n  revert\n    /* \"#utility.yul\":1574:1637   */\ntag_62:\n    /* \"#utility.yul\":1521:1643   */\n  pop\n  jump\t// out\n    /* \"#utility.yul\":1649:1792   */\ntag_36:\n    /* \"#utility.yul\":1706:1711   */\n  0x00\n    /* \"#utility.yul\":1737:1743   */\n  dup2\n    /* \"#utility.yul\":1731:1744   */\n  mload\n    /* \"#utility.yul\":1722:1744   */\n  swap1\n  pop\n    /* \"#utility.yul\":1753:1786   */\n  tag_64\n    /* \"#utility.yul\":1780:1785   */\n  dup2\n    /* \"#utility.yul\":1753:1786   */\n  tag_35\n  jump\t// in\ntag_64:\n    /* \"#utility.yul\":1649:1792   */\n  swap3\n  swap2\n  pop\n  pop\n  jump\t// out\n    /* \"#utility.yul\":1798:2149   */\ntag_9:\n    /* \"#utility.yul\":1868:1874   */\n  0x00\n    /* \"#utility.yul\":1917:1919   */\n  0x20\n    /* \"#utility.yul\":1905:1914   */\n  dup3\n    /* \"#utility.yul\":1896:1903   */\n  dup5\n    /* \"#utility.yul\":1892:1915   */\n  sub\n    /* \"#utility.yul\":1888:1920   */\n  slt\n    /* \"#utility.yul\":1885:2004   */\n  iszero\n  tag_66\n  jumpi\n    /* \"#utility.yul\":1923:2002   */\n  tag_67\n  tag_28\n  jump\t// in\ntag_67:\n    /* \"#utility.yul\":1885:2004   */\ntag_66:\n    /* \"#utility.yul\":2043:2044   */\n  0x00\n    /* \"#utility.yul\":2068:2132   */\n  tag_68\n    /* \"#utility.yul\":2124:2131   */\n  dup5\n    /* \"#utility.yul\":2115:2121   */\n  dup3\n    /* \"#utility.yul\":2104:2113   */\n  dup6\n    /* \"#utility.yul\":2100:2122   */\n  add\n    /* \"#utility.yul\":2068:2132   */\n  tag_36\n  jump\t// in\ntag_68:\n    /* \"#utility.yul\":2058:2132   */\n  swap2\n  pop\n    /* \"#utility.yul\":2014:2142   */\n  pop\n    /* \"#utility.yul\":1798:2149   */\n  swap3\n  swap2\n  pop\n  pop\n  jump\t// out\n    /* \"#utility.yul\":2155:2254   */\ntag_37:\n    /* \"#utility.yul\":2207:2213   */\n  0x00\n    /* \"#utility.yul\":2241:2246   */\n  dup2\n    /* \"#utility.yul\":2235:2247   */\n  mload\n    /* \"#utility.yul\":2225:2247   */\n  swap1\n  pop\n    /* \"#utility.yul\":2155:2254   */\n  swap2\n  swap1\n  pop\n  jump\t// out\n    /* \"#utility.yul\":2260:2429   */\ntag_38:\n    /* \"#utility.yul\":2344:2355   */\n  0x00\n    /* \"#utility.yul\":2378:2384   */\n  dup3\n    /* \"#utility.yul\":2373:2376   */\n  dup3\n    /* \"#utility.yul\":2366:2385   */\n  mstore\n    /* \"#utility.yul\":2418:2422   */\n  0x20\n    /* \"#utility.yul\":2413:2416   */\n  dup3\n    /* \"#utility.yul\":2409:2423   */\n  add\n    /* \"#utility.yul\":2394:2423   */\n  swap1\n  pop\n    /* \"#utility.yul\":2260:2429   */\n  swap3\n  swap2\n  pop\n  pop\n  jump\t// out\n    /* \"#utility.yul\":2435:2574   */\ntag_39:\n    /* \"#utility.yul\":2524:2530   */\n  dup3\n    /* \"#utility.yul\":2519:2522   */\n  dup2\n    /* \"#utility.yul\":2514:2517   */\n  dup4\n    /* \"#utility.yul\":2508:2531   */\n  mcopy\n    /* \"#utility.yul\":2565:2566   */\n  0x00\n    /* \"#utility.yul\":2556:2562   */\n  dup4\n    /* \"#utility.yul\":2551:2554   */\n  dup4\n    /* \"#utility.yul\":2547:2563   */\n  add\n    /* \"#utility.yul\":2540:2567   */\n  mstore\n    /* \"#utility.yul\":2435:2574   */\n  pop\n  pop\n  pop\n  jump\t// out\n    /* \"#utility.yul\":2580:2682   */\ntag_40:\n    /* \"#utility.yul\":2621:2627   */\n  0x00\n    /* \"#utility.yul\":2672:2674   */\n  0x1f\n    /* \"#utility.yul\":2668:2675   */\n  not\n    /* \"#utility.yul\":2663:2665   */\n  0x1f\n    /* \"#utility.yul\":2656:2661   */\n  dup4\n    /* \"#utility.yul\":2652:2666   */\n  add\n    /* \"#utility.yul\":2648:2676   */\n  and\n    /* \"#utility.yul\":2638:2676   */\n  swap1\n  pop\n    /* \"#utility.yul\":2580:2682   */\n  swap2\n  swap1\n  pop\n  jump\t// out\n    /* \"#utility.yul\":2688:3065   */\ntag_41:\n    /* \"#utility.yul\":2776:2779   */\n  0x00\n    /* \"#utility.yul\":2804:2843   */\n  tag_74\n    /* \"#utility.yul\":2837:2842   */\n  dup3\n    /* \"#utility.yul\":2804:2843   */\n  tag_37\n  jump\t// in\ntag_74:\n    /* \"#utility.yul\":2859:2930   */\n  tag_75\n    /* \"#utility.yul\":2923:2929   */\n  dup2\n    /* \"#utility.yul\":2918:2921   */\n  dup6\n    /* \"#utility.yul\":2859:2930   */\n  tag_38\n  jump\t// in\ntag_75:\n    /* \"#utility.yul\":2852:2930   */\n  swap4\n  pop\n    /* \"#utility.yul\":2939:3004   */\n  tag_76\n    /* \"#utility.yul\":2997:3003   */\n  dup2\n    /* \"#utility.yul\":2992:2995   */\n  dup6\n    /* \"#utility.yul\":2985:2989   */\n  0x20\n    /* \"#utility.yul\":2978:2983   */\n  dup7\n    /* \"#utility.yul\":2974:2990   */\n  add\n    /* \"#utility.yul\":2939:3004   */\n  tag_39\n  jump\t// in\ntag_76:\n    /* \"#utility.yul\":3029:3058   */\n  tag_77\n    /* \"#utility.yul\":3051:3057   */\n  dup2\n    /* \"#utility.yul\":3029:3058   */\n  tag_40\n  jump\t// in\ntag_77:\n    /* \"#utility.yul\":3024:3027   */\n  dup5\n    /* \"#utility.yul\":3020:3059   */\n  add\n    /* \"#utility.yul\":3013:3059   */\n  swap2\n  pop\n    /* \"#utility.yul\":2780:3065   */\n  pop\n    /* \"#utility.yul\":2688:3065   */\n  swap3\n  swap2\n  pop\n  pop\n  jump\t// out\n    /* \"#utility.yul\":3071:3384   */\ntag_12:\n    /* \"#utility.yul\":3184:3188   */\n  0x00\n    /* \"#utility.yul\":3222:3224   */\n  0x20\n    /* \"#utility.yul\":3211:3220   */\n  dup3\n    /* \"#utility.yul\":3207:3225   */\n  add\n    /* \"#utility.yul\":3199:3225   */\n  swap1\n  pop\n    /* \"#utility.yul\":3271:3280   */\n  dup2\n    /* \"#utility.yul\":3265:3269   */\n  dup2\n    /* \"#utility.yul\":3261:3281   */\n  sub\n    /* \"#utility.yul\":3257:3258   */\n  0x00\n    /* \"#utility.yul\":3246:3255   */\n  dup4\n    /* \"#utility.yul\":3242:3259   */\n  add\n    /* \"#utility.yul\":3235:3282   */\n  mstore\n    /* \"#utility.yul\":3299:3377   */\n  tag_79\n    /* \"#utility.yul\":3372:3376   */\n  dup2\n    /* \"#utility.yul\":3363:3369   */\n  dup5\n    /* \"#utility.yul\":3299:3377   */\n  tag_41\n  jump\t// in\ntag_79:\n    /* \"#utility.yul\":3291:3377   */\n  swap1\n  pop\n    /* \"#utility.yul\":3071:3384   */\n  swap3\n  swap2\n  pop\n  pop\n  jump\t// out\n    /* \"contracts/protocol/configuration/ACLManager.sol\":502:4522  contract ACLManager is AccessControl, IACLManager {... */\ntag_15:\n  mload(0x80)\n  codecopy(0x00, dataOffset(sub_0), dataSize(sub_0))\n  0x00\n  assignImmutable(\"0x63f1589d04b1acca2eee17c7e4fcd27604d0b1130abe91a01e0f895b7d990172\")\n  return(0x00, dataSize(sub_0))\nstop\n\nsub_0: assembly {\n        /* \"contracts/protocol/configuration/ACLManager.sol\":502:4522  contract ACLManager is AccessControl, IACLManager {... */\n      mstore(0x40, 0x80)\n      callvalue\n      dup1\n      iszero\n      tag_1\n      jumpi\n      0x00\n      dup1\n      revert\n    tag_1:\n      pop\n      jumpi(tag_2, lt(calldatasize, 0x04))\n      shr(0xe0, calldataload(0x00))\n      dup1\n      0x674b5e4d\n      gt\n      tag_36\n      jumpi\n      dup1\n      0x9a2b96f7\n      gt\n      tag_37\n      jumpi\n      dup1\n      0xb5bfddea\n      gt\n      tag_38\n      jumpi\n      dup1\n      0xb5bfddea\n      eq\n      tag_31\n      jumpi\n      dup1\n      0xb8f6dba7\n      eq\n      tag_32\n      jumpi\n      dup1\n      0xd547741f\n      eq\n      tag_33\n      jumpi\n      dup1\n      0xf83695cb\n      eq\n      tag_34\n      jumpi\n      dup1\n      0xfa50f297\n      eq\n      tag_35\n      jumpi\n      jump(tag_2)\n    tag_38:\n      dup1\n      0x9a2b96f7\n      eq\n      tag_27\n      jumpi\n      dup1\n      0x9ac9d80b\n      eq\n      tag_28\n      jumpi\n      dup1\n      0xa217fddf\n      eq\n      tag_29\n      jumpi\n      dup1\n      0xa21bce15\n      eq\n      tag_30\n      jumpi\n      jump(tag_2)\n    tag_37:\n      dup1\n      0x7a9a93f4\n      gt\n      tag_39\n      jumpi\n      dup1\n      0x7a9a93f4\n      eq\n      tag_23\n      jumpi\n      dup1\n      0x7be53ca1\n      eq\n      tag_24\n      jumpi\n      dup1\n      0x91d14854\n      eq\n      tag_25\n      jumpi\n      dup1\n      0x9712fdf8\n      eq\n      tag_26\n      jumpi\n      jump(tag_2)\n    tag_39:\n      dup1\n      0x674b5e4d\n      eq\n      tag_19\n      jumpi\n      dup1\n      0x6e76fc8f\n      eq\n      tag_20\n      jumpi\n      dup1\n      0x726600ce\n      eq\n      tag_21\n      jumpi\n      dup1\n      0x78bb0a43\n      eq\n      tag_22\n      jumpi\n      jump(tag_2)\n    tag_36:\n      dup1\n      0x2500f2b6\n      gt\n      tag_40\n      jumpi\n      dup1\n      0x3c5a08e5\n      gt\n      tag_41\n      jumpi\n      dup1\n      0x3c5a08e5\n      eq\n      tag_15\n      jumpi\n      dup1\n      0x4f16b425\n      eq\n      tag_16\n      jumpi\n      dup1\n      0x5577b7a9\n      eq\n      tag_17\n      jumpi\n      dup1\n      0x5b9a94e4\n      eq\n      tag_18\n      jumpi\n      jump(tag_2)\n    tag_41:\n      dup1\n      0x2500f2b6\n      eq\n      tag_11\n      jumpi\n      dup1\n      0x253cf980\n      eq\n      tag_12\n      jumpi\n      dup1\n      0x2f2ff15d\n      eq\n      tag_13\n      jumpi\n      dup1\n      0x36568abe\n      eq\n      tag_14\n      jumpi\n      jump(tag_2)\n    tag_40:\n      dup1\n      0x179efb09\n      gt\n      tag_42\n      jumpi\n      dup1\n      0x179efb09\n      eq\n      tag_7\n      jumpi\n      dup1\n      0x1e4e0091\n      eq\n      tag_8\n      jumpi\n      dup1\n      0x22650caf\n      eq\n      tag_9\n      jumpi\n      dup1\n      0x248a9ca3\n      eq\n      tag_10\n      jumpi\n      jump(tag_2)\n    tag_42:\n      dup1\n      0x01ffc9a7\n      eq\n      tag_3\n      jumpi\n      dup1\n      0x04df017d\n      eq\n      tag_4\n      jumpi\n      dup1\n      0x0542975c\n      eq\n      tag_5\n      jumpi\n      dup1\n      0x13ee32e0\n      eq\n      tag_6\n      jumpi\n    tag_2:\n      0x00\n      dup1\n      revert\n        /* \"contracts/dependencies/openzeppelin/contracts/AccessControl.sol\":2529:2727  function supportsInterface(bytes4 interfaceId) public view virtual override returns (bool) {... */\n    tag_3:\n      tag_43\n      0x04\n      dup1\n      calldatasize\n      sub\n      dup2\n      add\n      swap1\n      tag_44\n      swap2\n      swap1\n      tag_45\n      jump\t// in\n    tag_44:\n      tag_46\n      jump\t// in\n    tag_43:\n      mload(0x40)\n      tag_47\n      swap2\n      swap1\n      tag_48\n      jump\t// in\n    tag_47:\n      mload(0x40)\n      dup1\n      swap2\n      sub\n      swap1\n      return\n        /* \"contracts/protocol/configuration/ACLManager.sol\":3769:3869  function removeBridge(address bridge) external override {... */\n    tag_4:\n      tag_49\n      0x04\n      dup1\n      calldatasize\n      sub\n      dup2\n      add\n      swap1\n      tag_50\n      swap2\n      swap1\n      tag_51\n      jump\t// in\n    tag_50:\n      tag_52\n      jump\t// in\n    tag_49:\n      stop\n        /* \"contracts/protocol/configuration/ACLManager.sol\":1061:1119  IPoolAddressesProvider public immutable ADDRESSES_PROVIDER */\n    tag_5:\n      tag_53\n      tag_54\n      jump\t// in\n    tag_53:\n      mload(0x40)\n      tag_55\n      swap2\n      swap1\n      tag_56\n      jump\t// in\n    tag_55:\n      mload(0x40)\n      dup1\n      swap2\n      sub\n      swap1\n      return\n        /* \"contracts/protocol/configuration/ACLManager.sol\":4377:4519  function isAssetListingAdmin(address admin) external view override returns (bool) {... */\n    tag_6:\n      tag_57\n      0x04\n      dup1\n      calldatasize\n      sub\n      dup2\n      add\n      swap1\n      tag_58\n      swap2\n      swap1\n      tag_51\n      jump\t// in\n    tag_58:\n      tag_59\n      jump\t// in\n    tag_57:\n      mload(0x40)\n      tag_60\n      swap2\n      swap1\n      tag_48\n      jump\t// in\n    tag_60:\n      mload(0x40)\n      dup1\n      swap2\n      sub\n      swap1\n      return\n        /* \"contracts/protocol/configuration/ACLManager.sol\":2238:2349  function addEmergencyAdmin(address admin) external override {... */\n    tag_7:\n      tag_61\n      0x04\n      dup1\n      calldatasize\n      sub\n      dup2\n      add\n      swap1\n      tag_62\n      swap2\n      swap1\n      tag_51\n      jump\t// in\n    tag_62:\n      tag_63\n      jump\t// in\n    tag_61:\n      stop\n        /* \"contracts/protocol/configuration/ACLManager.sol\":1599:1759  function setRoleAdmin(... */\n    tag_8:\n      tag_64\n      0x04\n      dup1\n      calldatasize\n      sub\n      dup2\n      add\n      swap1\n      tag_65\n      swap2\n      swap1\n      tag_66\n      jump\t// in\n    tag_65:\n      tag_67\n      jump\t// in\n    tag_64:\n      stop\n        /* \"contracts/protocol/configuration/ACLManager.sol\":1796:1897  function addPoolAdmin(address admin) external override {... */\n    tag_9:\n      tag_68\n      0x04\n      dup1\n      calldatasize\n      sub\n      dup2\n      add\n      swap1\n      tag_69\n      swap2\n      swap1\n      tag_51\n      jump\t// in\n    tag_69:\n      tag_70\n      jump\t// in\n    tag_68:\n      stop\n        /* \"contracts/dependencies/openzeppelin/contracts/AccessControl.sol\":3784:3901  function getRoleAdmin(bytes32 role) public view override returns (bytes32) {... */\n    tag_10:\n      tag_71\n      0x04\n      dup1\n      calldatasize\n      sub\n      dup2\n      add\n      swap1\n      tag_72\n      swap2\n      swap1\n      tag_73\n      jump\t// in\n    tag_72:\n      tag_74\n      jump\t// in\n    tag_71:\n      mload(0x40)\n      tag_75\n      swap2\n      swap1\n      tag_76\n      jump\t// in\n    tag_75:\n      mload(0x40)\n      dup1\n      swap2\n      sub\n      swap1\n      return\n        /* \"contracts/protocol/configuration/ACLManager.sol\":2538:2673  function isEmergencyAdmin(address admin) external view override returns (bool) {... */\n    tag_11:\n      tag_77\n      0x04\n      dup1\n      calldatasize\n      sub\n      dup2\n      add\n      swap1\n      tag_78\n      swap2\n      swap1\n      tag_51\n      jump\t// in\n    tag_78:\n      tag_79\n      jump\t// in\n    tag_77:\n      mload(0x40)\n      tag_80\n      swap2\n      swap1\n      tag_48\n      jump\t// in\n    tag_80:\n      mload(0x40)\n      dup1\n      swap2\n      sub\n      swap1\n      return\n        /* \"contracts/protocol/configuration/ACLManager.sol\":3304:3423  function removeFlashBorrower(address borrower) external override {... */\n    tag_12:\n      tag_81\n      0x04\n      dup1\n      calldatasize\n      sub\n      dup2\n      add\n      swap1\n      tag_82\n      swap2\n      swap1\n      tag_51\n      jump\t// in\n    tag_82:\n      tag_83\n      jump\t// in\n    tag_81:\n      stop\n        /* \"contracts/dependencies/openzeppelin/contracts/AccessControl.sol\":4141:4297  function grantRole(... */\n    tag_13:\n      tag_84\n      0x04\n      dup1\n      calldatasize\n      sub\n      dup2\n      add\n      swap1\n      tag_85\n      swap2\n      swap1\n      tag_86\n      jump\t// in\n    tag_85:\n      tag_87\n      jump\t// in\n    tag_84:\n      stop\n        /* \"contracts/dependencies/openzeppelin/contracts/AccessControl.sol\":5157:5365  function renounceRole(bytes32 role, address account) public virtual override {... */\n    tag_14:\n      tag_88\n      0x04\n      dup1\n      calldatasize\n      sub\n      dup2\n      add\n      swap1\n      tag_89\n      swap2\n      swap1\n      tag_86\n      jump\t// in\n    tag_89:\n      tag_90\n      jump\t// in\n    tag_88:\n      stop\n        /* \"contracts/protocol/configuration/ACLManager.sol\":2848:2953  function removeRiskAdmin(address admin) external override {... */\n    tag_15:\n      tag_91\n      0x04\n      dup1\n      calldatasize\n      sub\n      dup2\n      add\n      swap1\n      tag_92\n      swap2\n      swap1\n      tag_51\n      jump\t// in\n    tag_92:\n      tag_93\n      jump\t// in\n    tag_91:\n      stop\n        /* \"contracts/protocol/configuration/ACLManager.sol\":725:799  bytes32 public constant override RISK_ADMIN_ROLE = keccak256('RISK_ADMIN') */\n    tag_16:\n      tag_94\n      tag_95\n      jump\t// in\n    tag_94:\n      mload(0x40)\n      tag_96\n      swap2\n      swap1\n      tag_76\n      jump\t// in\n    tag_96:\n      mload(0x40)\n      dup1\n      swap2\n      sub\n      swap1\n      return\n        /* \"contracts/protocol/configuration/ACLManager.sol\":804:886  bytes32 public constant override FLASH_BORROWER_ROLE = keccak256('FLASH_BORROWER') */\n    tag_17:\n      tag_97\n      tag_98\n      jump\t// in\n    tag_97:\n      mload(0x40)\n      tag_99\n      swap2\n      swap1\n      tag_76\n      jump\t// in\n    tag_99:\n      mload(0x40)\n      dup1\n      swap2\n      sub\n      swap1\n      return\n        /* \"contracts/protocol/configuration/ACLManager.sol\":2710:2811  function addRiskAdmin(address admin) external override {... */\n    tag_18:\n      tag_100\n      0x04\n      dup1\n      calldatasize\n      sub\n      dup2\n      add\n      swap1\n      tag_101\n      swap2\n      swap1\n      tag_51\n      jump\t// in\n    tag_101:\n      tag_102\n      jump\t// in\n    tag_100:\n      stop\n        /* \"contracts/protocol/configuration/ACLManager.sol\":2990:3115  function isRiskAdmin(address admin) external view override returns (bool) {... */\n    tag_19:\n      tag_103\n      0x04\n      dup1\n      calldatasize\n      sub\n      dup2\n      add\n      swap1\n      tag_104\n      swap2\n      swap1\n      tag_51\n      jump\t// in\n    tag_104:\n      tag_105\n      jump\t// in\n    tag_103:\n      mload(0x40)\n      tag_106\n      swap2\n      swap1\n      tag_48\n      jump\t// in\n    tag_106:\n      mload(0x40)\n      dup1\n      swap2\n      sub\n      swap1\n      return\n        /* \"contracts/protocol/configuration/ACLManager.sol\":636:720  bytes32 public constant override EMERGENCY_ADMIN_ROLE = keccak256('EMERGENCY_ADMIN') */\n    tag_20:\n      tag_107\n      tag_108\n      jump\t// in\n    tag_107:\n      mload(0x40)\n      tag_109\n      swap2\n      swap1\n      tag_76\n      jump\t// in\n    tag_109:\n      mload(0x40)\n      dup1\n      swap2\n      sub\n      swap1\n      return\n        /* \"contracts/protocol/configuration/ACLManager.sol\":3906:4026  function isBridge(address bridge) external view override returns (bool) {... */\n    tag_21:\n      tag_110\n      0x04\n      dup1\n      calldatasize\n      sub\n      dup2\n      add\n      swap1\n      tag_111\n      swap2\n      swap1\n      tag_51\n      jump\t// in\n    tag_111:\n      tag_112\n      jump\t// in\n    tag_110:\n      mload(0x40)\n      tag_113\n      swap2\n      swap1\n      tag_48\n      jump\t// in\n    tag_113:\n      mload(0x40)\n      dup1\n      swap2\n      sub\n      swap1\n      return\n        /* \"contracts/protocol/configuration/ACLManager.sol\":962:1054  bytes32 public constant override ASSET_LISTING_ADMIN_ROLE = keccak256('ASSET_LISTING_ADMIN') */\n    tag_22:\n      tag_114\n      tag_115\n      jump\t// in\n    tag_114:\n      mload(0x40)\n      tag_116\n      swap2\n      swap1\n      tag_76\n      jump\t// in\n    tag_116:\n      mload(0x40)\n      dup1\n      swap2\n      sub\n      swap1\n      return\n        /* \"contracts/protocol/configuration/ACLManager.sol\":2386:2501  function removeEmergencyAdmin(address admin) external override {... */\n    tag_23:\n      tag_117\n      0x04\n      dup1\n      calldatasize\n      sub\n      dup2\n      add\n      swap1\n      tag_118\n      swap2\n      swap1\n      tag_51\n      jump\t// in\n    tag_118:\n      tag_119\n      jump\t// in\n    tag_117:\n      stop\n        /* \"contracts/protocol/configuration/ACLManager.sol\":2076:2201  function isPoolAdmin(address admin) external view override returns (bool) {... */\n    tag_24:\n      tag_120\n      0x04\n      dup1\n      calldatasize\n      sub\n      dup2\n      add\n      swap1\n      tag_121\n      swap2\n      swap1\n      tag_51\n      jump\t// in\n    tag_121:\n      tag_122\n      jump\t// in\n    tag_120:\n      mload(0x40)\n      tag_123\n      swap2\n      swap1\n      tag_48\n      jump\t// in\n    tag_123:\n      mload(0x40)\n      dup1\n      swap2\n      sub\n      swap1\n      return\n        /* \"contracts/dependencies/openzeppelin/contracts/AccessControl.sol\":2811:2944  function hasRole(bytes32 role, address account) public view override returns (bool) {... */\n    tag_25:\n      tag_124\n      0x04\n      dup1\n      calldatasize\n      sub\n      dup2\n      add\n      swap1\n      tag_125\n      swap2\n      swap1\n      tag_86\n      jump\t// in\n    tag_125:\n      tag_126\n      jump\t// in\n    tag_124:\n      mload(0x40)\n      tag_127\n      swap2\n      swap1\n      tag_48\n      jump\t// in\n    tag_127:\n      mload(0x40)\n      dup1\n      swap2\n      sub\n      swap1\n      return\n        /* \"contracts/protocol/configuration/ACLManager.sol\":3636:3732  function addBridge(address bridge) external override {... */\n    tag_26:\n      tag_128\n      0x04\n      dup1\n      calldatasize\n      sub\n      dup2\n      add\n      swap1\n      tag_129\n      swap2\n      swap1\n      tag_51\n      jump\t// in\n    tag_129:\n      tag_130\n      jump\t// in\n    tag_128:\n      stop\n        /* \"contracts/protocol/configuration/ACLManager.sol\":4063:4181  function addAssetListingAdmin(address admin) external override {... */\n    tag_27:\n      tag_131\n      0x04\n      dup1\n      calldatasize\n      sub\n      dup2\n      add\n      swap1\n      tag_132\n      swap2\n      swap1\n      tag_51\n      jump\t// in\n    tag_132:\n      tag_133\n      jump\t// in\n    tag_131:\n      stop\n        /* \"contracts/protocol/configuration/ACLManager.sol\":3152:3267  function addFlashBorrower(address borrower) external override {... */\n    tag_28:\n      tag_134\n      0x04\n      dup1\n      calldatasize\n      sub\n      dup2\n      add\n      swap1\n      tag_135\n      swap2\n      swap1\n      tag_51\n      jump\t// in\n    tag_135:\n      tag_136\n      jump\t// in\n    tag_134:\n      stop\n        /* \"contracts/dependencies/openzeppelin/contracts/AccessControl.sol\":1956:2005  bytes32 public constant DEFAULT_ADMIN_ROLE = 0x00 */\n    tag_29:\n      tag_137\n      tag_138\n      jump\t// in\n    tag_137:\n      mload(0x40)\n      tag_139\n      swap2\n      swap1\n      tag_76\n      jump\t// in\n    tag_139:\n      mload(0x40)\n      dup1\n      swap2\n      sub\n      swap1\n      return\n        /* \"contracts/protocol/configuration/ACLManager.sol\":4218:4340  function removeAssetListingAdmin(address admin) external override {... */\n    tag_30:\n      tag_140\n      0x04\n      dup1\n      calldatasize\n      sub\n      dup2\n      add\n      swap1\n      tag_141\n      swap2\n      swap1\n      tag_51\n      jump\t// in\n    tag_141:\n      tag_142\n      jump\t// in\n    tag_140:\n      stop\n        /* \"contracts/protocol/configuration/ACLManager.sol\":891:957  bytes32 public constant override BRIDGE_ROLE = keccak256('BRIDGE') */\n    tag_31:\n      tag_143\n      tag_144\n      jump\t// in\n    tag_143:\n      mload(0x40)\n      tag_145\n      swap2\n      swap1\n      tag_76\n      jump\t// in\n    tag_145:\n      mload(0x40)\n      dup1\n      swap2\n      sub\n      swap1\n      return\n        /* \"contracts/protocol/configuration/ACLManager.sol\":557:631  bytes32 public constant override POOL_ADMIN_ROLE = keccak256('POOL_ADMIN') */\n    tag_32:\n      tag_146\n      tag_147\n      jump\t// in\n    tag_146:\n      mload(0x40)\n      tag_148\n      swap2\n      swap1\n      tag_76\n      jump\t// in\n    tag_148:\n      mload(0x40)\n      dup1\n      swap2\n      sub\n      swap1\n      return\n        /* \"contracts/dependencies/openzeppelin/contracts/AccessControl.sol\":4522:4680  function revokeRole(... */\n    tag_33:\n      tag_149\n      0x04\n      dup1\n      calldatasize\n      sub\n      dup2\n      add\n      swap1\n      tag_150\n      swap2\n      swap1\n      tag_86\n      jump\t// in\n    tag_150:\n      tag_151\n      jump\t// in\n    tag_149:\n      stop\n        /* \"contracts/protocol/configuration/ACLManager.sol\":1934:2039  function removePoolAdmin(address admin) external override {... */\n    tag_34:\n      tag_152\n      0x04\n      dup1\n      calldatasize\n      sub\n      dup2\n      add\n      swap1\n      tag_153\n      swap2\n      swap1\n      tag_51\n      jump\t// in\n    tag_153:\n      tag_154\n      jump\t// in\n    tag_152:\n      stop\n        /* \"contracts/protocol/configuration/ACLManager.sol\":3460:3599  function isFlashBorrower(address borrower) external view override returns (bool) {... */\n    tag_35:\n      tag_155\n      0x04\n      dup1\n      calldatasize\n      sub\n      dup2\n      add\n      swap1\n      tag_156\n      swap2\n      swap1\n      tag_51\n      jump\t// in\n    tag_156:\n      tag_157\n      jump\t// in\n    tag_155:\n      mload(0x40)\n      tag_158\n      swap2\n      swap1\n      tag_48\n      jump\t// in\n    tag_158:\n      mload(0x40)\n      dup1\n      swap2\n      sub\n      swap1\n      return\n        /* \"contracts/dependencies/openzeppelin/contracts/AccessControl.sol\":2529:2727  function supportsInterface(bytes4 interfaceId) public view virtual override returns (bool) {... */\n    tag_46:\n        /* \"contracts/dependencies/openzeppelin/contracts/AccessControl.sol\":2614:2618  bool */\n      0x00\n        /* \"contracts/dependencies/openzeppelin/contracts/AccessControl.sol\":2649:2681  type(IAccessControl).interfaceId */\n      0x7965db0b00000000000000000000000000000000000000000000000000000000\n        /* \"contracts/dependencies/openzeppelin/contracts/AccessControl.sol\":2634:2681  interfaceId == type(IAccessControl).interfaceId */\n      not(0xffffffffffffffffffffffffffffffffffffffffffffffffffffffff)\n      and\n        /* \"contracts/dependencies/openzeppelin/contracts/AccessControl.sol\":2634:2645  interfaceId */\n      dup3\n        /* \"contracts/dependencies/openzeppelin/contracts/AccessControl.sol\":2634:2681  interfaceId == type(IAccessControl).interfaceId */\n      not(0xffffffffffffffffffffffffffffffffffffffffffffffffffffffff)\n      and\n      eq\n        /* \"contracts/dependencies/openzeppelin/contracts/AccessControl.sol\":2634:2721  interfaceId == type(IAccessControl).interfaceId || super.supportsInterface(interfaceId) */\n      dup1\n      tag_160\n      jumpi\n      pop\n        /* \"contracts/dependencies/openzeppelin/contracts/AccessControl.sol\":2685:2721  super.supportsInterface(interfaceId) */\n      tag_161\n        /* \"contracts/dependencies/openzeppelin/contracts/AccessControl.sol\":2709:2720  interfaceId */\n      dup3\n        /* \"contracts/dependencies/openzeppelin/contracts/AccessControl.sol\":2685:2708  super.supportsInterface */\n      tag_162\n        /* \"contracts/dependencies/openzeppelin/contracts/AccessControl.sol\":2685:2721  super.supportsInterface(interfaceId) */\n      jump\t// in\n    tag_161:\n        /* \"contracts/dependencies/openzeppelin/contracts/AccessControl.sol\":2634:2721  interfaceId == type(IAccessControl).interfaceId || super.supportsInterface(interfaceId) */\n    tag_160:\n        /* \"contracts/dependencies/openzeppelin/contracts/AccessControl.sol\":2627:2721  return interfaceId == type(IAccessControl).interfaceId || super.supportsInterface(interfaceId) */\n      swap1\n      pop\n        /* \"contracts/dependencies/openzeppelin/contracts/AccessControl.sol\":2529:2727  function supportsInterface(bytes4 interfaceId) public view virtual override returns (bool) {... */\n      swap2\n      swap1\n      pop\n      jump\t// out\n        /* \"contracts/protocol/configuration/ACLManager.sol\":3769:3869  function removeBridge(address bridge) external override {... */\n    tag_52:\n        /* \"contracts/protocol/configuration/ACLManager.sol\":3832:3863  revokeRole(BRIDGE_ROLE, bridge) */\n      tag_164\n        /* \"contracts/protocol/configuration/ACLManager.sol\":938:957  keccak256('BRIDGE') */\n      0x08fb31c3e81624356c3314088aa971b73bcc82d22bc3e3b184b4593077ae3278\n        /* \"contracts/protocol/configuration/ACLManager.sol\":3856:3862  bridge */\n      dup3\n        /* \"contracts/protocol/configuration/ACLManager.sol\":3832:3842  revokeRole */\n      tag_151\n        /* \"contracts/protocol/configuration/ACLManager.sol\":3832:3863  revokeRole(BRIDGE_ROLE, bridge) */\n      jump\t// in\n    tag_164:\n        /* \"contracts/protocol/configuration/ACLManager.sol\":3769:3869  function removeBridge(address bridge) external override {... */\n      pop\n      jump\t// out\n        /* \"contracts/protocol/configuration/ACLManager.sol\":1061:1119  IPoolAddressesProvider public immutable ADDRESSES_PROVIDER */\n    tag_54:\n      immutable(\"0x63f1589d04b1acca2eee17c7e4fcd27604d0b1130abe91a01e0f895b7d990172\")\n      dup2\n      jump\t// out\n        /* \"contracts/protocol/configuration/ACLManager.sol\":4377:4519  function isAssetListingAdmin(address admin) external view override returns (bool) {... */\n    tag_59:\n        /* \"contracts/protocol/configuration/ACLManager.sol\":4453:4457  bool */\n      0x00\n        /* \"contracts/protocol/configuration/ACLManager.sol\":4473:4513  hasRole(ASSET_LISTING_ADMIN_ROLE, admin) */\n      tag_166\n        /* \"contracts/protocol/configuration/ACLManager.sol\":1022:1054  keccak256('ASSET_LISTING_ADMIN') */\n      0x19c860a63258efbd0ecb7d55c626237bf5c2044c26c073390b74f0c13c857433\n        /* \"contracts/protocol/configuration/ACLManager.sol\":4507:4512  admin */\n      dup4\n        /* \"contracts/protocol/configuration/ACLManager.sol\":4473:4480  hasRole */\n      tag_126\n        /* \"contracts/protocol/configuration/ACLManager.sol\":4473:4513  hasRole(ASSET_LISTING_ADMIN_ROLE, admin) */\n      jump\t// in\n    tag_166:\n        /* \"contracts/protocol/configuration/ACLManager.sol\":4466:4513  return hasRole(ASSET_LISTING_ADMIN_ROLE, admin) */\n      swap1\n      pop\n        /* \"contracts/protocol/configuration/ACLManager.sol\":4377:4519  function isAssetListingAdmin(address admin) external view override returns (bool) {... */\n      swap2\n      swap1\n      pop\n      jump\t// out\n        /* \"contracts/protocol/configuration/ACLManager.sol\":2238:2349  function addEmergencyAdmin(address admin) external override {... */\n    tag_63:\n        /* \"contracts/protocol/configuration/ACLManager.sol\":2305:2343  grantRole(EMERGENCY_ADMIN_ROLE, admin) */\n      tag_168\n        /* \"contracts/protocol/configuration/ACLManager.sol\":692:720  keccak256('EMERGENCY_ADMIN') */\n      0x5c91514091af31f62f596a314af7d5be40146b2f2355969392f055e12e0982fb\n        /* \"contracts/protocol/configuration/ACLManager.sol\":2337:2342  admin */\n      dup3\n        /* \"contracts/protocol/configuration/ACLManager.sol\":2305:2314  grantRole */\n      tag_87\n        /* \"contracts/protocol/configuration/ACLManager.sol\":2305:2343  grantRole(EMERGENCY_ADMIN_ROLE, admin) */\n      jump\t// in\n    tag_168:\n        /* \"contracts/protocol/configuration/ACLManager.sol\":2238:2349  function addEmergencyAdmin(address admin) external override {... */\n      pop\n      jump\t// out\n        /* \"contracts/protocol/configuration/ACLManager.sol\":1599:1759  function setRoleAdmin(... */\n    tag_67:\n        /* \"contracts/dependencies/openzeppelin/contracts/AccessControl.sol\":2001:2005  0x00 */\n      0x00\n        /* \"contracts/protocol/configuration/ACLManager.sol\":1696:1714  DEFAULT_ADMIN_ROLE */\n      dup1\n      shl\n        /* \"contracts/dependencies/openzeppelin/contracts/AccessControl.sol\":2421:2451  _checkRole(role, _msgSender()) */\n      tag_170\n        /* \"contracts/dependencies/openzeppelin/contracts/AccessControl.sol\":2432:2436  role */\n      dup2\n        /* \"contracts/dependencies/openzeppelin/contracts/AccessControl.sol\":2438:2450  _msgSender() */\n      tag_171\n        /* \"contracts/dependencies/openzeppelin/contracts/AccessControl.sol\":2438:2448  _msgSender */\n      tag_172\n        /* \"contracts/dependencies/openzeppelin/contracts/AccessControl.sol\":2438:2450  _msgSender() */\n      jump\t// in\n    tag_171:\n        /* \"contracts/dependencies/openzeppelin/contracts/AccessControl.sol\":2421:2431  _checkRole */\n      tag_173\n        /* \"contracts/dependencies/openzeppelin/contracts/AccessControl.sol\":2421:2451  _checkRole(role, _msgSender()) */\n      jump\t// in\n    tag_170:\n        /* \"contracts/protocol/configuration/ACLManager.sol\":1723:1753  _setRoleAdmin(role, adminRole) */\n      tag_175\n        /* \"contracts/protocol/configuration/ACLManager.sol\":1737:1741  role */\n      dup4\n        /* \"contracts/protocol/configuration/ACLManager.sol\":1743:1752  adminRole */\n      dup4\n        /* \"contracts/protocol/configuration/ACLManager.sol\":1723:1736  _setRoleAdmin */\n      tag_176\n        /* \"contracts/protocol/configuration/ACLManager.sol\":1723:1753  _setRoleAdmin(role, adminRole) */\n      jump\t// in\n    tag_175:\n        /* \"contracts/protocol/configuration/ACLManager.sol\":1599:1759  function setRoleAdmin(... */\n      pop\n      pop\n      pop\n      jump\t// out\n        /* \"contracts/protocol/configuration/ACLManager.sol\":1796:1897  function addPoolAdmin(address admin) external override {... */\n    tag_70:\n        /* \"contracts/protocol/configuration/ACLManager.sol\":1858:1891  grantRole(POOL_ADMIN_ROLE, admin) */\n      tag_178\n        /* \"contracts/protocol/configuration/ACLManager.sol\":608:631  keccak256('POOL_ADMIN') */\n      0x12ad05bde78c5ab75238ce885307f96ecd482bb402ef831f99e7018a0f169b7b\n        /* \"contracts/protocol/configuration/ACLManager.sol\":1885:1890  admin */\n      dup3\n        /* \"contracts/protocol/configuration/ACLManager.sol\":1858:1867  grantRole */\n      tag_87\n        /* \"contracts/protocol/configuration/ACLManager.sol\":1858:1891  grantRole(POOL_ADMIN_ROLE, admin) */\n      jump\t// in\n    tag_178:\n        /* \"contracts/protocol/configuration/ACLManager.sol\":1796:1897  function addPoolAdmin(address admin) external override {... */\n      pop\n      jump\t// out\n        /* \"contracts/dependencies/openzeppelin/contracts/AccessControl.sol\":3784:3901  function getRoleAdmin(bytes32 role) public view override returns (bytes32) {... */\n    tag_74:\n        /* \"contracts/dependencies/openzeppelin/contracts/AccessControl.sol\":3850:3857  bytes32 */\n      0x00\n        /* \"contracts/dependencies/openzeppelin/contracts/AccessControl.sol\":3873:3879  _roles */\n      dup1\n        /* \"contracts/dependencies/openzeppelin/contracts/AccessControl.sol\":3873:3885  _roles[role] */\n      0x00\n        /* \"contracts/dependencies/openzeppelin/contracts/AccessControl.sol\":3880:3884  role */\n      dup4\n        /* \"contracts/dependencies/openzeppelin/contracts/AccessControl.sol\":3873:3885  _roles[role] */\n      dup2\n      mstore\n      0x20\n      add\n      swap1\n      dup2\n      mstore\n      0x20\n      add\n      0x00\n      keccak256\n        /* \"contracts/dependencies/openzeppelin/contracts/AccessControl.sol\":3873:3895  _roles[role].adminRole */\n      0x01\n      add\n      sload\n        /* \"contracts/dependencies/openzeppelin/contracts/AccessControl.sol\":3866:3895  return _roles[role].adminRole */\n      swap1\n      pop\n        /* \"contracts/dependencies/openzeppelin/contracts/AccessControl.sol\":3784:3901  function getRoleAdmin(bytes32 role) public view override returns (bytes32) {... */\n      swap2\n      swap1\n      pop\n      jump\t// out\n        /* \"contracts/protocol/configuration/ACLManager.sol\":2538:2673  function isEmergencyAdmin(address admin) external view override returns (bool) {... */\n    tag_79:\n        /* \"contracts/protocol/configuration/ACLManager.sol\":2611:2615  bool */\n      0x00\n        /* \"contracts/protocol/configuration/ACLManager.sol\":2631:2667  hasRole(EMERGENCY_ADMIN_ROLE, admin) */\n      tag_181\n        /* \"contracts/protocol/configuration/ACLManager.sol\":692:720  keccak256('EMERGENCY_ADMIN') */\n      0x5c91514091af31f62f596a314af7d5be40146b2f2355969392f055e12e0982fb\n        /* \"contracts/protocol/configuration/ACLManager.sol\":2661:2666  admin */\n      dup4\n        /* \"contracts/protocol/configuration/ACLManager.sol\":2631:2638  hasRole */\n      tag_126\n        /* \"contracts/protocol/configuration/ACLManager.sol\":2631:2667  hasRole(EMERGENCY_ADMIN_ROLE, admin) */\n      jump\t// in\n    tag_181:\n        /* \"contracts/protocol/configuration/ACLManager.sol\":2624:2667  return hasRole(EMERGENCY_ADMIN_ROLE, admin) */\n      swap1\n      pop\n        /* \"contracts/protocol/configuration/ACLManager.sol\":2538:2673  function isEmergencyAdmin(address admin) external view override returns (bool) {... */\n      swap2\n      swap1\n      pop\n      jump\t// out\n        /* \"contracts/protocol/configuration/ACLManager.sol\":3304:3423  function removeFlashBorrower(address borrower) external override {... */\n    tag_83:\n        /* \"contracts/protocol/configuration/ACLManager.sol\":3376:3417  revokeRole(FLASH_BORROWER_ROLE, borrower) */\n      tag_183\n        /* \"contracts/protocol/configuration/ACLManager.sol\":859:886  keccak256('FLASH_BORROWER') */\n      0x939b8dfb57ecef2aea54a93a15e86768b9d4089f1ba61c245e6ec980695f4ca4\n        /* \"contracts/protocol/configuration/ACLManager.sol\":3408:3416  borrower */\n      dup3\n        /* \"contracts/protocol/configuration/ACLManager.sol\":3376:3386  revokeRole */\n      tag_151\n        /* \"contracts/protocol/configuration/ACLManager.sol\":3376:3417  revokeRole(FLASH_BORROWER_ROLE, borrower) */\n      jump\t// in\n    tag_183:\n        /* \"contracts/protocol/configuration/ACLManager.sol\":3304:3423  function removeFlashBorrower(address borrower) external override {... */\n      pop\n      jump\t// out\n        /* \"contracts/dependencies/openzeppelin/contracts/AccessControl.sol\":4141:4297  function grantRole(... */\n    tag_87:\n        /* \"contracts/dependencies/openzeppelin/contracts/AccessControl.sol\":4239:4257  getRoleAdmin(role) */\n      tag_184\n        /* \"contracts/dependencies/openzeppelin/contracts/AccessControl.sol\":4252:4256  role */\n      dup3\n        /* \"contracts/dependencies/openzeppelin/contracts/AccessControl.sol\":4239:4251  getRoleAdmin */\n      tag_74\n        /* \"contracts/dependencies/openzeppelin/contracts/AccessControl.sol\":4239:4257  getRoleAdmin(role) */\n      jump\t// in\n    tag_184:\n        /* \"contracts/dependencies/openzeppelin/contracts/AccessControl.sol\":2421:2451  _checkRole(role, _msgSender()) */\n      tag_186\n        /* \"contracts/dependencies/openzeppelin/contracts/AccessControl.sol\":2432:2436  role */\n      dup2\n        /* \"contracts/dependencies/openzeppelin/contracts/AccessControl.sol\":2438:2450  _msgSender() */\n      tag_187\n        /* \"contracts/dependencies/openzeppelin/contracts/AccessControl.sol\":2438:2448  _msgSender */\n      tag_172\n        /* \"contracts/dependencies/openzeppelin/contracts/AccessControl.sol\":2438:2450  _msgSender() */\n      jump\t// in\n    tag_187:\n        /* \"contracts/dependencies/openzeppelin/contracts/AccessControl.sol\":2421:2431  _checkRole */\n      tag_173\n        /* \"contracts/dependencies/openzeppelin/contracts/AccessControl.sol\":2421:2451  _checkRole(role, _msgSender()) */\n      jump\t// in\n    tag_186:\n        /* \"contracts/dependencies/openzeppelin/contracts/AccessControl.sol\":4266:4291  _grantRole(role, account) */\n      tag_189\n        /* \"contracts/dependencies/openzeppelin/contracts/AccessControl.sol\":4277:4281  role */\n      dup4\n        /* \"contracts/dependencies/openzeppelin/contracts/AccessControl.sol\":4283:4290  account */\n      dup4\n        /* \"contracts/dependencies/openzeppelin/contracts/AccessControl.sol\":4266:4276  _grantRole */\n      tag_190\n        /* \"contracts/dependencies/openzeppelin/contracts/AccessControl.sol\":4266:4291  _grantRole(role, account) */\n      jump\t// in\n    tag_189:\n        /* \"contracts/dependencies/openzeppelin/contracts/AccessControl.sol\":4141:4297  function grantRole(... */\n      pop\n      pop\n      pop\n      jump\t// out\n        /* \"contracts/dependencies/openzeppelin/contracts/AccessControl.sol\":5157:5365  function renounceRole(bytes32 role, address account) public virtual override {... */\n    tag_90:\n        /* \"contracts/dependencies/openzeppelin/contracts/AccessControl.sol\":5260:5272  _msgSender() */\n      tag_192\n        /* \"contracts/dependencies/openzeppelin/contracts/AccessControl.sol\":5260:5270  _msgSender */\n      tag_172\n        /* \"contracts/dependencies/openzeppelin/contracts/AccessControl.sol\":5260:5272  _msgSender() */\n      jump\t// in\n    tag_192:\n        /* \"contracts/dependencies/openzeppelin/contracts/AccessControl.sol\":5249:5272  account == _msgSender() */\n      0xffffffffffffffffffffffffffffffffffffffff\n      and\n        /* \"contracts/dependencies/openzeppelin/contracts/AccessControl.sol\":5249:5256  account */\n      dup2\n        /* \"contracts/dependencies/openzeppelin/contracts/AccessControl.sol\":5249:5272  account == _msgSender() */\n      0xffffffffffffffffffffffffffffffffffffffff\n      and\n      eq\n        /* \"contracts/dependencies/openzeppelin/contracts/AccessControl.sol\":5241:5324  require(account == _msgSender(), 'AccessControl: can only renounce roles for self') */\n      tag_193\n      jumpi\n      mload(0x40)\n      0x08c379a000000000000000000000000000000000000000000000000000000000\n      dup2\n      mstore\n      0x04\n      add\n      tag_194\n      swap1\n      tag_195\n      jump\t// in\n    tag_194:\n      mload(0x40)\n      dup1\n      swap2\n      sub\n      swap1\n      revert\n    tag_193:\n        /* \"contracts/dependencies/openzeppelin/contracts/AccessControl.sol\":5333:5359  _revokeRole(role, account) */\n      tag_196\n        /* \"contracts/dependencies/openzeppelin/contracts/AccessControl.sol\":5345:5349  role */\n      dup3\n        /* \"contracts/dependencies/openzeppelin/contracts/AccessControl.sol\":5351:5358  account */\n      dup3\n        /* \"contracts/dependencies/openzeppelin/contracts/AccessControl.sol\":5333:5344  _revokeRole */\n      tag_197\n        /* \"contracts/dependencies/openzeppelin/contracts/AccessControl.sol\":5333:5359  _revokeRole(role, account) */\n      jump\t// in\n    tag_196:\n        /* \"contracts/dependencies/openzeppelin/contracts/AccessControl.sol\":5157:5365  function renounceRole(bytes32 role, address account) public virtual override {... */\n      pop\n      pop\n      jump\t// out\n        /* \"contracts/protocol/configuration/ACLManager.sol\":2848:2953  function removeRiskAdmin(address admin) external override {... */\n    tag_93:\n        /* \"contracts/protocol/configuration/ACLManager.sol\":2913:2947  revokeRole(RISK_ADMIN_ROLE, admin) */\n      tag_199\n        /* \"contracts/protocol/configuration/ACLManager.sol\":776:799  keccak256('RISK_ADMIN') */\n      0x8aa855a911518ecfbe5bc3088c8f3dda7badf130faaf8ace33fdc33828e18167\n        /* \"contracts/protocol/configuration/ACLManager.sol\":2941:2946  admin */\n      dup3\n        /* \"contracts/protocol/configuration/ACLManager.sol\":2913:2923  revokeRole */\n      tag_151\n        /* \"contracts/protocol/configuration/ACLManager.sol\":2913:2947  revokeRole(RISK_ADMIN_ROLE, admin) */\n      jump\t// in\n    tag_199:\n        /* \"contracts/protocol/configuration/ACLManager.sol\":2848:2953  function removeRiskAdmin(address admin) external override {... */\n      pop\n      jump\t// out\n        /* \"contracts/protocol/configuration/ACLManager.sol\":725:799  bytes32 public constant override RISK_ADMIN_ROLE = keccak256('RISK_ADMIN') */\n    tag_95:\n        /* \"contracts/protocol/configuration/ACLManager.sol\":776:799  keccak256('RISK_ADMIN') */\n      0x8aa855a911518ecfbe5bc3088c8f3dda7badf130faaf8ace33fdc33828e18167\n        /* \"contracts/protocol/configuration/ACLManager.sol\":725:799  bytes32 public constant override RISK_ADMIN_ROLE = keccak256('RISK_ADMIN') */\n      dup2\n      jump\t// out\n        /* \"contracts/protocol/configuration/ACLManager.sol\":804:886  bytes32 public constant override FLASH_BORROWER_ROLE = keccak256('FLASH_BORROWER') */\n    tag_98:\n        /* \"contracts/protocol/configuration/ACLManager.sol\":859:886  keccak256('FLASH_BORROWER') */\n      0x939b8dfb57ecef2aea54a93a15e86768b9d4089f1ba61c245e6ec980695f4ca4\n        /* \"contracts/protocol/configuration/ACLManager.sol\":804:886  bytes32 public constant override FLASH_BORROWER_ROLE = keccak256('FLASH_BORROWER') */\n      dup2\n      jump\t// out\n        /* \"contracts/protocol/configuration/ACLManager.sol\":2710:2811  function addRiskAdmin(address admin) external override {... */\n    tag_102:\n        /* \"contracts/protocol/configuration/ACLManager.sol\":2772:2805  grantRole(RISK_ADMIN_ROLE, admin) */\n      tag_201\n        /* \"contracts/protocol/configuration/ACLManager.sol\":776:799  keccak256('RISK_ADMIN') */\n      0x8aa855a911518ecfbe5bc3088c8f3dda7badf130faaf8ace33fdc33828e18167\n        /* \"contracts/protocol/configuration/ACLManager.sol\":2799:2804  admin */\n      dup3\n        /* \"contracts/protocol/configuration/ACLManager.sol\":2772:2781  grantRole */\n      tag_87\n        /* \"contracts/protocol/configuration/ACLManager.sol\":2772:2805  grantRole(RISK_ADMIN_ROLE, admin) */\n      jump\t// in\n    tag_201:\n        /* \"contracts/protocol/configuration/ACLManager.sol\":2710:2811  function addRiskAdmin(address admin) external override {... */\n      pop\n      jump\t// out\n        /* \"contracts/protocol/configuration/ACLManager.sol\":2990:3115  function isRiskAdmin(address admin) external view override returns (bool) {... */\n    tag_105:\n        /* \"contracts/protocol/configuration/ACLManager.sol\":3058:3062  bool */\n      0x00\n        /* \"contracts/protocol/configuration/ACLManager.sol\":3078:3109  hasRole(RISK_ADMIN_ROLE, admin) */\n      tag_203\n        /* \"contracts/protocol/configuration/ACLManager.sol\":776:799  keccak256('RISK_ADMIN') */\n      0x8aa855a911518ecfbe5bc3088c8f3dda7badf130faaf8ace33fdc33828e18167\n        /* \"contracts/protocol/configuration/ACLManager.sol\":3103:3108  admin */\n      dup4\n        /* \"contracts/protocol/configuration/ACLManager.sol\":3078:3085  hasRole */\n      tag_126\n        /* \"contracts/protocol/configuration/ACLManager.sol\":3078:3109  hasRole(RISK_ADMIN_ROLE, admin) */\n      jump\t// in\n    tag_203:\n        /* \"contracts/protocol/configuration/ACLManager.sol\":3071:3109  return hasRole(RISK_ADMIN_ROLE, admin) */\n      swap1\n      pop\n        /* \"contracts/protocol/configuration/ACLManager.sol\":2990:3115  function isRiskAdmin(address admin) external view override returns (bool) {... */\n      swap2\n      swap1\n      pop\n      jump\t// out\n        /* \"contracts/protocol/configuration/ACLManager.sol\":636:720  bytes32 public constant override EMERGENCY_ADMIN_ROLE = keccak256('EMERGENCY_ADMIN') */\n    tag_108:\n        /* \"contracts/protocol/configuration/ACLManager.sol\":692:720  keccak256('EMERGENCY_ADMIN') */\n      0x5c91514091af31f62f596a314af7d5be40146b2f2355969392f055e12e0982fb\n        /* \"contracts/protocol/configuration/ACLManager.sol\":636:720  bytes32 public constant override EMERGENCY_ADMIN_ROLE = keccak256('EMERGENCY_ADMIN') */\n      dup2\n      jump\t// out\n        /* \"contracts/protocol/configuration/ACLManager.sol\":3906:4026  function isBridge(address bridge) external view override returns (bool) {... */\n    tag_112:\n        /* \"contracts/protocol/configuration/ACLManager.sol\":3972:3976  bool */\n      0x00\n        /* \"contracts/protocol/configuration/ACLManager.sol\":3992:4020  hasRole(BRIDGE_ROLE, bridge) */\n      tag_205\n        /* \"contracts/protocol/configuration/ACLManager.sol\":938:957  keccak256('BRIDGE') */\n      0x08fb31c3e81624356c3314088aa971b73bcc82d22bc3e3b184b4593077ae3278\n        /* \"contracts/protocol/configuration/ACLManager.sol\":4013:4019  bridge */\n      dup4\n        /* \"contracts/protocol/configuration/ACLManager.sol\":3992:3999  hasRole */\n      tag_126\n        /* \"contracts/protocol/configuration/ACLManager.sol\":3992:4020  hasRole(BRIDGE_ROLE, bridge) */\n      jump\t// in\n    tag_205:\n        /* \"contracts/protocol/configuration/ACLManager.sol\":3985:4020  return hasRole(BRIDGE_ROLE, bridge) */\n      swap1\n      pop\n        /* \"contracts/protocol/configuration/ACLManager.sol\":3906:4026  function isBridge(address bridge) external view override returns (bool) {... */\n      swap2\n      swap1\n      pop\n      jump\t// out\n        /* \"contracts/protocol/configuration/ACLManager.sol\":962:1054  bytes32 public constant override ASSET_LISTING_ADMIN_ROLE = keccak256('ASSET_LISTING_ADMIN') */\n    tag_115:\n        /* \"contracts/protocol/configuration/ACLManager.sol\":1022:1054  keccak256('ASSET_LISTING_ADMIN') */\n      0x19c860a63258efbd0ecb7d55c626237bf5c2044c26c073390b74f0c13c857433\n        /* \"contracts/protocol/configuration/ACLManager.sol\":962:1054  bytes32 public constant override ASSET_LISTING_ADMIN_ROLE = keccak256('ASSET_LISTING_ADMIN') */\n      dup2\n      jump\t// out\n        /* \"contracts/protocol/configuration/ACLManager.sol\":2386:2501  function removeEmergencyAdmin(address admin) external override {... */\n    tag_119:\n        /* \"contracts/protocol/configuration/ACLManager.sol\":2456:2495  revokeRole(EMERGENCY_ADMIN_ROLE, admin) */\n      tag_207\n        /* \"contracts/protocol/configuration/ACLManager.sol\":692:720  keccak256('EMERGENCY_ADMIN') */\n      0x5c91514091af31f62f596a314af7d5be40146b2f2355969392f055e12e0982fb\n        /* \"contracts/protocol/configuration/ACLManager.sol\":2489:2494  admin */\n      dup3\n        /* \"contracts/protocol/configuration/ACLManager.sol\":2456:2466  revokeRole */\n      tag_151\n        /* \"contracts/protocol/configuration/ACLManager.sol\":2456:2495  revokeRole(EMERGENCY_ADMIN_ROLE, admin) */\n      jump\t// in\n    tag_207:\n        /* \"contracts/protocol/configuration/ACLManager.sol\":2386:2501  function removeEmergencyAdmin(address admin) external override {... */\n      pop\n      jump\t// out\n        /* \"contracts/protocol/configuration/ACLManager.sol\":2076:2201  function isPoolAdmin(address admin) external view override returns (bool) {... */\n    tag_122:\n        /* \"contracts/protocol/configuration/ACLManager.sol\":2144:2148  bool */\n      0x00\n        /* \"contracts/protocol/configuration/ACLManager.sol\":2164:2195  hasRole(POOL_ADMIN_ROLE, admin) */\n      tag_209\n        /* \"contracts/protocol/configuration/ACLManager.sol\":608:631  keccak256('POOL_ADMIN') */\n      0x12ad05bde78c5ab75238ce885307f96ecd482bb402ef831f99e7018a0f169b7b\n        /* \"contracts/protocol/configuration/ACLManager.sol\":2189:2194  admin */\n      dup4\n        /* \"contracts/protocol/configuration/ACLManager.sol\":2164:2171  hasRole */\n      tag_126\n        /* \"contracts/protocol/configuration/ACLManager.sol\":2164:2195  hasRole(POOL_ADMIN_ROLE, admin) */\n      jump\t// in\n    tag_209:\n        /* \"contracts/protocol/configuration/ACLManager.sol\":2157:2195  return hasRole(POOL_ADMIN_ROLE, admin) */\n      swap1\n      pop\n        /* \"contracts/protocol/configuration/ACLManager.sol\":2076:2201  function isPoolAdmin(address admin) external view override returns (bool) {... */\n      swap2\n      swap1\n      pop\n      jump\t// out\n        /* \"contracts/dependencies/openzeppelin/contracts/AccessControl.sol\":2811:2944  function hasRole(bytes32 role, address account) public view override returns (bool) {... */\n    tag_126:\n        /* \"contracts/dependencies/openzeppelin/contracts/AccessControl.sol\":2889:2893  bool */\n      0x00\n        /* \"contracts/dependencies/openzeppelin/contracts/AccessControl.sol\":2909:2915  _roles */\n      dup1\n        /* \"contracts/dependencies/openzeppelin/contracts/AccessControl.sol\":2909:2921  _roles[role] */\n      0x00\n        /* \"contracts/dependencies/openzeppelin/contracts/AccessControl.sol\":2916:2920  role */\n      dup5\n        /* \"contracts/dependencies/openzeppelin/contracts/AccessControl.sol\":2909:2921  _roles[role] */\n      dup2\n      mstore\n      0x20\n      add\n      swap1\n      dup2\n      mstore\n      0x20\n      add\n      0x00\n      keccak256\n        /* \"contracts/dependencies/openzeppelin/contracts/AccessControl.sol\":2909:2929  _roles[role].members */\n      0x00\n      add\n        /* \"contracts/dependencies/openzeppelin/contracts/AccessControl.sol\":2909:2938  _roles[role].members[account] */\n      0x00\n        /* \"contracts/dependencies/openzeppelin/contracts/AccessControl.sol\":2930:2937  account */\n      dup4\n        /* \"contracts/dependencies/openzeppelin/contracts/AccessControl.sol\":2909:2938  _roles[role].members[account] */\n      0xffffffffffffffffffffffffffffffffffffffff\n      and\n      0xffffffffffffffffffffffffffffffffffffffff\n      and\n      dup2\n      mstore\n      0x20\n      add\n      swap1\n      dup2\n      mstore\n      0x20\n      add\n      0x00\n      keccak256\n      0x00\n      swap1\n      sload\n      swap1\n      0x0100\n      exp\n      swap1\n      div\n      0xff\n      and\n        /* \"contracts/dependencies/openzeppelin/contracts/AccessControl.sol\":2902:2938  return _roles[role].members[account] */\n      swap1\n      pop\n        /* \"contracts/dependencies/openzeppelin/contracts/AccessControl.sol\":2811:2944  function hasRole(bytes32 role, address account) public view override returns (bool) {... */\n      swap3\n      swap2\n      pop\n      pop\n      jump\t// out\n        /* \"contracts/protocol/configuration/ACLManager.sol\":3636:3732  function addBridge(address bridge) external override {... */\n    tag_130:\n        /* \"contracts/protocol/configuration/ACLManager.sol\":3696:3726  grantRole(BRIDGE_ROLE, bridge) */\n      tag_212\n        /* \"contracts/protocol/configuration/ACLManager.sol\":938:957  keccak256('BRIDGE') */\n      0x08fb31c3e81624356c3314088aa971b73bcc82d22bc3e3b184b4593077ae3278\n        /* \"contracts/protocol/configuration/ACLManager.sol\":3719:3725  bridge */\n      dup3\n        /* \"contracts/protocol/configuration/ACLManager.sol\":3696:3705  grantRole */\n      tag_87\n        /* \"contracts/protocol/configuration/ACLManager.sol\":3696:3726  grantRole(BRIDGE_ROLE, bridge) */\n      jump\t// in\n    tag_212:\n        /* \"contracts/protocol/configuration/ACLManager.sol\":3636:3732  function addBridge(address bridge) external override {... */\n      pop\n      jump\t// out\n        /* \"contracts/protocol/configuration/ACLManager.sol\":4063:4181  function addAssetListingAdmin(address admin) external override {... */\n    tag_133:\n        /* \"contracts/protocol/configuration/ACLManager.sol\":4133:4175  grantRole(ASSET_LISTING_ADMIN_ROLE, admin) */\n      tag_214\n        /* \"contracts/protocol/configuration/ACLManager.sol\":1022:1054  keccak256('ASSET_LISTING_ADMIN') */\n      0x19c860a63258efbd0ecb7d55c626237bf5c2044c26c073390b74f0c13c857433\n        /* \"contracts/protocol/configuration/ACLManager.sol\":4169:4174  admin */\n      dup3\n        /* \"contracts/protocol/configuration/ACLManager.sol\":4133:4142  grantRole */\n      tag_87\n        /* \"contracts/protocol/configuration/ACLManager.sol\":4133:4175  grantRole(ASSET_LISTING_ADMIN_ROLE, admin) */\n      jump\t// in\n    tag_214:\n        /* \"contracts/protocol/configuration/ACLManager.sol\":4063:4181  function addAssetListingAdmin(address admin) external override {... */\n      pop\n      jump\t// out\n        /* \"contracts/protocol/configuration/ACLManager.sol\":3152:3267  function addFlashBorrower(address borrower) external override {... */\n    tag_136:\n        /* \"contracts/protocol/configuration/ACLManager.sol\":3221:3261  grantRole(FLASH_BORROWER_ROLE, borrower) */\n      tag_216\n        /* \"contracts/protocol/configuration/ACLManager.sol\":859:886  keccak256('FLASH_BORROWER') */\n      0x939b8dfb57ecef2aea54a93a15e86768b9d4089f1ba61c245e6ec980695f4ca4\n        /* \"contracts/protocol/configuration/ACLManager.sol\":3252:3260  borrower */\n      dup3\n        /* \"contracts/protocol/configuration/ACLManager.sol\":3221:3230  grantRole */\n      tag_87\n        /* \"contracts/protocol/configuration/ACLManager.sol\":3221:3261  grantRole(FLASH_BORROWER_ROLE, borrower) */\n      jump\t// in\n    tag_216:\n        /* \"contracts/protocol/configuration/ACLManager.sol\":3152:3267  function addFlashBorrower(address borrower) external override {... */\n      pop\n      jump\t// out\n        /* \"contracts/dependencies/openzeppelin/contracts/AccessControl.sol\":1956:2005  bytes32 public constant DEFAULT_ADMIN_ROLE = 0x00 */\n    tag_138:\n        /* \"contracts/dependencies/openzeppelin/contracts/AccessControl.sol\":2001:2005  0x00 */\n      0x00\n        /* \"contracts/dependencies/openzeppelin/contracts/AccessControl.sol\":1956:2005  bytes32 public constant DEFAULT_ADMIN_ROLE = 0x00 */\n      dup1\n      shl\n      dup2\n      jump\t// out\n        /* \"contracts/protocol/configuration/ACLManager.sol\":4218:4340  function removeAssetListingAdmin(address admin) external override {... */\n    tag_142:\n        /* \"contracts/protocol/configuration/ACLManager.sol\":4291:4334  revokeRole(ASSET_LISTING_ADMIN_ROLE, admin) */\n      tag_218\n        /* \"contracts/protocol/configuration/ACLManager.sol\":1022:1054  keccak256('ASSET_LISTING_ADMIN') */\n      0x19c860a63258efbd0ecb7d55c626237bf5c2044c26c073390b74f0c13c857433\n        /* \"contracts/protocol/configuration/ACLManager.sol\":4328:4333  admin */\n      dup3\n        /* \"contracts/protocol/configuration/ACLManager.sol\":4291:4301  revokeRole */\n      tag_151\n        /* \"contracts/protocol/configuration/ACLManager.sol\":4291:4334  revokeRole(ASSET_LISTING_ADMIN_ROLE, admin) */\n      jump\t// in\n    tag_218:\n        /* \"contracts/protocol/configuration/ACLManager.sol\":4218:4340  function removeAssetListingAdmin(address admin) external override {... */\n      pop\n      jump\t// out\n        /* \"contracts/protocol/configuration/ACLManager.sol\":891:957  bytes32 public constant override BRIDGE_ROLE = keccak256('BRIDGE') */\n    tag_144:\n        /* \"contracts/protocol/configuration/ACLManager.sol\":938:957  keccak256('BRIDGE') */\n      0x08fb31c3e81624356c3314088aa971b73bcc82d22bc3e3b184b4593077ae3278\n        /* \"contracts/protocol/configuration/ACLManager.sol\":891:957  bytes32 public constant override BRIDGE_ROLE = keccak256('BRIDGE') */\n      dup2\n      jump\t// out\n        /* \"contracts/protocol/configuration/ACLManager.sol\":557:631  bytes32 public constant override POOL_ADMIN_ROLE = keccak256('POOL_ADMIN') */\n    tag_147:\n        /* \"contracts/protocol/configuration/ACLManager.sol\":608:631  keccak256('POOL_ADMIN') */\n      0x12ad05bde78c5ab75238ce885307f96ecd482bb402ef831f99e7018a0f169b7b\n        /* \"contracts/protocol/configuration/ACLManager.sol\":557:631  bytes32 public constant override POOL_ADMIN_ROLE = keccak256('POOL_ADMIN') */\n      dup2\n      jump\t// out\n        /* \"contracts/dependencies/openzeppelin/contracts/AccessControl.sol\":4522:4680  function revokeRole(... */\n    tag_151:\n        /* \"contracts/dependencies/openzeppelin/contracts/AccessControl.sol\":4621:4639  getRoleAdmin(role) */\n      tag_219\n        /* \"contracts/dependencies/openzeppelin/contracts/AccessControl.sol\":4634:4638  role */\n      dup3\n        /* \"contracts/dependencies/openzeppelin/contracts/AccessControl.sol\":4621:4633  getRoleAdmin */\n      tag_74\n        /* \"contracts/dependencies/openzeppelin/contracts/AccessControl.sol\":4621:4639  getRoleAdmin(role) */\n      jump\t// in\n    tag_219:\n        /* \"contracts/dependencies/openzeppelin/contracts/AccessControl.sol\":2421:2451  _checkRole(role, _msgSender()) */\n      tag_221\n        /* \"contracts/dependencies/openzeppelin/contracts/AccessControl.sol\":2432:2436  role */\n      dup2\n        /* \"contracts/dependencies/openzeppelin/contracts/AccessControl.sol\":2438:2450  _msgSender() */\n      tag_222\n        /* \"contracts/dependencies/openzeppelin/contracts/AccessControl.sol\":2438:2448  _msgSender */\n      tag_172\n        /* \"contracts/dependencies/openzeppelin/contracts/AccessControl.sol\":2438:2450  _msgSender() */\n      jump\t// in\n    tag_222:\n        /* \"contracts/dependencies/openzeppelin/contracts/AccessControl.sol\":2421:2431  _checkRole */\n      tag_173\n        /* \"contracts/dependencies/openzeppelin/contracts/AccessControl.sol\":2421:2451  _checkRole(role, _msgSender()) */\n      jump\t// in\n    tag_221:\n        /* \"contracts/dependencies/openzeppelin/contracts/AccessControl.sol\":4648:4674  _revokeRole(role, account) */\n      tag_224\n        /* \"contracts/dependencies/openzeppelin/contracts/AccessControl.sol\":4660:4664  role */\n      dup4\n        /* \"contracts/dependencies/openzeppelin/contracts/AccessControl.sol\":4666:4673  account */\n      dup4\n        /* \"contracts/dependencies/openzeppelin/contracts/AccessControl.sol\":4648:4659  _revokeRole */\n      tag_197\n        /* \"contracts/dependencies/openzeppelin/contracts/AccessControl.sol\":4648:4674  _revokeRole(role, account) */\n      jump\t// in\n    tag_224:\n        /* \"contracts/dependencies/openzeppelin/contracts/AccessControl.sol\":4522:4680  function revokeRole(... */\n      pop\n      pop\n      pop\n      jump\t// out\n        /* \"contracts/protocol/configuration/ACLManager.sol\":1934:2039  function removePoolAdmin(address admin) external override {... */\n    tag_154:\n        /* \"contracts/protocol/configuration/ACLManager.sol\":1999:2033  revokeRole(POOL_ADMIN_ROLE, admin) */\n      tag_226\n        /* \"contracts/protocol/configuration/ACLManager.sol\":608:631  keccak256('POOL_ADMIN') */\n      0x12ad05bde78c5ab75238ce885307f96ecd482bb402ef831f99e7018a0f169b7b\n        /* \"contracts/protocol/configuration/ACLManager.sol\":2027:2032  admin */\n      dup3\n        /* \"contracts/protocol/configuration/ACLManager.sol\":1999:2009  revokeRole */\n      tag_151\n        /* \"contracts/protocol/configuration/ACLManager.sol\":1999:2033  revokeRole(POOL_ADMIN_ROLE, admin) */\n      jump\t// in\n    tag_226:\n        /* \"contracts/protocol/configuration/ACLManager.sol\":1934:2039  function removePoolAdmin(address admin) external override {... */\n      pop\n      jump\t// out\n        /* \"contracts/protocol/configuration/ACLManager.sol\":3460:3599  function isFlashBorrower(address borrower) external view override returns (bool) {... */\n    tag_157:\n        /* \"contracts/protocol/configuration/ACLManager.sol\":3535:3539  bool */\n      0x00\n        /* \"contracts/protocol/configuration/ACLManager.sol\":3555:3593  hasRole(FLASH_BORROWER_ROLE, borrower) */\n      tag_228\n        /* \"contracts/protocol/configuration/ACLManager.sol\":859:886  keccak256('FLASH_BORROWER') */\n      0x939b8dfb57ecef2aea54a93a15e86768b9d4089f1ba61c245e6ec980695f4ca4\n        /* \"contracts/protocol/configuration/ACLManager.sol\":3584:3592  borrower */\n      dup4\n        /* \"contracts/protocol/configuration/ACLManager.sol\":3555:3562  hasRole */\n      tag_126\n        /* \"contracts/protocol/configuration/ACLManager.sol\":3555:3593  hasRole(FLASH_BORROWER_ROLE, borrower) */\n      jump\t// in\n    tag_228:\n        /* \"contracts/protocol/configuration/ACLManager.sol\":3548:3593  return hasRole(FLASH_BORROWER_ROLE, borrower) */\n      swap1\n      pop\n        /* \"contracts/protocol/configuration/ACLManager.sol\":3460:3599  function isFlashBorrower(address borrower) external view override returns (bool) {... */\n      swap2\n      swap1\n      pop\n      jump\t// out\n        /* \"contracts/dependencies/openzeppelin/contracts/ERC165.sol\":779:930  function supportsInterface(bytes4 interfaceId) public view virtual override returns (bool) {... */\n    tag_162:\n        /* \"contracts/dependencies/openzeppelin/contracts/ERC165.sol\":864:868  bool */\n      0x00\n        /* \"contracts/dependencies/openzeppelin/contracts/ERC165.sol\":899:924  type(IERC165).interfaceId */\n      0x01ffc9a700000000000000000000000000000000000000000000000000000000\n        /* \"contracts/dependencies/openzeppelin/contracts/ERC165.sol\":884:924  interfaceId == type(IERC165).interfaceId */\n      not(0xffffffffffffffffffffffffffffffffffffffffffffffffffffffff)\n      and\n        /* \"contracts/dependencies/openzeppelin/contracts/ERC165.sol\":884:895  interfaceId */\n      dup3\n        /* \"contracts/dependencies/openzeppelin/contracts/ERC165.sol\":884:924  interfaceId == type(IERC165).interfaceId */\n      not(0xffffffffffffffffffffffffffffffffffffffffffffffffffffffff)\n      and\n      eq\n        /* \"contracts/dependencies/openzeppelin/contracts/ERC165.sol\":877:924  return interfaceId == type(IERC165).interfaceId */\n      swap1\n      pop\n        /* \"contracts/dependencies/openzeppelin/contracts/ERC165.sol\":779:930  function supportsInterface(bytes4 interfaceId) public view virtual override returns (bool) {... */\n      swap2\n      swap1\n      pop\n      jump\t// out\n        /* \"contracts/dependencies/openzeppelin/contracts/Context.sol\":601:710  function _msgSender() internal view virtual returns (address payable) {... */\n    tag_172:\n        /* \"contracts/dependencies/openzeppelin/contracts/Context.sol\":654:669  address payable */\n      0x00\n        /* \"contracts/dependencies/openzeppelin/contracts/Context.sol\":693:703  msg.sender */\n      caller\n        /* \"contracts/dependencies/openzeppelin/contracts/Context.sol\":678:704  return payable(msg.sender) */\n      swap1\n      pop\n        /* \"contracts/dependencies/openzeppelin/contracts/Context.sol\":601:710  function _msgSender() internal view virtual returns (address payable) {... */\n      swap1\n      jump\t// out\n        /* \"contracts/dependencies/openzeppelin/contracts/AccessControl.sol\":3218:3609  function _checkRole(bytes32 role, address account) internal view {... */\n    tag_173:\n        /* \"contracts/dependencies/openzeppelin/contracts/AccessControl.sol\":3295:3317  hasRole(role, account) */\n      tag_232\n        /* \"contracts/dependencies/openzeppelin/contracts/AccessControl.sol\":3303:3307  role */\n      dup3\n        /* \"contracts/dependencies/openzeppelin/contracts/AccessControl.sol\":3309:3316  account */\n      dup3\n        /* \"contracts/dependencies/openzeppelin/contracts/AccessControl.sol\":3295:3302  hasRole */\n      tag_126\n        /* \"contracts/dependencies/openzeppelin/contracts/AccessControl.sol\":3295:3317  hasRole(role, account) */\n      jump\t// in\n    tag_232:\n        /* \"contracts/dependencies/openzeppelin/contracts/AccessControl.sol\":3290:3604  if (!hasRole(role, account)) {... */\n      tag_233\n      jumpi\n        /* \"contracts/dependencies/openzeppelin/contracts/AccessControl.sol\":3435:3476  Strings.toHexString(uint160(account), 20) */\n      tag_234\n        /* \"contracts/dependencies/openzeppelin/contracts/AccessControl.sol\":3463:3470  account */\n      dup2\n        /* \"contracts/dependencies/openzeppelin/contracts/AccessControl.sol\":3435:3476  Strings.toHexString(uint160(account), 20) */\n      0xffffffffffffffffffffffffffffffffffffffff\n      and\n        /* \"contracts/dependencies/openzeppelin/contracts/AccessControl.sol\":3473:3475  20 */\n      0x14\n        /* \"contracts/dependencies/openzeppelin/contracts/AccessControl.sol\":3435:3454  Strings.toHexString */\n      tag_235\n        /* \"contracts/dependencies/openzeppelin/contracts/AccessControl.sol\":3435:3476  Strings.toHexString(uint160(account), 20) */\n      jump\t// in\n    tag_234:\n        /* \"contracts/dependencies/openzeppelin/contracts/AccessControl.sol\":3525:3563  Strings.toHexString(uint256(role), 32) */\n      tag_236\n        /* \"contracts/dependencies/openzeppelin/contracts/AccessControl.sol\":3553:3557  role */\n      dup4\n        /* \"contracts/dependencies/openzeppelin/contracts/AccessControl.sol\":3545:3558  uint256(role) */\n      0x00\n      shr\n        /* \"contracts/dependencies/openzeppelin/contracts/AccessControl.sol\":3560:3562  32 */\n      0x20\n        /* \"contracts/dependencies/openzeppelin/contracts/AccessControl.sol\":3525:3544  Strings.toHexString */\n      tag_235\n        /* \"contracts/dependencies/openzeppelin/contracts/AccessControl.sol\":3525:3563  Strings.toHexString(uint256(role), 32) */\n      jump\t// in\n    tag_236:\n        /* \"contracts/dependencies/openzeppelin/contracts/AccessControl.sol\":3364:3576  abi.encodePacked(... */\n      add(0x20, mload(0x40))\n      tag_237\n      swap3\n      swap2\n      swap1\n      tag_238\n      jump\t// in\n    tag_237:\n      mload(0x40)\n      0x20\n      dup2\n      dup4\n      sub\n      sub\n      dup2\n      mstore\n      swap1\n      0x40\n      mstore\n        /* \"contracts/dependencies/openzeppelin/contracts/AccessControl.sol\":3328:3596  revert(... */\n      mload(0x40)\n      0x08c379a000000000000000000000000000000000000000000000000000000000\n      dup2\n      mstore\n      0x04\n      add\n      tag_239\n      swap2\n      swap1\n      tag_240\n      jump\t// in\n    tag_239:\n      mload(0x40)\n      dup1\n      swap2\n      sub\n      swap1\n      revert\n        /* \"contracts/dependencies/openzeppelin/contracts/AccessControl.sol\":3290:3604  if (!hasRole(role, account)) {... */\n    tag_233:\n        /* \"contracts/dependencies/openzeppelin/contracts/AccessControl.sol\":3218:3609  function _checkRole(bytes32 role, address account) internal view {... */\n      pop\n      pop\n      jump\t// out\n        /* \"contracts/dependencies/openzeppelin/contracts/AccessControl.sol\":6140:6377  function _setRoleAdmin(bytes32 role, bytes32 adminRole) internal virtual {... */\n    tag_176:\n        /* \"contracts/dependencies/openzeppelin/contracts/AccessControl.sol\":6220:6245  bytes32 previousAdminRole */\n      0x00\n        /* \"contracts/dependencies/openzeppelin/contracts/AccessControl.sol\":6248:6266  getRoleAdmin(role) */\n      tag_242\n        /* \"contracts/dependencies/openzeppelin/contracts/AccessControl.sol\":6261:6265  role */\n      dup4\n        /* \"contracts/dependencies/openzeppelin/contracts/AccessControl.sol\":6248:6260  getRoleAdmin */\n      tag_74\n        /* \"contracts/dependencies/openzeppelin/contracts/AccessControl.sol\":6248:6266  getRoleAdmin(role) */\n      jump\t// in\n    tag_242:\n        /* \"contracts/dependencies/openzeppelin/contracts/AccessControl.sol\":6220:6266  bytes32 previousAdminRole = getRoleAdmin(role) */\n      swap1\n      pop\n        /* \"contracts/dependencies/openzeppelin/contracts/AccessControl.sol\":6298:6307  adminRole */\n      dup2\n        /* \"contracts/dependencies/openzeppelin/contracts/AccessControl.sol\":6273:6279  _roles */\n      0x00\n        /* \"contracts/dependencies/openzeppelin/contracts/AccessControl.sol\":6273:6285  _roles[role] */\n      dup1\n        /* \"contracts/dependencies/openzeppelin/contracts/AccessControl.sol\":6280:6284  role */\n      dup6\n        /* \"contracts/dependencies/openzeppelin/contracts/AccessControl.sol\":6273:6285  _roles[role] */\n      dup2\n      mstore\n      0x20\n      add\n      swap1\n      dup2\n      mstore\n      0x20\n      add\n      0x00\n      keccak256\n        /* \"contracts/dependencies/openzeppelin/contracts/AccessControl.sol\":6273:6295  _roles[role].adminRole */\n      0x01\n      add\n        /* \"contracts/dependencies/openzeppelin/contracts/AccessControl.sol\":6273:6307  _roles[role].adminRole = adminRole */\n      dup2\n      swap1\n      sstore\n      pop\n        /* \"contracts/dependencies/openzeppelin/contracts/AccessControl.sol\":6361:6370  adminRole */\n      dup2\n        /* \"contracts/dependencies/openzeppelin/contracts/AccessControl.sol\":6342:6359  previousAdminRole */\n      dup2\n        /* \"contracts/dependencies/openzeppelin/contracts/AccessControl.sol\":6336:6340  role */\n      dup5\n        /* \"contracts/dependencies/openzeppelin/contracts/AccessControl.sol\":6319:6371  RoleAdminChanged(role, previousAdminRole, adminRole) */\n      0xbd79b86ffe0ab8e8776151514217cd7cacd52c909f66475c3af44e129f0b00ff\n      mload(0x40)\n      mload(0x40)\n      dup1\n      swap2\n      sub\n      swap1\n      log4\n        /* \"contracts/dependencies/openzeppelin/contracts/AccessControl.sol\":6213:6377  {... */\n      pop\n        /* \"contracts/dependencies/openzeppelin/contracts/AccessControl.sol\":6140:6377  function _setRoleAdmin(bytes32 role, bytes32 adminRole) internal virtual {... */\n      pop\n      pop\n      jump\t// out\n        /* \"contracts/dependencies/openzeppelin/contracts/AccessControl.sol\":6383:6590  function _grantRole(bytes32 role, address account) private {... */\n    tag_190:\n        /* \"contracts/dependencies/openzeppelin/contracts/AccessControl.sol\":6454:6476  hasRole(role, account) */\n      tag_244\n        /* \"contracts/dependencies/openzeppelin/contracts/AccessControl.sol\":6462:6466  role */\n      dup3\n        /* \"contracts/dependencies/openzeppelin/contracts/AccessControl.sol\":6468:6475  account */\n      dup3\n        /* \"contracts/dependencies/openzeppelin/contracts/AccessControl.sol\":6454:6461  hasRole */\n      tag_126\n        /* \"contracts/dependencies/openzeppelin/contracts/AccessControl.sol\":6454:6476  hasRole(role, account) */\n      jump\t// in\n    tag_244:\n        /* \"contracts/dependencies/openzeppelin/contracts/AccessControl.sol\":6449:6585  if (!hasRole(role, account)) {... */\n      tag_245\n      jumpi\n        /* \"contracts/dependencies/openzeppelin/contracts/AccessControl.sol\":6519:6523  true */\n      0x01\n        /* \"contracts/dependencies/openzeppelin/contracts/AccessControl.sol\":6487:6493  _roles */\n      0x00\n        /* \"contracts/dependencies/openzeppelin/contracts/AccessControl.sol\":6487:6499  _roles[role] */\n      dup1\n        /* \"contracts/dependencies/openzeppelin/contracts/AccessControl.sol\":6494:6498  role */\n      dup5\n        /* \"contracts/dependencies/openzeppelin/contracts/AccessControl.sol\":6487:6499  _roles[role] */\n      dup2\n      mstore\n      0x20\n      add\n      swap1\n      dup2\n      mstore\n      0x20\n      add\n      0x00\n      keccak256\n        /* \"contracts/dependencies/openzeppelin/contracts/AccessControl.sol\":6487:6507  _roles[role].members */\n      0x00\n      add\n        /* \"contracts/dependencies/openzeppelin/contracts/AccessControl.sol\":6487:6516  _roles[role].members[account] */\n      0x00\n        /* \"contracts/dependencies/openzeppelin/contracts/AccessControl.sol\":6508:6515  account */\n      dup4\n        /* \"contracts/dependencies/openzeppelin/contracts/AccessControl.sol\":6487:6516  _roles[role].members[account] */\n      0xffffffffffffffffffffffffffffffffffffffff\n      and\n      0xffffffffffffffffffffffffffffffffffffffff\n      and\n      dup2\n      mstore\n      0x20\n      add\n      swap1\n      dup2\n      mstore\n      0x20\n      add\n      0x00\n      keccak256\n      0x00\n        /* \"contracts/dependencies/openzeppelin/contracts/AccessControl.sol\":6487:6523  _roles[role].members[account] = true */\n      0x0100\n      exp\n      dup2\n      sload\n      dup2\n      0xff\n      mul\n      not\n      and\n      swap1\n      dup4\n      iszero\n      iszero\n      mul\n      or\n      swap1\n      sstore\n      pop\n        /* \"contracts/dependencies/openzeppelin/contracts/AccessControl.sol\":6564:6576  _msgSender() */\n      tag_246\n        /* \"contracts/dependencies/openzeppelin/contracts/AccessControl.sol\":6564:6574  _msgSender */\n      tag_172\n        /* \"contracts/dependencies/openzeppelin/contracts/AccessControl.sol\":6564:6576  _msgSender() */\n      jump\t// in\n    tag_246:\n        /* \"contracts/dependencies/openzeppelin/contracts/AccessControl.sol\":6537:6577  RoleGranted(role, account, _msgSender()) */\n      0xffffffffffffffffffffffffffffffffffffffff\n      and\n        /* \"contracts/dependencies/openzeppelin/contracts/AccessControl.sol\":6555:6562  account */\n      dup2\n        /* \"contracts/dependencies/openzeppelin/contracts/AccessControl.sol\":6537:6577  RoleGranted(role, account, _msgSender()) */\n      0xffffffffffffffffffffffffffffffffffffffff\n      and\n        /* \"contracts/dependencies/openzeppelin/contracts/AccessControl.sol\":6549:6553  role */\n      dup4\n        /* \"contracts/dependencies/openzeppelin/contracts/AccessControl.sol\":6537:6577  RoleGranted(role, account, _msgSender()) */\n      0x2f8788117e7eff1d82e926ec794901d17c78024a50270940304540a733656f0d\n      mload(0x40)\n      mload(0x40)\n      dup1\n      swap2\n      sub\n      swap1\n      log4\n        /* \"contracts/dependencies/openzeppelin/contracts/AccessControl.sol\":6449:6585  if (!hasRole(role, account)) {... */\n    tag_245:\n        /* \"contracts/dependencies/openzeppelin/contracts/AccessControl.sol\":6383:6590  function _grantRole(bytes32 role, address account) private {... */\n      pop\n      pop\n      jump\t// out\n        /* \"contracts/dependencies/openzeppelin/contracts/AccessControl.sol\":6596:6804  function _revokeRole(bytes32 role, address account) private {... */\n    tag_197:\n        /* \"contracts/dependencies/openzeppelin/contracts/AccessControl.sol\":6667:6689  hasRole(role, account) */\n      tag_248\n        /* \"contracts/dependencies/openzeppelin/contracts/AccessControl.sol\":6675:6679  role */\n      dup3\n        /* \"contracts/dependencies/openzeppelin/contracts/AccessControl.sol\":6681:6688  account */\n      dup3\n        /* \"contracts/dependencies/openzeppelin/contracts/AccessControl.sol\":6667:6674  hasRole */\n      tag_126\n        /* \"contracts/dependencies/openzeppelin/contracts/AccessControl.sol\":6667:6689  hasRole(role, account) */\n      jump\t// in\n    tag_248:\n        /* \"contracts/dependencies/openzeppelin/contracts/AccessControl.sol\":6663:6799  if (hasRole(role, account)) {... */\n      iszero\n      tag_249\n      jumpi\n        /* \"contracts/dependencies/openzeppelin/contracts/AccessControl.sol\":6732:6737  false */\n      0x00\n        /* \"contracts/dependencies/openzeppelin/contracts/AccessControl.sol\":6700:6706  _roles */\n      dup1\n        /* \"contracts/dependencies/openzeppelin/contracts/AccessControl.sol\":6700:6712  _roles[role] */\n      0x00\n        /* \"contracts/dependencies/openzeppelin/contracts/AccessControl.sol\":6707:6711  role */\n      dup5\n        /* \"contracts/dependencies/openzeppelin/contracts/AccessControl.sol\":6700:6712  _roles[role] */\n      dup2\n      mstore\n      0x20\n      add\n      swap1\n      dup2\n      mstore\n      0x20\n      add\n      0x00\n      keccak256\n        /* \"contracts/dependencies/openzeppelin/contracts/AccessControl.sol\":6700:6720  _roles[role].members */\n      0x00\n      add\n        /* \"contracts/dependencies/openzeppelin/contracts/AccessControl.sol\":6700:6729  _roles[role].members[account] */\n      0x00\n        /* \"contracts/dependencies/openzeppelin/contracts/AccessControl.sol\":6721:6728  account */\n      dup4\n        /* \"contracts/dependencies/openzeppelin/contracts/AccessControl.sol\":6700:6729  _roles[role].members[account] */\n      0xffffffffffffffffffffffffffffffffffffffff\n      and\n      0xffffffffffffffffffffffffffffffffffffffff\n      and\n      dup2\n      mstore\n      0x20\n      add\n      swap1\n      dup2\n      mstore\n      0x20\n      add\n      0x00\n      keccak256\n      0x00\n        /* \"contracts/dependencies/openzeppelin/contracts/AccessControl.sol\":6700:6737  _roles[role].members[account] = false */\n      0x0100\n      exp\n      dup2\n      sload\n      dup2\n      0xff\n      mul\n      not\n      and\n      swap1\n      dup4\n      iszero\n      iszero\n      mul\n      or\n      swap1\n      sstore\n      pop\n        /* \"contracts/dependencies/openzeppelin/contracts/AccessControl.sol\":6778:6790  _msgSender() */\n      tag_250\n        /* \"contracts/dependencies/openzeppelin/contracts/AccessControl.sol\":6778:6788  _msgSender */\n      tag_172\n        /* \"contracts/dependencies/openzeppelin/contracts/AccessControl.sol\":6778:6790  _msgSender() */\n      jump\t// in\n    tag_250:\n        /* \"contracts/dependencies/openzeppelin/contracts/AccessControl.sol\":6751:6791  RoleRevoked(role, account, _msgSender()) */\n      0xffffffffffffffffffffffffffffffffffffffff\n      and\n        /* \"contracts/dependencies/openzeppelin/contracts/AccessControl.sol\":6769:6776  account */\n      dup2\n        /* \"contracts/dependencies/openzeppelin/contracts/AccessControl.sol\":6751:6791  RoleRevoked(role, account, _msgSender()) */\n      0xffffffffffffffffffffffffffffffffffffffff\n      and\n        /* \"contracts/dependencies/openzeppelin/contracts/AccessControl.sol\":6763:6767  role */\n      dup4\n        /* \"contracts/dependencies/openzeppelin/contracts/AccessControl.sol\":6751:6791  RoleRevoked(role, account, _msgSender()) */\n      0xf6391f5c32d9c69d2a47ea670b442974b53935d1edc7fd64eb21e047a839171b\n      mload(0x40)\n      mload(0x40)\n      dup1\n      swap2\n      sub\n      swap1\n      log4\n        /* \"contracts/dependencies/openzeppelin/contracts/AccessControl.sol\":6663:6799  if (hasRole(role, account)) {... */\n    tag_249:\n        /* \"contracts/dependencies/openzeppelin/contracts/AccessControl.sol\":6596:6804  function _revokeRole(bytes32 role, address account) private {... */\n      pop\n      pop\n      jump\t// out\n        /* \"contracts/dependencies/openzeppelin/contracts/Strings.sol\":1429:1838  function toHexString(uint256 value, uint256 length) internal pure returns (string memory) {... */\n    tag_235:\n        /* \"contracts/dependencies/openzeppelin/contracts/Strings.sol\":1504:1517  string memory */\n      0x60\n        /* \"contracts/dependencies/openzeppelin/contracts/Strings.sol\":1526:1545  bytes memory buffer */\n      0x00\n        /* \"contracts/dependencies/openzeppelin/contracts/Strings.sol\":1571:1572  2 */\n      0x02\n        /* \"contracts/dependencies/openzeppelin/contracts/Strings.sol\":1562:1568  length */\n      dup4\n        /* \"contracts/dependencies/openzeppelin/contracts/Strings.sol\":1558:1559  2 */\n      0x02\n        /* \"contracts/dependencies/openzeppelin/contracts/Strings.sol\":1558:1568  2 * length */\n      tag_252\n      swap2\n      swap1\n      tag_253\n      jump\t// in\n    tag_252:\n        /* \"contracts/dependencies/openzeppelin/contracts/Strings.sol\":1558:1572  2 * length + 2 */\n      tag_254\n      swap2\n      swap1\n      tag_255\n      jump\t// in\n    tag_254:\n        /* \"contracts/dependencies/openzeppelin/contracts/Strings.sol\":1548:1573  new bytes(2 * length + 2) */\n      0xffffffffffffffff\n      dup2\n      gt\n      iszero\n      tag_256\n      jumpi\n      tag_257\n      tag_258\n      jump\t// in\n    tag_257:\n    tag_256:\n      mload(0x40)\n      swap1\n      dup1\n      dup3\n      mstore\n      dup1\n      0x1f\n      add\n      not(0x1f)\n      and\n      0x20\n      add\n      dup3\n      add\n      0x40\n      mstore\n      dup1\n      iszero\n      tag_259\n      jumpi\n      dup2\n      0x20\n      add\n      0x01\n      dup3\n      mul\n      dup1\n      calldatasize\n      dup4\n      calldatacopy\n      dup1\n      dup3\n      add\n      swap2\n      pop\n      pop\n      swap1\n      pop\n    tag_259:\n      pop\n        /* \"contracts/dependencies/openzeppelin/contracts/Strings.sol\":1526:1573  bytes memory buffer = new bytes(2 * length + 2) */\n      swap1\n      pop\n        /* \"contracts/dependencies/openzeppelin/contracts/Strings.sol\":1580:1595  buffer[0] = '0' */\n      0x3000000000000000000000000000000000000000000000000000000000000000\n        /* \"contracts/dependencies/openzeppelin/contracts/Strings.sol\":1580:1586  buffer */\n      dup2\n        /* \"contracts/dependencies/openzeppelin/contracts/Strings.sol\":1587:1588  0 */\n      0x00\n        /* \"contracts/dependencies/openzeppelin/contracts/Strings.sol\":1580:1589  buffer[0] */\n      dup2\n      mload\n      dup2\n      lt\n      tag_260\n      jumpi\n      tag_261\n      tag_262\n      jump\t// in\n    tag_261:\n    tag_260:\n      0x20\n      add\n      add\n        /* \"contracts/dependencies/openzeppelin/contracts/Strings.sol\":1580:1595  buffer[0] = '0' */\n      swap1\n      not(0xffffffffffffffffffffffffffffffffffffffffffffffffffffffffffffff)\n      and\n      swap1\n      dup2\n      0x00\n      byte\n      swap1\n      mstore8\n      pop\n        /* \"contracts/dependencies/openzeppelin/contracts/Strings.sol\":1602:1617  buffer[1] = 'x' */\n      0x7800000000000000000000000000000000000000000000000000000000000000\n        /* \"contracts/dependencies/openzeppelin/contracts/Strings.sol\":1602:1608  buffer */\n      dup2\n        /* \"contracts/dependencies/openzeppelin/contracts/Strings.sol\":1609:1610  1 */\n      0x01\n        /* \"contracts/dependencies/openzeppelin/contracts/Strings.sol\":1602:1611  buffer[1] */\n      dup2\n      mload\n      dup2\n      lt\n      tag_263\n      jumpi\n      tag_264\n      tag_262\n      jump\t// in\n    tag_264:\n    tag_263:\n      0x20\n      add\n      add\n        /* \"contracts/dependencies/openzeppelin/contracts/Strings.sol\":1602:1617  buffer[1] = 'x' */\n      swap1\n      not(0xffffffffffffffffffffffffffffffffffffffffffffffffffffffffffffff)\n      and\n      swap1\n      dup2\n      0x00\n      byte\n      swap1\n      mstore8\n      pop\n        /* \"contracts/dependencies/openzeppelin/contracts/Strings.sol\":1629:1638  uint256 i */\n      0x00\n        /* \"contracts/dependencies/openzeppelin/contracts/Strings.sol\":1654:1655  1 */\n      0x01\n        /* \"contracts/dependencies/openzeppelin/contracts/Strings.sol\":1645:1651  length */\n      dup5\n        /* \"contracts/dependencies/openzeppelin/contracts/Strings.sol\":1641:1642  2 */\n      0x02\n        /* \"contracts/dependencies/openzeppelin/contracts/Strings.sol\":1641:1651  2 * length */\n      tag_268\n      swap2\n      swap1\n      tag_253\n      jump\t// in\n    tag_268:\n        /* \"contracts/dependencies/openzeppelin/contracts/Strings.sol\":1641:1655  2 * length + 1 */\n      tag_269\n      swap2\n      swap1\n      tag_255\n      jump\t// in\n    tag_269:\n        /* \"contracts/dependencies/openzeppelin/contracts/Strings.sol\":1629:1655  uint256 i = 2 * length + 1 */\n      swap1\n      pop\n        /* \"contracts/dependencies/openzeppelin/contracts/Strings.sol\":1624:1743  for (uint256 i = 2 * length + 1; i > 1; --i) {... */\n    tag_265:\n        /* \"contracts/dependencies/openzeppelin/contracts/Strings.sol\":1661:1662  1 */\n      0x01\n        /* \"contracts/dependencies/openzeppelin/contracts/Strings.sol\":1657:1658  i */\n      dup2\n        /* \"contracts/dependencies/openzeppelin/contracts/Strings.sol\":1657:1662  i > 1 */\n      gt\n        /* \"contracts/dependencies/openzeppelin/contracts/Strings.sol\":1624:1743  for (uint256 i = 2 * length + 1; i > 1; --i) {... */\n      iszero\n      tag_266\n      jumpi\n        /* \"contracts/dependencies/openzeppelin/contracts/Strings.sol\":1690:1702  _HEX_SYMBOLS */\n      0x3031323334353637383961626364656600000000000000000000000000000000\n        /* \"contracts/dependencies/openzeppelin/contracts/Strings.sol\":1711:1714  0xf */\n      0x0f\n        /* \"contracts/dependencies/openzeppelin/contracts/Strings.sol\":1703:1708  value */\n      dup7\n        /* \"contracts/dependencies/openzeppelin/contracts/Strings.sol\":1703:1714  value & 0xf */\n      and\n        /* \"contracts/dependencies/openzeppelin/contracts/Strings.sol\":1690:1715  _HEX_SYMBOLS[value & 0xf] */\n      0x10\n      dup2\n      lt\n      tag_270\n      jumpi\n      tag_271\n      tag_262\n      jump\t// in\n    tag_271:\n    tag_270:\n      byte\n      0xf8\n      shl\n        /* \"contracts/dependencies/openzeppelin/contracts/Strings.sol\":1678:1684  buffer */\n      dup3\n        /* \"contracts/dependencies/openzeppelin/contracts/Strings.sol\":1685:1686  i */\n      dup3\n        /* \"contracts/dependencies/openzeppelin/contracts/Strings.sol\":1678:1687  buffer[i] */\n      dup2\n      mload\n      dup2\n      lt\n      tag_272\n      jumpi\n      tag_273\n      tag_262\n      jump\t// in\n    tag_273:\n    tag_272:\n      0x20\n      add\n      add\n        /* \"contracts/dependencies/openzeppelin/contracts/Strings.sol\":1678:1715  buffer[i] = _HEX_SYMBOLS[value & 0xf] */\n      swap1\n      not(0xffffffffffffffffffffffffffffffffffffffffffffffffffffffffffffff)\n      and\n      swap1\n      dup2\n      0x00\n      byte\n      swap1\n      mstore8\n      pop\n        /* \"contracts/dependencies/openzeppelin/contracts/Strings.sol\":1734:1735  4 */\n      0x04\n        /* \"contracts/dependencies/openzeppelin/contracts/Strings.sol\":1724:1735  value >>= 4 */\n      dup6\n      swap1\n      shr\n      swap5\n      pop\n        /* \"contracts/dependencies/openzeppelin/contracts/Strings.sol\":1664:1667  --i */\n      dup1\n      tag_274\n      swap1\n      tag_275\n      jump\t// in\n    tag_274:\n      swap1\n      pop\n        /* \"contracts/dependencies/openzeppelin/contracts/Strings.sol\":1624:1743  for (uint256 i = 2 * length + 1; i > 1; --i) {... */\n      jump(tag_265)\n    tag_266:\n      pop\n        /* \"contracts/dependencies/openzeppelin/contracts/Strings.sol\":1766:1767  0 */\n      0x00\n        /* \"contracts/dependencies/openzeppelin/contracts/Strings.sol\":1757:1762  value */\n      dup5\n        /* \"contracts/dependencies/openzeppelin/contracts/Strings.sol\":1757:1767  value == 0 */\n      eq\n        /* \"contracts/dependencies/openzeppelin/contracts/Strings.sol\":1749:1804  require(value == 0, 'Strings: hex length insufficient') */\n      tag_276\n      jumpi\n      mload(0x40)\n      0x08c379a000000000000000000000000000000000000000000000000000000000\n      dup2\n      mstore\n      0x04\n      add\n      tag_277\n      swap1\n      tag_278\n      jump\t// in\n    tag_277:\n      mload(0x40)\n      dup1\n      swap2\n      sub\n      swap1\n      revert\n    tag_276:\n        /* \"contracts/dependencies/openzeppelin/contracts/Strings.sol\":1825:1831  buffer */\n      dup1\n        /* \"contracts/dependencies/openzeppelin/contracts/Strings.sol\":1811:1832  return string(buffer) */\n      swap2\n      pop\n      pop\n        /* \"contracts/dependencies/openzeppelin/contracts/Strings.sol\":1429:1838  function toHexString(uint256 value, uint256 length) internal pure returns (string memory) {... */\n      swap3\n      swap2\n      pop\n      pop\n      jump\t// out\n        /* \"#utility.yul\":88:205   */\n    tag_280:\n        /* \"#utility.yul\":197:198   */\n      0x00\n        /* \"#utility.yul\":194:195   */\n      dup1\n        /* \"#utility.yul\":187:199   */\n      revert\n        /* \"#utility.yul\":334:483   */\n    tag_282:\n        /* \"#utility.yul\":370:377   */\n      0x00\n        /* \"#utility.yul\":410:476   */\n      0xffffffff00000000000000000000000000000000000000000000000000000000\n        /* \"#utility.yul\":403:408   */\n      dup3\n        /* \"#utility.yul\":399:477   */\n      and\n        /* \"#utility.yul\":388:477   */\n      swap1\n      pop\n        /* \"#utility.yul\":334:483   */\n      swap2\n      swap1\n      pop\n      jump\t// out\n        /* \"#utility.yul\":489:609   */\n    tag_283:\n        /* \"#utility.yul\":561:584   */\n      tag_323\n        /* \"#utility.yul\":578:583   */\n      dup2\n        /* \"#utility.yul\":561:584   */\n      tag_282\n      jump\t// in\n    tag_323:\n        /* \"#utility.yul\":554:559   */\n      dup2\n        /* \"#utility.yul\":551:585   */\n      eq\n        /* \"#utility.yul\":541:603   */\n      tag_324\n      jumpi\n        /* \"#utility.yul\":599:600   */\n      0x00\n        /* \"#utility.yul\":596:597   */\n      dup1\n        /* \"#utility.yul\":589:601   */\n      revert\n        /* \"#utility.yul\":541:603   */\n    tag_324:\n        /* \"#utility.yul\":489:609   */\n      pop\n      jump\t// out\n        /* \"#utility.yul\":615:752   */\n    tag_284:\n        /* \"#utility.yul\":660:665   */\n      0x00\n        /* \"#utility.yul\":698:704   */\n      dup2\n        /* \"#utility.yul\":685:705   */\n      calldataload\n        /* \"#utility.yul\":676:705   */\n      swap1\n      pop\n        /* \"#utility.yul\":714:746   */\n      tag_326\n        /* \"#utility.yul\":740:745   */\n      dup2\n        /* \"#utility.yul\":714:746   */\n      tag_283\n      jump\t// in\n    tag_326:\n        /* \"#utility.yul\":615:752   */\n      swap3\n      swap2\n      pop\n      pop\n      jump\t// out\n        /* \"#utility.yul\":758:1085   */\n    tag_45:\n        /* \"#utility.yul\":816:822   */\n      0x00\n        /* \"#utility.yul\":865:867   */\n      0x20\n        /* \"#utility.yul\":853:862   */\n      dup3\n        /* \"#utility.yul\":844:851   */\n      dup5\n        /* \"#utility.yul\":840:863   */\n      sub\n        /* \"#utility.yul\":836:868   */\n      slt\n        /* \"#utility.yul\":833:952   */\n      iszero\n      tag_328\n      jumpi\n        /* \"#utility.yul\":871:950   */\n      tag_329\n      tag_280\n      jump\t// in\n    tag_329:\n        /* \"#utility.yul\":833:952   */\n    tag_328:\n        /* \"#utility.yul\":991:992   */\n      0x00\n        /* \"#utility.yul\":1016:1068   */\n      tag_330\n        /* \"#utility.yul\":1060:1067   */\n      dup5\n        /* \"#utility.yul\":1051:1057   */\n      dup3\n        /* \"#utility.yul\":1040:1049   */\n      dup6\n        /* \"#utility.yul\":1036:1058   */\n      add\n        /* \"#utility.yul\":1016:1068   */\n      tag_284\n      jump\t// in\n    tag_330:\n        /* \"#utility.yul\":1006:1068   */\n      swap2\n      pop\n        /* \"#utility.yul\":962:1078   */\n      pop\n        /* \"#utility.yul\":758:1085   */\n      swap3\n      swap2\n      pop\n      pop\n      jump\t// out\n        /* \"#utility.yul\":1091:1181   */\n    tag_285:\n        /* \"#utility.yul\":1125:1132   */\n      0x00\n        /* \"#utility.yul\":1168:1173   */\n      dup2\n        /* \"#utility.yul\":1161:1174   */\n      iszero\n        /* \"#utility.yul\":1154:1175   */\n      iszero\n        /* \"#utility.yul\":1143:1175   */\n      swap1\n      pop\n        /* \"#utility.yul\":1091:1181   */\n      swap2\n      swap1\n      pop\n      jump\t// out\n        /* \"#utility.yul\":1187:1296   */\n    tag_286:\n        /* \"#utility.yul\":1268:1289   */\n      tag_333\n        /* \"#utility.yul\":1283:1288   */\n      dup2\n        /* \"#utility.yul\":1268:1289   */\n      tag_285\n      jump\t// in\n    tag_333:\n        /* \"#utility.yul\":1263:1266   */\n      dup3\n        /* \"#utility.yul\":1256:1290   */\n      mstore\n        /* \"#utility.yul\":1187:1296   */\n      pop\n      pop\n      jump\t// out\n        /* \"#utility.yul\":1302:1512   */\n    tag_48:\n        /* \"#utility.yul\":1389:1393   */\n      0x00\n        /* \"#utility.yul\":1427:1429   */\n      0x20\n        /* \"#utility.yul\":1416:1425   */\n      dup3\n        /* \"#utility.yul\":1412:1430   */\n      add\n        /* \"#utility.yul\":1404:1430   */\n      swap1\n      pop\n        /* \"#utility.yul\":1440:1505   */\n      tag_335\n        /* \"#utility.yul\":1502:1503   */\n      0x00\n        /* \"#utility.yul\":1491:1500   */\n      dup4\n        /* \"#utility.yul\":1487:1504   */\n      add\n        /* \"#utility.yul\":1478:1484   */\n      dup5\n        /* \"#utility.yul\":1440:1505   */\n      tag_286\n      jump\t// in\n    tag_335:\n        /* \"#utility.yul\":1302:1512   */\n      swap3\n      swap2\n      pop\n      pop\n      jump\t// out\n        /* \"#utility.yul\":1518:1644   */\n    tag_287:\n        /* \"#utility.yul\":1555:1562   */\n      0x00\n        /* \"#utility.yul\":1595:1637   */\n      0xffffffffffffffffffffffffffffffffffffffff\n        /* \"#utility.yul\":1588:1593   */\n      dup3\n        /* \"#utility.yul\":1584:1638   */\n      and\n        /* \"#utility.yul\":1573:1638   */\n      swap1\n      pop\n        /* \"#utility.yul\":1518:1644   */\n      swap2\n      swap1\n      pop\n      jump\t// out\n        /* \"#utility.yul\":1650:1746   */\n    tag_288:\n        /* \"#utility.yul\":1687:1694   */\n      0x00\n        /* \"#utility.yul\":1716:1740   */\n      tag_338\n        /* \"#utility.yul\":1734:1739   */\n      dup3\n        /* \"#utility.yul\":1716:1740   */\n      tag_287\n      jump\t// in\n    tag_338:\n        /* \"#utility.yul\":1705:1740   */\n      swap1\n      pop\n        /* \"#utility.yul\":1650:1746   */\n      swap2\n      swap1\n      pop\n      jump\t// out\n        /* \"#utility.yul\":1752:1874   */\n    tag_289:\n        /* \"#utility.yul\":1825:1849   */\n      tag_340\n        /* \"#utility.yul\":1843:1848   */\n      dup2\n        /* \"#utility.yul\":1825:1849   */\n      tag_288\n      jump\t// in\n    tag_340:\n        /* \"#utility.yul\":1818:1823   */\n      dup2\n        /* \"#utility.yul\":1815:1850   */\n      eq\n        /* \"#utility.yul\":1805:1868   */\n      tag_341\n      jumpi\n        /* \"#utility.yul\":1864:1865   */\n      0x00\n        /* \"#utility.yul\":1861:1862   */\n      dup1\n        /* \"#utility.yul\":1854:1866   */\n      revert\n        /* \"#utility.yul\":1805:1868   */\n    tag_341:\n        /* \"#utility.yul\":1752:1874   */\n      pop\n      jump\t// out\n        /* \"#utility.yul\":1880:2019   */\n    tag_290:\n        /* \"#utility.yul\":1926:1931   */\n      0x00\n        /* \"#utility.yul\":1964:1970   */\n      dup2\n        /* \"#utility.yul\":1951:1971   */\n      calldataload\n        /* \"#utility.yul\":1942:1971   */\n      swap1\n      pop\n        /* \"#utility.yul\":1980:2013   */\n      tag_343\n        /* \"#utility.yul\":2007:2012   */\n      dup2\n        /* \"#utility.yul\":1980:2013   */\n      tag_289\n      jump\t// in\n    tag_343:\n        /* \"#utility.yul\":1880:2019   */\n      swap3\n      swap2\n      pop\n      pop\n      jump\t// out\n        /* \"#utility.yul\":2025:2354   */\n    tag_51:\n        /* \"#utility.yul\":2084:2090   */\n      0x00\n        /* \"#utility.yul\":2133:2135   */\n      0x20\n        /* \"#utility.yul\":2121:2130   */\n      dup3\n        /* \"#utility.yul\":2112:2119   */\n      dup5\n        /* \"#utility.yul\":2108:2131   */\n      sub\n        /* \"#utility.yul\":2104:2136   */\n      slt\n        /* \"#utility.yul\":2101:2220   */\n      iszero\n      tag_345\n      jumpi\n        /* \"#utility.yul\":2139:2218   */\n      tag_346\n      tag_280\n      jump\t// in\n    tag_346:\n        /* \"#utility.yul\":2101:2220   */\n    tag_345:\n        /* \"#utility.yul\":2259:2260   */\n      0x00\n        /* \"#utility.yul\":2284:2337   */\n      tag_347\n        /* \"#utility.yul\":2329:2336   */\n      dup5\n        /* \"#utility.yul\":2320:2326   */\n      dup3\n        /* \"#utility.yul\":2309:2318   */\n      dup6\n        /* \"#utility.yul\":2305:2327   */\n      add\n        /* \"#utility.yul\":2284:2337   */\n      tag_290\n      jump\t// in\n    tag_347:\n        /* \"#utility.yul\":2274:2337   */\n      swap2\n      pop\n        /* \"#utility.yul\":2230:2347   */\n      pop\n        /* \"#utility.yul\":2025:2354   */\n      swap3\n      swap2\n      pop\n      pop\n      jump\t// out\n        /* \"#utility.yul\":2360:2420   */\n    tag_291:\n        /* \"#utility.yul\":2388:2391   */\n      0x00\n        /* \"#utility.yul\":2409:2414   */\n      dup2\n        /* \"#utility.yul\":2402:2414   */\n      swap1\n      pop\n        /* \"#utility.yul\":2360:2420   */\n      swap2\n      swap1\n      pop\n      jump\t// out\n        /* \"#utility.yul\":2426:2568   */\n    tag_292:\n        /* \"#utility.yul\":2476:2485   */\n      0x00\n        /* \"#utility.yul\":2509:2562   */\n      tag_350\n        /* \"#utility.yul\":2527:2561   */\n      tag_351\n        /* \"#utility.yul\":2536:2560   */\n      tag_352\n        /* \"#utility.yul\":2554:2559   */\n      dup5\n        /* \"#utility.yul\":2536:2560   */\n      tag_287\n      jump\t// in\n    tag_352:\n        /* \"#utility.yul\":2527:2561   */\n      tag_291\n      jump\t// in\n    tag_351:\n        /* \"#utility.yul\":2509:2562   */\n      tag_287\n      jump\t// in\n    tag_350:\n        /* \"#utility.yul\":2496:2562   */\n      swap1\n      pop\n        /* \"#utility.yul\":2426:2568   */\n      swap2\n      swap1\n      pop\n      jump\t// out\n        /* \"#utility.yul\":2574:2700   */\n    tag_293:\n        /* \"#utility.yul\":2624:2633   */\n      0x00\n        /* \"#utility.yul\":2657:2694   */\n      tag_354\n        /* \"#utility.yul\":2688:2693   */\n      dup3\n        /* \"#utility.yul\":2657:2694   */\n      tag_292\n      jump\t// in\n    tag_354:\n        /* \"#utility.yul\":2644:2694   */\n      swap1\n      pop\n        /* \"#utility.yul\":2574:2700   */\n      swap2\n      swap1\n      pop\n      jump\t// out\n        /* \"#utility.yul\":2706:2863   */\n    tag_294:\n        /* \"#utility.yul\":2787:2796   */\n      0x00\n        /* \"#utility.yul\":2820:2857   */\n      tag_356\n        /* \"#utility.yul\":2851:2856   */\n      dup3\n        /* \"#utility.yul\":2820:2857   */\n      tag_293\n      jump\t// in\n    tag_356:\n        /* \"#utility.yul\":2807:2857   */\n      swap1\n      pop\n        /* \"#utility.yul\":2706:2863   */\n      swap2\n      swap1\n      pop\n      jump\t// out\n        /* \"#utility.yul\":2869:3062   */\n    tag_295:\n        /* \"#utility.yul\":2987:3055   */\n      tag_358\n        /* \"#utility.yul\":3049:3054   */\n      dup2\n        /* \"#utility.yul\":2987:3055   */\n      tag_294\n      jump\t// in\n    tag_358:\n        /* \"#utility.yul\":2982:2985   */\n      dup3\n        /* \"#utility.yul\":2975:3056   */\n      mstore\n        /* \"#utility.yul\":2869:3062   */\n      pop\n      pop\n      jump\t// out\n        /* \"#utility.yul\":3068:3352   */\n    tag_56:\n        /* \"#utility.yul\":3192:3196   */\n      0x00\n        /* \"#utility.yul\":3230:3232   */\n      0x20\n        /* \"#utility.yul\":3219:3228   */\n      dup3\n        /* \"#utility.yul\":3215:3233   */\n      add\n        /* \"#utility.yul\":3207:3233   */\n      swap1\n      pop\n        /* \"#utility.yul\":3243:3345   */\n      tag_360\n        /* \"#utility.yul\":3342:3343   */\n      0x00\n        /* \"#utility.yul\":3331:3340   */\n      dup4\n        /* \"#utility.yul\":3327:3344   */\n      add\n        /* \"#utility.yul\":3318:3324   */\n      dup5\n        /* \"#utility.yul\":3243:3345   */\n      tag_295\n      jump\t// in\n    tag_360:\n        /* \"#utility.yul\":3068:3352   */\n      swap3\n      swap2\n      pop\n      pop\n      jump\t// out\n        /* \"#utility.yul\":3358:3435   */\n    tag_296:\n        /* \"#utility.yul\":3395:3402   */\n      0x00\n        /* \"#utility.yul\":3424:3429   */\n      dup2\n        /* \"#utility.yul\":3413:3429   */\n      swap1\n      pop\n        /* \"#utility.yul\":3358:3435   */\n      swap2\n      swap1\n      pop\n      jump\t// out\n        /* \"#utility.yul\":3441:3563   */\n    tag_297:\n        /* \"#utility.yul\":3514:3538   */\n      tag_363\n        /* \"#utility.yul\":3532:3537   */\n      dup2\n        /* \"#utility.yul\":3514:3538   */\n      tag_296\n      jump\t// in\n    tag_363:\n        /* \"#utility.yul\":3507:3512   */\n      dup2\n        /* \"#utility.yul\":3504:3539   */\n      eq\n        /* \"#utility.yul\":3494:3557   */\n      tag_364\n      jumpi\n        /* \"#utility.yul\":3553:3554   */\n      0x00\n        /* \"#utility.yul\":3550:3551   */\n      dup1\n        /* \"#utility.yul\":3543:3555   */\n      revert\n        /* \"#utility.yul\":3494:3557   */\n    tag_364:\n        /* \"#utility.yul\":3441:3563   */\n      pop\n      jump\t// out\n        /* \"#utility.yul\":3569:3708   */\n    tag_298:\n        /* \"#utility.yul\":3615:3620   */\n      0x00\n        /* \"#utility.yul\":3653:3659   */\n      dup2\n        /* \"#utility.yul\":3640:3660   */\n      calldataload\n        /* \"#utility.yul\":3631:3660   */\n      swap1\n      pop\n        /* \"#utility.yul\":3669:3702   */\n      tag_366\n        /* \"#utility.yul\":3696:3701   */\n      dup2\n        /* \"#utility.yul\":3669:3702   */\n      tag_297\n      jump\t// in\n    tag_366:\n        /* \"#utility.yul\":3569:3708   */\n      swap3\n      swap2\n      pop\n      pop\n      jump\t// out\n        /* \"#utility.yul\":3714:4188   */\n    tag_66:\n        /* \"#utility.yul\":3782:3788   */\n      0x00\n        /* \"#utility.yul\":3790:3796   */\n      dup1\n        /* \"#utility.yul\":3839:3841   */\n      0x40\n        /* \"#utility.yul\":3827:3836   */\n      dup4\n        /* \"#utility.yul\":3818:3825   */\n      dup6\n        /* \"#utility.yul\":3814:3837   */\n      sub\n        /* \"#utility.yul\":3810:3842   */\n      slt\n        /* \"#utility.yul\":3807:3926   */\n      iszero\n      tag_368\n      jumpi\n        /* \"#utility.yul\":3845:3924   */\n      tag_369\n      tag_280\n      jump\t// in\n    tag_369:\n        /* \"#utility.yul\":3807:3926   */\n    tag_368:\n        /* \"#utility.yul\":3965:3966   */\n      0x00\n        /* \"#utility.yul\":3990:4043   */\n      tag_370\n        /* \"#utility.yul\":4035:4042   */\n      dup6\n        /* \"#utility.yul\":4026:4032   */\n      dup3\n        /* \"#utility.yul\":4015:4024   */\n      dup7\n        /* \"#utility.yul\":4011:4033   */\n      add\n        /* \"#utility.yul\":3990:4043   */\n      tag_298\n      jump\t// in\n    tag_370:\n        /* \"#utility.yul\":3980:4043   */\n      swap3\n      pop\n        /* \"#utility.yul\":3936:4053   */\n      pop\n        /* \"#utility.yul\":4092:4094   */\n      0x20\n        /* \"#utility.yul\":4118:4171   */\n      tag_371\n        /* \"#utility.yul\":4163:4170   */\n      dup6\n        /* \"#utility.yul\":4154:4160   */\n      dup3\n        /* \"#utility.yul\":4143:4152   */\n      dup7\n        /* \"#utility.yul\":4139:4161   */\n      add\n        /* \"#utility.yul\":4118:4171   */\n      tag_298\n      jump\t// in\n    tag_371:\n        /* \"#utility.yul\":4108:4171   */\n      swap2\n      pop\n        /* \"#utility.yul\":4063:4181   */\n      pop\n        /* \"#utility.yul\":3714:4188   */\n      swap3\n      pop\n      swap3\n      swap1\n      pop\n      jump\t// out\n        /* \"#utility.yul\":4194:4523   */\n    tag_73:\n        /* \"#utility.yul\":4253:4259   */\n      0x00\n        /* \"#utility.yul\":4302:4304   */\n      0x20\n        /* \"#utility.yul\":4290:4299   */\n      dup3\n        /* \"#utility.yul\":4281:4288   */\n      dup5\n        /* \"#utility.yul\":4277:4300   */\n      sub\n        /* \"#utility.yul\":4273:4305   */\n      slt\n        /* \"#utility.yul\":4270:4389   */\n      iszero\n      tag_373\n      jumpi\n        /* \"#utility.yul\":4308:4387   */\n      tag_374\n      tag_280\n      jump\t// in\n    tag_374:\n        /* \"#utility.yul\":4270:4389   */\n    tag_373:\n        /* \"#utility.yul\":4428:4429   */\n      0x00\n        /* \"#utility.yul\":4453:4506   */\n      tag_375\n        /* \"#utility.yul\":4498:4505   */\n      dup5\n        /* \"#utility.yul\":4489:4495   */\n      dup3\n        /* \"#utility.yul\":4478:4487   */\n      dup6\n        /* \"#utility.yul\":4474:4496   */\n      add\n        /* \"#utility.yul\":4453:4506   */\n      tag_298\n      jump\t// in\n    tag_375:\n        /* \"#utility.yul\":4443:4506   */\n      swap2\n      pop\n        /* \"#utility.yul\":4399:4516   */\n      pop\n        /* \"#utility.yul\":4194:4523   */\n      swap3\n      swap2\n      pop\n      pop\n      jump\t// out\n        /* \"#utility.yul\":4529:4647   */\n    tag_299:\n        /* \"#utility.yul\":4616:4640   */\n      tag_377\n        /* \"#utility.yul\":4634:4639   */\n      dup2\n        /* \"#utility.yul\":4616:4640   */\n      tag_296\n      jump\t// in\n    tag_377:\n        /* \"#utility.yul\":4611:4614   */\n      dup3\n        /* \"#utility.yul\":4604:4641   */\n      mstore\n        /* \"#utility.yul\":4529:4647   */\n      pop\n      pop\n      jump\t// out\n        /* \"#utility.yul\":4653:4875   */\n    tag_76:\n        /* \"#utility.yul\":4746:4750   */\n      0x00\n        /* \"#utility.yul\":4784:4786   */\n      0x20\n        /* \"#utility.yul\":4773:4782   */\n      dup3\n        /* \"#utility.yul\":4769:4787   */\n      add\n        /* \"#utility.yul\":4761:4787   */\n      swap1\n      pop\n        /* \"#utility.yul\":4797:4868   */\n      tag_379\n        /* \"#utility.yul\":4865:4866   */\n      0x00\n        /* \"#utility.yul\":4854:4863   */\n      dup4\n        /* \"#utility.yul\":4850:4867   */\n      add\n        /* \"#utility.yul\":4841:4847   */\n      dup5\n        /* \"#utility.yul\":4797:4868   */\n      tag_299\n      jump\t// in\n    tag_379:\n        /* \"#utility.yul\":4653:4875   */\n      swap3\n      swap2\n      pop\n      pop\n      jump\t// out\n        /* \"#utility.yul\":4881:5355   */\n    tag_86:\n        /* \"#utility.yul\":4949:4955   */\n      0x00\n        /* \"#utility.yul\":4957:4963   */\n      dup1\n        /* \"#utility.yul\":5006:5008   */\n      0x40\n        /* \"#utility.yul\":4994:5003   */\n      dup4\n        /* \"#utility.yul\":4985:4992   */\n      dup6\n        /* \"#utility.yul\":4981:5004   */\n      sub\n        /* \"#utility.yul\":4977:5009   */\n      slt\n        /* \"#utility.yul\":4974:5093   */\n      iszero\n      tag_381\n      jumpi\n        /* \"#utility.yul\":5012:5091   */\n      tag_382\n      tag_280\n      jump\t// in\n    tag_382:\n        /* \"#utility.yul\":4974:5093   */\n    tag_381:\n        /* \"#utility.yul\":5132:5133   */\n      0x00\n        /* \"#utility.yul\":5157:5210   */\n      tag_383\n        /* \"#utility.yul\":5202:5209   */\n      dup6\n        /* \"#utility.yul\":5193:5199   */\n      dup3\n        /* \"#utility.yul\":5182:5191   */\n      dup7\n        /* \"#utility.yul\":5178:5200   */\n      add\n        /* \"#utility.yul\":5157:5210   */\n      tag_298\n      jump\t// in\n    tag_383:\n        /* \"#utility.yul\":5147:5210   */\n      swap3\n      pop\n        /* \"#utility.yul\":5103:5220   */\n      pop\n        /* \"#utility.yul\":5259:5261   */\n      0x20\n        /* \"#utility.yul\":5285:5338   */\n      tag_384\n        /* \"#utility.yul\":5330:5337   */\n      dup6\n        /* \"#utility.yul\":5321:5327   */\n      dup3\n        /* \"#utility.yul\":5310:5319   */\n      dup7\n        /* \"#utility.yul\":5306:5328   */\n      add\n        /* \"#utility.yul\":5285:5338   */\n      tag_290\n      jump\t// in\n    tag_384:\n        /* \"#utility.yul\":5275:5338   */\n      swap2\n      pop\n        /* \"#utility.yul\":5230:5348   */\n      pop\n        /* \"#utility.yul\":4881:5355   */\n      swap3\n      pop\n      swap3\n      swap1\n      pop\n      jump\t// out\n        /* \"#utility.yul\":5361:5530   */\n    tag_300:\n        /* \"#utility.yul\":5445:5456   */\n      0x00\n        /* \"#utility.yul\":5479:5485   */\n      dup3\n        /* \"#utility.yul\":5474:5477   */\n      dup3\n        /* \"#utility.yul\":5467:5486   */\n      mstore\n        /* \"#utility.yul\":5519:5523   */\n      0x20\n        /* \"#utility.yul\":5514:5517   */\n      dup3\n        /* \"#utility.yul\":5510:5524   */\n      add\n        /* \"#utility.yul\":5495:5524   */\n      swap1\n      pop\n        /* \"#utility.yul\":5361:5530   */\n      swap3\n      swap2\n      pop\n      pop\n      jump\t// out\n        /* \"#utility.yul\":5536:5770   */\n    tag_301:\n        /* \"#utility.yul\":5676:5710   */\n      0x416363657373436f6e74726f6c3a2063616e206f6e6c792072656e6f756e6365\n        /* \"#utility.yul\":5672:5673   */\n      0x00\n        /* \"#utility.yul\":5664:5670   */\n      dup3\n        /* \"#utility.yul\":5660:5674   */\n      add\n        /* \"#utility.yul\":5653:5711   */\n      mstore\n        /* \"#utility.yul\":5745:5762   */\n      0x20726f6c657320666f722073656c660000000000000000000000000000000000\n        /* \"#utility.yul\":5740:5742   */\n      0x20\n        /* \"#utility.yul\":5732:5738   */\n      dup3\n        /* \"#utility.yul\":5728:5743   */\n      add\n        /* \"#utility.yul\":5721:5763   */\n      mstore\n        /* \"#utility.yul\":5536:5770   */\n      pop\n      jump\t// out\n        /* \"#utility.yul\":5776:6142   */\n    tag_302:\n        /* \"#utility.yul\":5918:5921   */\n      0x00\n        /* \"#utility.yul\":5939:6006   */\n      tag_388\n        /* \"#utility.yul\":6003:6005   */\n      0x2f\n        /* \"#utility.yul\":5998:6001   */\n      dup4\n        /* \"#utility.yul\":5939:6006   */\n      tag_300\n      jump\t// in\n    tag_388:\n        /* \"#utility.yul\":5932:6006   */\n      swap2\n      pop\n        /* \"#utility.yul\":6015:6108   */\n      tag_389\n        /* \"#utility.yul\":6104:6107   */\n      dup3\n        /* \"#utility.yul\":6015:6108   */\n      tag_301\n      jump\t// in\n    tag_389:\n        /* \"#utility.yul\":6133:6135   */\n      0x40\n        /* \"#utility.yul\":6128:6131   */\n      dup3\n        /* \"#utility.yul\":6124:6136   */\n      add\n        /* \"#utility.yul\":6117:6136   */\n      swap1\n      pop\n        /* \"#utility.yul\":5776:6142   */\n      swap2\n      swap1\n      pop\n      jump\t// out\n        /* \"#utility.yul\":6148:6567   */\n    tag_195:\n        /* \"#utility.yul\":6314:6318   */\n      0x00\n        /* \"#utility.yul\":6352:6354   */\n      0x20\n        /* \"#utility.yul\":6341:6350   */\n      dup3\n        /* \"#utility.yul\":6337:6355   */\n      add\n        /* \"#utility.yul\":6329:6355   */\n      swap1\n      pop\n        /* \"#utility.yul\":6401:6410   */\n      dup2\n        /* \"#utility.yul\":6395:6399   */\n      dup2\n        /* \"#utility.yul\":6391:6411   */\n      sub\n        /* \"#utility.yul\":6387:6388   */\n      0x00\n        /* \"#utility.yul\":6376:6385   */\n      dup4\n        /* \"#utility.yul\":6372:6389   */\n      add\n        /* \"#utility.yul\":6365:6412   */\n      mstore\n        /* \"#utility.yul\":6429:6560   */\n      tag_391\n        /* \"#utility.yul\":6555:6559   */\n      dup2\n        /* \"#utility.yul\":6429:6560   */\n      tag_302\n      jump\t// in\n    tag_391:\n        /* \"#utility.yul\":6421:6560   */\n      swap1\n      pop\n        /* \"#utility.yul\":6148:6567   */\n      swap2\n      swap1\n      pop\n      jump\t// out\n        /* \"#utility.yul\":6573:6721   */\n    tag_303:\n        /* \"#utility.yul\":6675:6686   */\n      0x00\n        /* \"#utility.yul\":6712:6715   */\n      dup2\n        /* \"#utility.yul\":6697:6715   */\n      swap1\n      pop\n        /* \"#utility.yul\":6573:6721   */\n      swap3\n      swap2\n      pop\n      pop\n      jump\t// out\n        /* \"#utility.yul\":6727:6900   */\n    tag_304:\n        /* \"#utility.yul\":6867:6892   */\n      0x416363657373436f6e74726f6c3a206163636f756e7420000000000000000000\n        /* \"#utility.yul\":6863:6864   */\n      0x00\n        /* \"#utility.yul\":6855:6861   */\n      dup3\n        /* \"#utility.yul\":6851:6865   */\n      add\n        /* \"#utility.yul\":6844:6893   */\n      mstore\n        /* \"#utility.yul\":6727:6900   */\n      pop\n      jump\t// out\n        /* \"#utility.yul\":6906:7308   */\n    tag_305:\n        /* \"#utility.yul\":7066:7069   */\n      0x00\n        /* \"#utility.yul\":7087:7172   */\n      tag_395\n        /* \"#utility.yul\":7169:7171   */\n      0x17\n        /* \"#utility.yul\":7164:7167   */\n      dup4\n        /* \"#utility.yul\":7087:7172   */\n      tag_303\n      jump\t// in\n    tag_395:\n        /* \"#utility.yul\":7080:7172   */\n      swap2\n      pop\n        /* \"#utility.yul\":7181:7274   */\n      tag_396\n        /* \"#utility.yul\":7270:7273   */\n      dup3\n        /* \"#utility.yul\":7181:7274   */\n      tag_304\n      jump\t// in\n    tag_396:\n        /* \"#utility.yul\":7299:7301   */\n      0x17\n        /* \"#utility.yul\":7294:7297   */\n      dup3\n        /* \"#utility.yul\":7290:7302   */\n      add\n        /* \"#utility.yul\":7283:7302   */\n      swap1\n      pop\n        /* \"#utility.yul\":6906:7308   */\n      swap2\n      swap1\n      pop\n      jump\t// out\n        /* \"#utility.yul\":7314:7413   */\n    tag_306:\n        /* \"#utility.yul\":7366:7372   */\n      0x00\n        /* \"#utility.yul\":7400:7405   */\n      dup2\n        /* \"#utility.yul\":7394:7406   */\n      mload\n        /* \"#utility.yul\":7384:7406   */\n      swap1\n      pop\n        /* \"#utility.yul\":7314:7413   */\n      swap2\n      swap1\n      pop\n      jump\t// out\n        /* \"#utility.yul\":7419:7558   */\n    tag_307:\n        /* \"#utility.yul\":7508:7514   */\n      dup3\n        /* \"#utility.yul\":7503:7506   */\n      dup2\n        /* \"#utility.yul\":7498:7501   */\n      dup4\n        /* \"#utility.yul\":7492:7515   */\n      mcopy\n        /* \"#utility.yul\":7549:7550   */\n      0x00\n        /* \"#utility.yul\":7540:7546   */\n      dup4\n        /* \"#utility.yul\":7535:7538   */\n      dup4\n        /* \"#utility.yul\":7531:7547   */\n      add\n        /* \"#utility.yul\":7524:7551   */\n      mstore\n        /* \"#utility.yul\":7419:7558   */\n      pop\n      pop\n      pop\n      jump\t// out\n        /* \"#utility.yul\":7564:7954   */\n    tag_308:\n        /* \"#utility.yul\":7670:7673   */\n      0x00\n        /* \"#utility.yul\":7698:7737   */\n      tag_400\n        /* \"#utility.yul\":7731:7736   */\n      dup3\n        /* \"#utility.yul\":7698:7737   */\n      tag_306\n      jump\t// in\n    tag_400:\n        /* \"#utility.yul\":7753:7842   */\n      tag_401\n        /* \"#utility.yul\":7835:7841   */\n      dup2\n        /* \"#utility.yul\":7830:7833   */\n      dup6\n        /* \"#utility.yul\":7753:7842   */\n      tag_303\n      jump\t// in\n    tag_401:\n        /* \"#utility.yul\":7746:7842   */\n      swap4\n      pop\n        /* \"#utility.yul\":7851:7916   */\n      tag_402\n        /* \"#utility.yul\":7909:7915   */\n      dup2\n        /* \"#utility.yul\":7904:7907   */\n      dup6\n        /* \"#utility.yul\":7897:7901   */\n      0x20\n        /* \"#utility.yul\":7890:7895   */\n      dup7\n        /* \"#utility.yul\":7886:7902   */\n      add\n        /* \"#utility.yul\":7851:7916   */\n      tag_307\n      jump\t// in\n    tag_402:\n        /* \"#utility.yul\":7941:7947   */\n      dup1\n        /* \"#utility.yul\":7936:7939   */\n      dup5\n        /* \"#utility.yul\":7932:7948   */\n      add\n        /* \"#utility.yul\":7925:7948   */\n      swap2\n      pop\n        /* \"#utility.yul\":7674:7954   */\n      pop\n        /* \"#utility.yul\":7564:7954   */\n      swap3\n      swap2\n      pop\n      pop\n      jump\t// out\n        /* \"#utility.yul\":7960:8127   */\n    tag_309:\n        /* \"#utility.yul\":8100:8119   */\n      0x206973206d697373696e6720726f6c6520000000000000000000000000000000\n        /* \"#utility.yul\":8096:8097   */\n      0x00\n        /* \"#utility.yul\":8088:8094   */\n      dup3\n        /* \"#utility.yul\":8084:8098   */\n      add\n        /* \"#utility.yul\":8077:8120   */\n      mstore\n        /* \"#utility.yul\":7960:8127   */\n      pop\n      jump\t// out\n        /* \"#utility.yul\":8133:8535   */\n    tag_310:\n        /* \"#utility.yul\":8293:8296   */\n      0x00\n        /* \"#utility.yul\":8314:8399   */\n      tag_405\n        /* \"#utility.yul\":8396:8398   */\n      0x11\n        /* \"#utility.yul\":8391:8394   */\n      dup4\n        /* \"#utility.yul\":8314:8399   */\n      tag_303\n      jump\t// in\n    tag_405:\n        /* \"#utility.yul\":8307:8399   */\n      swap2\n      pop\n        /* \"#utility.yul\":8408:8501   */\n      tag_406\n        /* \"#utility.yul\":8497:8500   */\n      dup3\n        /* \"#utility.yul\":8408:8501   */\n      tag_309\n      jump\t// in\n    tag_406:\n        /* \"#utility.yul\":8526:8528   */\n      0x11\n        /* \"#utility.yul\":8521:8524   */\n      dup3\n        /* \"#utility.yul\":8517:8529   */\n      add\n        /* \"#utility.yul\":8510:8529   */\n      swap1\n      pop\n        /* \"#utility.yul\":8133:8535   */\n      swap2\n      swap1\n      pop\n      jump\t// out\n        /* \"#utility.yul\":8541:9508   */\n    tag_238:\n        /* \"#utility.yul\":8923:8926   */\n      0x00\n        /* \"#utility.yul\":8945:9093   */\n      tag_408\n        /* \"#utility.yul\":9089:9092   */\n      dup3\n        /* \"#utility.yul\":8945:9093   */\n      tag_305\n      jump\t// in\n    tag_408:\n        /* \"#utility.yul\":8938:9093   */\n      swap2\n      pop\n        /* \"#utility.yul\":9110:9205   */\n      tag_409\n        /* \"#utility.yul\":9201:9204   */\n      dup3\n        /* \"#utility.yul\":9192:9198   */\n      dup6\n        /* \"#utility.yul\":9110:9205   */\n      tag_308\n      jump\t// in\n    tag_409:\n        /* \"#utility.yul\":9103:9205   */\n      swap2\n      pop\n        /* \"#utility.yul\":9222:9370   */\n      tag_410\n        /* \"#utility.yul\":9366:9369   */\n      dup3\n        /* \"#utility.yul\":9222:9370   */\n      tag_310\n      jump\t// in\n    tag_410:\n        /* \"#utility.yul\":9215:9370   */\n      swap2\n      pop\n        /* \"#utility.yul\":9387:9482   */\n      tag_411\n        /* \"#utility.yul\":9478:9481   */\n      dup3\n        /* \"#utility.yul\":9469:9475   */\n      dup5\n        /* \"#utility.yul\":9387:9482   */\n      tag_308\n      jump\t// in\n    tag_411:\n        /* \"#utility.yul\":9380:9482   */\n      swap2\n      pop\n        /* \"#utility.yul\":9499:9502   */\n      dup2\n        /* \"#utility.yul\":9492:9502   */\n      swap1\n      pop\n        /* \"#utility.yul\":8541:9508   */\n      swap4\n      swap3\n      pop\n      pop\n      pop\n      jump\t// out\n        /* \"#utility.yul\":9514:9616   */\n    tag_311:\n        /* \"#utility.yul\":9555:9561   */\n      0x00\n        /* \"#utility.yul\":9606:9608   */\n      0x1f\n        /* \"#utility.yul\":9602:9609   */\n      not\n        /* \"#utility.yul\":9597:9599   */\n      0x1f\n        /* \"#utility.yul\":9590:9595   */\n      dup4\n        /* \"#utility.yul\":9586:9600   */\n      add\n        /* \"#utility.yul\":9582:9610   */\n      and\n        /* \"#utility.yul\":9572:9610   */\n      swap1\n      pop\n        /* \"#utility.yul\":9514:9616   */\n      swap2\n      swap1\n      pop\n      jump\t// out\n        /* \"#utility.yul\":9622:9999   */\n    tag_312:\n        /* \"#utility.yul\":9710:9713   */\n      0x00\n        /* \"#utility.yul\":9738:9777   */\n      tag_414\n        /* \"#utility.yul\":9771:9776   */\n      dup3\n        /* \"#utility.yul\":9738:9777   */\n      tag_306\n      jump\t// in\n    tag_414:\n        /* \"#utility.yul\":9793:9864   */\n      tag_415\n        /* \"#utility.yul\":9857:9863   */\n      dup2\n        /* \"#utility.yul\":9852:9855   */\n      dup6\n        /* \"#utility.yul\":9793:9864   */\n      tag_300\n      jump\t// in\n    tag_415:\n        /* \"#utility.yul\":9786:9864   */\n      swap4\n      pop\n        /* \"#utility.yul\":9873:9938   */\n      tag_416\n        /* \"#utility.yul\":9931:9937   */\n      dup2\n        /* \"#utility.yul\":9926:9929   */\n      dup6\n        /* \"#utility.yul\":9919:9923   */\n      0x20\n        /* \"#utility.yul\":9912:9917   */\n      dup7\n        /* \"#utility.yul\":9908:9924   */\n      add\n        /* \"#utility.yul\":9873:9938   */\n      tag_307\n      jump\t// in\n    tag_416:\n        /* \"#utility.yul\":9963:9992   */\n      tag_417\n        /* \"#utility.yul\":9985:9991   */\n      dup2\n        /* \"#utility.yul\":9963:9992   */\n      tag_311\n      jump\t// in\n    tag_417:\n        /* \"#utility.yul\":9958:9961   */\n      dup5\n        /* \"#utility.yul\":9954:9993   */\n      add\n        /* \"#utility.yul\":9947:9993   */\n      swap2\n      pop\n        /* \"#utility.yul\":9714:9999   */\n      pop\n        /* \"#utility.yul\":9622:9999   */\n      swap3\n      swap2\n      pop\n      pop\n      jump\t// out\n        /* \"#utility.yul\":10005:10318   */\n    tag_240:\n        /* \"#utility.yul\":10118:10122   */\n      0x00\n        /* \"#utility.yul\":10156:10158   */\n      0x20\n        /* \"#utility.yul\":10145:10154   */\n      dup3\n        /* \"#utility.yul\":10141:10159   */\n      add\n        /* \"#utility.yul\":10133:10159   */\n      swap1\n      pop\n        /* \"#utility.yul\":10205:10214   */\n      dup2\n        /* \"#utility.yul\":10199:10203   */\n      dup2\n        /* \"#utility.yul\":10195:10215   */\n      sub\n        /* \"#utility.yul\":10191:10192   */\n      0x00\n        /* \"#utility.yul\":10180:10189   */\n      dup4\n        /* \"#utility.yul\":10176:10193   */\n      add\n        /* \"#utility.yul\":10169:10216   */\n      mstore\n        /* \"#utility.yul\":10233:10311   */\n      tag_419\n        /* \"#utility.yul\":10306:10310   */\n      dup2\n        /* \"#utility.yul\":10297:10303   */\n      dup5\n        /* \"#utility.yul\":10233:10311   */\n      tag_312\n      jump\t// in\n    tag_419:\n        /* \"#utility.yul\":10225:10311   */\n      swap1\n      pop\n        /* \"#utility.yul\":10005:10318   */\n      swap3\n      swap2\n      pop\n      pop\n      jump\t// out\n        /* \"#utility.yul\":10324:10401   */\n    tag_313:\n        /* \"#utility.yul\":10361:10368   */\n      0x00\n        /* \"#utility.yul\":10390:10395   */\n      dup2\n        /* \"#utility.yul\":10379:10395   */\n      swap1\n      pop\n        /* \"#utility.yul\":10324:10401   */\n      swap2\n      swap1\n      pop\n      jump\t// out\n        /* \"#utility.yul\":10407:10587   */\n    tag_314:\n        /* \"#utility.yul\":10455:10532   */\n      0x4e487b7100000000000000000000000000000000000000000000000000000000\n        /* \"#utility.yul\":10452:10453   */\n      0x00\n        /* \"#utility.yul\":10445:10533   */\n      mstore\n        /* \"#utility.yul\":10552:10556   */\n      0x11\n        /* \"#utility.yul\":10549:10550   */\n      0x04\n        /* \"#utility.yul\":10542:10557   */\n      mstore\n        /* \"#utility.yul\":10576:10580   */\n      0x24\n        /* \"#utility.yul\":10573:10574   */\n      0x00\n        /* \"#utility.yul\":10566:10581   */\n      revert\n        /* \"#utility.yul\":10593:11003   */\n    tag_253:\n        /* \"#utility.yul\":10633:10640   */\n      0x00\n        /* \"#utility.yul\":10656:10676   */\n      tag_423\n        /* \"#utility.yul\":10674:10675   */\n      dup3\n        /* \"#utility.yul\":10656:10676   */\n      tag_313\n      jump\t// in\n    tag_423:\n        /* \"#utility.yul\":10651:10676   */\n      swap2\n      pop\n        /* \"#utility.yul\":10690:10710   */\n      tag_424\n        /* \"#utility.yul\":10708:10709   */\n      dup4\n        /* \"#utility.yul\":10690:10710   */\n      tag_313\n      jump\t// in\n    tag_424:\n        /* \"#utility.yul\":10685:10710   */\n      swap3\n      pop\n        /* \"#utility.yul\":10745:10746   */\n      dup3\n        /* \"#utility.yul\":10742:10743   */\n      dup3\n        /* \"#utility.yul\":10738:10747   */\n      mul\n        /* \"#utility.yul\":10767:10797   */\n      tag_425\n        /* \"#utility.yul\":10785:10796   */\n      dup2\n        /* \"#utility.yul\":10767:10797   */\n      tag_313\n      jump\t// in\n    tag_425:\n        /* \"#utility.yul\":10756:10797   */\n      swap2\n      pop\n        /* \"#utility.yul\":10946:10947   */\n      dup3\n        /* \"#utility.yul\":10937:10944   */\n      dup3\n        /* \"#utility.yul\":10933:10948   */\n      div\n        /* \"#utility.yul\":10930:10931   */\n      dup5\n        /* \"#utility.yul\":10927:10949   */\n      eq\n        /* \"#utility.yul\":10907:10908   */\n      dup4\n        /* \"#utility.yul\":10900:10909   */\n      iszero\n        /* \"#utility.yul\":10880:10963   */\n      or\n        /* \"#utility.yul\":10857:10996   */\n      tag_426\n      jumpi\n        /* \"#utility.yul\":10976:10994   */\n      tag_427\n      tag_314\n      jump\t// in\n    tag_427:\n        /* \"#utility.yul\":10857:10996   */\n    tag_426:\n        /* \"#utility.yul\":10641:11003   */\n      pop\n        /* \"#utility.yul\":10593:11003   */\n      swap3\n      swap2\n      pop\n      pop\n      jump\t// out\n        /* \"#utility.yul\":11009:11200   */\n    tag_255:\n        /* \"#utility.yul\":11049:11052   */\n      0x00\n        /* \"#utility.yul\":11068:11088   */\n      tag_429\n        /* \"#utility.yul\":11086:11087   */\n      dup3\n        /* \"#utility.yul\":11068:11088   */\n      tag_313\n      jump\t// in\n    tag_429:\n        /* \"#utility.yul\":11063:11088   */\n      swap2\n      pop\n        /* \"#utility.yul\":11102:11122   */\n      tag_430\n        /* \"#utility.yul\":11120:11121   */\n      dup4\n        /* \"#utility.yul\":11102:11122   */\n      tag_313\n      jump\t// in\n    tag_430:\n        /* \"#utility.yul\":11097:11122   */\n      swap3\n      pop\n        /* \"#utility.yul\":11145:11146   */\n      dup3\n        /* \"#utility.yul\":11142:11143   */\n      dup3\n        /* \"#utility.yul\":11138:11147   */\n      add\n        /* \"#utility.yul\":11131:11147   */\n      swap1\n      pop\n        /* \"#utility.yul\":11166:11169   */\n      dup1\n        /* \"#utility.yul\":11163:11164   */\n      dup3\n        /* \"#utility.yul\":11160:11170   */\n      gt\n        /* \"#utility.yul\":11157:11193   */\n      iszero\n      tag_431\n      jumpi\n        /* \"#utility.yul\":11173:11191   */\n      tag_432\n      tag_314\n      jump\t// in\n    tag_432:\n        /* \"#utility.yul\":11157:11193   */\n    tag_431:\n        /* \"#utility.yul\":11009:11200   */\n      swap3\n      swap2\n      pop\n      pop\n      jump\t// out\n        /* \"#utility.yul\":11206:11386   */\n    tag_258:\n        /* \"#utility.yul\":11254:11331   */\n      0x4e487b7100000000000000000000000000000000000000000000000000000000\n        /* \"#utility.yul\":11251:11252   */\n      0x00\n        /* \"#utility.yul\":11244:11332   */\n      mstore\n        /* \"#utility.yul\":11351:11355   */\n      0x41\n        /* \"#utility.yul\":11348:11349   */\n      0x04\n        /* \"#utility.yul\":11341:11356   */\n      mstore\n        /* \"#utility.yul\":11375:11379   */\n      0x24\n        /* \"#utility.yul\":11372:11373   */\n      0x00\n        /* \"#utility.yul\":11365:11380   */\n      revert\n        /* \"#utility.yul\":11392:11572   */\n    tag_262:\n        /* \"#utility.yul\":11440:11517   */\n      0x4e487b7100000000000000000000000000000000000000000000000000000000\n        /* \"#utility.yul\":11437:11438   */\n      0x00\n        /* \"#utility.yul\":11430:11518   */\n      mstore\n        /* \"#utility.yul\":11537:11541   */\n      0x32\n        /* \"#utility.yul\":11534:11535   */\n      0x04\n        /* \"#utility.yul\":11527:11542   */\n      mstore\n        /* \"#utility.yul\":11561:11565   */\n      0x24\n        /* \"#utility.yul\":11558:11559   */\n      0x00\n        /* \"#utility.yul\":11551:11566   */\n      revert\n        /* \"#utility.yul\":11578:11749   */\n    tag_275:\n        /* \"#utility.yul\":11617:11620   */\n      0x00\n        /* \"#utility.yul\":11640:11664   */\n      tag_436\n        /* \"#utility.yul\":11658:11663   */\n      dup3\n        /* \"#utility.yul\":11640:11664   */\n      tag_313\n      jump\t// in\n    tag_436:\n        /* \"#utility.yul\":11631:11664   */\n      swap2\n      pop\n        /* \"#utility.yul\":11686:11690   */\n      0x00\n        /* \"#utility.yul\":11679:11684   */\n      dup3\n        /* \"#utility.yul\":11676:11691   */\n      sub\n        /* \"#utility.yul\":11673:11714   */\n      tag_437\n      jumpi\n        /* \"#utility.yul\":11694:11712   */\n      tag_438\n      tag_314\n      jump\t// in\n    tag_438:\n        /* \"#utility.yul\":11673:11714   */\n    tag_437:\n        /* \"#utility.yul\":11741:11742   */\n      0x01\n        /* \"#utility.yul\":11734:11739   */\n      dup3\n        /* \"#utility.yul\":11730:11743   */\n      sub\n        /* \"#utility.yul\":11723:11743   */\n      swap1\n      pop\n        /* \"#utility.yul\":11578:11749   */\n      swap2\n      swap1\n      pop\n      jump\t// out\n        /* \"#utility.yul\":11755:11937   */\n    tag_315:\n        /* \"#utility.yul\":11895:11929   */\n      0x537472696e67733a20686578206c656e67746820696e73756666696369656e74\n        /* \"#utility.yul\":11891:11892   */\n      0x00\n        /* \"#utility.yul\":11883:11889   */\n      dup3\n        /* \"#utility.yul\":11879:11893   */\n      add\n        /* \"#utility.yul\":11872:11930   */\n      mstore\n        /* \"#utility.yul\":11755:11937   */\n      pop\n      jump\t// out\n        /* \"#utility.yul\":11943:12309   */\n    tag_316:\n        /* \"#utility.yul\":12085:12088   */\n      0x00\n        /* \"#utility.yul\":12106:12173   */\n      tag_441\n        /* \"#utility.yul\":12170:12172   */\n      0x20\n        /* \"#utility.yul\":12165:12168   */\n      dup4\n        /* \"#utility.yul\":12106:12173   */\n      tag_300\n      jump\t// in\n    tag_441:\n        /* \"#utility.yul\":12099:12173   */\n      swap2\n      pop\n        /* \"#utility.yul\":12182:12275   */\n      tag_442\n        /* \"#utility.yul\":12271:12274   */\n      dup3\n        /* \"#utility.yul\":12182:12275   */\n      tag_315\n      jump\t// in\n    tag_442:\n        /* \"#utility.yul\":12300:12302   */\n      0x20\n        /* \"#utility.yul\":12295:12298   */\n      dup3\n        /* \"#utility.yul\":12291:12303   */\n      add\n        /* \"#utility.yul\":12284:12303   */\n      swap1\n      pop\n        /* \"#utility.yul\":11943:12309   */\n      swap2\n      swap1\n      pop\n      jump\t// out\n        /* \"#utility.yul\":12315:12734   */\n    tag_278:\n        /* \"#utility.yul\":12481:12485   */\n      0x00\n        /* \"#utility.yul\":12519:12521   */\n      0x20\n        /* \"#utility.yul\":12508:12517   */\n      dup3\n        /* \"#utility.yul\":12504:12522   */\n      add\n        /* \"#utility.yul\":12496:12522   */\n      swap1\n      pop\n        /* \"#utility.yul\":12568:12577   */\n      dup2\n        /* \"#utility.yul\":12562:12566   */\n      dup2\n        /* \"#utility.yul\":12558:12578   */\n      sub\n        /* \"#utility.yul\":12554:12555   */\n      0x00\n        /* \"#utility.yul\":12543:12552   */\n      dup4\n        /* \"#utility.yul\":12539:12556   */\n      add\n        /* \"#utility.yul\":12532:12579   */\n      mstore\n        /* \"#utility.yul\":12596:12727   */\n      tag_444\n        /* \"#utility.yul\":12722:12726   */\n      dup2\n        /* \"#utility.yul\":12596:12727   */\n      tag_316\n      jump\t// in\n    tag_444:\n        /* \"#utility.yul\":12588:12727   */\n      swap1\n      pop\n        /* \"#utility.yul\":12315:12734   */\n      swap2\n      swap1\n      pop\n      jump\t// out\n\n    auxdata: 0xa26469706673582212201c1052e20b35542a2a550c50e810547b4830f83434d79452f28e700ae083b4d864736f6c634300081a0033\n}\n",
				"bytecode": {
					"linkReferences": {},
					"object": "60a060405234801561000f575f80fd5b50604051611d15380380611d1583398181016040528101906100319190610369565b8073ffffffffffffffffffffffffffffffffffffffff1660808173ffffffffffffffffffffffffffffffffffffffff16815250505f8173ffffffffffffffffffffffffffffffffffffffff16630e67178c6040518163ffffffff1660e01b8152600401602060405180830381865afa1580156100af573d5f803e3d5ffd5b505050506040513d601f19601f820116820180604052508101906100d391906103be565b90505f73ffffffffffffffffffffffffffffffffffffffff168173ffffffffffffffffffffffffffffffffffffffff1614156040518060400160405280600281526020017f37350000000000000000000000000000000000000000000000000000000000008152509061017c576040517f08c379a00000000000000000000000000000000000000000000000000000000081526004016101739190610459565b60405180910390fd5b5061018f5f801b8261019660201b60201c565b5050610479565b6101a682826101aa60201b60201c565b5050565b6101ba828261029060201b60201c565b61028c5760015f808481526020019081526020015f205f015f8373ffffffffffffffffffffffffffffffffffffffff1673ffffffffffffffffffffffffffffffffffffffff1681526020019081526020015f205f6101000a81548160ff0219169083151502179055506102316102f360201b60201c565b73ffffffffffffffffffffffffffffffffffffffff168173ffffffffffffffffffffffffffffffffffffffff16837f2f8788117e7eff1d82e926ec794901d17c78024a50270940304540a733656f0d60405160405180910390a45b5050565b5f805f8481526020019081526020015f205f015f8373ffffffffffffffffffffffffffffffffffffffff1673ffffffffffffffffffffffffffffffffffffffff1681526020019081526020015f205f9054906101000a900460ff16905092915050565b5f33905090565b5f80fd5b5f73ffffffffffffffffffffffffffffffffffffffff82169050919050565b5f610327826102fe565b9050919050565b5f6103388261031d565b9050919050565b6103488161032e565b8114610352575f80fd5b50565b5f815190506103638161033f565b92915050565b5f6020828403121561037e5761037d6102fa565b5b5f61038b84828501610355565b91505092915050565b61039d8161031d565b81146103a7575f80fd5b50565b5f815190506103b881610394565b92915050565b5f602082840312156103d3576103d26102fa565b5b5f6103e0848285016103aa565b91505092915050565b5f81519050919050565b5f82825260208201905092915050565b8281835e5f83830152505050565b5f601f19601f8301169050919050565b5f61042b826103e9565b61043581856103f3565b9350610445818560208601610403565b61044e81610411565b840191505092915050565b5f6020820190508181035f8301526104718184610421565b905092915050565b6080516118846104915f395f61070501526118845ff3fe608060405234801561000f575f80fd5b50600436106101f9575f3560e01c8063674b5e4d116101185780639a2b96f7116100ab578063b5bfddea1161007a578063b5bfddea146105b9578063b8f6dba7146105d7578063d547741f146105f5578063f83695cb14610611578063fa50f2971461062d576101f9565b80639a2b96f7146105475780639ac9d80b14610563578063a217fddf1461057f578063a21bce151461059d576101f9565b80637a9a93f4116100e75780637a9a93f4146104af5780637be53ca1146104cb57806391d14854146104fb5780639712fdf81461052b576101f9565b8063674b5e4d146104135780636e76fc8f14610443578063726600ce1461046157806378bb0a4314610491576101f9565b80632500f2b6116101905780633c5a08e51161015f5780633c5a08e51461039f5780634f16b425146103bb5780635577b7a9146103d95780635b9a94e4146103f7576101f9565b80632500f2b61461031b578063253cf9801461034b5780632f2ff15d1461036757806336568abe14610383576101f9565b8063179efb09116101cc578063179efb09146102975780631e4e0091146102b357806322650caf146102cf578063248a9ca3146102eb576101f9565b806301ffc9a7146101fd57806304df017d1461022d5780630542975c1461024957806313ee32e014610267575b5f80fd5b6102176004803603810190610212919061123d565b61065d565b6040516102249190611282565b60405180910390f35b610247600480360381019061024291906112f5565b6106d6565b005b610251610703565b60405161025e919061137b565b60405180910390f35b610281600480360381019061027c91906112f5565b610727565b60405161028e9190611282565b60405180910390f35b6102b160048036038101906102ac91906112f5565b610759565b005b6102cd60048036038101906102c891906113c7565b610786565b005b6102e960048036038101906102e491906112f5565b6107a9565b005b61030560048036038101906103009190611405565b6107d6565b604051610312919061143f565b60405180910390f35b610335600480360381019061033091906112f5565b6107f2565b6040516103429190611282565b60405180910390f35b610365600480360381019061036091906112f5565b610824565b005b610381600480360381019061037c9190611458565b610851565b005b61039d60048036038101906103989190611458565b61087a565b005b6103b960048036038101906103b491906112f5565b6108fd565b005b6103c361092a565b6040516103d0919061143f565b60405180910390f35b6103e161094e565b6040516103ee919061143f565b60405180910390f35b610411600480360381019061040c91906112f5565b610972565b005b61042d600480360381019061042891906112f5565b61099f565b60405161043a9190611282565b60405180910390f35b61044b6109d1565b604051610458919061143f565b60405180910390f35b61047b600480360381019061047691906112f5565b6109f5565b6040516104889190611282565b60405180910390f35b610499610a27565b6040516104a6919061143f565b60405180910390f35b6104c960048036038101906104c491906112f5565b610a4b565b005b6104e560048036038101906104e091906112f5565b610a78565b6040516104f29190611282565b60405180910390f35b61051560048036038101906105109190611458565b610aaa565b6040516105229190611282565b60405180910390f35b610545600480360381019061054091906112f5565b610b0d565b005b610561600480360381019061055c91906112f5565b610b3a565b005b61057d600480360381019061057891906112f5565b610b67565b005b610587610b94565b604051610594919061143f565b60405180910390f35b6105b760048036038101906105b291906112f5565b610b9a565b005b6105c1610bc7565b6040516105ce919061143f565b60405180910390f35b6105df610beb565b6040516105ec919061143f565b60405180910390f35b61060f600480360381019061060a9190611458565b610c0f565b005b61062b600480360381019061062691906112f5565b610c38565b005b610647600480360381019061064291906112f5565b610c65565b6040516106549190611282565b60405180910390f35b5f7f7965db0b000000000000000000000000000000000000000000000000000000007bffffffffffffffffffffffffffffffffffffffffffffffffffffffff1916827bffffffffffffffffffffffffffffffffffffffffffffffffffffffff191614806106cf57506106ce82610c97565b5b9050919050565b6107007f08fb31c3e81624356c3314088aa971b73bcc82d22bc3e3b184b4593077ae327882610c0f565b50565b7f000000000000000000000000000000000000000000000000000000000000000081565b5f6107527f19c860a63258efbd0ecb7d55c626237bf5c2044c26c073390b74f0c13c85743383610aaa565b9050919050565b6107837f5c91514091af31f62f596a314af7d5be40146b2f2355969392f055e12e0982fb82610851565b50565b5f801b61079a81610795610d00565b610d07565b6107a48383610da3565b505050565b6107d37f12ad05bde78c5ab75238ce885307f96ecd482bb402ef831f99e7018a0f169b7b82610851565b50565b5f805f8381526020019081526020015f20600101549050919050565b5f61081d7f5c91514091af31f62f596a314af7d5be40146b2f2355969392f055e12e0982fb83610aaa565b9050919050565b61084e7f939b8dfb57ecef2aea54a93a15e86768b9d4089f1ba61c245e6ec980695f4ca482610c0f565b50565b61085a826107d6565b61086b81610866610d00565b610d07565b6108758383610dfb565b505050565b610882610d00565b73ffffffffffffffffffffffffffffffffffffffff168173ffffffffffffffffffffffffffffffffffffffff16146108ef576040517f08c379a00000000000000000000000000000000000000000000000000000000081526004016108e690611516565b60405180910390fd5b6108f98282610ed5565b5050565b6109277f8aa855a911518ecfbe5bc3088c8f3dda7badf130faaf8ace33fdc33828e1816782610c0f565b50565b7f8aa855a911518ecfbe5bc3088c8f3dda7badf130faaf8ace33fdc33828e1816781565b7f939b8dfb57ecef2aea54a93a15e86768b9d4089f1ba61c245e6ec980695f4ca481565b61099c7f8aa855a911518ecfbe5bc3088c8f3dda7badf130faaf8ace33fdc33828e1816782610851565b50565b5f6109ca7f8aa855a911518ecfbe5bc3088c8f3dda7badf130faaf8ace33fdc33828e1816783610aaa565b9050919050565b7f5c91514091af31f62f596a314af7d5be40146b2f2355969392f055e12e0982fb81565b5f610a207f08fb31c3e81624356c3314088aa971b73bcc82d22bc3e3b184b4593077ae327883610aaa565b9050919050565b7f19c860a63258efbd0ecb7d55c626237bf5c2044c26c073390b74f0c13c85743381565b610a757f5c91514091af31f62f596a314af7d5be40146b2f2355969392f055e12e0982fb82610c0f565b50565b5f610aa37f12ad05bde78c5ab75238ce885307f96ecd482bb402ef831f99e7018a0f169b7b83610aaa565b9050919050565b5f805f8481526020019081526020015f205f015f8373ffffffffffffffffffffffffffffffffffffffff1673ffffffffffffffffffffffffffffffffffffffff1681526020019081526020015f205f9054906101000a900460ff16905092915050565b610b377f08fb31c3e81624356c3314088aa971b73bcc82d22bc3e3b184b4593077ae327882610851565b50565b610b647f19c860a63258efbd0ecb7d55c626237bf5c2044c26c073390b74f0c13c85743382610851565b50565b610b917f939b8dfb57ecef2aea54a93a15e86768b9d4089f1ba61c245e6ec980695f4ca482610851565b50565b5f801b81565b610bc47f19c860a63258efbd0ecb7d55c626237bf5c2044c26c073390b74f0c13c85743382610c0f565b50565b7f08fb31c3e81624356c3314088aa971b73bcc82d22bc3e3b184b4593077ae327881565b7f12ad05bde78c5ab75238ce885307f96ecd482bb402ef831f99e7018a0f169b7b81565b610c18826107d6565b610c2981610c24610d00565b610d07565b610c338383610ed5565b505050565b610c627f12ad05bde78c5ab75238ce885307f96ecd482bb402ef831f99e7018a0f169b7b82610c0f565b50565b5f610c907f939b8dfb57ecef2aea54a93a15e86768b9d4089f1ba61c245e6ec980695f4ca483610aaa565b9050919050565b5f7f01ffc9a7000000000000000000000000000000000000000000000000000000007bffffffffffffffffffffffffffffffffffffffffffffffffffffffff1916827bffffffffffffffffffffffffffffffffffffffffffffffffffffffff1916149050919050565b5f33905090565b610d118282610aaa565b610d9f57610d368173ffffffffffffffffffffffffffffffffffffffff166014610faf565b610d43835f1c6020610faf565b604051602001610d5492919061161a565b6040516020818303038152906040526040517f08c379a0000000000000000000000000000000000000000000000000000000008152600401610d96919061169b565b60405180910390fd5b5050565b5f610dad836107d6565b9050815f808581526020019081526020015f20600101819055508181847fbd79b86ffe0ab8e8776151514217cd7cacd52c909f66475c3af44e129f0b00ff60405160405180910390a4505050565b610e058282610aaa565b610ed15760015f808481526020019081526020015f205f015f8373ffffffffffffffffffffffffffffffffffffffff1673ffffffffffffffffffffffffffffffffffffffff1681526020019081526020015f205f6101000a81548160ff021916908315150217905550610e76610d00565b73ffffffffffffffffffffffffffffffffffffffff168173ffffffffffffffffffffffffffffffffffffffff16837f2f8788117e7eff1d82e926ec794901d17c78024a50270940304540a733656f0d60405160405180910390a45b5050565b610edf8282610aaa565b15610fab575f805f8481526020019081526020015f205f015f8373ffffffffffffffffffffffffffffffffffffffff1673ffffffffffffffffffffffffffffffffffffffff1681526020019081526020015f205f6101000a81548160ff021916908315150217905550610f50610d00565b73ffffffffffffffffffffffffffffffffffffffff168173ffffffffffffffffffffffffffffffffffffffff16837ff6391f5c32d9c69d2a47ea670b442974b53935d1edc7fd64eb21e047a839171b60405160405180910390a45b5050565b60605f6002836002610fc191906116f1565b610fcb9190611732565b67ffffffffffffffff811115610fe457610fe3611765565b5b6040519080825280601f01601f1916602001820160405280156110165781602001600182028036833780820191505090505b5090507f3000000000000000000000000000000000000000000000000000000000000000815f8151811061104d5761104c611792565b5b60200101907effffffffffffffffffffffffffffffffffffffffffffffffffffffffffffff191690815f1a9053507f7800000000000000000000000000000000000000000000000000000000000000816001815181106110b0576110af611792565b5b60200101907effffffffffffffffffffffffffffffffffffffffffffffffffffffffffffff191690815f1a9053505f60018460026110ee91906116f1565b6110f89190611732565b90505b6001811115611197577f3031323334353637383961626364656600000000000000000000000000000000600f86166010811061113a57611139611792565b5b1a60f81b82828151811061115157611150611792565b5b60200101907effffffffffffffffffffffffffffffffffffffffffffffffffffffffffffff191690815f1a905350600485901c945080611190906117bf565b90506110fb565b505f84146111da576040517f08c379a00000000000000000000000000000000000000000000000000000000081526004016111d190611830565b60405180910390fd5b8091505092915050565b5f80fd5b5f7fffffffff0000000000000000000000000000000000000000000000000000000082169050919050565b61121c816111e8565b8114611226575f80fd5b50565b5f8135905061123781611213565b92915050565b5f60208284031215611252576112516111e4565b5b5f61125f84828501611229565b91505092915050565b5f8115159050919050565b61127c81611268565b82525050565b5f6020820190506112955f830184611273565b92915050565b5f73ffffffffffffffffffffffffffffffffffffffff82169050919050565b5f6112c48261129b565b9050919050565b6112d4816112ba565b81146112de575f80fd5b50565b5f813590506112ef816112cb565b92915050565b5f6020828403121561130a576113096111e4565b5b5f611317848285016112e1565b91505092915050565b5f819050919050565b5f61134361133e6113398461129b565b611320565b61129b565b9050919050565b5f61135482611329565b9050919050565b5f6113658261134a565b9050919050565b6113758161135b565b82525050565b5f60208201905061138e5f83018461136c565b92915050565b5f819050919050565b6113a681611394565b81146113b0575f80fd5b50565b5f813590506113c18161139d565b92915050565b5f80604083850312156113dd576113dc6111e4565b5b5f6113ea858286016113b3565b92505060206113fb858286016113b3565b9150509250929050565b5f6020828403121561141a576114196111e4565b5b5f611427848285016113b3565b91505092915050565b61143981611394565b82525050565b5f6020820190506114525f830184611430565b92915050565b5f806040838503121561146e5761146d6111e4565b5b5f61147b858286016113b3565b925050602061148c858286016112e1565b9150509250929050565b5f82825260208201905092915050565b7f416363657373436f6e74726f6c3a2063616e206f6e6c792072656e6f756e63655f8201527f20726f6c657320666f722073656c660000000000000000000000000000000000602082015250565b5f611500602f83611496565b915061150b826114a6565b604082019050919050565b5f6020820190508181035f83015261152d816114f4565b9050919050565b5f81905092915050565b7f416363657373436f6e74726f6c3a206163636f756e74200000000000000000005f82015250565b5f611572601783611534565b915061157d8261153e565b601782019050919050565b5f81519050919050565b8281835e5f83830152505050565b5f6115aa82611588565b6115b48185611534565b93506115c4818560208601611592565b80840191505092915050565b7f206973206d697373696e6720726f6c65200000000000000000000000000000005f82015250565b5f611604601183611534565b915061160f826115d0565b601182019050919050565b5f61162482611566565b915061163082856115a0565b915061163b826115f8565b915061164782846115a0565b91508190509392505050565b5f601f19601f8301169050919050565b5f61166d82611588565b6116778185611496565b9350611687818560208601611592565b61169081611653565b840191505092915050565b5f6020820190508181035f8301526116b38184611663565b905092915050565b5f819050919050565b7f4e487b71000000000000000000000000000000000000000000000000000000005f52601160045260245ffd5b5f6116fb826116bb565b9150611706836116bb565b9250828202611714816116bb565b9150828204841483151761172b5761172a6116c4565b5b5092915050565b5f61173c826116bb565b9150611747836116bb565b925082820190508082111561175f5761175e6116c4565b5b92915050565b7f4e487b71000000000000000000000000000000000000000000000000000000005f52604160045260245ffd5b7f4e487b71000000000000000000000000000000000000000000000000000000005f52603260045260245ffd5b5f6117c9826116bb565b91505f82036117db576117da6116c4565b5b600182039050919050565b7f537472696e67733a20686578206c656e67746820696e73756666696369656e745f82015250565b5f61181a602083611496565b9150611825826117e6565b602082019050919050565b5f6020820190508181035f8301526118478161180e565b905091905056fea26469706673582212201c1052e20b35542a2a550c50e810547b4830f83434d79452f28e700ae083b4d864736f6c634300081a0033",
					"opcodes": "PUSH1 0xA0 PUSH1 0x40 MSTORE CALLVALUE DUP1 ISZERO PUSH2 0xF JUMPI PUSH0 DUP1 REVERT JUMPDEST POP PUSH1 0x40 MLOAD PUSH2 0x1D15 CODESIZE SUB DUP1 PUSH2 0x1D15 DUP4 CODECOPY DUP2 DUP2 ADD PUSH1 0x40 MSTORE DUP2 ADD SWAP1 PUSH2 0x31 SWAP2 SWAP1 PUSH2 0x369 JUMP JUMPDEST DUP1 PUSH20 0xFFFFFFFFFFFFFFFFFFFFFFFFFFFFFFFFFFFFFFFF AND PUSH1 0x80 DUP2 PUSH20 0xFFFFFFFFFFFFFFFFFFFFFFFFFFFFFFFFFFFFFFFF AND DUP2 MSTORE POP POP PUSH0 DUP2 PUSH20 0xFFFFFFFFFFFFFFFFFFFFFFFFFFFFFFFFFFFFFFFF AND PUSH4 0xE67178C PUSH1 0x40 MLOAD DUP2 PUSH4 0xFFFFFFFF AND PUSH1 0xE0 SHL DUP2 MSTORE PUSH1 0x4 ADD PUSH1 0x20 PUSH1 0x40 MLOAD DUP1 DUP4 SUB DUP2 DUP7 GAS STATICCALL ISZERO DUP1 ISZERO PUSH2 0xAF JUMPI RETURNDATASIZE PUSH0 DUP1 RETURNDATACOPY RETURNDATASIZE PUSH0 REVERT JUMPDEST POP POP POP POP PUSH1 0x40 MLOAD RETURNDATASIZE PUSH1 0x1F NOT PUSH1 0x1F DUP3 ADD AND DUP3 ADD DUP1 PUSH1 0x40 MSTORE POP DUP2 ADD SWAP1 PUSH2 0xD3 SWAP2 SWAP1 PUSH2 0x3BE JUMP JUMPDEST SWAP1 POP PUSH0 PUSH20 0xFFFFFFFFFFFFFFFFFFFFFFFFFFFFFFFFFFFFFFFF AND DUP2 PUSH20 0xFFFFFFFFFFFFFFFFFFFFFFFFFFFFFFFFFFFFFFFF AND EQ ISZERO PUSH1 0x40 MLOAD DUP1 PUSH1 0x40 ADD PUSH1 0x40 MSTORE DUP1 PUSH1 0x2 DUP2 MSTORE PUSH1 0x20 ADD PUSH32 0x3735000000000000000000000000000000000000000000000000000000000000 DUP2 MSTORE POP SWAP1 PUSH2 0x17C JUMPI PUSH1 0x40 MLOAD PUSH32 0x8C379A000000000000000000000000000000000000000000000000000000000 DUP2 MSTORE PUSH1 0x4 ADD PUSH2 0x173 SWAP2 SWAP1 PUSH2 0x459 JUMP JUMPDEST PUSH1 0x40 MLOAD DUP1 SWAP2 SUB SWAP1 REVERT JUMPDEST POP PUSH2 0x18F PUSH0 DUP1 SHL DUP3 PUSH2 0x196 PUSH1 0x20 SHL PUSH1 0x20 SHR JUMP JUMPDEST POP POP PUSH2 0x479 JUMP JUMPDEST PUSH2 0x1A6 DUP3 DUP3 PUSH2 0x1AA PUSH1 0x20 SHL PUSH1 0x20 SHR JUMP JUMPDEST POP POP JUMP JUMPDEST PUSH2 0x1BA DUP3 DUP3 PUSH2 0x290 PUSH1 0x20 SHL PUSH1 0x20 SHR JUMP JUMPDEST PUSH2 0x28C JUMPI PUSH1 0x1 PUSH0 DUP1 DUP5 DUP2 MSTORE PUSH1 0x20 ADD SWAP1 DUP2 MSTORE PUSH1 0x20 ADD PUSH0 KECCAK256 PUSH0 ADD PUSH0 DUP4 PUSH20 0xFFFFFFFFFFFFFFFFFFFFFFFFFFFFFFFFFFFFFFFF AND PUSH20 0xFFFFFFFFFFFFFFFFFFFFFFFFFFFFFFFFFFFFFFFF AND DUP2 MSTORE PUSH1 0x20 ADD SWAP1 DUP2 MSTORE PUSH1 0x20 ADD PUSH0 KECCAK256 PUSH0 PUSH2 0x100 EXP DUP2 SLOAD DUP2 PUSH1 0xFF MUL NOT AND SWAP1 DUP4 ISZERO ISZERO MUL OR SWAP1 SSTORE POP PUSH2 0x231 PUSH2 0x2F3 PUSH1 0x20 SHL PUSH1 0x20 SHR JUMP JUMPDEST PUSH20 0xFFFFFFFFFFFFFFFFFFFFFFFFFFFFFFFFFFFFFFFF AND DUP2 PUSH20 0xFFFFFFFFFFFFFFFFFFFFFFFFFFFFFFFFFFFFFFFF AND DUP4 PUSH32 0x2F8788117E7EFF1D82E926EC794901D17C78024A50270940304540A733656F0D PUSH1 0x40 MLOAD PUSH1 0x40 MLOAD DUP1 SWAP2 SUB SWAP1 LOG4 JUMPDEST POP POP JUMP JUMPDEST PUSH0 DUP1 PUSH0 DUP5 DUP2 MSTORE PUSH1 0x20 ADD SWAP1 DUP2 MSTORE PUSH1 0x20 ADD PUSH0 KECCAK256 PUSH0 ADD PUSH0 DUP4 PUSH20 0xFFFFFFFFFFFFFFFFFFFFFFFFFFFFFFFFFFFFFFFF AND PUSH20 0xFFFFFFFFFFFFFFFFFFFFFFFFFFFFFFFFFFFFFFFF AND DUP2 MSTORE PUSH1 0x20 ADD SWAP1 DUP2 MSTORE PUSH1 0x20 ADD PUSH0 KECCAK256 PUSH0 SWAP1 SLOAD SWAP1 PUSH2 0x100 EXP SWAP1 DIV PUSH1 0xFF AND SWAP1 POP SWAP3 SWAP2 POP POP JUMP JUMPDEST PUSH0 CALLER SWAP1 POP SWAP1 JUMP JUMPDEST PUSH0 DUP1 REVERT JUMPDEST PUSH0 PUSH20 0xFFFFFFFFFFFFFFFFFFFFFFFFFFFFFFFFFFFFFFFF DUP3 AND SWAP1 POP SWAP2 SWAP1 POP JUMP JUMPDEST PUSH0 PUSH2 0x327 DUP3 PUSH2 0x2FE JUMP JUMPDEST SWAP1 POP SWAP2 SWAP1 POP JUMP JUMPDEST PUSH0 PUSH2 0x338 DUP3 PUSH2 0x31D JUMP JUMPDEST SWAP1 POP SWAP2 SWAP1 POP JUMP JUMPDEST PUSH2 0x348 DUP2 PUSH2 0x32E JUMP JUMPDEST DUP2 EQ PUSH2 0x352 JUMPI PUSH0 DUP1 REVERT JUMPDEST POP JUMP JUMPDEST PUSH0 DUP2 MLOAD SWAP1 POP PUSH2 0x363 DUP2 PUSH2 0x33F JUMP JUMPDEST SWAP3 SWAP2 POP POP JUMP JUMPDEST PUSH0 PUSH1 0x20 DUP3 DUP5 SUB SLT ISZERO PUSH2 0x37E JUMPI PUSH2 0x37D PUSH2 0x2FA JUMP JUMPDEST JUMPDEST PUSH0 PUSH2 0x38B DUP5 DUP3 DUP6 ADD PUSH2 0x355 JUMP JUMPDEST SWAP2 POP POP SWAP3 SWAP2 POP POP JUMP JUMPDEST PUSH2 0x39D DUP2 PUSH2 0x31D JUMP JUMPDEST DUP2 EQ PUSH2 0x3A7 JUMPI PUSH0 DUP1 REVERT JUMPDEST POP JUMP JUMPDEST PUSH0 DUP2 MLOAD SWAP1 POP PUSH2 0x3B8 DUP2 PUSH2 0x394 JUMP JUMPDEST SWAP3 SWAP2 POP POP JUMP JUMPDEST PUSH0 PUSH1 0x20 DUP3 DUP5 SUB SLT ISZERO PUSH2 0x3D3 JUMPI PUSH2 0x3D2 PUSH2 0x2FA JUMP JUMPDEST JUMPDEST PUSH0 PUSH2 0x3E0 DUP5 DUP3 DUP6 ADD PUSH2 0x3AA JUMP JUMPDEST SWAP2 POP POP SWAP3 SWAP2 POP POP JUMP JUMPDEST PUSH0 DUP2 MLOAD SWAP1 POP SWAP2 SWAP1 POP JUMP JUMPDEST PUSH0 DUP3 DUP3 MSTORE PUSH1 0x20 DUP3 ADD SWAP1 POP SWAP3 SWAP2 POP POP JUMP JUMPDEST DUP3 DUP2 DUP4 MCOPY PUSH0 DUP4 DUP4 ADD MSTORE POP POP POP JUMP JUMPDEST PUSH0 PUSH1 0x1F NOT PUSH1 0x1F DUP4 ADD AND SWAP1 POP SWAP2 SWAP1 POP JUMP JUMPDEST PUSH0 PUSH2 0x42B DUP3 PUSH2 0x3E9 JUMP JUMPDEST PUSH2 0x435 DUP2 DUP6 PUSH2 0x3F3 JUMP JUMPDEST SWAP4 POP PUSH2 0x445 DUP2 DUP6 PUSH1 0x20 DUP7 ADD PUSH2 0x403 JUMP JUMPDEST PUSH2 0x44E DUP2 PUSH2 0x411 JUMP JUMPDEST DUP5 ADD SWAP2 POP POP SWAP3 SWAP2 POP POP JUMP JUMPDEST PUSH0 PUSH1 0x20 DUP3 ADD SWAP1 POP DUP2 DUP2 SUB PUSH0 DUP4 ADD MSTORE PUSH2 0x471 DUP2 DUP5 PUSH2 0x421 JUMP JUMPDEST SWAP1 POP SWAP3 SWAP2 POP POP JUMP JUMPDEST PUSH1 0x80 MLOAD PUSH2 0x1884 PUSH2 0x491 PUSH0 CODECOPY PUSH0 PUSH2 0x705 ADD MSTORE PUSH2 0x1884 PUSH0 RETURN INVALID PUSH1 0x80 PUSH1 0x40 MSTORE CALLVALUE DUP1 ISZERO PUSH2 0xF JUMPI PUSH0 DUP1 REVERT JUMPDEST POP PUSH1 0x4 CALLDATASIZE LT PUSH2 0x1F9 JUMPI PUSH0 CALLDATALOAD PUSH1 0xE0 SHR DUP1 PUSH4 0x674B5E4D GT PUSH2 0x118 JUMPI DUP1 PUSH4 0x9A2B96F7 GT PUSH2 0xAB JUMPI DUP1 PUSH4 0xB5BFDDEA GT PUSH2 0x7A JUMPI DUP1 PUSH4 0xB5BFDDEA EQ PUSH2 0x5B9 JUMPI DUP1 PUSH4 0xB8F6DBA7 EQ PUSH2 0x5D7 JUMPI DUP1 PUSH4 0xD547741F EQ PUSH2 0x5F5 JUMPI DUP1 PUSH4 0xF83695CB EQ PUSH2 0x611 JUMPI DUP1 PUSH4 0xFA50F297 EQ PUSH2 0x62D JUMPI PUSH2 0x1F9 JUMP JUMPDEST DUP1 PUSH4 0x9A2B96F7 EQ PUSH2 0x547 JUMPI DUP1 PUSH4 0x9AC9D80B EQ PUSH2 0x563 JUMPI DUP1 PUSH4 0xA217FDDF EQ PUSH2 0x57F JUMPI DUP1 PUSH4 0xA21BCE15 EQ PUSH2 0x59D JUMPI PUSH2 0x1F9 JUMP JUMPDEST DUP1 PUSH4 0x7A9A93F4 GT PUSH2 0xE7 JUMPI DUP1 PUSH4 0x7A9A93F4 EQ PUSH2 0x4AF JUMPI DUP1 PUSH4 0x7BE53CA1 EQ PUSH2 0x4CB JUMPI DUP1 PUSH4 0x91D14854 EQ PUSH2 0x4FB JUMPI DUP1 PUSH4 0x9712FDF8 EQ PUSH2 0x52B JUMPI PUSH2 0x1F9 JUMP JUMPDEST DUP1 PUSH4 0x674B5E4D EQ PUSH2 0x413 JUMPI DUP1 PUSH4 0x6E76FC8F EQ PUSH2 0x443 JUMPI DUP1 PUSH4 0x726600CE EQ PUSH2 0x461 JUMPI DUP1 PUSH4 0x78BB0A43 EQ PUSH2 0x491 JUMPI PUSH2 0x1F9 JUMP JUMPDEST DUP1 PUSH4 0x2500F2B6 GT PUSH2 0x190 JUMPI DUP1 PUSH4 0x3C5A08E5 GT PUSH2 0x15F JUMPI DUP1 PUSH4 0x3C5A08E5 EQ PUSH2 0x39F JUMPI DUP1 PUSH4 0x4F16B425 EQ PUSH2 0x3BB JUMPI DUP1 PUSH4 0x5577B7A9 EQ PUSH2 0x3D9 JUMPI DUP1 PUSH4 0x5B9A94E4 EQ PUSH2 0x3F7 JUMPI PUSH2 0x1F9 JUMP JUMPDEST DUP1 PUSH4 0x2500F2B6 EQ PUSH2 0x31B JUMPI DUP1 PUSH4 0x253CF980 EQ PUSH2 0x34B JUMPI DUP1 PUSH4 0x2F2FF15D EQ PUSH2 0x367 JUMPI DUP1 PUSH4 0x36568ABE EQ PUSH2 0x383 JUMPI PUSH2 0x1F9 JUMP JUMPDEST DUP1 PUSH4 0x179EFB09 GT PUSH2 0x1CC JUMPI DUP1 PUSH4 0x179EFB09 EQ PUSH2 0x297 JUMPI DUP1 PUSH4 0x1E4E0091 EQ PUSH2 0x2B3 JUMPI DUP1 PUSH4 0x22650CAF EQ PUSH2 0x2CF JUMPI DUP1 PUSH4 0x248A9CA3 EQ PUSH2 0x2EB JUMPI PUSH2 0x1F9 JUMP JUMPDEST DUP1 PUSH4 0x1FFC9A7 EQ PUSH2 0x1FD JUMPI DUP1 PUSH4 0x4DF017D EQ PUSH2 0x22D JUMPI DUP1 PUSH4 0x542975C EQ PUSH2 0x249 JUMPI DUP1 PUSH4 0x13EE32E0 EQ PUSH2 0x267 JUMPI JUMPDEST PUSH0 DUP1 REVERT JUMPDEST PUSH2 0x217 PUSH1 0x4 DUP1 CALLDATASIZE SUB DUP2 ADD SWAP1 PUSH2 0x212 SWAP2 SWAP1 PUSH2 0x123D JUMP JUMPDEST PUSH2 0x65D JUMP JUMPDEST PUSH1 0x40 MLOAD PUSH2 0x224 SWAP2 SWAP1 PUSH2 0x1282 JUMP JUMPDEST PUSH1 0x40 MLOAD DUP1 SWAP2 SUB SWAP1 RETURN JUMPDEST PUSH2 0x247 PUSH1 0x4 DUP1 CALLDATASIZE SUB DUP2 ADD SWAP1 PUSH2 0x242 SWAP2 SWAP1 PUSH2 0x12F5 JUMP JUMPDEST PUSH2 0x6D6 JUMP JUMPDEST STOP JUMPDEST PUSH2 0x251 PUSH2 0x703 JUMP JUMPDEST PUSH1 0x40 MLOAD PUSH2 0x25E SWAP2 SWAP1 PUSH2 0x137B JUMP JUMPDEST PUSH1 0x40 MLOAD DUP1 SWAP2 SUB SWAP1 RETURN JUMPDEST PUSH2 0x281 PUSH1 0x4 DUP1 CALLDATASIZE SUB DUP2 ADD SWAP1 PUSH2 0x27C SWAP2 SWAP1 PUSH2 0x12F5 JUMP JUMPDEST PUSH2 0x727 JUMP JUMPDEST PUSH1 0x40 MLOAD PUSH2 0x28E SWAP2 SWAP1 PUSH2 0x1282 JUMP JUMPDEST PUSH1 0x40 MLOAD DUP1 SWAP2 SUB SWAP1 RETURN JUMPDEST PUSH2 0x2B1 PUSH1 0x4 DUP1 CALLDATASIZE SUB DUP2 ADD SWAP1 PUSH2 0x2AC SWAP2 SWAP1 PUSH2 0x12F5 JUMP JUMPDEST PUSH2 0x759 JUMP JUMPDEST STOP JUMPDEST PUSH2 0x2CD PUSH1 0x4 DUP1 CALLDATASIZE SUB DUP2 ADD SWAP1 PUSH2 0x2C8 SWAP2 SWAP1 PUSH2 0x13C7 JUMP JUMPDEST PUSH2 0x786 JUMP JUMPDEST STOP JUMPDEST PUSH2 0x2E9 PUSH1 0x4 DUP1 CALLDATASIZE SUB DUP2 ADD SWAP1 PUSH2 0x2E4 SWAP2 SWAP1 PUSH2 0x12F5 JUMP JUMPDEST PUSH2 0x7A9 JUMP JUMPDEST STOP JUMPDEST PUSH2 0x305 PUSH1 0x4 DUP1 CALLDATASIZE SUB DUP2 ADD SWAP1 PUSH2 0x300 SWAP2 SWAP1 PUSH2 0x1405 JUMP JUMPDEST PUSH2 0x7D6 JUMP JUMPDEST PUSH1 0x40 MLOAD PUSH2 0x312 SWAP2 SWAP1 PUSH2 0x143F JUMP JUMPDEST PUSH1 0x40 MLOAD DUP1 SWAP2 SUB SWAP1 RETURN JUMPDEST PUSH2 0x335 PUSH1 0x4 DUP1 CALLDATASIZE SUB DUP2 ADD SWAP1 PUSH2 0x330 SWAP2 SWAP1 PUSH2 0x12F5 JUMP JUMPDEST PUSH2 0x7F2 JUMP JUMPDEST PUSH1 0x40 MLOAD PUSH2 0x342 SWAP2 SWAP1 PUSH2 0x1282 JUMP JUMPDEST PUSH1 0x40 MLOAD DUP1 SWAP2 SUB SWAP1 RETURN JUMPDEST PUSH2 0x365 PUSH1 0x4 DUP1 CALLDATASIZE SUB DUP2 ADD SWAP1 PUSH2 0x360 SWAP2 SWAP1 PUSH2 0x12F5 JUMP JUMPDEST PUSH2 0x824 JUMP JUMPDEST STOP JUMPDEST PUSH2 0x381 PUSH1 0x4 DUP1 CALLDATASIZE SUB DUP2 ADD SWAP1 PUSH2 0x37C SWAP2 SWAP1 PUSH2 0x1458 JUMP JUMPDEST PUSH2 0x851 JUMP JUMPDEST STOP JUMPDEST PUSH2 0x39D PUSH1 0x4 DUP1 CALLDATASIZE SUB DUP2 ADD SWAP1 PUSH2 0x398 SWAP2 SWAP1 PUSH2 0x1458 JUMP JUMPDEST PUSH2 0x87A JUMP JUMPDEST STOP JUMPDEST PUSH2 0x3B9 PUSH1 0x4 DUP1 CALLDATASIZE SUB DUP2 ADD SWAP1 PUSH2 0x3B4 SWAP2 SWAP1 PUSH2 0x12F5 JUMP JUMPDEST PUSH2 0x8FD JUMP JUMPDEST STOP JUMPDEST PUSH2 0x3C3 PUSH2 0x92A JUMP JUMPDEST PUSH1 0x40 MLOAD PUSH2 0x3D0 SWAP2 SWAP1 PUSH2 0x143F JUMP JUMPDEST PUSH1 0x40 MLOAD DUP1 SWAP2 SUB SWAP1 RETURN JUMPDEST PUSH2 0x3E1 PUSH2 0x94E JUMP JUMPDEST PUSH1 0x40 MLOAD PUSH2 0x3EE SWAP2 SWAP1 PUSH2 0x143F JUMP JUMPDEST PUSH1 0x40 MLOAD DUP1 SWAP2 SUB SWAP1 RETURN JUMPDEST PUSH2 0x411 PUSH1 0x4 DUP1 CALLDATASIZE SUB DUP2 ADD SWAP1 PUSH2 0x40C SWAP2 SWAP1 PUSH2 0x12F5 JUMP JUMPDEST PUSH2 0x972 JUMP JUMPDEST STOP JUMPDEST PUSH2 0x42D PUSH1 0x4 DUP1 CALLDATASIZE SUB DUP2 ADD SWAP1 PUSH2 0x428 SWAP2 SWAP1 PUSH2 0x12F5 JUMP JUMPDEST PUSH2 0x99F JUMP JUMPDEST PUSH1 0x40 MLOAD PUSH2 0x43A SWAP2 SWAP1 PUSH2 0x1282 JUMP JUMPDEST PUSH1 0x40 MLOAD DUP1 SWAP2 SUB SWAP1 RETURN JUMPDEST PUSH2 0x44B PUSH2 0x9D1 JUMP JUMPDEST PUSH1 0x40 MLOAD PUSH2 0x458 SWAP2 SWAP1 PUSH2 0x143F JUMP JUMPDEST PUSH1 0x40 MLOAD DUP1 SWAP2 SUB SWAP1 RETURN JUMPDEST PUSH2 0x47B PUSH1 0x4 DUP1 CALLDATASIZE SUB DUP2 ADD SWAP1 PUSH2 0x476 SWAP2 SWAP1 PUSH2 0x12F5 JUMP JUMPDEST PUSH2 0x9F5 JUMP JUMPDEST PUSH1 0x40 MLOAD PUSH2 0x488 SWAP2 SWAP1 PUSH2 0x1282 JUMP JUMPDEST PUSH1 0x40 MLOAD DUP1 SWAP2 SUB SWAP1 RETURN JUMPDEST PUSH2 0x499 PUSH2 0xA27 JUMP JUMPDEST PUSH1 0x40 MLOAD PUSH2 0x4A6 SWAP2 SWAP1 PUSH2 0x143F JUMP JUMPDEST PUSH1 0x40 MLOAD DUP1 SWAP2 SUB SWAP1 RETURN JUMPDEST PUSH2 0x4C9 PUSH1 0x4 DUP1 CALLDATASIZE SUB DUP2 ADD SWAP1 PUSH2 0x4C4 SWAP2 SWAP1 PUSH2 0x12F5 JUMP JUMPDEST PUSH2 0xA4B JUMP JUMPDEST STOP JUMPDEST PUSH2 0x4E5 PUSH1 0x4 DUP1 CALLDATASIZE SUB DUP2 ADD SWAP1 PUSH2 0x4E0 SWAP2 SWAP1 PUSH2 0x12F5 JUMP JUMPDEST PUSH2 0xA78 JUMP JUMPDEST PUSH1 0x40 MLOAD PUSH2 0x4F2 SWAP2 SWAP1 PUSH2 0x1282 JUMP JUMPDEST PUSH1 0x40 MLOAD DUP1 SWAP2 SUB SWAP1 RETURN JUMPDEST PUSH2 0x515 PUSH1 0x4 DUP1 CALLDATASIZE SUB DUP2 ADD SWAP1 PUSH2 0x510 SWAP2 SWAP1 PUSH2 0x1458 JUMP JUMPDEST PUSH2 0xAAA JUMP JUMPDEST PUSH1 0x40 MLOAD PUSH2 0x522 SWAP2 SWAP1 PUSH2 0x1282 JUMP JUMPDEST PUSH1 0x40 MLOAD DUP1 SWAP2 SUB SWAP1 RETURN JUMPDEST PUSH2 0x545 PUSH1 0x4 DUP1 CALLDATASIZE SUB DUP2 ADD SWAP1 PUSH2 0x540 SWAP2 SWAP1 PUSH2 0x12F5 JUMP JUMPDEST PUSH2 0xB0D JUMP JUMPDEST STOP JUMPDEST PUSH2 0x561 PUSH1 0x4 DUP1 CALLDATASIZE SUB DUP2 ADD SWAP1 PUSH2 0x55C SWAP2 SWAP1 PUSH2 0x12F5 JUMP JUMPDEST PUSH2 0xB3A JUMP JUMPDEST STOP JUMPDEST PUSH2 0x57D PUSH1 0x4 DUP1 CALLDATASIZE SUB DUP2 ADD SWAP1 PUSH2 0x578 SWAP2 SWAP1 PUSH2 0x12F5 JUMP JUMPDEST PUSH2 0xB67 JUMP JUMPDEST STOP JUMPDEST PUSH2 0x587 PUSH2 0xB94 JUMP JUMPDEST PUSH1 0x40 MLOAD PUSH2 0x594 SWAP2 SWAP1 PUSH2 0x143F JUMP JUMPDEST PUSH1 0x40 MLOAD DUP1 SWAP2 SUB SWAP1 RETURN JUMPDEST PUSH2 0x5B7 PUSH1 0x4 DUP1 CALLDATASIZE SUB DUP2 ADD SWAP1 PUSH2 0x5B2 SWAP2 SWAP1 PUSH2 0x12F5 JUMP JUMPDEST PUSH2 0xB9A JUMP JUMPDEST STOP JUMPDEST PUSH2 0x5C1 PUSH2 0xBC7 JUMP JUMPDEST PUSH1 0x40 MLOAD PUSH2 0x5CE SWAP2 SWAP1 PUSH2 0x143F JUMP JUMPDEST PUSH1 0x40 MLOAD DUP1 SWAP2 SUB SWAP1 RETURN JUMPDEST PUSH2 0x5DF PUSH2 0xBEB JUMP JUMPDEST PUSH1 0x40 MLOAD PUSH2 0x5EC SWAP2 SWAP1 PUSH2 0x143F JUMP JUMPDEST PUSH1 0x40 MLOAD DUP1 SWAP2 SUB SWAP1 RETURN JUMPDEST PUSH2 0x60F PUSH1 0x4 DUP1 CALLDATASIZE SUB DUP2 ADD SWAP1 PUSH2 0x60A SWAP2 SWAP1 PUSH2 0x1458 JUMP JUMPDEST PUSH2 0xC0F JUMP JUMPDEST STOP JUMPDEST PUSH2 0x62B PUSH1 0x4 DUP1 CALLDATASIZE SUB DUP2 ADD SWAP1 PUSH2 0x626 SWAP2 SWAP1 PUSH2 0x12F5 JUMP JUMPDEST PUSH2 0xC38 JUMP JUMPDEST STOP JUMPDEST PUSH2 0x647 PUSH1 0x4 DUP1 CALLDATASIZE SUB DUP2 ADD SWAP1 PUSH2 0x642 SWAP2 SWAP1 PUSH2 0x12F5 JUMP JUMPDEST PUSH2 0xC65 JUMP JUMPDEST PUSH1 0x40 MLOAD PUSH2 0x654 SWAP2 SWAP1 PUSH2 0x1282 JUMP JUMPDEST PUSH1 0x40 MLOAD DUP1 SWAP2 SUB SWAP1 RETURN JUMPDEST PUSH0 PUSH32 0x7965DB0B00000000000000000000000000000000000000000000000000000000 PUSH28 0xFFFFFFFFFFFFFFFFFFFFFFFFFFFFFFFFFFFFFFFFFFFFFFFFFFFFFFFF NOT AND DUP3 PUSH28 0xFFFFFFFFFFFFFFFFFFFFFFFFFFFFFFFFFFFFFFFFFFFFFFFFFFFFFFFF NOT AND EQ DUP1 PUSH2 0x6CF JUMPI POP PUSH2 0x6CE DUP3 PUSH2 0xC97 JUMP JUMPDEST JUMPDEST SWAP1 POP SWAP2 SWAP1 POP JUMP JUMPDEST PUSH2 0x700 PUSH32 0x8FB31C3E81624356C3314088AA971B73BCC82D22BC3E3B184B4593077AE3278 DUP3 PUSH2 0xC0F JUMP JUMPDEST POP JUMP JUMPDEST PUSH32 0x0 DUP2 JUMP JUMPDEST PUSH0 PUSH2 0x752 PUSH32 0x19C860A63258EFBD0ECB7D55C626237BF5C2044C26C073390B74F0C13C857433 DUP4 PUSH2 0xAAA JUMP JUMPDEST SWAP1 POP SWAP2 SWAP1 POP JUMP JUMPDEST PUSH2 0x783 PUSH32 0x5C91514091AF31F62F596A314AF7D5BE40146B2F2355969392F055E12E0982FB DUP3 PUSH2 0x851 JUMP JUMPDEST POP JUMP JUMPDEST PUSH0 DUP1 SHL PUSH2 0x79A DUP2 PUSH2 0x795 PUSH2 0xD00 JUMP JUMPDEST PUSH2 0xD07 JUMP JUMPDEST PUSH2 0x7A4 DUP4 DUP4 PUSH2 0xDA3 JUMP JUMPDEST POP POP POP JUMP JUMPDEST PUSH2 0x7D3 PUSH32 0x12AD05BDE78C5AB75238CE885307F96ECD482BB402EF831F99E7018A0F169B7B DUP3 PUSH2 0x851 JUMP JUMPDEST POP JUMP JUMPDEST PUSH0 DUP1 PUSH0 DUP4 DUP2 MSTORE PUSH1 0x20 ADD SWAP1 DUP2 MSTORE PUSH1 0x20 ADD PUSH0 KECCAK256 PUSH1 0x1 ADD SLOAD SWAP1 POP SWAP2 SWAP1 POP JUMP JUMPDEST PUSH0 PUSH2 0x81D PUSH32 0x5C91514091AF31F62F596A314AF7D5BE40146B2F2355969392F055E12E0982FB DUP4 PUSH2 0xAAA JUMP JUMPDEST SWAP1 POP SWAP2 SWAP1 POP JUMP JUMPDEST PUSH2 0x84E PUSH32 0x939B8DFB57ECEF2AEA54A93A15E86768B9D4089F1BA61C245E6EC980695F4CA4 DUP3 PUSH2 0xC0F JUMP JUMPDEST POP JUMP JUMPDEST PUSH2 0x85A DUP3 PUSH2 0x7D6 JUMP JUMPDEST PUSH2 0x86B DUP2 PUSH2 0x866 PUSH2 0xD00 JUMP JUMPDEST PUSH2 0xD07 JUMP JUMPDEST PUSH2 0x875 DUP4 DUP4 PUSH2 0xDFB JUMP JUMPDEST POP POP POP JUMP JUMPDEST PUSH2 0x882 PUSH2 0xD00 JUMP JUMPDEST PUSH20 0xFFFFFFFFFFFFFFFFFFFFFFFFFFFFFFFFFFFFFFFF AND DUP2 PUSH20 0xFFFFFFFFFFFFFFFFFFFFFFFFFFFFFFFFFFFFFFFF AND EQ PUSH2 0x8EF JUMPI PUSH1 0x40 MLOAD PUSH32 0x8C379A000000000000000000000000000000000000000000000000000000000 DUP2 MSTORE PUSH1 0x4 ADD PUSH2 0x8E6 SWAP1 PUSH2 0x1516 JUMP JUMPDEST PUSH1 0x40 MLOAD DUP1 SWAP2 SUB SWAP1 REVERT JUMPDEST PUSH2 0x8F9 DUP3 DUP3 PUSH2 0xED5 JUMP JUMPDEST POP POP JUMP JUMPDEST PUSH2 0x927 PUSH32 0x8AA855A911518ECFBE5BC3088C8F3DDA7BADF130FAAF8ACE33FDC33828E18167 DUP3 PUSH2 0xC0F JUMP JUMPDEST POP JUMP JUMPDEST PUSH32 0x8AA855A911518ECFBE5BC3088C8F3DDA7BADF130FAAF8ACE33FDC33828E18167 DUP2 JUMP JUMPDEST PUSH32 0x939B8DFB57ECEF2AEA54A93A15E86768B9D4089F1BA61C245E6EC980695F4CA4 DUP2 JUMP JUMPDEST PUSH2 0x99C PUSH32 0x8AA855A911518ECFBE5BC3088C8F3DDA7BADF130FAAF8ACE33FDC33828E18167 DUP3 PUSH2 0x851 JUMP JUMPDEST POP JUMP JUMPDEST PUSH0 PUSH2 0x9CA PUSH32 0x8AA855A911518ECFBE5BC3088C8F3DDA7BADF130FAAF8ACE33FDC33828E18167 DUP4 PUSH2 0xAAA JUMP JUMPDEST SWAP1 POP SWAP2 SWAP1 POP JUMP JUMPDEST PUSH32 0x5C91514091AF31F62F596A314AF7D5BE40146B2F2355969392F055E12E0982FB DUP2 JUMP JUMPDEST PUSH0 PUSH2 0xA20 PUSH32 0x8FB31C3E81624356C3314088AA971B73BCC82D22BC3E3B184B4593077AE3278 DUP4 PUSH2 0xAAA JUMP JUMPDEST SWAP1 POP SWAP2 SWAP1 POP JUMP JUMPDEST PUSH32 0x19C860A63258EFBD0ECB7D55C626237BF5C2044C26C073390B74F0C13C857433 DUP2 JUMP JUMPDEST PUSH2 0xA75 PUSH32 0x5C91514091AF31F62F596A314AF7D5BE40146B2F2355969392F055E12E0982FB DUP3 PUSH2 0xC0F JUMP JUMPDEST POP JUMP JUMPDEST PUSH0 PUSH2 0xAA3 PUSH32 0x12AD05BDE78C5AB75238CE885307F96ECD482BB402EF831F99E7018A0F169B7B DUP4 PUSH2 0xAAA JUMP JUMPDEST SWAP1 POP SWAP2 SWAP1 POP JUMP JUMPDEST PUSH0 DUP1 PUSH0 DUP5 DUP2 MSTORE PUSH1 0x20 ADD SWAP1 DUP2 MSTORE PUSH1 0x20 ADD PUSH0 KECCAK256 PUSH0 ADD PUSH0 DUP4 PUSH20 0xFFFFFFFFFFFFFFFFFFFFFFFFFFFFFFFFFFFFFFFF AND PUSH20 0xFFFFFFFFFFFFFFFFFFFFFFFFFFFFFFFFFFFFFFFF AND DUP2 MSTORE PUSH1 0x20 ADD SWAP1 DUP2 MSTORE PUSH1 0x20 ADD PUSH0 KECCAK256 PUSH0 SWAP1 SLOAD SWAP1 PUSH2 0x100 EXP SWAP1 DIV PUSH1 0xFF AND SWAP1 POP SWAP3 SWAP2 POP POP JUMP JUMPDEST PUSH2 0xB37 PUSH32 0x8FB31C3E81624356C3314088AA971B73BCC82D22BC3E3B184B4593077AE3278 DUP3 PUSH2 0x851 JUMP JUMPDEST POP JUMP JUMPDEST PUSH2 0xB64 PUSH32 0x19C860A63258EFBD0ECB7D55C626237BF5C2044C26C073390B74F0C13C857433 DUP3 PUSH2 0x851 JUMP JUMPDEST POP JUMP JUMPDEST PUSH2 0xB91 PUSH32 0x939B8DFB57ECEF2AEA54A93A15E86768B9D4089F1BA61C245E6EC980695F4CA4 DUP3 PUSH2 0x851 JUMP JUMPDEST POP JUMP JUMPDEST PUSH0 DUP1 SHL DUP2 JUMP JUMPDEST PUSH2 0xBC4 PUSH32 0x19C860A63258EFBD0ECB7D55C626237BF5C2044C26C073390B74F0C13C857433 DUP3 PUSH2 0xC0F JUMP JUMPDEST POP JUMP JUMPDEST PUSH32 0x8FB31C3E81624356C3314088AA971B73BCC82D22BC3E3B184B4593077AE3278 DUP2 JUMP JUMPDEST PUSH32 0x12AD05BDE78C5AB75238CE885307F96ECD482BB402EF831F99E7018A0F169B7B DUP2 JUMP JUMPDEST PUSH2 0xC18 DUP3 PUSH2 0x7D6 JUMP JUMPDEST PUSH2 0xC29 DUP2 PUSH2 0xC24 PUSH2 0xD00 JUMP JUMPDEST PUSH2 0xD07 JUMP JUMPDEST PUSH2 0xC33 DUP4 DUP4 PUSH2 0xED5 JUMP JUMPDEST POP POP POP JUMP JUMPDEST PUSH2 0xC62 PUSH32 0x12AD05BDE78C5AB75238CE885307F96ECD482BB402EF831F99E7018A0F169B7B DUP3 PUSH2 0xC0F JUMP JUMPDEST POP JUMP JUMPDEST PUSH0 PUSH2 0xC90 PUSH32 0x939B8DFB57ECEF2AEA54A93A15E86768B9D4089F1BA61C245E6EC980695F4CA4 DUP4 PUSH2 0xAAA JUMP JUMPDEST SWAP1 POP SWAP2 SWAP1 POP JUMP JUMPDEST PUSH0 PUSH32 0x1FFC9A700000000000000000000000000000000000000000000000000000000 PUSH28 0xFFFFFFFFFFFFFFFFFFFFFFFFFFFFFFFFFFFFFFFFFFFFFFFFFFFFFFFF NOT AND DUP3 PUSH28 0xFFFFFFFFFFFFFFFFFFFFFFFFFFFFFFFFFFFFFFFFFFFFFFFFFFFFFFFF NOT AND EQ SWAP1 POP SWAP2 SWAP1 POP JUMP JUMPDEST PUSH0 CALLER SWAP1 POP SWAP1 JUMP JUMPDEST PUSH2 0xD11 DUP3 DUP3 PUSH2 0xAAA JUMP JUMPDEST PUSH2 0xD9F JUMPI PUSH2 0xD36 DUP2 PUSH20 0xFFFFFFFFFFFFFFFFFFFFFFFFFFFFFFFFFFFFFFFF AND PUSH1 0x14 PUSH2 0xFAF JUMP JUMPDEST PUSH2 0xD43 DUP4 PUSH0 SHR PUSH1 0x20 PUSH2 0xFAF JUMP JUMPDEST PUSH1 0x40 MLOAD PUSH1 0x20 ADD PUSH2 0xD54 SWAP3 SWAP2 SWAP1 PUSH2 0x161A JUMP JUMPDEST PUSH1 0x40 MLOAD PUSH1 0x20 DUP2 DUP4 SUB SUB DUP2 MSTORE SWAP1 PUSH1 0x40 MSTORE PUSH1 0x40 MLOAD PUSH32 0x8C379A000000000000000000000000000000000000000000000000000000000 DUP2 MSTORE PUSH1 0x4 ADD PUSH2 0xD96 SWAP2 SWAP1 PUSH2 0x169B JUMP JUMPDEST PUSH1 0x40 MLOAD DUP1 SWAP2 SUB SWAP1 REVERT JUMPDEST POP POP JUMP JUMPDEST PUSH0 PUSH2 0xDAD DUP4 PUSH2 0x7D6 JUMP JUMPDEST SWAP1 POP DUP2 PUSH0 DUP1 DUP6 DUP2 MSTORE PUSH1 0x20 ADD SWAP1 DUP2 MSTORE PUSH1 0x20 ADD PUSH0 KECCAK256 PUSH1 0x1 ADD DUP2 SWAP1 SSTORE POP DUP2 DUP2 DUP5 PUSH32 0xBD79B86FFE0AB8E8776151514217CD7CACD52C909F66475C3AF44E129F0B00FF PUSH1 0x40 MLOAD PUSH1 0x40 MLOAD DUP1 SWAP2 SUB SWAP1 LOG4 POP POP POP JUMP JUMPDEST PUSH2 0xE05 DUP3 DUP3 PUSH2 0xAAA JUMP JUMPDEST PUSH2 0xED1 JUMPI PUSH1 0x1 PUSH0 DUP1 DUP5 DUP2 MSTORE PUSH1 0x20 ADD SWAP1 DUP2 MSTORE PUSH1 0x20 ADD PUSH0 KECCAK256 PUSH0 ADD PUSH0 DUP4 PUSH20 0xFFFFFFFFFFFFFFFFFFFFFFFFFFFFFFFFFFFFFFFF AND PUSH20 0xFFFFFFFFFFFFFFFFFFFFFFFFFFFFFFFFFFFFFFFF AND DUP2 MSTORE PUSH1 0x20 ADD SWAP1 DUP2 MSTORE PUSH1 0x20 ADD PUSH0 KECCAK256 PUSH0 PUSH2 0x100 EXP DUP2 SLOAD DUP2 PUSH1 0xFF MUL NOT AND SWAP1 DUP4 ISZERO ISZERO MUL OR SWAP1 SSTORE POP PUSH2 0xE76 PUSH2 0xD00 JUMP JUMPDEST PUSH20 0xFFFFFFFFFFFFFFFFFFFFFFFFFFFFFFFFFFFFFFFF AND DUP2 PUSH20 0xFFFFFFFFFFFFFFFFFFFFFFFFFFFFFFFFFFFFFFFF AND DUP4 PUSH32 0x2F8788117E7EFF1D82E926EC794901D17C78024A50270940304540A733656F0D PUSH1 0x40 MLOAD PUSH1 0x40 MLOAD DUP1 SWAP2 SUB SWAP1 LOG4 JUMPDEST POP POP JUMP JUMPDEST PUSH2 0xEDF DUP3 DUP3 PUSH2 0xAAA JUMP JUMPDEST ISZERO PUSH2 0xFAB JUMPI PUSH0 DUP1 PUSH0 DUP5 DUP2 MSTORE PUSH1 0x20 ADD SWAP1 DUP2 MSTORE PUSH1 0x20 ADD PUSH0 KECCAK256 PUSH0 ADD PUSH0 DUP4 PUSH20 0xFFFFFFFFFFFFFFFFFFFFFFFFFFFFFFFFFFFFFFFF AND PUSH20 0xFFFFFFFFFFFFFFFFFFFFFFFFFFFFFFFFFFFFFFFF AND DUP2 MSTORE PUSH1 0x20 ADD SWAP1 DUP2 MSTORE PUSH1 0x20 ADD PUSH0 KECCAK256 PUSH0 PUSH2 0x100 EXP DUP2 SLOAD DUP2 PUSH1 0xFF MUL NOT AND SWAP1 DUP4 ISZERO ISZERO MUL OR SWAP1 SSTORE POP PUSH2 0xF50 PUSH2 0xD00 JUMP JUMPDEST PUSH20 0xFFFFFFFFFFFFFFFFFFFFFFFFFFFFFFFFFFFFFFFF AND DUP2 PUSH20 0xFFFFFFFFFFFFFFFFFFFFFFFFFFFFFFFFFFFFFFFF AND DUP4 PUSH32 0xF6391F5C32D9C69D2A47EA670B442974B53935D1EDC7FD64EB21E047A839171B PUSH1 0x40 MLOAD PUSH1 0x40 MLOAD DUP1 SWAP2 SUB SWAP1 LOG4 JUMPDEST POP POP JUMP JUMPDEST PUSH1 0x60 PUSH0 PUSH1 0x2 DUP4 PUSH1 0x2 PUSH2 0xFC1 SWAP2 SWAP1 PUSH2 0x16F1 JUMP JUMPDEST PUSH2 0xFCB SWAP2 SWAP1 PUSH2 0x1732 JUMP JUMPDEST PUSH8 0xFFFFFFFFFFFFFFFF DUP2 GT ISZERO PUSH2 0xFE4 JUMPI PUSH2 0xFE3 PUSH2 0x1765 JUMP JUMPDEST JUMPDEST PUSH1 0x40 MLOAD SWAP1 DUP1 DUP3 MSTORE DUP1 PUSH1 0x1F ADD PUSH1 0x1F NOT AND PUSH1 0x20 ADD DUP3 ADD PUSH1 0x40 MSTORE DUP1 ISZERO PUSH2 0x1016 JUMPI DUP2 PUSH1 0x20 ADD PUSH1 0x1 DUP3 MUL DUP1 CALLDATASIZE DUP4 CALLDATACOPY DUP1 DUP3 ADD SWAP2 POP POP SWAP1 POP JUMPDEST POP SWAP1 POP PUSH32 0x3000000000000000000000000000000000000000000000000000000000000000 DUP2 PUSH0 DUP2 MLOAD DUP2 LT PUSH2 0x104D JUMPI PUSH2 0x104C PUSH2 0x1792 JUMP JUMPDEST JUMPDEST PUSH1 0x20 ADD ADD SWAP1 PUSH31 0xFFFFFFFFFFFFFFFFFFFFFFFFFFFFFFFFFFFFFFFFFFFFFFFFFFFFFFFFFFFFFF NOT AND SWAP1 DUP2 PUSH0 BYTE SWAP1 MSTORE8 POP PUSH32 0x7800000000000000000000000000000000000000000000000000000000000000 DUP2 PUSH1 0x1 DUP2 MLOAD DUP2 LT PUSH2 0x10B0 JUMPI PUSH2 0x10AF PUSH2 0x1792 JUMP JUMPDEST JUMPDEST PUSH1 0x20 ADD ADD SWAP1 PUSH31 0xFFFFFFFFFFFFFFFFFFFFFFFFFFFFFFFFFFFFFFFFFFFFFFFFFFFFFFFFFFFFFF NOT AND SWAP1 DUP2 PUSH0 BYTE SWAP1 MSTORE8 POP PUSH0 PUSH1 0x1 DUP5 PUSH1 0x2 PUSH2 0x10EE SWAP2 SWAP1 PUSH2 0x16F1 JUMP JUMPDEST PUSH2 0x10F8 SWAP2 SWAP1 PUSH2 0x1732 JUMP JUMPDEST SWAP1 POP JUMPDEST PUSH1 0x1 DUP2 GT ISZERO PUSH2 0x1197 JUMPI PUSH32 0x3031323334353637383961626364656600000000000000000000000000000000 PUSH1 0xF DUP7 AND PUSH1 0x10 DUP2 LT PUSH2 0x113A JUMPI PUSH2 0x1139 PUSH2 0x1792 JUMP JUMPDEST JUMPDEST BYTE PUSH1 0xF8 SHL DUP3 DUP3 DUP2 MLOAD DUP2 LT PUSH2 0x1151 JUMPI PUSH2 0x1150 PUSH2 0x1792 JUMP JUMPDEST JUMPDEST PUSH1 0x20 ADD ADD SWAP1 PUSH31 0xFFFFFFFFFFFFFFFFFFFFFFFFFFFFFFFFFFFFFFFFFFFFFFFFFFFFFFFFFFFFFF NOT AND SWAP1 DUP2 PUSH0 BYTE SWAP1 MSTORE8 POP PUSH1 0x4 DUP6 SWAP1 SHR SWAP5 POP DUP1 PUSH2 0x1190 SWAP1 PUSH2 0x17BF JUMP JUMPDEST SWAP1 POP PUSH2 0x10FB JUMP JUMPDEST POP PUSH0 DUP5 EQ PUSH2 0x11DA JUMPI PUSH1 0x40 MLOAD PUSH32 0x8C379A000000000000000000000000000000000000000000000000000000000 DUP2 MSTORE PUSH1 0x4 ADD PUSH2 0x11D1 SWAP1 PUSH2 0x1830 JUMP JUMPDEST PUSH1 0x40 MLOAD DUP1 SWAP2 SUB SWAP1 REVERT JUMPDEST DUP1 SWAP2 POP POP SWAP3 SWAP2 POP POP JUMP JUMPDEST PUSH0 DUP1 REVERT JUMPDEST PUSH0 PUSH32 0xFFFFFFFF00000000000000000000000000000000000000000000000000000000 DUP3 AND SWAP1 POP SWAP2 SWAP1 POP JUMP JUMPDEST PUSH2 0x121C DUP2 PUSH2 0x11E8 JUMP JUMPDEST DUP2 EQ PUSH2 0x1226 JUMPI PUSH0 DUP1 REVERT JUMPDEST POP JUMP JUMPDEST PUSH0 DUP2 CALLDATALOAD SWAP1 POP PUSH2 0x1237 DUP2 PUSH2 0x1213 JUMP JUMPDEST SWAP3 SWAP2 POP POP JUMP JUMPDEST PUSH0 PUSH1 0x20 DUP3 DUP5 SUB SLT ISZERO PUSH2 0x1252 JUMPI PUSH2 0x1251 PUSH2 0x11E4 JUMP JUMPDEST JUMPDEST PUSH0 PUSH2 0x125F DUP5 DUP3 DUP6 ADD PUSH2 0x1229 JUMP JUMPDEST SWAP2 POP POP SWAP3 SWAP2 POP POP JUMP JUMPDEST PUSH0 DUP2 ISZERO ISZERO SWAP1 POP SWAP2 SWAP1 POP JUMP JUMPDEST PUSH2 0x127C DUP2 PUSH2 0x1268 JUMP JUMPDEST DUP3 MSTORE POP POP JUMP JUMPDEST PUSH0 PUSH1 0x20 DUP3 ADD SWAP1 POP PUSH2 0x1295 PUSH0 DUP4 ADD DUP5 PUSH2 0x1273 JUMP JUMPDEST SWAP3 SWAP2 POP POP JUMP JUMPDEST PUSH0 PUSH20 0xFFFFFFFFFFFFFFFFFFFFFFFFFFFFFFFFFFFFFFFF DUP3 AND SWAP1 POP SWAP2 SWAP1 POP JUMP JUMPDEST PUSH0 PUSH2 0x12C4 DUP3 PUSH2 0x129B JUMP JUMPDEST SWAP1 POP SWAP2 SWAP1 POP JUMP JUMPDEST PUSH2 0x12D4 DUP2 PUSH2 0x12BA JUMP JUMPDEST DUP2 EQ PUSH2 0x12DE JUMPI PUSH0 DUP1 REVERT JUMPDEST POP JUMP JUMPDEST PUSH0 DUP2 CALLDATALOAD SWAP1 POP PUSH2 0x12EF DUP2 PUSH2 0x12CB JUMP JUMPDEST SWAP3 SWAP2 POP POP JUMP JUMPDEST PUSH0 PUSH1 0x20 DUP3 DUP5 SUB SLT ISZERO PUSH2 0x130A JUMPI PUSH2 0x1309 PUSH2 0x11E4 JUMP JUMPDEST JUMPDEST PUSH0 PUSH2 0x1317 DUP5 DUP3 DUP6 ADD PUSH2 0x12E1 JUMP JUMPDEST SWAP2 POP POP SWAP3 SWAP2 POP POP JUMP JUMPDEST PUSH0 DUP2 SWAP1 POP SWAP2 SWAP1 POP JUMP JUMPDEST PUSH0 PUSH2 0x1343 PUSH2 0x133E PUSH2 0x1339 DUP5 PUSH2 0x129B JUMP JUMPDEST PUSH2 0x1320 JUMP JUMPDEST PUSH2 0x129B JUMP JUMPDEST SWAP1 POP SWAP2 SWAP1 POP JUMP JUMPDEST PUSH0 PUSH2 0x1354 DUP3 PUSH2 0x1329 JUMP JUMPDEST SWAP1 POP SWAP2 SWAP1 POP JUMP JUMPDEST PUSH0 PUSH2 0x1365 DUP3 PUSH2 0x134A JUMP JUMPDEST SWAP1 POP SWAP2 SWAP1 POP JUMP JUMPDEST PUSH2 0x1375 DUP2 PUSH2 0x135B JUMP JUMPDEST DUP3 MSTORE POP POP JUMP JUMPDEST PUSH0 PUSH1 0x20 DUP3 ADD SWAP1 POP PUSH2 0x138E PUSH0 DUP4 ADD DUP5 PUSH2 0x136C JUMP JUMPDEST SWAP3 SWAP2 POP POP JUMP JUMPDEST PUSH0 DUP2 SWAP1 POP SWAP2 SWAP1 POP JUMP JUMPDEST PUSH2 0x13A6 DUP2 PUSH2 0x1394 JUMP JUMPDEST DUP2 EQ PUSH2 0x13B0 JUMPI PUSH0 DUP1 REVERT JUMPDEST POP JUMP JUMPDEST PUSH0 DUP2 CALLDATALOAD SWAP1 POP PUSH2 0x13C1 DUP2 PUSH2 0x139D JUMP JUMPDEST SWAP3 SWAP2 POP POP JUMP JUMPDEST PUSH0 DUP1 PUSH1 0x40 DUP4 DUP6 SUB SLT ISZERO PUSH2 0x13DD JUMPI PUSH2 0x13DC PUSH2 0x11E4 JUMP JUMPDEST JUMPDEST PUSH0 PUSH2 0x13EA DUP6 DUP3 DUP7 ADD PUSH2 0x13B3 JUMP JUMPDEST SWAP3 POP POP PUSH1 0x20 PUSH2 0x13FB DUP6 DUP3 DUP7 ADD PUSH2 0x13B3 JUMP JUMPDEST SWAP2 POP POP SWAP3 POP SWAP3 SWAP1 POP JUMP JUMPDEST PUSH0 PUSH1 0x20 DUP3 DUP5 SUB SLT ISZERO PUSH2 0x141A JUMPI PUSH2 0x1419 PUSH2 0x11E4 JUMP JUMPDEST JUMPDEST PUSH0 PUSH2 0x1427 DUP5 DUP3 DUP6 ADD PUSH2 0x13B3 JUMP JUMPDEST SWAP2 POP POP SWAP3 SWAP2 POP POP JUMP JUMPDEST PUSH2 0x1439 DUP2 PUSH2 0x1394 JUMP JUMPDEST DUP3 MSTORE POP POP JUMP JUMPDEST PUSH0 PUSH1 0x20 DUP3 ADD SWAP1 POP PUSH2 0x1452 PUSH0 DUP4 ADD DUP5 PUSH2 0x1430 JUMP JUMPDEST SWAP3 SWAP2 POP POP JUMP JUMPDEST PUSH0 DUP1 PUSH1 0x40 DUP4 DUP6 SUB SLT ISZERO PUSH2 0x146E JUMPI PUSH2 0x146D PUSH2 0x11E4 JUMP JUMPDEST JUMPDEST PUSH0 PUSH2 0x147B DUP6 DUP3 DUP7 ADD PUSH2 0x13B3 JUMP JUMPDEST SWAP3 POP POP PUSH1 0x20 PUSH2 0x148C DUP6 DUP3 DUP7 ADD PUSH2 0x12E1 JUMP JUMPDEST SWAP2 POP POP SWAP3 POP SWAP3 SWAP1 POP JUMP JUMPDEST PUSH0 DUP3 DUP3 MSTORE PUSH1 0x20 DUP3 ADD SWAP1 POP SWAP3 SWAP2 POP POP JUMP JUMPDEST PUSH32 0x416363657373436F6E74726F6C3A2063616E206F6E6C792072656E6F756E6365 PUSH0 DUP3 ADD MSTORE PUSH32 0x20726F6C657320666F722073656C660000000000000000000000000000000000 PUSH1 0x20 DUP3 ADD MSTORE POP JUMP JUMPDEST PUSH0 PUSH2 0x1500 PUSH1 0x2F DUP4 PUSH2 0x1496 JUMP JUMPDEST SWAP2 POP PUSH2 0x150B DUP3 PUSH2 0x14A6 JUMP JUMPDEST PUSH1 0x40 DUP3 ADD SWAP1 POP SWAP2 SWAP1 POP JUMP JUMPDEST PUSH0 PUSH1 0x20 DUP3 ADD SWAP1 POP DUP2 DUP2 SUB PUSH0 DUP4 ADD MSTORE PUSH2 0x152D DUP2 PUSH2 0x14F4 JUMP JUMPDEST SWAP1 POP SWAP2 SWAP1 POP JUMP JUMPDEST PUSH0 DUP2 SWAP1 POP SWAP3 SWAP2 POP POP JUMP JUMPDEST PUSH32 0x416363657373436F6E74726F6C3A206163636F756E7420000000000000000000 PUSH0 DUP3 ADD MSTORE POP JUMP JUMPDEST PUSH0 PUSH2 0x1572 PUSH1 0x17 DUP4 PUSH2 0x1534 JUMP JUMPDEST SWAP2 POP PUSH2 0x157D DUP3 PUSH2 0x153E JUMP JUMPDEST PUSH1 0x17 DUP3 ADD SWAP1 POP SWAP2 SWAP1 POP JUMP JUMPDEST PUSH0 DUP2 MLOAD SWAP1 POP SWAP2 SWAP1 POP JUMP JUMPDEST DUP3 DUP2 DUP4 MCOPY PUSH0 DUP4 DUP4 ADD MSTORE POP POP POP JUMP JUMPDEST PUSH0 PUSH2 0x15AA DUP3 PUSH2 0x1588 JUMP JUMPDEST PUSH2 0x15B4 DUP2 DUP6 PUSH2 0x1534 JUMP JUMPDEST SWAP4 POP PUSH2 0x15C4 DUP2 DUP6 PUSH1 0x20 DUP7 ADD PUSH2 0x1592 JUMP JUMPDEST DUP1 DUP5 ADD SWAP2 POP POP SWAP3 SWAP2 POP POP JUMP JUMPDEST PUSH32 0x206973206D697373696E6720726F6C6520000000000000000000000000000000 PUSH0 DUP3 ADD MSTORE POP JUMP JUMPDEST PUSH0 PUSH2 0x1604 PUSH1 0x11 DUP4 PUSH2 0x1534 JUMP JUMPDEST SWAP2 POP PUSH2 0x160F DUP3 PUSH2 0x15D0 JUMP JUMPDEST PUSH1 0x11 DUP3 ADD SWAP1 POP SWAP2 SWAP1 POP JUMP JUMPDEST PUSH0 PUSH2 0x1624 DUP3 PUSH2 0x1566 JUMP JUMPDEST SWAP2 POP PUSH2 0x1630 DUP3 DUP6 PUSH2 0x15A0 JUMP JUMPDEST SWAP2 POP PUSH2 0x163B DUP3 PUSH2 0x15F8 JUMP JUMPDEST SWAP2 POP PUSH2 0x1647 DUP3 DUP5 PUSH2 0x15A0 JUMP JUMPDEST SWAP2 POP DUP2 SWAP1 POP SWAP4 SWAP3 POP POP POP JUMP JUMPDEST PUSH0 PUSH1 0x1F NOT PUSH1 0x1F DUP4 ADD AND SWAP1 POP SWAP2 SWAP1 POP JUMP JUMPDEST PUSH0 PUSH2 0x166D DUP3 PUSH2 0x1588 JUMP JUMPDEST PUSH2 0x1677 DUP2 DUP6 PUSH2 0x1496 JUMP JUMPDEST SWAP4 POP PUSH2 0x1687 DUP2 DUP6 PUSH1 0x20 DUP7 ADD PUSH2 0x1592 JUMP JUMPDEST PUSH2 0x1690 DUP2 PUSH2 0x1653 JUMP JUMPDEST DUP5 ADD SWAP2 POP POP SWAP3 SWAP2 POP POP JUMP JUMPDEST PUSH0 PUSH1 0x20 DUP3 ADD SWAP1 POP DUP2 DUP2 SUB PUSH0 DUP4 ADD MSTORE PUSH2 0x16B3 DUP2 DUP5 PUSH2 0x1663 JUMP JUMPDEST SWAP1 POP SWAP3 SWAP2 POP POP JUMP JUMPDEST PUSH0 DUP2 SWAP1 POP SWAP2 SWAP1 POP JUMP JUMPDEST PUSH32 0x4E487B7100000000000000000000000000000000000000000000000000000000 PUSH0 MSTORE PUSH1 0x11 PUSH1 0x4 MSTORE PUSH1 0x24 PUSH0 REVERT JUMPDEST PUSH0 PUSH2 0x16FB DUP3 PUSH2 0x16BB JUMP JUMPDEST SWAP2 POP PUSH2 0x1706 DUP4 PUSH2 0x16BB JUMP JUMPDEST SWAP3 POP DUP3 DUP3 MUL PUSH2 0x1714 DUP2 PUSH2 0x16BB JUMP JUMPDEST SWAP2 POP DUP3 DUP3 DIV DUP5 EQ DUP4 ISZERO OR PUSH2 0x172B JUMPI PUSH2 0x172A PUSH2 0x16C4 JUMP JUMPDEST JUMPDEST POP SWAP3 SWAP2 POP POP JUMP JUMPDEST PUSH0 PUSH2 0x173C DUP3 PUSH2 0x16BB JUMP JUMPDEST SWAP2 POP PUSH2 0x1747 DUP4 PUSH2 0x16BB JUMP JUMPDEST SWAP3 POP DUP3 DUP3 ADD SWAP1 POP DUP1 DUP3 GT ISZERO PUSH2 0x175F JUMPI PUSH2 0x175E PUSH2 0x16C4 JUMP JUMPDEST JUMPDEST SWAP3 SWAP2 POP POP JUMP JUMPDEST PUSH32 0x4E487B7100000000000000000000000000000000000000000000000000000000 PUSH0 MSTORE PUSH1 0x41 PUSH1 0x4 MSTORE PUSH1 0x24 PUSH0 REVERT JUMPDEST PUSH32 0x4E487B7100000000000000000000000000000000000000000000000000000000 PUSH0 MSTORE PUSH1 0x32 PUSH1 0x4 MSTORE PUSH1 0x24 PUSH0 REVERT JUMPDEST PUSH0 PUSH2 0x17C9 DUP3 PUSH2 0x16BB JUMP JUMPDEST SWAP2 POP PUSH0 DUP3 SUB PUSH2 0x17DB JUMPI PUSH2 0x17DA PUSH2 0x16C4 JUMP JUMPDEST JUMPDEST PUSH1 0x1 DUP3 SUB SWAP1 POP SWAP2 SWAP1 POP JUMP JUMPDEST PUSH32 0x537472696E67733A20686578206C656E67746820696E73756666696369656E74 PUSH0 DUP3 ADD MSTORE POP JUMP JUMPDEST PUSH0 PUSH2 0x181A PUSH1 0x20 DUP4 PUSH2 0x1496 JUMP JUMPDEST SWAP2 POP PUSH2 0x1825 DUP3 PUSH2 0x17E6 JUMP JUMPDEST PUSH1 0x20 DUP3 ADD SWAP1 POP SWAP2 SWAP1 POP JUMP JUMPDEST PUSH0 PUSH1 0x20 DUP3 ADD SWAP1 POP DUP2 DUP2 SUB PUSH0 DUP4 ADD MSTORE PUSH2 0x1847 DUP2 PUSH2 0x180E JUMP JUMPDEST SWAP1 POP SWAP2 SWAP1 POP JUMP INVALID LOG2 PUSH5 0x6970667358 0x22 SLT KECCAK256 SHR LT MSTORE 0xE2 SIGNEXTEND CALLDATALOAD SLOAD 0x2A 0x2A SSTORE 0xC POP 0xE8 LT SLOAD PUSH28 0x4830F83434D79452F28E700AE083B4D864736F6C634300081A003300 "
				},
				"gasEstimates": {
					"creation": {
						"codeDepositCost": "1255200",
						"executionCost": "infinite",
						"totalCost": "infinite"
					},
					"external": {
						"ADDRESSES_PROVIDER()": "infinite",
						"ASSET_LISTING_ADMIN_ROLE()": "437",
						"BRIDGE_ROLE()": "369",
						"DEFAULT_ADMIN_ROLE()": "419",
						"EMERGENCY_ADMIN_ROLE()": "393",
						"FLASH_BORROWER_ROLE()": "414",
						"POOL_ADMIN_ROLE()": "391",
						"RISK_ADMIN_ROLE()": "392",
						"addAssetListingAdmin(address)": "infinite",
						"addBridge(address)": "infinite",
						"addEmergencyAdmin(address)": "infinite",
						"addFlashBorrower(address)": "infinite",
						"addPoolAdmin(address)": "infinite",
						"addRiskAdmin(address)": "infinite",
						"getRoleAdmin(bytes32)": "infinite",
						"grantRole(bytes32,address)": "infinite",
						"hasRole(bytes32,address)": "3211",
						"isAssetListingAdmin(address)": "3111",
						"isBridge(address)": "3088",
						"isEmergencyAdmin(address)": "3044",
						"isFlashBorrower(address)": "3130",
						"isPoolAdmin(address)": "3065",
						"isRiskAdmin(address)": "3044",
						"removeAssetListingAdmin(address)": "infinite",
						"removeBridge(address)": "infinite",
						"removeEmergencyAdmin(address)": "infinite",
						"removeFlashBorrower(address)": "infinite",
						"removePoolAdmin(address)": "infinite",
						"removeRiskAdmin(address)": "infinite",
						"renounceRole(bytes32,address)": "infinite",
						"revokeRole(bytes32,address)": "infinite",
						"setRoleAdmin(bytes32,bytes32)": "infinite",
						"supportsInterface(bytes4)": "764"
					}
				},
				"methodIdentifiers": {
					"ADDRESSES_PROVIDER()": "0542975c",
					"ASSET_LISTING_ADMIN_ROLE()": "78bb0a43",
					"BRIDGE_ROLE()": "b5bfddea",
					"DEFAULT_ADMIN_ROLE()": "a217fddf",
					"EMERGENCY_ADMIN_ROLE()": "6e76fc8f",
					"FLASH_BORROWER_ROLE()": "5577b7a9",
					"POOL_ADMIN_ROLE()": "b8f6dba7",
					"RISK_ADMIN_ROLE()": "4f16b425",
					"addAssetListingAdmin(address)": "9a2b96f7",
					"addBridge(address)": "9712fdf8",
					"addEmergencyAdmin(address)": "179efb09",
					"addFlashBorrower(address)": "9ac9d80b",
					"addPoolAdmin(address)": "22650caf",
					"addRiskAdmin(address)": "5b9a94e4",
					"getRoleAdmin(bytes32)": "248a9ca3",
					"grantRole(bytes32,address)": "2f2ff15d",
					"hasRole(bytes32,address)": "91d14854",
					"isAssetListingAdmin(address)": "13ee32e0",
					"isBridge(address)": "726600ce",
					"isEmergencyAdmin(address)": "2500f2b6",
					"isFlashBorrower(address)": "fa50f297",
					"isPoolAdmin(address)": "7be53ca1",
					"isRiskAdmin(address)": "674b5e4d",
					"removeAssetListingAdmin(address)": "a21bce15",
					"removeBridge(address)": "04df017d",
					"removeEmergencyAdmin(address)": "7a9a93f4",
					"removeFlashBorrower(address)": "253cf980",
					"removePoolAdmin(address)": "f83695cb",
					"removeRiskAdmin(address)": "3c5a08e5",
					"renounceRole(bytes32,address)": "36568abe",
					"revokeRole(bytes32,address)": "d547741f",
					"setRoleAdmin(bytes32,bytes32)": "1e4e0091",
					"supportsInterface(bytes4)": "01ffc9a7"
				}
			},
			"storageLayout": {
				"storage": [
					{
						"astId": 24,
						"contract": "contracts/protocol/configuration/ACLManager.sol:ACLManager",
						"label": "_roles",
						"offset": 0,
						"slot": "0",
						"type": "t_mapping(t_bytes32,t_struct(RoleData)19_storage)"
					}
				],
				"types": {
					"t_address": {
						"encoding": "inplace",
						"label": "address",
						"numberOfBytes": "20"
					},
					"t_bool": {
						"encoding": "inplace",
						"label": "bool",
						"numberOfBytes": "1"
					},
					"t_bytes32": {
						"encoding": "inplace",
						"label": "bytes32",
						"numberOfBytes": "32"
					},
					"t_mapping(t_address,t_bool)": {
						"encoding": "mapping",
						"key": "t_address",
						"label": "mapping(address => bool)",
						"numberOfBytes": "32",
						"value": "t_bool"
					},
					"t_mapping(t_bytes32,t_struct(RoleData)19_storage)": {
						"encoding": "mapping",
						"key": "t_bytes32",
						"label": "mapping(bytes32 => struct AccessControl.RoleData)",
						"numberOfBytes": "32",
						"value": "t_struct(RoleData)19_storage"
					},
					"t_struct(RoleData)19_storage": {
						"encoding": "inplace",
						"label": "struct AccessControl.RoleData",
						"members": [
							{
								"astId": 16,
								"contract": "contracts/protocol/configuration/ACLManager.sol:ACLManager",
								"label": "members",
								"offset": 0,
								"slot": "0",
								"type": "t_mapping(t_address,t_bool)"
							},
							{
								"astId": 18,
								"contract": "contracts/protocol/configuration/ACLManager.sol:ACLManager",
								"label": "adminRole",
								"offset": 0,
								"slot": "1",
								"type": "t_bytes32"
							}
						],
						"numberOfBytes": "64"
					}
				}
			},
			"userdoc": {
				"kind": "user",
				"methods": {
					"ADDRESSES_PROVIDER()": {
						"notice": "Returns the contract address of the PoolAddressesProvider"
					},
					"ASSET_LISTING_ADMIN_ROLE()": {
						"notice": "Returns the identifier of the AssetListingAdmin role"
					},
					"BRIDGE_ROLE()": {
						"notice": "Returns the identifier of the Bridge role"
					},
					"EMERGENCY_ADMIN_ROLE()": {
						"notice": "Returns the identifier of the EmergencyAdmin role"
					},
					"FLASH_BORROWER_ROLE()": {
						"notice": "Returns the identifier of the FlashBorrower role"
					},
					"POOL_ADMIN_ROLE()": {
						"notice": "Returns the identifier of the PoolAdmin role"
					},
					"RISK_ADMIN_ROLE()": {
						"notice": "Returns the identifier of the RiskAdmin role"
					},
					"addAssetListingAdmin(address)": {
						"notice": "Adds a new admin as AssetListingAdmin"
					},
					"addBridge(address)": {
						"notice": "Adds a new address as Bridge"
					},
					"addEmergencyAdmin(address)": {
						"notice": "Adds a new admin as EmergencyAdmin"
					},
					"addFlashBorrower(address)": {
						"notice": "Adds a new address as FlashBorrower"
					},
					"addPoolAdmin(address)": {
						"notice": "Adds a new admin as PoolAdmin"
					},
					"addRiskAdmin(address)": {
						"notice": "Adds a new admin as RiskAdmin"
					},
					"isAssetListingAdmin(address)": {
						"notice": "Returns true if the address is AssetListingAdmin, false otherwise"
					},
					"isBridge(address)": {
						"notice": "Returns true if the address is Bridge, false otherwise"
					},
					"isEmergencyAdmin(address)": {
						"notice": "Returns true if the address is EmergencyAdmin, false otherwise"
					},
					"isFlashBorrower(address)": {
						"notice": "Returns true if the address is FlashBorrower, false otherwise"
					},
					"isPoolAdmin(address)": {
						"notice": "Returns true if the address is PoolAdmin, false otherwise"
					},
					"isRiskAdmin(address)": {
						"notice": "Returns true if the address is RiskAdmin, false otherwise"
					},
					"removeAssetListingAdmin(address)": {
						"notice": "Removes an admin as AssetListingAdmin"
					},
					"removeBridge(address)": {
						"notice": "Removes an address as Bridge"
					},
					"removeEmergencyAdmin(address)": {
						"notice": "Removes an admin as EmergencyAdmin"
					},
					"removeFlashBorrower(address)": {
						"notice": "Removes an address as FlashBorrower"
					},
					"removePoolAdmin(address)": {
						"notice": "Removes an admin as PoolAdmin"
					},
					"removeRiskAdmin(address)": {
						"notice": "Removes an admin as RiskAdmin"
					},
					"setRoleAdmin(bytes32,bytes32)": {
						"notice": "Set the role as admin of a specific role."
					}
				},
				"notice": "Access Control List Manager. Main registry of system roles and permissions.",
				"version": 1
			}
		}
	}
}